{
  "_format": "hh-sol-artifact-1",
  "contractName": "utils",
  "sourceName": "src/services/chain-sim/contracts/misc/Utils.sol",
  "abi": [
    {
      "inputs": [
        {
          "internalType": "bytes",
          "name": "byteCode",
          "type": "bytes"
        }
      ],
      "name": "bytesToString",
      "outputs": [
        {
          "internalType": "string",
          "name": "stringData",
          "type": "string"
        }
      ],
      "stateMutability": "pure",
      "type": "function"
    }
  ],
  "bytecode": "0x610568610053600b82828239805160001a607314610046577f4e487b7100000000000000000000000000000000000000000000000000000000600052600060045260246000fd5b30600052607381538281f3fe73000000000000000000000000000000000000000030146080604052600436106100355760003560e01c806339614e4f1461003a575b600080fd5b610054600480360381019061004f91906102d6565b61006a565b60405161006191906103a7565b60405180910390f35b6060600080835190506000602085516100839190610431565b9050600082905060006020846100999190610462565b11156100bd5781806100aa90610493565b9250506020816100ba91906104dc565b90505b8067ffffffffffffffff8111156100d7576100d66101ab565b5b6040519080825280601f01601f1916602001820160405280156101095781602001600182028036833780820191505090505b509450600060208601602088015b8483101561013a5780518252602082019150602081019050600183019250610117565b505050600060208461014c9190610462565b111561017357600083602061016191906104dc565b90508086016020860151815284875250505b50505050919050565b6000604051905090565b600080fd5b600080fd5b600080fd5b600080fd5b6000601f19601f8301169050919050565b7f4e487b7100000000000000000000000000000000000000000000000000000000600052604160045260246000fd5b6101e38261019a565b810181811067ffffffffffffffff82111715610202576102016101ab565b5b80604052505050565b600061021561017c565b905061022182826101da565b919050565b600067ffffffffffffffff821115610241576102406101ab565b5b61024a8261019a565b9050602081019050919050565b82818337600083830152505050565b600061027961027484610226565b61020b565b90508281526020810184848401111561029557610294610195565b5b6102a0848285610257565b509392505050565b600082601f8301126102bd576102bc610190565b5b81356102cd848260208601610266565b91505092915050565b6000602082840312156102ec576102eb610186565b5b600082013567ffffffffffffffff81111561030a5761030961018b565b5b610316848285016102a8565b91505092915050565b600081519050919050565b600082825260208201905092915050565b60005b8381101561035957808201518184015260208101905061033e565b83811115610368576000848401525b50505050565b60006103798261031f565b610383818561032a565b935061039381856020860161033b565b61039c8161019a565b840191505092915050565b600060208201905081810360008301526103c1818461036e565b905092915050565b6000819050919050565b7f4e487b7100000000000000000000000000000000000000000000000000000000600052601260045260246000fd5b7f4e487b7100000000000000000000000000000000000000000000000000000000600052601160045260246000fd5b600061043c826103c9565b9150610447836103c9565b925082610457576104566103d3565b5b828204905092915050565b600061046d826103c9565b9150610478836103c9565b925082610488576104876103d3565b5b828206905092915050565b600061049e826103c9565b91507fffffffffffffffffffffffffffffffffffffffffffffffffffffffffffffffff8214156104d1576104d0610402565b5b600182019050919050565b60006104e7826103c9565b91506104f2836103c9565b9250827fffffffffffffffffffffffffffffffffffffffffffffffffffffffffffffffff0382111561052757610526610402565b5b82820190509291505056fea2646970667358221220db3fc55956ec19c24c6cc97ae0d3c08046495685d76baa9c48827bac39315a6464736f6c634300080c0033",
  "linkReferences": {},
  "deployedLinkReferences": {}
}