{
  "_format": "hh-sol-artifact-1",
  "contractName": "ScriptyStorageFactory",
  "sourceName": "src/contracts/ScriptyStorageFactory.sol",
  "abi": [
    {
      "inputs": [
        {
          "internalType": "address",
          "name": "_scriptyStorageLib",
          "type": "address"
        },
        {
          "internalType": "address",
          "name": "_contentStoreFactory",
          "type": "address"
        }
      ],
      "stateMutability": "nonpayable",
      "type": "constructor"
    },
    {
      "anonymous": false,
      "inputs": [
        {
          "indexed": false,
          "internalType": "address",
          "name": "newAddress",
          "type": "address"
        }
      ],
      "name": "ScriptyStorageFactoryCreated",
      "type": "event"
    },
    {
      "inputs": [],
      "name": "contentStoreFactoryAddress",
      "outputs": [
        {
          "internalType": "address",
          "name": "",
          "type": "address"
        }
      ],
      "stateMutability": "view",
      "type": "function"
    },
    {
      "inputs": [],
      "name": "create",
      "outputs": [
        {
          "internalType": "address",
          "name": "",
          "type": "address"
        }
      ],
      "stateMutability": "nonpayable",
      "type": "function"
    },
    {
      "inputs": [],
      "name": "scriptyStorageLibraryAddress",
      "outputs": [
        {
          "internalType": "address",
          "name": "",
          "type": "address"
        }
      ],
      "stateMutability": "view",
      "type": "function"
    }
  ],
  "bytecode": "0x60c060405234801561001057600080fd5b5060405161052338038061052383398181016040528101906100329190610104565b8173ffffffffffffffffffffffffffffffffffffffff1660808173ffffffffffffffffffffffffffffffffffffffff16815250508073ffffffffffffffffffffffffffffffffffffffff1660a08173ffffffffffffffffffffffffffffffffffffffff16815250505050610144565b600080fd5b600073ffffffffffffffffffffffffffffffffffffffff82169050919050565b60006100d1826100a6565b9050919050565b6100e1816100c6565b81146100ec57600080fd5b50565b6000815190506100fe816100d8565b92915050565b6000806040838503121561011b5761011a6100a1565b5b6000610129858286016100ef565b925050602061013a858286016100ef565b9150509250929050565b60805160a0516103af6101746000396000818160a2015260ed01526000818160c6015261018501526103af6000f3fe608060405234801561001057600080fd5b50600436106100415760003560e01c8063191296fb14610046578063953c62c514610064578063efc81a8c14610082575b600080fd5b61004e6100a0565b60405161005b9190610300565b60405180910390f35b61006c6100c4565b6040516100799190610300565b60405180910390f35b61008a6100e8565b6040516100979190610300565b60405180910390f35b7f000000000000000000000000000000000000000000000000000000000000000081565b7f000000000000000000000000000000000000000000000000000000000000000081565b6000807f000000000000000000000000000000000000000000000000000000000000000073ffffffffffffffffffffffffffffffffffffffff1663efc81a8c6040518163ffffffff1660e01b81526004016020604051808303816000875af1158015610158573d6000803e3d6000fd5b505050506040513d601f19601f8201168201806040525081019061017c919061034c565b905060006101a97f0000000000000000000000000000000000000000000000000000000000000000610255565b90508073ffffffffffffffffffffffffffffffffffffffff1663ff0c484e836040518263ffffffff1660e01b81526004016101e49190610300565b600060405180830381600087803b1580156101fe57600080fd5b505af1158015610212573d6000803e3d6000fd5b505050507f726c7e7605dee45f62f32495efd3a3a1f64f7545d7fd52ac3c7a8a3b46283e7e816040516102459190610300565b60405180910390a1809250505090565b6000808260601b90506040517f3d602d80600a3d3981f3363d3d373d3d3d363d7300000000000000000000000081528160148201527f5af43d82803e903d91602b57fd5bf3000000000000000000000000000000000060288201526037816000f092505050919050565b600073ffffffffffffffffffffffffffffffffffffffff82169050919050565b60006102ea826102bf565b9050919050565b6102fa816102df565b82525050565b600060208201905061031560008301846102f1565b92915050565b600080fd5b610329816102df565b811461033457600080fd5b50565b60008151905061034681610320565b92915050565b6000602082840312156103625761036161031b565b5b600061037084828501610337565b9150509291505056fea26469706673582212201924b32eb41e18de72427af723ae18db1ecebf2e8f238e95fd434e4b0c7d770a64736f6c63430008110033",
  "linkReferences": {},
  "deployedLinkReferences": {}
}