{
  "_format": "hh-sol-artifact-1",
  "contractName": "ScriptyStorageFactory",
  "sourceName": "src/contracts/ScriptyStorageFactory.sol",
  "abi": [
    {
      "inputs": [
        {
          "internalType": "address",
          "name": "_scriptyStorageLib",
          "type": "address"
        },
        {
          "internalType": "address",
          "name": "_contentStoreFactory",
          "type": "address"
        }
      ],
      "stateMutability": "nonpayable",
      "type": "constructor"
    },
    {
      "anonymous": false,
      "inputs": [
        {
          "indexed": false,
          "internalType": "address",
          "name": "newAddress",
          "type": "address"
        }
      ],
      "name": "ScriptyStorageFactoryCreated",
      "type": "event"
    },
    {
      "inputs": [],
      "name": "contentStoreFactoryAddress",
      "outputs": [
        {
          "internalType": "address",
          "name": "",
          "type": "address"
        }
      ],
      "stateMutability": "view",
      "type": "function"
    },
    {
      "inputs": [],
      "name": "create",
      "outputs": [
        {
          "internalType": "address",
          "name": "",
          "type": "address"
        }
      ],
      "stateMutability": "nonpayable",
      "type": "function"
    },
    {
      "inputs": [
        {
          "internalType": "string",
          "name": "name",
          "type": "string"
        },
        {
          "internalType": "bytes",
          "name": "chunk",
          "type": "bytes"
        }
      ],
      "name": "createWithNewScript",
      "outputs": [
        {
          "internalType": "address",
          "name": "",
          "type": "address"
        }
      ],
      "stateMutability": "nonpayable",
      "type": "function"
    },
    {
      "inputs": [],
      "name": "scriptyStorageLibraryAddress",
      "outputs": [
        {
          "internalType": "address",
          "name": "",
          "type": "address"
        }
      ],
      "stateMutability": "view",
      "type": "function"
    }
  ],
  "bytecode": "0x60c060405234801561001057600080fd5b50604051610a8e380380610a8e83398181016040528101906100329190610104565b8173ffffffffffffffffffffffffffffffffffffffff1660808173ffffffffffffffffffffffffffffffffffffffff16815250508073ffffffffffffffffffffffffffffffffffffffff1660a08173ffffffffffffffffffffffffffffffffffffffff16815250505050610144565b600080fd5b600073ffffffffffffffffffffffffffffffffffffffff82169050919050565b60006100d1826100a6565b9050919050565b6100e1816100c6565b81146100ec57600080fd5b50565b6000815190506100fe816100d8565b92915050565b6000806040838503121561011b5761011a6100a1565b5b6000610129858286016100ef565b925050602061013a858286016100ef565b9150509250929050565b60805160a05161090a6101846000396000818160dd01528181610104015261038901526000818161019c015281816103620152610421015261090a6000f3fe608060405234801561001057600080fd5b506004361061004c5760003560e01c8063191296fb146100515780631bf235ee1461006f578063953c62c51461009f578063efc81a8c146100bd575b600080fd5b6100596100db565b604051610066919061059c565b60405180910390f35b6100896004803603810190610084919061067c565b6100ff565b604051610096919061059c565b60405180910390f35b6100a7610360565b6040516100b4919061059c565b60405180910390f35b6100c5610384565b6040516100d2919061059c565b60405180910390f35b7f000000000000000000000000000000000000000000000000000000000000000081565b6000807f000000000000000000000000000000000000000000000000000000000000000073ffffffffffffffffffffffffffffffffffffffff1663efc81a8c6040518163ffffffff1660e01b81526004016020604051808303816000875af115801561016f573d6000803e3d6000fd5b505050506040513d601f19601f820116820180604052508101906101939190610729565b905060006101c07f00000000000000000000000000000000000000000000000000000000000000006104f1565b90508073ffffffffffffffffffffffffffffffffffffffff1663ff0c484e836040518263ffffffff1660e01b81526004016101fb919061059c565b600060405180830381600087803b15801561021557600080fd5b505af1158015610229573d6000803e3d6000fd5b505050508073ffffffffffffffffffffffffffffffffffffffff16638652d6698888604051806020016040528060008152506040518463ffffffff1660e01b815260040161027993929190610833565b600060405180830381600087803b15801561029357600080fd5b505af11580156102a7573d6000803e3d6000fd5b505050508073ffffffffffffffffffffffffffffffffffffffff16633b7aa8d9888888886040518563ffffffff1660e01b81526004016102ea9493929190610899565b600060405180830381600087803b15801561030457600080fd5b505af1158015610318573d6000803e3d6000fd5b505050507f726c7e7605dee45f62f32495efd3a3a1f64f7545d7fd52ac3c7a8a3b46283e7e8160405161034b919061059c565b60405180910390a18092505050949350505050565b7f000000000000000000000000000000000000000000000000000000000000000081565b6000807f000000000000000000000000000000000000000000000000000000000000000073ffffffffffffffffffffffffffffffffffffffff1663efc81a8c6040518163ffffffff1660e01b81526004016020604051808303816000875af11580156103f4573d6000803e3d6000fd5b505050506040513d601f19601f820116820180604052508101906104189190610729565b905060006104457f00000000000000000000000000000000000000000000000000000000000000006104f1565b90508073ffffffffffffffffffffffffffffffffffffffff1663ff0c484e836040518263ffffffff1660e01b8152600401610480919061059c565b600060405180830381600087803b15801561049a57600080fd5b505af11580156104ae573d6000803e3d6000fd5b505050507f726c7e7605dee45f62f32495efd3a3a1f64f7545d7fd52ac3c7a8a3b46283e7e816040516104e1919061059c565b60405180910390a1809250505090565b6000808260601b90506040517f3d602d80600a3d3981f3363d3d373d3d3d363d7300000000000000000000000081528160148201527f5af43d82803e903d91602b57fd5bf3000000000000000000000000000000000060288201526037816000f092505050919050565b600073ffffffffffffffffffffffffffffffffffffffff82169050919050565b60006105868261055b565b9050919050565b6105968161057b565b82525050565b60006020820190506105b1600083018461058d565b92915050565b600080fd5b600080fd5b600080fd5b600080fd5b600080fd5b60008083601f8401126105e6576105e56105c1565b5b8235905067ffffffffffffffff811115610603576106026105c6565b5b60208301915083600182028301111561061f5761061e6105cb565b5b9250929050565b60008083601f84011261063c5761063b6105c1565b5b8235905067ffffffffffffffff811115610659576106586105c6565b5b602083019150836001820283011115610675576106746105cb565b5b9250929050565b60008060008060408587031215610696576106956105b7565b5b600085013567ffffffffffffffff8111156106b4576106b36105bc565b5b6106c0878288016105d0565b9450945050602085013567ffffffffffffffff8111156106e3576106e26105bc565b5b6106ef87828801610626565b925092505092959194509250565b6107068161057b565b811461071157600080fd5b50565b600081519050610723816106fd565b92915050565b60006020828403121561073f5761073e6105b7565b5b600061074d84828501610714565b91505092915050565b600082825260208201905092915050565b82818337600083830152505050565b6000601f19601f8301169050919050565b60006107938385610756565b93506107a0838584610767565b6107a983610776565b840190509392505050565b600081519050919050565b600082825260208201905092915050565b60005b838110156107ee5780820151818401526020810190506107d3565b60008484015250505050565b6000610805826107b4565b61080f81856107bf565b935061081f8185602086016107d0565b61082881610776565b840191505092915050565b6000604082019050818103600083015261084e818587610787565b9050818103602083015261086281846107fa565b9050949350505050565b600061087883856107bf565b9350610885838584610767565b61088e83610776565b840190509392505050565b600060408201905081810360008301526108b4818688610787565b905081810360208301526108c981848661086c565b90509594505050505056fea26469706673582212202b417ac3498d2e18dbe9ceb0400bf588d198f4932e44720b8ecd31010d63c64964736f6c63430008110033",
  "linkReferences": {},
  "deployedLinkReferences": {}
}