{"src/contracts/FrameDeployer.sol":{"FrameDeployer":{"abi":[{"inputs":[{"internalType":"address","name":"_scriptyStorage","type":"address"},{"internalType":"address","name":"_frame","type":"address"},{"internalType":"address","name":"_scriptyBuilder","type":"address"}],"stateMutability":"nonpayable","type":"constructor"},{"anonymous":false,"inputs":[{"indexed":false,"internalType":"address","name":"newAddress","type":"address"}],"name":"FrameCreated","type":"event"},{"inputs":[{"components":[{"internalType":"string","name":"name","type":"string"},{"internalType":"string","name":"symbol","type":"string"}],"internalType":"struct FrameTokenMetadata","name":"_tokenMetadata","type":"tuple"},{"components":[{"internalType":"string","name":"encodedName","type":"string"},{"internalType":"string","name":"encodedDescription","type":"string"}],"internalType":"struct FrameMetadata","name":"_metadata","type":"tuple"},{"internalType":"uint256","name":"_bufferSize","type":"uint256"},{"components":[{"internalType":"string","name":"name","type":"string"},{"internalType":"address","name":"contractAddress","type":"address"},{"internalType":"bytes","name":"contractData","type":"bytes"},{"internalType":"uint8","name":"wrapType","type":"uint8"},{"internalType":"bytes","name":"wrapPrefix","type":"bytes"},{"internalType":"bytes","name":"wrapSuffix","type":"bytes"},{"internalType":"bytes","name":"scriptContent","type":"bytes"}],"internalType":"struct WrappedScriptRequest[]","name":"_requests","type":"tuple[]"}],"name":"createFrame","outputs":[{"internalType":"address","name":"","type":"address"}],"stateMutability":"nonpayable","type":"function"},{"inputs":[{"components":[{"internalType":"string","name":"name","type":"string"},{"internalType":"string","name":"symbol","type":"string"}],"internalType":"struct FrameTokenMetadata","name":"_tokenMetadata","type":"tuple"},{"components":[{"internalType":"string","name":"encodedName","type":"string"},{"internalType":"string","name":"encodedDescription","type":"string"}],"internalType":"struct FrameMetadata","name":"_metadata","type":"tuple"},{"internalType":"uint256","name":"_bufferSize","type":"uint256"},{"components":[{"internalType":"string","name":"name","type":"string"},{"internalType":"bytes","name":"contractData","type":"bytes"},{"internalType":"uint8","name":"wrapType","type":"uint8"},{"internalType":"bytes","name":"wrapPrefix","type":"bytes"},{"internalType":"bytes","name":"wrapSuffix","type":"bytes"},{"internalType":"bytes","name":"scriptContent","type":"bytes"}],"internalType":"struct EmptyWrappedScriptRequest","name":"_sourceRequest","type":"tuple"},{"components":[{"internalType":"string","name":"name","type":"string"},{"internalType":"address","name":"contractAddress","type":"address"},{"internalType":"bytes","name":"contractData","type":"bytes"},{"internalType":"uint8","name":"wrapType","type":"uint8"},{"internalType":"bytes","name":"wrapPrefix","type":"bytes"},{"internalType":"bytes","name":"wrapSuffix","type":"bytes"},{"internalType":"bytes","name":"scriptContent","type":"bytes"}],"internalType":"struct WrappedScriptRequest[]","name":"_requests","type":"tuple[]"}],"name":"createFrameWithStorage","outputs":[{"internalType":"address","name":"","type":"address"}],"stateMutability":"nonpayable","type":"function"},{"inputs":[],"name":"frameFactory","outputs":[{"internalType":"address","name":"","type":"address"}],"stateMutability":"view","type":"function"},{"inputs":[],"name":"scriptyBuilder","outputs":[{"internalType":"address","name":"","type":"address"}],"stateMutability":"view","type":"function"},{"inputs":[],"name":"scriptyStorageFactory","outputs":[{"internalType":"address","name":"","type":"address"}],"stateMutability":"view","type":"function"}],"evm":{"bytecode":{"linkReferences":{},"object":"60e06040523480156200001157600080fd5b5060405162001ec038038062001ec0833981810160405281019062000037919062000146565b8273ffffffffffffffffffffffffffffffffffffffff1660808173ffffffffffffffffffffffffffffffffffffffff16815250508173ffffffffffffffffffffffffffffffffffffffff1660a08173ffffffffffffffffffffffffffffffffffffffff16815250508073ffffffffffffffffffffffffffffffffffffffff1660c08173ffffffffffffffffffffffffffffffffffffffff1681525050505050620001a2565b600080fd5b600073ffffffffffffffffffffffffffffffffffffffff82169050919050565b60006200010e82620000e1565b9050919050565b620001208162000101565b81146200012c57600080fd5b50565b600081519050620001408162000115565b92915050565b600080600060608486031215620001625762000161620000dc565b5b600062000172868287016200012f565b935050602062000185868287016200012f565b925050604062000198868287016200012f565b9150509250925092565b60805160a05160c051611ccb620001f5600039600081816102c10152818161037b015261093901526000818161011b0152818161039f01526105980152600081816103c301526103ea0152611ccb6000f3fe608060405234801561001057600080fd5b50600436106100575760003560e01c806355af88221461005c57806391a0d36d1461008c578063954bf4d1146100aa57806396ed95d8146100c8578063dd958cba146100e6575b600080fd5b61007660048036038101906100719190610c9c565b610116565b6040516100839190610d9d565b60405180910390f35b610094610379565b6040516100a19190610d9d565b60405180910390f35b6100b261039d565b6040516100bf9190610d9d565b60405180910390f35b6100d06103c1565b6040516100dd9190610d9d565b60405180910390f35b61010060048036038101906100fb9190610dd7565b6103e5565b60405161010d9190610d9d565b60405180910390f35b6000807f000000000000000000000000000000000000000000000000000000000000000073ffffffffffffffffffffffffffffffffffffffff1663efc81a8c6040518163ffffffff1660e01b81526004016020604051808303816000875af1158015610186573d6000803e3d6000fd5b505050506040513d601f19601f820116820180604052508101906101aa9190610ef1565b90508073ffffffffffffffffffffffffffffffffffffffff1663c47f00278880600001906101d89190610f2d565b6040518363ffffffff1660e01b81526004016101f5929190610fee565b600060405180830381600087803b15801561020f57600080fd5b505af1158015610223573d6000803e3d6000fd5b505050508073ffffffffffffffffffffffffffffffffffffffff1663b84c82468880602001906102539190610f2d565b6040518363ffffffff1660e01b8152600401610270929190610fee565b600060405180830381600087803b15801561028a57600080fd5b505af115801561029e573d6000803e3d6000fd5b505050508073ffffffffffffffffffffffffffffffffffffffff16634e197151877f00000000000000000000000000000000000000000000000000000000000000008888886040518663ffffffff1660e01b8152600401610303959493929190611436565b600060405180830381600087803b15801561031d57600080fd5b505af1158015610331573d6000803e3d6000fd5b505050507f62392641265fcc5a6a8128fd39634480ffe377e76dc54dcad335e1289fcc0fd5816040516103649190610d9d565b60405180910390a18091505095945050505050565b7f000000000000000000000000000000000000000000000000000000000000000081565b7f000000000000000000000000000000000000000000000000000000000000000081565b7f000000000000000000000000000000000000000000000000000000000000000081565b6000807f000000000000000000000000000000000000000000000000000000000000000073ffffffffffffffffffffffffffffffffffffffff1663efc81a8c6040518163ffffffff1660e01b81526004016020604051808303816000875af1158015610455573d6000803e3d6000fd5b505050506040513d601f19601f820116820180604052508101906104799190610ef1565b90508073ffffffffffffffffffffffffffffffffffffffff16638652d6698680600001906104a79190610f2d565b604051806020016040528060008152506040518463ffffffff1660e01b81526004016104d59392919061150a565b600060405180830381600087803b1580156104ef57600080fd5b505af1158015610503573d6000803e3d6000fd5b505050508073ffffffffffffffffffffffffffffffffffffffff16633b7aa8d98680600001906105339190610f2d565b888060a001906105439190611543565b6040518563ffffffff1660e01b815260040161056294939291906115d3565b600060405180830381600087803b15801561057c57600080fd5b505af1158015610590573d6000803e3d6000fd5b5050505060007f000000000000000000000000000000000000000000000000000000000000000073ffffffffffffffffffffffffffffffffffffffff1663efc81a8c6040518163ffffffff1660e01b81526004016020604051808303816000875af1158015610603573d6000803e3d6000fd5b505050506040513d601f19601f820116820180604052508101906106279190610ef1565b9050600060018686905061063b919061163d565b905060008167ffffffffffffffff81111561065957610658611671565b5b60405190808252806020026020018201604052801561069257816020015b61067f610b54565b8152602001906001900390816106775790505b50905060005b87879050811015610702578787828181106106b6576106b56116a0565b5b90506020028101906106c891906116cf565b6106d1906119d4565b8282815181106106e4576106e36116a0565b5b602002602001018190525080806106fa906119e7565b915050610698565b506040518060e0016040528089806000019061071e9190610f2d565b8080601f016020809104026020016040519081016040528093929190818152602001838380828437600081840152601f19601f8201169050808301925050505050505081526020018573ffffffffffffffffffffffffffffffffffffffff1681526020018980602001906107929190611543565b8080601f016020809104026020016040519081016040528093929190818152602001838380828437600081840152601f19601f8201169050808301925050505050505081526020018960400160208101906107ed9190611a2f565b60ff1681526020018980606001906108059190611543565b8080601f016020809104026020016040519081016040528093929190818152602001838380828437600081840152601f19601f82011690508083019250505050505050815260200189806080019061085d9190611543565b8080601f016020809104026020016040519081016040528093929190818152602001838380828437600081840152601f19601f820116905080830192505050505050508152602001898060a001906108b59190611543565b8080601f016020809104026020016040519081016040528093929190818152602001838380828437600081840152601f19601f820116905080830192505050505050508152508182518151811061090f5761090e6116a0565b5b60200260200101819052508273ffffffffffffffffffffffffffffffffffffffff16634e1971518b7f00000000000000000000000000000000000000000000000000000000000000008c856040518563ffffffff1660e01b81526004016109799493929190611c42565b600060405180830381600087803b15801561099357600080fd5b505af11580156109a7573d6000803e3d6000fd5b505050508273ffffffffffffffffffffffffffffffffffffffff1663c47f00278c80600001906109d79190610f2d565b6040518363ffffffff1660e01b81526004016109f4929190610fee565b600060405180830381600087803b158015610a0e57600080fd5b505af1158015610a22573d6000803e3d6000fd5b505050508273ffffffffffffffffffffffffffffffffffffffff1663b84c82468c8060200190610a529190610f2d565b6040518363ffffffff1660e01b8152600401610a6f929190610fee565b600060405180830381600087803b158015610a8957600080fd5b505af1158015610a9d573d6000803e3d6000fd5b505050508273ffffffffffffffffffffffffffffffffffffffff1663a50d81c7336040518263ffffffff1660e01b8152600401610ada9190610d9d565b600060405180830381600087803b158015610af457600080fd5b505af1158015610b08573d6000803e3d6000fd5b505050507f62392641265fcc5a6a8128fd39634480ffe377e76dc54dcad335e1289fcc0fd583604051610b3b9190610d9d565b60405180910390a1829450505050509695505050505050565b6040518060e0016040528060608152602001600073ffffffffffffffffffffffffffffffffffffffff16815260200160608152602001600060ff1681526020016060815260200160608152602001606081525090565b6000604051905090565b600080fd5b600080fd5b600080fd5b600060408284031215610bd957610bd8610bbe565b5b81905092915050565b600060408284031215610bf857610bf7610bbe565b5b81905092915050565b6000819050919050565b610c1481610c01565b8114610c1f57600080fd5b50565b600081359050610c3181610c0b565b92915050565b600080fd5b600080fd5b600080fd5b60008083601f840112610c5c57610c5b610c37565b5b8235905067ffffffffffffffff811115610c7957610c78610c3c565b5b602083019150836020820283011115610c9557610c94610c41565b5b9250929050565b600080600080600060808688031215610cb857610cb7610bb4565b5b600086013567ffffffffffffffff811115610cd657610cd5610bb9565b5b610ce288828901610bc3565b955050602086013567ffffffffffffffff811115610d0357610d02610bb9565b5b610d0f88828901610be2565b9450506040610d2088828901610c22565b935050606086013567ffffffffffffffff811115610d4157610d40610bb9565b5b610d4d88828901610c46565b92509250509295509295909350565b600073ffffffffffffffffffffffffffffffffffffffff82169050919050565b6000610d8782610d5c565b9050919050565b610d9781610d7c565b82525050565b6000602082019050610db26000830184610d8e565b92915050565b600060c08284031215610dce57610dcd610bbe565b5b81905092915050565b60008060008060008060a08789031215610df457610df3610bb4565b5b600087013567ffffffffffffffff811115610e1257610e11610bb9565b5b610e1e89828a01610bc3565b965050602087013567ffffffffffffffff811115610e3f57610e3e610bb9565b5b610e4b89828a01610be2565b9550506040610e5c89828a01610c22565b945050606087013567ffffffffffffffff811115610e7d57610e7c610bb9565b5b610e8989828a01610db8565b935050608087013567ffffffffffffffff811115610eaa57610ea9610bb9565b5b610eb689828a01610c46565b92509250509295509295509295565b610ece81610d7c565b8114610ed957600080fd5b50565b600081519050610eeb81610ec5565b92915050565b600060208284031215610f0757610f06610bb4565b5b6000610f1584828501610edc565b91505092915050565b600080fd5b600080fd5b600080fd5b60008083356001602003843603038112610f4a57610f49610f1e565b5b80840192508235915067ffffffffffffffff821115610f6c57610f6b610f23565b5b602083019250600182023603831315610f8857610f87610f28565b5b509250929050565b600082825260208201905092915050565b82818337600083830152505050565b6000601f19601f8301169050919050565b6000610fcd8385610f90565b9350610fda838584610fa1565b610fe383610fb0565b840190509392505050565b60006020820190508181036000830152611009818486610fc1565b90509392505050565b600080fd5b600080fd5b600080fd5b6000808335600160200384360303811261103e5761103d61101c565b5b83810192508235915060208301925067ffffffffffffffff82111561106657611065611012565b5b60018202360383131561107c5761107b611017565b5b509250929050565b600082825260208201905092915050565b60006110a18385611084565b93506110ae838584610fa1565b6110b783610fb0565b840190509392505050565b6000604083016110d56000840184611021565b85830360008701526110e8838284611095565b925050506110f96020840184611021565b858303602087015261110c838284611095565b925050508091505092915050565b61112381610c01565b82525050565b600082825260208201905092915050565b6000819050919050565b60008135905061115381610ec5565b92915050565b60006111686020840184611144565b905092915050565b61117981610d7c565b82525050565b6000808335600160200384360303811261119c5761119b61101c565b5b83810192508235915060208301925067ffffffffffffffff8211156111c4576111c3611012565b5b6001820236038313156111da576111d9611017565b5b509250929050565b600082825260208201905092915050565b60006111ff83856111e2565b935061120c838584610fa1565b61121583610fb0565b840190509392505050565b600060ff82169050919050565b61123681611220565b811461124157600080fd5b50565b6000813590506112538161122d565b92915050565b60006112686020840184611244565b905092915050565b61127981611220565b82525050565b600060e083016112926000840184611021565b85830360008701526112a5838284611095565b925050506112b66020840184611159565b6112c36020860182611170565b506112d1604084018461117f565b85830360408701526112e48382846111f3565b925050506112f56060840184611259565b6113026060860182611270565b50611310608084018461117f565b85830360808701526113238382846111f3565b9250505061133460a084018461117f565b85830360a08701526113478382846111f3565b9250505061135860c084018461117f565b85830360c087015261136b8382846111f3565b925050508091505092915050565b6000611385838361127f565b905092915050565b60008235600160e0038336030381126113a9576113a861101c565b5b82810191505092915050565b6000602082019050919050565b60006113ce8385611129565b9350836020840285016113e08461113a565b8060005b878110156114245784840389526113fb828461138d565b6114058582611379565b9450611410836113b5565b925060208a019950506001810190506113e4565b50829750879450505050509392505050565b6000608082019050818103600083015261145081886110c2565b905061145f6020830187610d8e565b61146c604083018661111a565b818103606083015261147f8184866113c2565b90509695505050505050565b600081519050919050565b600082825260208201905092915050565b60005b838110156114c55780820151818401526020810190506114aa565b60008484015250505050565b60006114dc8261148b565b6114e68185611496565b93506114f68185602086016114a7565b6114ff81610fb0565b840191505092915050565b60006040820190508181036000830152611525818587610fc1565b9050818103602083015261153981846114d1565b9050949350505050565b600080833560016020038436030381126115605761155f610f1e565b5b80840192508235915067ffffffffffffffff82111561158257611581610f23565b5b60208301925060018202360383131561159e5761159d610f28565b5b509250929050565b60006115b28385611496565b93506115bf838584610fa1565b6115c883610fb0565b840190509392505050565b600060408201905081810360008301526115ee818688610fc1565b905081810360208301526116038184866115a6565b905095945050505050565b7f4e487b7100000000000000000000000000000000000000000000000000000000600052601160045260246000fd5b600061164882610c01565b915061165383610c01565b925082820190508082111561166b5761166a61160e565b5b92915050565b7f4e487b7100000000000000000000000000000000000000000000000000000000600052604160045260246000fd5b7f4e487b7100000000000000000000000000000000000000000000000000000000600052603260045260246000fd5b60008235600160e0038336030381126116eb576116ea610f1e565b5b80830191505092915050565b600080fd5b61170582610fb0565b810181811067ffffffffffffffff8211171561172457611723611671565b5b80604052505050565b6000611737610baa565b905061174382826116fc565b919050565b600080fd5b600080fd5b600067ffffffffffffffff82111561176d5761176c611671565b5b61177682610fb0565b9050602081019050919050565b600061179661179184611752565b61172d565b9050828152602081018484840111156117b2576117b161174d565b5b6117bd848285610fa1565b509392505050565b600082601f8301126117da576117d9610c37565b5b81356117ea848260208601611783565b91505092915050565b600067ffffffffffffffff82111561180e5761180d611671565b5b61181782610fb0565b9050602081019050919050565b6000611837611832846117f3565b61172d565b9050828152602081018484840111156118535761185261174d565b5b61185e848285610fa1565b509392505050565b600082601f83011261187b5761187a610c37565b5b813561188b848260208601611824565b91505092915050565b600060e082840312156118aa576118a96116f7565b5b6118b460e061172d565b9050600082013567ffffffffffffffff8111156118d4576118d3611748565b5b6118e0848285016117c5565b60008301525060206118f484828501611144565b602083015250604082013567ffffffffffffffff81111561191857611917611748565b5b61192484828501611866565b604083015250606061193884828501611244565b606083015250608082013567ffffffffffffffff81111561195c5761195b611748565b5b61196884828501611866565b60808301525060a082013567ffffffffffffffff81111561198c5761198b611748565b5b61199884828501611866565b60a08301525060c082013567ffffffffffffffff8111156119bc576119bb611748565b5b6119c884828501611866565b60c08301525092915050565b60006119e03683611894565b9050919050565b60006119f282610c01565b91507fffffffffffffffffffffffffffffffffffffffffffffffffffffffffffffffff8203611a2457611a2361160e565b5b600182019050919050565b600060208284031215611a4557611a44610bb4565b5b6000611a5384828501611244565b91505092915050565b600081519050919050565b6000819050602082019050919050565b600081519050919050565b6000611a8d82611a77565b611a978185611084565b9350611aa78185602086016114a7565b611ab081610fb0565b840191505092915050565b6000611ac68261148b565b611ad081856111e2565b9350611ae08185602086016114a7565b611ae981610fb0565b840191505092915050565b600060e0830160008301518482036000860152611b118282611a82565b9150506020830151611b266020860182611170565b5060408301518482036040860152611b3e8282611abb565b9150506060830151611b536060860182611270565b5060808301518482036080860152611b6b8282611abb565b91505060a083015184820360a0860152611b858282611abb565b91505060c083015184820360c0860152611b9f8282611abb565b9150508091505092915050565b6000611bb88383611af4565b905092915050565b6000602082019050919050565b6000611bd882611a5c565b611be28185611129565b935083602082028501611bf485611a67565b8060005b85811015611c305784840389528151611c118582611bac565b9450611c1c83611bc0565b925060208a01995050600181019050611bf8565b50829750879550505050505092915050565b60006080820190508181036000830152611c5c81876110c2565b9050611c6b6020830186610d8e565b611c78604083018561111a565b8181036060830152611c8a8184611bcd565b90509594505050505056fea264697066735822122052c371c326faac1a87bfc95a14aa0d30a3e4a6aa9666502c85e6e856d1b24e4a64736f6c63430008110033","opcodes":"PUSH1 0xE0 PUSH1 0x40 MSTORE CALLVALUE DUP1 ISZERO PUSH3 0x11 JUMPI PUSH1 0x0 DUP1 REVERT JUMPDEST POP PUSH1 0x40 MLOAD PUSH3 0x1EC0 CODESIZE SUB DUP1 PUSH3 0x1EC0 DUP4 CODECOPY DUP2 DUP2 ADD PUSH1 0x40 MSTORE DUP2 ADD SWAP1 PUSH3 0x37 SWAP2 SWAP1 PUSH3 0x146 JUMP JUMPDEST DUP3 PUSH20 0xFFFFFFFFFFFFFFFFFFFFFFFFFFFFFFFFFFFFFFFF AND PUSH1 0x80 DUP2 PUSH20 0xFFFFFFFFFFFFFFFFFFFFFFFFFFFFFFFFFFFFFFFF AND DUP2 MSTORE POP POP DUP2 PUSH20 0xFFFFFFFFFFFFFFFFFFFFFFFFFFFFFFFFFFFFFFFF AND PUSH1 0xA0 DUP2 PUSH20 0xFFFFFFFFFFFFFFFFFFFFFFFFFFFFFFFFFFFFFFFF AND DUP2 MSTORE POP POP DUP1 PUSH20 0xFFFFFFFFFFFFFFFFFFFFFFFFFFFFFFFFFFFFFFFF AND PUSH1 0xC0 DUP2 PUSH20 0xFFFFFFFFFFFFFFFFFFFFFFFFFFFFFFFFFFFFFFFF AND DUP2 MSTORE POP POP POP POP POP PUSH3 0x1A2 JUMP JUMPDEST PUSH1 0x0 DUP1 REVERT JUMPDEST PUSH1 0x0 PUSH20 0xFFFFFFFFFFFFFFFFFFFFFFFFFFFFFFFFFFFFFFFF DUP3 AND SWAP1 POP SWAP2 SWAP1 POP JUMP JUMPDEST PUSH1 0x0 PUSH3 0x10E DUP3 PUSH3 0xE1 JUMP JUMPDEST SWAP1 POP SWAP2 SWAP1 POP JUMP JUMPDEST PUSH3 0x120 DUP2 PUSH3 0x101 JUMP JUMPDEST DUP2 EQ PUSH3 0x12C JUMPI PUSH1 0x0 DUP1 REVERT JUMPDEST POP JUMP JUMPDEST PUSH1 0x0 DUP2 MLOAD SWAP1 POP PUSH3 0x140 DUP2 PUSH3 0x115 JUMP JUMPDEST SWAP3 SWAP2 POP POP JUMP JUMPDEST PUSH1 0x0 DUP1 PUSH1 0x0 PUSH1 0x60 DUP5 DUP7 SUB SLT ISZERO PUSH3 0x162 JUMPI PUSH3 0x161 PUSH3 0xDC JUMP JUMPDEST JUMPDEST PUSH1 0x0 PUSH3 0x172 DUP7 DUP3 DUP8 ADD PUSH3 0x12F JUMP JUMPDEST SWAP4 POP POP PUSH1 0x20 PUSH3 0x185 DUP7 DUP3 DUP8 ADD PUSH3 0x12F JUMP JUMPDEST SWAP3 POP POP PUSH1 0x40 PUSH3 0x198 DUP7 DUP3 DUP8 ADD PUSH3 0x12F JUMP JUMPDEST SWAP2 POP POP SWAP3 POP SWAP3 POP SWAP3 JUMP JUMPDEST PUSH1 0x80 MLOAD PUSH1 0xA0 MLOAD PUSH1 0xC0 MLOAD PUSH2 0x1CCB PUSH3 0x1F5 PUSH1 0x0 CODECOPY PUSH1 0x0 DUP2 DUP2 PUSH2 0x2C1 ADD MSTORE DUP2 DUP2 PUSH2 0x37B ADD MSTORE PUSH2 0x939 ADD MSTORE PUSH1 0x0 DUP2 DUP2 PUSH2 0x11B ADD MSTORE DUP2 DUP2 PUSH2 0x39F ADD MSTORE PUSH2 0x598 ADD MSTORE PUSH1 0x0 DUP2 DUP2 PUSH2 0x3C3 ADD MSTORE PUSH2 0x3EA ADD MSTORE PUSH2 0x1CCB PUSH1 0x0 RETURN INVALID PUSH1 0x80 PUSH1 0x40 MSTORE CALLVALUE DUP1 ISZERO PUSH2 0x10 JUMPI PUSH1 0x0 DUP1 REVERT JUMPDEST POP PUSH1 0x4 CALLDATASIZE LT PUSH2 0x57 JUMPI PUSH1 0x0 CALLDATALOAD PUSH1 0xE0 SHR DUP1 PUSH4 0x55AF8822 EQ PUSH2 0x5C JUMPI DUP1 PUSH4 0x91A0D36D EQ PUSH2 0x8C JUMPI DUP1 PUSH4 0x954BF4D1 EQ PUSH2 0xAA JUMPI DUP1 PUSH4 0x96ED95D8 EQ PUSH2 0xC8 JUMPI DUP1 PUSH4 0xDD958CBA EQ PUSH2 0xE6 JUMPI JUMPDEST PUSH1 0x0 DUP1 REVERT JUMPDEST PUSH2 0x76 PUSH1 0x4 DUP1 CALLDATASIZE SUB DUP2 ADD SWAP1 PUSH2 0x71 SWAP2 SWAP1 PUSH2 0xC9C JUMP JUMPDEST PUSH2 0x116 JUMP JUMPDEST PUSH1 0x40 MLOAD PUSH2 0x83 SWAP2 SWAP1 PUSH2 0xD9D JUMP JUMPDEST PUSH1 0x40 MLOAD DUP1 SWAP2 SUB SWAP1 RETURN JUMPDEST PUSH2 0x94 PUSH2 0x379 JUMP JUMPDEST PUSH1 0x40 MLOAD PUSH2 0xA1 SWAP2 SWAP1 PUSH2 0xD9D JUMP JUMPDEST PUSH1 0x40 MLOAD DUP1 SWAP2 SUB SWAP1 RETURN JUMPDEST PUSH2 0xB2 PUSH2 0x39D JUMP JUMPDEST PUSH1 0x40 MLOAD PUSH2 0xBF SWAP2 SWAP1 PUSH2 0xD9D JUMP JUMPDEST PUSH1 0x40 MLOAD DUP1 SWAP2 SUB SWAP1 RETURN JUMPDEST PUSH2 0xD0 PUSH2 0x3C1 JUMP JUMPDEST PUSH1 0x40 MLOAD PUSH2 0xDD SWAP2 SWAP1 PUSH2 0xD9D JUMP JUMPDEST PUSH1 0x40 MLOAD DUP1 SWAP2 SUB SWAP1 RETURN JUMPDEST PUSH2 0x100 PUSH1 0x4 DUP1 CALLDATASIZE SUB DUP2 ADD SWAP1 PUSH2 0xFB SWAP2 SWAP1 PUSH2 0xDD7 JUMP JUMPDEST PUSH2 0x3E5 JUMP JUMPDEST PUSH1 0x40 MLOAD PUSH2 0x10D SWAP2 SWAP1 PUSH2 0xD9D JUMP JUMPDEST PUSH1 0x40 MLOAD DUP1 SWAP2 SUB SWAP1 RETURN JUMPDEST PUSH1 0x0 DUP1 PUSH32 0x0 PUSH20 0xFFFFFFFFFFFFFFFFFFFFFFFFFFFFFFFFFFFFFFFF AND PUSH4 0xEFC81A8C PUSH1 0x40 MLOAD DUP2 PUSH4 0xFFFFFFFF AND PUSH1 0xE0 SHL DUP2 MSTORE PUSH1 0x4 ADD PUSH1 0x20 PUSH1 0x40 MLOAD DUP1 DUP4 SUB DUP2 PUSH1 0x0 DUP8 GAS CALL ISZERO DUP1 ISZERO PUSH2 0x186 JUMPI RETURNDATASIZE PUSH1 0x0 DUP1 RETURNDATACOPY RETURNDATASIZE PUSH1 0x0 REVERT JUMPDEST POP POP POP POP PUSH1 0x40 MLOAD RETURNDATASIZE PUSH1 0x1F NOT PUSH1 0x1F DUP3 ADD AND DUP3 ADD DUP1 PUSH1 0x40 MSTORE POP DUP2 ADD SWAP1 PUSH2 0x1AA SWAP2 SWAP1 PUSH2 0xEF1 JUMP JUMPDEST SWAP1 POP DUP1 PUSH20 0xFFFFFFFFFFFFFFFFFFFFFFFFFFFFFFFFFFFFFFFF AND PUSH4 0xC47F0027 DUP9 DUP1 PUSH1 0x0 ADD SWAP1 PUSH2 0x1D8 SWAP2 SWAP1 PUSH2 0xF2D JUMP JUMPDEST PUSH1 0x40 MLOAD DUP4 PUSH4 0xFFFFFFFF AND PUSH1 0xE0 SHL DUP2 MSTORE PUSH1 0x4 ADD PUSH2 0x1F5 SWAP3 SWAP2 SWAP1 PUSH2 0xFEE JUMP JUMPDEST PUSH1 0x0 PUSH1 0x40 MLOAD DUP1 DUP4 SUB DUP2 PUSH1 0x0 DUP8 DUP1 EXTCODESIZE ISZERO DUP1 ISZERO PUSH2 0x20F JUMPI PUSH1 0x0 DUP1 REVERT JUMPDEST POP GAS CALL ISZERO DUP1 ISZERO PUSH2 0x223 JUMPI RETURNDATASIZE PUSH1 0x0 DUP1 RETURNDATACOPY RETURNDATASIZE PUSH1 0x0 REVERT JUMPDEST POP POP POP POP DUP1 PUSH20 0xFFFFFFFFFFFFFFFFFFFFFFFFFFFFFFFFFFFFFFFF AND PUSH4 0xB84C8246 DUP9 DUP1 PUSH1 0x20 ADD SWAP1 PUSH2 0x253 SWAP2 SWAP1 PUSH2 0xF2D JUMP JUMPDEST PUSH1 0x40 MLOAD DUP4 PUSH4 0xFFFFFFFF AND PUSH1 0xE0 SHL DUP2 MSTORE PUSH1 0x4 ADD PUSH2 0x270 SWAP3 SWAP2 SWAP1 PUSH2 0xFEE JUMP JUMPDEST PUSH1 0x0 PUSH1 0x40 MLOAD DUP1 DUP4 SUB DUP2 PUSH1 0x0 DUP8 DUP1 EXTCODESIZE ISZERO DUP1 ISZERO PUSH2 0x28A JUMPI PUSH1 0x0 DUP1 REVERT JUMPDEST POP GAS CALL ISZERO DUP1 ISZERO PUSH2 0x29E JUMPI RETURNDATASIZE PUSH1 0x0 DUP1 RETURNDATACOPY RETURNDATASIZE PUSH1 0x0 REVERT JUMPDEST POP POP POP POP DUP1 PUSH20 0xFFFFFFFFFFFFFFFFFFFFFFFFFFFFFFFFFFFFFFFF AND PUSH4 0x4E197151 DUP8 PUSH32 0x0 DUP9 DUP9 DUP9 PUSH1 0x40 MLOAD DUP7 PUSH4 0xFFFFFFFF AND PUSH1 0xE0 SHL DUP2 MSTORE PUSH1 0x4 ADD PUSH2 0x303 SWAP6 SWAP5 SWAP4 SWAP3 SWAP2 SWAP1 PUSH2 0x1436 JUMP JUMPDEST PUSH1 0x0 PUSH1 0x40 MLOAD DUP1 DUP4 SUB DUP2 PUSH1 0x0 DUP8 DUP1 EXTCODESIZE ISZERO DUP1 ISZERO PUSH2 0x31D JUMPI PUSH1 0x0 DUP1 REVERT JUMPDEST POP GAS CALL ISZERO DUP1 ISZERO PUSH2 0x331 JUMPI RETURNDATASIZE PUSH1 0x0 DUP1 RETURNDATACOPY RETURNDATASIZE PUSH1 0x0 REVERT JUMPDEST POP POP POP POP PUSH32 0x62392641265FCC5A6A8128FD39634480FFE377E76DC54DCAD335E1289FCC0FD5 DUP2 PUSH1 0x40 MLOAD PUSH2 0x364 SWAP2 SWAP1 PUSH2 0xD9D JUMP JUMPDEST PUSH1 0x40 MLOAD DUP1 SWAP2 SUB SWAP1 LOG1 DUP1 SWAP2 POP POP SWAP6 SWAP5 POP POP POP POP POP JUMP JUMPDEST PUSH32 0x0 DUP2 JUMP JUMPDEST PUSH32 0x0 DUP2 JUMP JUMPDEST PUSH32 0x0 DUP2 JUMP JUMPDEST PUSH1 0x0 DUP1 PUSH32 0x0 PUSH20 0xFFFFFFFFFFFFFFFFFFFFFFFFFFFFFFFFFFFFFFFF AND PUSH4 0xEFC81A8C PUSH1 0x40 MLOAD DUP2 PUSH4 0xFFFFFFFF AND PUSH1 0xE0 SHL DUP2 MSTORE PUSH1 0x4 ADD PUSH1 0x20 PUSH1 0x40 MLOAD DUP1 DUP4 SUB DUP2 PUSH1 0x0 DUP8 GAS CALL ISZERO DUP1 ISZERO PUSH2 0x455 JUMPI RETURNDATASIZE PUSH1 0x0 DUP1 RETURNDATACOPY RETURNDATASIZE PUSH1 0x0 REVERT JUMPDEST POP POP POP POP PUSH1 0x40 MLOAD RETURNDATASIZE PUSH1 0x1F NOT PUSH1 0x1F DUP3 ADD AND DUP3 ADD DUP1 PUSH1 0x40 MSTORE POP DUP2 ADD SWAP1 PUSH2 0x479 SWAP2 SWAP1 PUSH2 0xEF1 JUMP JUMPDEST SWAP1 POP DUP1 PUSH20 0xFFFFFFFFFFFFFFFFFFFFFFFFFFFFFFFFFFFFFFFF AND PUSH4 0x8652D669 DUP7 DUP1 PUSH1 0x0 ADD SWAP1 PUSH2 0x4A7 SWAP2 SWAP1 PUSH2 0xF2D JUMP JUMPDEST PUSH1 0x40 MLOAD DUP1 PUSH1 0x20 ADD PUSH1 0x40 MSTORE DUP1 PUSH1 0x0 DUP2 MSTORE POP PUSH1 0x40 MLOAD DUP5 PUSH4 0xFFFFFFFF AND PUSH1 0xE0 SHL DUP2 MSTORE PUSH1 0x4 ADD PUSH2 0x4D5 SWAP4 SWAP3 SWAP2 SWAP1 PUSH2 0x150A JUMP JUMPDEST PUSH1 0x0 PUSH1 0x40 MLOAD DUP1 DUP4 SUB DUP2 PUSH1 0x0 DUP8 DUP1 EXTCODESIZE ISZERO DUP1 ISZERO PUSH2 0x4EF JUMPI PUSH1 0x0 DUP1 REVERT JUMPDEST POP GAS CALL ISZERO DUP1 ISZERO PUSH2 0x503 JUMPI RETURNDATASIZE PUSH1 0x0 DUP1 RETURNDATACOPY RETURNDATASIZE PUSH1 0x0 REVERT JUMPDEST POP POP POP POP DUP1 PUSH20 0xFFFFFFFFFFFFFFFFFFFFFFFFFFFFFFFFFFFFFFFF AND PUSH4 0x3B7AA8D9 DUP7 DUP1 PUSH1 0x0 ADD SWAP1 PUSH2 0x533 SWAP2 SWAP1 PUSH2 0xF2D JUMP JUMPDEST DUP9 DUP1 PUSH1 0xA0 ADD SWAP1 PUSH2 0x543 SWAP2 SWAP1 PUSH2 0x1543 JUMP JUMPDEST PUSH1 0x40 MLOAD DUP6 PUSH4 0xFFFFFFFF AND PUSH1 0xE0 SHL DUP2 MSTORE PUSH1 0x4 ADD PUSH2 0x562 SWAP5 SWAP4 SWAP3 SWAP2 SWAP1 PUSH2 0x15D3 JUMP JUMPDEST PUSH1 0x0 PUSH1 0x40 MLOAD DUP1 DUP4 SUB DUP2 PUSH1 0x0 DUP8 DUP1 EXTCODESIZE ISZERO DUP1 ISZERO PUSH2 0x57C JUMPI PUSH1 0x0 DUP1 REVERT JUMPDEST POP GAS CALL ISZERO DUP1 ISZERO PUSH2 0x590 JUMPI RETURNDATASIZE PUSH1 0x0 DUP1 RETURNDATACOPY RETURNDATASIZE PUSH1 0x0 REVERT JUMPDEST POP POP POP POP PUSH1 0x0 PUSH32 0x0 PUSH20 0xFFFFFFFFFFFFFFFFFFFFFFFFFFFFFFFFFFFFFFFF AND PUSH4 0xEFC81A8C PUSH1 0x40 MLOAD DUP2 PUSH4 0xFFFFFFFF AND PUSH1 0xE0 SHL DUP2 MSTORE PUSH1 0x4 ADD PUSH1 0x20 PUSH1 0x40 MLOAD DUP1 DUP4 SUB DUP2 PUSH1 0x0 DUP8 GAS CALL ISZERO DUP1 ISZERO PUSH2 0x603 JUMPI RETURNDATASIZE PUSH1 0x0 DUP1 RETURNDATACOPY RETURNDATASIZE PUSH1 0x0 REVERT JUMPDEST POP POP POP POP PUSH1 0x40 MLOAD RETURNDATASIZE PUSH1 0x1F NOT PUSH1 0x1F DUP3 ADD AND DUP3 ADD DUP1 PUSH1 0x40 MSTORE POP DUP2 ADD SWAP1 PUSH2 0x627 SWAP2 SWAP1 PUSH2 0xEF1 JUMP JUMPDEST SWAP1 POP PUSH1 0x0 PUSH1 0x1 DUP7 DUP7 SWAP1 POP PUSH2 0x63B SWAP2 SWAP1 PUSH2 0x163D JUMP JUMPDEST SWAP1 POP PUSH1 0x0 DUP2 PUSH8 0xFFFFFFFFFFFFFFFF DUP2 GT ISZERO PUSH2 0x659 JUMPI PUSH2 0x658 PUSH2 0x1671 JUMP JUMPDEST JUMPDEST PUSH1 0x40 MLOAD SWAP1 DUP1 DUP3 MSTORE DUP1 PUSH1 0x20 MUL PUSH1 0x20 ADD DUP3 ADD PUSH1 0x40 MSTORE DUP1 ISZERO PUSH2 0x692 JUMPI DUP2 PUSH1 0x20 ADD JUMPDEST PUSH2 0x67F PUSH2 0xB54 JUMP JUMPDEST DUP2 MSTORE PUSH1 0x20 ADD SWAP1 PUSH1 0x1 SWAP1 SUB SWAP1 DUP2 PUSH2 0x677 JUMPI SWAP1 POP JUMPDEST POP SWAP1 POP PUSH1 0x0 JUMPDEST DUP8 DUP8 SWAP1 POP DUP2 LT ISZERO PUSH2 0x702 JUMPI DUP8 DUP8 DUP3 DUP2 DUP2 LT PUSH2 0x6B6 JUMPI PUSH2 0x6B5 PUSH2 0x16A0 JUMP JUMPDEST JUMPDEST SWAP1 POP PUSH1 0x20 MUL DUP2 ADD SWAP1 PUSH2 0x6C8 SWAP2 SWAP1 PUSH2 0x16CF JUMP JUMPDEST PUSH2 0x6D1 SWAP1 PUSH2 0x19D4 JUMP JUMPDEST DUP3 DUP3 DUP2 MLOAD DUP2 LT PUSH2 0x6E4 JUMPI PUSH2 0x6E3 PUSH2 0x16A0 JUMP JUMPDEST JUMPDEST PUSH1 0x20 MUL PUSH1 0x20 ADD ADD DUP2 SWAP1 MSTORE POP DUP1 DUP1 PUSH2 0x6FA SWAP1 PUSH2 0x19E7 JUMP JUMPDEST SWAP2 POP POP PUSH2 0x698 JUMP JUMPDEST POP PUSH1 0x40 MLOAD DUP1 PUSH1 0xE0 ADD PUSH1 0x40 MSTORE DUP1 DUP10 DUP1 PUSH1 0x0 ADD SWAP1 PUSH2 0x71E SWAP2 SWAP1 PUSH2 0xF2D JUMP JUMPDEST DUP1 DUP1 PUSH1 0x1F ADD PUSH1 0x20 DUP1 SWAP2 DIV MUL PUSH1 0x20 ADD PUSH1 0x40 MLOAD SWAP1 DUP2 ADD PUSH1 0x40 MSTORE DUP1 SWAP4 SWAP3 SWAP2 SWAP1 DUP2 DUP2 MSTORE PUSH1 0x20 ADD DUP4 DUP4 DUP1 DUP3 DUP5 CALLDATACOPY PUSH1 0x0 DUP2 DUP5 ADD MSTORE PUSH1 0x1F NOT PUSH1 0x1F DUP3 ADD AND SWAP1 POP DUP1 DUP4 ADD SWAP3 POP POP POP POP POP POP POP DUP2 MSTORE PUSH1 0x20 ADD DUP6 PUSH20 0xFFFFFFFFFFFFFFFFFFFFFFFFFFFFFFFFFFFFFFFF AND DUP2 MSTORE PUSH1 0x20 ADD DUP10 DUP1 PUSH1 0x20 ADD SWAP1 PUSH2 0x792 SWAP2 SWAP1 PUSH2 0x1543 JUMP JUMPDEST DUP1 DUP1 PUSH1 0x1F ADD PUSH1 0x20 DUP1 SWAP2 DIV MUL PUSH1 0x20 ADD PUSH1 0x40 MLOAD SWAP1 DUP2 ADD PUSH1 0x40 MSTORE DUP1 SWAP4 SWAP3 SWAP2 SWAP1 DUP2 DUP2 MSTORE PUSH1 0x20 ADD DUP4 DUP4 DUP1 DUP3 DUP5 CALLDATACOPY PUSH1 0x0 DUP2 DUP5 ADD MSTORE PUSH1 0x1F NOT PUSH1 0x1F DUP3 ADD AND SWAP1 POP DUP1 DUP4 ADD SWAP3 POP POP POP POP POP POP POP DUP2 MSTORE PUSH1 0x20 ADD DUP10 PUSH1 0x40 ADD PUSH1 0x20 DUP2 ADD SWAP1 PUSH2 0x7ED SWAP2 SWAP1 PUSH2 0x1A2F JUMP JUMPDEST PUSH1 0xFF AND DUP2 MSTORE PUSH1 0x20 ADD DUP10 DUP1 PUSH1 0x60 ADD SWAP1 PUSH2 0x805 SWAP2 SWAP1 PUSH2 0x1543 JUMP JUMPDEST DUP1 DUP1 PUSH1 0x1F ADD PUSH1 0x20 DUP1 SWAP2 DIV MUL PUSH1 0x20 ADD PUSH1 0x40 MLOAD SWAP1 DUP2 ADD PUSH1 0x40 MSTORE DUP1 SWAP4 SWAP3 SWAP2 SWAP1 DUP2 DUP2 MSTORE PUSH1 0x20 ADD DUP4 DUP4 DUP1 DUP3 DUP5 CALLDATACOPY PUSH1 0x0 DUP2 DUP5 ADD MSTORE PUSH1 0x1F NOT PUSH1 0x1F DUP3 ADD AND SWAP1 POP DUP1 DUP4 ADD SWAP3 POP POP POP POP POP POP POP DUP2 MSTORE PUSH1 0x20 ADD DUP10 DUP1 PUSH1 0x80 ADD SWAP1 PUSH2 0x85D SWAP2 SWAP1 PUSH2 0x1543 JUMP JUMPDEST DUP1 DUP1 PUSH1 0x1F ADD PUSH1 0x20 DUP1 SWAP2 DIV MUL PUSH1 0x20 ADD PUSH1 0x40 MLOAD SWAP1 DUP2 ADD PUSH1 0x40 MSTORE DUP1 SWAP4 SWAP3 SWAP2 SWAP1 DUP2 DUP2 MSTORE PUSH1 0x20 ADD DUP4 DUP4 DUP1 DUP3 DUP5 CALLDATACOPY PUSH1 0x0 DUP2 DUP5 ADD MSTORE PUSH1 0x1F NOT PUSH1 0x1F DUP3 ADD AND SWAP1 POP DUP1 DUP4 ADD SWAP3 POP POP POP POP POP POP POP DUP2 MSTORE PUSH1 0x20 ADD DUP10 DUP1 PUSH1 0xA0 ADD SWAP1 PUSH2 0x8B5 SWAP2 SWAP1 PUSH2 0x1543 JUMP JUMPDEST DUP1 DUP1 PUSH1 0x1F ADD PUSH1 0x20 DUP1 SWAP2 DIV MUL PUSH1 0x20 ADD PUSH1 0x40 MLOAD SWAP1 DUP2 ADD PUSH1 0x40 MSTORE DUP1 SWAP4 SWAP3 SWAP2 SWAP1 DUP2 DUP2 MSTORE PUSH1 0x20 ADD DUP4 DUP4 DUP1 DUP3 DUP5 CALLDATACOPY PUSH1 0x0 DUP2 DUP5 ADD MSTORE PUSH1 0x1F NOT PUSH1 0x1F DUP3 ADD AND SWAP1 POP DUP1 DUP4 ADD SWAP3 POP POP POP POP POP POP POP DUP2 MSTORE POP DUP2 DUP3 MLOAD DUP2 MLOAD DUP2 LT PUSH2 0x90F JUMPI PUSH2 0x90E PUSH2 0x16A0 JUMP JUMPDEST JUMPDEST PUSH1 0x20 MUL PUSH1 0x20 ADD ADD DUP2 SWAP1 MSTORE POP DUP3 PUSH20 0xFFFFFFFFFFFFFFFFFFFFFFFFFFFFFFFFFFFFFFFF AND PUSH4 0x4E197151 DUP12 PUSH32 0x0 DUP13 DUP6 PUSH1 0x40 MLOAD DUP6 PUSH4 0xFFFFFFFF AND PUSH1 0xE0 SHL DUP2 MSTORE PUSH1 0x4 ADD PUSH2 0x979 SWAP5 SWAP4 SWAP3 SWAP2 SWAP1 PUSH2 0x1C42 JUMP JUMPDEST PUSH1 0x0 PUSH1 0x40 MLOAD DUP1 DUP4 SUB DUP2 PUSH1 0x0 DUP8 DUP1 EXTCODESIZE ISZERO DUP1 ISZERO PUSH2 0x993 JUMPI PUSH1 0x0 DUP1 REVERT JUMPDEST POP GAS CALL ISZERO DUP1 ISZERO PUSH2 0x9A7 JUMPI RETURNDATASIZE PUSH1 0x0 DUP1 RETURNDATACOPY RETURNDATASIZE PUSH1 0x0 REVERT JUMPDEST POP POP POP POP DUP3 PUSH20 0xFFFFFFFFFFFFFFFFFFFFFFFFFFFFFFFFFFFFFFFF AND PUSH4 0xC47F0027 DUP13 DUP1 PUSH1 0x0 ADD SWAP1 PUSH2 0x9D7 SWAP2 SWAP1 PUSH2 0xF2D JUMP JUMPDEST PUSH1 0x40 MLOAD DUP4 PUSH4 0xFFFFFFFF AND PUSH1 0xE0 SHL DUP2 MSTORE PUSH1 0x4 ADD PUSH2 0x9F4 SWAP3 SWAP2 SWAP1 PUSH2 0xFEE JUMP JUMPDEST PUSH1 0x0 PUSH1 0x40 MLOAD DUP1 DUP4 SUB DUP2 PUSH1 0x0 DUP8 DUP1 EXTCODESIZE ISZERO DUP1 ISZERO PUSH2 0xA0E JUMPI PUSH1 0x0 DUP1 REVERT JUMPDEST POP GAS CALL ISZERO DUP1 ISZERO PUSH2 0xA22 JUMPI RETURNDATASIZE PUSH1 0x0 DUP1 RETURNDATACOPY RETURNDATASIZE PUSH1 0x0 REVERT JUMPDEST POP POP POP POP DUP3 PUSH20 0xFFFFFFFFFFFFFFFFFFFFFFFFFFFFFFFFFFFFFFFF AND PUSH4 0xB84C8246 DUP13 DUP1 PUSH1 0x20 ADD SWAP1 PUSH2 0xA52 SWAP2 SWAP1 PUSH2 0xF2D JUMP JUMPDEST PUSH1 0x40 MLOAD DUP4 PUSH4 0xFFFFFFFF AND PUSH1 0xE0 SHL DUP2 MSTORE PUSH1 0x4 ADD PUSH2 0xA6F SWAP3 SWAP2 SWAP1 PUSH2 0xFEE JUMP JUMPDEST PUSH1 0x0 PUSH1 0x40 MLOAD DUP1 DUP4 SUB DUP2 PUSH1 0x0 DUP8 DUP1 EXTCODESIZE ISZERO DUP1 ISZERO PUSH2 0xA89 JUMPI PUSH1 0x0 DUP1 REVERT JUMPDEST POP GAS CALL ISZERO DUP1 ISZERO PUSH2 0xA9D JUMPI RETURNDATASIZE PUSH1 0x0 DUP1 RETURNDATACOPY RETURNDATASIZE PUSH1 0x0 REVERT JUMPDEST POP POP POP POP DUP3 PUSH20 0xFFFFFFFFFFFFFFFFFFFFFFFFFFFFFFFFFFFFFFFF AND PUSH4 0xA50D81C7 CALLER PUSH1 0x40 MLOAD DUP3 PUSH4 0xFFFFFFFF AND PUSH1 0xE0 SHL DUP2 MSTORE PUSH1 0x4 ADD PUSH2 0xADA SWAP2 SWAP1 PUSH2 0xD9D JUMP JUMPDEST PUSH1 0x0 PUSH1 0x40 MLOAD DUP1 DUP4 SUB DUP2 PUSH1 0x0 DUP8 DUP1 EXTCODESIZE ISZERO DUP1 ISZERO PUSH2 0xAF4 JUMPI PUSH1 0x0 DUP1 REVERT JUMPDEST POP GAS CALL ISZERO DUP1 ISZERO PUSH2 0xB08 JUMPI RETURNDATASIZE PUSH1 0x0 DUP1 RETURNDATACOPY RETURNDATASIZE PUSH1 0x0 REVERT JUMPDEST POP POP POP POP PUSH32 0x62392641265FCC5A6A8128FD39634480FFE377E76DC54DCAD335E1289FCC0FD5 DUP4 PUSH1 0x40 MLOAD PUSH2 0xB3B SWAP2 SWAP1 PUSH2 0xD9D JUMP JUMPDEST PUSH1 0x40 MLOAD DUP1 SWAP2 SUB SWAP1 LOG1 DUP3 SWAP5 POP POP POP POP POP SWAP7 SWAP6 POP POP POP POP POP POP JUMP JUMPDEST PUSH1 0x40 MLOAD DUP1 PUSH1 0xE0 ADD PUSH1 0x40 MSTORE DUP1 PUSH1 0x60 DUP2 MSTORE PUSH1 0x20 ADD PUSH1 0x0 PUSH20 0xFFFFFFFFFFFFFFFFFFFFFFFFFFFFFFFFFFFFFFFF AND DUP2 MSTORE PUSH1 0x20 ADD PUSH1 0x60 DUP2 MSTORE PUSH1 0x20 ADD PUSH1 0x0 PUSH1 0xFF AND DUP2 MSTORE PUSH1 0x20 ADD PUSH1 0x60 DUP2 MSTORE PUSH1 0x20 ADD PUSH1 0x60 DUP2 MSTORE PUSH1 0x20 ADD PUSH1 0x60 DUP2 MSTORE POP SWAP1 JUMP JUMPDEST PUSH1 0x0 PUSH1 0x40 MLOAD SWAP1 POP SWAP1 JUMP JUMPDEST PUSH1 0x0 DUP1 REVERT JUMPDEST PUSH1 0x0 DUP1 REVERT JUMPDEST PUSH1 0x0 DUP1 REVERT JUMPDEST PUSH1 0x0 PUSH1 0x40 DUP3 DUP5 SUB SLT ISZERO PUSH2 0xBD9 JUMPI PUSH2 0xBD8 PUSH2 0xBBE JUMP JUMPDEST JUMPDEST DUP2 SWAP1 POP SWAP3 SWAP2 POP POP JUMP JUMPDEST PUSH1 0x0 PUSH1 0x40 DUP3 DUP5 SUB SLT ISZERO PUSH2 0xBF8 JUMPI PUSH2 0xBF7 PUSH2 0xBBE JUMP JUMPDEST JUMPDEST DUP2 SWAP1 POP SWAP3 SWAP2 POP POP JUMP JUMPDEST PUSH1 0x0 DUP2 SWAP1 POP SWAP2 SWAP1 POP JUMP JUMPDEST PUSH2 0xC14 DUP2 PUSH2 0xC01 JUMP JUMPDEST DUP2 EQ PUSH2 0xC1F JUMPI PUSH1 0x0 DUP1 REVERT JUMPDEST POP JUMP JUMPDEST PUSH1 0x0 DUP2 CALLDATALOAD SWAP1 POP PUSH2 0xC31 DUP2 PUSH2 0xC0B JUMP JUMPDEST SWAP3 SWAP2 POP POP JUMP JUMPDEST PUSH1 0x0 DUP1 REVERT JUMPDEST PUSH1 0x0 DUP1 REVERT JUMPDEST PUSH1 0x0 DUP1 REVERT JUMPDEST PUSH1 0x0 DUP1 DUP4 PUSH1 0x1F DUP5 ADD SLT PUSH2 0xC5C JUMPI PUSH2 0xC5B PUSH2 0xC37 JUMP JUMPDEST JUMPDEST DUP3 CALLDATALOAD SWAP1 POP PUSH8 0xFFFFFFFFFFFFFFFF DUP2 GT ISZERO PUSH2 0xC79 JUMPI PUSH2 0xC78 PUSH2 0xC3C JUMP JUMPDEST JUMPDEST PUSH1 0x20 DUP4 ADD SWAP2 POP DUP4 PUSH1 0x20 DUP3 MUL DUP4 ADD GT ISZERO PUSH2 0xC95 JUMPI PUSH2 0xC94 PUSH2 0xC41 JUMP JUMPDEST JUMPDEST SWAP3 POP SWAP3 SWAP1 POP JUMP JUMPDEST PUSH1 0x0 DUP1 PUSH1 0x0 DUP1 PUSH1 0x0 PUSH1 0x80 DUP7 DUP9 SUB SLT ISZERO PUSH2 0xCB8 JUMPI PUSH2 0xCB7 PUSH2 0xBB4 JUMP JUMPDEST JUMPDEST PUSH1 0x0 DUP7 ADD CALLDATALOAD PUSH8 0xFFFFFFFFFFFFFFFF DUP2 GT ISZERO PUSH2 0xCD6 JUMPI PUSH2 0xCD5 PUSH2 0xBB9 JUMP JUMPDEST JUMPDEST PUSH2 0xCE2 DUP9 DUP3 DUP10 ADD PUSH2 0xBC3 JUMP JUMPDEST SWAP6 POP POP PUSH1 0x20 DUP7 ADD CALLDATALOAD PUSH8 0xFFFFFFFFFFFFFFFF DUP2 GT ISZERO PUSH2 0xD03 JUMPI PUSH2 0xD02 PUSH2 0xBB9 JUMP JUMPDEST JUMPDEST PUSH2 0xD0F DUP9 DUP3 DUP10 ADD PUSH2 0xBE2 JUMP JUMPDEST SWAP5 POP POP PUSH1 0x40 PUSH2 0xD20 DUP9 DUP3 DUP10 ADD PUSH2 0xC22 JUMP JUMPDEST SWAP4 POP POP PUSH1 0x60 DUP7 ADD CALLDATALOAD PUSH8 0xFFFFFFFFFFFFFFFF DUP2 GT ISZERO PUSH2 0xD41 JUMPI PUSH2 0xD40 PUSH2 0xBB9 JUMP JUMPDEST JUMPDEST PUSH2 0xD4D DUP9 DUP3 DUP10 ADD PUSH2 0xC46 JUMP JUMPDEST SWAP3 POP SWAP3 POP POP SWAP3 SWAP6 POP SWAP3 SWAP6 SWAP1 SWAP4 POP JUMP JUMPDEST PUSH1 0x0 PUSH20 0xFFFFFFFFFFFFFFFFFFFFFFFFFFFFFFFFFFFFFFFF DUP3 AND SWAP1 POP SWAP2 SWAP1 POP JUMP JUMPDEST PUSH1 0x0 PUSH2 0xD87 DUP3 PUSH2 0xD5C JUMP JUMPDEST SWAP1 POP SWAP2 SWAP1 POP JUMP JUMPDEST PUSH2 0xD97 DUP2 PUSH2 0xD7C JUMP JUMPDEST DUP3 MSTORE POP POP JUMP JUMPDEST PUSH1 0x0 PUSH1 0x20 DUP3 ADD SWAP1 POP PUSH2 0xDB2 PUSH1 0x0 DUP4 ADD DUP5 PUSH2 0xD8E JUMP JUMPDEST SWAP3 SWAP2 POP POP JUMP JUMPDEST PUSH1 0x0 PUSH1 0xC0 DUP3 DUP5 SUB SLT ISZERO PUSH2 0xDCE JUMPI PUSH2 0xDCD PUSH2 0xBBE JUMP JUMPDEST JUMPDEST DUP2 SWAP1 POP SWAP3 SWAP2 POP POP JUMP JUMPDEST PUSH1 0x0 DUP1 PUSH1 0x0 DUP1 PUSH1 0x0 DUP1 PUSH1 0xA0 DUP8 DUP10 SUB SLT ISZERO PUSH2 0xDF4 JUMPI PUSH2 0xDF3 PUSH2 0xBB4 JUMP JUMPDEST JUMPDEST PUSH1 0x0 DUP8 ADD CALLDATALOAD PUSH8 0xFFFFFFFFFFFFFFFF DUP2 GT ISZERO PUSH2 0xE12 JUMPI PUSH2 0xE11 PUSH2 0xBB9 JUMP JUMPDEST JUMPDEST PUSH2 0xE1E DUP10 DUP3 DUP11 ADD PUSH2 0xBC3 JUMP JUMPDEST SWAP7 POP POP PUSH1 0x20 DUP8 ADD CALLDATALOAD PUSH8 0xFFFFFFFFFFFFFFFF DUP2 GT ISZERO PUSH2 0xE3F JUMPI PUSH2 0xE3E PUSH2 0xBB9 JUMP JUMPDEST JUMPDEST PUSH2 0xE4B DUP10 DUP3 DUP11 ADD PUSH2 0xBE2 JUMP JUMPDEST SWAP6 POP POP PUSH1 0x40 PUSH2 0xE5C DUP10 DUP3 DUP11 ADD PUSH2 0xC22 JUMP JUMPDEST SWAP5 POP POP PUSH1 0x60 DUP8 ADD CALLDATALOAD PUSH8 0xFFFFFFFFFFFFFFFF DUP2 GT ISZERO PUSH2 0xE7D JUMPI PUSH2 0xE7C PUSH2 0xBB9 JUMP JUMPDEST JUMPDEST PUSH2 0xE89 DUP10 DUP3 DUP11 ADD PUSH2 0xDB8 JUMP JUMPDEST SWAP4 POP POP PUSH1 0x80 DUP8 ADD CALLDATALOAD PUSH8 0xFFFFFFFFFFFFFFFF DUP2 GT ISZERO PUSH2 0xEAA JUMPI PUSH2 0xEA9 PUSH2 0xBB9 JUMP JUMPDEST JUMPDEST PUSH2 0xEB6 DUP10 DUP3 DUP11 ADD PUSH2 0xC46 JUMP JUMPDEST SWAP3 POP SWAP3 POP POP SWAP3 SWAP6 POP SWAP3 SWAP6 POP SWAP3 SWAP6 JUMP JUMPDEST PUSH2 0xECE DUP2 PUSH2 0xD7C JUMP JUMPDEST DUP2 EQ PUSH2 0xED9 JUMPI PUSH1 0x0 DUP1 REVERT JUMPDEST POP JUMP JUMPDEST PUSH1 0x0 DUP2 MLOAD SWAP1 POP PUSH2 0xEEB DUP2 PUSH2 0xEC5 JUMP JUMPDEST SWAP3 SWAP2 POP POP JUMP JUMPDEST PUSH1 0x0 PUSH1 0x20 DUP3 DUP5 SUB SLT ISZERO PUSH2 0xF07 JUMPI PUSH2 0xF06 PUSH2 0xBB4 JUMP JUMPDEST JUMPDEST PUSH1 0x0 PUSH2 0xF15 DUP5 DUP3 DUP6 ADD PUSH2 0xEDC JUMP JUMPDEST SWAP2 POP POP SWAP3 SWAP2 POP POP JUMP JUMPDEST PUSH1 0x0 DUP1 REVERT JUMPDEST PUSH1 0x0 DUP1 REVERT JUMPDEST PUSH1 0x0 DUP1 REVERT JUMPDEST PUSH1 0x0 DUP1 DUP4 CALLDATALOAD PUSH1 0x1 PUSH1 0x20 SUB DUP5 CALLDATASIZE SUB SUB DUP2 SLT PUSH2 0xF4A JUMPI PUSH2 0xF49 PUSH2 0xF1E JUMP JUMPDEST JUMPDEST DUP1 DUP5 ADD SWAP3 POP DUP3 CALLDATALOAD SWAP2 POP PUSH8 0xFFFFFFFFFFFFFFFF DUP3 GT ISZERO PUSH2 0xF6C JUMPI PUSH2 0xF6B PUSH2 0xF23 JUMP JUMPDEST JUMPDEST PUSH1 0x20 DUP4 ADD SWAP3 POP PUSH1 0x1 DUP3 MUL CALLDATASIZE SUB DUP4 SGT ISZERO PUSH2 0xF88 JUMPI PUSH2 0xF87 PUSH2 0xF28 JUMP JUMPDEST JUMPDEST POP SWAP3 POP SWAP3 SWAP1 POP JUMP JUMPDEST PUSH1 0x0 DUP3 DUP3 MSTORE PUSH1 0x20 DUP3 ADD SWAP1 POP SWAP3 SWAP2 POP POP JUMP JUMPDEST DUP3 DUP2 DUP4 CALLDATACOPY PUSH1 0x0 DUP4 DUP4 ADD MSTORE POP POP POP JUMP JUMPDEST PUSH1 0x0 PUSH1 0x1F NOT PUSH1 0x1F DUP4 ADD AND SWAP1 POP SWAP2 SWAP1 POP JUMP JUMPDEST PUSH1 0x0 PUSH2 0xFCD DUP4 DUP6 PUSH2 0xF90 JUMP JUMPDEST SWAP4 POP PUSH2 0xFDA DUP4 DUP6 DUP5 PUSH2 0xFA1 JUMP JUMPDEST PUSH2 0xFE3 DUP4 PUSH2 0xFB0 JUMP JUMPDEST DUP5 ADD SWAP1 POP SWAP4 SWAP3 POP POP POP JUMP JUMPDEST PUSH1 0x0 PUSH1 0x20 DUP3 ADD SWAP1 POP DUP2 DUP2 SUB PUSH1 0x0 DUP4 ADD MSTORE PUSH2 0x1009 DUP2 DUP5 DUP7 PUSH2 0xFC1 JUMP JUMPDEST SWAP1 POP SWAP4 SWAP3 POP POP POP JUMP JUMPDEST PUSH1 0x0 DUP1 REVERT JUMPDEST PUSH1 0x0 DUP1 REVERT JUMPDEST PUSH1 0x0 DUP1 REVERT JUMPDEST PUSH1 0x0 DUP1 DUP4 CALLDATALOAD PUSH1 0x1 PUSH1 0x20 SUB DUP5 CALLDATASIZE SUB SUB DUP2 SLT PUSH2 0x103E JUMPI PUSH2 0x103D PUSH2 0x101C JUMP JUMPDEST JUMPDEST DUP4 DUP2 ADD SWAP3 POP DUP3 CALLDATALOAD SWAP2 POP PUSH1 0x20 DUP4 ADD SWAP3 POP PUSH8 0xFFFFFFFFFFFFFFFF DUP3 GT ISZERO PUSH2 0x1066 JUMPI PUSH2 0x1065 PUSH2 0x1012 JUMP JUMPDEST JUMPDEST PUSH1 0x1 DUP3 MUL CALLDATASIZE SUB DUP4 SGT ISZERO PUSH2 0x107C JUMPI PUSH2 0x107B PUSH2 0x1017 JUMP JUMPDEST JUMPDEST POP SWAP3 POP SWAP3 SWAP1 POP JUMP JUMPDEST PUSH1 0x0 DUP3 DUP3 MSTORE PUSH1 0x20 DUP3 ADD SWAP1 POP SWAP3 SWAP2 POP POP JUMP JUMPDEST PUSH1 0x0 PUSH2 0x10A1 DUP4 DUP6 PUSH2 0x1084 JUMP JUMPDEST SWAP4 POP PUSH2 0x10AE DUP4 DUP6 DUP5 PUSH2 0xFA1 JUMP JUMPDEST PUSH2 0x10B7 DUP4 PUSH2 0xFB0 JUMP JUMPDEST DUP5 ADD SWAP1 POP SWAP4 SWAP3 POP POP POP JUMP JUMPDEST PUSH1 0x0 PUSH1 0x40 DUP4 ADD PUSH2 0x10D5 PUSH1 0x0 DUP5 ADD DUP5 PUSH2 0x1021 JUMP JUMPDEST DUP6 DUP4 SUB PUSH1 0x0 DUP8 ADD MSTORE PUSH2 0x10E8 DUP4 DUP3 DUP5 PUSH2 0x1095 JUMP JUMPDEST SWAP3 POP POP POP PUSH2 0x10F9 PUSH1 0x20 DUP5 ADD DUP5 PUSH2 0x1021 JUMP JUMPDEST DUP6 DUP4 SUB PUSH1 0x20 DUP8 ADD MSTORE PUSH2 0x110C DUP4 DUP3 DUP5 PUSH2 0x1095 JUMP JUMPDEST SWAP3 POP POP POP DUP1 SWAP2 POP POP SWAP3 SWAP2 POP POP JUMP JUMPDEST PUSH2 0x1123 DUP2 PUSH2 0xC01 JUMP JUMPDEST DUP3 MSTORE POP POP JUMP JUMPDEST PUSH1 0x0 DUP3 DUP3 MSTORE PUSH1 0x20 DUP3 ADD SWAP1 POP SWAP3 SWAP2 POP POP JUMP JUMPDEST PUSH1 0x0 DUP2 SWAP1 POP SWAP2 SWAP1 POP JUMP JUMPDEST PUSH1 0x0 DUP2 CALLDATALOAD SWAP1 POP PUSH2 0x1153 DUP2 PUSH2 0xEC5 JUMP JUMPDEST SWAP3 SWAP2 POP POP JUMP JUMPDEST PUSH1 0x0 PUSH2 0x1168 PUSH1 0x20 DUP5 ADD DUP5 PUSH2 0x1144 JUMP JUMPDEST SWAP1 POP SWAP3 SWAP2 POP POP JUMP JUMPDEST PUSH2 0x1179 DUP2 PUSH2 0xD7C JUMP JUMPDEST DUP3 MSTORE POP POP JUMP JUMPDEST PUSH1 0x0 DUP1 DUP4 CALLDATALOAD PUSH1 0x1 PUSH1 0x20 SUB DUP5 CALLDATASIZE SUB SUB DUP2 SLT PUSH2 0x119C JUMPI PUSH2 0x119B PUSH2 0x101C JUMP JUMPDEST JUMPDEST DUP4 DUP2 ADD SWAP3 POP DUP3 CALLDATALOAD SWAP2 POP PUSH1 0x20 DUP4 ADD SWAP3 POP PUSH8 0xFFFFFFFFFFFFFFFF DUP3 GT ISZERO PUSH2 0x11C4 JUMPI PUSH2 0x11C3 PUSH2 0x1012 JUMP JUMPDEST JUMPDEST PUSH1 0x1 DUP3 MUL CALLDATASIZE SUB DUP4 SGT ISZERO PUSH2 0x11DA JUMPI PUSH2 0x11D9 PUSH2 0x1017 JUMP JUMPDEST JUMPDEST POP SWAP3 POP SWAP3 SWAP1 POP JUMP JUMPDEST PUSH1 0x0 DUP3 DUP3 MSTORE PUSH1 0x20 DUP3 ADD SWAP1 POP SWAP3 SWAP2 POP POP JUMP JUMPDEST PUSH1 0x0 PUSH2 0x11FF DUP4 DUP6 PUSH2 0x11E2 JUMP JUMPDEST SWAP4 POP PUSH2 0x120C DUP4 DUP6 DUP5 PUSH2 0xFA1 JUMP JUMPDEST PUSH2 0x1215 DUP4 PUSH2 0xFB0 JUMP JUMPDEST DUP5 ADD SWAP1 POP SWAP4 SWAP3 POP POP POP JUMP JUMPDEST PUSH1 0x0 PUSH1 0xFF DUP3 AND SWAP1 POP SWAP2 SWAP1 POP JUMP JUMPDEST PUSH2 0x1236 DUP2 PUSH2 0x1220 JUMP JUMPDEST DUP2 EQ PUSH2 0x1241 JUMPI PUSH1 0x0 DUP1 REVERT JUMPDEST POP JUMP JUMPDEST PUSH1 0x0 DUP2 CALLDATALOAD SWAP1 POP PUSH2 0x1253 DUP2 PUSH2 0x122D JUMP JUMPDEST SWAP3 SWAP2 POP POP JUMP JUMPDEST PUSH1 0x0 PUSH2 0x1268 PUSH1 0x20 DUP5 ADD DUP5 PUSH2 0x1244 JUMP JUMPDEST SWAP1 POP SWAP3 SWAP2 POP POP JUMP JUMPDEST PUSH2 0x1279 DUP2 PUSH2 0x1220 JUMP JUMPDEST DUP3 MSTORE POP POP JUMP JUMPDEST PUSH1 0x0 PUSH1 0xE0 DUP4 ADD PUSH2 0x1292 PUSH1 0x0 DUP5 ADD DUP5 PUSH2 0x1021 JUMP JUMPDEST DUP6 DUP4 SUB PUSH1 0x0 DUP8 ADD MSTORE PUSH2 0x12A5 DUP4 DUP3 DUP5 PUSH2 0x1095 JUMP JUMPDEST SWAP3 POP POP POP PUSH2 0x12B6 PUSH1 0x20 DUP5 ADD DUP5 PUSH2 0x1159 JUMP JUMPDEST PUSH2 0x12C3 PUSH1 0x20 DUP7 ADD DUP3 PUSH2 0x1170 JUMP JUMPDEST POP PUSH2 0x12D1 PUSH1 0x40 DUP5 ADD DUP5 PUSH2 0x117F JUMP JUMPDEST DUP6 DUP4 SUB PUSH1 0x40 DUP8 ADD MSTORE PUSH2 0x12E4 DUP4 DUP3 DUP5 PUSH2 0x11F3 JUMP JUMPDEST SWAP3 POP POP POP PUSH2 0x12F5 PUSH1 0x60 DUP5 ADD DUP5 PUSH2 0x1259 JUMP JUMPDEST PUSH2 0x1302 PUSH1 0x60 DUP7 ADD DUP3 PUSH2 0x1270 JUMP JUMPDEST POP PUSH2 0x1310 PUSH1 0x80 DUP5 ADD DUP5 PUSH2 0x117F JUMP JUMPDEST DUP6 DUP4 SUB PUSH1 0x80 DUP8 ADD MSTORE PUSH2 0x1323 DUP4 DUP3 DUP5 PUSH2 0x11F3 JUMP JUMPDEST SWAP3 POP POP POP PUSH2 0x1334 PUSH1 0xA0 DUP5 ADD DUP5 PUSH2 0x117F JUMP JUMPDEST DUP6 DUP4 SUB PUSH1 0xA0 DUP8 ADD MSTORE PUSH2 0x1347 DUP4 DUP3 DUP5 PUSH2 0x11F3 JUMP JUMPDEST SWAP3 POP POP POP PUSH2 0x1358 PUSH1 0xC0 DUP5 ADD DUP5 PUSH2 0x117F JUMP JUMPDEST DUP6 DUP4 SUB PUSH1 0xC0 DUP8 ADD MSTORE PUSH2 0x136B DUP4 DUP3 DUP5 PUSH2 0x11F3 JUMP JUMPDEST SWAP3 POP POP POP DUP1 SWAP2 POP POP SWAP3 SWAP2 POP POP JUMP JUMPDEST PUSH1 0x0 PUSH2 0x1385 DUP4 DUP4 PUSH2 0x127F JUMP JUMPDEST SWAP1 POP SWAP3 SWAP2 POP POP JUMP JUMPDEST PUSH1 0x0 DUP3 CALLDATALOAD PUSH1 0x1 PUSH1 0xE0 SUB DUP4 CALLDATASIZE SUB SUB DUP2 SLT PUSH2 0x13A9 JUMPI PUSH2 0x13A8 PUSH2 0x101C JUMP JUMPDEST JUMPDEST DUP3 DUP2 ADD SWAP2 POP POP SWAP3 SWAP2 POP POP JUMP JUMPDEST PUSH1 0x0 PUSH1 0x20 DUP3 ADD SWAP1 POP SWAP2 SWAP1 POP JUMP JUMPDEST PUSH1 0x0 PUSH2 0x13CE DUP4 DUP6 PUSH2 0x1129 JUMP JUMPDEST SWAP4 POP DUP4 PUSH1 0x20 DUP5 MUL DUP6 ADD PUSH2 0x13E0 DUP5 PUSH2 0x113A JUMP JUMPDEST DUP1 PUSH1 0x0 JUMPDEST DUP8 DUP2 LT ISZERO PUSH2 0x1424 JUMPI DUP5 DUP5 SUB DUP10 MSTORE PUSH2 0x13FB DUP3 DUP5 PUSH2 0x138D JUMP JUMPDEST PUSH2 0x1405 DUP6 DUP3 PUSH2 0x1379 JUMP JUMPDEST SWAP5 POP PUSH2 0x1410 DUP4 PUSH2 0x13B5 JUMP JUMPDEST SWAP3 POP PUSH1 0x20 DUP11 ADD SWAP10 POP POP PUSH1 0x1 DUP2 ADD SWAP1 POP PUSH2 0x13E4 JUMP JUMPDEST POP DUP3 SWAP8 POP DUP8 SWAP5 POP POP POP POP POP SWAP4 SWAP3 POP POP POP JUMP JUMPDEST PUSH1 0x0 PUSH1 0x80 DUP3 ADD SWAP1 POP DUP2 DUP2 SUB PUSH1 0x0 DUP4 ADD MSTORE PUSH2 0x1450 DUP2 DUP9 PUSH2 0x10C2 JUMP JUMPDEST SWAP1 POP PUSH2 0x145F PUSH1 0x20 DUP4 ADD DUP8 PUSH2 0xD8E JUMP JUMPDEST PUSH2 0x146C PUSH1 0x40 DUP4 ADD DUP7 PUSH2 0x111A JUMP JUMPDEST DUP2 DUP2 SUB PUSH1 0x60 DUP4 ADD MSTORE PUSH2 0x147F DUP2 DUP5 DUP7 PUSH2 0x13C2 JUMP JUMPDEST SWAP1 POP SWAP7 SWAP6 POP POP POP POP POP POP JUMP JUMPDEST PUSH1 0x0 DUP2 MLOAD SWAP1 POP SWAP2 SWAP1 POP JUMP JUMPDEST PUSH1 0x0 DUP3 DUP3 MSTORE PUSH1 0x20 DUP3 ADD SWAP1 POP SWAP3 SWAP2 POP POP JUMP JUMPDEST PUSH1 0x0 JUMPDEST DUP4 DUP2 LT ISZERO PUSH2 0x14C5 JUMPI DUP1 DUP3 ADD MLOAD DUP2 DUP5 ADD MSTORE PUSH1 0x20 DUP2 ADD SWAP1 POP PUSH2 0x14AA JUMP JUMPDEST PUSH1 0x0 DUP5 DUP5 ADD MSTORE POP POP POP POP JUMP JUMPDEST PUSH1 0x0 PUSH2 0x14DC DUP3 PUSH2 0x148B JUMP JUMPDEST PUSH2 0x14E6 DUP2 DUP6 PUSH2 0x1496 JUMP JUMPDEST SWAP4 POP PUSH2 0x14F6 DUP2 DUP6 PUSH1 0x20 DUP7 ADD PUSH2 0x14A7 JUMP JUMPDEST PUSH2 0x14FF DUP2 PUSH2 0xFB0 JUMP JUMPDEST DUP5 ADD SWAP2 POP POP SWAP3 SWAP2 POP POP JUMP JUMPDEST PUSH1 0x0 PUSH1 0x40 DUP3 ADD SWAP1 POP DUP2 DUP2 SUB PUSH1 0x0 DUP4 ADD MSTORE PUSH2 0x1525 DUP2 DUP6 DUP8 PUSH2 0xFC1 JUMP JUMPDEST SWAP1 POP DUP2 DUP2 SUB PUSH1 0x20 DUP4 ADD MSTORE PUSH2 0x1539 DUP2 DUP5 PUSH2 0x14D1 JUMP JUMPDEST SWAP1 POP SWAP5 SWAP4 POP POP POP POP JUMP JUMPDEST PUSH1 0x0 DUP1 DUP4 CALLDATALOAD PUSH1 0x1 PUSH1 0x20 SUB DUP5 CALLDATASIZE SUB SUB DUP2 SLT PUSH2 0x1560 JUMPI PUSH2 0x155F PUSH2 0xF1E JUMP JUMPDEST JUMPDEST DUP1 DUP5 ADD SWAP3 POP DUP3 CALLDATALOAD SWAP2 POP PUSH8 0xFFFFFFFFFFFFFFFF DUP3 GT ISZERO PUSH2 0x1582 JUMPI PUSH2 0x1581 PUSH2 0xF23 JUMP JUMPDEST JUMPDEST PUSH1 0x20 DUP4 ADD SWAP3 POP PUSH1 0x1 DUP3 MUL CALLDATASIZE SUB DUP4 SGT ISZERO PUSH2 0x159E JUMPI PUSH2 0x159D PUSH2 0xF28 JUMP JUMPDEST JUMPDEST POP SWAP3 POP SWAP3 SWAP1 POP JUMP JUMPDEST PUSH1 0x0 PUSH2 0x15B2 DUP4 DUP6 PUSH2 0x1496 JUMP JUMPDEST SWAP4 POP PUSH2 0x15BF DUP4 DUP6 DUP5 PUSH2 0xFA1 JUMP JUMPDEST PUSH2 0x15C8 DUP4 PUSH2 0xFB0 JUMP JUMPDEST DUP5 ADD SWAP1 POP SWAP4 SWAP3 POP POP POP JUMP JUMPDEST PUSH1 0x0 PUSH1 0x40 DUP3 ADD SWAP1 POP DUP2 DUP2 SUB PUSH1 0x0 DUP4 ADD MSTORE PUSH2 0x15EE DUP2 DUP7 DUP9 PUSH2 0xFC1 JUMP JUMPDEST SWAP1 POP DUP2 DUP2 SUB PUSH1 0x20 DUP4 ADD MSTORE PUSH2 0x1603 DUP2 DUP5 DUP7 PUSH2 0x15A6 JUMP JUMPDEST SWAP1 POP SWAP6 SWAP5 POP POP POP POP POP JUMP JUMPDEST PUSH32 0x4E487B7100000000000000000000000000000000000000000000000000000000 PUSH1 0x0 MSTORE PUSH1 0x11 PUSH1 0x4 MSTORE PUSH1 0x24 PUSH1 0x0 REVERT JUMPDEST PUSH1 0x0 PUSH2 0x1648 DUP3 PUSH2 0xC01 JUMP JUMPDEST SWAP2 POP PUSH2 0x1653 DUP4 PUSH2 0xC01 JUMP JUMPDEST SWAP3 POP DUP3 DUP3 ADD SWAP1 POP DUP1 DUP3 GT ISZERO PUSH2 0x166B JUMPI PUSH2 0x166A PUSH2 0x160E JUMP JUMPDEST JUMPDEST SWAP3 SWAP2 POP POP JUMP JUMPDEST PUSH32 0x4E487B7100000000000000000000000000000000000000000000000000000000 PUSH1 0x0 MSTORE PUSH1 0x41 PUSH1 0x4 MSTORE PUSH1 0x24 PUSH1 0x0 REVERT JUMPDEST PUSH32 0x4E487B7100000000000000000000000000000000000000000000000000000000 PUSH1 0x0 MSTORE PUSH1 0x32 PUSH1 0x4 MSTORE PUSH1 0x24 PUSH1 0x0 REVERT JUMPDEST PUSH1 0x0 DUP3 CALLDATALOAD PUSH1 0x1 PUSH1 0xE0 SUB DUP4 CALLDATASIZE SUB SUB DUP2 SLT PUSH2 0x16EB JUMPI PUSH2 0x16EA PUSH2 0xF1E JUMP JUMPDEST JUMPDEST DUP1 DUP4 ADD SWAP2 POP POP SWAP3 SWAP2 POP POP JUMP JUMPDEST PUSH1 0x0 DUP1 REVERT JUMPDEST PUSH2 0x1705 DUP3 PUSH2 0xFB0 JUMP JUMPDEST DUP2 ADD DUP2 DUP2 LT PUSH8 0xFFFFFFFFFFFFFFFF DUP3 GT OR ISZERO PUSH2 0x1724 JUMPI PUSH2 0x1723 PUSH2 0x1671 JUMP JUMPDEST JUMPDEST DUP1 PUSH1 0x40 MSTORE POP POP POP JUMP JUMPDEST PUSH1 0x0 PUSH2 0x1737 PUSH2 0xBAA JUMP JUMPDEST SWAP1 POP PUSH2 0x1743 DUP3 DUP3 PUSH2 0x16FC JUMP JUMPDEST SWAP2 SWAP1 POP JUMP JUMPDEST PUSH1 0x0 DUP1 REVERT JUMPDEST PUSH1 0x0 DUP1 REVERT JUMPDEST PUSH1 0x0 PUSH8 0xFFFFFFFFFFFFFFFF DUP3 GT ISZERO PUSH2 0x176D JUMPI PUSH2 0x176C PUSH2 0x1671 JUMP JUMPDEST JUMPDEST PUSH2 0x1776 DUP3 PUSH2 0xFB0 JUMP JUMPDEST SWAP1 POP PUSH1 0x20 DUP2 ADD SWAP1 POP SWAP2 SWAP1 POP JUMP JUMPDEST PUSH1 0x0 PUSH2 0x1796 PUSH2 0x1791 DUP5 PUSH2 0x1752 JUMP JUMPDEST PUSH2 0x172D JUMP JUMPDEST SWAP1 POP DUP3 DUP2 MSTORE PUSH1 0x20 DUP2 ADD DUP5 DUP5 DUP5 ADD GT ISZERO PUSH2 0x17B2 JUMPI PUSH2 0x17B1 PUSH2 0x174D JUMP JUMPDEST JUMPDEST PUSH2 0x17BD DUP5 DUP3 DUP6 PUSH2 0xFA1 JUMP JUMPDEST POP SWAP4 SWAP3 POP POP POP JUMP JUMPDEST PUSH1 0x0 DUP3 PUSH1 0x1F DUP4 ADD SLT PUSH2 0x17DA JUMPI PUSH2 0x17D9 PUSH2 0xC37 JUMP JUMPDEST JUMPDEST DUP2 CALLDATALOAD PUSH2 0x17EA DUP5 DUP3 PUSH1 0x20 DUP7 ADD PUSH2 0x1783 JUMP JUMPDEST SWAP2 POP POP SWAP3 SWAP2 POP POP JUMP JUMPDEST PUSH1 0x0 PUSH8 0xFFFFFFFFFFFFFFFF DUP3 GT ISZERO PUSH2 0x180E JUMPI PUSH2 0x180D PUSH2 0x1671 JUMP JUMPDEST JUMPDEST PUSH2 0x1817 DUP3 PUSH2 0xFB0 JUMP JUMPDEST SWAP1 POP PUSH1 0x20 DUP2 ADD SWAP1 POP SWAP2 SWAP1 POP JUMP JUMPDEST PUSH1 0x0 PUSH2 0x1837 PUSH2 0x1832 DUP5 PUSH2 0x17F3 JUMP JUMPDEST PUSH2 0x172D JUMP JUMPDEST SWAP1 POP DUP3 DUP2 MSTORE PUSH1 0x20 DUP2 ADD DUP5 DUP5 DUP5 ADD GT ISZERO PUSH2 0x1853 JUMPI PUSH2 0x1852 PUSH2 0x174D JUMP JUMPDEST JUMPDEST PUSH2 0x185E DUP5 DUP3 DUP6 PUSH2 0xFA1 JUMP JUMPDEST POP SWAP4 SWAP3 POP POP POP JUMP JUMPDEST PUSH1 0x0 DUP3 PUSH1 0x1F DUP4 ADD SLT PUSH2 0x187B JUMPI PUSH2 0x187A PUSH2 0xC37 JUMP JUMPDEST JUMPDEST DUP2 CALLDATALOAD PUSH2 0x188B DUP5 DUP3 PUSH1 0x20 DUP7 ADD PUSH2 0x1824 JUMP JUMPDEST SWAP2 POP POP SWAP3 SWAP2 POP POP JUMP JUMPDEST PUSH1 0x0 PUSH1 0xE0 DUP3 DUP5 SUB SLT ISZERO PUSH2 0x18AA JUMPI PUSH2 0x18A9 PUSH2 0x16F7 JUMP JUMPDEST JUMPDEST PUSH2 0x18B4 PUSH1 0xE0 PUSH2 0x172D JUMP JUMPDEST SWAP1 POP PUSH1 0x0 DUP3 ADD CALLDATALOAD PUSH8 0xFFFFFFFFFFFFFFFF DUP2 GT ISZERO PUSH2 0x18D4 JUMPI PUSH2 0x18D3 PUSH2 0x1748 JUMP JUMPDEST JUMPDEST PUSH2 0x18E0 DUP5 DUP3 DUP6 ADD PUSH2 0x17C5 JUMP JUMPDEST PUSH1 0x0 DUP4 ADD MSTORE POP PUSH1 0x20 PUSH2 0x18F4 DUP5 DUP3 DUP6 ADD PUSH2 0x1144 JUMP JUMPDEST PUSH1 0x20 DUP4 ADD MSTORE POP PUSH1 0x40 DUP3 ADD CALLDATALOAD PUSH8 0xFFFFFFFFFFFFFFFF DUP2 GT ISZERO PUSH2 0x1918 JUMPI PUSH2 0x1917 PUSH2 0x1748 JUMP JUMPDEST JUMPDEST PUSH2 0x1924 DUP5 DUP3 DUP6 ADD PUSH2 0x1866 JUMP JUMPDEST PUSH1 0x40 DUP4 ADD MSTORE POP PUSH1 0x60 PUSH2 0x1938 DUP5 DUP3 DUP6 ADD PUSH2 0x1244 JUMP JUMPDEST PUSH1 0x60 DUP4 ADD MSTORE POP PUSH1 0x80 DUP3 ADD CALLDATALOAD PUSH8 0xFFFFFFFFFFFFFFFF DUP2 GT ISZERO PUSH2 0x195C JUMPI PUSH2 0x195B PUSH2 0x1748 JUMP JUMPDEST JUMPDEST PUSH2 0x1968 DUP5 DUP3 DUP6 ADD PUSH2 0x1866 JUMP JUMPDEST PUSH1 0x80 DUP4 ADD MSTORE POP PUSH1 0xA0 DUP3 ADD CALLDATALOAD PUSH8 0xFFFFFFFFFFFFFFFF DUP2 GT ISZERO PUSH2 0x198C JUMPI PUSH2 0x198B PUSH2 0x1748 JUMP JUMPDEST JUMPDEST PUSH2 0x1998 DUP5 DUP3 DUP6 ADD PUSH2 0x1866 JUMP JUMPDEST PUSH1 0xA0 DUP4 ADD MSTORE POP PUSH1 0xC0 DUP3 ADD CALLDATALOAD PUSH8 0xFFFFFFFFFFFFFFFF DUP2 GT ISZERO PUSH2 0x19BC JUMPI PUSH2 0x19BB PUSH2 0x1748 JUMP JUMPDEST JUMPDEST PUSH2 0x19C8 DUP5 DUP3 DUP6 ADD PUSH2 0x1866 JUMP JUMPDEST PUSH1 0xC0 DUP4 ADD MSTORE POP SWAP3 SWAP2 POP POP JUMP JUMPDEST PUSH1 0x0 PUSH2 0x19E0 CALLDATASIZE DUP4 PUSH2 0x1894 JUMP JUMPDEST SWAP1 POP SWAP2 SWAP1 POP JUMP JUMPDEST PUSH1 0x0 PUSH2 0x19F2 DUP3 PUSH2 0xC01 JUMP JUMPDEST SWAP2 POP PUSH32 0xFFFFFFFFFFFFFFFFFFFFFFFFFFFFFFFFFFFFFFFFFFFFFFFFFFFFFFFFFFFFFFFF DUP3 SUB PUSH2 0x1A24 JUMPI PUSH2 0x1A23 PUSH2 0x160E JUMP JUMPDEST JUMPDEST PUSH1 0x1 DUP3 ADD SWAP1 POP SWAP2 SWAP1 POP JUMP JUMPDEST PUSH1 0x0 PUSH1 0x20 DUP3 DUP5 SUB SLT ISZERO PUSH2 0x1A45 JUMPI PUSH2 0x1A44 PUSH2 0xBB4 JUMP JUMPDEST JUMPDEST PUSH1 0x0 PUSH2 0x1A53 DUP5 DUP3 DUP6 ADD PUSH2 0x1244 JUMP JUMPDEST SWAP2 POP POP SWAP3 SWAP2 POP POP JUMP JUMPDEST PUSH1 0x0 DUP2 MLOAD SWAP1 POP SWAP2 SWAP1 POP JUMP JUMPDEST PUSH1 0x0 DUP2 SWAP1 POP PUSH1 0x20 DUP3 ADD SWAP1 POP SWAP2 SWAP1 POP JUMP JUMPDEST PUSH1 0x0 DUP2 MLOAD SWAP1 POP SWAP2 SWAP1 POP JUMP JUMPDEST PUSH1 0x0 PUSH2 0x1A8D DUP3 PUSH2 0x1A77 JUMP JUMPDEST PUSH2 0x1A97 DUP2 DUP6 PUSH2 0x1084 JUMP JUMPDEST SWAP4 POP PUSH2 0x1AA7 DUP2 DUP6 PUSH1 0x20 DUP7 ADD PUSH2 0x14A7 JUMP JUMPDEST PUSH2 0x1AB0 DUP2 PUSH2 0xFB0 JUMP JUMPDEST DUP5 ADD SWAP2 POP POP SWAP3 SWAP2 POP POP JUMP JUMPDEST PUSH1 0x0 PUSH2 0x1AC6 DUP3 PUSH2 0x148B JUMP JUMPDEST PUSH2 0x1AD0 DUP2 DUP6 PUSH2 0x11E2 JUMP JUMPDEST SWAP4 POP PUSH2 0x1AE0 DUP2 DUP6 PUSH1 0x20 DUP7 ADD PUSH2 0x14A7 JUMP JUMPDEST PUSH2 0x1AE9 DUP2 PUSH2 0xFB0 JUMP JUMPDEST DUP5 ADD SWAP2 POP POP SWAP3 SWAP2 POP POP JUMP JUMPDEST PUSH1 0x0 PUSH1 0xE0 DUP4 ADD PUSH1 0x0 DUP4 ADD MLOAD DUP5 DUP3 SUB PUSH1 0x0 DUP7 ADD MSTORE PUSH2 0x1B11 DUP3 DUP3 PUSH2 0x1A82 JUMP JUMPDEST SWAP2 POP POP PUSH1 0x20 DUP4 ADD MLOAD PUSH2 0x1B26 PUSH1 0x20 DUP7 ADD DUP3 PUSH2 0x1170 JUMP JUMPDEST POP PUSH1 0x40 DUP4 ADD MLOAD DUP5 DUP3 SUB PUSH1 0x40 DUP7 ADD MSTORE PUSH2 0x1B3E DUP3 DUP3 PUSH2 0x1ABB JUMP JUMPDEST SWAP2 POP POP PUSH1 0x60 DUP4 ADD MLOAD PUSH2 0x1B53 PUSH1 0x60 DUP7 ADD DUP3 PUSH2 0x1270 JUMP JUMPDEST POP PUSH1 0x80 DUP4 ADD MLOAD DUP5 DUP3 SUB PUSH1 0x80 DUP7 ADD MSTORE PUSH2 0x1B6B DUP3 DUP3 PUSH2 0x1ABB JUMP JUMPDEST SWAP2 POP POP PUSH1 0xA0 DUP4 ADD MLOAD DUP5 DUP3 SUB PUSH1 0xA0 DUP7 ADD MSTORE PUSH2 0x1B85 DUP3 DUP3 PUSH2 0x1ABB JUMP JUMPDEST SWAP2 POP POP PUSH1 0xC0 DUP4 ADD MLOAD DUP5 DUP3 SUB PUSH1 0xC0 DUP7 ADD MSTORE PUSH2 0x1B9F DUP3 DUP3 PUSH2 0x1ABB JUMP JUMPDEST SWAP2 POP POP DUP1 SWAP2 POP POP SWAP3 SWAP2 POP POP JUMP JUMPDEST PUSH1 0x0 PUSH2 0x1BB8 DUP4 DUP4 PUSH2 0x1AF4 JUMP JUMPDEST SWAP1 POP SWAP3 SWAP2 POP POP JUMP JUMPDEST PUSH1 0x0 PUSH1 0x20 DUP3 ADD SWAP1 POP SWAP2 SWAP1 POP JUMP JUMPDEST PUSH1 0x0 PUSH2 0x1BD8 DUP3 PUSH2 0x1A5C JUMP JUMPDEST PUSH2 0x1BE2 DUP2 DUP6 PUSH2 0x1129 JUMP JUMPDEST SWAP4 POP DUP4 PUSH1 0x20 DUP3 MUL DUP6 ADD PUSH2 0x1BF4 DUP6 PUSH2 0x1A67 JUMP JUMPDEST DUP1 PUSH1 0x0 JUMPDEST DUP6 DUP2 LT ISZERO PUSH2 0x1C30 JUMPI DUP5 DUP5 SUB DUP10 MSTORE DUP2 MLOAD PUSH2 0x1C11 DUP6 DUP3 PUSH2 0x1BAC JUMP JUMPDEST SWAP5 POP PUSH2 0x1C1C DUP4 PUSH2 0x1BC0 JUMP JUMPDEST SWAP3 POP PUSH1 0x20 DUP11 ADD SWAP10 POP POP PUSH1 0x1 DUP2 ADD SWAP1 POP PUSH2 0x1BF8 JUMP JUMPDEST POP DUP3 SWAP8 POP DUP8 SWAP6 POP POP POP POP POP POP SWAP3 SWAP2 POP POP JUMP JUMPDEST PUSH1 0x0 PUSH1 0x80 DUP3 ADD SWAP1 POP DUP2 DUP2 SUB PUSH1 0x0 DUP4 ADD MSTORE PUSH2 0x1C5C DUP2 DUP8 PUSH2 0x10C2 JUMP JUMPDEST SWAP1 POP PUSH2 0x1C6B PUSH1 0x20 DUP4 ADD DUP7 PUSH2 0xD8E JUMP JUMPDEST PUSH2 0x1C78 PUSH1 0x40 DUP4 ADD DUP6 PUSH2 0x111A JUMP JUMPDEST DUP2 DUP2 SUB PUSH1 0x60 DUP4 ADD MSTORE PUSH2 0x1C8A DUP2 DUP5 PUSH2 0x1BCD JUMP JUMPDEST SWAP1 POP SWAP6 SWAP5 POP POP POP POP POP JUMP INVALID LOG2 PUSH5 0x6970667358 0x22 SLT KECCAK256 MSTORE 0xC3 PUSH18 0xC326FAAC1A87BFC95A14AA0D30A3E4A6AA96 PUSH7 0x502C85E6E856D1 0xB2 0x4E 0x4A PUSH5 0x736F6C6343 STOP ADDMOD GT STOP CALLER "},"methodIdentifiers":{"createFrame((string,string),(string,string),uint256,(string,address,bytes,uint8,bytes,bytes,bytes)[])":"55af8822","createFrameWithStorage((string,string),(string,string),uint256,(string,bytes,uint8,bytes,bytes,bytes),(string,address,bytes,uint8,bytes,bytes,bytes)[])":"dd958cba","frameFactory()":"954bf4d1","scriptyBuilder()":"91a0d36d","scriptyStorageFactory()":"96ed95d8"}}}}}