{"src/contracts/scripty/ScriptyBuilder.sol":{"ScriptyBuilder":{"abi":[{"inputs":[],"name":"InvalidRequestsLength","type":"error"},{"inputs":[],"name":"HTML_BASE64_DATA_URI_BYTES","outputs":[{"internalType":"uint256","name":"","type":"uint256"}],"stateMutability":"view","type":"function"},{"inputs":[],"name":"HTML_BODY_CLOSED_RAW","outputs":[{"internalType":"bytes","name":"","type":"bytes"}],"stateMutability":"view","type":"function"},{"inputs":[],"name":"HTML_BODY_CLOSED_URL_SAFE","outputs":[{"internalType":"bytes","name":"","type":"bytes"}],"stateMutability":"view","type":"function"},{"inputs":[],"name":"HTML_BODY_OPEN_RAW","outputs":[{"internalType":"bytes","name":"","type":"bytes"}],"stateMutability":"view","type":"function"},{"inputs":[],"name":"HTML_BODY_OPEN_URL_SAFE","outputs":[{"internalType":"bytes","name":"","type":"bytes"}],"stateMutability":"view","type":"function"},{"inputs":[],"name":"HTML_TAG_RAW","outputs":[{"internalType":"bytes","name":"","type":"bytes"}],"stateMutability":"view","type":"function"},{"inputs":[],"name":"HTML_TAG_URL_SAFE","outputs":[{"internalType":"bytes","name":"","type":"bytes"}],"stateMutability":"view","type":"function"},{"inputs":[],"name":"SCRIPT_INLINE_BYTES","outputs":[{"internalType":"uint256","name":"","type":"uint256"}],"stateMutability":"view","type":"function"},{"inputs":[],"name":"URLS_RAW_BYTES","outputs":[{"internalType":"uint256","name":"","type":"uint256"}],"stateMutability":"view","type":"function"},{"inputs":[],"name":"URLS_SAFE_BYTES","outputs":[{"internalType":"uint256","name":"","type":"uint256"}],"stateMutability":"view","type":"function"},{"inputs":[{"components":[{"internalType":"string","name":"name","type":"string"},{"internalType":"address","name":"contractAddress","type":"address"},{"internalType":"bytes","name":"contractData","type":"bytes"},{"internalType":"bytes","name":"scriptContent","type":"bytes"}],"internalType":"struct InlineScriptRequest[]","name":"requests","type":"tuple[]"}],"name":"getBufferSizeForEncodedHTMLInline","outputs":[{"internalType":"uint256","name":"","type":"uint256"}],"stateMutability":"view","type":"function"},{"inputs":[{"components":[{"internalType":"string","name":"name","type":"string"},{"internalType":"address","name":"contractAddress","type":"address"},{"internalType":"bytes","name":"contractData","type":"bytes"},{"internalType":"uint8","name":"wrapType","type":"uint8"},{"internalType":"bytes","name":"wrapPrefix","type":"bytes"},{"internalType":"bytes","name":"wrapSuffix","type":"bytes"},{"internalType":"bytes","name":"scriptContent","type":"bytes"}],"internalType":"struct WrappedScriptRequest[]","name":"requests","type":"tuple[]"}],"name":"getBufferSizeForEncodedHTMLWrapped","outputs":[{"internalType":"uint256","name":"","type":"uint256"}],"stateMutability":"view","type":"function"},{"inputs":[{"components":[{"internalType":"string","name":"name","type":"string"},{"internalType":"address","name":"contractAddress","type":"address"},{"internalType":"bytes","name":"contractData","type":"bytes"},{"internalType":"bytes","name":"scriptContent","type":"bytes"}],"internalType":"struct InlineScriptRequest[]","name":"requests","type":"tuple[]"}],"name":"getBufferSizeForHTMLInline","outputs":[{"internalType":"uint256","name":"","type":"uint256"}],"stateMutability":"view","type":"function"},{"inputs":[{"components":[{"internalType":"string","name":"name","type":"string"},{"internalType":"address","name":"contractAddress","type":"address"},{"internalType":"bytes","name":"contractData","type":"bytes"},{"internalType":"uint8","name":"wrapType","type":"uint8"},{"internalType":"bytes","name":"wrapPrefix","type":"bytes"},{"internalType":"bytes","name":"wrapSuffix","type":"bytes"},{"internalType":"bytes","name":"scriptContent","type":"bytes"}],"internalType":"struct WrappedScriptRequest[]","name":"requests","type":"tuple[]"}],"name":"getBufferSizeForHTMLWrapped","outputs":[{"internalType":"uint256","name":"","type":"uint256"}],"stateMutability":"view","type":"function"},{"inputs":[{"components":[{"internalType":"string","name":"name","type":"string"},{"internalType":"address","name":"contractAddress","type":"address"},{"internalType":"bytes","name":"contractData","type":"bytes"},{"internalType":"uint8","name":"wrapType","type":"uint8"},{"internalType":"bytes","name":"wrapPrefix","type":"bytes"},{"internalType":"bytes","name":"wrapSuffix","type":"bytes"},{"internalType":"bytes","name":"scriptContent","type":"bytes"}],"internalType":"struct WrappedScriptRequest[]","name":"requests","type":"tuple[]"}],"name":"getBufferSizeForURLSafeHTMLWrapped","outputs":[{"internalType":"uint256","name":"","type":"uint256"}],"stateMutability":"view","type":"function"},{"inputs":[{"components":[{"internalType":"string","name":"name","type":"string"},{"internalType":"address","name":"contractAddress","type":"address"},{"internalType":"bytes","name":"contractData","type":"bytes"},{"internalType":"bytes","name":"scriptContent","type":"bytes"}],"internalType":"struct InlineScriptRequest[]","name":"requests","type":"tuple[]"},{"internalType":"uint256","name":"bufferSize","type":"uint256"}],"name":"getEncodedHTMLInline","outputs":[{"internalType":"bytes","name":"","type":"bytes"}],"stateMutability":"view","type":"function"},{"inputs":[{"components":[{"internalType":"string","name":"name","type":"string"},{"internalType":"address","name":"contractAddress","type":"address"},{"internalType":"bytes","name":"contractData","type":"bytes"},{"internalType":"bytes","name":"scriptContent","type":"bytes"}],"internalType":"struct InlineScriptRequest[]","name":"requests","type":"tuple[]"},{"internalType":"uint256","name":"bufferSize","type":"uint256"}],"name":"getEncodedHTMLInlineString","outputs":[{"internalType":"string","name":"","type":"string"}],"stateMutability":"view","type":"function"},{"inputs":[{"components":[{"internalType":"string","name":"name","type":"string"},{"internalType":"address","name":"contractAddress","type":"address"},{"internalType":"bytes","name":"contractData","type":"bytes"},{"internalType":"uint8","name":"wrapType","type":"uint8"},{"internalType":"bytes","name":"wrapPrefix","type":"bytes"},{"internalType":"bytes","name":"wrapSuffix","type":"bytes"},{"internalType":"bytes","name":"scriptContent","type":"bytes"}],"internalType":"struct WrappedScriptRequest[]","name":"requests","type":"tuple[]"},{"internalType":"uint256","name":"bufferSize","type":"uint256"}],"name":"getEncodedHTMLWrapped","outputs":[{"internalType":"bytes","name":"","type":"bytes"}],"stateMutability":"view","type":"function"},{"inputs":[{"components":[{"internalType":"string","name":"name","type":"string"},{"internalType":"address","name":"contractAddress","type":"address"},{"internalType":"bytes","name":"contractData","type":"bytes"},{"internalType":"uint8","name":"wrapType","type":"uint8"},{"internalType":"bytes","name":"wrapPrefix","type":"bytes"},{"internalType":"bytes","name":"wrapSuffix","type":"bytes"},{"internalType":"bytes","name":"scriptContent","type":"bytes"}],"internalType":"struct WrappedScriptRequest[]","name":"requests","type":"tuple[]"},{"internalType":"uint256","name":"bufferSize","type":"uint256"}],"name":"getEncodedHTMLWrappedString","outputs":[{"internalType":"string","name":"","type":"string"}],"stateMutability":"view","type":"function"},{"inputs":[{"components":[{"internalType":"string","name":"name","type":"string"},{"internalType":"address","name":"contractAddress","type":"address"},{"internalType":"bytes","name":"contractData","type":"bytes"},{"internalType":"bytes","name":"scriptContent","type":"bytes"}],"internalType":"struct InlineScriptRequest[]","name":"requests","type":"tuple[]"},{"internalType":"uint256","name":"bufferSize","type":"uint256"}],"name":"getHTMLInline","outputs":[{"internalType":"bytes","name":"","type":"bytes"}],"stateMutability":"view","type":"function"},{"inputs":[{"components":[{"internalType":"string","name":"name","type":"string"},{"internalType":"address","name":"contractAddress","type":"address"},{"internalType":"bytes","name":"contractData","type":"bytes"},{"internalType":"bytes","name":"scriptContent","type":"bytes"}],"internalType":"struct InlineScriptRequest[]","name":"requests","type":"tuple[]"},{"internalType":"uint256","name":"bufferSize","type":"uint256"}],"name":"getHTMLInlineString","outputs":[{"internalType":"string","name":"","type":"string"}],"stateMutability":"view","type":"function"},{"inputs":[{"components":[{"internalType":"string","name":"name","type":"string"},{"internalType":"address","name":"contractAddress","type":"address"},{"internalType":"bytes","name":"contractData","type":"bytes"},{"internalType":"uint8","name":"wrapType","type":"uint8"},{"internalType":"bytes","name":"wrapPrefix","type":"bytes"},{"internalType":"bytes","name":"wrapSuffix","type":"bytes"},{"internalType":"bytes","name":"scriptContent","type":"bytes"}],"internalType":"struct WrappedScriptRequest[]","name":"requests","type":"tuple[]"},{"internalType":"uint256","name":"bufferSize","type":"uint256"}],"name":"getHTMLWrapped","outputs":[{"internalType":"bytes","name":"","type":"bytes"}],"stateMutability":"view","type":"function"},{"inputs":[{"components":[{"internalType":"string","name":"name","type":"string"},{"internalType":"address","name":"contractAddress","type":"address"},{"internalType":"bytes","name":"contractData","type":"bytes"},{"internalType":"uint8","name":"wrapType","type":"uint8"},{"internalType":"bytes","name":"wrapPrefix","type":"bytes"},{"internalType":"bytes","name":"wrapSuffix","type":"bytes"},{"internalType":"bytes","name":"scriptContent","type":"bytes"}],"internalType":"struct WrappedScriptRequest[]","name":"requests","type":"tuple[]"},{"internalType":"uint256","name":"bufferSize","type":"uint256"}],"name":"getHTMLWrappedString","outputs":[{"internalType":"string","name":"","type":"string"}],"stateMutability":"view","type":"function"},{"inputs":[{"components":[{"internalType":"string","name":"name","type":"string"},{"internalType":"address","name":"contractAddress","type":"address"},{"internalType":"bytes","name":"contractData","type":"bytes"},{"internalType":"uint8","name":"wrapType","type":"uint8"},{"internalType":"bytes","name":"wrapPrefix","type":"bytes"},{"internalType":"bytes","name":"wrapSuffix","type":"bytes"},{"internalType":"bytes","name":"scriptContent","type":"bytes"}],"internalType":"struct WrappedScriptRequest[]","name":"requests","type":"tuple[]"},{"internalType":"uint256","name":"bufferSize","type":"uint256"}],"name":"getHTMLWrappedURLSafe","outputs":[{"internalType":"bytes","name":"","type":"bytes"}],"stateMutability":"view","type":"function"},{"inputs":[{"components":[{"internalType":"string","name":"name","type":"string"},{"internalType":"address","name":"contractAddress","type":"address"},{"internalType":"bytes","name":"contractData","type":"bytes"},{"internalType":"bytes","name":"scriptContent","type":"bytes"}],"internalType":"struct InlineScriptRequest","name":"request","type":"tuple"}],"name":"getInlineScriptSize","outputs":[{"internalType":"uint256","name":"","type":"uint256"}],"stateMutability":"view","type":"function"},{"inputs":[{"components":[{"internalType":"string","name":"name","type":"string"},{"internalType":"address","name":"contractAddress","type":"address"},{"internalType":"bytes","name":"contractData","type":"bytes"},{"internalType":"uint8","name":"wrapType","type":"uint8"},{"internalType":"bytes","name":"wrapPrefix","type":"bytes"},{"internalType":"bytes","name":"wrapSuffix","type":"bytes"},{"internalType":"bytes","name":"scriptContent","type":"bytes"}],"internalType":"struct WrappedScriptRequest[]","name":"requests","type":"tuple[]"},{"internalType":"uint256","name":"bufferSize","type":"uint256"}],"name":"getURLSafeHTMLWrappedString","outputs":[{"internalType":"string","name":"","type":"string"}],"stateMutability":"view","type":"function"},{"inputs":[{"components":[{"internalType":"string","name":"name","type":"string"},{"internalType":"address","name":"contractAddress","type":"address"},{"internalType":"bytes","name":"contractData","type":"bytes"},{"internalType":"uint8","name":"wrapType","type":"uint8"},{"internalType":"bytes","name":"wrapPrefix","type":"bytes"},{"internalType":"bytes","name":"wrapSuffix","type":"bytes"},{"internalType":"bytes","name":"scriptContent","type":"bytes"}],"internalType":"struct WrappedScriptRequest","name":"request","type":"tuple"}],"name":"getURLSafeWrappedScriptSize","outputs":[{"internalType":"uint256","name":"","type":"uint256"}],"stateMutability":"view","type":"function"},{"inputs":[{"components":[{"internalType":"string","name":"name","type":"string"},{"internalType":"address","name":"contractAddress","type":"address"},{"internalType":"bytes","name":"contractData","type":"bytes"},{"internalType":"uint8","name":"wrapType","type":"uint8"},{"internalType":"bytes","name":"wrapPrefix","type":"bytes"},{"internalType":"bytes","name":"wrapSuffix","type":"bytes"},{"internalType":"bytes","name":"scriptContent","type":"bytes"}],"internalType":"struct WrappedScriptRequest","name":"request","type":"tuple"}],"name":"getWrappedScriptSize","outputs":[{"internalType":"uint256","name":"","type":"uint256"}],"stateMutability":"view","type":"function"}],"evm":{"bytecode":{"linkReferences":{},"object":"608060405234801561001057600080fd5b5061267c806100206000396000f3fe608060405234801561001057600080fd5b50600436106101c45760003560e01c80639e708330116100f9578063c03f39cd11610097578063cab6a3f311610071578063cab6a3f3146105cb578063d602d7d0146105fb578063e572b8a014610619578063f051dcf814610637576101c4565b8063c03f39cd1461053b578063c71dd0261461056b578063c8d00e051461059b576101c4565b8063b8108e30116100d3578063b8108e301461048d578063b97e52da146104bd578063ba69524d146104ed578063bee84ae31461051d576101c4565b80639e7083301461040f578063a0a5eeac1461042d578063b4f7d41e1461045d576101c4565b8063668db168116101665780637603465f116101405780637603465f146103615780637ea050061461039157806387598e52146103c15780639a7f08e0146103df576101c4565b8063668db168146102e357806368e1644a146103135780637510ac2414610343576101c4565b8063479751c3116101a2578063479751c31461024757806349a6b847146102775780634ce2f93114610295578063529df5d7146102b3576101c4565b8063053f1eb0146101c957806333a656c1146101e757806334c3c9d514610217575b600080fd5b6101d1610655565b6040516101de919061192a565b60405180910390f35b61020160048036038101906101fc91906119c5565b61068e565b60405161020e9190611a2b565b60405180910390f35b610231600480360381019061022c9190611ac8565b61070a565b60405161023e919061192a565b60405180910390f35b610261600480360381019061025c9190611b28565b6107a6565b60405161026e919061192a565b60405180910390f35b61027f610842565b60405161028c9190611a2b565b60405180910390f35b61029d610847565b6040516102aa919061192a565b60405180910390f35b6102cd60048036038101906102c89190611e8d565b610880565b6040516102da9190611a2b565b60405180910390f35b6102fd60048036038101906102f8919061204f565b6108a6565b60405161030a9190611a2b565b60405180910390f35b61032d60048036038101906103289190612098565b6108ea565b60405161033a9190611a2b565b60405180910390f35b61034b610963565b6040516103589190611a2b565b60405180910390f35b61037b60048036038101906103769190611ac8565b610968565b604051610388919061192a565b60405180910390f35b6103ab60048036038101906103a69190611b28565b610b51565b6040516103b8919061213a565b60405180910390f35b6103c9610b67565b6040516103d69190611a2b565b60405180910390f35b6103f960048036038101906103f49190611b28565b610b6c565b604051610406919061213a565b60405180910390f35b610417610b82565b604051610424919061192a565b60405180910390f35b61044760048036038101906104429190612098565b610bbb565b6040516104549190611a2b565b60405180910390f35b61047760048036038101906104729190611ac8565b610bdf565b604051610484919061192a565b60405180910390f35b6104a760048036038101906104a2919061204f565b610df3565b6040516104b49190611a2b565b60405180910390f35b6104d760048036038101906104d29190612098565b610e52565b6040516104e49190611a2b565b60405180910390f35b61050760048036038101906105029190611b28565b610ecb565b604051610514919061192a565b60405180910390f35b610525611108565b6040516105329190611a2b565b60405180910390f35b61055560048036038101906105509190611ac8565b61110d565b604051610562919061213a565b60405180910390f35b61058560048036038101906105809190611ac8565b611123565b604051610592919061213a565b60405180910390f35b6105b560048036038101906105b09190611ac8565b611139565b6040516105c2919061213a565b60405180910390f35b6105e560048036038101906105e091906119c5565b61114f565b6040516105f29190611a2b565b60405180910390f35b610603611173565b604051610610919061192a565b60405180910390f35b6106216111ac565b60405161062e919061192a565b60405180910390f35b61063f6111c8565b60405161064c919061192a565b60405180910390f35b6040518060400160405280601381526020017f25323533432532353246626f647925323533450000000000000000000000000081525081565b6000806000808585905090506106a2611806565b60008211156106f7575b8686848181106106bf576106be61215c565b5b90506020028101906106d19190612190565b6106da906121b8565b90506106e581610880565b840193508183600101935083106106ac575b6011602c85010194505050505092915050565b60606000610719858585610968565b905060006107278251611201565b6016019050600061073782611222565b90506107816040518060400160405280601681526020017f646174613a746578742f68746d6c3b6261736536342c000000000000000000008152508261124c90919063ffffffff16565b6107998360008084611265909392919063ffffffff16565b8093505050509392505050565b606060006107b5858585610ecb565b905060006107c38251611201565b601601905060006107d382611222565b905061081d6040518060400160405280601681526020017f646174613a746578742f68746d6c3b6261736536342c000000000000000000008152508261124c90919063ffffffff16565b6108358360008084611265909392919063ffffffff16565b8093505050509392505050565b601181565b6040518060400160405280600681526020017f3c68746d6c3e000000000000000000000000000000000000000000000000000081525081565b600061089e8260000151836020015184604001518560600151611390565b519050919050565b60008060006108b484611430565b9150915060006108d68560000151866020015187604001518860c00151611390565b519050808251845101019350505050919050565b6000806000808585905090506108fe611844565b6000821115610953575b86868481811061091b5761091a61215c565b5b905060200281019061092d91906121cb565b610936906121f3565b905061094181610df3565b84019350818360010193508310610908575b6060840194505050505092915050565b601681565b60606000848490509050600081036109ac576040517f54aa7c2a00000000000000000000000000000000000000000000000000000000815260040160405180910390fd5b60006109b784611222565b9050610a016040518060400160405280600681526020017f3c68746d6c3e00000000000000000000000000000000000000000000000000008152508261124c90919063ffffffff16565b610a496040518060400160405280601881526020017f3c626f6479207374796c653d276d617267696e3a303b273e00000000000000008152508261124c90919063ffffffff16565b606080610a54611844565b60005b898982818110610a6a57610a6961215c565b5b9050602002810190610a7c91906121cb565b610a85906121f3565b9150610a9082611430565b8094508195505050610aab848661124c90919063ffffffff16565b610ad9610aca8360000151846020015185604001518660c00151611390565b8661124c90919063ffffffff16565b610aec838661124c90919063ffffffff16565b858160010191508110610a5757610b416040518060400160405280600e81526020017f3c2f626f64793e3c2f68746d6c3e0000000000000000000000000000000000008152508661124c90919063ffffffff16565b8496505050505050509392505050565b6060610b5e8484846107a6565b90509392505050565b602c81565b6060610b79848484610ecb565b90509392505050565b6040518060400160405280601581526020017f646174612533417465787425324668746d6c253243000000000000000000000081525081565b600080610bc88484610e52565b9050610bd381611201565b60160191505092915050565b6060600084849050905060008103610c23576040517f54aa7c2a00000000000000000000000000000000000000000000000000000000815260040160405180910390fd5b6000610c2e84611222565b9050610c786040518060400160405280601581526020017f646174612533417465787425324668746d6c25324300000000000000000000008152508261124c90919063ffffffff16565b610ca3604051806060016040528060388152602001612444603891398261124c90919063ffffffff16565b606080610cae611844565b60005b898982818110610cc457610cc361215c565b5b9050602002810190610cd691906121cb565b610cdf906121f3565b9150610cea82611600565b8094508195505050610d05848661124c90919063ffffffff16565b6000826060015160ff1603610d4c57610d47610d338360000151846020015185604001518660c00151611390565b60008088611265909392919063ffffffff16565b610d7b565b610d7a610d6b8360000151846020015185604001518660c00151611390565b8661124c90919063ffffffff16565b5b610d8e838661124c90919063ffffffff16565b858160010191508110610cb157610de36040518060400160405280601381526020017f25323533432532353246626f64792532353345000000000000000000000000008152508661124c90919063ffffffff16565b8496505050505050509392505050565b6000806000610e0184611600565b915091506000610e238560000151866020015187604001518860c00151611390565b5190506000856060015160ff1603610e4157610e3e81611201565b90505b808251845101019350505050919050565b600080600080858590509050610e66611844565b6000821115610ebb575b868684818110610e8357610e8261215c565b5b9050602002810190610e9591906121cb565b610e9e906121f3565b9050610ea9816108a6565b84019350818360010193508310610e70575b602c840194505050505092915050565b6060600084849050905060008103610f0f576040517f54aa7c2a00000000000000000000000000000000000000000000000000000000815260040160405180910390fd5b6000610f1a84611222565b9050610f646040518060400160405280600681526020017f3c68746d6c3e00000000000000000000000000000000000000000000000000008152508261124c90919063ffffffff16565b610fac6040518060400160405280601881526020017f3c626f6479207374796c653d276d617267696e3a303b273e00000000000000008152508261124c90919063ffffffff16565b610ff46040518060400160405280600881526020017f3c7363726970743e0000000000000000000000000000000000000000000000008152508261124c90919063ffffffff16565b610ffc611806565b60005b8787828181106110125761101161215c565b5b90506020028101906110249190612190565b61102d906121b8565b915061105d61104e8360000151846020015185604001518660600151611390565b8461124c90919063ffffffff16565b838160010191508110610fff576110b26040518060400160405280600981526020017f3c2f7363726970743e00000000000000000000000000000000000000000000008152508461124c90919063ffffffff16565b6110fa6040518060400160405280600e81526020017f3c2f626f64793e3c2f68746d6c3e0000000000000000000000000000000000008152508461124c90919063ffffffff16565b829450505050509392505050565b606081565b606061111a84848461070a565b90509392505050565b6060611130848484610bdf565b90509392505050565b6060611146848484610968565b90509392505050565b60008061115c848461068e565b905061116781611201565b60160191505092915050565b6040518060400160405280601881526020017f3c626f6479207374796c653d276d617267696e3a303b273e000000000000000081525081565b6040518060600160405280603881526020016124446038913981565b6040518060400160405280600e81526020017f3c2f626f64793e3c2f68746d6c3e00000000000000000000000000000000000081525081565b60006003600283018161121757611216612206565b5b046004029050919050565b60606040516060830180820180604052505060408301808252506020810191506000825250919050565b61125782825161174c565b61126182826117b3565b5050565b600083519050600084510361127a575061138a565b6000806003600284010460021b915060038306905083156112a2576001811481151501820391505b6112ac878361174c565b6040517f4142434445464748494a4b4c4d4e4f505152535455565758595a616263646566601f526102308615027f6768696a6b6c6d6e6f707172737475767778797a303132333435363738392d5f03603f52875160208901018488015b60011561135f576003890198508851603f8160121c16518353603f81600c1c16516001840153603f8160061c16516002840153603f8116516003840153600483019250818a10611359575061135f565b50611309565b8661137957603d841515830353603d6001851460011b8303535b848a51018a52826040525050505050505b50505050565b60606000825111156113a457819050611428565b8373ffffffffffffffffffffffffffffffffffffffff1663f963559486856040518363ffffffff1660e01b81526004016113df929190612235565b600060405180830381865afa1580156113fc573d6000803e3d6000fd5b505050506040513d6000823e3d601f19601f8201168201806040525081019061142591906122dc565b90505b949350505050565b6060806000836060015160ff16036114b7576040518060400160405280600881526020017f3c7363726970743e0000000000000000000000000000000000000000000000008152506040518060400160405280600981526020017f3c2f7363726970743e0000000000000000000000000000000000000000000000815250915091506115fb565b6001836060015160ff160361151e5760405180606001604052806029815260200161241b602991396040518060400160405280600b81526020017f223e3c2f7363726970743e000000000000000000000000000000000000000000815250915091506115fb565b6002836060015160ff1603611585576040518060800160405280604581526020016124c5604591396040518060400160405280600b81526020017f223e3c2f7363726970743e000000000000000000000000000000000000000000815250915091506115fb565b6003836060015160ff16036115ec57604051806080016040528060448152602001612603604491396040518060400160405280600b81526020017f223e3c2f7363726970743e000000000000000000000000000000000000000000815250915091506115fb565b82608001518360a00151915091505b915091565b6060806001836060015160ff161161166a5760405180608001604052806049815260200161247c604991396040518060400160405280601f81526020017f253235323225323533452532353343253235324673637269707425323533450081525091509150611747565b6002836060015160ff16036116d1576040518060a00160405280607d815260200161250a607d91396040518060400160405280601f81526020017f253235323225323533452532353343253235324673637269707425323533450081525091509150611747565b6003836060015160ff1603611738576040518060a00160405280607c8152602001612587607c91396040518060400160405280601f81526020017f253235323225323533452532353343253235324673637269707425323533450081525091509150611747565b82608001518360a00151915091505b915091565b6000611757836117f0565b905060008284516117689190612354565b9050808210156117ad576040517f08c379a00000000000000000000000000000000000000000000000000000000081526004016117a4906123fa565b60405180910390fd5b50505050565b8051602082019150808201602084510184015b818410156117e357835181526020840193506020810190506117c6565b5050808351018352505050565b6000806040602084035103905080915050919050565b604051806080016040528060608152602001600073ffffffffffffffffffffffffffffffffffffffff16815260200160608152602001606081525090565b6040518060e0016040528060608152602001600073ffffffffffffffffffffffffffffffffffffffff16815260200160608152602001600060ff1681526020016060815260200160608152602001606081525090565b600081519050919050565b600082825260208201905092915050565b60005b838110156118d45780820151818401526020810190506118b9565b60008484015250505050565b6000601f19601f8301169050919050565b60006118fc8261189a565b61190681856118a5565b93506119168185602086016118b6565b61191f816118e0565b840191505092915050565b6000602082019050818103600083015261194481846118f1565b905092915050565b6000604051905090565b600080fd5b600080fd5b600080fd5b600080fd5b600080fd5b60008083601f84011261198557611984611960565b5b8235905067ffffffffffffffff8111156119a2576119a1611965565b5b6020830191508360208202830111156119be576119bd61196a565b5b9250929050565b600080602083850312156119dc576119db611956565b5b600083013567ffffffffffffffff8111156119fa576119f961195b565b5b611a068582860161196f565b92509250509250929050565b6000819050919050565b611a2581611a12565b82525050565b6000602082019050611a406000830184611a1c565b92915050565b60008083601f840112611a5c57611a5b611960565b5b8235905067ffffffffffffffff811115611a7957611a78611965565b5b602083019150836020820283011115611a9557611a9461196a565b5b9250929050565b611aa581611a12565b8114611ab057600080fd5b50565b600081359050611ac281611a9c565b92915050565b600080600060408486031215611ae157611ae0611956565b5b600084013567ffffffffffffffff811115611aff57611afe61195b565b5b611b0b86828701611a46565b93509350506020611b1e86828701611ab3565b9150509250925092565b600080600060408486031215611b4157611b40611956565b5b600084013567ffffffffffffffff811115611b5f57611b5e61195b565b5b611b6b8682870161196f565b93509350506020611b7e86828701611ab3565b9150509250925092565b600080fd5b7f4e487b7100000000000000000000000000000000000000000000000000000000600052604160045260246000fd5b611bc5826118e0565b810181811067ffffffffffffffff82111715611be457611be3611b8d565b5b80604052505050565b6000611bf761194c565b9050611c038282611bbc565b919050565b600080fd5b600080fd5b600067ffffffffffffffff821115611c2d57611c2c611b8d565b5b611c36826118e0565b9050602081019050919050565b82818337600083830152505050565b6000611c65611c6084611c12565b611bed565b905082815260208101848484011115611c8157611c80611c0d565b5b611c8c848285611c43565b509392505050565b600082601f830112611ca957611ca8611960565b5b8135611cb9848260208601611c52565b91505092915050565b600073ffffffffffffffffffffffffffffffffffffffff82169050919050565b6000611ced82611cc2565b9050919050565b611cfd81611ce2565b8114611d0857600080fd5b50565b600081359050611d1a81611cf4565b92915050565b600067ffffffffffffffff821115611d3b57611d3a611b8d565b5b611d44826118e0565b9050602081019050919050565b6000611d64611d5f84611d20565b611bed565b905082815260208101848484011115611d8057611d7f611c0d565b5b611d8b848285611c43565b509392505050565b600082601f830112611da857611da7611960565b5b8135611db8848260208601611d51565b91505092915050565b600060808284031215611dd757611dd6611b88565b5b611de16080611bed565b9050600082013567ffffffffffffffff811115611e0157611e00611c08565b5b611e0d84828501611c94565b6000830152506020611e2184828501611d0b565b602083015250604082013567ffffffffffffffff811115611e4557611e44611c08565b5b611e5184828501611d93565b604083015250606082013567ffffffffffffffff811115611e7557611e74611c08565b5b611e8184828501611d93565b60608301525092915050565b600060208284031215611ea357611ea2611956565b5b600082013567ffffffffffffffff811115611ec157611ec061195b565b5b611ecd84828501611dc1565b91505092915050565b600060ff82169050919050565b611eec81611ed6565b8114611ef757600080fd5b50565b600081359050611f0981611ee3565b92915050565b600060e08284031215611f2557611f24611b88565b5b611f2f60e0611bed565b9050600082013567ffffffffffffffff811115611f4f57611f4e611c08565b5b611f5b84828501611c94565b6000830152506020611f6f84828501611d0b565b602083015250604082013567ffffffffffffffff811115611f9357611f92611c08565b5b611f9f84828501611d93565b6040830152506060611fb384828501611efa565b606083015250608082013567ffffffffffffffff811115611fd757611fd6611c08565b5b611fe384828501611d93565b60808301525060a082013567ffffffffffffffff81111561200757612006611c08565b5b61201384828501611d93565b60a08301525060c082013567ffffffffffffffff81111561203757612036611c08565b5b61204384828501611d93565b60c08301525092915050565b60006020828403121561206557612064611956565b5b600082013567ffffffffffffffff8111156120835761208261195b565b5b61208f84828501611f0f565b91505092915050565b600080602083850312156120af576120ae611956565b5b600083013567ffffffffffffffff8111156120cd576120cc61195b565b5b6120d985828601611a46565b92509250509250929050565b600081519050919050565b600082825260208201905092915050565b600061210c826120e5565b61211681856120f0565b93506121268185602086016118b6565b61212f816118e0565b840191505092915050565b600060208201905081810360008301526121548184612101565b905092915050565b7f4e487b7100000000000000000000000000000000000000000000000000000000600052603260045260246000fd5b600080fd5b6000823560016080038336030381126121ac576121ab61218b565b5b80830191505092915050565b60006121c43683611dc1565b9050919050565b60008235600160e0038336030381126121e7576121e661218b565b5b80830191505092915050565b60006121ff3683611f0f565b9050919050565b7f4e487b7100000000000000000000000000000000000000000000000000000000600052601260045260246000fd5b6000604082019050818103600083015261224f8185612101565b9050818103602083015261226381846118f1565b90509392505050565b600061227f61227a84611d20565b611bed565b90508281526020810184848401111561229b5761229a611c0d565b5b6122a68482856118b6565b509392505050565b600082601f8301126122c3576122c2611960565b5b81516122d384826020860161226c565b91505092915050565b6000602082840312156122f2576122f1611956565b5b600082015167ffffffffffffffff8111156123105761230f61195b565b5b61231c848285016122ae565b91505092915050565b7f4e487b7100000000000000000000000000000000000000000000000000000000600052601160045260246000fd5b600061235f82611a12565b915061236a83611a12565b925082820190508082111561238257612381612325565b5b92915050565b7f44796e616d69634275666665723a20417070656e64696e67206f7574206f662060008201527f626f756e64732e00000000000000000000000000000000000000000000000000602082015250565b60006123e46027836120f0565b91506123ef82612388565b604082019050919050565b60006020820190508181036000830152612413816123d7565b905091905056fe3c736372697074207372633d22646174613a746578742f6a6176617363726970743b6261736536342c2532353343626f647925323532307374796c65253235334425323532376d617267696e25323533413025323533422532353237253235334525323533437363726970742532353230737263253235334425323532326461746125323533417465787425323532466a617661736372697074253235334262617365363425323532433c73637269707420747970653d22746578742f6a6176617363726970742b677a697022207372633d22646174613a746578742f6a6176617363726970743b6261736536342c2532353343736372697074253235323074797065253235334425323532327465787425323532466a6176617363726970742532353242677a697025323532322532353230737263253235334425323532326461746125323533417465787425323532466a617661736372697074253235334262617365363425323532432532353343736372697074253235323074797065253235334425323532327465787425323532466a6176617363726970742532353242706e6725323532322532353230737263253235334425323532326461746125323533417465787425323532466a617661736372697074253235334262617365363425323532433c73637269707420747970653d22746578742f6a6176617363726970742b706e6722207372633d22646174613a746578742f6a6176617363726970743b6261736536342ca2646970667358221220c52e66cd0f0d2d1a6af2399056b1d2d3549a50d925e82e43233812a71da1abae64736f6c63430008110033","opcodes":"PUSH1 0x80 PUSH1 0x40 MSTORE CALLVALUE DUP1 ISZERO PUSH2 0x10 JUMPI PUSH1 0x0 DUP1 REVERT JUMPDEST POP PUSH2 0x267C DUP1 PUSH2 0x20 PUSH1 0x0 CODECOPY PUSH1 0x0 RETURN INVALID PUSH1 0x80 PUSH1 0x40 MSTORE CALLVALUE DUP1 ISZERO PUSH2 0x10 JUMPI PUSH1 0x0 DUP1 REVERT JUMPDEST POP PUSH1 0x4 CALLDATASIZE LT PUSH2 0x1C4 JUMPI PUSH1 0x0 CALLDATALOAD PUSH1 0xE0 SHR DUP1 PUSH4 0x9E708330 GT PUSH2 0xF9 JUMPI DUP1 PUSH4 0xC03F39CD GT PUSH2 0x97 JUMPI DUP1 PUSH4 0xCAB6A3F3 GT PUSH2 0x71 JUMPI DUP1 PUSH4 0xCAB6A3F3 EQ PUSH2 0x5CB JUMPI DUP1 PUSH4 0xD602D7D0 EQ PUSH2 0x5FB JUMPI DUP1 PUSH4 0xE572B8A0 EQ PUSH2 0x619 JUMPI DUP1 PUSH4 0xF051DCF8 EQ PUSH2 0x637 JUMPI PUSH2 0x1C4 JUMP JUMPDEST DUP1 PUSH4 0xC03F39CD EQ PUSH2 0x53B JUMPI DUP1 PUSH4 0xC71DD026 EQ PUSH2 0x56B JUMPI DUP1 PUSH4 0xC8D00E05 EQ PUSH2 0x59B JUMPI PUSH2 0x1C4 JUMP JUMPDEST DUP1 PUSH4 0xB8108E30 GT PUSH2 0xD3 JUMPI DUP1 PUSH4 0xB8108E30 EQ PUSH2 0x48D JUMPI DUP1 PUSH4 0xB97E52DA EQ PUSH2 0x4BD JUMPI DUP1 PUSH4 0xBA69524D EQ PUSH2 0x4ED JUMPI DUP1 PUSH4 0xBEE84AE3 EQ PUSH2 0x51D JUMPI PUSH2 0x1C4 JUMP JUMPDEST DUP1 PUSH4 0x9E708330 EQ PUSH2 0x40F JUMPI DUP1 PUSH4 0xA0A5EEAC EQ PUSH2 0x42D JUMPI DUP1 PUSH4 0xB4F7D41E EQ PUSH2 0x45D JUMPI PUSH2 0x1C4 JUMP JUMPDEST DUP1 PUSH4 0x668DB168 GT PUSH2 0x166 JUMPI DUP1 PUSH4 0x7603465F GT PUSH2 0x140 JUMPI DUP1 PUSH4 0x7603465F EQ PUSH2 0x361 JUMPI DUP1 PUSH4 0x7EA05006 EQ PUSH2 0x391 JUMPI DUP1 PUSH4 0x87598E52 EQ PUSH2 0x3C1 JUMPI DUP1 PUSH4 0x9A7F08E0 EQ PUSH2 0x3DF JUMPI PUSH2 0x1C4 JUMP JUMPDEST DUP1 PUSH4 0x668DB168 EQ PUSH2 0x2E3 JUMPI DUP1 PUSH4 0x68E1644A EQ PUSH2 0x313 JUMPI DUP1 PUSH4 0x7510AC24 EQ PUSH2 0x343 JUMPI PUSH2 0x1C4 JUMP JUMPDEST DUP1 PUSH4 0x479751C3 GT PUSH2 0x1A2 JUMPI DUP1 PUSH4 0x479751C3 EQ PUSH2 0x247 JUMPI DUP1 PUSH4 0x49A6B847 EQ PUSH2 0x277 JUMPI DUP1 PUSH4 0x4CE2F931 EQ PUSH2 0x295 JUMPI DUP1 PUSH4 0x529DF5D7 EQ PUSH2 0x2B3 JUMPI PUSH2 0x1C4 JUMP JUMPDEST DUP1 PUSH4 0x53F1EB0 EQ PUSH2 0x1C9 JUMPI DUP1 PUSH4 0x33A656C1 EQ PUSH2 0x1E7 JUMPI DUP1 PUSH4 0x34C3C9D5 EQ PUSH2 0x217 JUMPI JUMPDEST PUSH1 0x0 DUP1 REVERT JUMPDEST PUSH2 0x1D1 PUSH2 0x655 JUMP JUMPDEST PUSH1 0x40 MLOAD PUSH2 0x1DE SWAP2 SWAP1 PUSH2 0x192A JUMP JUMPDEST PUSH1 0x40 MLOAD DUP1 SWAP2 SUB SWAP1 RETURN JUMPDEST PUSH2 0x201 PUSH1 0x4 DUP1 CALLDATASIZE SUB DUP2 ADD SWAP1 PUSH2 0x1FC SWAP2 SWAP1 PUSH2 0x19C5 JUMP JUMPDEST PUSH2 0x68E JUMP JUMPDEST PUSH1 0x40 MLOAD PUSH2 0x20E SWAP2 SWAP1 PUSH2 0x1A2B JUMP JUMPDEST PUSH1 0x40 MLOAD DUP1 SWAP2 SUB SWAP1 RETURN JUMPDEST PUSH2 0x231 PUSH1 0x4 DUP1 CALLDATASIZE SUB DUP2 ADD SWAP1 PUSH2 0x22C SWAP2 SWAP1 PUSH2 0x1AC8 JUMP JUMPDEST PUSH2 0x70A JUMP JUMPDEST PUSH1 0x40 MLOAD PUSH2 0x23E SWAP2 SWAP1 PUSH2 0x192A JUMP JUMPDEST PUSH1 0x40 MLOAD DUP1 SWAP2 SUB SWAP1 RETURN JUMPDEST PUSH2 0x261 PUSH1 0x4 DUP1 CALLDATASIZE SUB DUP2 ADD SWAP1 PUSH2 0x25C SWAP2 SWAP1 PUSH2 0x1B28 JUMP JUMPDEST PUSH2 0x7A6 JUMP JUMPDEST PUSH1 0x40 MLOAD PUSH2 0x26E SWAP2 SWAP1 PUSH2 0x192A JUMP JUMPDEST PUSH1 0x40 MLOAD DUP1 SWAP2 SUB SWAP1 RETURN JUMPDEST PUSH2 0x27F PUSH2 0x842 JUMP JUMPDEST PUSH1 0x40 MLOAD PUSH2 0x28C SWAP2 SWAP1 PUSH2 0x1A2B JUMP JUMPDEST PUSH1 0x40 MLOAD DUP1 SWAP2 SUB SWAP1 RETURN JUMPDEST PUSH2 0x29D PUSH2 0x847 JUMP JUMPDEST PUSH1 0x40 MLOAD PUSH2 0x2AA SWAP2 SWAP1 PUSH2 0x192A JUMP JUMPDEST PUSH1 0x40 MLOAD DUP1 SWAP2 SUB SWAP1 RETURN JUMPDEST PUSH2 0x2CD PUSH1 0x4 DUP1 CALLDATASIZE SUB DUP2 ADD SWAP1 PUSH2 0x2C8 SWAP2 SWAP1 PUSH2 0x1E8D JUMP JUMPDEST PUSH2 0x880 JUMP JUMPDEST PUSH1 0x40 MLOAD PUSH2 0x2DA SWAP2 SWAP1 PUSH2 0x1A2B JUMP JUMPDEST PUSH1 0x40 MLOAD DUP1 SWAP2 SUB SWAP1 RETURN JUMPDEST PUSH2 0x2FD PUSH1 0x4 DUP1 CALLDATASIZE SUB DUP2 ADD SWAP1 PUSH2 0x2F8 SWAP2 SWAP1 PUSH2 0x204F JUMP JUMPDEST PUSH2 0x8A6 JUMP JUMPDEST PUSH1 0x40 MLOAD PUSH2 0x30A SWAP2 SWAP1 PUSH2 0x1A2B JUMP JUMPDEST PUSH1 0x40 MLOAD DUP1 SWAP2 SUB SWAP1 RETURN JUMPDEST PUSH2 0x32D PUSH1 0x4 DUP1 CALLDATASIZE SUB DUP2 ADD SWAP1 PUSH2 0x328 SWAP2 SWAP1 PUSH2 0x2098 JUMP JUMPDEST PUSH2 0x8EA JUMP JUMPDEST PUSH1 0x40 MLOAD PUSH2 0x33A SWAP2 SWAP1 PUSH2 0x1A2B JUMP JUMPDEST PUSH1 0x40 MLOAD DUP1 SWAP2 SUB SWAP1 RETURN JUMPDEST PUSH2 0x34B PUSH2 0x963 JUMP JUMPDEST PUSH1 0x40 MLOAD PUSH2 0x358 SWAP2 SWAP1 PUSH2 0x1A2B JUMP JUMPDEST PUSH1 0x40 MLOAD DUP1 SWAP2 SUB SWAP1 RETURN JUMPDEST PUSH2 0x37B PUSH1 0x4 DUP1 CALLDATASIZE SUB DUP2 ADD SWAP1 PUSH2 0x376 SWAP2 SWAP1 PUSH2 0x1AC8 JUMP JUMPDEST PUSH2 0x968 JUMP JUMPDEST PUSH1 0x40 MLOAD PUSH2 0x388 SWAP2 SWAP1 PUSH2 0x192A JUMP JUMPDEST PUSH1 0x40 MLOAD DUP1 SWAP2 SUB SWAP1 RETURN JUMPDEST PUSH2 0x3AB PUSH1 0x4 DUP1 CALLDATASIZE SUB DUP2 ADD SWAP1 PUSH2 0x3A6 SWAP2 SWAP1 PUSH2 0x1B28 JUMP JUMPDEST PUSH2 0xB51 JUMP JUMPDEST PUSH1 0x40 MLOAD PUSH2 0x3B8 SWAP2 SWAP1 PUSH2 0x213A JUMP JUMPDEST PUSH1 0x40 MLOAD DUP1 SWAP2 SUB SWAP1 RETURN JUMPDEST PUSH2 0x3C9 PUSH2 0xB67 JUMP JUMPDEST PUSH1 0x40 MLOAD PUSH2 0x3D6 SWAP2 SWAP1 PUSH2 0x1A2B JUMP JUMPDEST PUSH1 0x40 MLOAD DUP1 SWAP2 SUB SWAP1 RETURN JUMPDEST PUSH2 0x3F9 PUSH1 0x4 DUP1 CALLDATASIZE SUB DUP2 ADD SWAP1 PUSH2 0x3F4 SWAP2 SWAP1 PUSH2 0x1B28 JUMP JUMPDEST PUSH2 0xB6C JUMP JUMPDEST PUSH1 0x40 MLOAD PUSH2 0x406 SWAP2 SWAP1 PUSH2 0x213A JUMP JUMPDEST PUSH1 0x40 MLOAD DUP1 SWAP2 SUB SWAP1 RETURN JUMPDEST PUSH2 0x417 PUSH2 0xB82 JUMP JUMPDEST PUSH1 0x40 MLOAD PUSH2 0x424 SWAP2 SWAP1 PUSH2 0x192A JUMP JUMPDEST PUSH1 0x40 MLOAD DUP1 SWAP2 SUB SWAP1 RETURN JUMPDEST PUSH2 0x447 PUSH1 0x4 DUP1 CALLDATASIZE SUB DUP2 ADD SWAP1 PUSH2 0x442 SWAP2 SWAP1 PUSH2 0x2098 JUMP JUMPDEST PUSH2 0xBBB JUMP JUMPDEST PUSH1 0x40 MLOAD PUSH2 0x454 SWAP2 SWAP1 PUSH2 0x1A2B JUMP JUMPDEST PUSH1 0x40 MLOAD DUP1 SWAP2 SUB SWAP1 RETURN JUMPDEST PUSH2 0x477 PUSH1 0x4 DUP1 CALLDATASIZE SUB DUP2 ADD SWAP1 PUSH2 0x472 SWAP2 SWAP1 PUSH2 0x1AC8 JUMP JUMPDEST PUSH2 0xBDF JUMP JUMPDEST PUSH1 0x40 MLOAD PUSH2 0x484 SWAP2 SWAP1 PUSH2 0x192A JUMP JUMPDEST PUSH1 0x40 MLOAD DUP1 SWAP2 SUB SWAP1 RETURN JUMPDEST PUSH2 0x4A7 PUSH1 0x4 DUP1 CALLDATASIZE SUB DUP2 ADD SWAP1 PUSH2 0x4A2 SWAP2 SWAP1 PUSH2 0x204F JUMP JUMPDEST PUSH2 0xDF3 JUMP JUMPDEST PUSH1 0x40 MLOAD PUSH2 0x4B4 SWAP2 SWAP1 PUSH2 0x1A2B JUMP JUMPDEST PUSH1 0x40 MLOAD DUP1 SWAP2 SUB SWAP1 RETURN JUMPDEST PUSH2 0x4D7 PUSH1 0x4 DUP1 CALLDATASIZE SUB DUP2 ADD SWAP1 PUSH2 0x4D2 SWAP2 SWAP1 PUSH2 0x2098 JUMP JUMPDEST PUSH2 0xE52 JUMP JUMPDEST PUSH1 0x40 MLOAD PUSH2 0x4E4 SWAP2 SWAP1 PUSH2 0x1A2B JUMP JUMPDEST PUSH1 0x40 MLOAD DUP1 SWAP2 SUB SWAP1 RETURN JUMPDEST PUSH2 0x507 PUSH1 0x4 DUP1 CALLDATASIZE SUB DUP2 ADD SWAP1 PUSH2 0x502 SWAP2 SWAP1 PUSH2 0x1B28 JUMP JUMPDEST PUSH2 0xECB JUMP JUMPDEST PUSH1 0x40 MLOAD PUSH2 0x514 SWAP2 SWAP1 PUSH2 0x192A JUMP JUMPDEST PUSH1 0x40 MLOAD DUP1 SWAP2 SUB SWAP1 RETURN JUMPDEST PUSH2 0x525 PUSH2 0x1108 JUMP JUMPDEST PUSH1 0x40 MLOAD PUSH2 0x532 SWAP2 SWAP1 PUSH2 0x1A2B JUMP JUMPDEST PUSH1 0x40 MLOAD DUP1 SWAP2 SUB SWAP1 RETURN JUMPDEST PUSH2 0x555 PUSH1 0x4 DUP1 CALLDATASIZE SUB DUP2 ADD SWAP1 PUSH2 0x550 SWAP2 SWAP1 PUSH2 0x1AC8 JUMP JUMPDEST PUSH2 0x110D JUMP JUMPDEST PUSH1 0x40 MLOAD PUSH2 0x562 SWAP2 SWAP1 PUSH2 0x213A JUMP JUMPDEST PUSH1 0x40 MLOAD DUP1 SWAP2 SUB SWAP1 RETURN JUMPDEST PUSH2 0x585 PUSH1 0x4 DUP1 CALLDATASIZE SUB DUP2 ADD SWAP1 PUSH2 0x580 SWAP2 SWAP1 PUSH2 0x1AC8 JUMP JUMPDEST PUSH2 0x1123 JUMP JUMPDEST PUSH1 0x40 MLOAD PUSH2 0x592 SWAP2 SWAP1 PUSH2 0x213A JUMP JUMPDEST PUSH1 0x40 MLOAD DUP1 SWAP2 SUB SWAP1 RETURN JUMPDEST PUSH2 0x5B5 PUSH1 0x4 DUP1 CALLDATASIZE SUB DUP2 ADD SWAP1 PUSH2 0x5B0 SWAP2 SWAP1 PUSH2 0x1AC8 JUMP JUMPDEST PUSH2 0x1139 JUMP JUMPDEST PUSH1 0x40 MLOAD PUSH2 0x5C2 SWAP2 SWAP1 PUSH2 0x213A JUMP JUMPDEST PUSH1 0x40 MLOAD DUP1 SWAP2 SUB SWAP1 RETURN JUMPDEST PUSH2 0x5E5 PUSH1 0x4 DUP1 CALLDATASIZE SUB DUP2 ADD SWAP1 PUSH2 0x5E0 SWAP2 SWAP1 PUSH2 0x19C5 JUMP JUMPDEST PUSH2 0x114F JUMP JUMPDEST PUSH1 0x40 MLOAD PUSH2 0x5F2 SWAP2 SWAP1 PUSH2 0x1A2B JUMP JUMPDEST PUSH1 0x40 MLOAD DUP1 SWAP2 SUB SWAP1 RETURN JUMPDEST PUSH2 0x603 PUSH2 0x1173 JUMP JUMPDEST PUSH1 0x40 MLOAD PUSH2 0x610 SWAP2 SWAP1 PUSH2 0x192A JUMP JUMPDEST PUSH1 0x40 MLOAD DUP1 SWAP2 SUB SWAP1 RETURN JUMPDEST PUSH2 0x621 PUSH2 0x11AC JUMP JUMPDEST PUSH1 0x40 MLOAD PUSH2 0x62E SWAP2 SWAP1 PUSH2 0x192A JUMP JUMPDEST PUSH1 0x40 MLOAD DUP1 SWAP2 SUB SWAP1 RETURN JUMPDEST PUSH2 0x63F PUSH2 0x11C8 JUMP JUMPDEST PUSH1 0x40 MLOAD PUSH2 0x64C SWAP2 SWAP1 PUSH2 0x192A JUMP JUMPDEST PUSH1 0x40 MLOAD DUP1 SWAP2 SUB SWAP1 RETURN JUMPDEST PUSH1 0x40 MLOAD DUP1 PUSH1 0x40 ADD PUSH1 0x40 MSTORE DUP1 PUSH1 0x13 DUP2 MSTORE PUSH1 0x20 ADD PUSH32 0x25323533432532353246626F6479253235334500000000000000000000000000 DUP2 MSTORE POP DUP2 JUMP JUMPDEST PUSH1 0x0 DUP1 PUSH1 0x0 DUP1 DUP6 DUP6 SWAP1 POP SWAP1 POP PUSH2 0x6A2 PUSH2 0x1806 JUMP JUMPDEST PUSH1 0x0 DUP3 GT ISZERO PUSH2 0x6F7 JUMPI JUMPDEST DUP7 DUP7 DUP5 DUP2 DUP2 LT PUSH2 0x6BF JUMPI PUSH2 0x6BE PUSH2 0x215C JUMP JUMPDEST JUMPDEST SWAP1 POP PUSH1 0x20 MUL DUP2 ADD SWAP1 PUSH2 0x6D1 SWAP2 SWAP1 PUSH2 0x2190 JUMP JUMPDEST PUSH2 0x6DA SWAP1 PUSH2 0x21B8 JUMP JUMPDEST SWAP1 POP PUSH2 0x6E5 DUP2 PUSH2 0x880 JUMP JUMPDEST DUP5 ADD SWAP4 POP DUP2 DUP4 PUSH1 0x1 ADD SWAP4 POP DUP4 LT PUSH2 0x6AC JUMPI JUMPDEST PUSH1 0x11 PUSH1 0x2C DUP6 ADD ADD SWAP5 POP POP POP POP POP SWAP3 SWAP2 POP POP JUMP JUMPDEST PUSH1 0x60 PUSH1 0x0 PUSH2 0x719 DUP6 DUP6 DUP6 PUSH2 0x968 JUMP JUMPDEST SWAP1 POP PUSH1 0x0 PUSH2 0x727 DUP3 MLOAD PUSH2 0x1201 JUMP JUMPDEST PUSH1 0x16 ADD SWAP1 POP PUSH1 0x0 PUSH2 0x737 DUP3 PUSH2 0x1222 JUMP JUMPDEST SWAP1 POP PUSH2 0x781 PUSH1 0x40 MLOAD DUP1 PUSH1 0x40 ADD PUSH1 0x40 MSTORE DUP1 PUSH1 0x16 DUP2 MSTORE PUSH1 0x20 ADD PUSH32 0x646174613A746578742F68746D6C3B6261736536342C00000000000000000000 DUP2 MSTORE POP DUP3 PUSH2 0x124C SWAP1 SWAP2 SWAP1 PUSH4 0xFFFFFFFF AND JUMP JUMPDEST PUSH2 0x799 DUP4 PUSH1 0x0 DUP1 DUP5 PUSH2 0x1265 SWAP1 SWAP4 SWAP3 SWAP2 SWAP1 PUSH4 0xFFFFFFFF AND JUMP JUMPDEST DUP1 SWAP4 POP POP POP POP SWAP4 SWAP3 POP POP POP JUMP JUMPDEST PUSH1 0x60 PUSH1 0x0 PUSH2 0x7B5 DUP6 DUP6 DUP6 PUSH2 0xECB JUMP JUMPDEST SWAP1 POP PUSH1 0x0 PUSH2 0x7C3 DUP3 MLOAD PUSH2 0x1201 JUMP JUMPDEST PUSH1 0x16 ADD SWAP1 POP PUSH1 0x0 PUSH2 0x7D3 DUP3 PUSH2 0x1222 JUMP JUMPDEST SWAP1 POP PUSH2 0x81D PUSH1 0x40 MLOAD DUP1 PUSH1 0x40 ADD PUSH1 0x40 MSTORE DUP1 PUSH1 0x16 DUP2 MSTORE PUSH1 0x20 ADD PUSH32 0x646174613A746578742F68746D6C3B6261736536342C00000000000000000000 DUP2 MSTORE POP DUP3 PUSH2 0x124C SWAP1 SWAP2 SWAP1 PUSH4 0xFFFFFFFF AND JUMP JUMPDEST PUSH2 0x835 DUP4 PUSH1 0x0 DUP1 DUP5 PUSH2 0x1265 SWAP1 SWAP4 SWAP3 SWAP2 SWAP1 PUSH4 0xFFFFFFFF AND JUMP JUMPDEST DUP1 SWAP4 POP POP POP POP SWAP4 SWAP3 POP POP POP JUMP JUMPDEST PUSH1 0x11 DUP2 JUMP JUMPDEST PUSH1 0x40 MLOAD DUP1 PUSH1 0x40 ADD PUSH1 0x40 MSTORE DUP1 PUSH1 0x6 DUP2 MSTORE PUSH1 0x20 ADD PUSH32 0x3C68746D6C3E0000000000000000000000000000000000000000000000000000 DUP2 MSTORE POP DUP2 JUMP JUMPDEST PUSH1 0x0 PUSH2 0x89E DUP3 PUSH1 0x0 ADD MLOAD DUP4 PUSH1 0x20 ADD MLOAD DUP5 PUSH1 0x40 ADD MLOAD DUP6 PUSH1 0x60 ADD MLOAD PUSH2 0x1390 JUMP JUMPDEST MLOAD SWAP1 POP SWAP2 SWAP1 POP JUMP JUMPDEST PUSH1 0x0 DUP1 PUSH1 0x0 PUSH2 0x8B4 DUP5 PUSH2 0x1430 JUMP JUMPDEST SWAP2 POP SWAP2 POP PUSH1 0x0 PUSH2 0x8D6 DUP6 PUSH1 0x0 ADD MLOAD DUP7 PUSH1 0x20 ADD MLOAD DUP8 PUSH1 0x40 ADD MLOAD DUP9 PUSH1 0xC0 ADD MLOAD PUSH2 0x1390 JUMP JUMPDEST MLOAD SWAP1 POP DUP1 DUP3 MLOAD DUP5 MLOAD ADD ADD SWAP4 POP POP POP POP SWAP2 SWAP1 POP JUMP JUMPDEST PUSH1 0x0 DUP1 PUSH1 0x0 DUP1 DUP6 DUP6 SWAP1 POP SWAP1 POP PUSH2 0x8FE PUSH2 0x1844 JUMP JUMPDEST PUSH1 0x0 DUP3 GT ISZERO PUSH2 0x953 JUMPI JUMPDEST DUP7 DUP7 DUP5 DUP2 DUP2 LT PUSH2 0x91B JUMPI PUSH2 0x91A PUSH2 0x215C JUMP JUMPDEST JUMPDEST SWAP1 POP PUSH1 0x20 MUL DUP2 ADD SWAP1 PUSH2 0x92D SWAP2 SWAP1 PUSH2 0x21CB JUMP JUMPDEST PUSH2 0x936 SWAP1 PUSH2 0x21F3 JUMP JUMPDEST SWAP1 POP PUSH2 0x941 DUP2 PUSH2 0xDF3 JUMP JUMPDEST DUP5 ADD SWAP4 POP DUP2 DUP4 PUSH1 0x1 ADD SWAP4 POP DUP4 LT PUSH2 0x908 JUMPI JUMPDEST PUSH1 0x60 DUP5 ADD SWAP5 POP POP POP POP POP SWAP3 SWAP2 POP POP JUMP JUMPDEST PUSH1 0x16 DUP2 JUMP JUMPDEST PUSH1 0x60 PUSH1 0x0 DUP5 DUP5 SWAP1 POP SWAP1 POP PUSH1 0x0 DUP2 SUB PUSH2 0x9AC JUMPI PUSH1 0x40 MLOAD PUSH32 0x54AA7C2A00000000000000000000000000000000000000000000000000000000 DUP2 MSTORE PUSH1 0x4 ADD PUSH1 0x40 MLOAD DUP1 SWAP2 SUB SWAP1 REVERT JUMPDEST PUSH1 0x0 PUSH2 0x9B7 DUP5 PUSH2 0x1222 JUMP JUMPDEST SWAP1 POP PUSH2 0xA01 PUSH1 0x40 MLOAD DUP1 PUSH1 0x40 ADD PUSH1 0x40 MSTORE DUP1 PUSH1 0x6 DUP2 MSTORE PUSH1 0x20 ADD PUSH32 0x3C68746D6C3E0000000000000000000000000000000000000000000000000000 DUP2 MSTORE POP DUP3 PUSH2 0x124C SWAP1 SWAP2 SWAP1 PUSH4 0xFFFFFFFF AND JUMP JUMPDEST PUSH2 0xA49 PUSH1 0x40 MLOAD DUP1 PUSH1 0x40 ADD PUSH1 0x40 MSTORE DUP1 PUSH1 0x18 DUP2 MSTORE PUSH1 0x20 ADD PUSH32 0x3C626F6479207374796C653D276D617267696E3A303B273E0000000000000000 DUP2 MSTORE POP DUP3 PUSH2 0x124C SWAP1 SWAP2 SWAP1 PUSH4 0xFFFFFFFF AND JUMP JUMPDEST PUSH1 0x60 DUP1 PUSH2 0xA54 PUSH2 0x1844 JUMP JUMPDEST PUSH1 0x0 JUMPDEST DUP10 DUP10 DUP3 DUP2 DUP2 LT PUSH2 0xA6A JUMPI PUSH2 0xA69 PUSH2 0x215C JUMP JUMPDEST JUMPDEST SWAP1 POP PUSH1 0x20 MUL DUP2 ADD SWAP1 PUSH2 0xA7C SWAP2 SWAP1 PUSH2 0x21CB JUMP JUMPDEST PUSH2 0xA85 SWAP1 PUSH2 0x21F3 JUMP JUMPDEST SWAP2 POP PUSH2 0xA90 DUP3 PUSH2 0x1430 JUMP JUMPDEST DUP1 SWAP5 POP DUP2 SWAP6 POP POP POP PUSH2 0xAAB DUP5 DUP7 PUSH2 0x124C SWAP1 SWAP2 SWAP1 PUSH4 0xFFFFFFFF AND JUMP JUMPDEST PUSH2 0xAD9 PUSH2 0xACA DUP4 PUSH1 0x0 ADD MLOAD DUP5 PUSH1 0x20 ADD MLOAD DUP6 PUSH1 0x40 ADD MLOAD DUP7 PUSH1 0xC0 ADD MLOAD PUSH2 0x1390 JUMP JUMPDEST DUP7 PUSH2 0x124C SWAP1 SWAP2 SWAP1 PUSH4 0xFFFFFFFF AND JUMP JUMPDEST PUSH2 0xAEC DUP4 DUP7 PUSH2 0x124C SWAP1 SWAP2 SWAP1 PUSH4 0xFFFFFFFF AND JUMP JUMPDEST DUP6 DUP2 PUSH1 0x1 ADD SWAP2 POP DUP2 LT PUSH2 0xA57 JUMPI PUSH2 0xB41 PUSH1 0x40 MLOAD DUP1 PUSH1 0x40 ADD PUSH1 0x40 MSTORE DUP1 PUSH1 0xE DUP2 MSTORE PUSH1 0x20 ADD PUSH32 0x3C2F626F64793E3C2F68746D6C3E000000000000000000000000000000000000 DUP2 MSTORE POP DUP7 PUSH2 0x124C SWAP1 SWAP2 SWAP1 PUSH4 0xFFFFFFFF AND JUMP JUMPDEST DUP5 SWAP7 POP POP POP POP POP POP POP SWAP4 SWAP3 POP POP POP JUMP JUMPDEST PUSH1 0x60 PUSH2 0xB5E DUP5 DUP5 DUP5 PUSH2 0x7A6 JUMP JUMPDEST SWAP1 POP SWAP4 SWAP3 POP POP POP JUMP JUMPDEST PUSH1 0x2C DUP2 JUMP JUMPDEST PUSH1 0x60 PUSH2 0xB79 DUP5 DUP5 DUP5 PUSH2 0xECB JUMP JUMPDEST SWAP1 POP SWAP4 SWAP3 POP POP POP JUMP JUMPDEST PUSH1 0x40 MLOAD DUP1 PUSH1 0x40 ADD PUSH1 0x40 MSTORE DUP1 PUSH1 0x15 DUP2 MSTORE PUSH1 0x20 ADD PUSH32 0x646174612533417465787425324668746D6C2532430000000000000000000000 DUP2 MSTORE POP DUP2 JUMP JUMPDEST PUSH1 0x0 DUP1 PUSH2 0xBC8 DUP5 DUP5 PUSH2 0xE52 JUMP JUMPDEST SWAP1 POP PUSH2 0xBD3 DUP2 PUSH2 0x1201 JUMP JUMPDEST PUSH1 0x16 ADD SWAP2 POP POP SWAP3 SWAP2 POP POP JUMP JUMPDEST PUSH1 0x60 PUSH1 0x0 DUP5 DUP5 SWAP1 POP SWAP1 POP PUSH1 0x0 DUP2 SUB PUSH2 0xC23 JUMPI PUSH1 0x40 MLOAD PUSH32 0x54AA7C2A00000000000000000000000000000000000000000000000000000000 DUP2 MSTORE PUSH1 0x4 ADD PUSH1 0x40 MLOAD DUP1 SWAP2 SUB SWAP1 REVERT JUMPDEST PUSH1 0x0 PUSH2 0xC2E DUP5 PUSH2 0x1222 JUMP JUMPDEST SWAP1 POP PUSH2 0xC78 PUSH1 0x40 MLOAD DUP1 PUSH1 0x40 ADD PUSH1 0x40 MSTORE DUP1 PUSH1 0x15 DUP2 MSTORE PUSH1 0x20 ADD PUSH32 0x646174612533417465787425324668746D6C2532430000000000000000000000 DUP2 MSTORE POP DUP3 PUSH2 0x124C SWAP1 SWAP2 SWAP1 PUSH4 0xFFFFFFFF AND JUMP JUMPDEST PUSH2 0xCA3 PUSH1 0x40 MLOAD DUP1 PUSH1 0x60 ADD PUSH1 0x40 MSTORE DUP1 PUSH1 0x38 DUP2 MSTORE PUSH1 0x20 ADD PUSH2 0x2444 PUSH1 0x38 SWAP2 CODECOPY DUP3 PUSH2 0x124C SWAP1 SWAP2 SWAP1 PUSH4 0xFFFFFFFF AND JUMP JUMPDEST PUSH1 0x60 DUP1 PUSH2 0xCAE PUSH2 0x1844 JUMP JUMPDEST PUSH1 0x0 JUMPDEST DUP10 DUP10 DUP3 DUP2 DUP2 LT PUSH2 0xCC4 JUMPI PUSH2 0xCC3 PUSH2 0x215C JUMP JUMPDEST JUMPDEST SWAP1 POP PUSH1 0x20 MUL DUP2 ADD SWAP1 PUSH2 0xCD6 SWAP2 SWAP1 PUSH2 0x21CB JUMP JUMPDEST PUSH2 0xCDF SWAP1 PUSH2 0x21F3 JUMP JUMPDEST SWAP2 POP PUSH2 0xCEA DUP3 PUSH2 0x1600 JUMP JUMPDEST DUP1 SWAP5 POP DUP2 SWAP6 POP POP POP PUSH2 0xD05 DUP5 DUP7 PUSH2 0x124C SWAP1 SWAP2 SWAP1 PUSH4 0xFFFFFFFF AND JUMP JUMPDEST PUSH1 0x0 DUP3 PUSH1 0x60 ADD MLOAD PUSH1 0xFF AND SUB PUSH2 0xD4C JUMPI PUSH2 0xD47 PUSH2 0xD33 DUP4 PUSH1 0x0 ADD MLOAD DUP5 PUSH1 0x20 ADD MLOAD DUP6 PUSH1 0x40 ADD MLOAD DUP7 PUSH1 0xC0 ADD MLOAD PUSH2 0x1390 JUMP JUMPDEST PUSH1 0x0 DUP1 DUP9 PUSH2 0x1265 SWAP1 SWAP4 SWAP3 SWAP2 SWAP1 PUSH4 0xFFFFFFFF AND JUMP JUMPDEST PUSH2 0xD7B JUMP JUMPDEST PUSH2 0xD7A PUSH2 0xD6B DUP4 PUSH1 0x0 ADD MLOAD DUP5 PUSH1 0x20 ADD MLOAD DUP6 PUSH1 0x40 ADD MLOAD DUP7 PUSH1 0xC0 ADD MLOAD PUSH2 0x1390 JUMP JUMPDEST DUP7 PUSH2 0x124C SWAP1 SWAP2 SWAP1 PUSH4 0xFFFFFFFF AND JUMP JUMPDEST JUMPDEST PUSH2 0xD8E DUP4 DUP7 PUSH2 0x124C SWAP1 SWAP2 SWAP1 PUSH4 0xFFFFFFFF AND JUMP JUMPDEST DUP6 DUP2 PUSH1 0x1 ADD SWAP2 POP DUP2 LT PUSH2 0xCB1 JUMPI PUSH2 0xDE3 PUSH1 0x40 MLOAD DUP1 PUSH1 0x40 ADD PUSH1 0x40 MSTORE DUP1 PUSH1 0x13 DUP2 MSTORE PUSH1 0x20 ADD PUSH32 0x25323533432532353246626F6479253235334500000000000000000000000000 DUP2 MSTORE POP DUP7 PUSH2 0x124C SWAP1 SWAP2 SWAP1 PUSH4 0xFFFFFFFF AND JUMP JUMPDEST DUP5 SWAP7 POP POP POP POP POP POP POP SWAP4 SWAP3 POP POP POP JUMP JUMPDEST PUSH1 0x0 DUP1 PUSH1 0x0 PUSH2 0xE01 DUP5 PUSH2 0x1600 JUMP JUMPDEST SWAP2 POP SWAP2 POP PUSH1 0x0 PUSH2 0xE23 DUP6 PUSH1 0x0 ADD MLOAD DUP7 PUSH1 0x20 ADD MLOAD DUP8 PUSH1 0x40 ADD MLOAD DUP9 PUSH1 0xC0 ADD MLOAD PUSH2 0x1390 JUMP JUMPDEST MLOAD SWAP1 POP PUSH1 0x0 DUP6 PUSH1 0x60 ADD MLOAD PUSH1 0xFF AND SUB PUSH2 0xE41 JUMPI PUSH2 0xE3E DUP2 PUSH2 0x1201 JUMP JUMPDEST SWAP1 POP JUMPDEST DUP1 DUP3 MLOAD DUP5 MLOAD ADD ADD SWAP4 POP POP POP POP SWAP2 SWAP1 POP JUMP JUMPDEST PUSH1 0x0 DUP1 PUSH1 0x0 DUP1 DUP6 DUP6 SWAP1 POP SWAP1 POP PUSH2 0xE66 PUSH2 0x1844 JUMP JUMPDEST PUSH1 0x0 DUP3 GT ISZERO PUSH2 0xEBB JUMPI JUMPDEST DUP7 DUP7 DUP5 DUP2 DUP2 LT PUSH2 0xE83 JUMPI PUSH2 0xE82 PUSH2 0x215C JUMP JUMPDEST JUMPDEST SWAP1 POP PUSH1 0x20 MUL DUP2 ADD SWAP1 PUSH2 0xE95 SWAP2 SWAP1 PUSH2 0x21CB JUMP JUMPDEST PUSH2 0xE9E SWAP1 PUSH2 0x21F3 JUMP JUMPDEST SWAP1 POP PUSH2 0xEA9 DUP2 PUSH2 0x8A6 JUMP JUMPDEST DUP5 ADD SWAP4 POP DUP2 DUP4 PUSH1 0x1 ADD SWAP4 POP DUP4 LT PUSH2 0xE70 JUMPI JUMPDEST PUSH1 0x2C DUP5 ADD SWAP5 POP POP POP POP POP SWAP3 SWAP2 POP POP JUMP JUMPDEST PUSH1 0x60 PUSH1 0x0 DUP5 DUP5 SWAP1 POP SWAP1 POP PUSH1 0x0 DUP2 SUB PUSH2 0xF0F JUMPI PUSH1 0x40 MLOAD PUSH32 0x54AA7C2A00000000000000000000000000000000000000000000000000000000 DUP2 MSTORE PUSH1 0x4 ADD PUSH1 0x40 MLOAD DUP1 SWAP2 SUB SWAP1 REVERT JUMPDEST PUSH1 0x0 PUSH2 0xF1A DUP5 PUSH2 0x1222 JUMP JUMPDEST SWAP1 POP PUSH2 0xF64 PUSH1 0x40 MLOAD DUP1 PUSH1 0x40 ADD PUSH1 0x40 MSTORE DUP1 PUSH1 0x6 DUP2 MSTORE PUSH1 0x20 ADD PUSH32 0x3C68746D6C3E0000000000000000000000000000000000000000000000000000 DUP2 MSTORE POP DUP3 PUSH2 0x124C SWAP1 SWAP2 SWAP1 PUSH4 0xFFFFFFFF AND JUMP JUMPDEST PUSH2 0xFAC PUSH1 0x40 MLOAD DUP1 PUSH1 0x40 ADD PUSH1 0x40 MSTORE DUP1 PUSH1 0x18 DUP2 MSTORE PUSH1 0x20 ADD PUSH32 0x3C626F6479207374796C653D276D617267696E3A303B273E0000000000000000 DUP2 MSTORE POP DUP3 PUSH2 0x124C SWAP1 SWAP2 SWAP1 PUSH4 0xFFFFFFFF AND JUMP JUMPDEST PUSH2 0xFF4 PUSH1 0x40 MLOAD DUP1 PUSH1 0x40 ADD PUSH1 0x40 MSTORE DUP1 PUSH1 0x8 DUP2 MSTORE PUSH1 0x20 ADD PUSH32 0x3C7363726970743E000000000000000000000000000000000000000000000000 DUP2 MSTORE POP DUP3 PUSH2 0x124C SWAP1 SWAP2 SWAP1 PUSH4 0xFFFFFFFF AND JUMP JUMPDEST PUSH2 0xFFC PUSH2 0x1806 JUMP JUMPDEST PUSH1 0x0 JUMPDEST DUP8 DUP8 DUP3 DUP2 DUP2 LT PUSH2 0x1012 JUMPI PUSH2 0x1011 PUSH2 0x215C JUMP JUMPDEST JUMPDEST SWAP1 POP PUSH1 0x20 MUL DUP2 ADD SWAP1 PUSH2 0x1024 SWAP2 SWAP1 PUSH2 0x2190 JUMP JUMPDEST PUSH2 0x102D SWAP1 PUSH2 0x21B8 JUMP JUMPDEST SWAP2 POP PUSH2 0x105D PUSH2 0x104E DUP4 PUSH1 0x0 ADD MLOAD DUP5 PUSH1 0x20 ADD MLOAD DUP6 PUSH1 0x40 ADD MLOAD DUP7 PUSH1 0x60 ADD MLOAD PUSH2 0x1390 JUMP JUMPDEST DUP5 PUSH2 0x124C SWAP1 SWAP2 SWAP1 PUSH4 0xFFFFFFFF AND JUMP JUMPDEST DUP4 DUP2 PUSH1 0x1 ADD SWAP2 POP DUP2 LT PUSH2 0xFFF JUMPI PUSH2 0x10B2 PUSH1 0x40 MLOAD DUP1 PUSH1 0x40 ADD PUSH1 0x40 MSTORE DUP1 PUSH1 0x9 DUP2 MSTORE PUSH1 0x20 ADD PUSH32 0x3C2F7363726970743E0000000000000000000000000000000000000000000000 DUP2 MSTORE POP DUP5 PUSH2 0x124C SWAP1 SWAP2 SWAP1 PUSH4 0xFFFFFFFF AND JUMP JUMPDEST PUSH2 0x10FA PUSH1 0x40 MLOAD DUP1 PUSH1 0x40 ADD PUSH1 0x40 MSTORE DUP1 PUSH1 0xE DUP2 MSTORE PUSH1 0x20 ADD PUSH32 0x3C2F626F64793E3C2F68746D6C3E000000000000000000000000000000000000 DUP2 MSTORE POP DUP5 PUSH2 0x124C SWAP1 SWAP2 SWAP1 PUSH4 0xFFFFFFFF AND JUMP JUMPDEST DUP3 SWAP5 POP POP POP POP POP SWAP4 SWAP3 POP POP POP JUMP JUMPDEST PUSH1 0x60 DUP2 JUMP JUMPDEST PUSH1 0x60 PUSH2 0x111A DUP5 DUP5 DUP5 PUSH2 0x70A JUMP JUMPDEST SWAP1 POP SWAP4 SWAP3 POP POP POP JUMP JUMPDEST PUSH1 0x60 PUSH2 0x1130 DUP5 DUP5 DUP5 PUSH2 0xBDF JUMP JUMPDEST SWAP1 POP SWAP4 SWAP3 POP POP POP JUMP JUMPDEST PUSH1 0x60 PUSH2 0x1146 DUP5 DUP5 DUP5 PUSH2 0x968 JUMP JUMPDEST SWAP1 POP SWAP4 SWAP3 POP POP POP JUMP JUMPDEST PUSH1 0x0 DUP1 PUSH2 0x115C DUP5 DUP5 PUSH2 0x68E JUMP JUMPDEST SWAP1 POP PUSH2 0x1167 DUP2 PUSH2 0x1201 JUMP JUMPDEST PUSH1 0x16 ADD SWAP2 POP POP SWAP3 SWAP2 POP POP JUMP JUMPDEST PUSH1 0x40 MLOAD DUP1 PUSH1 0x40 ADD PUSH1 0x40 MSTORE DUP1 PUSH1 0x18 DUP2 MSTORE PUSH1 0x20 ADD PUSH32 0x3C626F6479207374796C653D276D617267696E3A303B273E0000000000000000 DUP2 MSTORE POP DUP2 JUMP JUMPDEST PUSH1 0x40 MLOAD DUP1 PUSH1 0x60 ADD PUSH1 0x40 MSTORE DUP1 PUSH1 0x38 DUP2 MSTORE PUSH1 0x20 ADD PUSH2 0x2444 PUSH1 0x38 SWAP2 CODECOPY DUP2 JUMP JUMPDEST PUSH1 0x40 MLOAD DUP1 PUSH1 0x40 ADD PUSH1 0x40 MSTORE DUP1 PUSH1 0xE DUP2 MSTORE PUSH1 0x20 ADD PUSH32 0x3C2F626F64793E3C2F68746D6C3E000000000000000000000000000000000000 DUP2 MSTORE POP DUP2 JUMP JUMPDEST PUSH1 0x0 PUSH1 0x3 PUSH1 0x2 DUP4 ADD DUP2 PUSH2 0x1217 JUMPI PUSH2 0x1216 PUSH2 0x2206 JUMP JUMPDEST JUMPDEST DIV PUSH1 0x4 MUL SWAP1 POP SWAP2 SWAP1 POP JUMP JUMPDEST PUSH1 0x60 PUSH1 0x40 MLOAD PUSH1 0x60 DUP4 ADD DUP1 DUP3 ADD DUP1 PUSH1 0x40 MSTORE POP POP PUSH1 0x40 DUP4 ADD DUP1 DUP3 MSTORE POP PUSH1 0x20 DUP2 ADD SWAP2 POP PUSH1 0x0 DUP3 MSTORE POP SWAP2 SWAP1 POP JUMP JUMPDEST PUSH2 0x1257 DUP3 DUP3 MLOAD PUSH2 0x174C JUMP JUMPDEST PUSH2 0x1261 DUP3 DUP3 PUSH2 0x17B3 JUMP JUMPDEST POP POP JUMP JUMPDEST PUSH1 0x0 DUP4 MLOAD SWAP1 POP PUSH1 0x0 DUP5 MLOAD SUB PUSH2 0x127A JUMPI POP PUSH2 0x138A JUMP JUMPDEST PUSH1 0x0 DUP1 PUSH1 0x3 PUSH1 0x2 DUP5 ADD DIV PUSH1 0x2 SHL SWAP2 POP PUSH1 0x3 DUP4 MOD SWAP1 POP DUP4 ISZERO PUSH2 0x12A2 JUMPI PUSH1 0x1 DUP2 EQ DUP2 ISZERO ISZERO ADD DUP3 SUB SWAP2 POP JUMPDEST PUSH2 0x12AC DUP8 DUP4 PUSH2 0x174C JUMP JUMPDEST PUSH1 0x40 MLOAD PUSH32 0x4142434445464748494A4B4C4D4E4F505152535455565758595A616263646566 PUSH1 0x1F MSTORE PUSH2 0x230 DUP7 ISZERO MUL PUSH32 0x6768696A6B6C6D6E6F707172737475767778797A303132333435363738392D5F SUB PUSH1 0x3F MSTORE DUP8 MLOAD PUSH1 0x20 DUP10 ADD ADD DUP5 DUP9 ADD JUMPDEST PUSH1 0x1 ISZERO PUSH2 0x135F JUMPI PUSH1 0x3 DUP10 ADD SWAP9 POP DUP9 MLOAD PUSH1 0x3F DUP2 PUSH1 0x12 SHR AND MLOAD DUP4 MSTORE8 PUSH1 0x3F DUP2 PUSH1 0xC SHR AND MLOAD PUSH1 0x1 DUP5 ADD MSTORE8 PUSH1 0x3F DUP2 PUSH1 0x6 SHR AND MLOAD PUSH1 0x2 DUP5 ADD MSTORE8 PUSH1 0x3F DUP2 AND MLOAD PUSH1 0x3 DUP5 ADD MSTORE8 PUSH1 0x4 DUP4 ADD SWAP3 POP DUP2 DUP11 LT PUSH2 0x1359 JUMPI POP PUSH2 0x135F JUMP JUMPDEST POP PUSH2 0x1309 JUMP JUMPDEST DUP7 PUSH2 0x1379 JUMPI PUSH1 0x3D DUP5 ISZERO ISZERO DUP4 SUB MSTORE8 PUSH1 0x3D PUSH1 0x1 DUP6 EQ PUSH1 0x1 SHL DUP4 SUB MSTORE8 JUMPDEST DUP5 DUP11 MLOAD ADD DUP11 MSTORE DUP3 PUSH1 0x40 MSTORE POP POP POP POP POP POP JUMPDEST POP POP POP POP JUMP JUMPDEST PUSH1 0x60 PUSH1 0x0 DUP3 MLOAD GT ISZERO PUSH2 0x13A4 JUMPI DUP2 SWAP1 POP PUSH2 0x1428 JUMP JUMPDEST DUP4 PUSH20 0xFFFFFFFFFFFFFFFFFFFFFFFFFFFFFFFFFFFFFFFF AND PUSH4 0xF9635594 DUP7 DUP6 PUSH1 0x40 MLOAD DUP4 PUSH4 0xFFFFFFFF AND PUSH1 0xE0 SHL DUP2 MSTORE PUSH1 0x4 ADD PUSH2 0x13DF SWAP3 SWAP2 SWAP1 PUSH2 0x2235 JUMP JUMPDEST PUSH1 0x0 PUSH1 0x40 MLOAD DUP1 DUP4 SUB DUP2 DUP7 GAS STATICCALL ISZERO DUP1 ISZERO PUSH2 0x13FC JUMPI RETURNDATASIZE PUSH1 0x0 DUP1 RETURNDATACOPY RETURNDATASIZE PUSH1 0x0 REVERT JUMPDEST POP POP POP POP PUSH1 0x40 MLOAD RETURNDATASIZE PUSH1 0x0 DUP3 RETURNDATACOPY RETURNDATASIZE PUSH1 0x1F NOT PUSH1 0x1F DUP3 ADD AND DUP3 ADD DUP1 PUSH1 0x40 MSTORE POP DUP2 ADD SWAP1 PUSH2 0x1425 SWAP2 SWAP1 PUSH2 0x22DC JUMP JUMPDEST SWAP1 POP JUMPDEST SWAP5 SWAP4 POP POP POP POP JUMP JUMPDEST PUSH1 0x60 DUP1 PUSH1 0x0 DUP4 PUSH1 0x60 ADD MLOAD PUSH1 0xFF AND SUB PUSH2 0x14B7 JUMPI PUSH1 0x40 MLOAD DUP1 PUSH1 0x40 ADD PUSH1 0x40 MSTORE DUP1 PUSH1 0x8 DUP2 MSTORE PUSH1 0x20 ADD PUSH32 0x3C7363726970743E000000000000000000000000000000000000000000000000 DUP2 MSTORE POP PUSH1 0x40 MLOAD DUP1 PUSH1 0x40 ADD PUSH1 0x40 MSTORE DUP1 PUSH1 0x9 DUP2 MSTORE PUSH1 0x20 ADD PUSH32 0x3C2F7363726970743E0000000000000000000000000000000000000000000000 DUP2 MSTORE POP SWAP2 POP SWAP2 POP PUSH2 0x15FB JUMP JUMPDEST PUSH1 0x1 DUP4 PUSH1 0x60 ADD MLOAD PUSH1 0xFF AND SUB PUSH2 0x151E JUMPI PUSH1 0x40 MLOAD DUP1 PUSH1 0x60 ADD PUSH1 0x40 MSTORE DUP1 PUSH1 0x29 DUP2 MSTORE PUSH1 0x20 ADD PUSH2 0x241B PUSH1 0x29 SWAP2 CODECOPY PUSH1 0x40 MLOAD DUP1 PUSH1 0x40 ADD PUSH1 0x40 MSTORE DUP1 PUSH1 0xB DUP2 MSTORE PUSH1 0x20 ADD PUSH32 0x223E3C2F7363726970743E000000000000000000000000000000000000000000 DUP2 MSTORE POP SWAP2 POP SWAP2 POP PUSH2 0x15FB JUMP JUMPDEST PUSH1 0x2 DUP4 PUSH1 0x60 ADD MLOAD PUSH1 0xFF AND SUB PUSH2 0x1585 JUMPI PUSH1 0x40 MLOAD DUP1 PUSH1 0x80 ADD PUSH1 0x40 MSTORE DUP1 PUSH1 0x45 DUP2 MSTORE PUSH1 0x20 ADD PUSH2 0x24C5 PUSH1 0x45 SWAP2 CODECOPY PUSH1 0x40 MLOAD DUP1 PUSH1 0x40 ADD PUSH1 0x40 MSTORE DUP1 PUSH1 0xB DUP2 MSTORE PUSH1 0x20 ADD PUSH32 0x223E3C2F7363726970743E000000000000000000000000000000000000000000 DUP2 MSTORE POP SWAP2 POP SWAP2 POP PUSH2 0x15FB JUMP JUMPDEST PUSH1 0x3 DUP4 PUSH1 0x60 ADD MLOAD PUSH1 0xFF AND SUB PUSH2 0x15EC JUMPI PUSH1 0x40 MLOAD DUP1 PUSH1 0x80 ADD PUSH1 0x40 MSTORE DUP1 PUSH1 0x44 DUP2 MSTORE PUSH1 0x20 ADD PUSH2 0x2603 PUSH1 0x44 SWAP2 CODECOPY PUSH1 0x40 MLOAD DUP1 PUSH1 0x40 ADD PUSH1 0x40 MSTORE DUP1 PUSH1 0xB DUP2 MSTORE PUSH1 0x20 ADD PUSH32 0x223E3C2F7363726970743E000000000000000000000000000000000000000000 DUP2 MSTORE POP SWAP2 POP SWAP2 POP PUSH2 0x15FB JUMP JUMPDEST DUP3 PUSH1 0x80 ADD MLOAD DUP4 PUSH1 0xA0 ADD MLOAD SWAP2 POP SWAP2 POP JUMPDEST SWAP2 POP SWAP2 JUMP JUMPDEST PUSH1 0x60 DUP1 PUSH1 0x1 DUP4 PUSH1 0x60 ADD MLOAD PUSH1 0xFF AND GT PUSH2 0x166A JUMPI PUSH1 0x40 MLOAD DUP1 PUSH1 0x80 ADD PUSH1 0x40 MSTORE DUP1 PUSH1 0x49 DUP2 MSTORE PUSH1 0x20 ADD PUSH2 0x247C PUSH1 0x49 SWAP2 CODECOPY PUSH1 0x40 MLOAD DUP1 PUSH1 0x40 ADD PUSH1 0x40 MSTORE DUP1 PUSH1 0x1F DUP2 MSTORE PUSH1 0x20 ADD PUSH32 0x2532353232253235334525323533432532353246736372697074253235334500 DUP2 MSTORE POP SWAP2 POP SWAP2 POP PUSH2 0x1747 JUMP JUMPDEST PUSH1 0x2 DUP4 PUSH1 0x60 ADD MLOAD PUSH1 0xFF AND SUB PUSH2 0x16D1 JUMPI PUSH1 0x40 MLOAD DUP1 PUSH1 0xA0 ADD PUSH1 0x40 MSTORE DUP1 PUSH1 0x7D DUP2 MSTORE PUSH1 0x20 ADD PUSH2 0x250A PUSH1 0x7D SWAP2 CODECOPY PUSH1 0x40 MLOAD DUP1 PUSH1 0x40 ADD PUSH1 0x40 MSTORE DUP1 PUSH1 0x1F DUP2 MSTORE PUSH1 0x20 ADD PUSH32 0x2532353232253235334525323533432532353246736372697074253235334500 DUP2 MSTORE POP SWAP2 POP SWAP2 POP PUSH2 0x1747 JUMP JUMPDEST PUSH1 0x3 DUP4 PUSH1 0x60 ADD MLOAD PUSH1 0xFF AND SUB PUSH2 0x1738 JUMPI PUSH1 0x40 MLOAD DUP1 PUSH1 0xA0 ADD PUSH1 0x40 MSTORE DUP1 PUSH1 0x7C DUP2 MSTORE PUSH1 0x20 ADD PUSH2 0x2587 PUSH1 0x7C SWAP2 CODECOPY PUSH1 0x40 MLOAD DUP1 PUSH1 0x40 ADD PUSH1 0x40 MSTORE DUP1 PUSH1 0x1F DUP2 MSTORE PUSH1 0x20 ADD PUSH32 0x2532353232253235334525323533432532353246736372697074253235334500 DUP2 MSTORE POP SWAP2 POP SWAP2 POP PUSH2 0x1747 JUMP JUMPDEST DUP3 PUSH1 0x80 ADD MLOAD DUP4 PUSH1 0xA0 ADD MLOAD SWAP2 POP SWAP2 POP JUMPDEST SWAP2 POP SWAP2 JUMP JUMPDEST PUSH1 0x0 PUSH2 0x1757 DUP4 PUSH2 0x17F0 JUMP JUMPDEST SWAP1 POP PUSH1 0x0 DUP3 DUP5 MLOAD PUSH2 0x1768 SWAP2 SWAP1 PUSH2 0x2354 JUMP JUMPDEST SWAP1 POP DUP1 DUP3 LT ISZERO PUSH2 0x17AD JUMPI PUSH1 0x40 MLOAD PUSH32 0x8C379A000000000000000000000000000000000000000000000000000000000 DUP2 MSTORE PUSH1 0x4 ADD PUSH2 0x17A4 SWAP1 PUSH2 0x23FA JUMP JUMPDEST PUSH1 0x40 MLOAD DUP1 SWAP2 SUB SWAP1 REVERT JUMPDEST POP POP POP POP JUMP JUMPDEST DUP1 MLOAD PUSH1 0x20 DUP3 ADD SWAP2 POP DUP1 DUP3 ADD PUSH1 0x20 DUP5 MLOAD ADD DUP5 ADD JUMPDEST DUP2 DUP5 LT ISZERO PUSH2 0x17E3 JUMPI DUP4 MLOAD DUP2 MSTORE PUSH1 0x20 DUP5 ADD SWAP4 POP PUSH1 0x20 DUP2 ADD SWAP1 POP PUSH2 0x17C6 JUMP JUMPDEST POP POP DUP1 DUP4 MLOAD ADD DUP4 MSTORE POP POP POP JUMP JUMPDEST PUSH1 0x0 DUP1 PUSH1 0x40 PUSH1 0x20 DUP5 SUB MLOAD SUB SWAP1 POP DUP1 SWAP2 POP POP SWAP2 SWAP1 POP JUMP JUMPDEST PUSH1 0x40 MLOAD DUP1 PUSH1 0x80 ADD PUSH1 0x40 MSTORE DUP1 PUSH1 0x60 DUP2 MSTORE PUSH1 0x20 ADD PUSH1 0x0 PUSH20 0xFFFFFFFFFFFFFFFFFFFFFFFFFFFFFFFFFFFFFFFF AND DUP2 MSTORE PUSH1 0x20 ADD PUSH1 0x60 DUP2 MSTORE PUSH1 0x20 ADD PUSH1 0x60 DUP2 MSTORE POP SWAP1 JUMP JUMPDEST PUSH1 0x40 MLOAD DUP1 PUSH1 0xE0 ADD PUSH1 0x40 MSTORE DUP1 PUSH1 0x60 DUP2 MSTORE PUSH1 0x20 ADD PUSH1 0x0 PUSH20 0xFFFFFFFFFFFFFFFFFFFFFFFFFFFFFFFFFFFFFFFF AND DUP2 MSTORE PUSH1 0x20 ADD PUSH1 0x60 DUP2 MSTORE PUSH1 0x20 ADD PUSH1 0x0 PUSH1 0xFF AND DUP2 MSTORE PUSH1 0x20 ADD PUSH1 0x60 DUP2 MSTORE PUSH1 0x20 ADD PUSH1 0x60 DUP2 MSTORE PUSH1 0x20 ADD PUSH1 0x60 DUP2 MSTORE POP SWAP1 JUMP JUMPDEST PUSH1 0x0 DUP2 MLOAD SWAP1 POP SWAP2 SWAP1 POP JUMP JUMPDEST PUSH1 0x0 DUP3 DUP3 MSTORE PUSH1 0x20 DUP3 ADD SWAP1 POP SWAP3 SWAP2 POP POP JUMP JUMPDEST PUSH1 0x0 JUMPDEST DUP4 DUP2 LT ISZERO PUSH2 0x18D4 JUMPI DUP1 DUP3 ADD MLOAD DUP2 DUP5 ADD MSTORE PUSH1 0x20 DUP2 ADD SWAP1 POP PUSH2 0x18B9 JUMP JUMPDEST PUSH1 0x0 DUP5 DUP5 ADD MSTORE POP POP POP POP JUMP JUMPDEST PUSH1 0x0 PUSH1 0x1F NOT PUSH1 0x1F DUP4 ADD AND SWAP1 POP SWAP2 SWAP1 POP JUMP JUMPDEST PUSH1 0x0 PUSH2 0x18FC DUP3 PUSH2 0x189A JUMP JUMPDEST PUSH2 0x1906 DUP2 DUP6 PUSH2 0x18A5 JUMP JUMPDEST SWAP4 POP PUSH2 0x1916 DUP2 DUP6 PUSH1 0x20 DUP7 ADD PUSH2 0x18B6 JUMP JUMPDEST PUSH2 0x191F DUP2 PUSH2 0x18E0 JUMP JUMPDEST DUP5 ADD SWAP2 POP POP SWAP3 SWAP2 POP POP JUMP JUMPDEST PUSH1 0x0 PUSH1 0x20 DUP3 ADD SWAP1 POP DUP2 DUP2 SUB PUSH1 0x0 DUP4 ADD MSTORE PUSH2 0x1944 DUP2 DUP5 PUSH2 0x18F1 JUMP JUMPDEST SWAP1 POP SWAP3 SWAP2 POP POP JUMP JUMPDEST PUSH1 0x0 PUSH1 0x40 MLOAD SWAP1 POP SWAP1 JUMP JUMPDEST PUSH1 0x0 DUP1 REVERT JUMPDEST PUSH1 0x0 DUP1 REVERT JUMPDEST PUSH1 0x0 DUP1 REVERT JUMPDEST PUSH1 0x0 DUP1 REVERT JUMPDEST PUSH1 0x0 DUP1 REVERT JUMPDEST PUSH1 0x0 DUP1 DUP4 PUSH1 0x1F DUP5 ADD SLT PUSH2 0x1985 JUMPI PUSH2 0x1984 PUSH2 0x1960 JUMP JUMPDEST JUMPDEST DUP3 CALLDATALOAD SWAP1 POP PUSH8 0xFFFFFFFFFFFFFFFF DUP2 GT ISZERO PUSH2 0x19A2 JUMPI PUSH2 0x19A1 PUSH2 0x1965 JUMP JUMPDEST JUMPDEST PUSH1 0x20 DUP4 ADD SWAP2 POP DUP4 PUSH1 0x20 DUP3 MUL DUP4 ADD GT ISZERO PUSH2 0x19BE JUMPI PUSH2 0x19BD PUSH2 0x196A JUMP JUMPDEST JUMPDEST SWAP3 POP SWAP3 SWAP1 POP JUMP JUMPDEST PUSH1 0x0 DUP1 PUSH1 0x20 DUP4 DUP6 SUB SLT ISZERO PUSH2 0x19DC JUMPI PUSH2 0x19DB PUSH2 0x1956 JUMP JUMPDEST JUMPDEST PUSH1 0x0 DUP4 ADD CALLDATALOAD PUSH8 0xFFFFFFFFFFFFFFFF DUP2 GT ISZERO PUSH2 0x19FA JUMPI PUSH2 0x19F9 PUSH2 0x195B JUMP JUMPDEST JUMPDEST PUSH2 0x1A06 DUP6 DUP3 DUP7 ADD PUSH2 0x196F JUMP JUMPDEST SWAP3 POP SWAP3 POP POP SWAP3 POP SWAP3 SWAP1 POP JUMP JUMPDEST PUSH1 0x0 DUP2 SWAP1 POP SWAP2 SWAP1 POP JUMP JUMPDEST PUSH2 0x1A25 DUP2 PUSH2 0x1A12 JUMP JUMPDEST DUP3 MSTORE POP POP JUMP JUMPDEST PUSH1 0x0 PUSH1 0x20 DUP3 ADD SWAP1 POP PUSH2 0x1A40 PUSH1 0x0 DUP4 ADD DUP5 PUSH2 0x1A1C JUMP JUMPDEST SWAP3 SWAP2 POP POP JUMP JUMPDEST PUSH1 0x0 DUP1 DUP4 PUSH1 0x1F DUP5 ADD SLT PUSH2 0x1A5C JUMPI PUSH2 0x1A5B PUSH2 0x1960 JUMP JUMPDEST JUMPDEST DUP3 CALLDATALOAD SWAP1 POP PUSH8 0xFFFFFFFFFFFFFFFF DUP2 GT ISZERO PUSH2 0x1A79 JUMPI PUSH2 0x1A78 PUSH2 0x1965 JUMP JUMPDEST JUMPDEST PUSH1 0x20 DUP4 ADD SWAP2 POP DUP4 PUSH1 0x20 DUP3 MUL DUP4 ADD GT ISZERO PUSH2 0x1A95 JUMPI PUSH2 0x1A94 PUSH2 0x196A JUMP JUMPDEST JUMPDEST SWAP3 POP SWAP3 SWAP1 POP JUMP JUMPDEST PUSH2 0x1AA5 DUP2 PUSH2 0x1A12 JUMP JUMPDEST DUP2 EQ PUSH2 0x1AB0 JUMPI PUSH1 0x0 DUP1 REVERT JUMPDEST POP JUMP JUMPDEST PUSH1 0x0 DUP2 CALLDATALOAD SWAP1 POP PUSH2 0x1AC2 DUP2 PUSH2 0x1A9C JUMP JUMPDEST SWAP3 SWAP2 POP POP JUMP JUMPDEST PUSH1 0x0 DUP1 PUSH1 0x0 PUSH1 0x40 DUP5 DUP7 SUB SLT ISZERO PUSH2 0x1AE1 JUMPI PUSH2 0x1AE0 PUSH2 0x1956 JUMP JUMPDEST JUMPDEST PUSH1 0x0 DUP5 ADD CALLDATALOAD PUSH8 0xFFFFFFFFFFFFFFFF DUP2 GT ISZERO PUSH2 0x1AFF JUMPI PUSH2 0x1AFE PUSH2 0x195B JUMP JUMPDEST JUMPDEST PUSH2 0x1B0B DUP7 DUP3 DUP8 ADD PUSH2 0x1A46 JUMP JUMPDEST SWAP4 POP SWAP4 POP POP PUSH1 0x20 PUSH2 0x1B1E DUP7 DUP3 DUP8 ADD PUSH2 0x1AB3 JUMP JUMPDEST SWAP2 POP POP SWAP3 POP SWAP3 POP SWAP3 JUMP JUMPDEST PUSH1 0x0 DUP1 PUSH1 0x0 PUSH1 0x40 DUP5 DUP7 SUB SLT ISZERO PUSH2 0x1B41 JUMPI PUSH2 0x1B40 PUSH2 0x1956 JUMP JUMPDEST JUMPDEST PUSH1 0x0 DUP5 ADD CALLDATALOAD PUSH8 0xFFFFFFFFFFFFFFFF DUP2 GT ISZERO PUSH2 0x1B5F JUMPI PUSH2 0x1B5E PUSH2 0x195B JUMP JUMPDEST JUMPDEST PUSH2 0x1B6B DUP7 DUP3 DUP8 ADD PUSH2 0x196F JUMP JUMPDEST SWAP4 POP SWAP4 POP POP PUSH1 0x20 PUSH2 0x1B7E DUP7 DUP3 DUP8 ADD PUSH2 0x1AB3 JUMP JUMPDEST SWAP2 POP POP SWAP3 POP SWAP3 POP SWAP3 JUMP JUMPDEST PUSH1 0x0 DUP1 REVERT JUMPDEST PUSH32 0x4E487B7100000000000000000000000000000000000000000000000000000000 PUSH1 0x0 MSTORE PUSH1 0x41 PUSH1 0x4 MSTORE PUSH1 0x24 PUSH1 0x0 REVERT JUMPDEST PUSH2 0x1BC5 DUP3 PUSH2 0x18E0 JUMP JUMPDEST DUP2 ADD DUP2 DUP2 LT PUSH8 0xFFFFFFFFFFFFFFFF DUP3 GT OR ISZERO PUSH2 0x1BE4 JUMPI PUSH2 0x1BE3 PUSH2 0x1B8D JUMP JUMPDEST JUMPDEST DUP1 PUSH1 0x40 MSTORE POP POP POP JUMP JUMPDEST PUSH1 0x0 PUSH2 0x1BF7 PUSH2 0x194C JUMP JUMPDEST SWAP1 POP PUSH2 0x1C03 DUP3 DUP3 PUSH2 0x1BBC JUMP JUMPDEST SWAP2 SWAP1 POP JUMP JUMPDEST PUSH1 0x0 DUP1 REVERT JUMPDEST PUSH1 0x0 DUP1 REVERT JUMPDEST PUSH1 0x0 PUSH8 0xFFFFFFFFFFFFFFFF DUP3 GT ISZERO PUSH2 0x1C2D JUMPI PUSH2 0x1C2C PUSH2 0x1B8D JUMP JUMPDEST JUMPDEST PUSH2 0x1C36 DUP3 PUSH2 0x18E0 JUMP JUMPDEST SWAP1 POP PUSH1 0x20 DUP2 ADD SWAP1 POP SWAP2 SWAP1 POP JUMP JUMPDEST DUP3 DUP2 DUP4 CALLDATACOPY PUSH1 0x0 DUP4 DUP4 ADD MSTORE POP POP POP JUMP JUMPDEST PUSH1 0x0 PUSH2 0x1C65 PUSH2 0x1C60 DUP5 PUSH2 0x1C12 JUMP JUMPDEST PUSH2 0x1BED JUMP JUMPDEST SWAP1 POP DUP3 DUP2 MSTORE PUSH1 0x20 DUP2 ADD DUP5 DUP5 DUP5 ADD GT ISZERO PUSH2 0x1C81 JUMPI PUSH2 0x1C80 PUSH2 0x1C0D JUMP JUMPDEST JUMPDEST PUSH2 0x1C8C DUP5 DUP3 DUP6 PUSH2 0x1C43 JUMP JUMPDEST POP SWAP4 SWAP3 POP POP POP JUMP JUMPDEST PUSH1 0x0 DUP3 PUSH1 0x1F DUP4 ADD SLT PUSH2 0x1CA9 JUMPI PUSH2 0x1CA8 PUSH2 0x1960 JUMP JUMPDEST JUMPDEST DUP2 CALLDATALOAD PUSH2 0x1CB9 DUP5 DUP3 PUSH1 0x20 DUP7 ADD PUSH2 0x1C52 JUMP JUMPDEST SWAP2 POP POP SWAP3 SWAP2 POP POP JUMP JUMPDEST PUSH1 0x0 PUSH20 0xFFFFFFFFFFFFFFFFFFFFFFFFFFFFFFFFFFFFFFFF DUP3 AND SWAP1 POP SWAP2 SWAP1 POP JUMP JUMPDEST PUSH1 0x0 PUSH2 0x1CED DUP3 PUSH2 0x1CC2 JUMP JUMPDEST SWAP1 POP SWAP2 SWAP1 POP JUMP JUMPDEST PUSH2 0x1CFD DUP2 PUSH2 0x1CE2 JUMP JUMPDEST DUP2 EQ PUSH2 0x1D08 JUMPI PUSH1 0x0 DUP1 REVERT JUMPDEST POP JUMP JUMPDEST PUSH1 0x0 DUP2 CALLDATALOAD SWAP1 POP PUSH2 0x1D1A DUP2 PUSH2 0x1CF4 JUMP JUMPDEST SWAP3 SWAP2 POP POP JUMP JUMPDEST PUSH1 0x0 PUSH8 0xFFFFFFFFFFFFFFFF DUP3 GT ISZERO PUSH2 0x1D3B JUMPI PUSH2 0x1D3A PUSH2 0x1B8D JUMP JUMPDEST JUMPDEST PUSH2 0x1D44 DUP3 PUSH2 0x18E0 JUMP JUMPDEST SWAP1 POP PUSH1 0x20 DUP2 ADD SWAP1 POP SWAP2 SWAP1 POP JUMP JUMPDEST PUSH1 0x0 PUSH2 0x1D64 PUSH2 0x1D5F DUP5 PUSH2 0x1D20 JUMP JUMPDEST PUSH2 0x1BED JUMP JUMPDEST SWAP1 POP DUP3 DUP2 MSTORE PUSH1 0x20 DUP2 ADD DUP5 DUP5 DUP5 ADD GT ISZERO PUSH2 0x1D80 JUMPI PUSH2 0x1D7F PUSH2 0x1C0D JUMP JUMPDEST JUMPDEST PUSH2 0x1D8B DUP5 DUP3 DUP6 PUSH2 0x1C43 JUMP JUMPDEST POP SWAP4 SWAP3 POP POP POP JUMP JUMPDEST PUSH1 0x0 DUP3 PUSH1 0x1F DUP4 ADD SLT PUSH2 0x1DA8 JUMPI PUSH2 0x1DA7 PUSH2 0x1960 JUMP JUMPDEST JUMPDEST DUP2 CALLDATALOAD PUSH2 0x1DB8 DUP5 DUP3 PUSH1 0x20 DUP7 ADD PUSH2 0x1D51 JUMP JUMPDEST SWAP2 POP POP SWAP3 SWAP2 POP POP JUMP JUMPDEST PUSH1 0x0 PUSH1 0x80 DUP3 DUP5 SUB SLT ISZERO PUSH2 0x1DD7 JUMPI PUSH2 0x1DD6 PUSH2 0x1B88 JUMP JUMPDEST JUMPDEST PUSH2 0x1DE1 PUSH1 0x80 PUSH2 0x1BED JUMP JUMPDEST SWAP1 POP PUSH1 0x0 DUP3 ADD CALLDATALOAD PUSH8 0xFFFFFFFFFFFFFFFF DUP2 GT ISZERO PUSH2 0x1E01 JUMPI PUSH2 0x1E00 PUSH2 0x1C08 JUMP JUMPDEST JUMPDEST PUSH2 0x1E0D DUP5 DUP3 DUP6 ADD PUSH2 0x1C94 JUMP JUMPDEST PUSH1 0x0 DUP4 ADD MSTORE POP PUSH1 0x20 PUSH2 0x1E21 DUP5 DUP3 DUP6 ADD PUSH2 0x1D0B JUMP JUMPDEST PUSH1 0x20 DUP4 ADD MSTORE POP PUSH1 0x40 DUP3 ADD CALLDATALOAD PUSH8 0xFFFFFFFFFFFFFFFF DUP2 GT ISZERO PUSH2 0x1E45 JUMPI PUSH2 0x1E44 PUSH2 0x1C08 JUMP JUMPDEST JUMPDEST PUSH2 0x1E51 DUP5 DUP3 DUP6 ADD PUSH2 0x1D93 JUMP JUMPDEST PUSH1 0x40 DUP4 ADD MSTORE POP PUSH1 0x60 DUP3 ADD CALLDATALOAD PUSH8 0xFFFFFFFFFFFFFFFF DUP2 GT ISZERO PUSH2 0x1E75 JUMPI PUSH2 0x1E74 PUSH2 0x1C08 JUMP JUMPDEST JUMPDEST PUSH2 0x1E81 DUP5 DUP3 DUP6 ADD PUSH2 0x1D93 JUMP JUMPDEST PUSH1 0x60 DUP4 ADD MSTORE POP SWAP3 SWAP2 POP POP JUMP JUMPDEST PUSH1 0x0 PUSH1 0x20 DUP3 DUP5 SUB SLT ISZERO PUSH2 0x1EA3 JUMPI PUSH2 0x1EA2 PUSH2 0x1956 JUMP JUMPDEST JUMPDEST PUSH1 0x0 DUP3 ADD CALLDATALOAD PUSH8 0xFFFFFFFFFFFFFFFF DUP2 GT ISZERO PUSH2 0x1EC1 JUMPI PUSH2 0x1EC0 PUSH2 0x195B JUMP JUMPDEST JUMPDEST PUSH2 0x1ECD DUP5 DUP3 DUP6 ADD PUSH2 0x1DC1 JUMP JUMPDEST SWAP2 POP POP SWAP3 SWAP2 POP POP JUMP JUMPDEST PUSH1 0x0 PUSH1 0xFF DUP3 AND SWAP1 POP SWAP2 SWAP1 POP JUMP JUMPDEST PUSH2 0x1EEC DUP2 PUSH2 0x1ED6 JUMP JUMPDEST DUP2 EQ PUSH2 0x1EF7 JUMPI PUSH1 0x0 DUP1 REVERT JUMPDEST POP JUMP JUMPDEST PUSH1 0x0 DUP2 CALLDATALOAD SWAP1 POP PUSH2 0x1F09 DUP2 PUSH2 0x1EE3 JUMP JUMPDEST SWAP3 SWAP2 POP POP JUMP JUMPDEST PUSH1 0x0 PUSH1 0xE0 DUP3 DUP5 SUB SLT ISZERO PUSH2 0x1F25 JUMPI PUSH2 0x1F24 PUSH2 0x1B88 JUMP JUMPDEST JUMPDEST PUSH2 0x1F2F PUSH1 0xE0 PUSH2 0x1BED JUMP JUMPDEST SWAP1 POP PUSH1 0x0 DUP3 ADD CALLDATALOAD PUSH8 0xFFFFFFFFFFFFFFFF DUP2 GT ISZERO PUSH2 0x1F4F JUMPI PUSH2 0x1F4E PUSH2 0x1C08 JUMP JUMPDEST JUMPDEST PUSH2 0x1F5B DUP5 DUP3 DUP6 ADD PUSH2 0x1C94 JUMP JUMPDEST PUSH1 0x0 DUP4 ADD MSTORE POP PUSH1 0x20 PUSH2 0x1F6F DUP5 DUP3 DUP6 ADD PUSH2 0x1D0B JUMP JUMPDEST PUSH1 0x20 DUP4 ADD MSTORE POP PUSH1 0x40 DUP3 ADD CALLDATALOAD PUSH8 0xFFFFFFFFFFFFFFFF DUP2 GT ISZERO PUSH2 0x1F93 JUMPI PUSH2 0x1F92 PUSH2 0x1C08 JUMP JUMPDEST JUMPDEST PUSH2 0x1F9F DUP5 DUP3 DUP6 ADD PUSH2 0x1D93 JUMP JUMPDEST PUSH1 0x40 DUP4 ADD MSTORE POP PUSH1 0x60 PUSH2 0x1FB3 DUP5 DUP3 DUP6 ADD PUSH2 0x1EFA JUMP JUMPDEST PUSH1 0x60 DUP4 ADD MSTORE POP PUSH1 0x80 DUP3 ADD CALLDATALOAD PUSH8 0xFFFFFFFFFFFFFFFF DUP2 GT ISZERO PUSH2 0x1FD7 JUMPI PUSH2 0x1FD6 PUSH2 0x1C08 JUMP JUMPDEST JUMPDEST PUSH2 0x1FE3 DUP5 DUP3 DUP6 ADD PUSH2 0x1D93 JUMP JUMPDEST PUSH1 0x80 DUP4 ADD MSTORE POP PUSH1 0xA0 DUP3 ADD CALLDATALOAD PUSH8 0xFFFFFFFFFFFFFFFF DUP2 GT ISZERO PUSH2 0x2007 JUMPI PUSH2 0x2006 PUSH2 0x1C08 JUMP JUMPDEST JUMPDEST PUSH2 0x2013 DUP5 DUP3 DUP6 ADD PUSH2 0x1D93 JUMP JUMPDEST PUSH1 0xA0 DUP4 ADD MSTORE POP PUSH1 0xC0 DUP3 ADD CALLDATALOAD PUSH8 0xFFFFFFFFFFFFFFFF DUP2 GT ISZERO PUSH2 0x2037 JUMPI PUSH2 0x2036 PUSH2 0x1C08 JUMP JUMPDEST JUMPDEST PUSH2 0x2043 DUP5 DUP3 DUP6 ADD PUSH2 0x1D93 JUMP JUMPDEST PUSH1 0xC0 DUP4 ADD MSTORE POP SWAP3 SWAP2 POP POP JUMP JUMPDEST PUSH1 0x0 PUSH1 0x20 DUP3 DUP5 SUB SLT ISZERO PUSH2 0x2065 JUMPI PUSH2 0x2064 PUSH2 0x1956 JUMP JUMPDEST JUMPDEST PUSH1 0x0 DUP3 ADD CALLDATALOAD PUSH8 0xFFFFFFFFFFFFFFFF DUP2 GT ISZERO PUSH2 0x2083 JUMPI PUSH2 0x2082 PUSH2 0x195B JUMP JUMPDEST JUMPDEST PUSH2 0x208F DUP5 DUP3 DUP6 ADD PUSH2 0x1F0F JUMP JUMPDEST SWAP2 POP POP SWAP3 SWAP2 POP POP JUMP JUMPDEST PUSH1 0x0 DUP1 PUSH1 0x20 DUP4 DUP6 SUB SLT ISZERO PUSH2 0x20AF JUMPI PUSH2 0x20AE PUSH2 0x1956 JUMP JUMPDEST JUMPDEST PUSH1 0x0 DUP4 ADD CALLDATALOAD PUSH8 0xFFFFFFFFFFFFFFFF DUP2 GT ISZERO PUSH2 0x20CD JUMPI PUSH2 0x20CC PUSH2 0x195B JUMP JUMPDEST JUMPDEST PUSH2 0x20D9 DUP6 DUP3 DUP7 ADD PUSH2 0x1A46 JUMP JUMPDEST SWAP3 POP SWAP3 POP POP SWAP3 POP SWAP3 SWAP1 POP JUMP JUMPDEST PUSH1 0x0 DUP2 MLOAD SWAP1 POP SWAP2 SWAP1 POP JUMP JUMPDEST PUSH1 0x0 DUP3 DUP3 MSTORE PUSH1 0x20 DUP3 ADD SWAP1 POP SWAP3 SWAP2 POP POP JUMP JUMPDEST PUSH1 0x0 PUSH2 0x210C DUP3 PUSH2 0x20E5 JUMP JUMPDEST PUSH2 0x2116 DUP2 DUP6 PUSH2 0x20F0 JUMP JUMPDEST SWAP4 POP PUSH2 0x2126 DUP2 DUP6 PUSH1 0x20 DUP7 ADD PUSH2 0x18B6 JUMP JUMPDEST PUSH2 0x212F DUP2 PUSH2 0x18E0 JUMP JUMPDEST DUP5 ADD SWAP2 POP POP SWAP3 SWAP2 POP POP JUMP JUMPDEST PUSH1 0x0 PUSH1 0x20 DUP3 ADD SWAP1 POP DUP2 DUP2 SUB PUSH1 0x0 DUP4 ADD MSTORE PUSH2 0x2154 DUP2 DUP5 PUSH2 0x2101 JUMP JUMPDEST SWAP1 POP SWAP3 SWAP2 POP POP JUMP JUMPDEST PUSH32 0x4E487B7100000000000000000000000000000000000000000000000000000000 PUSH1 0x0 MSTORE PUSH1 0x32 PUSH1 0x4 MSTORE PUSH1 0x24 PUSH1 0x0 REVERT JUMPDEST PUSH1 0x0 DUP1 REVERT JUMPDEST PUSH1 0x0 DUP3 CALLDATALOAD PUSH1 0x1 PUSH1 0x80 SUB DUP4 CALLDATASIZE SUB SUB DUP2 SLT PUSH2 0x21AC JUMPI PUSH2 0x21AB PUSH2 0x218B JUMP JUMPDEST JUMPDEST DUP1 DUP4 ADD SWAP2 POP POP SWAP3 SWAP2 POP POP JUMP JUMPDEST PUSH1 0x0 PUSH2 0x21C4 CALLDATASIZE DUP4 PUSH2 0x1DC1 JUMP JUMPDEST SWAP1 POP SWAP2 SWAP1 POP JUMP JUMPDEST PUSH1 0x0 DUP3 CALLDATALOAD PUSH1 0x1 PUSH1 0xE0 SUB DUP4 CALLDATASIZE SUB SUB DUP2 SLT PUSH2 0x21E7 JUMPI PUSH2 0x21E6 PUSH2 0x218B JUMP JUMPDEST JUMPDEST DUP1 DUP4 ADD SWAP2 POP POP SWAP3 SWAP2 POP POP JUMP JUMPDEST PUSH1 0x0 PUSH2 0x21FF CALLDATASIZE DUP4 PUSH2 0x1F0F JUMP JUMPDEST SWAP1 POP SWAP2 SWAP1 POP JUMP JUMPDEST PUSH32 0x4E487B7100000000000000000000000000000000000000000000000000000000 PUSH1 0x0 MSTORE PUSH1 0x12 PUSH1 0x4 MSTORE PUSH1 0x24 PUSH1 0x0 REVERT JUMPDEST PUSH1 0x0 PUSH1 0x40 DUP3 ADD SWAP1 POP DUP2 DUP2 SUB PUSH1 0x0 DUP4 ADD MSTORE PUSH2 0x224F DUP2 DUP6 PUSH2 0x2101 JUMP JUMPDEST SWAP1 POP DUP2 DUP2 SUB PUSH1 0x20 DUP4 ADD MSTORE PUSH2 0x2263 DUP2 DUP5 PUSH2 0x18F1 JUMP JUMPDEST SWAP1 POP SWAP4 SWAP3 POP POP POP JUMP JUMPDEST PUSH1 0x0 PUSH2 0x227F PUSH2 0x227A DUP5 PUSH2 0x1D20 JUMP JUMPDEST PUSH2 0x1BED JUMP JUMPDEST SWAP1 POP DUP3 DUP2 MSTORE PUSH1 0x20 DUP2 ADD DUP5 DUP5 DUP5 ADD GT ISZERO PUSH2 0x229B JUMPI PUSH2 0x229A PUSH2 0x1C0D JUMP JUMPDEST JUMPDEST PUSH2 0x22A6 DUP5 DUP3 DUP6 PUSH2 0x18B6 JUMP JUMPDEST POP SWAP4 SWAP3 POP POP POP JUMP JUMPDEST PUSH1 0x0 DUP3 PUSH1 0x1F DUP4 ADD SLT PUSH2 0x22C3 JUMPI PUSH2 0x22C2 PUSH2 0x1960 JUMP JUMPDEST JUMPDEST DUP2 MLOAD PUSH2 0x22D3 DUP5 DUP3 PUSH1 0x20 DUP7 ADD PUSH2 0x226C JUMP JUMPDEST SWAP2 POP POP SWAP3 SWAP2 POP POP JUMP JUMPDEST PUSH1 0x0 PUSH1 0x20 DUP3 DUP5 SUB SLT ISZERO PUSH2 0x22F2 JUMPI PUSH2 0x22F1 PUSH2 0x1956 JUMP JUMPDEST JUMPDEST PUSH1 0x0 DUP3 ADD MLOAD PUSH8 0xFFFFFFFFFFFFFFFF DUP2 GT ISZERO PUSH2 0x2310 JUMPI PUSH2 0x230F PUSH2 0x195B JUMP JUMPDEST JUMPDEST PUSH2 0x231C DUP5 DUP3 DUP6 ADD PUSH2 0x22AE JUMP JUMPDEST SWAP2 POP POP SWAP3 SWAP2 POP POP JUMP JUMPDEST PUSH32 0x4E487B7100000000000000000000000000000000000000000000000000000000 PUSH1 0x0 MSTORE PUSH1 0x11 PUSH1 0x4 MSTORE PUSH1 0x24 PUSH1 0x0 REVERT JUMPDEST PUSH1 0x0 PUSH2 0x235F DUP3 PUSH2 0x1A12 JUMP JUMPDEST SWAP2 POP PUSH2 0x236A DUP4 PUSH2 0x1A12 JUMP JUMPDEST SWAP3 POP DUP3 DUP3 ADD SWAP1 POP DUP1 DUP3 GT ISZERO PUSH2 0x2382 JUMPI PUSH2 0x2381 PUSH2 0x2325 JUMP JUMPDEST JUMPDEST SWAP3 SWAP2 POP POP JUMP JUMPDEST PUSH32 0x44796E616D69634275666665723A20417070656E64696E67206F7574206F6620 PUSH1 0x0 DUP3 ADD MSTORE PUSH32 0x626F756E64732E00000000000000000000000000000000000000000000000000 PUSH1 0x20 DUP3 ADD MSTORE POP JUMP JUMPDEST PUSH1 0x0 PUSH2 0x23E4 PUSH1 0x27 DUP4 PUSH2 0x20F0 JUMP JUMPDEST SWAP2 POP PUSH2 0x23EF DUP3 PUSH2 0x2388 JUMP JUMPDEST PUSH1 0x40 DUP3 ADD SWAP1 POP SWAP2 SWAP1 POP JUMP JUMPDEST PUSH1 0x0 PUSH1 0x20 DUP3 ADD SWAP1 POP DUP2 DUP2 SUB PUSH1 0x0 DUP4 ADD MSTORE PUSH2 0x2413 DUP2 PUSH2 0x23D7 JUMP JUMPDEST SWAP1 POP SWAP2 SWAP1 POP JUMP INVALID EXTCODECOPY PUSH20 0x6372697074207372633D22646174613A74657874 0x2F PUSH11 0x6176617363726970743B62 PUSH2 0x7365 CALLDATASIZE CALLVALUE 0x2C 0x25 ORIGIN CALLDATALOAD CALLER NUMBER PUSH3 0x6F6479 0x25 ORIGIN CALLDATALOAD ORIGIN ADDRESS PUSH20 0x74796C65253235334425323532376D617267696E 0x25 ORIGIN CALLDATALOAD CALLER COINBASE ADDRESS 0x25 ORIGIN CALLDATALOAD CALLER TIMESTAMP 0x25 ORIGIN CALLDATALOAD ORIGIN CALLDATACOPY 0x25 ORIGIN CALLDATALOAD CALLER GASLIMIT 0x25 ORIGIN CALLDATALOAD CALLER NUMBER PUSH20 0x6372697074253235323073726325323533442532 CALLDATALOAD ORIGIN ORIGIN PUSH5 0x6174612532 CALLDATALOAD CALLER COINBASE PUSH21 0x65787425323532466A617661736372697074253235 CALLER TIMESTAMP PUSH3 0x617365 CALLDATASIZE CALLVALUE 0x25 ORIGIN CALLDATALOAD ORIGIN NUMBER EXTCODECOPY PUSH20 0x637269707420747970653D22746578742F6A6176 PUSH2 0x7363 PUSH19 0x6970742B677A697022207372633D2264617461 GASPRICE PUSH21 0x6578742F6A6176617363726970743B626173653634 0x2C 0x25 ORIGIN CALLDATALOAD CALLER NUMBER PUSH20 0x6372697074253235323074797065253235334425 ORIGIN CALLDATALOAD ORIGIN ORIGIN PUSH21 0x65787425323532466A617661736372697074253235 ORIGIN TIMESTAMP PUSH8 0x7A69702532353232 0x25 ORIGIN CALLDATALOAD ORIGIN ADDRESS PUSH20 0x7263253235334425323532326461746125323533 COINBASE PUSH21 0x65787425323532466A617661736372697074253235 CALLER TIMESTAMP PUSH3 0x617365 CALLDATASIZE CALLVALUE 0x25 ORIGIN CALLDATALOAD ORIGIN NUMBER 0x25 ORIGIN CALLDATALOAD CALLER NUMBER PUSH20 0x6372697074253235323074797065253235334425 ORIGIN CALLDATALOAD ORIGIN ORIGIN PUSH21 0x65787425323532466A617661736372697074253235 ORIGIN TIMESTAMP PUSH17 0x6E67253235323225323532307372632532 CALLDATALOAD CALLER DIFFICULTY 0x25 ORIGIN CALLDATALOAD ORIGIN ORIGIN PUSH5 0x6174612532 CALLDATALOAD CALLER COINBASE PUSH21 0x65787425323532466A617661736372697074253235 CALLER TIMESTAMP PUSH3 0x617365 CALLDATASIZE CALLVALUE 0x25 ORIGIN CALLDATALOAD ORIGIN NUMBER EXTCODECOPY PUSH20 0x637269707420747970653D22746578742F6A6176 PUSH2 0x7363 PUSH19 0x6970742B706E6722207372633D22646174613A PUSH21 0x6578742F6A6176617363726970743B626173653634 0x2C LOG2 PUSH5 0x6970667358 0x22 SLT KECCAK256 0xC5 0x2E PUSH7 0xCD0F0D2D1A6AF2 CODECOPY SWAP1 JUMP 0xB1 0xD2 0xD3 SLOAD SWAP11 POP 0xD9 0x25 0xE8 0x2E NUMBER 0x23 CODESIZE SLT 0xA7 SAR LOG1 0xAB 0xAE PUSH5 0x736F6C6343 STOP ADDMOD GT STOP CALLER "},"methodIdentifiers":{"HTML_BASE64_DATA_URI_BYTES()":"7510ac24","HTML_BODY_CLOSED_RAW()":"f051dcf8","HTML_BODY_CLOSED_URL_SAFE()":"053f1eb0","HTML_BODY_OPEN_RAW()":"d602d7d0","HTML_BODY_OPEN_URL_SAFE()":"e572b8a0","HTML_TAG_RAW()":"4ce2f931","HTML_TAG_URL_SAFE()":"9e708330","SCRIPT_INLINE_BYTES()":"49a6b847","URLS_RAW_BYTES()":"87598e52","URLS_SAFE_BYTES()":"bee84ae3","getBufferSizeForEncodedHTMLInline((string,address,bytes,bytes)[])":"cab6a3f3","getBufferSizeForEncodedHTMLWrapped((string,address,bytes,uint8,bytes,bytes,bytes)[])":"a0a5eeac","getBufferSizeForHTMLInline((string,address,bytes,bytes)[])":"33a656c1","getBufferSizeForHTMLWrapped((string,address,bytes,uint8,bytes,bytes,bytes)[])":"b97e52da","getBufferSizeForURLSafeHTMLWrapped((string,address,bytes,uint8,bytes,bytes,bytes)[])":"68e1644a","getEncodedHTMLInline((string,address,bytes,bytes)[],uint256)":"479751c3","getEncodedHTMLInlineString((string,address,bytes,bytes)[],uint256)":"7ea05006","getEncodedHTMLWrapped((string,address,bytes,uint8,bytes,bytes,bytes)[],uint256)":"34c3c9d5","getEncodedHTMLWrappedString((string,address,bytes,uint8,bytes,bytes,bytes)[],uint256)":"c03f39cd","getHTMLInline((string,address,bytes,bytes)[],uint256)":"ba69524d","getHTMLInlineString((string,address,bytes,bytes)[],uint256)":"9a7f08e0","getHTMLWrapped((string,address,bytes,uint8,bytes,bytes,bytes)[],uint256)":"7603465f","getHTMLWrappedString((string,address,bytes,uint8,bytes,bytes,bytes)[],uint256)":"c8d00e05","getHTMLWrappedURLSafe((string,address,bytes,uint8,bytes,bytes,bytes)[],uint256)":"b4f7d41e","getInlineScriptSize((string,address,bytes,bytes))":"529df5d7","getURLSafeHTMLWrappedString((string,address,bytes,uint8,bytes,bytes,bytes)[],uint256)":"c71dd026","getURLSafeWrappedScriptSize((string,address,bytes,uint8,bytes,bytes,bytes))":"b8108e30","getWrappedScriptSize((string,address,bytes,uint8,bytes,bytes,bytes))":"668db168"}}}}}