{"src/contracts/scripty/externalStorage/ethfs/ETHFSFileStorage.sol":{"ETHFSFileStorage":{"abi":[{"inputs":[{"internalType":"address","name":"_fileStoreAddress","type":"address"}],"stateMutability":"nonpayable","type":"constructor"},{"inputs":[],"name":"fileStore","outputs":[{"internalType":"contract IFileStore","name":"","type":"address"}],"stateMutability":"view","type":"function"},{"inputs":[{"internalType":"string","name":"name","type":"string"},{"internalType":"bytes","name":"data","type":"bytes"}],"name":"getScript","outputs":[{"internalType":"bytes","name":"script","type":"bytes"}],"stateMutability":"view","type":"function"}],"evm":{"bytecode":{"linkReferences":{},"object":"60a060405234801561001057600080fd5b50604051610976380380610976833981810160405281019061003291906100cf565b8073ffffffffffffffffffffffffffffffffffffffff1660808173ffffffffffffffffffffffffffffffffffffffff1681525050506100fc565b600080fd5b600073ffffffffffffffffffffffffffffffffffffffff82169050919050565b600061009c82610071565b9050919050565b6100ac81610091565b81146100b757600080fd5b50565b6000815190506100c9816100a3565b92915050565b6000602082840312156100e5576100e461006c565b5b60006100f3848285016100ba565b91505092915050565b60805161085a61011c60003960008181608b015260b4015261085a6000f3fe608060405234801561001057600080fd5b50600436106100365760003560e01c806321ea07e11461003b578063f963559414610059575b600080fd5b610043610089565b6040516100509190610254565b60405180910390f35b610073600480360381019061006e9190610429565b6100ad565b6040516100809190610524565b60405180910390f35b7f000000000000000000000000000000000000000000000000000000000000000081565b60606101587f000000000000000000000000000000000000000000000000000000000000000073ffffffffffffffffffffffffffffffffffffffff1663e0876aa886866040518363ffffffff1660e01b815260040161010d929190610584565b600060405180830381865afa15801561012a573d6000803e3d6000fd5b505050506040513d6000823e3d601f19601f8201168201806040525081019061015391906107db565b610161565b90509392505050565b60606000826020015190508051602060405193506000806000805b858110156101b657602081026020018701519250602083015191506001823b039350836001868a01843c838501945060018101905061017c565b50602084038752601f19601f8501168701604052505050505050919050565b600073ffffffffffffffffffffffffffffffffffffffff82169050919050565b6000819050919050565b600061021a610215610210846101d5565b6101f5565b6101d5565b9050919050565b600061022c826101ff565b9050919050565b600061023e82610221565b9050919050565b61024e81610233565b82525050565b60006020820190506102696000830184610245565b92915050565b6000604051905090565b600080fd5b600080fd5b600080fd5b600080fd5b600080fd5b60008083601f8401126102a8576102a7610283565b5b8235905067ffffffffffffffff8111156102c5576102c4610288565b5b6020830191508360018202830111156102e1576102e061028d565b5b9250929050565b600080fd5b6000601f19601f8301169050919050565b7f4e487b7100000000000000000000000000000000000000000000000000000000600052604160045260246000fd5b610336826102ed565b810181811067ffffffffffffffff82111715610355576103546102fe565b5b80604052505050565b600061036861026f565b9050610374828261032d565b919050565b600067ffffffffffffffff821115610394576103936102fe565b5b61039d826102ed565b9050602081019050919050565b82818337600083830152505050565b60006103cc6103c784610379565b61035e565b9050828152602081018484840111156103e8576103e76102e8565b5b6103f38482856103aa565b509392505050565b600082601f8301126104105761040f610283565b5b81356104208482602086016103b9565b91505092915050565b60008060006040848603121561044257610441610279565b5b600084013567ffffffffffffffff8111156104605761045f61027e565b5b61046c86828701610292565b9350935050602084013567ffffffffffffffff81111561048f5761048e61027e565b5b61049b868287016103fb565b9150509250925092565b600081519050919050565b600082825260208201905092915050565b60005b838110156104df5780820151818401526020810190506104c4565b60008484015250505050565b60006104f6826104a5565b61050081856104b0565b93506105108185602086016104c1565b610519816102ed565b840191505092915050565b6000602082019050818103600083015261053e81846104eb565b905092915050565b600082825260208201905092915050565b60006105638385610546565b93506105708385846103aa565b610579836102ed565b840190509392505050565b6000602082019050818103600083015261059f818486610557565b90509392505050565b600080fd5b600080fd5b6000819050919050565b6105c5816105b2565b81146105d057600080fd5b50565b6000815190506105e2816105bc565b92915050565b600067ffffffffffffffff821115610603576106026102fe565b5b602082029050602081019050919050565b6000819050919050565b61062781610614565b811461063257600080fd5b50565b6000815190506106448161061e565b92915050565b6000610655826101d5565b9050919050565b6106658161064a565b811461067057600080fd5b50565b6000815190506106828161065c565b92915050565b60006040828403121561069e5761069d6105a8565b5b6106a8604061035e565b905060006106b884828501610635565b60008301525060206106cc84828501610673565b60208301525092915050565b60006106eb6106e6846105e8565b61035e565b9050808382526020820190506040840283018581111561070e5761070d61028d565b5b835b8181101561073757806107238882610688565b845260208401935050604081019050610710565b5050509392505050565b600082601f83011261075657610755610283565b5b81516107668482602086016106d8565b91505092915050565b600060408284031215610785576107846105a8565b5b61078f604061035e565b9050600061079f848285016105d3565b600083015250602082015167ffffffffffffffff8111156107c3576107c26105ad565b5b6107cf84828501610741565b60208301525092915050565b6000602082840312156107f1576107f0610279565b5b600082015167ffffffffffffffff81111561080f5761080e61027e565b5b61081b8482850161076f565b9150509291505056fea264697066735822122062a2761665674c61151fbb108b7041a19db967bd8ef061ad3cdba5931e6d1e5664736f6c63430008110033","opcodes":"PUSH1 0xA0 PUSH1 0x40 MSTORE CALLVALUE DUP1 ISZERO PUSH2 0x10 JUMPI PUSH1 0x0 DUP1 REVERT JUMPDEST POP PUSH1 0x40 MLOAD PUSH2 0x976 CODESIZE SUB DUP1 PUSH2 0x976 DUP4 CODECOPY DUP2 DUP2 ADD PUSH1 0x40 MSTORE DUP2 ADD SWAP1 PUSH2 0x32 SWAP2 SWAP1 PUSH2 0xCF JUMP JUMPDEST DUP1 PUSH20 0xFFFFFFFFFFFFFFFFFFFFFFFFFFFFFFFFFFFFFFFF AND PUSH1 0x80 DUP2 PUSH20 0xFFFFFFFFFFFFFFFFFFFFFFFFFFFFFFFFFFFFFFFF AND DUP2 MSTORE POP POP POP PUSH2 0xFC JUMP JUMPDEST PUSH1 0x0 DUP1 REVERT JUMPDEST PUSH1 0x0 PUSH20 0xFFFFFFFFFFFFFFFFFFFFFFFFFFFFFFFFFFFFFFFF DUP3 AND SWAP1 POP SWAP2 SWAP1 POP JUMP JUMPDEST PUSH1 0x0 PUSH2 0x9C DUP3 PUSH2 0x71 JUMP JUMPDEST SWAP1 POP SWAP2 SWAP1 POP JUMP JUMPDEST PUSH2 0xAC DUP2 PUSH2 0x91 JUMP JUMPDEST DUP2 EQ PUSH2 0xB7 JUMPI PUSH1 0x0 DUP1 REVERT JUMPDEST POP JUMP JUMPDEST PUSH1 0x0 DUP2 MLOAD SWAP1 POP PUSH2 0xC9 DUP2 PUSH2 0xA3 JUMP JUMPDEST SWAP3 SWAP2 POP POP JUMP JUMPDEST PUSH1 0x0 PUSH1 0x20 DUP3 DUP5 SUB SLT ISZERO PUSH2 0xE5 JUMPI PUSH2 0xE4 PUSH2 0x6C JUMP JUMPDEST JUMPDEST PUSH1 0x0 PUSH2 0xF3 DUP5 DUP3 DUP6 ADD PUSH2 0xBA JUMP JUMPDEST SWAP2 POP POP SWAP3 SWAP2 POP POP JUMP JUMPDEST PUSH1 0x80 MLOAD PUSH2 0x85A PUSH2 0x11C PUSH1 0x0 CODECOPY PUSH1 0x0 DUP2 DUP2 PUSH1 0x8B ADD MSTORE PUSH1 0xB4 ADD MSTORE PUSH2 0x85A PUSH1 0x0 RETURN INVALID PUSH1 0x80 PUSH1 0x40 MSTORE CALLVALUE DUP1 ISZERO PUSH2 0x10 JUMPI PUSH1 0x0 DUP1 REVERT JUMPDEST POP PUSH1 0x4 CALLDATASIZE LT PUSH2 0x36 JUMPI PUSH1 0x0 CALLDATALOAD PUSH1 0xE0 SHR DUP1 PUSH4 0x21EA07E1 EQ PUSH2 0x3B JUMPI DUP1 PUSH4 0xF9635594 EQ PUSH2 0x59 JUMPI JUMPDEST PUSH1 0x0 DUP1 REVERT JUMPDEST PUSH2 0x43 PUSH2 0x89 JUMP JUMPDEST PUSH1 0x40 MLOAD PUSH2 0x50 SWAP2 SWAP1 PUSH2 0x254 JUMP JUMPDEST PUSH1 0x40 MLOAD DUP1 SWAP2 SUB SWAP1 RETURN JUMPDEST PUSH2 0x73 PUSH1 0x4 DUP1 CALLDATASIZE SUB DUP2 ADD SWAP1 PUSH2 0x6E SWAP2 SWAP1 PUSH2 0x429 JUMP JUMPDEST PUSH2 0xAD JUMP JUMPDEST PUSH1 0x40 MLOAD PUSH2 0x80 SWAP2 SWAP1 PUSH2 0x524 JUMP JUMPDEST PUSH1 0x40 MLOAD DUP1 SWAP2 SUB SWAP1 RETURN JUMPDEST PUSH32 0x0 DUP2 JUMP JUMPDEST PUSH1 0x60 PUSH2 0x158 PUSH32 0x0 PUSH20 0xFFFFFFFFFFFFFFFFFFFFFFFFFFFFFFFFFFFFFFFF AND PUSH4 0xE0876AA8 DUP7 DUP7 PUSH1 0x40 MLOAD DUP4 PUSH4 0xFFFFFFFF AND PUSH1 0xE0 SHL DUP2 MSTORE PUSH1 0x4 ADD PUSH2 0x10D SWAP3 SWAP2 SWAP1 PUSH2 0x584 JUMP JUMPDEST PUSH1 0x0 PUSH1 0x40 MLOAD DUP1 DUP4 SUB DUP2 DUP7 GAS STATICCALL ISZERO DUP1 ISZERO PUSH2 0x12A JUMPI RETURNDATASIZE PUSH1 0x0 DUP1 RETURNDATACOPY RETURNDATASIZE PUSH1 0x0 REVERT JUMPDEST POP POP POP POP PUSH1 0x40 MLOAD RETURNDATASIZE PUSH1 0x0 DUP3 RETURNDATACOPY RETURNDATASIZE PUSH1 0x1F NOT PUSH1 0x1F DUP3 ADD AND DUP3 ADD DUP1 PUSH1 0x40 MSTORE POP DUP2 ADD SWAP1 PUSH2 0x153 SWAP2 SWAP1 PUSH2 0x7DB JUMP JUMPDEST PUSH2 0x161 JUMP JUMPDEST SWAP1 POP SWAP4 SWAP3 POP POP POP JUMP JUMPDEST PUSH1 0x60 PUSH1 0x0 DUP3 PUSH1 0x20 ADD MLOAD SWAP1 POP DUP1 MLOAD PUSH1 0x20 PUSH1 0x40 MLOAD SWAP4 POP PUSH1 0x0 DUP1 PUSH1 0x0 DUP1 JUMPDEST DUP6 DUP2 LT ISZERO PUSH2 0x1B6 JUMPI PUSH1 0x20 DUP2 MUL PUSH1 0x20 ADD DUP8 ADD MLOAD SWAP3 POP PUSH1 0x20 DUP4 ADD MLOAD SWAP2 POP PUSH1 0x1 DUP3 EXTCODESIZE SUB SWAP4 POP DUP4 PUSH1 0x1 DUP7 DUP11 ADD DUP5 EXTCODECOPY DUP4 DUP6 ADD SWAP5 POP PUSH1 0x1 DUP2 ADD SWAP1 POP PUSH2 0x17C JUMP JUMPDEST POP PUSH1 0x20 DUP5 SUB DUP8 MSTORE PUSH1 0x1F NOT PUSH1 0x1F DUP6 ADD AND DUP8 ADD PUSH1 0x40 MSTORE POP POP POP POP POP POP SWAP2 SWAP1 POP JUMP JUMPDEST PUSH1 0x0 PUSH20 0xFFFFFFFFFFFFFFFFFFFFFFFFFFFFFFFFFFFFFFFF DUP3 AND SWAP1 POP SWAP2 SWAP1 POP JUMP JUMPDEST PUSH1 0x0 DUP2 SWAP1 POP SWAP2 SWAP1 POP JUMP JUMPDEST PUSH1 0x0 PUSH2 0x21A PUSH2 0x215 PUSH2 0x210 DUP5 PUSH2 0x1D5 JUMP JUMPDEST PUSH2 0x1F5 JUMP JUMPDEST PUSH2 0x1D5 JUMP JUMPDEST SWAP1 POP SWAP2 SWAP1 POP JUMP JUMPDEST PUSH1 0x0 PUSH2 0x22C DUP3 PUSH2 0x1FF JUMP JUMPDEST SWAP1 POP SWAP2 SWAP1 POP JUMP JUMPDEST PUSH1 0x0 PUSH2 0x23E DUP3 PUSH2 0x221 JUMP JUMPDEST SWAP1 POP SWAP2 SWAP1 POP JUMP JUMPDEST PUSH2 0x24E DUP2 PUSH2 0x233 JUMP JUMPDEST DUP3 MSTORE POP POP JUMP JUMPDEST PUSH1 0x0 PUSH1 0x20 DUP3 ADD SWAP1 POP PUSH2 0x269 PUSH1 0x0 DUP4 ADD DUP5 PUSH2 0x245 JUMP JUMPDEST SWAP3 SWAP2 POP POP JUMP JUMPDEST PUSH1 0x0 PUSH1 0x40 MLOAD SWAP1 POP SWAP1 JUMP JUMPDEST PUSH1 0x0 DUP1 REVERT JUMPDEST PUSH1 0x0 DUP1 REVERT JUMPDEST PUSH1 0x0 DUP1 REVERT JUMPDEST PUSH1 0x0 DUP1 REVERT JUMPDEST PUSH1 0x0 DUP1 REVERT JUMPDEST PUSH1 0x0 DUP1 DUP4 PUSH1 0x1F DUP5 ADD SLT PUSH2 0x2A8 JUMPI PUSH2 0x2A7 PUSH2 0x283 JUMP JUMPDEST JUMPDEST DUP3 CALLDATALOAD SWAP1 POP PUSH8 0xFFFFFFFFFFFFFFFF DUP2 GT ISZERO PUSH2 0x2C5 JUMPI PUSH2 0x2C4 PUSH2 0x288 JUMP JUMPDEST JUMPDEST PUSH1 0x20 DUP4 ADD SWAP2 POP DUP4 PUSH1 0x1 DUP3 MUL DUP4 ADD GT ISZERO PUSH2 0x2E1 JUMPI PUSH2 0x2E0 PUSH2 0x28D JUMP JUMPDEST JUMPDEST SWAP3 POP SWAP3 SWAP1 POP JUMP JUMPDEST PUSH1 0x0 DUP1 REVERT JUMPDEST PUSH1 0x0 PUSH1 0x1F NOT PUSH1 0x1F DUP4 ADD AND SWAP1 POP SWAP2 SWAP1 POP JUMP JUMPDEST PUSH32 0x4E487B7100000000000000000000000000000000000000000000000000000000 PUSH1 0x0 MSTORE PUSH1 0x41 PUSH1 0x4 MSTORE PUSH1 0x24 PUSH1 0x0 REVERT JUMPDEST PUSH2 0x336 DUP3 PUSH2 0x2ED JUMP JUMPDEST DUP2 ADD DUP2 DUP2 LT PUSH8 0xFFFFFFFFFFFFFFFF DUP3 GT OR ISZERO PUSH2 0x355 JUMPI PUSH2 0x354 PUSH2 0x2FE JUMP JUMPDEST JUMPDEST DUP1 PUSH1 0x40 MSTORE POP POP POP JUMP JUMPDEST PUSH1 0x0 PUSH2 0x368 PUSH2 0x26F JUMP JUMPDEST SWAP1 POP PUSH2 0x374 DUP3 DUP3 PUSH2 0x32D JUMP JUMPDEST SWAP2 SWAP1 POP JUMP JUMPDEST PUSH1 0x0 PUSH8 0xFFFFFFFFFFFFFFFF DUP3 GT ISZERO PUSH2 0x394 JUMPI PUSH2 0x393 PUSH2 0x2FE JUMP JUMPDEST JUMPDEST PUSH2 0x39D DUP3 PUSH2 0x2ED JUMP JUMPDEST SWAP1 POP PUSH1 0x20 DUP2 ADD SWAP1 POP SWAP2 SWAP1 POP JUMP JUMPDEST DUP3 DUP2 DUP4 CALLDATACOPY PUSH1 0x0 DUP4 DUP4 ADD MSTORE POP POP POP JUMP JUMPDEST PUSH1 0x0 PUSH2 0x3CC PUSH2 0x3C7 DUP5 PUSH2 0x379 JUMP JUMPDEST PUSH2 0x35E JUMP JUMPDEST SWAP1 POP DUP3 DUP2 MSTORE PUSH1 0x20 DUP2 ADD DUP5 DUP5 DUP5 ADD GT ISZERO PUSH2 0x3E8 JUMPI PUSH2 0x3E7 PUSH2 0x2E8 JUMP JUMPDEST JUMPDEST PUSH2 0x3F3 DUP5 DUP3 DUP6 PUSH2 0x3AA JUMP JUMPDEST POP SWAP4 SWAP3 POP POP POP JUMP JUMPDEST PUSH1 0x0 DUP3 PUSH1 0x1F DUP4 ADD SLT PUSH2 0x410 JUMPI PUSH2 0x40F PUSH2 0x283 JUMP JUMPDEST JUMPDEST DUP2 CALLDATALOAD PUSH2 0x420 DUP5 DUP3 PUSH1 0x20 DUP7 ADD PUSH2 0x3B9 JUMP JUMPDEST SWAP2 POP POP SWAP3 SWAP2 POP POP JUMP JUMPDEST PUSH1 0x0 DUP1 PUSH1 0x0 PUSH1 0x40 DUP5 DUP7 SUB SLT ISZERO PUSH2 0x442 JUMPI PUSH2 0x441 PUSH2 0x279 JUMP JUMPDEST JUMPDEST PUSH1 0x0 DUP5 ADD CALLDATALOAD PUSH8 0xFFFFFFFFFFFFFFFF DUP2 GT ISZERO PUSH2 0x460 JUMPI PUSH2 0x45F PUSH2 0x27E JUMP JUMPDEST JUMPDEST PUSH2 0x46C DUP7 DUP3 DUP8 ADD PUSH2 0x292 JUMP JUMPDEST SWAP4 POP SWAP4 POP POP PUSH1 0x20 DUP5 ADD CALLDATALOAD PUSH8 0xFFFFFFFFFFFFFFFF DUP2 GT ISZERO PUSH2 0x48F JUMPI PUSH2 0x48E PUSH2 0x27E JUMP JUMPDEST JUMPDEST PUSH2 0x49B DUP7 DUP3 DUP8 ADD PUSH2 0x3FB JUMP JUMPDEST SWAP2 POP POP SWAP3 POP SWAP3 POP SWAP3 JUMP JUMPDEST PUSH1 0x0 DUP2 MLOAD SWAP1 POP SWAP2 SWAP1 POP JUMP JUMPDEST PUSH1 0x0 DUP3 DUP3 MSTORE PUSH1 0x20 DUP3 ADD SWAP1 POP SWAP3 SWAP2 POP POP JUMP JUMPDEST PUSH1 0x0 JUMPDEST DUP4 DUP2 LT ISZERO PUSH2 0x4DF JUMPI DUP1 DUP3 ADD MLOAD DUP2 DUP5 ADD MSTORE PUSH1 0x20 DUP2 ADD SWAP1 POP PUSH2 0x4C4 JUMP JUMPDEST PUSH1 0x0 DUP5 DUP5 ADD MSTORE POP POP POP POP JUMP JUMPDEST PUSH1 0x0 PUSH2 0x4F6 DUP3 PUSH2 0x4A5 JUMP JUMPDEST PUSH2 0x500 DUP2 DUP6 PUSH2 0x4B0 JUMP JUMPDEST SWAP4 POP PUSH2 0x510 DUP2 DUP6 PUSH1 0x20 DUP7 ADD PUSH2 0x4C1 JUMP JUMPDEST PUSH2 0x519 DUP2 PUSH2 0x2ED JUMP JUMPDEST DUP5 ADD SWAP2 POP POP SWAP3 SWAP2 POP POP JUMP JUMPDEST PUSH1 0x0 PUSH1 0x20 DUP3 ADD SWAP1 POP DUP2 DUP2 SUB PUSH1 0x0 DUP4 ADD MSTORE PUSH2 0x53E DUP2 DUP5 PUSH2 0x4EB JUMP JUMPDEST SWAP1 POP SWAP3 SWAP2 POP POP JUMP JUMPDEST PUSH1 0x0 DUP3 DUP3 MSTORE PUSH1 0x20 DUP3 ADD SWAP1 POP SWAP3 SWAP2 POP POP JUMP JUMPDEST PUSH1 0x0 PUSH2 0x563 DUP4 DUP6 PUSH2 0x546 JUMP JUMPDEST SWAP4 POP PUSH2 0x570 DUP4 DUP6 DUP5 PUSH2 0x3AA JUMP JUMPDEST PUSH2 0x579 DUP4 PUSH2 0x2ED JUMP JUMPDEST DUP5 ADD SWAP1 POP SWAP4 SWAP3 POP POP POP JUMP JUMPDEST PUSH1 0x0 PUSH1 0x20 DUP3 ADD SWAP1 POP DUP2 DUP2 SUB PUSH1 0x0 DUP4 ADD MSTORE PUSH2 0x59F DUP2 DUP5 DUP7 PUSH2 0x557 JUMP JUMPDEST SWAP1 POP SWAP4 SWAP3 POP POP POP JUMP JUMPDEST PUSH1 0x0 DUP1 REVERT JUMPDEST PUSH1 0x0 DUP1 REVERT JUMPDEST PUSH1 0x0 DUP2 SWAP1 POP SWAP2 SWAP1 POP JUMP JUMPDEST PUSH2 0x5C5 DUP2 PUSH2 0x5B2 JUMP JUMPDEST DUP2 EQ PUSH2 0x5D0 JUMPI PUSH1 0x0 DUP1 REVERT JUMPDEST POP JUMP JUMPDEST PUSH1 0x0 DUP2 MLOAD SWAP1 POP PUSH2 0x5E2 DUP2 PUSH2 0x5BC JUMP JUMPDEST SWAP3 SWAP2 POP POP JUMP JUMPDEST PUSH1 0x0 PUSH8 0xFFFFFFFFFFFFFFFF DUP3 GT ISZERO PUSH2 0x603 JUMPI PUSH2 0x602 PUSH2 0x2FE JUMP JUMPDEST JUMPDEST PUSH1 0x20 DUP3 MUL SWAP1 POP PUSH1 0x20 DUP2 ADD SWAP1 POP SWAP2 SWAP1 POP JUMP JUMPDEST PUSH1 0x0 DUP2 SWAP1 POP SWAP2 SWAP1 POP JUMP JUMPDEST PUSH2 0x627 DUP2 PUSH2 0x614 JUMP JUMPDEST DUP2 EQ PUSH2 0x632 JUMPI PUSH1 0x0 DUP1 REVERT JUMPDEST POP JUMP JUMPDEST PUSH1 0x0 DUP2 MLOAD SWAP1 POP PUSH2 0x644 DUP2 PUSH2 0x61E JUMP JUMPDEST SWAP3 SWAP2 POP POP JUMP JUMPDEST PUSH1 0x0 PUSH2 0x655 DUP3 PUSH2 0x1D5 JUMP JUMPDEST SWAP1 POP SWAP2 SWAP1 POP JUMP JUMPDEST PUSH2 0x665 DUP2 PUSH2 0x64A JUMP JUMPDEST DUP2 EQ PUSH2 0x670 JUMPI PUSH1 0x0 DUP1 REVERT JUMPDEST POP JUMP JUMPDEST PUSH1 0x0 DUP2 MLOAD SWAP1 POP PUSH2 0x682 DUP2 PUSH2 0x65C JUMP JUMPDEST SWAP3 SWAP2 POP POP JUMP JUMPDEST PUSH1 0x0 PUSH1 0x40 DUP3 DUP5 SUB SLT ISZERO PUSH2 0x69E JUMPI PUSH2 0x69D PUSH2 0x5A8 JUMP JUMPDEST JUMPDEST PUSH2 0x6A8 PUSH1 0x40 PUSH2 0x35E JUMP JUMPDEST SWAP1 POP PUSH1 0x0 PUSH2 0x6B8 DUP5 DUP3 DUP6 ADD PUSH2 0x635 JUMP JUMPDEST PUSH1 0x0 DUP4 ADD MSTORE POP PUSH1 0x20 PUSH2 0x6CC DUP5 DUP3 DUP6 ADD PUSH2 0x673 JUMP JUMPDEST PUSH1 0x20 DUP4 ADD MSTORE POP SWAP3 SWAP2 POP POP JUMP JUMPDEST PUSH1 0x0 PUSH2 0x6EB PUSH2 0x6E6 DUP5 PUSH2 0x5E8 JUMP JUMPDEST PUSH2 0x35E JUMP JUMPDEST SWAP1 POP DUP1 DUP4 DUP3 MSTORE PUSH1 0x20 DUP3 ADD SWAP1 POP PUSH1 0x40 DUP5 MUL DUP4 ADD DUP6 DUP2 GT ISZERO PUSH2 0x70E JUMPI PUSH2 0x70D PUSH2 0x28D JUMP JUMPDEST JUMPDEST DUP4 JUMPDEST DUP2 DUP2 LT ISZERO PUSH2 0x737 JUMPI DUP1 PUSH2 0x723 DUP9 DUP3 PUSH2 0x688 JUMP JUMPDEST DUP5 MSTORE PUSH1 0x20 DUP5 ADD SWAP4 POP POP PUSH1 0x40 DUP2 ADD SWAP1 POP PUSH2 0x710 JUMP JUMPDEST POP POP POP SWAP4 SWAP3 POP POP POP JUMP JUMPDEST PUSH1 0x0 DUP3 PUSH1 0x1F DUP4 ADD SLT PUSH2 0x756 JUMPI PUSH2 0x755 PUSH2 0x283 JUMP JUMPDEST JUMPDEST DUP2 MLOAD PUSH2 0x766 DUP5 DUP3 PUSH1 0x20 DUP7 ADD PUSH2 0x6D8 JUMP JUMPDEST SWAP2 POP POP SWAP3 SWAP2 POP POP JUMP JUMPDEST PUSH1 0x0 PUSH1 0x40 DUP3 DUP5 SUB SLT ISZERO PUSH2 0x785 JUMPI PUSH2 0x784 PUSH2 0x5A8 JUMP JUMPDEST JUMPDEST PUSH2 0x78F PUSH1 0x40 PUSH2 0x35E JUMP JUMPDEST SWAP1 POP PUSH1 0x0 PUSH2 0x79F DUP5 DUP3 DUP6 ADD PUSH2 0x5D3 JUMP JUMPDEST PUSH1 0x0 DUP4 ADD MSTORE POP PUSH1 0x20 DUP3 ADD MLOAD PUSH8 0xFFFFFFFFFFFFFFFF DUP2 GT ISZERO PUSH2 0x7C3 JUMPI PUSH2 0x7C2 PUSH2 0x5AD JUMP JUMPDEST JUMPDEST PUSH2 0x7CF DUP5 DUP3 DUP6 ADD PUSH2 0x741 JUMP JUMPDEST PUSH1 0x20 DUP4 ADD MSTORE POP SWAP3 SWAP2 POP POP JUMP JUMPDEST PUSH1 0x0 PUSH1 0x20 DUP3 DUP5 SUB SLT ISZERO PUSH2 0x7F1 JUMPI PUSH2 0x7F0 PUSH2 0x279 JUMP JUMPDEST JUMPDEST PUSH1 0x0 DUP3 ADD MLOAD PUSH8 0xFFFFFFFFFFFFFFFF DUP2 GT ISZERO PUSH2 0x80F JUMPI PUSH2 0x80E PUSH2 0x27E JUMP JUMPDEST JUMPDEST PUSH2 0x81B DUP5 DUP3 DUP6 ADD PUSH2 0x76F JUMP JUMPDEST SWAP2 POP POP SWAP3 SWAP2 POP POP JUMP INVALID LOG2 PUSH5 0x6970667358 0x22 SLT KECCAK256 PUSH3 0xA27616 PUSH6 0x674C61151FBB LT DUP12 PUSH17 0x41A19DB967BD8EF061AD3CDBA5931E6D1E JUMP PUSH5 0x736F6C6343 STOP ADDMOD GT STOP CALLER "},"methodIdentifiers":{"fileStore()":"21ea07e1","getScript(string,bytes)":"f9635594"}}}}}