{"src/contracts/FrameFactory.sol":{"FrameFactory":{"abi":[{"inputs":[],"stateMutability":"nonpayable","type":"constructor"},{"anonymous":false,"inputs":[{"indexed":false,"internalType":"address","name":"newAddress","type":"address"}],"name":"FrameCreated","type":"event"},{"inputs":[{"internalType":"contract IFrameDataStoreFactory","name":"_frameDataStoreFactory","type":"address"},{"components":[{"internalType":"string","name":"wrapperKey","type":"string"},{"internalType":"string","name":"key","type":"string"},{"internalType":"address","name":"wrapperStore","type":"address"},{"internalType":"address","name":"store","type":"address"}],"internalType":"struct IFrame.Asset[]","name":"_deps","type":"tuple[]"},{"internalType":"bytes[]","name":"_newData","type":"bytes[]"},{"internalType":"address","name":"_pageWrapStore","type":"address"},{"internalType":"uint256[4][]","name":"_renderMap","type":"uint256[4][]"},{"internalType":"string","name":"_name","type":"string"}],"name":"createFrameWithSource","outputs":[{"internalType":"address","name":"","type":"address"}],"stateMutability":"nonpayable","type":"function"},{"inputs":[],"name":"libraryAddress","outputs":[{"internalType":"address","name":"","type":"address"}],"stateMutability":"view","type":"function"},{"inputs":[{"internalType":"address","name":"_libraryAddress","type":"address"}],"name":"setLibraryAddress","outputs":[],"stateMutability":"nonpayable","type":"function"}],"evm":{"bytecode":{"linkReferences":{},"object":"608060405234801561001057600080fd5b506112d0806100206000396000f3fe608060405234801561001057600080fd5b50600436106100415760003560e01c80634863ba1714610046578063789b9b4514610062578063b816f51314610092575b600080fd5b610060600480360381019061005b9190610643565b6100b0565b005b61007c60048036038101906100779190610a9b565b610182565b6040516100899190610bb5565b60405180910390f35b61009a610543565b6040516100a79190610bb5565b60405180910390f35b600073ffffffffffffffffffffffffffffffffffffffff1660008054906101000a900473ffffffffffffffffffffffffffffffffffffffff1673ffffffffffffffffffffffffffffffffffffffff161461013f576040517f08c379a000000000000000000000000000000000000000000000000000000000815260040161013690610c53565b60405180910390fd5b806000806101000a81548173ffffffffffffffffffffffffffffffffffffffff021916908373ffffffffffffffffffffffffffffffffffffffff16021790555050565b6000806101ae60008054906101000a900473ffffffffffffffffffffffffffffffffffffffff16610567565b905060008b73ffffffffffffffffffffffffffffffffffffffff1663bdbbea5286866040518363ffffffff1660e01b81526004016101ed929190610cec565b6020604051808303816000875af115801561020c573d6000803e3d6000fd5b505050506040513d601f19601f820116820180604052508101906102309190610d38565b90506000805b8c518110156103b857600073ffffffffffffffffffffffffffffffffffffffff168d828151811061026a57610269610d65565b5b60200260200101516060015173ffffffffffffffffffffffffffffffffffffffff16036103a5578273ffffffffffffffffffffffffffffffffffffffff16636af42a8c8e83815181106102c0576102bf610d65565b5b60200260200101516020015160008f8f878181106102e1576102e0610d65565b5b90506020028101906102f39190610da3565b6040518563ffffffff1660e01b81526004016103129493929190610f13565b600060405180830381600087803b15801561032c57600080fd5b505af1158015610340573d6000803e3d6000fd5b50505050818061034f90610f93565b925050828d828151811061036657610365610d65565b5b60200260200101516060019073ffffffffffffffffffffffffffffffffffffffff16908173ffffffffffffffffffffffffffffffffffffffff16815250505b80806103b090610f93565b915050610236565b508273ffffffffffffffffffffffffffffffffffffffff1663bbb69b968d848c8c8c6040518663ffffffff1660e01b81526004016103fa959493929190611221565b600060405180830381600087803b15801561041457600080fd5b505af1158015610428573d6000803e3d6000fd5b505050508273ffffffffffffffffffffffffffffffffffffffff1663c47f002787876040518363ffffffff1660e01b8152600401610467929190611276565b600060405180830381600087803b15801561048157600080fd5b505af1158015610495573d6000803e3d6000fd5b505050508173ffffffffffffffffffffffffffffffffffffffff1663f83d08ba6040518163ffffffff1660e01b8152600401600060405180830381600087803b1580156104e157600080fd5b505af11580156104f5573d6000803e3d6000fd5b505050507f62392641265fcc5a6a8128fd39634480ffe377e76dc54dcad335e1289fcc0fd5836040516105289190610bb5565b60405180910390a18293505050509998505050505050505050565b60008054906101000a900473ffffffffffffffffffffffffffffffffffffffff1681565b6000808260601b90506040517f3d602d80600a3d3981f3363d3d373d3d3d363d7300000000000000000000000081528160148201527f5af43d82803e903d91602b57fd5bf3000000000000000000000000000000000060288201526037816000f092505050919050565b6000604051905090565b600080fd5b600080fd5b600073ffffffffffffffffffffffffffffffffffffffff82169050919050565b6000610610826105e5565b9050919050565b61062081610605565b811461062b57600080fd5b50565b60008135905061063d81610617565b92915050565b600060208284031215610659576106586105db565b5b60006106678482850161062e565b91505092915050565b600061067b82610605565b9050919050565b61068b81610670565b811461069657600080fd5b50565b6000813590506106a881610682565b92915050565b600080fd5b6000601f19601f8301169050919050565b7f4e487b7100000000000000000000000000000000000000000000000000000000600052604160045260246000fd5b6106fc826106b3565b810181811067ffffffffffffffff8211171561071b5761071a6106c4565b5b80604052505050565b600061072e6105d1565b905061073a82826106f3565b919050565b600067ffffffffffffffff82111561075a576107596106c4565b5b602082029050602081019050919050565b600080fd5b600080fd5b600080fd5b600080fd5b600067ffffffffffffffff82111561079a576107996106c4565b5b6107a3826106b3565b9050602081019050919050565b82818337600083830152505050565b60006107d26107cd8461077f565b610724565b9050828152602081018484840111156107ee576107ed61077a565b5b6107f98482856107b0565b509392505050565b600082601f830112610816576108156106ae565b5b81356108268482602086016107bf565b91505092915050565b60006080828403121561084557610844610770565b5b61084f6080610724565b9050600082013567ffffffffffffffff81111561086f5761086e610775565b5b61087b84828501610801565b600083015250602082013567ffffffffffffffff81111561089f5761089e610775565b5b6108ab84828501610801565b60208301525060406108bf8482850161062e565b60408301525060606108d38482850161062e565b60608301525092915050565b60006108f26108ed8461073f565b610724565b905080838252602082019050602084028301858111156109155761091461076b565b5b835b8181101561095c57803567ffffffffffffffff81111561093a576109396106ae565b5b808601610947898261082f565b85526020850194505050602081019050610917565b5050509392505050565b600082601f83011261097b5761097a6106ae565b5b813561098b8482602086016108df565b91505092915050565b600080fd5b60008083601f8401126109af576109ae6106ae565b5b8235905067ffffffffffffffff8111156109cc576109cb610994565b5b6020830191508360208202830111156109e8576109e761076b565b5b9250929050565b60008083601f840112610a0557610a046106ae565b5b8235905067ffffffffffffffff811115610a2257610a21610994565b5b602083019150836080820283011115610a3e57610a3d61076b565b5b9250929050565b60008083601f840112610a5b57610a5a6106ae565b5b8235905067ffffffffffffffff811115610a7857610a77610994565b5b602083019150836001820283011115610a9457610a9361076b565b5b9250929050565b600080600080600080600080600060c08a8c031215610abd57610abc6105db565b5b6000610acb8c828d01610699565b99505060208a013567ffffffffffffffff811115610aec57610aeb6105e0565b5b610af88c828d01610966565b98505060408a013567ffffffffffffffff811115610b1957610b186105e0565b5b610b258c828d01610999565b97509750506060610b388c828d0161062e565b95505060808a013567ffffffffffffffff811115610b5957610b586105e0565b5b610b658c828d016109ef565b945094505060a08a013567ffffffffffffffff811115610b8857610b876105e0565b5b610b948c828d01610a45565b92509250509295985092959850929598565b610baf81610605565b82525050565b6000602082019050610bca6000830184610ba6565b92915050565b600082825260208201905092915050565b7f4672616d65466163746f72793a204c69627261727920616c726561647920736560008201527f7400000000000000000000000000000000000000000000000000000000000000602082015250565b6000610c3d602183610bd0565b9150610c4882610be1565b604082019050919050565b60006020820190508181036000830152610c6c81610c30565b9050919050565b6000610c7f8385610bd0565b9350610c8c8385846107b0565b610c95836106b3565b840190509392505050565b7f312e302e30000000000000000000000000000000000000000000000000000000600082015250565b6000610cd6600583610bd0565b9150610ce182610ca0565b602082019050919050565b60006040820190508181036000830152610d07818486610c73565b90508181036020830152610d1a81610cc9565b90509392505050565b600081519050610d3281610617565b92915050565b600060208284031215610d4e57610d4d6105db565b5b6000610d5c84828501610d23565b91505092915050565b7f4e487b7100000000000000000000000000000000000000000000000000000000600052603260045260246000fd5b600080fd5b600080fd5b600080fd5b60008083356001602003843603038112610dc057610dbf610d94565b5b80840192508235915067ffffffffffffffff821115610de257610de1610d99565b5b602083019250600182023603831315610dfe57610dfd610d9e565b5b509250929050565b600081519050919050565b60005b83811015610e2f578082015181840152602081019050610e14565b60008484015250505050565b6000610e4682610e06565b610e508185610bd0565b9350610e60818560208601610e11565b610e69816106b3565b840191505092915050565b6000819050919050565b60006fffffffffffffffffffffffffffffffff82169050919050565b6000819050919050565b6000610ebf610eba610eb584610e74565b610e9a565b610e7e565b9050919050565b610ecf81610ea4565b82525050565b600082825260208201905092915050565b6000610ef28385610ed5565b9350610eff8385846107b0565b610f08836106b3565b840190509392505050565b60006060820190508181036000830152610f2d8187610e3b565b9050610f3c6020830186610ec6565b8181036040830152610f4f818486610ee6565b905095945050505050565b7f4e487b7100000000000000000000000000000000000000000000000000000000600052601160045260246000fd5b6000819050919050565b6000610f9e82610f89565b91507fffffffffffffffffffffffffffffffffffffffffffffffffffffffffffffffff8203610fd057610fcf610f5a565b5b600182019050919050565b600081519050919050565b600082825260208201905092915050565b6000819050602082019050919050565b600082825260208201905092915050565b600061102382610e06565b61102d8185611007565b935061103d818560208601610e11565b611046816106b3565b840191505092915050565b61105a81610605565b82525050565b6000608083016000830151848203600086015261107d8282611018565b915050602083015184820360208601526110978282611018565b91505060408301516110ac6040860182611051565b5060608301516110bf6060860182611051565b508091505092915050565b60006110d68383611060565b905092915050565b6000602082019050919050565b60006110f682610fdb565b6111008185610fe6565b93508360208202850161111285610ff7565b8060005b8581101561114e578484038952815161112f85826110ca565b945061113a836110de565b925060208a01995050600181019050611116565b50829750879550505050505092915050565b600082825260208201905092915050565b6000819050919050565b82818337505050565b6111906080838361117b565b5050565b60006111a08383611184565b60808301905092915050565b600082905092915050565b6000608082019050919050565b60006111d08385611160565b93506111db82611171565b8060005b85811015611214576111f182846111ac565b6111fb8882611194565b9750611206836111b7565b9250506001810190506111df565b5085925050509392505050565b6000608082019050818103600083015261123b81886110eb565b905061124a6020830187610ba6565b6112576040830186610ba6565b818103606083015261126a8184866111c4565b90509695505050505050565b60006020820190508181036000830152611291818486610c73565b9050939250505056fea264697066735822122035263f0252c2d121921505397eefe04a2d1bc3909d0afe3008ff9036a79aea5e64736f6c63430008110033","opcodes":"PUSH1 0x80 PUSH1 0x40 MSTORE CALLVALUE DUP1 ISZERO PUSH2 0x10 JUMPI PUSH1 0x0 DUP1 REVERT JUMPDEST POP PUSH2 0x12D0 DUP1 PUSH2 0x20 PUSH1 0x0 CODECOPY PUSH1 0x0 RETURN INVALID PUSH1 0x80 PUSH1 0x40 MSTORE CALLVALUE DUP1 ISZERO PUSH2 0x10 JUMPI PUSH1 0x0 DUP1 REVERT JUMPDEST POP PUSH1 0x4 CALLDATASIZE LT PUSH2 0x41 JUMPI PUSH1 0x0 CALLDATALOAD PUSH1 0xE0 SHR DUP1 PUSH4 0x4863BA17 EQ PUSH2 0x46 JUMPI DUP1 PUSH4 0x789B9B45 EQ PUSH2 0x62 JUMPI DUP1 PUSH4 0xB816F513 EQ PUSH2 0x92 JUMPI JUMPDEST PUSH1 0x0 DUP1 REVERT JUMPDEST PUSH2 0x60 PUSH1 0x4 DUP1 CALLDATASIZE SUB DUP2 ADD SWAP1 PUSH2 0x5B SWAP2 SWAP1 PUSH2 0x643 JUMP JUMPDEST PUSH2 0xB0 JUMP JUMPDEST STOP JUMPDEST PUSH2 0x7C PUSH1 0x4 DUP1 CALLDATASIZE SUB DUP2 ADD SWAP1 PUSH2 0x77 SWAP2 SWAP1 PUSH2 0xA9B JUMP JUMPDEST PUSH2 0x182 JUMP JUMPDEST PUSH1 0x40 MLOAD PUSH2 0x89 SWAP2 SWAP1 PUSH2 0xBB5 JUMP JUMPDEST PUSH1 0x40 MLOAD DUP1 SWAP2 SUB SWAP1 RETURN JUMPDEST PUSH2 0x9A PUSH2 0x543 JUMP JUMPDEST PUSH1 0x40 MLOAD PUSH2 0xA7 SWAP2 SWAP1 PUSH2 0xBB5 JUMP JUMPDEST PUSH1 0x40 MLOAD DUP1 SWAP2 SUB SWAP1 RETURN JUMPDEST PUSH1 0x0 PUSH20 0xFFFFFFFFFFFFFFFFFFFFFFFFFFFFFFFFFFFFFFFF AND PUSH1 0x0 DUP1 SLOAD SWAP1 PUSH2 0x100 EXP SWAP1 DIV PUSH20 0xFFFFFFFFFFFFFFFFFFFFFFFFFFFFFFFFFFFFFFFF AND PUSH20 0xFFFFFFFFFFFFFFFFFFFFFFFFFFFFFFFFFFFFFFFF AND EQ PUSH2 0x13F JUMPI PUSH1 0x40 MLOAD PUSH32 0x8C379A000000000000000000000000000000000000000000000000000000000 DUP2 MSTORE PUSH1 0x4 ADD PUSH2 0x136 SWAP1 PUSH2 0xC53 JUMP JUMPDEST PUSH1 0x40 MLOAD DUP1 SWAP2 SUB SWAP1 REVERT JUMPDEST DUP1 PUSH1 0x0 DUP1 PUSH2 0x100 EXP DUP2 SLOAD DUP2 PUSH20 0xFFFFFFFFFFFFFFFFFFFFFFFFFFFFFFFFFFFFFFFF MUL NOT AND SWAP1 DUP4 PUSH20 0xFFFFFFFFFFFFFFFFFFFFFFFFFFFFFFFFFFFFFFFF AND MUL OR SWAP1 SSTORE POP POP JUMP JUMPDEST PUSH1 0x0 DUP1 PUSH2 0x1AE PUSH1 0x0 DUP1 SLOAD SWAP1 PUSH2 0x100 EXP SWAP1 DIV PUSH20 0xFFFFFFFFFFFFFFFFFFFFFFFFFFFFFFFFFFFFFFFF AND PUSH2 0x567 JUMP JUMPDEST SWAP1 POP PUSH1 0x0 DUP12 PUSH20 0xFFFFFFFFFFFFFFFFFFFFFFFFFFFFFFFFFFFFFFFF AND PUSH4 0xBDBBEA52 DUP7 DUP7 PUSH1 0x40 MLOAD DUP4 PUSH4 0xFFFFFFFF AND PUSH1 0xE0 SHL DUP2 MSTORE PUSH1 0x4 ADD PUSH2 0x1ED SWAP3 SWAP2 SWAP1 PUSH2 0xCEC JUMP JUMPDEST PUSH1 0x20 PUSH1 0x40 MLOAD DUP1 DUP4 SUB DUP2 PUSH1 0x0 DUP8 GAS CALL ISZERO DUP1 ISZERO PUSH2 0x20C JUMPI RETURNDATASIZE PUSH1 0x0 DUP1 RETURNDATACOPY RETURNDATASIZE PUSH1 0x0 REVERT JUMPDEST POP POP POP POP PUSH1 0x40 MLOAD RETURNDATASIZE PUSH1 0x1F NOT PUSH1 0x1F DUP3 ADD AND DUP3 ADD DUP1 PUSH1 0x40 MSTORE POP DUP2 ADD SWAP1 PUSH2 0x230 SWAP2 SWAP1 PUSH2 0xD38 JUMP JUMPDEST SWAP1 POP PUSH1 0x0 DUP1 JUMPDEST DUP13 MLOAD DUP2 LT ISZERO PUSH2 0x3B8 JUMPI PUSH1 0x0 PUSH20 0xFFFFFFFFFFFFFFFFFFFFFFFFFFFFFFFFFFFFFFFF AND DUP14 DUP3 DUP2 MLOAD DUP2 LT PUSH2 0x26A JUMPI PUSH2 0x269 PUSH2 0xD65 JUMP JUMPDEST JUMPDEST PUSH1 0x20 MUL PUSH1 0x20 ADD ADD MLOAD PUSH1 0x60 ADD MLOAD PUSH20 0xFFFFFFFFFFFFFFFFFFFFFFFFFFFFFFFFFFFFFFFF AND SUB PUSH2 0x3A5 JUMPI DUP3 PUSH20 0xFFFFFFFFFFFFFFFFFFFFFFFFFFFFFFFFFFFFFFFF AND PUSH4 0x6AF42A8C DUP15 DUP4 DUP2 MLOAD DUP2 LT PUSH2 0x2C0 JUMPI PUSH2 0x2BF PUSH2 0xD65 JUMP JUMPDEST JUMPDEST PUSH1 0x20 MUL PUSH1 0x20 ADD ADD MLOAD PUSH1 0x20 ADD MLOAD PUSH1 0x0 DUP16 DUP16 DUP8 DUP2 DUP2 LT PUSH2 0x2E1 JUMPI PUSH2 0x2E0 PUSH2 0xD65 JUMP JUMPDEST JUMPDEST SWAP1 POP PUSH1 0x20 MUL DUP2 ADD SWAP1 PUSH2 0x2F3 SWAP2 SWAP1 PUSH2 0xDA3 JUMP JUMPDEST PUSH1 0x40 MLOAD DUP6 PUSH4 0xFFFFFFFF AND PUSH1 0xE0 SHL DUP2 MSTORE PUSH1 0x4 ADD PUSH2 0x312 SWAP5 SWAP4 SWAP3 SWAP2 SWAP1 PUSH2 0xF13 JUMP JUMPDEST PUSH1 0x0 PUSH1 0x40 MLOAD DUP1 DUP4 SUB DUP2 PUSH1 0x0 DUP8 DUP1 EXTCODESIZE ISZERO DUP1 ISZERO PUSH2 0x32C JUMPI PUSH1 0x0 DUP1 REVERT JUMPDEST POP GAS CALL ISZERO DUP1 ISZERO PUSH2 0x340 JUMPI RETURNDATASIZE PUSH1 0x0 DUP1 RETURNDATACOPY RETURNDATASIZE PUSH1 0x0 REVERT JUMPDEST POP POP POP POP DUP2 DUP1 PUSH2 0x34F SWAP1 PUSH2 0xF93 JUMP JUMPDEST SWAP3 POP POP DUP3 DUP14 DUP3 DUP2 MLOAD DUP2 LT PUSH2 0x366 JUMPI PUSH2 0x365 PUSH2 0xD65 JUMP JUMPDEST JUMPDEST PUSH1 0x20 MUL PUSH1 0x20 ADD ADD MLOAD PUSH1 0x60 ADD SWAP1 PUSH20 0xFFFFFFFFFFFFFFFFFFFFFFFFFFFFFFFFFFFFFFFF AND SWAP1 DUP2 PUSH20 0xFFFFFFFFFFFFFFFFFFFFFFFFFFFFFFFFFFFFFFFF AND DUP2 MSTORE POP POP JUMPDEST DUP1 DUP1 PUSH2 0x3B0 SWAP1 PUSH2 0xF93 JUMP JUMPDEST SWAP2 POP POP PUSH2 0x236 JUMP JUMPDEST POP DUP3 PUSH20 0xFFFFFFFFFFFFFFFFFFFFFFFFFFFFFFFFFFFFFFFF AND PUSH4 0xBBB69B96 DUP14 DUP5 DUP13 DUP13 DUP13 PUSH1 0x40 MLOAD DUP7 PUSH4 0xFFFFFFFF AND PUSH1 0xE0 SHL DUP2 MSTORE PUSH1 0x4 ADD PUSH2 0x3FA SWAP6 SWAP5 SWAP4 SWAP3 SWAP2 SWAP1 PUSH2 0x1221 JUMP JUMPDEST PUSH1 0x0 PUSH1 0x40 MLOAD DUP1 DUP4 SUB DUP2 PUSH1 0x0 DUP8 DUP1 EXTCODESIZE ISZERO DUP1 ISZERO PUSH2 0x414 JUMPI PUSH1 0x0 DUP1 REVERT JUMPDEST POP GAS CALL ISZERO DUP1 ISZERO PUSH2 0x428 JUMPI RETURNDATASIZE PUSH1 0x0 DUP1 RETURNDATACOPY RETURNDATASIZE PUSH1 0x0 REVERT JUMPDEST POP POP POP POP DUP3 PUSH20 0xFFFFFFFFFFFFFFFFFFFFFFFFFFFFFFFFFFFFFFFF AND PUSH4 0xC47F0027 DUP8 DUP8 PUSH1 0x40 MLOAD DUP4 PUSH4 0xFFFFFFFF AND PUSH1 0xE0 SHL DUP2 MSTORE PUSH1 0x4 ADD PUSH2 0x467 SWAP3 SWAP2 SWAP1 PUSH2 0x1276 JUMP JUMPDEST PUSH1 0x0 PUSH1 0x40 MLOAD DUP1 DUP4 SUB DUP2 PUSH1 0x0 DUP8 DUP1 EXTCODESIZE ISZERO DUP1 ISZERO PUSH2 0x481 JUMPI PUSH1 0x0 DUP1 REVERT JUMPDEST POP GAS CALL ISZERO DUP1 ISZERO PUSH2 0x495 JUMPI RETURNDATASIZE PUSH1 0x0 DUP1 RETURNDATACOPY RETURNDATASIZE PUSH1 0x0 REVERT JUMPDEST POP POP POP POP DUP2 PUSH20 0xFFFFFFFFFFFFFFFFFFFFFFFFFFFFFFFFFFFFFFFF AND PUSH4 0xF83D08BA PUSH1 0x40 MLOAD DUP2 PUSH4 0xFFFFFFFF AND PUSH1 0xE0 SHL DUP2 MSTORE PUSH1 0x4 ADD PUSH1 0x0 PUSH1 0x40 MLOAD DUP1 DUP4 SUB DUP2 PUSH1 0x0 DUP8 DUP1 EXTCODESIZE ISZERO DUP1 ISZERO PUSH2 0x4E1 JUMPI PUSH1 0x0 DUP1 REVERT JUMPDEST POP GAS CALL ISZERO DUP1 ISZERO PUSH2 0x4F5 JUMPI RETURNDATASIZE PUSH1 0x0 DUP1 RETURNDATACOPY RETURNDATASIZE PUSH1 0x0 REVERT JUMPDEST POP POP POP POP PUSH32 0x62392641265FCC5A6A8128FD39634480FFE377E76DC54DCAD335E1289FCC0FD5 DUP4 PUSH1 0x40 MLOAD PUSH2 0x528 SWAP2 SWAP1 PUSH2 0xBB5 JUMP JUMPDEST PUSH1 0x40 MLOAD DUP1 SWAP2 SUB SWAP1 LOG1 DUP3 SWAP4 POP POP POP POP SWAP10 SWAP9 POP POP POP POP POP POP POP POP POP JUMP JUMPDEST PUSH1 0x0 DUP1 SLOAD SWAP1 PUSH2 0x100 EXP SWAP1 DIV PUSH20 0xFFFFFFFFFFFFFFFFFFFFFFFFFFFFFFFFFFFFFFFF AND DUP2 JUMP JUMPDEST PUSH1 0x0 DUP1 DUP3 PUSH1 0x60 SHL SWAP1 POP PUSH1 0x40 MLOAD PUSH32 0x3D602D80600A3D3981F3363D3D373D3D3D363D73000000000000000000000000 DUP2 MSTORE DUP2 PUSH1 0x14 DUP3 ADD MSTORE PUSH32 0x5AF43D82803E903D91602B57FD5BF30000000000000000000000000000000000 PUSH1 0x28 DUP3 ADD MSTORE PUSH1 0x37 DUP2 PUSH1 0x0 CREATE SWAP3 POP POP POP SWAP2 SWAP1 POP JUMP JUMPDEST PUSH1 0x0 PUSH1 0x40 MLOAD SWAP1 POP SWAP1 JUMP JUMPDEST PUSH1 0x0 DUP1 REVERT JUMPDEST PUSH1 0x0 DUP1 REVERT JUMPDEST PUSH1 0x0 PUSH20 0xFFFFFFFFFFFFFFFFFFFFFFFFFFFFFFFFFFFFFFFF DUP3 AND SWAP1 POP SWAP2 SWAP1 POP JUMP JUMPDEST PUSH1 0x0 PUSH2 0x610 DUP3 PUSH2 0x5E5 JUMP JUMPDEST SWAP1 POP SWAP2 SWAP1 POP JUMP JUMPDEST PUSH2 0x620 DUP2 PUSH2 0x605 JUMP JUMPDEST DUP2 EQ PUSH2 0x62B JUMPI PUSH1 0x0 DUP1 REVERT JUMPDEST POP JUMP JUMPDEST PUSH1 0x0 DUP2 CALLDATALOAD SWAP1 POP PUSH2 0x63D DUP2 PUSH2 0x617 JUMP JUMPDEST SWAP3 SWAP2 POP POP JUMP JUMPDEST PUSH1 0x0 PUSH1 0x20 DUP3 DUP5 SUB SLT ISZERO PUSH2 0x659 JUMPI PUSH2 0x658 PUSH2 0x5DB JUMP JUMPDEST JUMPDEST PUSH1 0x0 PUSH2 0x667 DUP5 DUP3 DUP6 ADD PUSH2 0x62E JUMP JUMPDEST SWAP2 POP POP SWAP3 SWAP2 POP POP JUMP JUMPDEST PUSH1 0x0 PUSH2 0x67B DUP3 PUSH2 0x605 JUMP JUMPDEST SWAP1 POP SWAP2 SWAP1 POP JUMP JUMPDEST PUSH2 0x68B DUP2 PUSH2 0x670 JUMP JUMPDEST DUP2 EQ PUSH2 0x696 JUMPI PUSH1 0x0 DUP1 REVERT JUMPDEST POP JUMP JUMPDEST PUSH1 0x0 DUP2 CALLDATALOAD SWAP1 POP PUSH2 0x6A8 DUP2 PUSH2 0x682 JUMP JUMPDEST SWAP3 SWAP2 POP POP JUMP JUMPDEST PUSH1 0x0 DUP1 REVERT JUMPDEST PUSH1 0x0 PUSH1 0x1F NOT PUSH1 0x1F DUP4 ADD AND SWAP1 POP SWAP2 SWAP1 POP JUMP JUMPDEST PUSH32 0x4E487B7100000000000000000000000000000000000000000000000000000000 PUSH1 0x0 MSTORE PUSH1 0x41 PUSH1 0x4 MSTORE PUSH1 0x24 PUSH1 0x0 REVERT JUMPDEST PUSH2 0x6FC DUP3 PUSH2 0x6B3 JUMP JUMPDEST DUP2 ADD DUP2 DUP2 LT PUSH8 0xFFFFFFFFFFFFFFFF DUP3 GT OR ISZERO PUSH2 0x71B JUMPI PUSH2 0x71A PUSH2 0x6C4 JUMP JUMPDEST JUMPDEST DUP1 PUSH1 0x40 MSTORE POP POP POP JUMP JUMPDEST PUSH1 0x0 PUSH2 0x72E PUSH2 0x5D1 JUMP JUMPDEST SWAP1 POP PUSH2 0x73A DUP3 DUP3 PUSH2 0x6F3 JUMP JUMPDEST SWAP2 SWAP1 POP JUMP JUMPDEST PUSH1 0x0 PUSH8 0xFFFFFFFFFFFFFFFF DUP3 GT ISZERO PUSH2 0x75A JUMPI PUSH2 0x759 PUSH2 0x6C4 JUMP JUMPDEST JUMPDEST PUSH1 0x20 DUP3 MUL SWAP1 POP PUSH1 0x20 DUP2 ADD SWAP1 POP SWAP2 SWAP1 POP JUMP JUMPDEST PUSH1 0x0 DUP1 REVERT JUMPDEST PUSH1 0x0 DUP1 REVERT JUMPDEST PUSH1 0x0 DUP1 REVERT JUMPDEST PUSH1 0x0 DUP1 REVERT JUMPDEST PUSH1 0x0 PUSH8 0xFFFFFFFFFFFFFFFF DUP3 GT ISZERO PUSH2 0x79A JUMPI PUSH2 0x799 PUSH2 0x6C4 JUMP JUMPDEST JUMPDEST PUSH2 0x7A3 DUP3 PUSH2 0x6B3 JUMP JUMPDEST SWAP1 POP PUSH1 0x20 DUP2 ADD SWAP1 POP SWAP2 SWAP1 POP JUMP JUMPDEST DUP3 DUP2 DUP4 CALLDATACOPY PUSH1 0x0 DUP4 DUP4 ADD MSTORE POP POP POP JUMP JUMPDEST PUSH1 0x0 PUSH2 0x7D2 PUSH2 0x7CD DUP5 PUSH2 0x77F JUMP JUMPDEST PUSH2 0x724 JUMP JUMPDEST SWAP1 POP DUP3 DUP2 MSTORE PUSH1 0x20 DUP2 ADD DUP5 DUP5 DUP5 ADD GT ISZERO PUSH2 0x7EE JUMPI PUSH2 0x7ED PUSH2 0x77A JUMP JUMPDEST JUMPDEST PUSH2 0x7F9 DUP5 DUP3 DUP6 PUSH2 0x7B0 JUMP JUMPDEST POP SWAP4 SWAP3 POP POP POP JUMP JUMPDEST PUSH1 0x0 DUP3 PUSH1 0x1F DUP4 ADD SLT PUSH2 0x816 JUMPI PUSH2 0x815 PUSH2 0x6AE JUMP JUMPDEST JUMPDEST DUP2 CALLDATALOAD PUSH2 0x826 DUP5 DUP3 PUSH1 0x20 DUP7 ADD PUSH2 0x7BF JUMP JUMPDEST SWAP2 POP POP SWAP3 SWAP2 POP POP JUMP JUMPDEST PUSH1 0x0 PUSH1 0x80 DUP3 DUP5 SUB SLT ISZERO PUSH2 0x845 JUMPI PUSH2 0x844 PUSH2 0x770 JUMP JUMPDEST JUMPDEST PUSH2 0x84F PUSH1 0x80 PUSH2 0x724 JUMP JUMPDEST SWAP1 POP PUSH1 0x0 DUP3 ADD CALLDATALOAD PUSH8 0xFFFFFFFFFFFFFFFF DUP2 GT ISZERO PUSH2 0x86F JUMPI PUSH2 0x86E PUSH2 0x775 JUMP JUMPDEST JUMPDEST PUSH2 0x87B DUP5 DUP3 DUP6 ADD PUSH2 0x801 JUMP JUMPDEST PUSH1 0x0 DUP4 ADD MSTORE POP PUSH1 0x20 DUP3 ADD CALLDATALOAD PUSH8 0xFFFFFFFFFFFFFFFF DUP2 GT ISZERO PUSH2 0x89F JUMPI PUSH2 0x89E PUSH2 0x775 JUMP JUMPDEST JUMPDEST PUSH2 0x8AB DUP5 DUP3 DUP6 ADD PUSH2 0x801 JUMP JUMPDEST PUSH1 0x20 DUP4 ADD MSTORE POP PUSH1 0x40 PUSH2 0x8BF DUP5 DUP3 DUP6 ADD PUSH2 0x62E JUMP JUMPDEST PUSH1 0x40 DUP4 ADD MSTORE POP PUSH1 0x60 PUSH2 0x8D3 DUP5 DUP3 DUP6 ADD PUSH2 0x62E JUMP JUMPDEST PUSH1 0x60 DUP4 ADD MSTORE POP SWAP3 SWAP2 POP POP JUMP JUMPDEST PUSH1 0x0 PUSH2 0x8F2 PUSH2 0x8ED DUP5 PUSH2 0x73F JUMP JUMPDEST PUSH2 0x724 JUMP JUMPDEST SWAP1 POP DUP1 DUP4 DUP3 MSTORE PUSH1 0x20 DUP3 ADD SWAP1 POP PUSH1 0x20 DUP5 MUL DUP4 ADD DUP6 DUP2 GT ISZERO PUSH2 0x915 JUMPI PUSH2 0x914 PUSH2 0x76B JUMP JUMPDEST JUMPDEST DUP4 JUMPDEST DUP2 DUP2 LT ISZERO PUSH2 0x95C JUMPI DUP1 CALLDATALOAD PUSH8 0xFFFFFFFFFFFFFFFF DUP2 GT ISZERO PUSH2 0x93A JUMPI PUSH2 0x939 PUSH2 0x6AE JUMP JUMPDEST JUMPDEST DUP1 DUP7 ADD PUSH2 0x947 DUP10 DUP3 PUSH2 0x82F JUMP JUMPDEST DUP6 MSTORE PUSH1 0x20 DUP6 ADD SWAP5 POP POP POP PUSH1 0x20 DUP2 ADD SWAP1 POP PUSH2 0x917 JUMP JUMPDEST POP POP POP SWAP4 SWAP3 POP POP POP JUMP JUMPDEST PUSH1 0x0 DUP3 PUSH1 0x1F DUP4 ADD SLT PUSH2 0x97B JUMPI PUSH2 0x97A PUSH2 0x6AE JUMP JUMPDEST JUMPDEST DUP2 CALLDATALOAD PUSH2 0x98B DUP5 DUP3 PUSH1 0x20 DUP7 ADD PUSH2 0x8DF JUMP JUMPDEST SWAP2 POP POP SWAP3 SWAP2 POP POP JUMP JUMPDEST PUSH1 0x0 DUP1 REVERT JUMPDEST PUSH1 0x0 DUP1 DUP4 PUSH1 0x1F DUP5 ADD SLT PUSH2 0x9AF JUMPI PUSH2 0x9AE PUSH2 0x6AE JUMP JUMPDEST JUMPDEST DUP3 CALLDATALOAD SWAP1 POP PUSH8 0xFFFFFFFFFFFFFFFF DUP2 GT ISZERO PUSH2 0x9CC JUMPI PUSH2 0x9CB PUSH2 0x994 JUMP JUMPDEST JUMPDEST PUSH1 0x20 DUP4 ADD SWAP2 POP DUP4 PUSH1 0x20 DUP3 MUL DUP4 ADD GT ISZERO PUSH2 0x9E8 JUMPI PUSH2 0x9E7 PUSH2 0x76B JUMP JUMPDEST JUMPDEST SWAP3 POP SWAP3 SWAP1 POP JUMP JUMPDEST PUSH1 0x0 DUP1 DUP4 PUSH1 0x1F DUP5 ADD SLT PUSH2 0xA05 JUMPI PUSH2 0xA04 PUSH2 0x6AE JUMP JUMPDEST JUMPDEST DUP3 CALLDATALOAD SWAP1 POP PUSH8 0xFFFFFFFFFFFFFFFF DUP2 GT ISZERO PUSH2 0xA22 JUMPI PUSH2 0xA21 PUSH2 0x994 JUMP JUMPDEST JUMPDEST PUSH1 0x20 DUP4 ADD SWAP2 POP DUP4 PUSH1 0x80 DUP3 MUL DUP4 ADD GT ISZERO PUSH2 0xA3E JUMPI PUSH2 0xA3D PUSH2 0x76B JUMP JUMPDEST JUMPDEST SWAP3 POP SWAP3 SWAP1 POP JUMP JUMPDEST PUSH1 0x0 DUP1 DUP4 PUSH1 0x1F DUP5 ADD SLT PUSH2 0xA5B JUMPI PUSH2 0xA5A PUSH2 0x6AE JUMP JUMPDEST JUMPDEST DUP3 CALLDATALOAD SWAP1 POP PUSH8 0xFFFFFFFFFFFFFFFF DUP2 GT ISZERO PUSH2 0xA78 JUMPI PUSH2 0xA77 PUSH2 0x994 JUMP JUMPDEST JUMPDEST PUSH1 0x20 DUP4 ADD SWAP2 POP DUP4 PUSH1 0x1 DUP3 MUL DUP4 ADD GT ISZERO PUSH2 0xA94 JUMPI PUSH2 0xA93 PUSH2 0x76B JUMP JUMPDEST JUMPDEST SWAP3 POP SWAP3 SWAP1 POP JUMP JUMPDEST PUSH1 0x0 DUP1 PUSH1 0x0 DUP1 PUSH1 0x0 DUP1 PUSH1 0x0 DUP1 PUSH1 0x0 PUSH1 0xC0 DUP11 DUP13 SUB SLT ISZERO PUSH2 0xABD JUMPI PUSH2 0xABC PUSH2 0x5DB JUMP JUMPDEST JUMPDEST PUSH1 0x0 PUSH2 0xACB DUP13 DUP3 DUP14 ADD PUSH2 0x699 JUMP JUMPDEST SWAP10 POP POP PUSH1 0x20 DUP11 ADD CALLDATALOAD PUSH8 0xFFFFFFFFFFFFFFFF DUP2 GT ISZERO PUSH2 0xAEC JUMPI PUSH2 0xAEB PUSH2 0x5E0 JUMP JUMPDEST JUMPDEST PUSH2 0xAF8 DUP13 DUP3 DUP14 ADD PUSH2 0x966 JUMP JUMPDEST SWAP9 POP POP PUSH1 0x40 DUP11 ADD CALLDATALOAD PUSH8 0xFFFFFFFFFFFFFFFF DUP2 GT ISZERO PUSH2 0xB19 JUMPI PUSH2 0xB18 PUSH2 0x5E0 JUMP JUMPDEST JUMPDEST PUSH2 0xB25 DUP13 DUP3 DUP14 ADD PUSH2 0x999 JUMP JUMPDEST SWAP8 POP SWAP8 POP POP PUSH1 0x60 PUSH2 0xB38 DUP13 DUP3 DUP14 ADD PUSH2 0x62E JUMP JUMPDEST SWAP6 POP POP PUSH1 0x80 DUP11 ADD CALLDATALOAD PUSH8 0xFFFFFFFFFFFFFFFF DUP2 GT ISZERO PUSH2 0xB59 JUMPI PUSH2 0xB58 PUSH2 0x5E0 JUMP JUMPDEST JUMPDEST PUSH2 0xB65 DUP13 DUP3 DUP14 ADD PUSH2 0x9EF JUMP JUMPDEST SWAP5 POP SWAP5 POP POP PUSH1 0xA0 DUP11 ADD CALLDATALOAD PUSH8 0xFFFFFFFFFFFFFFFF DUP2 GT ISZERO PUSH2 0xB88 JUMPI PUSH2 0xB87 PUSH2 0x5E0 JUMP JUMPDEST JUMPDEST PUSH2 0xB94 DUP13 DUP3 DUP14 ADD PUSH2 0xA45 JUMP JUMPDEST SWAP3 POP SWAP3 POP POP SWAP3 SWAP6 SWAP9 POP SWAP3 SWAP6 SWAP9 POP SWAP3 SWAP6 SWAP9 JUMP JUMPDEST PUSH2 0xBAF DUP2 PUSH2 0x605 JUMP JUMPDEST DUP3 MSTORE POP POP JUMP JUMPDEST PUSH1 0x0 PUSH1 0x20 DUP3 ADD SWAP1 POP PUSH2 0xBCA PUSH1 0x0 DUP4 ADD DUP5 PUSH2 0xBA6 JUMP JUMPDEST SWAP3 SWAP2 POP POP JUMP JUMPDEST PUSH1 0x0 DUP3 DUP3 MSTORE PUSH1 0x20 DUP3 ADD SWAP1 POP SWAP3 SWAP2 POP POP JUMP JUMPDEST PUSH32 0x4672616D65466163746F72793A204C69627261727920616C7265616479207365 PUSH1 0x0 DUP3 ADD MSTORE PUSH32 0x7400000000000000000000000000000000000000000000000000000000000000 PUSH1 0x20 DUP3 ADD MSTORE POP JUMP JUMPDEST PUSH1 0x0 PUSH2 0xC3D PUSH1 0x21 DUP4 PUSH2 0xBD0 JUMP JUMPDEST SWAP2 POP PUSH2 0xC48 DUP3 PUSH2 0xBE1 JUMP JUMPDEST PUSH1 0x40 DUP3 ADD SWAP1 POP SWAP2 SWAP1 POP JUMP JUMPDEST PUSH1 0x0 PUSH1 0x20 DUP3 ADD SWAP1 POP DUP2 DUP2 SUB PUSH1 0x0 DUP4 ADD MSTORE PUSH2 0xC6C DUP2 PUSH2 0xC30 JUMP JUMPDEST SWAP1 POP SWAP2 SWAP1 POP JUMP JUMPDEST PUSH1 0x0 PUSH2 0xC7F DUP4 DUP6 PUSH2 0xBD0 JUMP JUMPDEST SWAP4 POP PUSH2 0xC8C DUP4 DUP6 DUP5 PUSH2 0x7B0 JUMP JUMPDEST PUSH2 0xC95 DUP4 PUSH2 0x6B3 JUMP JUMPDEST DUP5 ADD SWAP1 POP SWAP4 SWAP3 POP POP POP JUMP JUMPDEST PUSH32 0x312E302E30000000000000000000000000000000000000000000000000000000 PUSH1 0x0 DUP3 ADD MSTORE POP JUMP JUMPDEST PUSH1 0x0 PUSH2 0xCD6 PUSH1 0x5 DUP4 PUSH2 0xBD0 JUMP JUMPDEST SWAP2 POP PUSH2 0xCE1 DUP3 PUSH2 0xCA0 JUMP JUMPDEST PUSH1 0x20 DUP3 ADD SWAP1 POP SWAP2 SWAP1 POP JUMP JUMPDEST PUSH1 0x0 PUSH1 0x40 DUP3 ADD SWAP1 POP DUP2 DUP2 SUB PUSH1 0x0 DUP4 ADD MSTORE PUSH2 0xD07 DUP2 DUP5 DUP7 PUSH2 0xC73 JUMP JUMPDEST SWAP1 POP DUP2 DUP2 SUB PUSH1 0x20 DUP4 ADD MSTORE PUSH2 0xD1A DUP2 PUSH2 0xCC9 JUMP JUMPDEST SWAP1 POP SWAP4 SWAP3 POP POP POP JUMP JUMPDEST PUSH1 0x0 DUP2 MLOAD SWAP1 POP PUSH2 0xD32 DUP2 PUSH2 0x617 JUMP JUMPDEST SWAP3 SWAP2 POP POP JUMP JUMPDEST PUSH1 0x0 PUSH1 0x20 DUP3 DUP5 SUB SLT ISZERO PUSH2 0xD4E JUMPI PUSH2 0xD4D PUSH2 0x5DB JUMP JUMPDEST JUMPDEST PUSH1 0x0 PUSH2 0xD5C DUP5 DUP3 DUP6 ADD PUSH2 0xD23 JUMP JUMPDEST SWAP2 POP POP SWAP3 SWAP2 POP POP JUMP JUMPDEST PUSH32 0x4E487B7100000000000000000000000000000000000000000000000000000000 PUSH1 0x0 MSTORE PUSH1 0x32 PUSH1 0x4 MSTORE PUSH1 0x24 PUSH1 0x0 REVERT JUMPDEST PUSH1 0x0 DUP1 REVERT JUMPDEST PUSH1 0x0 DUP1 REVERT JUMPDEST PUSH1 0x0 DUP1 REVERT JUMPDEST PUSH1 0x0 DUP1 DUP4 CALLDATALOAD PUSH1 0x1 PUSH1 0x20 SUB DUP5 CALLDATASIZE SUB SUB DUP2 SLT PUSH2 0xDC0 JUMPI PUSH2 0xDBF PUSH2 0xD94 JUMP JUMPDEST JUMPDEST DUP1 DUP5 ADD SWAP3 POP DUP3 CALLDATALOAD SWAP2 POP PUSH8 0xFFFFFFFFFFFFFFFF DUP3 GT ISZERO PUSH2 0xDE2 JUMPI PUSH2 0xDE1 PUSH2 0xD99 JUMP JUMPDEST JUMPDEST PUSH1 0x20 DUP4 ADD SWAP3 POP PUSH1 0x1 DUP3 MUL CALLDATASIZE SUB DUP4 SGT ISZERO PUSH2 0xDFE JUMPI PUSH2 0xDFD PUSH2 0xD9E JUMP JUMPDEST JUMPDEST POP SWAP3 POP SWAP3 SWAP1 POP JUMP JUMPDEST PUSH1 0x0 DUP2 MLOAD SWAP1 POP SWAP2 SWAP1 POP JUMP JUMPDEST PUSH1 0x0 JUMPDEST DUP4 DUP2 LT ISZERO PUSH2 0xE2F JUMPI DUP1 DUP3 ADD MLOAD DUP2 DUP5 ADD MSTORE PUSH1 0x20 DUP2 ADD SWAP1 POP PUSH2 0xE14 JUMP JUMPDEST PUSH1 0x0 DUP5 DUP5 ADD MSTORE POP POP POP POP JUMP JUMPDEST PUSH1 0x0 PUSH2 0xE46 DUP3 PUSH2 0xE06 JUMP JUMPDEST PUSH2 0xE50 DUP2 DUP6 PUSH2 0xBD0 JUMP JUMPDEST SWAP4 POP PUSH2 0xE60 DUP2 DUP6 PUSH1 0x20 DUP7 ADD PUSH2 0xE11 JUMP JUMPDEST PUSH2 0xE69 DUP2 PUSH2 0x6B3 JUMP JUMPDEST DUP5 ADD SWAP2 POP POP SWAP3 SWAP2 POP POP JUMP JUMPDEST PUSH1 0x0 DUP2 SWAP1 POP SWAP2 SWAP1 POP JUMP JUMPDEST PUSH1 0x0 PUSH16 0xFFFFFFFFFFFFFFFFFFFFFFFFFFFFFFFF DUP3 AND SWAP1 POP SWAP2 SWAP1 POP JUMP JUMPDEST PUSH1 0x0 DUP2 SWAP1 POP SWAP2 SWAP1 POP JUMP JUMPDEST PUSH1 0x0 PUSH2 0xEBF PUSH2 0xEBA PUSH2 0xEB5 DUP5 PUSH2 0xE74 JUMP JUMPDEST PUSH2 0xE9A JUMP JUMPDEST PUSH2 0xE7E JUMP JUMPDEST SWAP1 POP SWAP2 SWAP1 POP JUMP JUMPDEST PUSH2 0xECF DUP2 PUSH2 0xEA4 JUMP JUMPDEST DUP3 MSTORE POP POP JUMP JUMPDEST PUSH1 0x0 DUP3 DUP3 MSTORE PUSH1 0x20 DUP3 ADD SWAP1 POP SWAP3 SWAP2 POP POP JUMP JUMPDEST PUSH1 0x0 PUSH2 0xEF2 DUP4 DUP6 PUSH2 0xED5 JUMP JUMPDEST SWAP4 POP PUSH2 0xEFF DUP4 DUP6 DUP5 PUSH2 0x7B0 JUMP JUMPDEST PUSH2 0xF08 DUP4 PUSH2 0x6B3 JUMP JUMPDEST DUP5 ADD SWAP1 POP SWAP4 SWAP3 POP POP POP JUMP JUMPDEST PUSH1 0x0 PUSH1 0x60 DUP3 ADD SWAP1 POP DUP2 DUP2 SUB PUSH1 0x0 DUP4 ADD MSTORE PUSH2 0xF2D DUP2 DUP8 PUSH2 0xE3B JUMP JUMPDEST SWAP1 POP PUSH2 0xF3C PUSH1 0x20 DUP4 ADD DUP7 PUSH2 0xEC6 JUMP JUMPDEST DUP2 DUP2 SUB PUSH1 0x40 DUP4 ADD MSTORE PUSH2 0xF4F DUP2 DUP5 DUP7 PUSH2 0xEE6 JUMP JUMPDEST SWAP1 POP SWAP6 SWAP5 POP POP POP POP POP JUMP JUMPDEST PUSH32 0x4E487B7100000000000000000000000000000000000000000000000000000000 PUSH1 0x0 MSTORE PUSH1 0x11 PUSH1 0x4 MSTORE PUSH1 0x24 PUSH1 0x0 REVERT JUMPDEST PUSH1 0x0 DUP2 SWAP1 POP SWAP2 SWAP1 POP JUMP JUMPDEST PUSH1 0x0 PUSH2 0xF9E DUP3 PUSH2 0xF89 JUMP JUMPDEST SWAP2 POP PUSH32 0xFFFFFFFFFFFFFFFFFFFFFFFFFFFFFFFFFFFFFFFFFFFFFFFFFFFFFFFFFFFFFFFF DUP3 SUB PUSH2 0xFD0 JUMPI PUSH2 0xFCF PUSH2 0xF5A JUMP JUMPDEST JUMPDEST PUSH1 0x1 DUP3 ADD SWAP1 POP SWAP2 SWAP1 POP JUMP JUMPDEST PUSH1 0x0 DUP2 MLOAD SWAP1 POP SWAP2 SWAP1 POP JUMP JUMPDEST PUSH1 0x0 DUP3 DUP3 MSTORE PUSH1 0x20 DUP3 ADD SWAP1 POP SWAP3 SWAP2 POP POP JUMP JUMPDEST PUSH1 0x0 DUP2 SWAP1 POP PUSH1 0x20 DUP3 ADD SWAP1 POP SWAP2 SWAP1 POP JUMP JUMPDEST PUSH1 0x0 DUP3 DUP3 MSTORE PUSH1 0x20 DUP3 ADD SWAP1 POP SWAP3 SWAP2 POP POP JUMP JUMPDEST PUSH1 0x0 PUSH2 0x1023 DUP3 PUSH2 0xE06 JUMP JUMPDEST PUSH2 0x102D DUP2 DUP6 PUSH2 0x1007 JUMP JUMPDEST SWAP4 POP PUSH2 0x103D DUP2 DUP6 PUSH1 0x20 DUP7 ADD PUSH2 0xE11 JUMP JUMPDEST PUSH2 0x1046 DUP2 PUSH2 0x6B3 JUMP JUMPDEST DUP5 ADD SWAP2 POP POP SWAP3 SWAP2 POP POP JUMP JUMPDEST PUSH2 0x105A DUP2 PUSH2 0x605 JUMP JUMPDEST DUP3 MSTORE POP POP JUMP JUMPDEST PUSH1 0x0 PUSH1 0x80 DUP4 ADD PUSH1 0x0 DUP4 ADD MLOAD DUP5 DUP3 SUB PUSH1 0x0 DUP7 ADD MSTORE PUSH2 0x107D DUP3 DUP3 PUSH2 0x1018 JUMP JUMPDEST SWAP2 POP POP PUSH1 0x20 DUP4 ADD MLOAD DUP5 DUP3 SUB PUSH1 0x20 DUP7 ADD MSTORE PUSH2 0x1097 DUP3 DUP3 PUSH2 0x1018 JUMP JUMPDEST SWAP2 POP POP PUSH1 0x40 DUP4 ADD MLOAD PUSH2 0x10AC PUSH1 0x40 DUP7 ADD DUP3 PUSH2 0x1051 JUMP JUMPDEST POP PUSH1 0x60 DUP4 ADD MLOAD PUSH2 0x10BF PUSH1 0x60 DUP7 ADD DUP3 PUSH2 0x1051 JUMP JUMPDEST POP DUP1 SWAP2 POP POP SWAP3 SWAP2 POP POP JUMP JUMPDEST PUSH1 0x0 PUSH2 0x10D6 DUP4 DUP4 PUSH2 0x1060 JUMP JUMPDEST SWAP1 POP SWAP3 SWAP2 POP POP JUMP JUMPDEST PUSH1 0x0 PUSH1 0x20 DUP3 ADD SWAP1 POP SWAP2 SWAP1 POP JUMP JUMPDEST PUSH1 0x0 PUSH2 0x10F6 DUP3 PUSH2 0xFDB JUMP JUMPDEST PUSH2 0x1100 DUP2 DUP6 PUSH2 0xFE6 JUMP JUMPDEST SWAP4 POP DUP4 PUSH1 0x20 DUP3 MUL DUP6 ADD PUSH2 0x1112 DUP6 PUSH2 0xFF7 JUMP JUMPDEST DUP1 PUSH1 0x0 JUMPDEST DUP6 DUP2 LT ISZERO PUSH2 0x114E JUMPI DUP5 DUP5 SUB DUP10 MSTORE DUP2 MLOAD PUSH2 0x112F DUP6 DUP3 PUSH2 0x10CA JUMP JUMPDEST SWAP5 POP PUSH2 0x113A DUP4 PUSH2 0x10DE JUMP JUMPDEST SWAP3 POP PUSH1 0x20 DUP11 ADD SWAP10 POP POP PUSH1 0x1 DUP2 ADD SWAP1 POP PUSH2 0x1116 JUMP JUMPDEST POP DUP3 SWAP8 POP DUP8 SWAP6 POP POP POP POP POP POP SWAP3 SWAP2 POP POP JUMP JUMPDEST PUSH1 0x0 DUP3 DUP3 MSTORE PUSH1 0x20 DUP3 ADD SWAP1 POP SWAP3 SWAP2 POP POP JUMP JUMPDEST PUSH1 0x0 DUP2 SWAP1 POP SWAP2 SWAP1 POP JUMP JUMPDEST DUP3 DUP2 DUP4 CALLDATACOPY POP POP POP JUMP JUMPDEST PUSH2 0x1190 PUSH1 0x80 DUP4 DUP4 PUSH2 0x117B JUMP JUMPDEST POP POP JUMP JUMPDEST PUSH1 0x0 PUSH2 0x11A0 DUP4 DUP4 PUSH2 0x1184 JUMP JUMPDEST PUSH1 0x80 DUP4 ADD SWAP1 POP SWAP3 SWAP2 POP POP JUMP JUMPDEST PUSH1 0x0 DUP3 SWAP1 POP SWAP3 SWAP2 POP POP JUMP JUMPDEST PUSH1 0x0 PUSH1 0x80 DUP3 ADD SWAP1 POP SWAP2 SWAP1 POP JUMP JUMPDEST PUSH1 0x0 PUSH2 0x11D0 DUP4 DUP6 PUSH2 0x1160 JUMP JUMPDEST SWAP4 POP PUSH2 0x11DB DUP3 PUSH2 0x1171 JUMP JUMPDEST DUP1 PUSH1 0x0 JUMPDEST DUP6 DUP2 LT ISZERO PUSH2 0x1214 JUMPI PUSH2 0x11F1 DUP3 DUP5 PUSH2 0x11AC JUMP JUMPDEST PUSH2 0x11FB DUP9 DUP3 PUSH2 0x1194 JUMP JUMPDEST SWAP8 POP PUSH2 0x1206 DUP4 PUSH2 0x11B7 JUMP JUMPDEST SWAP3 POP POP PUSH1 0x1 DUP2 ADD SWAP1 POP PUSH2 0x11DF JUMP JUMPDEST POP DUP6 SWAP3 POP POP POP SWAP4 SWAP3 POP POP POP JUMP JUMPDEST PUSH1 0x0 PUSH1 0x80 DUP3 ADD SWAP1 POP DUP2 DUP2 SUB PUSH1 0x0 DUP4 ADD MSTORE PUSH2 0x123B DUP2 DUP9 PUSH2 0x10EB JUMP JUMPDEST SWAP1 POP PUSH2 0x124A PUSH1 0x20 DUP4 ADD DUP8 PUSH2 0xBA6 JUMP JUMPDEST PUSH2 0x1257 PUSH1 0x40 DUP4 ADD DUP7 PUSH2 0xBA6 JUMP JUMPDEST DUP2 DUP2 SUB PUSH1 0x60 DUP4 ADD MSTORE PUSH2 0x126A DUP2 DUP5 DUP7 PUSH2 0x11C4 JUMP JUMPDEST SWAP1 POP SWAP7 SWAP6 POP POP POP POP POP POP JUMP JUMPDEST PUSH1 0x0 PUSH1 0x20 DUP3 ADD SWAP1 POP DUP2 DUP2 SUB PUSH1 0x0 DUP4 ADD MSTORE PUSH2 0x1291 DUP2 DUP5 DUP7 PUSH2 0xC73 JUMP JUMPDEST SWAP1 POP SWAP4 SWAP3 POP POP POP JUMP INVALID LOG2 PUSH5 0x6970667358 0x22 SLT KECCAK256 CALLDATALOAD 0x26 EXTCODEHASH MUL MSTORE 0xC2 0xD1 0x21 SWAP3 ISZERO SDIV CODECOPY PUSH31 0xEFE04A2D1BC3909D0AFE3008FF9036A79AEA5E64736F6C6343000811003300 "},"methodIdentifiers":{"createFrameWithSource(address,(string,string,address,address)[],bytes[],address,uint256[4][],string)":"789b9b45","libraryAddress()":"b816f513","setLibraryAddress(address)":"4863ba17"}}}}}