{"src/contracts/Frame.sol":{"Frame":{"abi":[{"inputs":[],"stateMutability":"nonpayable","type":"constructor"},{"anonymous":false,"inputs":[{"indexed":true,"internalType":"address","name":"owner","type":"address"},{"indexed":true,"internalType":"address","name":"approved","type":"address"},{"indexed":true,"internalType":"uint256","name":"tokenId","type":"uint256"}],"name":"Approval","type":"event"},{"anonymous":false,"inputs":[{"indexed":true,"internalType":"address","name":"owner","type":"address"},{"indexed":true,"internalType":"address","name":"operator","type":"address"},{"indexed":false,"internalType":"bool","name":"approved","type":"bool"}],"name":"ApprovalForAll","type":"event"},{"anonymous":false,"inputs":[{"indexed":true,"internalType":"address","name":"from","type":"address"},{"indexed":true,"internalType":"address","name":"to","type":"address"},{"indexed":true,"internalType":"uint256","name":"tokenId","type":"uint256"}],"name":"Transfer","type":"event"},{"inputs":[{"internalType":"address","name":"to","type":"address"},{"internalType":"uint256","name":"tokenId","type":"uint256"}],"name":"approve","outputs":[],"stateMutability":"nonpayable","type":"function"},{"inputs":[{"internalType":"address","name":"owner","type":"address"}],"name":"balanceOf","outputs":[{"internalType":"uint256","name":"","type":"uint256"}],"stateMutability":"view","type":"function"},{"inputs":[],"name":"bufferSize","outputs":[{"internalType":"uint256","name":"","type":"uint256"}],"stateMutability":"view","type":"function"},{"inputs":[{"internalType":"uint256","name":"tokenId","type":"uint256"}],"name":"getApproved","outputs":[{"internalType":"address","name":"","type":"address"}],"stateMutability":"view","type":"function"},{"inputs":[{"components":[{"internalType":"string","name":"encodedName","type":"string"},{"internalType":"string","name":"encodedDescription","type":"string"}],"internalType":"struct FrameMetadata","name":"_metadata","type":"tuple"},{"internalType":"address","name":"_scriptyBuilderAddress","type":"address"},{"internalType":"uint256","name":"_bufferSize","type":"uint256"},{"components":[{"internalType":"string","name":"name","type":"string"},{"internalType":"address","name":"contractAddress","type":"address"},{"internalType":"bytes","name":"contractData","type":"bytes"},{"internalType":"uint8","name":"wrapType","type":"uint8"},{"internalType":"bytes","name":"wrapPrefix","type":"bytes"},{"internalType":"bytes","name":"wrapSuffix","type":"bytes"},{"internalType":"bytes","name":"scriptContent","type":"bytes"}],"internalType":"struct WrappedScriptRequest[]","name":"_requests","type":"tuple[]"}],"name":"init","outputs":[],"stateMutability":"nonpayable","type":"function"},{"inputs":[],"name":"initialized","outputs":[{"internalType":"bool","name":"","type":"bool"}],"stateMutability":"view","type":"function"},{"inputs":[{"internalType":"address","name":"owner","type":"address"},{"internalType":"address","name":"operator","type":"address"}],"name":"isApprovedForAll","outputs":[{"internalType":"bool","name":"","type":"bool"}],"stateMutability":"view","type":"function"},{"inputs":[{"internalType":"address","name":"_owner","type":"address"}],"name":"mintForOwner","outputs":[],"stateMutability":"nonpayable","type":"function"},{"inputs":[],"name":"minted","outputs":[{"internalType":"bool","name":"","type":"bool"}],"stateMutability":"view","type":"function"},{"inputs":[],"name":"name","outputs":[{"internalType":"string","name":"","type":"string"}],"stateMutability":"view","type":"function"},{"inputs":[{"internalType":"uint256","name":"tokenId","type":"uint256"}],"name":"ownerOf","outputs":[{"internalType":"address","name":"","type":"address"}],"stateMutability":"view","type":"function"},{"inputs":[{"internalType":"uint256","name":"","type":"uint256"}],"name":"requests","outputs":[{"internalType":"string","name":"name","type":"string"},{"internalType":"address","name":"contractAddress","type":"address"},{"internalType":"bytes","name":"contractData","type":"bytes"},{"internalType":"uint8","name":"wrapType","type":"uint8"},{"internalType":"bytes","name":"wrapPrefix","type":"bytes"},{"internalType":"bytes","name":"wrapSuffix","type":"bytes"},{"internalType":"bytes","name":"scriptContent","type":"bytes"}],"stateMutability":"view","type":"function"},{"inputs":[{"internalType":"address","name":"from","type":"address"},{"internalType":"address","name":"to","type":"address"},{"internalType":"uint256","name":"tokenId","type":"uint256"}],"name":"safeTransferFrom","outputs":[],"stateMutability":"nonpayable","type":"function"},{"inputs":[{"internalType":"address","name":"from","type":"address"},{"internalType":"address","name":"to","type":"address"},{"internalType":"uint256","name":"tokenId","type":"uint256"},{"internalType":"bytes","name":"data","type":"bytes"}],"name":"safeTransferFrom","outputs":[],"stateMutability":"nonpayable","type":"function"},{"inputs":[],"name":"scriptyBuilderAddress","outputs":[{"internalType":"address","name":"","type":"address"}],"stateMutability":"view","type":"function"},{"inputs":[{"internalType":"address","name":"operator","type":"address"},{"internalType":"bool","name":"approved","type":"bool"}],"name":"setApprovalForAll","outputs":[],"stateMutability":"nonpayable","type":"function"},{"inputs":[{"internalType":"string","name":"nameString","type":"string"}],"name":"setName","outputs":[],"stateMutability":"nonpayable","type":"function"},{"inputs":[{"internalType":"string","name":"symbolString","type":"string"}],"name":"setSymbol","outputs":[],"stateMutability":"nonpayable","type":"function"},{"inputs":[{"internalType":"bytes4","name":"interfaceId","type":"bytes4"}],"name":"supportsInterface","outputs":[{"internalType":"bool","name":"","type":"bool"}],"stateMutability":"view","type":"function"},{"inputs":[],"name":"symbol","outputs":[{"internalType":"string","name":"","type":"string"}],"stateMutability":"view","type":"function"},{"inputs":[{"internalType":"uint256","name":"","type":"uint256"}],"name":"tokenURI","outputs":[{"internalType":"string","name":"","type":"string"}],"stateMutability":"view","type":"function"},{"inputs":[{"internalType":"address","name":"from","type":"address"},{"internalType":"address","name":"to","type":"address"},{"internalType":"uint256","name":"tokenId","type":"uint256"}],"name":"transferFrom","outputs":[],"stateMutability":"nonpayable","type":"function"},{"inputs":[],"name":"urlEncodedDesc","outputs":[{"internalType":"string","name":"","type":"string"}],"stateMutability":"view","type":"function"},{"inputs":[],"name":"urlEncodedName","outputs":[{"internalType":"string","name":"","type":"string"}],"stateMutability":"view","type":"function"}],"evm":{"bytecode":{"linkReferences":{},"object":"608060405234801561001057600080fd5b506141d0806100206000396000f3fe608060405234801561001057600080fd5b50600436106101585760003560e01c806370a08231116100c3578063b84c82461161007c578063b84c8246146103cd578063b88d4fde146103e9578063c47f002714610405578063c87b56dd14610421578063e3b71f8714610451578063e985e9c51461046f57610158565b806370a08231146102f357806381d12c581461032357806395d89b41146103595780639c2c770b14610377578063a22cb46514610395578063a50d81c7146103b157610158565b806332032db51161011557806332032db51461023157806342842e0e1461024f5780634e1971511461026b5780634f02c420146102875780636352211e146102a55780636eaa1afe146102d557610158565b806301ffc9a71461015d57806306fdde031461018d578063081812fc146101ab578063095ea7b3146101db578063158ef93e146101f757806323b872dd14610215575b600080fd5b61017760048036038101906101729190612016565b61049f565b604051610184919061205e565b60405180910390f35b610195610581565b6040516101a29190612109565b60405180910390f35b6101c560048036038101906101c09190612161565b610613565b6040516101d291906121cf565b60405180910390f35b6101f560048036038101906101f09190612216565b610659565b005b6101ff610770565b60405161020c919061205e565b60405180910390f35b61022f600480360381019061022a9190612256565b610783565b005b6102396107e3565b6040516102469190612109565b60405180910390f35b61026960048036038101906102649190612256565b610871565b005b61028560048036038101906102809190612332565b610891565b005b61028f610a0b565b60405161029c919061205e565b60405180910390f35b6102bf60048036038101906102ba9190612161565b610a1e565b6040516102cc91906121cf565b60405180910390f35b6102dd610aa4565b6040516102ea9190612109565b60405180910390f35b61030d600480360381019061030891906123d6565b610b32565b60405161031a9190612412565b60405180910390f35b61033d60048036038101906103389190612161565b610be9565b604051610350979695949392919061249e565b60405180910390f35b610361610f10565b60405161036e9190612109565b60405180910390f35b61037f610fa2565b60405161038c9190612412565b60405180910390f35b6103af60048036038101906103aa919061255c565b610fa8565b005b6103cb60048036038101906103c691906123d6565b610fbe565b005b6103e760048036038101906103e291906126cc565b611037565b005b61040360048036038101906103fe91906127b6565b61109b565b005b61041f600480360381019061041a91906126cc565b6110fd565b005b61043b60048036038101906104369190612161565b611160565b6040516104489190612109565b60405180910390f35b61045961123a565b60405161046691906121cf565b60405180910390f35b61048960048036038101906104849190612839565b611260565b604051610496919061205e565b60405180910390f35b60007ffc9fdaac000000000000000000000000000000000000000000000000000000007bffffffffffffffffffffffffffffffffffffffffffffffffffffffff1916827bffffffffffffffffffffffffffffffffffffffffffffffffffffffff1916148061056a57507f5b5e139f000000000000000000000000000000000000000000000000000000007bffffffffffffffffffffffffffffffffffffffffffffffffffffffff1916827bffffffffffffffffffffffffffffffffffffffffffffffffffffffff1916145b8061057a5750610579826112f4565b5b9050919050565b606060008054610590906128a8565b80601f01602080910402602001604051908101604052809291908181526020018280546105bc906128a8565b80156106095780601f106105de57610100808354040283529160200191610609565b820191906000526020600020905b8154815290600101906020018083116105ec57829003601f168201915b5050505050905090565b600061061e8261135e565b6004600083815260200190815260200160002060009054906101000a900473ffffffffffffffffffffffffffffffffffffffff169050919050565b600061066482610a1e565b90508073ffffffffffffffffffffffffffffffffffffffff168373ffffffffffffffffffffffffffffffffffffffff16036106d4576040517f08c379a00000000000000000000000000000000000000000000000000000000081526004016106cb9061294b565b60405180910390fd5b8073ffffffffffffffffffffffffffffffffffffffff166106f36113a9565b73ffffffffffffffffffffffffffffffffffffffff16148061072257506107218161071c6113a9565b611260565b5b610761576040517f08c379a000000000000000000000000000000000000000000000000000000000815260040161075890612a03565b60405180910390fd5b61076b83836113b1565b505050565b600660009054906101000a900460ff1681565b61079461078e6113a9565b8261146a565b6107d3576040517f08c379a00000000000000000000000000000000000000000000000000000000081526004016107ca90612a95565b60405180910390fd5b6107de8383836114ff565b505050565b600780546107f0906128a8565b80601f016020809104026020016040519081016040528092919081815260200182805461081c906128a8565b80156108695780601f1061083e57610100808354040283529160200191610869565b820191906000526020600020905b81548152906001019060200180831161084c57829003601f168201915b505050505081565b61088c8383836040518060200160405280600081525061109b565b505050565b600660009054906101000a900460ff16156108e1576040517f08c379a00000000000000000000000000000000000000000000000000000000081526004016108d890612b01565b60405180910390fd5b8480600001906108f19190612b30565b60079182610900929190612d4a565b508480602001906109119190612b30565b60089182610920929190612d4a565b5083600960006101000a81548173ffffffffffffffffffffffffffffffffffffffff021916908373ffffffffffffffffffffffffffffffffffffffff16021790555082600a8190555060005b828290508110156109e857600b83838381811061098c5761098b612e1a565b5b905060200281019061099e9190612e49565b908060018154018082558091505060019003906000526020600020906007020160009091909190915081816109d39190613280565b505080806109e0906132bd565b91505061096c565b506001600660006101000a81548160ff0219169083151502179055505050505050565b600660019054906101000a900460ff1681565b600080610a2a836117f8565b9050600073ffffffffffffffffffffffffffffffffffffffff168173ffffffffffffffffffffffffffffffffffffffff1603610a9b576040517f08c379a0000000000000000000000000000000000000000000000000000000008152600401610a9290613377565b60405180910390fd5b80915050919050565b60088054610ab1906128a8565b80601f0160208091040260200160405190810160405280929190818152602001828054610add906128a8565b8015610b2a5780601f10610aff57610100808354040283529160200191610b2a565b820191906000526020600020905b815481529060010190602001808311610b0d57829003601f168201915b505050505081565b60008073ffffffffffffffffffffffffffffffffffffffff168273ffffffffffffffffffffffffffffffffffffffff1603610ba2576040517f08c379a0000000000000000000000000000000000000000000000000000000008152600401610b9990613409565b60405180910390fd5b600360008373ffffffffffffffffffffffffffffffffffffffff1673ffffffffffffffffffffffffffffffffffffffff168152602001908152602001600020549050919050565b600b8181548110610bf957600080fd5b9060005260206000209060070201600091509050806000018054610c1c906128a8565b80601f0160208091040260200160405190810160405280929190818152602001828054610c48906128a8565b8015610c955780601f10610c6a57610100808354040283529160200191610c95565b820191906000526020600020905b815481529060010190602001808311610c7857829003601f168201915b5050505050908060010160009054906101000a900473ffffffffffffffffffffffffffffffffffffffff1690806002018054610cd0906128a8565b80601f0160208091040260200160405190810160405280929190818152602001828054610cfc906128a8565b8015610d495780601f10610d1e57610100808354040283529160200191610d49565b820191906000526020600020905b815481529060010190602001808311610d2c57829003601f168201915b5050505050908060030160009054906101000a900460ff1690806004018054610d71906128a8565b80601f0160208091040260200160405190810160405280929190818152602001828054610d9d906128a8565b8015610dea5780601f10610dbf57610100808354040283529160200191610dea565b820191906000526020600020905b815481529060010190602001808311610dcd57829003601f168201915b505050505090806005018054610dff906128a8565b80601f0160208091040260200160405190810160405280929190818152602001828054610e2b906128a8565b8015610e785780601f10610e4d57610100808354040283529160200191610e78565b820191906000526020600020905b815481529060010190602001808311610e5b57829003601f168201915b505050505090806006018054610e8d906128a8565b80601f0160208091040260200160405190810160405280929190818152602001828054610eb9906128a8565b8015610f065780601f10610edb57610100808354040283529160200191610f06565b820191906000526020600020905b815481529060010190602001808311610ee957829003601f168201915b5050505050905087565b606060018054610f1f906128a8565b80601f0160208091040260200160405190810160405280929190818152602001828054610f4b906128a8565b8015610f985780601f10610f6d57610100808354040283529160200191610f98565b820191906000526020600020905b815481529060010190602001808311610f7b57829003601f168201915b5050505050905090565b600a5481565b610fba610fb36113a9565b8383611835565b5050565b600660019054906101000a900460ff161561100e576040517f08c379a000000000000000000000000000000000000000000000000000000000815260040161100590613475565b60405180910390fd5b6110198160006119a1565b6001600660016101000a81548160ff02191690831515021790555050565b600060018054611046906128a8565b905014611088576040517f08c379a000000000000000000000000000000000000000000000000000000000815260040161107f90613507565b60405180910390fd5b80600190816110979190613527565b5050565b6110ac6110a66113a9565b8361146a565b6110eb576040517f08c379a00000000000000000000000000000000000000000000000000000000081526004016110e290612a95565b60405180910390fd5b6110f7848484846119bf565b50505050565b600080805461110b906128a8565b90501461114d576040517f08c379a00000000000000000000000000000000000000000000000000000000081526004016111449061366b565b60405180910390fd5b806000908161115c9190613527565b5050565b60606000600960009054906101000a900473ffffffffffffffffffffffffffffffffffffffff1673ffffffffffffffffffffffffffffffffffffffff1663b4f7d41e600b600a546040518363ffffffff1660e01b81526004016111c49291906139d2565b600060405180830381865afa1580156111e1573d6000803e3d6000fd5b505050506040513d6000823e3d601f19601f8201168201806040525081019061120a9190613a72565b9050600760088260405160200161122393929190613cdb565b604051602081830303815290604052915050919050565b600960009054906101000a900473ffffffffffffffffffffffffffffffffffffffff1681565b6000600560008473ffffffffffffffffffffffffffffffffffffffff1673ffffffffffffffffffffffffffffffffffffffff16815260200190815260200160002060008373ffffffffffffffffffffffffffffffffffffffff1673ffffffffffffffffffffffffffffffffffffffff16815260200190815260200160002060009054906101000a900460ff16905092915050565b60007f01ffc9a7000000000000000000000000000000000000000000000000000000007bffffffffffffffffffffffffffffffffffffffffffffffffffffffff1916827bffffffffffffffffffffffffffffffffffffffffffffffffffffffff1916149050919050565b61136781611a1b565b6113a6576040517f08c379a000000000000000000000000000000000000000000000000000000000815260040161139d90613377565b60405180910390fd5b50565b600033905090565b816004600083815260200190815260200160002060006101000a81548173ffffffffffffffffffffffffffffffffffffffff021916908373ffffffffffffffffffffffffffffffffffffffff160217905550808273ffffffffffffffffffffffffffffffffffffffff1661142483610a1e565b73ffffffffffffffffffffffffffffffffffffffff167f8c5be1e5ebec7d5bd14f71427d1e84f3dd0314c0f7b2291e5b200ac8c7c3b92560405160405180910390a45050565b60008061147683610a1e565b90508073ffffffffffffffffffffffffffffffffffffffff168473ffffffffffffffffffffffffffffffffffffffff1614806114b857506114b78185611260565b5b806114f657508373ffffffffffffffffffffffffffffffffffffffff166114de84610613565b73ffffffffffffffffffffffffffffffffffffffff16145b91505092915050565b8273ffffffffffffffffffffffffffffffffffffffff1661151f82610a1e565b73ffffffffffffffffffffffffffffffffffffffff1614611575576040517f08c379a000000000000000000000000000000000000000000000000000000000815260040161156c90613daa565b60405180910390fd5b600073ffffffffffffffffffffffffffffffffffffffff168273ffffffffffffffffffffffffffffffffffffffff16036115e4576040517f08c379a00000000000000000000000000000000000000000000000000000000081526004016115db90613e3c565b60405180910390fd5b6115f18383836001611a5c565b8273ffffffffffffffffffffffffffffffffffffffff1661161182610a1e565b73ffffffffffffffffffffffffffffffffffffffff1614611667576040517f08c379a000000000000000000000000000000000000000000000000000000000815260040161165e90613daa565b60405180910390fd5b6004600082815260200190815260200160002060006101000a81549073ffffffffffffffffffffffffffffffffffffffff02191690556001600360008573ffffffffffffffffffffffffffffffffffffffff1673ffffffffffffffffffffffffffffffffffffffff168152602001908152602001600020600082825403925050819055506001600360008473ffffffffffffffffffffffffffffffffffffffff1673ffffffffffffffffffffffffffffffffffffffff16815260200190815260200160002060008282540192505081905550816002600083815260200190815260200160002060006101000a81548173ffffffffffffffffffffffffffffffffffffffff021916908373ffffffffffffffffffffffffffffffffffffffff160217905550808273ffffffffffffffffffffffffffffffffffffffff168473ffffffffffffffffffffffffffffffffffffffff167fddf252ad1be2c89b69c2b068fc378daa952ba7f163c4a11628f55a4df523b3ef60405160405180910390a46117f38383836001611b82565b505050565b60006002600083815260200190815260200160002060009054906101000a900473ffffffffffffffffffffffffffffffffffffffff169050919050565b8173ffffffffffffffffffffffffffffffffffffffff168373ffffffffffffffffffffffffffffffffffffffff16036118a3576040517f08c379a000000000000000000000000000000000000000000000000000000000815260040161189a90613ece565b60405180910390fd5b80600560008573ffffffffffffffffffffffffffffffffffffffff1673ffffffffffffffffffffffffffffffffffffffff16815260200190815260200160002060008473ffffffffffffffffffffffffffffffffffffffff1673ffffffffffffffffffffffffffffffffffffffff16815260200190815260200160002060006101000a81548160ff0219169083151502179055508173ffffffffffffffffffffffffffffffffffffffff168373ffffffffffffffffffffffffffffffffffffffff167f17307eab39ab6107e8899845ad3d59bd9653f200f220920489ca2b5937696c3183604051611994919061205e565b60405180910390a3505050565b6119bb828260405180602001604052806000815250611b88565b5050565b6119ca8484846114ff565b6119d684848484611be3565b611a15576040517f08c379a0000000000000000000000000000000000000000000000000000000008152600401611a0c90613f60565b60405180910390fd5b50505050565b60008073ffffffffffffffffffffffffffffffffffffffff16611a3d836117f8565b73ffffffffffffffffffffffffffffffffffffffff1614159050919050565b6001811115611b7c57600073ffffffffffffffffffffffffffffffffffffffff168473ffffffffffffffffffffffffffffffffffffffff1614611af05780600360008673ffffffffffffffffffffffffffffffffffffffff1673ffffffffffffffffffffffffffffffffffffffff1681526020019081526020016000206000828254611ae89190613f80565b925050819055505b600073ffffffffffffffffffffffffffffffffffffffff168373ffffffffffffffffffffffffffffffffffffffff1614611b7b5780600360008573ffffffffffffffffffffffffffffffffffffffff1673ffffffffffffffffffffffffffffffffffffffff1681526020019081526020016000206000828254611b739190613fb4565b925050819055505b5b50505050565b50505050565b611b928383611d6a565b611b9f6000848484611be3565b611bde576040517f08c379a0000000000000000000000000000000000000000000000000000000008152600401611bd590613f60565b60405180910390fd5b505050565b6000611c048473ffffffffffffffffffffffffffffffffffffffff16611f87565b15611d5d578373ffffffffffffffffffffffffffffffffffffffff1663150b7a02611c2d6113a9565b8786866040518563ffffffff1660e01b8152600401611c4f9493929190613fe8565b6020604051808303816000875af1925050508015611c8b57506040513d601f19601f82011682018060405250810190611c889190614049565b60015b611d0d573d8060008114611cbb576040519150601f19603f3d011682016040523d82523d6000602084013e611cc0565b606091505b506000815103611d05576040517f08c379a0000000000000000000000000000000000000000000000000000000008152600401611cfc90613f60565b60405180910390fd5b805181602001fd5b63150b7a0260e01b7bffffffffffffffffffffffffffffffffffffffffffffffffffffffff1916817bffffffffffffffffffffffffffffffffffffffffffffffffffffffff191614915050611d62565b600190505b949350505050565b600073ffffffffffffffffffffffffffffffffffffffff168273ffffffffffffffffffffffffffffffffffffffff1603611dd9576040517f08c379a0000000000000000000000000000000000000000000000000000000008152600401611dd0906140e8565b60405180910390fd5b611de281611a1b565b15611e22576040517f08c379a0000000000000000000000000000000000000000000000000000000008152600401611e199061417a565b60405180910390fd5b611e30600083836001611a5c565b611e3981611a1b565b15611e79576040517f08c379a0000000000000000000000000000000000000000000000000000000008152600401611e709061417a565b60405180910390fd5b6001600360008473ffffffffffffffffffffffffffffffffffffffff1673ffffffffffffffffffffffffffffffffffffffff16815260200190815260200160002060008282540192505081905550816002600083815260200190815260200160002060006101000a81548173ffffffffffffffffffffffffffffffffffffffff021916908373ffffffffffffffffffffffffffffffffffffffff160217905550808273ffffffffffffffffffffffffffffffffffffffff16600073ffffffffffffffffffffffffffffffffffffffff167fddf252ad1be2c89b69c2b068fc378daa952ba7f163c4a11628f55a4df523b3ef60405160405180910390a4611f83600083836001611b82565b5050565b6000808273ffffffffffffffffffffffffffffffffffffffff163b119050919050565b6000604051905090565b600080fd5b600080fd5b60007fffffffff0000000000000000000000000000000000000000000000000000000082169050919050565b611ff381611fbe565b8114611ffe57600080fd5b50565b60008135905061201081611fea565b92915050565b60006020828403121561202c5761202b611fb4565b5b600061203a84828501612001565b91505092915050565b60008115159050919050565b61205881612043565b82525050565b6000602082019050612073600083018461204f565b92915050565b600081519050919050565b600082825260208201905092915050565b60005b838110156120b3578082015181840152602081019050612098565b60008484015250505050565b6000601f19601f8301169050919050565b60006120db82612079565b6120e58185612084565b93506120f5818560208601612095565b6120fe816120bf565b840191505092915050565b6000602082019050818103600083015261212381846120d0565b905092915050565b6000819050919050565b61213e8161212b565b811461214957600080fd5b50565b60008135905061215b81612135565b92915050565b60006020828403121561217757612176611fb4565b5b60006121858482850161214c565b91505092915050565b600073ffffffffffffffffffffffffffffffffffffffff82169050919050565b60006121b98261218e565b9050919050565b6121c9816121ae565b82525050565b60006020820190506121e460008301846121c0565b92915050565b6121f3816121ae565b81146121fe57600080fd5b50565b600081359050612210816121ea565b92915050565b6000806040838503121561222d5761222c611fb4565b5b600061223b85828601612201565b925050602061224c8582860161214c565b9150509250929050565b60008060006060848603121561226f5761226e611fb4565b5b600061227d86828701612201565b935050602061228e86828701612201565b925050604061229f8682870161214c565b9150509250925092565b600080fd5b6000604082840312156122c4576122c36122a9565b5b81905092915050565b600080fd5b600080fd5b600080fd5b60008083601f8401126122f2576122f16122cd565b5b8235905067ffffffffffffffff81111561230f5761230e6122d2565b5b60208301915083602082028301111561232b5761232a6122d7565b5b9250929050565b60008060008060006080868803121561234e5761234d611fb4565b5b600086013567ffffffffffffffff81111561236c5761236b611fb9565b5b612378888289016122ae565b955050602061238988828901612201565b945050604061239a8882890161214c565b935050606086013567ffffffffffffffff8111156123bb576123ba611fb9565b5b6123c7888289016122dc565b92509250509295509295909350565b6000602082840312156123ec576123eb611fb4565b5b60006123fa84828501612201565b91505092915050565b61240c8161212b565b82525050565b60006020820190506124276000830184612403565b92915050565b600081519050919050565b600082825260208201905092915050565b60006124548261242d565b61245e8185612438565b935061246e818560208601612095565b612477816120bf565b840191505092915050565b600060ff82169050919050565b61249881612482565b82525050565b600060e08201905081810360008301526124b8818a6120d0565b90506124c760208301896121c0565b81810360408301526124d98188612449565b90506124e8606083018761248f565b81810360808301526124fa8186612449565b905081810360a083015261250e8185612449565b905081810360c08301526125228184612449565b905098975050505050505050565b61253981612043565b811461254457600080fd5b50565b60008135905061255681612530565b92915050565b6000806040838503121561257357612572611fb4565b5b600061258185828601612201565b925050602061259285828601612547565b9150509250929050565b600080fd5b7f4e487b7100000000000000000000000000000000000000000000000000000000600052604160045260246000fd5b6125d9826120bf565b810181811067ffffffffffffffff821117156125f8576125f76125a1565b5b80604052505050565b600061260b611faa565b905061261782826125d0565b919050565b600067ffffffffffffffff821115612637576126366125a1565b5b612640826120bf565b9050602081019050919050565b82818337600083830152505050565b600061266f61266a8461261c565b612601565b90508281526020810184848401111561268b5761268a61259c565b5b61269684828561264d565b509392505050565b600082601f8301126126b3576126b26122cd565b5b81356126c384826020860161265c565b91505092915050565b6000602082840312156126e2576126e1611fb4565b5b600082013567ffffffffffffffff811115612700576126ff611fb9565b5b61270c8482850161269e565b91505092915050565b600067ffffffffffffffff8211156127305761272f6125a1565b5b612739826120bf565b9050602081019050919050565b600061275961275484612715565b612601565b9050828152602081018484840111156127755761277461259c565b5b61278084828561264d565b509392505050565b600082601f83011261279d5761279c6122cd565b5b81356127ad848260208601612746565b91505092915050565b600080600080608085870312156127d0576127cf611fb4565b5b60006127de87828801612201565b94505060206127ef87828801612201565b93505060406128008782880161214c565b925050606085013567ffffffffffffffff81111561282157612820611fb9565b5b61282d87828801612788565b91505092959194509250565b600080604083850312156128505761284f611fb4565b5b600061285e85828601612201565b925050602061286f85828601612201565b9150509250929050565b7f4e487b7100000000000000000000000000000000000000000000000000000000600052602260045260246000fd5b600060028204905060018216806128c057607f821691505b6020821081036128d3576128d2612879565b5b50919050565b7f455243373231436c6f6e6561626c653a20617070726f76616c20746f2063757260008201527f72656e74206f776e657200000000000000000000000000000000000000000000602082015250565b6000612935602a83612084565b9150612940826128d9565b604082019050919050565b6000602082019050818103600083015261296481612928565b9050919050565b7f455243373231436c6f6e6561626c653a20617070726f76652063616c6c65722060008201527f6973206e6f7420746f6b656e206f776e6572206f7220617070726f766564206660208201527f6f7220616c6c0000000000000000000000000000000000000000000000000000604082015250565b60006129ed604683612084565b91506129f88261296b565b606082019050919050565b60006020820190508181036000830152612a1c816129e0565b9050919050565b7f455243373231436c6f6e6561626c653a2063616c6c6572206973206e6f74207460008201527f6f6b656e206f776e6572206f7220617070726f76656400000000000000000000602082015250565b6000612a7f603683612084565b9150612a8a82612a23565b604082019050919050565b60006020820190508181036000830152612aae81612a72565b9050919050565b7f4672616d653a20616c726561647920696e697469616c697a6564000000000000600082015250565b6000612aeb601a83612084565b9150612af682612ab5565b602082019050919050565b60006020820190508181036000830152612b1a81612ade565b9050919050565b600080fd5b600080fd5b600080fd5b60008083356001602003843603038112612b4d57612b4c612b21565b5b80840192508235915067ffffffffffffffff821115612b6f57612b6e612b26565b5b602083019250600182023603831315612b8b57612b8a612b2b565b5b509250929050565b600082905092915050565b60008190508160005260206000209050919050565b60006020601f8301049050919050565b600082821b905092915050565b600060088302612c007fffffffffffffffffffffffffffffffffffffffffffffffffffffffffffffffff82612bc3565b612c0a8683612bc3565b95508019841693508086168417925050509392505050565b6000819050919050565b6000612c47612c42612c3d8461212b565b612c22565b61212b565b9050919050565b6000819050919050565b612c6183612c2c565b612c75612c6d82612c4e565b848454612bd0565b825550505050565b600090565b612c8a612c7d565b612c95818484612c58565b505050565b5b81811015612cb957612cae600082612c82565b600181019050612c9b565b5050565b601f821115612cfe57612ccf81612b9e565b612cd884612bb3565b81016020851015612ce7578190505b612cfb612cf385612bb3565b830182612c9a565b50505b505050565b600082821c905092915050565b6000612d2160001984600802612d03565b1980831691505092915050565b6000612d3a8383612d10565b9150826002028217905092915050565b612d548383612b93565b67ffffffffffffffff811115612d6d57612d6c6125a1565b5b612d7782546128a8565b612d82828285612cbd565b6000601f831160018114612db15760008415612d9f578287013590505b612da98582612d2e565b865550612e11565b601f198416612dbf86612b9e565b60005b82811015612de757848901358255600182019150602085019450602081019050612dc2565b86831015612e045784890135612e00601f891682612d10565b8355505b6001600288020188555050505b50505050505050565b7f4e487b7100000000000000000000000000000000000000000000000000000000600052603260045260246000fd5b60008235600160e003833603038112612e6557612e64612b21565b5b80830191505092915050565b612e7c838383612d4a565b505050565b60008135612e8e816121ea565b80915050919050565b60008160001b9050919050565b600073ffffffffffffffffffffffffffffffffffffffff612ec484612e97565b9350801983169250808416831791505092915050565b6000612ef5612ef0612eeb8461218e565b612c22565b61218e565b9050919050565b6000612f0782612eda565b9050919050565b6000612f1982612efc565b9050919050565b6000819050919050565b612f3382612f0e565b612f46612f3f82612f20565b8354612ea4565b8255505050565b60008083356001602003843603038112612f6a57612f69612b21565b5b80840192508235915067ffffffffffffffff821115612f8c57612f8b612b26565b5b602083019250600182023603831315612fa857612fa7612b2b565b5b509250929050565b600082905092915050565b60008190508160005260206000209050919050565b601f82111561301157612fe281612fbb565b612feb84612bb3565b81016020851015612ffa578190505b61300e61300685612bb3565b830182612c9a565b50505b505050565b6130208383612fb0565b67ffffffffffffffff811115613039576130386125a1565b5b61304382546128a8565b61304e828285612fd0565b6000601f83116001811461307d576000841561306b578287013590505b6130758582612d2e565b8655506130dd565b601f19841661308b86612fbb565b60005b828110156130b35784890135825560018201915060208501945060208101905061308e565b868310156130d057848901356130cc601f891682612d10565b8355505b6001600288020188555050505b50505050505050565b6130f1838383613016565b505050565b6130ff81612482565b811461310a57600080fd5b50565b6000813561311a816130f6565b80915050919050565b600060ff61313084612e97565b9350801983169250808416831791505092915050565b600061316161315c61315784612482565b612c22565b612482565b9050919050565b6000819050919050565b61317b82613146565b61318e61318782613168565b8354613123565b8255505050565b60008101600083016131a78185612b30565b6131b2818386612e71565b505050506001810160208301806131c881612e81565b90506131d48184612f2a565b50505060028101604083016131e98185612f4d565b6131f48183866130e6565b5050505060038101606083018061320a8161310d565b90506132168184613172565b505050600481016080830161322b8185612f4d565b6132368183866130e6565b505050506005810160a0830161324c8185612f4d565b6132578183866130e6565b505050506006810160c0830161326d8185612f4d565b6132788183866130e6565b505050505050565b61328a8282613195565b5050565b7f4e487b7100000000000000000000000000000000000000000000000000000000600052601160045260246000fd5b60006132c88261212b565b91507fffffffffffffffffffffffffffffffffffffffffffffffffffffffffffffffff82036132fa576132f961328e565b5b600182019050919050565b7f455243373231436c6f6e6561626c653a20696e76616c696420746f6b656e204960008201527f4400000000000000000000000000000000000000000000000000000000000000602082015250565b6000613361602183612084565b915061336c82613305565b604082019050919050565b6000602082019050818103600083015261339081613354565b9050919050565b7f455243373231436c6f6e6561626c653a2061646472657373207a65726f20697360008201527f206e6f7420612076616c6964206f776e65720000000000000000000000000000602082015250565b60006133f3603283612084565b91506133fe82613397565b604082019050919050565b60006020820190508181036000830152613422816133e6565b9050919050565b7f4672616d653a20416c7265616479206d696e7465640000000000000000000000600082015250565b600061345f601583612084565b915061346a82613429565b602082019050919050565b6000602082019050818103600083015261348e81613452565b9050919050565b7f455243373231436c6f6e6561626c653a2073796d626f6c20616c72656164792060008201527f7365740000000000000000000000000000000000000000000000000000000000602082015250565b60006134f1602383612084565b91506134fc82613495565b604082019050919050565b60006020820190508181036000830152613520816134e4565b9050919050565b61353082612079565b67ffffffffffffffff811115613549576135486125a1565b5b61355382546128a8565b61355e828285612cbd565b600060209050601f831160018114613591576000841561357f578287015190505b6135898582612d2e565b8655506135f1565b601f19841661359f86612b9e565b60005b828110156135c7578489015182556001820191506020850194506020810190506135a2565b868310156135e457848901516135e0601f891682612d10565b8355505b6001600288020188555050505b505050505050565b7f455243373231436c6f6e6561626c653a206e616d6520616c726561647920736560008201527f7400000000000000000000000000000000000000000000000000000000000000602082015250565b6000613655602183612084565b9150613660826135f9565b604082019050919050565b6000602082019050818103600083015261368481613648565b9050919050565b600081549050919050565b600082825260208201905092915050565b60008190508160005260206000209050919050565b600082825260208201905092915050565b600081546136da816128a8565b6136e481866136bc565b945060018216600081146136ff576001811461371557613748565b60ff198316865281151560200286019350613748565b61371e85612b9e565b60005b8381101561374057815481890152600182019150602081019050613721565b808801955050505b50505092915050565b60008160001c9050919050565b600073ffffffffffffffffffffffffffffffffffffffff82169050919050565b600061379161378c83613751565b61375e565b9050919050565b6137a1816121ae565b82525050565b600082825260208201905092915050565b600081546137c5816128a8565b6137cf81866137a7565b945060018216600081146137ea576001811461380057613833565b60ff198316865281151560200286019350613833565b61380985612fbb565b60005b8381101561382b5781548189015260018201915060208101905061380c565b808801955050505b50505092915050565b600060ff82169050919050565b600061385c61385783613751565b61383c565b9050919050565b61386c81612482565b82525050565b600060e083016000808401858303600087015261388f83826136cd565b925050600184015490506138a28161377e565b6138af6020870182613798565b506002840185830360408701526138c683826137b8565b925050600384015490506138d981613849565b6138e66060870182613863565b506004840185830360808701526138fd83826137b8565b9250506005840185830360a087015261391683826137b8565b9250506006840185830360c087015261392f83826137b8565b925050819250505092915050565b60006139498383613872565b905092915050565b6000600782019050919050565b60006139698261368b565b6139738185613696565b935083602082028501613985856136a7565b8060005b858110156139c0578484038952816139a1858261393d565b94506139ac83613951565b925060208a01995050600181019050613989565b50829750879550505050505092915050565b600060408201905081810360008301526139ec818561395e565b90506139fb6020830184612403565b9392505050565b6000613a15613a1084612715565b612601565b905082815260208101848484011115613a3157613a3061259c565b5b613a3c848285612095565b509392505050565b600082601f830112613a5957613a586122cd565b5b8151613a69848260208601613a02565b91505092915050565b600060208284031215613a8857613a87611fb4565b5b600082015167ffffffffffffffff811115613aa657613aa5611fb9565b5b613ab284828501613a44565b91505092915050565b600081905092915050565b7f646174613a6170706c69636174696f6e2f6a736f6e2c2532326e616d6525323260008201527f2533412532320000000000000000000000000000000000000000000000000000602082015250565b6000613b22602683613abb565b9150613b2d82613ac6565b602682019050919050565b60008154613b45816128a8565b613b4f8186613abb565b94506001821660008114613b6a5760018114613b7f57613bb2565b60ff1983168652811515820286019350613bb2565b613b8885612b9e565b60005b83811015613baa57815481890152600182019150602081019050613b8b565b838801955050505b50505092915050565b7f2532432532326465736372697074696f6e253232253341253232000000000000600082015250565b6000613bf1601a83613abb565b9150613bfc82613bbb565b601a82019050919050565b7f253243253232616e696d6174696f6e5f75726c25323225334125323200000000600082015250565b6000613c3d601c83613abb565b9150613c4882613c07565b601c82019050919050565b600081905092915050565b6000613c698261242d565b613c738185613c53565b9350613c83818560208601612095565b80840191505092915050565b7f2532322537440000000000000000000000000000000000000000000000000000600082015250565b6000613cc5600683613abb565b9150613cd082613c8f565b600682019050919050565b6000613ce682613b15565b9150613cf28286613b38565b9150613cfd82613be4565b9150613d098285613b38565b9150613d1482613c30565b9150613d208284613c5e565b9150613d2b82613cb8565b9150819050949350505050565b7f455243373231436c6f6e6561626c653a207472616e736665722066726f6d206960008201527f6e636f7272656374206f776e6572000000000000000000000000000000000000602082015250565b6000613d94602e83612084565b9150613d9f82613d38565b604082019050919050565b60006020820190508181036000830152613dc381613d87565b9050919050565b7f455243373231436c6f6e6561626c653a207472616e7366657220746f2074686560008201527f207a65726f206164647265737300000000000000000000000000000000000000602082015250565b6000613e26602d83612084565b9150613e3182613dca565b604082019050919050565b60006020820190508181036000830152613e5581613e19565b9050919050565b7f455243373231436c6f6e6561626c653a20617070726f766520746f2063616c6c60008201527f6572000000000000000000000000000000000000000000000000000000000000602082015250565b6000613eb8602283612084565b9150613ec382613e5c565b604082019050919050565b60006020820190508181036000830152613ee781613eab565b9050919050565b7f455243373231436c6f6e6561626c653a207472616e7366657220746f206e6f6e60008201527f20455243373231526563656976657220696d706c656d656e7465720000000000602082015250565b6000613f4a603b83612084565b9150613f5582613eee565b604082019050919050565b60006020820190508181036000830152613f7981613f3d565b9050919050565b6000613f8b8261212b565b9150613f968361212b565b9250828203905081811115613fae57613fad61328e565b5b92915050565b6000613fbf8261212b565b9150613fca8361212b565b9250828201905080821115613fe257613fe161328e565b5b92915050565b6000608082019050613ffd60008301876121c0565b61400a60208301866121c0565b6140176040830185612403565b81810360608301526140298184612449565b905095945050505050565b60008151905061404381611fea565b92915050565b60006020828403121561405f5761405e611fb4565b5b600061406d84828501614034565b91505092915050565b7f455243373231436c6f6e6561626c653a206d696e7420746f20746865207a657260008201527f6f20616464726573730000000000000000000000000000000000000000000000602082015250565b60006140d2602983612084565b91506140dd82614076565b604082019050919050565b60006020820190508181036000830152614101816140c5565b9050919050565b7f455243373231436c6f6e6561626c653a20746f6b656e20616c7265616479206d60008201527f696e746564000000000000000000000000000000000000000000000000000000602082015250565b6000614164602583612084565b915061416f82614108565b604082019050919050565b6000602082019050818103600083015261419381614157565b905091905056fea26469706673582212200b19d17d9a16baeef17163b50c720783195f5a82610e9314d30d5a26e31d5e2a64736f6c63430008110033","opcodes":"PUSH1 0x80 PUSH1 0x40 MSTORE CALLVALUE DUP1 ISZERO PUSH2 0x10 JUMPI PUSH1 0x0 DUP1 REVERT JUMPDEST POP PUSH2 0x41D0 DUP1 PUSH2 0x20 PUSH1 0x0 CODECOPY PUSH1 0x0 RETURN INVALID PUSH1 0x80 PUSH1 0x40 MSTORE CALLVALUE DUP1 ISZERO PUSH2 0x10 JUMPI PUSH1 0x0 DUP1 REVERT JUMPDEST POP PUSH1 0x4 CALLDATASIZE LT PUSH2 0x158 JUMPI PUSH1 0x0 CALLDATALOAD PUSH1 0xE0 SHR DUP1 PUSH4 0x70A08231 GT PUSH2 0xC3 JUMPI DUP1 PUSH4 0xB84C8246 GT PUSH2 0x7C JUMPI DUP1 PUSH4 0xB84C8246 EQ PUSH2 0x3CD JUMPI DUP1 PUSH4 0xB88D4FDE EQ PUSH2 0x3E9 JUMPI DUP1 PUSH4 0xC47F0027 EQ PUSH2 0x405 JUMPI DUP1 PUSH4 0xC87B56DD EQ PUSH2 0x421 JUMPI DUP1 PUSH4 0xE3B71F87 EQ PUSH2 0x451 JUMPI DUP1 PUSH4 0xE985E9C5 EQ PUSH2 0x46F JUMPI PUSH2 0x158 JUMP JUMPDEST DUP1 PUSH4 0x70A08231 EQ PUSH2 0x2F3 JUMPI DUP1 PUSH4 0x81D12C58 EQ PUSH2 0x323 JUMPI DUP1 PUSH4 0x95D89B41 EQ PUSH2 0x359 JUMPI DUP1 PUSH4 0x9C2C770B EQ PUSH2 0x377 JUMPI DUP1 PUSH4 0xA22CB465 EQ PUSH2 0x395 JUMPI DUP1 PUSH4 0xA50D81C7 EQ PUSH2 0x3B1 JUMPI PUSH2 0x158 JUMP JUMPDEST DUP1 PUSH4 0x32032DB5 GT PUSH2 0x115 JUMPI DUP1 PUSH4 0x32032DB5 EQ PUSH2 0x231 JUMPI DUP1 PUSH4 0x42842E0E EQ PUSH2 0x24F JUMPI DUP1 PUSH4 0x4E197151 EQ PUSH2 0x26B JUMPI DUP1 PUSH4 0x4F02C420 EQ PUSH2 0x287 JUMPI DUP1 PUSH4 0x6352211E EQ PUSH2 0x2A5 JUMPI DUP1 PUSH4 0x6EAA1AFE EQ PUSH2 0x2D5 JUMPI PUSH2 0x158 JUMP JUMPDEST DUP1 PUSH4 0x1FFC9A7 EQ PUSH2 0x15D JUMPI DUP1 PUSH4 0x6FDDE03 EQ PUSH2 0x18D JUMPI DUP1 PUSH4 0x81812FC EQ PUSH2 0x1AB JUMPI DUP1 PUSH4 0x95EA7B3 EQ PUSH2 0x1DB JUMPI DUP1 PUSH4 0x158EF93E EQ PUSH2 0x1F7 JUMPI DUP1 PUSH4 0x23B872DD EQ PUSH2 0x215 JUMPI JUMPDEST PUSH1 0x0 DUP1 REVERT JUMPDEST PUSH2 0x177 PUSH1 0x4 DUP1 CALLDATASIZE SUB DUP2 ADD SWAP1 PUSH2 0x172 SWAP2 SWAP1 PUSH2 0x2016 JUMP JUMPDEST PUSH2 0x49F JUMP JUMPDEST PUSH1 0x40 MLOAD PUSH2 0x184 SWAP2 SWAP1 PUSH2 0x205E JUMP JUMPDEST PUSH1 0x40 MLOAD DUP1 SWAP2 SUB SWAP1 RETURN JUMPDEST PUSH2 0x195 PUSH2 0x581 JUMP JUMPDEST PUSH1 0x40 MLOAD PUSH2 0x1A2 SWAP2 SWAP1 PUSH2 0x2109 JUMP JUMPDEST PUSH1 0x40 MLOAD DUP1 SWAP2 SUB SWAP1 RETURN JUMPDEST PUSH2 0x1C5 PUSH1 0x4 DUP1 CALLDATASIZE SUB DUP2 ADD SWAP1 PUSH2 0x1C0 SWAP2 SWAP1 PUSH2 0x2161 JUMP JUMPDEST PUSH2 0x613 JUMP JUMPDEST PUSH1 0x40 MLOAD PUSH2 0x1D2 SWAP2 SWAP1 PUSH2 0x21CF JUMP JUMPDEST PUSH1 0x40 MLOAD DUP1 SWAP2 SUB SWAP1 RETURN JUMPDEST PUSH2 0x1F5 PUSH1 0x4 DUP1 CALLDATASIZE SUB DUP2 ADD SWAP1 PUSH2 0x1F0 SWAP2 SWAP1 PUSH2 0x2216 JUMP JUMPDEST PUSH2 0x659 JUMP JUMPDEST STOP JUMPDEST PUSH2 0x1FF PUSH2 0x770 JUMP JUMPDEST PUSH1 0x40 MLOAD PUSH2 0x20C SWAP2 SWAP1 PUSH2 0x205E JUMP JUMPDEST PUSH1 0x40 MLOAD DUP1 SWAP2 SUB SWAP1 RETURN JUMPDEST PUSH2 0x22F PUSH1 0x4 DUP1 CALLDATASIZE SUB DUP2 ADD SWAP1 PUSH2 0x22A SWAP2 SWAP1 PUSH2 0x2256 JUMP JUMPDEST PUSH2 0x783 JUMP JUMPDEST STOP JUMPDEST PUSH2 0x239 PUSH2 0x7E3 JUMP JUMPDEST PUSH1 0x40 MLOAD PUSH2 0x246 SWAP2 SWAP1 PUSH2 0x2109 JUMP JUMPDEST PUSH1 0x40 MLOAD DUP1 SWAP2 SUB SWAP1 RETURN JUMPDEST PUSH2 0x269 PUSH1 0x4 DUP1 CALLDATASIZE SUB DUP2 ADD SWAP1 PUSH2 0x264 SWAP2 SWAP1 PUSH2 0x2256 JUMP JUMPDEST PUSH2 0x871 JUMP JUMPDEST STOP JUMPDEST PUSH2 0x285 PUSH1 0x4 DUP1 CALLDATASIZE SUB DUP2 ADD SWAP1 PUSH2 0x280 SWAP2 SWAP1 PUSH2 0x2332 JUMP JUMPDEST PUSH2 0x891 JUMP JUMPDEST STOP JUMPDEST PUSH2 0x28F PUSH2 0xA0B JUMP JUMPDEST PUSH1 0x40 MLOAD PUSH2 0x29C SWAP2 SWAP1 PUSH2 0x205E JUMP JUMPDEST PUSH1 0x40 MLOAD DUP1 SWAP2 SUB SWAP1 RETURN JUMPDEST PUSH2 0x2BF PUSH1 0x4 DUP1 CALLDATASIZE SUB DUP2 ADD SWAP1 PUSH2 0x2BA SWAP2 SWAP1 PUSH2 0x2161 JUMP JUMPDEST PUSH2 0xA1E JUMP JUMPDEST PUSH1 0x40 MLOAD PUSH2 0x2CC SWAP2 SWAP1 PUSH2 0x21CF JUMP JUMPDEST PUSH1 0x40 MLOAD DUP1 SWAP2 SUB SWAP1 RETURN JUMPDEST PUSH2 0x2DD PUSH2 0xAA4 JUMP JUMPDEST PUSH1 0x40 MLOAD PUSH2 0x2EA SWAP2 SWAP1 PUSH2 0x2109 JUMP JUMPDEST PUSH1 0x40 MLOAD DUP1 SWAP2 SUB SWAP1 RETURN JUMPDEST PUSH2 0x30D PUSH1 0x4 DUP1 CALLDATASIZE SUB DUP2 ADD SWAP1 PUSH2 0x308 SWAP2 SWAP1 PUSH2 0x23D6 JUMP JUMPDEST PUSH2 0xB32 JUMP JUMPDEST PUSH1 0x40 MLOAD PUSH2 0x31A SWAP2 SWAP1 PUSH2 0x2412 JUMP JUMPDEST PUSH1 0x40 MLOAD DUP1 SWAP2 SUB SWAP1 RETURN JUMPDEST PUSH2 0x33D PUSH1 0x4 DUP1 CALLDATASIZE SUB DUP2 ADD SWAP1 PUSH2 0x338 SWAP2 SWAP1 PUSH2 0x2161 JUMP JUMPDEST PUSH2 0xBE9 JUMP JUMPDEST PUSH1 0x40 MLOAD PUSH2 0x350 SWAP8 SWAP7 SWAP6 SWAP5 SWAP4 SWAP3 SWAP2 SWAP1 PUSH2 0x249E JUMP JUMPDEST PUSH1 0x40 MLOAD DUP1 SWAP2 SUB SWAP1 RETURN JUMPDEST PUSH2 0x361 PUSH2 0xF10 JUMP JUMPDEST PUSH1 0x40 MLOAD PUSH2 0x36E SWAP2 SWAP1 PUSH2 0x2109 JUMP JUMPDEST PUSH1 0x40 MLOAD DUP1 SWAP2 SUB SWAP1 RETURN JUMPDEST PUSH2 0x37F PUSH2 0xFA2 JUMP JUMPDEST PUSH1 0x40 MLOAD PUSH2 0x38C SWAP2 SWAP1 PUSH2 0x2412 JUMP JUMPDEST PUSH1 0x40 MLOAD DUP1 SWAP2 SUB SWAP1 RETURN JUMPDEST PUSH2 0x3AF PUSH1 0x4 DUP1 CALLDATASIZE SUB DUP2 ADD SWAP1 PUSH2 0x3AA SWAP2 SWAP1 PUSH2 0x255C JUMP JUMPDEST PUSH2 0xFA8 JUMP JUMPDEST STOP JUMPDEST PUSH2 0x3CB PUSH1 0x4 DUP1 CALLDATASIZE SUB DUP2 ADD SWAP1 PUSH2 0x3C6 SWAP2 SWAP1 PUSH2 0x23D6 JUMP JUMPDEST PUSH2 0xFBE JUMP JUMPDEST STOP JUMPDEST PUSH2 0x3E7 PUSH1 0x4 DUP1 CALLDATASIZE SUB DUP2 ADD SWAP1 PUSH2 0x3E2 SWAP2 SWAP1 PUSH2 0x26CC JUMP JUMPDEST PUSH2 0x1037 JUMP JUMPDEST STOP JUMPDEST PUSH2 0x403 PUSH1 0x4 DUP1 CALLDATASIZE SUB DUP2 ADD SWAP1 PUSH2 0x3FE SWAP2 SWAP1 PUSH2 0x27B6 JUMP JUMPDEST PUSH2 0x109B JUMP JUMPDEST STOP JUMPDEST PUSH2 0x41F PUSH1 0x4 DUP1 CALLDATASIZE SUB DUP2 ADD SWAP1 PUSH2 0x41A SWAP2 SWAP1 PUSH2 0x26CC JUMP JUMPDEST PUSH2 0x10FD JUMP JUMPDEST STOP JUMPDEST PUSH2 0x43B PUSH1 0x4 DUP1 CALLDATASIZE SUB DUP2 ADD SWAP1 PUSH2 0x436 SWAP2 SWAP1 PUSH2 0x2161 JUMP JUMPDEST PUSH2 0x1160 JUMP JUMPDEST PUSH1 0x40 MLOAD PUSH2 0x448 SWAP2 SWAP1 PUSH2 0x2109 JUMP JUMPDEST PUSH1 0x40 MLOAD DUP1 SWAP2 SUB SWAP1 RETURN JUMPDEST PUSH2 0x459 PUSH2 0x123A JUMP JUMPDEST PUSH1 0x40 MLOAD PUSH2 0x466 SWAP2 SWAP1 PUSH2 0x21CF JUMP JUMPDEST PUSH1 0x40 MLOAD DUP1 SWAP2 SUB SWAP1 RETURN JUMPDEST PUSH2 0x489 PUSH1 0x4 DUP1 CALLDATASIZE SUB DUP2 ADD SWAP1 PUSH2 0x484 SWAP2 SWAP1 PUSH2 0x2839 JUMP JUMPDEST PUSH2 0x1260 JUMP JUMPDEST PUSH1 0x40 MLOAD PUSH2 0x496 SWAP2 SWAP1 PUSH2 0x205E JUMP JUMPDEST PUSH1 0x40 MLOAD DUP1 SWAP2 SUB SWAP1 RETURN JUMPDEST PUSH1 0x0 PUSH32 0xFC9FDAAC00000000000000000000000000000000000000000000000000000000 PUSH28 0xFFFFFFFFFFFFFFFFFFFFFFFFFFFFFFFFFFFFFFFFFFFFFFFFFFFFFFFF NOT AND DUP3 PUSH28 0xFFFFFFFFFFFFFFFFFFFFFFFFFFFFFFFFFFFFFFFFFFFFFFFFFFFFFFFF NOT AND EQ DUP1 PUSH2 0x56A JUMPI POP PUSH32 0x5B5E139F00000000000000000000000000000000000000000000000000000000 PUSH28 0xFFFFFFFFFFFFFFFFFFFFFFFFFFFFFFFFFFFFFFFFFFFFFFFFFFFFFFFF NOT AND DUP3 PUSH28 0xFFFFFFFFFFFFFFFFFFFFFFFFFFFFFFFFFFFFFFFFFFFFFFFFFFFFFFFF NOT AND EQ JUMPDEST DUP1 PUSH2 0x57A JUMPI POP PUSH2 0x579 DUP3 PUSH2 0x12F4 JUMP JUMPDEST JUMPDEST SWAP1 POP SWAP2 SWAP1 POP JUMP JUMPDEST PUSH1 0x60 PUSH1 0x0 DUP1 SLOAD PUSH2 0x590 SWAP1 PUSH2 0x28A8 JUMP JUMPDEST DUP1 PUSH1 0x1F ADD PUSH1 0x20 DUP1 SWAP2 DIV MUL PUSH1 0x20 ADD PUSH1 0x40 MLOAD SWAP1 DUP2 ADD PUSH1 0x40 MSTORE DUP1 SWAP3 SWAP2 SWAP1 DUP2 DUP2 MSTORE PUSH1 0x20 ADD DUP3 DUP1 SLOAD PUSH2 0x5BC SWAP1 PUSH2 0x28A8 JUMP JUMPDEST DUP1 ISZERO PUSH2 0x609 JUMPI DUP1 PUSH1 0x1F LT PUSH2 0x5DE JUMPI PUSH2 0x100 DUP1 DUP4 SLOAD DIV MUL DUP4 MSTORE SWAP2 PUSH1 0x20 ADD SWAP2 PUSH2 0x609 JUMP JUMPDEST DUP3 ADD SWAP2 SWAP1 PUSH1 0x0 MSTORE PUSH1 0x20 PUSH1 0x0 KECCAK256 SWAP1 JUMPDEST DUP2 SLOAD DUP2 MSTORE SWAP1 PUSH1 0x1 ADD SWAP1 PUSH1 0x20 ADD DUP1 DUP4 GT PUSH2 0x5EC JUMPI DUP3 SWAP1 SUB PUSH1 0x1F AND DUP3 ADD SWAP2 JUMPDEST POP POP POP POP POP SWAP1 POP SWAP1 JUMP JUMPDEST PUSH1 0x0 PUSH2 0x61E DUP3 PUSH2 0x135E JUMP JUMPDEST PUSH1 0x4 PUSH1 0x0 DUP4 DUP2 MSTORE PUSH1 0x20 ADD SWAP1 DUP2 MSTORE PUSH1 0x20 ADD PUSH1 0x0 KECCAK256 PUSH1 0x0 SWAP1 SLOAD SWAP1 PUSH2 0x100 EXP SWAP1 DIV PUSH20 0xFFFFFFFFFFFFFFFFFFFFFFFFFFFFFFFFFFFFFFFF AND SWAP1 POP SWAP2 SWAP1 POP JUMP JUMPDEST PUSH1 0x0 PUSH2 0x664 DUP3 PUSH2 0xA1E JUMP JUMPDEST SWAP1 POP DUP1 PUSH20 0xFFFFFFFFFFFFFFFFFFFFFFFFFFFFFFFFFFFFFFFF AND DUP4 PUSH20 0xFFFFFFFFFFFFFFFFFFFFFFFFFFFFFFFFFFFFFFFF AND SUB PUSH2 0x6D4 JUMPI PUSH1 0x40 MLOAD PUSH32 0x8C379A000000000000000000000000000000000000000000000000000000000 DUP2 MSTORE PUSH1 0x4 ADD PUSH2 0x6CB SWAP1 PUSH2 0x294B JUMP JUMPDEST PUSH1 0x40 MLOAD DUP1 SWAP2 SUB SWAP1 REVERT JUMPDEST DUP1 PUSH20 0xFFFFFFFFFFFFFFFFFFFFFFFFFFFFFFFFFFFFFFFF AND PUSH2 0x6F3 PUSH2 0x13A9 JUMP JUMPDEST PUSH20 0xFFFFFFFFFFFFFFFFFFFFFFFFFFFFFFFFFFFFFFFF AND EQ DUP1 PUSH2 0x722 JUMPI POP PUSH2 0x721 DUP2 PUSH2 0x71C PUSH2 0x13A9 JUMP JUMPDEST PUSH2 0x1260 JUMP JUMPDEST JUMPDEST PUSH2 0x761 JUMPI PUSH1 0x40 MLOAD PUSH32 0x8C379A000000000000000000000000000000000000000000000000000000000 DUP2 MSTORE PUSH1 0x4 ADD PUSH2 0x758 SWAP1 PUSH2 0x2A03 JUMP JUMPDEST PUSH1 0x40 MLOAD DUP1 SWAP2 SUB SWAP1 REVERT JUMPDEST PUSH2 0x76B DUP4 DUP4 PUSH2 0x13B1 JUMP JUMPDEST POP POP POP JUMP JUMPDEST PUSH1 0x6 PUSH1 0x0 SWAP1 SLOAD SWAP1 PUSH2 0x100 EXP SWAP1 DIV PUSH1 0xFF AND DUP2 JUMP JUMPDEST PUSH2 0x794 PUSH2 0x78E PUSH2 0x13A9 JUMP JUMPDEST DUP3 PUSH2 0x146A JUMP JUMPDEST PUSH2 0x7D3 JUMPI PUSH1 0x40 MLOAD PUSH32 0x8C379A000000000000000000000000000000000000000000000000000000000 DUP2 MSTORE PUSH1 0x4 ADD PUSH2 0x7CA SWAP1 PUSH2 0x2A95 JUMP JUMPDEST PUSH1 0x40 MLOAD DUP1 SWAP2 SUB SWAP1 REVERT JUMPDEST PUSH2 0x7DE DUP4 DUP4 DUP4 PUSH2 0x14FF JUMP JUMPDEST POP POP POP JUMP JUMPDEST PUSH1 0x7 DUP1 SLOAD PUSH2 0x7F0 SWAP1 PUSH2 0x28A8 JUMP JUMPDEST DUP1 PUSH1 0x1F ADD PUSH1 0x20 DUP1 SWAP2 DIV MUL PUSH1 0x20 ADD PUSH1 0x40 MLOAD SWAP1 DUP2 ADD PUSH1 0x40 MSTORE DUP1 SWAP3 SWAP2 SWAP1 DUP2 DUP2 MSTORE PUSH1 0x20 ADD DUP3 DUP1 SLOAD PUSH2 0x81C SWAP1 PUSH2 0x28A8 JUMP JUMPDEST DUP1 ISZERO PUSH2 0x869 JUMPI DUP1 PUSH1 0x1F LT PUSH2 0x83E JUMPI PUSH2 0x100 DUP1 DUP4 SLOAD DIV MUL DUP4 MSTORE SWAP2 PUSH1 0x20 ADD SWAP2 PUSH2 0x869 JUMP JUMPDEST DUP3 ADD SWAP2 SWAP1 PUSH1 0x0 MSTORE PUSH1 0x20 PUSH1 0x0 KECCAK256 SWAP1 JUMPDEST DUP2 SLOAD DUP2 MSTORE SWAP1 PUSH1 0x1 ADD SWAP1 PUSH1 0x20 ADD DUP1 DUP4 GT PUSH2 0x84C JUMPI DUP3 SWAP1 SUB PUSH1 0x1F AND DUP3 ADD SWAP2 JUMPDEST POP POP POP POP POP DUP2 JUMP JUMPDEST PUSH2 0x88C DUP4 DUP4 DUP4 PUSH1 0x40 MLOAD DUP1 PUSH1 0x20 ADD PUSH1 0x40 MSTORE DUP1 PUSH1 0x0 DUP2 MSTORE POP PUSH2 0x109B JUMP JUMPDEST POP POP POP JUMP JUMPDEST PUSH1 0x6 PUSH1 0x0 SWAP1 SLOAD SWAP1 PUSH2 0x100 EXP SWAP1 DIV PUSH1 0xFF AND ISZERO PUSH2 0x8E1 JUMPI PUSH1 0x40 MLOAD PUSH32 0x8C379A000000000000000000000000000000000000000000000000000000000 DUP2 MSTORE PUSH1 0x4 ADD PUSH2 0x8D8 SWAP1 PUSH2 0x2B01 JUMP JUMPDEST PUSH1 0x40 MLOAD DUP1 SWAP2 SUB SWAP1 REVERT JUMPDEST DUP5 DUP1 PUSH1 0x0 ADD SWAP1 PUSH2 0x8F1 SWAP2 SWAP1 PUSH2 0x2B30 JUMP JUMPDEST PUSH1 0x7 SWAP2 DUP3 PUSH2 0x900 SWAP3 SWAP2 SWAP1 PUSH2 0x2D4A JUMP JUMPDEST POP DUP5 DUP1 PUSH1 0x20 ADD SWAP1 PUSH2 0x911 SWAP2 SWAP1 PUSH2 0x2B30 JUMP JUMPDEST PUSH1 0x8 SWAP2 DUP3 PUSH2 0x920 SWAP3 SWAP2 SWAP1 PUSH2 0x2D4A JUMP JUMPDEST POP DUP4 PUSH1 0x9 PUSH1 0x0 PUSH2 0x100 EXP DUP2 SLOAD DUP2 PUSH20 0xFFFFFFFFFFFFFFFFFFFFFFFFFFFFFFFFFFFFFFFF MUL NOT AND SWAP1 DUP4 PUSH20 0xFFFFFFFFFFFFFFFFFFFFFFFFFFFFFFFFFFFFFFFF AND MUL OR SWAP1 SSTORE POP DUP3 PUSH1 0xA DUP2 SWAP1 SSTORE POP PUSH1 0x0 JUMPDEST DUP3 DUP3 SWAP1 POP DUP2 LT ISZERO PUSH2 0x9E8 JUMPI PUSH1 0xB DUP4 DUP4 DUP4 DUP2 DUP2 LT PUSH2 0x98C JUMPI PUSH2 0x98B PUSH2 0x2E1A JUMP JUMPDEST JUMPDEST SWAP1 POP PUSH1 0x20 MUL DUP2 ADD SWAP1 PUSH2 0x99E SWAP2 SWAP1 PUSH2 0x2E49 JUMP JUMPDEST SWAP1 DUP1 PUSH1 0x1 DUP2 SLOAD ADD DUP1 DUP3 SSTORE DUP1 SWAP2 POP POP PUSH1 0x1 SWAP1 SUB SWAP1 PUSH1 0x0 MSTORE PUSH1 0x20 PUSH1 0x0 KECCAK256 SWAP1 PUSH1 0x7 MUL ADD PUSH1 0x0 SWAP1 SWAP2 SWAP1 SWAP2 SWAP1 SWAP2 POP DUP2 DUP2 PUSH2 0x9D3 SWAP2 SWAP1 PUSH2 0x3280 JUMP JUMPDEST POP POP DUP1 DUP1 PUSH2 0x9E0 SWAP1 PUSH2 0x32BD JUMP JUMPDEST SWAP2 POP POP PUSH2 0x96C JUMP JUMPDEST POP PUSH1 0x1 PUSH1 0x6 PUSH1 0x0 PUSH2 0x100 EXP DUP2 SLOAD DUP2 PUSH1 0xFF MUL NOT AND SWAP1 DUP4 ISZERO ISZERO MUL OR SWAP1 SSTORE POP POP POP POP POP POP JUMP JUMPDEST PUSH1 0x6 PUSH1 0x1 SWAP1 SLOAD SWAP1 PUSH2 0x100 EXP SWAP1 DIV PUSH1 0xFF AND DUP2 JUMP JUMPDEST PUSH1 0x0 DUP1 PUSH2 0xA2A DUP4 PUSH2 0x17F8 JUMP JUMPDEST SWAP1 POP PUSH1 0x0 PUSH20 0xFFFFFFFFFFFFFFFFFFFFFFFFFFFFFFFFFFFFFFFF AND DUP2 PUSH20 0xFFFFFFFFFFFFFFFFFFFFFFFFFFFFFFFFFFFFFFFF AND SUB PUSH2 0xA9B JUMPI PUSH1 0x40 MLOAD PUSH32 0x8C379A000000000000000000000000000000000000000000000000000000000 DUP2 MSTORE PUSH1 0x4 ADD PUSH2 0xA92 SWAP1 PUSH2 0x3377 JUMP JUMPDEST PUSH1 0x40 MLOAD DUP1 SWAP2 SUB SWAP1 REVERT JUMPDEST DUP1 SWAP2 POP POP SWAP2 SWAP1 POP JUMP JUMPDEST PUSH1 0x8 DUP1 SLOAD PUSH2 0xAB1 SWAP1 PUSH2 0x28A8 JUMP JUMPDEST DUP1 PUSH1 0x1F ADD PUSH1 0x20 DUP1 SWAP2 DIV MUL PUSH1 0x20 ADD PUSH1 0x40 MLOAD SWAP1 DUP2 ADD PUSH1 0x40 MSTORE DUP1 SWAP3 SWAP2 SWAP1 DUP2 DUP2 MSTORE PUSH1 0x20 ADD DUP3 DUP1 SLOAD PUSH2 0xADD SWAP1 PUSH2 0x28A8 JUMP JUMPDEST DUP1 ISZERO PUSH2 0xB2A JUMPI DUP1 PUSH1 0x1F LT PUSH2 0xAFF JUMPI PUSH2 0x100 DUP1 DUP4 SLOAD DIV MUL DUP4 MSTORE SWAP2 PUSH1 0x20 ADD SWAP2 PUSH2 0xB2A JUMP JUMPDEST DUP3 ADD SWAP2 SWAP1 PUSH1 0x0 MSTORE PUSH1 0x20 PUSH1 0x0 KECCAK256 SWAP1 JUMPDEST DUP2 SLOAD DUP2 MSTORE SWAP1 PUSH1 0x1 ADD SWAP1 PUSH1 0x20 ADD DUP1 DUP4 GT PUSH2 0xB0D JUMPI DUP3 SWAP1 SUB PUSH1 0x1F AND DUP3 ADD SWAP2 JUMPDEST POP POP POP POP POP DUP2 JUMP JUMPDEST PUSH1 0x0 DUP1 PUSH20 0xFFFFFFFFFFFFFFFFFFFFFFFFFFFFFFFFFFFFFFFF AND DUP3 PUSH20 0xFFFFFFFFFFFFFFFFFFFFFFFFFFFFFFFFFFFFFFFF AND SUB PUSH2 0xBA2 JUMPI PUSH1 0x40 MLOAD PUSH32 0x8C379A000000000000000000000000000000000000000000000000000000000 DUP2 MSTORE PUSH1 0x4 ADD PUSH2 0xB99 SWAP1 PUSH2 0x3409 JUMP JUMPDEST PUSH1 0x40 MLOAD DUP1 SWAP2 SUB SWAP1 REVERT JUMPDEST PUSH1 0x3 PUSH1 0x0 DUP4 PUSH20 0xFFFFFFFFFFFFFFFFFFFFFFFFFFFFFFFFFFFFFFFF AND PUSH20 0xFFFFFFFFFFFFFFFFFFFFFFFFFFFFFFFFFFFFFFFF AND DUP2 MSTORE PUSH1 0x20 ADD SWAP1 DUP2 MSTORE PUSH1 0x20 ADD PUSH1 0x0 KECCAK256 SLOAD SWAP1 POP SWAP2 SWAP1 POP JUMP JUMPDEST PUSH1 0xB DUP2 DUP2 SLOAD DUP2 LT PUSH2 0xBF9 JUMPI PUSH1 0x0 DUP1 REVERT JUMPDEST SWAP1 PUSH1 0x0 MSTORE PUSH1 0x20 PUSH1 0x0 KECCAK256 SWAP1 PUSH1 0x7 MUL ADD PUSH1 0x0 SWAP2 POP SWAP1 POP DUP1 PUSH1 0x0 ADD DUP1 SLOAD PUSH2 0xC1C SWAP1 PUSH2 0x28A8 JUMP JUMPDEST DUP1 PUSH1 0x1F ADD PUSH1 0x20 DUP1 SWAP2 DIV MUL PUSH1 0x20 ADD PUSH1 0x40 MLOAD SWAP1 DUP2 ADD PUSH1 0x40 MSTORE DUP1 SWAP3 SWAP2 SWAP1 DUP2 DUP2 MSTORE PUSH1 0x20 ADD DUP3 DUP1 SLOAD PUSH2 0xC48 SWAP1 PUSH2 0x28A8 JUMP JUMPDEST DUP1 ISZERO PUSH2 0xC95 JUMPI DUP1 PUSH1 0x1F LT PUSH2 0xC6A JUMPI PUSH2 0x100 DUP1 DUP4 SLOAD DIV MUL DUP4 MSTORE SWAP2 PUSH1 0x20 ADD SWAP2 PUSH2 0xC95 JUMP JUMPDEST DUP3 ADD SWAP2 SWAP1 PUSH1 0x0 MSTORE PUSH1 0x20 PUSH1 0x0 KECCAK256 SWAP1 JUMPDEST DUP2 SLOAD DUP2 MSTORE SWAP1 PUSH1 0x1 ADD SWAP1 PUSH1 0x20 ADD DUP1 DUP4 GT PUSH2 0xC78 JUMPI DUP3 SWAP1 SUB PUSH1 0x1F AND DUP3 ADD SWAP2 JUMPDEST POP POP POP POP POP SWAP1 DUP1 PUSH1 0x1 ADD PUSH1 0x0 SWAP1 SLOAD SWAP1 PUSH2 0x100 EXP SWAP1 DIV PUSH20 0xFFFFFFFFFFFFFFFFFFFFFFFFFFFFFFFFFFFFFFFF AND SWAP1 DUP1 PUSH1 0x2 ADD DUP1 SLOAD PUSH2 0xCD0 SWAP1 PUSH2 0x28A8 JUMP JUMPDEST DUP1 PUSH1 0x1F ADD PUSH1 0x20 DUP1 SWAP2 DIV MUL PUSH1 0x20 ADD PUSH1 0x40 MLOAD SWAP1 DUP2 ADD PUSH1 0x40 MSTORE DUP1 SWAP3 SWAP2 SWAP1 DUP2 DUP2 MSTORE PUSH1 0x20 ADD DUP3 DUP1 SLOAD PUSH2 0xCFC SWAP1 PUSH2 0x28A8 JUMP JUMPDEST DUP1 ISZERO PUSH2 0xD49 JUMPI DUP1 PUSH1 0x1F LT PUSH2 0xD1E JUMPI PUSH2 0x100 DUP1 DUP4 SLOAD DIV MUL DUP4 MSTORE SWAP2 PUSH1 0x20 ADD SWAP2 PUSH2 0xD49 JUMP JUMPDEST DUP3 ADD SWAP2 SWAP1 PUSH1 0x0 MSTORE PUSH1 0x20 PUSH1 0x0 KECCAK256 SWAP1 JUMPDEST DUP2 SLOAD DUP2 MSTORE SWAP1 PUSH1 0x1 ADD SWAP1 PUSH1 0x20 ADD DUP1 DUP4 GT PUSH2 0xD2C JUMPI DUP3 SWAP1 SUB PUSH1 0x1F AND DUP3 ADD SWAP2 JUMPDEST POP POP POP POP POP SWAP1 DUP1 PUSH1 0x3 ADD PUSH1 0x0 SWAP1 SLOAD SWAP1 PUSH2 0x100 EXP SWAP1 DIV PUSH1 0xFF AND SWAP1 DUP1 PUSH1 0x4 ADD DUP1 SLOAD PUSH2 0xD71 SWAP1 PUSH2 0x28A8 JUMP JUMPDEST DUP1 PUSH1 0x1F ADD PUSH1 0x20 DUP1 SWAP2 DIV MUL PUSH1 0x20 ADD PUSH1 0x40 MLOAD SWAP1 DUP2 ADD PUSH1 0x40 MSTORE DUP1 SWAP3 SWAP2 SWAP1 DUP2 DUP2 MSTORE PUSH1 0x20 ADD DUP3 DUP1 SLOAD PUSH2 0xD9D SWAP1 PUSH2 0x28A8 JUMP JUMPDEST DUP1 ISZERO PUSH2 0xDEA JUMPI DUP1 PUSH1 0x1F LT PUSH2 0xDBF JUMPI PUSH2 0x100 DUP1 DUP4 SLOAD DIV MUL DUP4 MSTORE SWAP2 PUSH1 0x20 ADD SWAP2 PUSH2 0xDEA JUMP JUMPDEST DUP3 ADD SWAP2 SWAP1 PUSH1 0x0 MSTORE PUSH1 0x20 PUSH1 0x0 KECCAK256 SWAP1 JUMPDEST DUP2 SLOAD DUP2 MSTORE SWAP1 PUSH1 0x1 ADD SWAP1 PUSH1 0x20 ADD DUP1 DUP4 GT PUSH2 0xDCD JUMPI DUP3 SWAP1 SUB PUSH1 0x1F AND DUP3 ADD SWAP2 JUMPDEST POP POP POP POP POP SWAP1 DUP1 PUSH1 0x5 ADD DUP1 SLOAD PUSH2 0xDFF SWAP1 PUSH2 0x28A8 JUMP JUMPDEST DUP1 PUSH1 0x1F ADD PUSH1 0x20 DUP1 SWAP2 DIV MUL PUSH1 0x20 ADD PUSH1 0x40 MLOAD SWAP1 DUP2 ADD PUSH1 0x40 MSTORE DUP1 SWAP3 SWAP2 SWAP1 DUP2 DUP2 MSTORE PUSH1 0x20 ADD DUP3 DUP1 SLOAD PUSH2 0xE2B SWAP1 PUSH2 0x28A8 JUMP JUMPDEST DUP1 ISZERO PUSH2 0xE78 JUMPI DUP1 PUSH1 0x1F LT PUSH2 0xE4D JUMPI PUSH2 0x100 DUP1 DUP4 SLOAD DIV MUL DUP4 MSTORE SWAP2 PUSH1 0x20 ADD SWAP2 PUSH2 0xE78 JUMP JUMPDEST DUP3 ADD SWAP2 SWAP1 PUSH1 0x0 MSTORE PUSH1 0x20 PUSH1 0x0 KECCAK256 SWAP1 JUMPDEST DUP2 SLOAD DUP2 MSTORE SWAP1 PUSH1 0x1 ADD SWAP1 PUSH1 0x20 ADD DUP1 DUP4 GT PUSH2 0xE5B JUMPI DUP3 SWAP1 SUB PUSH1 0x1F AND DUP3 ADD SWAP2 JUMPDEST POP POP POP POP POP SWAP1 DUP1 PUSH1 0x6 ADD DUP1 SLOAD PUSH2 0xE8D SWAP1 PUSH2 0x28A8 JUMP JUMPDEST DUP1 PUSH1 0x1F ADD PUSH1 0x20 DUP1 SWAP2 DIV MUL PUSH1 0x20 ADD PUSH1 0x40 MLOAD SWAP1 DUP2 ADD PUSH1 0x40 MSTORE DUP1 SWAP3 SWAP2 SWAP1 DUP2 DUP2 MSTORE PUSH1 0x20 ADD DUP3 DUP1 SLOAD PUSH2 0xEB9 SWAP1 PUSH2 0x28A8 JUMP JUMPDEST DUP1 ISZERO PUSH2 0xF06 JUMPI DUP1 PUSH1 0x1F LT PUSH2 0xEDB JUMPI PUSH2 0x100 DUP1 DUP4 SLOAD DIV MUL DUP4 MSTORE SWAP2 PUSH1 0x20 ADD SWAP2 PUSH2 0xF06 JUMP JUMPDEST DUP3 ADD SWAP2 SWAP1 PUSH1 0x0 MSTORE PUSH1 0x20 PUSH1 0x0 KECCAK256 SWAP1 JUMPDEST DUP2 SLOAD DUP2 MSTORE SWAP1 PUSH1 0x1 ADD SWAP1 PUSH1 0x20 ADD DUP1 DUP4 GT PUSH2 0xEE9 JUMPI DUP3 SWAP1 SUB PUSH1 0x1F AND DUP3 ADD SWAP2 JUMPDEST POP POP POP POP POP SWAP1 POP DUP8 JUMP JUMPDEST PUSH1 0x60 PUSH1 0x1 DUP1 SLOAD PUSH2 0xF1F SWAP1 PUSH2 0x28A8 JUMP JUMPDEST DUP1 PUSH1 0x1F ADD PUSH1 0x20 DUP1 SWAP2 DIV MUL PUSH1 0x20 ADD PUSH1 0x40 MLOAD SWAP1 DUP2 ADD PUSH1 0x40 MSTORE DUP1 SWAP3 SWAP2 SWAP1 DUP2 DUP2 MSTORE PUSH1 0x20 ADD DUP3 DUP1 SLOAD PUSH2 0xF4B SWAP1 PUSH2 0x28A8 JUMP JUMPDEST DUP1 ISZERO PUSH2 0xF98 JUMPI DUP1 PUSH1 0x1F LT PUSH2 0xF6D JUMPI PUSH2 0x100 DUP1 DUP4 SLOAD DIV MUL DUP4 MSTORE SWAP2 PUSH1 0x20 ADD SWAP2 PUSH2 0xF98 JUMP JUMPDEST DUP3 ADD SWAP2 SWAP1 PUSH1 0x0 MSTORE PUSH1 0x20 PUSH1 0x0 KECCAK256 SWAP1 JUMPDEST DUP2 SLOAD DUP2 MSTORE SWAP1 PUSH1 0x1 ADD SWAP1 PUSH1 0x20 ADD DUP1 DUP4 GT PUSH2 0xF7B JUMPI DUP3 SWAP1 SUB PUSH1 0x1F AND DUP3 ADD SWAP2 JUMPDEST POP POP POP POP POP SWAP1 POP SWAP1 JUMP JUMPDEST PUSH1 0xA SLOAD DUP2 JUMP JUMPDEST PUSH2 0xFBA PUSH2 0xFB3 PUSH2 0x13A9 JUMP JUMPDEST DUP4 DUP4 PUSH2 0x1835 JUMP JUMPDEST POP POP JUMP JUMPDEST PUSH1 0x6 PUSH1 0x1 SWAP1 SLOAD SWAP1 PUSH2 0x100 EXP SWAP1 DIV PUSH1 0xFF AND ISZERO PUSH2 0x100E JUMPI PUSH1 0x40 MLOAD PUSH32 0x8C379A000000000000000000000000000000000000000000000000000000000 DUP2 MSTORE PUSH1 0x4 ADD PUSH2 0x1005 SWAP1 PUSH2 0x3475 JUMP JUMPDEST PUSH1 0x40 MLOAD DUP1 SWAP2 SUB SWAP1 REVERT JUMPDEST PUSH2 0x1019 DUP2 PUSH1 0x0 PUSH2 0x19A1 JUMP JUMPDEST PUSH1 0x1 PUSH1 0x6 PUSH1 0x1 PUSH2 0x100 EXP DUP2 SLOAD DUP2 PUSH1 0xFF MUL NOT AND SWAP1 DUP4 ISZERO ISZERO MUL OR SWAP1 SSTORE POP POP JUMP JUMPDEST PUSH1 0x0 PUSH1 0x1 DUP1 SLOAD PUSH2 0x1046 SWAP1 PUSH2 0x28A8 JUMP JUMPDEST SWAP1 POP EQ PUSH2 0x1088 JUMPI PUSH1 0x40 MLOAD PUSH32 0x8C379A000000000000000000000000000000000000000000000000000000000 DUP2 MSTORE PUSH1 0x4 ADD PUSH2 0x107F SWAP1 PUSH2 0x3507 JUMP JUMPDEST PUSH1 0x40 MLOAD DUP1 SWAP2 SUB SWAP1 REVERT JUMPDEST DUP1 PUSH1 0x1 SWAP1 DUP2 PUSH2 0x1097 SWAP2 SWAP1 PUSH2 0x3527 JUMP JUMPDEST POP POP JUMP JUMPDEST PUSH2 0x10AC PUSH2 0x10A6 PUSH2 0x13A9 JUMP JUMPDEST DUP4 PUSH2 0x146A JUMP JUMPDEST PUSH2 0x10EB JUMPI PUSH1 0x40 MLOAD PUSH32 0x8C379A000000000000000000000000000000000000000000000000000000000 DUP2 MSTORE PUSH1 0x4 ADD PUSH2 0x10E2 SWAP1 PUSH2 0x2A95 JUMP JUMPDEST PUSH1 0x40 MLOAD DUP1 SWAP2 SUB SWAP1 REVERT JUMPDEST PUSH2 0x10F7 DUP5 DUP5 DUP5 DUP5 PUSH2 0x19BF JUMP JUMPDEST POP POP POP POP JUMP JUMPDEST PUSH1 0x0 DUP1 DUP1 SLOAD PUSH2 0x110B SWAP1 PUSH2 0x28A8 JUMP JUMPDEST SWAP1 POP EQ PUSH2 0x114D JUMPI PUSH1 0x40 MLOAD PUSH32 0x8C379A000000000000000000000000000000000000000000000000000000000 DUP2 MSTORE PUSH1 0x4 ADD PUSH2 0x1144 SWAP1 PUSH2 0x366B JUMP JUMPDEST PUSH1 0x40 MLOAD DUP1 SWAP2 SUB SWAP1 REVERT JUMPDEST DUP1 PUSH1 0x0 SWAP1 DUP2 PUSH2 0x115C SWAP2 SWAP1 PUSH2 0x3527 JUMP JUMPDEST POP POP JUMP JUMPDEST PUSH1 0x60 PUSH1 0x0 PUSH1 0x9 PUSH1 0x0 SWAP1 SLOAD SWAP1 PUSH2 0x100 EXP SWAP1 DIV PUSH20 0xFFFFFFFFFFFFFFFFFFFFFFFFFFFFFFFFFFFFFFFF AND PUSH20 0xFFFFFFFFFFFFFFFFFFFFFFFFFFFFFFFFFFFFFFFF AND PUSH4 0xB4F7D41E PUSH1 0xB PUSH1 0xA SLOAD PUSH1 0x40 MLOAD DUP4 PUSH4 0xFFFFFFFF AND PUSH1 0xE0 SHL DUP2 MSTORE PUSH1 0x4 ADD PUSH2 0x11C4 SWAP3 SWAP2 SWAP1 PUSH2 0x39D2 JUMP JUMPDEST PUSH1 0x0 PUSH1 0x40 MLOAD DUP1 DUP4 SUB DUP2 DUP7 GAS STATICCALL ISZERO DUP1 ISZERO PUSH2 0x11E1 JUMPI RETURNDATASIZE PUSH1 0x0 DUP1 RETURNDATACOPY RETURNDATASIZE PUSH1 0x0 REVERT JUMPDEST POP POP POP POP PUSH1 0x40 MLOAD RETURNDATASIZE PUSH1 0x0 DUP3 RETURNDATACOPY RETURNDATASIZE PUSH1 0x1F NOT PUSH1 0x1F DUP3 ADD AND DUP3 ADD DUP1 PUSH1 0x40 MSTORE POP DUP2 ADD SWAP1 PUSH2 0x120A SWAP2 SWAP1 PUSH2 0x3A72 JUMP JUMPDEST SWAP1 POP PUSH1 0x7 PUSH1 0x8 DUP3 PUSH1 0x40 MLOAD PUSH1 0x20 ADD PUSH2 0x1223 SWAP4 SWAP3 SWAP2 SWAP1 PUSH2 0x3CDB JUMP JUMPDEST PUSH1 0x40 MLOAD PUSH1 0x20 DUP2 DUP4 SUB SUB DUP2 MSTORE SWAP1 PUSH1 0x40 MSTORE SWAP2 POP POP SWAP2 SWAP1 POP JUMP JUMPDEST PUSH1 0x9 PUSH1 0x0 SWAP1 SLOAD SWAP1 PUSH2 0x100 EXP SWAP1 DIV PUSH20 0xFFFFFFFFFFFFFFFFFFFFFFFFFFFFFFFFFFFFFFFF AND DUP2 JUMP JUMPDEST PUSH1 0x0 PUSH1 0x5 PUSH1 0x0 DUP5 PUSH20 0xFFFFFFFFFFFFFFFFFFFFFFFFFFFFFFFFFFFFFFFF AND PUSH20 0xFFFFFFFFFFFFFFFFFFFFFFFFFFFFFFFFFFFFFFFF AND DUP2 MSTORE PUSH1 0x20 ADD SWAP1 DUP2 MSTORE PUSH1 0x20 ADD PUSH1 0x0 KECCAK256 PUSH1 0x0 DUP4 PUSH20 0xFFFFFFFFFFFFFFFFFFFFFFFFFFFFFFFFFFFFFFFF AND PUSH20 0xFFFFFFFFFFFFFFFFFFFFFFFFFFFFFFFFFFFFFFFF AND DUP2 MSTORE PUSH1 0x20 ADD SWAP1 DUP2 MSTORE PUSH1 0x20 ADD PUSH1 0x0 KECCAK256 PUSH1 0x0 SWAP1 SLOAD SWAP1 PUSH2 0x100 EXP SWAP1 DIV PUSH1 0xFF AND SWAP1 POP SWAP3 SWAP2 POP POP JUMP JUMPDEST PUSH1 0x0 PUSH32 0x1FFC9A700000000000000000000000000000000000000000000000000000000 PUSH28 0xFFFFFFFFFFFFFFFFFFFFFFFFFFFFFFFFFFFFFFFFFFFFFFFFFFFFFFFF NOT AND DUP3 PUSH28 0xFFFFFFFFFFFFFFFFFFFFFFFFFFFFFFFFFFFFFFFFFFFFFFFFFFFFFFFF NOT AND EQ SWAP1 POP SWAP2 SWAP1 POP JUMP JUMPDEST PUSH2 0x1367 DUP2 PUSH2 0x1A1B JUMP JUMPDEST PUSH2 0x13A6 JUMPI PUSH1 0x40 MLOAD PUSH32 0x8C379A000000000000000000000000000000000000000000000000000000000 DUP2 MSTORE PUSH1 0x4 ADD PUSH2 0x139D SWAP1 PUSH2 0x3377 JUMP JUMPDEST PUSH1 0x40 MLOAD DUP1 SWAP2 SUB SWAP1 REVERT JUMPDEST POP JUMP JUMPDEST PUSH1 0x0 CALLER SWAP1 POP SWAP1 JUMP JUMPDEST DUP2 PUSH1 0x4 PUSH1 0x0 DUP4 DUP2 MSTORE PUSH1 0x20 ADD SWAP1 DUP2 MSTORE PUSH1 0x20 ADD PUSH1 0x0 KECCAK256 PUSH1 0x0 PUSH2 0x100 EXP DUP2 SLOAD DUP2 PUSH20 0xFFFFFFFFFFFFFFFFFFFFFFFFFFFFFFFFFFFFFFFF MUL NOT AND SWAP1 DUP4 PUSH20 0xFFFFFFFFFFFFFFFFFFFFFFFFFFFFFFFFFFFFFFFF AND MUL OR SWAP1 SSTORE POP DUP1 DUP3 PUSH20 0xFFFFFFFFFFFFFFFFFFFFFFFFFFFFFFFFFFFFFFFF AND PUSH2 0x1424 DUP4 PUSH2 0xA1E JUMP JUMPDEST PUSH20 0xFFFFFFFFFFFFFFFFFFFFFFFFFFFFFFFFFFFFFFFF AND PUSH32 0x8C5BE1E5EBEC7D5BD14F71427D1E84F3DD0314C0F7B2291E5B200AC8C7C3B925 PUSH1 0x40 MLOAD PUSH1 0x40 MLOAD DUP1 SWAP2 SUB SWAP1 LOG4 POP POP JUMP JUMPDEST PUSH1 0x0 DUP1 PUSH2 0x1476 DUP4 PUSH2 0xA1E JUMP JUMPDEST SWAP1 POP DUP1 PUSH20 0xFFFFFFFFFFFFFFFFFFFFFFFFFFFFFFFFFFFFFFFF AND DUP5 PUSH20 0xFFFFFFFFFFFFFFFFFFFFFFFFFFFFFFFFFFFFFFFF AND EQ DUP1 PUSH2 0x14B8 JUMPI POP PUSH2 0x14B7 DUP2 DUP6 PUSH2 0x1260 JUMP JUMPDEST JUMPDEST DUP1 PUSH2 0x14F6 JUMPI POP DUP4 PUSH20 0xFFFFFFFFFFFFFFFFFFFFFFFFFFFFFFFFFFFFFFFF AND PUSH2 0x14DE DUP5 PUSH2 0x613 JUMP JUMPDEST PUSH20 0xFFFFFFFFFFFFFFFFFFFFFFFFFFFFFFFFFFFFFFFF AND EQ JUMPDEST SWAP2 POP POP SWAP3 SWAP2 POP POP JUMP JUMPDEST DUP3 PUSH20 0xFFFFFFFFFFFFFFFFFFFFFFFFFFFFFFFFFFFFFFFF AND PUSH2 0x151F DUP3 PUSH2 0xA1E JUMP JUMPDEST PUSH20 0xFFFFFFFFFFFFFFFFFFFFFFFFFFFFFFFFFFFFFFFF AND EQ PUSH2 0x1575 JUMPI PUSH1 0x40 MLOAD PUSH32 0x8C379A000000000000000000000000000000000000000000000000000000000 DUP2 MSTORE PUSH1 0x4 ADD PUSH2 0x156C SWAP1 PUSH2 0x3DAA JUMP JUMPDEST PUSH1 0x40 MLOAD DUP1 SWAP2 SUB SWAP1 REVERT JUMPDEST PUSH1 0x0 PUSH20 0xFFFFFFFFFFFFFFFFFFFFFFFFFFFFFFFFFFFFFFFF AND DUP3 PUSH20 0xFFFFFFFFFFFFFFFFFFFFFFFFFFFFFFFFFFFFFFFF AND SUB PUSH2 0x15E4 JUMPI PUSH1 0x40 MLOAD PUSH32 0x8C379A000000000000000000000000000000000000000000000000000000000 DUP2 MSTORE PUSH1 0x4 ADD PUSH2 0x15DB SWAP1 PUSH2 0x3E3C JUMP JUMPDEST PUSH1 0x40 MLOAD DUP1 SWAP2 SUB SWAP1 REVERT JUMPDEST PUSH2 0x15F1 DUP4 DUP4 DUP4 PUSH1 0x1 PUSH2 0x1A5C JUMP JUMPDEST DUP3 PUSH20 0xFFFFFFFFFFFFFFFFFFFFFFFFFFFFFFFFFFFFFFFF AND PUSH2 0x1611 DUP3 PUSH2 0xA1E JUMP JUMPDEST PUSH20 0xFFFFFFFFFFFFFFFFFFFFFFFFFFFFFFFFFFFFFFFF AND EQ PUSH2 0x1667 JUMPI PUSH1 0x40 MLOAD PUSH32 0x8C379A000000000000000000000000000000000000000000000000000000000 DUP2 MSTORE PUSH1 0x4 ADD PUSH2 0x165E SWAP1 PUSH2 0x3DAA JUMP JUMPDEST PUSH1 0x40 MLOAD DUP1 SWAP2 SUB SWAP1 REVERT JUMPDEST PUSH1 0x4 PUSH1 0x0 DUP3 DUP2 MSTORE PUSH1 0x20 ADD SWAP1 DUP2 MSTORE PUSH1 0x20 ADD PUSH1 0x0 KECCAK256 PUSH1 0x0 PUSH2 0x100 EXP DUP2 SLOAD SWAP1 PUSH20 0xFFFFFFFFFFFFFFFFFFFFFFFFFFFFFFFFFFFFFFFF MUL NOT AND SWAP1 SSTORE PUSH1 0x1 PUSH1 0x3 PUSH1 0x0 DUP6 PUSH20 0xFFFFFFFFFFFFFFFFFFFFFFFFFFFFFFFFFFFFFFFF AND PUSH20 0xFFFFFFFFFFFFFFFFFFFFFFFFFFFFFFFFFFFFFFFF AND DUP2 MSTORE PUSH1 0x20 ADD SWAP1 DUP2 MSTORE PUSH1 0x20 ADD PUSH1 0x0 KECCAK256 PUSH1 0x0 DUP3 DUP3 SLOAD SUB SWAP3 POP POP DUP2 SWAP1 SSTORE POP PUSH1 0x1 PUSH1 0x3 PUSH1 0x0 DUP5 PUSH20 0xFFFFFFFFFFFFFFFFFFFFFFFFFFFFFFFFFFFFFFFF AND PUSH20 0xFFFFFFFFFFFFFFFFFFFFFFFFFFFFFFFFFFFFFFFF AND DUP2 MSTORE PUSH1 0x20 ADD SWAP1 DUP2 MSTORE PUSH1 0x20 ADD PUSH1 0x0 KECCAK256 PUSH1 0x0 DUP3 DUP3 SLOAD ADD SWAP3 POP POP DUP2 SWAP1 SSTORE POP DUP2 PUSH1 0x2 PUSH1 0x0 DUP4 DUP2 MSTORE PUSH1 0x20 ADD SWAP1 DUP2 MSTORE PUSH1 0x20 ADD PUSH1 0x0 KECCAK256 PUSH1 0x0 PUSH2 0x100 EXP DUP2 SLOAD DUP2 PUSH20 0xFFFFFFFFFFFFFFFFFFFFFFFFFFFFFFFFFFFFFFFF MUL NOT AND SWAP1 DUP4 PUSH20 0xFFFFFFFFFFFFFFFFFFFFFFFFFFFFFFFFFFFFFFFF AND MUL OR SWAP1 SSTORE POP DUP1 DUP3 PUSH20 0xFFFFFFFFFFFFFFFFFFFFFFFFFFFFFFFFFFFFFFFF AND DUP5 PUSH20 0xFFFFFFFFFFFFFFFFFFFFFFFFFFFFFFFFFFFFFFFF AND PUSH32 0xDDF252AD1BE2C89B69C2B068FC378DAA952BA7F163C4A11628F55A4DF523B3EF PUSH1 0x40 MLOAD PUSH1 0x40 MLOAD DUP1 SWAP2 SUB SWAP1 LOG4 PUSH2 0x17F3 DUP4 DUP4 DUP4 PUSH1 0x1 PUSH2 0x1B82 JUMP JUMPDEST POP POP POP JUMP JUMPDEST PUSH1 0x0 PUSH1 0x2 PUSH1 0x0 DUP4 DUP2 MSTORE PUSH1 0x20 ADD SWAP1 DUP2 MSTORE PUSH1 0x20 ADD PUSH1 0x0 KECCAK256 PUSH1 0x0 SWAP1 SLOAD SWAP1 PUSH2 0x100 EXP SWAP1 DIV PUSH20 0xFFFFFFFFFFFFFFFFFFFFFFFFFFFFFFFFFFFFFFFF AND SWAP1 POP SWAP2 SWAP1 POP JUMP JUMPDEST DUP2 PUSH20 0xFFFFFFFFFFFFFFFFFFFFFFFFFFFFFFFFFFFFFFFF AND DUP4 PUSH20 0xFFFFFFFFFFFFFFFFFFFFFFFFFFFFFFFFFFFFFFFF AND SUB PUSH2 0x18A3 JUMPI PUSH1 0x40 MLOAD PUSH32 0x8C379A000000000000000000000000000000000000000000000000000000000 DUP2 MSTORE PUSH1 0x4 ADD PUSH2 0x189A SWAP1 PUSH2 0x3ECE JUMP JUMPDEST PUSH1 0x40 MLOAD DUP1 SWAP2 SUB SWAP1 REVERT JUMPDEST DUP1 PUSH1 0x5 PUSH1 0x0 DUP6 PUSH20 0xFFFFFFFFFFFFFFFFFFFFFFFFFFFFFFFFFFFFFFFF AND PUSH20 0xFFFFFFFFFFFFFFFFFFFFFFFFFFFFFFFFFFFFFFFF AND DUP2 MSTORE PUSH1 0x20 ADD SWAP1 DUP2 MSTORE PUSH1 0x20 ADD PUSH1 0x0 KECCAK256 PUSH1 0x0 DUP5 PUSH20 0xFFFFFFFFFFFFFFFFFFFFFFFFFFFFFFFFFFFFFFFF AND PUSH20 0xFFFFFFFFFFFFFFFFFFFFFFFFFFFFFFFFFFFFFFFF AND DUP2 MSTORE PUSH1 0x20 ADD SWAP1 DUP2 MSTORE PUSH1 0x20 ADD PUSH1 0x0 KECCAK256 PUSH1 0x0 PUSH2 0x100 EXP DUP2 SLOAD DUP2 PUSH1 0xFF MUL NOT AND SWAP1 DUP4 ISZERO ISZERO MUL OR SWAP1 SSTORE POP DUP2 PUSH20 0xFFFFFFFFFFFFFFFFFFFFFFFFFFFFFFFFFFFFFFFF AND DUP4 PUSH20 0xFFFFFFFFFFFFFFFFFFFFFFFFFFFFFFFFFFFFFFFF AND PUSH32 0x17307EAB39AB6107E8899845AD3D59BD9653F200F220920489CA2B5937696C31 DUP4 PUSH1 0x40 MLOAD PUSH2 0x1994 SWAP2 SWAP1 PUSH2 0x205E JUMP JUMPDEST PUSH1 0x40 MLOAD DUP1 SWAP2 SUB SWAP1 LOG3 POP POP POP JUMP JUMPDEST PUSH2 0x19BB DUP3 DUP3 PUSH1 0x40 MLOAD DUP1 PUSH1 0x20 ADD PUSH1 0x40 MSTORE DUP1 PUSH1 0x0 DUP2 MSTORE POP PUSH2 0x1B88 JUMP JUMPDEST POP POP JUMP JUMPDEST PUSH2 0x19CA DUP5 DUP5 DUP5 PUSH2 0x14FF JUMP JUMPDEST PUSH2 0x19D6 DUP5 DUP5 DUP5 DUP5 PUSH2 0x1BE3 JUMP JUMPDEST PUSH2 0x1A15 JUMPI PUSH1 0x40 MLOAD PUSH32 0x8C379A000000000000000000000000000000000000000000000000000000000 DUP2 MSTORE PUSH1 0x4 ADD PUSH2 0x1A0C SWAP1 PUSH2 0x3F60 JUMP JUMPDEST PUSH1 0x40 MLOAD DUP1 SWAP2 SUB SWAP1 REVERT JUMPDEST POP POP POP POP JUMP JUMPDEST PUSH1 0x0 DUP1 PUSH20 0xFFFFFFFFFFFFFFFFFFFFFFFFFFFFFFFFFFFFFFFF AND PUSH2 0x1A3D DUP4 PUSH2 0x17F8 JUMP JUMPDEST PUSH20 0xFFFFFFFFFFFFFFFFFFFFFFFFFFFFFFFFFFFFFFFF AND EQ ISZERO SWAP1 POP SWAP2 SWAP1 POP JUMP JUMPDEST PUSH1 0x1 DUP2 GT ISZERO PUSH2 0x1B7C JUMPI PUSH1 0x0 PUSH20 0xFFFFFFFFFFFFFFFFFFFFFFFFFFFFFFFFFFFFFFFF AND DUP5 PUSH20 0xFFFFFFFFFFFFFFFFFFFFFFFFFFFFFFFFFFFFFFFF AND EQ PUSH2 0x1AF0 JUMPI DUP1 PUSH1 0x3 PUSH1 0x0 DUP7 PUSH20 0xFFFFFFFFFFFFFFFFFFFFFFFFFFFFFFFFFFFFFFFF AND PUSH20 0xFFFFFFFFFFFFFFFFFFFFFFFFFFFFFFFFFFFFFFFF AND DUP2 MSTORE PUSH1 0x20 ADD SWAP1 DUP2 MSTORE PUSH1 0x20 ADD PUSH1 0x0 KECCAK256 PUSH1 0x0 DUP3 DUP3 SLOAD PUSH2 0x1AE8 SWAP2 SWAP1 PUSH2 0x3F80 JUMP JUMPDEST SWAP3 POP POP DUP2 SWAP1 SSTORE POP JUMPDEST PUSH1 0x0 PUSH20 0xFFFFFFFFFFFFFFFFFFFFFFFFFFFFFFFFFFFFFFFF AND DUP4 PUSH20 0xFFFFFFFFFFFFFFFFFFFFFFFFFFFFFFFFFFFFFFFF AND EQ PUSH2 0x1B7B JUMPI DUP1 PUSH1 0x3 PUSH1 0x0 DUP6 PUSH20 0xFFFFFFFFFFFFFFFFFFFFFFFFFFFFFFFFFFFFFFFF AND PUSH20 0xFFFFFFFFFFFFFFFFFFFFFFFFFFFFFFFFFFFFFFFF AND DUP2 MSTORE PUSH1 0x20 ADD SWAP1 DUP2 MSTORE PUSH1 0x20 ADD PUSH1 0x0 KECCAK256 PUSH1 0x0 DUP3 DUP3 SLOAD PUSH2 0x1B73 SWAP2 SWAP1 PUSH2 0x3FB4 JUMP JUMPDEST SWAP3 POP POP DUP2 SWAP1 SSTORE POP JUMPDEST JUMPDEST POP POP POP POP JUMP JUMPDEST POP POP POP POP JUMP JUMPDEST PUSH2 0x1B92 DUP4 DUP4 PUSH2 0x1D6A JUMP JUMPDEST PUSH2 0x1B9F PUSH1 0x0 DUP5 DUP5 DUP5 PUSH2 0x1BE3 JUMP JUMPDEST PUSH2 0x1BDE JUMPI PUSH1 0x40 MLOAD PUSH32 0x8C379A000000000000000000000000000000000000000000000000000000000 DUP2 MSTORE PUSH1 0x4 ADD PUSH2 0x1BD5 SWAP1 PUSH2 0x3F60 JUMP JUMPDEST PUSH1 0x40 MLOAD DUP1 SWAP2 SUB SWAP1 REVERT JUMPDEST POP POP POP JUMP JUMPDEST PUSH1 0x0 PUSH2 0x1C04 DUP5 PUSH20 0xFFFFFFFFFFFFFFFFFFFFFFFFFFFFFFFFFFFFFFFF AND PUSH2 0x1F87 JUMP JUMPDEST ISZERO PUSH2 0x1D5D JUMPI DUP4 PUSH20 0xFFFFFFFFFFFFFFFFFFFFFFFFFFFFFFFFFFFFFFFF AND PUSH4 0x150B7A02 PUSH2 0x1C2D PUSH2 0x13A9 JUMP JUMPDEST DUP8 DUP7 DUP7 PUSH1 0x40 MLOAD DUP6 PUSH4 0xFFFFFFFF AND PUSH1 0xE0 SHL DUP2 MSTORE PUSH1 0x4 ADD PUSH2 0x1C4F SWAP5 SWAP4 SWAP3 SWAP2 SWAP1 PUSH2 0x3FE8 JUMP JUMPDEST PUSH1 0x20 PUSH1 0x40 MLOAD DUP1 DUP4 SUB DUP2 PUSH1 0x0 DUP8 GAS CALL SWAP3 POP POP POP DUP1 ISZERO PUSH2 0x1C8B JUMPI POP PUSH1 0x40 MLOAD RETURNDATASIZE PUSH1 0x1F NOT PUSH1 0x1F DUP3 ADD AND DUP3 ADD DUP1 PUSH1 0x40 MSTORE POP DUP2 ADD SWAP1 PUSH2 0x1C88 SWAP2 SWAP1 PUSH2 0x4049 JUMP JUMPDEST PUSH1 0x1 JUMPDEST PUSH2 0x1D0D JUMPI RETURNDATASIZE DUP1 PUSH1 0x0 DUP2 EQ PUSH2 0x1CBB JUMPI PUSH1 0x40 MLOAD SWAP2 POP PUSH1 0x1F NOT PUSH1 0x3F RETURNDATASIZE ADD AND DUP3 ADD PUSH1 0x40 MSTORE RETURNDATASIZE DUP3 MSTORE RETURNDATASIZE PUSH1 0x0 PUSH1 0x20 DUP5 ADD RETURNDATACOPY PUSH2 0x1CC0 JUMP JUMPDEST PUSH1 0x60 SWAP2 POP JUMPDEST POP PUSH1 0x0 DUP2 MLOAD SUB PUSH2 0x1D05 JUMPI PUSH1 0x40 MLOAD PUSH32 0x8C379A000000000000000000000000000000000000000000000000000000000 DUP2 MSTORE PUSH1 0x4 ADD PUSH2 0x1CFC SWAP1 PUSH2 0x3F60 JUMP JUMPDEST PUSH1 0x40 MLOAD DUP1 SWAP2 SUB SWAP1 REVERT JUMPDEST DUP1 MLOAD DUP2 PUSH1 0x20 ADD REVERT JUMPDEST PUSH4 0x150B7A02 PUSH1 0xE0 SHL PUSH28 0xFFFFFFFFFFFFFFFFFFFFFFFFFFFFFFFFFFFFFFFFFFFFFFFFFFFFFFFF NOT AND DUP2 PUSH28 0xFFFFFFFFFFFFFFFFFFFFFFFFFFFFFFFFFFFFFFFFFFFFFFFFFFFFFFFF NOT AND EQ SWAP2 POP POP PUSH2 0x1D62 JUMP JUMPDEST PUSH1 0x1 SWAP1 POP JUMPDEST SWAP5 SWAP4 POP POP POP POP JUMP JUMPDEST PUSH1 0x0 PUSH20 0xFFFFFFFFFFFFFFFFFFFFFFFFFFFFFFFFFFFFFFFF AND DUP3 PUSH20 0xFFFFFFFFFFFFFFFFFFFFFFFFFFFFFFFFFFFFFFFF AND SUB PUSH2 0x1DD9 JUMPI PUSH1 0x40 MLOAD PUSH32 0x8C379A000000000000000000000000000000000000000000000000000000000 DUP2 MSTORE PUSH1 0x4 ADD PUSH2 0x1DD0 SWAP1 PUSH2 0x40E8 JUMP JUMPDEST PUSH1 0x40 MLOAD DUP1 SWAP2 SUB SWAP1 REVERT JUMPDEST PUSH2 0x1DE2 DUP2 PUSH2 0x1A1B JUMP JUMPDEST ISZERO PUSH2 0x1E22 JUMPI PUSH1 0x40 MLOAD PUSH32 0x8C379A000000000000000000000000000000000000000000000000000000000 DUP2 MSTORE PUSH1 0x4 ADD PUSH2 0x1E19 SWAP1 PUSH2 0x417A JUMP JUMPDEST PUSH1 0x40 MLOAD DUP1 SWAP2 SUB SWAP1 REVERT JUMPDEST PUSH2 0x1E30 PUSH1 0x0 DUP4 DUP4 PUSH1 0x1 PUSH2 0x1A5C JUMP JUMPDEST PUSH2 0x1E39 DUP2 PUSH2 0x1A1B JUMP JUMPDEST ISZERO PUSH2 0x1E79 JUMPI PUSH1 0x40 MLOAD PUSH32 0x8C379A000000000000000000000000000000000000000000000000000000000 DUP2 MSTORE PUSH1 0x4 ADD PUSH2 0x1E70 SWAP1 PUSH2 0x417A JUMP JUMPDEST PUSH1 0x40 MLOAD DUP1 SWAP2 SUB SWAP1 REVERT JUMPDEST PUSH1 0x1 PUSH1 0x3 PUSH1 0x0 DUP5 PUSH20 0xFFFFFFFFFFFFFFFFFFFFFFFFFFFFFFFFFFFFFFFF AND PUSH20 0xFFFFFFFFFFFFFFFFFFFFFFFFFFFFFFFFFFFFFFFF AND DUP2 MSTORE PUSH1 0x20 ADD SWAP1 DUP2 MSTORE PUSH1 0x20 ADD PUSH1 0x0 KECCAK256 PUSH1 0x0 DUP3 DUP3 SLOAD ADD SWAP3 POP POP DUP2 SWAP1 SSTORE POP DUP2 PUSH1 0x2 PUSH1 0x0 DUP4 DUP2 MSTORE PUSH1 0x20 ADD SWAP1 DUP2 MSTORE PUSH1 0x20 ADD PUSH1 0x0 KECCAK256 PUSH1 0x0 PUSH2 0x100 EXP DUP2 SLOAD DUP2 PUSH20 0xFFFFFFFFFFFFFFFFFFFFFFFFFFFFFFFFFFFFFFFF MUL NOT AND SWAP1 DUP4 PUSH20 0xFFFFFFFFFFFFFFFFFFFFFFFFFFFFFFFFFFFFFFFF AND MUL OR SWAP1 SSTORE POP DUP1 DUP3 PUSH20 0xFFFFFFFFFFFFFFFFFFFFFFFFFFFFFFFFFFFFFFFF AND PUSH1 0x0 PUSH20 0xFFFFFFFFFFFFFFFFFFFFFFFFFFFFFFFFFFFFFFFF AND PUSH32 0xDDF252AD1BE2C89B69C2B068FC378DAA952BA7F163C4A11628F55A4DF523B3EF PUSH1 0x40 MLOAD PUSH1 0x40 MLOAD DUP1 SWAP2 SUB SWAP1 LOG4 PUSH2 0x1F83 PUSH1 0x0 DUP4 DUP4 PUSH1 0x1 PUSH2 0x1B82 JUMP JUMPDEST POP POP JUMP JUMPDEST PUSH1 0x0 DUP1 DUP3 PUSH20 0xFFFFFFFFFFFFFFFFFFFFFFFFFFFFFFFFFFFFFFFF AND EXTCODESIZE GT SWAP1 POP SWAP2 SWAP1 POP JUMP JUMPDEST PUSH1 0x0 PUSH1 0x40 MLOAD SWAP1 POP SWAP1 JUMP JUMPDEST PUSH1 0x0 DUP1 REVERT JUMPDEST PUSH1 0x0 DUP1 REVERT JUMPDEST PUSH1 0x0 PUSH32 0xFFFFFFFF00000000000000000000000000000000000000000000000000000000 DUP3 AND SWAP1 POP SWAP2 SWAP1 POP JUMP JUMPDEST PUSH2 0x1FF3 DUP2 PUSH2 0x1FBE JUMP JUMPDEST DUP2 EQ PUSH2 0x1FFE JUMPI PUSH1 0x0 DUP1 REVERT JUMPDEST POP JUMP JUMPDEST PUSH1 0x0 DUP2 CALLDATALOAD SWAP1 POP PUSH2 0x2010 DUP2 PUSH2 0x1FEA JUMP JUMPDEST SWAP3 SWAP2 POP POP JUMP JUMPDEST PUSH1 0x0 PUSH1 0x20 DUP3 DUP5 SUB SLT ISZERO PUSH2 0x202C JUMPI PUSH2 0x202B PUSH2 0x1FB4 JUMP JUMPDEST JUMPDEST PUSH1 0x0 PUSH2 0x203A DUP5 DUP3 DUP6 ADD PUSH2 0x2001 JUMP JUMPDEST SWAP2 POP POP SWAP3 SWAP2 POP POP JUMP JUMPDEST PUSH1 0x0 DUP2 ISZERO ISZERO SWAP1 POP SWAP2 SWAP1 POP JUMP JUMPDEST PUSH2 0x2058 DUP2 PUSH2 0x2043 JUMP JUMPDEST DUP3 MSTORE POP POP JUMP JUMPDEST PUSH1 0x0 PUSH1 0x20 DUP3 ADD SWAP1 POP PUSH2 0x2073 PUSH1 0x0 DUP4 ADD DUP5 PUSH2 0x204F JUMP JUMPDEST SWAP3 SWAP2 POP POP JUMP JUMPDEST PUSH1 0x0 DUP2 MLOAD SWAP1 POP SWAP2 SWAP1 POP JUMP JUMPDEST PUSH1 0x0 DUP3 DUP3 MSTORE PUSH1 0x20 DUP3 ADD SWAP1 POP SWAP3 SWAP2 POP POP JUMP JUMPDEST PUSH1 0x0 JUMPDEST DUP4 DUP2 LT ISZERO PUSH2 0x20B3 JUMPI DUP1 DUP3 ADD MLOAD DUP2 DUP5 ADD MSTORE PUSH1 0x20 DUP2 ADD SWAP1 POP PUSH2 0x2098 JUMP JUMPDEST PUSH1 0x0 DUP5 DUP5 ADD MSTORE POP POP POP POP JUMP JUMPDEST PUSH1 0x0 PUSH1 0x1F NOT PUSH1 0x1F DUP4 ADD AND SWAP1 POP SWAP2 SWAP1 POP JUMP JUMPDEST PUSH1 0x0 PUSH2 0x20DB DUP3 PUSH2 0x2079 JUMP JUMPDEST PUSH2 0x20E5 DUP2 DUP6 PUSH2 0x2084 JUMP JUMPDEST SWAP4 POP PUSH2 0x20F5 DUP2 DUP6 PUSH1 0x20 DUP7 ADD PUSH2 0x2095 JUMP JUMPDEST PUSH2 0x20FE DUP2 PUSH2 0x20BF JUMP JUMPDEST DUP5 ADD SWAP2 POP POP SWAP3 SWAP2 POP POP JUMP JUMPDEST PUSH1 0x0 PUSH1 0x20 DUP3 ADD SWAP1 POP DUP2 DUP2 SUB PUSH1 0x0 DUP4 ADD MSTORE PUSH2 0x2123 DUP2 DUP5 PUSH2 0x20D0 JUMP JUMPDEST SWAP1 POP SWAP3 SWAP2 POP POP JUMP JUMPDEST PUSH1 0x0 DUP2 SWAP1 POP SWAP2 SWAP1 POP JUMP JUMPDEST PUSH2 0x213E DUP2 PUSH2 0x212B JUMP JUMPDEST DUP2 EQ PUSH2 0x2149 JUMPI PUSH1 0x0 DUP1 REVERT JUMPDEST POP JUMP JUMPDEST PUSH1 0x0 DUP2 CALLDATALOAD SWAP1 POP PUSH2 0x215B DUP2 PUSH2 0x2135 JUMP JUMPDEST SWAP3 SWAP2 POP POP JUMP JUMPDEST PUSH1 0x0 PUSH1 0x20 DUP3 DUP5 SUB SLT ISZERO PUSH2 0x2177 JUMPI PUSH2 0x2176 PUSH2 0x1FB4 JUMP JUMPDEST JUMPDEST PUSH1 0x0 PUSH2 0x2185 DUP5 DUP3 DUP6 ADD PUSH2 0x214C JUMP JUMPDEST SWAP2 POP POP SWAP3 SWAP2 POP POP JUMP JUMPDEST PUSH1 0x0 PUSH20 0xFFFFFFFFFFFFFFFFFFFFFFFFFFFFFFFFFFFFFFFF DUP3 AND SWAP1 POP SWAP2 SWAP1 POP JUMP JUMPDEST PUSH1 0x0 PUSH2 0x21B9 DUP3 PUSH2 0x218E JUMP JUMPDEST SWAP1 POP SWAP2 SWAP1 POP JUMP JUMPDEST PUSH2 0x21C9 DUP2 PUSH2 0x21AE JUMP JUMPDEST DUP3 MSTORE POP POP JUMP JUMPDEST PUSH1 0x0 PUSH1 0x20 DUP3 ADD SWAP1 POP PUSH2 0x21E4 PUSH1 0x0 DUP4 ADD DUP5 PUSH2 0x21C0 JUMP JUMPDEST SWAP3 SWAP2 POP POP JUMP JUMPDEST PUSH2 0x21F3 DUP2 PUSH2 0x21AE JUMP JUMPDEST DUP2 EQ PUSH2 0x21FE JUMPI PUSH1 0x0 DUP1 REVERT JUMPDEST POP JUMP JUMPDEST PUSH1 0x0 DUP2 CALLDATALOAD SWAP1 POP PUSH2 0x2210 DUP2 PUSH2 0x21EA JUMP JUMPDEST SWAP3 SWAP2 POP POP JUMP JUMPDEST PUSH1 0x0 DUP1 PUSH1 0x40 DUP4 DUP6 SUB SLT ISZERO PUSH2 0x222D JUMPI PUSH2 0x222C PUSH2 0x1FB4 JUMP JUMPDEST JUMPDEST PUSH1 0x0 PUSH2 0x223B DUP6 DUP3 DUP7 ADD PUSH2 0x2201 JUMP JUMPDEST SWAP3 POP POP PUSH1 0x20 PUSH2 0x224C DUP6 DUP3 DUP7 ADD PUSH2 0x214C JUMP JUMPDEST SWAP2 POP POP SWAP3 POP SWAP3 SWAP1 POP JUMP JUMPDEST PUSH1 0x0 DUP1 PUSH1 0x0 PUSH1 0x60 DUP5 DUP7 SUB SLT ISZERO PUSH2 0x226F JUMPI PUSH2 0x226E PUSH2 0x1FB4 JUMP JUMPDEST JUMPDEST PUSH1 0x0 PUSH2 0x227D DUP7 DUP3 DUP8 ADD PUSH2 0x2201 JUMP JUMPDEST SWAP4 POP POP PUSH1 0x20 PUSH2 0x228E DUP7 DUP3 DUP8 ADD PUSH2 0x2201 JUMP JUMPDEST SWAP3 POP POP PUSH1 0x40 PUSH2 0x229F DUP7 DUP3 DUP8 ADD PUSH2 0x214C JUMP JUMPDEST SWAP2 POP POP SWAP3 POP SWAP3 POP SWAP3 JUMP JUMPDEST PUSH1 0x0 DUP1 REVERT JUMPDEST PUSH1 0x0 PUSH1 0x40 DUP3 DUP5 SUB SLT ISZERO PUSH2 0x22C4 JUMPI PUSH2 0x22C3 PUSH2 0x22A9 JUMP JUMPDEST JUMPDEST DUP2 SWAP1 POP SWAP3 SWAP2 POP POP JUMP JUMPDEST PUSH1 0x0 DUP1 REVERT JUMPDEST PUSH1 0x0 DUP1 REVERT JUMPDEST PUSH1 0x0 DUP1 REVERT JUMPDEST PUSH1 0x0 DUP1 DUP4 PUSH1 0x1F DUP5 ADD SLT PUSH2 0x22F2 JUMPI PUSH2 0x22F1 PUSH2 0x22CD JUMP JUMPDEST JUMPDEST DUP3 CALLDATALOAD SWAP1 POP PUSH8 0xFFFFFFFFFFFFFFFF DUP2 GT ISZERO PUSH2 0x230F JUMPI PUSH2 0x230E PUSH2 0x22D2 JUMP JUMPDEST JUMPDEST PUSH1 0x20 DUP4 ADD SWAP2 POP DUP4 PUSH1 0x20 DUP3 MUL DUP4 ADD GT ISZERO PUSH2 0x232B JUMPI PUSH2 0x232A PUSH2 0x22D7 JUMP JUMPDEST JUMPDEST SWAP3 POP SWAP3 SWAP1 POP JUMP JUMPDEST PUSH1 0x0 DUP1 PUSH1 0x0 DUP1 PUSH1 0x0 PUSH1 0x80 DUP7 DUP9 SUB SLT ISZERO PUSH2 0x234E JUMPI PUSH2 0x234D PUSH2 0x1FB4 JUMP JUMPDEST JUMPDEST PUSH1 0x0 DUP7 ADD CALLDATALOAD PUSH8 0xFFFFFFFFFFFFFFFF DUP2 GT ISZERO PUSH2 0x236C JUMPI PUSH2 0x236B PUSH2 0x1FB9 JUMP JUMPDEST JUMPDEST PUSH2 0x2378 DUP9 DUP3 DUP10 ADD PUSH2 0x22AE JUMP JUMPDEST SWAP6 POP POP PUSH1 0x20 PUSH2 0x2389 DUP9 DUP3 DUP10 ADD PUSH2 0x2201 JUMP JUMPDEST SWAP5 POP POP PUSH1 0x40 PUSH2 0x239A DUP9 DUP3 DUP10 ADD PUSH2 0x214C JUMP JUMPDEST SWAP4 POP POP PUSH1 0x60 DUP7 ADD CALLDATALOAD PUSH8 0xFFFFFFFFFFFFFFFF DUP2 GT ISZERO PUSH2 0x23BB JUMPI PUSH2 0x23BA PUSH2 0x1FB9 JUMP JUMPDEST JUMPDEST PUSH2 0x23C7 DUP9 DUP3 DUP10 ADD PUSH2 0x22DC JUMP JUMPDEST SWAP3 POP SWAP3 POP POP SWAP3 SWAP6 POP SWAP3 SWAP6 SWAP1 SWAP4 POP JUMP JUMPDEST PUSH1 0x0 PUSH1 0x20 DUP3 DUP5 SUB SLT ISZERO PUSH2 0x23EC JUMPI PUSH2 0x23EB PUSH2 0x1FB4 JUMP JUMPDEST JUMPDEST PUSH1 0x0 PUSH2 0x23FA DUP5 DUP3 DUP6 ADD PUSH2 0x2201 JUMP JUMPDEST SWAP2 POP POP SWAP3 SWAP2 POP POP JUMP JUMPDEST PUSH2 0x240C DUP2 PUSH2 0x212B JUMP JUMPDEST DUP3 MSTORE POP POP JUMP JUMPDEST PUSH1 0x0 PUSH1 0x20 DUP3 ADD SWAP1 POP PUSH2 0x2427 PUSH1 0x0 DUP4 ADD DUP5 PUSH2 0x2403 JUMP JUMPDEST SWAP3 SWAP2 POP POP JUMP JUMPDEST PUSH1 0x0 DUP2 MLOAD SWAP1 POP SWAP2 SWAP1 POP JUMP JUMPDEST PUSH1 0x0 DUP3 DUP3 MSTORE PUSH1 0x20 DUP3 ADD SWAP1 POP SWAP3 SWAP2 POP POP JUMP JUMPDEST PUSH1 0x0 PUSH2 0x2454 DUP3 PUSH2 0x242D JUMP JUMPDEST PUSH2 0x245E DUP2 DUP6 PUSH2 0x2438 JUMP JUMPDEST SWAP4 POP PUSH2 0x246E DUP2 DUP6 PUSH1 0x20 DUP7 ADD PUSH2 0x2095 JUMP JUMPDEST PUSH2 0x2477 DUP2 PUSH2 0x20BF JUMP JUMPDEST DUP5 ADD SWAP2 POP POP SWAP3 SWAP2 POP POP JUMP JUMPDEST PUSH1 0x0 PUSH1 0xFF DUP3 AND SWAP1 POP SWAP2 SWAP1 POP JUMP JUMPDEST PUSH2 0x2498 DUP2 PUSH2 0x2482 JUMP JUMPDEST DUP3 MSTORE POP POP JUMP JUMPDEST PUSH1 0x0 PUSH1 0xE0 DUP3 ADD SWAP1 POP DUP2 DUP2 SUB PUSH1 0x0 DUP4 ADD MSTORE PUSH2 0x24B8 DUP2 DUP11 PUSH2 0x20D0 JUMP JUMPDEST SWAP1 POP PUSH2 0x24C7 PUSH1 0x20 DUP4 ADD DUP10 PUSH2 0x21C0 JUMP JUMPDEST DUP2 DUP2 SUB PUSH1 0x40 DUP4 ADD MSTORE PUSH2 0x24D9 DUP2 DUP9 PUSH2 0x2449 JUMP JUMPDEST SWAP1 POP PUSH2 0x24E8 PUSH1 0x60 DUP4 ADD DUP8 PUSH2 0x248F JUMP JUMPDEST DUP2 DUP2 SUB PUSH1 0x80 DUP4 ADD MSTORE PUSH2 0x24FA DUP2 DUP7 PUSH2 0x2449 JUMP JUMPDEST SWAP1 POP DUP2 DUP2 SUB PUSH1 0xA0 DUP4 ADD MSTORE PUSH2 0x250E DUP2 DUP6 PUSH2 0x2449 JUMP JUMPDEST SWAP1 POP DUP2 DUP2 SUB PUSH1 0xC0 DUP4 ADD MSTORE PUSH2 0x2522 DUP2 DUP5 PUSH2 0x2449 JUMP JUMPDEST SWAP1 POP SWAP9 SWAP8 POP POP POP POP POP POP POP POP JUMP JUMPDEST PUSH2 0x2539 DUP2 PUSH2 0x2043 JUMP JUMPDEST DUP2 EQ PUSH2 0x2544 JUMPI PUSH1 0x0 DUP1 REVERT JUMPDEST POP JUMP JUMPDEST PUSH1 0x0 DUP2 CALLDATALOAD SWAP1 POP PUSH2 0x2556 DUP2 PUSH2 0x2530 JUMP JUMPDEST SWAP3 SWAP2 POP POP JUMP JUMPDEST PUSH1 0x0 DUP1 PUSH1 0x40 DUP4 DUP6 SUB SLT ISZERO PUSH2 0x2573 JUMPI PUSH2 0x2572 PUSH2 0x1FB4 JUMP JUMPDEST JUMPDEST PUSH1 0x0 PUSH2 0x2581 DUP6 DUP3 DUP7 ADD PUSH2 0x2201 JUMP JUMPDEST SWAP3 POP POP PUSH1 0x20 PUSH2 0x2592 DUP6 DUP3 DUP7 ADD PUSH2 0x2547 JUMP JUMPDEST SWAP2 POP POP SWAP3 POP SWAP3 SWAP1 POP JUMP JUMPDEST PUSH1 0x0 DUP1 REVERT JUMPDEST PUSH32 0x4E487B7100000000000000000000000000000000000000000000000000000000 PUSH1 0x0 MSTORE PUSH1 0x41 PUSH1 0x4 MSTORE PUSH1 0x24 PUSH1 0x0 REVERT JUMPDEST PUSH2 0x25D9 DUP3 PUSH2 0x20BF JUMP JUMPDEST DUP2 ADD DUP2 DUP2 LT PUSH8 0xFFFFFFFFFFFFFFFF DUP3 GT OR ISZERO PUSH2 0x25F8 JUMPI PUSH2 0x25F7 PUSH2 0x25A1 JUMP JUMPDEST JUMPDEST DUP1 PUSH1 0x40 MSTORE POP POP POP JUMP JUMPDEST PUSH1 0x0 PUSH2 0x260B PUSH2 0x1FAA JUMP JUMPDEST SWAP1 POP PUSH2 0x2617 DUP3 DUP3 PUSH2 0x25D0 JUMP JUMPDEST SWAP2 SWAP1 POP JUMP JUMPDEST PUSH1 0x0 PUSH8 0xFFFFFFFFFFFFFFFF DUP3 GT ISZERO PUSH2 0x2637 JUMPI PUSH2 0x2636 PUSH2 0x25A1 JUMP JUMPDEST JUMPDEST PUSH2 0x2640 DUP3 PUSH2 0x20BF JUMP JUMPDEST SWAP1 POP PUSH1 0x20 DUP2 ADD SWAP1 POP SWAP2 SWAP1 POP JUMP JUMPDEST DUP3 DUP2 DUP4 CALLDATACOPY PUSH1 0x0 DUP4 DUP4 ADD MSTORE POP POP POP JUMP JUMPDEST PUSH1 0x0 PUSH2 0x266F PUSH2 0x266A DUP5 PUSH2 0x261C JUMP JUMPDEST PUSH2 0x2601 JUMP JUMPDEST SWAP1 POP DUP3 DUP2 MSTORE PUSH1 0x20 DUP2 ADD DUP5 DUP5 DUP5 ADD GT ISZERO PUSH2 0x268B JUMPI PUSH2 0x268A PUSH2 0x259C JUMP JUMPDEST JUMPDEST PUSH2 0x2696 DUP5 DUP3 DUP6 PUSH2 0x264D JUMP JUMPDEST POP SWAP4 SWAP3 POP POP POP JUMP JUMPDEST PUSH1 0x0 DUP3 PUSH1 0x1F DUP4 ADD SLT PUSH2 0x26B3 JUMPI PUSH2 0x26B2 PUSH2 0x22CD JUMP JUMPDEST JUMPDEST DUP2 CALLDATALOAD PUSH2 0x26C3 DUP5 DUP3 PUSH1 0x20 DUP7 ADD PUSH2 0x265C JUMP JUMPDEST SWAP2 POP POP SWAP3 SWAP2 POP POP JUMP JUMPDEST PUSH1 0x0 PUSH1 0x20 DUP3 DUP5 SUB SLT ISZERO PUSH2 0x26E2 JUMPI PUSH2 0x26E1 PUSH2 0x1FB4 JUMP JUMPDEST JUMPDEST PUSH1 0x0 DUP3 ADD CALLDATALOAD PUSH8 0xFFFFFFFFFFFFFFFF DUP2 GT ISZERO PUSH2 0x2700 JUMPI PUSH2 0x26FF PUSH2 0x1FB9 JUMP JUMPDEST JUMPDEST PUSH2 0x270C DUP5 DUP3 DUP6 ADD PUSH2 0x269E JUMP JUMPDEST SWAP2 POP POP SWAP3 SWAP2 POP POP JUMP JUMPDEST PUSH1 0x0 PUSH8 0xFFFFFFFFFFFFFFFF DUP3 GT ISZERO PUSH2 0x2730 JUMPI PUSH2 0x272F PUSH2 0x25A1 JUMP JUMPDEST JUMPDEST PUSH2 0x2739 DUP3 PUSH2 0x20BF JUMP JUMPDEST SWAP1 POP PUSH1 0x20 DUP2 ADD SWAP1 POP SWAP2 SWAP1 POP JUMP JUMPDEST PUSH1 0x0 PUSH2 0x2759 PUSH2 0x2754 DUP5 PUSH2 0x2715 JUMP JUMPDEST PUSH2 0x2601 JUMP JUMPDEST SWAP1 POP DUP3 DUP2 MSTORE PUSH1 0x20 DUP2 ADD DUP5 DUP5 DUP5 ADD GT ISZERO PUSH2 0x2775 JUMPI PUSH2 0x2774 PUSH2 0x259C JUMP JUMPDEST JUMPDEST PUSH2 0x2780 DUP5 DUP3 DUP6 PUSH2 0x264D JUMP JUMPDEST POP SWAP4 SWAP3 POP POP POP JUMP JUMPDEST PUSH1 0x0 DUP3 PUSH1 0x1F DUP4 ADD SLT PUSH2 0x279D JUMPI PUSH2 0x279C PUSH2 0x22CD JUMP JUMPDEST JUMPDEST DUP2 CALLDATALOAD PUSH2 0x27AD DUP5 DUP3 PUSH1 0x20 DUP7 ADD PUSH2 0x2746 JUMP JUMPDEST SWAP2 POP POP SWAP3 SWAP2 POP POP JUMP JUMPDEST PUSH1 0x0 DUP1 PUSH1 0x0 DUP1 PUSH1 0x80 DUP6 DUP8 SUB SLT ISZERO PUSH2 0x27D0 JUMPI PUSH2 0x27CF PUSH2 0x1FB4 JUMP JUMPDEST JUMPDEST PUSH1 0x0 PUSH2 0x27DE DUP8 DUP3 DUP9 ADD PUSH2 0x2201 JUMP JUMPDEST SWAP5 POP POP PUSH1 0x20 PUSH2 0x27EF DUP8 DUP3 DUP9 ADD PUSH2 0x2201 JUMP JUMPDEST SWAP4 POP POP PUSH1 0x40 PUSH2 0x2800 DUP8 DUP3 DUP9 ADD PUSH2 0x214C JUMP JUMPDEST SWAP3 POP POP PUSH1 0x60 DUP6 ADD CALLDATALOAD PUSH8 0xFFFFFFFFFFFFFFFF DUP2 GT ISZERO PUSH2 0x2821 JUMPI PUSH2 0x2820 PUSH2 0x1FB9 JUMP JUMPDEST JUMPDEST PUSH2 0x282D DUP8 DUP3 DUP9 ADD PUSH2 0x2788 JUMP JUMPDEST SWAP2 POP POP SWAP3 SWAP6 SWAP2 SWAP5 POP SWAP3 POP JUMP JUMPDEST PUSH1 0x0 DUP1 PUSH1 0x40 DUP4 DUP6 SUB SLT ISZERO PUSH2 0x2850 JUMPI PUSH2 0x284F PUSH2 0x1FB4 JUMP JUMPDEST JUMPDEST PUSH1 0x0 PUSH2 0x285E DUP6 DUP3 DUP7 ADD PUSH2 0x2201 JUMP JUMPDEST SWAP3 POP POP PUSH1 0x20 PUSH2 0x286F DUP6 DUP3 DUP7 ADD PUSH2 0x2201 JUMP JUMPDEST SWAP2 POP POP SWAP3 POP SWAP3 SWAP1 POP JUMP JUMPDEST PUSH32 0x4E487B7100000000000000000000000000000000000000000000000000000000 PUSH1 0x0 MSTORE PUSH1 0x22 PUSH1 0x4 MSTORE PUSH1 0x24 PUSH1 0x0 REVERT JUMPDEST PUSH1 0x0 PUSH1 0x2 DUP3 DIV SWAP1 POP PUSH1 0x1 DUP3 AND DUP1 PUSH2 0x28C0 JUMPI PUSH1 0x7F DUP3 AND SWAP2 POP JUMPDEST PUSH1 0x20 DUP3 LT DUP2 SUB PUSH2 0x28D3 JUMPI PUSH2 0x28D2 PUSH2 0x2879 JUMP JUMPDEST JUMPDEST POP SWAP2 SWAP1 POP JUMP JUMPDEST PUSH32 0x455243373231436C6F6E6561626C653A20617070726F76616C20746F20637572 PUSH1 0x0 DUP3 ADD MSTORE PUSH32 0x72656E74206F776E657200000000000000000000000000000000000000000000 PUSH1 0x20 DUP3 ADD MSTORE POP JUMP JUMPDEST PUSH1 0x0 PUSH2 0x2935 PUSH1 0x2A DUP4 PUSH2 0x2084 JUMP JUMPDEST SWAP2 POP PUSH2 0x2940 DUP3 PUSH2 0x28D9 JUMP JUMPDEST PUSH1 0x40 DUP3 ADD SWAP1 POP SWAP2 SWAP1 POP JUMP JUMPDEST PUSH1 0x0 PUSH1 0x20 DUP3 ADD SWAP1 POP DUP2 DUP2 SUB PUSH1 0x0 DUP4 ADD MSTORE PUSH2 0x2964 DUP2 PUSH2 0x2928 JUMP JUMPDEST SWAP1 POP SWAP2 SWAP1 POP JUMP JUMPDEST PUSH32 0x455243373231436C6F6E6561626C653A20617070726F76652063616C6C657220 PUSH1 0x0 DUP3 ADD MSTORE PUSH32 0x6973206E6F7420746F6B656E206F776E6572206F7220617070726F7665642066 PUSH1 0x20 DUP3 ADD MSTORE PUSH32 0x6F7220616C6C0000000000000000000000000000000000000000000000000000 PUSH1 0x40 DUP3 ADD MSTORE POP JUMP JUMPDEST PUSH1 0x0 PUSH2 0x29ED PUSH1 0x46 DUP4 PUSH2 0x2084 JUMP JUMPDEST SWAP2 POP PUSH2 0x29F8 DUP3 PUSH2 0x296B JUMP JUMPDEST PUSH1 0x60 DUP3 ADD SWAP1 POP SWAP2 SWAP1 POP JUMP JUMPDEST PUSH1 0x0 PUSH1 0x20 DUP3 ADD SWAP1 POP DUP2 DUP2 SUB PUSH1 0x0 DUP4 ADD MSTORE PUSH2 0x2A1C DUP2 PUSH2 0x29E0 JUMP JUMPDEST SWAP1 POP SWAP2 SWAP1 POP JUMP JUMPDEST PUSH32 0x455243373231436C6F6E6561626C653A2063616C6C6572206973206E6F742074 PUSH1 0x0 DUP3 ADD MSTORE PUSH32 0x6F6B656E206F776E6572206F7220617070726F76656400000000000000000000 PUSH1 0x20 DUP3 ADD MSTORE POP JUMP JUMPDEST PUSH1 0x0 PUSH2 0x2A7F PUSH1 0x36 DUP4 PUSH2 0x2084 JUMP JUMPDEST SWAP2 POP PUSH2 0x2A8A DUP3 PUSH2 0x2A23 JUMP JUMPDEST PUSH1 0x40 DUP3 ADD SWAP1 POP SWAP2 SWAP1 POP JUMP JUMPDEST PUSH1 0x0 PUSH1 0x20 DUP3 ADD SWAP1 POP DUP2 DUP2 SUB PUSH1 0x0 DUP4 ADD MSTORE PUSH2 0x2AAE DUP2 PUSH2 0x2A72 JUMP JUMPDEST SWAP1 POP SWAP2 SWAP1 POP JUMP JUMPDEST PUSH32 0x4672616D653A20616C726561647920696E697469616C697A6564000000000000 PUSH1 0x0 DUP3 ADD MSTORE POP JUMP JUMPDEST PUSH1 0x0 PUSH2 0x2AEB PUSH1 0x1A DUP4 PUSH2 0x2084 JUMP JUMPDEST SWAP2 POP PUSH2 0x2AF6 DUP3 PUSH2 0x2AB5 JUMP JUMPDEST PUSH1 0x20 DUP3 ADD SWAP1 POP SWAP2 SWAP1 POP JUMP JUMPDEST PUSH1 0x0 PUSH1 0x20 DUP3 ADD SWAP1 POP DUP2 DUP2 SUB PUSH1 0x0 DUP4 ADD MSTORE PUSH2 0x2B1A DUP2 PUSH2 0x2ADE JUMP JUMPDEST SWAP1 POP SWAP2 SWAP1 POP JUMP JUMPDEST PUSH1 0x0 DUP1 REVERT JUMPDEST PUSH1 0x0 DUP1 REVERT JUMPDEST PUSH1 0x0 DUP1 REVERT JUMPDEST PUSH1 0x0 DUP1 DUP4 CALLDATALOAD PUSH1 0x1 PUSH1 0x20 SUB DUP5 CALLDATASIZE SUB SUB DUP2 SLT PUSH2 0x2B4D JUMPI PUSH2 0x2B4C PUSH2 0x2B21 JUMP JUMPDEST JUMPDEST DUP1 DUP5 ADD SWAP3 POP DUP3 CALLDATALOAD SWAP2 POP PUSH8 0xFFFFFFFFFFFFFFFF DUP3 GT ISZERO PUSH2 0x2B6F JUMPI PUSH2 0x2B6E PUSH2 0x2B26 JUMP JUMPDEST JUMPDEST PUSH1 0x20 DUP4 ADD SWAP3 POP PUSH1 0x1 DUP3 MUL CALLDATASIZE SUB DUP4 SGT ISZERO PUSH2 0x2B8B JUMPI PUSH2 0x2B8A PUSH2 0x2B2B JUMP JUMPDEST JUMPDEST POP SWAP3 POP SWAP3 SWAP1 POP JUMP JUMPDEST PUSH1 0x0 DUP3 SWAP1 POP SWAP3 SWAP2 POP POP JUMP JUMPDEST PUSH1 0x0 DUP2 SWAP1 POP DUP2 PUSH1 0x0 MSTORE PUSH1 0x20 PUSH1 0x0 KECCAK256 SWAP1 POP SWAP2 SWAP1 POP JUMP JUMPDEST PUSH1 0x0 PUSH1 0x20 PUSH1 0x1F DUP4 ADD DIV SWAP1 POP SWAP2 SWAP1 POP JUMP JUMPDEST PUSH1 0x0 DUP3 DUP3 SHL SWAP1 POP SWAP3 SWAP2 POP POP JUMP JUMPDEST PUSH1 0x0 PUSH1 0x8 DUP4 MUL PUSH2 0x2C00 PUSH32 0xFFFFFFFFFFFFFFFFFFFFFFFFFFFFFFFFFFFFFFFFFFFFFFFFFFFFFFFFFFFFFFFF DUP3 PUSH2 0x2BC3 JUMP JUMPDEST PUSH2 0x2C0A DUP7 DUP4 PUSH2 0x2BC3 JUMP JUMPDEST SWAP6 POP DUP1 NOT DUP5 AND SWAP4 POP DUP1 DUP7 AND DUP5 OR SWAP3 POP POP POP SWAP4 SWAP3 POP POP POP JUMP JUMPDEST PUSH1 0x0 DUP2 SWAP1 POP SWAP2 SWAP1 POP JUMP JUMPDEST PUSH1 0x0 PUSH2 0x2C47 PUSH2 0x2C42 PUSH2 0x2C3D DUP5 PUSH2 0x212B JUMP JUMPDEST PUSH2 0x2C22 JUMP JUMPDEST PUSH2 0x212B JUMP JUMPDEST SWAP1 POP SWAP2 SWAP1 POP JUMP JUMPDEST PUSH1 0x0 DUP2 SWAP1 POP SWAP2 SWAP1 POP JUMP JUMPDEST PUSH2 0x2C61 DUP4 PUSH2 0x2C2C JUMP JUMPDEST PUSH2 0x2C75 PUSH2 0x2C6D DUP3 PUSH2 0x2C4E JUMP JUMPDEST DUP5 DUP5 SLOAD PUSH2 0x2BD0 JUMP JUMPDEST DUP3 SSTORE POP POP POP POP JUMP JUMPDEST PUSH1 0x0 SWAP1 JUMP JUMPDEST PUSH2 0x2C8A PUSH2 0x2C7D JUMP JUMPDEST PUSH2 0x2C95 DUP2 DUP5 DUP5 PUSH2 0x2C58 JUMP JUMPDEST POP POP POP JUMP JUMPDEST JUMPDEST DUP2 DUP2 LT ISZERO PUSH2 0x2CB9 JUMPI PUSH2 0x2CAE PUSH1 0x0 DUP3 PUSH2 0x2C82 JUMP JUMPDEST PUSH1 0x1 DUP2 ADD SWAP1 POP PUSH2 0x2C9B JUMP JUMPDEST POP POP JUMP JUMPDEST PUSH1 0x1F DUP3 GT ISZERO PUSH2 0x2CFE JUMPI PUSH2 0x2CCF DUP2 PUSH2 0x2B9E JUMP JUMPDEST PUSH2 0x2CD8 DUP5 PUSH2 0x2BB3 JUMP JUMPDEST DUP2 ADD PUSH1 0x20 DUP6 LT ISZERO PUSH2 0x2CE7 JUMPI DUP2 SWAP1 POP JUMPDEST PUSH2 0x2CFB PUSH2 0x2CF3 DUP6 PUSH2 0x2BB3 JUMP JUMPDEST DUP4 ADD DUP3 PUSH2 0x2C9A JUMP JUMPDEST POP POP JUMPDEST POP POP POP JUMP JUMPDEST PUSH1 0x0 DUP3 DUP3 SHR SWAP1 POP SWAP3 SWAP2 POP POP JUMP JUMPDEST PUSH1 0x0 PUSH2 0x2D21 PUSH1 0x0 NOT DUP5 PUSH1 0x8 MUL PUSH2 0x2D03 JUMP JUMPDEST NOT DUP1 DUP4 AND SWAP2 POP POP SWAP3 SWAP2 POP POP JUMP JUMPDEST PUSH1 0x0 PUSH2 0x2D3A DUP4 DUP4 PUSH2 0x2D10 JUMP JUMPDEST SWAP2 POP DUP3 PUSH1 0x2 MUL DUP3 OR SWAP1 POP SWAP3 SWAP2 POP POP JUMP JUMPDEST PUSH2 0x2D54 DUP4 DUP4 PUSH2 0x2B93 JUMP JUMPDEST PUSH8 0xFFFFFFFFFFFFFFFF DUP2 GT ISZERO PUSH2 0x2D6D JUMPI PUSH2 0x2D6C PUSH2 0x25A1 JUMP JUMPDEST JUMPDEST PUSH2 0x2D77 DUP3 SLOAD PUSH2 0x28A8 JUMP JUMPDEST PUSH2 0x2D82 DUP3 DUP3 DUP6 PUSH2 0x2CBD JUMP JUMPDEST PUSH1 0x0 PUSH1 0x1F DUP4 GT PUSH1 0x1 DUP2 EQ PUSH2 0x2DB1 JUMPI PUSH1 0x0 DUP5 ISZERO PUSH2 0x2D9F JUMPI DUP3 DUP8 ADD CALLDATALOAD SWAP1 POP JUMPDEST PUSH2 0x2DA9 DUP6 DUP3 PUSH2 0x2D2E JUMP JUMPDEST DUP7 SSTORE POP PUSH2 0x2E11 JUMP JUMPDEST PUSH1 0x1F NOT DUP5 AND PUSH2 0x2DBF DUP7 PUSH2 0x2B9E JUMP JUMPDEST PUSH1 0x0 JUMPDEST DUP3 DUP2 LT ISZERO PUSH2 0x2DE7 JUMPI DUP5 DUP10 ADD CALLDATALOAD DUP3 SSTORE PUSH1 0x1 DUP3 ADD SWAP2 POP PUSH1 0x20 DUP6 ADD SWAP5 POP PUSH1 0x20 DUP2 ADD SWAP1 POP PUSH2 0x2DC2 JUMP JUMPDEST DUP7 DUP4 LT ISZERO PUSH2 0x2E04 JUMPI DUP5 DUP10 ADD CALLDATALOAD PUSH2 0x2E00 PUSH1 0x1F DUP10 AND DUP3 PUSH2 0x2D10 JUMP JUMPDEST DUP4 SSTORE POP JUMPDEST PUSH1 0x1 PUSH1 0x2 DUP9 MUL ADD DUP9 SSTORE POP POP POP JUMPDEST POP POP POP POP POP POP POP JUMP JUMPDEST PUSH32 0x4E487B7100000000000000000000000000000000000000000000000000000000 PUSH1 0x0 MSTORE PUSH1 0x32 PUSH1 0x4 MSTORE PUSH1 0x24 PUSH1 0x0 REVERT JUMPDEST PUSH1 0x0 DUP3 CALLDATALOAD PUSH1 0x1 PUSH1 0xE0 SUB DUP4 CALLDATASIZE SUB SUB DUP2 SLT PUSH2 0x2E65 JUMPI PUSH2 0x2E64 PUSH2 0x2B21 JUMP JUMPDEST JUMPDEST DUP1 DUP4 ADD SWAP2 POP POP SWAP3 SWAP2 POP POP JUMP JUMPDEST PUSH2 0x2E7C DUP4 DUP4 DUP4 PUSH2 0x2D4A JUMP JUMPDEST POP POP POP JUMP JUMPDEST PUSH1 0x0 DUP2 CALLDATALOAD PUSH2 0x2E8E DUP2 PUSH2 0x21EA JUMP JUMPDEST DUP1 SWAP2 POP POP SWAP2 SWAP1 POP JUMP JUMPDEST PUSH1 0x0 DUP2 PUSH1 0x0 SHL SWAP1 POP SWAP2 SWAP1 POP JUMP JUMPDEST PUSH1 0x0 PUSH20 0xFFFFFFFFFFFFFFFFFFFFFFFFFFFFFFFFFFFFFFFF PUSH2 0x2EC4 DUP5 PUSH2 0x2E97 JUMP JUMPDEST SWAP4 POP DUP1 NOT DUP4 AND SWAP3 POP DUP1 DUP5 AND DUP4 OR SWAP2 POP POP SWAP3 SWAP2 POP POP JUMP JUMPDEST PUSH1 0x0 PUSH2 0x2EF5 PUSH2 0x2EF0 PUSH2 0x2EEB DUP5 PUSH2 0x218E JUMP JUMPDEST PUSH2 0x2C22 JUMP JUMPDEST PUSH2 0x218E JUMP JUMPDEST SWAP1 POP SWAP2 SWAP1 POP JUMP JUMPDEST PUSH1 0x0 PUSH2 0x2F07 DUP3 PUSH2 0x2EDA JUMP JUMPDEST SWAP1 POP SWAP2 SWAP1 POP JUMP JUMPDEST PUSH1 0x0 PUSH2 0x2F19 DUP3 PUSH2 0x2EFC JUMP JUMPDEST SWAP1 POP SWAP2 SWAP1 POP JUMP JUMPDEST PUSH1 0x0 DUP2 SWAP1 POP SWAP2 SWAP1 POP JUMP JUMPDEST PUSH2 0x2F33 DUP3 PUSH2 0x2F0E JUMP JUMPDEST PUSH2 0x2F46 PUSH2 0x2F3F DUP3 PUSH2 0x2F20 JUMP JUMPDEST DUP4 SLOAD PUSH2 0x2EA4 JUMP JUMPDEST DUP3 SSTORE POP POP POP JUMP JUMPDEST PUSH1 0x0 DUP1 DUP4 CALLDATALOAD PUSH1 0x1 PUSH1 0x20 SUB DUP5 CALLDATASIZE SUB SUB DUP2 SLT PUSH2 0x2F6A JUMPI PUSH2 0x2F69 PUSH2 0x2B21 JUMP JUMPDEST JUMPDEST DUP1 DUP5 ADD SWAP3 POP DUP3 CALLDATALOAD SWAP2 POP PUSH8 0xFFFFFFFFFFFFFFFF DUP3 GT ISZERO PUSH2 0x2F8C JUMPI PUSH2 0x2F8B PUSH2 0x2B26 JUMP JUMPDEST JUMPDEST PUSH1 0x20 DUP4 ADD SWAP3 POP PUSH1 0x1 DUP3 MUL CALLDATASIZE SUB DUP4 SGT ISZERO PUSH2 0x2FA8 JUMPI PUSH2 0x2FA7 PUSH2 0x2B2B JUMP JUMPDEST JUMPDEST POP SWAP3 POP SWAP3 SWAP1 POP JUMP JUMPDEST PUSH1 0x0 DUP3 SWAP1 POP SWAP3 SWAP2 POP POP JUMP JUMPDEST PUSH1 0x0 DUP2 SWAP1 POP DUP2 PUSH1 0x0 MSTORE PUSH1 0x20 PUSH1 0x0 KECCAK256 SWAP1 POP SWAP2 SWAP1 POP JUMP JUMPDEST PUSH1 0x1F DUP3 GT ISZERO PUSH2 0x3011 JUMPI PUSH2 0x2FE2 DUP2 PUSH2 0x2FBB JUMP JUMPDEST PUSH2 0x2FEB DUP5 PUSH2 0x2BB3 JUMP JUMPDEST DUP2 ADD PUSH1 0x20 DUP6 LT ISZERO PUSH2 0x2FFA JUMPI DUP2 SWAP1 POP JUMPDEST PUSH2 0x300E PUSH2 0x3006 DUP6 PUSH2 0x2BB3 JUMP JUMPDEST DUP4 ADD DUP3 PUSH2 0x2C9A JUMP JUMPDEST POP POP JUMPDEST POP POP POP JUMP JUMPDEST PUSH2 0x3020 DUP4 DUP4 PUSH2 0x2FB0 JUMP JUMPDEST PUSH8 0xFFFFFFFFFFFFFFFF DUP2 GT ISZERO PUSH2 0x3039 JUMPI PUSH2 0x3038 PUSH2 0x25A1 JUMP JUMPDEST JUMPDEST PUSH2 0x3043 DUP3 SLOAD PUSH2 0x28A8 JUMP JUMPDEST PUSH2 0x304E DUP3 DUP3 DUP6 PUSH2 0x2FD0 JUMP JUMPDEST PUSH1 0x0 PUSH1 0x1F DUP4 GT PUSH1 0x1 DUP2 EQ PUSH2 0x307D JUMPI PUSH1 0x0 DUP5 ISZERO PUSH2 0x306B JUMPI DUP3 DUP8 ADD CALLDATALOAD SWAP1 POP JUMPDEST PUSH2 0x3075 DUP6 DUP3 PUSH2 0x2D2E JUMP JUMPDEST DUP7 SSTORE POP PUSH2 0x30DD JUMP JUMPDEST PUSH1 0x1F NOT DUP5 AND PUSH2 0x308B DUP7 PUSH2 0x2FBB JUMP JUMPDEST PUSH1 0x0 JUMPDEST DUP3 DUP2 LT ISZERO PUSH2 0x30B3 JUMPI DUP5 DUP10 ADD CALLDATALOAD DUP3 SSTORE PUSH1 0x1 DUP3 ADD SWAP2 POP PUSH1 0x20 DUP6 ADD SWAP5 POP PUSH1 0x20 DUP2 ADD SWAP1 POP PUSH2 0x308E JUMP JUMPDEST DUP7 DUP4 LT ISZERO PUSH2 0x30D0 JUMPI DUP5 DUP10 ADD CALLDATALOAD PUSH2 0x30CC PUSH1 0x1F DUP10 AND DUP3 PUSH2 0x2D10 JUMP JUMPDEST DUP4 SSTORE POP JUMPDEST PUSH1 0x1 PUSH1 0x2 DUP9 MUL ADD DUP9 SSTORE POP POP POP JUMPDEST POP POP POP POP POP POP POP JUMP JUMPDEST PUSH2 0x30F1 DUP4 DUP4 DUP4 PUSH2 0x3016 JUMP JUMPDEST POP POP POP JUMP JUMPDEST PUSH2 0x30FF DUP2 PUSH2 0x2482 JUMP JUMPDEST DUP2 EQ PUSH2 0x310A JUMPI PUSH1 0x0 DUP1 REVERT JUMPDEST POP JUMP JUMPDEST PUSH1 0x0 DUP2 CALLDATALOAD PUSH2 0x311A DUP2 PUSH2 0x30F6 JUMP JUMPDEST DUP1 SWAP2 POP POP SWAP2 SWAP1 POP JUMP JUMPDEST PUSH1 0x0 PUSH1 0xFF PUSH2 0x3130 DUP5 PUSH2 0x2E97 JUMP JUMPDEST SWAP4 POP DUP1 NOT DUP4 AND SWAP3 POP DUP1 DUP5 AND DUP4 OR SWAP2 POP POP SWAP3 SWAP2 POP POP JUMP JUMPDEST PUSH1 0x0 PUSH2 0x3161 PUSH2 0x315C PUSH2 0x3157 DUP5 PUSH2 0x2482 JUMP JUMPDEST PUSH2 0x2C22 JUMP JUMPDEST PUSH2 0x2482 JUMP JUMPDEST SWAP1 POP SWAP2 SWAP1 POP JUMP JUMPDEST PUSH1 0x0 DUP2 SWAP1 POP SWAP2 SWAP1 POP JUMP JUMPDEST PUSH2 0x317B DUP3 PUSH2 0x3146 JUMP JUMPDEST PUSH2 0x318E PUSH2 0x3187 DUP3 PUSH2 0x3168 JUMP JUMPDEST DUP4 SLOAD PUSH2 0x3123 JUMP JUMPDEST DUP3 SSTORE POP POP POP JUMP JUMPDEST PUSH1 0x0 DUP2 ADD PUSH1 0x0 DUP4 ADD PUSH2 0x31A7 DUP2 DUP6 PUSH2 0x2B30 JUMP JUMPDEST PUSH2 0x31B2 DUP2 DUP4 DUP7 PUSH2 0x2E71 JUMP JUMPDEST POP POP POP POP PUSH1 0x1 DUP2 ADD PUSH1 0x20 DUP4 ADD DUP1 PUSH2 0x31C8 DUP2 PUSH2 0x2E81 JUMP JUMPDEST SWAP1 POP PUSH2 0x31D4 DUP2 DUP5 PUSH2 0x2F2A JUMP JUMPDEST POP POP POP PUSH1 0x2 DUP2 ADD PUSH1 0x40 DUP4 ADD PUSH2 0x31E9 DUP2 DUP6 PUSH2 0x2F4D JUMP JUMPDEST PUSH2 0x31F4 DUP2 DUP4 DUP7 PUSH2 0x30E6 JUMP JUMPDEST POP POP POP POP PUSH1 0x3 DUP2 ADD PUSH1 0x60 DUP4 ADD DUP1 PUSH2 0x320A DUP2 PUSH2 0x310D JUMP JUMPDEST SWAP1 POP PUSH2 0x3216 DUP2 DUP5 PUSH2 0x3172 JUMP JUMPDEST POP POP POP PUSH1 0x4 DUP2 ADD PUSH1 0x80 DUP4 ADD PUSH2 0x322B DUP2 DUP6 PUSH2 0x2F4D JUMP JUMPDEST PUSH2 0x3236 DUP2 DUP4 DUP7 PUSH2 0x30E6 JUMP JUMPDEST POP POP POP POP PUSH1 0x5 DUP2 ADD PUSH1 0xA0 DUP4 ADD PUSH2 0x324C DUP2 DUP6 PUSH2 0x2F4D JUMP JUMPDEST PUSH2 0x3257 DUP2 DUP4 DUP7 PUSH2 0x30E6 JUMP JUMPDEST POP POP POP POP PUSH1 0x6 DUP2 ADD PUSH1 0xC0 DUP4 ADD PUSH2 0x326D DUP2 DUP6 PUSH2 0x2F4D JUMP JUMPDEST PUSH2 0x3278 DUP2 DUP4 DUP7 PUSH2 0x30E6 JUMP JUMPDEST POP POP POP POP POP POP JUMP JUMPDEST PUSH2 0x328A DUP3 DUP3 PUSH2 0x3195 JUMP JUMPDEST POP POP JUMP JUMPDEST PUSH32 0x4E487B7100000000000000000000000000000000000000000000000000000000 PUSH1 0x0 MSTORE PUSH1 0x11 PUSH1 0x4 MSTORE PUSH1 0x24 PUSH1 0x0 REVERT JUMPDEST PUSH1 0x0 PUSH2 0x32C8 DUP3 PUSH2 0x212B JUMP JUMPDEST SWAP2 POP PUSH32 0xFFFFFFFFFFFFFFFFFFFFFFFFFFFFFFFFFFFFFFFFFFFFFFFFFFFFFFFFFFFFFFFF DUP3 SUB PUSH2 0x32FA JUMPI PUSH2 0x32F9 PUSH2 0x328E JUMP JUMPDEST JUMPDEST PUSH1 0x1 DUP3 ADD SWAP1 POP SWAP2 SWAP1 POP JUMP JUMPDEST PUSH32 0x455243373231436C6F6E6561626C653A20696E76616C696420746F6B656E2049 PUSH1 0x0 DUP3 ADD MSTORE PUSH32 0x4400000000000000000000000000000000000000000000000000000000000000 PUSH1 0x20 DUP3 ADD MSTORE POP JUMP JUMPDEST PUSH1 0x0 PUSH2 0x3361 PUSH1 0x21 DUP4 PUSH2 0x2084 JUMP JUMPDEST SWAP2 POP PUSH2 0x336C DUP3 PUSH2 0x3305 JUMP JUMPDEST PUSH1 0x40 DUP3 ADD SWAP1 POP SWAP2 SWAP1 POP JUMP JUMPDEST PUSH1 0x0 PUSH1 0x20 DUP3 ADD SWAP1 POP DUP2 DUP2 SUB PUSH1 0x0 DUP4 ADD MSTORE PUSH2 0x3390 DUP2 PUSH2 0x3354 JUMP JUMPDEST SWAP1 POP SWAP2 SWAP1 POP JUMP JUMPDEST PUSH32 0x455243373231436C6F6E6561626C653A2061646472657373207A65726F206973 PUSH1 0x0 DUP3 ADD MSTORE PUSH32 0x206E6F7420612076616C6964206F776E65720000000000000000000000000000 PUSH1 0x20 DUP3 ADD MSTORE POP JUMP JUMPDEST PUSH1 0x0 PUSH2 0x33F3 PUSH1 0x32 DUP4 PUSH2 0x2084 JUMP JUMPDEST SWAP2 POP PUSH2 0x33FE DUP3 PUSH2 0x3397 JUMP JUMPDEST PUSH1 0x40 DUP3 ADD SWAP1 POP SWAP2 SWAP1 POP JUMP JUMPDEST PUSH1 0x0 PUSH1 0x20 DUP3 ADD SWAP1 POP DUP2 DUP2 SUB PUSH1 0x0 DUP4 ADD MSTORE PUSH2 0x3422 DUP2 PUSH2 0x33E6 JUMP JUMPDEST SWAP1 POP SWAP2 SWAP1 POP JUMP JUMPDEST PUSH32 0x4672616D653A20416C7265616479206D696E7465640000000000000000000000 PUSH1 0x0 DUP3 ADD MSTORE POP JUMP JUMPDEST PUSH1 0x0 PUSH2 0x345F PUSH1 0x15 DUP4 PUSH2 0x2084 JUMP JUMPDEST SWAP2 POP PUSH2 0x346A DUP3 PUSH2 0x3429 JUMP JUMPDEST PUSH1 0x20 DUP3 ADD SWAP1 POP SWAP2 SWAP1 POP JUMP JUMPDEST PUSH1 0x0 PUSH1 0x20 DUP3 ADD SWAP1 POP DUP2 DUP2 SUB PUSH1 0x0 DUP4 ADD MSTORE PUSH2 0x348E DUP2 PUSH2 0x3452 JUMP JUMPDEST SWAP1 POP SWAP2 SWAP1 POP JUMP JUMPDEST PUSH32 0x455243373231436C6F6E6561626C653A2073796D626F6C20616C726561647920 PUSH1 0x0 DUP3 ADD MSTORE PUSH32 0x7365740000000000000000000000000000000000000000000000000000000000 PUSH1 0x20 DUP3 ADD MSTORE POP JUMP JUMPDEST PUSH1 0x0 PUSH2 0x34F1 PUSH1 0x23 DUP4 PUSH2 0x2084 JUMP JUMPDEST SWAP2 POP PUSH2 0x34FC DUP3 PUSH2 0x3495 JUMP JUMPDEST PUSH1 0x40 DUP3 ADD SWAP1 POP SWAP2 SWAP1 POP JUMP JUMPDEST PUSH1 0x0 PUSH1 0x20 DUP3 ADD SWAP1 POP DUP2 DUP2 SUB PUSH1 0x0 DUP4 ADD MSTORE PUSH2 0x3520 DUP2 PUSH2 0x34E4 JUMP JUMPDEST SWAP1 POP SWAP2 SWAP1 POP JUMP JUMPDEST PUSH2 0x3530 DUP3 PUSH2 0x2079 JUMP JUMPDEST PUSH8 0xFFFFFFFFFFFFFFFF DUP2 GT ISZERO PUSH2 0x3549 JUMPI PUSH2 0x3548 PUSH2 0x25A1 JUMP JUMPDEST JUMPDEST PUSH2 0x3553 DUP3 SLOAD PUSH2 0x28A8 JUMP JUMPDEST PUSH2 0x355E DUP3 DUP3 DUP6 PUSH2 0x2CBD JUMP JUMPDEST PUSH1 0x0 PUSH1 0x20 SWAP1 POP PUSH1 0x1F DUP4 GT PUSH1 0x1 DUP2 EQ PUSH2 0x3591 JUMPI PUSH1 0x0 DUP5 ISZERO PUSH2 0x357F JUMPI DUP3 DUP8 ADD MLOAD SWAP1 POP JUMPDEST PUSH2 0x3589 DUP6 DUP3 PUSH2 0x2D2E JUMP JUMPDEST DUP7 SSTORE POP PUSH2 0x35F1 JUMP JUMPDEST PUSH1 0x1F NOT DUP5 AND PUSH2 0x359F DUP7 PUSH2 0x2B9E JUMP JUMPDEST PUSH1 0x0 JUMPDEST DUP3 DUP2 LT ISZERO PUSH2 0x35C7 JUMPI DUP5 DUP10 ADD MLOAD DUP3 SSTORE PUSH1 0x1 DUP3 ADD SWAP2 POP PUSH1 0x20 DUP6 ADD SWAP5 POP PUSH1 0x20 DUP2 ADD SWAP1 POP PUSH2 0x35A2 JUMP JUMPDEST DUP7 DUP4 LT ISZERO PUSH2 0x35E4 JUMPI DUP5 DUP10 ADD MLOAD PUSH2 0x35E0 PUSH1 0x1F DUP10 AND DUP3 PUSH2 0x2D10 JUMP JUMPDEST DUP4 SSTORE POP JUMPDEST PUSH1 0x1 PUSH1 0x2 DUP9 MUL ADD DUP9 SSTORE POP POP POP JUMPDEST POP POP POP POP POP POP JUMP JUMPDEST PUSH32 0x455243373231436C6F6E6561626C653A206E616D6520616C7265616479207365 PUSH1 0x0 DUP3 ADD MSTORE PUSH32 0x7400000000000000000000000000000000000000000000000000000000000000 PUSH1 0x20 DUP3 ADD MSTORE POP JUMP JUMPDEST PUSH1 0x0 PUSH2 0x3655 PUSH1 0x21 DUP4 PUSH2 0x2084 JUMP JUMPDEST SWAP2 POP PUSH2 0x3660 DUP3 PUSH2 0x35F9 JUMP JUMPDEST PUSH1 0x40 DUP3 ADD SWAP1 POP SWAP2 SWAP1 POP JUMP JUMPDEST PUSH1 0x0 PUSH1 0x20 DUP3 ADD SWAP1 POP DUP2 DUP2 SUB PUSH1 0x0 DUP4 ADD MSTORE PUSH2 0x3684 DUP2 PUSH2 0x3648 JUMP JUMPDEST SWAP1 POP SWAP2 SWAP1 POP JUMP JUMPDEST PUSH1 0x0 DUP2 SLOAD SWAP1 POP SWAP2 SWAP1 POP JUMP JUMPDEST PUSH1 0x0 DUP3 DUP3 MSTORE PUSH1 0x20 DUP3 ADD SWAP1 POP SWAP3 SWAP2 POP POP JUMP JUMPDEST PUSH1 0x0 DUP2 SWAP1 POP DUP2 PUSH1 0x0 MSTORE PUSH1 0x20 PUSH1 0x0 KECCAK256 SWAP1 POP SWAP2 SWAP1 POP JUMP JUMPDEST PUSH1 0x0 DUP3 DUP3 MSTORE PUSH1 0x20 DUP3 ADD SWAP1 POP SWAP3 SWAP2 POP POP JUMP JUMPDEST PUSH1 0x0 DUP2 SLOAD PUSH2 0x36DA DUP2 PUSH2 0x28A8 JUMP JUMPDEST PUSH2 0x36E4 DUP2 DUP7 PUSH2 0x36BC JUMP JUMPDEST SWAP5 POP PUSH1 0x1 DUP3 AND PUSH1 0x0 DUP2 EQ PUSH2 0x36FF JUMPI PUSH1 0x1 DUP2 EQ PUSH2 0x3715 JUMPI PUSH2 0x3748 JUMP JUMPDEST PUSH1 0xFF NOT DUP4 AND DUP7 MSTORE DUP2 ISZERO ISZERO PUSH1 0x20 MUL DUP7 ADD SWAP4 POP PUSH2 0x3748 JUMP JUMPDEST PUSH2 0x371E DUP6 PUSH2 0x2B9E JUMP JUMPDEST PUSH1 0x0 JUMPDEST DUP4 DUP2 LT ISZERO PUSH2 0x3740 JUMPI DUP2 SLOAD DUP2 DUP10 ADD MSTORE PUSH1 0x1 DUP3 ADD SWAP2 POP PUSH1 0x20 DUP2 ADD SWAP1 POP PUSH2 0x3721 JUMP JUMPDEST DUP1 DUP9 ADD SWAP6 POP POP POP JUMPDEST POP POP POP SWAP3 SWAP2 POP POP JUMP JUMPDEST PUSH1 0x0 DUP2 PUSH1 0x0 SHR SWAP1 POP SWAP2 SWAP1 POP JUMP JUMPDEST PUSH1 0x0 PUSH20 0xFFFFFFFFFFFFFFFFFFFFFFFFFFFFFFFFFFFFFFFF DUP3 AND SWAP1 POP SWAP2 SWAP1 POP JUMP JUMPDEST PUSH1 0x0 PUSH2 0x3791 PUSH2 0x378C DUP4 PUSH2 0x3751 JUMP JUMPDEST PUSH2 0x375E JUMP JUMPDEST SWAP1 POP SWAP2 SWAP1 POP JUMP JUMPDEST PUSH2 0x37A1 DUP2 PUSH2 0x21AE JUMP JUMPDEST DUP3 MSTORE POP POP JUMP JUMPDEST PUSH1 0x0 DUP3 DUP3 MSTORE PUSH1 0x20 DUP3 ADD SWAP1 POP SWAP3 SWAP2 POP POP JUMP JUMPDEST PUSH1 0x0 DUP2 SLOAD PUSH2 0x37C5 DUP2 PUSH2 0x28A8 JUMP JUMPDEST PUSH2 0x37CF DUP2 DUP7 PUSH2 0x37A7 JUMP JUMPDEST SWAP5 POP PUSH1 0x1 DUP3 AND PUSH1 0x0 DUP2 EQ PUSH2 0x37EA JUMPI PUSH1 0x1 DUP2 EQ PUSH2 0x3800 JUMPI PUSH2 0x3833 JUMP JUMPDEST PUSH1 0xFF NOT DUP4 AND DUP7 MSTORE DUP2 ISZERO ISZERO PUSH1 0x20 MUL DUP7 ADD SWAP4 POP PUSH2 0x3833 JUMP JUMPDEST PUSH2 0x3809 DUP6 PUSH2 0x2FBB JUMP JUMPDEST PUSH1 0x0 JUMPDEST DUP4 DUP2 LT ISZERO PUSH2 0x382B JUMPI DUP2 SLOAD DUP2 DUP10 ADD MSTORE PUSH1 0x1 DUP3 ADD SWAP2 POP PUSH1 0x20 DUP2 ADD SWAP1 POP PUSH2 0x380C JUMP JUMPDEST DUP1 DUP9 ADD SWAP6 POP POP POP JUMPDEST POP POP POP SWAP3 SWAP2 POP POP JUMP JUMPDEST PUSH1 0x0 PUSH1 0xFF DUP3 AND SWAP1 POP SWAP2 SWAP1 POP JUMP JUMPDEST PUSH1 0x0 PUSH2 0x385C PUSH2 0x3857 DUP4 PUSH2 0x3751 JUMP JUMPDEST PUSH2 0x383C JUMP JUMPDEST SWAP1 POP SWAP2 SWAP1 POP JUMP JUMPDEST PUSH2 0x386C DUP2 PUSH2 0x2482 JUMP JUMPDEST DUP3 MSTORE POP POP JUMP JUMPDEST PUSH1 0x0 PUSH1 0xE0 DUP4 ADD PUSH1 0x0 DUP1 DUP5 ADD DUP6 DUP4 SUB PUSH1 0x0 DUP8 ADD MSTORE PUSH2 0x388F DUP4 DUP3 PUSH2 0x36CD JUMP JUMPDEST SWAP3 POP POP PUSH1 0x1 DUP5 ADD SLOAD SWAP1 POP PUSH2 0x38A2 DUP2 PUSH2 0x377E JUMP JUMPDEST PUSH2 0x38AF PUSH1 0x20 DUP8 ADD DUP3 PUSH2 0x3798 JUMP JUMPDEST POP PUSH1 0x2 DUP5 ADD DUP6 DUP4 SUB PUSH1 0x40 DUP8 ADD MSTORE PUSH2 0x38C6 DUP4 DUP3 PUSH2 0x37B8 JUMP JUMPDEST SWAP3 POP POP PUSH1 0x3 DUP5 ADD SLOAD SWAP1 POP PUSH2 0x38D9 DUP2 PUSH2 0x3849 JUMP JUMPDEST PUSH2 0x38E6 PUSH1 0x60 DUP8 ADD DUP3 PUSH2 0x3863 JUMP JUMPDEST POP PUSH1 0x4 DUP5 ADD DUP6 DUP4 SUB PUSH1 0x80 DUP8 ADD MSTORE PUSH2 0x38FD DUP4 DUP3 PUSH2 0x37B8 JUMP JUMPDEST SWAP3 POP POP PUSH1 0x5 DUP5 ADD DUP6 DUP4 SUB PUSH1 0xA0 DUP8 ADD MSTORE PUSH2 0x3916 DUP4 DUP3 PUSH2 0x37B8 JUMP JUMPDEST SWAP3 POP POP PUSH1 0x6 DUP5 ADD DUP6 DUP4 SUB PUSH1 0xC0 DUP8 ADD MSTORE PUSH2 0x392F DUP4 DUP3 PUSH2 0x37B8 JUMP JUMPDEST SWAP3 POP POP DUP2 SWAP3 POP POP POP SWAP3 SWAP2 POP POP JUMP JUMPDEST PUSH1 0x0 PUSH2 0x3949 DUP4 DUP4 PUSH2 0x3872 JUMP JUMPDEST SWAP1 POP SWAP3 SWAP2 POP POP JUMP JUMPDEST PUSH1 0x0 PUSH1 0x7 DUP3 ADD SWAP1 POP SWAP2 SWAP1 POP JUMP JUMPDEST PUSH1 0x0 PUSH2 0x3969 DUP3 PUSH2 0x368B JUMP JUMPDEST PUSH2 0x3973 DUP2 DUP6 PUSH2 0x3696 JUMP JUMPDEST SWAP4 POP DUP4 PUSH1 0x20 DUP3 MUL DUP6 ADD PUSH2 0x3985 DUP6 PUSH2 0x36A7 JUMP JUMPDEST DUP1 PUSH1 0x0 JUMPDEST DUP6 DUP2 LT ISZERO PUSH2 0x39C0 JUMPI DUP5 DUP5 SUB DUP10 MSTORE DUP2 PUSH2 0x39A1 DUP6 DUP3 PUSH2 0x393D JUMP JUMPDEST SWAP5 POP PUSH2 0x39AC DUP4 PUSH2 0x3951 JUMP JUMPDEST SWAP3 POP PUSH1 0x20 DUP11 ADD SWAP10 POP POP PUSH1 0x1 DUP2 ADD SWAP1 POP PUSH2 0x3989 JUMP JUMPDEST POP DUP3 SWAP8 POP DUP8 SWAP6 POP POP POP POP POP POP SWAP3 SWAP2 POP POP JUMP JUMPDEST PUSH1 0x0 PUSH1 0x40 DUP3 ADD SWAP1 POP DUP2 DUP2 SUB PUSH1 0x0 DUP4 ADD MSTORE PUSH2 0x39EC DUP2 DUP6 PUSH2 0x395E JUMP JUMPDEST SWAP1 POP PUSH2 0x39FB PUSH1 0x20 DUP4 ADD DUP5 PUSH2 0x2403 JUMP JUMPDEST SWAP4 SWAP3 POP POP POP JUMP JUMPDEST PUSH1 0x0 PUSH2 0x3A15 PUSH2 0x3A10 DUP5 PUSH2 0x2715 JUMP JUMPDEST PUSH2 0x2601 JUMP JUMPDEST SWAP1 POP DUP3 DUP2 MSTORE PUSH1 0x20 DUP2 ADD DUP5 DUP5 DUP5 ADD GT ISZERO PUSH2 0x3A31 JUMPI PUSH2 0x3A30 PUSH2 0x259C JUMP JUMPDEST JUMPDEST PUSH2 0x3A3C DUP5 DUP3 DUP6 PUSH2 0x2095 JUMP JUMPDEST POP SWAP4 SWAP3 POP POP POP JUMP JUMPDEST PUSH1 0x0 DUP3 PUSH1 0x1F DUP4 ADD SLT PUSH2 0x3A59 JUMPI PUSH2 0x3A58 PUSH2 0x22CD JUMP JUMPDEST JUMPDEST DUP2 MLOAD PUSH2 0x3A69 DUP5 DUP3 PUSH1 0x20 DUP7 ADD PUSH2 0x3A02 JUMP JUMPDEST SWAP2 POP POP SWAP3 SWAP2 POP POP JUMP JUMPDEST PUSH1 0x0 PUSH1 0x20 DUP3 DUP5 SUB SLT ISZERO PUSH2 0x3A88 JUMPI PUSH2 0x3A87 PUSH2 0x1FB4 JUMP JUMPDEST JUMPDEST PUSH1 0x0 DUP3 ADD MLOAD PUSH8 0xFFFFFFFFFFFFFFFF DUP2 GT ISZERO PUSH2 0x3AA6 JUMPI PUSH2 0x3AA5 PUSH2 0x1FB9 JUMP JUMPDEST JUMPDEST PUSH2 0x3AB2 DUP5 DUP3 DUP6 ADD PUSH2 0x3A44 JUMP JUMPDEST SWAP2 POP POP SWAP3 SWAP2 POP POP JUMP JUMPDEST PUSH1 0x0 DUP2 SWAP1 POP SWAP3 SWAP2 POP POP JUMP JUMPDEST PUSH32 0x646174613A6170706C69636174696F6E2F6A736F6E2C2532326E616D65253232 PUSH1 0x0 DUP3 ADD MSTORE PUSH32 0x2533412532320000000000000000000000000000000000000000000000000000 PUSH1 0x20 DUP3 ADD MSTORE POP JUMP JUMPDEST PUSH1 0x0 PUSH2 0x3B22 PUSH1 0x26 DUP4 PUSH2 0x3ABB JUMP JUMPDEST SWAP2 POP PUSH2 0x3B2D DUP3 PUSH2 0x3AC6 JUMP JUMPDEST PUSH1 0x26 DUP3 ADD SWAP1 POP SWAP2 SWAP1 POP JUMP JUMPDEST PUSH1 0x0 DUP2 SLOAD PUSH2 0x3B45 DUP2 PUSH2 0x28A8 JUMP JUMPDEST PUSH2 0x3B4F DUP2 DUP7 PUSH2 0x3ABB JUMP JUMPDEST SWAP5 POP PUSH1 0x1 DUP3 AND PUSH1 0x0 DUP2 EQ PUSH2 0x3B6A JUMPI PUSH1 0x1 DUP2 EQ PUSH2 0x3B7F JUMPI PUSH2 0x3BB2 JUMP JUMPDEST PUSH1 0xFF NOT DUP4 AND DUP7 MSTORE DUP2 ISZERO ISZERO DUP3 MUL DUP7 ADD SWAP4 POP PUSH2 0x3BB2 JUMP JUMPDEST PUSH2 0x3B88 DUP6 PUSH2 0x2B9E JUMP JUMPDEST PUSH1 0x0 JUMPDEST DUP4 DUP2 LT ISZERO PUSH2 0x3BAA JUMPI DUP2 SLOAD DUP2 DUP10 ADD MSTORE PUSH1 0x1 DUP3 ADD SWAP2 POP PUSH1 0x20 DUP2 ADD SWAP1 POP PUSH2 0x3B8B JUMP JUMPDEST DUP4 DUP9 ADD SWAP6 POP POP POP JUMPDEST POP POP POP SWAP3 SWAP2 POP POP JUMP JUMPDEST PUSH32 0x2532432532326465736372697074696F6E253232253341253232000000000000 PUSH1 0x0 DUP3 ADD MSTORE POP JUMP JUMPDEST PUSH1 0x0 PUSH2 0x3BF1 PUSH1 0x1A DUP4 PUSH2 0x3ABB JUMP JUMPDEST SWAP2 POP PUSH2 0x3BFC DUP3 PUSH2 0x3BBB JUMP JUMPDEST PUSH1 0x1A DUP3 ADD SWAP1 POP SWAP2 SWAP1 POP JUMP JUMPDEST PUSH32 0x253243253232616E696D6174696F6E5F75726C25323225334125323200000000 PUSH1 0x0 DUP3 ADD MSTORE POP JUMP JUMPDEST PUSH1 0x0 PUSH2 0x3C3D PUSH1 0x1C DUP4 PUSH2 0x3ABB JUMP JUMPDEST SWAP2 POP PUSH2 0x3C48 DUP3 PUSH2 0x3C07 JUMP JUMPDEST PUSH1 0x1C DUP3 ADD SWAP1 POP SWAP2 SWAP1 POP JUMP JUMPDEST PUSH1 0x0 DUP2 SWAP1 POP SWAP3 SWAP2 POP POP JUMP JUMPDEST PUSH1 0x0 PUSH2 0x3C69 DUP3 PUSH2 0x242D JUMP JUMPDEST PUSH2 0x3C73 DUP2 DUP6 PUSH2 0x3C53 JUMP JUMPDEST SWAP4 POP PUSH2 0x3C83 DUP2 DUP6 PUSH1 0x20 DUP7 ADD PUSH2 0x2095 JUMP JUMPDEST DUP1 DUP5 ADD SWAP2 POP POP SWAP3 SWAP2 POP POP JUMP JUMPDEST PUSH32 0x2532322537440000000000000000000000000000000000000000000000000000 PUSH1 0x0 DUP3 ADD MSTORE POP JUMP JUMPDEST PUSH1 0x0 PUSH2 0x3CC5 PUSH1 0x6 DUP4 PUSH2 0x3ABB JUMP JUMPDEST SWAP2 POP PUSH2 0x3CD0 DUP3 PUSH2 0x3C8F JUMP JUMPDEST PUSH1 0x6 DUP3 ADD SWAP1 POP SWAP2 SWAP1 POP JUMP JUMPDEST PUSH1 0x0 PUSH2 0x3CE6 DUP3 PUSH2 0x3B15 JUMP JUMPDEST SWAP2 POP PUSH2 0x3CF2 DUP3 DUP7 PUSH2 0x3B38 JUMP JUMPDEST SWAP2 POP PUSH2 0x3CFD DUP3 PUSH2 0x3BE4 JUMP JUMPDEST SWAP2 POP PUSH2 0x3D09 DUP3 DUP6 PUSH2 0x3B38 JUMP JUMPDEST SWAP2 POP PUSH2 0x3D14 DUP3 PUSH2 0x3C30 JUMP JUMPDEST SWAP2 POP PUSH2 0x3D20 DUP3 DUP5 PUSH2 0x3C5E JUMP JUMPDEST SWAP2 POP PUSH2 0x3D2B DUP3 PUSH2 0x3CB8 JUMP JUMPDEST SWAP2 POP DUP2 SWAP1 POP SWAP5 SWAP4 POP POP POP POP JUMP JUMPDEST PUSH32 0x455243373231436C6F6E6561626C653A207472616E736665722066726F6D2069 PUSH1 0x0 DUP3 ADD MSTORE PUSH32 0x6E636F7272656374206F776E6572000000000000000000000000000000000000 PUSH1 0x20 DUP3 ADD MSTORE POP JUMP JUMPDEST PUSH1 0x0 PUSH2 0x3D94 PUSH1 0x2E DUP4 PUSH2 0x2084 JUMP JUMPDEST SWAP2 POP PUSH2 0x3D9F DUP3 PUSH2 0x3D38 JUMP JUMPDEST PUSH1 0x40 DUP3 ADD SWAP1 POP SWAP2 SWAP1 POP JUMP JUMPDEST PUSH1 0x0 PUSH1 0x20 DUP3 ADD SWAP1 POP DUP2 DUP2 SUB PUSH1 0x0 DUP4 ADD MSTORE PUSH2 0x3DC3 DUP2 PUSH2 0x3D87 JUMP JUMPDEST SWAP1 POP SWAP2 SWAP1 POP JUMP JUMPDEST PUSH32 0x455243373231436C6F6E6561626C653A207472616E7366657220746F20746865 PUSH1 0x0 DUP3 ADD MSTORE PUSH32 0x207A65726F206164647265737300000000000000000000000000000000000000 PUSH1 0x20 DUP3 ADD MSTORE POP JUMP JUMPDEST PUSH1 0x0 PUSH2 0x3E26 PUSH1 0x2D DUP4 PUSH2 0x2084 JUMP JUMPDEST SWAP2 POP PUSH2 0x3E31 DUP3 PUSH2 0x3DCA JUMP JUMPDEST PUSH1 0x40 DUP3 ADD SWAP1 POP SWAP2 SWAP1 POP JUMP JUMPDEST PUSH1 0x0 PUSH1 0x20 DUP3 ADD SWAP1 POP DUP2 DUP2 SUB PUSH1 0x0 DUP4 ADD MSTORE PUSH2 0x3E55 DUP2 PUSH2 0x3E19 JUMP JUMPDEST SWAP1 POP SWAP2 SWAP1 POP JUMP JUMPDEST PUSH32 0x455243373231436C6F6E6561626C653A20617070726F766520746F2063616C6C PUSH1 0x0 DUP3 ADD MSTORE PUSH32 0x6572000000000000000000000000000000000000000000000000000000000000 PUSH1 0x20 DUP3 ADD MSTORE POP JUMP JUMPDEST PUSH1 0x0 PUSH2 0x3EB8 PUSH1 0x22 DUP4 PUSH2 0x2084 JUMP JUMPDEST SWAP2 POP PUSH2 0x3EC3 DUP3 PUSH2 0x3E5C JUMP JUMPDEST PUSH1 0x40 DUP3 ADD SWAP1 POP SWAP2 SWAP1 POP JUMP JUMPDEST PUSH1 0x0 PUSH1 0x20 DUP3 ADD SWAP1 POP DUP2 DUP2 SUB PUSH1 0x0 DUP4 ADD MSTORE PUSH2 0x3EE7 DUP2 PUSH2 0x3EAB JUMP JUMPDEST SWAP1 POP SWAP2 SWAP1 POP JUMP JUMPDEST PUSH32 0x455243373231436C6F6E6561626C653A207472616E7366657220746F206E6F6E PUSH1 0x0 DUP3 ADD MSTORE PUSH32 0x20455243373231526563656976657220696D706C656D656E7465720000000000 PUSH1 0x20 DUP3 ADD MSTORE POP JUMP JUMPDEST PUSH1 0x0 PUSH2 0x3F4A PUSH1 0x3B DUP4 PUSH2 0x2084 JUMP JUMPDEST SWAP2 POP PUSH2 0x3F55 DUP3 PUSH2 0x3EEE JUMP JUMPDEST PUSH1 0x40 DUP3 ADD SWAP1 POP SWAP2 SWAP1 POP JUMP JUMPDEST PUSH1 0x0 PUSH1 0x20 DUP3 ADD SWAP1 POP DUP2 DUP2 SUB PUSH1 0x0 DUP4 ADD MSTORE PUSH2 0x3F79 DUP2 PUSH2 0x3F3D JUMP JUMPDEST SWAP1 POP SWAP2 SWAP1 POP JUMP JUMPDEST PUSH1 0x0 PUSH2 0x3F8B DUP3 PUSH2 0x212B JUMP JUMPDEST SWAP2 POP PUSH2 0x3F96 DUP4 PUSH2 0x212B JUMP JUMPDEST SWAP3 POP DUP3 DUP3 SUB SWAP1 POP DUP2 DUP2 GT ISZERO PUSH2 0x3FAE JUMPI PUSH2 0x3FAD PUSH2 0x328E JUMP JUMPDEST JUMPDEST SWAP3 SWAP2 POP POP JUMP JUMPDEST PUSH1 0x0 PUSH2 0x3FBF DUP3 PUSH2 0x212B JUMP JUMPDEST SWAP2 POP PUSH2 0x3FCA DUP4 PUSH2 0x212B JUMP JUMPDEST SWAP3 POP DUP3 DUP3 ADD SWAP1 POP DUP1 DUP3 GT ISZERO PUSH2 0x3FE2 JUMPI PUSH2 0x3FE1 PUSH2 0x328E JUMP JUMPDEST JUMPDEST SWAP3 SWAP2 POP POP JUMP JUMPDEST PUSH1 0x0 PUSH1 0x80 DUP3 ADD SWAP1 POP PUSH2 0x3FFD PUSH1 0x0 DUP4 ADD DUP8 PUSH2 0x21C0 JUMP JUMPDEST PUSH2 0x400A PUSH1 0x20 DUP4 ADD DUP7 PUSH2 0x21C0 JUMP JUMPDEST PUSH2 0x4017 PUSH1 0x40 DUP4 ADD DUP6 PUSH2 0x2403 JUMP JUMPDEST DUP2 DUP2 SUB PUSH1 0x60 DUP4 ADD MSTORE PUSH2 0x4029 DUP2 DUP5 PUSH2 0x2449 JUMP JUMPDEST SWAP1 POP SWAP6 SWAP5 POP POP POP POP POP JUMP JUMPDEST PUSH1 0x0 DUP2 MLOAD SWAP1 POP PUSH2 0x4043 DUP2 PUSH2 0x1FEA JUMP JUMPDEST SWAP3 SWAP2 POP POP JUMP JUMPDEST PUSH1 0x0 PUSH1 0x20 DUP3 DUP5 SUB SLT ISZERO PUSH2 0x405F JUMPI PUSH2 0x405E PUSH2 0x1FB4 JUMP JUMPDEST JUMPDEST PUSH1 0x0 PUSH2 0x406D DUP5 DUP3 DUP6 ADD PUSH2 0x4034 JUMP JUMPDEST SWAP2 POP POP SWAP3 SWAP2 POP POP JUMP JUMPDEST PUSH32 0x455243373231436C6F6E6561626C653A206D696E7420746F20746865207A6572 PUSH1 0x0 DUP3 ADD MSTORE PUSH32 0x6F20616464726573730000000000000000000000000000000000000000000000 PUSH1 0x20 DUP3 ADD MSTORE POP JUMP JUMPDEST PUSH1 0x0 PUSH2 0x40D2 PUSH1 0x29 DUP4 PUSH2 0x2084 JUMP JUMPDEST SWAP2 POP PUSH2 0x40DD DUP3 PUSH2 0x4076 JUMP JUMPDEST PUSH1 0x40 DUP3 ADD SWAP1 POP SWAP2 SWAP1 POP JUMP JUMPDEST PUSH1 0x0 PUSH1 0x20 DUP3 ADD SWAP1 POP DUP2 DUP2 SUB PUSH1 0x0 DUP4 ADD MSTORE PUSH2 0x4101 DUP2 PUSH2 0x40C5 JUMP JUMPDEST SWAP1 POP SWAP2 SWAP1 POP JUMP JUMPDEST PUSH32 0x455243373231436C6F6E6561626C653A20746F6B656E20616C7265616479206D PUSH1 0x0 DUP3 ADD MSTORE PUSH32 0x696E746564000000000000000000000000000000000000000000000000000000 PUSH1 0x20 DUP3 ADD MSTORE POP JUMP JUMPDEST PUSH1 0x0 PUSH2 0x4164 PUSH1 0x25 DUP4 PUSH2 0x2084 JUMP JUMPDEST SWAP2 POP PUSH2 0x416F DUP3 PUSH2 0x4108 JUMP JUMPDEST PUSH1 0x40 DUP3 ADD SWAP1 POP SWAP2 SWAP1 POP JUMP JUMPDEST PUSH1 0x0 PUSH1 0x20 DUP3 ADD SWAP1 POP DUP2 DUP2 SUB PUSH1 0x0 DUP4 ADD MSTORE PUSH2 0x4193 DUP2 PUSH2 0x4157 JUMP JUMPDEST SWAP1 POP SWAP2 SWAP1 POP JUMP INVALID LOG2 PUSH5 0x6970667358 0x22 SLT KECCAK256 SIGNEXTEND NOT 0xD1 PUSH30 0x9A16BAEEF17163B50C720783195F5A82610E9314D30D5A26E31D5E2A6473 PUSH16 0x6C634300081100330000000000000000 "},"methodIdentifiers":{"approve(address,uint256)":"095ea7b3","balanceOf(address)":"70a08231","bufferSize()":"9c2c770b","getApproved(uint256)":"081812fc","init((string,string),address,uint256,(string,address,bytes,uint8,bytes,bytes,bytes)[])":"4e197151","initialized()":"158ef93e","isApprovedForAll(address,address)":"e985e9c5","mintForOwner(address)":"a50d81c7","minted()":"4f02c420","name()":"06fdde03","ownerOf(uint256)":"6352211e","requests(uint256)":"81d12c58","safeTransferFrom(address,address,uint256)":"42842e0e","safeTransferFrom(address,address,uint256,bytes)":"b88d4fde","scriptyBuilderAddress()":"e3b71f87","setApprovalForAll(address,bool)":"a22cb465","setName(string)":"c47f0027","setSymbol(string)":"b84c8246","supportsInterface(bytes4)":"01ffc9a7","symbol()":"95d89b41","tokenURI(uint256)":"c87b56dd","transferFrom(address,address,uint256)":"23b872dd","urlEncodedDesc()":"6eaa1afe","urlEncodedName()":"32032db5"}}}}}