{"src/contracts/FrameDeployer.sol":{"FrameDeployer":{"abi":[{"inputs":[{"internalType":"address","name":"_frameFactory","type":"address"},{"internalType":"address","name":"_scriptyBuilder","type":"address"}],"stateMutability":"nonpayable","type":"constructor"},{"anonymous":false,"inputs":[{"indexed":false,"internalType":"address","name":"newAddress","type":"address"}],"name":"FrameCreated","type":"event"},{"inputs":[{"components":[{"internalType":"string","name":"name","type":"string"},{"internalType":"string","name":"description","type":"string"},{"internalType":"string","name":"symbol","type":"string"}],"internalType":"struct FrameMetadata","name":"_metadata","type":"tuple"},{"components":[{"internalType":"string","name":"name","type":"string"},{"internalType":"address","name":"contractAddress","type":"address"},{"internalType":"bytes","name":"contractData","type":"bytes"},{"internalType":"uint8","name":"wrapType","type":"uint8"},{"internalType":"bytes","name":"wrapPrefix","type":"bytes"},{"internalType":"bytes","name":"wrapSuffix","type":"bytes"},{"internalType":"bytes","name":"scriptContent","type":"bytes"}],"internalType":"struct WrappedScriptRequest[]","name":"_requests","type":"tuple[]"},{"internalType":"uint256","name":"_bufferSize","type":"uint256"}],"name":"createFrame","outputs":[{"internalType":"address","name":"","type":"address"}],"stateMutability":"nonpayable","type":"function"},{"inputs":[{"components":[{"internalType":"string","name":"name","type":"string"},{"internalType":"string","name":"description","type":"string"},{"internalType":"string","name":"symbol","type":"string"}],"internalType":"struct FrameMetadata","name":"_metadata","type":"tuple"},{"internalType":"bytes","name":"_script","type":"bytes"},{"components":[{"internalType":"string","name":"name","type":"string"},{"internalType":"address","name":"contractAddress","type":"address"},{"internalType":"bytes","name":"contractData","type":"bytes"},{"internalType":"uint8","name":"wrapType","type":"uint8"},{"internalType":"bytes","name":"wrapPrefix","type":"bytes"},{"internalType":"bytes","name":"wrapSuffix","type":"bytes"},{"internalType":"bytes","name":"scriptContent","type":"bytes"}],"internalType":"struct WrappedScriptRequest[]","name":"_requests","type":"tuple[]"},{"internalType":"uint256","name":"_requestsBufferSize","type":"uint256"}],"name":"createFrameWithScript","outputs":[{"internalType":"address","name":"","type":"address"}],"stateMutability":"nonpayable","type":"function"},{"inputs":[],"name":"frameFactory","outputs":[{"internalType":"address","name":"","type":"address"}],"stateMutability":"view","type":"function"},{"inputs":[],"name":"scriptyBuilder","outputs":[{"internalType":"address","name":"","type":"address"}],"stateMutability":"view","type":"function"}],"evm":{"bytecode":{"linkReferences":{},"object":"60c06040523480156200001157600080fd5b506040516200153238038062001532833981810160405281019062000037919062000111565b8173ffffffffffffffffffffffffffffffffffffffff1660808173ffffffffffffffffffffffffffffffffffffffff16815250508073ffffffffffffffffffffffffffffffffffffffff1660a08173ffffffffffffffffffffffffffffffffffffffff1681525050505062000158565b600080fd5b600073ffffffffffffffffffffffffffffffffffffffff82169050919050565b6000620000d982620000ac565b9050919050565b620000eb81620000cc565b8114620000f757600080fd5b50565b6000815190506200010b81620000e0565b92915050565b600080604083850312156200012b576200012a620000a7565b5b60006200013b85828601620000fa565b92505060206200014e85828601620000fa565b9150509250929050565b60805160a051611399620001996000396000818160ef015281816101ea01526104ff0152600081816101130152818161013a015261044f01526113996000f3fe608060405234801561001057600080fd5b506004361061004c5760003560e01c806391a0d36d14610051578063954bf4d11461006f578063b46cb1021461008d578063fd3ee5df146100bd575b600080fd5b6100596100ed565b6040516100669190610667565b60405180910390f35b610077610111565b6040516100849190610667565b60405180910390f35b6100a760048036038101906100a29190610755565b610135565b6040516100b49190610667565b60405180910390f35b6100d760048036038101906100d2919061083b565b61030c565b6040516100e49190610667565b60405180910390f35b7f000000000000000000000000000000000000000000000000000000000000000081565b7f000000000000000000000000000000000000000000000000000000000000000081565b6000807f000000000000000000000000000000000000000000000000000000000000000073ffffffffffffffffffffffffffffffffffffffff1663efc81a8c6040518163ffffffff1660e01b81526004016020604051808303816000875af11580156101a5573d6000803e3d6000fd5b505050506040513d601f19601f820116820180604052508101906101c9919061092a565b90508073ffffffffffffffffffffffffffffffffffffffff1663b1149223877f00000000000000000000000000000000000000000000000000000000000000008689896040518663ffffffff1660e01b815260040161022c959493929190610dbf565b600060405180830381600087803b15801561024657600080fd5b505af115801561025a573d6000803e3d6000fd5b505050508073ffffffffffffffffffffffffffffffffffffffff1663a50d81c7336040518263ffffffff1660e01b81526004016102979190610667565b600060405180830381600087803b1580156102b157600080fd5b505af11580156102c5573d6000803e3d6000fd5b505050507f62392641265fcc5a6a8128fd39634480ffe377e76dc54dcad335e1289fcc0fd5816040516102f89190610667565b60405180910390a180915050949350505050565b60008084846001878790506103219190610e43565b81811061033157610330610e77565b5b90506020028101906103439190610eab565b61034c906111df565b90506000816000015190506000826020015190508073ffffffffffffffffffffffffffffffffffffffff16638652d66983604051806020016040528060008152506040518363ffffffff1660e01b81526004016103aa9291906112c6565b600060405180830381600087803b1580156103c457600080fd5b505af11580156103d8573d6000803e3d6000fd5b505050508073ffffffffffffffffffffffffffffffffffffffff16633b7aa8d9838b8b6040518463ffffffff1660e01b81526004016104199392919061132a565b600060405180830381600087803b15801561043357600080fd5b505af1158015610447573d6000803e3d6000fd5b5050505060007f000000000000000000000000000000000000000000000000000000000000000073ffffffffffffffffffffffffffffffffffffffff1663efc81a8c6040518163ffffffff1660e01b81526004016020604051808303816000875af11580156104ba573d6000803e3d6000fd5b505050506040513d601f19601f820116820180604052508101906104de919061092a565b90508073ffffffffffffffffffffffffffffffffffffffff1663b11492238c7f0000000000000000000000000000000000000000000000000000000000000000898c8c6040518663ffffffff1660e01b8152600401610541959493929190610dbf565b600060405180830381600087803b15801561055b57600080fd5b505af115801561056f573d6000803e3d6000fd5b505050508073ffffffffffffffffffffffffffffffffffffffff1663a50d81c7336040518263ffffffff1660e01b81526004016105ac9190610667565b600060405180830381600087803b1580156105c657600080fd5b505af11580156105da573d6000803e3d6000fd5b505050507f62392641265fcc5a6a8128fd39634480ffe377e76dc54dcad335e1289fcc0fd58160405161060d9190610667565b60405180910390a1809450505050509695505050505050565b600073ffffffffffffffffffffffffffffffffffffffff82169050919050565b600061065182610626565b9050919050565b61066181610646565b82525050565b600060208201905061067c6000830184610658565b92915050565b6000604051905090565b600080fd5b600080fd5b600080fd5b6000606082840312156106b1576106b0610696565b5b81905092915050565b600080fd5b600080fd5b600080fd5b60008083601f8401126106df576106de6106ba565b5b8235905067ffffffffffffffff8111156106fc576106fb6106bf565b5b602083019150836020820283011115610718576107176106c4565b5b9250929050565b6000819050919050565b6107328161071f565b811461073d57600080fd5b50565b60008135905061074f81610729565b92915050565b6000806000806060858703121561076f5761076e61068c565b5b600085013567ffffffffffffffff81111561078d5761078c610691565b5b6107998782880161069b565b945050602085013567ffffffffffffffff8111156107ba576107b9610691565b5b6107c6878288016106c9565b935093505060406107d987828801610740565b91505092959194509250565b60008083601f8401126107fb576107fa6106ba565b5b8235905067ffffffffffffffff811115610818576108176106bf565b5b602083019150836001820283011115610834576108336106c4565b5b9250929050565b600080600080600080608087890312156108585761085761068c565b5b600087013567ffffffffffffffff81111561087657610875610691565b5b61088289828a0161069b565b965050602087013567ffffffffffffffff8111156108a3576108a2610691565b5b6108af89828a016107e5565b9550955050604087013567ffffffffffffffff8111156108d2576108d1610691565b5b6108de89828a016106c9565b935093505060606108f189828a01610740565b9150509295509295509295565b61090781610646565b811461091257600080fd5b50565b600081519050610924816108fe565b92915050565b6000602082840312156109405761093f61068c565b5b600061094e84828501610915565b91505092915050565b600080fd5b600080fd5b600080fd5b6000808335600160200384360303811261098357610982610961565b5b83810192508235915060208301925067ffffffffffffffff8211156109ab576109aa610957565b5b6001820236038313156109c1576109c061095c565b5b509250929050565b600082825260208201905092915050565b82818337600083830152505050565b6000601f19601f8301169050919050565b6000610a0683856109c9565b9350610a138385846109da565b610a1c836109e9565b840190509392505050565b600060608301610a3a6000840184610966565b8583036000870152610a4d8382846109fa565b92505050610a5e6020840184610966565b8583036020870152610a718382846109fa565b92505050610a826040840184610966565b8583036040870152610a958382846109fa565b925050508091505092915050565b610aac8161071f565b82525050565b600082825260208201905092915050565b6000819050919050565b600081359050610adc816108fe565b92915050565b6000610af16020840184610acd565b905092915050565b610b0281610646565b82525050565b60008083356001602003843603038112610b2557610b24610961565b5b83810192508235915060208301925067ffffffffffffffff821115610b4d57610b4c610957565b5b600182023603831315610b6357610b6261095c565b5b509250929050565b600082825260208201905092915050565b6000610b888385610b6b565b9350610b958385846109da565b610b9e836109e9565b840190509392505050565b600060ff82169050919050565b610bbf81610ba9565b8114610bca57600080fd5b50565b600081359050610bdc81610bb6565b92915050565b6000610bf16020840184610bcd565b905092915050565b610c0281610ba9565b82525050565b600060e08301610c1b6000840184610966565b8583036000870152610c2e8382846109fa565b92505050610c3f6020840184610ae2565b610c4c6020860182610af9565b50610c5a6040840184610b08565b8583036040870152610c6d838284610b7c565b92505050610c7e6060840184610be2565b610c8b6060860182610bf9565b50610c996080840184610b08565b8583036080870152610cac838284610b7c565b92505050610cbd60a0840184610b08565b85830360a0870152610cd0838284610b7c565b92505050610ce160c0840184610b08565b85830360c0870152610cf4838284610b7c565b925050508091505092915050565b6000610d0e8383610c08565b905092915050565b60008235600160e003833603038112610d3257610d31610961565b5b82810191505092915050565b6000602082019050919050565b6000610d578385610ab2565b935083602084028501610d6984610ac3565b8060005b87811015610dad578484038952610d848284610d16565b610d8e8582610d02565b9450610d9983610d3e565b925060208a01995050600181019050610d6d565b50829750879450505050509392505050565b60006080820190508181036000830152610dd98188610a27565b9050610de86020830187610658565b610df56040830186610aa3565b8181036060830152610e08818486610d4b565b90509695505050505050565b7f4e487b7100000000000000000000000000000000000000000000000000000000600052601160045260246000fd5b6000610e4e8261071f565b9150610e598361071f565b9250828203905081811115610e7157610e70610e14565b5b92915050565b7f4e487b7100000000000000000000000000000000000000000000000000000000600052603260045260246000fd5b600080fd5b60008235600160e003833603038112610ec757610ec6610ea6565b5b80830191505092915050565b600080fd5b7f4e487b7100000000000000000000000000000000000000000000000000000000600052604160045260246000fd5b610f10826109e9565b810181811067ffffffffffffffff82111715610f2f57610f2e610ed8565b5b80604052505050565b6000610f42610682565b9050610f4e8282610f07565b919050565b600080fd5b600080fd5b600067ffffffffffffffff821115610f7857610f77610ed8565b5b610f81826109e9565b9050602081019050919050565b6000610fa1610f9c84610f5d565b610f38565b905082815260208101848484011115610fbd57610fbc610f58565b5b610fc88482856109da565b509392505050565b600082601f830112610fe557610fe46106ba565b5b8135610ff5848260208601610f8e565b91505092915050565b600067ffffffffffffffff82111561101957611018610ed8565b5b611022826109e9565b9050602081019050919050565b600061104261103d84610ffe565b610f38565b90508281526020810184848401111561105e5761105d610f58565b5b6110698482856109da565b509392505050565b600082601f830112611086576110856106ba565b5b813561109684826020860161102f565b91505092915050565b600060e082840312156110b5576110b4610ed3565b5b6110bf60e0610f38565b9050600082013567ffffffffffffffff8111156110df576110de610f53565b5b6110eb84828501610fd0565b60008301525060206110ff84828501610acd565b602083015250604082013567ffffffffffffffff81111561112357611122610f53565b5b61112f84828501611071565b604083015250606061114384828501610bcd565b606083015250608082013567ffffffffffffffff81111561116757611166610f53565b5b61117384828501611071565b60808301525060a082013567ffffffffffffffff81111561119757611196610f53565b5b6111a384828501611071565b60a08301525060c082013567ffffffffffffffff8111156111c7576111c6610f53565b5b6111d384828501611071565b60c08301525092915050565b60006111eb368361109f565b9050919050565b600081519050919050565b600082825260208201905092915050565b60005b8381101561122c578082015181840152602081019050611211565b60008484015250505050565b6000611243826111f2565b61124d81856111fd565b935061125d81856020860161120e565b611266816109e9565b840191505092915050565b600081519050919050565b600082825260208201905092915050565b600061129882611271565b6112a2818561127c565b93506112b281856020860161120e565b6112bb816109e9565b840191505092915050565b600060408201905081810360008301526112e08185611238565b905081810360208301526112f4818461128d565b90509392505050565b6000611309838561127c565b93506113168385846109da565b61131f836109e9565b840190509392505050565b600060408201905081810360008301526113448186611238565b905081810360208301526113598184866112fd565b905094935050505056fea2646970667358221220e890daa8bbe0e8f914fd21ef33bb98cefc7a26869298c620e69a393e901cdc5764736f6c63430008110033","opcodes":"PUSH1 0xC0 PUSH1 0x40 MSTORE CALLVALUE DUP1 ISZERO PUSH3 0x11 JUMPI PUSH1 0x0 DUP1 REVERT JUMPDEST POP PUSH1 0x40 MLOAD PUSH3 0x1532 CODESIZE SUB DUP1 PUSH3 0x1532 DUP4 CODECOPY DUP2 DUP2 ADD PUSH1 0x40 MSTORE DUP2 ADD SWAP1 PUSH3 0x37 SWAP2 SWAP1 PUSH3 0x111 JUMP JUMPDEST DUP2 PUSH20 0xFFFFFFFFFFFFFFFFFFFFFFFFFFFFFFFFFFFFFFFF AND PUSH1 0x80 DUP2 PUSH20 0xFFFFFFFFFFFFFFFFFFFFFFFFFFFFFFFFFFFFFFFF AND DUP2 MSTORE POP POP DUP1 PUSH20 0xFFFFFFFFFFFFFFFFFFFFFFFFFFFFFFFFFFFFFFFF AND PUSH1 0xA0 DUP2 PUSH20 0xFFFFFFFFFFFFFFFFFFFFFFFFFFFFFFFFFFFFFFFF AND DUP2 MSTORE POP POP POP POP PUSH3 0x158 JUMP JUMPDEST PUSH1 0x0 DUP1 REVERT JUMPDEST PUSH1 0x0 PUSH20 0xFFFFFFFFFFFFFFFFFFFFFFFFFFFFFFFFFFFFFFFF DUP3 AND SWAP1 POP SWAP2 SWAP1 POP JUMP JUMPDEST PUSH1 0x0 PUSH3 0xD9 DUP3 PUSH3 0xAC JUMP JUMPDEST SWAP1 POP SWAP2 SWAP1 POP JUMP JUMPDEST PUSH3 0xEB DUP2 PUSH3 0xCC JUMP JUMPDEST DUP2 EQ PUSH3 0xF7 JUMPI PUSH1 0x0 DUP1 REVERT JUMPDEST POP JUMP JUMPDEST PUSH1 0x0 DUP2 MLOAD SWAP1 POP PUSH3 0x10B DUP2 PUSH3 0xE0 JUMP JUMPDEST SWAP3 SWAP2 POP POP JUMP JUMPDEST PUSH1 0x0 DUP1 PUSH1 0x40 DUP4 DUP6 SUB SLT ISZERO PUSH3 0x12B JUMPI PUSH3 0x12A PUSH3 0xA7 JUMP JUMPDEST JUMPDEST PUSH1 0x0 PUSH3 0x13B DUP6 DUP3 DUP7 ADD PUSH3 0xFA JUMP JUMPDEST SWAP3 POP POP PUSH1 0x20 PUSH3 0x14E DUP6 DUP3 DUP7 ADD PUSH3 0xFA JUMP JUMPDEST SWAP2 POP POP SWAP3 POP SWAP3 SWAP1 POP JUMP JUMPDEST PUSH1 0x80 MLOAD PUSH1 0xA0 MLOAD PUSH2 0x1399 PUSH3 0x199 PUSH1 0x0 CODECOPY PUSH1 0x0 DUP2 DUP2 PUSH1 0xEF ADD MSTORE DUP2 DUP2 PUSH2 0x1EA ADD MSTORE PUSH2 0x4FF ADD MSTORE PUSH1 0x0 DUP2 DUP2 PUSH2 0x113 ADD MSTORE DUP2 DUP2 PUSH2 0x13A ADD MSTORE PUSH2 0x44F ADD MSTORE PUSH2 0x1399 PUSH1 0x0 RETURN INVALID PUSH1 0x80 PUSH1 0x40 MSTORE CALLVALUE DUP1 ISZERO PUSH2 0x10 JUMPI PUSH1 0x0 DUP1 REVERT JUMPDEST POP PUSH1 0x4 CALLDATASIZE LT PUSH2 0x4C JUMPI PUSH1 0x0 CALLDATALOAD PUSH1 0xE0 SHR DUP1 PUSH4 0x91A0D36D EQ PUSH2 0x51 JUMPI DUP1 PUSH4 0x954BF4D1 EQ PUSH2 0x6F JUMPI DUP1 PUSH4 0xB46CB102 EQ PUSH2 0x8D JUMPI DUP1 PUSH4 0xFD3EE5DF EQ PUSH2 0xBD JUMPI JUMPDEST PUSH1 0x0 DUP1 REVERT JUMPDEST PUSH2 0x59 PUSH2 0xED JUMP JUMPDEST PUSH1 0x40 MLOAD PUSH2 0x66 SWAP2 SWAP1 PUSH2 0x667 JUMP JUMPDEST PUSH1 0x40 MLOAD DUP1 SWAP2 SUB SWAP1 RETURN JUMPDEST PUSH2 0x77 PUSH2 0x111 JUMP JUMPDEST PUSH1 0x40 MLOAD PUSH2 0x84 SWAP2 SWAP1 PUSH2 0x667 JUMP JUMPDEST PUSH1 0x40 MLOAD DUP1 SWAP2 SUB SWAP1 RETURN JUMPDEST PUSH2 0xA7 PUSH1 0x4 DUP1 CALLDATASIZE SUB DUP2 ADD SWAP1 PUSH2 0xA2 SWAP2 SWAP1 PUSH2 0x755 JUMP JUMPDEST PUSH2 0x135 JUMP JUMPDEST PUSH1 0x40 MLOAD PUSH2 0xB4 SWAP2 SWAP1 PUSH2 0x667 JUMP JUMPDEST PUSH1 0x40 MLOAD DUP1 SWAP2 SUB SWAP1 RETURN JUMPDEST PUSH2 0xD7 PUSH1 0x4 DUP1 CALLDATASIZE SUB DUP2 ADD SWAP1 PUSH2 0xD2 SWAP2 SWAP1 PUSH2 0x83B JUMP JUMPDEST PUSH2 0x30C JUMP JUMPDEST PUSH1 0x40 MLOAD PUSH2 0xE4 SWAP2 SWAP1 PUSH2 0x667 JUMP JUMPDEST PUSH1 0x40 MLOAD DUP1 SWAP2 SUB SWAP1 RETURN JUMPDEST PUSH32 0x0 DUP2 JUMP JUMPDEST PUSH32 0x0 DUP2 JUMP JUMPDEST PUSH1 0x0 DUP1 PUSH32 0x0 PUSH20 0xFFFFFFFFFFFFFFFFFFFFFFFFFFFFFFFFFFFFFFFF AND PUSH4 0xEFC81A8C PUSH1 0x40 MLOAD DUP2 PUSH4 0xFFFFFFFF AND PUSH1 0xE0 SHL DUP2 MSTORE PUSH1 0x4 ADD PUSH1 0x20 PUSH1 0x40 MLOAD DUP1 DUP4 SUB DUP2 PUSH1 0x0 DUP8 GAS CALL ISZERO DUP1 ISZERO PUSH2 0x1A5 JUMPI RETURNDATASIZE PUSH1 0x0 DUP1 RETURNDATACOPY RETURNDATASIZE PUSH1 0x0 REVERT JUMPDEST POP POP POP POP PUSH1 0x40 MLOAD RETURNDATASIZE PUSH1 0x1F NOT PUSH1 0x1F DUP3 ADD AND DUP3 ADD DUP1 PUSH1 0x40 MSTORE POP DUP2 ADD SWAP1 PUSH2 0x1C9 SWAP2 SWAP1 PUSH2 0x92A JUMP JUMPDEST SWAP1 POP DUP1 PUSH20 0xFFFFFFFFFFFFFFFFFFFFFFFFFFFFFFFFFFFFFFFF AND PUSH4 0xB1149223 DUP8 PUSH32 0x0 DUP7 DUP10 DUP10 PUSH1 0x40 MLOAD DUP7 PUSH4 0xFFFFFFFF AND PUSH1 0xE0 SHL DUP2 MSTORE PUSH1 0x4 ADD PUSH2 0x22C SWAP6 SWAP5 SWAP4 SWAP3 SWAP2 SWAP1 PUSH2 0xDBF JUMP JUMPDEST PUSH1 0x0 PUSH1 0x40 MLOAD DUP1 DUP4 SUB DUP2 PUSH1 0x0 DUP8 DUP1 EXTCODESIZE ISZERO DUP1 ISZERO PUSH2 0x246 JUMPI PUSH1 0x0 DUP1 REVERT JUMPDEST POP GAS CALL ISZERO DUP1 ISZERO PUSH2 0x25A JUMPI RETURNDATASIZE PUSH1 0x0 DUP1 RETURNDATACOPY RETURNDATASIZE PUSH1 0x0 REVERT JUMPDEST POP POP POP POP DUP1 PUSH20 0xFFFFFFFFFFFFFFFFFFFFFFFFFFFFFFFFFFFFFFFF AND PUSH4 0xA50D81C7 CALLER PUSH1 0x40 MLOAD DUP3 PUSH4 0xFFFFFFFF AND PUSH1 0xE0 SHL DUP2 MSTORE PUSH1 0x4 ADD PUSH2 0x297 SWAP2 SWAP1 PUSH2 0x667 JUMP JUMPDEST PUSH1 0x0 PUSH1 0x40 MLOAD DUP1 DUP4 SUB DUP2 PUSH1 0x0 DUP8 DUP1 EXTCODESIZE ISZERO DUP1 ISZERO PUSH2 0x2B1 JUMPI PUSH1 0x0 DUP1 REVERT JUMPDEST POP GAS CALL ISZERO DUP1 ISZERO PUSH2 0x2C5 JUMPI RETURNDATASIZE PUSH1 0x0 DUP1 RETURNDATACOPY RETURNDATASIZE PUSH1 0x0 REVERT JUMPDEST POP POP POP POP PUSH32 0x62392641265FCC5A6A8128FD39634480FFE377E76DC54DCAD335E1289FCC0FD5 DUP2 PUSH1 0x40 MLOAD PUSH2 0x2F8 SWAP2 SWAP1 PUSH2 0x667 JUMP JUMPDEST PUSH1 0x40 MLOAD DUP1 SWAP2 SUB SWAP1 LOG1 DUP1 SWAP2 POP POP SWAP5 SWAP4 POP POP POP POP JUMP JUMPDEST PUSH1 0x0 DUP1 DUP5 DUP5 PUSH1 0x1 DUP8 DUP8 SWAP1 POP PUSH2 0x321 SWAP2 SWAP1 PUSH2 0xE43 JUMP JUMPDEST DUP2 DUP2 LT PUSH2 0x331 JUMPI PUSH2 0x330 PUSH2 0xE77 JUMP JUMPDEST JUMPDEST SWAP1 POP PUSH1 0x20 MUL DUP2 ADD SWAP1 PUSH2 0x343 SWAP2 SWAP1 PUSH2 0xEAB JUMP JUMPDEST PUSH2 0x34C SWAP1 PUSH2 0x11DF JUMP JUMPDEST SWAP1 POP PUSH1 0x0 DUP2 PUSH1 0x0 ADD MLOAD SWAP1 POP PUSH1 0x0 DUP3 PUSH1 0x20 ADD MLOAD SWAP1 POP DUP1 PUSH20 0xFFFFFFFFFFFFFFFFFFFFFFFFFFFFFFFFFFFFFFFF AND PUSH4 0x8652D669 DUP4 PUSH1 0x40 MLOAD DUP1 PUSH1 0x20 ADD PUSH1 0x40 MSTORE DUP1 PUSH1 0x0 DUP2 MSTORE POP PUSH1 0x40 MLOAD DUP4 PUSH4 0xFFFFFFFF AND PUSH1 0xE0 SHL DUP2 MSTORE PUSH1 0x4 ADD PUSH2 0x3AA SWAP3 SWAP2 SWAP1 PUSH2 0x12C6 JUMP JUMPDEST PUSH1 0x0 PUSH1 0x40 MLOAD DUP1 DUP4 SUB DUP2 PUSH1 0x0 DUP8 DUP1 EXTCODESIZE ISZERO DUP1 ISZERO PUSH2 0x3C4 JUMPI PUSH1 0x0 DUP1 REVERT JUMPDEST POP GAS CALL ISZERO DUP1 ISZERO PUSH2 0x3D8 JUMPI RETURNDATASIZE PUSH1 0x0 DUP1 RETURNDATACOPY RETURNDATASIZE PUSH1 0x0 REVERT JUMPDEST POP POP POP POP DUP1 PUSH20 0xFFFFFFFFFFFFFFFFFFFFFFFFFFFFFFFFFFFFFFFF AND PUSH4 0x3B7AA8D9 DUP4 DUP12 DUP12 PUSH1 0x40 MLOAD DUP5 PUSH4 0xFFFFFFFF AND PUSH1 0xE0 SHL DUP2 MSTORE PUSH1 0x4 ADD PUSH2 0x419 SWAP4 SWAP3 SWAP2 SWAP1 PUSH2 0x132A JUMP JUMPDEST PUSH1 0x0 PUSH1 0x40 MLOAD DUP1 DUP4 SUB DUP2 PUSH1 0x0 DUP8 DUP1 EXTCODESIZE ISZERO DUP1 ISZERO PUSH2 0x433 JUMPI PUSH1 0x0 DUP1 REVERT JUMPDEST POP GAS CALL ISZERO DUP1 ISZERO PUSH2 0x447 JUMPI RETURNDATASIZE PUSH1 0x0 DUP1 RETURNDATACOPY RETURNDATASIZE PUSH1 0x0 REVERT JUMPDEST POP POP POP POP PUSH1 0x0 PUSH32 0x0 PUSH20 0xFFFFFFFFFFFFFFFFFFFFFFFFFFFFFFFFFFFFFFFF AND PUSH4 0xEFC81A8C PUSH1 0x40 MLOAD DUP2 PUSH4 0xFFFFFFFF AND PUSH1 0xE0 SHL DUP2 MSTORE PUSH1 0x4 ADD PUSH1 0x20 PUSH1 0x40 MLOAD DUP1 DUP4 SUB DUP2 PUSH1 0x0 DUP8 GAS CALL ISZERO DUP1 ISZERO PUSH2 0x4BA JUMPI RETURNDATASIZE PUSH1 0x0 DUP1 RETURNDATACOPY RETURNDATASIZE PUSH1 0x0 REVERT JUMPDEST POP POP POP POP PUSH1 0x40 MLOAD RETURNDATASIZE PUSH1 0x1F NOT PUSH1 0x1F DUP3 ADD AND DUP3 ADD DUP1 PUSH1 0x40 MSTORE POP DUP2 ADD SWAP1 PUSH2 0x4DE SWAP2 SWAP1 PUSH2 0x92A JUMP JUMPDEST SWAP1 POP DUP1 PUSH20 0xFFFFFFFFFFFFFFFFFFFFFFFFFFFFFFFFFFFFFFFF AND PUSH4 0xB1149223 DUP13 PUSH32 0x0 DUP10 DUP13 DUP13 PUSH1 0x40 MLOAD DUP7 PUSH4 0xFFFFFFFF AND PUSH1 0xE0 SHL DUP2 MSTORE PUSH1 0x4 ADD PUSH2 0x541 SWAP6 SWAP5 SWAP4 SWAP3 SWAP2 SWAP1 PUSH2 0xDBF JUMP JUMPDEST PUSH1 0x0 PUSH1 0x40 MLOAD DUP1 DUP4 SUB DUP2 PUSH1 0x0 DUP8 DUP1 EXTCODESIZE ISZERO DUP1 ISZERO PUSH2 0x55B JUMPI PUSH1 0x0 DUP1 REVERT JUMPDEST POP GAS CALL ISZERO DUP1 ISZERO PUSH2 0x56F JUMPI RETURNDATASIZE PUSH1 0x0 DUP1 RETURNDATACOPY RETURNDATASIZE PUSH1 0x0 REVERT JUMPDEST POP POP POP POP DUP1 PUSH20 0xFFFFFFFFFFFFFFFFFFFFFFFFFFFFFFFFFFFFFFFF AND PUSH4 0xA50D81C7 CALLER PUSH1 0x40 MLOAD DUP3 PUSH4 0xFFFFFFFF AND PUSH1 0xE0 SHL DUP2 MSTORE PUSH1 0x4 ADD PUSH2 0x5AC SWAP2 SWAP1 PUSH2 0x667 JUMP JUMPDEST PUSH1 0x0 PUSH1 0x40 MLOAD DUP1 DUP4 SUB DUP2 PUSH1 0x0 DUP8 DUP1 EXTCODESIZE ISZERO DUP1 ISZERO PUSH2 0x5C6 JUMPI PUSH1 0x0 DUP1 REVERT JUMPDEST POP GAS CALL ISZERO DUP1 ISZERO PUSH2 0x5DA JUMPI RETURNDATASIZE PUSH1 0x0 DUP1 RETURNDATACOPY RETURNDATASIZE PUSH1 0x0 REVERT JUMPDEST POP POP POP POP PUSH32 0x62392641265FCC5A6A8128FD39634480FFE377E76DC54DCAD335E1289FCC0FD5 DUP2 PUSH1 0x40 MLOAD PUSH2 0x60D SWAP2 SWAP1 PUSH2 0x667 JUMP JUMPDEST PUSH1 0x40 MLOAD DUP1 SWAP2 SUB SWAP1 LOG1 DUP1 SWAP5 POP POP POP POP POP SWAP7 SWAP6 POP POP POP POP POP POP JUMP JUMPDEST PUSH1 0x0 PUSH20 0xFFFFFFFFFFFFFFFFFFFFFFFFFFFFFFFFFFFFFFFF DUP3 AND SWAP1 POP SWAP2 SWAP1 POP JUMP JUMPDEST PUSH1 0x0 PUSH2 0x651 DUP3 PUSH2 0x626 JUMP JUMPDEST SWAP1 POP SWAP2 SWAP1 POP JUMP JUMPDEST PUSH2 0x661 DUP2 PUSH2 0x646 JUMP JUMPDEST DUP3 MSTORE POP POP JUMP JUMPDEST PUSH1 0x0 PUSH1 0x20 DUP3 ADD SWAP1 POP PUSH2 0x67C PUSH1 0x0 DUP4 ADD DUP5 PUSH2 0x658 JUMP JUMPDEST SWAP3 SWAP2 POP POP JUMP JUMPDEST PUSH1 0x0 PUSH1 0x40 MLOAD SWAP1 POP SWAP1 JUMP JUMPDEST PUSH1 0x0 DUP1 REVERT JUMPDEST PUSH1 0x0 DUP1 REVERT JUMPDEST PUSH1 0x0 DUP1 REVERT JUMPDEST PUSH1 0x0 PUSH1 0x60 DUP3 DUP5 SUB SLT ISZERO PUSH2 0x6B1 JUMPI PUSH2 0x6B0 PUSH2 0x696 JUMP JUMPDEST JUMPDEST DUP2 SWAP1 POP SWAP3 SWAP2 POP POP JUMP JUMPDEST PUSH1 0x0 DUP1 REVERT JUMPDEST PUSH1 0x0 DUP1 REVERT JUMPDEST PUSH1 0x0 DUP1 REVERT JUMPDEST PUSH1 0x0 DUP1 DUP4 PUSH1 0x1F DUP5 ADD SLT PUSH2 0x6DF JUMPI PUSH2 0x6DE PUSH2 0x6BA JUMP JUMPDEST JUMPDEST DUP3 CALLDATALOAD SWAP1 POP PUSH8 0xFFFFFFFFFFFFFFFF DUP2 GT ISZERO PUSH2 0x6FC JUMPI PUSH2 0x6FB PUSH2 0x6BF JUMP JUMPDEST JUMPDEST PUSH1 0x20 DUP4 ADD SWAP2 POP DUP4 PUSH1 0x20 DUP3 MUL DUP4 ADD GT ISZERO PUSH2 0x718 JUMPI PUSH2 0x717 PUSH2 0x6C4 JUMP JUMPDEST JUMPDEST SWAP3 POP SWAP3 SWAP1 POP JUMP JUMPDEST PUSH1 0x0 DUP2 SWAP1 POP SWAP2 SWAP1 POP JUMP JUMPDEST PUSH2 0x732 DUP2 PUSH2 0x71F JUMP JUMPDEST DUP2 EQ PUSH2 0x73D JUMPI PUSH1 0x0 DUP1 REVERT JUMPDEST POP JUMP JUMPDEST PUSH1 0x0 DUP2 CALLDATALOAD SWAP1 POP PUSH2 0x74F DUP2 PUSH2 0x729 JUMP JUMPDEST SWAP3 SWAP2 POP POP JUMP JUMPDEST PUSH1 0x0 DUP1 PUSH1 0x0 DUP1 PUSH1 0x60 DUP6 DUP8 SUB SLT ISZERO PUSH2 0x76F JUMPI PUSH2 0x76E PUSH2 0x68C JUMP JUMPDEST JUMPDEST PUSH1 0x0 DUP6 ADD CALLDATALOAD PUSH8 0xFFFFFFFFFFFFFFFF DUP2 GT ISZERO PUSH2 0x78D JUMPI PUSH2 0x78C PUSH2 0x691 JUMP JUMPDEST JUMPDEST PUSH2 0x799 DUP8 DUP3 DUP9 ADD PUSH2 0x69B JUMP JUMPDEST SWAP5 POP POP PUSH1 0x20 DUP6 ADD CALLDATALOAD PUSH8 0xFFFFFFFFFFFFFFFF DUP2 GT ISZERO PUSH2 0x7BA JUMPI PUSH2 0x7B9 PUSH2 0x691 JUMP JUMPDEST JUMPDEST PUSH2 0x7C6 DUP8 DUP3 DUP9 ADD PUSH2 0x6C9 JUMP JUMPDEST SWAP4 POP SWAP4 POP POP PUSH1 0x40 PUSH2 0x7D9 DUP8 DUP3 DUP9 ADD PUSH2 0x740 JUMP JUMPDEST SWAP2 POP POP SWAP3 SWAP6 SWAP2 SWAP5 POP SWAP3 POP JUMP JUMPDEST PUSH1 0x0 DUP1 DUP4 PUSH1 0x1F DUP5 ADD SLT PUSH2 0x7FB JUMPI PUSH2 0x7FA PUSH2 0x6BA JUMP JUMPDEST JUMPDEST DUP3 CALLDATALOAD SWAP1 POP PUSH8 0xFFFFFFFFFFFFFFFF DUP2 GT ISZERO PUSH2 0x818 JUMPI PUSH2 0x817 PUSH2 0x6BF JUMP JUMPDEST JUMPDEST PUSH1 0x20 DUP4 ADD SWAP2 POP DUP4 PUSH1 0x1 DUP3 MUL DUP4 ADD GT ISZERO PUSH2 0x834 JUMPI PUSH2 0x833 PUSH2 0x6C4 JUMP JUMPDEST JUMPDEST SWAP3 POP SWAP3 SWAP1 POP JUMP JUMPDEST PUSH1 0x0 DUP1 PUSH1 0x0 DUP1 PUSH1 0x0 DUP1 PUSH1 0x80 DUP8 DUP10 SUB SLT ISZERO PUSH2 0x858 JUMPI PUSH2 0x857 PUSH2 0x68C JUMP JUMPDEST JUMPDEST PUSH1 0x0 DUP8 ADD CALLDATALOAD PUSH8 0xFFFFFFFFFFFFFFFF DUP2 GT ISZERO PUSH2 0x876 JUMPI PUSH2 0x875 PUSH2 0x691 JUMP JUMPDEST JUMPDEST PUSH2 0x882 DUP10 DUP3 DUP11 ADD PUSH2 0x69B JUMP JUMPDEST SWAP7 POP POP PUSH1 0x20 DUP8 ADD CALLDATALOAD PUSH8 0xFFFFFFFFFFFFFFFF DUP2 GT ISZERO PUSH2 0x8A3 JUMPI PUSH2 0x8A2 PUSH2 0x691 JUMP JUMPDEST JUMPDEST PUSH2 0x8AF DUP10 DUP3 DUP11 ADD PUSH2 0x7E5 JUMP JUMPDEST SWAP6 POP SWAP6 POP POP PUSH1 0x40 DUP8 ADD CALLDATALOAD PUSH8 0xFFFFFFFFFFFFFFFF DUP2 GT ISZERO PUSH2 0x8D2 JUMPI PUSH2 0x8D1 PUSH2 0x691 JUMP JUMPDEST JUMPDEST PUSH2 0x8DE DUP10 DUP3 DUP11 ADD PUSH2 0x6C9 JUMP JUMPDEST SWAP4 POP SWAP4 POP POP PUSH1 0x60 PUSH2 0x8F1 DUP10 DUP3 DUP11 ADD PUSH2 0x740 JUMP JUMPDEST SWAP2 POP POP SWAP3 SWAP6 POP SWAP3 SWAP6 POP SWAP3 SWAP6 JUMP JUMPDEST PUSH2 0x907 DUP2 PUSH2 0x646 JUMP JUMPDEST DUP2 EQ PUSH2 0x912 JUMPI PUSH1 0x0 DUP1 REVERT JUMPDEST POP JUMP JUMPDEST PUSH1 0x0 DUP2 MLOAD SWAP1 POP PUSH2 0x924 DUP2 PUSH2 0x8FE JUMP JUMPDEST SWAP3 SWAP2 POP POP JUMP JUMPDEST PUSH1 0x0 PUSH1 0x20 DUP3 DUP5 SUB SLT ISZERO PUSH2 0x940 JUMPI PUSH2 0x93F PUSH2 0x68C JUMP JUMPDEST JUMPDEST PUSH1 0x0 PUSH2 0x94E DUP5 DUP3 DUP6 ADD PUSH2 0x915 JUMP JUMPDEST SWAP2 POP POP SWAP3 SWAP2 POP POP JUMP JUMPDEST PUSH1 0x0 DUP1 REVERT JUMPDEST PUSH1 0x0 DUP1 REVERT JUMPDEST PUSH1 0x0 DUP1 REVERT JUMPDEST PUSH1 0x0 DUP1 DUP4 CALLDATALOAD PUSH1 0x1 PUSH1 0x20 SUB DUP5 CALLDATASIZE SUB SUB DUP2 SLT PUSH2 0x983 JUMPI PUSH2 0x982 PUSH2 0x961 JUMP JUMPDEST JUMPDEST DUP4 DUP2 ADD SWAP3 POP DUP3 CALLDATALOAD SWAP2 POP PUSH1 0x20 DUP4 ADD SWAP3 POP PUSH8 0xFFFFFFFFFFFFFFFF DUP3 GT ISZERO PUSH2 0x9AB JUMPI PUSH2 0x9AA PUSH2 0x957 JUMP JUMPDEST JUMPDEST PUSH1 0x1 DUP3 MUL CALLDATASIZE SUB DUP4 SGT ISZERO PUSH2 0x9C1 JUMPI PUSH2 0x9C0 PUSH2 0x95C JUMP JUMPDEST JUMPDEST POP SWAP3 POP SWAP3 SWAP1 POP JUMP JUMPDEST PUSH1 0x0 DUP3 DUP3 MSTORE PUSH1 0x20 DUP3 ADD SWAP1 POP SWAP3 SWAP2 POP POP JUMP JUMPDEST DUP3 DUP2 DUP4 CALLDATACOPY PUSH1 0x0 DUP4 DUP4 ADD MSTORE POP POP POP JUMP JUMPDEST PUSH1 0x0 PUSH1 0x1F NOT PUSH1 0x1F DUP4 ADD AND SWAP1 POP SWAP2 SWAP1 POP JUMP JUMPDEST PUSH1 0x0 PUSH2 0xA06 DUP4 DUP6 PUSH2 0x9C9 JUMP JUMPDEST SWAP4 POP PUSH2 0xA13 DUP4 DUP6 DUP5 PUSH2 0x9DA JUMP JUMPDEST PUSH2 0xA1C DUP4 PUSH2 0x9E9 JUMP JUMPDEST DUP5 ADD SWAP1 POP SWAP4 SWAP3 POP POP POP JUMP JUMPDEST PUSH1 0x0 PUSH1 0x60 DUP4 ADD PUSH2 0xA3A PUSH1 0x0 DUP5 ADD DUP5 PUSH2 0x966 JUMP JUMPDEST DUP6 DUP4 SUB PUSH1 0x0 DUP8 ADD MSTORE PUSH2 0xA4D DUP4 DUP3 DUP5 PUSH2 0x9FA JUMP JUMPDEST SWAP3 POP POP POP PUSH2 0xA5E PUSH1 0x20 DUP5 ADD DUP5 PUSH2 0x966 JUMP JUMPDEST DUP6 DUP4 SUB PUSH1 0x20 DUP8 ADD MSTORE PUSH2 0xA71 DUP4 DUP3 DUP5 PUSH2 0x9FA JUMP JUMPDEST SWAP3 POP POP POP PUSH2 0xA82 PUSH1 0x40 DUP5 ADD DUP5 PUSH2 0x966 JUMP JUMPDEST DUP6 DUP4 SUB PUSH1 0x40 DUP8 ADD MSTORE PUSH2 0xA95 DUP4 DUP3 DUP5 PUSH2 0x9FA JUMP JUMPDEST SWAP3 POP POP POP DUP1 SWAP2 POP POP SWAP3 SWAP2 POP POP JUMP JUMPDEST PUSH2 0xAAC DUP2 PUSH2 0x71F JUMP JUMPDEST DUP3 MSTORE POP POP JUMP JUMPDEST PUSH1 0x0 DUP3 DUP3 MSTORE PUSH1 0x20 DUP3 ADD SWAP1 POP SWAP3 SWAP2 POP POP JUMP JUMPDEST PUSH1 0x0 DUP2 SWAP1 POP SWAP2 SWAP1 POP JUMP JUMPDEST PUSH1 0x0 DUP2 CALLDATALOAD SWAP1 POP PUSH2 0xADC DUP2 PUSH2 0x8FE JUMP JUMPDEST SWAP3 SWAP2 POP POP JUMP JUMPDEST PUSH1 0x0 PUSH2 0xAF1 PUSH1 0x20 DUP5 ADD DUP5 PUSH2 0xACD JUMP JUMPDEST SWAP1 POP SWAP3 SWAP2 POP POP JUMP JUMPDEST PUSH2 0xB02 DUP2 PUSH2 0x646 JUMP JUMPDEST DUP3 MSTORE POP POP JUMP JUMPDEST PUSH1 0x0 DUP1 DUP4 CALLDATALOAD PUSH1 0x1 PUSH1 0x20 SUB DUP5 CALLDATASIZE SUB SUB DUP2 SLT PUSH2 0xB25 JUMPI PUSH2 0xB24 PUSH2 0x961 JUMP JUMPDEST JUMPDEST DUP4 DUP2 ADD SWAP3 POP DUP3 CALLDATALOAD SWAP2 POP PUSH1 0x20 DUP4 ADD SWAP3 POP PUSH8 0xFFFFFFFFFFFFFFFF DUP3 GT ISZERO PUSH2 0xB4D JUMPI PUSH2 0xB4C PUSH2 0x957 JUMP JUMPDEST JUMPDEST PUSH1 0x1 DUP3 MUL CALLDATASIZE SUB DUP4 SGT ISZERO PUSH2 0xB63 JUMPI PUSH2 0xB62 PUSH2 0x95C JUMP JUMPDEST JUMPDEST POP SWAP3 POP SWAP3 SWAP1 POP JUMP JUMPDEST PUSH1 0x0 DUP3 DUP3 MSTORE PUSH1 0x20 DUP3 ADD SWAP1 POP SWAP3 SWAP2 POP POP JUMP JUMPDEST PUSH1 0x0 PUSH2 0xB88 DUP4 DUP6 PUSH2 0xB6B JUMP JUMPDEST SWAP4 POP PUSH2 0xB95 DUP4 DUP6 DUP5 PUSH2 0x9DA JUMP JUMPDEST PUSH2 0xB9E DUP4 PUSH2 0x9E9 JUMP JUMPDEST DUP5 ADD SWAP1 POP SWAP4 SWAP3 POP POP POP JUMP JUMPDEST PUSH1 0x0 PUSH1 0xFF DUP3 AND SWAP1 POP SWAP2 SWAP1 POP JUMP JUMPDEST PUSH2 0xBBF DUP2 PUSH2 0xBA9 JUMP JUMPDEST DUP2 EQ PUSH2 0xBCA JUMPI PUSH1 0x0 DUP1 REVERT JUMPDEST POP JUMP JUMPDEST PUSH1 0x0 DUP2 CALLDATALOAD SWAP1 POP PUSH2 0xBDC DUP2 PUSH2 0xBB6 JUMP JUMPDEST SWAP3 SWAP2 POP POP JUMP JUMPDEST PUSH1 0x0 PUSH2 0xBF1 PUSH1 0x20 DUP5 ADD DUP5 PUSH2 0xBCD JUMP JUMPDEST SWAP1 POP SWAP3 SWAP2 POP POP JUMP JUMPDEST PUSH2 0xC02 DUP2 PUSH2 0xBA9 JUMP JUMPDEST DUP3 MSTORE POP POP JUMP JUMPDEST PUSH1 0x0 PUSH1 0xE0 DUP4 ADD PUSH2 0xC1B PUSH1 0x0 DUP5 ADD DUP5 PUSH2 0x966 JUMP JUMPDEST DUP6 DUP4 SUB PUSH1 0x0 DUP8 ADD MSTORE PUSH2 0xC2E DUP4 DUP3 DUP5 PUSH2 0x9FA JUMP JUMPDEST SWAP3 POP POP POP PUSH2 0xC3F PUSH1 0x20 DUP5 ADD DUP5 PUSH2 0xAE2 JUMP JUMPDEST PUSH2 0xC4C PUSH1 0x20 DUP7 ADD DUP3 PUSH2 0xAF9 JUMP JUMPDEST POP PUSH2 0xC5A PUSH1 0x40 DUP5 ADD DUP5 PUSH2 0xB08 JUMP JUMPDEST DUP6 DUP4 SUB PUSH1 0x40 DUP8 ADD MSTORE PUSH2 0xC6D DUP4 DUP3 DUP5 PUSH2 0xB7C JUMP JUMPDEST SWAP3 POP POP POP PUSH2 0xC7E PUSH1 0x60 DUP5 ADD DUP5 PUSH2 0xBE2 JUMP JUMPDEST PUSH2 0xC8B PUSH1 0x60 DUP7 ADD DUP3 PUSH2 0xBF9 JUMP JUMPDEST POP PUSH2 0xC99 PUSH1 0x80 DUP5 ADD DUP5 PUSH2 0xB08 JUMP JUMPDEST DUP6 DUP4 SUB PUSH1 0x80 DUP8 ADD MSTORE PUSH2 0xCAC DUP4 DUP3 DUP5 PUSH2 0xB7C JUMP JUMPDEST SWAP3 POP POP POP PUSH2 0xCBD PUSH1 0xA0 DUP5 ADD DUP5 PUSH2 0xB08 JUMP JUMPDEST DUP6 DUP4 SUB PUSH1 0xA0 DUP8 ADD MSTORE PUSH2 0xCD0 DUP4 DUP3 DUP5 PUSH2 0xB7C JUMP JUMPDEST SWAP3 POP POP POP PUSH2 0xCE1 PUSH1 0xC0 DUP5 ADD DUP5 PUSH2 0xB08 JUMP JUMPDEST DUP6 DUP4 SUB PUSH1 0xC0 DUP8 ADD MSTORE PUSH2 0xCF4 DUP4 DUP3 DUP5 PUSH2 0xB7C JUMP JUMPDEST SWAP3 POP POP POP DUP1 SWAP2 POP POP SWAP3 SWAP2 POP POP JUMP JUMPDEST PUSH1 0x0 PUSH2 0xD0E DUP4 DUP4 PUSH2 0xC08 JUMP JUMPDEST SWAP1 POP SWAP3 SWAP2 POP POP JUMP JUMPDEST PUSH1 0x0 DUP3 CALLDATALOAD PUSH1 0x1 PUSH1 0xE0 SUB DUP4 CALLDATASIZE SUB SUB DUP2 SLT PUSH2 0xD32 JUMPI PUSH2 0xD31 PUSH2 0x961 JUMP JUMPDEST JUMPDEST DUP3 DUP2 ADD SWAP2 POP POP SWAP3 SWAP2 POP POP JUMP JUMPDEST PUSH1 0x0 PUSH1 0x20 DUP3 ADD SWAP1 POP SWAP2 SWAP1 POP JUMP JUMPDEST PUSH1 0x0 PUSH2 0xD57 DUP4 DUP6 PUSH2 0xAB2 JUMP JUMPDEST SWAP4 POP DUP4 PUSH1 0x20 DUP5 MUL DUP6 ADD PUSH2 0xD69 DUP5 PUSH2 0xAC3 JUMP JUMPDEST DUP1 PUSH1 0x0 JUMPDEST DUP8 DUP2 LT ISZERO PUSH2 0xDAD JUMPI DUP5 DUP5 SUB DUP10 MSTORE PUSH2 0xD84 DUP3 DUP5 PUSH2 0xD16 JUMP JUMPDEST PUSH2 0xD8E DUP6 DUP3 PUSH2 0xD02 JUMP JUMPDEST SWAP5 POP PUSH2 0xD99 DUP4 PUSH2 0xD3E JUMP JUMPDEST SWAP3 POP PUSH1 0x20 DUP11 ADD SWAP10 POP POP PUSH1 0x1 DUP2 ADD SWAP1 POP PUSH2 0xD6D JUMP JUMPDEST POP DUP3 SWAP8 POP DUP8 SWAP5 POP POP POP POP POP SWAP4 SWAP3 POP POP POP JUMP JUMPDEST PUSH1 0x0 PUSH1 0x80 DUP3 ADD SWAP1 POP DUP2 DUP2 SUB PUSH1 0x0 DUP4 ADD MSTORE PUSH2 0xDD9 DUP2 DUP9 PUSH2 0xA27 JUMP JUMPDEST SWAP1 POP PUSH2 0xDE8 PUSH1 0x20 DUP4 ADD DUP8 PUSH2 0x658 JUMP JUMPDEST PUSH2 0xDF5 PUSH1 0x40 DUP4 ADD DUP7 PUSH2 0xAA3 JUMP JUMPDEST DUP2 DUP2 SUB PUSH1 0x60 DUP4 ADD MSTORE PUSH2 0xE08 DUP2 DUP5 DUP7 PUSH2 0xD4B JUMP JUMPDEST SWAP1 POP SWAP7 SWAP6 POP POP POP POP POP POP JUMP JUMPDEST PUSH32 0x4E487B7100000000000000000000000000000000000000000000000000000000 PUSH1 0x0 MSTORE PUSH1 0x11 PUSH1 0x4 MSTORE PUSH1 0x24 PUSH1 0x0 REVERT JUMPDEST PUSH1 0x0 PUSH2 0xE4E DUP3 PUSH2 0x71F JUMP JUMPDEST SWAP2 POP PUSH2 0xE59 DUP4 PUSH2 0x71F JUMP JUMPDEST SWAP3 POP DUP3 DUP3 SUB SWAP1 POP DUP2 DUP2 GT ISZERO PUSH2 0xE71 JUMPI PUSH2 0xE70 PUSH2 0xE14 JUMP JUMPDEST JUMPDEST SWAP3 SWAP2 POP POP JUMP JUMPDEST PUSH32 0x4E487B7100000000000000000000000000000000000000000000000000000000 PUSH1 0x0 MSTORE PUSH1 0x32 PUSH1 0x4 MSTORE PUSH1 0x24 PUSH1 0x0 REVERT JUMPDEST PUSH1 0x0 DUP1 REVERT JUMPDEST PUSH1 0x0 DUP3 CALLDATALOAD PUSH1 0x1 PUSH1 0xE0 SUB DUP4 CALLDATASIZE SUB SUB DUP2 SLT PUSH2 0xEC7 JUMPI PUSH2 0xEC6 PUSH2 0xEA6 JUMP JUMPDEST JUMPDEST DUP1 DUP4 ADD SWAP2 POP POP SWAP3 SWAP2 POP POP JUMP JUMPDEST PUSH1 0x0 DUP1 REVERT JUMPDEST PUSH32 0x4E487B7100000000000000000000000000000000000000000000000000000000 PUSH1 0x0 MSTORE PUSH1 0x41 PUSH1 0x4 MSTORE PUSH1 0x24 PUSH1 0x0 REVERT JUMPDEST PUSH2 0xF10 DUP3 PUSH2 0x9E9 JUMP JUMPDEST DUP2 ADD DUP2 DUP2 LT PUSH8 0xFFFFFFFFFFFFFFFF DUP3 GT OR ISZERO PUSH2 0xF2F JUMPI PUSH2 0xF2E PUSH2 0xED8 JUMP JUMPDEST JUMPDEST DUP1 PUSH1 0x40 MSTORE POP POP POP JUMP JUMPDEST PUSH1 0x0 PUSH2 0xF42 PUSH2 0x682 JUMP JUMPDEST SWAP1 POP PUSH2 0xF4E DUP3 DUP3 PUSH2 0xF07 JUMP JUMPDEST SWAP2 SWAP1 POP JUMP JUMPDEST PUSH1 0x0 DUP1 REVERT JUMPDEST PUSH1 0x0 DUP1 REVERT JUMPDEST PUSH1 0x0 PUSH8 0xFFFFFFFFFFFFFFFF DUP3 GT ISZERO PUSH2 0xF78 JUMPI PUSH2 0xF77 PUSH2 0xED8 JUMP JUMPDEST JUMPDEST PUSH2 0xF81 DUP3 PUSH2 0x9E9 JUMP JUMPDEST SWAP1 POP PUSH1 0x20 DUP2 ADD SWAP1 POP SWAP2 SWAP1 POP JUMP JUMPDEST PUSH1 0x0 PUSH2 0xFA1 PUSH2 0xF9C DUP5 PUSH2 0xF5D JUMP JUMPDEST PUSH2 0xF38 JUMP JUMPDEST SWAP1 POP DUP3 DUP2 MSTORE PUSH1 0x20 DUP2 ADD DUP5 DUP5 DUP5 ADD GT ISZERO PUSH2 0xFBD JUMPI PUSH2 0xFBC PUSH2 0xF58 JUMP JUMPDEST JUMPDEST PUSH2 0xFC8 DUP5 DUP3 DUP6 PUSH2 0x9DA JUMP JUMPDEST POP SWAP4 SWAP3 POP POP POP JUMP JUMPDEST PUSH1 0x0 DUP3 PUSH1 0x1F DUP4 ADD SLT PUSH2 0xFE5 JUMPI PUSH2 0xFE4 PUSH2 0x6BA JUMP JUMPDEST JUMPDEST DUP2 CALLDATALOAD PUSH2 0xFF5 DUP5 DUP3 PUSH1 0x20 DUP7 ADD PUSH2 0xF8E JUMP JUMPDEST SWAP2 POP POP SWAP3 SWAP2 POP POP JUMP JUMPDEST PUSH1 0x0 PUSH8 0xFFFFFFFFFFFFFFFF DUP3 GT ISZERO PUSH2 0x1019 JUMPI PUSH2 0x1018 PUSH2 0xED8 JUMP JUMPDEST JUMPDEST PUSH2 0x1022 DUP3 PUSH2 0x9E9 JUMP JUMPDEST SWAP1 POP PUSH1 0x20 DUP2 ADD SWAP1 POP SWAP2 SWAP1 POP JUMP JUMPDEST PUSH1 0x0 PUSH2 0x1042 PUSH2 0x103D DUP5 PUSH2 0xFFE JUMP JUMPDEST PUSH2 0xF38 JUMP JUMPDEST SWAP1 POP DUP3 DUP2 MSTORE PUSH1 0x20 DUP2 ADD DUP5 DUP5 DUP5 ADD GT ISZERO PUSH2 0x105E JUMPI PUSH2 0x105D PUSH2 0xF58 JUMP JUMPDEST JUMPDEST PUSH2 0x1069 DUP5 DUP3 DUP6 PUSH2 0x9DA JUMP JUMPDEST POP SWAP4 SWAP3 POP POP POP JUMP JUMPDEST PUSH1 0x0 DUP3 PUSH1 0x1F DUP4 ADD SLT PUSH2 0x1086 JUMPI PUSH2 0x1085 PUSH2 0x6BA JUMP JUMPDEST JUMPDEST DUP2 CALLDATALOAD PUSH2 0x1096 DUP5 DUP3 PUSH1 0x20 DUP7 ADD PUSH2 0x102F JUMP JUMPDEST SWAP2 POP POP SWAP3 SWAP2 POP POP JUMP JUMPDEST PUSH1 0x0 PUSH1 0xE0 DUP3 DUP5 SUB SLT ISZERO PUSH2 0x10B5 JUMPI PUSH2 0x10B4 PUSH2 0xED3 JUMP JUMPDEST JUMPDEST PUSH2 0x10BF PUSH1 0xE0 PUSH2 0xF38 JUMP JUMPDEST SWAP1 POP PUSH1 0x0 DUP3 ADD CALLDATALOAD PUSH8 0xFFFFFFFFFFFFFFFF DUP2 GT ISZERO PUSH2 0x10DF JUMPI PUSH2 0x10DE PUSH2 0xF53 JUMP JUMPDEST JUMPDEST PUSH2 0x10EB DUP5 DUP3 DUP6 ADD PUSH2 0xFD0 JUMP JUMPDEST PUSH1 0x0 DUP4 ADD MSTORE POP PUSH1 0x20 PUSH2 0x10FF DUP5 DUP3 DUP6 ADD PUSH2 0xACD JUMP JUMPDEST PUSH1 0x20 DUP4 ADD MSTORE POP PUSH1 0x40 DUP3 ADD CALLDATALOAD PUSH8 0xFFFFFFFFFFFFFFFF DUP2 GT ISZERO PUSH2 0x1123 JUMPI PUSH2 0x1122 PUSH2 0xF53 JUMP JUMPDEST JUMPDEST PUSH2 0x112F DUP5 DUP3 DUP6 ADD PUSH2 0x1071 JUMP JUMPDEST PUSH1 0x40 DUP4 ADD MSTORE POP PUSH1 0x60 PUSH2 0x1143 DUP5 DUP3 DUP6 ADD PUSH2 0xBCD JUMP JUMPDEST PUSH1 0x60 DUP4 ADD MSTORE POP PUSH1 0x80 DUP3 ADD CALLDATALOAD PUSH8 0xFFFFFFFFFFFFFFFF DUP2 GT ISZERO PUSH2 0x1167 JUMPI PUSH2 0x1166 PUSH2 0xF53 JUMP JUMPDEST JUMPDEST PUSH2 0x1173 DUP5 DUP3 DUP6 ADD PUSH2 0x1071 JUMP JUMPDEST PUSH1 0x80 DUP4 ADD MSTORE POP PUSH1 0xA0 DUP3 ADD CALLDATALOAD PUSH8 0xFFFFFFFFFFFFFFFF DUP2 GT ISZERO PUSH2 0x1197 JUMPI PUSH2 0x1196 PUSH2 0xF53 JUMP JUMPDEST JUMPDEST PUSH2 0x11A3 DUP5 DUP3 DUP6 ADD PUSH2 0x1071 JUMP JUMPDEST PUSH1 0xA0 DUP4 ADD MSTORE POP PUSH1 0xC0 DUP3 ADD CALLDATALOAD PUSH8 0xFFFFFFFFFFFFFFFF DUP2 GT ISZERO PUSH2 0x11C7 JUMPI PUSH2 0x11C6 PUSH2 0xF53 JUMP JUMPDEST JUMPDEST PUSH2 0x11D3 DUP5 DUP3 DUP6 ADD PUSH2 0x1071 JUMP JUMPDEST PUSH1 0xC0 DUP4 ADD MSTORE POP SWAP3 SWAP2 POP POP JUMP JUMPDEST PUSH1 0x0 PUSH2 0x11EB CALLDATASIZE DUP4 PUSH2 0x109F JUMP JUMPDEST SWAP1 POP SWAP2 SWAP1 POP JUMP JUMPDEST PUSH1 0x0 DUP2 MLOAD SWAP1 POP SWAP2 SWAP1 POP JUMP JUMPDEST PUSH1 0x0 DUP3 DUP3 MSTORE PUSH1 0x20 DUP3 ADD SWAP1 POP SWAP3 SWAP2 POP POP JUMP JUMPDEST PUSH1 0x0 JUMPDEST DUP4 DUP2 LT ISZERO PUSH2 0x122C JUMPI DUP1 DUP3 ADD MLOAD DUP2 DUP5 ADD MSTORE PUSH1 0x20 DUP2 ADD SWAP1 POP PUSH2 0x1211 JUMP JUMPDEST PUSH1 0x0 DUP5 DUP5 ADD MSTORE POP POP POP POP JUMP JUMPDEST PUSH1 0x0 PUSH2 0x1243 DUP3 PUSH2 0x11F2 JUMP JUMPDEST PUSH2 0x124D DUP2 DUP6 PUSH2 0x11FD JUMP JUMPDEST SWAP4 POP PUSH2 0x125D DUP2 DUP6 PUSH1 0x20 DUP7 ADD PUSH2 0x120E JUMP JUMPDEST PUSH2 0x1266 DUP2 PUSH2 0x9E9 JUMP JUMPDEST DUP5 ADD SWAP2 POP POP SWAP3 SWAP2 POP POP JUMP JUMPDEST PUSH1 0x0 DUP2 MLOAD SWAP1 POP SWAP2 SWAP1 POP JUMP JUMPDEST PUSH1 0x0 DUP3 DUP3 MSTORE PUSH1 0x20 DUP3 ADD SWAP1 POP SWAP3 SWAP2 POP POP JUMP JUMPDEST PUSH1 0x0 PUSH2 0x1298 DUP3 PUSH2 0x1271 JUMP JUMPDEST PUSH2 0x12A2 DUP2 DUP6 PUSH2 0x127C JUMP JUMPDEST SWAP4 POP PUSH2 0x12B2 DUP2 DUP6 PUSH1 0x20 DUP7 ADD PUSH2 0x120E JUMP JUMPDEST PUSH2 0x12BB DUP2 PUSH2 0x9E9 JUMP JUMPDEST DUP5 ADD SWAP2 POP POP SWAP3 SWAP2 POP POP JUMP JUMPDEST PUSH1 0x0 PUSH1 0x40 DUP3 ADD SWAP1 POP DUP2 DUP2 SUB PUSH1 0x0 DUP4 ADD MSTORE PUSH2 0x12E0 DUP2 DUP6 PUSH2 0x1238 JUMP JUMPDEST SWAP1 POP DUP2 DUP2 SUB PUSH1 0x20 DUP4 ADD MSTORE PUSH2 0x12F4 DUP2 DUP5 PUSH2 0x128D JUMP JUMPDEST SWAP1 POP SWAP4 SWAP3 POP POP POP JUMP JUMPDEST PUSH1 0x0 PUSH2 0x1309 DUP4 DUP6 PUSH2 0x127C JUMP JUMPDEST SWAP4 POP PUSH2 0x1316 DUP4 DUP6 DUP5 PUSH2 0x9DA JUMP JUMPDEST PUSH2 0x131F DUP4 PUSH2 0x9E9 JUMP JUMPDEST DUP5 ADD SWAP1 POP SWAP4 SWAP3 POP POP POP JUMP JUMPDEST PUSH1 0x0 PUSH1 0x40 DUP3 ADD SWAP1 POP DUP2 DUP2 SUB PUSH1 0x0 DUP4 ADD MSTORE PUSH2 0x1344 DUP2 DUP7 PUSH2 0x1238 JUMP JUMPDEST SWAP1 POP DUP2 DUP2 SUB PUSH1 0x20 DUP4 ADD MSTORE PUSH2 0x1359 DUP2 DUP5 DUP7 PUSH2 0x12FD JUMP JUMPDEST SWAP1 POP SWAP5 SWAP4 POP POP POP POP JUMP INVALID LOG2 PUSH5 0x6970667358 0x22 SLT KECCAK256 0xE8 SWAP1 0xDA 0xA8 0xBB 0xE0 0xE8 0xF9 EQ REVERT 0x21 0xEF CALLER 0xBB SWAP9 0xCE 0xFC PUSH27 0x26869298C620E69A393E901CDC5764736F6C634300081100330000 "},"methodIdentifiers":{"createFrame((string,string,string),(string,address,bytes,uint8,bytes,bytes,bytes)[],uint256)":"b46cb102","createFrameWithScript((string,string,string),bytes,(string,address,bytes,uint8,bytes,bytes,bytes)[],uint256)":"fd3ee5df","frameFactory()":"954bf4d1","scriptyBuilder()":"91a0d36d"}}}}}