{"src/contracts/ScriptyStorageFactory.sol":{"ScriptyStorageFactory":{"abi":[{"inputs":[{"internalType":"address","name":"_scriptyStorageLib","type":"address"},{"internalType":"address","name":"_contentStoreFactory","type":"address"}],"stateMutability":"nonpayable","type":"constructor"},{"anonymous":false,"inputs":[{"indexed":false,"internalType":"address","name":"newAddress","type":"address"}],"name":"ScriptyStorageFactoryCreated","type":"event"},{"inputs":[],"name":"contentStoreFactoryAddress","outputs":[{"internalType":"address","name":"","type":"address"}],"stateMutability":"view","type":"function"},{"inputs":[],"name":"create","outputs":[{"internalType":"address","name":"","type":"address"}],"stateMutability":"nonpayable","type":"function"},{"inputs":[],"name":"scriptyStorageLibraryAddress","outputs":[{"internalType":"address","name":"","type":"address"}],"stateMutability":"view","type":"function"}],"evm":{"bytecode":{"linkReferences":{},"object":"60c060405234801561001057600080fd5b5060405161052338038061052383398181016040528101906100329190610104565b8173ffffffffffffffffffffffffffffffffffffffff1660808173ffffffffffffffffffffffffffffffffffffffff16815250508073ffffffffffffffffffffffffffffffffffffffff1660a08173ffffffffffffffffffffffffffffffffffffffff16815250505050610144565b600080fd5b600073ffffffffffffffffffffffffffffffffffffffff82169050919050565b60006100d1826100a6565b9050919050565b6100e1816100c6565b81146100ec57600080fd5b50565b6000815190506100fe816100d8565b92915050565b6000806040838503121561011b5761011a6100a1565b5b6000610129858286016100ef565b925050602061013a858286016100ef565b9150509250929050565b60805160a0516103af6101746000396000818160a2015260ed01526000818160c6015261018501526103af6000f3fe608060405234801561001057600080fd5b50600436106100415760003560e01c8063191296fb14610046578063953c62c514610064578063efc81a8c14610082575b600080fd5b61004e6100a0565b60405161005b9190610300565b60405180910390f35b61006c6100c4565b6040516100799190610300565b60405180910390f35b61008a6100e8565b6040516100979190610300565b60405180910390f35b7f000000000000000000000000000000000000000000000000000000000000000081565b7f000000000000000000000000000000000000000000000000000000000000000081565b6000807f000000000000000000000000000000000000000000000000000000000000000073ffffffffffffffffffffffffffffffffffffffff1663efc81a8c6040518163ffffffff1660e01b81526004016020604051808303816000875af1158015610158573d6000803e3d6000fd5b505050506040513d601f19601f8201168201806040525081019061017c919061034c565b905060006101a97f0000000000000000000000000000000000000000000000000000000000000000610255565b90508073ffffffffffffffffffffffffffffffffffffffff1663ff0c484e836040518263ffffffff1660e01b81526004016101e49190610300565b600060405180830381600087803b1580156101fe57600080fd5b505af1158015610212573d6000803e3d6000fd5b505050507f726c7e7605dee45f62f32495efd3a3a1f64f7545d7fd52ac3c7a8a3b46283e7e816040516102459190610300565b60405180910390a1809250505090565b6000808260601b90506040517f3d602d80600a3d3981f3363d3d373d3d3d363d7300000000000000000000000081528160148201527f5af43d82803e903d91602b57fd5bf3000000000000000000000000000000000060288201526037816000f092505050919050565b600073ffffffffffffffffffffffffffffffffffffffff82169050919050565b60006102ea826102bf565b9050919050565b6102fa816102df565b82525050565b600060208201905061031560008301846102f1565b92915050565b600080fd5b610329816102df565b811461033457600080fd5b50565b60008151905061034681610320565b92915050565b6000602082840312156103625761036161031b565b5b600061037084828501610337565b9150509291505056fea2646970667358221220bc96fd7d2ceca8f1bbacd0488a87bc331851493d4652e8aa12ae0469c70f31fa64736f6c63430008110033","opcodes":"PUSH1 0xC0 PUSH1 0x40 MSTORE CALLVALUE DUP1 ISZERO PUSH2 0x10 JUMPI PUSH1 0x0 DUP1 REVERT JUMPDEST POP PUSH1 0x40 MLOAD PUSH2 0x523 CODESIZE SUB DUP1 PUSH2 0x523 DUP4 CODECOPY DUP2 DUP2 ADD PUSH1 0x40 MSTORE DUP2 ADD SWAP1 PUSH2 0x32 SWAP2 SWAP1 PUSH2 0x104 JUMP JUMPDEST DUP2 PUSH20 0xFFFFFFFFFFFFFFFFFFFFFFFFFFFFFFFFFFFFFFFF AND PUSH1 0x80 DUP2 PUSH20 0xFFFFFFFFFFFFFFFFFFFFFFFFFFFFFFFFFFFFFFFF AND DUP2 MSTORE POP POP DUP1 PUSH20 0xFFFFFFFFFFFFFFFFFFFFFFFFFFFFFFFFFFFFFFFF AND PUSH1 0xA0 DUP2 PUSH20 0xFFFFFFFFFFFFFFFFFFFFFFFFFFFFFFFFFFFFFFFF AND DUP2 MSTORE POP POP POP POP PUSH2 0x144 JUMP JUMPDEST PUSH1 0x0 DUP1 REVERT JUMPDEST PUSH1 0x0 PUSH20 0xFFFFFFFFFFFFFFFFFFFFFFFFFFFFFFFFFFFFFFFF DUP3 AND SWAP1 POP SWAP2 SWAP1 POP JUMP JUMPDEST PUSH1 0x0 PUSH2 0xD1 DUP3 PUSH2 0xA6 JUMP JUMPDEST SWAP1 POP SWAP2 SWAP1 POP JUMP JUMPDEST PUSH2 0xE1 DUP2 PUSH2 0xC6 JUMP JUMPDEST DUP2 EQ PUSH2 0xEC JUMPI PUSH1 0x0 DUP1 REVERT JUMPDEST POP JUMP JUMPDEST PUSH1 0x0 DUP2 MLOAD SWAP1 POP PUSH2 0xFE DUP2 PUSH2 0xD8 JUMP JUMPDEST SWAP3 SWAP2 POP POP JUMP JUMPDEST PUSH1 0x0 DUP1 PUSH1 0x40 DUP4 DUP6 SUB SLT ISZERO PUSH2 0x11B JUMPI PUSH2 0x11A PUSH2 0xA1 JUMP JUMPDEST JUMPDEST PUSH1 0x0 PUSH2 0x129 DUP6 DUP3 DUP7 ADD PUSH2 0xEF JUMP JUMPDEST SWAP3 POP POP PUSH1 0x20 PUSH2 0x13A DUP6 DUP3 DUP7 ADD PUSH2 0xEF JUMP JUMPDEST SWAP2 POP POP SWAP3 POP SWAP3 SWAP1 POP JUMP JUMPDEST PUSH1 0x80 MLOAD PUSH1 0xA0 MLOAD PUSH2 0x3AF PUSH2 0x174 PUSH1 0x0 CODECOPY PUSH1 0x0 DUP2 DUP2 PUSH1 0xA2 ADD MSTORE PUSH1 0xED ADD MSTORE PUSH1 0x0 DUP2 DUP2 PUSH1 0xC6 ADD MSTORE PUSH2 0x185 ADD MSTORE PUSH2 0x3AF PUSH1 0x0 RETURN INVALID PUSH1 0x80 PUSH1 0x40 MSTORE CALLVALUE DUP1 ISZERO PUSH2 0x10 JUMPI PUSH1 0x0 DUP1 REVERT JUMPDEST POP PUSH1 0x4 CALLDATASIZE LT PUSH2 0x41 JUMPI PUSH1 0x0 CALLDATALOAD PUSH1 0xE0 SHR DUP1 PUSH4 0x191296FB EQ PUSH2 0x46 JUMPI DUP1 PUSH4 0x953C62C5 EQ PUSH2 0x64 JUMPI DUP1 PUSH4 0xEFC81A8C EQ PUSH2 0x82 JUMPI JUMPDEST PUSH1 0x0 DUP1 REVERT JUMPDEST PUSH2 0x4E PUSH2 0xA0 JUMP JUMPDEST PUSH1 0x40 MLOAD PUSH2 0x5B SWAP2 SWAP1 PUSH2 0x300 JUMP JUMPDEST PUSH1 0x40 MLOAD DUP1 SWAP2 SUB SWAP1 RETURN JUMPDEST PUSH2 0x6C PUSH2 0xC4 JUMP JUMPDEST PUSH1 0x40 MLOAD PUSH2 0x79 SWAP2 SWAP1 PUSH2 0x300 JUMP JUMPDEST PUSH1 0x40 MLOAD DUP1 SWAP2 SUB SWAP1 RETURN JUMPDEST PUSH2 0x8A PUSH2 0xE8 JUMP JUMPDEST PUSH1 0x40 MLOAD PUSH2 0x97 SWAP2 SWAP1 PUSH2 0x300 JUMP JUMPDEST PUSH1 0x40 MLOAD DUP1 SWAP2 SUB SWAP1 RETURN JUMPDEST PUSH32 0x0 DUP2 JUMP JUMPDEST PUSH32 0x0 DUP2 JUMP JUMPDEST PUSH1 0x0 DUP1 PUSH32 0x0 PUSH20 0xFFFFFFFFFFFFFFFFFFFFFFFFFFFFFFFFFFFFFFFF AND PUSH4 0xEFC81A8C PUSH1 0x40 MLOAD DUP2 PUSH4 0xFFFFFFFF AND PUSH1 0xE0 SHL DUP2 MSTORE PUSH1 0x4 ADD PUSH1 0x20 PUSH1 0x40 MLOAD DUP1 DUP4 SUB DUP2 PUSH1 0x0 DUP8 GAS CALL ISZERO DUP1 ISZERO PUSH2 0x158 JUMPI RETURNDATASIZE PUSH1 0x0 DUP1 RETURNDATACOPY RETURNDATASIZE PUSH1 0x0 REVERT JUMPDEST POP POP POP POP PUSH1 0x40 MLOAD RETURNDATASIZE PUSH1 0x1F NOT PUSH1 0x1F DUP3 ADD AND DUP3 ADD DUP1 PUSH1 0x40 MSTORE POP DUP2 ADD SWAP1 PUSH2 0x17C SWAP2 SWAP1 PUSH2 0x34C JUMP JUMPDEST SWAP1 POP PUSH1 0x0 PUSH2 0x1A9 PUSH32 0x0 PUSH2 0x255 JUMP JUMPDEST SWAP1 POP DUP1 PUSH20 0xFFFFFFFFFFFFFFFFFFFFFFFFFFFFFFFFFFFFFFFF AND PUSH4 0xFF0C484E DUP4 PUSH1 0x40 MLOAD DUP3 PUSH4 0xFFFFFFFF AND PUSH1 0xE0 SHL DUP2 MSTORE PUSH1 0x4 ADD PUSH2 0x1E4 SWAP2 SWAP1 PUSH2 0x300 JUMP JUMPDEST PUSH1 0x0 PUSH1 0x40 MLOAD DUP1 DUP4 SUB DUP2 PUSH1 0x0 DUP8 DUP1 EXTCODESIZE ISZERO DUP1 ISZERO PUSH2 0x1FE JUMPI PUSH1 0x0 DUP1 REVERT JUMPDEST POP GAS CALL ISZERO DUP1 ISZERO PUSH2 0x212 JUMPI RETURNDATASIZE PUSH1 0x0 DUP1 RETURNDATACOPY RETURNDATASIZE PUSH1 0x0 REVERT JUMPDEST POP POP POP POP PUSH32 0x726C7E7605DEE45F62F32495EFD3A3A1F64F7545D7FD52AC3C7A8A3B46283E7E DUP2 PUSH1 0x40 MLOAD PUSH2 0x245 SWAP2 SWAP1 PUSH2 0x300 JUMP JUMPDEST PUSH1 0x40 MLOAD DUP1 SWAP2 SUB SWAP1 LOG1 DUP1 SWAP3 POP POP POP SWAP1 JUMP JUMPDEST PUSH1 0x0 DUP1 DUP3 PUSH1 0x60 SHL SWAP1 POP PUSH1 0x40 MLOAD PUSH32 0x3D602D80600A3D3981F3363D3D373D3D3D363D73000000000000000000000000 DUP2 MSTORE DUP2 PUSH1 0x14 DUP3 ADD MSTORE PUSH32 0x5AF43D82803E903D91602B57FD5BF30000000000000000000000000000000000 PUSH1 0x28 DUP3 ADD MSTORE PUSH1 0x37 DUP2 PUSH1 0x0 CREATE SWAP3 POP POP POP SWAP2 SWAP1 POP JUMP JUMPDEST PUSH1 0x0 PUSH20 0xFFFFFFFFFFFFFFFFFFFFFFFFFFFFFFFFFFFFFFFF DUP3 AND SWAP1 POP SWAP2 SWAP1 POP JUMP JUMPDEST PUSH1 0x0 PUSH2 0x2EA DUP3 PUSH2 0x2BF JUMP JUMPDEST SWAP1 POP SWAP2 SWAP1 POP JUMP JUMPDEST PUSH2 0x2FA DUP2 PUSH2 0x2DF JUMP JUMPDEST DUP3 MSTORE POP POP JUMP JUMPDEST PUSH1 0x0 PUSH1 0x20 DUP3 ADD SWAP1 POP PUSH2 0x315 PUSH1 0x0 DUP4 ADD DUP5 PUSH2 0x2F1 JUMP JUMPDEST SWAP3 SWAP2 POP POP JUMP JUMPDEST PUSH1 0x0 DUP1 REVERT JUMPDEST PUSH2 0x329 DUP2 PUSH2 0x2DF JUMP JUMPDEST DUP2 EQ PUSH2 0x334 JUMPI PUSH1 0x0 DUP1 REVERT JUMPDEST POP JUMP JUMPDEST PUSH1 0x0 DUP2 MLOAD SWAP1 POP PUSH2 0x346 DUP2 PUSH2 0x320 JUMP JUMPDEST SWAP3 SWAP2 POP POP JUMP JUMPDEST PUSH1 0x0 PUSH1 0x20 DUP3 DUP5 SUB SLT ISZERO PUSH2 0x362 JUMPI PUSH2 0x361 PUSH2 0x31B JUMP JUMPDEST JUMPDEST PUSH1 0x0 PUSH2 0x370 DUP5 DUP3 DUP6 ADD PUSH2 0x337 JUMP JUMPDEST SWAP2 POP POP SWAP3 SWAP2 POP POP JUMP INVALID LOG2 PUSH5 0x6970667358 0x22 SLT KECCAK256 0xBC SWAP7 REVERT PUSH30 0x2CECA8F1BBACD0488A87BC331851493D4652E8AA12AE0469C70F31FA6473 PUSH16 0x6C634300081100330000000000000000 "},"methodIdentifiers":{"contentStoreFactoryAddress()":"191296fb","create()":"efc81a8c","scriptyStorageLibraryAddress()":"953c62c5"}}}}}