{
  "src/contracts/FrameFactory.sol": {
    "FrameFactory": {
      "abi": [
        {
          "inputs": [],
          "stateMutability": "nonpayable",
          "type": "constructor"
        },
        {
          "anonymous": false,
          "inputs": [
            {
              "indexed": false,
              "internalType": "address",
              "name": "newAddress",
              "type": "address"
            }
          ],
          "name": "FrameCreated",
          "type": "event"
        },
        {
          "inputs": [
            {
              "internalType": "address",
              "name": "_coreDepStorage",
              "type": "address"
            },
            {
              "internalType": "contract IFrameDataStoreFactory",
              "name": "_frameDataStoreFactory",
              "type": "address"
            },
            {
              "internalType": "string[2][][2]",
              "name": "_depsAndAssets",
              "type": "string[2][][2]"
            },
            {
              "internalType": "bytes[]",
              "name": "_assetsData",
              "type": "bytes[]"
            },
            {
              "internalType": "uint256[4][]",
              "name": "_renderIndex",
              "type": "uint256[4][]"
            },
            {
              "internalType": "string",
              "name": "_name",
              "type": "string"
            }
          ],
          "name": "createFrameWithSource",
          "outputs": [
            {
              "internalType": "address",
              "name": "",
              "type": "address"
            }
          ],
          "stateMutability": "nonpayable",
          "type": "function"
        },
        {
          "inputs": [],
          "name": "libraryAddress",
          "outputs": [
            {
              "internalType": "address",
              "name": "",
              "type": "address"
            }
          ],
          "stateMutability": "view",
          "type": "function"
        },
        {
          "inputs": [
            {
              "internalType": "address",
              "name": "_libraryAddress",
              "type": "address"
            }
          ],
          "name": "setLibraryAddress",
          "outputs": [],
          "stateMutability": "nonpayable",
          "type": "function"
        }
      ],
      "evm": {
        "bytecode": {
          "linkReferences": {},
          "object": "608060405234801561001057600080fd5b506112ae806100206000396000f3fe608060405234801561001057600080fd5b50600436106100415760003560e01c80634863ba1714610046578063b816f51314610062578063d3a758f314610080575b600080fd5b610060600480360381019061005b919061063b565b6100b0565b005b61006a610182565b6040516100779190610677565b60405180910390f35b61009a60048036038101906100959190610803565b6101a6565b6040516100a79190610677565b60405180910390f35b600073ffffffffffffffffffffffffffffffffffffffff1660008054906101000a900473ffffffffffffffffffffffffffffffffffffffff1673ffffffffffffffffffffffffffffffffffffffff161461013f576040517f08c379a000000000000000000000000000000000000000000000000000000000815260040161013690610991565b60405180910390fd5b806000806101000a81548173ffffffffffffffffffffffffffffffffffffffff021916908373ffffffffffffffffffffffffffffffffffffffff16021790555050565b60008054906101000a900473ffffffffffffffffffffffffffffffffffffffff1681565b6000806101d260008054906101000a900473ffffffffffffffffffffffffffffffffffffffff16610569565b905060008a73ffffffffffffffffffffffffffffffffffffffff1663bdbbea528686604051602001610205929190610a3c565b6040516020818303038152906040526040518263ffffffff1660e01b81526004016102309190610b47565b6020604051808303816000875af115801561024f573d6000803e3d6000fd5b505050506040513d601f19601f820116820180604052508101906102739190610b91565b90508173ffffffffffffffffffffffffffffffffffffffff16634f5ea5cc8d838d6000600281106102a7576102a6610bbe565b5b6020028101906102b79190610bfc565b8f6001600281106102cb576102ca610bbe565b5b6020028101906102db9190610bfc565b8e8e6040518963ffffffff1660e01b8152600401610300989796959493929190610f61565b600060405180830381600087803b15801561031a57600080fd5b505af115801561032e573d6000803e3d6000fd5b505050508173ffffffffffffffffffffffffffffffffffffffff1663c47f002786866040518363ffffffff1660e01b815260040161036d929190610ffc565b600060405180830381600087803b15801561038757600080fd5b505af115801561039b573d6000803e3d6000fd5b5050505060005b898990508110156104bf578173ffffffffffffffffffffffffffffffffffffffff16636af42a8c8c6001600281106103dd576103dc610bbe565b5b6020028101906103ed9190610bfc565b848181106103fe576103fd610bbe565b5b90506020028101906104109190611020565b60016002811061042357610422610bbe565b5b6020028101906104339190611048565b60008e8e8781811061044857610447610bbe565b5b905060200281019061045a91906110ab565b6040518663ffffffff1660e01b815260040161047a9594939291906111ad565b600060405180830381600087803b15801561049457600080fd5b505af11580156104a8573d6000803e3d6000fd5b5050505080806104b79061122f565b9150506103a2565b508073ffffffffffffffffffffffffffffffffffffffff1663f83d08ba6040518163ffffffff1660e01b8152600401600060405180830381600087803b15801561050857600080fd5b505af115801561051c573d6000803e3d6000fd5b505050507f62392641265fcc5a6a8128fd39634480ffe377e76dc54dcad335e1289fcc0fd58260405161054f9190610677565b60405180910390a181925050509998505050505050505050565b6000808260601b90506040517f3d602d80600a3d3981f3363d3d373d3d3d363d7300000000000000000000000081528160148201527f5af43d82803e903d91602b57fd5bf3000000000000000000000000000000000060288201526037816000f092505050919050565b600080fd5b600080fd5b600073ffffffffffffffffffffffffffffffffffffffff82169050919050565b6000610608826105dd565b9050919050565b610618816105fd565b811461062357600080fd5b50565b6000813590506106358161060f565b92915050565b600060208284031215610651576106506105d3565b5b600061065f84828501610626565b91505092915050565b610671816105fd565b82525050565b600060208201905061068c6000830184610668565b92915050565b600061069d826105fd565b9050919050565b6106ad81610692565b81146106b857600080fd5b50565b6000813590506106ca816106a4565b92915050565b600080fd5b6000819050826020600202820111156106f1576106f06106d0565b5b92915050565b600080fd5b600080fd5b60008083601f840112610717576107166106f7565b5b8235905067ffffffffffffffff811115610734576107336106fc565b5b6020830191508360208202830111156107505761074f6106d0565b5b9250929050565b60008083601f84011261076d5761076c6106f7565b5b8235905067ffffffffffffffff81111561078a576107896106fc565b5b6020830191508360808202830111156107a6576107a56106d0565b5b9250929050565b60008083601f8401126107c3576107c26106f7565b5b8235905067ffffffffffffffff8111156107e0576107df6106fc565b5b6020830191508360018202830111156107fc576107fb6106d0565b5b9250929050565b600080600080600080600080600060c08a8c031215610825576108246105d3565b5b60006108338c828d01610626565b99505060206108448c828d016106bb565b98505060408a013567ffffffffffffffff811115610865576108646105d8565b5b6108718c828d016106d5565b97505060608a013567ffffffffffffffff811115610892576108916105d8565b5b61089e8c828d01610701565b965096505060808a013567ffffffffffffffff8111156108c1576108c06105d8565b5b6108cd8c828d01610757565b945094505060a08a013567ffffffffffffffff8111156108f0576108ef6105d8565b5b6108fc8c828d016107ad565b92509250509295985092959850929598565b600082825260208201905092915050565b7f4672616d65466163746f72793a204c69627261727920616c726561647920736560008201527f7400000000000000000000000000000000000000000000000000000000000000602082015250565b600061097b60218361090e565b91506109868261091f565b604082019050919050565b600060208201905081810360008301526109aa8161096e565b9050919050565b600081905092915050565b82818337600083830152505050565b60006109d783856109b1565b93506109e48385846109bc565b82840190509392505050565b7f2000000000000000000000000000000000000000000000000000000000000000815250565b7f536f757263650000000000000000000000000000000000000000000000000000815250565b6000610a498284866109cb565b9150610a54826109f0565b600182019150610a6382610a16565b6006820191508190509392505050565b600081519050919050565b60005b83811015610a9c578082015181840152602081019050610a81565b83811115610aab576000848401525b50505050565b6000601f19601f8301169050919050565b6000610acd82610a73565b610ad7818561090e565b9350610ae7818560208601610a7e565b610af081610ab1565b840191505092915050565b7f312e302e30000000000000000000000000000000000000000000000000000000600082015250565b6000610b3160058361090e565b9150610b3c82610afb565b602082019050919050565b60006040820190508181036000830152610b618184610ac2565b90508181036020830152610b7481610b24565b905092915050565b600081519050610b8b8161060f565b92915050565b600060208284031215610ba757610ba66105d3565b5b6000610bb584828501610b7c565b91505092915050565b7f4e487b7100000000000000000000000000000000000000000000000000000000600052603260045260246000fd5b600080fd5b600080fd5b600080fd5b60008083356001602003843603038112610c1957610c18610bed565b5b80840192508235915067ffffffffffffffff821115610c3b57610c3a610bf2565b5b602083019250602082023603831315610c5757610c56610bf7565b5b509250929050565b600082825260208201905092915050565b6000819050919050565b600060029050919050565b600081905092915050565b6000819050919050565b600082825260208201905092915050565b6000610cb78385610c9a565b9350610cc48385846109bc565b610ccd83610ab1565b840190509392505050565b6000610ce5848484610cab565b90509392505050565b600080fd5b600080fd5b600080fd5b60008083356001602003843603038112610d1a57610d19610cf8565b5b83810192508235915060208301925067ffffffffffffffff821115610d4257610d41610cee565b5b600182023603841315610d5857610d57610cf3565b5b509250929050565b6000602082019050919050565b6000610d7882610c7a565b610d828185610c85565b935083602082028501610d9485610c90565b8060005b85811015610dda578484038952610daf8284610cfd565b610dba868284610cd8565b9550610dc584610d60565b935060208b019a505050600181019050610d98565b50829750879550505050505092915050565b6000610df88383610d6d565b905092915050565b600082356001604003833603038112610e1c57610e1b610cf8565b5b82810191505092915050565b6000602082019050919050565b6000610e418385610c5f565b935083602084028501610e5384610c70565b8060005b87811015610e97578484038952610e6e8284610e00565b610e788582610dec565b9450610e8383610e28565b925060208a01995050600181019050610e57565b50829750879450505050509392505050565b600082825260208201905092915050565b6000819050919050565b610ed0608083836109bc565b5050565b6000610ee08383610ec4565b60808301905092915050565b600082905092915050565b6000608082019050919050565b6000610f108385610ea9565b9350610f1b82610eba565b8060005b85811015610f5457610f318284610eec565b610f3b8882610ed4565b9750610f4683610ef7565b925050600181019050610f1f565b5085925050509392505050565b600060a082019050610f76600083018b610668565b610f83602083018a610668565b8181036040830152610f9681888a610e35565b90508181036060830152610fab818688610e35565b90508181036080830152610fc0818486610f04565b90509998505050505050505050565b6000610fdb838561090e565b9350610fe88385846109bc565b610ff183610ab1565b840190509392505050565b60006020820190508181036000830152611017818486610fcf565b90509392505050565b60008235600160400383360303811261103c5761103b610bed565b5b80830191505092915050565b6000808335600160200384360303811261106557611064610bed565b5b80840192508235915067ffffffffffffffff82111561108757611086610bf2565b5b6020830192506001820236038313156110a3576110a2610bf7565b5b509250929050565b600080833560016020038436030381126110c8576110c7610bed565b5b80840192508235915067ffffffffffffffff8211156110ea576110e9610bf2565b5b60208301925060018202360383131561110657611105610bf7565b5b509250929050565b6000819050919050565b60006fffffffffffffffffffffffffffffffff82169050919050565b6000819050919050565b600061115961115461114f8461110e565b611134565b611118565b9050919050565b6111698161113e565b82525050565b600082825260208201905092915050565b600061118c838561116f565b93506111998385846109bc565b6111a283610ab1565b840190509392505050565b600060608201905081810360008301526111c8818789610fcf565b90506111d76020830186611160565b81810360408301526111ea818486611180565b90509695505050505050565b7f4e487b7100000000000000000000000000000000000000000000000000000000600052601160045260246000fd5b6000819050919050565b600061123a82611225565b91507fffffffffffffffffffffffffffffffffffffffffffffffffffffffffffffffff82141561126d5761126c6111f6565b5b60018201905091905056fea26469706673582212204a1855623f02df4a3d9863c7039f1a249532105ac8bb42131cfa59fe8d35866064736f6c634300080c0033",
          "opcodes": "PUSH1 0x80 PUSH1 0x40 MSTORE CALLVALUE DUP1 ISZERO PUSH2 0x10 JUMPI PUSH1 0x0 DUP1 REVERT JUMPDEST POP PUSH2 0x12AE DUP1 PUSH2 0x20 PUSH1 0x0 CODECOPY PUSH1 0x0 RETURN INVALID PUSH1 0x80 PUSH1 0x40 MSTORE CALLVALUE DUP1 ISZERO PUSH2 0x10 JUMPI PUSH1 0x0 DUP1 REVERT JUMPDEST POP PUSH1 0x4 CALLDATASIZE LT PUSH2 0x41 JUMPI PUSH1 0x0 CALLDATALOAD PUSH1 0xE0 SHR DUP1 PUSH4 0x4863BA17 EQ PUSH2 0x46 JUMPI DUP1 PUSH4 0xB816F513 EQ PUSH2 0x62 JUMPI DUP1 PUSH4 0xD3A758F3 EQ PUSH2 0x80 JUMPI JUMPDEST PUSH1 0x0 DUP1 REVERT JUMPDEST PUSH2 0x60 PUSH1 0x4 DUP1 CALLDATASIZE SUB DUP2 ADD SWAP1 PUSH2 0x5B SWAP2 SWAP1 PUSH2 0x63B JUMP JUMPDEST PUSH2 0xB0 JUMP JUMPDEST STOP JUMPDEST PUSH2 0x6A PUSH2 0x182 JUMP JUMPDEST PUSH1 0x40 MLOAD PUSH2 0x77 SWAP2 SWAP1 PUSH2 0x677 JUMP JUMPDEST PUSH1 0x40 MLOAD DUP1 SWAP2 SUB SWAP1 RETURN JUMPDEST PUSH2 0x9A PUSH1 0x4 DUP1 CALLDATASIZE SUB DUP2 ADD SWAP1 PUSH2 0x95 SWAP2 SWAP1 PUSH2 0x803 JUMP JUMPDEST PUSH2 0x1A6 JUMP JUMPDEST PUSH1 0x40 MLOAD PUSH2 0xA7 SWAP2 SWAP1 PUSH2 0x677 JUMP JUMPDEST PUSH1 0x40 MLOAD DUP1 SWAP2 SUB SWAP1 RETURN JUMPDEST PUSH1 0x0 PUSH20 0xFFFFFFFFFFFFFFFFFFFFFFFFFFFFFFFFFFFFFFFF AND PUSH1 0x0 DUP1 SLOAD SWAP1 PUSH2 0x100 EXP SWAP1 DIV PUSH20 0xFFFFFFFFFFFFFFFFFFFFFFFFFFFFFFFFFFFFFFFF AND PUSH20 0xFFFFFFFFFFFFFFFFFFFFFFFFFFFFFFFFFFFFFFFF AND EQ PUSH2 0x13F JUMPI PUSH1 0x40 MLOAD PUSH32 0x8C379A000000000000000000000000000000000000000000000000000000000 DUP2 MSTORE PUSH1 0x4 ADD PUSH2 0x136 SWAP1 PUSH2 0x991 JUMP JUMPDEST PUSH1 0x40 MLOAD DUP1 SWAP2 SUB SWAP1 REVERT JUMPDEST DUP1 PUSH1 0x0 DUP1 PUSH2 0x100 EXP DUP2 SLOAD DUP2 PUSH20 0xFFFFFFFFFFFFFFFFFFFFFFFFFFFFFFFFFFFFFFFF MUL NOT AND SWAP1 DUP4 PUSH20 0xFFFFFFFFFFFFFFFFFFFFFFFFFFFFFFFFFFFFFFFF AND MUL OR SWAP1 SSTORE POP POP JUMP JUMPDEST PUSH1 0x0 DUP1 SLOAD SWAP1 PUSH2 0x100 EXP SWAP1 DIV PUSH20 0xFFFFFFFFFFFFFFFFFFFFFFFFFFFFFFFFFFFFFFFF AND DUP2 JUMP JUMPDEST PUSH1 0x0 DUP1 PUSH2 0x1D2 PUSH1 0x0 DUP1 SLOAD SWAP1 PUSH2 0x100 EXP SWAP1 DIV PUSH20 0xFFFFFFFFFFFFFFFFFFFFFFFFFFFFFFFFFFFFFFFF AND PUSH2 0x569 JUMP JUMPDEST SWAP1 POP PUSH1 0x0 DUP11 PUSH20 0xFFFFFFFFFFFFFFFFFFFFFFFFFFFFFFFFFFFFFFFF AND PUSH4 0xBDBBEA52 DUP7 DUP7 PUSH1 0x40 MLOAD PUSH1 0x20 ADD PUSH2 0x205 SWAP3 SWAP2 SWAP1 PUSH2 0xA3C JUMP JUMPDEST PUSH1 0x40 MLOAD PUSH1 0x20 DUP2 DUP4 SUB SUB DUP2 MSTORE SWAP1 PUSH1 0x40 MSTORE PUSH1 0x40 MLOAD DUP3 PUSH4 0xFFFFFFFF AND PUSH1 0xE0 SHL DUP2 MSTORE PUSH1 0x4 ADD PUSH2 0x230 SWAP2 SWAP1 PUSH2 0xB47 JUMP JUMPDEST PUSH1 0x20 PUSH1 0x40 MLOAD DUP1 DUP4 SUB DUP2 PUSH1 0x0 DUP8 GAS CALL ISZERO DUP1 ISZERO PUSH2 0x24F JUMPI RETURNDATASIZE PUSH1 0x0 DUP1 RETURNDATACOPY RETURNDATASIZE PUSH1 0x0 REVERT JUMPDEST POP POP POP POP PUSH1 0x40 MLOAD RETURNDATASIZE PUSH1 0x1F NOT PUSH1 0x1F DUP3 ADD AND DUP3 ADD DUP1 PUSH1 0x40 MSTORE POP DUP2 ADD SWAP1 PUSH2 0x273 SWAP2 SWAP1 PUSH2 0xB91 JUMP JUMPDEST SWAP1 POP DUP2 PUSH20 0xFFFFFFFFFFFFFFFFFFFFFFFFFFFFFFFFFFFFFFFF AND PUSH4 0x4F5EA5CC DUP14 DUP4 DUP14 PUSH1 0x0 PUSH1 0x2 DUP2 LT PUSH2 0x2A7 JUMPI PUSH2 0x2A6 PUSH2 0xBBE JUMP JUMPDEST JUMPDEST PUSH1 0x20 MUL DUP2 ADD SWAP1 PUSH2 0x2B7 SWAP2 SWAP1 PUSH2 0xBFC JUMP JUMPDEST DUP16 PUSH1 0x1 PUSH1 0x2 DUP2 LT PUSH2 0x2CB JUMPI PUSH2 0x2CA PUSH2 0xBBE JUMP JUMPDEST JUMPDEST PUSH1 0x20 MUL DUP2 ADD SWAP1 PUSH2 0x2DB SWAP2 SWAP1 PUSH2 0xBFC JUMP JUMPDEST DUP15 DUP15 PUSH1 0x40 MLOAD DUP10 PUSH4 0xFFFFFFFF AND PUSH1 0xE0 SHL DUP2 MSTORE PUSH1 0x4 ADD PUSH2 0x300 SWAP9 SWAP8 SWAP7 SWAP6 SWAP5 SWAP4 SWAP3 SWAP2 SWAP1 PUSH2 0xF61 JUMP JUMPDEST PUSH1 0x0 PUSH1 0x40 MLOAD DUP1 DUP4 SUB DUP2 PUSH1 0x0 DUP8 DUP1 EXTCODESIZE ISZERO DUP1 ISZERO PUSH2 0x31A JUMPI PUSH1 0x0 DUP1 REVERT JUMPDEST POP GAS CALL ISZERO DUP1 ISZERO PUSH2 0x32E JUMPI RETURNDATASIZE PUSH1 0x0 DUP1 RETURNDATACOPY RETURNDATASIZE PUSH1 0x0 REVERT JUMPDEST POP POP POP POP DUP2 PUSH20 0xFFFFFFFFFFFFFFFFFFFFFFFFFFFFFFFFFFFFFFFF AND PUSH4 0xC47F0027 DUP7 DUP7 PUSH1 0x40 MLOAD DUP4 PUSH4 0xFFFFFFFF AND PUSH1 0xE0 SHL DUP2 MSTORE PUSH1 0x4 ADD PUSH2 0x36D SWAP3 SWAP2 SWAP1 PUSH2 0xFFC JUMP JUMPDEST PUSH1 0x0 PUSH1 0x40 MLOAD DUP1 DUP4 SUB DUP2 PUSH1 0x0 DUP8 DUP1 EXTCODESIZE ISZERO DUP1 ISZERO PUSH2 0x387 JUMPI PUSH1 0x0 DUP1 REVERT JUMPDEST POP GAS CALL ISZERO DUP1 ISZERO PUSH2 0x39B JUMPI RETURNDATASIZE PUSH1 0x0 DUP1 RETURNDATACOPY RETURNDATASIZE PUSH1 0x0 REVERT JUMPDEST POP POP POP POP PUSH1 0x0 JUMPDEST DUP10 DUP10 SWAP1 POP DUP2 LT ISZERO PUSH2 0x4BF JUMPI DUP2 PUSH20 0xFFFFFFFFFFFFFFFFFFFFFFFFFFFFFFFFFFFFFFFF AND PUSH4 0x6AF42A8C DUP13 PUSH1 0x1 PUSH1 0x2 DUP2 LT PUSH2 0x3DD JUMPI PUSH2 0x3DC PUSH2 0xBBE JUMP JUMPDEST JUMPDEST PUSH1 0x20 MUL DUP2 ADD SWAP1 PUSH2 0x3ED SWAP2 SWAP1 PUSH2 0xBFC JUMP JUMPDEST DUP5 DUP2 DUP2 LT PUSH2 0x3FE JUMPI PUSH2 0x3FD PUSH2 0xBBE JUMP JUMPDEST JUMPDEST SWAP1 POP PUSH1 0x20 MUL DUP2 ADD SWAP1 PUSH2 0x410 SWAP2 SWAP1 PUSH2 0x1020 JUMP JUMPDEST PUSH1 0x1 PUSH1 0x2 DUP2 LT PUSH2 0x423 JUMPI PUSH2 0x422 PUSH2 0xBBE JUMP JUMPDEST JUMPDEST PUSH1 0x20 MUL DUP2 ADD SWAP1 PUSH2 0x433 SWAP2 SWAP1 PUSH2 0x1048 JUMP JUMPDEST PUSH1 0x0 DUP15 DUP15 DUP8 DUP2 DUP2 LT PUSH2 0x448 JUMPI PUSH2 0x447 PUSH2 0xBBE JUMP JUMPDEST JUMPDEST SWAP1 POP PUSH1 0x20 MUL DUP2 ADD SWAP1 PUSH2 0x45A SWAP2 SWAP1 PUSH2 0x10AB JUMP JUMPDEST PUSH1 0x40 MLOAD DUP7 PUSH4 0xFFFFFFFF AND PUSH1 0xE0 SHL DUP2 MSTORE PUSH1 0x4 ADD PUSH2 0x47A SWAP6 SWAP5 SWAP4 SWAP3 SWAP2 SWAP1 PUSH2 0x11AD JUMP JUMPDEST PUSH1 0x0 PUSH1 0x40 MLOAD DUP1 DUP4 SUB DUP2 PUSH1 0x0 DUP8 DUP1 EXTCODESIZE ISZERO DUP1 ISZERO PUSH2 0x494 JUMPI PUSH1 0x0 DUP1 REVERT JUMPDEST POP GAS CALL ISZERO DUP1 ISZERO PUSH2 0x4A8 JUMPI RETURNDATASIZE PUSH1 0x0 DUP1 RETURNDATACOPY RETURNDATASIZE PUSH1 0x0 REVERT JUMPDEST POP POP POP POP DUP1 DUP1 PUSH2 0x4B7 SWAP1 PUSH2 0x122F JUMP JUMPDEST SWAP2 POP POP PUSH2 0x3A2 JUMP JUMPDEST POP DUP1 PUSH20 0xFFFFFFFFFFFFFFFFFFFFFFFFFFFFFFFFFFFFFFFF AND PUSH4 0xF83D08BA PUSH1 0x40 MLOAD DUP2 PUSH4 0xFFFFFFFF AND PUSH1 0xE0 SHL DUP2 MSTORE PUSH1 0x4 ADD PUSH1 0x0 PUSH1 0x40 MLOAD DUP1 DUP4 SUB DUP2 PUSH1 0x0 DUP8 DUP1 EXTCODESIZE ISZERO DUP1 ISZERO PUSH2 0x508 JUMPI PUSH1 0x0 DUP1 REVERT JUMPDEST POP GAS CALL ISZERO DUP1 ISZERO PUSH2 0x51C JUMPI RETURNDATASIZE PUSH1 0x0 DUP1 RETURNDATACOPY RETURNDATASIZE PUSH1 0x0 REVERT JUMPDEST POP POP POP POP PUSH32 0x62392641265FCC5A6A8128FD39634480FFE377E76DC54DCAD335E1289FCC0FD5 DUP3 PUSH1 0x40 MLOAD PUSH2 0x54F SWAP2 SWAP1 PUSH2 0x677 JUMP JUMPDEST PUSH1 0x40 MLOAD DUP1 SWAP2 SUB SWAP1 LOG1 DUP2 SWAP3 POP POP POP SWAP10 SWAP9 POP POP POP POP POP POP POP POP POP JUMP JUMPDEST PUSH1 0x0 DUP1 DUP3 PUSH1 0x60 SHL SWAP1 POP PUSH1 0x40 MLOAD PUSH32 0x3D602D80600A3D3981F3363D3D373D3D3D363D73000000000000000000000000 DUP2 MSTORE DUP2 PUSH1 0x14 DUP3 ADD MSTORE PUSH32 0x5AF43D82803E903D91602B57FD5BF30000000000000000000000000000000000 PUSH1 0x28 DUP3 ADD MSTORE PUSH1 0x37 DUP2 PUSH1 0x0 CREATE SWAP3 POP POP POP SWAP2 SWAP1 POP JUMP JUMPDEST PUSH1 0x0 DUP1 REVERT JUMPDEST PUSH1 0x0 DUP1 REVERT JUMPDEST PUSH1 0x0 PUSH20 0xFFFFFFFFFFFFFFFFFFFFFFFFFFFFFFFFFFFFFFFF DUP3 AND SWAP1 POP SWAP2 SWAP1 POP JUMP JUMPDEST PUSH1 0x0 PUSH2 0x608 DUP3 PUSH2 0x5DD JUMP JUMPDEST SWAP1 POP SWAP2 SWAP1 POP JUMP JUMPDEST PUSH2 0x618 DUP2 PUSH2 0x5FD JUMP JUMPDEST DUP2 EQ PUSH2 0x623 JUMPI PUSH1 0x0 DUP1 REVERT JUMPDEST POP JUMP JUMPDEST PUSH1 0x0 DUP2 CALLDATALOAD SWAP1 POP PUSH2 0x635 DUP2 PUSH2 0x60F JUMP JUMPDEST SWAP3 SWAP2 POP POP JUMP JUMPDEST PUSH1 0x0 PUSH1 0x20 DUP3 DUP5 SUB SLT ISZERO PUSH2 0x651 JUMPI PUSH2 0x650 PUSH2 0x5D3 JUMP JUMPDEST JUMPDEST PUSH1 0x0 PUSH2 0x65F DUP5 DUP3 DUP6 ADD PUSH2 0x626 JUMP JUMPDEST SWAP2 POP POP SWAP3 SWAP2 POP POP JUMP JUMPDEST PUSH2 0x671 DUP2 PUSH2 0x5FD JUMP JUMPDEST DUP3 MSTORE POP POP JUMP JUMPDEST PUSH1 0x0 PUSH1 0x20 DUP3 ADD SWAP1 POP PUSH2 0x68C PUSH1 0x0 DUP4 ADD DUP5 PUSH2 0x668 JUMP JUMPDEST SWAP3 SWAP2 POP POP JUMP JUMPDEST PUSH1 0x0 PUSH2 0x69D DUP3 PUSH2 0x5FD JUMP JUMPDEST SWAP1 POP SWAP2 SWAP1 POP JUMP JUMPDEST PUSH2 0x6AD DUP2 PUSH2 0x692 JUMP JUMPDEST DUP2 EQ PUSH2 0x6B8 JUMPI PUSH1 0x0 DUP1 REVERT JUMPDEST POP JUMP JUMPDEST PUSH1 0x0 DUP2 CALLDATALOAD SWAP1 POP PUSH2 0x6CA DUP2 PUSH2 0x6A4 JUMP JUMPDEST SWAP3 SWAP2 POP POP JUMP JUMPDEST PUSH1 0x0 DUP1 REVERT JUMPDEST PUSH1 0x0 DUP2 SWAP1 POP DUP3 PUSH1 0x20 PUSH1 0x2 MUL DUP3 ADD GT ISZERO PUSH2 0x6F1 JUMPI PUSH2 0x6F0 PUSH2 0x6D0 JUMP JUMPDEST JUMPDEST SWAP3 SWAP2 POP POP JUMP JUMPDEST PUSH1 0x0 DUP1 REVERT JUMPDEST PUSH1 0x0 DUP1 REVERT JUMPDEST PUSH1 0x0 DUP1 DUP4 PUSH1 0x1F DUP5 ADD SLT PUSH2 0x717 JUMPI PUSH2 0x716 PUSH2 0x6F7 JUMP JUMPDEST JUMPDEST DUP3 CALLDATALOAD SWAP1 POP PUSH8 0xFFFFFFFFFFFFFFFF DUP2 GT ISZERO PUSH2 0x734 JUMPI PUSH2 0x733 PUSH2 0x6FC JUMP JUMPDEST JUMPDEST PUSH1 0x20 DUP4 ADD SWAP2 POP DUP4 PUSH1 0x20 DUP3 MUL DUP4 ADD GT ISZERO PUSH2 0x750 JUMPI PUSH2 0x74F PUSH2 0x6D0 JUMP JUMPDEST JUMPDEST SWAP3 POP SWAP3 SWAP1 POP JUMP JUMPDEST PUSH1 0x0 DUP1 DUP4 PUSH1 0x1F DUP5 ADD SLT PUSH2 0x76D JUMPI PUSH2 0x76C PUSH2 0x6F7 JUMP JUMPDEST JUMPDEST DUP3 CALLDATALOAD SWAP1 POP PUSH8 0xFFFFFFFFFFFFFFFF DUP2 GT ISZERO PUSH2 0x78A JUMPI PUSH2 0x789 PUSH2 0x6FC JUMP JUMPDEST JUMPDEST PUSH1 0x20 DUP4 ADD SWAP2 POP DUP4 PUSH1 0x80 DUP3 MUL DUP4 ADD GT ISZERO PUSH2 0x7A6 JUMPI PUSH2 0x7A5 PUSH2 0x6D0 JUMP JUMPDEST JUMPDEST SWAP3 POP SWAP3 SWAP1 POP JUMP JUMPDEST PUSH1 0x0 DUP1 DUP4 PUSH1 0x1F DUP5 ADD SLT PUSH2 0x7C3 JUMPI PUSH2 0x7C2 PUSH2 0x6F7 JUMP JUMPDEST JUMPDEST DUP3 CALLDATALOAD SWAP1 POP PUSH8 0xFFFFFFFFFFFFFFFF DUP2 GT ISZERO PUSH2 0x7E0 JUMPI PUSH2 0x7DF PUSH2 0x6FC JUMP JUMPDEST JUMPDEST PUSH1 0x20 DUP4 ADD SWAP2 POP DUP4 PUSH1 0x1 DUP3 MUL DUP4 ADD GT ISZERO PUSH2 0x7FC JUMPI PUSH2 0x7FB PUSH2 0x6D0 JUMP JUMPDEST JUMPDEST SWAP3 POP SWAP3 SWAP1 POP JUMP JUMPDEST PUSH1 0x0 DUP1 PUSH1 0x0 DUP1 PUSH1 0x0 DUP1 PUSH1 0x0 DUP1 PUSH1 0x0 PUSH1 0xC0 DUP11 DUP13 SUB SLT ISZERO PUSH2 0x825 JUMPI PUSH2 0x824 PUSH2 0x5D3 JUMP JUMPDEST JUMPDEST PUSH1 0x0 PUSH2 0x833 DUP13 DUP3 DUP14 ADD PUSH2 0x626 JUMP JUMPDEST SWAP10 POP POP PUSH1 0x20 PUSH2 0x844 DUP13 DUP3 DUP14 ADD PUSH2 0x6BB JUMP JUMPDEST SWAP9 POP POP PUSH1 0x40 DUP11 ADD CALLDATALOAD PUSH8 0xFFFFFFFFFFFFFFFF DUP2 GT ISZERO PUSH2 0x865 JUMPI PUSH2 0x864 PUSH2 0x5D8 JUMP JUMPDEST JUMPDEST PUSH2 0x871 DUP13 DUP3 DUP14 ADD PUSH2 0x6D5 JUMP JUMPDEST SWAP8 POP POP PUSH1 0x60 DUP11 ADD CALLDATALOAD PUSH8 0xFFFFFFFFFFFFFFFF DUP2 GT ISZERO PUSH2 0x892 JUMPI PUSH2 0x891 PUSH2 0x5D8 JUMP JUMPDEST JUMPDEST PUSH2 0x89E DUP13 DUP3 DUP14 ADD PUSH2 0x701 JUMP JUMPDEST SWAP7 POP SWAP7 POP POP PUSH1 0x80 DUP11 ADD CALLDATALOAD PUSH8 0xFFFFFFFFFFFFFFFF DUP2 GT ISZERO PUSH2 0x8C1 JUMPI PUSH2 0x8C0 PUSH2 0x5D8 JUMP JUMPDEST JUMPDEST PUSH2 0x8CD DUP13 DUP3 DUP14 ADD PUSH2 0x757 JUMP JUMPDEST SWAP5 POP SWAP5 POP POP PUSH1 0xA0 DUP11 ADD CALLDATALOAD PUSH8 0xFFFFFFFFFFFFFFFF DUP2 GT ISZERO PUSH2 0x8F0 JUMPI PUSH2 0x8EF PUSH2 0x5D8 JUMP JUMPDEST JUMPDEST PUSH2 0x8FC DUP13 DUP3 DUP14 ADD PUSH2 0x7AD JUMP JUMPDEST SWAP3 POP SWAP3 POP POP SWAP3 SWAP6 SWAP9 POP SWAP3 SWAP6 SWAP9 POP SWAP3 SWAP6 SWAP9 JUMP JUMPDEST PUSH1 0x0 DUP3 DUP3 MSTORE PUSH1 0x20 DUP3 ADD SWAP1 POP SWAP3 SWAP2 POP POP JUMP JUMPDEST PUSH32 0x4672616D65466163746F72793A204C69627261727920616C7265616479207365 PUSH1 0x0 DUP3 ADD MSTORE PUSH32 0x7400000000000000000000000000000000000000000000000000000000000000 PUSH1 0x20 DUP3 ADD MSTORE POP JUMP JUMPDEST PUSH1 0x0 PUSH2 0x97B PUSH1 0x21 DUP4 PUSH2 0x90E JUMP JUMPDEST SWAP2 POP PUSH2 0x986 DUP3 PUSH2 0x91F JUMP JUMPDEST PUSH1 0x40 DUP3 ADD SWAP1 POP SWAP2 SWAP1 POP JUMP JUMPDEST PUSH1 0x0 PUSH1 0x20 DUP3 ADD SWAP1 POP DUP2 DUP2 SUB PUSH1 0x0 DUP4 ADD MSTORE PUSH2 0x9AA DUP2 PUSH2 0x96E JUMP JUMPDEST SWAP1 POP SWAP2 SWAP1 POP JUMP JUMPDEST PUSH1 0x0 DUP2 SWAP1 POP SWAP3 SWAP2 POP POP JUMP JUMPDEST DUP3 DUP2 DUP4 CALLDATACOPY PUSH1 0x0 DUP4 DUP4 ADD MSTORE POP POP POP JUMP JUMPDEST PUSH1 0x0 PUSH2 0x9D7 DUP4 DUP6 PUSH2 0x9B1 JUMP JUMPDEST SWAP4 POP PUSH2 0x9E4 DUP4 DUP6 DUP5 PUSH2 0x9BC JUMP JUMPDEST DUP3 DUP5 ADD SWAP1 POP SWAP4 SWAP3 POP POP POP JUMP JUMPDEST PUSH32 0x2000000000000000000000000000000000000000000000000000000000000000 DUP2 MSTORE POP JUMP JUMPDEST PUSH32 0x536F757263650000000000000000000000000000000000000000000000000000 DUP2 MSTORE POP JUMP JUMPDEST PUSH1 0x0 PUSH2 0xA49 DUP3 DUP5 DUP7 PUSH2 0x9CB JUMP JUMPDEST SWAP2 POP PUSH2 0xA54 DUP3 PUSH2 0x9F0 JUMP JUMPDEST PUSH1 0x1 DUP3 ADD SWAP2 POP PUSH2 0xA63 DUP3 PUSH2 0xA16 JUMP JUMPDEST PUSH1 0x6 DUP3 ADD SWAP2 POP DUP2 SWAP1 POP SWAP4 SWAP3 POP POP POP JUMP JUMPDEST PUSH1 0x0 DUP2 MLOAD SWAP1 POP SWAP2 SWAP1 POP JUMP JUMPDEST PUSH1 0x0 JUMPDEST DUP4 DUP2 LT ISZERO PUSH2 0xA9C JUMPI DUP1 DUP3 ADD MLOAD DUP2 DUP5 ADD MSTORE PUSH1 0x20 DUP2 ADD SWAP1 POP PUSH2 0xA81 JUMP JUMPDEST DUP4 DUP2 GT ISZERO PUSH2 0xAAB JUMPI PUSH1 0x0 DUP5 DUP5 ADD MSTORE JUMPDEST POP POP POP POP JUMP JUMPDEST PUSH1 0x0 PUSH1 0x1F NOT PUSH1 0x1F DUP4 ADD AND SWAP1 POP SWAP2 SWAP1 POP JUMP JUMPDEST PUSH1 0x0 PUSH2 0xACD DUP3 PUSH2 0xA73 JUMP JUMPDEST PUSH2 0xAD7 DUP2 DUP6 PUSH2 0x90E JUMP JUMPDEST SWAP4 POP PUSH2 0xAE7 DUP2 DUP6 PUSH1 0x20 DUP7 ADD PUSH2 0xA7E JUMP JUMPDEST PUSH2 0xAF0 DUP2 PUSH2 0xAB1 JUMP JUMPDEST DUP5 ADD SWAP2 POP POP SWAP3 SWAP2 POP POP JUMP JUMPDEST PUSH32 0x312E302E30000000000000000000000000000000000000000000000000000000 PUSH1 0x0 DUP3 ADD MSTORE POP JUMP JUMPDEST PUSH1 0x0 PUSH2 0xB31 PUSH1 0x5 DUP4 PUSH2 0x90E JUMP JUMPDEST SWAP2 POP PUSH2 0xB3C DUP3 PUSH2 0xAFB JUMP JUMPDEST PUSH1 0x20 DUP3 ADD SWAP1 POP SWAP2 SWAP1 POP JUMP JUMPDEST PUSH1 0x0 PUSH1 0x40 DUP3 ADD SWAP1 POP DUP2 DUP2 SUB PUSH1 0x0 DUP4 ADD MSTORE PUSH2 0xB61 DUP2 DUP5 PUSH2 0xAC2 JUMP JUMPDEST SWAP1 POP DUP2 DUP2 SUB PUSH1 0x20 DUP4 ADD MSTORE PUSH2 0xB74 DUP2 PUSH2 0xB24 JUMP JUMPDEST SWAP1 POP SWAP3 SWAP2 POP POP JUMP JUMPDEST PUSH1 0x0 DUP2 MLOAD SWAP1 POP PUSH2 0xB8B DUP2 PUSH2 0x60F JUMP JUMPDEST SWAP3 SWAP2 POP POP JUMP JUMPDEST PUSH1 0x0 PUSH1 0x20 DUP3 DUP5 SUB SLT ISZERO PUSH2 0xBA7 JUMPI PUSH2 0xBA6 PUSH2 0x5D3 JUMP JUMPDEST JUMPDEST PUSH1 0x0 PUSH2 0xBB5 DUP5 DUP3 DUP6 ADD PUSH2 0xB7C JUMP JUMPDEST SWAP2 POP POP SWAP3 SWAP2 POP POP JUMP JUMPDEST PUSH32 0x4E487B7100000000000000000000000000000000000000000000000000000000 PUSH1 0x0 MSTORE PUSH1 0x32 PUSH1 0x4 MSTORE PUSH1 0x24 PUSH1 0x0 REVERT JUMPDEST PUSH1 0x0 DUP1 REVERT JUMPDEST PUSH1 0x0 DUP1 REVERT JUMPDEST PUSH1 0x0 DUP1 REVERT JUMPDEST PUSH1 0x0 DUP1 DUP4 CALLDATALOAD PUSH1 0x1 PUSH1 0x20 SUB DUP5 CALLDATASIZE SUB SUB DUP2 SLT PUSH2 0xC19 JUMPI PUSH2 0xC18 PUSH2 0xBED JUMP JUMPDEST JUMPDEST DUP1 DUP5 ADD SWAP3 POP DUP3 CALLDATALOAD SWAP2 POP PUSH8 0xFFFFFFFFFFFFFFFF DUP3 GT ISZERO PUSH2 0xC3B JUMPI PUSH2 0xC3A PUSH2 0xBF2 JUMP JUMPDEST JUMPDEST PUSH1 0x20 DUP4 ADD SWAP3 POP PUSH1 0x20 DUP3 MUL CALLDATASIZE SUB DUP4 SGT ISZERO PUSH2 0xC57 JUMPI PUSH2 0xC56 PUSH2 0xBF7 JUMP JUMPDEST JUMPDEST POP SWAP3 POP SWAP3 SWAP1 POP JUMP JUMPDEST PUSH1 0x0 DUP3 DUP3 MSTORE PUSH1 0x20 DUP3 ADD SWAP1 POP SWAP3 SWAP2 POP POP JUMP JUMPDEST PUSH1 0x0 DUP2 SWAP1 POP SWAP2 SWAP1 POP JUMP JUMPDEST PUSH1 0x0 PUSH1 0x2 SWAP1 POP SWAP2 SWAP1 POP JUMP JUMPDEST PUSH1 0x0 DUP2 SWAP1 POP SWAP3 SWAP2 POP POP JUMP JUMPDEST PUSH1 0x0 DUP2 SWAP1 POP SWAP2 SWAP1 POP JUMP JUMPDEST PUSH1 0x0 DUP3 DUP3 MSTORE PUSH1 0x20 DUP3 ADD SWAP1 POP SWAP3 SWAP2 POP POP JUMP JUMPDEST PUSH1 0x0 PUSH2 0xCB7 DUP4 DUP6 PUSH2 0xC9A JUMP JUMPDEST SWAP4 POP PUSH2 0xCC4 DUP4 DUP6 DUP5 PUSH2 0x9BC JUMP JUMPDEST PUSH2 0xCCD DUP4 PUSH2 0xAB1 JUMP JUMPDEST DUP5 ADD SWAP1 POP SWAP4 SWAP3 POP POP POP JUMP JUMPDEST PUSH1 0x0 PUSH2 0xCE5 DUP5 DUP5 DUP5 PUSH2 0xCAB JUMP JUMPDEST SWAP1 POP SWAP4 SWAP3 POP POP POP JUMP JUMPDEST PUSH1 0x0 DUP1 REVERT JUMPDEST PUSH1 0x0 DUP1 REVERT JUMPDEST PUSH1 0x0 DUP1 REVERT JUMPDEST PUSH1 0x0 DUP1 DUP4 CALLDATALOAD PUSH1 0x1 PUSH1 0x20 SUB DUP5 CALLDATASIZE SUB SUB DUP2 SLT PUSH2 0xD1A JUMPI PUSH2 0xD19 PUSH2 0xCF8 JUMP JUMPDEST JUMPDEST DUP4 DUP2 ADD SWAP3 POP DUP3 CALLDATALOAD SWAP2 POP PUSH1 0x20 DUP4 ADD SWAP3 POP PUSH8 0xFFFFFFFFFFFFFFFF DUP3 GT ISZERO PUSH2 0xD42 JUMPI PUSH2 0xD41 PUSH2 0xCEE JUMP JUMPDEST JUMPDEST PUSH1 0x1 DUP3 MUL CALLDATASIZE SUB DUP5 SGT ISZERO PUSH2 0xD58 JUMPI PUSH2 0xD57 PUSH2 0xCF3 JUMP JUMPDEST JUMPDEST POP SWAP3 POP SWAP3 SWAP1 POP JUMP JUMPDEST PUSH1 0x0 PUSH1 0x20 DUP3 ADD SWAP1 POP SWAP2 SWAP1 POP JUMP JUMPDEST PUSH1 0x0 PUSH2 0xD78 DUP3 PUSH2 0xC7A JUMP JUMPDEST PUSH2 0xD82 DUP2 DUP6 PUSH2 0xC85 JUMP JUMPDEST SWAP4 POP DUP4 PUSH1 0x20 DUP3 MUL DUP6 ADD PUSH2 0xD94 DUP6 PUSH2 0xC90 JUMP JUMPDEST DUP1 PUSH1 0x0 JUMPDEST DUP6 DUP2 LT ISZERO PUSH2 0xDDA JUMPI DUP5 DUP5 SUB DUP10 MSTORE PUSH2 0xDAF DUP3 DUP5 PUSH2 0xCFD JUMP JUMPDEST PUSH2 0xDBA DUP7 DUP3 DUP5 PUSH2 0xCD8 JUMP JUMPDEST SWAP6 POP PUSH2 0xDC5 DUP5 PUSH2 0xD60 JUMP JUMPDEST SWAP4 POP PUSH1 0x20 DUP12 ADD SWAP11 POP POP POP PUSH1 0x1 DUP2 ADD SWAP1 POP PUSH2 0xD98 JUMP JUMPDEST POP DUP3 SWAP8 POP DUP8 SWAP6 POP POP POP POP POP POP SWAP3 SWAP2 POP POP JUMP JUMPDEST PUSH1 0x0 PUSH2 0xDF8 DUP4 DUP4 PUSH2 0xD6D JUMP JUMPDEST SWAP1 POP SWAP3 SWAP2 POP POP JUMP JUMPDEST PUSH1 0x0 DUP3 CALLDATALOAD PUSH1 0x1 PUSH1 0x40 SUB DUP4 CALLDATASIZE SUB SUB DUP2 SLT PUSH2 0xE1C JUMPI PUSH2 0xE1B PUSH2 0xCF8 JUMP JUMPDEST JUMPDEST DUP3 DUP2 ADD SWAP2 POP POP SWAP3 SWAP2 POP POP JUMP JUMPDEST PUSH1 0x0 PUSH1 0x20 DUP3 ADD SWAP1 POP SWAP2 SWAP1 POP JUMP JUMPDEST PUSH1 0x0 PUSH2 0xE41 DUP4 DUP6 PUSH2 0xC5F JUMP JUMPDEST SWAP4 POP DUP4 PUSH1 0x20 DUP5 MUL DUP6 ADD PUSH2 0xE53 DUP5 PUSH2 0xC70 JUMP JUMPDEST DUP1 PUSH1 0x0 JUMPDEST DUP8 DUP2 LT ISZERO PUSH2 0xE97 JUMPI DUP5 DUP5 SUB DUP10 MSTORE PUSH2 0xE6E DUP3 DUP5 PUSH2 0xE00 JUMP JUMPDEST PUSH2 0xE78 DUP6 DUP3 PUSH2 0xDEC JUMP JUMPDEST SWAP5 POP PUSH2 0xE83 DUP4 PUSH2 0xE28 JUMP JUMPDEST SWAP3 POP PUSH1 0x20 DUP11 ADD SWAP10 POP POP PUSH1 0x1 DUP2 ADD SWAP1 POP PUSH2 0xE57 JUMP JUMPDEST POP DUP3 SWAP8 POP DUP8 SWAP5 POP POP POP POP POP SWAP4 SWAP3 POP POP POP JUMP JUMPDEST PUSH1 0x0 DUP3 DUP3 MSTORE PUSH1 0x20 DUP3 ADD SWAP1 POP SWAP3 SWAP2 POP POP JUMP JUMPDEST PUSH1 0x0 DUP2 SWAP1 POP SWAP2 SWAP1 POP JUMP JUMPDEST PUSH2 0xED0 PUSH1 0x80 DUP4 DUP4 PUSH2 0x9BC JUMP JUMPDEST POP POP JUMP JUMPDEST PUSH1 0x0 PUSH2 0xEE0 DUP4 DUP4 PUSH2 0xEC4 JUMP JUMPDEST PUSH1 0x80 DUP4 ADD SWAP1 POP SWAP3 SWAP2 POP POP JUMP JUMPDEST PUSH1 0x0 DUP3 SWAP1 POP SWAP3 SWAP2 POP POP JUMP JUMPDEST PUSH1 0x0 PUSH1 0x80 DUP3 ADD SWAP1 POP SWAP2 SWAP1 POP JUMP JUMPDEST PUSH1 0x0 PUSH2 0xF10 DUP4 DUP6 PUSH2 0xEA9 JUMP JUMPDEST SWAP4 POP PUSH2 0xF1B DUP3 PUSH2 0xEBA JUMP JUMPDEST DUP1 PUSH1 0x0 JUMPDEST DUP6 DUP2 LT ISZERO PUSH2 0xF54 JUMPI PUSH2 0xF31 DUP3 DUP5 PUSH2 0xEEC JUMP JUMPDEST PUSH2 0xF3B DUP9 DUP3 PUSH2 0xED4 JUMP JUMPDEST SWAP8 POP PUSH2 0xF46 DUP4 PUSH2 0xEF7 JUMP JUMPDEST SWAP3 POP POP PUSH1 0x1 DUP2 ADD SWAP1 POP PUSH2 0xF1F JUMP JUMPDEST POP DUP6 SWAP3 POP POP POP SWAP4 SWAP3 POP POP POP JUMP JUMPDEST PUSH1 0x0 PUSH1 0xA0 DUP3 ADD SWAP1 POP PUSH2 0xF76 PUSH1 0x0 DUP4 ADD DUP12 PUSH2 0x668 JUMP JUMPDEST PUSH2 0xF83 PUSH1 0x20 DUP4 ADD DUP11 PUSH2 0x668 JUMP JUMPDEST DUP2 DUP2 SUB PUSH1 0x40 DUP4 ADD MSTORE PUSH2 0xF96 DUP2 DUP9 DUP11 PUSH2 0xE35 JUMP JUMPDEST SWAP1 POP DUP2 DUP2 SUB PUSH1 0x60 DUP4 ADD MSTORE PUSH2 0xFAB DUP2 DUP7 DUP9 PUSH2 0xE35 JUMP JUMPDEST SWAP1 POP DUP2 DUP2 SUB PUSH1 0x80 DUP4 ADD MSTORE PUSH2 0xFC0 DUP2 DUP5 DUP7 PUSH2 0xF04 JUMP JUMPDEST SWAP1 POP SWAP10 SWAP9 POP POP POP POP POP POP POP POP POP JUMP JUMPDEST PUSH1 0x0 PUSH2 0xFDB DUP4 DUP6 PUSH2 0x90E JUMP JUMPDEST SWAP4 POP PUSH2 0xFE8 DUP4 DUP6 DUP5 PUSH2 0x9BC JUMP JUMPDEST PUSH2 0xFF1 DUP4 PUSH2 0xAB1 JUMP JUMPDEST DUP5 ADD SWAP1 POP SWAP4 SWAP3 POP POP POP JUMP JUMPDEST PUSH1 0x0 PUSH1 0x20 DUP3 ADD SWAP1 POP DUP2 DUP2 SUB PUSH1 0x0 DUP4 ADD MSTORE PUSH2 0x1017 DUP2 DUP5 DUP7 PUSH2 0xFCF JUMP JUMPDEST SWAP1 POP SWAP4 SWAP3 POP POP POP JUMP JUMPDEST PUSH1 0x0 DUP3 CALLDATALOAD PUSH1 0x1 PUSH1 0x40 SUB DUP4 CALLDATASIZE SUB SUB DUP2 SLT PUSH2 0x103C JUMPI PUSH2 0x103B PUSH2 0xBED JUMP JUMPDEST JUMPDEST DUP1 DUP4 ADD SWAP2 POP POP SWAP3 SWAP2 POP POP JUMP JUMPDEST PUSH1 0x0 DUP1 DUP4 CALLDATALOAD PUSH1 0x1 PUSH1 0x20 SUB DUP5 CALLDATASIZE SUB SUB DUP2 SLT PUSH2 0x1065 JUMPI PUSH2 0x1064 PUSH2 0xBED JUMP JUMPDEST JUMPDEST DUP1 DUP5 ADD SWAP3 POP DUP3 CALLDATALOAD SWAP2 POP PUSH8 0xFFFFFFFFFFFFFFFF DUP3 GT ISZERO PUSH2 0x1087 JUMPI PUSH2 0x1086 PUSH2 0xBF2 JUMP JUMPDEST JUMPDEST PUSH1 0x20 DUP4 ADD SWAP3 POP PUSH1 0x1 DUP3 MUL CALLDATASIZE SUB DUP4 SGT ISZERO PUSH2 0x10A3 JUMPI PUSH2 0x10A2 PUSH2 0xBF7 JUMP JUMPDEST JUMPDEST POP SWAP3 POP SWAP3 SWAP1 POP JUMP JUMPDEST PUSH1 0x0 DUP1 DUP4 CALLDATALOAD PUSH1 0x1 PUSH1 0x20 SUB DUP5 CALLDATASIZE SUB SUB DUP2 SLT PUSH2 0x10C8 JUMPI PUSH2 0x10C7 PUSH2 0xBED JUMP JUMPDEST JUMPDEST DUP1 DUP5 ADD SWAP3 POP DUP3 CALLDATALOAD SWAP2 POP PUSH8 0xFFFFFFFFFFFFFFFF DUP3 GT ISZERO PUSH2 0x10EA JUMPI PUSH2 0x10E9 PUSH2 0xBF2 JUMP JUMPDEST JUMPDEST PUSH1 0x20 DUP4 ADD SWAP3 POP PUSH1 0x1 DUP3 MUL CALLDATASIZE SUB DUP4 SGT ISZERO PUSH2 0x1106 JUMPI PUSH2 0x1105 PUSH2 0xBF7 JUMP JUMPDEST JUMPDEST POP SWAP3 POP SWAP3 SWAP1 POP JUMP JUMPDEST PUSH1 0x0 DUP2 SWAP1 POP SWAP2 SWAP1 POP JUMP JUMPDEST PUSH1 0x0 PUSH16 0xFFFFFFFFFFFFFFFFFFFFFFFFFFFFFFFF DUP3 AND SWAP1 POP SWAP2 SWAP1 POP JUMP JUMPDEST PUSH1 0x0 DUP2 SWAP1 POP SWAP2 SWAP1 POP JUMP JUMPDEST PUSH1 0x0 PUSH2 0x1159 PUSH2 0x1154 PUSH2 0x114F DUP5 PUSH2 0x110E JUMP JUMPDEST PUSH2 0x1134 JUMP JUMPDEST PUSH2 0x1118 JUMP JUMPDEST SWAP1 POP SWAP2 SWAP1 POP JUMP JUMPDEST PUSH2 0x1169 DUP2 PUSH2 0x113E JUMP JUMPDEST DUP3 MSTORE POP POP JUMP JUMPDEST PUSH1 0x0 DUP3 DUP3 MSTORE PUSH1 0x20 DUP3 ADD SWAP1 POP SWAP3 SWAP2 POP POP JUMP JUMPDEST PUSH1 0x0 PUSH2 0x118C DUP4 DUP6 PUSH2 0x116F JUMP JUMPDEST SWAP4 POP PUSH2 0x1199 DUP4 DUP6 DUP5 PUSH2 0x9BC JUMP JUMPDEST PUSH2 0x11A2 DUP4 PUSH2 0xAB1 JUMP JUMPDEST DUP5 ADD SWAP1 POP SWAP4 SWAP3 POP POP POP JUMP JUMPDEST PUSH1 0x0 PUSH1 0x60 DUP3 ADD SWAP1 POP DUP2 DUP2 SUB PUSH1 0x0 DUP4 ADD MSTORE PUSH2 0x11C8 DUP2 DUP8 DUP10 PUSH2 0xFCF JUMP JUMPDEST SWAP1 POP PUSH2 0x11D7 PUSH1 0x20 DUP4 ADD DUP7 PUSH2 0x1160 JUMP JUMPDEST DUP2 DUP2 SUB PUSH1 0x40 DUP4 ADD MSTORE PUSH2 0x11EA DUP2 DUP5 DUP7 PUSH2 0x1180 JUMP JUMPDEST SWAP1 POP SWAP7 SWAP6 POP POP POP POP POP POP JUMP JUMPDEST PUSH32 0x4E487B7100000000000000000000000000000000000000000000000000000000 PUSH1 0x0 MSTORE PUSH1 0x11 PUSH1 0x4 MSTORE PUSH1 0x24 PUSH1 0x0 REVERT JUMPDEST PUSH1 0x0 DUP2 SWAP1 POP SWAP2 SWAP1 POP JUMP JUMPDEST PUSH1 0x0 PUSH2 0x123A DUP3 PUSH2 0x1225 JUMP JUMPDEST SWAP2 POP PUSH32 0xFFFFFFFFFFFFFFFFFFFFFFFFFFFFFFFFFFFFFFFFFFFFFFFFFFFFFFFFFFFFFFFF DUP3 EQ ISZERO PUSH2 0x126D JUMPI PUSH2 0x126C PUSH2 0x11F6 JUMP JUMPDEST JUMPDEST PUSH1 0x1 DUP3 ADD SWAP1 POP SWAP2 SWAP1 POP JUMP INVALID LOG2 PUSH5 0x6970667358 0x22 SLT KECCAK256 0x4A XOR SSTORE PUSH3 0x3F02DF 0x4A RETURNDATASIZE SWAP9 PUSH4 0xC7039F1A 0x24 SWAP6 ORIGIN LT GAS 0xC8 0xBB TIMESTAMP SGT SHR STATICCALL MSIZE INVALID DUP14 CALLDATALOAD DUP7 PUSH1 0x64 PUSH20 0x6F6C634300080C00330000000000000000000000 "
        },
        "methodIdentifiers": {
          "createFrameWithSource(address,address,string[2][][2],bytes[],uint256[4][],string)": "d3a758f3",
          "libraryAddress()": "b816f513",
          "setLibraryAddress(address)": "4863ba17"
        }
      }
    }
  }
}