{
  "src/contracts/FrameDataStore.sol": {
    "FrameDataStore": {
      "abi": [
        {
          "inputs": [],
          "stateMutability": "nonpayable",
          "type": "constructor"
        },
        {
          "inputs": [
            {
              "internalType": "string",
              "name": "_key",
              "type": "string"
            },
            {
              "internalType": "uint256",
              "name": "_startPage",
              "type": "uint256"
            }
          ],
          "name": "getAllDataFromPage",
          "outputs": [
            {
              "internalType": "bytes",
              "name": "",
              "type": "bytes"
            }
          ],
          "stateMutability": "view",
          "type": "function"
        },
        {
          "inputs": [
            {
              "internalType": "string",
              "name": "_key",
              "type": "string"
            },
            {
              "internalType": "uint256",
              "name": "_startPage",
              "type": "uint256"
            },
            {
              "internalType": "uint256",
              "name": "_endPage",
              "type": "uint256"
            }
          ],
          "name": "getData",
          "outputs": [
            {
              "internalType": "bytes",
              "name": "",
              "type": "bytes"
            }
          ],
          "stateMutability": "view",
          "type": "function"
        },
        {
          "inputs": [
            {
              "internalType": "string",
              "name": "_key",
              "type": "string"
            }
          ],
          "name": "getMaxPageNumber",
          "outputs": [
            {
              "internalType": "uint256",
              "name": "",
              "type": "uint256"
            }
          ],
          "stateMutability": "view",
          "type": "function"
        },
        {
          "inputs": [
            {
              "internalType": "string",
              "name": "_key",
              "type": "string"
            },
            {
              "internalType": "uint256",
              "name": "_startPage",
              "type": "uint256"
            },
            {
              "internalType": "uint256",
              "name": "_endPage",
              "type": "uint256"
            }
          ],
          "name": "getSizeBetweenPages",
          "outputs": [
            {
              "internalType": "uint256",
              "name": "",
              "type": "uint256"
            }
          ],
          "stateMutability": "view",
          "type": "function"
        },
        {
          "inputs": [
            {
              "internalType": "string",
              "name": "_key",
              "type": "string"
            }
          ],
          "name": "hasKey",
          "outputs": [
            {
              "internalType": "bool",
              "name": "",
              "type": "bool"
            }
          ],
          "stateMutability": "view",
          "type": "function"
        },
        {
          "inputs": [],
          "name": "isLocked",
          "outputs": [
            {
              "internalType": "bool",
              "name": "",
              "type": "bool"
            }
          ],
          "stateMutability": "view",
          "type": "function"
        },
        {
          "inputs": [],
          "name": "lock",
          "outputs": [],
          "stateMutability": "nonpayable",
          "type": "function"
        },
        {
          "inputs": [],
          "name": "name",
          "outputs": [
            {
              "internalType": "string",
              "name": "",
              "type": "string"
            }
          ],
          "stateMutability": "view",
          "type": "function"
        },
        {
          "inputs": [
            {
              "internalType": "string",
              "name": "_key",
              "type": "string"
            },
            {
              "internalType": "uint128",
              "name": "_pageNumber",
              "type": "uint128"
            },
            {
              "internalType": "bytes",
              "name": "_b",
              "type": "bytes"
            }
          ],
          "name": "saveData",
          "outputs": [],
          "stateMutability": "nonpayable",
          "type": "function"
        },
        {
          "inputs": [
            {
              "internalType": "string",
              "name": "_name",
              "type": "string"
            }
          ],
          "name": "setName",
          "outputs": [],
          "stateMutability": "nonpayable",
          "type": "function"
        },
        {
          "inputs": [
            {
              "internalType": "string",
              "name": "_version",
              "type": "string"
            }
          ],
          "name": "setVersion",
          "outputs": [],
          "stateMutability": "nonpayable",
          "type": "function"
        },
        {
          "inputs": [],
          "name": "version",
          "outputs": [
            {
              "internalType": "string",
              "name": "",
              "type": "string"
            }
          ],
          "stateMutability": "view",
          "type": "function"
        }
      ],
      "evm": {
        "bytecode": {
          "linkReferences": {},
          "object": "60806040526000600260006101000a81548160ff02191690831515021790555034801561002b57600080fd5b506117de8061003b6000396000f3fe608060405234801561001057600080fd5b50600436106100b45760003560e01c80636af42a8c116100715780636af42a8c146101b5578063788bc78c146101d1578063a4e2d634146101ed578063c47f00271461020b578063d431a42f14610227578063f83d08ba14610257576100b4565b806306fdde03146100b957806311aa4cba146100d7578063208a43d314610107578063332d3780146101375780633a04f79b1461016757806354fd4d5014610197575b600080fd5b6100c1610261565b6040516100ce9190610d43565b60405180910390f35b6100f160048036038101906100ec9190610ee4565b6102ef565b6040516100fe9190610fa8565b60405180910390f35b610121600480360381019061011c9190610ee4565b610476565b60405161012e9190610fd9565b60405180910390f35b610151600480360381019061014c9190610ff4565b61051b565b60405161015e9190611058565b60405180910390f35b610181600480360381019061017c9190611073565b610552565b60405161018e9190610fa8565b60405180910390f35b61019f61058d565b6040516101ac9190610d43565b60405180910390f35b6101cf60048036038101906101ca91906111b8565b61061b565b005b6101eb60048036038101906101e69190610ff4565b6108fa565b005b6101f5610965565b6040516102029190611058565b60405180910390f35b61022560048036038101906102209190610ff4565b610978565b005b610241600480360381019061023c9190610ff4565b6109e2565b60405161024e9190610fd9565b60405180910390f35b61025f610a0c565b005b6003805461026e90611272565b80601f016020809104026020016040519081016040528092919081815260200182805461029a90611272565b80156102e75780601f106102bc576101008083540402835291602001916102e7565b820191906000526020600020905b8154815290600101906020018083116102ca57829003601f168201915b505050505081565b606060006102fe858585610476565b905060008167ffffffffffffffff81111561031c5761031b610d83565b5b6040519080825280601f01601f19166020018201604052801561034e5781602001600182028036833780820191505090505b5090506000808760405161036291906112e0565b90815260200160405180910390209050600085905060006020905060008890505b828111610466576000846002016000838152602001908152602001600020905060008160000160009054906101000a900473ffffffffffffffffffffffffffffffffffffffff16905060008260010160009054906101000a90046fffffffffffffffffffffffffffffffff166fffffffffffffffffffffffffffffffff16905060008360010160109054906101000a90046fffffffffffffffffffffffffffffffff166fffffffffffffffffffffffffffffffff1690508181878b01853c818661044d9190611326565b955050505050808061045e9061137c565b915050610383565b5083955050505050509392505050565b60008060008560405161048991906112e0565b908152602001604051809103902090506000808590505b84811161050e5782600201600082815260200190815260200160002060010160009054906101000a90046fffffffffffffffffffffffffffffffff166fffffffffffffffffffffffffffffffff16826104f99190611326565b915080806105069061137c565b9150506104a0565b5080925050509392505050565b6000808260405161052c91906112e0565b908152602001604051809103902060010160009054906101000a900460ff169050919050565b60606000808460405161056591906112e0565b90815260200160405180910390209050610584848483600001546102ef565b91505092915050565b6004805461059a90611272565b80601f01602080910402602001604051908101604052809291908181526020018280546105c690611272565b80156106135780601f106105e857610100808354040283529160200191610613565b820191906000526020600020905b8154815290600101906020018083116105f657829003601f168201915b505050505081565b616000815110610660576040517f08c379a000000000000000000000000000000000000000000000000000000000815260040161065790611437565b60405180910390fd5b6106698361051b565b158061069a575060018261067d9190611457565b6fffffffffffffffffffffffffffffffff16610698846109e2565b145b6106d9576040517f08c379a00000000000000000000000000000000000000000000000000000000081526004016106d0906114fd565b60405180910390fd5b600260009054906101000a900460ff1615610729576040517f08c379a000000000000000000000000000000000000000000000000000000000815260040161072090611569565b60405180910390fd5b60006040518060400160405280600e81526020017f610000600e6000396100006000f300000000000000000000000000000000000081525090506000825160f81b9050600060088451901c60f81b9050818360028151811061078e5761078d611589565b5b60200101907effffffffffffffffffffffffffffffffffffffffffffffffffffffffffffff1916908160001a90535080836001815181106107d2576107d1611589565b5b60200101907effffffffffffffffffffffffffffffffffffffffffffffffffffffffffffff1916908160001a9053508183600a8151811061081657610815611589565b5b60200101907effffffffffffffffffffffffffffffffffffffffffffffffffffffffffffff1916908160001a905350808360098151811061085a57610859611589565b5b60200101907effffffffffffffffffffffffffffffffffffffffffffffffffffffffffffff1916908160001a9053506000838560405160200161089e9291906115f4565b604051602081830303815290604052905060008151602083016000f0905060008114156108cf573d6000803e3d6000fd5b6108f088886fffffffffffffffffffffffffffffffff168389516000610a79565b5050505050505050565b60036004805461090990611272565b90501061094b576040517f08c379a00000000000000000000000000000000000000000000000000000000081526004016109429061168a565b60405180910390fd5b8060049080519060200190610961929190610c07565b5050565b600260009054906101000a900460ff1681565b600380805461098690611272565b9050106109c8576040517f08c379a00000000000000000000000000000000000000000000000000000000081526004016109bf906116f6565b60405180910390fd5b80600390805190602001906109de929190610c07565b5050565b600080826040516109f391906112e0565b9081526020016040518091039020600001549050919050565b600260009054906101000a900460ff1615610a5c576040517f08c379a0000000000000000000000000000000000000000000000000000000008152600401610a5390611788565b60405180910390fd5b6001600260006101000a81548160ff021916908315150217905550565b60008086604051610a8a91906112e0565b908152602001604051809103902090508481600001541015610ab0578481600001819055505b60018160010160006101000a81548160ff02191690831515021790555060405180606001604052808573ffffffffffffffffffffffffffffffffffffffff168152602001846fffffffffffffffffffffffffffffffff168152602001836fffffffffffffffffffffffffffffffff1681525081600201600087815260200190815260200160002060008201518160000160006101000a81548173ffffffffffffffffffffffffffffffffffffffff021916908373ffffffffffffffffffffffffffffffffffffffff16021790555060208201518160010160006101000a8154816fffffffffffffffffffffffffffffffff02191690836fffffffffffffffffffffffffffffffff16021790555060408201518160010160106101000a8154816fffffffffffffffffffffffffffffffff02191690836fffffffffffffffffffffffffffffffff160217905550905050505050505050565b828054610c1390611272565b90600052602060002090601f016020900481019282610c355760008555610c7c565b82601f10610c4e57805160ff1916838001178555610c7c565b82800160010185558215610c7c579182015b82811115610c7b578251825591602001919060010190610c60565b5b509050610c899190610c8d565b5090565b5b80821115610ca6576000816000905550600101610c8e565b5090565b600081519050919050565b600082825260208201905092915050565b60005b83811015610ce4578082015181840152602081019050610cc9565b83811115610cf3576000848401525b50505050565b6000601f19601f8301169050919050565b6000610d1582610caa565b610d1f8185610cb5565b9350610d2f818560208601610cc6565b610d3881610cf9565b840191505092915050565b60006020820190508181036000830152610d5d8184610d0a565b905092915050565b6000604051905090565b600080fd5b600080fd5b600080fd5b600080fd5b7f4e487b7100000000000000000000000000000000000000000000000000000000600052604160045260246000fd5b610dbb82610cf9565b810181811067ffffffffffffffff82111715610dda57610dd9610d83565b5b80604052505050565b6000610ded610d65565b9050610df98282610db2565b919050565b600067ffffffffffffffff821115610e1957610e18610d83565b5b610e2282610cf9565b9050602081019050919050565b82818337600083830152505050565b6000610e51610e4c84610dfe565b610de3565b905082815260208101848484011115610e6d57610e6c610d7e565b5b610e78848285610e2f565b509392505050565b600082601f830112610e9557610e94610d79565b5b8135610ea5848260208601610e3e565b91505092915050565b6000819050919050565b610ec181610eae565b8114610ecc57600080fd5b50565b600081359050610ede81610eb8565b92915050565b600080600060608486031215610efd57610efc610d6f565b5b600084013567ffffffffffffffff811115610f1b57610f1a610d74565b5b610f2786828701610e80565b9350506020610f3886828701610ecf565b9250506040610f4986828701610ecf565b9150509250925092565b600081519050919050565b600082825260208201905092915050565b6000610f7a82610f53565b610f848185610f5e565b9350610f94818560208601610cc6565b610f9d81610cf9565b840191505092915050565b60006020820190508181036000830152610fc28184610f6f565b905092915050565b610fd381610eae565b82525050565b6000602082019050610fee6000830184610fca565b92915050565b60006020828403121561100a57611009610d6f565b5b600082013567ffffffffffffffff81111561102857611027610d74565b5b61103484828501610e80565b91505092915050565b60008115159050919050565b6110528161103d565b82525050565b600060208201905061106d6000830184611049565b92915050565b6000806040838503121561108a57611089610d6f565b5b600083013567ffffffffffffffff8111156110a8576110a7610d74565b5b6110b485828601610e80565b92505060206110c585828601610ecf565b9150509250929050565b60006fffffffffffffffffffffffffffffffff82169050919050565b6110f4816110cf565b81146110ff57600080fd5b50565b600081359050611111816110eb565b92915050565b600067ffffffffffffffff82111561113257611131610d83565b5b61113b82610cf9565b9050602081019050919050565b600061115b61115684611117565b610de3565b90508281526020810184848401111561117757611176610d7e565b5b611182848285610e2f565b509392505050565b600082601f83011261119f5761119e610d79565b5b81356111af848260208601611148565b91505092915050565b6000806000606084860312156111d1576111d0610d6f565b5b600084013567ffffffffffffffff8111156111ef576111ee610d74565b5b6111fb86828701610e80565b935050602061120c86828701611102565b925050604084013567ffffffffffffffff81111561122d5761122c610d74565b5b6112398682870161118a565b9150509250925092565b7f4e487b7100000000000000000000000000000000000000000000000000000000600052602260045260246000fd5b6000600282049050600182168061128a57607f821691505b6020821081141561129e5761129d611243565b5b50919050565b600081905092915050565b60006112ba82610caa565b6112c481856112a4565b93506112d4818560208601610cc6565b80840191505092915050565b60006112ec82846112af565b915081905092915050565b7f4e487b7100000000000000000000000000000000000000000000000000000000600052601160045260246000fd5b600061133182610eae565b915061133c83610eae565b9250827fffffffffffffffffffffffffffffffffffffffffffffffffffffffffffffffff03821115611371576113706112f7565b5b828201905092915050565b600061138782610eae565b91507fffffffffffffffffffffffffffffffffffffffffffffffffffffffffffffffff8214156113ba576113b96112f7565b5b600182019050919050565b7f4672616d654461746153746f72653a2045786365656465642032342c3537362060008201527f6279746573206d617820636f6e74726163742073697a65000000000000000000602082015250565b6000611421603783610cb5565b915061142c826113c5565b604082019050919050565b6000602082019050818103600083015261145081611414565b9050919050565b6000611462826110cf565b915061146d836110cf565b9250828210156114805761147f6112f7565b5b828203905092915050565b7f4672616d654461746153746f72653a2043616e6e6f74206f766572777269746560008201527f206f7220736b6970207061676520666f72206b65790000000000000000000000602082015250565b60006114e7603583610cb5565b91506114f28261148b565b604082019050919050565b60006020820190508181036000830152611516816114da565b9050919050565b7f4672616d654461746153746f72653a20436f6e7472616374206c6f636b656400600082015250565b6000611553601f83610cb5565b915061155e8261151d565b602082019050919050565b6000602082019050818103600083015261158281611546565b9050919050565b7f4e487b7100000000000000000000000000000000000000000000000000000000600052603260045260246000fd5b600081905092915050565b60006115ce82610f53565b6115d881856115b8565b93506115e8818560208601610cc6565b80840191505092915050565b600061160082856115c3565b915061160c82846115c3565b91508190509392505050565b7f4672616d654461746153746f72653a2056657273696f6e20616c72656164792060008201527f7365740000000000000000000000000000000000000000000000000000000000602082015250565b6000611674602383610cb5565b915061167f82611618565b604082019050919050565b600060208201905081810360008301526116a381611667565b9050919050565b7f4672616d654461746153746f72653a204e616d6520616c726561647920736574600082015250565b60006116e0602083610cb5565b91506116eb826116aa565b602082019050919050565b6000602082019050818103600083015261170f816116d3565b9050919050565b7f4672616d654461746153746f72653a20436f6e747261637420616c726561647960008201527f206c6f636b656400000000000000000000000000000000000000000000000000602082015250565b6000611772602783610cb5565b915061177d82611716565b604082019050919050565b600060208201905081810360008301526117a181611765565b905091905056fea2646970667358221220c9877c4e880a6a427dcc295fed3514f1240ffaf90c678dbe655804299ed4d28f64736f6c634300080c0033",
          "opcodes": "PUSH1 0x80 PUSH1 0x40 MSTORE PUSH1 0x0 PUSH1 0x2 PUSH1 0x0 PUSH2 0x100 EXP DUP2 SLOAD DUP2 PUSH1 0xFF MUL NOT AND SWAP1 DUP4 ISZERO ISZERO MUL OR SWAP1 SSTORE POP CALLVALUE DUP1 ISZERO PUSH2 0x2B JUMPI PUSH1 0x0 DUP1 REVERT JUMPDEST POP PUSH2 0x17DE DUP1 PUSH2 0x3B PUSH1 0x0 CODECOPY PUSH1 0x0 RETURN INVALID PUSH1 0x80 PUSH1 0x40 MSTORE CALLVALUE DUP1 ISZERO PUSH2 0x10 JUMPI PUSH1 0x0 DUP1 REVERT JUMPDEST POP PUSH1 0x4 CALLDATASIZE LT PUSH2 0xB4 JUMPI PUSH1 0x0 CALLDATALOAD PUSH1 0xE0 SHR DUP1 PUSH4 0x6AF42A8C GT PUSH2 0x71 JUMPI DUP1 PUSH4 0x6AF42A8C EQ PUSH2 0x1B5 JUMPI DUP1 PUSH4 0x788BC78C EQ PUSH2 0x1D1 JUMPI DUP1 PUSH4 0xA4E2D634 EQ PUSH2 0x1ED JUMPI DUP1 PUSH4 0xC47F0027 EQ PUSH2 0x20B JUMPI DUP1 PUSH4 0xD431A42F EQ PUSH2 0x227 JUMPI DUP1 PUSH4 0xF83D08BA EQ PUSH2 0x257 JUMPI PUSH2 0xB4 JUMP JUMPDEST DUP1 PUSH4 0x6FDDE03 EQ PUSH2 0xB9 JUMPI DUP1 PUSH4 0x11AA4CBA EQ PUSH2 0xD7 JUMPI DUP1 PUSH4 0x208A43D3 EQ PUSH2 0x107 JUMPI DUP1 PUSH4 0x332D3780 EQ PUSH2 0x137 JUMPI DUP1 PUSH4 0x3A04F79B EQ PUSH2 0x167 JUMPI DUP1 PUSH4 0x54FD4D50 EQ PUSH2 0x197 JUMPI JUMPDEST PUSH1 0x0 DUP1 REVERT JUMPDEST PUSH2 0xC1 PUSH2 0x261 JUMP JUMPDEST PUSH1 0x40 MLOAD PUSH2 0xCE SWAP2 SWAP1 PUSH2 0xD43 JUMP JUMPDEST PUSH1 0x40 MLOAD DUP1 SWAP2 SUB SWAP1 RETURN JUMPDEST PUSH2 0xF1 PUSH1 0x4 DUP1 CALLDATASIZE SUB DUP2 ADD SWAP1 PUSH2 0xEC SWAP2 SWAP1 PUSH2 0xEE4 JUMP JUMPDEST PUSH2 0x2EF JUMP JUMPDEST PUSH1 0x40 MLOAD PUSH2 0xFE SWAP2 SWAP1 PUSH2 0xFA8 JUMP JUMPDEST PUSH1 0x40 MLOAD DUP1 SWAP2 SUB SWAP1 RETURN JUMPDEST PUSH2 0x121 PUSH1 0x4 DUP1 CALLDATASIZE SUB DUP2 ADD SWAP1 PUSH2 0x11C SWAP2 SWAP1 PUSH2 0xEE4 JUMP JUMPDEST PUSH2 0x476 JUMP JUMPDEST PUSH1 0x40 MLOAD PUSH2 0x12E SWAP2 SWAP1 PUSH2 0xFD9 JUMP JUMPDEST PUSH1 0x40 MLOAD DUP1 SWAP2 SUB SWAP1 RETURN JUMPDEST PUSH2 0x151 PUSH1 0x4 DUP1 CALLDATASIZE SUB DUP2 ADD SWAP1 PUSH2 0x14C SWAP2 SWAP1 PUSH2 0xFF4 JUMP JUMPDEST PUSH2 0x51B JUMP JUMPDEST PUSH1 0x40 MLOAD PUSH2 0x15E SWAP2 SWAP1 PUSH2 0x1058 JUMP JUMPDEST PUSH1 0x40 MLOAD DUP1 SWAP2 SUB SWAP1 RETURN JUMPDEST PUSH2 0x181 PUSH1 0x4 DUP1 CALLDATASIZE SUB DUP2 ADD SWAP1 PUSH2 0x17C SWAP2 SWAP1 PUSH2 0x1073 JUMP JUMPDEST PUSH2 0x552 JUMP JUMPDEST PUSH1 0x40 MLOAD PUSH2 0x18E SWAP2 SWAP1 PUSH2 0xFA8 JUMP JUMPDEST PUSH1 0x40 MLOAD DUP1 SWAP2 SUB SWAP1 RETURN JUMPDEST PUSH2 0x19F PUSH2 0x58D JUMP JUMPDEST PUSH1 0x40 MLOAD PUSH2 0x1AC SWAP2 SWAP1 PUSH2 0xD43 JUMP JUMPDEST PUSH1 0x40 MLOAD DUP1 SWAP2 SUB SWAP1 RETURN JUMPDEST PUSH2 0x1CF PUSH1 0x4 DUP1 CALLDATASIZE SUB DUP2 ADD SWAP1 PUSH2 0x1CA SWAP2 SWAP1 PUSH2 0x11B8 JUMP JUMPDEST PUSH2 0x61B JUMP JUMPDEST STOP JUMPDEST PUSH2 0x1EB PUSH1 0x4 DUP1 CALLDATASIZE SUB DUP2 ADD SWAP1 PUSH2 0x1E6 SWAP2 SWAP1 PUSH2 0xFF4 JUMP JUMPDEST PUSH2 0x8FA JUMP JUMPDEST STOP JUMPDEST PUSH2 0x1F5 PUSH2 0x965 JUMP JUMPDEST PUSH1 0x40 MLOAD PUSH2 0x202 SWAP2 SWAP1 PUSH2 0x1058 JUMP JUMPDEST PUSH1 0x40 MLOAD DUP1 SWAP2 SUB SWAP1 RETURN JUMPDEST PUSH2 0x225 PUSH1 0x4 DUP1 CALLDATASIZE SUB DUP2 ADD SWAP1 PUSH2 0x220 SWAP2 SWAP1 PUSH2 0xFF4 JUMP JUMPDEST PUSH2 0x978 JUMP JUMPDEST STOP JUMPDEST PUSH2 0x241 PUSH1 0x4 DUP1 CALLDATASIZE SUB DUP2 ADD SWAP1 PUSH2 0x23C SWAP2 SWAP1 PUSH2 0xFF4 JUMP JUMPDEST PUSH2 0x9E2 JUMP JUMPDEST PUSH1 0x40 MLOAD PUSH2 0x24E SWAP2 SWAP1 PUSH2 0xFD9 JUMP JUMPDEST PUSH1 0x40 MLOAD DUP1 SWAP2 SUB SWAP1 RETURN JUMPDEST PUSH2 0x25F PUSH2 0xA0C JUMP JUMPDEST STOP JUMPDEST PUSH1 0x3 DUP1 SLOAD PUSH2 0x26E SWAP1 PUSH2 0x1272 JUMP JUMPDEST DUP1 PUSH1 0x1F ADD PUSH1 0x20 DUP1 SWAP2 DIV MUL PUSH1 0x20 ADD PUSH1 0x40 MLOAD SWAP1 DUP2 ADD PUSH1 0x40 MSTORE DUP1 SWAP3 SWAP2 SWAP1 DUP2 DUP2 MSTORE PUSH1 0x20 ADD DUP3 DUP1 SLOAD PUSH2 0x29A SWAP1 PUSH2 0x1272 JUMP JUMPDEST DUP1 ISZERO PUSH2 0x2E7 JUMPI DUP1 PUSH1 0x1F LT PUSH2 0x2BC JUMPI PUSH2 0x100 DUP1 DUP4 SLOAD DIV MUL DUP4 MSTORE SWAP2 PUSH1 0x20 ADD SWAP2 PUSH2 0x2E7 JUMP JUMPDEST DUP3 ADD SWAP2 SWAP1 PUSH1 0x0 MSTORE PUSH1 0x20 PUSH1 0x0 KECCAK256 SWAP1 JUMPDEST DUP2 SLOAD DUP2 MSTORE SWAP1 PUSH1 0x1 ADD SWAP1 PUSH1 0x20 ADD DUP1 DUP4 GT PUSH2 0x2CA JUMPI DUP3 SWAP1 SUB PUSH1 0x1F AND DUP3 ADD SWAP2 JUMPDEST POP POP POP POP POP DUP2 JUMP JUMPDEST PUSH1 0x60 PUSH1 0x0 PUSH2 0x2FE DUP6 DUP6 DUP6 PUSH2 0x476 JUMP JUMPDEST SWAP1 POP PUSH1 0x0 DUP2 PUSH8 0xFFFFFFFFFFFFFFFF DUP2 GT ISZERO PUSH2 0x31C JUMPI PUSH2 0x31B PUSH2 0xD83 JUMP JUMPDEST JUMPDEST PUSH1 0x40 MLOAD SWAP1 DUP1 DUP3 MSTORE DUP1 PUSH1 0x1F ADD PUSH1 0x1F NOT AND PUSH1 0x20 ADD DUP3 ADD PUSH1 0x40 MSTORE DUP1 ISZERO PUSH2 0x34E JUMPI DUP2 PUSH1 0x20 ADD PUSH1 0x1 DUP3 MUL DUP1 CALLDATASIZE DUP4 CALLDATACOPY DUP1 DUP3 ADD SWAP2 POP POP SWAP1 POP JUMPDEST POP SWAP1 POP PUSH1 0x0 DUP1 DUP8 PUSH1 0x40 MLOAD PUSH2 0x362 SWAP2 SWAP1 PUSH2 0x12E0 JUMP JUMPDEST SWAP1 DUP2 MSTORE PUSH1 0x20 ADD PUSH1 0x40 MLOAD DUP1 SWAP2 SUB SWAP1 KECCAK256 SWAP1 POP PUSH1 0x0 DUP6 SWAP1 POP PUSH1 0x0 PUSH1 0x20 SWAP1 POP PUSH1 0x0 DUP9 SWAP1 POP JUMPDEST DUP3 DUP2 GT PUSH2 0x466 JUMPI PUSH1 0x0 DUP5 PUSH1 0x2 ADD PUSH1 0x0 DUP4 DUP2 MSTORE PUSH1 0x20 ADD SWAP1 DUP2 MSTORE PUSH1 0x20 ADD PUSH1 0x0 KECCAK256 SWAP1 POP PUSH1 0x0 DUP2 PUSH1 0x0 ADD PUSH1 0x0 SWAP1 SLOAD SWAP1 PUSH2 0x100 EXP SWAP1 DIV PUSH20 0xFFFFFFFFFFFFFFFFFFFFFFFFFFFFFFFFFFFFFFFF AND SWAP1 POP PUSH1 0x0 DUP3 PUSH1 0x1 ADD PUSH1 0x0 SWAP1 SLOAD SWAP1 PUSH2 0x100 EXP SWAP1 DIV PUSH16 0xFFFFFFFFFFFFFFFFFFFFFFFFFFFFFFFF AND PUSH16 0xFFFFFFFFFFFFFFFFFFFFFFFFFFFFFFFF AND SWAP1 POP PUSH1 0x0 DUP4 PUSH1 0x1 ADD PUSH1 0x10 SWAP1 SLOAD SWAP1 PUSH2 0x100 EXP SWAP1 DIV PUSH16 0xFFFFFFFFFFFFFFFFFFFFFFFFFFFFFFFF AND PUSH16 0xFFFFFFFFFFFFFFFFFFFFFFFFFFFFFFFF AND SWAP1 POP DUP2 DUP2 DUP8 DUP12 ADD DUP6 EXTCODECOPY DUP2 DUP7 PUSH2 0x44D SWAP2 SWAP1 PUSH2 0x1326 JUMP JUMPDEST SWAP6 POP POP POP POP POP DUP1 DUP1 PUSH2 0x45E SWAP1 PUSH2 0x137C JUMP JUMPDEST SWAP2 POP POP PUSH2 0x383 JUMP JUMPDEST POP DUP4 SWAP6 POP POP POP POP POP POP SWAP4 SWAP3 POP POP POP JUMP JUMPDEST PUSH1 0x0 DUP1 PUSH1 0x0 DUP6 PUSH1 0x40 MLOAD PUSH2 0x489 SWAP2 SWAP1 PUSH2 0x12E0 JUMP JUMPDEST SWAP1 DUP2 MSTORE PUSH1 0x20 ADD PUSH1 0x40 MLOAD DUP1 SWAP2 SUB SWAP1 KECCAK256 SWAP1 POP PUSH1 0x0 DUP1 DUP6 SWAP1 POP JUMPDEST DUP5 DUP2 GT PUSH2 0x50E JUMPI DUP3 PUSH1 0x2 ADD PUSH1 0x0 DUP3 DUP2 MSTORE PUSH1 0x20 ADD SWAP1 DUP2 MSTORE PUSH1 0x20 ADD PUSH1 0x0 KECCAK256 PUSH1 0x1 ADD PUSH1 0x0 SWAP1 SLOAD SWAP1 PUSH2 0x100 EXP SWAP1 DIV PUSH16 0xFFFFFFFFFFFFFFFFFFFFFFFFFFFFFFFF AND PUSH16 0xFFFFFFFFFFFFFFFFFFFFFFFFFFFFFFFF AND DUP3 PUSH2 0x4F9 SWAP2 SWAP1 PUSH2 0x1326 JUMP JUMPDEST SWAP2 POP DUP1 DUP1 PUSH2 0x506 SWAP1 PUSH2 0x137C JUMP JUMPDEST SWAP2 POP POP PUSH2 0x4A0 JUMP JUMPDEST POP DUP1 SWAP3 POP POP POP SWAP4 SWAP3 POP POP POP JUMP JUMPDEST PUSH1 0x0 DUP1 DUP3 PUSH1 0x40 MLOAD PUSH2 0x52C SWAP2 SWAP1 PUSH2 0x12E0 JUMP JUMPDEST SWAP1 DUP2 MSTORE PUSH1 0x20 ADD PUSH1 0x40 MLOAD DUP1 SWAP2 SUB SWAP1 KECCAK256 PUSH1 0x1 ADD PUSH1 0x0 SWAP1 SLOAD SWAP1 PUSH2 0x100 EXP SWAP1 DIV PUSH1 0xFF AND SWAP1 POP SWAP2 SWAP1 POP JUMP JUMPDEST PUSH1 0x60 PUSH1 0x0 DUP1 DUP5 PUSH1 0x40 MLOAD PUSH2 0x565 SWAP2 SWAP1 PUSH2 0x12E0 JUMP JUMPDEST SWAP1 DUP2 MSTORE PUSH1 0x20 ADD PUSH1 0x40 MLOAD DUP1 SWAP2 SUB SWAP1 KECCAK256 SWAP1 POP PUSH2 0x584 DUP5 DUP5 DUP4 PUSH1 0x0 ADD SLOAD PUSH2 0x2EF JUMP JUMPDEST SWAP2 POP POP SWAP3 SWAP2 POP POP JUMP JUMPDEST PUSH1 0x4 DUP1 SLOAD PUSH2 0x59A SWAP1 PUSH2 0x1272 JUMP JUMPDEST DUP1 PUSH1 0x1F ADD PUSH1 0x20 DUP1 SWAP2 DIV MUL PUSH1 0x20 ADD PUSH1 0x40 MLOAD SWAP1 DUP2 ADD PUSH1 0x40 MSTORE DUP1 SWAP3 SWAP2 SWAP1 DUP2 DUP2 MSTORE PUSH1 0x20 ADD DUP3 DUP1 SLOAD PUSH2 0x5C6 SWAP1 PUSH2 0x1272 JUMP JUMPDEST DUP1 ISZERO PUSH2 0x613 JUMPI DUP1 PUSH1 0x1F LT PUSH2 0x5E8 JUMPI PUSH2 0x100 DUP1 DUP4 SLOAD DIV MUL DUP4 MSTORE SWAP2 PUSH1 0x20 ADD SWAP2 PUSH2 0x613 JUMP JUMPDEST DUP3 ADD SWAP2 SWAP1 PUSH1 0x0 MSTORE PUSH1 0x20 PUSH1 0x0 KECCAK256 SWAP1 JUMPDEST DUP2 SLOAD DUP2 MSTORE SWAP1 PUSH1 0x1 ADD SWAP1 PUSH1 0x20 ADD DUP1 DUP4 GT PUSH2 0x5F6 JUMPI DUP3 SWAP1 SUB PUSH1 0x1F AND DUP3 ADD SWAP2 JUMPDEST POP POP POP POP POP DUP2 JUMP JUMPDEST PUSH2 0x6000 DUP2 MLOAD LT PUSH2 0x660 JUMPI PUSH1 0x40 MLOAD PUSH32 0x8C379A000000000000000000000000000000000000000000000000000000000 DUP2 MSTORE PUSH1 0x4 ADD PUSH2 0x657 SWAP1 PUSH2 0x1437 JUMP JUMPDEST PUSH1 0x40 MLOAD DUP1 SWAP2 SUB SWAP1 REVERT JUMPDEST PUSH2 0x669 DUP4 PUSH2 0x51B JUMP JUMPDEST ISZERO DUP1 PUSH2 0x69A JUMPI POP PUSH1 0x1 DUP3 PUSH2 0x67D SWAP2 SWAP1 PUSH2 0x1457 JUMP JUMPDEST PUSH16 0xFFFFFFFFFFFFFFFFFFFFFFFFFFFFFFFF AND PUSH2 0x698 DUP5 PUSH2 0x9E2 JUMP JUMPDEST EQ JUMPDEST PUSH2 0x6D9 JUMPI PUSH1 0x40 MLOAD PUSH32 0x8C379A000000000000000000000000000000000000000000000000000000000 DUP2 MSTORE PUSH1 0x4 ADD PUSH2 0x6D0 SWAP1 PUSH2 0x14FD JUMP JUMPDEST PUSH1 0x40 MLOAD DUP1 SWAP2 SUB SWAP1 REVERT JUMPDEST PUSH1 0x2 PUSH1 0x0 SWAP1 SLOAD SWAP1 PUSH2 0x100 EXP SWAP1 DIV PUSH1 0xFF AND ISZERO PUSH2 0x729 JUMPI PUSH1 0x40 MLOAD PUSH32 0x8C379A000000000000000000000000000000000000000000000000000000000 DUP2 MSTORE PUSH1 0x4 ADD PUSH2 0x720 SWAP1 PUSH2 0x1569 JUMP JUMPDEST PUSH1 0x40 MLOAD DUP1 SWAP2 SUB SWAP1 REVERT JUMPDEST PUSH1 0x0 PUSH1 0x40 MLOAD DUP1 PUSH1 0x40 ADD PUSH1 0x40 MSTORE DUP1 PUSH1 0xE DUP2 MSTORE PUSH1 0x20 ADD PUSH32 0x610000600E6000396100006000F3000000000000000000000000000000000000 DUP2 MSTORE POP SWAP1 POP PUSH1 0x0 DUP3 MLOAD PUSH1 0xF8 SHL SWAP1 POP PUSH1 0x0 PUSH1 0x8 DUP5 MLOAD SWAP1 SHR PUSH1 0xF8 SHL SWAP1 POP DUP2 DUP4 PUSH1 0x2 DUP2 MLOAD DUP2 LT PUSH2 0x78E JUMPI PUSH2 0x78D PUSH2 0x1589 JUMP JUMPDEST JUMPDEST PUSH1 0x20 ADD ADD SWAP1 PUSH31 0xFFFFFFFFFFFFFFFFFFFFFFFFFFFFFFFFFFFFFFFFFFFFFFFFFFFFFFFFFFFFFF NOT AND SWAP1 DUP2 PUSH1 0x0 BYTE SWAP1 MSTORE8 POP DUP1 DUP4 PUSH1 0x1 DUP2 MLOAD DUP2 LT PUSH2 0x7D2 JUMPI PUSH2 0x7D1 PUSH2 0x1589 JUMP JUMPDEST JUMPDEST PUSH1 0x20 ADD ADD SWAP1 PUSH31 0xFFFFFFFFFFFFFFFFFFFFFFFFFFFFFFFFFFFFFFFFFFFFFFFFFFFFFFFFFFFFFF NOT AND SWAP1 DUP2 PUSH1 0x0 BYTE SWAP1 MSTORE8 POP DUP2 DUP4 PUSH1 0xA DUP2 MLOAD DUP2 LT PUSH2 0x816 JUMPI PUSH2 0x815 PUSH2 0x1589 JUMP JUMPDEST JUMPDEST PUSH1 0x20 ADD ADD SWAP1 PUSH31 0xFFFFFFFFFFFFFFFFFFFFFFFFFFFFFFFFFFFFFFFFFFFFFFFFFFFFFFFFFFFFFF NOT AND SWAP1 DUP2 PUSH1 0x0 BYTE SWAP1 MSTORE8 POP DUP1 DUP4 PUSH1 0x9 DUP2 MLOAD DUP2 LT PUSH2 0x85A JUMPI PUSH2 0x859 PUSH2 0x1589 JUMP JUMPDEST JUMPDEST PUSH1 0x20 ADD ADD SWAP1 PUSH31 0xFFFFFFFFFFFFFFFFFFFFFFFFFFFFFFFFFFFFFFFFFFFFFFFFFFFFFFFFFFFFFF NOT AND SWAP1 DUP2 PUSH1 0x0 BYTE SWAP1 MSTORE8 POP PUSH1 0x0 DUP4 DUP6 PUSH1 0x40 MLOAD PUSH1 0x20 ADD PUSH2 0x89E SWAP3 SWAP2 SWAP1 PUSH2 0x15F4 JUMP JUMPDEST PUSH1 0x40 MLOAD PUSH1 0x20 DUP2 DUP4 SUB SUB DUP2 MSTORE SWAP1 PUSH1 0x40 MSTORE SWAP1 POP PUSH1 0x0 DUP2 MLOAD PUSH1 0x20 DUP4 ADD PUSH1 0x0 CREATE SWAP1 POP PUSH1 0x0 DUP2 EQ ISZERO PUSH2 0x8CF JUMPI RETURNDATASIZE PUSH1 0x0 DUP1 RETURNDATACOPY RETURNDATASIZE PUSH1 0x0 REVERT JUMPDEST PUSH2 0x8F0 DUP9 DUP9 PUSH16 0xFFFFFFFFFFFFFFFFFFFFFFFFFFFFFFFF AND DUP4 DUP10 MLOAD PUSH1 0x0 PUSH2 0xA79 JUMP JUMPDEST POP POP POP POP POP POP POP POP JUMP JUMPDEST PUSH1 0x3 PUSH1 0x4 DUP1 SLOAD PUSH2 0x909 SWAP1 PUSH2 0x1272 JUMP JUMPDEST SWAP1 POP LT PUSH2 0x94B JUMPI PUSH1 0x40 MLOAD PUSH32 0x8C379A000000000000000000000000000000000000000000000000000000000 DUP2 MSTORE PUSH1 0x4 ADD PUSH2 0x942 SWAP1 PUSH2 0x168A JUMP JUMPDEST PUSH1 0x40 MLOAD DUP1 SWAP2 SUB SWAP1 REVERT JUMPDEST DUP1 PUSH1 0x4 SWAP1 DUP1 MLOAD SWAP1 PUSH1 0x20 ADD SWAP1 PUSH2 0x961 SWAP3 SWAP2 SWAP1 PUSH2 0xC07 JUMP JUMPDEST POP POP JUMP JUMPDEST PUSH1 0x2 PUSH1 0x0 SWAP1 SLOAD SWAP1 PUSH2 0x100 EXP SWAP1 DIV PUSH1 0xFF AND DUP2 JUMP JUMPDEST PUSH1 0x3 DUP1 DUP1 SLOAD PUSH2 0x986 SWAP1 PUSH2 0x1272 JUMP JUMPDEST SWAP1 POP LT PUSH2 0x9C8 JUMPI PUSH1 0x40 MLOAD PUSH32 0x8C379A000000000000000000000000000000000000000000000000000000000 DUP2 MSTORE PUSH1 0x4 ADD PUSH2 0x9BF SWAP1 PUSH2 0x16F6 JUMP JUMPDEST PUSH1 0x40 MLOAD DUP1 SWAP2 SUB SWAP1 REVERT JUMPDEST DUP1 PUSH1 0x3 SWAP1 DUP1 MLOAD SWAP1 PUSH1 0x20 ADD SWAP1 PUSH2 0x9DE SWAP3 SWAP2 SWAP1 PUSH2 0xC07 JUMP JUMPDEST POP POP JUMP JUMPDEST PUSH1 0x0 DUP1 DUP3 PUSH1 0x40 MLOAD PUSH2 0x9F3 SWAP2 SWAP1 PUSH2 0x12E0 JUMP JUMPDEST SWAP1 DUP2 MSTORE PUSH1 0x20 ADD PUSH1 0x40 MLOAD DUP1 SWAP2 SUB SWAP1 KECCAK256 PUSH1 0x0 ADD SLOAD SWAP1 POP SWAP2 SWAP1 POP JUMP JUMPDEST PUSH1 0x2 PUSH1 0x0 SWAP1 SLOAD SWAP1 PUSH2 0x100 EXP SWAP1 DIV PUSH1 0xFF AND ISZERO PUSH2 0xA5C JUMPI PUSH1 0x40 MLOAD PUSH32 0x8C379A000000000000000000000000000000000000000000000000000000000 DUP2 MSTORE PUSH1 0x4 ADD PUSH2 0xA53 SWAP1 PUSH2 0x1788 JUMP JUMPDEST PUSH1 0x40 MLOAD DUP1 SWAP2 SUB SWAP1 REVERT JUMPDEST PUSH1 0x1 PUSH1 0x2 PUSH1 0x0 PUSH2 0x100 EXP DUP2 SLOAD DUP2 PUSH1 0xFF MUL NOT AND SWAP1 DUP4 ISZERO ISZERO MUL OR SWAP1 SSTORE POP JUMP JUMPDEST PUSH1 0x0 DUP1 DUP7 PUSH1 0x40 MLOAD PUSH2 0xA8A SWAP2 SWAP1 PUSH2 0x12E0 JUMP JUMPDEST SWAP1 DUP2 MSTORE PUSH1 0x20 ADD PUSH1 0x40 MLOAD DUP1 SWAP2 SUB SWAP1 KECCAK256 SWAP1 POP DUP5 DUP2 PUSH1 0x0 ADD SLOAD LT ISZERO PUSH2 0xAB0 JUMPI DUP5 DUP2 PUSH1 0x0 ADD DUP2 SWAP1 SSTORE POP JUMPDEST PUSH1 0x1 DUP2 PUSH1 0x1 ADD PUSH1 0x0 PUSH2 0x100 EXP DUP2 SLOAD DUP2 PUSH1 0xFF MUL NOT AND SWAP1 DUP4 ISZERO ISZERO MUL OR SWAP1 SSTORE POP PUSH1 0x40 MLOAD DUP1 PUSH1 0x60 ADD PUSH1 0x40 MSTORE DUP1 DUP6 PUSH20 0xFFFFFFFFFFFFFFFFFFFFFFFFFFFFFFFFFFFFFFFF AND DUP2 MSTORE PUSH1 0x20 ADD DUP5 PUSH16 0xFFFFFFFFFFFFFFFFFFFFFFFFFFFFFFFF AND DUP2 MSTORE PUSH1 0x20 ADD DUP4 PUSH16 0xFFFFFFFFFFFFFFFFFFFFFFFFFFFFFFFF AND DUP2 MSTORE POP DUP2 PUSH1 0x2 ADD PUSH1 0x0 DUP8 DUP2 MSTORE PUSH1 0x20 ADD SWAP1 DUP2 MSTORE PUSH1 0x20 ADD PUSH1 0x0 KECCAK256 PUSH1 0x0 DUP3 ADD MLOAD DUP2 PUSH1 0x0 ADD PUSH1 0x0 PUSH2 0x100 EXP DUP2 SLOAD DUP2 PUSH20 0xFFFFFFFFFFFFFFFFFFFFFFFFFFFFFFFFFFFFFFFF MUL NOT AND SWAP1 DUP4 PUSH20 0xFFFFFFFFFFFFFFFFFFFFFFFFFFFFFFFFFFFFFFFF AND MUL OR SWAP1 SSTORE POP PUSH1 0x20 DUP3 ADD MLOAD DUP2 PUSH1 0x1 ADD PUSH1 0x0 PUSH2 0x100 EXP DUP2 SLOAD DUP2 PUSH16 0xFFFFFFFFFFFFFFFFFFFFFFFFFFFFFFFF MUL NOT AND SWAP1 DUP4 PUSH16 0xFFFFFFFFFFFFFFFFFFFFFFFFFFFFFFFF AND MUL OR SWAP1 SSTORE POP PUSH1 0x40 DUP3 ADD MLOAD DUP2 PUSH1 0x1 ADD PUSH1 0x10 PUSH2 0x100 EXP DUP2 SLOAD DUP2 PUSH16 0xFFFFFFFFFFFFFFFFFFFFFFFFFFFFFFFF MUL NOT AND SWAP1 DUP4 PUSH16 0xFFFFFFFFFFFFFFFFFFFFFFFFFFFFFFFF AND MUL OR SWAP1 SSTORE POP SWAP1 POP POP POP POP POP POP POP POP JUMP JUMPDEST DUP3 DUP1 SLOAD PUSH2 0xC13 SWAP1 PUSH2 0x1272 JUMP JUMPDEST SWAP1 PUSH1 0x0 MSTORE PUSH1 0x20 PUSH1 0x0 KECCAK256 SWAP1 PUSH1 0x1F ADD PUSH1 0x20 SWAP1 DIV DUP2 ADD SWAP3 DUP3 PUSH2 0xC35 JUMPI PUSH1 0x0 DUP6 SSTORE PUSH2 0xC7C JUMP JUMPDEST DUP3 PUSH1 0x1F LT PUSH2 0xC4E JUMPI DUP1 MLOAD PUSH1 0xFF NOT AND DUP4 DUP1 ADD OR DUP6 SSTORE PUSH2 0xC7C JUMP JUMPDEST DUP3 DUP1 ADD PUSH1 0x1 ADD DUP6 SSTORE DUP3 ISZERO PUSH2 0xC7C JUMPI SWAP2 DUP3 ADD JUMPDEST DUP3 DUP2 GT ISZERO PUSH2 0xC7B JUMPI DUP3 MLOAD DUP3 SSTORE SWAP2 PUSH1 0x20 ADD SWAP2 SWAP1 PUSH1 0x1 ADD SWAP1 PUSH2 0xC60 JUMP JUMPDEST JUMPDEST POP SWAP1 POP PUSH2 0xC89 SWAP2 SWAP1 PUSH2 0xC8D JUMP JUMPDEST POP SWAP1 JUMP JUMPDEST JUMPDEST DUP1 DUP3 GT ISZERO PUSH2 0xCA6 JUMPI PUSH1 0x0 DUP2 PUSH1 0x0 SWAP1 SSTORE POP PUSH1 0x1 ADD PUSH2 0xC8E JUMP JUMPDEST POP SWAP1 JUMP JUMPDEST PUSH1 0x0 DUP2 MLOAD SWAP1 POP SWAP2 SWAP1 POP JUMP JUMPDEST PUSH1 0x0 DUP3 DUP3 MSTORE PUSH1 0x20 DUP3 ADD SWAP1 POP SWAP3 SWAP2 POP POP JUMP JUMPDEST PUSH1 0x0 JUMPDEST DUP4 DUP2 LT ISZERO PUSH2 0xCE4 JUMPI DUP1 DUP3 ADD MLOAD DUP2 DUP5 ADD MSTORE PUSH1 0x20 DUP2 ADD SWAP1 POP PUSH2 0xCC9 JUMP JUMPDEST DUP4 DUP2 GT ISZERO PUSH2 0xCF3 JUMPI PUSH1 0x0 DUP5 DUP5 ADD MSTORE JUMPDEST POP POP POP POP JUMP JUMPDEST PUSH1 0x0 PUSH1 0x1F NOT PUSH1 0x1F DUP4 ADD AND SWAP1 POP SWAP2 SWAP1 POP JUMP JUMPDEST PUSH1 0x0 PUSH2 0xD15 DUP3 PUSH2 0xCAA JUMP JUMPDEST PUSH2 0xD1F DUP2 DUP6 PUSH2 0xCB5 JUMP JUMPDEST SWAP4 POP PUSH2 0xD2F DUP2 DUP6 PUSH1 0x20 DUP7 ADD PUSH2 0xCC6 JUMP JUMPDEST PUSH2 0xD38 DUP2 PUSH2 0xCF9 JUMP JUMPDEST DUP5 ADD SWAP2 POP POP SWAP3 SWAP2 POP POP JUMP JUMPDEST PUSH1 0x0 PUSH1 0x20 DUP3 ADD SWAP1 POP DUP2 DUP2 SUB PUSH1 0x0 DUP4 ADD MSTORE PUSH2 0xD5D DUP2 DUP5 PUSH2 0xD0A JUMP JUMPDEST SWAP1 POP SWAP3 SWAP2 POP POP JUMP JUMPDEST PUSH1 0x0 PUSH1 0x40 MLOAD SWAP1 POP SWAP1 JUMP JUMPDEST PUSH1 0x0 DUP1 REVERT JUMPDEST PUSH1 0x0 DUP1 REVERT JUMPDEST PUSH1 0x0 DUP1 REVERT JUMPDEST PUSH1 0x0 DUP1 REVERT JUMPDEST PUSH32 0x4E487B7100000000000000000000000000000000000000000000000000000000 PUSH1 0x0 MSTORE PUSH1 0x41 PUSH1 0x4 MSTORE PUSH1 0x24 PUSH1 0x0 REVERT JUMPDEST PUSH2 0xDBB DUP3 PUSH2 0xCF9 JUMP JUMPDEST DUP2 ADD DUP2 DUP2 LT PUSH8 0xFFFFFFFFFFFFFFFF DUP3 GT OR ISZERO PUSH2 0xDDA JUMPI PUSH2 0xDD9 PUSH2 0xD83 JUMP JUMPDEST JUMPDEST DUP1 PUSH1 0x40 MSTORE POP POP POP JUMP JUMPDEST PUSH1 0x0 PUSH2 0xDED PUSH2 0xD65 JUMP JUMPDEST SWAP1 POP PUSH2 0xDF9 DUP3 DUP3 PUSH2 0xDB2 JUMP JUMPDEST SWAP2 SWAP1 POP JUMP JUMPDEST PUSH1 0x0 PUSH8 0xFFFFFFFFFFFFFFFF DUP3 GT ISZERO PUSH2 0xE19 JUMPI PUSH2 0xE18 PUSH2 0xD83 JUMP JUMPDEST JUMPDEST PUSH2 0xE22 DUP3 PUSH2 0xCF9 JUMP JUMPDEST SWAP1 POP PUSH1 0x20 DUP2 ADD SWAP1 POP SWAP2 SWAP1 POP JUMP JUMPDEST DUP3 DUP2 DUP4 CALLDATACOPY PUSH1 0x0 DUP4 DUP4 ADD MSTORE POP POP POP JUMP JUMPDEST PUSH1 0x0 PUSH2 0xE51 PUSH2 0xE4C DUP5 PUSH2 0xDFE JUMP JUMPDEST PUSH2 0xDE3 JUMP JUMPDEST SWAP1 POP DUP3 DUP2 MSTORE PUSH1 0x20 DUP2 ADD DUP5 DUP5 DUP5 ADD GT ISZERO PUSH2 0xE6D JUMPI PUSH2 0xE6C PUSH2 0xD7E JUMP JUMPDEST JUMPDEST PUSH2 0xE78 DUP5 DUP3 DUP6 PUSH2 0xE2F JUMP JUMPDEST POP SWAP4 SWAP3 POP POP POP JUMP JUMPDEST PUSH1 0x0 DUP3 PUSH1 0x1F DUP4 ADD SLT PUSH2 0xE95 JUMPI PUSH2 0xE94 PUSH2 0xD79 JUMP JUMPDEST JUMPDEST DUP2 CALLDATALOAD PUSH2 0xEA5 DUP5 DUP3 PUSH1 0x20 DUP7 ADD PUSH2 0xE3E JUMP JUMPDEST SWAP2 POP POP SWAP3 SWAP2 POP POP JUMP JUMPDEST PUSH1 0x0 DUP2 SWAP1 POP SWAP2 SWAP1 POP JUMP JUMPDEST PUSH2 0xEC1 DUP2 PUSH2 0xEAE JUMP JUMPDEST DUP2 EQ PUSH2 0xECC JUMPI PUSH1 0x0 DUP1 REVERT JUMPDEST POP JUMP JUMPDEST PUSH1 0x0 DUP2 CALLDATALOAD SWAP1 POP PUSH2 0xEDE DUP2 PUSH2 0xEB8 JUMP JUMPDEST SWAP3 SWAP2 POP POP JUMP JUMPDEST PUSH1 0x0 DUP1 PUSH1 0x0 PUSH1 0x60 DUP5 DUP7 SUB SLT ISZERO PUSH2 0xEFD JUMPI PUSH2 0xEFC PUSH2 0xD6F JUMP JUMPDEST JUMPDEST PUSH1 0x0 DUP5 ADD CALLDATALOAD PUSH8 0xFFFFFFFFFFFFFFFF DUP2 GT ISZERO PUSH2 0xF1B JUMPI PUSH2 0xF1A PUSH2 0xD74 JUMP JUMPDEST JUMPDEST PUSH2 0xF27 DUP7 DUP3 DUP8 ADD PUSH2 0xE80 JUMP JUMPDEST SWAP4 POP POP PUSH1 0x20 PUSH2 0xF38 DUP7 DUP3 DUP8 ADD PUSH2 0xECF JUMP JUMPDEST SWAP3 POP POP PUSH1 0x40 PUSH2 0xF49 DUP7 DUP3 DUP8 ADD PUSH2 0xECF JUMP JUMPDEST SWAP2 POP POP SWAP3 POP SWAP3 POP SWAP3 JUMP JUMPDEST PUSH1 0x0 DUP2 MLOAD SWAP1 POP SWAP2 SWAP1 POP JUMP JUMPDEST PUSH1 0x0 DUP3 DUP3 MSTORE PUSH1 0x20 DUP3 ADD SWAP1 POP SWAP3 SWAP2 POP POP JUMP JUMPDEST PUSH1 0x0 PUSH2 0xF7A DUP3 PUSH2 0xF53 JUMP JUMPDEST PUSH2 0xF84 DUP2 DUP6 PUSH2 0xF5E JUMP JUMPDEST SWAP4 POP PUSH2 0xF94 DUP2 DUP6 PUSH1 0x20 DUP7 ADD PUSH2 0xCC6 JUMP JUMPDEST PUSH2 0xF9D DUP2 PUSH2 0xCF9 JUMP JUMPDEST DUP5 ADD SWAP2 POP POP SWAP3 SWAP2 POP POP JUMP JUMPDEST PUSH1 0x0 PUSH1 0x20 DUP3 ADD SWAP1 POP DUP2 DUP2 SUB PUSH1 0x0 DUP4 ADD MSTORE PUSH2 0xFC2 DUP2 DUP5 PUSH2 0xF6F JUMP JUMPDEST SWAP1 POP SWAP3 SWAP2 POP POP JUMP JUMPDEST PUSH2 0xFD3 DUP2 PUSH2 0xEAE JUMP JUMPDEST DUP3 MSTORE POP POP JUMP JUMPDEST PUSH1 0x0 PUSH1 0x20 DUP3 ADD SWAP1 POP PUSH2 0xFEE PUSH1 0x0 DUP4 ADD DUP5 PUSH2 0xFCA JUMP JUMPDEST SWAP3 SWAP2 POP POP JUMP JUMPDEST PUSH1 0x0 PUSH1 0x20 DUP3 DUP5 SUB SLT ISZERO PUSH2 0x100A JUMPI PUSH2 0x1009 PUSH2 0xD6F JUMP JUMPDEST JUMPDEST PUSH1 0x0 DUP3 ADD CALLDATALOAD PUSH8 0xFFFFFFFFFFFFFFFF DUP2 GT ISZERO PUSH2 0x1028 JUMPI PUSH2 0x1027 PUSH2 0xD74 JUMP JUMPDEST JUMPDEST PUSH2 0x1034 DUP5 DUP3 DUP6 ADD PUSH2 0xE80 JUMP JUMPDEST SWAP2 POP POP SWAP3 SWAP2 POP POP JUMP JUMPDEST PUSH1 0x0 DUP2 ISZERO ISZERO SWAP1 POP SWAP2 SWAP1 POP JUMP JUMPDEST PUSH2 0x1052 DUP2 PUSH2 0x103D JUMP JUMPDEST DUP3 MSTORE POP POP JUMP JUMPDEST PUSH1 0x0 PUSH1 0x20 DUP3 ADD SWAP1 POP PUSH2 0x106D PUSH1 0x0 DUP4 ADD DUP5 PUSH2 0x1049 JUMP JUMPDEST SWAP3 SWAP2 POP POP JUMP JUMPDEST PUSH1 0x0 DUP1 PUSH1 0x40 DUP4 DUP6 SUB SLT ISZERO PUSH2 0x108A JUMPI PUSH2 0x1089 PUSH2 0xD6F JUMP JUMPDEST JUMPDEST PUSH1 0x0 DUP4 ADD CALLDATALOAD PUSH8 0xFFFFFFFFFFFFFFFF DUP2 GT ISZERO PUSH2 0x10A8 JUMPI PUSH2 0x10A7 PUSH2 0xD74 JUMP JUMPDEST JUMPDEST PUSH2 0x10B4 DUP6 DUP3 DUP7 ADD PUSH2 0xE80 JUMP JUMPDEST SWAP3 POP POP PUSH1 0x20 PUSH2 0x10C5 DUP6 DUP3 DUP7 ADD PUSH2 0xECF JUMP JUMPDEST SWAP2 POP POP SWAP3 POP SWAP3 SWAP1 POP JUMP JUMPDEST PUSH1 0x0 PUSH16 0xFFFFFFFFFFFFFFFFFFFFFFFFFFFFFFFF DUP3 AND SWAP1 POP SWAP2 SWAP1 POP JUMP JUMPDEST PUSH2 0x10F4 DUP2 PUSH2 0x10CF JUMP JUMPDEST DUP2 EQ PUSH2 0x10FF JUMPI PUSH1 0x0 DUP1 REVERT JUMPDEST POP JUMP JUMPDEST PUSH1 0x0 DUP2 CALLDATALOAD SWAP1 POP PUSH2 0x1111 DUP2 PUSH2 0x10EB JUMP JUMPDEST SWAP3 SWAP2 POP POP JUMP JUMPDEST PUSH1 0x0 PUSH8 0xFFFFFFFFFFFFFFFF DUP3 GT ISZERO PUSH2 0x1132 JUMPI PUSH2 0x1131 PUSH2 0xD83 JUMP JUMPDEST JUMPDEST PUSH2 0x113B DUP3 PUSH2 0xCF9 JUMP JUMPDEST SWAP1 POP PUSH1 0x20 DUP2 ADD SWAP1 POP SWAP2 SWAP1 POP JUMP JUMPDEST PUSH1 0x0 PUSH2 0x115B PUSH2 0x1156 DUP5 PUSH2 0x1117 JUMP JUMPDEST PUSH2 0xDE3 JUMP JUMPDEST SWAP1 POP DUP3 DUP2 MSTORE PUSH1 0x20 DUP2 ADD DUP5 DUP5 DUP5 ADD GT ISZERO PUSH2 0x1177 JUMPI PUSH2 0x1176 PUSH2 0xD7E JUMP JUMPDEST JUMPDEST PUSH2 0x1182 DUP5 DUP3 DUP6 PUSH2 0xE2F JUMP JUMPDEST POP SWAP4 SWAP3 POP POP POP JUMP JUMPDEST PUSH1 0x0 DUP3 PUSH1 0x1F DUP4 ADD SLT PUSH2 0x119F JUMPI PUSH2 0x119E PUSH2 0xD79 JUMP JUMPDEST JUMPDEST DUP2 CALLDATALOAD PUSH2 0x11AF DUP5 DUP3 PUSH1 0x20 DUP7 ADD PUSH2 0x1148 JUMP JUMPDEST SWAP2 POP POP SWAP3 SWAP2 POP POP JUMP JUMPDEST PUSH1 0x0 DUP1 PUSH1 0x0 PUSH1 0x60 DUP5 DUP7 SUB SLT ISZERO PUSH2 0x11D1 JUMPI PUSH2 0x11D0 PUSH2 0xD6F JUMP JUMPDEST JUMPDEST PUSH1 0x0 DUP5 ADD CALLDATALOAD PUSH8 0xFFFFFFFFFFFFFFFF DUP2 GT ISZERO PUSH2 0x11EF JUMPI PUSH2 0x11EE PUSH2 0xD74 JUMP JUMPDEST JUMPDEST PUSH2 0x11FB DUP7 DUP3 DUP8 ADD PUSH2 0xE80 JUMP JUMPDEST SWAP4 POP POP PUSH1 0x20 PUSH2 0x120C DUP7 DUP3 DUP8 ADD PUSH2 0x1102 JUMP JUMPDEST SWAP3 POP POP PUSH1 0x40 DUP5 ADD CALLDATALOAD PUSH8 0xFFFFFFFFFFFFFFFF DUP2 GT ISZERO PUSH2 0x122D JUMPI PUSH2 0x122C PUSH2 0xD74 JUMP JUMPDEST JUMPDEST PUSH2 0x1239 DUP7 DUP3 DUP8 ADD PUSH2 0x118A JUMP JUMPDEST SWAP2 POP POP SWAP3 POP SWAP3 POP SWAP3 JUMP JUMPDEST PUSH32 0x4E487B7100000000000000000000000000000000000000000000000000000000 PUSH1 0x0 MSTORE PUSH1 0x22 PUSH1 0x4 MSTORE PUSH1 0x24 PUSH1 0x0 REVERT JUMPDEST PUSH1 0x0 PUSH1 0x2 DUP3 DIV SWAP1 POP PUSH1 0x1 DUP3 AND DUP1 PUSH2 0x128A JUMPI PUSH1 0x7F DUP3 AND SWAP2 POP JUMPDEST PUSH1 0x20 DUP3 LT DUP2 EQ ISZERO PUSH2 0x129E JUMPI PUSH2 0x129D PUSH2 0x1243 JUMP JUMPDEST JUMPDEST POP SWAP2 SWAP1 POP JUMP JUMPDEST PUSH1 0x0 DUP2 SWAP1 POP SWAP3 SWAP2 POP POP JUMP JUMPDEST PUSH1 0x0 PUSH2 0x12BA DUP3 PUSH2 0xCAA JUMP JUMPDEST PUSH2 0x12C4 DUP2 DUP6 PUSH2 0x12A4 JUMP JUMPDEST SWAP4 POP PUSH2 0x12D4 DUP2 DUP6 PUSH1 0x20 DUP7 ADD PUSH2 0xCC6 JUMP JUMPDEST DUP1 DUP5 ADD SWAP2 POP POP SWAP3 SWAP2 POP POP JUMP JUMPDEST PUSH1 0x0 PUSH2 0x12EC DUP3 DUP5 PUSH2 0x12AF JUMP JUMPDEST SWAP2 POP DUP2 SWAP1 POP SWAP3 SWAP2 POP POP JUMP JUMPDEST PUSH32 0x4E487B7100000000000000000000000000000000000000000000000000000000 PUSH1 0x0 MSTORE PUSH1 0x11 PUSH1 0x4 MSTORE PUSH1 0x24 PUSH1 0x0 REVERT JUMPDEST PUSH1 0x0 PUSH2 0x1331 DUP3 PUSH2 0xEAE JUMP JUMPDEST SWAP2 POP PUSH2 0x133C DUP4 PUSH2 0xEAE JUMP JUMPDEST SWAP3 POP DUP3 PUSH32 0xFFFFFFFFFFFFFFFFFFFFFFFFFFFFFFFFFFFFFFFFFFFFFFFFFFFFFFFFFFFFFFFF SUB DUP3 GT ISZERO PUSH2 0x1371 JUMPI PUSH2 0x1370 PUSH2 0x12F7 JUMP JUMPDEST JUMPDEST DUP3 DUP3 ADD SWAP1 POP SWAP3 SWAP2 POP POP JUMP JUMPDEST PUSH1 0x0 PUSH2 0x1387 DUP3 PUSH2 0xEAE JUMP JUMPDEST SWAP2 POP PUSH32 0xFFFFFFFFFFFFFFFFFFFFFFFFFFFFFFFFFFFFFFFFFFFFFFFFFFFFFFFFFFFFFFFF DUP3 EQ ISZERO PUSH2 0x13BA JUMPI PUSH2 0x13B9 PUSH2 0x12F7 JUMP JUMPDEST JUMPDEST PUSH1 0x1 DUP3 ADD SWAP1 POP SWAP2 SWAP1 POP JUMP JUMPDEST PUSH32 0x4672616D654461746153746F72653A2045786365656465642032342C35373620 PUSH1 0x0 DUP3 ADD MSTORE PUSH32 0x6279746573206D617820636F6E74726163742073697A65000000000000000000 PUSH1 0x20 DUP3 ADD MSTORE POP JUMP JUMPDEST PUSH1 0x0 PUSH2 0x1421 PUSH1 0x37 DUP4 PUSH2 0xCB5 JUMP JUMPDEST SWAP2 POP PUSH2 0x142C DUP3 PUSH2 0x13C5 JUMP JUMPDEST PUSH1 0x40 DUP3 ADD SWAP1 POP SWAP2 SWAP1 POP JUMP JUMPDEST PUSH1 0x0 PUSH1 0x20 DUP3 ADD SWAP1 POP DUP2 DUP2 SUB PUSH1 0x0 DUP4 ADD MSTORE PUSH2 0x1450 DUP2 PUSH2 0x1414 JUMP JUMPDEST SWAP1 POP SWAP2 SWAP1 POP JUMP JUMPDEST PUSH1 0x0 PUSH2 0x1462 DUP3 PUSH2 0x10CF JUMP JUMPDEST SWAP2 POP PUSH2 0x146D DUP4 PUSH2 0x10CF JUMP JUMPDEST SWAP3 POP DUP3 DUP3 LT ISZERO PUSH2 0x1480 JUMPI PUSH2 0x147F PUSH2 0x12F7 JUMP JUMPDEST JUMPDEST DUP3 DUP3 SUB SWAP1 POP SWAP3 SWAP2 POP POP JUMP JUMPDEST PUSH32 0x4672616D654461746153746F72653A2043616E6E6F74206F7665727772697465 PUSH1 0x0 DUP3 ADD MSTORE PUSH32 0x206F7220736B6970207061676520666F72206B65790000000000000000000000 PUSH1 0x20 DUP3 ADD MSTORE POP JUMP JUMPDEST PUSH1 0x0 PUSH2 0x14E7 PUSH1 0x35 DUP4 PUSH2 0xCB5 JUMP JUMPDEST SWAP2 POP PUSH2 0x14F2 DUP3 PUSH2 0x148B JUMP JUMPDEST PUSH1 0x40 DUP3 ADD SWAP1 POP SWAP2 SWAP1 POP JUMP JUMPDEST PUSH1 0x0 PUSH1 0x20 DUP3 ADD SWAP1 POP DUP2 DUP2 SUB PUSH1 0x0 DUP4 ADD MSTORE PUSH2 0x1516 DUP2 PUSH2 0x14DA JUMP JUMPDEST SWAP1 POP SWAP2 SWAP1 POP JUMP JUMPDEST PUSH32 0x4672616D654461746153746F72653A20436F6E7472616374206C6F636B656400 PUSH1 0x0 DUP3 ADD MSTORE POP JUMP JUMPDEST PUSH1 0x0 PUSH2 0x1553 PUSH1 0x1F DUP4 PUSH2 0xCB5 JUMP JUMPDEST SWAP2 POP PUSH2 0x155E DUP3 PUSH2 0x151D JUMP JUMPDEST PUSH1 0x20 DUP3 ADD SWAP1 POP SWAP2 SWAP1 POP JUMP JUMPDEST PUSH1 0x0 PUSH1 0x20 DUP3 ADD SWAP1 POP DUP2 DUP2 SUB PUSH1 0x0 DUP4 ADD MSTORE PUSH2 0x1582 DUP2 PUSH2 0x1546 JUMP JUMPDEST SWAP1 POP SWAP2 SWAP1 POP JUMP JUMPDEST PUSH32 0x4E487B7100000000000000000000000000000000000000000000000000000000 PUSH1 0x0 MSTORE PUSH1 0x32 PUSH1 0x4 MSTORE PUSH1 0x24 PUSH1 0x0 REVERT JUMPDEST PUSH1 0x0 DUP2 SWAP1 POP SWAP3 SWAP2 POP POP JUMP JUMPDEST PUSH1 0x0 PUSH2 0x15CE DUP3 PUSH2 0xF53 JUMP JUMPDEST PUSH2 0x15D8 DUP2 DUP6 PUSH2 0x15B8 JUMP JUMPDEST SWAP4 POP PUSH2 0x15E8 DUP2 DUP6 PUSH1 0x20 DUP7 ADD PUSH2 0xCC6 JUMP JUMPDEST DUP1 DUP5 ADD SWAP2 POP POP SWAP3 SWAP2 POP POP JUMP JUMPDEST PUSH1 0x0 PUSH2 0x1600 DUP3 DUP6 PUSH2 0x15C3 JUMP JUMPDEST SWAP2 POP PUSH2 0x160C DUP3 DUP5 PUSH2 0x15C3 JUMP JUMPDEST SWAP2 POP DUP2 SWAP1 POP SWAP4 SWAP3 POP POP POP JUMP JUMPDEST PUSH32 0x4672616D654461746153746F72653A2056657273696F6E20616C726561647920 PUSH1 0x0 DUP3 ADD MSTORE PUSH32 0x7365740000000000000000000000000000000000000000000000000000000000 PUSH1 0x20 DUP3 ADD MSTORE POP JUMP JUMPDEST PUSH1 0x0 PUSH2 0x1674 PUSH1 0x23 DUP4 PUSH2 0xCB5 JUMP JUMPDEST SWAP2 POP PUSH2 0x167F DUP3 PUSH2 0x1618 JUMP JUMPDEST PUSH1 0x40 DUP3 ADD SWAP1 POP SWAP2 SWAP1 POP JUMP JUMPDEST PUSH1 0x0 PUSH1 0x20 DUP3 ADD SWAP1 POP DUP2 DUP2 SUB PUSH1 0x0 DUP4 ADD MSTORE PUSH2 0x16A3 DUP2 PUSH2 0x1667 JUMP JUMPDEST SWAP1 POP SWAP2 SWAP1 POP JUMP JUMPDEST PUSH32 0x4672616D654461746153746F72653A204E616D6520616C726561647920736574 PUSH1 0x0 DUP3 ADD MSTORE POP JUMP JUMPDEST PUSH1 0x0 PUSH2 0x16E0 PUSH1 0x20 DUP4 PUSH2 0xCB5 JUMP JUMPDEST SWAP2 POP PUSH2 0x16EB DUP3 PUSH2 0x16AA JUMP JUMPDEST PUSH1 0x20 DUP3 ADD SWAP1 POP SWAP2 SWAP1 POP JUMP JUMPDEST PUSH1 0x0 PUSH1 0x20 DUP3 ADD SWAP1 POP DUP2 DUP2 SUB PUSH1 0x0 DUP4 ADD MSTORE PUSH2 0x170F DUP2 PUSH2 0x16D3 JUMP JUMPDEST SWAP1 POP SWAP2 SWAP1 POP JUMP JUMPDEST PUSH32 0x4672616D654461746153746F72653A20436F6E747261637420616C7265616479 PUSH1 0x0 DUP3 ADD MSTORE PUSH32 0x206C6F636B656400000000000000000000000000000000000000000000000000 PUSH1 0x20 DUP3 ADD MSTORE POP JUMP JUMPDEST PUSH1 0x0 PUSH2 0x1772 PUSH1 0x27 DUP4 PUSH2 0xCB5 JUMP JUMPDEST SWAP2 POP PUSH2 0x177D DUP3 PUSH2 0x1716 JUMP JUMPDEST PUSH1 0x40 DUP3 ADD SWAP1 POP SWAP2 SWAP1 POP JUMP JUMPDEST PUSH1 0x0 PUSH1 0x20 DUP3 ADD SWAP1 POP DUP2 DUP2 SUB PUSH1 0x0 DUP4 ADD MSTORE PUSH2 0x17A1 DUP2 PUSH2 0x1765 JUMP JUMPDEST SWAP1 POP SWAP2 SWAP1 POP JUMP INVALID LOG2 PUSH5 0x6970667358 0x22 SLT KECCAK256 0xC9 DUP8 PUSH29 0x4E880A6A427DCC295FED3514F1240FFAF90C678DBE655804299ED4D28F PUSH5 0x736F6C6343 STOP ADDMOD 0xC STOP CALLER "
        },
        "methodIdentifiers": {
          "getAllDataFromPage(string,uint256)": "3a04f79b",
          "getData(string,uint256,uint256)": "11aa4cba",
          "getMaxPageNumber(string)": "d431a42f",
          "getSizeBetweenPages(string,uint256,uint256)": "208a43d3",
          "hasKey(string)": "332d3780",
          "isLocked()": "a4e2d634",
          "lock()": "f83d08ba",
          "name()": "06fdde03",
          "saveData(string,uint128,bytes)": "6af42a8c",
          "setName(string)": "c47f0027",
          "setVersion(string)": "788bc78c",
          "version()": "54fd4d50"
        }
      }
    }
  }
}