{"src/contracts/Frame.sol":{"Frame":{"abi":[{"inputs":[],"stateMutability":"nonpayable","type":"constructor"},{"anonymous":false,"inputs":[{"indexed":true,"internalType":"address","name":"owner","type":"address"},{"indexed":true,"internalType":"address","name":"approved","type":"address"},{"indexed":true,"internalType":"uint256","name":"tokenId","type":"uint256"}],"name":"Approval","type":"event"},{"anonymous":false,"inputs":[{"indexed":true,"internalType":"address","name":"owner","type":"address"},{"indexed":true,"internalType":"address","name":"operator","type":"address"},{"indexed":false,"internalType":"bool","name":"approved","type":"bool"}],"name":"ApprovalForAll","type":"event"},{"anonymous":false,"inputs":[{"indexed":true,"internalType":"address","name":"from","type":"address"},{"indexed":true,"internalType":"address","name":"to","type":"address"},{"indexed":true,"internalType":"uint256","name":"tokenId","type":"uint256"}],"name":"Transfer","type":"event"},{"inputs":[{"internalType":"address","name":"to","type":"address"},{"internalType":"uint256","name":"tokenId","type":"uint256"}],"name":"approve","outputs":[],"stateMutability":"nonpayable","type":"function"},{"inputs":[{"internalType":"address","name":"owner","type":"address"}],"name":"balanceOf","outputs":[{"internalType":"uint256","name":"","type":"uint256"}],"stateMutability":"view","type":"function"},{"inputs":[],"name":"bufferSize","outputs":[{"internalType":"uint256","name":"","type":"uint256"}],"stateMutability":"view","type":"function"},{"inputs":[{"internalType":"uint256","name":"tokenId","type":"uint256"}],"name":"getApproved","outputs":[{"internalType":"address","name":"","type":"address"}],"stateMutability":"view","type":"function"},{"inputs":[{"components":[{"internalType":"string","name":"encodedName","type":"string"},{"internalType":"string","name":"encodedDescription","type":"string"}],"internalType":"struct FrameMetadata","name":"_metadata","type":"tuple"},{"internalType":"address","name":"_scriptyBuilderAddress","type":"address"},{"internalType":"uint256","name":"_bufferSize","type":"uint256"},{"components":[{"internalType":"string","name":"name","type":"string"},{"internalType":"address","name":"contractAddress","type":"address"},{"internalType":"bytes","name":"contractData","type":"bytes"},{"internalType":"uint8","name":"wrapType","type":"uint8"},{"internalType":"bytes","name":"wrapPrefix","type":"bytes"},{"internalType":"bytes","name":"wrapSuffix","type":"bytes"},{"internalType":"bytes","name":"scriptContent","type":"bytes"}],"internalType":"struct WrappedScriptRequest[]","name":"_requests","type":"tuple[]"}],"name":"init","outputs":[],"stateMutability":"nonpayable","type":"function"},{"inputs":[],"name":"initialized","outputs":[{"internalType":"bool","name":"","type":"bool"}],"stateMutability":"view","type":"function"},{"inputs":[{"internalType":"address","name":"owner","type":"address"},{"internalType":"address","name":"operator","type":"address"}],"name":"isApprovedForAll","outputs":[{"internalType":"bool","name":"","type":"bool"}],"stateMutability":"view","type":"function"},{"inputs":[{"internalType":"address","name":"_owner","type":"address"}],"name":"mintForOwner","outputs":[],"stateMutability":"nonpayable","type":"function"},{"inputs":[],"name":"minted","outputs":[{"internalType":"bool","name":"","type":"bool"}],"stateMutability":"view","type":"function"},{"inputs":[],"name":"name","outputs":[{"internalType":"string","name":"","type":"string"}],"stateMutability":"view","type":"function"},{"inputs":[{"internalType":"uint256","name":"tokenId","type":"uint256"}],"name":"ownerOf","outputs":[{"internalType":"address","name":"","type":"address"}],"stateMutability":"view","type":"function"},{"inputs":[{"internalType":"uint256","name":"","type":"uint256"}],"name":"requests","outputs":[{"internalType":"string","name":"name","type":"string"},{"internalType":"address","name":"contractAddress","type":"address"},{"internalType":"bytes","name":"contractData","type":"bytes"},{"internalType":"uint8","name":"wrapType","type":"uint8"},{"internalType":"bytes","name":"wrapPrefix","type":"bytes"},{"internalType":"bytes","name":"wrapSuffix","type":"bytes"},{"internalType":"bytes","name":"scriptContent","type":"bytes"}],"stateMutability":"view","type":"function"},{"inputs":[{"internalType":"address","name":"from","type":"address"},{"internalType":"address","name":"to","type":"address"},{"internalType":"uint256","name":"tokenId","type":"uint256"}],"name":"safeTransferFrom","outputs":[],"stateMutability":"nonpayable","type":"function"},{"inputs":[{"internalType":"address","name":"from","type":"address"},{"internalType":"address","name":"to","type":"address"},{"internalType":"uint256","name":"tokenId","type":"uint256"},{"internalType":"bytes","name":"data","type":"bytes"}],"name":"safeTransferFrom","outputs":[],"stateMutability":"nonpayable","type":"function"},{"inputs":[],"name":"scriptyBuilderAddress","outputs":[{"internalType":"address","name":"","type":"address"}],"stateMutability":"view","type":"function"},{"inputs":[{"internalType":"address","name":"operator","type":"address"},{"internalType":"bool","name":"approved","type":"bool"}],"name":"setApprovalForAll","outputs":[],"stateMutability":"nonpayable","type":"function"},{"inputs":[{"internalType":"string","name":"nameString","type":"string"}],"name":"setName","outputs":[],"stateMutability":"nonpayable","type":"function"},{"inputs":[{"internalType":"string","name":"symbolString","type":"string"}],"name":"setSymbol","outputs":[],"stateMutability":"nonpayable","type":"function"},{"inputs":[{"internalType":"bytes4","name":"interfaceId","type":"bytes4"}],"name":"supportsInterface","outputs":[{"internalType":"bool","name":"","type":"bool"}],"stateMutability":"view","type":"function"},{"inputs":[],"name":"symbol","outputs":[{"internalType":"string","name":"","type":"string"}],"stateMutability":"view","type":"function"},{"inputs":[{"internalType":"uint256","name":"","type":"uint256"}],"name":"tokenURI","outputs":[{"internalType":"string","name":"","type":"string"}],"stateMutability":"view","type":"function"},{"inputs":[{"internalType":"address","name":"from","type":"address"},{"internalType":"address","name":"to","type":"address"},{"internalType":"uint256","name":"tokenId","type":"uint256"}],"name":"transferFrom","outputs":[],"stateMutability":"nonpayable","type":"function"},{"inputs":[],"name":"urlEncodedDesc","outputs":[{"internalType":"string","name":"","type":"string"}],"stateMutability":"view","type":"function"},{"inputs":[],"name":"urlEncodedName","outputs":[{"internalType":"string","name":"","type":"string"}],"stateMutability":"view","type":"function"}],"evm":{"bytecode":{"linkReferences":{},"object":"608060405234801561001057600080fd5b50613e66806100206000396000f3fe608060405234801561001057600080fd5b50600436106101585760003560e01c806370a08231116100c3578063b84c82461161007c578063b84c8246146103cd578063b88d4fde146103e9578063c47f002714610405578063c87b56dd14610421578063e3b71f8714610451578063e985e9c51461046f57610158565b806370a08231146102f357806381d12c581461032357806395d89b41146103595780639c2c770b14610377578063a22cb46514610395578063a50d81c7146103b157610158565b806332032db51161011557806332032db51461023157806342842e0e1461024f5780634e1971511461026b5780634f02c420146102875780636352211e146102a55780636eaa1afe146102d557610158565b806301ffc9a71461015d57806306fdde031461018d578063081812fc146101ab578063095ea7b3146101db578063158ef93e146101f757806323b872dd14610215575b600080fd5b610177600480360381019061017291906120ac565b61049f565b60405161018491906120f4565b60405180910390f35b610195610581565b6040516101a2919061219f565b60405180910390f35b6101c560048036038101906101c091906121f7565b610613565b6040516101d29190612265565b60405180910390f35b6101f560048036038101906101f091906122ac565b610659565b005b6101ff610770565b60405161020c91906120f4565b60405180910390f35b61022f600480360381019061022a91906122ec565b610783565b005b6102396107e3565b604051610246919061219f565b60405180910390f35b610269600480360381019061026491906122ec565b610871565b005b610285600480360381019061028091906123c8565b610891565b005b61028f610a0b565b60405161029c91906120f4565b60405180910390f35b6102bf60048036038101906102ba91906121f7565b610a1e565b6040516102cc9190612265565b60405180910390f35b6102dd610aa4565b6040516102ea919061219f565b60405180910390f35b61030d6004803603810190610308919061246c565b610b32565b60405161031a91906124a8565b60405180910390f35b61033d600480360381019061033891906121f7565b610be9565b6040516103509796959493929190612534565b60405180910390f35b610361610f10565b60405161036e919061219f565b60405180910390f35b61037f610fa2565b60405161038c91906124a8565b60405180910390f35b6103af60048036038101906103aa91906125f2565b610fa8565b005b6103cb60048036038101906103c6919061246c565b610fbe565b005b6103e760048036038101906103e29190612762565b611037565b005b61040360048036038101906103fe919061284c565b61109b565b005b61041f600480360381019061041a9190612762565b6110fd565b005b61043b600480360381019061043691906121f7565b611160565b604051610448919061219f565b60405180910390f35b6104596111ba565b6040516104669190612265565b60405180910390f35b610489600480360381019061048491906128cf565b6111e0565b60405161049691906120f4565b60405180910390f35b60007ffc9fdaac000000000000000000000000000000000000000000000000000000007bffffffffffffffffffffffffffffffffffffffffffffffffffffffff1916827bffffffffffffffffffffffffffffffffffffffffffffffffffffffff1916148061056a57507f5b5e139f000000000000000000000000000000000000000000000000000000007bffffffffffffffffffffffffffffffffffffffffffffffffffffffff1916827bffffffffffffffffffffffffffffffffffffffffffffffffffffffff1916145b8061057a575061057982611274565b5b9050919050565b6060600080546105909061293e565b80601f01602080910402602001604051908101604052809291908181526020018280546105bc9061293e565b80156106095780601f106105de57610100808354040283529160200191610609565b820191906000526020600020905b8154815290600101906020018083116105ec57829003601f168201915b5050505050905090565b600061061e826112de565b6004600083815260200190815260200160002060009054906101000a900473ffffffffffffffffffffffffffffffffffffffff169050919050565b600061066482610a1e565b90508073ffffffffffffffffffffffffffffffffffffffff168373ffffffffffffffffffffffffffffffffffffffff16036106d4576040517f08c379a00000000000000000000000000000000000000000000000000000000081526004016106cb906129e1565b60405180910390fd5b8073ffffffffffffffffffffffffffffffffffffffff166106f3611329565b73ffffffffffffffffffffffffffffffffffffffff16148061072257506107218161071c611329565b6111e0565b5b610761576040517f08c379a000000000000000000000000000000000000000000000000000000000815260040161075890612a99565b60405180910390fd5b61076b8383611331565b505050565b600660009054906101000a900460ff1681565b61079461078e611329565b826113ea565b6107d3576040517f08c379a00000000000000000000000000000000000000000000000000000000081526004016107ca90612b2b565b60405180910390fd5b6107de83838361147f565b505050565b600780546107f09061293e565b80601f016020809104026020016040519081016040528092919081815260200182805461081c9061293e565b80156108695780601f1061083e57610100808354040283529160200191610869565b820191906000526020600020905b81548152906001019060200180831161084c57829003601f168201915b505050505081565b61088c8383836040518060200160405280600081525061109b565b505050565b600660009054906101000a900460ff16156108e1576040517f08c379a00000000000000000000000000000000000000000000000000000000081526004016108d890612b97565b60405180910390fd5b8480600001906108f19190612bc6565b60079182610900929190612de0565b508480602001906109119190612bc6565b60089182610920929190612de0565b5083600960006101000a81548173ffffffffffffffffffffffffffffffffffffffff021916908373ffffffffffffffffffffffffffffffffffffffff16021790555082600a8190555060005b828290508110156109e857600b83838381811061098c5761098b612eb0565b5b905060200281019061099e9190612edf565b908060018154018082558091505060019003906000526020600020906007020160009091909190915081816109d39190613316565b505080806109e090613353565b91505061096c565b506001600660006101000a81548160ff0219169083151502179055505050505050565b600660019054906101000a900460ff1681565b600080610a2a83611778565b9050600073ffffffffffffffffffffffffffffffffffffffff168173ffffffffffffffffffffffffffffffffffffffff1603610a9b576040517f08c379a0000000000000000000000000000000000000000000000000000000008152600401610a929061340d565b60405180910390fd5b80915050919050565b60088054610ab19061293e565b80601f0160208091040260200160405190810160405280929190818152602001828054610add9061293e565b8015610b2a5780601f10610aff57610100808354040283529160200191610b2a565b820191906000526020600020905b815481529060010190602001808311610b0d57829003601f168201915b505050505081565b60008073ffffffffffffffffffffffffffffffffffffffff168273ffffffffffffffffffffffffffffffffffffffff1603610ba2576040517f08c379a0000000000000000000000000000000000000000000000000000000008152600401610b999061349f565b60405180910390fd5b600360008373ffffffffffffffffffffffffffffffffffffffff1673ffffffffffffffffffffffffffffffffffffffff168152602001908152602001600020549050919050565b600b8181548110610bf957600080fd5b9060005260206000209060070201600091509050806000018054610c1c9061293e565b80601f0160208091040260200160405190810160405280929190818152602001828054610c489061293e565b8015610c955780601f10610c6a57610100808354040283529160200191610c95565b820191906000526020600020905b815481529060010190602001808311610c7857829003601f168201915b5050505050908060010160009054906101000a900473ffffffffffffffffffffffffffffffffffffffff1690806002018054610cd09061293e565b80601f0160208091040260200160405190810160405280929190818152602001828054610cfc9061293e565b8015610d495780601f10610d1e57610100808354040283529160200191610d49565b820191906000526020600020905b815481529060010190602001808311610d2c57829003601f168201915b5050505050908060030160009054906101000a900460ff1690806004018054610d719061293e565b80601f0160208091040260200160405190810160405280929190818152602001828054610d9d9061293e565b8015610dea5780601f10610dbf57610100808354040283529160200191610dea565b820191906000526020600020905b815481529060010190602001808311610dcd57829003601f168201915b505050505090806005018054610dff9061293e565b80601f0160208091040260200160405190810160405280929190818152602001828054610e2b9061293e565b8015610e785780601f10610e4d57610100808354040283529160200191610e78565b820191906000526020600020905b815481529060010190602001808311610e5b57829003601f168201915b505050505090806006018054610e8d9061293e565b80601f0160208091040260200160405190810160405280929190818152602001828054610eb99061293e565b8015610f065780601f10610edb57610100808354040283529160200191610f06565b820191906000526020600020905b815481529060010190602001808311610ee957829003601f168201915b5050505050905087565b606060018054610f1f9061293e565b80601f0160208091040260200160405190810160405280929190818152602001828054610f4b9061293e565b8015610f985780601f10610f6d57610100808354040283529160200191610f98565b820191906000526020600020905b815481529060010190602001808311610f7b57829003601f168201915b5050505050905090565b600a5481565b610fba610fb3611329565b83836117b5565b5050565b600660019054906101000a900460ff161561100e576040517f08c379a00000000000000000000000000000000000000000000000000000000081526004016110059061350b565b60405180910390fd5b611019816000611921565b6001600660016101000a81548160ff02191690831515021790555050565b6000600180546110469061293e565b905014611088576040517f08c379a000000000000000000000000000000000000000000000000000000000815260040161107f9061359d565b60405180910390fd5b806001908161109791906135bd565b5050565b6110ac6110a6611329565b836113ea565b6110eb576040517f08c379a00000000000000000000000000000000000000000000000000000000081526004016110e290612b2b565b60405180910390fd5b6110f78484848461193f565b50505050565b600080805461110b9061293e565b90501461114d576040517f08c379a000000000000000000000000000000000000000000000000000000000815260040161114490613701565b60405180910390fd5b806000908161115c91906135bd565b5050565b60606000600760086040516020016111799291906138df565b60405160208183030381529060405290506111938161199b565b6040516020016111a391906139ac565b604051602081830303815290604052915050919050565b600960009054906101000a900473ffffffffffffffffffffffffffffffffffffffff1681565b6000600560008473ffffffffffffffffffffffffffffffffffffffff1673ffffffffffffffffffffffffffffffffffffffff16815260200190815260200160002060008373ffffffffffffffffffffffffffffffffffffffff1673ffffffffffffffffffffffffffffffffffffffff16815260200190815260200160002060009054906101000a900460ff16905092915050565b60007f01ffc9a7000000000000000000000000000000000000000000000000000000007bffffffffffffffffffffffffffffffffffffffffffffffffffffffff1916827bffffffffffffffffffffffffffffffffffffffffffffffffffffffff1916149050919050565b6112e7816119b0565b611326576040517f08c379a000000000000000000000000000000000000000000000000000000000815260040161131d9061340d565b60405180910390fd5b50565b600033905090565b816004600083815260200190815260200160002060006101000a81548173ffffffffffffffffffffffffffffffffffffffff021916908373ffffffffffffffffffffffffffffffffffffffff160217905550808273ffffffffffffffffffffffffffffffffffffffff166113a483610a1e565b73ffffffffffffffffffffffffffffffffffffffff167f8c5be1e5ebec7d5bd14f71427d1e84f3dd0314c0f7b2291e5b200ac8c7c3b92560405160405180910390a45050565b6000806113f683610a1e565b90508073ffffffffffffffffffffffffffffffffffffffff168473ffffffffffffffffffffffffffffffffffffffff161480611438575061143781856111e0565b5b8061147657508373ffffffffffffffffffffffffffffffffffffffff1661145e84610613565b73ffffffffffffffffffffffffffffffffffffffff16145b91505092915050565b8273ffffffffffffffffffffffffffffffffffffffff1661149f82610a1e565b73ffffffffffffffffffffffffffffffffffffffff16146114f5576040517f08c379a00000000000000000000000000000000000000000000000000000000081526004016114ec90613a40565b60405180910390fd5b600073ffffffffffffffffffffffffffffffffffffffff168273ffffffffffffffffffffffffffffffffffffffff1603611564576040517f08c379a000000000000000000000000000000000000000000000000000000000815260040161155b90613ad2565b60405180910390fd5b61157183838360016119f1565b8273ffffffffffffffffffffffffffffffffffffffff1661159182610a1e565b73ffffffffffffffffffffffffffffffffffffffff16146115e7576040517f08c379a00000000000000000000000000000000000000000000000000000000081526004016115de90613a40565b60405180910390fd5b6004600082815260200190815260200160002060006101000a81549073ffffffffffffffffffffffffffffffffffffffff02191690556001600360008573ffffffffffffffffffffffffffffffffffffffff1673ffffffffffffffffffffffffffffffffffffffff168152602001908152602001600020600082825403925050819055506001600360008473ffffffffffffffffffffffffffffffffffffffff1673ffffffffffffffffffffffffffffffffffffffff16815260200190815260200160002060008282540192505081905550816002600083815260200190815260200160002060006101000a81548173ffffffffffffffffffffffffffffffffffffffff021916908373ffffffffffffffffffffffffffffffffffffffff160217905550808273ffffffffffffffffffffffffffffffffffffffff168473ffffffffffffffffffffffffffffffffffffffff167fddf252ad1be2c89b69c2b068fc378daa952ba7f163c4a11628f55a4df523b3ef60405160405180910390a46117738383836001611b17565b505050565b60006002600083815260200190815260200160002060009054906101000a900473ffffffffffffffffffffffffffffffffffffffff169050919050565b8173ffffffffffffffffffffffffffffffffffffffff168373ffffffffffffffffffffffffffffffffffffffff1603611823576040517f08c379a000000000000000000000000000000000000000000000000000000000815260040161181a90613b64565b60405180910390fd5b80600560008573ffffffffffffffffffffffffffffffffffffffff1673ffffffffffffffffffffffffffffffffffffffff16815260200190815260200160002060008473ffffffffffffffffffffffffffffffffffffffff1673ffffffffffffffffffffffffffffffffffffffff16815260200190815260200160002060006101000a81548160ff0219169083151502179055508173ffffffffffffffffffffffffffffffffffffffff168373ffffffffffffffffffffffffffffffffffffffff167f17307eab39ab6107e8899845ad3d59bd9653f200f220920489ca2b5937696c318360405161191491906120f4565b60405180910390a3505050565b61193b828260405180602001604052806000815250611b1d565b5050565b61194a84848461147f565b61195684848484611b78565b611995576040517f08c379a000000000000000000000000000000000000000000000000000000000815260040161198c90613bf6565b60405180910390fd5b50505050565b60606119a982600080611cff565b9050919050565b60008073ffffffffffffffffffffffffffffffffffffffff166119d283611778565b73ffffffffffffffffffffffffffffffffffffffff1614159050919050565b6001811115611b1157600073ffffffffffffffffffffffffffffffffffffffff168473ffffffffffffffffffffffffffffffffffffffff1614611a855780600360008673ffffffffffffffffffffffffffffffffffffffff1673ffffffffffffffffffffffffffffffffffffffff1681526020019081526020016000206000828254611a7d9190613c16565b925050819055505b600073ffffffffffffffffffffffffffffffffffffffff168373ffffffffffffffffffffffffffffffffffffffff1614611b105780600360008573ffffffffffffffffffffffffffffffffffffffff1673ffffffffffffffffffffffffffffffffffffffff1681526020019081526020016000206000828254611b089190613c4a565b925050819055505b5b50505050565b50505050565b611b278383611e00565b611b346000848484611b78565b611b73576040517f08c379a0000000000000000000000000000000000000000000000000000000008152600401611b6a90613bf6565b60405180910390fd5b505050565b6000611b998473ffffffffffffffffffffffffffffffffffffffff1661201d565b15611cf2578373ffffffffffffffffffffffffffffffffffffffff1663150b7a02611bc2611329565b8786866040518563ffffffff1660e01b8152600401611be49493929190613c7e565b6020604051808303816000875af1925050508015611c2057506040513d601f19601f82011682018060405250810190611c1d9190613cdf565b60015b611ca2573d8060008114611c50576040519150601f19603f3d011682016040523d82523d6000602084013e611c55565b606091505b506000815103611c9a576040517f08c379a0000000000000000000000000000000000000000000000000000000008152600401611c9190613bf6565b60405180910390fd5b805181602001fd5b63150b7a0260e01b7bffffffffffffffffffffffffffffffffffffffffffffffffffffffff1916817bffffffffffffffffffffffffffffffffffffffffffffffffffffffff191614915050611cf7565b600190505b949350505050565b606083518015611df8576003600282010460021b60405192507f4142434445464748494a4b4c4d4e4f505152535455565758595a616263646566601f526102308515027f6768696a6b6c6d6e6f707172737475767778797a303132333435363738392d5f03603f52602083018181015b600115611dc5576003880197508751603f8160121c1651600053603f81600c1c1651600153603f8160061c1651600253603f8116516003536000518352600483019250818310611dbf5750611dc5565b50611d6f565b601f19601f82011660405260038406600204613d3d60f01b81840352808715150290506000818403528084038652505050505b509392505050565b600073ffffffffffffffffffffffffffffffffffffffff168273ffffffffffffffffffffffffffffffffffffffff1603611e6f576040517f08c379a0000000000000000000000000000000000000000000000000000000008152600401611e6690613d7e565b60405180910390fd5b611e78816119b0565b15611eb8576040517f08c379a0000000000000000000000000000000000000000000000000000000008152600401611eaf90613e10565b60405180910390fd5b611ec66000838360016119f1565b611ecf816119b0565b15611f0f576040517f08c379a0000000000000000000000000000000000000000000000000000000008152600401611f0690613e10565b60405180910390fd5b6001600360008473ffffffffffffffffffffffffffffffffffffffff1673ffffffffffffffffffffffffffffffffffffffff16815260200190815260200160002060008282540192505081905550816002600083815260200190815260200160002060006101000a81548173ffffffffffffffffffffffffffffffffffffffff021916908373ffffffffffffffffffffffffffffffffffffffff160217905550808273ffffffffffffffffffffffffffffffffffffffff16600073ffffffffffffffffffffffffffffffffffffffff167fddf252ad1be2c89b69c2b068fc378daa952ba7f163c4a11628f55a4df523b3ef60405160405180910390a4612019600083836001611b17565b5050565b6000808273ffffffffffffffffffffffffffffffffffffffff163b119050919050565b6000604051905090565b600080fd5b600080fd5b60007fffffffff0000000000000000000000000000000000000000000000000000000082169050919050565b61208981612054565b811461209457600080fd5b50565b6000813590506120a681612080565b92915050565b6000602082840312156120c2576120c161204a565b5b60006120d084828501612097565b91505092915050565b60008115159050919050565b6120ee816120d9565b82525050565b600060208201905061210960008301846120e5565b92915050565b600081519050919050565b600082825260208201905092915050565b60005b8381101561214957808201518184015260208101905061212e565b60008484015250505050565b6000601f19601f8301169050919050565b60006121718261210f565b61217b818561211a565b935061218b81856020860161212b565b61219481612155565b840191505092915050565b600060208201905081810360008301526121b98184612166565b905092915050565b6000819050919050565b6121d4816121c1565b81146121df57600080fd5b50565b6000813590506121f1816121cb565b92915050565b60006020828403121561220d5761220c61204a565b5b600061221b848285016121e2565b91505092915050565b600073ffffffffffffffffffffffffffffffffffffffff82169050919050565b600061224f82612224565b9050919050565b61225f81612244565b82525050565b600060208201905061227a6000830184612256565b92915050565b61228981612244565b811461229457600080fd5b50565b6000813590506122a681612280565b92915050565b600080604083850312156122c3576122c261204a565b5b60006122d185828601612297565b92505060206122e2858286016121e2565b9150509250929050565b6000806000606084860312156123055761230461204a565b5b600061231386828701612297565b935050602061232486828701612297565b9250506040612335868287016121e2565b9150509250925092565b600080fd5b60006040828403121561235a5761235961233f565b5b81905092915050565b600080fd5b600080fd5b600080fd5b60008083601f84011261238857612387612363565b5b8235905067ffffffffffffffff8111156123a5576123a4612368565b5b6020830191508360208202830111156123c1576123c061236d565b5b9250929050565b6000806000806000608086880312156123e4576123e361204a565b5b600086013567ffffffffffffffff8111156124025761240161204f565b5b61240e88828901612344565b955050602061241f88828901612297565b9450506040612430888289016121e2565b935050606086013567ffffffffffffffff8111156124515761245061204f565b5b61245d88828901612372565b92509250509295509295909350565b6000602082840312156124825761248161204a565b5b600061249084828501612297565b91505092915050565b6124a2816121c1565b82525050565b60006020820190506124bd6000830184612499565b92915050565b600081519050919050565b600082825260208201905092915050565b60006124ea826124c3565b6124f481856124ce565b935061250481856020860161212b565b61250d81612155565b840191505092915050565b600060ff82169050919050565b61252e81612518565b82525050565b600060e082019050818103600083015261254e818a612166565b905061255d6020830189612256565b818103604083015261256f81886124df565b905061257e6060830187612525565b818103608083015261259081866124df565b905081810360a08301526125a481856124df565b905081810360c08301526125b881846124df565b905098975050505050505050565b6125cf816120d9565b81146125da57600080fd5b50565b6000813590506125ec816125c6565b92915050565b600080604083850312156126095761260861204a565b5b600061261785828601612297565b9250506020612628858286016125dd565b9150509250929050565b600080fd5b7f4e487b7100000000000000000000000000000000000000000000000000000000600052604160045260246000fd5b61266f82612155565b810181811067ffffffffffffffff8211171561268e5761268d612637565b5b80604052505050565b60006126a1612040565b90506126ad8282612666565b919050565b600067ffffffffffffffff8211156126cd576126cc612637565b5b6126d682612155565b9050602081019050919050565b82818337600083830152505050565b6000612705612700846126b2565b612697565b90508281526020810184848401111561272157612720612632565b5b61272c8482856126e3565b509392505050565b600082601f83011261274957612748612363565b5b81356127598482602086016126f2565b91505092915050565b6000602082840312156127785761277761204a565b5b600082013567ffffffffffffffff8111156127965761279561204f565b5b6127a284828501612734565b91505092915050565b600067ffffffffffffffff8211156127c6576127c5612637565b5b6127cf82612155565b9050602081019050919050565b60006127ef6127ea846127ab565b612697565b90508281526020810184848401111561280b5761280a612632565b5b6128168482856126e3565b509392505050565b600082601f83011261283357612832612363565b5b81356128438482602086016127dc565b91505092915050565b600080600080608085870312156128665761286561204a565b5b600061287487828801612297565b945050602061288587828801612297565b9350506040612896878288016121e2565b925050606085013567ffffffffffffffff8111156128b7576128b661204f565b5b6128c38782880161281e565b91505092959194509250565b600080604083850312156128e6576128e561204a565b5b60006128f485828601612297565b925050602061290585828601612297565b9150509250929050565b7f4e487b7100000000000000000000000000000000000000000000000000000000600052602260045260246000fd5b6000600282049050600182168061295657607f821691505b6020821081036129695761296861290f565b5b50919050565b7f455243373231436c6f6e6561626c653a20617070726f76616c20746f2063757260008201527f72656e74206f776e657200000000000000000000000000000000000000000000602082015250565b60006129cb602a8361211a565b91506129d68261296f565b604082019050919050565b600060208201905081810360008301526129fa816129be565b9050919050565b7f455243373231436c6f6e6561626c653a20617070726f76652063616c6c65722060008201527f6973206e6f7420746f6b656e206f776e6572206f7220617070726f766564206660208201527f6f7220616c6c0000000000000000000000000000000000000000000000000000604082015250565b6000612a8360468361211a565b9150612a8e82612a01565b606082019050919050565b60006020820190508181036000830152612ab281612a76565b9050919050565b7f455243373231436c6f6e6561626c653a2063616c6c6572206973206e6f74207460008201527f6f6b656e206f776e6572206f7220617070726f76656400000000000000000000602082015250565b6000612b1560368361211a565b9150612b2082612ab9565b604082019050919050565b60006020820190508181036000830152612b4481612b08565b9050919050565b7f4672616d653a20616c726561647920696e697469616c697a6564000000000000600082015250565b6000612b81601a8361211a565b9150612b8c82612b4b565b602082019050919050565b60006020820190508181036000830152612bb081612b74565b9050919050565b600080fd5b600080fd5b600080fd5b60008083356001602003843603038112612be357612be2612bb7565b5b80840192508235915067ffffffffffffffff821115612c0557612c04612bbc565b5b602083019250600182023603831315612c2157612c20612bc1565b5b509250929050565b600082905092915050565b60008190508160005260206000209050919050565b60006020601f8301049050919050565b600082821b905092915050565b600060088302612c967fffffffffffffffffffffffffffffffffffffffffffffffffffffffffffffffff82612c59565b612ca08683612c59565b95508019841693508086168417925050509392505050565b6000819050919050565b6000612cdd612cd8612cd3846121c1565b612cb8565b6121c1565b9050919050565b6000819050919050565b612cf783612cc2565b612d0b612d0382612ce4565b848454612c66565b825550505050565b600090565b612d20612d13565b612d2b818484612cee565b505050565b5b81811015612d4f57612d44600082612d18565b600181019050612d31565b5050565b601f821115612d9457612d6581612c34565b612d6e84612c49565b81016020851015612d7d578190505b612d91612d8985612c49565b830182612d30565b50505b505050565b600082821c905092915050565b6000612db760001984600802612d99565b1980831691505092915050565b6000612dd08383612da6565b9150826002028217905092915050565b612dea8383612c29565b67ffffffffffffffff811115612e0357612e02612637565b5b612e0d825461293e565b612e18828285612d53565b6000601f831160018114612e475760008415612e35578287013590505b612e3f8582612dc4565b865550612ea7565b601f198416612e5586612c34565b60005b82811015612e7d57848901358255600182019150602085019450602081019050612e58565b86831015612e9a5784890135612e96601f891682612da6565b8355505b6001600288020188555050505b50505050505050565b7f4e487b7100000000000000000000000000000000000000000000000000000000600052603260045260246000fd5b60008235600160e003833603038112612efb57612efa612bb7565b5b80830191505092915050565b612f12838383612de0565b505050565b60008135612f2481612280565b80915050919050565b60008160001b9050919050565b600073ffffffffffffffffffffffffffffffffffffffff612f5a84612f2d565b9350801983169250808416831791505092915050565b6000612f8b612f86612f8184612224565b612cb8565b612224565b9050919050565b6000612f9d82612f70565b9050919050565b6000612faf82612f92565b9050919050565b6000819050919050565b612fc982612fa4565b612fdc612fd582612fb6565b8354612f3a565b8255505050565b6000808335600160200384360303811261300057612fff612bb7565b5b80840192508235915067ffffffffffffffff82111561302257613021612bbc565b5b60208301925060018202360383131561303e5761303d612bc1565b5b509250929050565b600082905092915050565b60008190508160005260206000209050919050565b601f8211156130a75761307881613051565b61308184612c49565b81016020851015613090578190505b6130a461309c85612c49565b830182612d30565b50505b505050565b6130b68383613046565b67ffffffffffffffff8111156130cf576130ce612637565b5b6130d9825461293e565b6130e4828285613066565b6000601f8311600181146131135760008415613101578287013590505b61310b8582612dc4565b865550613173565b601f19841661312186613051565b60005b8281101561314957848901358255600182019150602085019450602081019050613124565b868310156131665784890135613162601f891682612da6565b8355505b6001600288020188555050505b50505050505050565b6131878383836130ac565b505050565b61319581612518565b81146131a057600080fd5b50565b600081356131b08161318c565b80915050919050565b600060ff6131c684612f2d565b9350801983169250808416831791505092915050565b60006131f76131f26131ed84612518565b612cb8565b612518565b9050919050565b6000819050919050565b613211826131dc565b61322461321d826131fe565b83546131b9565b8255505050565b600081016000830161323d8185612bc6565b613248818386612f07565b5050505060018101602083018061325e81612f17565b905061326a8184612fc0565b505050600281016040830161327f8185612fe3565b61328a81838661317c565b505050506003810160608301806132a0816131a3565b90506132ac8184613208565b50505060048101608083016132c18185612fe3565b6132cc81838661317c565b505050506005810160a083016132e28185612fe3565b6132ed81838661317c565b505050506006810160c083016133038185612fe3565b61330e81838661317c565b505050505050565b613320828261322b565b5050565b7f4e487b7100000000000000000000000000000000000000000000000000000000600052601160045260246000fd5b600061335e826121c1565b91507fffffffffffffffffffffffffffffffffffffffffffffffffffffffffffffffff82036133905761338f613324565b5b600182019050919050565b7f455243373231436c6f6e6561626c653a20696e76616c696420746f6b656e204960008201527f4400000000000000000000000000000000000000000000000000000000000000602082015250565b60006133f760218361211a565b91506134028261339b565b604082019050919050565b60006020820190508181036000830152613426816133ea565b9050919050565b7f455243373231436c6f6e6561626c653a2061646472657373207a65726f20697360008201527f206e6f7420612076616c6964206f776e65720000000000000000000000000000602082015250565b600061348960328361211a565b91506134948261342d565b604082019050919050565b600060208201905081810360008301526134b88161347c565b9050919050565b7f4672616d653a20416c7265616479206d696e7465640000000000000000000000600082015250565b60006134f560158361211a565b9150613500826134bf565b602082019050919050565b60006020820190508181036000830152613524816134e8565b9050919050565b7f455243373231436c6f6e6561626c653a2073796d626f6c20616c72656164792060008201527f7365740000000000000000000000000000000000000000000000000000000000602082015250565b600061358760238361211a565b91506135928261352b565b604082019050919050565b600060208201905081810360008301526135b68161357a565b9050919050565b6135c68261210f565b67ffffffffffffffff8111156135df576135de612637565b5b6135e9825461293e565b6135f4828285612d53565b600060209050601f8311600181146136275760008415613615578287015190505b61361f8582612dc4565b865550613687565b601f19841661363586612c34565b60005b8281101561365d57848901518255600182019150602085019450602081019050613638565b8683101561367a5784890151613676601f891682612da6565b8355505b6001600288020188555050505b505050505050565b7f455243373231436c6f6e6561626c653a206e616d6520616c726561647920736560008201527f7400000000000000000000000000000000000000000000000000000000000000602082015250565b60006136eb60218361211a565b91506136f68261368f565b604082019050919050565b6000602082019050818103600083015261371a816136de565b9050919050565b600081905092915050565b7f7b226e616d65223a220000000000000000000000000000000000000000000000600082015250565b6000613762600983613721565b915061376d8261372c565b600982019050919050565b600081546137858161293e565b61378f8186613721565b945060018216600081146137aa57600181146137bf576137f2565b60ff19831686528115158202860193506137f2565b6137c885612c34565b60005b838110156137ea578154818901526001820191506020810190506137cb565b838801955050505b50505092915050565b7f222c20226465736372697074696f6e223a220000000000000000000000000000600082015250565b6000613831601283613721565b915061383c826137fb565b601282019050919050565b7f222c22616e696d6174696f6e5f75726c223a0000000000000000000000000000600082015250565b600061387d601283613721565b915061388882613847565b601282019050919050565b7f227d000000000000000000000000000000000000000000000000000000000000600082015250565b60006138c9600283613721565b91506138d482613893565b600282019050919050565b60006138ea82613755565b91506138f68285613778565b915061390182613824565b915061390d8284613778565b915061391882613870565b9150613923826138bc565b91508190509392505050565b7f646174613a6170706c69636174696f6e2f6a736f6e3b6261736536342c000000600082015250565b6000613965601d83613721565b91506139708261392f565b601d82019050919050565b60006139868261210f565b6139908185613721565b93506139a081856020860161212b565b80840191505092915050565b60006139b782613958565b91506139c3828461397b565b915081905092915050565b7f455243373231436c6f6e6561626c653a207472616e736665722066726f6d206960008201527f6e636f7272656374206f776e6572000000000000000000000000000000000000602082015250565b6000613a2a602e8361211a565b9150613a35826139ce565b604082019050919050565b60006020820190508181036000830152613a5981613a1d565b9050919050565b7f455243373231436c6f6e6561626c653a207472616e7366657220746f2074686560008201527f207a65726f206164647265737300000000000000000000000000000000000000602082015250565b6000613abc602d8361211a565b9150613ac782613a60565b604082019050919050565b60006020820190508181036000830152613aeb81613aaf565b9050919050565b7f455243373231436c6f6e6561626c653a20617070726f766520746f2063616c6c60008201527f6572000000000000000000000000000000000000000000000000000000000000602082015250565b6000613b4e60228361211a565b9150613b5982613af2565b604082019050919050565b60006020820190508181036000830152613b7d81613b41565b9050919050565b7f455243373231436c6f6e6561626c653a207472616e7366657220746f206e6f6e60008201527f20455243373231526563656976657220696d706c656d656e7465720000000000602082015250565b6000613be0603b8361211a565b9150613beb82613b84565b604082019050919050565b60006020820190508181036000830152613c0f81613bd3565b9050919050565b6000613c21826121c1565b9150613c2c836121c1565b9250828203905081811115613c4457613c43613324565b5b92915050565b6000613c55826121c1565b9150613c60836121c1565b9250828201905080821115613c7857613c77613324565b5b92915050565b6000608082019050613c936000830187612256565b613ca06020830186612256565b613cad6040830185612499565b8181036060830152613cbf81846124df565b905095945050505050565b600081519050613cd981612080565b92915050565b600060208284031215613cf557613cf461204a565b5b6000613d0384828501613cca565b91505092915050565b7f455243373231436c6f6e6561626c653a206d696e7420746f20746865207a657260008201527f6f20616464726573730000000000000000000000000000000000000000000000602082015250565b6000613d6860298361211a565b9150613d7382613d0c565b604082019050919050565b60006020820190508181036000830152613d9781613d5b565b9050919050565b7f455243373231436c6f6e6561626c653a20746f6b656e20616c7265616479206d60008201527f696e746564000000000000000000000000000000000000000000000000000000602082015250565b6000613dfa60258361211a565b9150613e0582613d9e565b604082019050919050565b60006020820190508181036000830152613e2981613ded565b905091905056fea2646970667358221220bb62b90cedd5f4bdfb39c89215c496a5f41a0dbe5a1066c2de6bef74bea7eca064736f6c63430008110033","opcodes":"PUSH1 0x80 PUSH1 0x40 MSTORE CALLVALUE DUP1 ISZERO PUSH2 0x10 JUMPI PUSH1 0x0 DUP1 REVERT JUMPDEST POP PUSH2 0x3E66 DUP1 PUSH2 0x20 PUSH1 0x0 CODECOPY PUSH1 0x0 RETURN INVALID PUSH1 0x80 PUSH1 0x40 MSTORE CALLVALUE DUP1 ISZERO PUSH2 0x10 JUMPI PUSH1 0x0 DUP1 REVERT JUMPDEST POP PUSH1 0x4 CALLDATASIZE LT PUSH2 0x158 JUMPI PUSH1 0x0 CALLDATALOAD PUSH1 0xE0 SHR DUP1 PUSH4 0x70A08231 GT PUSH2 0xC3 JUMPI DUP1 PUSH4 0xB84C8246 GT PUSH2 0x7C JUMPI DUP1 PUSH4 0xB84C8246 EQ PUSH2 0x3CD JUMPI DUP1 PUSH4 0xB88D4FDE EQ PUSH2 0x3E9 JUMPI DUP1 PUSH4 0xC47F0027 EQ PUSH2 0x405 JUMPI DUP1 PUSH4 0xC87B56DD EQ PUSH2 0x421 JUMPI DUP1 PUSH4 0xE3B71F87 EQ PUSH2 0x451 JUMPI DUP1 PUSH4 0xE985E9C5 EQ PUSH2 0x46F JUMPI PUSH2 0x158 JUMP JUMPDEST DUP1 PUSH4 0x70A08231 EQ PUSH2 0x2F3 JUMPI DUP1 PUSH4 0x81D12C58 EQ PUSH2 0x323 JUMPI DUP1 PUSH4 0x95D89B41 EQ PUSH2 0x359 JUMPI DUP1 PUSH4 0x9C2C770B EQ PUSH2 0x377 JUMPI DUP1 PUSH4 0xA22CB465 EQ PUSH2 0x395 JUMPI DUP1 PUSH4 0xA50D81C7 EQ PUSH2 0x3B1 JUMPI PUSH2 0x158 JUMP JUMPDEST DUP1 PUSH4 0x32032DB5 GT PUSH2 0x115 JUMPI DUP1 PUSH4 0x32032DB5 EQ PUSH2 0x231 JUMPI DUP1 PUSH4 0x42842E0E EQ PUSH2 0x24F JUMPI DUP1 PUSH4 0x4E197151 EQ PUSH2 0x26B JUMPI DUP1 PUSH4 0x4F02C420 EQ PUSH2 0x287 JUMPI DUP1 PUSH4 0x6352211E EQ PUSH2 0x2A5 JUMPI DUP1 PUSH4 0x6EAA1AFE EQ PUSH2 0x2D5 JUMPI PUSH2 0x158 JUMP JUMPDEST DUP1 PUSH4 0x1FFC9A7 EQ PUSH2 0x15D JUMPI DUP1 PUSH4 0x6FDDE03 EQ PUSH2 0x18D JUMPI DUP1 PUSH4 0x81812FC EQ PUSH2 0x1AB JUMPI DUP1 PUSH4 0x95EA7B3 EQ PUSH2 0x1DB JUMPI DUP1 PUSH4 0x158EF93E EQ PUSH2 0x1F7 JUMPI DUP1 PUSH4 0x23B872DD EQ PUSH2 0x215 JUMPI JUMPDEST PUSH1 0x0 DUP1 REVERT JUMPDEST PUSH2 0x177 PUSH1 0x4 DUP1 CALLDATASIZE SUB DUP2 ADD SWAP1 PUSH2 0x172 SWAP2 SWAP1 PUSH2 0x20AC JUMP JUMPDEST PUSH2 0x49F JUMP JUMPDEST PUSH1 0x40 MLOAD PUSH2 0x184 SWAP2 SWAP1 PUSH2 0x20F4 JUMP JUMPDEST PUSH1 0x40 MLOAD DUP1 SWAP2 SUB SWAP1 RETURN JUMPDEST PUSH2 0x195 PUSH2 0x581 JUMP JUMPDEST PUSH1 0x40 MLOAD PUSH2 0x1A2 SWAP2 SWAP1 PUSH2 0x219F JUMP JUMPDEST PUSH1 0x40 MLOAD DUP1 SWAP2 SUB SWAP1 RETURN JUMPDEST PUSH2 0x1C5 PUSH1 0x4 DUP1 CALLDATASIZE SUB DUP2 ADD SWAP1 PUSH2 0x1C0 SWAP2 SWAP1 PUSH2 0x21F7 JUMP JUMPDEST PUSH2 0x613 JUMP JUMPDEST PUSH1 0x40 MLOAD PUSH2 0x1D2 SWAP2 SWAP1 PUSH2 0x2265 JUMP JUMPDEST PUSH1 0x40 MLOAD DUP1 SWAP2 SUB SWAP1 RETURN JUMPDEST PUSH2 0x1F5 PUSH1 0x4 DUP1 CALLDATASIZE SUB DUP2 ADD SWAP1 PUSH2 0x1F0 SWAP2 SWAP1 PUSH2 0x22AC JUMP JUMPDEST PUSH2 0x659 JUMP JUMPDEST STOP JUMPDEST PUSH2 0x1FF PUSH2 0x770 JUMP JUMPDEST PUSH1 0x40 MLOAD PUSH2 0x20C SWAP2 SWAP1 PUSH2 0x20F4 JUMP JUMPDEST PUSH1 0x40 MLOAD DUP1 SWAP2 SUB SWAP1 RETURN JUMPDEST PUSH2 0x22F PUSH1 0x4 DUP1 CALLDATASIZE SUB DUP2 ADD SWAP1 PUSH2 0x22A SWAP2 SWAP1 PUSH2 0x22EC JUMP JUMPDEST PUSH2 0x783 JUMP JUMPDEST STOP JUMPDEST PUSH2 0x239 PUSH2 0x7E3 JUMP JUMPDEST PUSH1 0x40 MLOAD PUSH2 0x246 SWAP2 SWAP1 PUSH2 0x219F JUMP JUMPDEST PUSH1 0x40 MLOAD DUP1 SWAP2 SUB SWAP1 RETURN JUMPDEST PUSH2 0x269 PUSH1 0x4 DUP1 CALLDATASIZE SUB DUP2 ADD SWAP1 PUSH2 0x264 SWAP2 SWAP1 PUSH2 0x22EC JUMP JUMPDEST PUSH2 0x871 JUMP JUMPDEST STOP JUMPDEST PUSH2 0x285 PUSH1 0x4 DUP1 CALLDATASIZE SUB DUP2 ADD SWAP1 PUSH2 0x280 SWAP2 SWAP1 PUSH2 0x23C8 JUMP JUMPDEST PUSH2 0x891 JUMP JUMPDEST STOP JUMPDEST PUSH2 0x28F PUSH2 0xA0B JUMP JUMPDEST PUSH1 0x40 MLOAD PUSH2 0x29C SWAP2 SWAP1 PUSH2 0x20F4 JUMP JUMPDEST PUSH1 0x40 MLOAD DUP1 SWAP2 SUB SWAP1 RETURN JUMPDEST PUSH2 0x2BF PUSH1 0x4 DUP1 CALLDATASIZE SUB DUP2 ADD SWAP1 PUSH2 0x2BA SWAP2 SWAP1 PUSH2 0x21F7 JUMP JUMPDEST PUSH2 0xA1E JUMP JUMPDEST PUSH1 0x40 MLOAD PUSH2 0x2CC SWAP2 SWAP1 PUSH2 0x2265 JUMP JUMPDEST PUSH1 0x40 MLOAD DUP1 SWAP2 SUB SWAP1 RETURN JUMPDEST PUSH2 0x2DD PUSH2 0xAA4 JUMP JUMPDEST PUSH1 0x40 MLOAD PUSH2 0x2EA SWAP2 SWAP1 PUSH2 0x219F JUMP JUMPDEST PUSH1 0x40 MLOAD DUP1 SWAP2 SUB SWAP1 RETURN JUMPDEST PUSH2 0x30D PUSH1 0x4 DUP1 CALLDATASIZE SUB DUP2 ADD SWAP1 PUSH2 0x308 SWAP2 SWAP1 PUSH2 0x246C JUMP JUMPDEST PUSH2 0xB32 JUMP JUMPDEST PUSH1 0x40 MLOAD PUSH2 0x31A SWAP2 SWAP1 PUSH2 0x24A8 JUMP JUMPDEST PUSH1 0x40 MLOAD DUP1 SWAP2 SUB SWAP1 RETURN JUMPDEST PUSH2 0x33D PUSH1 0x4 DUP1 CALLDATASIZE SUB DUP2 ADD SWAP1 PUSH2 0x338 SWAP2 SWAP1 PUSH2 0x21F7 JUMP JUMPDEST PUSH2 0xBE9 JUMP JUMPDEST PUSH1 0x40 MLOAD PUSH2 0x350 SWAP8 SWAP7 SWAP6 SWAP5 SWAP4 SWAP3 SWAP2 SWAP1 PUSH2 0x2534 JUMP JUMPDEST PUSH1 0x40 MLOAD DUP1 SWAP2 SUB SWAP1 RETURN JUMPDEST PUSH2 0x361 PUSH2 0xF10 JUMP JUMPDEST PUSH1 0x40 MLOAD PUSH2 0x36E SWAP2 SWAP1 PUSH2 0x219F JUMP JUMPDEST PUSH1 0x40 MLOAD DUP1 SWAP2 SUB SWAP1 RETURN JUMPDEST PUSH2 0x37F PUSH2 0xFA2 JUMP JUMPDEST PUSH1 0x40 MLOAD PUSH2 0x38C SWAP2 SWAP1 PUSH2 0x24A8 JUMP JUMPDEST PUSH1 0x40 MLOAD DUP1 SWAP2 SUB SWAP1 RETURN JUMPDEST PUSH2 0x3AF PUSH1 0x4 DUP1 CALLDATASIZE SUB DUP2 ADD SWAP1 PUSH2 0x3AA SWAP2 SWAP1 PUSH2 0x25F2 JUMP JUMPDEST PUSH2 0xFA8 JUMP JUMPDEST STOP JUMPDEST PUSH2 0x3CB PUSH1 0x4 DUP1 CALLDATASIZE SUB DUP2 ADD SWAP1 PUSH2 0x3C6 SWAP2 SWAP1 PUSH2 0x246C JUMP JUMPDEST PUSH2 0xFBE JUMP JUMPDEST STOP JUMPDEST PUSH2 0x3E7 PUSH1 0x4 DUP1 CALLDATASIZE SUB DUP2 ADD SWAP1 PUSH2 0x3E2 SWAP2 SWAP1 PUSH2 0x2762 JUMP JUMPDEST PUSH2 0x1037 JUMP JUMPDEST STOP JUMPDEST PUSH2 0x403 PUSH1 0x4 DUP1 CALLDATASIZE SUB DUP2 ADD SWAP1 PUSH2 0x3FE SWAP2 SWAP1 PUSH2 0x284C JUMP JUMPDEST PUSH2 0x109B JUMP JUMPDEST STOP JUMPDEST PUSH2 0x41F PUSH1 0x4 DUP1 CALLDATASIZE SUB DUP2 ADD SWAP1 PUSH2 0x41A SWAP2 SWAP1 PUSH2 0x2762 JUMP JUMPDEST PUSH2 0x10FD JUMP JUMPDEST STOP JUMPDEST PUSH2 0x43B PUSH1 0x4 DUP1 CALLDATASIZE SUB DUP2 ADD SWAP1 PUSH2 0x436 SWAP2 SWAP1 PUSH2 0x21F7 JUMP JUMPDEST PUSH2 0x1160 JUMP JUMPDEST PUSH1 0x40 MLOAD PUSH2 0x448 SWAP2 SWAP1 PUSH2 0x219F JUMP JUMPDEST PUSH1 0x40 MLOAD DUP1 SWAP2 SUB SWAP1 RETURN JUMPDEST PUSH2 0x459 PUSH2 0x11BA JUMP JUMPDEST PUSH1 0x40 MLOAD PUSH2 0x466 SWAP2 SWAP1 PUSH2 0x2265 JUMP JUMPDEST PUSH1 0x40 MLOAD DUP1 SWAP2 SUB SWAP1 RETURN JUMPDEST PUSH2 0x489 PUSH1 0x4 DUP1 CALLDATASIZE SUB DUP2 ADD SWAP1 PUSH2 0x484 SWAP2 SWAP1 PUSH2 0x28CF JUMP JUMPDEST PUSH2 0x11E0 JUMP JUMPDEST PUSH1 0x40 MLOAD PUSH2 0x496 SWAP2 SWAP1 PUSH2 0x20F4 JUMP JUMPDEST PUSH1 0x40 MLOAD DUP1 SWAP2 SUB SWAP1 RETURN JUMPDEST PUSH1 0x0 PUSH32 0xFC9FDAAC00000000000000000000000000000000000000000000000000000000 PUSH28 0xFFFFFFFFFFFFFFFFFFFFFFFFFFFFFFFFFFFFFFFFFFFFFFFFFFFFFFFF NOT AND DUP3 PUSH28 0xFFFFFFFFFFFFFFFFFFFFFFFFFFFFFFFFFFFFFFFFFFFFFFFFFFFFFFFF NOT AND EQ DUP1 PUSH2 0x56A JUMPI POP PUSH32 0x5B5E139F00000000000000000000000000000000000000000000000000000000 PUSH28 0xFFFFFFFFFFFFFFFFFFFFFFFFFFFFFFFFFFFFFFFFFFFFFFFFFFFFFFFF NOT AND DUP3 PUSH28 0xFFFFFFFFFFFFFFFFFFFFFFFFFFFFFFFFFFFFFFFFFFFFFFFFFFFFFFFF NOT AND EQ JUMPDEST DUP1 PUSH2 0x57A JUMPI POP PUSH2 0x579 DUP3 PUSH2 0x1274 JUMP JUMPDEST JUMPDEST SWAP1 POP SWAP2 SWAP1 POP JUMP JUMPDEST PUSH1 0x60 PUSH1 0x0 DUP1 SLOAD PUSH2 0x590 SWAP1 PUSH2 0x293E JUMP JUMPDEST DUP1 PUSH1 0x1F ADD PUSH1 0x20 DUP1 SWAP2 DIV MUL PUSH1 0x20 ADD PUSH1 0x40 MLOAD SWAP1 DUP2 ADD PUSH1 0x40 MSTORE DUP1 SWAP3 SWAP2 SWAP1 DUP2 DUP2 MSTORE PUSH1 0x20 ADD DUP3 DUP1 SLOAD PUSH2 0x5BC SWAP1 PUSH2 0x293E JUMP JUMPDEST DUP1 ISZERO PUSH2 0x609 JUMPI DUP1 PUSH1 0x1F LT PUSH2 0x5DE JUMPI PUSH2 0x100 DUP1 DUP4 SLOAD DIV MUL DUP4 MSTORE SWAP2 PUSH1 0x20 ADD SWAP2 PUSH2 0x609 JUMP JUMPDEST DUP3 ADD SWAP2 SWAP1 PUSH1 0x0 MSTORE PUSH1 0x20 PUSH1 0x0 KECCAK256 SWAP1 JUMPDEST DUP2 SLOAD DUP2 MSTORE SWAP1 PUSH1 0x1 ADD SWAP1 PUSH1 0x20 ADD DUP1 DUP4 GT PUSH2 0x5EC JUMPI DUP3 SWAP1 SUB PUSH1 0x1F AND DUP3 ADD SWAP2 JUMPDEST POP POP POP POP POP SWAP1 POP SWAP1 JUMP JUMPDEST PUSH1 0x0 PUSH2 0x61E DUP3 PUSH2 0x12DE JUMP JUMPDEST PUSH1 0x4 PUSH1 0x0 DUP4 DUP2 MSTORE PUSH1 0x20 ADD SWAP1 DUP2 MSTORE PUSH1 0x20 ADD PUSH1 0x0 KECCAK256 PUSH1 0x0 SWAP1 SLOAD SWAP1 PUSH2 0x100 EXP SWAP1 DIV PUSH20 0xFFFFFFFFFFFFFFFFFFFFFFFFFFFFFFFFFFFFFFFF AND SWAP1 POP SWAP2 SWAP1 POP JUMP JUMPDEST PUSH1 0x0 PUSH2 0x664 DUP3 PUSH2 0xA1E JUMP JUMPDEST SWAP1 POP DUP1 PUSH20 0xFFFFFFFFFFFFFFFFFFFFFFFFFFFFFFFFFFFFFFFF AND DUP4 PUSH20 0xFFFFFFFFFFFFFFFFFFFFFFFFFFFFFFFFFFFFFFFF AND SUB PUSH2 0x6D4 JUMPI PUSH1 0x40 MLOAD PUSH32 0x8C379A000000000000000000000000000000000000000000000000000000000 DUP2 MSTORE PUSH1 0x4 ADD PUSH2 0x6CB SWAP1 PUSH2 0x29E1 JUMP JUMPDEST PUSH1 0x40 MLOAD DUP1 SWAP2 SUB SWAP1 REVERT JUMPDEST DUP1 PUSH20 0xFFFFFFFFFFFFFFFFFFFFFFFFFFFFFFFFFFFFFFFF AND PUSH2 0x6F3 PUSH2 0x1329 JUMP JUMPDEST PUSH20 0xFFFFFFFFFFFFFFFFFFFFFFFFFFFFFFFFFFFFFFFF AND EQ DUP1 PUSH2 0x722 JUMPI POP PUSH2 0x721 DUP2 PUSH2 0x71C PUSH2 0x1329 JUMP JUMPDEST PUSH2 0x11E0 JUMP JUMPDEST JUMPDEST PUSH2 0x761 JUMPI PUSH1 0x40 MLOAD PUSH32 0x8C379A000000000000000000000000000000000000000000000000000000000 DUP2 MSTORE PUSH1 0x4 ADD PUSH2 0x758 SWAP1 PUSH2 0x2A99 JUMP JUMPDEST PUSH1 0x40 MLOAD DUP1 SWAP2 SUB SWAP1 REVERT JUMPDEST PUSH2 0x76B DUP4 DUP4 PUSH2 0x1331 JUMP JUMPDEST POP POP POP JUMP JUMPDEST PUSH1 0x6 PUSH1 0x0 SWAP1 SLOAD SWAP1 PUSH2 0x100 EXP SWAP1 DIV PUSH1 0xFF AND DUP2 JUMP JUMPDEST PUSH2 0x794 PUSH2 0x78E PUSH2 0x1329 JUMP JUMPDEST DUP3 PUSH2 0x13EA JUMP JUMPDEST PUSH2 0x7D3 JUMPI PUSH1 0x40 MLOAD PUSH32 0x8C379A000000000000000000000000000000000000000000000000000000000 DUP2 MSTORE PUSH1 0x4 ADD PUSH2 0x7CA SWAP1 PUSH2 0x2B2B JUMP JUMPDEST PUSH1 0x40 MLOAD DUP1 SWAP2 SUB SWAP1 REVERT JUMPDEST PUSH2 0x7DE DUP4 DUP4 DUP4 PUSH2 0x147F JUMP JUMPDEST POP POP POP JUMP JUMPDEST PUSH1 0x7 DUP1 SLOAD PUSH2 0x7F0 SWAP1 PUSH2 0x293E JUMP JUMPDEST DUP1 PUSH1 0x1F ADD PUSH1 0x20 DUP1 SWAP2 DIV MUL PUSH1 0x20 ADD PUSH1 0x40 MLOAD SWAP1 DUP2 ADD PUSH1 0x40 MSTORE DUP1 SWAP3 SWAP2 SWAP1 DUP2 DUP2 MSTORE PUSH1 0x20 ADD DUP3 DUP1 SLOAD PUSH2 0x81C SWAP1 PUSH2 0x293E JUMP JUMPDEST DUP1 ISZERO PUSH2 0x869 JUMPI DUP1 PUSH1 0x1F LT PUSH2 0x83E JUMPI PUSH2 0x100 DUP1 DUP4 SLOAD DIV MUL DUP4 MSTORE SWAP2 PUSH1 0x20 ADD SWAP2 PUSH2 0x869 JUMP JUMPDEST DUP3 ADD SWAP2 SWAP1 PUSH1 0x0 MSTORE PUSH1 0x20 PUSH1 0x0 KECCAK256 SWAP1 JUMPDEST DUP2 SLOAD DUP2 MSTORE SWAP1 PUSH1 0x1 ADD SWAP1 PUSH1 0x20 ADD DUP1 DUP4 GT PUSH2 0x84C JUMPI DUP3 SWAP1 SUB PUSH1 0x1F AND DUP3 ADD SWAP2 JUMPDEST POP POP POP POP POP DUP2 JUMP JUMPDEST PUSH2 0x88C DUP4 DUP4 DUP4 PUSH1 0x40 MLOAD DUP1 PUSH1 0x20 ADD PUSH1 0x40 MSTORE DUP1 PUSH1 0x0 DUP2 MSTORE POP PUSH2 0x109B JUMP JUMPDEST POP POP POP JUMP JUMPDEST PUSH1 0x6 PUSH1 0x0 SWAP1 SLOAD SWAP1 PUSH2 0x100 EXP SWAP1 DIV PUSH1 0xFF AND ISZERO PUSH2 0x8E1 JUMPI PUSH1 0x40 MLOAD PUSH32 0x8C379A000000000000000000000000000000000000000000000000000000000 DUP2 MSTORE PUSH1 0x4 ADD PUSH2 0x8D8 SWAP1 PUSH2 0x2B97 JUMP JUMPDEST PUSH1 0x40 MLOAD DUP1 SWAP2 SUB SWAP1 REVERT JUMPDEST DUP5 DUP1 PUSH1 0x0 ADD SWAP1 PUSH2 0x8F1 SWAP2 SWAP1 PUSH2 0x2BC6 JUMP JUMPDEST PUSH1 0x7 SWAP2 DUP3 PUSH2 0x900 SWAP3 SWAP2 SWAP1 PUSH2 0x2DE0 JUMP JUMPDEST POP DUP5 DUP1 PUSH1 0x20 ADD SWAP1 PUSH2 0x911 SWAP2 SWAP1 PUSH2 0x2BC6 JUMP JUMPDEST PUSH1 0x8 SWAP2 DUP3 PUSH2 0x920 SWAP3 SWAP2 SWAP1 PUSH2 0x2DE0 JUMP JUMPDEST POP DUP4 PUSH1 0x9 PUSH1 0x0 PUSH2 0x100 EXP DUP2 SLOAD DUP2 PUSH20 0xFFFFFFFFFFFFFFFFFFFFFFFFFFFFFFFFFFFFFFFF MUL NOT AND SWAP1 DUP4 PUSH20 0xFFFFFFFFFFFFFFFFFFFFFFFFFFFFFFFFFFFFFFFF AND MUL OR SWAP1 SSTORE POP DUP3 PUSH1 0xA DUP2 SWAP1 SSTORE POP PUSH1 0x0 JUMPDEST DUP3 DUP3 SWAP1 POP DUP2 LT ISZERO PUSH2 0x9E8 JUMPI PUSH1 0xB DUP4 DUP4 DUP4 DUP2 DUP2 LT PUSH2 0x98C JUMPI PUSH2 0x98B PUSH2 0x2EB0 JUMP JUMPDEST JUMPDEST SWAP1 POP PUSH1 0x20 MUL DUP2 ADD SWAP1 PUSH2 0x99E SWAP2 SWAP1 PUSH2 0x2EDF JUMP JUMPDEST SWAP1 DUP1 PUSH1 0x1 DUP2 SLOAD ADD DUP1 DUP3 SSTORE DUP1 SWAP2 POP POP PUSH1 0x1 SWAP1 SUB SWAP1 PUSH1 0x0 MSTORE PUSH1 0x20 PUSH1 0x0 KECCAK256 SWAP1 PUSH1 0x7 MUL ADD PUSH1 0x0 SWAP1 SWAP2 SWAP1 SWAP2 SWAP1 SWAP2 POP DUP2 DUP2 PUSH2 0x9D3 SWAP2 SWAP1 PUSH2 0x3316 JUMP JUMPDEST POP POP DUP1 DUP1 PUSH2 0x9E0 SWAP1 PUSH2 0x3353 JUMP JUMPDEST SWAP2 POP POP PUSH2 0x96C JUMP JUMPDEST POP PUSH1 0x1 PUSH1 0x6 PUSH1 0x0 PUSH2 0x100 EXP DUP2 SLOAD DUP2 PUSH1 0xFF MUL NOT AND SWAP1 DUP4 ISZERO ISZERO MUL OR SWAP1 SSTORE POP POP POP POP POP POP JUMP JUMPDEST PUSH1 0x6 PUSH1 0x1 SWAP1 SLOAD SWAP1 PUSH2 0x100 EXP SWAP1 DIV PUSH1 0xFF AND DUP2 JUMP JUMPDEST PUSH1 0x0 DUP1 PUSH2 0xA2A DUP4 PUSH2 0x1778 JUMP JUMPDEST SWAP1 POP PUSH1 0x0 PUSH20 0xFFFFFFFFFFFFFFFFFFFFFFFFFFFFFFFFFFFFFFFF AND DUP2 PUSH20 0xFFFFFFFFFFFFFFFFFFFFFFFFFFFFFFFFFFFFFFFF AND SUB PUSH2 0xA9B JUMPI PUSH1 0x40 MLOAD PUSH32 0x8C379A000000000000000000000000000000000000000000000000000000000 DUP2 MSTORE PUSH1 0x4 ADD PUSH2 0xA92 SWAP1 PUSH2 0x340D JUMP JUMPDEST PUSH1 0x40 MLOAD DUP1 SWAP2 SUB SWAP1 REVERT JUMPDEST DUP1 SWAP2 POP POP SWAP2 SWAP1 POP JUMP JUMPDEST PUSH1 0x8 DUP1 SLOAD PUSH2 0xAB1 SWAP1 PUSH2 0x293E JUMP JUMPDEST DUP1 PUSH1 0x1F ADD PUSH1 0x20 DUP1 SWAP2 DIV MUL PUSH1 0x20 ADD PUSH1 0x40 MLOAD SWAP1 DUP2 ADD PUSH1 0x40 MSTORE DUP1 SWAP3 SWAP2 SWAP1 DUP2 DUP2 MSTORE PUSH1 0x20 ADD DUP3 DUP1 SLOAD PUSH2 0xADD SWAP1 PUSH2 0x293E JUMP JUMPDEST DUP1 ISZERO PUSH2 0xB2A JUMPI DUP1 PUSH1 0x1F LT PUSH2 0xAFF JUMPI PUSH2 0x100 DUP1 DUP4 SLOAD DIV MUL DUP4 MSTORE SWAP2 PUSH1 0x20 ADD SWAP2 PUSH2 0xB2A JUMP JUMPDEST DUP3 ADD SWAP2 SWAP1 PUSH1 0x0 MSTORE PUSH1 0x20 PUSH1 0x0 KECCAK256 SWAP1 JUMPDEST DUP2 SLOAD DUP2 MSTORE SWAP1 PUSH1 0x1 ADD SWAP1 PUSH1 0x20 ADD DUP1 DUP4 GT PUSH2 0xB0D JUMPI DUP3 SWAP1 SUB PUSH1 0x1F AND DUP3 ADD SWAP2 JUMPDEST POP POP POP POP POP DUP2 JUMP JUMPDEST PUSH1 0x0 DUP1 PUSH20 0xFFFFFFFFFFFFFFFFFFFFFFFFFFFFFFFFFFFFFFFF AND DUP3 PUSH20 0xFFFFFFFFFFFFFFFFFFFFFFFFFFFFFFFFFFFFFFFF AND SUB PUSH2 0xBA2 JUMPI PUSH1 0x40 MLOAD PUSH32 0x8C379A000000000000000000000000000000000000000000000000000000000 DUP2 MSTORE PUSH1 0x4 ADD PUSH2 0xB99 SWAP1 PUSH2 0x349F JUMP JUMPDEST PUSH1 0x40 MLOAD DUP1 SWAP2 SUB SWAP1 REVERT JUMPDEST PUSH1 0x3 PUSH1 0x0 DUP4 PUSH20 0xFFFFFFFFFFFFFFFFFFFFFFFFFFFFFFFFFFFFFFFF AND PUSH20 0xFFFFFFFFFFFFFFFFFFFFFFFFFFFFFFFFFFFFFFFF AND DUP2 MSTORE PUSH1 0x20 ADD SWAP1 DUP2 MSTORE PUSH1 0x20 ADD PUSH1 0x0 KECCAK256 SLOAD SWAP1 POP SWAP2 SWAP1 POP JUMP JUMPDEST PUSH1 0xB DUP2 DUP2 SLOAD DUP2 LT PUSH2 0xBF9 JUMPI PUSH1 0x0 DUP1 REVERT JUMPDEST SWAP1 PUSH1 0x0 MSTORE PUSH1 0x20 PUSH1 0x0 KECCAK256 SWAP1 PUSH1 0x7 MUL ADD PUSH1 0x0 SWAP2 POP SWAP1 POP DUP1 PUSH1 0x0 ADD DUP1 SLOAD PUSH2 0xC1C SWAP1 PUSH2 0x293E JUMP JUMPDEST DUP1 PUSH1 0x1F ADD PUSH1 0x20 DUP1 SWAP2 DIV MUL PUSH1 0x20 ADD PUSH1 0x40 MLOAD SWAP1 DUP2 ADD PUSH1 0x40 MSTORE DUP1 SWAP3 SWAP2 SWAP1 DUP2 DUP2 MSTORE PUSH1 0x20 ADD DUP3 DUP1 SLOAD PUSH2 0xC48 SWAP1 PUSH2 0x293E JUMP JUMPDEST DUP1 ISZERO PUSH2 0xC95 JUMPI DUP1 PUSH1 0x1F LT PUSH2 0xC6A JUMPI PUSH2 0x100 DUP1 DUP4 SLOAD DIV MUL DUP4 MSTORE SWAP2 PUSH1 0x20 ADD SWAP2 PUSH2 0xC95 JUMP JUMPDEST DUP3 ADD SWAP2 SWAP1 PUSH1 0x0 MSTORE PUSH1 0x20 PUSH1 0x0 KECCAK256 SWAP1 JUMPDEST DUP2 SLOAD DUP2 MSTORE SWAP1 PUSH1 0x1 ADD SWAP1 PUSH1 0x20 ADD DUP1 DUP4 GT PUSH2 0xC78 JUMPI DUP3 SWAP1 SUB PUSH1 0x1F AND DUP3 ADD SWAP2 JUMPDEST POP POP POP POP POP SWAP1 DUP1 PUSH1 0x1 ADD PUSH1 0x0 SWAP1 SLOAD SWAP1 PUSH2 0x100 EXP SWAP1 DIV PUSH20 0xFFFFFFFFFFFFFFFFFFFFFFFFFFFFFFFFFFFFFFFF AND SWAP1 DUP1 PUSH1 0x2 ADD DUP1 SLOAD PUSH2 0xCD0 SWAP1 PUSH2 0x293E JUMP JUMPDEST DUP1 PUSH1 0x1F ADD PUSH1 0x20 DUP1 SWAP2 DIV MUL PUSH1 0x20 ADD PUSH1 0x40 MLOAD SWAP1 DUP2 ADD PUSH1 0x40 MSTORE DUP1 SWAP3 SWAP2 SWAP1 DUP2 DUP2 MSTORE PUSH1 0x20 ADD DUP3 DUP1 SLOAD PUSH2 0xCFC SWAP1 PUSH2 0x293E JUMP JUMPDEST DUP1 ISZERO PUSH2 0xD49 JUMPI DUP1 PUSH1 0x1F LT PUSH2 0xD1E JUMPI PUSH2 0x100 DUP1 DUP4 SLOAD DIV MUL DUP4 MSTORE SWAP2 PUSH1 0x20 ADD SWAP2 PUSH2 0xD49 JUMP JUMPDEST DUP3 ADD SWAP2 SWAP1 PUSH1 0x0 MSTORE PUSH1 0x20 PUSH1 0x0 KECCAK256 SWAP1 JUMPDEST DUP2 SLOAD DUP2 MSTORE SWAP1 PUSH1 0x1 ADD SWAP1 PUSH1 0x20 ADD DUP1 DUP4 GT PUSH2 0xD2C JUMPI DUP3 SWAP1 SUB PUSH1 0x1F AND DUP3 ADD SWAP2 JUMPDEST POP POP POP POP POP SWAP1 DUP1 PUSH1 0x3 ADD PUSH1 0x0 SWAP1 SLOAD SWAP1 PUSH2 0x100 EXP SWAP1 DIV PUSH1 0xFF AND SWAP1 DUP1 PUSH1 0x4 ADD DUP1 SLOAD PUSH2 0xD71 SWAP1 PUSH2 0x293E JUMP JUMPDEST DUP1 PUSH1 0x1F ADD PUSH1 0x20 DUP1 SWAP2 DIV MUL PUSH1 0x20 ADD PUSH1 0x40 MLOAD SWAP1 DUP2 ADD PUSH1 0x40 MSTORE DUP1 SWAP3 SWAP2 SWAP1 DUP2 DUP2 MSTORE PUSH1 0x20 ADD DUP3 DUP1 SLOAD PUSH2 0xD9D SWAP1 PUSH2 0x293E JUMP JUMPDEST DUP1 ISZERO PUSH2 0xDEA JUMPI DUP1 PUSH1 0x1F LT PUSH2 0xDBF JUMPI PUSH2 0x100 DUP1 DUP4 SLOAD DIV MUL DUP4 MSTORE SWAP2 PUSH1 0x20 ADD SWAP2 PUSH2 0xDEA JUMP JUMPDEST DUP3 ADD SWAP2 SWAP1 PUSH1 0x0 MSTORE PUSH1 0x20 PUSH1 0x0 KECCAK256 SWAP1 JUMPDEST DUP2 SLOAD DUP2 MSTORE SWAP1 PUSH1 0x1 ADD SWAP1 PUSH1 0x20 ADD DUP1 DUP4 GT PUSH2 0xDCD JUMPI DUP3 SWAP1 SUB PUSH1 0x1F AND DUP3 ADD SWAP2 JUMPDEST POP POP POP POP POP SWAP1 DUP1 PUSH1 0x5 ADD DUP1 SLOAD PUSH2 0xDFF SWAP1 PUSH2 0x293E JUMP JUMPDEST DUP1 PUSH1 0x1F ADD PUSH1 0x20 DUP1 SWAP2 DIV MUL PUSH1 0x20 ADD PUSH1 0x40 MLOAD SWAP1 DUP2 ADD PUSH1 0x40 MSTORE DUP1 SWAP3 SWAP2 SWAP1 DUP2 DUP2 MSTORE PUSH1 0x20 ADD DUP3 DUP1 SLOAD PUSH2 0xE2B SWAP1 PUSH2 0x293E JUMP JUMPDEST DUP1 ISZERO PUSH2 0xE78 JUMPI DUP1 PUSH1 0x1F LT PUSH2 0xE4D JUMPI PUSH2 0x100 DUP1 DUP4 SLOAD DIV MUL DUP4 MSTORE SWAP2 PUSH1 0x20 ADD SWAP2 PUSH2 0xE78 JUMP JUMPDEST DUP3 ADD SWAP2 SWAP1 PUSH1 0x0 MSTORE PUSH1 0x20 PUSH1 0x0 KECCAK256 SWAP1 JUMPDEST DUP2 SLOAD DUP2 MSTORE SWAP1 PUSH1 0x1 ADD SWAP1 PUSH1 0x20 ADD DUP1 DUP4 GT PUSH2 0xE5B JUMPI DUP3 SWAP1 SUB PUSH1 0x1F AND DUP3 ADD SWAP2 JUMPDEST POP POP POP POP POP SWAP1 DUP1 PUSH1 0x6 ADD DUP1 SLOAD PUSH2 0xE8D SWAP1 PUSH2 0x293E JUMP JUMPDEST DUP1 PUSH1 0x1F ADD PUSH1 0x20 DUP1 SWAP2 DIV MUL PUSH1 0x20 ADD PUSH1 0x40 MLOAD SWAP1 DUP2 ADD PUSH1 0x40 MSTORE DUP1 SWAP3 SWAP2 SWAP1 DUP2 DUP2 MSTORE PUSH1 0x20 ADD DUP3 DUP1 SLOAD PUSH2 0xEB9 SWAP1 PUSH2 0x293E JUMP JUMPDEST DUP1 ISZERO PUSH2 0xF06 JUMPI DUP1 PUSH1 0x1F LT PUSH2 0xEDB JUMPI PUSH2 0x100 DUP1 DUP4 SLOAD DIV MUL DUP4 MSTORE SWAP2 PUSH1 0x20 ADD SWAP2 PUSH2 0xF06 JUMP JUMPDEST DUP3 ADD SWAP2 SWAP1 PUSH1 0x0 MSTORE PUSH1 0x20 PUSH1 0x0 KECCAK256 SWAP1 JUMPDEST DUP2 SLOAD DUP2 MSTORE SWAP1 PUSH1 0x1 ADD SWAP1 PUSH1 0x20 ADD DUP1 DUP4 GT PUSH2 0xEE9 JUMPI DUP3 SWAP1 SUB PUSH1 0x1F AND DUP3 ADD SWAP2 JUMPDEST POP POP POP POP POP SWAP1 POP DUP8 JUMP JUMPDEST PUSH1 0x60 PUSH1 0x1 DUP1 SLOAD PUSH2 0xF1F SWAP1 PUSH2 0x293E JUMP JUMPDEST DUP1 PUSH1 0x1F ADD PUSH1 0x20 DUP1 SWAP2 DIV MUL PUSH1 0x20 ADD PUSH1 0x40 MLOAD SWAP1 DUP2 ADD PUSH1 0x40 MSTORE DUP1 SWAP3 SWAP2 SWAP1 DUP2 DUP2 MSTORE PUSH1 0x20 ADD DUP3 DUP1 SLOAD PUSH2 0xF4B SWAP1 PUSH2 0x293E JUMP JUMPDEST DUP1 ISZERO PUSH2 0xF98 JUMPI DUP1 PUSH1 0x1F LT PUSH2 0xF6D JUMPI PUSH2 0x100 DUP1 DUP4 SLOAD DIV MUL DUP4 MSTORE SWAP2 PUSH1 0x20 ADD SWAP2 PUSH2 0xF98 JUMP JUMPDEST DUP3 ADD SWAP2 SWAP1 PUSH1 0x0 MSTORE PUSH1 0x20 PUSH1 0x0 KECCAK256 SWAP1 JUMPDEST DUP2 SLOAD DUP2 MSTORE SWAP1 PUSH1 0x1 ADD SWAP1 PUSH1 0x20 ADD DUP1 DUP4 GT PUSH2 0xF7B JUMPI DUP3 SWAP1 SUB PUSH1 0x1F AND DUP3 ADD SWAP2 JUMPDEST POP POP POP POP POP SWAP1 POP SWAP1 JUMP JUMPDEST PUSH1 0xA SLOAD DUP2 JUMP JUMPDEST PUSH2 0xFBA PUSH2 0xFB3 PUSH2 0x1329 JUMP JUMPDEST DUP4 DUP4 PUSH2 0x17B5 JUMP JUMPDEST POP POP JUMP JUMPDEST PUSH1 0x6 PUSH1 0x1 SWAP1 SLOAD SWAP1 PUSH2 0x100 EXP SWAP1 DIV PUSH1 0xFF AND ISZERO PUSH2 0x100E JUMPI PUSH1 0x40 MLOAD PUSH32 0x8C379A000000000000000000000000000000000000000000000000000000000 DUP2 MSTORE PUSH1 0x4 ADD PUSH2 0x1005 SWAP1 PUSH2 0x350B JUMP JUMPDEST PUSH1 0x40 MLOAD DUP1 SWAP2 SUB SWAP1 REVERT JUMPDEST PUSH2 0x1019 DUP2 PUSH1 0x0 PUSH2 0x1921 JUMP JUMPDEST PUSH1 0x1 PUSH1 0x6 PUSH1 0x1 PUSH2 0x100 EXP DUP2 SLOAD DUP2 PUSH1 0xFF MUL NOT AND SWAP1 DUP4 ISZERO ISZERO MUL OR SWAP1 SSTORE POP POP JUMP JUMPDEST PUSH1 0x0 PUSH1 0x1 DUP1 SLOAD PUSH2 0x1046 SWAP1 PUSH2 0x293E JUMP JUMPDEST SWAP1 POP EQ PUSH2 0x1088 JUMPI PUSH1 0x40 MLOAD PUSH32 0x8C379A000000000000000000000000000000000000000000000000000000000 DUP2 MSTORE PUSH1 0x4 ADD PUSH2 0x107F SWAP1 PUSH2 0x359D JUMP JUMPDEST PUSH1 0x40 MLOAD DUP1 SWAP2 SUB SWAP1 REVERT JUMPDEST DUP1 PUSH1 0x1 SWAP1 DUP2 PUSH2 0x1097 SWAP2 SWAP1 PUSH2 0x35BD JUMP JUMPDEST POP POP JUMP JUMPDEST PUSH2 0x10AC PUSH2 0x10A6 PUSH2 0x1329 JUMP JUMPDEST DUP4 PUSH2 0x13EA JUMP JUMPDEST PUSH2 0x10EB JUMPI PUSH1 0x40 MLOAD PUSH32 0x8C379A000000000000000000000000000000000000000000000000000000000 DUP2 MSTORE PUSH1 0x4 ADD PUSH2 0x10E2 SWAP1 PUSH2 0x2B2B JUMP JUMPDEST PUSH1 0x40 MLOAD DUP1 SWAP2 SUB SWAP1 REVERT JUMPDEST PUSH2 0x10F7 DUP5 DUP5 DUP5 DUP5 PUSH2 0x193F JUMP JUMPDEST POP POP POP POP JUMP JUMPDEST PUSH1 0x0 DUP1 DUP1 SLOAD PUSH2 0x110B SWAP1 PUSH2 0x293E JUMP JUMPDEST SWAP1 POP EQ PUSH2 0x114D JUMPI PUSH1 0x40 MLOAD PUSH32 0x8C379A000000000000000000000000000000000000000000000000000000000 DUP2 MSTORE PUSH1 0x4 ADD PUSH2 0x1144 SWAP1 PUSH2 0x3701 JUMP JUMPDEST PUSH1 0x40 MLOAD DUP1 SWAP2 SUB SWAP1 REVERT JUMPDEST DUP1 PUSH1 0x0 SWAP1 DUP2 PUSH2 0x115C SWAP2 SWAP1 PUSH2 0x35BD JUMP JUMPDEST POP POP JUMP JUMPDEST PUSH1 0x60 PUSH1 0x0 PUSH1 0x7 PUSH1 0x8 PUSH1 0x40 MLOAD PUSH1 0x20 ADD PUSH2 0x1179 SWAP3 SWAP2 SWAP1 PUSH2 0x38DF JUMP JUMPDEST PUSH1 0x40 MLOAD PUSH1 0x20 DUP2 DUP4 SUB SUB DUP2 MSTORE SWAP1 PUSH1 0x40 MSTORE SWAP1 POP PUSH2 0x1193 DUP2 PUSH2 0x199B JUMP JUMPDEST PUSH1 0x40 MLOAD PUSH1 0x20 ADD PUSH2 0x11A3 SWAP2 SWAP1 PUSH2 0x39AC JUMP JUMPDEST PUSH1 0x40 MLOAD PUSH1 0x20 DUP2 DUP4 SUB SUB DUP2 MSTORE SWAP1 PUSH1 0x40 MSTORE SWAP2 POP POP SWAP2 SWAP1 POP JUMP JUMPDEST PUSH1 0x9 PUSH1 0x0 SWAP1 SLOAD SWAP1 PUSH2 0x100 EXP SWAP1 DIV PUSH20 0xFFFFFFFFFFFFFFFFFFFFFFFFFFFFFFFFFFFFFFFF AND DUP2 JUMP JUMPDEST PUSH1 0x0 PUSH1 0x5 PUSH1 0x0 DUP5 PUSH20 0xFFFFFFFFFFFFFFFFFFFFFFFFFFFFFFFFFFFFFFFF AND PUSH20 0xFFFFFFFFFFFFFFFFFFFFFFFFFFFFFFFFFFFFFFFF AND DUP2 MSTORE PUSH1 0x20 ADD SWAP1 DUP2 MSTORE PUSH1 0x20 ADD PUSH1 0x0 KECCAK256 PUSH1 0x0 DUP4 PUSH20 0xFFFFFFFFFFFFFFFFFFFFFFFFFFFFFFFFFFFFFFFF AND PUSH20 0xFFFFFFFFFFFFFFFFFFFFFFFFFFFFFFFFFFFFFFFF AND DUP2 MSTORE PUSH1 0x20 ADD SWAP1 DUP2 MSTORE PUSH1 0x20 ADD PUSH1 0x0 KECCAK256 PUSH1 0x0 SWAP1 SLOAD SWAP1 PUSH2 0x100 EXP SWAP1 DIV PUSH1 0xFF AND SWAP1 POP SWAP3 SWAP2 POP POP JUMP JUMPDEST PUSH1 0x0 PUSH32 0x1FFC9A700000000000000000000000000000000000000000000000000000000 PUSH28 0xFFFFFFFFFFFFFFFFFFFFFFFFFFFFFFFFFFFFFFFFFFFFFFFFFFFFFFFF NOT AND DUP3 PUSH28 0xFFFFFFFFFFFFFFFFFFFFFFFFFFFFFFFFFFFFFFFFFFFFFFFFFFFFFFFF NOT AND EQ SWAP1 POP SWAP2 SWAP1 POP JUMP JUMPDEST PUSH2 0x12E7 DUP2 PUSH2 0x19B0 JUMP JUMPDEST PUSH2 0x1326 JUMPI PUSH1 0x40 MLOAD PUSH32 0x8C379A000000000000000000000000000000000000000000000000000000000 DUP2 MSTORE PUSH1 0x4 ADD PUSH2 0x131D SWAP1 PUSH2 0x340D JUMP JUMPDEST PUSH1 0x40 MLOAD DUP1 SWAP2 SUB SWAP1 REVERT JUMPDEST POP JUMP JUMPDEST PUSH1 0x0 CALLER SWAP1 POP SWAP1 JUMP JUMPDEST DUP2 PUSH1 0x4 PUSH1 0x0 DUP4 DUP2 MSTORE PUSH1 0x20 ADD SWAP1 DUP2 MSTORE PUSH1 0x20 ADD PUSH1 0x0 KECCAK256 PUSH1 0x0 PUSH2 0x100 EXP DUP2 SLOAD DUP2 PUSH20 0xFFFFFFFFFFFFFFFFFFFFFFFFFFFFFFFFFFFFFFFF MUL NOT AND SWAP1 DUP4 PUSH20 0xFFFFFFFFFFFFFFFFFFFFFFFFFFFFFFFFFFFFFFFF AND MUL OR SWAP1 SSTORE POP DUP1 DUP3 PUSH20 0xFFFFFFFFFFFFFFFFFFFFFFFFFFFFFFFFFFFFFFFF AND PUSH2 0x13A4 DUP4 PUSH2 0xA1E JUMP JUMPDEST PUSH20 0xFFFFFFFFFFFFFFFFFFFFFFFFFFFFFFFFFFFFFFFF AND PUSH32 0x8C5BE1E5EBEC7D5BD14F71427D1E84F3DD0314C0F7B2291E5B200AC8C7C3B925 PUSH1 0x40 MLOAD PUSH1 0x40 MLOAD DUP1 SWAP2 SUB SWAP1 LOG4 POP POP JUMP JUMPDEST PUSH1 0x0 DUP1 PUSH2 0x13F6 DUP4 PUSH2 0xA1E JUMP JUMPDEST SWAP1 POP DUP1 PUSH20 0xFFFFFFFFFFFFFFFFFFFFFFFFFFFFFFFFFFFFFFFF AND DUP5 PUSH20 0xFFFFFFFFFFFFFFFFFFFFFFFFFFFFFFFFFFFFFFFF AND EQ DUP1 PUSH2 0x1438 JUMPI POP PUSH2 0x1437 DUP2 DUP6 PUSH2 0x11E0 JUMP JUMPDEST JUMPDEST DUP1 PUSH2 0x1476 JUMPI POP DUP4 PUSH20 0xFFFFFFFFFFFFFFFFFFFFFFFFFFFFFFFFFFFFFFFF AND PUSH2 0x145E DUP5 PUSH2 0x613 JUMP JUMPDEST PUSH20 0xFFFFFFFFFFFFFFFFFFFFFFFFFFFFFFFFFFFFFFFF AND EQ JUMPDEST SWAP2 POP POP SWAP3 SWAP2 POP POP JUMP JUMPDEST DUP3 PUSH20 0xFFFFFFFFFFFFFFFFFFFFFFFFFFFFFFFFFFFFFFFF AND PUSH2 0x149F DUP3 PUSH2 0xA1E JUMP JUMPDEST PUSH20 0xFFFFFFFFFFFFFFFFFFFFFFFFFFFFFFFFFFFFFFFF AND EQ PUSH2 0x14F5 JUMPI PUSH1 0x40 MLOAD PUSH32 0x8C379A000000000000000000000000000000000000000000000000000000000 DUP2 MSTORE PUSH1 0x4 ADD PUSH2 0x14EC SWAP1 PUSH2 0x3A40 JUMP JUMPDEST PUSH1 0x40 MLOAD DUP1 SWAP2 SUB SWAP1 REVERT JUMPDEST PUSH1 0x0 PUSH20 0xFFFFFFFFFFFFFFFFFFFFFFFFFFFFFFFFFFFFFFFF AND DUP3 PUSH20 0xFFFFFFFFFFFFFFFFFFFFFFFFFFFFFFFFFFFFFFFF AND SUB PUSH2 0x1564 JUMPI PUSH1 0x40 MLOAD PUSH32 0x8C379A000000000000000000000000000000000000000000000000000000000 DUP2 MSTORE PUSH1 0x4 ADD PUSH2 0x155B SWAP1 PUSH2 0x3AD2 JUMP JUMPDEST PUSH1 0x40 MLOAD DUP1 SWAP2 SUB SWAP1 REVERT JUMPDEST PUSH2 0x1571 DUP4 DUP4 DUP4 PUSH1 0x1 PUSH2 0x19F1 JUMP JUMPDEST DUP3 PUSH20 0xFFFFFFFFFFFFFFFFFFFFFFFFFFFFFFFFFFFFFFFF AND PUSH2 0x1591 DUP3 PUSH2 0xA1E JUMP JUMPDEST PUSH20 0xFFFFFFFFFFFFFFFFFFFFFFFFFFFFFFFFFFFFFFFF AND EQ PUSH2 0x15E7 JUMPI PUSH1 0x40 MLOAD PUSH32 0x8C379A000000000000000000000000000000000000000000000000000000000 DUP2 MSTORE PUSH1 0x4 ADD PUSH2 0x15DE SWAP1 PUSH2 0x3A40 JUMP JUMPDEST PUSH1 0x40 MLOAD DUP1 SWAP2 SUB SWAP1 REVERT JUMPDEST PUSH1 0x4 PUSH1 0x0 DUP3 DUP2 MSTORE PUSH1 0x20 ADD SWAP1 DUP2 MSTORE PUSH1 0x20 ADD PUSH1 0x0 KECCAK256 PUSH1 0x0 PUSH2 0x100 EXP DUP2 SLOAD SWAP1 PUSH20 0xFFFFFFFFFFFFFFFFFFFFFFFFFFFFFFFFFFFFFFFF MUL NOT AND SWAP1 SSTORE PUSH1 0x1 PUSH1 0x3 PUSH1 0x0 DUP6 PUSH20 0xFFFFFFFFFFFFFFFFFFFFFFFFFFFFFFFFFFFFFFFF AND PUSH20 0xFFFFFFFFFFFFFFFFFFFFFFFFFFFFFFFFFFFFFFFF AND DUP2 MSTORE PUSH1 0x20 ADD SWAP1 DUP2 MSTORE PUSH1 0x20 ADD PUSH1 0x0 KECCAK256 PUSH1 0x0 DUP3 DUP3 SLOAD SUB SWAP3 POP POP DUP2 SWAP1 SSTORE POP PUSH1 0x1 PUSH1 0x3 PUSH1 0x0 DUP5 PUSH20 0xFFFFFFFFFFFFFFFFFFFFFFFFFFFFFFFFFFFFFFFF AND PUSH20 0xFFFFFFFFFFFFFFFFFFFFFFFFFFFFFFFFFFFFFFFF AND DUP2 MSTORE PUSH1 0x20 ADD SWAP1 DUP2 MSTORE PUSH1 0x20 ADD PUSH1 0x0 KECCAK256 PUSH1 0x0 DUP3 DUP3 SLOAD ADD SWAP3 POP POP DUP2 SWAP1 SSTORE POP DUP2 PUSH1 0x2 PUSH1 0x0 DUP4 DUP2 MSTORE PUSH1 0x20 ADD SWAP1 DUP2 MSTORE PUSH1 0x20 ADD PUSH1 0x0 KECCAK256 PUSH1 0x0 PUSH2 0x100 EXP DUP2 SLOAD DUP2 PUSH20 0xFFFFFFFFFFFFFFFFFFFFFFFFFFFFFFFFFFFFFFFF MUL NOT AND SWAP1 DUP4 PUSH20 0xFFFFFFFFFFFFFFFFFFFFFFFFFFFFFFFFFFFFFFFF AND MUL OR SWAP1 SSTORE POP DUP1 DUP3 PUSH20 0xFFFFFFFFFFFFFFFFFFFFFFFFFFFFFFFFFFFFFFFF AND DUP5 PUSH20 0xFFFFFFFFFFFFFFFFFFFFFFFFFFFFFFFFFFFFFFFF AND PUSH32 0xDDF252AD1BE2C89B69C2B068FC378DAA952BA7F163C4A11628F55A4DF523B3EF PUSH1 0x40 MLOAD PUSH1 0x40 MLOAD DUP1 SWAP2 SUB SWAP1 LOG4 PUSH2 0x1773 DUP4 DUP4 DUP4 PUSH1 0x1 PUSH2 0x1B17 JUMP JUMPDEST POP POP POP JUMP JUMPDEST PUSH1 0x0 PUSH1 0x2 PUSH1 0x0 DUP4 DUP2 MSTORE PUSH1 0x20 ADD SWAP1 DUP2 MSTORE PUSH1 0x20 ADD PUSH1 0x0 KECCAK256 PUSH1 0x0 SWAP1 SLOAD SWAP1 PUSH2 0x100 EXP SWAP1 DIV PUSH20 0xFFFFFFFFFFFFFFFFFFFFFFFFFFFFFFFFFFFFFFFF AND SWAP1 POP SWAP2 SWAP1 POP JUMP JUMPDEST DUP2 PUSH20 0xFFFFFFFFFFFFFFFFFFFFFFFFFFFFFFFFFFFFFFFF AND DUP4 PUSH20 0xFFFFFFFFFFFFFFFFFFFFFFFFFFFFFFFFFFFFFFFF AND SUB PUSH2 0x1823 JUMPI PUSH1 0x40 MLOAD PUSH32 0x8C379A000000000000000000000000000000000000000000000000000000000 DUP2 MSTORE PUSH1 0x4 ADD PUSH2 0x181A SWAP1 PUSH2 0x3B64 JUMP JUMPDEST PUSH1 0x40 MLOAD DUP1 SWAP2 SUB SWAP1 REVERT JUMPDEST DUP1 PUSH1 0x5 PUSH1 0x0 DUP6 PUSH20 0xFFFFFFFFFFFFFFFFFFFFFFFFFFFFFFFFFFFFFFFF AND PUSH20 0xFFFFFFFFFFFFFFFFFFFFFFFFFFFFFFFFFFFFFFFF AND DUP2 MSTORE PUSH1 0x20 ADD SWAP1 DUP2 MSTORE PUSH1 0x20 ADD PUSH1 0x0 KECCAK256 PUSH1 0x0 DUP5 PUSH20 0xFFFFFFFFFFFFFFFFFFFFFFFFFFFFFFFFFFFFFFFF AND PUSH20 0xFFFFFFFFFFFFFFFFFFFFFFFFFFFFFFFFFFFFFFFF AND DUP2 MSTORE PUSH1 0x20 ADD SWAP1 DUP2 MSTORE PUSH1 0x20 ADD PUSH1 0x0 KECCAK256 PUSH1 0x0 PUSH2 0x100 EXP DUP2 SLOAD DUP2 PUSH1 0xFF MUL NOT AND SWAP1 DUP4 ISZERO ISZERO MUL OR SWAP1 SSTORE POP DUP2 PUSH20 0xFFFFFFFFFFFFFFFFFFFFFFFFFFFFFFFFFFFFFFFF AND DUP4 PUSH20 0xFFFFFFFFFFFFFFFFFFFFFFFFFFFFFFFFFFFFFFFF AND PUSH32 0x17307EAB39AB6107E8899845AD3D59BD9653F200F220920489CA2B5937696C31 DUP4 PUSH1 0x40 MLOAD PUSH2 0x1914 SWAP2 SWAP1 PUSH2 0x20F4 JUMP JUMPDEST PUSH1 0x40 MLOAD DUP1 SWAP2 SUB SWAP1 LOG3 POP POP POP JUMP JUMPDEST PUSH2 0x193B DUP3 DUP3 PUSH1 0x40 MLOAD DUP1 PUSH1 0x20 ADD PUSH1 0x40 MSTORE DUP1 PUSH1 0x0 DUP2 MSTORE POP PUSH2 0x1B1D JUMP JUMPDEST POP POP JUMP JUMPDEST PUSH2 0x194A DUP5 DUP5 DUP5 PUSH2 0x147F JUMP JUMPDEST PUSH2 0x1956 DUP5 DUP5 DUP5 DUP5 PUSH2 0x1B78 JUMP JUMPDEST PUSH2 0x1995 JUMPI PUSH1 0x40 MLOAD PUSH32 0x8C379A000000000000000000000000000000000000000000000000000000000 DUP2 MSTORE PUSH1 0x4 ADD PUSH2 0x198C SWAP1 PUSH2 0x3BF6 JUMP JUMPDEST PUSH1 0x40 MLOAD DUP1 SWAP2 SUB SWAP1 REVERT JUMPDEST POP POP POP POP JUMP JUMPDEST PUSH1 0x60 PUSH2 0x19A9 DUP3 PUSH1 0x0 DUP1 PUSH2 0x1CFF JUMP JUMPDEST SWAP1 POP SWAP2 SWAP1 POP JUMP JUMPDEST PUSH1 0x0 DUP1 PUSH20 0xFFFFFFFFFFFFFFFFFFFFFFFFFFFFFFFFFFFFFFFF AND PUSH2 0x19D2 DUP4 PUSH2 0x1778 JUMP JUMPDEST PUSH20 0xFFFFFFFFFFFFFFFFFFFFFFFFFFFFFFFFFFFFFFFF AND EQ ISZERO SWAP1 POP SWAP2 SWAP1 POP JUMP JUMPDEST PUSH1 0x1 DUP2 GT ISZERO PUSH2 0x1B11 JUMPI PUSH1 0x0 PUSH20 0xFFFFFFFFFFFFFFFFFFFFFFFFFFFFFFFFFFFFFFFF AND DUP5 PUSH20 0xFFFFFFFFFFFFFFFFFFFFFFFFFFFFFFFFFFFFFFFF AND EQ PUSH2 0x1A85 JUMPI DUP1 PUSH1 0x3 PUSH1 0x0 DUP7 PUSH20 0xFFFFFFFFFFFFFFFFFFFFFFFFFFFFFFFFFFFFFFFF AND PUSH20 0xFFFFFFFFFFFFFFFFFFFFFFFFFFFFFFFFFFFFFFFF AND DUP2 MSTORE PUSH1 0x20 ADD SWAP1 DUP2 MSTORE PUSH1 0x20 ADD PUSH1 0x0 KECCAK256 PUSH1 0x0 DUP3 DUP3 SLOAD PUSH2 0x1A7D SWAP2 SWAP1 PUSH2 0x3C16 JUMP JUMPDEST SWAP3 POP POP DUP2 SWAP1 SSTORE POP JUMPDEST PUSH1 0x0 PUSH20 0xFFFFFFFFFFFFFFFFFFFFFFFFFFFFFFFFFFFFFFFF AND DUP4 PUSH20 0xFFFFFFFFFFFFFFFFFFFFFFFFFFFFFFFFFFFFFFFF AND EQ PUSH2 0x1B10 JUMPI DUP1 PUSH1 0x3 PUSH1 0x0 DUP6 PUSH20 0xFFFFFFFFFFFFFFFFFFFFFFFFFFFFFFFFFFFFFFFF AND PUSH20 0xFFFFFFFFFFFFFFFFFFFFFFFFFFFFFFFFFFFFFFFF AND DUP2 MSTORE PUSH1 0x20 ADD SWAP1 DUP2 MSTORE PUSH1 0x20 ADD PUSH1 0x0 KECCAK256 PUSH1 0x0 DUP3 DUP3 SLOAD PUSH2 0x1B08 SWAP2 SWAP1 PUSH2 0x3C4A JUMP JUMPDEST SWAP3 POP POP DUP2 SWAP1 SSTORE POP JUMPDEST JUMPDEST POP POP POP POP JUMP JUMPDEST POP POP POP POP JUMP JUMPDEST PUSH2 0x1B27 DUP4 DUP4 PUSH2 0x1E00 JUMP JUMPDEST PUSH2 0x1B34 PUSH1 0x0 DUP5 DUP5 DUP5 PUSH2 0x1B78 JUMP JUMPDEST PUSH2 0x1B73 JUMPI PUSH1 0x40 MLOAD PUSH32 0x8C379A000000000000000000000000000000000000000000000000000000000 DUP2 MSTORE PUSH1 0x4 ADD PUSH2 0x1B6A SWAP1 PUSH2 0x3BF6 JUMP JUMPDEST PUSH1 0x40 MLOAD DUP1 SWAP2 SUB SWAP1 REVERT JUMPDEST POP POP POP JUMP JUMPDEST PUSH1 0x0 PUSH2 0x1B99 DUP5 PUSH20 0xFFFFFFFFFFFFFFFFFFFFFFFFFFFFFFFFFFFFFFFF AND PUSH2 0x201D JUMP JUMPDEST ISZERO PUSH2 0x1CF2 JUMPI DUP4 PUSH20 0xFFFFFFFFFFFFFFFFFFFFFFFFFFFFFFFFFFFFFFFF AND PUSH4 0x150B7A02 PUSH2 0x1BC2 PUSH2 0x1329 JUMP JUMPDEST DUP8 DUP7 DUP7 PUSH1 0x40 MLOAD DUP6 PUSH4 0xFFFFFFFF AND PUSH1 0xE0 SHL DUP2 MSTORE PUSH1 0x4 ADD PUSH2 0x1BE4 SWAP5 SWAP4 SWAP3 SWAP2 SWAP1 PUSH2 0x3C7E JUMP JUMPDEST PUSH1 0x20 PUSH1 0x40 MLOAD DUP1 DUP4 SUB DUP2 PUSH1 0x0 DUP8 GAS CALL SWAP3 POP POP POP DUP1 ISZERO PUSH2 0x1C20 JUMPI POP PUSH1 0x40 MLOAD RETURNDATASIZE PUSH1 0x1F NOT PUSH1 0x1F DUP3 ADD AND DUP3 ADD DUP1 PUSH1 0x40 MSTORE POP DUP2 ADD SWAP1 PUSH2 0x1C1D SWAP2 SWAP1 PUSH2 0x3CDF JUMP JUMPDEST PUSH1 0x1 JUMPDEST PUSH2 0x1CA2 JUMPI RETURNDATASIZE DUP1 PUSH1 0x0 DUP2 EQ PUSH2 0x1C50 JUMPI PUSH1 0x40 MLOAD SWAP2 POP PUSH1 0x1F NOT PUSH1 0x3F RETURNDATASIZE ADD AND DUP3 ADD PUSH1 0x40 MSTORE RETURNDATASIZE DUP3 MSTORE RETURNDATASIZE PUSH1 0x0 PUSH1 0x20 DUP5 ADD RETURNDATACOPY PUSH2 0x1C55 JUMP JUMPDEST PUSH1 0x60 SWAP2 POP JUMPDEST POP PUSH1 0x0 DUP2 MLOAD SUB PUSH2 0x1C9A JUMPI PUSH1 0x40 MLOAD PUSH32 0x8C379A000000000000000000000000000000000000000000000000000000000 DUP2 MSTORE PUSH1 0x4 ADD PUSH2 0x1C91 SWAP1 PUSH2 0x3BF6 JUMP JUMPDEST PUSH1 0x40 MLOAD DUP1 SWAP2 SUB SWAP1 REVERT JUMPDEST DUP1 MLOAD DUP2 PUSH1 0x20 ADD REVERT JUMPDEST PUSH4 0x150B7A02 PUSH1 0xE0 SHL PUSH28 0xFFFFFFFFFFFFFFFFFFFFFFFFFFFFFFFFFFFFFFFFFFFFFFFFFFFFFFFF NOT AND DUP2 PUSH28 0xFFFFFFFFFFFFFFFFFFFFFFFFFFFFFFFFFFFFFFFFFFFFFFFFFFFFFFFF NOT AND EQ SWAP2 POP POP PUSH2 0x1CF7 JUMP JUMPDEST PUSH1 0x1 SWAP1 POP JUMPDEST SWAP5 SWAP4 POP POP POP POP JUMP JUMPDEST PUSH1 0x60 DUP4 MLOAD DUP1 ISZERO PUSH2 0x1DF8 JUMPI PUSH1 0x3 PUSH1 0x2 DUP3 ADD DIV PUSH1 0x2 SHL PUSH1 0x40 MLOAD SWAP3 POP PUSH32 0x4142434445464748494A4B4C4D4E4F505152535455565758595A616263646566 PUSH1 0x1F MSTORE PUSH2 0x230 DUP6 ISZERO MUL PUSH32 0x6768696A6B6C6D6E6F707172737475767778797A303132333435363738392D5F SUB PUSH1 0x3F MSTORE PUSH1 0x20 DUP4 ADD DUP2 DUP2 ADD JUMPDEST PUSH1 0x1 ISZERO PUSH2 0x1DC5 JUMPI PUSH1 0x3 DUP9 ADD SWAP8 POP DUP8 MLOAD PUSH1 0x3F DUP2 PUSH1 0x12 SHR AND MLOAD PUSH1 0x0 MSTORE8 PUSH1 0x3F DUP2 PUSH1 0xC SHR AND MLOAD PUSH1 0x1 MSTORE8 PUSH1 0x3F DUP2 PUSH1 0x6 SHR AND MLOAD PUSH1 0x2 MSTORE8 PUSH1 0x3F DUP2 AND MLOAD PUSH1 0x3 MSTORE8 PUSH1 0x0 MLOAD DUP4 MSTORE PUSH1 0x4 DUP4 ADD SWAP3 POP DUP2 DUP4 LT PUSH2 0x1DBF JUMPI POP PUSH2 0x1DC5 JUMP JUMPDEST POP PUSH2 0x1D6F JUMP JUMPDEST PUSH1 0x1F NOT PUSH1 0x1F DUP3 ADD AND PUSH1 0x40 MSTORE PUSH1 0x3 DUP5 MOD PUSH1 0x2 DIV PUSH2 0x3D3D PUSH1 0xF0 SHL DUP2 DUP5 SUB MSTORE DUP1 DUP8 ISZERO ISZERO MUL SWAP1 POP PUSH1 0x0 DUP2 DUP5 SUB MSTORE DUP1 DUP5 SUB DUP7 MSTORE POP POP POP POP JUMPDEST POP SWAP4 SWAP3 POP POP POP JUMP JUMPDEST PUSH1 0x0 PUSH20 0xFFFFFFFFFFFFFFFFFFFFFFFFFFFFFFFFFFFFFFFF AND DUP3 PUSH20 0xFFFFFFFFFFFFFFFFFFFFFFFFFFFFFFFFFFFFFFFF AND SUB PUSH2 0x1E6F JUMPI PUSH1 0x40 MLOAD PUSH32 0x8C379A000000000000000000000000000000000000000000000000000000000 DUP2 MSTORE PUSH1 0x4 ADD PUSH2 0x1E66 SWAP1 PUSH2 0x3D7E JUMP JUMPDEST PUSH1 0x40 MLOAD DUP1 SWAP2 SUB SWAP1 REVERT JUMPDEST PUSH2 0x1E78 DUP2 PUSH2 0x19B0 JUMP JUMPDEST ISZERO PUSH2 0x1EB8 JUMPI PUSH1 0x40 MLOAD PUSH32 0x8C379A000000000000000000000000000000000000000000000000000000000 DUP2 MSTORE PUSH1 0x4 ADD PUSH2 0x1EAF SWAP1 PUSH2 0x3E10 JUMP JUMPDEST PUSH1 0x40 MLOAD DUP1 SWAP2 SUB SWAP1 REVERT JUMPDEST PUSH2 0x1EC6 PUSH1 0x0 DUP4 DUP4 PUSH1 0x1 PUSH2 0x19F1 JUMP JUMPDEST PUSH2 0x1ECF DUP2 PUSH2 0x19B0 JUMP JUMPDEST ISZERO PUSH2 0x1F0F JUMPI PUSH1 0x40 MLOAD PUSH32 0x8C379A000000000000000000000000000000000000000000000000000000000 DUP2 MSTORE PUSH1 0x4 ADD PUSH2 0x1F06 SWAP1 PUSH2 0x3E10 JUMP JUMPDEST PUSH1 0x40 MLOAD DUP1 SWAP2 SUB SWAP1 REVERT JUMPDEST PUSH1 0x1 PUSH1 0x3 PUSH1 0x0 DUP5 PUSH20 0xFFFFFFFFFFFFFFFFFFFFFFFFFFFFFFFFFFFFFFFF AND PUSH20 0xFFFFFFFFFFFFFFFFFFFFFFFFFFFFFFFFFFFFFFFF AND DUP2 MSTORE PUSH1 0x20 ADD SWAP1 DUP2 MSTORE PUSH1 0x20 ADD PUSH1 0x0 KECCAK256 PUSH1 0x0 DUP3 DUP3 SLOAD ADD SWAP3 POP POP DUP2 SWAP1 SSTORE POP DUP2 PUSH1 0x2 PUSH1 0x0 DUP4 DUP2 MSTORE PUSH1 0x20 ADD SWAP1 DUP2 MSTORE PUSH1 0x20 ADD PUSH1 0x0 KECCAK256 PUSH1 0x0 PUSH2 0x100 EXP DUP2 SLOAD DUP2 PUSH20 0xFFFFFFFFFFFFFFFFFFFFFFFFFFFFFFFFFFFFFFFF MUL NOT AND SWAP1 DUP4 PUSH20 0xFFFFFFFFFFFFFFFFFFFFFFFFFFFFFFFFFFFFFFFF AND MUL OR SWAP1 SSTORE POP DUP1 DUP3 PUSH20 0xFFFFFFFFFFFFFFFFFFFFFFFFFFFFFFFFFFFFFFFF AND PUSH1 0x0 PUSH20 0xFFFFFFFFFFFFFFFFFFFFFFFFFFFFFFFFFFFFFFFF AND PUSH32 0xDDF252AD1BE2C89B69C2B068FC378DAA952BA7F163C4A11628F55A4DF523B3EF PUSH1 0x40 MLOAD PUSH1 0x40 MLOAD DUP1 SWAP2 SUB SWAP1 LOG4 PUSH2 0x2019 PUSH1 0x0 DUP4 DUP4 PUSH1 0x1 PUSH2 0x1B17 JUMP JUMPDEST POP POP JUMP JUMPDEST PUSH1 0x0 DUP1 DUP3 PUSH20 0xFFFFFFFFFFFFFFFFFFFFFFFFFFFFFFFFFFFFFFFF AND EXTCODESIZE GT SWAP1 POP SWAP2 SWAP1 POP JUMP JUMPDEST PUSH1 0x0 PUSH1 0x40 MLOAD SWAP1 POP SWAP1 JUMP JUMPDEST PUSH1 0x0 DUP1 REVERT JUMPDEST PUSH1 0x0 DUP1 REVERT JUMPDEST PUSH1 0x0 PUSH32 0xFFFFFFFF00000000000000000000000000000000000000000000000000000000 DUP3 AND SWAP1 POP SWAP2 SWAP1 POP JUMP JUMPDEST PUSH2 0x2089 DUP2 PUSH2 0x2054 JUMP JUMPDEST DUP2 EQ PUSH2 0x2094 JUMPI PUSH1 0x0 DUP1 REVERT JUMPDEST POP JUMP JUMPDEST PUSH1 0x0 DUP2 CALLDATALOAD SWAP1 POP PUSH2 0x20A6 DUP2 PUSH2 0x2080 JUMP JUMPDEST SWAP3 SWAP2 POP POP JUMP JUMPDEST PUSH1 0x0 PUSH1 0x20 DUP3 DUP5 SUB SLT ISZERO PUSH2 0x20C2 JUMPI PUSH2 0x20C1 PUSH2 0x204A JUMP JUMPDEST JUMPDEST PUSH1 0x0 PUSH2 0x20D0 DUP5 DUP3 DUP6 ADD PUSH2 0x2097 JUMP JUMPDEST SWAP2 POP POP SWAP3 SWAP2 POP POP JUMP JUMPDEST PUSH1 0x0 DUP2 ISZERO ISZERO SWAP1 POP SWAP2 SWAP1 POP JUMP JUMPDEST PUSH2 0x20EE DUP2 PUSH2 0x20D9 JUMP JUMPDEST DUP3 MSTORE POP POP JUMP JUMPDEST PUSH1 0x0 PUSH1 0x20 DUP3 ADD SWAP1 POP PUSH2 0x2109 PUSH1 0x0 DUP4 ADD DUP5 PUSH2 0x20E5 JUMP JUMPDEST SWAP3 SWAP2 POP POP JUMP JUMPDEST PUSH1 0x0 DUP2 MLOAD SWAP1 POP SWAP2 SWAP1 POP JUMP JUMPDEST PUSH1 0x0 DUP3 DUP3 MSTORE PUSH1 0x20 DUP3 ADD SWAP1 POP SWAP3 SWAP2 POP POP JUMP JUMPDEST PUSH1 0x0 JUMPDEST DUP4 DUP2 LT ISZERO PUSH2 0x2149 JUMPI DUP1 DUP3 ADD MLOAD DUP2 DUP5 ADD MSTORE PUSH1 0x20 DUP2 ADD SWAP1 POP PUSH2 0x212E JUMP JUMPDEST PUSH1 0x0 DUP5 DUP5 ADD MSTORE POP POP POP POP JUMP JUMPDEST PUSH1 0x0 PUSH1 0x1F NOT PUSH1 0x1F DUP4 ADD AND SWAP1 POP SWAP2 SWAP1 POP JUMP JUMPDEST PUSH1 0x0 PUSH2 0x2171 DUP3 PUSH2 0x210F JUMP JUMPDEST PUSH2 0x217B DUP2 DUP6 PUSH2 0x211A JUMP JUMPDEST SWAP4 POP PUSH2 0x218B DUP2 DUP6 PUSH1 0x20 DUP7 ADD PUSH2 0x212B JUMP JUMPDEST PUSH2 0x2194 DUP2 PUSH2 0x2155 JUMP JUMPDEST DUP5 ADD SWAP2 POP POP SWAP3 SWAP2 POP POP JUMP JUMPDEST PUSH1 0x0 PUSH1 0x20 DUP3 ADD SWAP1 POP DUP2 DUP2 SUB PUSH1 0x0 DUP4 ADD MSTORE PUSH2 0x21B9 DUP2 DUP5 PUSH2 0x2166 JUMP JUMPDEST SWAP1 POP SWAP3 SWAP2 POP POP JUMP JUMPDEST PUSH1 0x0 DUP2 SWAP1 POP SWAP2 SWAP1 POP JUMP JUMPDEST PUSH2 0x21D4 DUP2 PUSH2 0x21C1 JUMP JUMPDEST DUP2 EQ PUSH2 0x21DF JUMPI PUSH1 0x0 DUP1 REVERT JUMPDEST POP JUMP JUMPDEST PUSH1 0x0 DUP2 CALLDATALOAD SWAP1 POP PUSH2 0x21F1 DUP2 PUSH2 0x21CB JUMP JUMPDEST SWAP3 SWAP2 POP POP JUMP JUMPDEST PUSH1 0x0 PUSH1 0x20 DUP3 DUP5 SUB SLT ISZERO PUSH2 0x220D JUMPI PUSH2 0x220C PUSH2 0x204A JUMP JUMPDEST JUMPDEST PUSH1 0x0 PUSH2 0x221B DUP5 DUP3 DUP6 ADD PUSH2 0x21E2 JUMP JUMPDEST SWAP2 POP POP SWAP3 SWAP2 POP POP JUMP JUMPDEST PUSH1 0x0 PUSH20 0xFFFFFFFFFFFFFFFFFFFFFFFFFFFFFFFFFFFFFFFF DUP3 AND SWAP1 POP SWAP2 SWAP1 POP JUMP JUMPDEST PUSH1 0x0 PUSH2 0x224F DUP3 PUSH2 0x2224 JUMP JUMPDEST SWAP1 POP SWAP2 SWAP1 POP JUMP JUMPDEST PUSH2 0x225F DUP2 PUSH2 0x2244 JUMP JUMPDEST DUP3 MSTORE POP POP JUMP JUMPDEST PUSH1 0x0 PUSH1 0x20 DUP3 ADD SWAP1 POP PUSH2 0x227A PUSH1 0x0 DUP4 ADD DUP5 PUSH2 0x2256 JUMP JUMPDEST SWAP3 SWAP2 POP POP JUMP JUMPDEST PUSH2 0x2289 DUP2 PUSH2 0x2244 JUMP JUMPDEST DUP2 EQ PUSH2 0x2294 JUMPI PUSH1 0x0 DUP1 REVERT JUMPDEST POP JUMP JUMPDEST PUSH1 0x0 DUP2 CALLDATALOAD SWAP1 POP PUSH2 0x22A6 DUP2 PUSH2 0x2280 JUMP JUMPDEST SWAP3 SWAP2 POP POP JUMP JUMPDEST PUSH1 0x0 DUP1 PUSH1 0x40 DUP4 DUP6 SUB SLT ISZERO PUSH2 0x22C3 JUMPI PUSH2 0x22C2 PUSH2 0x204A JUMP JUMPDEST JUMPDEST PUSH1 0x0 PUSH2 0x22D1 DUP6 DUP3 DUP7 ADD PUSH2 0x2297 JUMP JUMPDEST SWAP3 POP POP PUSH1 0x20 PUSH2 0x22E2 DUP6 DUP3 DUP7 ADD PUSH2 0x21E2 JUMP JUMPDEST SWAP2 POP POP SWAP3 POP SWAP3 SWAP1 POP JUMP JUMPDEST PUSH1 0x0 DUP1 PUSH1 0x0 PUSH1 0x60 DUP5 DUP7 SUB SLT ISZERO PUSH2 0x2305 JUMPI PUSH2 0x2304 PUSH2 0x204A JUMP JUMPDEST JUMPDEST PUSH1 0x0 PUSH2 0x2313 DUP7 DUP3 DUP8 ADD PUSH2 0x2297 JUMP JUMPDEST SWAP4 POP POP PUSH1 0x20 PUSH2 0x2324 DUP7 DUP3 DUP8 ADD PUSH2 0x2297 JUMP JUMPDEST SWAP3 POP POP PUSH1 0x40 PUSH2 0x2335 DUP7 DUP3 DUP8 ADD PUSH2 0x21E2 JUMP JUMPDEST SWAP2 POP POP SWAP3 POP SWAP3 POP SWAP3 JUMP JUMPDEST PUSH1 0x0 DUP1 REVERT JUMPDEST PUSH1 0x0 PUSH1 0x40 DUP3 DUP5 SUB SLT ISZERO PUSH2 0x235A JUMPI PUSH2 0x2359 PUSH2 0x233F JUMP JUMPDEST JUMPDEST DUP2 SWAP1 POP SWAP3 SWAP2 POP POP JUMP JUMPDEST PUSH1 0x0 DUP1 REVERT JUMPDEST PUSH1 0x0 DUP1 REVERT JUMPDEST PUSH1 0x0 DUP1 REVERT JUMPDEST PUSH1 0x0 DUP1 DUP4 PUSH1 0x1F DUP5 ADD SLT PUSH2 0x2388 JUMPI PUSH2 0x2387 PUSH2 0x2363 JUMP JUMPDEST JUMPDEST DUP3 CALLDATALOAD SWAP1 POP PUSH8 0xFFFFFFFFFFFFFFFF DUP2 GT ISZERO PUSH2 0x23A5 JUMPI PUSH2 0x23A4 PUSH2 0x2368 JUMP JUMPDEST JUMPDEST PUSH1 0x20 DUP4 ADD SWAP2 POP DUP4 PUSH1 0x20 DUP3 MUL DUP4 ADD GT ISZERO PUSH2 0x23C1 JUMPI PUSH2 0x23C0 PUSH2 0x236D JUMP JUMPDEST JUMPDEST SWAP3 POP SWAP3 SWAP1 POP JUMP JUMPDEST PUSH1 0x0 DUP1 PUSH1 0x0 DUP1 PUSH1 0x0 PUSH1 0x80 DUP7 DUP9 SUB SLT ISZERO PUSH2 0x23E4 JUMPI PUSH2 0x23E3 PUSH2 0x204A JUMP JUMPDEST JUMPDEST PUSH1 0x0 DUP7 ADD CALLDATALOAD PUSH8 0xFFFFFFFFFFFFFFFF DUP2 GT ISZERO PUSH2 0x2402 JUMPI PUSH2 0x2401 PUSH2 0x204F JUMP JUMPDEST JUMPDEST PUSH2 0x240E DUP9 DUP3 DUP10 ADD PUSH2 0x2344 JUMP JUMPDEST SWAP6 POP POP PUSH1 0x20 PUSH2 0x241F DUP9 DUP3 DUP10 ADD PUSH2 0x2297 JUMP JUMPDEST SWAP5 POP POP PUSH1 0x40 PUSH2 0x2430 DUP9 DUP3 DUP10 ADD PUSH2 0x21E2 JUMP JUMPDEST SWAP4 POP POP PUSH1 0x60 DUP7 ADD CALLDATALOAD PUSH8 0xFFFFFFFFFFFFFFFF DUP2 GT ISZERO PUSH2 0x2451 JUMPI PUSH2 0x2450 PUSH2 0x204F JUMP JUMPDEST JUMPDEST PUSH2 0x245D DUP9 DUP3 DUP10 ADD PUSH2 0x2372 JUMP JUMPDEST SWAP3 POP SWAP3 POP POP SWAP3 SWAP6 POP SWAP3 SWAP6 SWAP1 SWAP4 POP JUMP JUMPDEST PUSH1 0x0 PUSH1 0x20 DUP3 DUP5 SUB SLT ISZERO PUSH2 0x2482 JUMPI PUSH2 0x2481 PUSH2 0x204A JUMP JUMPDEST JUMPDEST PUSH1 0x0 PUSH2 0x2490 DUP5 DUP3 DUP6 ADD PUSH2 0x2297 JUMP JUMPDEST SWAP2 POP POP SWAP3 SWAP2 POP POP JUMP JUMPDEST PUSH2 0x24A2 DUP2 PUSH2 0x21C1 JUMP JUMPDEST DUP3 MSTORE POP POP JUMP JUMPDEST PUSH1 0x0 PUSH1 0x20 DUP3 ADD SWAP1 POP PUSH2 0x24BD PUSH1 0x0 DUP4 ADD DUP5 PUSH2 0x2499 JUMP JUMPDEST SWAP3 SWAP2 POP POP JUMP JUMPDEST PUSH1 0x0 DUP2 MLOAD SWAP1 POP SWAP2 SWAP1 POP JUMP JUMPDEST PUSH1 0x0 DUP3 DUP3 MSTORE PUSH1 0x20 DUP3 ADD SWAP1 POP SWAP3 SWAP2 POP POP JUMP JUMPDEST PUSH1 0x0 PUSH2 0x24EA DUP3 PUSH2 0x24C3 JUMP JUMPDEST PUSH2 0x24F4 DUP2 DUP6 PUSH2 0x24CE JUMP JUMPDEST SWAP4 POP PUSH2 0x2504 DUP2 DUP6 PUSH1 0x20 DUP7 ADD PUSH2 0x212B JUMP JUMPDEST PUSH2 0x250D DUP2 PUSH2 0x2155 JUMP JUMPDEST DUP5 ADD SWAP2 POP POP SWAP3 SWAP2 POP POP JUMP JUMPDEST PUSH1 0x0 PUSH1 0xFF DUP3 AND SWAP1 POP SWAP2 SWAP1 POP JUMP JUMPDEST PUSH2 0x252E DUP2 PUSH2 0x2518 JUMP JUMPDEST DUP3 MSTORE POP POP JUMP JUMPDEST PUSH1 0x0 PUSH1 0xE0 DUP3 ADD SWAP1 POP DUP2 DUP2 SUB PUSH1 0x0 DUP4 ADD MSTORE PUSH2 0x254E DUP2 DUP11 PUSH2 0x2166 JUMP JUMPDEST SWAP1 POP PUSH2 0x255D PUSH1 0x20 DUP4 ADD DUP10 PUSH2 0x2256 JUMP JUMPDEST DUP2 DUP2 SUB PUSH1 0x40 DUP4 ADD MSTORE PUSH2 0x256F DUP2 DUP9 PUSH2 0x24DF JUMP JUMPDEST SWAP1 POP PUSH2 0x257E PUSH1 0x60 DUP4 ADD DUP8 PUSH2 0x2525 JUMP JUMPDEST DUP2 DUP2 SUB PUSH1 0x80 DUP4 ADD MSTORE PUSH2 0x2590 DUP2 DUP7 PUSH2 0x24DF JUMP JUMPDEST SWAP1 POP DUP2 DUP2 SUB PUSH1 0xA0 DUP4 ADD MSTORE PUSH2 0x25A4 DUP2 DUP6 PUSH2 0x24DF JUMP JUMPDEST SWAP1 POP DUP2 DUP2 SUB PUSH1 0xC0 DUP4 ADD MSTORE PUSH2 0x25B8 DUP2 DUP5 PUSH2 0x24DF JUMP JUMPDEST SWAP1 POP SWAP9 SWAP8 POP POP POP POP POP POP POP POP JUMP JUMPDEST PUSH2 0x25CF DUP2 PUSH2 0x20D9 JUMP JUMPDEST DUP2 EQ PUSH2 0x25DA JUMPI PUSH1 0x0 DUP1 REVERT JUMPDEST POP JUMP JUMPDEST PUSH1 0x0 DUP2 CALLDATALOAD SWAP1 POP PUSH2 0x25EC DUP2 PUSH2 0x25C6 JUMP JUMPDEST SWAP3 SWAP2 POP POP JUMP JUMPDEST PUSH1 0x0 DUP1 PUSH1 0x40 DUP4 DUP6 SUB SLT ISZERO PUSH2 0x2609 JUMPI PUSH2 0x2608 PUSH2 0x204A JUMP JUMPDEST JUMPDEST PUSH1 0x0 PUSH2 0x2617 DUP6 DUP3 DUP7 ADD PUSH2 0x2297 JUMP JUMPDEST SWAP3 POP POP PUSH1 0x20 PUSH2 0x2628 DUP6 DUP3 DUP7 ADD PUSH2 0x25DD JUMP JUMPDEST SWAP2 POP POP SWAP3 POP SWAP3 SWAP1 POP JUMP JUMPDEST PUSH1 0x0 DUP1 REVERT JUMPDEST PUSH32 0x4E487B7100000000000000000000000000000000000000000000000000000000 PUSH1 0x0 MSTORE PUSH1 0x41 PUSH1 0x4 MSTORE PUSH1 0x24 PUSH1 0x0 REVERT JUMPDEST PUSH2 0x266F DUP3 PUSH2 0x2155 JUMP JUMPDEST DUP2 ADD DUP2 DUP2 LT PUSH8 0xFFFFFFFFFFFFFFFF DUP3 GT OR ISZERO PUSH2 0x268E JUMPI PUSH2 0x268D PUSH2 0x2637 JUMP JUMPDEST JUMPDEST DUP1 PUSH1 0x40 MSTORE POP POP POP JUMP JUMPDEST PUSH1 0x0 PUSH2 0x26A1 PUSH2 0x2040 JUMP JUMPDEST SWAP1 POP PUSH2 0x26AD DUP3 DUP3 PUSH2 0x2666 JUMP JUMPDEST SWAP2 SWAP1 POP JUMP JUMPDEST PUSH1 0x0 PUSH8 0xFFFFFFFFFFFFFFFF DUP3 GT ISZERO PUSH2 0x26CD JUMPI PUSH2 0x26CC PUSH2 0x2637 JUMP JUMPDEST JUMPDEST PUSH2 0x26D6 DUP3 PUSH2 0x2155 JUMP JUMPDEST SWAP1 POP PUSH1 0x20 DUP2 ADD SWAP1 POP SWAP2 SWAP1 POP JUMP JUMPDEST DUP3 DUP2 DUP4 CALLDATACOPY PUSH1 0x0 DUP4 DUP4 ADD MSTORE POP POP POP JUMP JUMPDEST PUSH1 0x0 PUSH2 0x2705 PUSH2 0x2700 DUP5 PUSH2 0x26B2 JUMP JUMPDEST PUSH2 0x2697 JUMP JUMPDEST SWAP1 POP DUP3 DUP2 MSTORE PUSH1 0x20 DUP2 ADD DUP5 DUP5 DUP5 ADD GT ISZERO PUSH2 0x2721 JUMPI PUSH2 0x2720 PUSH2 0x2632 JUMP JUMPDEST JUMPDEST PUSH2 0x272C DUP5 DUP3 DUP6 PUSH2 0x26E3 JUMP JUMPDEST POP SWAP4 SWAP3 POP POP POP JUMP JUMPDEST PUSH1 0x0 DUP3 PUSH1 0x1F DUP4 ADD SLT PUSH2 0x2749 JUMPI PUSH2 0x2748 PUSH2 0x2363 JUMP JUMPDEST JUMPDEST DUP2 CALLDATALOAD PUSH2 0x2759 DUP5 DUP3 PUSH1 0x20 DUP7 ADD PUSH2 0x26F2 JUMP JUMPDEST SWAP2 POP POP SWAP3 SWAP2 POP POP JUMP JUMPDEST PUSH1 0x0 PUSH1 0x20 DUP3 DUP5 SUB SLT ISZERO PUSH2 0x2778 JUMPI PUSH2 0x2777 PUSH2 0x204A JUMP JUMPDEST JUMPDEST PUSH1 0x0 DUP3 ADD CALLDATALOAD PUSH8 0xFFFFFFFFFFFFFFFF DUP2 GT ISZERO PUSH2 0x2796 JUMPI PUSH2 0x2795 PUSH2 0x204F JUMP JUMPDEST JUMPDEST PUSH2 0x27A2 DUP5 DUP3 DUP6 ADD PUSH2 0x2734 JUMP JUMPDEST SWAP2 POP POP SWAP3 SWAP2 POP POP JUMP JUMPDEST PUSH1 0x0 PUSH8 0xFFFFFFFFFFFFFFFF DUP3 GT ISZERO PUSH2 0x27C6 JUMPI PUSH2 0x27C5 PUSH2 0x2637 JUMP JUMPDEST JUMPDEST PUSH2 0x27CF DUP3 PUSH2 0x2155 JUMP JUMPDEST SWAP1 POP PUSH1 0x20 DUP2 ADD SWAP1 POP SWAP2 SWAP1 POP JUMP JUMPDEST PUSH1 0x0 PUSH2 0x27EF PUSH2 0x27EA DUP5 PUSH2 0x27AB JUMP JUMPDEST PUSH2 0x2697 JUMP JUMPDEST SWAP1 POP DUP3 DUP2 MSTORE PUSH1 0x20 DUP2 ADD DUP5 DUP5 DUP5 ADD GT ISZERO PUSH2 0x280B JUMPI PUSH2 0x280A PUSH2 0x2632 JUMP JUMPDEST JUMPDEST PUSH2 0x2816 DUP5 DUP3 DUP6 PUSH2 0x26E3 JUMP JUMPDEST POP SWAP4 SWAP3 POP POP POP JUMP JUMPDEST PUSH1 0x0 DUP3 PUSH1 0x1F DUP4 ADD SLT PUSH2 0x2833 JUMPI PUSH2 0x2832 PUSH2 0x2363 JUMP JUMPDEST JUMPDEST DUP2 CALLDATALOAD PUSH2 0x2843 DUP5 DUP3 PUSH1 0x20 DUP7 ADD PUSH2 0x27DC JUMP JUMPDEST SWAP2 POP POP SWAP3 SWAP2 POP POP JUMP JUMPDEST PUSH1 0x0 DUP1 PUSH1 0x0 DUP1 PUSH1 0x80 DUP6 DUP8 SUB SLT ISZERO PUSH2 0x2866 JUMPI PUSH2 0x2865 PUSH2 0x204A JUMP JUMPDEST JUMPDEST PUSH1 0x0 PUSH2 0x2874 DUP8 DUP3 DUP9 ADD PUSH2 0x2297 JUMP JUMPDEST SWAP5 POP POP PUSH1 0x20 PUSH2 0x2885 DUP8 DUP3 DUP9 ADD PUSH2 0x2297 JUMP JUMPDEST SWAP4 POP POP PUSH1 0x40 PUSH2 0x2896 DUP8 DUP3 DUP9 ADD PUSH2 0x21E2 JUMP JUMPDEST SWAP3 POP POP PUSH1 0x60 DUP6 ADD CALLDATALOAD PUSH8 0xFFFFFFFFFFFFFFFF DUP2 GT ISZERO PUSH2 0x28B7 JUMPI PUSH2 0x28B6 PUSH2 0x204F JUMP JUMPDEST JUMPDEST PUSH2 0x28C3 DUP8 DUP3 DUP9 ADD PUSH2 0x281E JUMP JUMPDEST SWAP2 POP POP SWAP3 SWAP6 SWAP2 SWAP5 POP SWAP3 POP JUMP JUMPDEST PUSH1 0x0 DUP1 PUSH1 0x40 DUP4 DUP6 SUB SLT ISZERO PUSH2 0x28E6 JUMPI PUSH2 0x28E5 PUSH2 0x204A JUMP JUMPDEST JUMPDEST PUSH1 0x0 PUSH2 0x28F4 DUP6 DUP3 DUP7 ADD PUSH2 0x2297 JUMP JUMPDEST SWAP3 POP POP PUSH1 0x20 PUSH2 0x2905 DUP6 DUP3 DUP7 ADD PUSH2 0x2297 JUMP JUMPDEST SWAP2 POP POP SWAP3 POP SWAP3 SWAP1 POP JUMP JUMPDEST PUSH32 0x4E487B7100000000000000000000000000000000000000000000000000000000 PUSH1 0x0 MSTORE PUSH1 0x22 PUSH1 0x4 MSTORE PUSH1 0x24 PUSH1 0x0 REVERT JUMPDEST PUSH1 0x0 PUSH1 0x2 DUP3 DIV SWAP1 POP PUSH1 0x1 DUP3 AND DUP1 PUSH2 0x2956 JUMPI PUSH1 0x7F DUP3 AND SWAP2 POP JUMPDEST PUSH1 0x20 DUP3 LT DUP2 SUB PUSH2 0x2969 JUMPI PUSH2 0x2968 PUSH2 0x290F JUMP JUMPDEST JUMPDEST POP SWAP2 SWAP1 POP JUMP JUMPDEST PUSH32 0x455243373231436C6F6E6561626C653A20617070726F76616C20746F20637572 PUSH1 0x0 DUP3 ADD MSTORE PUSH32 0x72656E74206F776E657200000000000000000000000000000000000000000000 PUSH1 0x20 DUP3 ADD MSTORE POP JUMP JUMPDEST PUSH1 0x0 PUSH2 0x29CB PUSH1 0x2A DUP4 PUSH2 0x211A JUMP JUMPDEST SWAP2 POP PUSH2 0x29D6 DUP3 PUSH2 0x296F JUMP JUMPDEST PUSH1 0x40 DUP3 ADD SWAP1 POP SWAP2 SWAP1 POP JUMP JUMPDEST PUSH1 0x0 PUSH1 0x20 DUP3 ADD SWAP1 POP DUP2 DUP2 SUB PUSH1 0x0 DUP4 ADD MSTORE PUSH2 0x29FA DUP2 PUSH2 0x29BE JUMP JUMPDEST SWAP1 POP SWAP2 SWAP1 POP JUMP JUMPDEST PUSH32 0x455243373231436C6F6E6561626C653A20617070726F76652063616C6C657220 PUSH1 0x0 DUP3 ADD MSTORE PUSH32 0x6973206E6F7420746F6B656E206F776E6572206F7220617070726F7665642066 PUSH1 0x20 DUP3 ADD MSTORE PUSH32 0x6F7220616C6C0000000000000000000000000000000000000000000000000000 PUSH1 0x40 DUP3 ADD MSTORE POP JUMP JUMPDEST PUSH1 0x0 PUSH2 0x2A83 PUSH1 0x46 DUP4 PUSH2 0x211A JUMP JUMPDEST SWAP2 POP PUSH2 0x2A8E DUP3 PUSH2 0x2A01 JUMP JUMPDEST PUSH1 0x60 DUP3 ADD SWAP1 POP SWAP2 SWAP1 POP JUMP JUMPDEST PUSH1 0x0 PUSH1 0x20 DUP3 ADD SWAP1 POP DUP2 DUP2 SUB PUSH1 0x0 DUP4 ADD MSTORE PUSH2 0x2AB2 DUP2 PUSH2 0x2A76 JUMP JUMPDEST SWAP1 POP SWAP2 SWAP1 POP JUMP JUMPDEST PUSH32 0x455243373231436C6F6E6561626C653A2063616C6C6572206973206E6F742074 PUSH1 0x0 DUP3 ADD MSTORE PUSH32 0x6F6B656E206F776E6572206F7220617070726F76656400000000000000000000 PUSH1 0x20 DUP3 ADD MSTORE POP JUMP JUMPDEST PUSH1 0x0 PUSH2 0x2B15 PUSH1 0x36 DUP4 PUSH2 0x211A JUMP JUMPDEST SWAP2 POP PUSH2 0x2B20 DUP3 PUSH2 0x2AB9 JUMP JUMPDEST PUSH1 0x40 DUP3 ADD SWAP1 POP SWAP2 SWAP1 POP JUMP JUMPDEST PUSH1 0x0 PUSH1 0x20 DUP3 ADD SWAP1 POP DUP2 DUP2 SUB PUSH1 0x0 DUP4 ADD MSTORE PUSH2 0x2B44 DUP2 PUSH2 0x2B08 JUMP JUMPDEST SWAP1 POP SWAP2 SWAP1 POP JUMP JUMPDEST PUSH32 0x4672616D653A20616C726561647920696E697469616C697A6564000000000000 PUSH1 0x0 DUP3 ADD MSTORE POP JUMP JUMPDEST PUSH1 0x0 PUSH2 0x2B81 PUSH1 0x1A DUP4 PUSH2 0x211A JUMP JUMPDEST SWAP2 POP PUSH2 0x2B8C DUP3 PUSH2 0x2B4B JUMP JUMPDEST PUSH1 0x20 DUP3 ADD SWAP1 POP SWAP2 SWAP1 POP JUMP JUMPDEST PUSH1 0x0 PUSH1 0x20 DUP3 ADD SWAP1 POP DUP2 DUP2 SUB PUSH1 0x0 DUP4 ADD MSTORE PUSH2 0x2BB0 DUP2 PUSH2 0x2B74 JUMP JUMPDEST SWAP1 POP SWAP2 SWAP1 POP JUMP JUMPDEST PUSH1 0x0 DUP1 REVERT JUMPDEST PUSH1 0x0 DUP1 REVERT JUMPDEST PUSH1 0x0 DUP1 REVERT JUMPDEST PUSH1 0x0 DUP1 DUP4 CALLDATALOAD PUSH1 0x1 PUSH1 0x20 SUB DUP5 CALLDATASIZE SUB SUB DUP2 SLT PUSH2 0x2BE3 JUMPI PUSH2 0x2BE2 PUSH2 0x2BB7 JUMP JUMPDEST JUMPDEST DUP1 DUP5 ADD SWAP3 POP DUP3 CALLDATALOAD SWAP2 POP PUSH8 0xFFFFFFFFFFFFFFFF DUP3 GT ISZERO PUSH2 0x2C05 JUMPI PUSH2 0x2C04 PUSH2 0x2BBC JUMP JUMPDEST JUMPDEST PUSH1 0x20 DUP4 ADD SWAP3 POP PUSH1 0x1 DUP3 MUL CALLDATASIZE SUB DUP4 SGT ISZERO PUSH2 0x2C21 JUMPI PUSH2 0x2C20 PUSH2 0x2BC1 JUMP JUMPDEST JUMPDEST POP SWAP3 POP SWAP3 SWAP1 POP JUMP JUMPDEST PUSH1 0x0 DUP3 SWAP1 POP SWAP3 SWAP2 POP POP JUMP JUMPDEST PUSH1 0x0 DUP2 SWAP1 POP DUP2 PUSH1 0x0 MSTORE PUSH1 0x20 PUSH1 0x0 KECCAK256 SWAP1 POP SWAP2 SWAP1 POP JUMP JUMPDEST PUSH1 0x0 PUSH1 0x20 PUSH1 0x1F DUP4 ADD DIV SWAP1 POP SWAP2 SWAP1 POP JUMP JUMPDEST PUSH1 0x0 DUP3 DUP3 SHL SWAP1 POP SWAP3 SWAP2 POP POP JUMP JUMPDEST PUSH1 0x0 PUSH1 0x8 DUP4 MUL PUSH2 0x2C96 PUSH32 0xFFFFFFFFFFFFFFFFFFFFFFFFFFFFFFFFFFFFFFFFFFFFFFFFFFFFFFFFFFFFFFFF DUP3 PUSH2 0x2C59 JUMP JUMPDEST PUSH2 0x2CA0 DUP7 DUP4 PUSH2 0x2C59 JUMP JUMPDEST SWAP6 POP DUP1 NOT DUP5 AND SWAP4 POP DUP1 DUP7 AND DUP5 OR SWAP3 POP POP POP SWAP4 SWAP3 POP POP POP JUMP JUMPDEST PUSH1 0x0 DUP2 SWAP1 POP SWAP2 SWAP1 POP JUMP JUMPDEST PUSH1 0x0 PUSH2 0x2CDD PUSH2 0x2CD8 PUSH2 0x2CD3 DUP5 PUSH2 0x21C1 JUMP JUMPDEST PUSH2 0x2CB8 JUMP JUMPDEST PUSH2 0x21C1 JUMP JUMPDEST SWAP1 POP SWAP2 SWAP1 POP JUMP JUMPDEST PUSH1 0x0 DUP2 SWAP1 POP SWAP2 SWAP1 POP JUMP JUMPDEST PUSH2 0x2CF7 DUP4 PUSH2 0x2CC2 JUMP JUMPDEST PUSH2 0x2D0B PUSH2 0x2D03 DUP3 PUSH2 0x2CE4 JUMP JUMPDEST DUP5 DUP5 SLOAD PUSH2 0x2C66 JUMP JUMPDEST DUP3 SSTORE POP POP POP POP JUMP JUMPDEST PUSH1 0x0 SWAP1 JUMP JUMPDEST PUSH2 0x2D20 PUSH2 0x2D13 JUMP JUMPDEST PUSH2 0x2D2B DUP2 DUP5 DUP5 PUSH2 0x2CEE JUMP JUMPDEST POP POP POP JUMP JUMPDEST JUMPDEST DUP2 DUP2 LT ISZERO PUSH2 0x2D4F JUMPI PUSH2 0x2D44 PUSH1 0x0 DUP3 PUSH2 0x2D18 JUMP JUMPDEST PUSH1 0x1 DUP2 ADD SWAP1 POP PUSH2 0x2D31 JUMP JUMPDEST POP POP JUMP JUMPDEST PUSH1 0x1F DUP3 GT ISZERO PUSH2 0x2D94 JUMPI PUSH2 0x2D65 DUP2 PUSH2 0x2C34 JUMP JUMPDEST PUSH2 0x2D6E DUP5 PUSH2 0x2C49 JUMP JUMPDEST DUP2 ADD PUSH1 0x20 DUP6 LT ISZERO PUSH2 0x2D7D JUMPI DUP2 SWAP1 POP JUMPDEST PUSH2 0x2D91 PUSH2 0x2D89 DUP6 PUSH2 0x2C49 JUMP JUMPDEST DUP4 ADD DUP3 PUSH2 0x2D30 JUMP JUMPDEST POP POP JUMPDEST POP POP POP JUMP JUMPDEST PUSH1 0x0 DUP3 DUP3 SHR SWAP1 POP SWAP3 SWAP2 POP POP JUMP JUMPDEST PUSH1 0x0 PUSH2 0x2DB7 PUSH1 0x0 NOT DUP5 PUSH1 0x8 MUL PUSH2 0x2D99 JUMP JUMPDEST NOT DUP1 DUP4 AND SWAP2 POP POP SWAP3 SWAP2 POP POP JUMP JUMPDEST PUSH1 0x0 PUSH2 0x2DD0 DUP4 DUP4 PUSH2 0x2DA6 JUMP JUMPDEST SWAP2 POP DUP3 PUSH1 0x2 MUL DUP3 OR SWAP1 POP SWAP3 SWAP2 POP POP JUMP JUMPDEST PUSH2 0x2DEA DUP4 DUP4 PUSH2 0x2C29 JUMP JUMPDEST PUSH8 0xFFFFFFFFFFFFFFFF DUP2 GT ISZERO PUSH2 0x2E03 JUMPI PUSH2 0x2E02 PUSH2 0x2637 JUMP JUMPDEST JUMPDEST PUSH2 0x2E0D DUP3 SLOAD PUSH2 0x293E JUMP JUMPDEST PUSH2 0x2E18 DUP3 DUP3 DUP6 PUSH2 0x2D53 JUMP JUMPDEST PUSH1 0x0 PUSH1 0x1F DUP4 GT PUSH1 0x1 DUP2 EQ PUSH2 0x2E47 JUMPI PUSH1 0x0 DUP5 ISZERO PUSH2 0x2E35 JUMPI DUP3 DUP8 ADD CALLDATALOAD SWAP1 POP JUMPDEST PUSH2 0x2E3F DUP6 DUP3 PUSH2 0x2DC4 JUMP JUMPDEST DUP7 SSTORE POP PUSH2 0x2EA7 JUMP JUMPDEST PUSH1 0x1F NOT DUP5 AND PUSH2 0x2E55 DUP7 PUSH2 0x2C34 JUMP JUMPDEST PUSH1 0x0 JUMPDEST DUP3 DUP2 LT ISZERO PUSH2 0x2E7D JUMPI DUP5 DUP10 ADD CALLDATALOAD DUP3 SSTORE PUSH1 0x1 DUP3 ADD SWAP2 POP PUSH1 0x20 DUP6 ADD SWAP5 POP PUSH1 0x20 DUP2 ADD SWAP1 POP PUSH2 0x2E58 JUMP JUMPDEST DUP7 DUP4 LT ISZERO PUSH2 0x2E9A JUMPI DUP5 DUP10 ADD CALLDATALOAD PUSH2 0x2E96 PUSH1 0x1F DUP10 AND DUP3 PUSH2 0x2DA6 JUMP JUMPDEST DUP4 SSTORE POP JUMPDEST PUSH1 0x1 PUSH1 0x2 DUP9 MUL ADD DUP9 SSTORE POP POP POP JUMPDEST POP POP POP POP POP POP POP JUMP JUMPDEST PUSH32 0x4E487B7100000000000000000000000000000000000000000000000000000000 PUSH1 0x0 MSTORE PUSH1 0x32 PUSH1 0x4 MSTORE PUSH1 0x24 PUSH1 0x0 REVERT JUMPDEST PUSH1 0x0 DUP3 CALLDATALOAD PUSH1 0x1 PUSH1 0xE0 SUB DUP4 CALLDATASIZE SUB SUB DUP2 SLT PUSH2 0x2EFB JUMPI PUSH2 0x2EFA PUSH2 0x2BB7 JUMP JUMPDEST JUMPDEST DUP1 DUP4 ADD SWAP2 POP POP SWAP3 SWAP2 POP POP JUMP JUMPDEST PUSH2 0x2F12 DUP4 DUP4 DUP4 PUSH2 0x2DE0 JUMP JUMPDEST POP POP POP JUMP JUMPDEST PUSH1 0x0 DUP2 CALLDATALOAD PUSH2 0x2F24 DUP2 PUSH2 0x2280 JUMP JUMPDEST DUP1 SWAP2 POP POP SWAP2 SWAP1 POP JUMP JUMPDEST PUSH1 0x0 DUP2 PUSH1 0x0 SHL SWAP1 POP SWAP2 SWAP1 POP JUMP JUMPDEST PUSH1 0x0 PUSH20 0xFFFFFFFFFFFFFFFFFFFFFFFFFFFFFFFFFFFFFFFF PUSH2 0x2F5A DUP5 PUSH2 0x2F2D JUMP JUMPDEST SWAP4 POP DUP1 NOT DUP4 AND SWAP3 POP DUP1 DUP5 AND DUP4 OR SWAP2 POP POP SWAP3 SWAP2 POP POP JUMP JUMPDEST PUSH1 0x0 PUSH2 0x2F8B PUSH2 0x2F86 PUSH2 0x2F81 DUP5 PUSH2 0x2224 JUMP JUMPDEST PUSH2 0x2CB8 JUMP JUMPDEST PUSH2 0x2224 JUMP JUMPDEST SWAP1 POP SWAP2 SWAP1 POP JUMP JUMPDEST PUSH1 0x0 PUSH2 0x2F9D DUP3 PUSH2 0x2F70 JUMP JUMPDEST SWAP1 POP SWAP2 SWAP1 POP JUMP JUMPDEST PUSH1 0x0 PUSH2 0x2FAF DUP3 PUSH2 0x2F92 JUMP JUMPDEST SWAP1 POP SWAP2 SWAP1 POP JUMP JUMPDEST PUSH1 0x0 DUP2 SWAP1 POP SWAP2 SWAP1 POP JUMP JUMPDEST PUSH2 0x2FC9 DUP3 PUSH2 0x2FA4 JUMP JUMPDEST PUSH2 0x2FDC PUSH2 0x2FD5 DUP3 PUSH2 0x2FB6 JUMP JUMPDEST DUP4 SLOAD PUSH2 0x2F3A JUMP JUMPDEST DUP3 SSTORE POP POP POP JUMP JUMPDEST PUSH1 0x0 DUP1 DUP4 CALLDATALOAD PUSH1 0x1 PUSH1 0x20 SUB DUP5 CALLDATASIZE SUB SUB DUP2 SLT PUSH2 0x3000 JUMPI PUSH2 0x2FFF PUSH2 0x2BB7 JUMP JUMPDEST JUMPDEST DUP1 DUP5 ADD SWAP3 POP DUP3 CALLDATALOAD SWAP2 POP PUSH8 0xFFFFFFFFFFFFFFFF DUP3 GT ISZERO PUSH2 0x3022 JUMPI PUSH2 0x3021 PUSH2 0x2BBC JUMP JUMPDEST JUMPDEST PUSH1 0x20 DUP4 ADD SWAP3 POP PUSH1 0x1 DUP3 MUL CALLDATASIZE SUB DUP4 SGT ISZERO PUSH2 0x303E JUMPI PUSH2 0x303D PUSH2 0x2BC1 JUMP JUMPDEST JUMPDEST POP SWAP3 POP SWAP3 SWAP1 POP JUMP JUMPDEST PUSH1 0x0 DUP3 SWAP1 POP SWAP3 SWAP2 POP POP JUMP JUMPDEST PUSH1 0x0 DUP2 SWAP1 POP DUP2 PUSH1 0x0 MSTORE PUSH1 0x20 PUSH1 0x0 KECCAK256 SWAP1 POP SWAP2 SWAP1 POP JUMP JUMPDEST PUSH1 0x1F DUP3 GT ISZERO PUSH2 0x30A7 JUMPI PUSH2 0x3078 DUP2 PUSH2 0x3051 JUMP JUMPDEST PUSH2 0x3081 DUP5 PUSH2 0x2C49 JUMP JUMPDEST DUP2 ADD PUSH1 0x20 DUP6 LT ISZERO PUSH2 0x3090 JUMPI DUP2 SWAP1 POP JUMPDEST PUSH2 0x30A4 PUSH2 0x309C DUP6 PUSH2 0x2C49 JUMP JUMPDEST DUP4 ADD DUP3 PUSH2 0x2D30 JUMP JUMPDEST POP POP JUMPDEST POP POP POP JUMP JUMPDEST PUSH2 0x30B6 DUP4 DUP4 PUSH2 0x3046 JUMP JUMPDEST PUSH8 0xFFFFFFFFFFFFFFFF DUP2 GT ISZERO PUSH2 0x30CF JUMPI PUSH2 0x30CE PUSH2 0x2637 JUMP JUMPDEST JUMPDEST PUSH2 0x30D9 DUP3 SLOAD PUSH2 0x293E JUMP JUMPDEST PUSH2 0x30E4 DUP3 DUP3 DUP6 PUSH2 0x3066 JUMP JUMPDEST PUSH1 0x0 PUSH1 0x1F DUP4 GT PUSH1 0x1 DUP2 EQ PUSH2 0x3113 JUMPI PUSH1 0x0 DUP5 ISZERO PUSH2 0x3101 JUMPI DUP3 DUP8 ADD CALLDATALOAD SWAP1 POP JUMPDEST PUSH2 0x310B DUP6 DUP3 PUSH2 0x2DC4 JUMP JUMPDEST DUP7 SSTORE POP PUSH2 0x3173 JUMP JUMPDEST PUSH1 0x1F NOT DUP5 AND PUSH2 0x3121 DUP7 PUSH2 0x3051 JUMP JUMPDEST PUSH1 0x0 JUMPDEST DUP3 DUP2 LT ISZERO PUSH2 0x3149 JUMPI DUP5 DUP10 ADD CALLDATALOAD DUP3 SSTORE PUSH1 0x1 DUP3 ADD SWAP2 POP PUSH1 0x20 DUP6 ADD SWAP5 POP PUSH1 0x20 DUP2 ADD SWAP1 POP PUSH2 0x3124 JUMP JUMPDEST DUP7 DUP4 LT ISZERO PUSH2 0x3166 JUMPI DUP5 DUP10 ADD CALLDATALOAD PUSH2 0x3162 PUSH1 0x1F DUP10 AND DUP3 PUSH2 0x2DA6 JUMP JUMPDEST DUP4 SSTORE POP JUMPDEST PUSH1 0x1 PUSH1 0x2 DUP9 MUL ADD DUP9 SSTORE POP POP POP JUMPDEST POP POP POP POP POP POP POP JUMP JUMPDEST PUSH2 0x3187 DUP4 DUP4 DUP4 PUSH2 0x30AC JUMP JUMPDEST POP POP POP JUMP JUMPDEST PUSH2 0x3195 DUP2 PUSH2 0x2518 JUMP JUMPDEST DUP2 EQ PUSH2 0x31A0 JUMPI PUSH1 0x0 DUP1 REVERT JUMPDEST POP JUMP JUMPDEST PUSH1 0x0 DUP2 CALLDATALOAD PUSH2 0x31B0 DUP2 PUSH2 0x318C JUMP JUMPDEST DUP1 SWAP2 POP POP SWAP2 SWAP1 POP JUMP JUMPDEST PUSH1 0x0 PUSH1 0xFF PUSH2 0x31C6 DUP5 PUSH2 0x2F2D JUMP JUMPDEST SWAP4 POP DUP1 NOT DUP4 AND SWAP3 POP DUP1 DUP5 AND DUP4 OR SWAP2 POP POP SWAP3 SWAP2 POP POP JUMP JUMPDEST PUSH1 0x0 PUSH2 0x31F7 PUSH2 0x31F2 PUSH2 0x31ED DUP5 PUSH2 0x2518 JUMP JUMPDEST PUSH2 0x2CB8 JUMP JUMPDEST PUSH2 0x2518 JUMP JUMPDEST SWAP1 POP SWAP2 SWAP1 POP JUMP JUMPDEST PUSH1 0x0 DUP2 SWAP1 POP SWAP2 SWAP1 POP JUMP JUMPDEST PUSH2 0x3211 DUP3 PUSH2 0x31DC JUMP JUMPDEST PUSH2 0x3224 PUSH2 0x321D DUP3 PUSH2 0x31FE JUMP JUMPDEST DUP4 SLOAD PUSH2 0x31B9 JUMP JUMPDEST DUP3 SSTORE POP POP POP JUMP JUMPDEST PUSH1 0x0 DUP2 ADD PUSH1 0x0 DUP4 ADD PUSH2 0x323D DUP2 DUP6 PUSH2 0x2BC6 JUMP JUMPDEST PUSH2 0x3248 DUP2 DUP4 DUP7 PUSH2 0x2F07 JUMP JUMPDEST POP POP POP POP PUSH1 0x1 DUP2 ADD PUSH1 0x20 DUP4 ADD DUP1 PUSH2 0x325E DUP2 PUSH2 0x2F17 JUMP JUMPDEST SWAP1 POP PUSH2 0x326A DUP2 DUP5 PUSH2 0x2FC0 JUMP JUMPDEST POP POP POP PUSH1 0x2 DUP2 ADD PUSH1 0x40 DUP4 ADD PUSH2 0x327F DUP2 DUP6 PUSH2 0x2FE3 JUMP JUMPDEST PUSH2 0x328A DUP2 DUP4 DUP7 PUSH2 0x317C JUMP JUMPDEST POP POP POP POP PUSH1 0x3 DUP2 ADD PUSH1 0x60 DUP4 ADD DUP1 PUSH2 0x32A0 DUP2 PUSH2 0x31A3 JUMP JUMPDEST SWAP1 POP PUSH2 0x32AC DUP2 DUP5 PUSH2 0x3208 JUMP JUMPDEST POP POP POP PUSH1 0x4 DUP2 ADD PUSH1 0x80 DUP4 ADD PUSH2 0x32C1 DUP2 DUP6 PUSH2 0x2FE3 JUMP JUMPDEST PUSH2 0x32CC DUP2 DUP4 DUP7 PUSH2 0x317C JUMP JUMPDEST POP POP POP POP PUSH1 0x5 DUP2 ADD PUSH1 0xA0 DUP4 ADD PUSH2 0x32E2 DUP2 DUP6 PUSH2 0x2FE3 JUMP JUMPDEST PUSH2 0x32ED DUP2 DUP4 DUP7 PUSH2 0x317C JUMP JUMPDEST POP POP POP POP PUSH1 0x6 DUP2 ADD PUSH1 0xC0 DUP4 ADD PUSH2 0x3303 DUP2 DUP6 PUSH2 0x2FE3 JUMP JUMPDEST PUSH2 0x330E DUP2 DUP4 DUP7 PUSH2 0x317C JUMP JUMPDEST POP POP POP POP POP POP JUMP JUMPDEST PUSH2 0x3320 DUP3 DUP3 PUSH2 0x322B JUMP JUMPDEST POP POP JUMP JUMPDEST PUSH32 0x4E487B7100000000000000000000000000000000000000000000000000000000 PUSH1 0x0 MSTORE PUSH1 0x11 PUSH1 0x4 MSTORE PUSH1 0x24 PUSH1 0x0 REVERT JUMPDEST PUSH1 0x0 PUSH2 0x335E DUP3 PUSH2 0x21C1 JUMP JUMPDEST SWAP2 POP PUSH32 0xFFFFFFFFFFFFFFFFFFFFFFFFFFFFFFFFFFFFFFFFFFFFFFFFFFFFFFFFFFFFFFFF DUP3 SUB PUSH2 0x3390 JUMPI PUSH2 0x338F PUSH2 0x3324 JUMP JUMPDEST JUMPDEST PUSH1 0x1 DUP3 ADD SWAP1 POP SWAP2 SWAP1 POP JUMP JUMPDEST PUSH32 0x455243373231436C6F6E6561626C653A20696E76616C696420746F6B656E2049 PUSH1 0x0 DUP3 ADD MSTORE PUSH32 0x4400000000000000000000000000000000000000000000000000000000000000 PUSH1 0x20 DUP3 ADD MSTORE POP JUMP JUMPDEST PUSH1 0x0 PUSH2 0x33F7 PUSH1 0x21 DUP4 PUSH2 0x211A JUMP JUMPDEST SWAP2 POP PUSH2 0x3402 DUP3 PUSH2 0x339B JUMP JUMPDEST PUSH1 0x40 DUP3 ADD SWAP1 POP SWAP2 SWAP1 POP JUMP JUMPDEST PUSH1 0x0 PUSH1 0x20 DUP3 ADD SWAP1 POP DUP2 DUP2 SUB PUSH1 0x0 DUP4 ADD MSTORE PUSH2 0x3426 DUP2 PUSH2 0x33EA JUMP JUMPDEST SWAP1 POP SWAP2 SWAP1 POP JUMP JUMPDEST PUSH32 0x455243373231436C6F6E6561626C653A2061646472657373207A65726F206973 PUSH1 0x0 DUP3 ADD MSTORE PUSH32 0x206E6F7420612076616C6964206F776E65720000000000000000000000000000 PUSH1 0x20 DUP3 ADD MSTORE POP JUMP JUMPDEST PUSH1 0x0 PUSH2 0x3489 PUSH1 0x32 DUP4 PUSH2 0x211A JUMP JUMPDEST SWAP2 POP PUSH2 0x3494 DUP3 PUSH2 0x342D JUMP JUMPDEST PUSH1 0x40 DUP3 ADD SWAP1 POP SWAP2 SWAP1 POP JUMP JUMPDEST PUSH1 0x0 PUSH1 0x20 DUP3 ADD SWAP1 POP DUP2 DUP2 SUB PUSH1 0x0 DUP4 ADD MSTORE PUSH2 0x34B8 DUP2 PUSH2 0x347C JUMP JUMPDEST SWAP1 POP SWAP2 SWAP1 POP JUMP JUMPDEST PUSH32 0x4672616D653A20416C7265616479206D696E7465640000000000000000000000 PUSH1 0x0 DUP3 ADD MSTORE POP JUMP JUMPDEST PUSH1 0x0 PUSH2 0x34F5 PUSH1 0x15 DUP4 PUSH2 0x211A JUMP JUMPDEST SWAP2 POP PUSH2 0x3500 DUP3 PUSH2 0x34BF JUMP JUMPDEST PUSH1 0x20 DUP3 ADD SWAP1 POP SWAP2 SWAP1 POP JUMP JUMPDEST PUSH1 0x0 PUSH1 0x20 DUP3 ADD SWAP1 POP DUP2 DUP2 SUB PUSH1 0x0 DUP4 ADD MSTORE PUSH2 0x3524 DUP2 PUSH2 0x34E8 JUMP JUMPDEST SWAP1 POP SWAP2 SWAP1 POP JUMP JUMPDEST PUSH32 0x455243373231436C6F6E6561626C653A2073796D626F6C20616C726561647920 PUSH1 0x0 DUP3 ADD MSTORE PUSH32 0x7365740000000000000000000000000000000000000000000000000000000000 PUSH1 0x20 DUP3 ADD MSTORE POP JUMP JUMPDEST PUSH1 0x0 PUSH2 0x3587 PUSH1 0x23 DUP4 PUSH2 0x211A JUMP JUMPDEST SWAP2 POP PUSH2 0x3592 DUP3 PUSH2 0x352B JUMP JUMPDEST PUSH1 0x40 DUP3 ADD SWAP1 POP SWAP2 SWAP1 POP JUMP JUMPDEST PUSH1 0x0 PUSH1 0x20 DUP3 ADD SWAP1 POP DUP2 DUP2 SUB PUSH1 0x0 DUP4 ADD MSTORE PUSH2 0x35B6 DUP2 PUSH2 0x357A JUMP JUMPDEST SWAP1 POP SWAP2 SWAP1 POP JUMP JUMPDEST PUSH2 0x35C6 DUP3 PUSH2 0x210F JUMP JUMPDEST PUSH8 0xFFFFFFFFFFFFFFFF DUP2 GT ISZERO PUSH2 0x35DF JUMPI PUSH2 0x35DE PUSH2 0x2637 JUMP JUMPDEST JUMPDEST PUSH2 0x35E9 DUP3 SLOAD PUSH2 0x293E JUMP JUMPDEST PUSH2 0x35F4 DUP3 DUP3 DUP6 PUSH2 0x2D53 JUMP JUMPDEST PUSH1 0x0 PUSH1 0x20 SWAP1 POP PUSH1 0x1F DUP4 GT PUSH1 0x1 DUP2 EQ PUSH2 0x3627 JUMPI PUSH1 0x0 DUP5 ISZERO PUSH2 0x3615 JUMPI DUP3 DUP8 ADD MLOAD SWAP1 POP JUMPDEST PUSH2 0x361F DUP6 DUP3 PUSH2 0x2DC4 JUMP JUMPDEST DUP7 SSTORE POP PUSH2 0x3687 JUMP JUMPDEST PUSH1 0x1F NOT DUP5 AND PUSH2 0x3635 DUP7 PUSH2 0x2C34 JUMP JUMPDEST PUSH1 0x0 JUMPDEST DUP3 DUP2 LT ISZERO PUSH2 0x365D JUMPI DUP5 DUP10 ADD MLOAD DUP3 SSTORE PUSH1 0x1 DUP3 ADD SWAP2 POP PUSH1 0x20 DUP6 ADD SWAP5 POP PUSH1 0x20 DUP2 ADD SWAP1 POP PUSH2 0x3638 JUMP JUMPDEST DUP7 DUP4 LT ISZERO PUSH2 0x367A JUMPI DUP5 DUP10 ADD MLOAD PUSH2 0x3676 PUSH1 0x1F DUP10 AND DUP3 PUSH2 0x2DA6 JUMP JUMPDEST DUP4 SSTORE POP JUMPDEST PUSH1 0x1 PUSH1 0x2 DUP9 MUL ADD DUP9 SSTORE POP POP POP JUMPDEST POP POP POP POP POP POP JUMP JUMPDEST PUSH32 0x455243373231436C6F6E6561626C653A206E616D6520616C7265616479207365 PUSH1 0x0 DUP3 ADD MSTORE PUSH32 0x7400000000000000000000000000000000000000000000000000000000000000 PUSH1 0x20 DUP3 ADD MSTORE POP JUMP JUMPDEST PUSH1 0x0 PUSH2 0x36EB PUSH1 0x21 DUP4 PUSH2 0x211A JUMP JUMPDEST SWAP2 POP PUSH2 0x36F6 DUP3 PUSH2 0x368F JUMP JUMPDEST PUSH1 0x40 DUP3 ADD SWAP1 POP SWAP2 SWAP1 POP JUMP JUMPDEST PUSH1 0x0 PUSH1 0x20 DUP3 ADD SWAP1 POP DUP2 DUP2 SUB PUSH1 0x0 DUP4 ADD MSTORE PUSH2 0x371A DUP2 PUSH2 0x36DE JUMP JUMPDEST SWAP1 POP SWAP2 SWAP1 POP JUMP JUMPDEST PUSH1 0x0 DUP2 SWAP1 POP SWAP3 SWAP2 POP POP JUMP JUMPDEST PUSH32 0x7B226E616D65223A220000000000000000000000000000000000000000000000 PUSH1 0x0 DUP3 ADD MSTORE POP JUMP JUMPDEST PUSH1 0x0 PUSH2 0x3762 PUSH1 0x9 DUP4 PUSH2 0x3721 JUMP JUMPDEST SWAP2 POP PUSH2 0x376D DUP3 PUSH2 0x372C JUMP JUMPDEST PUSH1 0x9 DUP3 ADD SWAP1 POP SWAP2 SWAP1 POP JUMP JUMPDEST PUSH1 0x0 DUP2 SLOAD PUSH2 0x3785 DUP2 PUSH2 0x293E JUMP JUMPDEST PUSH2 0x378F DUP2 DUP7 PUSH2 0x3721 JUMP JUMPDEST SWAP5 POP PUSH1 0x1 DUP3 AND PUSH1 0x0 DUP2 EQ PUSH2 0x37AA JUMPI PUSH1 0x1 DUP2 EQ PUSH2 0x37BF JUMPI PUSH2 0x37F2 JUMP JUMPDEST PUSH1 0xFF NOT DUP4 AND DUP7 MSTORE DUP2 ISZERO ISZERO DUP3 MUL DUP7 ADD SWAP4 POP PUSH2 0x37F2 JUMP JUMPDEST PUSH2 0x37C8 DUP6 PUSH2 0x2C34 JUMP JUMPDEST PUSH1 0x0 JUMPDEST DUP4 DUP2 LT ISZERO PUSH2 0x37EA JUMPI DUP2 SLOAD DUP2 DUP10 ADD MSTORE PUSH1 0x1 DUP3 ADD SWAP2 POP PUSH1 0x20 DUP2 ADD SWAP1 POP PUSH2 0x37CB JUMP JUMPDEST DUP4 DUP9 ADD SWAP6 POP POP POP JUMPDEST POP POP POP SWAP3 SWAP2 POP POP JUMP JUMPDEST PUSH32 0x222C20226465736372697074696F6E223A220000000000000000000000000000 PUSH1 0x0 DUP3 ADD MSTORE POP JUMP JUMPDEST PUSH1 0x0 PUSH2 0x3831 PUSH1 0x12 DUP4 PUSH2 0x3721 JUMP JUMPDEST SWAP2 POP PUSH2 0x383C DUP3 PUSH2 0x37FB JUMP JUMPDEST PUSH1 0x12 DUP3 ADD SWAP1 POP SWAP2 SWAP1 POP JUMP JUMPDEST PUSH32 0x222C22616E696D6174696F6E5F75726C223A0000000000000000000000000000 PUSH1 0x0 DUP3 ADD MSTORE POP JUMP JUMPDEST PUSH1 0x0 PUSH2 0x387D PUSH1 0x12 DUP4 PUSH2 0x3721 JUMP JUMPDEST SWAP2 POP PUSH2 0x3888 DUP3 PUSH2 0x3847 JUMP JUMPDEST PUSH1 0x12 DUP3 ADD SWAP1 POP SWAP2 SWAP1 POP JUMP JUMPDEST PUSH32 0x227D000000000000000000000000000000000000000000000000000000000000 PUSH1 0x0 DUP3 ADD MSTORE POP JUMP JUMPDEST PUSH1 0x0 PUSH2 0x38C9 PUSH1 0x2 DUP4 PUSH2 0x3721 JUMP JUMPDEST SWAP2 POP PUSH2 0x38D4 DUP3 PUSH2 0x3893 JUMP JUMPDEST PUSH1 0x2 DUP3 ADD SWAP1 POP SWAP2 SWAP1 POP JUMP JUMPDEST PUSH1 0x0 PUSH2 0x38EA DUP3 PUSH2 0x3755 JUMP JUMPDEST SWAP2 POP PUSH2 0x38F6 DUP3 DUP6 PUSH2 0x3778 JUMP JUMPDEST SWAP2 POP PUSH2 0x3901 DUP3 PUSH2 0x3824 JUMP JUMPDEST SWAP2 POP PUSH2 0x390D DUP3 DUP5 PUSH2 0x3778 JUMP JUMPDEST SWAP2 POP PUSH2 0x3918 DUP3 PUSH2 0x3870 JUMP JUMPDEST SWAP2 POP PUSH2 0x3923 DUP3 PUSH2 0x38BC JUMP JUMPDEST SWAP2 POP DUP2 SWAP1 POP SWAP4 SWAP3 POP POP POP JUMP JUMPDEST PUSH32 0x646174613A6170706C69636174696F6E2F6A736F6E3B6261736536342C000000 PUSH1 0x0 DUP3 ADD MSTORE POP JUMP JUMPDEST PUSH1 0x0 PUSH2 0x3965 PUSH1 0x1D DUP4 PUSH2 0x3721 JUMP JUMPDEST SWAP2 POP PUSH2 0x3970 DUP3 PUSH2 0x392F JUMP JUMPDEST PUSH1 0x1D DUP3 ADD SWAP1 POP SWAP2 SWAP1 POP JUMP JUMPDEST PUSH1 0x0 PUSH2 0x3986 DUP3 PUSH2 0x210F JUMP JUMPDEST PUSH2 0x3990 DUP2 DUP6 PUSH2 0x3721 JUMP JUMPDEST SWAP4 POP PUSH2 0x39A0 DUP2 DUP6 PUSH1 0x20 DUP7 ADD PUSH2 0x212B JUMP JUMPDEST DUP1 DUP5 ADD SWAP2 POP POP SWAP3 SWAP2 POP POP JUMP JUMPDEST PUSH1 0x0 PUSH2 0x39B7 DUP3 PUSH2 0x3958 JUMP JUMPDEST SWAP2 POP PUSH2 0x39C3 DUP3 DUP5 PUSH2 0x397B JUMP JUMPDEST SWAP2 POP DUP2 SWAP1 POP SWAP3 SWAP2 POP POP JUMP JUMPDEST PUSH32 0x455243373231436C6F6E6561626C653A207472616E736665722066726F6D2069 PUSH1 0x0 DUP3 ADD MSTORE PUSH32 0x6E636F7272656374206F776E6572000000000000000000000000000000000000 PUSH1 0x20 DUP3 ADD MSTORE POP JUMP JUMPDEST PUSH1 0x0 PUSH2 0x3A2A PUSH1 0x2E DUP4 PUSH2 0x211A JUMP JUMPDEST SWAP2 POP PUSH2 0x3A35 DUP3 PUSH2 0x39CE JUMP JUMPDEST PUSH1 0x40 DUP3 ADD SWAP1 POP SWAP2 SWAP1 POP JUMP JUMPDEST PUSH1 0x0 PUSH1 0x20 DUP3 ADD SWAP1 POP DUP2 DUP2 SUB PUSH1 0x0 DUP4 ADD MSTORE PUSH2 0x3A59 DUP2 PUSH2 0x3A1D JUMP JUMPDEST SWAP1 POP SWAP2 SWAP1 POP JUMP JUMPDEST PUSH32 0x455243373231436C6F6E6561626C653A207472616E7366657220746F20746865 PUSH1 0x0 DUP3 ADD MSTORE PUSH32 0x207A65726F206164647265737300000000000000000000000000000000000000 PUSH1 0x20 DUP3 ADD MSTORE POP JUMP JUMPDEST PUSH1 0x0 PUSH2 0x3ABC PUSH1 0x2D DUP4 PUSH2 0x211A JUMP JUMPDEST SWAP2 POP PUSH2 0x3AC7 DUP3 PUSH2 0x3A60 JUMP JUMPDEST PUSH1 0x40 DUP3 ADD SWAP1 POP SWAP2 SWAP1 POP JUMP JUMPDEST PUSH1 0x0 PUSH1 0x20 DUP3 ADD SWAP1 POP DUP2 DUP2 SUB PUSH1 0x0 DUP4 ADD MSTORE PUSH2 0x3AEB DUP2 PUSH2 0x3AAF JUMP JUMPDEST SWAP1 POP SWAP2 SWAP1 POP JUMP JUMPDEST PUSH32 0x455243373231436C6F6E6561626C653A20617070726F766520746F2063616C6C PUSH1 0x0 DUP3 ADD MSTORE PUSH32 0x6572000000000000000000000000000000000000000000000000000000000000 PUSH1 0x20 DUP3 ADD MSTORE POP JUMP JUMPDEST PUSH1 0x0 PUSH2 0x3B4E PUSH1 0x22 DUP4 PUSH2 0x211A JUMP JUMPDEST SWAP2 POP PUSH2 0x3B59 DUP3 PUSH2 0x3AF2 JUMP JUMPDEST PUSH1 0x40 DUP3 ADD SWAP1 POP SWAP2 SWAP1 POP JUMP JUMPDEST PUSH1 0x0 PUSH1 0x20 DUP3 ADD SWAP1 POP DUP2 DUP2 SUB PUSH1 0x0 DUP4 ADD MSTORE PUSH2 0x3B7D DUP2 PUSH2 0x3B41 JUMP JUMPDEST SWAP1 POP SWAP2 SWAP1 POP JUMP JUMPDEST PUSH32 0x455243373231436C6F6E6561626C653A207472616E7366657220746F206E6F6E PUSH1 0x0 DUP3 ADD MSTORE PUSH32 0x20455243373231526563656976657220696D706C656D656E7465720000000000 PUSH1 0x20 DUP3 ADD MSTORE POP JUMP JUMPDEST PUSH1 0x0 PUSH2 0x3BE0 PUSH1 0x3B DUP4 PUSH2 0x211A JUMP JUMPDEST SWAP2 POP PUSH2 0x3BEB DUP3 PUSH2 0x3B84 JUMP JUMPDEST PUSH1 0x40 DUP3 ADD SWAP1 POP SWAP2 SWAP1 POP JUMP JUMPDEST PUSH1 0x0 PUSH1 0x20 DUP3 ADD SWAP1 POP DUP2 DUP2 SUB PUSH1 0x0 DUP4 ADD MSTORE PUSH2 0x3C0F DUP2 PUSH2 0x3BD3 JUMP JUMPDEST SWAP1 POP SWAP2 SWAP1 POP JUMP JUMPDEST PUSH1 0x0 PUSH2 0x3C21 DUP3 PUSH2 0x21C1 JUMP JUMPDEST SWAP2 POP PUSH2 0x3C2C DUP4 PUSH2 0x21C1 JUMP JUMPDEST SWAP3 POP DUP3 DUP3 SUB SWAP1 POP DUP2 DUP2 GT ISZERO PUSH2 0x3C44 JUMPI PUSH2 0x3C43 PUSH2 0x3324 JUMP JUMPDEST JUMPDEST SWAP3 SWAP2 POP POP JUMP JUMPDEST PUSH1 0x0 PUSH2 0x3C55 DUP3 PUSH2 0x21C1 JUMP JUMPDEST SWAP2 POP PUSH2 0x3C60 DUP4 PUSH2 0x21C1 JUMP JUMPDEST SWAP3 POP DUP3 DUP3 ADD SWAP1 POP DUP1 DUP3 GT ISZERO PUSH2 0x3C78 JUMPI PUSH2 0x3C77 PUSH2 0x3324 JUMP JUMPDEST JUMPDEST SWAP3 SWAP2 POP POP JUMP JUMPDEST PUSH1 0x0 PUSH1 0x80 DUP3 ADD SWAP1 POP PUSH2 0x3C93 PUSH1 0x0 DUP4 ADD DUP8 PUSH2 0x2256 JUMP JUMPDEST PUSH2 0x3CA0 PUSH1 0x20 DUP4 ADD DUP7 PUSH2 0x2256 JUMP JUMPDEST PUSH2 0x3CAD PUSH1 0x40 DUP4 ADD DUP6 PUSH2 0x2499 JUMP JUMPDEST DUP2 DUP2 SUB PUSH1 0x60 DUP4 ADD MSTORE PUSH2 0x3CBF DUP2 DUP5 PUSH2 0x24DF JUMP JUMPDEST SWAP1 POP SWAP6 SWAP5 POP POP POP POP POP JUMP JUMPDEST PUSH1 0x0 DUP2 MLOAD SWAP1 POP PUSH2 0x3CD9 DUP2 PUSH2 0x2080 JUMP JUMPDEST SWAP3 SWAP2 POP POP JUMP JUMPDEST PUSH1 0x0 PUSH1 0x20 DUP3 DUP5 SUB SLT ISZERO PUSH2 0x3CF5 JUMPI PUSH2 0x3CF4 PUSH2 0x204A JUMP JUMPDEST JUMPDEST PUSH1 0x0 PUSH2 0x3D03 DUP5 DUP3 DUP6 ADD PUSH2 0x3CCA JUMP JUMPDEST SWAP2 POP POP SWAP3 SWAP2 POP POP JUMP JUMPDEST PUSH32 0x455243373231436C6F6E6561626C653A206D696E7420746F20746865207A6572 PUSH1 0x0 DUP3 ADD MSTORE PUSH32 0x6F20616464726573730000000000000000000000000000000000000000000000 PUSH1 0x20 DUP3 ADD MSTORE POP JUMP JUMPDEST PUSH1 0x0 PUSH2 0x3D68 PUSH1 0x29 DUP4 PUSH2 0x211A JUMP JUMPDEST SWAP2 POP PUSH2 0x3D73 DUP3 PUSH2 0x3D0C JUMP JUMPDEST PUSH1 0x40 DUP3 ADD SWAP1 POP SWAP2 SWAP1 POP JUMP JUMPDEST PUSH1 0x0 PUSH1 0x20 DUP3 ADD SWAP1 POP DUP2 DUP2 SUB PUSH1 0x0 DUP4 ADD MSTORE PUSH2 0x3D97 DUP2 PUSH2 0x3D5B JUMP JUMPDEST SWAP1 POP SWAP2 SWAP1 POP JUMP JUMPDEST PUSH32 0x455243373231436C6F6E6561626C653A20746F6B656E20616C7265616479206D PUSH1 0x0 DUP3 ADD MSTORE PUSH32 0x696E746564000000000000000000000000000000000000000000000000000000 PUSH1 0x20 DUP3 ADD MSTORE POP JUMP JUMPDEST PUSH1 0x0 PUSH2 0x3DFA PUSH1 0x25 DUP4 PUSH2 0x211A JUMP JUMPDEST SWAP2 POP PUSH2 0x3E05 DUP3 PUSH2 0x3D9E JUMP JUMPDEST PUSH1 0x40 DUP3 ADD SWAP1 POP SWAP2 SWAP1 POP JUMP JUMPDEST PUSH1 0x0 PUSH1 0x20 DUP3 ADD SWAP1 POP DUP2 DUP2 SUB PUSH1 0x0 DUP4 ADD MSTORE PUSH2 0x3E29 DUP2 PUSH2 0x3DED JUMP JUMPDEST SWAP1 POP SWAP2 SWAP1 POP JUMP INVALID LOG2 PUSH5 0x6970667358 0x22 SLT KECCAK256 0xBB PUSH3 0xB90CED 0xD5 DELEGATECALL 0xBD 0xFB CODECOPY 0xC8 SWAP3 ISZERO 0xC4 SWAP7 0xA5 DELEGATECALL BYTE 0xD 0xBE GAS LT PUSH7 0xC2DE6BEF74BEA7 0xEC LOG0 PUSH5 0x736F6C6343 STOP ADDMOD GT STOP CALLER "},"methodIdentifiers":{"approve(address,uint256)":"095ea7b3","balanceOf(address)":"70a08231","bufferSize()":"9c2c770b","getApproved(uint256)":"081812fc","init((string,string),address,uint256,(string,address,bytes,uint8,bytes,bytes,bytes)[])":"4e197151","initialized()":"158ef93e","isApprovedForAll(address,address)":"e985e9c5","mintForOwner(address)":"a50d81c7","minted()":"4f02c420","name()":"06fdde03","ownerOf(uint256)":"6352211e","requests(uint256)":"81d12c58","safeTransferFrom(address,address,uint256)":"42842e0e","safeTransferFrom(address,address,uint256,bytes)":"b88d4fde","scriptyBuilderAddress()":"e3b71f87","setApprovalForAll(address,bool)":"a22cb465","setName(string)":"c47f0027","setSymbol(string)":"b84c8246","supportsInterface(bytes4)":"01ffc9a7","symbol()":"95d89b41","tokenURI(uint256)":"c87b56dd","transferFrom(address,address,uint256)":"23b872dd","urlEncodedDesc()":"6eaa1afe","urlEncodedName()":"32032db5"}}}}}