{
  "src/contracts/FrameDynamic.sol": {
    "FrameDynamic": {
      "abi": [
        {
          "inputs": [],
          "stateMutability": "nonpayable",
          "type": "constructor"
        },
        {
          "inputs": [],
          "name": "depsCount",
          "outputs": [
            {
              "internalType": "uint256",
              "name": "",
              "type": "uint256"
            }
          ],
          "stateMutability": "view",
          "type": "function"
        },
        {
          "inputs": [
            {
              "internalType": "uint256",
              "name": "",
              "type": "uint256"
            }
          ],
          "name": "depsList",
          "outputs": [
            {
              "internalType": "string",
              "name": "wrapperKey",
              "type": "string"
            },
            {
              "internalType": "string",
              "name": "key",
              "type": "string"
            },
            {
              "internalType": "address",
              "name": "wrapperStore",
              "type": "address"
            },
            {
              "internalType": "address",
              "name": "store",
              "type": "address"
            }
          ],
          "stateMutability": "view",
          "type": "function"
        },
        {
          "inputs": [
            {
              "components": [
                {
                  "internalType": "string",
                  "name": "wrapperKey",
                  "type": "string"
                },
                {
                  "internalType": "string",
                  "name": "key",
                  "type": "string"
                },
                {
                  "internalType": "address",
                  "name": "wrapperStore",
                  "type": "address"
                },
                {
                  "internalType": "address",
                  "name": "store",
                  "type": "address"
                }
              ],
              "internalType": "struct FrameDynamic.Asset[]",
              "name": "_deps",
              "type": "tuple[]"
            },
            {
              "internalType": "address",
              "name": "_sourceStore",
              "type": "address"
            },
            {
              "internalType": "address",
              "name": "_pageWrapStore",
              "type": "address"
            },
            {
              "internalType": "uint256[4][]",
              "name": "_renderMap",
              "type": "uint256[4][]"
            }
          ],
          "name": "init",
          "outputs": [],
          "stateMutability": "nonpayable",
          "type": "function"
        },
        {
          "inputs": [],
          "name": "initSuccess",
          "outputs": [
            {
              "internalType": "bool",
              "name": "",
              "type": "bool"
            }
          ],
          "stateMutability": "view",
          "type": "function"
        },
        {
          "inputs": [],
          "name": "name",
          "outputs": [
            {
              "internalType": "string",
              "name": "",
              "type": "string"
            }
          ],
          "stateMutability": "view",
          "type": "function"
        },
        {
          "inputs": [
            {
              "internalType": "uint256",
              "name": "",
              "type": "uint256"
            },
            {
              "internalType": "uint256",
              "name": "",
              "type": "uint256"
            }
          ],
          "name": "renderMap",
          "outputs": [
            {
              "internalType": "uint256",
              "name": "",
              "type": "uint256"
            }
          ],
          "stateMutability": "view",
          "type": "function"
        },
        {
          "inputs": [
            {
              "internalType": "uint256",
              "name": "_rpage",
              "type": "uint256"
            }
          ],
          "name": "renderPage",
          "outputs": [
            {
              "internalType": "string",
              "name": "",
              "type": "string"
            }
          ],
          "stateMutability": "view",
          "type": "function"
        },
        {
          "inputs": [],
          "name": "renderPagesCount",
          "outputs": [
            {
              "internalType": "uint256",
              "name": "",
              "type": "uint256"
            }
          ],
          "stateMutability": "view",
          "type": "function"
        },
        {
          "inputs": [
            {
              "internalType": "string",
              "name": "_name",
              "type": "string"
            }
          ],
          "name": "setName",
          "outputs": [],
          "stateMutability": "nonpayable",
          "type": "function"
        }
      ],
      "evm": {
        "bytecode": {
          "linkReferences": {},
          "object": "608060405260405180602001604052806000815250600090805190602001906200002b9291906200005b565b506000600160006101000a81548160ff0219169083151502179055503480156200005457600080fd5b5062000170565b82805462000069906200013a565b90600052602060002090601f0160209004810192826200008d5760008555620000d9565b82601f10620000a857805160ff1916838001178555620000d9565b82800160010185558215620000d9579182015b82811115620000d8578251825591602001919060010190620000bb565b5b509050620000e89190620000ec565b5090565b5b8082111562000107576000816000905550600101620000ed565b5090565b7f4e487b7100000000000000000000000000000000000000000000000000000000600052602260045260246000fd5b600060028204905060018216806200015357607f821691505b602082108114156200016a57620001696200010b565b5b50919050565b61333180620001806000396000f3fe608060405234801561001057600080fd5b50600436106100935760003560e01c8063827fbc2b11610066578063827fbc2b14610122578063b5d40c0514610140578063bbb69b9614610173578063c0f2cc891461018f578063c47f0027146101bf57610093565b806306fdde03146100985780631b68226f146100b65780636bd40805146100d45780637556d1b9146100f2575b600080fd5b6100a06101db565b6040516100ad9190611e93565b60405180910390f35b6100be610269565b6040516100cb9190611ece565b60405180910390f35b6100dc61026f565b6040516100e99190611ece565b60405180910390f35b61010c60048036038101906101079190611f29565b610275565b6040516101199190611e93565b60405180910390f35b61012a61155f565b6040516101379190611f71565b60405180910390f35b61015a60048036038101906101559190611f29565b611572565b60405161016a9493929190611fcd565b60405180910390f35b61018d60048036038101906101889190612107565b6116f2565b005b6101a960048036038101906101a491906121ae565b6117fa565b6040516101b69190611ece565b60405180910390f35b6101d960048036038101906101d4919061231e565b611822565b005b600080546101e890612396565b80601f016020809104026020016040519081016040528092919081815260200182805461021490612396565b80156102615780601f1061023657610100808354040283529160200191610261565b820191906000526020600020905b81548152906001019060200180831161024457829003601f168201915b505050505081565b60035481565b60065481565b60606000600760008481526020019081526020016000206004806020026040519081016040528092919082600480156102c3576020028201915b8154815260200190600101908083116102af575b505050505090506000816000600481106102e0576102df6123c8565b5b602002015190506000826001600481106102fd576102fc6123c8565b5b6020020151905060008360026004811061031a576103196123c8565b5b60200201519050600084600360048110610337576103366123c8565b5b60200201519050600060405180602001604052806000815250905060008590505b6001856103659190612426565b8110156112195760006002600083815260200190815260200160002060405180608001604052908160008201805461039c90612396565b80601f01602080910402602001604051908101604052809291908181526020018280546103c890612396565b80156104155780601f106103ea57610100808354040283529160200191610415565b820191906000526020600020905b8154815290600101906020018083116103f857829003601f168201915b5050505050815260200160018201805461042e90612396565b80601f016020809104026020016040519081016040528092919081815260200182805461045a90612396565b80156104a75780601f1061047c576101008083540402835291602001916104a7565b820191906000526020600020905b81548152906001019060200180831161048a57829003601f168201915b505050505081526020016002820160009054906101000a900473ffffffffffffffffffffffffffffffffffffffff1673ffffffffffffffffffffffffffffffffffffffff1673ffffffffffffffffffffffffffffffffffffffff1681526020016003820160009054906101000a900473ffffffffffffffffffffffffffffffffffffffff1673ffffffffffffffffffffffffffffffffffffffff1673ffffffffffffffffffffffffffffffffffffffff168152505090506000816060015190506000826040015190506000888514905060008a8614610587576000610589565b885b9050600082610615578473ffffffffffffffffffffffffffffffffffffffff1663d431a42f87602001516040518263ffffffff1660e01b81526004016105cf9190611e93565b602060405180830381865afa1580156105ec573d6000803e3d6000fd5b505050506040513d601f19601f820116820180604052508101906106109190612491565b610617565b885b90506000610628868689868661188d565b9050888160405160200161063d9291906124fa565b60405160208183030381529060405298506000600560009054906101000a900473ffffffffffffffffffffffffffffffffffffffff1673ffffffffffffffffffffffffffffffffffffffff16886060015173ffffffffffffffffffffffffffffffffffffffff16141580156106bf575060016003546106bc919061251e565b89145b905060008773ffffffffffffffffffffffffffffffffffffffff1663d431a42f8a602001516040518263ffffffff1660e01b81526004016107009190611e93565b602060405180830381865afa15801561071d573d6000803e3d6000fd5b505050506040513d601f19601f820116820180604052508101906107419190612491565b8414905060006107fa6002600060018e61075b9190612426565b8152602001908152602001600020600001805461077790612396565b80601f01602080910402602001604051908101604052809291908181526020018280546107a390612396565b80156107f05780601f106107c5576101008083540402835291602001916107f0565b820191906000526020600020905b8154815290600101906020018083116107d357829003601f168201915b5050505050611b7c565b905061083f6040518060400160405280601181526020017f6236342d777261702e6a7340312e302e300000000000000000000000000000008152508b60000151611bc4565b80156108485750815b15610e195782156109df578b600460009054906101000a900473ffffffffffffffffffffffffffffffffffffffff1673ffffffffffffffffffffffffffffffffffffffff166311aa4cba6001806040518363ffffffff1660e01b81526004016108b29291906125e3565b600060405180830381865afa1580156108cf573d6000803e3d6000fd5b505050506040513d6000823e3d601f19601f820116820180604052508101906108f891906126c0565b600460009054906101000a900473ffffffffffffffffffffffffffffffffffffffff1673ffffffffffffffffffffffffffffffffffffffff166311aa4cba6000806040518363ffffffff1660e01b8152600401610956929190612790565b600060405180830381865afa158015610973573d6000803e3d6000fd5b505050506040513d6000823e3d601f19601f8201168201806040525081019061099c91906126c0565b6040516020016109ad929190612813565b6040516020818303038152906040526040516020016109cd9291906124fa565b6040516020818303038152906040529b505b8015610e18576000600460009054906101000a900473ffffffffffffffffffffffffffffffffffffffff1673ffffffffffffffffffffffffffffffffffffffff166311aa4cba6000806040518363ffffffff1660e01b8152600401610a45929190612883565b600060405180830381865afa158015610a62573d6000803e3d6000fd5b505050506040513d6000823e3d601f19601f82011682018060405250810190610a8b91906126c0565b604051602001610a9b91906128bf565b604051602081830303815290604052905060005b600354811015610c2857610b60600260008381526020019081526020016000206000018054610add90612396565b80601f0160208091040260200160405190810160405280929190818152602001828054610b0990612396565b8015610b565780601f10610b2b57610100808354040283529160200191610b56565b820191906000526020600020905b815481529060010190602001808311610b3957829003601f168201915b5050505050611b7c565b15610c155781604051602001610b7691906128fc565b60405160208183030381529060405260026000838152602001908152602001600020600101604051602001610bab91906129b6565b604051602081830303815290604052604051602001610bcb9291906124fa565b60405160208183030381529060405291506001600354610beb919061251e565b8114610c145781604051602001610c029190612a02565b60405160208183030381529060405291505b5b8080610c2090612a28565b915050610aaf565b5080600460009054906101000a900473ffffffffffffffffffffffffffffffffffffffff1673ffffffffffffffffffffffffffffffffffffffff166311aa4cba6001806040518363ffffffff1660e01b8152600401610c88929190612a71565b600060405180830381865afa158015610ca5573d6000803e3d6000fd5b505050506040513d6000823e3d601f19601f82011682018060405250810190610cce91906126c0565b604051602001610cde91906128bf565b604051602081830303815290604052604051602001610cfe9291906124fa565b604051602081830303815290604052600460009054906101000a900473ffffffffffffffffffffffffffffffffffffffff1673ffffffffffffffffffffffffffffffffffffffff166311aa4cba6000806040518363ffffffff1660e01b8152600401610d6b929190612af9565b600060405180830381865afa158015610d88573d6000803e3d6000fd5b505050506040513d6000823e3d601f19601f82011682018060405250810190610db191906126c0565b604051602001610dc191906128bf565b604051602081830303815290604052604051602001610de19291906124fa565b60405160208183030381529060405290508c81604051602001610e059291906124fa565b6040516020818303038152906040529c50505b5b828015610e235750815b156111fc57610e358a60000151611b7c565b1561106f578b600460009054906101000a900473ffffffffffffffffffffffffffffffffffffffff1673ffffffffffffffffffffffffffffffffffffffff166311aa4cba6001806040518363ffffffff1660e01b8152600401610e99929190612b35565b600060405180830381865afa158015610eb6573d6000803e3d6000fd5b505050506040513d6000823e3d601f19601f82011682018060405250810190610edf91906126c0565b600460009054906101000a900473ffffffffffffffffffffffffffffffffffffffff1673ffffffffffffffffffffffffffffffffffffffff166311aa4cba6001806040518363ffffffff1660e01b8152600401610f3d9291906125e3565b600060405180830381865afa158015610f5a573d6000803e3d6000fd5b505050506040513d6000823e3d601f19601f82011682018060405250810190610f8391906126c0565b600460009054906101000a900473ffffffffffffffffffffffffffffffffffffffff1673ffffffffffffffffffffffffffffffffffffffff166311aa4cba6000806040518363ffffffff1660e01b8152600401610fe1929190612790565b600060405180830381865afa158015610ffe573d6000803e3d6000fd5b505050506040513d6000823e3d601f19601f8201168201806040525081019061102791906126c0565b60405160200161103993929190612b71565b6040516020818303038152906040526040516020016110599291906124fa565b6040516020818303038152906040529b506111fb565b8b600460009054906101000a900473ffffffffffffffffffffffffffffffffffffffff1673ffffffffffffffffffffffffffffffffffffffff166311aa4cba6001806040518363ffffffff1660e01b81526004016110ce9291906125e3565b600060405180830381865afa1580156110eb573d6000803e3d6000fd5b505050506040513d6000823e3d601f19601f8201168201806040525081019061111491906126c0565b600460009054906101000a900473ffffffffffffffffffffffffffffffffffffffff1673ffffffffffffffffffffffffffffffffffffffff166311aa4cba6000806040518363ffffffff1660e01b8152600401611172929190612790565b600060405180830381865afa15801561118f573d6000803e3d6000fd5b505050506040513d6000823e3d601f19601f820116820180604052508101906111b891906126c0565b6040516020016111c9929190612813565b6040516020818303038152906040526040516020016111e99291906124fa565b6040516020818303038152906040529b505b5b50505050505050505050808061121190612a28565b915050610358565b5060008814156113af57600460009054906101000a900473ffffffffffffffffffffffffffffffffffffffff1673ffffffffffffffffffffffffffffffffffffffff166311aa4cba6000806040518363ffffffff1660e01b8152600401611281929190612bee565b600060405180830381865afa15801561129e573d6000803e3d6000fd5b505050506040513d6000823e3d601f19601f820116820180604052508101906112c791906126c0565b600460009054906101000a900473ffffffffffffffffffffffffffffffffffffffff1673ffffffffffffffffffffffffffffffffffffffff166311aa4cba6000806040518363ffffffff1660e01b8152600401611325929190612c2a565b600060405180830381865afa158015611342573d6000803e3d6000fd5b505050506040513d6000823e3d601f19601f8201168201806040525081019061136b91906126c0565b60405160200161137c929190612813565b6040516020818303038152906040528160405160200161139d9291906124fa565b60405160208183030381529060405290505b60016006546113be919061251e565b8814156115515780600460009054906101000a900473ffffffffffffffffffffffffffffffffffffffff1673ffffffffffffffffffffffffffffffffffffffff166311aa4cba6001806040518363ffffffff1660e01b8152600401611424929190612c66565b600060405180830381865afa158015611441573d6000803e3d6000fd5b505050506040513d6000823e3d601f19601f8201168201806040525081019061146a91906126c0565b600460009054906101000a900473ffffffffffffffffffffffffffffffffffffffff1673ffffffffffffffffffffffffffffffffffffffff166311aa4cba6001806040518363ffffffff1660e01b81526004016114c8929190612ca2565b600060405180830381865afa1580156114e5573d6000803e3d6000fd5b505050506040513d6000823e3d601f19601f8201168201806040525081019061150e91906126c0565b60405160200161151f929190612813565b60405160208183030381529060405260405160200161153f9291906124fa565b60405160208183030381529060405290505b809650505050505050919050565b600160009054906101000a900460ff1681565b600260205280600052604060002060009150905080600001805461159590612396565b80601f01602080910402602001604051908101604052809291908181526020018280546115c190612396565b801561160e5780601f106115e35761010080835404028352916020019161160e565b820191906000526020600020905b8154815290600101906020018083116115f157829003601f168201915b50505050509080600101805461162390612396565b80601f016020809104026020016040519081016040528092919081815260200182805461164f90612396565b801561169c5780601f106116715761010080835404028352916020019161169c565b820191906000526020600020905b81548152906001019060200180831161167f57829003601f168201915b5050505050908060020160009054906101000a900473ffffffffffffffffffffffffffffffffffffffff16908060030160009054906101000a900473ffffffffffffffffffffffffffffffffffffffff16905084565b600160009054906101000a900460ff1615611742576040517f08c379a000000000000000000000000000000000000000000000000000000000815260040161173990612d2a565b60405180910390fd5b61174c8686611c1d565b6117568282611c94565b83600560006101000a81548173ffffffffffffffffffffffffffffffffffffffff021916908373ffffffffffffffffffffffffffffffffffffffff16021790555082600460006101000a81548173ffffffffffffffffffffffffffffffffffffffff021916908373ffffffffffffffffffffffffffffffffffffffff16021790555060018060006101000a81548160ff021916908315150217905550505050505050565b6007602052816000526040600020816004811061181657600080fd5b01600091509150505481565b60036000805461183190612396565b905010611873576040517f08c379a000000000000000000000000000000000000000000000000000000000815260040161186a90612d96565b60405180910390fd5b8060009080519060200190611889929190611d17565b5050565b606060006040518060200160405280600081525090506000841415611956578573ffffffffffffffffffffffffffffffffffffffff166311aa4cba86600001516000806040518463ffffffff1660e01b81526004016118ee93929190612db6565b600060405180830381865afa15801561190b573d6000803e3d6000fd5b505050506040513d6000823e3d601f19601f8201168201806040525081019061193491906126c0565b60405160200161194491906128bf565b60405160208183030381529060405290505b808773ffffffffffffffffffffffffffffffffffffffff166311aa4cba876020015187876040518463ffffffff1660e01b815260040161199893929190612df4565b600060405180830381865afa1580156119b5573d6000803e3d6000fd5b505050506040513d6000823e3d601f19601f820116820180604052508101906119de91906126c0565b6040516020016119ee91906128bf565b604051602081830303815290604052604051602001611a0e9291906124fa565b60405160208183030381529060405290508673ffffffffffffffffffffffffffffffffffffffff1663d431a42f86602001516040518263ffffffff1660e01b8152600401611a5c9190611e93565b602060405180830381865afa158015611a79573d6000803e3d6000fd5b505050506040513d601f19601f82011682018060405250810190611a9d9190612491565b831415611b6f57808673ffffffffffffffffffffffffffffffffffffffff166311aa4cba87600001516001806040518463ffffffff1660e01b8152600401611ae793929190612e32565b600060405180830381865afa158015611b04573d6000803e3d6000fd5b505050506040513d6000823e3d601f19601f82011682018060405250810190611b2d91906126c0565b604051602001611b3d91906128bf565b604051602081830303815290604052604051602001611b5d9291906124fa565b60405160208183030381529060405290505b8091505095945050505050565b6000611bbd826040518060400160405280601e81526020017f6236342d677a2d696d706f72746d61702d777261702e6a7340312e302e300000815250611bc4565b9050919050565b600081604051602001611bd79190612e70565b6040516020818303038152906040528051906020012083604051602001611bfe9190612e70565b6040516020818303038152906040528051906020012014905092915050565b60005b82829050811015611c8557828282818110611c3e57611c3d6123c8565b5b9050602002810190611c509190612e96565b600260008381526020019081526020016000208181611c6f91906132ed565b9050508080611c7d90612a28565b915050611c20565b50818190506003819055505050565b60005b82829050811015611d085760066000815480929190611cb590612a28565b9190505550828282818110611ccd57611ccc6123c8565b5b90506080020160076000838152602001908152602001600020906004611cf4929190611d9d565b508080611d0090612a28565b915050611c97565b50818190506006819055505050565b828054611d2390612396565b90600052602060002090601f016020900481019282611d455760008555611d8c565b82601f10611d5e57805160ff1916838001178555611d8c565b82800160010185558215611d8c579182015b82811115611d8b578251825591602001919060010190611d70565b5b509050611d999190611ddd565b5090565b8260048101928215611dcc579160200282015b82811115611dcb578235825591602001919060010190611db0565b5b509050611dd99190611ddd565b5090565b5b80821115611df6576000816000905550600101611dde565b5090565b600081519050919050565b600082825260208201905092915050565b60005b83811015611e34578082015181840152602081019050611e19565b83811115611e43576000848401525b50505050565b6000601f19601f8301169050919050565b6000611e6582611dfa565b611e6f8185611e05565b9350611e7f818560208601611e16565b611e8881611e49565b840191505092915050565b60006020820190508181036000830152611ead8184611e5a565b905092915050565b6000819050919050565b611ec881611eb5565b82525050565b6000602082019050611ee36000830184611ebf565b92915050565b6000604051905090565b600080fd5b600080fd5b611f0681611eb5565b8114611f1157600080fd5b50565b600081359050611f2381611efd565b92915050565b600060208284031215611f3f57611f3e611ef3565b5b6000611f4d84828501611f14565b91505092915050565b60008115159050919050565b611f6b81611f56565b82525050565b6000602082019050611f866000830184611f62565b92915050565b600073ffffffffffffffffffffffffffffffffffffffff82169050919050565b6000611fb782611f8c565b9050919050565b611fc781611fac565b82525050565b60006080820190508181036000830152611fe78187611e5a565b90508181036020830152611ffb8186611e5a565b905061200a6040830185611fbe565b6120176060830184611fbe565b95945050505050565b600080fd5b600080fd5b600080fd5b60008083601f84011261204557612044612020565b5b8235905067ffffffffffffffff81111561206257612061612025565b5b60208301915083602082028301111561207e5761207d61202a565b5b9250929050565b61208e81611fac565b811461209957600080fd5b50565b6000813590506120ab81612085565b92915050565b60008083601f8401126120c7576120c6612020565b5b8235905067ffffffffffffffff8111156120e4576120e3612025565b5b602083019150836080820283011115612100576120ff61202a565b5b9250929050565b6000806000806000806080878903121561212457612123611ef3565b5b600087013567ffffffffffffffff81111561214257612141611ef8565b5b61214e89828a0161202f565b9650965050602061216189828a0161209c565b945050604061217289828a0161209c565b935050606087013567ffffffffffffffff81111561219357612192611ef8565b5b61219f89828a016120b1565b92509250509295509295509295565b600080604083850312156121c5576121c4611ef3565b5b60006121d385828601611f14565b92505060206121e485828601611f14565b9150509250929050565b600080fd5b7f4e487b7100000000000000000000000000000000000000000000000000000000600052604160045260246000fd5b61222b82611e49565b810181811067ffffffffffffffff8211171561224a576122496121f3565b5b80604052505050565b600061225d611ee9565b90506122698282612222565b919050565b600067ffffffffffffffff821115612289576122886121f3565b5b61229282611e49565b9050602081019050919050565b82818337600083830152505050565b60006122c16122bc8461226e565b612253565b9050828152602081018484840111156122dd576122dc6121ee565b5b6122e884828561229f565b509392505050565b600082601f83011261230557612304612020565b5b81356123158482602086016122ae565b91505092915050565b60006020828403121561233457612333611ef3565b5b600082013567ffffffffffffffff81111561235257612351611ef8565b5b61235e848285016122f0565b91505092915050565b7f4e487b7100000000000000000000000000000000000000000000000000000000600052602260045260246000fd5b600060028204905060018216806123ae57607f821691505b602082108114156123c2576123c1612367565b5b50919050565b7f4e487b7100000000000000000000000000000000000000000000000000000000600052603260045260246000fd5b7f4e487b7100000000000000000000000000000000000000000000000000000000600052601160045260246000fd5b600061243182611eb5565b915061243c83611eb5565b9250827fffffffffffffffffffffffffffffffffffffffffffffffffffffffffffffffff03821115612471576124706123f7565b5b828201905092915050565b60008151905061248b81611efd565b92915050565b6000602082840312156124a7576124a6611ef3565b5b60006124b58482850161247c565b91505092915050565b600081905092915050565b60006124d482611dfa565b6124de81856124be565b93506124ee818560208601611e16565b80840191505092915050565b600061250682856124c9565b915061251282846124c9565b91508190509392505050565b600061252982611eb5565b915061253483611eb5565b925082821015612547576125466123f7565b5b828203905092915050565b7f686561642d777261702e68746d6c40312e302e30000000000000000000000000600082015250565b6000612588601483611e05565b915061259382612552565b602082019050919050565b6000819050919050565b6000819050919050565b60006125cd6125c86125c38461259e565b6125a8565b611eb5565b9050919050565b6125dd816125b2565b82525050565b600060608201905081810360008301526125fc8161257b565b905061260b60208301856125d4565b61261860408301846125d4565b9392505050565b600067ffffffffffffffff82111561263a576126396121f3565b5b61264382611e49565b9050602081019050919050565b600061266361265e8461261f565b612253565b90508281526020810184848401111561267f5761267e6121ee565b5b61268a848285611e16565b509392505050565b600082601f8301126126a7576126a6612020565b5b81516126b7848260208601612650565b91505092915050565b6000602082840312156126d6576126d5611ef3565b5b600082015167ffffffffffffffff8111156126f4576126f3611ef8565b5b61270084828501612692565b91505092915050565b7f626f64792d777261702e68746d6c40312e302e30000000000000000000000000600082015250565b600061273f601483611e05565b915061274a82612709565b602082019050919050565b6000819050919050565b600061277a61277561277084612755565b6125a8565b611eb5565b9050919050565b61278a8161275f565b82525050565b600060608201905081810360008301526127a981612732565b90506127b86020830185612781565b6127c56040830184612781565b9392505050565b600081519050919050565b600081905092915050565b60006127ed826127cc565b6127f781856127d7565b9350612807818560208601611e16565b80840191505092915050565b600061281f82856127e2565b915061282b82846127e2565b91508190509392505050565b7f696d706f72742d6b6579732d777261702e6a7340312e302e3000000000000000600082015250565b600061286d601983611e05565b915061287882612837565b602082019050919050565b6000606082019050818103600083015261289c81612860565b90506128ab6020830185612781565b6128b86040830184612781565b9392505050565b60006128cb82846127e2565b915081905092915050565b7f2200000000000000000000000000000000000000000000000000000000000000815250565b600061290882846124c9565b9150612913826128d6565b60018201915081905092915050565b60008190508160005260206000209050919050565b6000815461294481612396565b61294e81866124be565b94506001821660008114612969576001811461297a576129ad565b60ff198316865281860193506129ad565b61298385612922565b60005b838110156129a557815481890152600182019150602081019050612986565b838801955050505b50505092915050565b60006129c28284612937565b91506129cd826128d6565b60018201915081905092915050565b7f2c00000000000000000000000000000000000000000000000000000000000000815250565b6000612a0e82846124c9565b9150612a19826129dc565b60018201915081905092915050565b6000612a3382611eb5565b91507fffffffffffffffffffffffffffffffffffffffffffffffffffffffffffffffff821415612a6657612a656123f7565b5b600182019050919050565b60006060820190508181036000830152612a8a81612860565b9050612a9960208301856125d4565b612aa660408301846125d4565b9392505050565b7f696d706f72746d61702d696e69742d777261702e6a7340322e302e3000000000600082015250565b6000612ae3601c83611e05565b9150612aee82612aad565b602082019050919050565b60006060820190508181036000830152612b1281612ad6565b9050612b216020830185612781565b612b2e6040830184612781565b9392505050565b60006060820190508181036000830152612b4e81612ad6565b9050612b5d60208301856125d4565b612b6a60408301846125d4565b9392505050565b6000612b7d82866127e2565b9150612b8982856127e2565b9150612b9582846127e2565b9150819050949350505050565b7f68746d6c2d777261702e68746d6c40312e302e30000000000000000000000000600082015250565b6000612bd8601483611e05565b9150612be382612ba2565b602082019050919050565b60006060820190508181036000830152612c0781612bcb565b9050612c166020830185612781565b612c236040830184612781565b9392505050565b60006060820190508181036000830152612c438161257b565b9050612c526020830185612781565b612c5f6040830184612781565b9392505050565b60006060820190508181036000830152612c7f81612732565b9050612c8e60208301856125d4565b612c9b60408301846125d4565b9392505050565b60006060820190508181036000830152612cbb81612bcb565b9050612cca60208301856125d4565b612cd760408301846125d4565b9392505050565b7f4672616d653a2043616e27742072652d696e697420636f6e7472616374000000600082015250565b6000612d14601d83611e05565b9150612d1f82612cde565b602082019050919050565b60006020820190508181036000830152612d4381612d07565b9050919050565b7f4672616d653a204e616d6520616c726561647920736574000000000000000000600082015250565b6000612d80601783611e05565b9150612d8b82612d4a565b602082019050919050565b60006020820190508181036000830152612daf81612d73565b9050919050565b60006060820190508181036000830152612dd08186611e5a565b9050612ddf6020830185612781565b612dec6040830184612781565b949350505050565b60006060820190508181036000830152612e0e8186611e5a565b9050612e1d6020830185611ebf565b612e2a6040830184611ebf565b949350505050565b60006060820190508181036000830152612e4c8186611e5a565b9050612e5b60208301856125d4565b612e6860408301846125d4565b949350505050565b6000612e7c82846124c9565b915081905092915050565b600080fd5b600080fd5b600080fd5b600082356001608003833603038112612eb257612eb1612e87565b5b80830191505092915050565b60008083356001602003843603038112612edb57612eda612e87565b5b80840192508235915067ffffffffffffffff821115612efd57612efc612e8c565b5b602083019250600182023603831315612f1957612f18612e91565b5b509250929050565b600082905092915050565b60006020601f8301049050919050565b600082821b905092915050565b600060088302612f797fffffffffffffffffffffffffffffffffffffffffffffffffffffffffffffffff82612f3c565b612f838683612f3c565b95508019841693508086168417925050509392505050565b6000612fb6612fb1612fac84611eb5565b6125a8565b611eb5565b9050919050565b6000819050919050565b612fd083612f9b565b612fe4612fdc82612fbd565b848454612f49565b825550505050565b600090565b612ff9612fec565b613004818484612fc7565b505050565b5b818110156130285761301d600082612ff1565b60018101905061300a565b5050565b601f82111561306d5761303e81612922565b61304784612f2c565b81016020851015613056578190505b61306a61306285612f2c565b830182613009565b50505b505050565b600082821c905092915050565b600061309060001984600802613072565b1980831691505092915050565b60006130a9838361307f565b9150826002028217905092915050565b6130c38383612f21565b67ffffffffffffffff8111156130dc576130db6121f3565b5b6130e68254612396565b6130f182828561302c565b6000601f831160018114613120576000841561310e578287013590505b613118858261309d565b865550613180565b601f19841661312e86612922565b60005b8281101561315657848901358255600182019150602085019450602081019050613131565b86831015613173578489013561316f601f89168261307f565b8355505b6001600288020188555050505b50505050505050565b6131948383836130b9565b505050565b600081356131a681612085565b80915050919050565b60008160001b9050919050565b600073ffffffffffffffffffffffffffffffffffffffff6131dc846131af565b9350801983169250808416831791505092915050565b600061320d61320861320384611f8c565b6125a8565b611f8c565b9050919050565b600061321f826131f2565b9050919050565b600061323182613214565b9050919050565b6000819050919050565b61324b82613226565b61325e61325782613238565b83546131bc565b8255505050565b60008101600083016132778185612ebe565b613282818386613189565b5050505060018101602083016132988185612ebe565b6132a3818386613189565b505050506002810160408301806132b981613199565b90506132c58184613242565b5050506003810160608301806132da81613199565b90506132e68184613242565b5050505050565b6132f78282613265565b505056fea2646970667358221220076aaa9af0a3e12e43c349331c02002d03d8c9d2e5aa8658e2237d4caeb9f09e64736f6c634300080c0033",
          "opcodes": "PUSH1 0x80 PUSH1 0x40 MSTORE PUSH1 0x40 MLOAD DUP1 PUSH1 0x20 ADD PUSH1 0x40 MSTORE DUP1 PUSH1 0x0 DUP2 MSTORE POP PUSH1 0x0 SWAP1 DUP1 MLOAD SWAP1 PUSH1 0x20 ADD SWAP1 PUSH3 0x2B SWAP3 SWAP2 SWAP1 PUSH3 0x5B JUMP JUMPDEST POP PUSH1 0x0 PUSH1 0x1 PUSH1 0x0 PUSH2 0x100 EXP DUP2 SLOAD DUP2 PUSH1 0xFF MUL NOT AND SWAP1 DUP4 ISZERO ISZERO MUL OR SWAP1 SSTORE POP CALLVALUE DUP1 ISZERO PUSH3 0x54 JUMPI PUSH1 0x0 DUP1 REVERT JUMPDEST POP PUSH3 0x170 JUMP JUMPDEST DUP3 DUP1 SLOAD PUSH3 0x69 SWAP1 PUSH3 0x13A JUMP JUMPDEST SWAP1 PUSH1 0x0 MSTORE PUSH1 0x20 PUSH1 0x0 KECCAK256 SWAP1 PUSH1 0x1F ADD PUSH1 0x20 SWAP1 DIV DUP2 ADD SWAP3 DUP3 PUSH3 0x8D JUMPI PUSH1 0x0 DUP6 SSTORE PUSH3 0xD9 JUMP JUMPDEST DUP3 PUSH1 0x1F LT PUSH3 0xA8 JUMPI DUP1 MLOAD PUSH1 0xFF NOT AND DUP4 DUP1 ADD OR DUP6 SSTORE PUSH3 0xD9 JUMP JUMPDEST DUP3 DUP1 ADD PUSH1 0x1 ADD DUP6 SSTORE DUP3 ISZERO PUSH3 0xD9 JUMPI SWAP2 DUP3 ADD JUMPDEST DUP3 DUP2 GT ISZERO PUSH3 0xD8 JUMPI DUP3 MLOAD DUP3 SSTORE SWAP2 PUSH1 0x20 ADD SWAP2 SWAP1 PUSH1 0x1 ADD SWAP1 PUSH3 0xBB JUMP JUMPDEST JUMPDEST POP SWAP1 POP PUSH3 0xE8 SWAP2 SWAP1 PUSH3 0xEC JUMP JUMPDEST POP SWAP1 JUMP JUMPDEST JUMPDEST DUP1 DUP3 GT ISZERO PUSH3 0x107 JUMPI PUSH1 0x0 DUP2 PUSH1 0x0 SWAP1 SSTORE POP PUSH1 0x1 ADD PUSH3 0xED JUMP JUMPDEST POP SWAP1 JUMP JUMPDEST PUSH32 0x4E487B7100000000000000000000000000000000000000000000000000000000 PUSH1 0x0 MSTORE PUSH1 0x22 PUSH1 0x4 MSTORE PUSH1 0x24 PUSH1 0x0 REVERT JUMPDEST PUSH1 0x0 PUSH1 0x2 DUP3 DIV SWAP1 POP PUSH1 0x1 DUP3 AND DUP1 PUSH3 0x153 JUMPI PUSH1 0x7F DUP3 AND SWAP2 POP JUMPDEST PUSH1 0x20 DUP3 LT DUP2 EQ ISZERO PUSH3 0x16A JUMPI PUSH3 0x169 PUSH3 0x10B JUMP JUMPDEST JUMPDEST POP SWAP2 SWAP1 POP JUMP JUMPDEST PUSH2 0x3331 DUP1 PUSH3 0x180 PUSH1 0x0 CODECOPY PUSH1 0x0 RETURN INVALID PUSH1 0x80 PUSH1 0x40 MSTORE CALLVALUE DUP1 ISZERO PUSH2 0x10 JUMPI PUSH1 0x0 DUP1 REVERT JUMPDEST POP PUSH1 0x4 CALLDATASIZE LT PUSH2 0x93 JUMPI PUSH1 0x0 CALLDATALOAD PUSH1 0xE0 SHR DUP1 PUSH4 0x827FBC2B GT PUSH2 0x66 JUMPI DUP1 PUSH4 0x827FBC2B EQ PUSH2 0x122 JUMPI DUP1 PUSH4 0xB5D40C05 EQ PUSH2 0x140 JUMPI DUP1 PUSH4 0xBBB69B96 EQ PUSH2 0x173 JUMPI DUP1 PUSH4 0xC0F2CC89 EQ PUSH2 0x18F JUMPI DUP1 PUSH4 0xC47F0027 EQ PUSH2 0x1BF JUMPI PUSH2 0x93 JUMP JUMPDEST DUP1 PUSH4 0x6FDDE03 EQ PUSH2 0x98 JUMPI DUP1 PUSH4 0x1B68226F EQ PUSH2 0xB6 JUMPI DUP1 PUSH4 0x6BD40805 EQ PUSH2 0xD4 JUMPI DUP1 PUSH4 0x7556D1B9 EQ PUSH2 0xF2 JUMPI JUMPDEST PUSH1 0x0 DUP1 REVERT JUMPDEST PUSH2 0xA0 PUSH2 0x1DB JUMP JUMPDEST PUSH1 0x40 MLOAD PUSH2 0xAD SWAP2 SWAP1 PUSH2 0x1E93 JUMP JUMPDEST PUSH1 0x40 MLOAD DUP1 SWAP2 SUB SWAP1 RETURN JUMPDEST PUSH2 0xBE PUSH2 0x269 JUMP JUMPDEST PUSH1 0x40 MLOAD PUSH2 0xCB SWAP2 SWAP1 PUSH2 0x1ECE JUMP JUMPDEST PUSH1 0x40 MLOAD DUP1 SWAP2 SUB SWAP1 RETURN JUMPDEST PUSH2 0xDC PUSH2 0x26F JUMP JUMPDEST PUSH1 0x40 MLOAD PUSH2 0xE9 SWAP2 SWAP1 PUSH2 0x1ECE JUMP JUMPDEST PUSH1 0x40 MLOAD DUP1 SWAP2 SUB SWAP1 RETURN JUMPDEST PUSH2 0x10C PUSH1 0x4 DUP1 CALLDATASIZE SUB DUP2 ADD SWAP1 PUSH2 0x107 SWAP2 SWAP1 PUSH2 0x1F29 JUMP JUMPDEST PUSH2 0x275 JUMP JUMPDEST PUSH1 0x40 MLOAD PUSH2 0x119 SWAP2 SWAP1 PUSH2 0x1E93 JUMP JUMPDEST PUSH1 0x40 MLOAD DUP1 SWAP2 SUB SWAP1 RETURN JUMPDEST PUSH2 0x12A PUSH2 0x155F JUMP JUMPDEST PUSH1 0x40 MLOAD PUSH2 0x137 SWAP2 SWAP1 PUSH2 0x1F71 JUMP JUMPDEST PUSH1 0x40 MLOAD DUP1 SWAP2 SUB SWAP1 RETURN JUMPDEST PUSH2 0x15A PUSH1 0x4 DUP1 CALLDATASIZE SUB DUP2 ADD SWAP1 PUSH2 0x155 SWAP2 SWAP1 PUSH2 0x1F29 JUMP JUMPDEST PUSH2 0x1572 JUMP JUMPDEST PUSH1 0x40 MLOAD PUSH2 0x16A SWAP5 SWAP4 SWAP3 SWAP2 SWAP1 PUSH2 0x1FCD JUMP JUMPDEST PUSH1 0x40 MLOAD DUP1 SWAP2 SUB SWAP1 RETURN JUMPDEST PUSH2 0x18D PUSH1 0x4 DUP1 CALLDATASIZE SUB DUP2 ADD SWAP1 PUSH2 0x188 SWAP2 SWAP1 PUSH2 0x2107 JUMP JUMPDEST PUSH2 0x16F2 JUMP JUMPDEST STOP JUMPDEST PUSH2 0x1A9 PUSH1 0x4 DUP1 CALLDATASIZE SUB DUP2 ADD SWAP1 PUSH2 0x1A4 SWAP2 SWAP1 PUSH2 0x21AE JUMP JUMPDEST PUSH2 0x17FA JUMP JUMPDEST PUSH1 0x40 MLOAD PUSH2 0x1B6 SWAP2 SWAP1 PUSH2 0x1ECE JUMP JUMPDEST PUSH1 0x40 MLOAD DUP1 SWAP2 SUB SWAP1 RETURN JUMPDEST PUSH2 0x1D9 PUSH1 0x4 DUP1 CALLDATASIZE SUB DUP2 ADD SWAP1 PUSH2 0x1D4 SWAP2 SWAP1 PUSH2 0x231E JUMP JUMPDEST PUSH2 0x1822 JUMP JUMPDEST STOP JUMPDEST PUSH1 0x0 DUP1 SLOAD PUSH2 0x1E8 SWAP1 PUSH2 0x2396 JUMP JUMPDEST DUP1 PUSH1 0x1F ADD PUSH1 0x20 DUP1 SWAP2 DIV MUL PUSH1 0x20 ADD PUSH1 0x40 MLOAD SWAP1 DUP2 ADD PUSH1 0x40 MSTORE DUP1 SWAP3 SWAP2 SWAP1 DUP2 DUP2 MSTORE PUSH1 0x20 ADD DUP3 DUP1 SLOAD PUSH2 0x214 SWAP1 PUSH2 0x2396 JUMP JUMPDEST DUP1 ISZERO PUSH2 0x261 JUMPI DUP1 PUSH1 0x1F LT PUSH2 0x236 JUMPI PUSH2 0x100 DUP1 DUP4 SLOAD DIV MUL DUP4 MSTORE SWAP2 PUSH1 0x20 ADD SWAP2 PUSH2 0x261 JUMP JUMPDEST DUP3 ADD SWAP2 SWAP1 PUSH1 0x0 MSTORE PUSH1 0x20 PUSH1 0x0 KECCAK256 SWAP1 JUMPDEST DUP2 SLOAD DUP2 MSTORE SWAP1 PUSH1 0x1 ADD SWAP1 PUSH1 0x20 ADD DUP1 DUP4 GT PUSH2 0x244 JUMPI DUP3 SWAP1 SUB PUSH1 0x1F AND DUP3 ADD SWAP2 JUMPDEST POP POP POP POP POP DUP2 JUMP JUMPDEST PUSH1 0x3 SLOAD DUP2 JUMP JUMPDEST PUSH1 0x6 SLOAD DUP2 JUMP JUMPDEST PUSH1 0x60 PUSH1 0x0 PUSH1 0x7 PUSH1 0x0 DUP5 DUP2 MSTORE PUSH1 0x20 ADD SWAP1 DUP2 MSTORE PUSH1 0x20 ADD PUSH1 0x0 KECCAK256 PUSH1 0x4 DUP1 PUSH1 0x20 MUL PUSH1 0x40 MLOAD SWAP1 DUP2 ADD PUSH1 0x40 MSTORE DUP1 SWAP3 SWAP2 SWAP1 DUP3 PUSH1 0x4 DUP1 ISZERO PUSH2 0x2C3 JUMPI PUSH1 0x20 MUL DUP3 ADD SWAP2 JUMPDEST DUP2 SLOAD DUP2 MSTORE PUSH1 0x20 ADD SWAP1 PUSH1 0x1 ADD SWAP1 DUP1 DUP4 GT PUSH2 0x2AF JUMPI JUMPDEST POP POP POP POP POP SWAP1 POP PUSH1 0x0 DUP2 PUSH1 0x0 PUSH1 0x4 DUP2 LT PUSH2 0x2E0 JUMPI PUSH2 0x2DF PUSH2 0x23C8 JUMP JUMPDEST JUMPDEST PUSH1 0x20 MUL ADD MLOAD SWAP1 POP PUSH1 0x0 DUP3 PUSH1 0x1 PUSH1 0x4 DUP2 LT PUSH2 0x2FD JUMPI PUSH2 0x2FC PUSH2 0x23C8 JUMP JUMPDEST JUMPDEST PUSH1 0x20 MUL ADD MLOAD SWAP1 POP PUSH1 0x0 DUP4 PUSH1 0x2 PUSH1 0x4 DUP2 LT PUSH2 0x31A JUMPI PUSH2 0x319 PUSH2 0x23C8 JUMP JUMPDEST JUMPDEST PUSH1 0x20 MUL ADD MLOAD SWAP1 POP PUSH1 0x0 DUP5 PUSH1 0x3 PUSH1 0x4 DUP2 LT PUSH2 0x337 JUMPI PUSH2 0x336 PUSH2 0x23C8 JUMP JUMPDEST JUMPDEST PUSH1 0x20 MUL ADD MLOAD SWAP1 POP PUSH1 0x0 PUSH1 0x40 MLOAD DUP1 PUSH1 0x20 ADD PUSH1 0x40 MSTORE DUP1 PUSH1 0x0 DUP2 MSTORE POP SWAP1 POP PUSH1 0x0 DUP6 SWAP1 POP JUMPDEST PUSH1 0x1 DUP6 PUSH2 0x365 SWAP2 SWAP1 PUSH2 0x2426 JUMP JUMPDEST DUP2 LT ISZERO PUSH2 0x1219 JUMPI PUSH1 0x0 PUSH1 0x2 PUSH1 0x0 DUP4 DUP2 MSTORE PUSH1 0x20 ADD SWAP1 DUP2 MSTORE PUSH1 0x20 ADD PUSH1 0x0 KECCAK256 PUSH1 0x40 MLOAD DUP1 PUSH1 0x80 ADD PUSH1 0x40 MSTORE SWAP1 DUP2 PUSH1 0x0 DUP3 ADD DUP1 SLOAD PUSH2 0x39C SWAP1 PUSH2 0x2396 JUMP JUMPDEST DUP1 PUSH1 0x1F ADD PUSH1 0x20 DUP1 SWAP2 DIV MUL PUSH1 0x20 ADD PUSH1 0x40 MLOAD SWAP1 DUP2 ADD PUSH1 0x40 MSTORE DUP1 SWAP3 SWAP2 SWAP1 DUP2 DUP2 MSTORE PUSH1 0x20 ADD DUP3 DUP1 SLOAD PUSH2 0x3C8 SWAP1 PUSH2 0x2396 JUMP JUMPDEST DUP1 ISZERO PUSH2 0x415 JUMPI DUP1 PUSH1 0x1F LT PUSH2 0x3EA JUMPI PUSH2 0x100 DUP1 DUP4 SLOAD DIV MUL DUP4 MSTORE SWAP2 PUSH1 0x20 ADD SWAP2 PUSH2 0x415 JUMP JUMPDEST DUP3 ADD SWAP2 SWAP1 PUSH1 0x0 MSTORE PUSH1 0x20 PUSH1 0x0 KECCAK256 SWAP1 JUMPDEST DUP2 SLOAD DUP2 MSTORE SWAP1 PUSH1 0x1 ADD SWAP1 PUSH1 0x20 ADD DUP1 DUP4 GT PUSH2 0x3F8 JUMPI DUP3 SWAP1 SUB PUSH1 0x1F AND DUP3 ADD SWAP2 JUMPDEST POP POP POP POP POP DUP2 MSTORE PUSH1 0x20 ADD PUSH1 0x1 DUP3 ADD DUP1 SLOAD PUSH2 0x42E SWAP1 PUSH2 0x2396 JUMP JUMPDEST DUP1 PUSH1 0x1F ADD PUSH1 0x20 DUP1 SWAP2 DIV MUL PUSH1 0x20 ADD PUSH1 0x40 MLOAD SWAP1 DUP2 ADD PUSH1 0x40 MSTORE DUP1 SWAP3 SWAP2 SWAP1 DUP2 DUP2 MSTORE PUSH1 0x20 ADD DUP3 DUP1 SLOAD PUSH2 0x45A SWAP1 PUSH2 0x2396 JUMP JUMPDEST DUP1 ISZERO PUSH2 0x4A7 JUMPI DUP1 PUSH1 0x1F LT PUSH2 0x47C JUMPI PUSH2 0x100 DUP1 DUP4 SLOAD DIV MUL DUP4 MSTORE SWAP2 PUSH1 0x20 ADD SWAP2 PUSH2 0x4A7 JUMP JUMPDEST DUP3 ADD SWAP2 SWAP1 PUSH1 0x0 MSTORE PUSH1 0x20 PUSH1 0x0 KECCAK256 SWAP1 JUMPDEST DUP2 SLOAD DUP2 MSTORE SWAP1 PUSH1 0x1 ADD SWAP1 PUSH1 0x20 ADD DUP1 DUP4 GT PUSH2 0x48A JUMPI DUP3 SWAP1 SUB PUSH1 0x1F AND DUP3 ADD SWAP2 JUMPDEST POP POP POP POP POP DUP2 MSTORE PUSH1 0x20 ADD PUSH1 0x2 DUP3 ADD PUSH1 0x0 SWAP1 SLOAD SWAP1 PUSH2 0x100 EXP SWAP1 DIV PUSH20 0xFFFFFFFFFFFFFFFFFFFFFFFFFFFFFFFFFFFFFFFF AND PUSH20 0xFFFFFFFFFFFFFFFFFFFFFFFFFFFFFFFFFFFFFFFF AND PUSH20 0xFFFFFFFFFFFFFFFFFFFFFFFFFFFFFFFFFFFFFFFF AND DUP2 MSTORE PUSH1 0x20 ADD PUSH1 0x3 DUP3 ADD PUSH1 0x0 SWAP1 SLOAD SWAP1 PUSH2 0x100 EXP SWAP1 DIV PUSH20 0xFFFFFFFFFFFFFFFFFFFFFFFFFFFFFFFFFFFFFFFF AND PUSH20 0xFFFFFFFFFFFFFFFFFFFFFFFFFFFFFFFFFFFFFFFF AND PUSH20 0xFFFFFFFFFFFFFFFFFFFFFFFFFFFFFFFFFFFFFFFF AND DUP2 MSTORE POP POP SWAP1 POP PUSH1 0x0 DUP2 PUSH1 0x60 ADD MLOAD SWAP1 POP PUSH1 0x0 DUP3 PUSH1 0x40 ADD MLOAD SWAP1 POP PUSH1 0x0 DUP9 DUP6 EQ SWAP1 POP PUSH1 0x0 DUP11 DUP7 EQ PUSH2 0x587 JUMPI PUSH1 0x0 PUSH2 0x589 JUMP JUMPDEST DUP9 JUMPDEST SWAP1 POP PUSH1 0x0 DUP3 PUSH2 0x615 JUMPI DUP5 PUSH20 0xFFFFFFFFFFFFFFFFFFFFFFFFFFFFFFFFFFFFFFFF AND PUSH4 0xD431A42F DUP8 PUSH1 0x20 ADD MLOAD PUSH1 0x40 MLOAD DUP3 PUSH4 0xFFFFFFFF AND PUSH1 0xE0 SHL DUP2 MSTORE PUSH1 0x4 ADD PUSH2 0x5CF SWAP2 SWAP1 PUSH2 0x1E93 JUMP JUMPDEST PUSH1 0x20 PUSH1 0x40 MLOAD DUP1 DUP4 SUB DUP2 DUP7 GAS STATICCALL ISZERO DUP1 ISZERO PUSH2 0x5EC JUMPI RETURNDATASIZE PUSH1 0x0 DUP1 RETURNDATACOPY RETURNDATASIZE PUSH1 0x0 REVERT JUMPDEST POP POP POP POP PUSH1 0x40 MLOAD RETURNDATASIZE PUSH1 0x1F NOT PUSH1 0x1F DUP3 ADD AND DUP3 ADD DUP1 PUSH1 0x40 MSTORE POP DUP2 ADD SWAP1 PUSH2 0x610 SWAP2 SWAP1 PUSH2 0x2491 JUMP JUMPDEST PUSH2 0x617 JUMP JUMPDEST DUP9 JUMPDEST SWAP1 POP PUSH1 0x0 PUSH2 0x628 DUP7 DUP7 DUP10 DUP7 DUP7 PUSH2 0x188D JUMP JUMPDEST SWAP1 POP DUP9 DUP2 PUSH1 0x40 MLOAD PUSH1 0x20 ADD PUSH2 0x63D SWAP3 SWAP2 SWAP1 PUSH2 0x24FA JUMP JUMPDEST PUSH1 0x40 MLOAD PUSH1 0x20 DUP2 DUP4 SUB SUB DUP2 MSTORE SWAP1 PUSH1 0x40 MSTORE SWAP9 POP PUSH1 0x0 PUSH1 0x5 PUSH1 0x0 SWAP1 SLOAD SWAP1 PUSH2 0x100 EXP SWAP1 DIV PUSH20 0xFFFFFFFFFFFFFFFFFFFFFFFFFFFFFFFFFFFFFFFF AND PUSH20 0xFFFFFFFFFFFFFFFFFFFFFFFFFFFFFFFFFFFFFFFF AND DUP9 PUSH1 0x60 ADD MLOAD PUSH20 0xFFFFFFFFFFFFFFFFFFFFFFFFFFFFFFFFFFFFFFFF AND EQ ISZERO DUP1 ISZERO PUSH2 0x6BF JUMPI POP PUSH1 0x1 PUSH1 0x3 SLOAD PUSH2 0x6BC SWAP2 SWAP1 PUSH2 0x251E JUMP JUMPDEST DUP10 EQ JUMPDEST SWAP1 POP PUSH1 0x0 DUP8 PUSH20 0xFFFFFFFFFFFFFFFFFFFFFFFFFFFFFFFFFFFFFFFF AND PUSH4 0xD431A42F DUP11 PUSH1 0x20 ADD MLOAD PUSH1 0x40 MLOAD DUP3 PUSH4 0xFFFFFFFF AND PUSH1 0xE0 SHL DUP2 MSTORE PUSH1 0x4 ADD PUSH2 0x700 SWAP2 SWAP1 PUSH2 0x1E93 JUMP JUMPDEST PUSH1 0x20 PUSH1 0x40 MLOAD DUP1 DUP4 SUB DUP2 DUP7 GAS STATICCALL ISZERO DUP1 ISZERO PUSH2 0x71D JUMPI RETURNDATASIZE PUSH1 0x0 DUP1 RETURNDATACOPY RETURNDATASIZE PUSH1 0x0 REVERT JUMPDEST POP POP POP POP PUSH1 0x40 MLOAD RETURNDATASIZE PUSH1 0x1F NOT PUSH1 0x1F DUP3 ADD AND DUP3 ADD DUP1 PUSH1 0x40 MSTORE POP DUP2 ADD SWAP1 PUSH2 0x741 SWAP2 SWAP1 PUSH2 0x2491 JUMP JUMPDEST DUP5 EQ SWAP1 POP PUSH1 0x0 PUSH2 0x7FA PUSH1 0x2 PUSH1 0x0 PUSH1 0x1 DUP15 PUSH2 0x75B SWAP2 SWAP1 PUSH2 0x2426 JUMP JUMPDEST DUP2 MSTORE PUSH1 0x20 ADD SWAP1 DUP2 MSTORE PUSH1 0x20 ADD PUSH1 0x0 KECCAK256 PUSH1 0x0 ADD DUP1 SLOAD PUSH2 0x777 SWAP1 PUSH2 0x2396 JUMP JUMPDEST DUP1 PUSH1 0x1F ADD PUSH1 0x20 DUP1 SWAP2 DIV MUL PUSH1 0x20 ADD PUSH1 0x40 MLOAD SWAP1 DUP2 ADD PUSH1 0x40 MSTORE DUP1 SWAP3 SWAP2 SWAP1 DUP2 DUP2 MSTORE PUSH1 0x20 ADD DUP3 DUP1 SLOAD PUSH2 0x7A3 SWAP1 PUSH2 0x2396 JUMP JUMPDEST DUP1 ISZERO PUSH2 0x7F0 JUMPI DUP1 PUSH1 0x1F LT PUSH2 0x7C5 JUMPI PUSH2 0x100 DUP1 DUP4 SLOAD DIV MUL DUP4 MSTORE SWAP2 PUSH1 0x20 ADD SWAP2 PUSH2 0x7F0 JUMP JUMPDEST DUP3 ADD SWAP2 SWAP1 PUSH1 0x0 MSTORE PUSH1 0x20 PUSH1 0x0 KECCAK256 SWAP1 JUMPDEST DUP2 SLOAD DUP2 MSTORE SWAP1 PUSH1 0x1 ADD SWAP1 PUSH1 0x20 ADD DUP1 DUP4 GT PUSH2 0x7D3 JUMPI DUP3 SWAP1 SUB PUSH1 0x1F AND DUP3 ADD SWAP2 JUMPDEST POP POP POP POP POP PUSH2 0x1B7C JUMP JUMPDEST SWAP1 POP PUSH2 0x83F PUSH1 0x40 MLOAD DUP1 PUSH1 0x40 ADD PUSH1 0x40 MSTORE DUP1 PUSH1 0x11 DUP2 MSTORE PUSH1 0x20 ADD PUSH32 0x6236342D777261702E6A7340312E302E30000000000000000000000000000000 DUP2 MSTORE POP DUP12 PUSH1 0x0 ADD MLOAD PUSH2 0x1BC4 JUMP JUMPDEST DUP1 ISZERO PUSH2 0x848 JUMPI POP DUP2 JUMPDEST ISZERO PUSH2 0xE19 JUMPI DUP3 ISZERO PUSH2 0x9DF JUMPI DUP12 PUSH1 0x4 PUSH1 0x0 SWAP1 SLOAD SWAP1 PUSH2 0x100 EXP SWAP1 DIV PUSH20 0xFFFFFFFFFFFFFFFFFFFFFFFFFFFFFFFFFFFFFFFF AND PUSH20 0xFFFFFFFFFFFFFFFFFFFFFFFFFFFFFFFFFFFFFFFF AND PUSH4 0x11AA4CBA PUSH1 0x1 DUP1 PUSH1 0x40 MLOAD DUP4 PUSH4 0xFFFFFFFF AND PUSH1 0xE0 SHL DUP2 MSTORE PUSH1 0x4 ADD PUSH2 0x8B2 SWAP3 SWAP2 SWAP1 PUSH2 0x25E3 JUMP JUMPDEST PUSH1 0x0 PUSH1 0x40 MLOAD DUP1 DUP4 SUB DUP2 DUP7 GAS STATICCALL ISZERO DUP1 ISZERO PUSH2 0x8CF JUMPI RETURNDATASIZE PUSH1 0x0 DUP1 RETURNDATACOPY RETURNDATASIZE PUSH1 0x0 REVERT JUMPDEST POP POP POP POP PUSH1 0x40 MLOAD RETURNDATASIZE PUSH1 0x0 DUP3 RETURNDATACOPY RETURNDATASIZE PUSH1 0x1F NOT PUSH1 0x1F DUP3 ADD AND DUP3 ADD DUP1 PUSH1 0x40 MSTORE POP DUP2 ADD SWAP1 PUSH2 0x8F8 SWAP2 SWAP1 PUSH2 0x26C0 JUMP JUMPDEST PUSH1 0x4 PUSH1 0x0 SWAP1 SLOAD SWAP1 PUSH2 0x100 EXP SWAP1 DIV PUSH20 0xFFFFFFFFFFFFFFFFFFFFFFFFFFFFFFFFFFFFFFFF AND PUSH20 0xFFFFFFFFFFFFFFFFFFFFFFFFFFFFFFFFFFFFFFFF AND PUSH4 0x11AA4CBA PUSH1 0x0 DUP1 PUSH1 0x40 MLOAD DUP4 PUSH4 0xFFFFFFFF AND PUSH1 0xE0 SHL DUP2 MSTORE PUSH1 0x4 ADD PUSH2 0x956 SWAP3 SWAP2 SWAP1 PUSH2 0x2790 JUMP JUMPDEST PUSH1 0x0 PUSH1 0x40 MLOAD DUP1 DUP4 SUB DUP2 DUP7 GAS STATICCALL ISZERO DUP1 ISZERO PUSH2 0x973 JUMPI RETURNDATASIZE PUSH1 0x0 DUP1 RETURNDATACOPY RETURNDATASIZE PUSH1 0x0 REVERT JUMPDEST POP POP POP POP PUSH1 0x40 MLOAD RETURNDATASIZE PUSH1 0x0 DUP3 RETURNDATACOPY RETURNDATASIZE PUSH1 0x1F NOT PUSH1 0x1F DUP3 ADD AND DUP3 ADD DUP1 PUSH1 0x40 MSTORE POP DUP2 ADD SWAP1 PUSH2 0x99C SWAP2 SWAP1 PUSH2 0x26C0 JUMP JUMPDEST PUSH1 0x40 MLOAD PUSH1 0x20 ADD PUSH2 0x9AD SWAP3 SWAP2 SWAP1 PUSH2 0x2813 JUMP JUMPDEST PUSH1 0x40 MLOAD PUSH1 0x20 DUP2 DUP4 SUB SUB DUP2 MSTORE SWAP1 PUSH1 0x40 MSTORE PUSH1 0x40 MLOAD PUSH1 0x20 ADD PUSH2 0x9CD SWAP3 SWAP2 SWAP1 PUSH2 0x24FA JUMP JUMPDEST PUSH1 0x40 MLOAD PUSH1 0x20 DUP2 DUP4 SUB SUB DUP2 MSTORE SWAP1 PUSH1 0x40 MSTORE SWAP12 POP JUMPDEST DUP1 ISZERO PUSH2 0xE18 JUMPI PUSH1 0x0 PUSH1 0x4 PUSH1 0x0 SWAP1 SLOAD SWAP1 PUSH2 0x100 EXP SWAP1 DIV PUSH20 0xFFFFFFFFFFFFFFFFFFFFFFFFFFFFFFFFFFFFFFFF AND PUSH20 0xFFFFFFFFFFFFFFFFFFFFFFFFFFFFFFFFFFFFFFFF AND PUSH4 0x11AA4CBA PUSH1 0x0 DUP1 PUSH1 0x40 MLOAD DUP4 PUSH4 0xFFFFFFFF AND PUSH1 0xE0 SHL DUP2 MSTORE PUSH1 0x4 ADD PUSH2 0xA45 SWAP3 SWAP2 SWAP1 PUSH2 0x2883 JUMP JUMPDEST PUSH1 0x0 PUSH1 0x40 MLOAD DUP1 DUP4 SUB DUP2 DUP7 GAS STATICCALL ISZERO DUP1 ISZERO PUSH2 0xA62 JUMPI RETURNDATASIZE PUSH1 0x0 DUP1 RETURNDATACOPY RETURNDATASIZE PUSH1 0x0 REVERT JUMPDEST POP POP POP POP PUSH1 0x40 MLOAD RETURNDATASIZE PUSH1 0x0 DUP3 RETURNDATACOPY RETURNDATASIZE PUSH1 0x1F NOT PUSH1 0x1F DUP3 ADD AND DUP3 ADD DUP1 PUSH1 0x40 MSTORE POP DUP2 ADD SWAP1 PUSH2 0xA8B SWAP2 SWAP1 PUSH2 0x26C0 JUMP JUMPDEST PUSH1 0x40 MLOAD PUSH1 0x20 ADD PUSH2 0xA9B SWAP2 SWAP1 PUSH2 0x28BF JUMP JUMPDEST PUSH1 0x40 MLOAD PUSH1 0x20 DUP2 DUP4 SUB SUB DUP2 MSTORE SWAP1 PUSH1 0x40 MSTORE SWAP1 POP PUSH1 0x0 JUMPDEST PUSH1 0x3 SLOAD DUP2 LT ISZERO PUSH2 0xC28 JUMPI PUSH2 0xB60 PUSH1 0x2 PUSH1 0x0 DUP4 DUP2 MSTORE PUSH1 0x20 ADD SWAP1 DUP2 MSTORE PUSH1 0x20 ADD PUSH1 0x0 KECCAK256 PUSH1 0x0 ADD DUP1 SLOAD PUSH2 0xADD SWAP1 PUSH2 0x2396 JUMP JUMPDEST DUP1 PUSH1 0x1F ADD PUSH1 0x20 DUP1 SWAP2 DIV MUL PUSH1 0x20 ADD PUSH1 0x40 MLOAD SWAP1 DUP2 ADD PUSH1 0x40 MSTORE DUP1 SWAP3 SWAP2 SWAP1 DUP2 DUP2 MSTORE PUSH1 0x20 ADD DUP3 DUP1 SLOAD PUSH2 0xB09 SWAP1 PUSH2 0x2396 JUMP JUMPDEST DUP1 ISZERO PUSH2 0xB56 JUMPI DUP1 PUSH1 0x1F LT PUSH2 0xB2B JUMPI PUSH2 0x100 DUP1 DUP4 SLOAD DIV MUL DUP4 MSTORE SWAP2 PUSH1 0x20 ADD SWAP2 PUSH2 0xB56 JUMP JUMPDEST DUP3 ADD SWAP2 SWAP1 PUSH1 0x0 MSTORE PUSH1 0x20 PUSH1 0x0 KECCAK256 SWAP1 JUMPDEST DUP2 SLOAD DUP2 MSTORE SWAP1 PUSH1 0x1 ADD SWAP1 PUSH1 0x20 ADD DUP1 DUP4 GT PUSH2 0xB39 JUMPI DUP3 SWAP1 SUB PUSH1 0x1F AND DUP3 ADD SWAP2 JUMPDEST POP POP POP POP POP PUSH2 0x1B7C JUMP JUMPDEST ISZERO PUSH2 0xC15 JUMPI DUP2 PUSH1 0x40 MLOAD PUSH1 0x20 ADD PUSH2 0xB76 SWAP2 SWAP1 PUSH2 0x28FC JUMP JUMPDEST PUSH1 0x40 MLOAD PUSH1 0x20 DUP2 DUP4 SUB SUB DUP2 MSTORE SWAP1 PUSH1 0x40 MSTORE PUSH1 0x2 PUSH1 0x0 DUP4 DUP2 MSTORE PUSH1 0x20 ADD SWAP1 DUP2 MSTORE PUSH1 0x20 ADD PUSH1 0x0 KECCAK256 PUSH1 0x1 ADD PUSH1 0x40 MLOAD PUSH1 0x20 ADD PUSH2 0xBAB SWAP2 SWAP1 PUSH2 0x29B6 JUMP JUMPDEST PUSH1 0x40 MLOAD PUSH1 0x20 DUP2 DUP4 SUB SUB DUP2 MSTORE SWAP1 PUSH1 0x40 MSTORE PUSH1 0x40 MLOAD PUSH1 0x20 ADD PUSH2 0xBCB SWAP3 SWAP2 SWAP1 PUSH2 0x24FA JUMP JUMPDEST PUSH1 0x40 MLOAD PUSH1 0x20 DUP2 DUP4 SUB SUB DUP2 MSTORE SWAP1 PUSH1 0x40 MSTORE SWAP2 POP PUSH1 0x1 PUSH1 0x3 SLOAD PUSH2 0xBEB SWAP2 SWAP1 PUSH2 0x251E JUMP JUMPDEST DUP2 EQ PUSH2 0xC14 JUMPI DUP2 PUSH1 0x40 MLOAD PUSH1 0x20 ADD PUSH2 0xC02 SWAP2 SWAP1 PUSH2 0x2A02 JUMP JUMPDEST PUSH1 0x40 MLOAD PUSH1 0x20 DUP2 DUP4 SUB SUB DUP2 MSTORE SWAP1 PUSH1 0x40 MSTORE SWAP2 POP JUMPDEST JUMPDEST DUP1 DUP1 PUSH2 0xC20 SWAP1 PUSH2 0x2A28 JUMP JUMPDEST SWAP2 POP POP PUSH2 0xAAF JUMP JUMPDEST POP DUP1 PUSH1 0x4 PUSH1 0x0 SWAP1 SLOAD SWAP1 PUSH2 0x100 EXP SWAP1 DIV PUSH20 0xFFFFFFFFFFFFFFFFFFFFFFFFFFFFFFFFFFFFFFFF AND PUSH20 0xFFFFFFFFFFFFFFFFFFFFFFFFFFFFFFFFFFFFFFFF AND PUSH4 0x11AA4CBA PUSH1 0x1 DUP1 PUSH1 0x40 MLOAD DUP4 PUSH4 0xFFFFFFFF AND PUSH1 0xE0 SHL DUP2 MSTORE PUSH1 0x4 ADD PUSH2 0xC88 SWAP3 SWAP2 SWAP1 PUSH2 0x2A71 JUMP JUMPDEST PUSH1 0x0 PUSH1 0x40 MLOAD DUP1 DUP4 SUB DUP2 DUP7 GAS STATICCALL ISZERO DUP1 ISZERO PUSH2 0xCA5 JUMPI RETURNDATASIZE PUSH1 0x0 DUP1 RETURNDATACOPY RETURNDATASIZE PUSH1 0x0 REVERT JUMPDEST POP POP POP POP PUSH1 0x40 MLOAD RETURNDATASIZE PUSH1 0x0 DUP3 RETURNDATACOPY RETURNDATASIZE PUSH1 0x1F NOT PUSH1 0x1F DUP3 ADD AND DUP3 ADD DUP1 PUSH1 0x40 MSTORE POP DUP2 ADD SWAP1 PUSH2 0xCCE SWAP2 SWAP1 PUSH2 0x26C0 JUMP JUMPDEST PUSH1 0x40 MLOAD PUSH1 0x20 ADD PUSH2 0xCDE SWAP2 SWAP1 PUSH2 0x28BF JUMP JUMPDEST PUSH1 0x40 MLOAD PUSH1 0x20 DUP2 DUP4 SUB SUB DUP2 MSTORE SWAP1 PUSH1 0x40 MSTORE PUSH1 0x40 MLOAD PUSH1 0x20 ADD PUSH2 0xCFE SWAP3 SWAP2 SWAP1 PUSH2 0x24FA JUMP JUMPDEST PUSH1 0x40 MLOAD PUSH1 0x20 DUP2 DUP4 SUB SUB DUP2 MSTORE SWAP1 PUSH1 0x40 MSTORE PUSH1 0x4 PUSH1 0x0 SWAP1 SLOAD SWAP1 PUSH2 0x100 EXP SWAP1 DIV PUSH20 0xFFFFFFFFFFFFFFFFFFFFFFFFFFFFFFFFFFFFFFFF AND PUSH20 0xFFFFFFFFFFFFFFFFFFFFFFFFFFFFFFFFFFFFFFFF AND PUSH4 0x11AA4CBA PUSH1 0x0 DUP1 PUSH1 0x40 MLOAD DUP4 PUSH4 0xFFFFFFFF AND PUSH1 0xE0 SHL DUP2 MSTORE PUSH1 0x4 ADD PUSH2 0xD6B SWAP3 SWAP2 SWAP1 PUSH2 0x2AF9 JUMP JUMPDEST PUSH1 0x0 PUSH1 0x40 MLOAD DUP1 DUP4 SUB DUP2 DUP7 GAS STATICCALL ISZERO DUP1 ISZERO PUSH2 0xD88 JUMPI RETURNDATASIZE PUSH1 0x0 DUP1 RETURNDATACOPY RETURNDATASIZE PUSH1 0x0 REVERT JUMPDEST POP POP POP POP PUSH1 0x40 MLOAD RETURNDATASIZE PUSH1 0x0 DUP3 RETURNDATACOPY RETURNDATASIZE PUSH1 0x1F NOT PUSH1 0x1F DUP3 ADD AND DUP3 ADD DUP1 PUSH1 0x40 MSTORE POP DUP2 ADD SWAP1 PUSH2 0xDB1 SWAP2 SWAP1 PUSH2 0x26C0 JUMP JUMPDEST PUSH1 0x40 MLOAD PUSH1 0x20 ADD PUSH2 0xDC1 SWAP2 SWAP1 PUSH2 0x28BF JUMP JUMPDEST PUSH1 0x40 MLOAD PUSH1 0x20 DUP2 DUP4 SUB SUB DUP2 MSTORE SWAP1 PUSH1 0x40 MSTORE PUSH1 0x40 MLOAD PUSH1 0x20 ADD PUSH2 0xDE1 SWAP3 SWAP2 SWAP1 PUSH2 0x24FA JUMP JUMPDEST PUSH1 0x40 MLOAD PUSH1 0x20 DUP2 DUP4 SUB SUB DUP2 MSTORE SWAP1 PUSH1 0x40 MSTORE SWAP1 POP DUP13 DUP2 PUSH1 0x40 MLOAD PUSH1 0x20 ADD PUSH2 0xE05 SWAP3 SWAP2 SWAP1 PUSH2 0x24FA JUMP JUMPDEST PUSH1 0x40 MLOAD PUSH1 0x20 DUP2 DUP4 SUB SUB DUP2 MSTORE SWAP1 PUSH1 0x40 MSTORE SWAP13 POP POP JUMPDEST JUMPDEST DUP3 DUP1 ISZERO PUSH2 0xE23 JUMPI POP DUP2 JUMPDEST ISZERO PUSH2 0x11FC JUMPI PUSH2 0xE35 DUP11 PUSH1 0x0 ADD MLOAD PUSH2 0x1B7C JUMP JUMPDEST ISZERO PUSH2 0x106F JUMPI DUP12 PUSH1 0x4 PUSH1 0x0 SWAP1 SLOAD SWAP1 PUSH2 0x100 EXP SWAP1 DIV PUSH20 0xFFFFFFFFFFFFFFFFFFFFFFFFFFFFFFFFFFFFFFFF AND PUSH20 0xFFFFFFFFFFFFFFFFFFFFFFFFFFFFFFFFFFFFFFFF AND PUSH4 0x11AA4CBA PUSH1 0x1 DUP1 PUSH1 0x40 MLOAD DUP4 PUSH4 0xFFFFFFFF AND PUSH1 0xE0 SHL DUP2 MSTORE PUSH1 0x4 ADD PUSH2 0xE99 SWAP3 SWAP2 SWAP1 PUSH2 0x2B35 JUMP JUMPDEST PUSH1 0x0 PUSH1 0x40 MLOAD DUP1 DUP4 SUB DUP2 DUP7 GAS STATICCALL ISZERO DUP1 ISZERO PUSH2 0xEB6 JUMPI RETURNDATASIZE PUSH1 0x0 DUP1 RETURNDATACOPY RETURNDATASIZE PUSH1 0x0 REVERT JUMPDEST POP POP POP POP PUSH1 0x40 MLOAD RETURNDATASIZE PUSH1 0x0 DUP3 RETURNDATACOPY RETURNDATASIZE PUSH1 0x1F NOT PUSH1 0x1F DUP3 ADD AND DUP3 ADD DUP1 PUSH1 0x40 MSTORE POP DUP2 ADD SWAP1 PUSH2 0xEDF SWAP2 SWAP1 PUSH2 0x26C0 JUMP JUMPDEST PUSH1 0x4 PUSH1 0x0 SWAP1 SLOAD SWAP1 PUSH2 0x100 EXP SWAP1 DIV PUSH20 0xFFFFFFFFFFFFFFFFFFFFFFFFFFFFFFFFFFFFFFFF AND PUSH20 0xFFFFFFFFFFFFFFFFFFFFFFFFFFFFFFFFFFFFFFFF AND PUSH4 0x11AA4CBA PUSH1 0x1 DUP1 PUSH1 0x40 MLOAD DUP4 PUSH4 0xFFFFFFFF AND PUSH1 0xE0 SHL DUP2 MSTORE PUSH1 0x4 ADD PUSH2 0xF3D SWAP3 SWAP2 SWAP1 PUSH2 0x25E3 JUMP JUMPDEST PUSH1 0x0 PUSH1 0x40 MLOAD DUP1 DUP4 SUB DUP2 DUP7 GAS STATICCALL ISZERO DUP1 ISZERO PUSH2 0xF5A JUMPI RETURNDATASIZE PUSH1 0x0 DUP1 RETURNDATACOPY RETURNDATASIZE PUSH1 0x0 REVERT JUMPDEST POP POP POP POP PUSH1 0x40 MLOAD RETURNDATASIZE PUSH1 0x0 DUP3 RETURNDATACOPY RETURNDATASIZE PUSH1 0x1F NOT PUSH1 0x1F DUP3 ADD AND DUP3 ADD DUP1 PUSH1 0x40 MSTORE POP DUP2 ADD SWAP1 PUSH2 0xF83 SWAP2 SWAP1 PUSH2 0x26C0 JUMP JUMPDEST PUSH1 0x4 PUSH1 0x0 SWAP1 SLOAD SWAP1 PUSH2 0x100 EXP SWAP1 DIV PUSH20 0xFFFFFFFFFFFFFFFFFFFFFFFFFFFFFFFFFFFFFFFF AND PUSH20 0xFFFFFFFFFFFFFFFFFFFFFFFFFFFFFFFFFFFFFFFF AND PUSH4 0x11AA4CBA PUSH1 0x0 DUP1 PUSH1 0x40 MLOAD DUP4 PUSH4 0xFFFFFFFF AND PUSH1 0xE0 SHL DUP2 MSTORE PUSH1 0x4 ADD PUSH2 0xFE1 SWAP3 SWAP2 SWAP1 PUSH2 0x2790 JUMP JUMPDEST PUSH1 0x0 PUSH1 0x40 MLOAD DUP1 DUP4 SUB DUP2 DUP7 GAS STATICCALL ISZERO DUP1 ISZERO PUSH2 0xFFE JUMPI RETURNDATASIZE PUSH1 0x0 DUP1 RETURNDATACOPY RETURNDATASIZE PUSH1 0x0 REVERT JUMPDEST POP POP POP POP PUSH1 0x40 MLOAD RETURNDATASIZE PUSH1 0x0 DUP3 RETURNDATACOPY RETURNDATASIZE PUSH1 0x1F NOT PUSH1 0x1F DUP3 ADD AND DUP3 ADD DUP1 PUSH1 0x40 MSTORE POP DUP2 ADD SWAP1 PUSH2 0x1027 SWAP2 SWAP1 PUSH2 0x26C0 JUMP JUMPDEST PUSH1 0x40 MLOAD PUSH1 0x20 ADD PUSH2 0x1039 SWAP4 SWAP3 SWAP2 SWAP1 PUSH2 0x2B71 JUMP JUMPDEST PUSH1 0x40 MLOAD PUSH1 0x20 DUP2 DUP4 SUB SUB DUP2 MSTORE SWAP1 PUSH1 0x40 MSTORE PUSH1 0x40 MLOAD PUSH1 0x20 ADD PUSH2 0x1059 SWAP3 SWAP2 SWAP1 PUSH2 0x24FA JUMP JUMPDEST PUSH1 0x40 MLOAD PUSH1 0x20 DUP2 DUP4 SUB SUB DUP2 MSTORE SWAP1 PUSH1 0x40 MSTORE SWAP12 POP PUSH2 0x11FB JUMP JUMPDEST DUP12 PUSH1 0x4 PUSH1 0x0 SWAP1 SLOAD SWAP1 PUSH2 0x100 EXP SWAP1 DIV PUSH20 0xFFFFFFFFFFFFFFFFFFFFFFFFFFFFFFFFFFFFFFFF AND PUSH20 0xFFFFFFFFFFFFFFFFFFFFFFFFFFFFFFFFFFFFFFFF AND PUSH4 0x11AA4CBA PUSH1 0x1 DUP1 PUSH1 0x40 MLOAD DUP4 PUSH4 0xFFFFFFFF AND PUSH1 0xE0 SHL DUP2 MSTORE PUSH1 0x4 ADD PUSH2 0x10CE SWAP3 SWAP2 SWAP1 PUSH2 0x25E3 JUMP JUMPDEST PUSH1 0x0 PUSH1 0x40 MLOAD DUP1 DUP4 SUB DUP2 DUP7 GAS STATICCALL ISZERO DUP1 ISZERO PUSH2 0x10EB JUMPI RETURNDATASIZE PUSH1 0x0 DUP1 RETURNDATACOPY RETURNDATASIZE PUSH1 0x0 REVERT JUMPDEST POP POP POP POP PUSH1 0x40 MLOAD RETURNDATASIZE PUSH1 0x0 DUP3 RETURNDATACOPY RETURNDATASIZE PUSH1 0x1F NOT PUSH1 0x1F DUP3 ADD AND DUP3 ADD DUP1 PUSH1 0x40 MSTORE POP DUP2 ADD SWAP1 PUSH2 0x1114 SWAP2 SWAP1 PUSH2 0x26C0 JUMP JUMPDEST PUSH1 0x4 PUSH1 0x0 SWAP1 SLOAD SWAP1 PUSH2 0x100 EXP SWAP1 DIV PUSH20 0xFFFFFFFFFFFFFFFFFFFFFFFFFFFFFFFFFFFFFFFF AND PUSH20 0xFFFFFFFFFFFFFFFFFFFFFFFFFFFFFFFFFFFFFFFF AND PUSH4 0x11AA4CBA PUSH1 0x0 DUP1 PUSH1 0x40 MLOAD DUP4 PUSH4 0xFFFFFFFF AND PUSH1 0xE0 SHL DUP2 MSTORE PUSH1 0x4 ADD PUSH2 0x1172 SWAP3 SWAP2 SWAP1 PUSH2 0x2790 JUMP JUMPDEST PUSH1 0x0 PUSH1 0x40 MLOAD DUP1 DUP4 SUB DUP2 DUP7 GAS STATICCALL ISZERO DUP1 ISZERO PUSH2 0x118F JUMPI RETURNDATASIZE PUSH1 0x0 DUP1 RETURNDATACOPY RETURNDATASIZE PUSH1 0x0 REVERT JUMPDEST POP POP POP POP PUSH1 0x40 MLOAD RETURNDATASIZE PUSH1 0x0 DUP3 RETURNDATACOPY RETURNDATASIZE PUSH1 0x1F NOT PUSH1 0x1F DUP3 ADD AND DUP3 ADD DUP1 PUSH1 0x40 MSTORE POP DUP2 ADD SWAP1 PUSH2 0x11B8 SWAP2 SWAP1 PUSH2 0x26C0 JUMP JUMPDEST PUSH1 0x40 MLOAD PUSH1 0x20 ADD PUSH2 0x11C9 SWAP3 SWAP2 SWAP1 PUSH2 0x2813 JUMP JUMPDEST PUSH1 0x40 MLOAD PUSH1 0x20 DUP2 DUP4 SUB SUB DUP2 MSTORE SWAP1 PUSH1 0x40 MSTORE PUSH1 0x40 MLOAD PUSH1 0x20 ADD PUSH2 0x11E9 SWAP3 SWAP2 SWAP1 PUSH2 0x24FA JUMP JUMPDEST PUSH1 0x40 MLOAD PUSH1 0x20 DUP2 DUP4 SUB SUB DUP2 MSTORE SWAP1 PUSH1 0x40 MSTORE SWAP12 POP JUMPDEST JUMPDEST POP POP POP POP POP POP POP POP POP POP DUP1 DUP1 PUSH2 0x1211 SWAP1 PUSH2 0x2A28 JUMP JUMPDEST SWAP2 POP POP PUSH2 0x358 JUMP JUMPDEST POP PUSH1 0x0 DUP9 EQ ISZERO PUSH2 0x13AF JUMPI PUSH1 0x4 PUSH1 0x0 SWAP1 SLOAD SWAP1 PUSH2 0x100 EXP SWAP1 DIV PUSH20 0xFFFFFFFFFFFFFFFFFFFFFFFFFFFFFFFFFFFFFFFF AND PUSH20 0xFFFFFFFFFFFFFFFFFFFFFFFFFFFFFFFFFFFFFFFF AND PUSH4 0x11AA4CBA PUSH1 0x0 DUP1 PUSH1 0x40 MLOAD DUP4 PUSH4 0xFFFFFFFF AND PUSH1 0xE0 SHL DUP2 MSTORE PUSH1 0x4 ADD PUSH2 0x1281 SWAP3 SWAP2 SWAP1 PUSH2 0x2BEE JUMP JUMPDEST PUSH1 0x0 PUSH1 0x40 MLOAD DUP1 DUP4 SUB DUP2 DUP7 GAS STATICCALL ISZERO DUP1 ISZERO PUSH2 0x129E JUMPI RETURNDATASIZE PUSH1 0x0 DUP1 RETURNDATACOPY RETURNDATASIZE PUSH1 0x0 REVERT JUMPDEST POP POP POP POP PUSH1 0x40 MLOAD RETURNDATASIZE PUSH1 0x0 DUP3 RETURNDATACOPY RETURNDATASIZE PUSH1 0x1F NOT PUSH1 0x1F DUP3 ADD AND DUP3 ADD DUP1 PUSH1 0x40 MSTORE POP DUP2 ADD SWAP1 PUSH2 0x12C7 SWAP2 SWAP1 PUSH2 0x26C0 JUMP JUMPDEST PUSH1 0x4 PUSH1 0x0 SWAP1 SLOAD SWAP1 PUSH2 0x100 EXP SWAP1 DIV PUSH20 0xFFFFFFFFFFFFFFFFFFFFFFFFFFFFFFFFFFFFFFFF AND PUSH20 0xFFFFFFFFFFFFFFFFFFFFFFFFFFFFFFFFFFFFFFFF AND PUSH4 0x11AA4CBA PUSH1 0x0 DUP1 PUSH1 0x40 MLOAD DUP4 PUSH4 0xFFFFFFFF AND PUSH1 0xE0 SHL DUP2 MSTORE PUSH1 0x4 ADD PUSH2 0x1325 SWAP3 SWAP2 SWAP1 PUSH2 0x2C2A JUMP JUMPDEST PUSH1 0x0 PUSH1 0x40 MLOAD DUP1 DUP4 SUB DUP2 DUP7 GAS STATICCALL ISZERO DUP1 ISZERO PUSH2 0x1342 JUMPI RETURNDATASIZE PUSH1 0x0 DUP1 RETURNDATACOPY RETURNDATASIZE PUSH1 0x0 REVERT JUMPDEST POP POP POP POP PUSH1 0x40 MLOAD RETURNDATASIZE PUSH1 0x0 DUP3 RETURNDATACOPY RETURNDATASIZE PUSH1 0x1F NOT PUSH1 0x1F DUP3 ADD AND DUP3 ADD DUP1 PUSH1 0x40 MSTORE POP DUP2 ADD SWAP1 PUSH2 0x136B SWAP2 SWAP1 PUSH2 0x26C0 JUMP JUMPDEST PUSH1 0x40 MLOAD PUSH1 0x20 ADD PUSH2 0x137C SWAP3 SWAP2 SWAP1 PUSH2 0x2813 JUMP JUMPDEST PUSH1 0x40 MLOAD PUSH1 0x20 DUP2 DUP4 SUB SUB DUP2 MSTORE SWAP1 PUSH1 0x40 MSTORE DUP2 PUSH1 0x40 MLOAD PUSH1 0x20 ADD PUSH2 0x139D SWAP3 SWAP2 SWAP1 PUSH2 0x24FA JUMP JUMPDEST PUSH1 0x40 MLOAD PUSH1 0x20 DUP2 DUP4 SUB SUB DUP2 MSTORE SWAP1 PUSH1 0x40 MSTORE SWAP1 POP JUMPDEST PUSH1 0x1 PUSH1 0x6 SLOAD PUSH2 0x13BE SWAP2 SWAP1 PUSH2 0x251E JUMP JUMPDEST DUP9 EQ ISZERO PUSH2 0x1551 JUMPI DUP1 PUSH1 0x4 PUSH1 0x0 SWAP1 SLOAD SWAP1 PUSH2 0x100 EXP SWAP1 DIV PUSH20 0xFFFFFFFFFFFFFFFFFFFFFFFFFFFFFFFFFFFFFFFF AND PUSH20 0xFFFFFFFFFFFFFFFFFFFFFFFFFFFFFFFFFFFFFFFF AND PUSH4 0x11AA4CBA PUSH1 0x1 DUP1 PUSH1 0x40 MLOAD DUP4 PUSH4 0xFFFFFFFF AND PUSH1 0xE0 SHL DUP2 MSTORE PUSH1 0x4 ADD PUSH2 0x1424 SWAP3 SWAP2 SWAP1 PUSH2 0x2C66 JUMP JUMPDEST PUSH1 0x0 PUSH1 0x40 MLOAD DUP1 DUP4 SUB DUP2 DUP7 GAS STATICCALL ISZERO DUP1 ISZERO PUSH2 0x1441 JUMPI RETURNDATASIZE PUSH1 0x0 DUP1 RETURNDATACOPY RETURNDATASIZE PUSH1 0x0 REVERT JUMPDEST POP POP POP POP PUSH1 0x40 MLOAD RETURNDATASIZE PUSH1 0x0 DUP3 RETURNDATACOPY RETURNDATASIZE PUSH1 0x1F NOT PUSH1 0x1F DUP3 ADD AND DUP3 ADD DUP1 PUSH1 0x40 MSTORE POP DUP2 ADD SWAP1 PUSH2 0x146A SWAP2 SWAP1 PUSH2 0x26C0 JUMP JUMPDEST PUSH1 0x4 PUSH1 0x0 SWAP1 SLOAD SWAP1 PUSH2 0x100 EXP SWAP1 DIV PUSH20 0xFFFFFFFFFFFFFFFFFFFFFFFFFFFFFFFFFFFFFFFF AND PUSH20 0xFFFFFFFFFFFFFFFFFFFFFFFFFFFFFFFFFFFFFFFF AND PUSH4 0x11AA4CBA PUSH1 0x1 DUP1 PUSH1 0x40 MLOAD DUP4 PUSH4 0xFFFFFFFF AND PUSH1 0xE0 SHL DUP2 MSTORE PUSH1 0x4 ADD PUSH2 0x14C8 SWAP3 SWAP2 SWAP1 PUSH2 0x2CA2 JUMP JUMPDEST PUSH1 0x0 PUSH1 0x40 MLOAD DUP1 DUP4 SUB DUP2 DUP7 GAS STATICCALL ISZERO DUP1 ISZERO PUSH2 0x14E5 JUMPI RETURNDATASIZE PUSH1 0x0 DUP1 RETURNDATACOPY RETURNDATASIZE PUSH1 0x0 REVERT JUMPDEST POP POP POP POP PUSH1 0x40 MLOAD RETURNDATASIZE PUSH1 0x0 DUP3 RETURNDATACOPY RETURNDATASIZE PUSH1 0x1F NOT PUSH1 0x1F DUP3 ADD AND DUP3 ADD DUP1 PUSH1 0x40 MSTORE POP DUP2 ADD SWAP1 PUSH2 0x150E SWAP2 SWAP1 PUSH2 0x26C0 JUMP JUMPDEST PUSH1 0x40 MLOAD PUSH1 0x20 ADD PUSH2 0x151F SWAP3 SWAP2 SWAP1 PUSH2 0x2813 JUMP JUMPDEST PUSH1 0x40 MLOAD PUSH1 0x20 DUP2 DUP4 SUB SUB DUP2 MSTORE SWAP1 PUSH1 0x40 MSTORE PUSH1 0x40 MLOAD PUSH1 0x20 ADD PUSH2 0x153F SWAP3 SWAP2 SWAP1 PUSH2 0x24FA JUMP JUMPDEST PUSH1 0x40 MLOAD PUSH1 0x20 DUP2 DUP4 SUB SUB DUP2 MSTORE SWAP1 PUSH1 0x40 MSTORE SWAP1 POP JUMPDEST DUP1 SWAP7 POP POP POP POP POP POP POP SWAP2 SWAP1 POP JUMP JUMPDEST PUSH1 0x1 PUSH1 0x0 SWAP1 SLOAD SWAP1 PUSH2 0x100 EXP SWAP1 DIV PUSH1 0xFF AND DUP2 JUMP JUMPDEST PUSH1 0x2 PUSH1 0x20 MSTORE DUP1 PUSH1 0x0 MSTORE PUSH1 0x40 PUSH1 0x0 KECCAK256 PUSH1 0x0 SWAP2 POP SWAP1 POP DUP1 PUSH1 0x0 ADD DUP1 SLOAD PUSH2 0x1595 SWAP1 PUSH2 0x2396 JUMP JUMPDEST DUP1 PUSH1 0x1F ADD PUSH1 0x20 DUP1 SWAP2 DIV MUL PUSH1 0x20 ADD PUSH1 0x40 MLOAD SWAP1 DUP2 ADD PUSH1 0x40 MSTORE DUP1 SWAP3 SWAP2 SWAP1 DUP2 DUP2 MSTORE PUSH1 0x20 ADD DUP3 DUP1 SLOAD PUSH2 0x15C1 SWAP1 PUSH2 0x2396 JUMP JUMPDEST DUP1 ISZERO PUSH2 0x160E JUMPI DUP1 PUSH1 0x1F LT PUSH2 0x15E3 JUMPI PUSH2 0x100 DUP1 DUP4 SLOAD DIV MUL DUP4 MSTORE SWAP2 PUSH1 0x20 ADD SWAP2 PUSH2 0x160E JUMP JUMPDEST DUP3 ADD SWAP2 SWAP1 PUSH1 0x0 MSTORE PUSH1 0x20 PUSH1 0x0 KECCAK256 SWAP1 JUMPDEST DUP2 SLOAD DUP2 MSTORE SWAP1 PUSH1 0x1 ADD SWAP1 PUSH1 0x20 ADD DUP1 DUP4 GT PUSH2 0x15F1 JUMPI DUP3 SWAP1 SUB PUSH1 0x1F AND DUP3 ADD SWAP2 JUMPDEST POP POP POP POP POP SWAP1 DUP1 PUSH1 0x1 ADD DUP1 SLOAD PUSH2 0x1623 SWAP1 PUSH2 0x2396 JUMP JUMPDEST DUP1 PUSH1 0x1F ADD PUSH1 0x20 DUP1 SWAP2 DIV MUL PUSH1 0x20 ADD PUSH1 0x40 MLOAD SWAP1 DUP2 ADD PUSH1 0x40 MSTORE DUP1 SWAP3 SWAP2 SWAP1 DUP2 DUP2 MSTORE PUSH1 0x20 ADD DUP3 DUP1 SLOAD PUSH2 0x164F SWAP1 PUSH2 0x2396 JUMP JUMPDEST DUP1 ISZERO PUSH2 0x169C JUMPI DUP1 PUSH1 0x1F LT PUSH2 0x1671 JUMPI PUSH2 0x100 DUP1 DUP4 SLOAD DIV MUL DUP4 MSTORE SWAP2 PUSH1 0x20 ADD SWAP2 PUSH2 0x169C JUMP JUMPDEST DUP3 ADD SWAP2 SWAP1 PUSH1 0x0 MSTORE PUSH1 0x20 PUSH1 0x0 KECCAK256 SWAP1 JUMPDEST DUP2 SLOAD DUP2 MSTORE SWAP1 PUSH1 0x1 ADD SWAP1 PUSH1 0x20 ADD DUP1 DUP4 GT PUSH2 0x167F JUMPI DUP3 SWAP1 SUB PUSH1 0x1F AND DUP3 ADD SWAP2 JUMPDEST POP POP POP POP POP SWAP1 DUP1 PUSH1 0x2 ADD PUSH1 0x0 SWAP1 SLOAD SWAP1 PUSH2 0x100 EXP SWAP1 DIV PUSH20 0xFFFFFFFFFFFFFFFFFFFFFFFFFFFFFFFFFFFFFFFF AND SWAP1 DUP1 PUSH1 0x3 ADD PUSH1 0x0 SWAP1 SLOAD SWAP1 PUSH2 0x100 EXP SWAP1 DIV PUSH20 0xFFFFFFFFFFFFFFFFFFFFFFFFFFFFFFFFFFFFFFFF AND SWAP1 POP DUP5 JUMP JUMPDEST PUSH1 0x1 PUSH1 0x0 SWAP1 SLOAD SWAP1 PUSH2 0x100 EXP SWAP1 DIV PUSH1 0xFF AND ISZERO PUSH2 0x1742 JUMPI PUSH1 0x40 MLOAD PUSH32 0x8C379A000000000000000000000000000000000000000000000000000000000 DUP2 MSTORE PUSH1 0x4 ADD PUSH2 0x1739 SWAP1 PUSH2 0x2D2A JUMP JUMPDEST PUSH1 0x40 MLOAD DUP1 SWAP2 SUB SWAP1 REVERT JUMPDEST PUSH2 0x174C DUP7 DUP7 PUSH2 0x1C1D JUMP JUMPDEST PUSH2 0x1756 DUP3 DUP3 PUSH2 0x1C94 JUMP JUMPDEST DUP4 PUSH1 0x5 PUSH1 0x0 PUSH2 0x100 EXP DUP2 SLOAD DUP2 PUSH20 0xFFFFFFFFFFFFFFFFFFFFFFFFFFFFFFFFFFFFFFFF MUL NOT AND SWAP1 DUP4 PUSH20 0xFFFFFFFFFFFFFFFFFFFFFFFFFFFFFFFFFFFFFFFF AND MUL OR SWAP1 SSTORE POP DUP3 PUSH1 0x4 PUSH1 0x0 PUSH2 0x100 EXP DUP2 SLOAD DUP2 PUSH20 0xFFFFFFFFFFFFFFFFFFFFFFFFFFFFFFFFFFFFFFFF MUL NOT AND SWAP1 DUP4 PUSH20 0xFFFFFFFFFFFFFFFFFFFFFFFFFFFFFFFFFFFFFFFF AND MUL OR SWAP1 SSTORE POP PUSH1 0x1 DUP1 PUSH1 0x0 PUSH2 0x100 EXP DUP2 SLOAD DUP2 PUSH1 0xFF MUL NOT AND SWAP1 DUP4 ISZERO ISZERO MUL OR SWAP1 SSTORE POP POP POP POP POP POP POP JUMP JUMPDEST PUSH1 0x7 PUSH1 0x20 MSTORE DUP2 PUSH1 0x0 MSTORE PUSH1 0x40 PUSH1 0x0 KECCAK256 DUP2 PUSH1 0x4 DUP2 LT PUSH2 0x1816 JUMPI PUSH1 0x0 DUP1 REVERT JUMPDEST ADD PUSH1 0x0 SWAP2 POP SWAP2 POP POP SLOAD DUP2 JUMP JUMPDEST PUSH1 0x3 PUSH1 0x0 DUP1 SLOAD PUSH2 0x1831 SWAP1 PUSH2 0x2396 JUMP JUMPDEST SWAP1 POP LT PUSH2 0x1873 JUMPI PUSH1 0x40 MLOAD PUSH32 0x8C379A000000000000000000000000000000000000000000000000000000000 DUP2 MSTORE PUSH1 0x4 ADD PUSH2 0x186A SWAP1 PUSH2 0x2D96 JUMP JUMPDEST PUSH1 0x40 MLOAD DUP1 SWAP2 SUB SWAP1 REVERT JUMPDEST DUP1 PUSH1 0x0 SWAP1 DUP1 MLOAD SWAP1 PUSH1 0x20 ADD SWAP1 PUSH2 0x1889 SWAP3 SWAP2 SWAP1 PUSH2 0x1D17 JUMP JUMPDEST POP POP JUMP JUMPDEST PUSH1 0x60 PUSH1 0x0 PUSH1 0x40 MLOAD DUP1 PUSH1 0x20 ADD PUSH1 0x40 MSTORE DUP1 PUSH1 0x0 DUP2 MSTORE POP SWAP1 POP PUSH1 0x0 DUP5 EQ ISZERO PUSH2 0x1956 JUMPI DUP6 PUSH20 0xFFFFFFFFFFFFFFFFFFFFFFFFFFFFFFFFFFFFFFFF AND PUSH4 0x11AA4CBA DUP7 PUSH1 0x0 ADD MLOAD PUSH1 0x0 DUP1 PUSH1 0x40 MLOAD DUP5 PUSH4 0xFFFFFFFF AND PUSH1 0xE0 SHL DUP2 MSTORE PUSH1 0x4 ADD PUSH2 0x18EE SWAP4 SWAP3 SWAP2 SWAP1 PUSH2 0x2DB6 JUMP JUMPDEST PUSH1 0x0 PUSH1 0x40 MLOAD DUP1 DUP4 SUB DUP2 DUP7 GAS STATICCALL ISZERO DUP1 ISZERO PUSH2 0x190B JUMPI RETURNDATASIZE PUSH1 0x0 DUP1 RETURNDATACOPY RETURNDATASIZE PUSH1 0x0 REVERT JUMPDEST POP POP POP POP PUSH1 0x40 MLOAD RETURNDATASIZE PUSH1 0x0 DUP3 RETURNDATACOPY RETURNDATASIZE PUSH1 0x1F NOT PUSH1 0x1F DUP3 ADD AND DUP3 ADD DUP1 PUSH1 0x40 MSTORE POP DUP2 ADD SWAP1 PUSH2 0x1934 SWAP2 SWAP1 PUSH2 0x26C0 JUMP JUMPDEST PUSH1 0x40 MLOAD PUSH1 0x20 ADD PUSH2 0x1944 SWAP2 SWAP1 PUSH2 0x28BF JUMP JUMPDEST PUSH1 0x40 MLOAD PUSH1 0x20 DUP2 DUP4 SUB SUB DUP2 MSTORE SWAP1 PUSH1 0x40 MSTORE SWAP1 POP JUMPDEST DUP1 DUP8 PUSH20 0xFFFFFFFFFFFFFFFFFFFFFFFFFFFFFFFFFFFFFFFF AND PUSH4 0x11AA4CBA DUP8 PUSH1 0x20 ADD MLOAD DUP8 DUP8 PUSH1 0x40 MLOAD DUP5 PUSH4 0xFFFFFFFF AND PUSH1 0xE0 SHL DUP2 MSTORE PUSH1 0x4 ADD PUSH2 0x1998 SWAP4 SWAP3 SWAP2 SWAP1 PUSH2 0x2DF4 JUMP JUMPDEST PUSH1 0x0 PUSH1 0x40 MLOAD DUP1 DUP4 SUB DUP2 DUP7 GAS STATICCALL ISZERO DUP1 ISZERO PUSH2 0x19B5 JUMPI RETURNDATASIZE PUSH1 0x0 DUP1 RETURNDATACOPY RETURNDATASIZE PUSH1 0x0 REVERT JUMPDEST POP POP POP POP PUSH1 0x40 MLOAD RETURNDATASIZE PUSH1 0x0 DUP3 RETURNDATACOPY RETURNDATASIZE PUSH1 0x1F NOT PUSH1 0x1F DUP3 ADD AND DUP3 ADD DUP1 PUSH1 0x40 MSTORE POP DUP2 ADD SWAP1 PUSH2 0x19DE SWAP2 SWAP1 PUSH2 0x26C0 JUMP JUMPDEST PUSH1 0x40 MLOAD PUSH1 0x20 ADD PUSH2 0x19EE SWAP2 SWAP1 PUSH2 0x28BF JUMP JUMPDEST PUSH1 0x40 MLOAD PUSH1 0x20 DUP2 DUP4 SUB SUB DUP2 MSTORE SWAP1 PUSH1 0x40 MSTORE PUSH1 0x40 MLOAD PUSH1 0x20 ADD PUSH2 0x1A0E SWAP3 SWAP2 SWAP1 PUSH2 0x24FA JUMP JUMPDEST PUSH1 0x40 MLOAD PUSH1 0x20 DUP2 DUP4 SUB SUB DUP2 MSTORE SWAP1 PUSH1 0x40 MSTORE SWAP1 POP DUP7 PUSH20 0xFFFFFFFFFFFFFFFFFFFFFFFFFFFFFFFFFFFFFFFF AND PUSH4 0xD431A42F DUP7 PUSH1 0x20 ADD MLOAD PUSH1 0x40 MLOAD DUP3 PUSH4 0xFFFFFFFF AND PUSH1 0xE0 SHL DUP2 MSTORE PUSH1 0x4 ADD PUSH2 0x1A5C SWAP2 SWAP1 PUSH2 0x1E93 JUMP JUMPDEST PUSH1 0x20 PUSH1 0x40 MLOAD DUP1 DUP4 SUB DUP2 DUP7 GAS STATICCALL ISZERO DUP1 ISZERO PUSH2 0x1A79 JUMPI RETURNDATASIZE PUSH1 0x0 DUP1 RETURNDATACOPY RETURNDATASIZE PUSH1 0x0 REVERT JUMPDEST POP POP POP POP PUSH1 0x40 MLOAD RETURNDATASIZE PUSH1 0x1F NOT PUSH1 0x1F DUP3 ADD AND DUP3 ADD DUP1 PUSH1 0x40 MSTORE POP DUP2 ADD SWAP1 PUSH2 0x1A9D SWAP2 SWAP1 PUSH2 0x2491 JUMP JUMPDEST DUP4 EQ ISZERO PUSH2 0x1B6F JUMPI DUP1 DUP7 PUSH20 0xFFFFFFFFFFFFFFFFFFFFFFFFFFFFFFFFFFFFFFFF AND PUSH4 0x11AA4CBA DUP8 PUSH1 0x0 ADD MLOAD PUSH1 0x1 DUP1 PUSH1 0x40 MLOAD DUP5 PUSH4 0xFFFFFFFF AND PUSH1 0xE0 SHL DUP2 MSTORE PUSH1 0x4 ADD PUSH2 0x1AE7 SWAP4 SWAP3 SWAP2 SWAP1 PUSH2 0x2E32 JUMP JUMPDEST PUSH1 0x0 PUSH1 0x40 MLOAD DUP1 DUP4 SUB DUP2 DUP7 GAS STATICCALL ISZERO DUP1 ISZERO PUSH2 0x1B04 JUMPI RETURNDATASIZE PUSH1 0x0 DUP1 RETURNDATACOPY RETURNDATASIZE PUSH1 0x0 REVERT JUMPDEST POP POP POP POP PUSH1 0x40 MLOAD RETURNDATASIZE PUSH1 0x0 DUP3 RETURNDATACOPY RETURNDATASIZE PUSH1 0x1F NOT PUSH1 0x1F DUP3 ADD AND DUP3 ADD DUP1 PUSH1 0x40 MSTORE POP DUP2 ADD SWAP1 PUSH2 0x1B2D SWAP2 SWAP1 PUSH2 0x26C0 JUMP JUMPDEST PUSH1 0x40 MLOAD PUSH1 0x20 ADD PUSH2 0x1B3D SWAP2 SWAP1 PUSH2 0x28BF JUMP JUMPDEST PUSH1 0x40 MLOAD PUSH1 0x20 DUP2 DUP4 SUB SUB DUP2 MSTORE SWAP1 PUSH1 0x40 MSTORE PUSH1 0x40 MLOAD PUSH1 0x20 ADD PUSH2 0x1B5D SWAP3 SWAP2 SWAP1 PUSH2 0x24FA JUMP JUMPDEST PUSH1 0x40 MLOAD PUSH1 0x20 DUP2 DUP4 SUB SUB DUP2 MSTORE SWAP1 PUSH1 0x40 MSTORE SWAP1 POP JUMPDEST DUP1 SWAP2 POP POP SWAP6 SWAP5 POP POP POP POP POP JUMP JUMPDEST PUSH1 0x0 PUSH2 0x1BBD DUP3 PUSH1 0x40 MLOAD DUP1 PUSH1 0x40 ADD PUSH1 0x40 MSTORE DUP1 PUSH1 0x1E DUP2 MSTORE PUSH1 0x20 ADD PUSH32 0x6236342D677A2D696D706F72746D61702D777261702E6A7340312E302E300000 DUP2 MSTORE POP PUSH2 0x1BC4 JUMP JUMPDEST SWAP1 POP SWAP2 SWAP1 POP JUMP JUMPDEST PUSH1 0x0 DUP2 PUSH1 0x40 MLOAD PUSH1 0x20 ADD PUSH2 0x1BD7 SWAP2 SWAP1 PUSH2 0x2E70 JUMP JUMPDEST PUSH1 0x40 MLOAD PUSH1 0x20 DUP2 DUP4 SUB SUB DUP2 MSTORE SWAP1 PUSH1 0x40 MSTORE DUP1 MLOAD SWAP1 PUSH1 0x20 ADD KECCAK256 DUP4 PUSH1 0x40 MLOAD PUSH1 0x20 ADD PUSH2 0x1BFE SWAP2 SWAP1 PUSH2 0x2E70 JUMP JUMPDEST PUSH1 0x40 MLOAD PUSH1 0x20 DUP2 DUP4 SUB SUB DUP2 MSTORE SWAP1 PUSH1 0x40 MSTORE DUP1 MLOAD SWAP1 PUSH1 0x20 ADD KECCAK256 EQ SWAP1 POP SWAP3 SWAP2 POP POP JUMP JUMPDEST PUSH1 0x0 JUMPDEST DUP3 DUP3 SWAP1 POP DUP2 LT ISZERO PUSH2 0x1C85 JUMPI DUP3 DUP3 DUP3 DUP2 DUP2 LT PUSH2 0x1C3E JUMPI PUSH2 0x1C3D PUSH2 0x23C8 JUMP JUMPDEST JUMPDEST SWAP1 POP PUSH1 0x20 MUL DUP2 ADD SWAP1 PUSH2 0x1C50 SWAP2 SWAP1 PUSH2 0x2E96 JUMP JUMPDEST PUSH1 0x2 PUSH1 0x0 DUP4 DUP2 MSTORE PUSH1 0x20 ADD SWAP1 DUP2 MSTORE PUSH1 0x20 ADD PUSH1 0x0 KECCAK256 DUP2 DUP2 PUSH2 0x1C6F SWAP2 SWAP1 PUSH2 0x32ED JUMP JUMPDEST SWAP1 POP POP DUP1 DUP1 PUSH2 0x1C7D SWAP1 PUSH2 0x2A28 JUMP JUMPDEST SWAP2 POP POP PUSH2 0x1C20 JUMP JUMPDEST POP DUP2 DUP2 SWAP1 POP PUSH1 0x3 DUP2 SWAP1 SSTORE POP POP POP JUMP JUMPDEST PUSH1 0x0 JUMPDEST DUP3 DUP3 SWAP1 POP DUP2 LT ISZERO PUSH2 0x1D08 JUMPI PUSH1 0x6 PUSH1 0x0 DUP2 SLOAD DUP1 SWAP3 SWAP2 SWAP1 PUSH2 0x1CB5 SWAP1 PUSH2 0x2A28 JUMP JUMPDEST SWAP2 SWAP1 POP SSTORE POP DUP3 DUP3 DUP3 DUP2 DUP2 LT PUSH2 0x1CCD JUMPI PUSH2 0x1CCC PUSH2 0x23C8 JUMP JUMPDEST JUMPDEST SWAP1 POP PUSH1 0x80 MUL ADD PUSH1 0x7 PUSH1 0x0 DUP4 DUP2 MSTORE PUSH1 0x20 ADD SWAP1 DUP2 MSTORE PUSH1 0x20 ADD PUSH1 0x0 KECCAK256 SWAP1 PUSH1 0x4 PUSH2 0x1CF4 SWAP3 SWAP2 SWAP1 PUSH2 0x1D9D JUMP JUMPDEST POP DUP1 DUP1 PUSH2 0x1D00 SWAP1 PUSH2 0x2A28 JUMP JUMPDEST SWAP2 POP POP PUSH2 0x1C97 JUMP JUMPDEST POP DUP2 DUP2 SWAP1 POP PUSH1 0x6 DUP2 SWAP1 SSTORE POP POP POP JUMP JUMPDEST DUP3 DUP1 SLOAD PUSH2 0x1D23 SWAP1 PUSH2 0x2396 JUMP JUMPDEST SWAP1 PUSH1 0x0 MSTORE PUSH1 0x20 PUSH1 0x0 KECCAK256 SWAP1 PUSH1 0x1F ADD PUSH1 0x20 SWAP1 DIV DUP2 ADD SWAP3 DUP3 PUSH2 0x1D45 JUMPI PUSH1 0x0 DUP6 SSTORE PUSH2 0x1D8C JUMP JUMPDEST DUP3 PUSH1 0x1F LT PUSH2 0x1D5E JUMPI DUP1 MLOAD PUSH1 0xFF NOT AND DUP4 DUP1 ADD OR DUP6 SSTORE PUSH2 0x1D8C JUMP JUMPDEST DUP3 DUP1 ADD PUSH1 0x1 ADD DUP6 SSTORE DUP3 ISZERO PUSH2 0x1D8C JUMPI SWAP2 DUP3 ADD JUMPDEST DUP3 DUP2 GT ISZERO PUSH2 0x1D8B JUMPI DUP3 MLOAD DUP3 SSTORE SWAP2 PUSH1 0x20 ADD SWAP2 SWAP1 PUSH1 0x1 ADD SWAP1 PUSH2 0x1D70 JUMP JUMPDEST JUMPDEST POP SWAP1 POP PUSH2 0x1D99 SWAP2 SWAP1 PUSH2 0x1DDD JUMP JUMPDEST POP SWAP1 JUMP JUMPDEST DUP3 PUSH1 0x4 DUP2 ADD SWAP3 DUP3 ISZERO PUSH2 0x1DCC JUMPI SWAP2 PUSH1 0x20 MUL DUP3 ADD JUMPDEST DUP3 DUP2 GT ISZERO PUSH2 0x1DCB JUMPI DUP3 CALLDATALOAD DUP3 SSTORE SWAP2 PUSH1 0x20 ADD SWAP2 SWAP1 PUSH1 0x1 ADD SWAP1 PUSH2 0x1DB0 JUMP JUMPDEST JUMPDEST POP SWAP1 POP PUSH2 0x1DD9 SWAP2 SWAP1 PUSH2 0x1DDD JUMP JUMPDEST POP SWAP1 JUMP JUMPDEST JUMPDEST DUP1 DUP3 GT ISZERO PUSH2 0x1DF6 JUMPI PUSH1 0x0 DUP2 PUSH1 0x0 SWAP1 SSTORE POP PUSH1 0x1 ADD PUSH2 0x1DDE JUMP JUMPDEST POP SWAP1 JUMP JUMPDEST PUSH1 0x0 DUP2 MLOAD SWAP1 POP SWAP2 SWAP1 POP JUMP JUMPDEST PUSH1 0x0 DUP3 DUP3 MSTORE PUSH1 0x20 DUP3 ADD SWAP1 POP SWAP3 SWAP2 POP POP JUMP JUMPDEST PUSH1 0x0 JUMPDEST DUP4 DUP2 LT ISZERO PUSH2 0x1E34 JUMPI DUP1 DUP3 ADD MLOAD DUP2 DUP5 ADD MSTORE PUSH1 0x20 DUP2 ADD SWAP1 POP PUSH2 0x1E19 JUMP JUMPDEST DUP4 DUP2 GT ISZERO PUSH2 0x1E43 JUMPI PUSH1 0x0 DUP5 DUP5 ADD MSTORE JUMPDEST POP POP POP POP JUMP JUMPDEST PUSH1 0x0 PUSH1 0x1F NOT PUSH1 0x1F DUP4 ADD AND SWAP1 POP SWAP2 SWAP1 POP JUMP JUMPDEST PUSH1 0x0 PUSH2 0x1E65 DUP3 PUSH2 0x1DFA JUMP JUMPDEST PUSH2 0x1E6F DUP2 DUP6 PUSH2 0x1E05 JUMP JUMPDEST SWAP4 POP PUSH2 0x1E7F DUP2 DUP6 PUSH1 0x20 DUP7 ADD PUSH2 0x1E16 JUMP JUMPDEST PUSH2 0x1E88 DUP2 PUSH2 0x1E49 JUMP JUMPDEST DUP5 ADD SWAP2 POP POP SWAP3 SWAP2 POP POP JUMP JUMPDEST PUSH1 0x0 PUSH1 0x20 DUP3 ADD SWAP1 POP DUP2 DUP2 SUB PUSH1 0x0 DUP4 ADD MSTORE PUSH2 0x1EAD DUP2 DUP5 PUSH2 0x1E5A JUMP JUMPDEST SWAP1 POP SWAP3 SWAP2 POP POP JUMP JUMPDEST PUSH1 0x0 DUP2 SWAP1 POP SWAP2 SWAP1 POP JUMP JUMPDEST PUSH2 0x1EC8 DUP2 PUSH2 0x1EB5 JUMP JUMPDEST DUP3 MSTORE POP POP JUMP JUMPDEST PUSH1 0x0 PUSH1 0x20 DUP3 ADD SWAP1 POP PUSH2 0x1EE3 PUSH1 0x0 DUP4 ADD DUP5 PUSH2 0x1EBF JUMP JUMPDEST SWAP3 SWAP2 POP POP JUMP JUMPDEST PUSH1 0x0 PUSH1 0x40 MLOAD SWAP1 POP SWAP1 JUMP JUMPDEST PUSH1 0x0 DUP1 REVERT JUMPDEST PUSH1 0x0 DUP1 REVERT JUMPDEST PUSH2 0x1F06 DUP2 PUSH2 0x1EB5 JUMP JUMPDEST DUP2 EQ PUSH2 0x1F11 JUMPI PUSH1 0x0 DUP1 REVERT JUMPDEST POP JUMP JUMPDEST PUSH1 0x0 DUP2 CALLDATALOAD SWAP1 POP PUSH2 0x1F23 DUP2 PUSH2 0x1EFD JUMP JUMPDEST SWAP3 SWAP2 POP POP JUMP JUMPDEST PUSH1 0x0 PUSH1 0x20 DUP3 DUP5 SUB SLT ISZERO PUSH2 0x1F3F JUMPI PUSH2 0x1F3E PUSH2 0x1EF3 JUMP JUMPDEST JUMPDEST PUSH1 0x0 PUSH2 0x1F4D DUP5 DUP3 DUP6 ADD PUSH2 0x1F14 JUMP JUMPDEST SWAP2 POP POP SWAP3 SWAP2 POP POP JUMP JUMPDEST PUSH1 0x0 DUP2 ISZERO ISZERO SWAP1 POP SWAP2 SWAP1 POP JUMP JUMPDEST PUSH2 0x1F6B DUP2 PUSH2 0x1F56 JUMP JUMPDEST DUP3 MSTORE POP POP JUMP JUMPDEST PUSH1 0x0 PUSH1 0x20 DUP3 ADD SWAP1 POP PUSH2 0x1F86 PUSH1 0x0 DUP4 ADD DUP5 PUSH2 0x1F62 JUMP JUMPDEST SWAP3 SWAP2 POP POP JUMP JUMPDEST PUSH1 0x0 PUSH20 0xFFFFFFFFFFFFFFFFFFFFFFFFFFFFFFFFFFFFFFFF DUP3 AND SWAP1 POP SWAP2 SWAP1 POP JUMP JUMPDEST PUSH1 0x0 PUSH2 0x1FB7 DUP3 PUSH2 0x1F8C JUMP JUMPDEST SWAP1 POP SWAP2 SWAP1 POP JUMP JUMPDEST PUSH2 0x1FC7 DUP2 PUSH2 0x1FAC JUMP JUMPDEST DUP3 MSTORE POP POP JUMP JUMPDEST PUSH1 0x0 PUSH1 0x80 DUP3 ADD SWAP1 POP DUP2 DUP2 SUB PUSH1 0x0 DUP4 ADD MSTORE PUSH2 0x1FE7 DUP2 DUP8 PUSH2 0x1E5A JUMP JUMPDEST SWAP1 POP DUP2 DUP2 SUB PUSH1 0x20 DUP4 ADD MSTORE PUSH2 0x1FFB DUP2 DUP7 PUSH2 0x1E5A JUMP JUMPDEST SWAP1 POP PUSH2 0x200A PUSH1 0x40 DUP4 ADD DUP6 PUSH2 0x1FBE JUMP JUMPDEST PUSH2 0x2017 PUSH1 0x60 DUP4 ADD DUP5 PUSH2 0x1FBE JUMP JUMPDEST SWAP6 SWAP5 POP POP POP POP POP JUMP JUMPDEST PUSH1 0x0 DUP1 REVERT JUMPDEST PUSH1 0x0 DUP1 REVERT JUMPDEST PUSH1 0x0 DUP1 REVERT JUMPDEST PUSH1 0x0 DUP1 DUP4 PUSH1 0x1F DUP5 ADD SLT PUSH2 0x2045 JUMPI PUSH2 0x2044 PUSH2 0x2020 JUMP JUMPDEST JUMPDEST DUP3 CALLDATALOAD SWAP1 POP PUSH8 0xFFFFFFFFFFFFFFFF DUP2 GT ISZERO PUSH2 0x2062 JUMPI PUSH2 0x2061 PUSH2 0x2025 JUMP JUMPDEST JUMPDEST PUSH1 0x20 DUP4 ADD SWAP2 POP DUP4 PUSH1 0x20 DUP3 MUL DUP4 ADD GT ISZERO PUSH2 0x207E JUMPI PUSH2 0x207D PUSH2 0x202A JUMP JUMPDEST JUMPDEST SWAP3 POP SWAP3 SWAP1 POP JUMP JUMPDEST PUSH2 0x208E DUP2 PUSH2 0x1FAC JUMP JUMPDEST DUP2 EQ PUSH2 0x2099 JUMPI PUSH1 0x0 DUP1 REVERT JUMPDEST POP JUMP JUMPDEST PUSH1 0x0 DUP2 CALLDATALOAD SWAP1 POP PUSH2 0x20AB DUP2 PUSH2 0x2085 JUMP JUMPDEST SWAP3 SWAP2 POP POP JUMP JUMPDEST PUSH1 0x0 DUP1 DUP4 PUSH1 0x1F DUP5 ADD SLT PUSH2 0x20C7 JUMPI PUSH2 0x20C6 PUSH2 0x2020 JUMP JUMPDEST JUMPDEST DUP3 CALLDATALOAD SWAP1 POP PUSH8 0xFFFFFFFFFFFFFFFF DUP2 GT ISZERO PUSH2 0x20E4 JUMPI PUSH2 0x20E3 PUSH2 0x2025 JUMP JUMPDEST JUMPDEST PUSH1 0x20 DUP4 ADD SWAP2 POP DUP4 PUSH1 0x80 DUP3 MUL DUP4 ADD GT ISZERO PUSH2 0x2100 JUMPI PUSH2 0x20FF PUSH2 0x202A JUMP JUMPDEST JUMPDEST SWAP3 POP SWAP3 SWAP1 POP JUMP JUMPDEST PUSH1 0x0 DUP1 PUSH1 0x0 DUP1 PUSH1 0x0 DUP1 PUSH1 0x80 DUP8 DUP10 SUB SLT ISZERO PUSH2 0x2124 JUMPI PUSH2 0x2123 PUSH2 0x1EF3 JUMP JUMPDEST JUMPDEST PUSH1 0x0 DUP8 ADD CALLDATALOAD PUSH8 0xFFFFFFFFFFFFFFFF DUP2 GT ISZERO PUSH2 0x2142 JUMPI PUSH2 0x2141 PUSH2 0x1EF8 JUMP JUMPDEST JUMPDEST PUSH2 0x214E DUP10 DUP3 DUP11 ADD PUSH2 0x202F JUMP JUMPDEST SWAP7 POP SWAP7 POP POP PUSH1 0x20 PUSH2 0x2161 DUP10 DUP3 DUP11 ADD PUSH2 0x209C JUMP JUMPDEST SWAP5 POP POP PUSH1 0x40 PUSH2 0x2172 DUP10 DUP3 DUP11 ADD PUSH2 0x209C JUMP JUMPDEST SWAP4 POP POP PUSH1 0x60 DUP8 ADD CALLDATALOAD PUSH8 0xFFFFFFFFFFFFFFFF DUP2 GT ISZERO PUSH2 0x2193 JUMPI PUSH2 0x2192 PUSH2 0x1EF8 JUMP JUMPDEST JUMPDEST PUSH2 0x219F DUP10 DUP3 DUP11 ADD PUSH2 0x20B1 JUMP JUMPDEST SWAP3 POP SWAP3 POP POP SWAP3 SWAP6 POP SWAP3 SWAP6 POP SWAP3 SWAP6 JUMP JUMPDEST PUSH1 0x0 DUP1 PUSH1 0x40 DUP4 DUP6 SUB SLT ISZERO PUSH2 0x21C5 JUMPI PUSH2 0x21C4 PUSH2 0x1EF3 JUMP JUMPDEST JUMPDEST PUSH1 0x0 PUSH2 0x21D3 DUP6 DUP3 DUP7 ADD PUSH2 0x1F14 JUMP JUMPDEST SWAP3 POP POP PUSH1 0x20 PUSH2 0x21E4 DUP6 DUP3 DUP7 ADD PUSH2 0x1F14 JUMP JUMPDEST SWAP2 POP POP SWAP3 POP SWAP3 SWAP1 POP JUMP JUMPDEST PUSH1 0x0 DUP1 REVERT JUMPDEST PUSH32 0x4E487B7100000000000000000000000000000000000000000000000000000000 PUSH1 0x0 MSTORE PUSH1 0x41 PUSH1 0x4 MSTORE PUSH1 0x24 PUSH1 0x0 REVERT JUMPDEST PUSH2 0x222B DUP3 PUSH2 0x1E49 JUMP JUMPDEST DUP2 ADD DUP2 DUP2 LT PUSH8 0xFFFFFFFFFFFFFFFF DUP3 GT OR ISZERO PUSH2 0x224A JUMPI PUSH2 0x2249 PUSH2 0x21F3 JUMP JUMPDEST JUMPDEST DUP1 PUSH1 0x40 MSTORE POP POP POP JUMP JUMPDEST PUSH1 0x0 PUSH2 0x225D PUSH2 0x1EE9 JUMP JUMPDEST SWAP1 POP PUSH2 0x2269 DUP3 DUP3 PUSH2 0x2222 JUMP JUMPDEST SWAP2 SWAP1 POP JUMP JUMPDEST PUSH1 0x0 PUSH8 0xFFFFFFFFFFFFFFFF DUP3 GT ISZERO PUSH2 0x2289 JUMPI PUSH2 0x2288 PUSH2 0x21F3 JUMP JUMPDEST JUMPDEST PUSH2 0x2292 DUP3 PUSH2 0x1E49 JUMP JUMPDEST SWAP1 POP PUSH1 0x20 DUP2 ADD SWAP1 POP SWAP2 SWAP1 POP JUMP JUMPDEST DUP3 DUP2 DUP4 CALLDATACOPY PUSH1 0x0 DUP4 DUP4 ADD MSTORE POP POP POP JUMP JUMPDEST PUSH1 0x0 PUSH2 0x22C1 PUSH2 0x22BC DUP5 PUSH2 0x226E JUMP JUMPDEST PUSH2 0x2253 JUMP JUMPDEST SWAP1 POP DUP3 DUP2 MSTORE PUSH1 0x20 DUP2 ADD DUP5 DUP5 DUP5 ADD GT ISZERO PUSH2 0x22DD JUMPI PUSH2 0x22DC PUSH2 0x21EE JUMP JUMPDEST JUMPDEST PUSH2 0x22E8 DUP5 DUP3 DUP6 PUSH2 0x229F JUMP JUMPDEST POP SWAP4 SWAP3 POP POP POP JUMP JUMPDEST PUSH1 0x0 DUP3 PUSH1 0x1F DUP4 ADD SLT PUSH2 0x2305 JUMPI PUSH2 0x2304 PUSH2 0x2020 JUMP JUMPDEST JUMPDEST DUP2 CALLDATALOAD PUSH2 0x2315 DUP5 DUP3 PUSH1 0x20 DUP7 ADD PUSH2 0x22AE JUMP JUMPDEST SWAP2 POP POP SWAP3 SWAP2 POP POP JUMP JUMPDEST PUSH1 0x0 PUSH1 0x20 DUP3 DUP5 SUB SLT ISZERO PUSH2 0x2334 JUMPI PUSH2 0x2333 PUSH2 0x1EF3 JUMP JUMPDEST JUMPDEST PUSH1 0x0 DUP3 ADD CALLDATALOAD PUSH8 0xFFFFFFFFFFFFFFFF DUP2 GT ISZERO PUSH2 0x2352 JUMPI PUSH2 0x2351 PUSH2 0x1EF8 JUMP JUMPDEST JUMPDEST PUSH2 0x235E DUP5 DUP3 DUP6 ADD PUSH2 0x22F0 JUMP JUMPDEST SWAP2 POP POP SWAP3 SWAP2 POP POP JUMP JUMPDEST PUSH32 0x4E487B7100000000000000000000000000000000000000000000000000000000 PUSH1 0x0 MSTORE PUSH1 0x22 PUSH1 0x4 MSTORE PUSH1 0x24 PUSH1 0x0 REVERT JUMPDEST PUSH1 0x0 PUSH1 0x2 DUP3 DIV SWAP1 POP PUSH1 0x1 DUP3 AND DUP1 PUSH2 0x23AE JUMPI PUSH1 0x7F DUP3 AND SWAP2 POP JUMPDEST PUSH1 0x20 DUP3 LT DUP2 EQ ISZERO PUSH2 0x23C2 JUMPI PUSH2 0x23C1 PUSH2 0x2367 JUMP JUMPDEST JUMPDEST POP SWAP2 SWAP1 POP JUMP JUMPDEST PUSH32 0x4E487B7100000000000000000000000000000000000000000000000000000000 PUSH1 0x0 MSTORE PUSH1 0x32 PUSH1 0x4 MSTORE PUSH1 0x24 PUSH1 0x0 REVERT JUMPDEST PUSH32 0x4E487B7100000000000000000000000000000000000000000000000000000000 PUSH1 0x0 MSTORE PUSH1 0x11 PUSH1 0x4 MSTORE PUSH1 0x24 PUSH1 0x0 REVERT JUMPDEST PUSH1 0x0 PUSH2 0x2431 DUP3 PUSH2 0x1EB5 JUMP JUMPDEST SWAP2 POP PUSH2 0x243C DUP4 PUSH2 0x1EB5 JUMP JUMPDEST SWAP3 POP DUP3 PUSH32 0xFFFFFFFFFFFFFFFFFFFFFFFFFFFFFFFFFFFFFFFFFFFFFFFFFFFFFFFFFFFFFFFF SUB DUP3 GT ISZERO PUSH2 0x2471 JUMPI PUSH2 0x2470 PUSH2 0x23F7 JUMP JUMPDEST JUMPDEST DUP3 DUP3 ADD SWAP1 POP SWAP3 SWAP2 POP POP JUMP JUMPDEST PUSH1 0x0 DUP2 MLOAD SWAP1 POP PUSH2 0x248B DUP2 PUSH2 0x1EFD JUMP JUMPDEST SWAP3 SWAP2 POP POP JUMP JUMPDEST PUSH1 0x0 PUSH1 0x20 DUP3 DUP5 SUB SLT ISZERO PUSH2 0x24A7 JUMPI PUSH2 0x24A6 PUSH2 0x1EF3 JUMP JUMPDEST JUMPDEST PUSH1 0x0 PUSH2 0x24B5 DUP5 DUP3 DUP6 ADD PUSH2 0x247C JUMP JUMPDEST SWAP2 POP POP SWAP3 SWAP2 POP POP JUMP JUMPDEST PUSH1 0x0 DUP2 SWAP1 POP SWAP3 SWAP2 POP POP JUMP JUMPDEST PUSH1 0x0 PUSH2 0x24D4 DUP3 PUSH2 0x1DFA JUMP JUMPDEST PUSH2 0x24DE DUP2 DUP6 PUSH2 0x24BE JUMP JUMPDEST SWAP4 POP PUSH2 0x24EE DUP2 DUP6 PUSH1 0x20 DUP7 ADD PUSH2 0x1E16 JUMP JUMPDEST DUP1 DUP5 ADD SWAP2 POP POP SWAP3 SWAP2 POP POP JUMP JUMPDEST PUSH1 0x0 PUSH2 0x2506 DUP3 DUP6 PUSH2 0x24C9 JUMP JUMPDEST SWAP2 POP PUSH2 0x2512 DUP3 DUP5 PUSH2 0x24C9 JUMP JUMPDEST SWAP2 POP DUP2 SWAP1 POP SWAP4 SWAP3 POP POP POP JUMP JUMPDEST PUSH1 0x0 PUSH2 0x2529 DUP3 PUSH2 0x1EB5 JUMP JUMPDEST SWAP2 POP PUSH2 0x2534 DUP4 PUSH2 0x1EB5 JUMP JUMPDEST SWAP3 POP DUP3 DUP3 LT ISZERO PUSH2 0x2547 JUMPI PUSH2 0x2546 PUSH2 0x23F7 JUMP JUMPDEST JUMPDEST DUP3 DUP3 SUB SWAP1 POP SWAP3 SWAP2 POP POP JUMP JUMPDEST PUSH32 0x686561642D777261702E68746D6C40312E302E30000000000000000000000000 PUSH1 0x0 DUP3 ADD MSTORE POP JUMP JUMPDEST PUSH1 0x0 PUSH2 0x2588 PUSH1 0x14 DUP4 PUSH2 0x1E05 JUMP JUMPDEST SWAP2 POP PUSH2 0x2593 DUP3 PUSH2 0x2552 JUMP JUMPDEST PUSH1 0x20 DUP3 ADD SWAP1 POP SWAP2 SWAP1 POP JUMP JUMPDEST PUSH1 0x0 DUP2 SWAP1 POP SWAP2 SWAP1 POP JUMP JUMPDEST PUSH1 0x0 DUP2 SWAP1 POP SWAP2 SWAP1 POP JUMP JUMPDEST PUSH1 0x0 PUSH2 0x25CD PUSH2 0x25C8 PUSH2 0x25C3 DUP5 PUSH2 0x259E JUMP JUMPDEST PUSH2 0x25A8 JUMP JUMPDEST PUSH2 0x1EB5 JUMP JUMPDEST SWAP1 POP SWAP2 SWAP1 POP JUMP JUMPDEST PUSH2 0x25DD DUP2 PUSH2 0x25B2 JUMP JUMPDEST DUP3 MSTORE POP POP JUMP JUMPDEST PUSH1 0x0 PUSH1 0x60 DUP3 ADD SWAP1 POP DUP2 DUP2 SUB PUSH1 0x0 DUP4 ADD MSTORE PUSH2 0x25FC DUP2 PUSH2 0x257B JUMP JUMPDEST SWAP1 POP PUSH2 0x260B PUSH1 0x20 DUP4 ADD DUP6 PUSH2 0x25D4 JUMP JUMPDEST PUSH2 0x2618 PUSH1 0x40 DUP4 ADD DUP5 PUSH2 0x25D4 JUMP JUMPDEST SWAP4 SWAP3 POP POP POP JUMP JUMPDEST PUSH1 0x0 PUSH8 0xFFFFFFFFFFFFFFFF DUP3 GT ISZERO PUSH2 0x263A JUMPI PUSH2 0x2639 PUSH2 0x21F3 JUMP JUMPDEST JUMPDEST PUSH2 0x2643 DUP3 PUSH2 0x1E49 JUMP JUMPDEST SWAP1 POP PUSH1 0x20 DUP2 ADD SWAP1 POP SWAP2 SWAP1 POP JUMP JUMPDEST PUSH1 0x0 PUSH2 0x2663 PUSH2 0x265E DUP5 PUSH2 0x261F JUMP JUMPDEST PUSH2 0x2253 JUMP JUMPDEST SWAP1 POP DUP3 DUP2 MSTORE PUSH1 0x20 DUP2 ADD DUP5 DUP5 DUP5 ADD GT ISZERO PUSH2 0x267F JUMPI PUSH2 0x267E PUSH2 0x21EE JUMP JUMPDEST JUMPDEST PUSH2 0x268A DUP5 DUP3 DUP6 PUSH2 0x1E16 JUMP JUMPDEST POP SWAP4 SWAP3 POP POP POP JUMP JUMPDEST PUSH1 0x0 DUP3 PUSH1 0x1F DUP4 ADD SLT PUSH2 0x26A7 JUMPI PUSH2 0x26A6 PUSH2 0x2020 JUMP JUMPDEST JUMPDEST DUP2 MLOAD PUSH2 0x26B7 DUP5 DUP3 PUSH1 0x20 DUP7 ADD PUSH2 0x2650 JUMP JUMPDEST SWAP2 POP POP SWAP3 SWAP2 POP POP JUMP JUMPDEST PUSH1 0x0 PUSH1 0x20 DUP3 DUP5 SUB SLT ISZERO PUSH2 0x26D6 JUMPI PUSH2 0x26D5 PUSH2 0x1EF3 JUMP JUMPDEST JUMPDEST PUSH1 0x0 DUP3 ADD MLOAD PUSH8 0xFFFFFFFFFFFFFFFF DUP2 GT ISZERO PUSH2 0x26F4 JUMPI PUSH2 0x26F3 PUSH2 0x1EF8 JUMP JUMPDEST JUMPDEST PUSH2 0x2700 DUP5 DUP3 DUP6 ADD PUSH2 0x2692 JUMP JUMPDEST SWAP2 POP POP SWAP3 SWAP2 POP POP JUMP JUMPDEST PUSH32 0x626F64792D777261702E68746D6C40312E302E30000000000000000000000000 PUSH1 0x0 DUP3 ADD MSTORE POP JUMP JUMPDEST PUSH1 0x0 PUSH2 0x273F PUSH1 0x14 DUP4 PUSH2 0x1E05 JUMP JUMPDEST SWAP2 POP PUSH2 0x274A DUP3 PUSH2 0x2709 JUMP JUMPDEST PUSH1 0x20 DUP3 ADD SWAP1 POP SWAP2 SWAP1 POP JUMP JUMPDEST PUSH1 0x0 DUP2 SWAP1 POP SWAP2 SWAP1 POP JUMP JUMPDEST PUSH1 0x0 PUSH2 0x277A PUSH2 0x2775 PUSH2 0x2770 DUP5 PUSH2 0x2755 JUMP JUMPDEST PUSH2 0x25A8 JUMP JUMPDEST PUSH2 0x1EB5 JUMP JUMPDEST SWAP1 POP SWAP2 SWAP1 POP JUMP JUMPDEST PUSH2 0x278A DUP2 PUSH2 0x275F JUMP JUMPDEST DUP3 MSTORE POP POP JUMP JUMPDEST PUSH1 0x0 PUSH1 0x60 DUP3 ADD SWAP1 POP DUP2 DUP2 SUB PUSH1 0x0 DUP4 ADD MSTORE PUSH2 0x27A9 DUP2 PUSH2 0x2732 JUMP JUMPDEST SWAP1 POP PUSH2 0x27B8 PUSH1 0x20 DUP4 ADD DUP6 PUSH2 0x2781 JUMP JUMPDEST PUSH2 0x27C5 PUSH1 0x40 DUP4 ADD DUP5 PUSH2 0x2781 JUMP JUMPDEST SWAP4 SWAP3 POP POP POP JUMP JUMPDEST PUSH1 0x0 DUP2 MLOAD SWAP1 POP SWAP2 SWAP1 POP JUMP JUMPDEST PUSH1 0x0 DUP2 SWAP1 POP SWAP3 SWAP2 POP POP JUMP JUMPDEST PUSH1 0x0 PUSH2 0x27ED DUP3 PUSH2 0x27CC JUMP JUMPDEST PUSH2 0x27F7 DUP2 DUP6 PUSH2 0x27D7 JUMP JUMPDEST SWAP4 POP PUSH2 0x2807 DUP2 DUP6 PUSH1 0x20 DUP7 ADD PUSH2 0x1E16 JUMP JUMPDEST DUP1 DUP5 ADD SWAP2 POP POP SWAP3 SWAP2 POP POP JUMP JUMPDEST PUSH1 0x0 PUSH2 0x281F DUP3 DUP6 PUSH2 0x27E2 JUMP JUMPDEST SWAP2 POP PUSH2 0x282B DUP3 DUP5 PUSH2 0x27E2 JUMP JUMPDEST SWAP2 POP DUP2 SWAP1 POP SWAP4 SWAP3 POP POP POP JUMP JUMPDEST PUSH32 0x696D706F72742D6B6579732D777261702E6A7340312E302E3000000000000000 PUSH1 0x0 DUP3 ADD MSTORE POP JUMP JUMPDEST PUSH1 0x0 PUSH2 0x286D PUSH1 0x19 DUP4 PUSH2 0x1E05 JUMP JUMPDEST SWAP2 POP PUSH2 0x2878 DUP3 PUSH2 0x2837 JUMP JUMPDEST PUSH1 0x20 DUP3 ADD SWAP1 POP SWAP2 SWAP1 POP JUMP JUMPDEST PUSH1 0x0 PUSH1 0x60 DUP3 ADD SWAP1 POP DUP2 DUP2 SUB PUSH1 0x0 DUP4 ADD MSTORE PUSH2 0x289C DUP2 PUSH2 0x2860 JUMP JUMPDEST SWAP1 POP PUSH2 0x28AB PUSH1 0x20 DUP4 ADD DUP6 PUSH2 0x2781 JUMP JUMPDEST PUSH2 0x28B8 PUSH1 0x40 DUP4 ADD DUP5 PUSH2 0x2781 JUMP JUMPDEST SWAP4 SWAP3 POP POP POP JUMP JUMPDEST PUSH1 0x0 PUSH2 0x28CB DUP3 DUP5 PUSH2 0x27E2 JUMP JUMPDEST SWAP2 POP DUP2 SWAP1 POP SWAP3 SWAP2 POP POP JUMP JUMPDEST PUSH32 0x2200000000000000000000000000000000000000000000000000000000000000 DUP2 MSTORE POP JUMP JUMPDEST PUSH1 0x0 PUSH2 0x2908 DUP3 DUP5 PUSH2 0x24C9 JUMP JUMPDEST SWAP2 POP PUSH2 0x2913 DUP3 PUSH2 0x28D6 JUMP JUMPDEST PUSH1 0x1 DUP3 ADD SWAP2 POP DUP2 SWAP1 POP SWAP3 SWAP2 POP POP JUMP JUMPDEST PUSH1 0x0 DUP2 SWAP1 POP DUP2 PUSH1 0x0 MSTORE PUSH1 0x20 PUSH1 0x0 KECCAK256 SWAP1 POP SWAP2 SWAP1 POP JUMP JUMPDEST PUSH1 0x0 DUP2 SLOAD PUSH2 0x2944 DUP2 PUSH2 0x2396 JUMP JUMPDEST PUSH2 0x294E DUP2 DUP7 PUSH2 0x24BE JUMP JUMPDEST SWAP5 POP PUSH1 0x1 DUP3 AND PUSH1 0x0 DUP2 EQ PUSH2 0x2969 JUMPI PUSH1 0x1 DUP2 EQ PUSH2 0x297A JUMPI PUSH2 0x29AD JUMP JUMPDEST PUSH1 0xFF NOT DUP4 AND DUP7 MSTORE DUP2 DUP7 ADD SWAP4 POP PUSH2 0x29AD JUMP JUMPDEST PUSH2 0x2983 DUP6 PUSH2 0x2922 JUMP JUMPDEST PUSH1 0x0 JUMPDEST DUP4 DUP2 LT ISZERO PUSH2 0x29A5 JUMPI DUP2 SLOAD DUP2 DUP10 ADD MSTORE PUSH1 0x1 DUP3 ADD SWAP2 POP PUSH1 0x20 DUP2 ADD SWAP1 POP PUSH2 0x2986 JUMP JUMPDEST DUP4 DUP9 ADD SWAP6 POP POP POP JUMPDEST POP POP POP SWAP3 SWAP2 POP POP JUMP JUMPDEST PUSH1 0x0 PUSH2 0x29C2 DUP3 DUP5 PUSH2 0x2937 JUMP JUMPDEST SWAP2 POP PUSH2 0x29CD DUP3 PUSH2 0x28D6 JUMP JUMPDEST PUSH1 0x1 DUP3 ADD SWAP2 POP DUP2 SWAP1 POP SWAP3 SWAP2 POP POP JUMP JUMPDEST PUSH32 0x2C00000000000000000000000000000000000000000000000000000000000000 DUP2 MSTORE POP JUMP JUMPDEST PUSH1 0x0 PUSH2 0x2A0E DUP3 DUP5 PUSH2 0x24C9 JUMP JUMPDEST SWAP2 POP PUSH2 0x2A19 DUP3 PUSH2 0x29DC JUMP JUMPDEST PUSH1 0x1 DUP3 ADD SWAP2 POP DUP2 SWAP1 POP SWAP3 SWAP2 POP POP JUMP JUMPDEST PUSH1 0x0 PUSH2 0x2A33 DUP3 PUSH2 0x1EB5 JUMP JUMPDEST SWAP2 POP PUSH32 0xFFFFFFFFFFFFFFFFFFFFFFFFFFFFFFFFFFFFFFFFFFFFFFFFFFFFFFFFFFFFFFFF DUP3 EQ ISZERO PUSH2 0x2A66 JUMPI PUSH2 0x2A65 PUSH2 0x23F7 JUMP JUMPDEST JUMPDEST PUSH1 0x1 DUP3 ADD SWAP1 POP SWAP2 SWAP1 POP JUMP JUMPDEST PUSH1 0x0 PUSH1 0x60 DUP3 ADD SWAP1 POP DUP2 DUP2 SUB PUSH1 0x0 DUP4 ADD MSTORE PUSH2 0x2A8A DUP2 PUSH2 0x2860 JUMP JUMPDEST SWAP1 POP PUSH2 0x2A99 PUSH1 0x20 DUP4 ADD DUP6 PUSH2 0x25D4 JUMP JUMPDEST PUSH2 0x2AA6 PUSH1 0x40 DUP4 ADD DUP5 PUSH2 0x25D4 JUMP JUMPDEST SWAP4 SWAP3 POP POP POP JUMP JUMPDEST PUSH32 0x696D706F72746D61702D696E69742D777261702E6A7340322E302E3000000000 PUSH1 0x0 DUP3 ADD MSTORE POP JUMP JUMPDEST PUSH1 0x0 PUSH2 0x2AE3 PUSH1 0x1C DUP4 PUSH2 0x1E05 JUMP JUMPDEST SWAP2 POP PUSH2 0x2AEE DUP3 PUSH2 0x2AAD JUMP JUMPDEST PUSH1 0x20 DUP3 ADD SWAP1 POP SWAP2 SWAP1 POP JUMP JUMPDEST PUSH1 0x0 PUSH1 0x60 DUP3 ADD SWAP1 POP DUP2 DUP2 SUB PUSH1 0x0 DUP4 ADD MSTORE PUSH2 0x2B12 DUP2 PUSH2 0x2AD6 JUMP JUMPDEST SWAP1 POP PUSH2 0x2B21 PUSH1 0x20 DUP4 ADD DUP6 PUSH2 0x2781 JUMP JUMPDEST PUSH2 0x2B2E PUSH1 0x40 DUP4 ADD DUP5 PUSH2 0x2781 JUMP JUMPDEST SWAP4 SWAP3 POP POP POP JUMP JUMPDEST PUSH1 0x0 PUSH1 0x60 DUP3 ADD SWAP1 POP DUP2 DUP2 SUB PUSH1 0x0 DUP4 ADD MSTORE PUSH2 0x2B4E DUP2 PUSH2 0x2AD6 JUMP JUMPDEST SWAP1 POP PUSH2 0x2B5D PUSH1 0x20 DUP4 ADD DUP6 PUSH2 0x25D4 JUMP JUMPDEST PUSH2 0x2B6A PUSH1 0x40 DUP4 ADD DUP5 PUSH2 0x25D4 JUMP JUMPDEST SWAP4 SWAP3 POP POP POP JUMP JUMPDEST PUSH1 0x0 PUSH2 0x2B7D DUP3 DUP7 PUSH2 0x27E2 JUMP JUMPDEST SWAP2 POP PUSH2 0x2B89 DUP3 DUP6 PUSH2 0x27E2 JUMP JUMPDEST SWAP2 POP PUSH2 0x2B95 DUP3 DUP5 PUSH2 0x27E2 JUMP JUMPDEST SWAP2 POP DUP2 SWAP1 POP SWAP5 SWAP4 POP POP POP POP JUMP JUMPDEST PUSH32 0x68746D6C2D777261702E68746D6C40312E302E30000000000000000000000000 PUSH1 0x0 DUP3 ADD MSTORE POP JUMP JUMPDEST PUSH1 0x0 PUSH2 0x2BD8 PUSH1 0x14 DUP4 PUSH2 0x1E05 JUMP JUMPDEST SWAP2 POP PUSH2 0x2BE3 DUP3 PUSH2 0x2BA2 JUMP JUMPDEST PUSH1 0x20 DUP3 ADD SWAP1 POP SWAP2 SWAP1 POP JUMP JUMPDEST PUSH1 0x0 PUSH1 0x60 DUP3 ADD SWAP1 POP DUP2 DUP2 SUB PUSH1 0x0 DUP4 ADD MSTORE PUSH2 0x2C07 DUP2 PUSH2 0x2BCB JUMP JUMPDEST SWAP1 POP PUSH2 0x2C16 PUSH1 0x20 DUP4 ADD DUP6 PUSH2 0x2781 JUMP JUMPDEST PUSH2 0x2C23 PUSH1 0x40 DUP4 ADD DUP5 PUSH2 0x2781 JUMP JUMPDEST SWAP4 SWAP3 POP POP POP JUMP JUMPDEST PUSH1 0x0 PUSH1 0x60 DUP3 ADD SWAP1 POP DUP2 DUP2 SUB PUSH1 0x0 DUP4 ADD MSTORE PUSH2 0x2C43 DUP2 PUSH2 0x257B JUMP JUMPDEST SWAP1 POP PUSH2 0x2C52 PUSH1 0x20 DUP4 ADD DUP6 PUSH2 0x2781 JUMP JUMPDEST PUSH2 0x2C5F PUSH1 0x40 DUP4 ADD DUP5 PUSH2 0x2781 JUMP JUMPDEST SWAP4 SWAP3 POP POP POP JUMP JUMPDEST PUSH1 0x0 PUSH1 0x60 DUP3 ADD SWAP1 POP DUP2 DUP2 SUB PUSH1 0x0 DUP4 ADD MSTORE PUSH2 0x2C7F DUP2 PUSH2 0x2732 JUMP JUMPDEST SWAP1 POP PUSH2 0x2C8E PUSH1 0x20 DUP4 ADD DUP6 PUSH2 0x25D4 JUMP JUMPDEST PUSH2 0x2C9B PUSH1 0x40 DUP4 ADD DUP5 PUSH2 0x25D4 JUMP JUMPDEST SWAP4 SWAP3 POP POP POP JUMP JUMPDEST PUSH1 0x0 PUSH1 0x60 DUP3 ADD SWAP1 POP DUP2 DUP2 SUB PUSH1 0x0 DUP4 ADD MSTORE PUSH2 0x2CBB DUP2 PUSH2 0x2BCB JUMP JUMPDEST SWAP1 POP PUSH2 0x2CCA PUSH1 0x20 DUP4 ADD DUP6 PUSH2 0x25D4 JUMP JUMPDEST PUSH2 0x2CD7 PUSH1 0x40 DUP4 ADD DUP5 PUSH2 0x25D4 JUMP JUMPDEST SWAP4 SWAP3 POP POP POP JUMP JUMPDEST PUSH32 0x4672616D653A2043616E27742072652D696E697420636F6E7472616374000000 PUSH1 0x0 DUP3 ADD MSTORE POP JUMP JUMPDEST PUSH1 0x0 PUSH2 0x2D14 PUSH1 0x1D DUP4 PUSH2 0x1E05 JUMP JUMPDEST SWAP2 POP PUSH2 0x2D1F DUP3 PUSH2 0x2CDE JUMP JUMPDEST PUSH1 0x20 DUP3 ADD SWAP1 POP SWAP2 SWAP1 POP JUMP JUMPDEST PUSH1 0x0 PUSH1 0x20 DUP3 ADD SWAP1 POP DUP2 DUP2 SUB PUSH1 0x0 DUP4 ADD MSTORE PUSH2 0x2D43 DUP2 PUSH2 0x2D07 JUMP JUMPDEST SWAP1 POP SWAP2 SWAP1 POP JUMP JUMPDEST PUSH32 0x4672616D653A204E616D6520616C726561647920736574000000000000000000 PUSH1 0x0 DUP3 ADD MSTORE POP JUMP JUMPDEST PUSH1 0x0 PUSH2 0x2D80 PUSH1 0x17 DUP4 PUSH2 0x1E05 JUMP JUMPDEST SWAP2 POP PUSH2 0x2D8B DUP3 PUSH2 0x2D4A JUMP JUMPDEST PUSH1 0x20 DUP3 ADD SWAP1 POP SWAP2 SWAP1 POP JUMP JUMPDEST PUSH1 0x0 PUSH1 0x20 DUP3 ADD SWAP1 POP DUP2 DUP2 SUB PUSH1 0x0 DUP4 ADD MSTORE PUSH2 0x2DAF DUP2 PUSH2 0x2D73 JUMP JUMPDEST SWAP1 POP SWAP2 SWAP1 POP JUMP JUMPDEST PUSH1 0x0 PUSH1 0x60 DUP3 ADD SWAP1 POP DUP2 DUP2 SUB PUSH1 0x0 DUP4 ADD MSTORE PUSH2 0x2DD0 DUP2 DUP7 PUSH2 0x1E5A JUMP JUMPDEST SWAP1 POP PUSH2 0x2DDF PUSH1 0x20 DUP4 ADD DUP6 PUSH2 0x2781 JUMP JUMPDEST PUSH2 0x2DEC PUSH1 0x40 DUP4 ADD DUP5 PUSH2 0x2781 JUMP JUMPDEST SWAP5 SWAP4 POP POP POP POP JUMP JUMPDEST PUSH1 0x0 PUSH1 0x60 DUP3 ADD SWAP1 POP DUP2 DUP2 SUB PUSH1 0x0 DUP4 ADD MSTORE PUSH2 0x2E0E DUP2 DUP7 PUSH2 0x1E5A JUMP JUMPDEST SWAP1 POP PUSH2 0x2E1D PUSH1 0x20 DUP4 ADD DUP6 PUSH2 0x1EBF JUMP JUMPDEST PUSH2 0x2E2A PUSH1 0x40 DUP4 ADD DUP5 PUSH2 0x1EBF JUMP JUMPDEST SWAP5 SWAP4 POP POP POP POP JUMP JUMPDEST PUSH1 0x0 PUSH1 0x60 DUP3 ADD SWAP1 POP DUP2 DUP2 SUB PUSH1 0x0 DUP4 ADD MSTORE PUSH2 0x2E4C DUP2 DUP7 PUSH2 0x1E5A JUMP JUMPDEST SWAP1 POP PUSH2 0x2E5B PUSH1 0x20 DUP4 ADD DUP6 PUSH2 0x25D4 JUMP JUMPDEST PUSH2 0x2E68 PUSH1 0x40 DUP4 ADD DUP5 PUSH2 0x25D4 JUMP JUMPDEST SWAP5 SWAP4 POP POP POP POP JUMP JUMPDEST PUSH1 0x0 PUSH2 0x2E7C DUP3 DUP5 PUSH2 0x24C9 JUMP JUMPDEST SWAP2 POP DUP2 SWAP1 POP SWAP3 SWAP2 POP POP JUMP JUMPDEST PUSH1 0x0 DUP1 REVERT JUMPDEST PUSH1 0x0 DUP1 REVERT JUMPDEST PUSH1 0x0 DUP1 REVERT JUMPDEST PUSH1 0x0 DUP3 CALLDATALOAD PUSH1 0x1 PUSH1 0x80 SUB DUP4 CALLDATASIZE SUB SUB DUP2 SLT PUSH2 0x2EB2 JUMPI PUSH2 0x2EB1 PUSH2 0x2E87 JUMP JUMPDEST JUMPDEST DUP1 DUP4 ADD SWAP2 POP POP SWAP3 SWAP2 POP POP JUMP JUMPDEST PUSH1 0x0 DUP1 DUP4 CALLDATALOAD PUSH1 0x1 PUSH1 0x20 SUB DUP5 CALLDATASIZE SUB SUB DUP2 SLT PUSH2 0x2EDB JUMPI PUSH2 0x2EDA PUSH2 0x2E87 JUMP JUMPDEST JUMPDEST DUP1 DUP5 ADD SWAP3 POP DUP3 CALLDATALOAD SWAP2 POP PUSH8 0xFFFFFFFFFFFFFFFF DUP3 GT ISZERO PUSH2 0x2EFD JUMPI PUSH2 0x2EFC PUSH2 0x2E8C JUMP JUMPDEST JUMPDEST PUSH1 0x20 DUP4 ADD SWAP3 POP PUSH1 0x1 DUP3 MUL CALLDATASIZE SUB DUP4 SGT ISZERO PUSH2 0x2F19 JUMPI PUSH2 0x2F18 PUSH2 0x2E91 JUMP JUMPDEST JUMPDEST POP SWAP3 POP SWAP3 SWAP1 POP JUMP JUMPDEST PUSH1 0x0 DUP3 SWAP1 POP SWAP3 SWAP2 POP POP JUMP JUMPDEST PUSH1 0x0 PUSH1 0x20 PUSH1 0x1F DUP4 ADD DIV SWAP1 POP SWAP2 SWAP1 POP JUMP JUMPDEST PUSH1 0x0 DUP3 DUP3 SHL SWAP1 POP SWAP3 SWAP2 POP POP JUMP JUMPDEST PUSH1 0x0 PUSH1 0x8 DUP4 MUL PUSH2 0x2F79 PUSH32 0xFFFFFFFFFFFFFFFFFFFFFFFFFFFFFFFFFFFFFFFFFFFFFFFFFFFFFFFFFFFFFFFF DUP3 PUSH2 0x2F3C JUMP JUMPDEST PUSH2 0x2F83 DUP7 DUP4 PUSH2 0x2F3C JUMP JUMPDEST SWAP6 POP DUP1 NOT DUP5 AND SWAP4 POP DUP1 DUP7 AND DUP5 OR SWAP3 POP POP POP SWAP4 SWAP3 POP POP POP JUMP JUMPDEST PUSH1 0x0 PUSH2 0x2FB6 PUSH2 0x2FB1 PUSH2 0x2FAC DUP5 PUSH2 0x1EB5 JUMP JUMPDEST PUSH2 0x25A8 JUMP JUMPDEST PUSH2 0x1EB5 JUMP JUMPDEST SWAP1 POP SWAP2 SWAP1 POP JUMP JUMPDEST PUSH1 0x0 DUP2 SWAP1 POP SWAP2 SWAP1 POP JUMP JUMPDEST PUSH2 0x2FD0 DUP4 PUSH2 0x2F9B JUMP JUMPDEST PUSH2 0x2FE4 PUSH2 0x2FDC DUP3 PUSH2 0x2FBD JUMP JUMPDEST DUP5 DUP5 SLOAD PUSH2 0x2F49 JUMP JUMPDEST DUP3 SSTORE POP POP POP POP JUMP JUMPDEST PUSH1 0x0 SWAP1 JUMP JUMPDEST PUSH2 0x2FF9 PUSH2 0x2FEC JUMP JUMPDEST PUSH2 0x3004 DUP2 DUP5 DUP5 PUSH2 0x2FC7 JUMP JUMPDEST POP POP POP JUMP JUMPDEST JUMPDEST DUP2 DUP2 LT ISZERO PUSH2 0x3028 JUMPI PUSH2 0x301D PUSH1 0x0 DUP3 PUSH2 0x2FF1 JUMP JUMPDEST PUSH1 0x1 DUP2 ADD SWAP1 POP PUSH2 0x300A JUMP JUMPDEST POP POP JUMP JUMPDEST PUSH1 0x1F DUP3 GT ISZERO PUSH2 0x306D JUMPI PUSH2 0x303E DUP2 PUSH2 0x2922 JUMP JUMPDEST PUSH2 0x3047 DUP5 PUSH2 0x2F2C JUMP JUMPDEST DUP2 ADD PUSH1 0x20 DUP6 LT ISZERO PUSH2 0x3056 JUMPI DUP2 SWAP1 POP JUMPDEST PUSH2 0x306A PUSH2 0x3062 DUP6 PUSH2 0x2F2C JUMP JUMPDEST DUP4 ADD DUP3 PUSH2 0x3009 JUMP JUMPDEST POP POP JUMPDEST POP POP POP JUMP JUMPDEST PUSH1 0x0 DUP3 DUP3 SHR SWAP1 POP SWAP3 SWAP2 POP POP JUMP JUMPDEST PUSH1 0x0 PUSH2 0x3090 PUSH1 0x0 NOT DUP5 PUSH1 0x8 MUL PUSH2 0x3072 JUMP JUMPDEST NOT DUP1 DUP4 AND SWAP2 POP POP SWAP3 SWAP2 POP POP JUMP JUMPDEST PUSH1 0x0 PUSH2 0x30A9 DUP4 DUP4 PUSH2 0x307F JUMP JUMPDEST SWAP2 POP DUP3 PUSH1 0x2 MUL DUP3 OR SWAP1 POP SWAP3 SWAP2 POP POP JUMP JUMPDEST PUSH2 0x30C3 DUP4 DUP4 PUSH2 0x2F21 JUMP JUMPDEST PUSH8 0xFFFFFFFFFFFFFFFF DUP2 GT ISZERO PUSH2 0x30DC JUMPI PUSH2 0x30DB PUSH2 0x21F3 JUMP JUMPDEST JUMPDEST PUSH2 0x30E6 DUP3 SLOAD PUSH2 0x2396 JUMP JUMPDEST PUSH2 0x30F1 DUP3 DUP3 DUP6 PUSH2 0x302C JUMP JUMPDEST PUSH1 0x0 PUSH1 0x1F DUP4 GT PUSH1 0x1 DUP2 EQ PUSH2 0x3120 JUMPI PUSH1 0x0 DUP5 ISZERO PUSH2 0x310E JUMPI DUP3 DUP8 ADD CALLDATALOAD SWAP1 POP JUMPDEST PUSH2 0x3118 DUP6 DUP3 PUSH2 0x309D JUMP JUMPDEST DUP7 SSTORE POP PUSH2 0x3180 JUMP JUMPDEST PUSH1 0x1F NOT DUP5 AND PUSH2 0x312E DUP7 PUSH2 0x2922 JUMP JUMPDEST PUSH1 0x0 JUMPDEST DUP3 DUP2 LT ISZERO PUSH2 0x3156 JUMPI DUP5 DUP10 ADD CALLDATALOAD DUP3 SSTORE PUSH1 0x1 DUP3 ADD SWAP2 POP PUSH1 0x20 DUP6 ADD SWAP5 POP PUSH1 0x20 DUP2 ADD SWAP1 POP PUSH2 0x3131 JUMP JUMPDEST DUP7 DUP4 LT ISZERO PUSH2 0x3173 JUMPI DUP5 DUP10 ADD CALLDATALOAD PUSH2 0x316F PUSH1 0x1F DUP10 AND DUP3 PUSH2 0x307F JUMP JUMPDEST DUP4 SSTORE POP JUMPDEST PUSH1 0x1 PUSH1 0x2 DUP9 MUL ADD DUP9 SSTORE POP POP POP JUMPDEST POP POP POP POP POP POP POP JUMP JUMPDEST PUSH2 0x3194 DUP4 DUP4 DUP4 PUSH2 0x30B9 JUMP JUMPDEST POP POP POP JUMP JUMPDEST PUSH1 0x0 DUP2 CALLDATALOAD PUSH2 0x31A6 DUP2 PUSH2 0x2085 JUMP JUMPDEST DUP1 SWAP2 POP POP SWAP2 SWAP1 POP JUMP JUMPDEST PUSH1 0x0 DUP2 PUSH1 0x0 SHL SWAP1 POP SWAP2 SWAP1 POP JUMP JUMPDEST PUSH1 0x0 PUSH20 0xFFFFFFFFFFFFFFFFFFFFFFFFFFFFFFFFFFFFFFFF PUSH2 0x31DC DUP5 PUSH2 0x31AF JUMP JUMPDEST SWAP4 POP DUP1 NOT DUP4 AND SWAP3 POP DUP1 DUP5 AND DUP4 OR SWAP2 POP POP SWAP3 SWAP2 POP POP JUMP JUMPDEST PUSH1 0x0 PUSH2 0x320D PUSH2 0x3208 PUSH2 0x3203 DUP5 PUSH2 0x1F8C JUMP JUMPDEST PUSH2 0x25A8 JUMP JUMPDEST PUSH2 0x1F8C JUMP JUMPDEST SWAP1 POP SWAP2 SWAP1 POP JUMP JUMPDEST PUSH1 0x0 PUSH2 0x321F DUP3 PUSH2 0x31F2 JUMP JUMPDEST SWAP1 POP SWAP2 SWAP1 POP JUMP JUMPDEST PUSH1 0x0 PUSH2 0x3231 DUP3 PUSH2 0x3214 JUMP JUMPDEST SWAP1 POP SWAP2 SWAP1 POP JUMP JUMPDEST PUSH1 0x0 DUP2 SWAP1 POP SWAP2 SWAP1 POP JUMP JUMPDEST PUSH2 0x324B DUP3 PUSH2 0x3226 JUMP JUMPDEST PUSH2 0x325E PUSH2 0x3257 DUP3 PUSH2 0x3238 JUMP JUMPDEST DUP4 SLOAD PUSH2 0x31BC JUMP JUMPDEST DUP3 SSTORE POP POP POP JUMP JUMPDEST PUSH1 0x0 DUP2 ADD PUSH1 0x0 DUP4 ADD PUSH2 0x3277 DUP2 DUP6 PUSH2 0x2EBE JUMP JUMPDEST PUSH2 0x3282 DUP2 DUP4 DUP7 PUSH2 0x3189 JUMP JUMPDEST POP POP POP POP PUSH1 0x1 DUP2 ADD PUSH1 0x20 DUP4 ADD PUSH2 0x3298 DUP2 DUP6 PUSH2 0x2EBE JUMP JUMPDEST PUSH2 0x32A3 DUP2 DUP4 DUP7 PUSH2 0x3189 JUMP JUMPDEST POP POP POP POP PUSH1 0x2 DUP2 ADD PUSH1 0x40 DUP4 ADD DUP1 PUSH2 0x32B9 DUP2 PUSH2 0x3199 JUMP JUMPDEST SWAP1 POP PUSH2 0x32C5 DUP2 DUP5 PUSH2 0x3242 JUMP JUMPDEST POP POP POP PUSH1 0x3 DUP2 ADD PUSH1 0x60 DUP4 ADD DUP1 PUSH2 0x32DA DUP2 PUSH2 0x3199 JUMP JUMPDEST SWAP1 POP PUSH2 0x32E6 DUP2 DUP5 PUSH2 0x3242 JUMP JUMPDEST POP POP POP POP POP JUMP JUMPDEST PUSH2 0x32F7 DUP3 DUP3 PUSH2 0x3265 JUMP JUMPDEST POP POP JUMP INVALID LOG2 PUSH5 0x6970667358 0x22 SLT KECCAK256 SMOD PUSH11 0xAA9AF0A3E12E43C349331C MUL STOP 0x2D SUB 0xD8 0xC9 0xD2 0xE5 0xAA DUP7 PC 0xE2 0x23 PUSH30 0x4CAEB9F09E64736F6C634300080C00330000000000000000000000000000 "
        },
        "methodIdentifiers": {
          "depsCount()": "1b68226f",
          "depsList(uint256)": "b5d40c05",
          "init((string,string,address,address)[],address,address,uint256[4][])": "bbb69b96",
          "initSuccess()": "827fbc2b",
          "name()": "06fdde03",
          "renderMap(uint256,uint256)": "c0f2cc89",
          "renderPage(uint256)": "7556d1b9",
          "renderPagesCount()": "6bd40805",
          "setName(string)": "c47f0027"
        }
      }
    }
  }
}