{
  "src/contracts/FrameFactoryDynamic.sol": {
    "FrameDynamicFactory": {
      "abi": [
        {
          "inputs": [],
          "stateMutability": "nonpayable",
          "type": "constructor"
        },
        {
          "anonymous": false,
          "inputs": [
            {
              "indexed": false,
              "internalType": "address",
              "name": "newAddress",
              "type": "address"
            }
          ],
          "name": "FrameCreated",
          "type": "event"
        },
        {
          "inputs": [
            {
              "internalType": "contract IFrameDataStoreFactory",
              "name": "_frameDataStoreFactory",
              "type": "address"
            },
            {
              "components": [
                {
                  "internalType": "string",
                  "name": "wrapperKey",
                  "type": "string"
                },
                {
                  "internalType": "string",
                  "name": "key",
                  "type": "string"
                },
                {
                  "internalType": "address",
                  "name": "wrapperStore",
                  "type": "address"
                },
                {
                  "internalType": "address",
                  "name": "store",
                  "type": "address"
                }
              ],
              "internalType": "struct IFrame.Asset[]",
              "name": "_deps",
              "type": "tuple[]"
            },
            {
              "internalType": "bytes[]",
              "name": "_newData",
              "type": "bytes[]"
            },
            {
              "internalType": "address",
              "name": "_pageWrapStore",
              "type": "address"
            },
            {
              "internalType": "uint256[4][]",
              "name": "_renderMap",
              "type": "uint256[4][]"
            },
            {
              "internalType": "string",
              "name": "_name",
              "type": "string"
            }
          ],
          "name": "createFrameWithSource",
          "outputs": [
            {
              "internalType": "address",
              "name": "",
              "type": "address"
            }
          ],
          "stateMutability": "nonpayable",
          "type": "function"
        },
        {
          "inputs": [],
          "name": "libraryAddress",
          "outputs": [
            {
              "internalType": "address",
              "name": "",
              "type": "address"
            }
          ],
          "stateMutability": "view",
          "type": "function"
        },
        {
          "inputs": [
            {
              "internalType": "address",
              "name": "_libraryAddress",
              "type": "address"
            }
          ],
          "name": "setLibraryAddress",
          "outputs": [],
          "stateMutability": "nonpayable",
          "type": "function"
        }
      ],
      "evm": {
        "bytecode": {
          "linkReferences": {},
          "object": "608060405234801561001057600080fd5b506112d2806100206000396000f3fe608060405234801561001057600080fd5b50600436106100415760003560e01c80634863ba1714610046578063789b9b4514610062578063b816f51314610092575b600080fd5b610060600480360381019061005b9190610644565b6100b0565b005b61007c60048036038101906100779190610a9c565b610182565b6040516100899190610bb6565b60405180910390f35b61009a610544565b6040516100a79190610bb6565b60405180910390f35b600073ffffffffffffffffffffffffffffffffffffffff1660008054906101000a900473ffffffffffffffffffffffffffffffffffffffff1673ffffffffffffffffffffffffffffffffffffffff161461013f576040517f08c379a000000000000000000000000000000000000000000000000000000000815260040161013690610c54565b60405180910390fd5b806000806101000a81548173ffffffffffffffffffffffffffffffffffffffff021916908373ffffffffffffffffffffffffffffffffffffffff16021790555050565b6000806101ae60008054906101000a900473ffffffffffffffffffffffffffffffffffffffff16610568565b905060008b73ffffffffffffffffffffffffffffffffffffffff1663bdbbea5286866040518363ffffffff1660e01b81526004016101ed929190610ced565b6020604051808303816000875af115801561020c573d6000803e3d6000fd5b505050506040513d601f19601f820116820180604052508101906102309190610d39565b90506000805b8c518110156103b957600073ffffffffffffffffffffffffffffffffffffffff168d828151811061026a57610269610d66565b5b60200260200101516060015173ffffffffffffffffffffffffffffffffffffffff1614156103a6578273ffffffffffffffffffffffffffffffffffffffff16636af42a8c8e83815181106102c1576102c0610d66565b5b60200260200101516020015160008f8f878181106102e2576102e1610d66565b5b90506020028101906102f49190610da4565b6040518563ffffffff1660e01b81526004016103139493929190610f1d565b600060405180830381600087803b15801561032d57600080fd5b505af1158015610341573d6000803e3d6000fd5b50505050818061035090610f9d565b925050828d828151811061036757610366610d66565b5b60200260200101516060019073ffffffffffffffffffffffffffffffffffffffff16908173ffffffffffffffffffffffffffffffffffffffff16815250505b80806103b190610f9d565b915050610236565b508273ffffffffffffffffffffffffffffffffffffffff1663bbb69b968d848c8c8c6040518663ffffffff1660e01b81526004016103fb959493929190611223565b600060405180830381600087803b15801561041557600080fd5b505af1158015610429573d6000803e3d6000fd5b505050508273ffffffffffffffffffffffffffffffffffffffff1663c47f002787876040518363ffffffff1660e01b8152600401610468929190611278565b600060405180830381600087803b15801561048257600080fd5b505af1158015610496573d6000803e3d6000fd5b505050508173ffffffffffffffffffffffffffffffffffffffff1663f83d08ba6040518163ffffffff1660e01b8152600401600060405180830381600087803b1580156104e257600080fd5b505af11580156104f6573d6000803e3d6000fd5b505050507f62392641265fcc5a6a8128fd39634480ffe377e76dc54dcad335e1289fcc0fd5836040516105299190610bb6565b60405180910390a18293505050509998505050505050505050565b60008054906101000a900473ffffffffffffffffffffffffffffffffffffffff1681565b6000808260601b90506040517f3d602d80600a3d3981f3363d3d373d3d3d363d7300000000000000000000000081528160148201527f5af43d82803e903d91602b57fd5bf3000000000000000000000000000000000060288201526037816000f092505050919050565b6000604051905090565b600080fd5b600080fd5b600073ffffffffffffffffffffffffffffffffffffffff82169050919050565b6000610611826105e6565b9050919050565b61062181610606565b811461062c57600080fd5b50565b60008135905061063e81610618565b92915050565b60006020828403121561065a576106596105dc565b5b60006106688482850161062f565b91505092915050565b600061067c82610606565b9050919050565b61068c81610671565b811461069757600080fd5b50565b6000813590506106a981610683565b92915050565b600080fd5b6000601f19601f8301169050919050565b7f4e487b7100000000000000000000000000000000000000000000000000000000600052604160045260246000fd5b6106fd826106b4565b810181811067ffffffffffffffff8211171561071c5761071b6106c5565b5b80604052505050565b600061072f6105d2565b905061073b82826106f4565b919050565b600067ffffffffffffffff82111561075b5761075a6106c5565b5b602082029050602081019050919050565b600080fd5b600080fd5b600080fd5b600080fd5b600067ffffffffffffffff82111561079b5761079a6106c5565b5b6107a4826106b4565b9050602081019050919050565b82818337600083830152505050565b60006107d36107ce84610780565b610725565b9050828152602081018484840111156107ef576107ee61077b565b5b6107fa8482856107b1565b509392505050565b600082601f830112610817576108166106af565b5b81356108278482602086016107c0565b91505092915050565b60006080828403121561084657610845610771565b5b6108506080610725565b9050600082013567ffffffffffffffff8111156108705761086f610776565b5b61087c84828501610802565b600083015250602082013567ffffffffffffffff8111156108a05761089f610776565b5b6108ac84828501610802565b60208301525060406108c08482850161062f565b60408301525060606108d48482850161062f565b60608301525092915050565b60006108f36108ee84610740565b610725565b905080838252602082019050602084028301858111156109165761091561076c565b5b835b8181101561095d57803567ffffffffffffffff81111561093b5761093a6106af565b5b8086016109488982610830565b85526020850194505050602081019050610918565b5050509392505050565b600082601f83011261097c5761097b6106af565b5b813561098c8482602086016108e0565b91505092915050565b600080fd5b60008083601f8401126109b0576109af6106af565b5b8235905067ffffffffffffffff8111156109cd576109cc610995565b5b6020830191508360208202830111156109e9576109e861076c565b5b9250929050565b60008083601f840112610a0657610a056106af565b5b8235905067ffffffffffffffff811115610a2357610a22610995565b5b602083019150836080820283011115610a3f57610a3e61076c565b5b9250929050565b60008083601f840112610a5c57610a5b6106af565b5b8235905067ffffffffffffffff811115610a7957610a78610995565b5b602083019150836001820283011115610a9557610a9461076c565b5b9250929050565b600080600080600080600080600060c08a8c031215610abe57610abd6105dc565b5b6000610acc8c828d0161069a565b99505060208a013567ffffffffffffffff811115610aed57610aec6105e1565b5b610af98c828d01610967565b98505060408a013567ffffffffffffffff811115610b1a57610b196105e1565b5b610b268c828d0161099a565b97509750506060610b398c828d0161062f565b95505060808a013567ffffffffffffffff811115610b5a57610b596105e1565b5b610b668c828d016109f0565b945094505060a08a013567ffffffffffffffff811115610b8957610b886105e1565b5b610b958c828d01610a46565b92509250509295985092959850929598565b610bb081610606565b82525050565b6000602082019050610bcb6000830184610ba7565b92915050565b600082825260208201905092915050565b7f4672616d65466163746f72793a204c69627261727920616c726561647920736560008201527f7400000000000000000000000000000000000000000000000000000000000000602082015250565b6000610c3e602183610bd1565b9150610c4982610be2565b604082019050919050565b60006020820190508181036000830152610c6d81610c31565b9050919050565b6000610c808385610bd1565b9350610c8d8385846107b1565b610c96836106b4565b840190509392505050565b7f312e302e30000000000000000000000000000000000000000000000000000000600082015250565b6000610cd7600583610bd1565b9150610ce282610ca1565b602082019050919050565b60006040820190508181036000830152610d08818486610c74565b90508181036020830152610d1b81610cca565b90509392505050565b600081519050610d3381610618565b92915050565b600060208284031215610d4f57610d4e6105dc565b5b6000610d5d84828501610d24565b91505092915050565b7f4e487b7100000000000000000000000000000000000000000000000000000000600052603260045260246000fd5b600080fd5b600080fd5b600080fd5b60008083356001602003843603038112610dc157610dc0610d95565b5b80840192508235915067ffffffffffffffff821115610de357610de2610d9a565b5b602083019250600182023603831315610dff57610dfe610d9f565b5b509250929050565b600081519050919050565b60005b83811015610e30578082015181840152602081019050610e15565b83811115610e3f576000848401525b50505050565b6000610e5082610e07565b610e5a8185610bd1565b9350610e6a818560208601610e12565b610e73816106b4565b840191505092915050565b6000819050919050565b60006fffffffffffffffffffffffffffffffff82169050919050565b6000819050919050565b6000610ec9610ec4610ebf84610e7e565b610ea4565b610e88565b9050919050565b610ed981610eae565b82525050565b600082825260208201905092915050565b6000610efc8385610edf565b9350610f098385846107b1565b610f12836106b4565b840190509392505050565b60006060820190508181036000830152610f378187610e45565b9050610f466020830186610ed0565b8181036040830152610f59818486610ef0565b905095945050505050565b7f4e487b7100000000000000000000000000000000000000000000000000000000600052601160045260246000fd5b6000819050919050565b6000610fa882610f93565b91507fffffffffffffffffffffffffffffffffffffffffffffffffffffffffffffffff821415610fdb57610fda610f64565b5b600182019050919050565b600081519050919050565b600082825260208201905092915050565b6000819050602082019050919050565b600082825260208201905092915050565b600061102e82610e07565b6110388185611012565b9350611048818560208601610e12565b611051816106b4565b840191505092915050565b61106581610606565b82525050565b600060808301600083015184820360008601526110888282611023565b915050602083015184820360208601526110a28282611023565b91505060408301516110b7604086018261105c565b5060608301516110ca606086018261105c565b508091505092915050565b60006110e1838361106b565b905092915050565b6000602082019050919050565b600061110182610fe6565b61110b8185610ff1565b93508360208202850161111d85611002565b8060005b85811015611159578484038952815161113a85826110d5565b9450611145836110e9565b925060208a01995050600181019050611121565b50829750879550505050505092915050565b600082825260208201905092915050565b6000819050919050565b611192608083836107b1565b5050565b60006111a28383611186565b60808301905092915050565b600082905092915050565b6000608082019050919050565b60006111d2838561116b565b93506111dd8261117c565b8060005b85811015611216576111f382846111ae565b6111fd8882611196565b9750611208836111b9565b9250506001810190506111e1565b5085925050509392505050565b6000608082019050818103600083015261123d81886110f6565b905061124c6020830187610ba7565b6112596040830186610ba7565b818103606083015261126c8184866111c6565b90509695505050505050565b60006020820190508181036000830152611293818486610c74565b9050939250505056fea26469706673582212201119d20b2b2a2147eda3b8bba50d5ad0e14e7104017fb3ed0bfde6ec7272087664736f6c634300080c0033",
          "opcodes": "PUSH1 0x80 PUSH1 0x40 MSTORE CALLVALUE DUP1 ISZERO PUSH2 0x10 JUMPI PUSH1 0x0 DUP1 REVERT JUMPDEST POP PUSH2 0x12D2 DUP1 PUSH2 0x20 PUSH1 0x0 CODECOPY PUSH1 0x0 RETURN INVALID PUSH1 0x80 PUSH1 0x40 MSTORE CALLVALUE DUP1 ISZERO PUSH2 0x10 JUMPI PUSH1 0x0 DUP1 REVERT JUMPDEST POP PUSH1 0x4 CALLDATASIZE LT PUSH2 0x41 JUMPI PUSH1 0x0 CALLDATALOAD PUSH1 0xE0 SHR DUP1 PUSH4 0x4863BA17 EQ PUSH2 0x46 JUMPI DUP1 PUSH4 0x789B9B45 EQ PUSH2 0x62 JUMPI DUP1 PUSH4 0xB816F513 EQ PUSH2 0x92 JUMPI JUMPDEST PUSH1 0x0 DUP1 REVERT JUMPDEST PUSH2 0x60 PUSH1 0x4 DUP1 CALLDATASIZE SUB DUP2 ADD SWAP1 PUSH2 0x5B SWAP2 SWAP1 PUSH2 0x644 JUMP JUMPDEST PUSH2 0xB0 JUMP JUMPDEST STOP JUMPDEST PUSH2 0x7C PUSH1 0x4 DUP1 CALLDATASIZE SUB DUP2 ADD SWAP1 PUSH2 0x77 SWAP2 SWAP1 PUSH2 0xA9C JUMP JUMPDEST PUSH2 0x182 JUMP JUMPDEST PUSH1 0x40 MLOAD PUSH2 0x89 SWAP2 SWAP1 PUSH2 0xBB6 JUMP JUMPDEST PUSH1 0x40 MLOAD DUP1 SWAP2 SUB SWAP1 RETURN JUMPDEST PUSH2 0x9A PUSH2 0x544 JUMP JUMPDEST PUSH1 0x40 MLOAD PUSH2 0xA7 SWAP2 SWAP1 PUSH2 0xBB6 JUMP JUMPDEST PUSH1 0x40 MLOAD DUP1 SWAP2 SUB SWAP1 RETURN JUMPDEST PUSH1 0x0 PUSH20 0xFFFFFFFFFFFFFFFFFFFFFFFFFFFFFFFFFFFFFFFF AND PUSH1 0x0 DUP1 SLOAD SWAP1 PUSH2 0x100 EXP SWAP1 DIV PUSH20 0xFFFFFFFFFFFFFFFFFFFFFFFFFFFFFFFFFFFFFFFF AND PUSH20 0xFFFFFFFFFFFFFFFFFFFFFFFFFFFFFFFFFFFFFFFF AND EQ PUSH2 0x13F JUMPI PUSH1 0x40 MLOAD PUSH32 0x8C379A000000000000000000000000000000000000000000000000000000000 DUP2 MSTORE PUSH1 0x4 ADD PUSH2 0x136 SWAP1 PUSH2 0xC54 JUMP JUMPDEST PUSH1 0x40 MLOAD DUP1 SWAP2 SUB SWAP1 REVERT JUMPDEST DUP1 PUSH1 0x0 DUP1 PUSH2 0x100 EXP DUP2 SLOAD DUP2 PUSH20 0xFFFFFFFFFFFFFFFFFFFFFFFFFFFFFFFFFFFFFFFF MUL NOT AND SWAP1 DUP4 PUSH20 0xFFFFFFFFFFFFFFFFFFFFFFFFFFFFFFFFFFFFFFFF AND MUL OR SWAP1 SSTORE POP POP JUMP JUMPDEST PUSH1 0x0 DUP1 PUSH2 0x1AE PUSH1 0x0 DUP1 SLOAD SWAP1 PUSH2 0x100 EXP SWAP1 DIV PUSH20 0xFFFFFFFFFFFFFFFFFFFFFFFFFFFFFFFFFFFFFFFF AND PUSH2 0x568 JUMP JUMPDEST SWAP1 POP PUSH1 0x0 DUP12 PUSH20 0xFFFFFFFFFFFFFFFFFFFFFFFFFFFFFFFFFFFFFFFF AND PUSH4 0xBDBBEA52 DUP7 DUP7 PUSH1 0x40 MLOAD DUP4 PUSH4 0xFFFFFFFF AND PUSH1 0xE0 SHL DUP2 MSTORE PUSH1 0x4 ADD PUSH2 0x1ED SWAP3 SWAP2 SWAP1 PUSH2 0xCED JUMP JUMPDEST PUSH1 0x20 PUSH1 0x40 MLOAD DUP1 DUP4 SUB DUP2 PUSH1 0x0 DUP8 GAS CALL ISZERO DUP1 ISZERO PUSH2 0x20C JUMPI RETURNDATASIZE PUSH1 0x0 DUP1 RETURNDATACOPY RETURNDATASIZE PUSH1 0x0 REVERT JUMPDEST POP POP POP POP PUSH1 0x40 MLOAD RETURNDATASIZE PUSH1 0x1F NOT PUSH1 0x1F DUP3 ADD AND DUP3 ADD DUP1 PUSH1 0x40 MSTORE POP DUP2 ADD SWAP1 PUSH2 0x230 SWAP2 SWAP1 PUSH2 0xD39 JUMP JUMPDEST SWAP1 POP PUSH1 0x0 DUP1 JUMPDEST DUP13 MLOAD DUP2 LT ISZERO PUSH2 0x3B9 JUMPI PUSH1 0x0 PUSH20 0xFFFFFFFFFFFFFFFFFFFFFFFFFFFFFFFFFFFFFFFF AND DUP14 DUP3 DUP2 MLOAD DUP2 LT PUSH2 0x26A JUMPI PUSH2 0x269 PUSH2 0xD66 JUMP JUMPDEST JUMPDEST PUSH1 0x20 MUL PUSH1 0x20 ADD ADD MLOAD PUSH1 0x60 ADD MLOAD PUSH20 0xFFFFFFFFFFFFFFFFFFFFFFFFFFFFFFFFFFFFFFFF AND EQ ISZERO PUSH2 0x3A6 JUMPI DUP3 PUSH20 0xFFFFFFFFFFFFFFFFFFFFFFFFFFFFFFFFFFFFFFFF AND PUSH4 0x6AF42A8C DUP15 DUP4 DUP2 MLOAD DUP2 LT PUSH2 0x2C1 JUMPI PUSH2 0x2C0 PUSH2 0xD66 JUMP JUMPDEST JUMPDEST PUSH1 0x20 MUL PUSH1 0x20 ADD ADD MLOAD PUSH1 0x20 ADD MLOAD PUSH1 0x0 DUP16 DUP16 DUP8 DUP2 DUP2 LT PUSH2 0x2E2 JUMPI PUSH2 0x2E1 PUSH2 0xD66 JUMP JUMPDEST JUMPDEST SWAP1 POP PUSH1 0x20 MUL DUP2 ADD SWAP1 PUSH2 0x2F4 SWAP2 SWAP1 PUSH2 0xDA4 JUMP JUMPDEST PUSH1 0x40 MLOAD DUP6 PUSH4 0xFFFFFFFF AND PUSH1 0xE0 SHL DUP2 MSTORE PUSH1 0x4 ADD PUSH2 0x313 SWAP5 SWAP4 SWAP3 SWAP2 SWAP1 PUSH2 0xF1D JUMP JUMPDEST PUSH1 0x0 PUSH1 0x40 MLOAD DUP1 DUP4 SUB DUP2 PUSH1 0x0 DUP8 DUP1 EXTCODESIZE ISZERO DUP1 ISZERO PUSH2 0x32D JUMPI PUSH1 0x0 DUP1 REVERT JUMPDEST POP GAS CALL ISZERO DUP1 ISZERO PUSH2 0x341 JUMPI RETURNDATASIZE PUSH1 0x0 DUP1 RETURNDATACOPY RETURNDATASIZE PUSH1 0x0 REVERT JUMPDEST POP POP POP POP DUP2 DUP1 PUSH2 0x350 SWAP1 PUSH2 0xF9D JUMP JUMPDEST SWAP3 POP POP DUP3 DUP14 DUP3 DUP2 MLOAD DUP2 LT PUSH2 0x367 JUMPI PUSH2 0x366 PUSH2 0xD66 JUMP JUMPDEST JUMPDEST PUSH1 0x20 MUL PUSH1 0x20 ADD ADD MLOAD PUSH1 0x60 ADD SWAP1 PUSH20 0xFFFFFFFFFFFFFFFFFFFFFFFFFFFFFFFFFFFFFFFF AND SWAP1 DUP2 PUSH20 0xFFFFFFFFFFFFFFFFFFFFFFFFFFFFFFFFFFFFFFFF AND DUP2 MSTORE POP POP JUMPDEST DUP1 DUP1 PUSH2 0x3B1 SWAP1 PUSH2 0xF9D JUMP JUMPDEST SWAP2 POP POP PUSH2 0x236 JUMP JUMPDEST POP DUP3 PUSH20 0xFFFFFFFFFFFFFFFFFFFFFFFFFFFFFFFFFFFFFFFF AND PUSH4 0xBBB69B96 DUP14 DUP5 DUP13 DUP13 DUP13 PUSH1 0x40 MLOAD DUP7 PUSH4 0xFFFFFFFF AND PUSH1 0xE0 SHL DUP2 MSTORE PUSH1 0x4 ADD PUSH2 0x3FB SWAP6 SWAP5 SWAP4 SWAP3 SWAP2 SWAP1 PUSH2 0x1223 JUMP JUMPDEST PUSH1 0x0 PUSH1 0x40 MLOAD DUP1 DUP4 SUB DUP2 PUSH1 0x0 DUP8 DUP1 EXTCODESIZE ISZERO DUP1 ISZERO PUSH2 0x415 JUMPI PUSH1 0x0 DUP1 REVERT JUMPDEST POP GAS CALL ISZERO DUP1 ISZERO PUSH2 0x429 JUMPI RETURNDATASIZE PUSH1 0x0 DUP1 RETURNDATACOPY RETURNDATASIZE PUSH1 0x0 REVERT JUMPDEST POP POP POP POP DUP3 PUSH20 0xFFFFFFFFFFFFFFFFFFFFFFFFFFFFFFFFFFFFFFFF AND PUSH4 0xC47F0027 DUP8 DUP8 PUSH1 0x40 MLOAD DUP4 PUSH4 0xFFFFFFFF AND PUSH1 0xE0 SHL DUP2 MSTORE PUSH1 0x4 ADD PUSH2 0x468 SWAP3 SWAP2 SWAP1 PUSH2 0x1278 JUMP JUMPDEST PUSH1 0x0 PUSH1 0x40 MLOAD DUP1 DUP4 SUB DUP2 PUSH1 0x0 DUP8 DUP1 EXTCODESIZE ISZERO DUP1 ISZERO PUSH2 0x482 JUMPI PUSH1 0x0 DUP1 REVERT JUMPDEST POP GAS CALL ISZERO DUP1 ISZERO PUSH2 0x496 JUMPI RETURNDATASIZE PUSH1 0x0 DUP1 RETURNDATACOPY RETURNDATASIZE PUSH1 0x0 REVERT JUMPDEST POP POP POP POP DUP2 PUSH20 0xFFFFFFFFFFFFFFFFFFFFFFFFFFFFFFFFFFFFFFFF AND PUSH4 0xF83D08BA PUSH1 0x40 MLOAD DUP2 PUSH4 0xFFFFFFFF AND PUSH1 0xE0 SHL DUP2 MSTORE PUSH1 0x4 ADD PUSH1 0x0 PUSH1 0x40 MLOAD DUP1 DUP4 SUB DUP2 PUSH1 0x0 DUP8 DUP1 EXTCODESIZE ISZERO DUP1 ISZERO PUSH2 0x4E2 JUMPI PUSH1 0x0 DUP1 REVERT JUMPDEST POP GAS CALL ISZERO DUP1 ISZERO PUSH2 0x4F6 JUMPI RETURNDATASIZE PUSH1 0x0 DUP1 RETURNDATACOPY RETURNDATASIZE PUSH1 0x0 REVERT JUMPDEST POP POP POP POP PUSH32 0x62392641265FCC5A6A8128FD39634480FFE377E76DC54DCAD335E1289FCC0FD5 DUP4 PUSH1 0x40 MLOAD PUSH2 0x529 SWAP2 SWAP1 PUSH2 0xBB6 JUMP JUMPDEST PUSH1 0x40 MLOAD DUP1 SWAP2 SUB SWAP1 LOG1 DUP3 SWAP4 POP POP POP POP SWAP10 SWAP9 POP POP POP POP POP POP POP POP POP JUMP JUMPDEST PUSH1 0x0 DUP1 SLOAD SWAP1 PUSH2 0x100 EXP SWAP1 DIV PUSH20 0xFFFFFFFFFFFFFFFFFFFFFFFFFFFFFFFFFFFFFFFF AND DUP2 JUMP JUMPDEST PUSH1 0x0 DUP1 DUP3 PUSH1 0x60 SHL SWAP1 POP PUSH1 0x40 MLOAD PUSH32 0x3D602D80600A3D3981F3363D3D373D3D3D363D73000000000000000000000000 DUP2 MSTORE DUP2 PUSH1 0x14 DUP3 ADD MSTORE PUSH32 0x5AF43D82803E903D91602B57FD5BF30000000000000000000000000000000000 PUSH1 0x28 DUP3 ADD MSTORE PUSH1 0x37 DUP2 PUSH1 0x0 CREATE SWAP3 POP POP POP SWAP2 SWAP1 POP JUMP JUMPDEST PUSH1 0x0 PUSH1 0x40 MLOAD SWAP1 POP SWAP1 JUMP JUMPDEST PUSH1 0x0 DUP1 REVERT JUMPDEST PUSH1 0x0 DUP1 REVERT JUMPDEST PUSH1 0x0 PUSH20 0xFFFFFFFFFFFFFFFFFFFFFFFFFFFFFFFFFFFFFFFF DUP3 AND SWAP1 POP SWAP2 SWAP1 POP JUMP JUMPDEST PUSH1 0x0 PUSH2 0x611 DUP3 PUSH2 0x5E6 JUMP JUMPDEST SWAP1 POP SWAP2 SWAP1 POP JUMP JUMPDEST PUSH2 0x621 DUP2 PUSH2 0x606 JUMP JUMPDEST DUP2 EQ PUSH2 0x62C JUMPI PUSH1 0x0 DUP1 REVERT JUMPDEST POP JUMP JUMPDEST PUSH1 0x0 DUP2 CALLDATALOAD SWAP1 POP PUSH2 0x63E DUP2 PUSH2 0x618 JUMP JUMPDEST SWAP3 SWAP2 POP POP JUMP JUMPDEST PUSH1 0x0 PUSH1 0x20 DUP3 DUP5 SUB SLT ISZERO PUSH2 0x65A JUMPI PUSH2 0x659 PUSH2 0x5DC JUMP JUMPDEST JUMPDEST PUSH1 0x0 PUSH2 0x668 DUP5 DUP3 DUP6 ADD PUSH2 0x62F JUMP JUMPDEST SWAP2 POP POP SWAP3 SWAP2 POP POP JUMP JUMPDEST PUSH1 0x0 PUSH2 0x67C DUP3 PUSH2 0x606 JUMP JUMPDEST SWAP1 POP SWAP2 SWAP1 POP JUMP JUMPDEST PUSH2 0x68C DUP2 PUSH2 0x671 JUMP JUMPDEST DUP2 EQ PUSH2 0x697 JUMPI PUSH1 0x0 DUP1 REVERT JUMPDEST POP JUMP JUMPDEST PUSH1 0x0 DUP2 CALLDATALOAD SWAP1 POP PUSH2 0x6A9 DUP2 PUSH2 0x683 JUMP JUMPDEST SWAP3 SWAP2 POP POP JUMP JUMPDEST PUSH1 0x0 DUP1 REVERT JUMPDEST PUSH1 0x0 PUSH1 0x1F NOT PUSH1 0x1F DUP4 ADD AND SWAP1 POP SWAP2 SWAP1 POP JUMP JUMPDEST PUSH32 0x4E487B7100000000000000000000000000000000000000000000000000000000 PUSH1 0x0 MSTORE PUSH1 0x41 PUSH1 0x4 MSTORE PUSH1 0x24 PUSH1 0x0 REVERT JUMPDEST PUSH2 0x6FD DUP3 PUSH2 0x6B4 JUMP JUMPDEST DUP2 ADD DUP2 DUP2 LT PUSH8 0xFFFFFFFFFFFFFFFF DUP3 GT OR ISZERO PUSH2 0x71C JUMPI PUSH2 0x71B PUSH2 0x6C5 JUMP JUMPDEST JUMPDEST DUP1 PUSH1 0x40 MSTORE POP POP POP JUMP JUMPDEST PUSH1 0x0 PUSH2 0x72F PUSH2 0x5D2 JUMP JUMPDEST SWAP1 POP PUSH2 0x73B DUP3 DUP3 PUSH2 0x6F4 JUMP JUMPDEST SWAP2 SWAP1 POP JUMP JUMPDEST PUSH1 0x0 PUSH8 0xFFFFFFFFFFFFFFFF DUP3 GT ISZERO PUSH2 0x75B JUMPI PUSH2 0x75A PUSH2 0x6C5 JUMP JUMPDEST JUMPDEST PUSH1 0x20 DUP3 MUL SWAP1 POP PUSH1 0x20 DUP2 ADD SWAP1 POP SWAP2 SWAP1 POP JUMP JUMPDEST PUSH1 0x0 DUP1 REVERT JUMPDEST PUSH1 0x0 DUP1 REVERT JUMPDEST PUSH1 0x0 DUP1 REVERT JUMPDEST PUSH1 0x0 DUP1 REVERT JUMPDEST PUSH1 0x0 PUSH8 0xFFFFFFFFFFFFFFFF DUP3 GT ISZERO PUSH2 0x79B JUMPI PUSH2 0x79A PUSH2 0x6C5 JUMP JUMPDEST JUMPDEST PUSH2 0x7A4 DUP3 PUSH2 0x6B4 JUMP JUMPDEST SWAP1 POP PUSH1 0x20 DUP2 ADD SWAP1 POP SWAP2 SWAP1 POP JUMP JUMPDEST DUP3 DUP2 DUP4 CALLDATACOPY PUSH1 0x0 DUP4 DUP4 ADD MSTORE POP POP POP JUMP JUMPDEST PUSH1 0x0 PUSH2 0x7D3 PUSH2 0x7CE DUP5 PUSH2 0x780 JUMP JUMPDEST PUSH2 0x725 JUMP JUMPDEST SWAP1 POP DUP3 DUP2 MSTORE PUSH1 0x20 DUP2 ADD DUP5 DUP5 DUP5 ADD GT ISZERO PUSH2 0x7EF JUMPI PUSH2 0x7EE PUSH2 0x77B JUMP JUMPDEST JUMPDEST PUSH2 0x7FA DUP5 DUP3 DUP6 PUSH2 0x7B1 JUMP JUMPDEST POP SWAP4 SWAP3 POP POP POP JUMP JUMPDEST PUSH1 0x0 DUP3 PUSH1 0x1F DUP4 ADD SLT PUSH2 0x817 JUMPI PUSH2 0x816 PUSH2 0x6AF JUMP JUMPDEST JUMPDEST DUP2 CALLDATALOAD PUSH2 0x827 DUP5 DUP3 PUSH1 0x20 DUP7 ADD PUSH2 0x7C0 JUMP JUMPDEST SWAP2 POP POP SWAP3 SWAP2 POP POP JUMP JUMPDEST PUSH1 0x0 PUSH1 0x80 DUP3 DUP5 SUB SLT ISZERO PUSH2 0x846 JUMPI PUSH2 0x845 PUSH2 0x771 JUMP JUMPDEST JUMPDEST PUSH2 0x850 PUSH1 0x80 PUSH2 0x725 JUMP JUMPDEST SWAP1 POP PUSH1 0x0 DUP3 ADD CALLDATALOAD PUSH8 0xFFFFFFFFFFFFFFFF DUP2 GT ISZERO PUSH2 0x870 JUMPI PUSH2 0x86F PUSH2 0x776 JUMP JUMPDEST JUMPDEST PUSH2 0x87C DUP5 DUP3 DUP6 ADD PUSH2 0x802 JUMP JUMPDEST PUSH1 0x0 DUP4 ADD MSTORE POP PUSH1 0x20 DUP3 ADD CALLDATALOAD PUSH8 0xFFFFFFFFFFFFFFFF DUP2 GT ISZERO PUSH2 0x8A0 JUMPI PUSH2 0x89F PUSH2 0x776 JUMP JUMPDEST JUMPDEST PUSH2 0x8AC DUP5 DUP3 DUP6 ADD PUSH2 0x802 JUMP JUMPDEST PUSH1 0x20 DUP4 ADD MSTORE POP PUSH1 0x40 PUSH2 0x8C0 DUP5 DUP3 DUP6 ADD PUSH2 0x62F JUMP JUMPDEST PUSH1 0x40 DUP4 ADD MSTORE POP PUSH1 0x60 PUSH2 0x8D4 DUP5 DUP3 DUP6 ADD PUSH2 0x62F JUMP JUMPDEST PUSH1 0x60 DUP4 ADD MSTORE POP SWAP3 SWAP2 POP POP JUMP JUMPDEST PUSH1 0x0 PUSH2 0x8F3 PUSH2 0x8EE DUP5 PUSH2 0x740 JUMP JUMPDEST PUSH2 0x725 JUMP JUMPDEST SWAP1 POP DUP1 DUP4 DUP3 MSTORE PUSH1 0x20 DUP3 ADD SWAP1 POP PUSH1 0x20 DUP5 MUL DUP4 ADD DUP6 DUP2 GT ISZERO PUSH2 0x916 JUMPI PUSH2 0x915 PUSH2 0x76C JUMP JUMPDEST JUMPDEST DUP4 JUMPDEST DUP2 DUP2 LT ISZERO PUSH2 0x95D JUMPI DUP1 CALLDATALOAD PUSH8 0xFFFFFFFFFFFFFFFF DUP2 GT ISZERO PUSH2 0x93B JUMPI PUSH2 0x93A PUSH2 0x6AF JUMP JUMPDEST JUMPDEST DUP1 DUP7 ADD PUSH2 0x948 DUP10 DUP3 PUSH2 0x830 JUMP JUMPDEST DUP6 MSTORE PUSH1 0x20 DUP6 ADD SWAP5 POP POP POP PUSH1 0x20 DUP2 ADD SWAP1 POP PUSH2 0x918 JUMP JUMPDEST POP POP POP SWAP4 SWAP3 POP POP POP JUMP JUMPDEST PUSH1 0x0 DUP3 PUSH1 0x1F DUP4 ADD SLT PUSH2 0x97C JUMPI PUSH2 0x97B PUSH2 0x6AF JUMP JUMPDEST JUMPDEST DUP2 CALLDATALOAD PUSH2 0x98C DUP5 DUP3 PUSH1 0x20 DUP7 ADD PUSH2 0x8E0 JUMP JUMPDEST SWAP2 POP POP SWAP3 SWAP2 POP POP JUMP JUMPDEST PUSH1 0x0 DUP1 REVERT JUMPDEST PUSH1 0x0 DUP1 DUP4 PUSH1 0x1F DUP5 ADD SLT PUSH2 0x9B0 JUMPI PUSH2 0x9AF PUSH2 0x6AF JUMP JUMPDEST JUMPDEST DUP3 CALLDATALOAD SWAP1 POP PUSH8 0xFFFFFFFFFFFFFFFF DUP2 GT ISZERO PUSH2 0x9CD JUMPI PUSH2 0x9CC PUSH2 0x995 JUMP JUMPDEST JUMPDEST PUSH1 0x20 DUP4 ADD SWAP2 POP DUP4 PUSH1 0x20 DUP3 MUL DUP4 ADD GT ISZERO PUSH2 0x9E9 JUMPI PUSH2 0x9E8 PUSH2 0x76C JUMP JUMPDEST JUMPDEST SWAP3 POP SWAP3 SWAP1 POP JUMP JUMPDEST PUSH1 0x0 DUP1 DUP4 PUSH1 0x1F DUP5 ADD SLT PUSH2 0xA06 JUMPI PUSH2 0xA05 PUSH2 0x6AF JUMP JUMPDEST JUMPDEST DUP3 CALLDATALOAD SWAP1 POP PUSH8 0xFFFFFFFFFFFFFFFF DUP2 GT ISZERO PUSH2 0xA23 JUMPI PUSH2 0xA22 PUSH2 0x995 JUMP JUMPDEST JUMPDEST PUSH1 0x20 DUP4 ADD SWAP2 POP DUP4 PUSH1 0x80 DUP3 MUL DUP4 ADD GT ISZERO PUSH2 0xA3F JUMPI PUSH2 0xA3E PUSH2 0x76C JUMP JUMPDEST JUMPDEST SWAP3 POP SWAP3 SWAP1 POP JUMP JUMPDEST PUSH1 0x0 DUP1 DUP4 PUSH1 0x1F DUP5 ADD SLT PUSH2 0xA5C JUMPI PUSH2 0xA5B PUSH2 0x6AF JUMP JUMPDEST JUMPDEST DUP3 CALLDATALOAD SWAP1 POP PUSH8 0xFFFFFFFFFFFFFFFF DUP2 GT ISZERO PUSH2 0xA79 JUMPI PUSH2 0xA78 PUSH2 0x995 JUMP JUMPDEST JUMPDEST PUSH1 0x20 DUP4 ADD SWAP2 POP DUP4 PUSH1 0x1 DUP3 MUL DUP4 ADD GT ISZERO PUSH2 0xA95 JUMPI PUSH2 0xA94 PUSH2 0x76C JUMP JUMPDEST JUMPDEST SWAP3 POP SWAP3 SWAP1 POP JUMP JUMPDEST PUSH1 0x0 DUP1 PUSH1 0x0 DUP1 PUSH1 0x0 DUP1 PUSH1 0x0 DUP1 PUSH1 0x0 PUSH1 0xC0 DUP11 DUP13 SUB SLT ISZERO PUSH2 0xABE JUMPI PUSH2 0xABD PUSH2 0x5DC JUMP JUMPDEST JUMPDEST PUSH1 0x0 PUSH2 0xACC DUP13 DUP3 DUP14 ADD PUSH2 0x69A JUMP JUMPDEST SWAP10 POP POP PUSH1 0x20 DUP11 ADD CALLDATALOAD PUSH8 0xFFFFFFFFFFFFFFFF DUP2 GT ISZERO PUSH2 0xAED JUMPI PUSH2 0xAEC PUSH2 0x5E1 JUMP JUMPDEST JUMPDEST PUSH2 0xAF9 DUP13 DUP3 DUP14 ADD PUSH2 0x967 JUMP JUMPDEST SWAP9 POP POP PUSH1 0x40 DUP11 ADD CALLDATALOAD PUSH8 0xFFFFFFFFFFFFFFFF DUP2 GT ISZERO PUSH2 0xB1A JUMPI PUSH2 0xB19 PUSH2 0x5E1 JUMP JUMPDEST JUMPDEST PUSH2 0xB26 DUP13 DUP3 DUP14 ADD PUSH2 0x99A JUMP JUMPDEST SWAP8 POP SWAP8 POP POP PUSH1 0x60 PUSH2 0xB39 DUP13 DUP3 DUP14 ADD PUSH2 0x62F JUMP JUMPDEST SWAP6 POP POP PUSH1 0x80 DUP11 ADD CALLDATALOAD PUSH8 0xFFFFFFFFFFFFFFFF DUP2 GT ISZERO PUSH2 0xB5A JUMPI PUSH2 0xB59 PUSH2 0x5E1 JUMP JUMPDEST JUMPDEST PUSH2 0xB66 DUP13 DUP3 DUP14 ADD PUSH2 0x9F0 JUMP JUMPDEST SWAP5 POP SWAP5 POP POP PUSH1 0xA0 DUP11 ADD CALLDATALOAD PUSH8 0xFFFFFFFFFFFFFFFF DUP2 GT ISZERO PUSH2 0xB89 JUMPI PUSH2 0xB88 PUSH2 0x5E1 JUMP JUMPDEST JUMPDEST PUSH2 0xB95 DUP13 DUP3 DUP14 ADD PUSH2 0xA46 JUMP JUMPDEST SWAP3 POP SWAP3 POP POP SWAP3 SWAP6 SWAP9 POP SWAP3 SWAP6 SWAP9 POP SWAP3 SWAP6 SWAP9 JUMP JUMPDEST PUSH2 0xBB0 DUP2 PUSH2 0x606 JUMP JUMPDEST DUP3 MSTORE POP POP JUMP JUMPDEST PUSH1 0x0 PUSH1 0x20 DUP3 ADD SWAP1 POP PUSH2 0xBCB PUSH1 0x0 DUP4 ADD DUP5 PUSH2 0xBA7 JUMP JUMPDEST SWAP3 SWAP2 POP POP JUMP JUMPDEST PUSH1 0x0 DUP3 DUP3 MSTORE PUSH1 0x20 DUP3 ADD SWAP1 POP SWAP3 SWAP2 POP POP JUMP JUMPDEST PUSH32 0x4672616D65466163746F72793A204C69627261727920616C7265616479207365 PUSH1 0x0 DUP3 ADD MSTORE PUSH32 0x7400000000000000000000000000000000000000000000000000000000000000 PUSH1 0x20 DUP3 ADD MSTORE POP JUMP JUMPDEST PUSH1 0x0 PUSH2 0xC3E PUSH1 0x21 DUP4 PUSH2 0xBD1 JUMP JUMPDEST SWAP2 POP PUSH2 0xC49 DUP3 PUSH2 0xBE2 JUMP JUMPDEST PUSH1 0x40 DUP3 ADD SWAP1 POP SWAP2 SWAP1 POP JUMP JUMPDEST PUSH1 0x0 PUSH1 0x20 DUP3 ADD SWAP1 POP DUP2 DUP2 SUB PUSH1 0x0 DUP4 ADD MSTORE PUSH2 0xC6D DUP2 PUSH2 0xC31 JUMP JUMPDEST SWAP1 POP SWAP2 SWAP1 POP JUMP JUMPDEST PUSH1 0x0 PUSH2 0xC80 DUP4 DUP6 PUSH2 0xBD1 JUMP JUMPDEST SWAP4 POP PUSH2 0xC8D DUP4 DUP6 DUP5 PUSH2 0x7B1 JUMP JUMPDEST PUSH2 0xC96 DUP4 PUSH2 0x6B4 JUMP JUMPDEST DUP5 ADD SWAP1 POP SWAP4 SWAP3 POP POP POP JUMP JUMPDEST PUSH32 0x312E302E30000000000000000000000000000000000000000000000000000000 PUSH1 0x0 DUP3 ADD MSTORE POP JUMP JUMPDEST PUSH1 0x0 PUSH2 0xCD7 PUSH1 0x5 DUP4 PUSH2 0xBD1 JUMP JUMPDEST SWAP2 POP PUSH2 0xCE2 DUP3 PUSH2 0xCA1 JUMP JUMPDEST PUSH1 0x20 DUP3 ADD SWAP1 POP SWAP2 SWAP1 POP JUMP JUMPDEST PUSH1 0x0 PUSH1 0x40 DUP3 ADD SWAP1 POP DUP2 DUP2 SUB PUSH1 0x0 DUP4 ADD MSTORE PUSH2 0xD08 DUP2 DUP5 DUP7 PUSH2 0xC74 JUMP JUMPDEST SWAP1 POP DUP2 DUP2 SUB PUSH1 0x20 DUP4 ADD MSTORE PUSH2 0xD1B DUP2 PUSH2 0xCCA JUMP JUMPDEST SWAP1 POP SWAP4 SWAP3 POP POP POP JUMP JUMPDEST PUSH1 0x0 DUP2 MLOAD SWAP1 POP PUSH2 0xD33 DUP2 PUSH2 0x618 JUMP JUMPDEST SWAP3 SWAP2 POP POP JUMP JUMPDEST PUSH1 0x0 PUSH1 0x20 DUP3 DUP5 SUB SLT ISZERO PUSH2 0xD4F JUMPI PUSH2 0xD4E PUSH2 0x5DC JUMP JUMPDEST JUMPDEST PUSH1 0x0 PUSH2 0xD5D DUP5 DUP3 DUP6 ADD PUSH2 0xD24 JUMP JUMPDEST SWAP2 POP POP SWAP3 SWAP2 POP POP JUMP JUMPDEST PUSH32 0x4E487B7100000000000000000000000000000000000000000000000000000000 PUSH1 0x0 MSTORE PUSH1 0x32 PUSH1 0x4 MSTORE PUSH1 0x24 PUSH1 0x0 REVERT JUMPDEST PUSH1 0x0 DUP1 REVERT JUMPDEST PUSH1 0x0 DUP1 REVERT JUMPDEST PUSH1 0x0 DUP1 REVERT JUMPDEST PUSH1 0x0 DUP1 DUP4 CALLDATALOAD PUSH1 0x1 PUSH1 0x20 SUB DUP5 CALLDATASIZE SUB SUB DUP2 SLT PUSH2 0xDC1 JUMPI PUSH2 0xDC0 PUSH2 0xD95 JUMP JUMPDEST JUMPDEST DUP1 DUP5 ADD SWAP3 POP DUP3 CALLDATALOAD SWAP2 POP PUSH8 0xFFFFFFFFFFFFFFFF DUP3 GT ISZERO PUSH2 0xDE3 JUMPI PUSH2 0xDE2 PUSH2 0xD9A JUMP JUMPDEST JUMPDEST PUSH1 0x20 DUP4 ADD SWAP3 POP PUSH1 0x1 DUP3 MUL CALLDATASIZE SUB DUP4 SGT ISZERO PUSH2 0xDFF JUMPI PUSH2 0xDFE PUSH2 0xD9F JUMP JUMPDEST JUMPDEST POP SWAP3 POP SWAP3 SWAP1 POP JUMP JUMPDEST PUSH1 0x0 DUP2 MLOAD SWAP1 POP SWAP2 SWAP1 POP JUMP JUMPDEST PUSH1 0x0 JUMPDEST DUP4 DUP2 LT ISZERO PUSH2 0xE30 JUMPI DUP1 DUP3 ADD MLOAD DUP2 DUP5 ADD MSTORE PUSH1 0x20 DUP2 ADD SWAP1 POP PUSH2 0xE15 JUMP JUMPDEST DUP4 DUP2 GT ISZERO PUSH2 0xE3F JUMPI PUSH1 0x0 DUP5 DUP5 ADD MSTORE JUMPDEST POP POP POP POP JUMP JUMPDEST PUSH1 0x0 PUSH2 0xE50 DUP3 PUSH2 0xE07 JUMP JUMPDEST PUSH2 0xE5A DUP2 DUP6 PUSH2 0xBD1 JUMP JUMPDEST SWAP4 POP PUSH2 0xE6A DUP2 DUP6 PUSH1 0x20 DUP7 ADD PUSH2 0xE12 JUMP JUMPDEST PUSH2 0xE73 DUP2 PUSH2 0x6B4 JUMP JUMPDEST DUP5 ADD SWAP2 POP POP SWAP3 SWAP2 POP POP JUMP JUMPDEST PUSH1 0x0 DUP2 SWAP1 POP SWAP2 SWAP1 POP JUMP JUMPDEST PUSH1 0x0 PUSH16 0xFFFFFFFFFFFFFFFFFFFFFFFFFFFFFFFF DUP3 AND SWAP1 POP SWAP2 SWAP1 POP JUMP JUMPDEST PUSH1 0x0 DUP2 SWAP1 POP SWAP2 SWAP1 POP JUMP JUMPDEST PUSH1 0x0 PUSH2 0xEC9 PUSH2 0xEC4 PUSH2 0xEBF DUP5 PUSH2 0xE7E JUMP JUMPDEST PUSH2 0xEA4 JUMP JUMPDEST PUSH2 0xE88 JUMP JUMPDEST SWAP1 POP SWAP2 SWAP1 POP JUMP JUMPDEST PUSH2 0xED9 DUP2 PUSH2 0xEAE JUMP JUMPDEST DUP3 MSTORE POP POP JUMP JUMPDEST PUSH1 0x0 DUP3 DUP3 MSTORE PUSH1 0x20 DUP3 ADD SWAP1 POP SWAP3 SWAP2 POP POP JUMP JUMPDEST PUSH1 0x0 PUSH2 0xEFC DUP4 DUP6 PUSH2 0xEDF JUMP JUMPDEST SWAP4 POP PUSH2 0xF09 DUP4 DUP6 DUP5 PUSH2 0x7B1 JUMP JUMPDEST PUSH2 0xF12 DUP4 PUSH2 0x6B4 JUMP JUMPDEST DUP5 ADD SWAP1 POP SWAP4 SWAP3 POP POP POP JUMP JUMPDEST PUSH1 0x0 PUSH1 0x60 DUP3 ADD SWAP1 POP DUP2 DUP2 SUB PUSH1 0x0 DUP4 ADD MSTORE PUSH2 0xF37 DUP2 DUP8 PUSH2 0xE45 JUMP JUMPDEST SWAP1 POP PUSH2 0xF46 PUSH1 0x20 DUP4 ADD DUP7 PUSH2 0xED0 JUMP JUMPDEST DUP2 DUP2 SUB PUSH1 0x40 DUP4 ADD MSTORE PUSH2 0xF59 DUP2 DUP5 DUP7 PUSH2 0xEF0 JUMP JUMPDEST SWAP1 POP SWAP6 SWAP5 POP POP POP POP POP JUMP JUMPDEST PUSH32 0x4E487B7100000000000000000000000000000000000000000000000000000000 PUSH1 0x0 MSTORE PUSH1 0x11 PUSH1 0x4 MSTORE PUSH1 0x24 PUSH1 0x0 REVERT JUMPDEST PUSH1 0x0 DUP2 SWAP1 POP SWAP2 SWAP1 POP JUMP JUMPDEST PUSH1 0x0 PUSH2 0xFA8 DUP3 PUSH2 0xF93 JUMP JUMPDEST SWAP2 POP PUSH32 0xFFFFFFFFFFFFFFFFFFFFFFFFFFFFFFFFFFFFFFFFFFFFFFFFFFFFFFFFFFFFFFFF DUP3 EQ ISZERO PUSH2 0xFDB JUMPI PUSH2 0xFDA PUSH2 0xF64 JUMP JUMPDEST JUMPDEST PUSH1 0x1 DUP3 ADD SWAP1 POP SWAP2 SWAP1 POP JUMP JUMPDEST PUSH1 0x0 DUP2 MLOAD SWAP1 POP SWAP2 SWAP1 POP JUMP JUMPDEST PUSH1 0x0 DUP3 DUP3 MSTORE PUSH1 0x20 DUP3 ADD SWAP1 POP SWAP3 SWAP2 POP POP JUMP JUMPDEST PUSH1 0x0 DUP2 SWAP1 POP PUSH1 0x20 DUP3 ADD SWAP1 POP SWAP2 SWAP1 POP JUMP JUMPDEST PUSH1 0x0 DUP3 DUP3 MSTORE PUSH1 0x20 DUP3 ADD SWAP1 POP SWAP3 SWAP2 POP POP JUMP JUMPDEST PUSH1 0x0 PUSH2 0x102E DUP3 PUSH2 0xE07 JUMP JUMPDEST PUSH2 0x1038 DUP2 DUP6 PUSH2 0x1012 JUMP JUMPDEST SWAP4 POP PUSH2 0x1048 DUP2 DUP6 PUSH1 0x20 DUP7 ADD PUSH2 0xE12 JUMP JUMPDEST PUSH2 0x1051 DUP2 PUSH2 0x6B4 JUMP JUMPDEST DUP5 ADD SWAP2 POP POP SWAP3 SWAP2 POP POP JUMP JUMPDEST PUSH2 0x1065 DUP2 PUSH2 0x606 JUMP JUMPDEST DUP3 MSTORE POP POP JUMP JUMPDEST PUSH1 0x0 PUSH1 0x80 DUP4 ADD PUSH1 0x0 DUP4 ADD MLOAD DUP5 DUP3 SUB PUSH1 0x0 DUP7 ADD MSTORE PUSH2 0x1088 DUP3 DUP3 PUSH2 0x1023 JUMP JUMPDEST SWAP2 POP POP PUSH1 0x20 DUP4 ADD MLOAD DUP5 DUP3 SUB PUSH1 0x20 DUP7 ADD MSTORE PUSH2 0x10A2 DUP3 DUP3 PUSH2 0x1023 JUMP JUMPDEST SWAP2 POP POP PUSH1 0x40 DUP4 ADD MLOAD PUSH2 0x10B7 PUSH1 0x40 DUP7 ADD DUP3 PUSH2 0x105C JUMP JUMPDEST POP PUSH1 0x60 DUP4 ADD MLOAD PUSH2 0x10CA PUSH1 0x60 DUP7 ADD DUP3 PUSH2 0x105C JUMP JUMPDEST POP DUP1 SWAP2 POP POP SWAP3 SWAP2 POP POP JUMP JUMPDEST PUSH1 0x0 PUSH2 0x10E1 DUP4 DUP4 PUSH2 0x106B JUMP JUMPDEST SWAP1 POP SWAP3 SWAP2 POP POP JUMP JUMPDEST PUSH1 0x0 PUSH1 0x20 DUP3 ADD SWAP1 POP SWAP2 SWAP1 POP JUMP JUMPDEST PUSH1 0x0 PUSH2 0x1101 DUP3 PUSH2 0xFE6 JUMP JUMPDEST PUSH2 0x110B DUP2 DUP6 PUSH2 0xFF1 JUMP JUMPDEST SWAP4 POP DUP4 PUSH1 0x20 DUP3 MUL DUP6 ADD PUSH2 0x111D DUP6 PUSH2 0x1002 JUMP JUMPDEST DUP1 PUSH1 0x0 JUMPDEST DUP6 DUP2 LT ISZERO PUSH2 0x1159 JUMPI DUP5 DUP5 SUB DUP10 MSTORE DUP2 MLOAD PUSH2 0x113A DUP6 DUP3 PUSH2 0x10D5 JUMP JUMPDEST SWAP5 POP PUSH2 0x1145 DUP4 PUSH2 0x10E9 JUMP JUMPDEST SWAP3 POP PUSH1 0x20 DUP11 ADD SWAP10 POP POP PUSH1 0x1 DUP2 ADD SWAP1 POP PUSH2 0x1121 JUMP JUMPDEST POP DUP3 SWAP8 POP DUP8 SWAP6 POP POP POP POP POP POP SWAP3 SWAP2 POP POP JUMP JUMPDEST PUSH1 0x0 DUP3 DUP3 MSTORE PUSH1 0x20 DUP3 ADD SWAP1 POP SWAP3 SWAP2 POP POP JUMP JUMPDEST PUSH1 0x0 DUP2 SWAP1 POP SWAP2 SWAP1 POP JUMP JUMPDEST PUSH2 0x1192 PUSH1 0x80 DUP4 DUP4 PUSH2 0x7B1 JUMP JUMPDEST POP POP JUMP JUMPDEST PUSH1 0x0 PUSH2 0x11A2 DUP4 DUP4 PUSH2 0x1186 JUMP JUMPDEST PUSH1 0x80 DUP4 ADD SWAP1 POP SWAP3 SWAP2 POP POP JUMP JUMPDEST PUSH1 0x0 DUP3 SWAP1 POP SWAP3 SWAP2 POP POP JUMP JUMPDEST PUSH1 0x0 PUSH1 0x80 DUP3 ADD SWAP1 POP SWAP2 SWAP1 POP JUMP JUMPDEST PUSH1 0x0 PUSH2 0x11D2 DUP4 DUP6 PUSH2 0x116B JUMP JUMPDEST SWAP4 POP PUSH2 0x11DD DUP3 PUSH2 0x117C JUMP JUMPDEST DUP1 PUSH1 0x0 JUMPDEST DUP6 DUP2 LT ISZERO PUSH2 0x1216 JUMPI PUSH2 0x11F3 DUP3 DUP5 PUSH2 0x11AE JUMP JUMPDEST PUSH2 0x11FD DUP9 DUP3 PUSH2 0x1196 JUMP JUMPDEST SWAP8 POP PUSH2 0x1208 DUP4 PUSH2 0x11B9 JUMP JUMPDEST SWAP3 POP POP PUSH1 0x1 DUP2 ADD SWAP1 POP PUSH2 0x11E1 JUMP JUMPDEST POP DUP6 SWAP3 POP POP POP SWAP4 SWAP3 POP POP POP JUMP JUMPDEST PUSH1 0x0 PUSH1 0x80 DUP3 ADD SWAP1 POP DUP2 DUP2 SUB PUSH1 0x0 DUP4 ADD MSTORE PUSH2 0x123D DUP2 DUP9 PUSH2 0x10F6 JUMP JUMPDEST SWAP1 POP PUSH2 0x124C PUSH1 0x20 DUP4 ADD DUP8 PUSH2 0xBA7 JUMP JUMPDEST PUSH2 0x1259 PUSH1 0x40 DUP4 ADD DUP7 PUSH2 0xBA7 JUMP JUMPDEST DUP2 DUP2 SUB PUSH1 0x60 DUP4 ADD MSTORE PUSH2 0x126C DUP2 DUP5 DUP7 PUSH2 0x11C6 JUMP JUMPDEST SWAP1 POP SWAP7 SWAP6 POP POP POP POP POP POP JUMP JUMPDEST PUSH1 0x0 PUSH1 0x20 DUP3 ADD SWAP1 POP DUP2 DUP2 SUB PUSH1 0x0 DUP4 ADD MSTORE PUSH2 0x1293 DUP2 DUP5 DUP7 PUSH2 0xC74 JUMP JUMPDEST SWAP1 POP SWAP4 SWAP3 POP POP POP JUMP INVALID LOG2 PUSH5 0x6970667358 0x22 SLT KECCAK256 GT NOT 0xD2 SIGNEXTEND 0x2B 0x2A 0x21 SELFBALANCE 0xED LOG3 0xB8 0xBB 0xA5 0xD GAS 0xD0 0xE1 0x4E PUSH18 0x4017FB3ED0BFDE6EC7272087664736F6C63 NUMBER STOP ADDMOD 0xC STOP CALLER "
        },
        "methodIdentifiers": {
          "createFrameWithSource(address,(string,string,address,address)[],bytes[],address,uint256[4][],string)": "789b9b45",
          "libraryAddress()": "b816f513",
          "setLibraryAddress(address)": "4863ba17"
        }
      }
    }
  }
}