{"src/contracts/FrameDeployer.sol":{"FrameDeployer":{"abi":[{"inputs":[{"internalType":"address","name":"_scriptyStorage","type":"address"},{"internalType":"address","name":"_frame","type":"address"},{"internalType":"address","name":"_scriptyBuilder","type":"address"}],"stateMutability":"nonpayable","type":"constructor"},{"anonymous":false,"inputs":[{"indexed":false,"internalType":"address","name":"newAddress","type":"address"}],"name":"FrameCreated","type":"event"},{"inputs":[{"components":[{"internalType":"string","name":"name","type":"string"},{"internalType":"string","name":"description","type":"string"},{"internalType":"string","name":"symbol","type":"string"}],"internalType":"struct FrameMetadata","name":"_metadata","type":"tuple"},{"internalType":"uint256","name":"_bufferSize","type":"uint256"},{"components":[{"internalType":"string","name":"name","type":"string"},{"internalType":"address","name":"contractAddress","type":"address"},{"internalType":"bytes","name":"contractData","type":"bytes"},{"internalType":"uint8","name":"wrapType","type":"uint8"},{"internalType":"bytes","name":"wrapPrefix","type":"bytes"},{"internalType":"bytes","name":"wrapSuffix","type":"bytes"},{"internalType":"bytes","name":"scriptContent","type":"bytes"}],"internalType":"struct WrappedScriptRequest[]","name":"_requests","type":"tuple[]"}],"name":"createFrame","outputs":[{"internalType":"address","name":"","type":"address"}],"stateMutability":"nonpayable","type":"function"},{"inputs":[{"components":[{"internalType":"string","name":"name","type":"string"},{"internalType":"string","name":"description","type":"string"},{"internalType":"string","name":"symbol","type":"string"}],"internalType":"struct FrameMetadata","name":"_metadata","type":"tuple"},{"internalType":"uint256","name":"_bufferSize","type":"uint256"},{"components":[{"internalType":"string","name":"name","type":"string"},{"internalType":"bytes","name":"contractData","type":"bytes"},{"internalType":"uint8","name":"wrapType","type":"uint8"},{"internalType":"bytes","name":"wrapPrefix","type":"bytes"},{"internalType":"bytes","name":"wrapSuffix","type":"bytes"},{"internalType":"bytes","name":"scriptContent","type":"bytes"}],"internalType":"struct EmptyWrappedScriptRequest","name":"_sourceRequest","type":"tuple"},{"components":[{"internalType":"string","name":"name","type":"string"},{"internalType":"address","name":"contractAddress","type":"address"},{"internalType":"bytes","name":"contractData","type":"bytes"},{"internalType":"uint8","name":"wrapType","type":"uint8"},{"internalType":"bytes","name":"wrapPrefix","type":"bytes"},{"internalType":"bytes","name":"wrapSuffix","type":"bytes"},{"internalType":"bytes","name":"scriptContent","type":"bytes"}],"internalType":"struct WrappedScriptRequest[]","name":"_requests","type":"tuple[]"}],"name":"createFrameWithStorage","outputs":[{"internalType":"address","name":"","type":"address"}],"stateMutability":"nonpayable","type":"function"},{"inputs":[],"name":"frameFactory","outputs":[{"internalType":"address","name":"","type":"address"}],"stateMutability":"view","type":"function"},{"inputs":[],"name":"scriptyBuilder","outputs":[{"internalType":"address","name":"","type":"address"}],"stateMutability":"view","type":"function"},{"inputs":[],"name":"scriptyStorageFactory","outputs":[{"internalType":"address","name":"","type":"address"}],"stateMutability":"view","type":"function"}],"evm":{"bytecode":{"linkReferences":{},"object":"60e06040523480156200001157600080fd5b5060405162001d0038038062001d00833981810160405281019062000037919062000146565b8273ffffffffffffffffffffffffffffffffffffffff1660808173ffffffffffffffffffffffffffffffffffffffff16815250508173ffffffffffffffffffffffffffffffffffffffff1660a08173ffffffffffffffffffffffffffffffffffffffff16815250508073ffffffffffffffffffffffffffffffffffffffff1660c08173ffffffffffffffffffffffffffffffffffffffff1681525050505050620001a2565b600080fd5b600073ffffffffffffffffffffffffffffffffffffffff82169050919050565b60006200010e82620000e1565b9050919050565b620001208162000101565b81146200012c57600080fd5b50565b600081519050620001408162000115565b92915050565b600080600060608486031215620001625762000161620000dc565b5b600062000172868287016200012f565b935050602062000185868287016200012f565b925050604062000198868287016200012f565b9150509250925092565b60805160a05160c051611b0b620001f560003960008181610118015281816106e201526108bb01526000818161013c01528181610335015261080b01526000818161016001526101870152611b0b6000f3fe608060405234801561001057600080fd5b50600436106100575760003560e01c806391a0d36d1461005c578063954bf4d11461007a57806396ed95d8146100985780639e76ea07146100b6578063de6e8502146100e6575b600080fd5b610064610116565b6040516100719190610a74565b60405180910390f35b61008261013a565b60405161008f9190610a74565b60405180910390f35b6100a061015e565b6040516100ad9190610a74565b60405180910390f35b6100d060048036038101906100cb9190610b81565b610182565b6040516100dd9190610a74565b60405180910390f35b61010060048036038101906100fb9190610c41565b610806565b60405161010d9190610a74565b60405180910390f35b7f000000000000000000000000000000000000000000000000000000000000000081565b7f000000000000000000000000000000000000000000000000000000000000000081565b7f000000000000000000000000000000000000000000000000000000000000000081565b6000807f000000000000000000000000000000000000000000000000000000000000000073ffffffffffffffffffffffffffffffffffffffff1663efc81a8c6040518163ffffffff1660e01b81526004016020604051808303816000875af11580156101f2573d6000803e3d6000fd5b505050506040513d601f19601f820116820180604052508101906102169190610cfd565b90508073ffffffffffffffffffffffffffffffffffffffff16638652d6698680600001906102449190610d39565b604051806020016040528060008152506040518463ffffffff1660e01b815260040161027293929190610e79565b600060405180830381600087803b15801561028c57600080fd5b505af11580156102a0573d6000803e3d6000fd5b505050508073ffffffffffffffffffffffffffffffffffffffff16633b7aa8d98680600001906102d09190610d39565b888060a001906102e09190610eb2565b6040518563ffffffff1660e01b81526004016102ff9493929190610f42565b600060405180830381600087803b15801561031957600080fd5b505af115801561032d573d6000803e3d6000fd5b5050505060007f000000000000000000000000000000000000000000000000000000000000000073ffffffffffffffffffffffffffffffffffffffff1663efc81a8c6040518163ffffffff1660e01b81526004016020604051808303816000875af11580156103a0573d6000803e3d6000fd5b505050506040513d601f19601f820116820180604052508101906103c49190610cfd565b905060006001868690506103d89190610fac565b905060008167ffffffffffffffff8111156103f6576103f5610fe0565b5b60405190808252806020026020018201604052801561042f57816020015b61041c6109dd565b8152602001906001900390816104145790505b50905060005b8787905081101561049f578787828181106104535761045261100f565b5b9050602002810190610465919061103e565b61046e90611391565b8282815181106104815761048061100f565b5b60200260200101819052508080610497906113a4565b915050610435565b506040518060e001604052808980600001906104bb9190610d39565b8080601f016020809104026020016040519081016040528093929190818152602001838380828437600081840152601f19601f8201169050808301925050505050505081526020018573ffffffffffffffffffffffffffffffffffffffff16815260200189806020019061052f9190610eb2565b8080601f016020809104026020016040519081016040528093929190818152602001838380828437600081840152601f19601f82011690508083019250505050505050815260200189604001602081019061058a91906113ec565b60ff1681526020018980606001906105a29190610eb2565b8080601f016020809104026020016040519081016040528093929190818152602001838380828437600081840152601f19601f8201169050808301925050505050505081526020018980608001906105fa9190610eb2565b8080601f016020809104026020016040519081016040528093929190818152602001838380828437600081840152601f19601f820116905080830192505050505050508152602001898060a001906106529190610eb2565b8080601f016020809104026020016040519081016040528093929190818152602001838380828437600081840152601f19601f8201169050808301925050505050505081525081600183516106a79190611419565b815181106106b8576106b761100f565b5b60200260200101819052508273ffffffffffffffffffffffffffffffffffffffff1663b11492238b7f00000000000000000000000000000000000000000000000000000000000000008c856040518563ffffffff1660e01b815260040161072294939291906117ae565b600060405180830381600087803b15801561073c57600080fd5b505af1158015610750573d6000803e3d6000fd5b505050508273ffffffffffffffffffffffffffffffffffffffff1663a50d81c7336040518263ffffffff1660e01b815260040161078d9190610a74565b600060405180830381600087803b1580156107a757600080fd5b505af11580156107bb573d6000803e3d6000fd5b505050507f62392641265fcc5a6a8128fd39634480ffe377e76dc54dcad335e1289fcc0fd5836040516107ee9190610a74565b60405180910390a18294505050505095945050505050565b6000807f000000000000000000000000000000000000000000000000000000000000000073ffffffffffffffffffffffffffffffffffffffff1663efc81a8c6040518163ffffffff1660e01b81526004016020604051808303816000875af1158015610876573d6000803e3d6000fd5b505050506040513d601f19601f8201168201806040525081019061089a9190610cfd565b90508073ffffffffffffffffffffffffffffffffffffffff1663b1149223877f00000000000000000000000000000000000000000000000000000000000000008888886040518663ffffffff1660e01b81526004016108fd959493929190611a80565b600060405180830381600087803b15801561091757600080fd5b505af115801561092b573d6000803e3d6000fd5b505050508073ffffffffffffffffffffffffffffffffffffffff1663a50d81c7336040518263ffffffff1660e01b81526004016109689190610a74565b600060405180830381600087803b15801561098257600080fd5b505af1158015610996573d6000803e3d6000fd5b505050507f62392641265fcc5a6a8128fd39634480ffe377e76dc54dcad335e1289fcc0fd5816040516109c99190610a74565b60405180910390a180915050949350505050565b6040518060e0016040528060608152602001600073ffffffffffffffffffffffffffffffffffffffff16815260200160608152602001600060ff1681526020016060815260200160608152602001606081525090565b600073ffffffffffffffffffffffffffffffffffffffff82169050919050565b6000610a5e82610a33565b9050919050565b610a6e81610a53565b82525050565b6000602082019050610a896000830184610a65565b92915050565b6000604051905090565b600080fd5b600080fd5b600080fd5b600060608284031215610abe57610abd610aa3565b5b81905092915050565b6000819050919050565b610ada81610ac7565b8114610ae557600080fd5b50565b600081359050610af781610ad1565b92915050565b600060c08284031215610b1357610b12610aa3565b5b81905092915050565b600080fd5b600080fd5b600080fd5b60008083601f840112610b4157610b40610b1c565b5b8235905067ffffffffffffffff811115610b5e57610b5d610b21565b5b602083019150836020820283011115610b7a57610b79610b26565b5b9250929050565b600080600080600060808688031215610b9d57610b9c610a99565b5b600086013567ffffffffffffffff811115610bbb57610bba610a9e565b5b610bc788828901610aa8565b9550506020610bd888828901610ae8565b945050604086013567ffffffffffffffff811115610bf957610bf8610a9e565b5b610c0588828901610afd565b935050606086013567ffffffffffffffff811115610c2657610c25610a9e565b5b610c3288828901610b2b565b92509250509295509295909350565b60008060008060608587031215610c5b57610c5a610a99565b5b600085013567ffffffffffffffff811115610c7957610c78610a9e565b5b610c8587828801610aa8565b9450506020610c9687828801610ae8565b935050604085013567ffffffffffffffff811115610cb757610cb6610a9e565b5b610cc387828801610b2b565b925092505092959194509250565b610cda81610a53565b8114610ce557600080fd5b50565b600081519050610cf781610cd1565b92915050565b600060208284031215610d1357610d12610a99565b5b6000610d2184828501610ce8565b91505092915050565b600080fd5b600080fd5b600080fd5b60008083356001602003843603038112610d5657610d55610d2a565b5b80840192508235915067ffffffffffffffff821115610d7857610d77610d2f565b5b602083019250600182023603831315610d9457610d93610d34565b5b509250929050565b600082825260208201905092915050565b82818337600083830152505050565b6000601f19601f8301169050919050565b6000610dd98385610d9c565b9350610de6838584610dad565b610def83610dbc565b840190509392505050565b600081519050919050565b600082825260208201905092915050565b60005b83811015610e34578082015181840152602081019050610e19565b60008484015250505050565b6000610e4b82610dfa565b610e558185610e05565b9350610e65818560208601610e16565b610e6e81610dbc565b840191505092915050565b60006040820190508181036000830152610e94818587610dcd565b90508181036020830152610ea88184610e40565b9050949350505050565b60008083356001602003843603038112610ecf57610ece610d2a565b5b80840192508235915067ffffffffffffffff821115610ef157610ef0610d2f565b5b602083019250600182023603831315610f0d57610f0c610d34565b5b509250929050565b6000610f218385610e05565b9350610f2e838584610dad565b610f3783610dbc565b840190509392505050565b60006040820190508181036000830152610f5d818688610dcd565b90508181036020830152610f72818486610f15565b905095945050505050565b7f4e487b7100000000000000000000000000000000000000000000000000000000600052601160045260246000fd5b6000610fb782610ac7565b9150610fc283610ac7565b9250828201905080821115610fda57610fd9610f7d565b5b92915050565b7f4e487b7100000000000000000000000000000000000000000000000000000000600052604160045260246000fd5b7f4e487b7100000000000000000000000000000000000000000000000000000000600052603260045260246000fd5b60008235600160e00383360303811261105a57611059610d2a565b5b80830191505092915050565b600080fd5b61107482610dbc565b810181811067ffffffffffffffff8211171561109357611092610fe0565b5b80604052505050565b60006110a6610a8f565b90506110b2828261106b565b919050565b600080fd5b600080fd5b600067ffffffffffffffff8211156110dc576110db610fe0565b5b6110e582610dbc565b9050602081019050919050565b6000611105611100846110c1565b61109c565b905082815260208101848484011115611121576111206110bc565b5b61112c848285610dad565b509392505050565b600082601f83011261114957611148610b1c565b5b81356111598482602086016110f2565b91505092915050565b60008135905061117181610cd1565b92915050565b600067ffffffffffffffff82111561119257611191610fe0565b5b61119b82610dbc565b9050602081019050919050565b60006111bb6111b684611177565b61109c565b9050828152602081018484840111156111d7576111d66110bc565b5b6111e2848285610dad565b509392505050565b600082601f8301126111ff576111fe610b1c565b5b813561120f8482602086016111a8565b91505092915050565b600060ff82169050919050565b61122e81611218565b811461123957600080fd5b50565b60008135905061124b81611225565b92915050565b600060e0828403121561126757611266611066565b5b61127160e061109c565b9050600082013567ffffffffffffffff811115611291576112906110b7565b5b61129d84828501611134565b60008301525060206112b184828501611162565b602083015250604082013567ffffffffffffffff8111156112d5576112d46110b7565b5b6112e1848285016111ea565b60408301525060606112f58482850161123c565b606083015250608082013567ffffffffffffffff811115611319576113186110b7565b5b611325848285016111ea565b60808301525060a082013567ffffffffffffffff811115611349576113486110b7565b5b611355848285016111ea565b60a08301525060c082013567ffffffffffffffff811115611379576113786110b7565b5b611385848285016111ea565b60c08301525092915050565b600061139d3683611251565b9050919050565b60006113af82610ac7565b91507fffffffffffffffffffffffffffffffffffffffffffffffffffffffffffffffff82036113e1576113e0610f7d565b5b600182019050919050565b60006020828403121561140257611401610a99565b5b60006114108482850161123c565b91505092915050565b600061142482610ac7565b915061142f83610ac7565b925082820390508181111561144757611446610f7d565b5b92915050565b600080fd5b600080fd5b600080fd5b6000808335600160200384360303811261147957611478611457565b5b83810192508235915060208301925067ffffffffffffffff8211156114a1576114a061144d565b5b6001820236038313156114b7576114b6611452565b5b509250929050565b600082825260208201905092915050565b60006114dc83856114bf565b93506114e9838584610dad565b6114f283610dbc565b840190509392505050565b600060608301611510600084018461145c565b85830360008701526115238382846114d0565b92505050611534602084018461145c565b85830360208701526115478382846114d0565b92505050611558604084018461145c565b858303604087015261156b8382846114d0565b925050508091505092915050565b61158281610ac7565b82525050565b600081519050919050565b600082825260208201905092915050565b6000819050602082019050919050565b600081519050919050565b60006115ca826115b4565b6115d481856114bf565b93506115e4818560208601610e16565b6115ed81610dbc565b840191505092915050565b61160181610a53565b82525050565b600082825260208201905092915050565b600061162382610dfa565b61162d8185611607565b935061163d818560208601610e16565b61164681610dbc565b840191505092915050565b61165a81611218565b82525050565b600060e083016000830151848203600086015261167d82826115bf565b915050602083015161169260208601826115f8565b50604083015184820360408601526116aa8282611618565b91505060608301516116bf6060860182611651565b50608083015184820360808601526116d78282611618565b91505060a083015184820360a08601526116f18282611618565b91505060c083015184820360c086015261170b8282611618565b9150508091505092915050565b60006117248383611660565b905092915050565b6000602082019050919050565b600061174482611588565b61174e8185611593565b935083602082028501611760856115a4565b8060005b8581101561179c578484038952815161177d8582611718565b94506117888361172c565b925060208a01995050600181019050611764565b50829750879550505050505092915050565b600060808201905081810360008301526117c881876114fd565b90506117d76020830186610a65565b6117e46040830185611579565b81810360608301526117f68184611739565b905095945050505050565b6000819050919050565b600061181a6020840184611162565b905092915050565b6000808335600160200384360303811261183f5761183e611457565b5b83810192508235915060208301925067ffffffffffffffff8211156118675761186661144d565b5b60018202360383131561187d5761187c611452565b5b509250929050565b60006118918385611607565b935061189e838584610dad565b6118a783610dbc565b840190509392505050565b60006118c1602084018461123c565b905092915050565b600060e083016118dc600084018461145c565b85830360008701526118ef8382846114d0565b92505050611900602084018461180b565b61190d60208601826115f8565b5061191b6040840184611822565b858303604087015261192e838284611885565b9250505061193f60608401846118b2565b61194c6060860182611651565b5061195a6080840184611822565b858303608087015261196d838284611885565b9250505061197e60a0840184611822565b85830360a0870152611991838284611885565b925050506119a260c0840184611822565b85830360c08701526119b5838284611885565b925050508091505092915050565b60006119cf83836118c9565b905092915050565b60008235600160e0038336030381126119f3576119f2611457565b5b82810191505092915050565b6000602082019050919050565b6000611a188385611593565b935083602084028501611a2a84611801565b8060005b87811015611a6e578484038952611a4582846119d7565b611a4f85826119c3565b9450611a5a836119ff565b925060208a01995050600181019050611a2e565b50829750879450505050509392505050565b60006080820190508181036000830152611a9a81886114fd565b9050611aa96020830187610a65565b611ab66040830186611579565b8181036060830152611ac9818486611a0c565b9050969550505050505056fea264697066735822122029cebe39598ed8718ca3b2c28414dd23f2e721461a8a673d4ae8bf09e5c11c2964736f6c63430008110033","opcodes":"PUSH1 0xE0 PUSH1 0x40 MSTORE CALLVALUE DUP1 ISZERO PUSH3 0x11 JUMPI PUSH1 0x0 DUP1 REVERT JUMPDEST POP PUSH1 0x40 MLOAD PUSH3 0x1D00 CODESIZE SUB DUP1 PUSH3 0x1D00 DUP4 CODECOPY DUP2 DUP2 ADD PUSH1 0x40 MSTORE DUP2 ADD SWAP1 PUSH3 0x37 SWAP2 SWAP1 PUSH3 0x146 JUMP JUMPDEST DUP3 PUSH20 0xFFFFFFFFFFFFFFFFFFFFFFFFFFFFFFFFFFFFFFFF AND PUSH1 0x80 DUP2 PUSH20 0xFFFFFFFFFFFFFFFFFFFFFFFFFFFFFFFFFFFFFFFF AND DUP2 MSTORE POP POP DUP2 PUSH20 0xFFFFFFFFFFFFFFFFFFFFFFFFFFFFFFFFFFFFFFFF AND PUSH1 0xA0 DUP2 PUSH20 0xFFFFFFFFFFFFFFFFFFFFFFFFFFFFFFFFFFFFFFFF AND DUP2 MSTORE POP POP DUP1 PUSH20 0xFFFFFFFFFFFFFFFFFFFFFFFFFFFFFFFFFFFFFFFF AND PUSH1 0xC0 DUP2 PUSH20 0xFFFFFFFFFFFFFFFFFFFFFFFFFFFFFFFFFFFFFFFF AND DUP2 MSTORE POP POP POP POP POP PUSH3 0x1A2 JUMP JUMPDEST PUSH1 0x0 DUP1 REVERT JUMPDEST PUSH1 0x0 PUSH20 0xFFFFFFFFFFFFFFFFFFFFFFFFFFFFFFFFFFFFFFFF DUP3 AND SWAP1 POP SWAP2 SWAP1 POP JUMP JUMPDEST PUSH1 0x0 PUSH3 0x10E DUP3 PUSH3 0xE1 JUMP JUMPDEST SWAP1 POP SWAP2 SWAP1 POP JUMP JUMPDEST PUSH3 0x120 DUP2 PUSH3 0x101 JUMP JUMPDEST DUP2 EQ PUSH3 0x12C JUMPI PUSH1 0x0 DUP1 REVERT JUMPDEST POP JUMP JUMPDEST PUSH1 0x0 DUP2 MLOAD SWAP1 POP PUSH3 0x140 DUP2 PUSH3 0x115 JUMP JUMPDEST SWAP3 SWAP2 POP POP JUMP JUMPDEST PUSH1 0x0 DUP1 PUSH1 0x0 PUSH1 0x60 DUP5 DUP7 SUB SLT ISZERO PUSH3 0x162 JUMPI PUSH3 0x161 PUSH3 0xDC JUMP JUMPDEST JUMPDEST PUSH1 0x0 PUSH3 0x172 DUP7 DUP3 DUP8 ADD PUSH3 0x12F JUMP JUMPDEST SWAP4 POP POP PUSH1 0x20 PUSH3 0x185 DUP7 DUP3 DUP8 ADD PUSH3 0x12F JUMP JUMPDEST SWAP3 POP POP PUSH1 0x40 PUSH3 0x198 DUP7 DUP3 DUP8 ADD PUSH3 0x12F JUMP JUMPDEST SWAP2 POP POP SWAP3 POP SWAP3 POP SWAP3 JUMP JUMPDEST PUSH1 0x80 MLOAD PUSH1 0xA0 MLOAD PUSH1 0xC0 MLOAD PUSH2 0x1B0B PUSH3 0x1F5 PUSH1 0x0 CODECOPY PUSH1 0x0 DUP2 DUP2 PUSH2 0x118 ADD MSTORE DUP2 DUP2 PUSH2 0x6E2 ADD MSTORE PUSH2 0x8BB ADD MSTORE PUSH1 0x0 DUP2 DUP2 PUSH2 0x13C ADD MSTORE DUP2 DUP2 PUSH2 0x335 ADD MSTORE PUSH2 0x80B ADD MSTORE PUSH1 0x0 DUP2 DUP2 PUSH2 0x160 ADD MSTORE PUSH2 0x187 ADD MSTORE PUSH2 0x1B0B PUSH1 0x0 RETURN INVALID PUSH1 0x80 PUSH1 0x40 MSTORE CALLVALUE DUP1 ISZERO PUSH2 0x10 JUMPI PUSH1 0x0 DUP1 REVERT JUMPDEST POP PUSH1 0x4 CALLDATASIZE LT PUSH2 0x57 JUMPI PUSH1 0x0 CALLDATALOAD PUSH1 0xE0 SHR DUP1 PUSH4 0x91A0D36D EQ PUSH2 0x5C JUMPI DUP1 PUSH4 0x954BF4D1 EQ PUSH2 0x7A JUMPI DUP1 PUSH4 0x96ED95D8 EQ PUSH2 0x98 JUMPI DUP1 PUSH4 0x9E76EA07 EQ PUSH2 0xB6 JUMPI DUP1 PUSH4 0xDE6E8502 EQ PUSH2 0xE6 JUMPI JUMPDEST PUSH1 0x0 DUP1 REVERT JUMPDEST PUSH2 0x64 PUSH2 0x116 JUMP JUMPDEST PUSH1 0x40 MLOAD PUSH2 0x71 SWAP2 SWAP1 PUSH2 0xA74 JUMP JUMPDEST PUSH1 0x40 MLOAD DUP1 SWAP2 SUB SWAP1 RETURN JUMPDEST PUSH2 0x82 PUSH2 0x13A JUMP JUMPDEST PUSH1 0x40 MLOAD PUSH2 0x8F SWAP2 SWAP1 PUSH2 0xA74 JUMP JUMPDEST PUSH1 0x40 MLOAD DUP1 SWAP2 SUB SWAP1 RETURN JUMPDEST PUSH2 0xA0 PUSH2 0x15E JUMP JUMPDEST PUSH1 0x40 MLOAD PUSH2 0xAD SWAP2 SWAP1 PUSH2 0xA74 JUMP JUMPDEST PUSH1 0x40 MLOAD DUP1 SWAP2 SUB SWAP1 RETURN JUMPDEST PUSH2 0xD0 PUSH1 0x4 DUP1 CALLDATASIZE SUB DUP2 ADD SWAP1 PUSH2 0xCB SWAP2 SWAP1 PUSH2 0xB81 JUMP JUMPDEST PUSH2 0x182 JUMP JUMPDEST PUSH1 0x40 MLOAD PUSH2 0xDD SWAP2 SWAP1 PUSH2 0xA74 JUMP JUMPDEST PUSH1 0x40 MLOAD DUP1 SWAP2 SUB SWAP1 RETURN JUMPDEST PUSH2 0x100 PUSH1 0x4 DUP1 CALLDATASIZE SUB DUP2 ADD SWAP1 PUSH2 0xFB SWAP2 SWAP1 PUSH2 0xC41 JUMP JUMPDEST PUSH2 0x806 JUMP JUMPDEST PUSH1 0x40 MLOAD PUSH2 0x10D SWAP2 SWAP1 PUSH2 0xA74 JUMP JUMPDEST PUSH1 0x40 MLOAD DUP1 SWAP2 SUB SWAP1 RETURN JUMPDEST PUSH32 0x0 DUP2 JUMP JUMPDEST PUSH32 0x0 DUP2 JUMP JUMPDEST PUSH32 0x0 DUP2 JUMP JUMPDEST PUSH1 0x0 DUP1 PUSH32 0x0 PUSH20 0xFFFFFFFFFFFFFFFFFFFFFFFFFFFFFFFFFFFFFFFF AND PUSH4 0xEFC81A8C PUSH1 0x40 MLOAD DUP2 PUSH4 0xFFFFFFFF AND PUSH1 0xE0 SHL DUP2 MSTORE PUSH1 0x4 ADD PUSH1 0x20 PUSH1 0x40 MLOAD DUP1 DUP4 SUB DUP2 PUSH1 0x0 DUP8 GAS CALL ISZERO DUP1 ISZERO PUSH2 0x1F2 JUMPI RETURNDATASIZE PUSH1 0x0 DUP1 RETURNDATACOPY RETURNDATASIZE PUSH1 0x0 REVERT JUMPDEST POP POP POP POP PUSH1 0x40 MLOAD RETURNDATASIZE PUSH1 0x1F NOT PUSH1 0x1F DUP3 ADD AND DUP3 ADD DUP1 PUSH1 0x40 MSTORE POP DUP2 ADD SWAP1 PUSH2 0x216 SWAP2 SWAP1 PUSH2 0xCFD JUMP JUMPDEST SWAP1 POP DUP1 PUSH20 0xFFFFFFFFFFFFFFFFFFFFFFFFFFFFFFFFFFFFFFFF AND PUSH4 0x8652D669 DUP7 DUP1 PUSH1 0x0 ADD SWAP1 PUSH2 0x244 SWAP2 SWAP1 PUSH2 0xD39 JUMP JUMPDEST PUSH1 0x40 MLOAD DUP1 PUSH1 0x20 ADD PUSH1 0x40 MSTORE DUP1 PUSH1 0x0 DUP2 MSTORE POP PUSH1 0x40 MLOAD DUP5 PUSH4 0xFFFFFFFF AND PUSH1 0xE0 SHL DUP2 MSTORE PUSH1 0x4 ADD PUSH2 0x272 SWAP4 SWAP3 SWAP2 SWAP1 PUSH2 0xE79 JUMP JUMPDEST PUSH1 0x0 PUSH1 0x40 MLOAD DUP1 DUP4 SUB DUP2 PUSH1 0x0 DUP8 DUP1 EXTCODESIZE ISZERO DUP1 ISZERO PUSH2 0x28C JUMPI PUSH1 0x0 DUP1 REVERT JUMPDEST POP GAS CALL ISZERO DUP1 ISZERO PUSH2 0x2A0 JUMPI RETURNDATASIZE PUSH1 0x0 DUP1 RETURNDATACOPY RETURNDATASIZE PUSH1 0x0 REVERT JUMPDEST POP POP POP POP DUP1 PUSH20 0xFFFFFFFFFFFFFFFFFFFFFFFFFFFFFFFFFFFFFFFF AND PUSH4 0x3B7AA8D9 DUP7 DUP1 PUSH1 0x0 ADD SWAP1 PUSH2 0x2D0 SWAP2 SWAP1 PUSH2 0xD39 JUMP JUMPDEST DUP9 DUP1 PUSH1 0xA0 ADD SWAP1 PUSH2 0x2E0 SWAP2 SWAP1 PUSH2 0xEB2 JUMP JUMPDEST PUSH1 0x40 MLOAD DUP6 PUSH4 0xFFFFFFFF AND PUSH1 0xE0 SHL DUP2 MSTORE PUSH1 0x4 ADD PUSH2 0x2FF SWAP5 SWAP4 SWAP3 SWAP2 SWAP1 PUSH2 0xF42 JUMP JUMPDEST PUSH1 0x0 PUSH1 0x40 MLOAD DUP1 DUP4 SUB DUP2 PUSH1 0x0 DUP8 DUP1 EXTCODESIZE ISZERO DUP1 ISZERO PUSH2 0x319 JUMPI PUSH1 0x0 DUP1 REVERT JUMPDEST POP GAS CALL ISZERO DUP1 ISZERO PUSH2 0x32D JUMPI RETURNDATASIZE PUSH1 0x0 DUP1 RETURNDATACOPY RETURNDATASIZE PUSH1 0x0 REVERT JUMPDEST POP POP POP POP PUSH1 0x0 PUSH32 0x0 PUSH20 0xFFFFFFFFFFFFFFFFFFFFFFFFFFFFFFFFFFFFFFFF AND PUSH4 0xEFC81A8C PUSH1 0x40 MLOAD DUP2 PUSH4 0xFFFFFFFF AND PUSH1 0xE0 SHL DUP2 MSTORE PUSH1 0x4 ADD PUSH1 0x20 PUSH1 0x40 MLOAD DUP1 DUP4 SUB DUP2 PUSH1 0x0 DUP8 GAS CALL ISZERO DUP1 ISZERO PUSH2 0x3A0 JUMPI RETURNDATASIZE PUSH1 0x0 DUP1 RETURNDATACOPY RETURNDATASIZE PUSH1 0x0 REVERT JUMPDEST POP POP POP POP PUSH1 0x40 MLOAD RETURNDATASIZE PUSH1 0x1F NOT PUSH1 0x1F DUP3 ADD AND DUP3 ADD DUP1 PUSH1 0x40 MSTORE POP DUP2 ADD SWAP1 PUSH2 0x3C4 SWAP2 SWAP1 PUSH2 0xCFD JUMP JUMPDEST SWAP1 POP PUSH1 0x0 PUSH1 0x1 DUP7 DUP7 SWAP1 POP PUSH2 0x3D8 SWAP2 SWAP1 PUSH2 0xFAC JUMP JUMPDEST SWAP1 POP PUSH1 0x0 DUP2 PUSH8 0xFFFFFFFFFFFFFFFF DUP2 GT ISZERO PUSH2 0x3F6 JUMPI PUSH2 0x3F5 PUSH2 0xFE0 JUMP JUMPDEST JUMPDEST PUSH1 0x40 MLOAD SWAP1 DUP1 DUP3 MSTORE DUP1 PUSH1 0x20 MUL PUSH1 0x20 ADD DUP3 ADD PUSH1 0x40 MSTORE DUP1 ISZERO PUSH2 0x42F JUMPI DUP2 PUSH1 0x20 ADD JUMPDEST PUSH2 0x41C PUSH2 0x9DD JUMP JUMPDEST DUP2 MSTORE PUSH1 0x20 ADD SWAP1 PUSH1 0x1 SWAP1 SUB SWAP1 DUP2 PUSH2 0x414 JUMPI SWAP1 POP JUMPDEST POP SWAP1 POP PUSH1 0x0 JUMPDEST DUP8 DUP8 SWAP1 POP DUP2 LT ISZERO PUSH2 0x49F JUMPI DUP8 DUP8 DUP3 DUP2 DUP2 LT PUSH2 0x453 JUMPI PUSH2 0x452 PUSH2 0x100F JUMP JUMPDEST JUMPDEST SWAP1 POP PUSH1 0x20 MUL DUP2 ADD SWAP1 PUSH2 0x465 SWAP2 SWAP1 PUSH2 0x103E JUMP JUMPDEST PUSH2 0x46E SWAP1 PUSH2 0x1391 JUMP JUMPDEST DUP3 DUP3 DUP2 MLOAD DUP2 LT PUSH2 0x481 JUMPI PUSH2 0x480 PUSH2 0x100F JUMP JUMPDEST JUMPDEST PUSH1 0x20 MUL PUSH1 0x20 ADD ADD DUP2 SWAP1 MSTORE POP DUP1 DUP1 PUSH2 0x497 SWAP1 PUSH2 0x13A4 JUMP JUMPDEST SWAP2 POP POP PUSH2 0x435 JUMP JUMPDEST POP PUSH1 0x40 MLOAD DUP1 PUSH1 0xE0 ADD PUSH1 0x40 MSTORE DUP1 DUP10 DUP1 PUSH1 0x0 ADD SWAP1 PUSH2 0x4BB SWAP2 SWAP1 PUSH2 0xD39 JUMP JUMPDEST DUP1 DUP1 PUSH1 0x1F ADD PUSH1 0x20 DUP1 SWAP2 DIV MUL PUSH1 0x20 ADD PUSH1 0x40 MLOAD SWAP1 DUP2 ADD PUSH1 0x40 MSTORE DUP1 SWAP4 SWAP3 SWAP2 SWAP1 DUP2 DUP2 MSTORE PUSH1 0x20 ADD DUP4 DUP4 DUP1 DUP3 DUP5 CALLDATACOPY PUSH1 0x0 DUP2 DUP5 ADD MSTORE PUSH1 0x1F NOT PUSH1 0x1F DUP3 ADD AND SWAP1 POP DUP1 DUP4 ADD SWAP3 POP POP POP POP POP POP POP DUP2 MSTORE PUSH1 0x20 ADD DUP6 PUSH20 0xFFFFFFFFFFFFFFFFFFFFFFFFFFFFFFFFFFFFFFFF AND DUP2 MSTORE PUSH1 0x20 ADD DUP10 DUP1 PUSH1 0x20 ADD SWAP1 PUSH2 0x52F SWAP2 SWAP1 PUSH2 0xEB2 JUMP JUMPDEST DUP1 DUP1 PUSH1 0x1F ADD PUSH1 0x20 DUP1 SWAP2 DIV MUL PUSH1 0x20 ADD PUSH1 0x40 MLOAD SWAP1 DUP2 ADD PUSH1 0x40 MSTORE DUP1 SWAP4 SWAP3 SWAP2 SWAP1 DUP2 DUP2 MSTORE PUSH1 0x20 ADD DUP4 DUP4 DUP1 DUP3 DUP5 CALLDATACOPY PUSH1 0x0 DUP2 DUP5 ADD MSTORE PUSH1 0x1F NOT PUSH1 0x1F DUP3 ADD AND SWAP1 POP DUP1 DUP4 ADD SWAP3 POP POP POP POP POP POP POP DUP2 MSTORE PUSH1 0x20 ADD DUP10 PUSH1 0x40 ADD PUSH1 0x20 DUP2 ADD SWAP1 PUSH2 0x58A SWAP2 SWAP1 PUSH2 0x13EC JUMP JUMPDEST PUSH1 0xFF AND DUP2 MSTORE PUSH1 0x20 ADD DUP10 DUP1 PUSH1 0x60 ADD SWAP1 PUSH2 0x5A2 SWAP2 SWAP1 PUSH2 0xEB2 JUMP JUMPDEST DUP1 DUP1 PUSH1 0x1F ADD PUSH1 0x20 DUP1 SWAP2 DIV MUL PUSH1 0x20 ADD PUSH1 0x40 MLOAD SWAP1 DUP2 ADD PUSH1 0x40 MSTORE DUP1 SWAP4 SWAP3 SWAP2 SWAP1 DUP2 DUP2 MSTORE PUSH1 0x20 ADD DUP4 DUP4 DUP1 DUP3 DUP5 CALLDATACOPY PUSH1 0x0 DUP2 DUP5 ADD MSTORE PUSH1 0x1F NOT PUSH1 0x1F DUP3 ADD AND SWAP1 POP DUP1 DUP4 ADD SWAP3 POP POP POP POP POP POP POP DUP2 MSTORE PUSH1 0x20 ADD DUP10 DUP1 PUSH1 0x80 ADD SWAP1 PUSH2 0x5FA SWAP2 SWAP1 PUSH2 0xEB2 JUMP JUMPDEST DUP1 DUP1 PUSH1 0x1F ADD PUSH1 0x20 DUP1 SWAP2 DIV MUL PUSH1 0x20 ADD PUSH1 0x40 MLOAD SWAP1 DUP2 ADD PUSH1 0x40 MSTORE DUP1 SWAP4 SWAP3 SWAP2 SWAP1 DUP2 DUP2 MSTORE PUSH1 0x20 ADD DUP4 DUP4 DUP1 DUP3 DUP5 CALLDATACOPY PUSH1 0x0 DUP2 DUP5 ADD MSTORE PUSH1 0x1F NOT PUSH1 0x1F DUP3 ADD AND SWAP1 POP DUP1 DUP4 ADD SWAP3 POP POP POP POP POP POP POP DUP2 MSTORE PUSH1 0x20 ADD DUP10 DUP1 PUSH1 0xA0 ADD SWAP1 PUSH2 0x652 SWAP2 SWAP1 PUSH2 0xEB2 JUMP JUMPDEST DUP1 DUP1 PUSH1 0x1F ADD PUSH1 0x20 DUP1 SWAP2 DIV MUL PUSH1 0x20 ADD PUSH1 0x40 MLOAD SWAP1 DUP2 ADD PUSH1 0x40 MSTORE DUP1 SWAP4 SWAP3 SWAP2 SWAP1 DUP2 DUP2 MSTORE PUSH1 0x20 ADD DUP4 DUP4 DUP1 DUP3 DUP5 CALLDATACOPY PUSH1 0x0 DUP2 DUP5 ADD MSTORE PUSH1 0x1F NOT PUSH1 0x1F DUP3 ADD AND SWAP1 POP DUP1 DUP4 ADD SWAP3 POP POP POP POP POP POP POP DUP2 MSTORE POP DUP2 PUSH1 0x1 DUP4 MLOAD PUSH2 0x6A7 SWAP2 SWAP1 PUSH2 0x1419 JUMP JUMPDEST DUP2 MLOAD DUP2 LT PUSH2 0x6B8 JUMPI PUSH2 0x6B7 PUSH2 0x100F JUMP JUMPDEST JUMPDEST PUSH1 0x20 MUL PUSH1 0x20 ADD ADD DUP2 SWAP1 MSTORE POP DUP3 PUSH20 0xFFFFFFFFFFFFFFFFFFFFFFFFFFFFFFFFFFFFFFFF AND PUSH4 0xB1149223 DUP12 PUSH32 0x0 DUP13 DUP6 PUSH1 0x40 MLOAD DUP6 PUSH4 0xFFFFFFFF AND PUSH1 0xE0 SHL DUP2 MSTORE PUSH1 0x4 ADD PUSH2 0x722 SWAP5 SWAP4 SWAP3 SWAP2 SWAP1 PUSH2 0x17AE JUMP JUMPDEST PUSH1 0x0 PUSH1 0x40 MLOAD DUP1 DUP4 SUB DUP2 PUSH1 0x0 DUP8 DUP1 EXTCODESIZE ISZERO DUP1 ISZERO PUSH2 0x73C JUMPI PUSH1 0x0 DUP1 REVERT JUMPDEST POP GAS CALL ISZERO DUP1 ISZERO PUSH2 0x750 JUMPI RETURNDATASIZE PUSH1 0x0 DUP1 RETURNDATACOPY RETURNDATASIZE PUSH1 0x0 REVERT JUMPDEST POP POP POP POP DUP3 PUSH20 0xFFFFFFFFFFFFFFFFFFFFFFFFFFFFFFFFFFFFFFFF AND PUSH4 0xA50D81C7 CALLER PUSH1 0x40 MLOAD DUP3 PUSH4 0xFFFFFFFF AND PUSH1 0xE0 SHL DUP2 MSTORE PUSH1 0x4 ADD PUSH2 0x78D SWAP2 SWAP1 PUSH2 0xA74 JUMP JUMPDEST PUSH1 0x0 PUSH1 0x40 MLOAD DUP1 DUP4 SUB DUP2 PUSH1 0x0 DUP8 DUP1 EXTCODESIZE ISZERO DUP1 ISZERO PUSH2 0x7A7 JUMPI PUSH1 0x0 DUP1 REVERT JUMPDEST POP GAS CALL ISZERO DUP1 ISZERO PUSH2 0x7BB JUMPI RETURNDATASIZE PUSH1 0x0 DUP1 RETURNDATACOPY RETURNDATASIZE PUSH1 0x0 REVERT JUMPDEST POP POP POP POP PUSH32 0x62392641265FCC5A6A8128FD39634480FFE377E76DC54DCAD335E1289FCC0FD5 DUP4 PUSH1 0x40 MLOAD PUSH2 0x7EE SWAP2 SWAP1 PUSH2 0xA74 JUMP JUMPDEST PUSH1 0x40 MLOAD DUP1 SWAP2 SUB SWAP1 LOG1 DUP3 SWAP5 POP POP POP POP POP SWAP6 SWAP5 POP POP POP POP POP JUMP JUMPDEST PUSH1 0x0 DUP1 PUSH32 0x0 PUSH20 0xFFFFFFFFFFFFFFFFFFFFFFFFFFFFFFFFFFFFFFFF AND PUSH4 0xEFC81A8C PUSH1 0x40 MLOAD DUP2 PUSH4 0xFFFFFFFF AND PUSH1 0xE0 SHL DUP2 MSTORE PUSH1 0x4 ADD PUSH1 0x20 PUSH1 0x40 MLOAD DUP1 DUP4 SUB DUP2 PUSH1 0x0 DUP8 GAS CALL ISZERO DUP1 ISZERO PUSH2 0x876 JUMPI RETURNDATASIZE PUSH1 0x0 DUP1 RETURNDATACOPY RETURNDATASIZE PUSH1 0x0 REVERT JUMPDEST POP POP POP POP PUSH1 0x40 MLOAD RETURNDATASIZE PUSH1 0x1F NOT PUSH1 0x1F DUP3 ADD AND DUP3 ADD DUP1 PUSH1 0x40 MSTORE POP DUP2 ADD SWAP1 PUSH2 0x89A SWAP2 SWAP1 PUSH2 0xCFD JUMP JUMPDEST SWAP1 POP DUP1 PUSH20 0xFFFFFFFFFFFFFFFFFFFFFFFFFFFFFFFFFFFFFFFF AND PUSH4 0xB1149223 DUP8 PUSH32 0x0 DUP9 DUP9 DUP9 PUSH1 0x40 MLOAD DUP7 PUSH4 0xFFFFFFFF AND PUSH1 0xE0 SHL DUP2 MSTORE PUSH1 0x4 ADD PUSH2 0x8FD SWAP6 SWAP5 SWAP4 SWAP3 SWAP2 SWAP1 PUSH2 0x1A80 JUMP JUMPDEST PUSH1 0x0 PUSH1 0x40 MLOAD DUP1 DUP4 SUB DUP2 PUSH1 0x0 DUP8 DUP1 EXTCODESIZE ISZERO DUP1 ISZERO PUSH2 0x917 JUMPI PUSH1 0x0 DUP1 REVERT JUMPDEST POP GAS CALL ISZERO DUP1 ISZERO PUSH2 0x92B JUMPI RETURNDATASIZE PUSH1 0x0 DUP1 RETURNDATACOPY RETURNDATASIZE PUSH1 0x0 REVERT JUMPDEST POP POP POP POP DUP1 PUSH20 0xFFFFFFFFFFFFFFFFFFFFFFFFFFFFFFFFFFFFFFFF AND PUSH4 0xA50D81C7 CALLER PUSH1 0x40 MLOAD DUP3 PUSH4 0xFFFFFFFF AND PUSH1 0xE0 SHL DUP2 MSTORE PUSH1 0x4 ADD PUSH2 0x968 SWAP2 SWAP1 PUSH2 0xA74 JUMP JUMPDEST PUSH1 0x0 PUSH1 0x40 MLOAD DUP1 DUP4 SUB DUP2 PUSH1 0x0 DUP8 DUP1 EXTCODESIZE ISZERO DUP1 ISZERO PUSH2 0x982 JUMPI PUSH1 0x0 DUP1 REVERT JUMPDEST POP GAS CALL ISZERO DUP1 ISZERO PUSH2 0x996 JUMPI RETURNDATASIZE PUSH1 0x0 DUP1 RETURNDATACOPY RETURNDATASIZE PUSH1 0x0 REVERT JUMPDEST POP POP POP POP PUSH32 0x62392641265FCC5A6A8128FD39634480FFE377E76DC54DCAD335E1289FCC0FD5 DUP2 PUSH1 0x40 MLOAD PUSH2 0x9C9 SWAP2 SWAP1 PUSH2 0xA74 JUMP JUMPDEST PUSH1 0x40 MLOAD DUP1 SWAP2 SUB SWAP1 LOG1 DUP1 SWAP2 POP POP SWAP5 SWAP4 POP POP POP POP JUMP JUMPDEST PUSH1 0x40 MLOAD DUP1 PUSH1 0xE0 ADD PUSH1 0x40 MSTORE DUP1 PUSH1 0x60 DUP2 MSTORE PUSH1 0x20 ADD PUSH1 0x0 PUSH20 0xFFFFFFFFFFFFFFFFFFFFFFFFFFFFFFFFFFFFFFFF AND DUP2 MSTORE PUSH1 0x20 ADD PUSH1 0x60 DUP2 MSTORE PUSH1 0x20 ADD PUSH1 0x0 PUSH1 0xFF AND DUP2 MSTORE PUSH1 0x20 ADD PUSH1 0x60 DUP2 MSTORE PUSH1 0x20 ADD PUSH1 0x60 DUP2 MSTORE PUSH1 0x20 ADD PUSH1 0x60 DUP2 MSTORE POP SWAP1 JUMP JUMPDEST PUSH1 0x0 PUSH20 0xFFFFFFFFFFFFFFFFFFFFFFFFFFFFFFFFFFFFFFFF DUP3 AND SWAP1 POP SWAP2 SWAP1 POP JUMP JUMPDEST PUSH1 0x0 PUSH2 0xA5E DUP3 PUSH2 0xA33 JUMP JUMPDEST SWAP1 POP SWAP2 SWAP1 POP JUMP JUMPDEST PUSH2 0xA6E DUP2 PUSH2 0xA53 JUMP JUMPDEST DUP3 MSTORE POP POP JUMP JUMPDEST PUSH1 0x0 PUSH1 0x20 DUP3 ADD SWAP1 POP PUSH2 0xA89 PUSH1 0x0 DUP4 ADD DUP5 PUSH2 0xA65 JUMP JUMPDEST SWAP3 SWAP2 POP POP JUMP JUMPDEST PUSH1 0x0 PUSH1 0x40 MLOAD SWAP1 POP SWAP1 JUMP JUMPDEST PUSH1 0x0 DUP1 REVERT JUMPDEST PUSH1 0x0 DUP1 REVERT JUMPDEST PUSH1 0x0 DUP1 REVERT JUMPDEST PUSH1 0x0 PUSH1 0x60 DUP3 DUP5 SUB SLT ISZERO PUSH2 0xABE JUMPI PUSH2 0xABD PUSH2 0xAA3 JUMP JUMPDEST JUMPDEST DUP2 SWAP1 POP SWAP3 SWAP2 POP POP JUMP JUMPDEST PUSH1 0x0 DUP2 SWAP1 POP SWAP2 SWAP1 POP JUMP JUMPDEST PUSH2 0xADA DUP2 PUSH2 0xAC7 JUMP JUMPDEST DUP2 EQ PUSH2 0xAE5 JUMPI PUSH1 0x0 DUP1 REVERT JUMPDEST POP JUMP JUMPDEST PUSH1 0x0 DUP2 CALLDATALOAD SWAP1 POP PUSH2 0xAF7 DUP2 PUSH2 0xAD1 JUMP JUMPDEST SWAP3 SWAP2 POP POP JUMP JUMPDEST PUSH1 0x0 PUSH1 0xC0 DUP3 DUP5 SUB SLT ISZERO PUSH2 0xB13 JUMPI PUSH2 0xB12 PUSH2 0xAA3 JUMP JUMPDEST JUMPDEST DUP2 SWAP1 POP SWAP3 SWAP2 POP POP JUMP JUMPDEST PUSH1 0x0 DUP1 REVERT JUMPDEST PUSH1 0x0 DUP1 REVERT JUMPDEST PUSH1 0x0 DUP1 REVERT JUMPDEST PUSH1 0x0 DUP1 DUP4 PUSH1 0x1F DUP5 ADD SLT PUSH2 0xB41 JUMPI PUSH2 0xB40 PUSH2 0xB1C JUMP JUMPDEST JUMPDEST DUP3 CALLDATALOAD SWAP1 POP PUSH8 0xFFFFFFFFFFFFFFFF DUP2 GT ISZERO PUSH2 0xB5E JUMPI PUSH2 0xB5D PUSH2 0xB21 JUMP JUMPDEST JUMPDEST PUSH1 0x20 DUP4 ADD SWAP2 POP DUP4 PUSH1 0x20 DUP3 MUL DUP4 ADD GT ISZERO PUSH2 0xB7A JUMPI PUSH2 0xB79 PUSH2 0xB26 JUMP JUMPDEST JUMPDEST SWAP3 POP SWAP3 SWAP1 POP JUMP JUMPDEST PUSH1 0x0 DUP1 PUSH1 0x0 DUP1 PUSH1 0x0 PUSH1 0x80 DUP7 DUP9 SUB SLT ISZERO PUSH2 0xB9D JUMPI PUSH2 0xB9C PUSH2 0xA99 JUMP JUMPDEST JUMPDEST PUSH1 0x0 DUP7 ADD CALLDATALOAD PUSH8 0xFFFFFFFFFFFFFFFF DUP2 GT ISZERO PUSH2 0xBBB JUMPI PUSH2 0xBBA PUSH2 0xA9E JUMP JUMPDEST JUMPDEST PUSH2 0xBC7 DUP9 DUP3 DUP10 ADD PUSH2 0xAA8 JUMP JUMPDEST SWAP6 POP POP PUSH1 0x20 PUSH2 0xBD8 DUP9 DUP3 DUP10 ADD PUSH2 0xAE8 JUMP JUMPDEST SWAP5 POP POP PUSH1 0x40 DUP7 ADD CALLDATALOAD PUSH8 0xFFFFFFFFFFFFFFFF DUP2 GT ISZERO PUSH2 0xBF9 JUMPI PUSH2 0xBF8 PUSH2 0xA9E JUMP JUMPDEST JUMPDEST PUSH2 0xC05 DUP9 DUP3 DUP10 ADD PUSH2 0xAFD JUMP JUMPDEST SWAP4 POP POP PUSH1 0x60 DUP7 ADD CALLDATALOAD PUSH8 0xFFFFFFFFFFFFFFFF DUP2 GT ISZERO PUSH2 0xC26 JUMPI PUSH2 0xC25 PUSH2 0xA9E JUMP JUMPDEST JUMPDEST PUSH2 0xC32 DUP9 DUP3 DUP10 ADD PUSH2 0xB2B JUMP JUMPDEST SWAP3 POP SWAP3 POP POP SWAP3 SWAP6 POP SWAP3 SWAP6 SWAP1 SWAP4 POP JUMP JUMPDEST PUSH1 0x0 DUP1 PUSH1 0x0 DUP1 PUSH1 0x60 DUP6 DUP8 SUB SLT ISZERO PUSH2 0xC5B JUMPI PUSH2 0xC5A PUSH2 0xA99 JUMP JUMPDEST JUMPDEST PUSH1 0x0 DUP6 ADD CALLDATALOAD PUSH8 0xFFFFFFFFFFFFFFFF DUP2 GT ISZERO PUSH2 0xC79 JUMPI PUSH2 0xC78 PUSH2 0xA9E JUMP JUMPDEST JUMPDEST PUSH2 0xC85 DUP8 DUP3 DUP9 ADD PUSH2 0xAA8 JUMP JUMPDEST SWAP5 POP POP PUSH1 0x20 PUSH2 0xC96 DUP8 DUP3 DUP9 ADD PUSH2 0xAE8 JUMP JUMPDEST SWAP4 POP POP PUSH1 0x40 DUP6 ADD CALLDATALOAD PUSH8 0xFFFFFFFFFFFFFFFF DUP2 GT ISZERO PUSH2 0xCB7 JUMPI PUSH2 0xCB6 PUSH2 0xA9E JUMP JUMPDEST JUMPDEST PUSH2 0xCC3 DUP8 DUP3 DUP9 ADD PUSH2 0xB2B JUMP JUMPDEST SWAP3 POP SWAP3 POP POP SWAP3 SWAP6 SWAP2 SWAP5 POP SWAP3 POP JUMP JUMPDEST PUSH2 0xCDA DUP2 PUSH2 0xA53 JUMP JUMPDEST DUP2 EQ PUSH2 0xCE5 JUMPI PUSH1 0x0 DUP1 REVERT JUMPDEST POP JUMP JUMPDEST PUSH1 0x0 DUP2 MLOAD SWAP1 POP PUSH2 0xCF7 DUP2 PUSH2 0xCD1 JUMP JUMPDEST SWAP3 SWAP2 POP POP JUMP JUMPDEST PUSH1 0x0 PUSH1 0x20 DUP3 DUP5 SUB SLT ISZERO PUSH2 0xD13 JUMPI PUSH2 0xD12 PUSH2 0xA99 JUMP JUMPDEST JUMPDEST PUSH1 0x0 PUSH2 0xD21 DUP5 DUP3 DUP6 ADD PUSH2 0xCE8 JUMP JUMPDEST SWAP2 POP POP SWAP3 SWAP2 POP POP JUMP JUMPDEST PUSH1 0x0 DUP1 REVERT JUMPDEST PUSH1 0x0 DUP1 REVERT JUMPDEST PUSH1 0x0 DUP1 REVERT JUMPDEST PUSH1 0x0 DUP1 DUP4 CALLDATALOAD PUSH1 0x1 PUSH1 0x20 SUB DUP5 CALLDATASIZE SUB SUB DUP2 SLT PUSH2 0xD56 JUMPI PUSH2 0xD55 PUSH2 0xD2A JUMP JUMPDEST JUMPDEST DUP1 DUP5 ADD SWAP3 POP DUP3 CALLDATALOAD SWAP2 POP PUSH8 0xFFFFFFFFFFFFFFFF DUP3 GT ISZERO PUSH2 0xD78 JUMPI PUSH2 0xD77 PUSH2 0xD2F JUMP JUMPDEST JUMPDEST PUSH1 0x20 DUP4 ADD SWAP3 POP PUSH1 0x1 DUP3 MUL CALLDATASIZE SUB DUP4 SGT ISZERO PUSH2 0xD94 JUMPI PUSH2 0xD93 PUSH2 0xD34 JUMP JUMPDEST JUMPDEST POP SWAP3 POP SWAP3 SWAP1 POP JUMP JUMPDEST PUSH1 0x0 DUP3 DUP3 MSTORE PUSH1 0x20 DUP3 ADD SWAP1 POP SWAP3 SWAP2 POP POP JUMP JUMPDEST DUP3 DUP2 DUP4 CALLDATACOPY PUSH1 0x0 DUP4 DUP4 ADD MSTORE POP POP POP JUMP JUMPDEST PUSH1 0x0 PUSH1 0x1F NOT PUSH1 0x1F DUP4 ADD AND SWAP1 POP SWAP2 SWAP1 POP JUMP JUMPDEST PUSH1 0x0 PUSH2 0xDD9 DUP4 DUP6 PUSH2 0xD9C JUMP JUMPDEST SWAP4 POP PUSH2 0xDE6 DUP4 DUP6 DUP5 PUSH2 0xDAD JUMP JUMPDEST PUSH2 0xDEF DUP4 PUSH2 0xDBC JUMP JUMPDEST DUP5 ADD SWAP1 POP SWAP4 SWAP3 POP POP POP JUMP JUMPDEST PUSH1 0x0 DUP2 MLOAD SWAP1 POP SWAP2 SWAP1 POP JUMP JUMPDEST PUSH1 0x0 DUP3 DUP3 MSTORE PUSH1 0x20 DUP3 ADD SWAP1 POP SWAP3 SWAP2 POP POP JUMP JUMPDEST PUSH1 0x0 JUMPDEST DUP4 DUP2 LT ISZERO PUSH2 0xE34 JUMPI DUP1 DUP3 ADD MLOAD DUP2 DUP5 ADD MSTORE PUSH1 0x20 DUP2 ADD SWAP1 POP PUSH2 0xE19 JUMP JUMPDEST PUSH1 0x0 DUP5 DUP5 ADD MSTORE POP POP POP POP JUMP JUMPDEST PUSH1 0x0 PUSH2 0xE4B DUP3 PUSH2 0xDFA JUMP JUMPDEST PUSH2 0xE55 DUP2 DUP6 PUSH2 0xE05 JUMP JUMPDEST SWAP4 POP PUSH2 0xE65 DUP2 DUP6 PUSH1 0x20 DUP7 ADD PUSH2 0xE16 JUMP JUMPDEST PUSH2 0xE6E DUP2 PUSH2 0xDBC JUMP JUMPDEST DUP5 ADD SWAP2 POP POP SWAP3 SWAP2 POP POP JUMP JUMPDEST PUSH1 0x0 PUSH1 0x40 DUP3 ADD SWAP1 POP DUP2 DUP2 SUB PUSH1 0x0 DUP4 ADD MSTORE PUSH2 0xE94 DUP2 DUP6 DUP8 PUSH2 0xDCD JUMP JUMPDEST SWAP1 POP DUP2 DUP2 SUB PUSH1 0x20 DUP4 ADD MSTORE PUSH2 0xEA8 DUP2 DUP5 PUSH2 0xE40 JUMP JUMPDEST SWAP1 POP SWAP5 SWAP4 POP POP POP POP JUMP JUMPDEST PUSH1 0x0 DUP1 DUP4 CALLDATALOAD PUSH1 0x1 PUSH1 0x20 SUB DUP5 CALLDATASIZE SUB SUB DUP2 SLT PUSH2 0xECF JUMPI PUSH2 0xECE PUSH2 0xD2A JUMP JUMPDEST JUMPDEST DUP1 DUP5 ADD SWAP3 POP DUP3 CALLDATALOAD SWAP2 POP PUSH8 0xFFFFFFFFFFFFFFFF DUP3 GT ISZERO PUSH2 0xEF1 JUMPI PUSH2 0xEF0 PUSH2 0xD2F JUMP JUMPDEST JUMPDEST PUSH1 0x20 DUP4 ADD SWAP3 POP PUSH1 0x1 DUP3 MUL CALLDATASIZE SUB DUP4 SGT ISZERO PUSH2 0xF0D JUMPI PUSH2 0xF0C PUSH2 0xD34 JUMP JUMPDEST JUMPDEST POP SWAP3 POP SWAP3 SWAP1 POP JUMP JUMPDEST PUSH1 0x0 PUSH2 0xF21 DUP4 DUP6 PUSH2 0xE05 JUMP JUMPDEST SWAP4 POP PUSH2 0xF2E DUP4 DUP6 DUP5 PUSH2 0xDAD JUMP JUMPDEST PUSH2 0xF37 DUP4 PUSH2 0xDBC JUMP JUMPDEST DUP5 ADD SWAP1 POP SWAP4 SWAP3 POP POP POP JUMP JUMPDEST PUSH1 0x0 PUSH1 0x40 DUP3 ADD SWAP1 POP DUP2 DUP2 SUB PUSH1 0x0 DUP4 ADD MSTORE PUSH2 0xF5D DUP2 DUP7 DUP9 PUSH2 0xDCD JUMP JUMPDEST SWAP1 POP DUP2 DUP2 SUB PUSH1 0x20 DUP4 ADD MSTORE PUSH2 0xF72 DUP2 DUP5 DUP7 PUSH2 0xF15 JUMP JUMPDEST SWAP1 POP SWAP6 SWAP5 POP POP POP POP POP JUMP JUMPDEST PUSH32 0x4E487B7100000000000000000000000000000000000000000000000000000000 PUSH1 0x0 MSTORE PUSH1 0x11 PUSH1 0x4 MSTORE PUSH1 0x24 PUSH1 0x0 REVERT JUMPDEST PUSH1 0x0 PUSH2 0xFB7 DUP3 PUSH2 0xAC7 JUMP JUMPDEST SWAP2 POP PUSH2 0xFC2 DUP4 PUSH2 0xAC7 JUMP JUMPDEST SWAP3 POP DUP3 DUP3 ADD SWAP1 POP DUP1 DUP3 GT ISZERO PUSH2 0xFDA JUMPI PUSH2 0xFD9 PUSH2 0xF7D JUMP JUMPDEST JUMPDEST SWAP3 SWAP2 POP POP JUMP JUMPDEST PUSH32 0x4E487B7100000000000000000000000000000000000000000000000000000000 PUSH1 0x0 MSTORE PUSH1 0x41 PUSH1 0x4 MSTORE PUSH1 0x24 PUSH1 0x0 REVERT JUMPDEST PUSH32 0x4E487B7100000000000000000000000000000000000000000000000000000000 PUSH1 0x0 MSTORE PUSH1 0x32 PUSH1 0x4 MSTORE PUSH1 0x24 PUSH1 0x0 REVERT JUMPDEST PUSH1 0x0 DUP3 CALLDATALOAD PUSH1 0x1 PUSH1 0xE0 SUB DUP4 CALLDATASIZE SUB SUB DUP2 SLT PUSH2 0x105A JUMPI PUSH2 0x1059 PUSH2 0xD2A JUMP JUMPDEST JUMPDEST DUP1 DUP4 ADD SWAP2 POP POP SWAP3 SWAP2 POP POP JUMP JUMPDEST PUSH1 0x0 DUP1 REVERT JUMPDEST PUSH2 0x1074 DUP3 PUSH2 0xDBC JUMP JUMPDEST DUP2 ADD DUP2 DUP2 LT PUSH8 0xFFFFFFFFFFFFFFFF DUP3 GT OR ISZERO PUSH2 0x1093 JUMPI PUSH2 0x1092 PUSH2 0xFE0 JUMP JUMPDEST JUMPDEST DUP1 PUSH1 0x40 MSTORE POP POP POP JUMP JUMPDEST PUSH1 0x0 PUSH2 0x10A6 PUSH2 0xA8F JUMP JUMPDEST SWAP1 POP PUSH2 0x10B2 DUP3 DUP3 PUSH2 0x106B JUMP JUMPDEST SWAP2 SWAP1 POP JUMP JUMPDEST PUSH1 0x0 DUP1 REVERT JUMPDEST PUSH1 0x0 DUP1 REVERT JUMPDEST PUSH1 0x0 PUSH8 0xFFFFFFFFFFFFFFFF DUP3 GT ISZERO PUSH2 0x10DC JUMPI PUSH2 0x10DB PUSH2 0xFE0 JUMP JUMPDEST JUMPDEST PUSH2 0x10E5 DUP3 PUSH2 0xDBC JUMP JUMPDEST SWAP1 POP PUSH1 0x20 DUP2 ADD SWAP1 POP SWAP2 SWAP1 POP JUMP JUMPDEST PUSH1 0x0 PUSH2 0x1105 PUSH2 0x1100 DUP5 PUSH2 0x10C1 JUMP JUMPDEST PUSH2 0x109C JUMP JUMPDEST SWAP1 POP DUP3 DUP2 MSTORE PUSH1 0x20 DUP2 ADD DUP5 DUP5 DUP5 ADD GT ISZERO PUSH2 0x1121 JUMPI PUSH2 0x1120 PUSH2 0x10BC JUMP JUMPDEST JUMPDEST PUSH2 0x112C DUP5 DUP3 DUP6 PUSH2 0xDAD JUMP JUMPDEST POP SWAP4 SWAP3 POP POP POP JUMP JUMPDEST PUSH1 0x0 DUP3 PUSH1 0x1F DUP4 ADD SLT PUSH2 0x1149 JUMPI PUSH2 0x1148 PUSH2 0xB1C JUMP JUMPDEST JUMPDEST DUP2 CALLDATALOAD PUSH2 0x1159 DUP5 DUP3 PUSH1 0x20 DUP7 ADD PUSH2 0x10F2 JUMP JUMPDEST SWAP2 POP POP SWAP3 SWAP2 POP POP JUMP JUMPDEST PUSH1 0x0 DUP2 CALLDATALOAD SWAP1 POP PUSH2 0x1171 DUP2 PUSH2 0xCD1 JUMP JUMPDEST SWAP3 SWAP2 POP POP JUMP JUMPDEST PUSH1 0x0 PUSH8 0xFFFFFFFFFFFFFFFF DUP3 GT ISZERO PUSH2 0x1192 JUMPI PUSH2 0x1191 PUSH2 0xFE0 JUMP JUMPDEST JUMPDEST PUSH2 0x119B DUP3 PUSH2 0xDBC JUMP JUMPDEST SWAP1 POP PUSH1 0x20 DUP2 ADD SWAP1 POP SWAP2 SWAP1 POP JUMP JUMPDEST PUSH1 0x0 PUSH2 0x11BB PUSH2 0x11B6 DUP5 PUSH2 0x1177 JUMP JUMPDEST PUSH2 0x109C JUMP JUMPDEST SWAP1 POP DUP3 DUP2 MSTORE PUSH1 0x20 DUP2 ADD DUP5 DUP5 DUP5 ADD GT ISZERO PUSH2 0x11D7 JUMPI PUSH2 0x11D6 PUSH2 0x10BC JUMP JUMPDEST JUMPDEST PUSH2 0x11E2 DUP5 DUP3 DUP6 PUSH2 0xDAD JUMP JUMPDEST POP SWAP4 SWAP3 POP POP POP JUMP JUMPDEST PUSH1 0x0 DUP3 PUSH1 0x1F DUP4 ADD SLT PUSH2 0x11FF JUMPI PUSH2 0x11FE PUSH2 0xB1C JUMP JUMPDEST JUMPDEST DUP2 CALLDATALOAD PUSH2 0x120F DUP5 DUP3 PUSH1 0x20 DUP7 ADD PUSH2 0x11A8 JUMP JUMPDEST SWAP2 POP POP SWAP3 SWAP2 POP POP JUMP JUMPDEST PUSH1 0x0 PUSH1 0xFF DUP3 AND SWAP1 POP SWAP2 SWAP1 POP JUMP JUMPDEST PUSH2 0x122E DUP2 PUSH2 0x1218 JUMP JUMPDEST DUP2 EQ PUSH2 0x1239 JUMPI PUSH1 0x0 DUP1 REVERT JUMPDEST POP JUMP JUMPDEST PUSH1 0x0 DUP2 CALLDATALOAD SWAP1 POP PUSH2 0x124B DUP2 PUSH2 0x1225 JUMP JUMPDEST SWAP3 SWAP2 POP POP JUMP JUMPDEST PUSH1 0x0 PUSH1 0xE0 DUP3 DUP5 SUB SLT ISZERO PUSH2 0x1267 JUMPI PUSH2 0x1266 PUSH2 0x1066 JUMP JUMPDEST JUMPDEST PUSH2 0x1271 PUSH1 0xE0 PUSH2 0x109C JUMP JUMPDEST SWAP1 POP PUSH1 0x0 DUP3 ADD CALLDATALOAD PUSH8 0xFFFFFFFFFFFFFFFF DUP2 GT ISZERO PUSH2 0x1291 JUMPI PUSH2 0x1290 PUSH2 0x10B7 JUMP JUMPDEST JUMPDEST PUSH2 0x129D DUP5 DUP3 DUP6 ADD PUSH2 0x1134 JUMP JUMPDEST PUSH1 0x0 DUP4 ADD MSTORE POP PUSH1 0x20 PUSH2 0x12B1 DUP5 DUP3 DUP6 ADD PUSH2 0x1162 JUMP JUMPDEST PUSH1 0x20 DUP4 ADD MSTORE POP PUSH1 0x40 DUP3 ADD CALLDATALOAD PUSH8 0xFFFFFFFFFFFFFFFF DUP2 GT ISZERO PUSH2 0x12D5 JUMPI PUSH2 0x12D4 PUSH2 0x10B7 JUMP JUMPDEST JUMPDEST PUSH2 0x12E1 DUP5 DUP3 DUP6 ADD PUSH2 0x11EA JUMP JUMPDEST PUSH1 0x40 DUP4 ADD MSTORE POP PUSH1 0x60 PUSH2 0x12F5 DUP5 DUP3 DUP6 ADD PUSH2 0x123C JUMP JUMPDEST PUSH1 0x60 DUP4 ADD MSTORE POP PUSH1 0x80 DUP3 ADD CALLDATALOAD PUSH8 0xFFFFFFFFFFFFFFFF DUP2 GT ISZERO PUSH2 0x1319 JUMPI PUSH2 0x1318 PUSH2 0x10B7 JUMP JUMPDEST JUMPDEST PUSH2 0x1325 DUP5 DUP3 DUP6 ADD PUSH2 0x11EA JUMP JUMPDEST PUSH1 0x80 DUP4 ADD MSTORE POP PUSH1 0xA0 DUP3 ADD CALLDATALOAD PUSH8 0xFFFFFFFFFFFFFFFF DUP2 GT ISZERO PUSH2 0x1349 JUMPI PUSH2 0x1348 PUSH2 0x10B7 JUMP JUMPDEST JUMPDEST PUSH2 0x1355 DUP5 DUP3 DUP6 ADD PUSH2 0x11EA JUMP JUMPDEST PUSH1 0xA0 DUP4 ADD MSTORE POP PUSH1 0xC0 DUP3 ADD CALLDATALOAD PUSH8 0xFFFFFFFFFFFFFFFF DUP2 GT ISZERO PUSH2 0x1379 JUMPI PUSH2 0x1378 PUSH2 0x10B7 JUMP JUMPDEST JUMPDEST PUSH2 0x1385 DUP5 DUP3 DUP6 ADD PUSH2 0x11EA JUMP JUMPDEST PUSH1 0xC0 DUP4 ADD MSTORE POP SWAP3 SWAP2 POP POP JUMP JUMPDEST PUSH1 0x0 PUSH2 0x139D CALLDATASIZE DUP4 PUSH2 0x1251 JUMP JUMPDEST SWAP1 POP SWAP2 SWAP1 POP JUMP JUMPDEST PUSH1 0x0 PUSH2 0x13AF DUP3 PUSH2 0xAC7 JUMP JUMPDEST SWAP2 POP PUSH32 0xFFFFFFFFFFFFFFFFFFFFFFFFFFFFFFFFFFFFFFFFFFFFFFFFFFFFFFFFFFFFFFFF DUP3 SUB PUSH2 0x13E1 JUMPI PUSH2 0x13E0 PUSH2 0xF7D JUMP JUMPDEST JUMPDEST PUSH1 0x1 DUP3 ADD SWAP1 POP SWAP2 SWAP1 POP JUMP JUMPDEST PUSH1 0x0 PUSH1 0x20 DUP3 DUP5 SUB SLT ISZERO PUSH2 0x1402 JUMPI PUSH2 0x1401 PUSH2 0xA99 JUMP JUMPDEST JUMPDEST PUSH1 0x0 PUSH2 0x1410 DUP5 DUP3 DUP6 ADD PUSH2 0x123C JUMP JUMPDEST SWAP2 POP POP SWAP3 SWAP2 POP POP JUMP JUMPDEST PUSH1 0x0 PUSH2 0x1424 DUP3 PUSH2 0xAC7 JUMP JUMPDEST SWAP2 POP PUSH2 0x142F DUP4 PUSH2 0xAC7 JUMP JUMPDEST SWAP3 POP DUP3 DUP3 SUB SWAP1 POP DUP2 DUP2 GT ISZERO PUSH2 0x1447 JUMPI PUSH2 0x1446 PUSH2 0xF7D JUMP JUMPDEST JUMPDEST SWAP3 SWAP2 POP POP JUMP JUMPDEST PUSH1 0x0 DUP1 REVERT JUMPDEST PUSH1 0x0 DUP1 REVERT JUMPDEST PUSH1 0x0 DUP1 REVERT JUMPDEST PUSH1 0x0 DUP1 DUP4 CALLDATALOAD PUSH1 0x1 PUSH1 0x20 SUB DUP5 CALLDATASIZE SUB SUB DUP2 SLT PUSH2 0x1479 JUMPI PUSH2 0x1478 PUSH2 0x1457 JUMP JUMPDEST JUMPDEST DUP4 DUP2 ADD SWAP3 POP DUP3 CALLDATALOAD SWAP2 POP PUSH1 0x20 DUP4 ADD SWAP3 POP PUSH8 0xFFFFFFFFFFFFFFFF DUP3 GT ISZERO PUSH2 0x14A1 JUMPI PUSH2 0x14A0 PUSH2 0x144D JUMP JUMPDEST JUMPDEST PUSH1 0x1 DUP3 MUL CALLDATASIZE SUB DUP4 SGT ISZERO PUSH2 0x14B7 JUMPI PUSH2 0x14B6 PUSH2 0x1452 JUMP JUMPDEST JUMPDEST POP SWAP3 POP SWAP3 SWAP1 POP JUMP JUMPDEST PUSH1 0x0 DUP3 DUP3 MSTORE PUSH1 0x20 DUP3 ADD SWAP1 POP SWAP3 SWAP2 POP POP JUMP JUMPDEST PUSH1 0x0 PUSH2 0x14DC DUP4 DUP6 PUSH2 0x14BF JUMP JUMPDEST SWAP4 POP PUSH2 0x14E9 DUP4 DUP6 DUP5 PUSH2 0xDAD JUMP JUMPDEST PUSH2 0x14F2 DUP4 PUSH2 0xDBC JUMP JUMPDEST DUP5 ADD SWAP1 POP SWAP4 SWAP3 POP POP POP JUMP JUMPDEST PUSH1 0x0 PUSH1 0x60 DUP4 ADD PUSH2 0x1510 PUSH1 0x0 DUP5 ADD DUP5 PUSH2 0x145C JUMP JUMPDEST DUP6 DUP4 SUB PUSH1 0x0 DUP8 ADD MSTORE PUSH2 0x1523 DUP4 DUP3 DUP5 PUSH2 0x14D0 JUMP JUMPDEST SWAP3 POP POP POP PUSH2 0x1534 PUSH1 0x20 DUP5 ADD DUP5 PUSH2 0x145C JUMP JUMPDEST DUP6 DUP4 SUB PUSH1 0x20 DUP8 ADD MSTORE PUSH2 0x1547 DUP4 DUP3 DUP5 PUSH2 0x14D0 JUMP JUMPDEST SWAP3 POP POP POP PUSH2 0x1558 PUSH1 0x40 DUP5 ADD DUP5 PUSH2 0x145C JUMP JUMPDEST DUP6 DUP4 SUB PUSH1 0x40 DUP8 ADD MSTORE PUSH2 0x156B DUP4 DUP3 DUP5 PUSH2 0x14D0 JUMP JUMPDEST SWAP3 POP POP POP DUP1 SWAP2 POP POP SWAP3 SWAP2 POP POP JUMP JUMPDEST PUSH2 0x1582 DUP2 PUSH2 0xAC7 JUMP JUMPDEST DUP3 MSTORE POP POP JUMP JUMPDEST PUSH1 0x0 DUP2 MLOAD SWAP1 POP SWAP2 SWAP1 POP JUMP JUMPDEST PUSH1 0x0 DUP3 DUP3 MSTORE PUSH1 0x20 DUP3 ADD SWAP1 POP SWAP3 SWAP2 POP POP JUMP JUMPDEST PUSH1 0x0 DUP2 SWAP1 POP PUSH1 0x20 DUP3 ADD SWAP1 POP SWAP2 SWAP1 POP JUMP JUMPDEST PUSH1 0x0 DUP2 MLOAD SWAP1 POP SWAP2 SWAP1 POP JUMP JUMPDEST PUSH1 0x0 PUSH2 0x15CA DUP3 PUSH2 0x15B4 JUMP JUMPDEST PUSH2 0x15D4 DUP2 DUP6 PUSH2 0x14BF JUMP JUMPDEST SWAP4 POP PUSH2 0x15E4 DUP2 DUP6 PUSH1 0x20 DUP7 ADD PUSH2 0xE16 JUMP JUMPDEST PUSH2 0x15ED DUP2 PUSH2 0xDBC JUMP JUMPDEST DUP5 ADD SWAP2 POP POP SWAP3 SWAP2 POP POP JUMP JUMPDEST PUSH2 0x1601 DUP2 PUSH2 0xA53 JUMP JUMPDEST DUP3 MSTORE POP POP JUMP JUMPDEST PUSH1 0x0 DUP3 DUP3 MSTORE PUSH1 0x20 DUP3 ADD SWAP1 POP SWAP3 SWAP2 POP POP JUMP JUMPDEST PUSH1 0x0 PUSH2 0x1623 DUP3 PUSH2 0xDFA JUMP JUMPDEST PUSH2 0x162D DUP2 DUP6 PUSH2 0x1607 JUMP JUMPDEST SWAP4 POP PUSH2 0x163D DUP2 DUP6 PUSH1 0x20 DUP7 ADD PUSH2 0xE16 JUMP JUMPDEST PUSH2 0x1646 DUP2 PUSH2 0xDBC JUMP JUMPDEST DUP5 ADD SWAP2 POP POP SWAP3 SWAP2 POP POP JUMP JUMPDEST PUSH2 0x165A DUP2 PUSH2 0x1218 JUMP JUMPDEST DUP3 MSTORE POP POP JUMP JUMPDEST PUSH1 0x0 PUSH1 0xE0 DUP4 ADD PUSH1 0x0 DUP4 ADD MLOAD DUP5 DUP3 SUB PUSH1 0x0 DUP7 ADD MSTORE PUSH2 0x167D DUP3 DUP3 PUSH2 0x15BF JUMP JUMPDEST SWAP2 POP POP PUSH1 0x20 DUP4 ADD MLOAD PUSH2 0x1692 PUSH1 0x20 DUP7 ADD DUP3 PUSH2 0x15F8 JUMP JUMPDEST POP PUSH1 0x40 DUP4 ADD MLOAD DUP5 DUP3 SUB PUSH1 0x40 DUP7 ADD MSTORE PUSH2 0x16AA DUP3 DUP3 PUSH2 0x1618 JUMP JUMPDEST SWAP2 POP POP PUSH1 0x60 DUP4 ADD MLOAD PUSH2 0x16BF PUSH1 0x60 DUP7 ADD DUP3 PUSH2 0x1651 JUMP JUMPDEST POP PUSH1 0x80 DUP4 ADD MLOAD DUP5 DUP3 SUB PUSH1 0x80 DUP7 ADD MSTORE PUSH2 0x16D7 DUP3 DUP3 PUSH2 0x1618 JUMP JUMPDEST SWAP2 POP POP PUSH1 0xA0 DUP4 ADD MLOAD DUP5 DUP3 SUB PUSH1 0xA0 DUP7 ADD MSTORE PUSH2 0x16F1 DUP3 DUP3 PUSH2 0x1618 JUMP JUMPDEST SWAP2 POP POP PUSH1 0xC0 DUP4 ADD MLOAD DUP5 DUP3 SUB PUSH1 0xC0 DUP7 ADD MSTORE PUSH2 0x170B DUP3 DUP3 PUSH2 0x1618 JUMP JUMPDEST SWAP2 POP POP DUP1 SWAP2 POP POP SWAP3 SWAP2 POP POP JUMP JUMPDEST PUSH1 0x0 PUSH2 0x1724 DUP4 DUP4 PUSH2 0x1660 JUMP JUMPDEST SWAP1 POP SWAP3 SWAP2 POP POP JUMP JUMPDEST PUSH1 0x0 PUSH1 0x20 DUP3 ADD SWAP1 POP SWAP2 SWAP1 POP JUMP JUMPDEST PUSH1 0x0 PUSH2 0x1744 DUP3 PUSH2 0x1588 JUMP JUMPDEST PUSH2 0x174E DUP2 DUP6 PUSH2 0x1593 JUMP JUMPDEST SWAP4 POP DUP4 PUSH1 0x20 DUP3 MUL DUP6 ADD PUSH2 0x1760 DUP6 PUSH2 0x15A4 JUMP JUMPDEST DUP1 PUSH1 0x0 JUMPDEST DUP6 DUP2 LT ISZERO PUSH2 0x179C JUMPI DUP5 DUP5 SUB DUP10 MSTORE DUP2 MLOAD PUSH2 0x177D DUP6 DUP3 PUSH2 0x1718 JUMP JUMPDEST SWAP5 POP PUSH2 0x1788 DUP4 PUSH2 0x172C JUMP JUMPDEST SWAP3 POP PUSH1 0x20 DUP11 ADD SWAP10 POP POP PUSH1 0x1 DUP2 ADD SWAP1 POP PUSH2 0x1764 JUMP JUMPDEST POP DUP3 SWAP8 POP DUP8 SWAP6 POP POP POP POP POP POP SWAP3 SWAP2 POP POP JUMP JUMPDEST PUSH1 0x0 PUSH1 0x80 DUP3 ADD SWAP1 POP DUP2 DUP2 SUB PUSH1 0x0 DUP4 ADD MSTORE PUSH2 0x17C8 DUP2 DUP8 PUSH2 0x14FD JUMP JUMPDEST SWAP1 POP PUSH2 0x17D7 PUSH1 0x20 DUP4 ADD DUP7 PUSH2 0xA65 JUMP JUMPDEST PUSH2 0x17E4 PUSH1 0x40 DUP4 ADD DUP6 PUSH2 0x1579 JUMP JUMPDEST DUP2 DUP2 SUB PUSH1 0x60 DUP4 ADD MSTORE PUSH2 0x17F6 DUP2 DUP5 PUSH2 0x1739 JUMP JUMPDEST SWAP1 POP SWAP6 SWAP5 POP POP POP POP POP JUMP JUMPDEST PUSH1 0x0 DUP2 SWAP1 POP SWAP2 SWAP1 POP JUMP JUMPDEST PUSH1 0x0 PUSH2 0x181A PUSH1 0x20 DUP5 ADD DUP5 PUSH2 0x1162 JUMP JUMPDEST SWAP1 POP SWAP3 SWAP2 POP POP JUMP JUMPDEST PUSH1 0x0 DUP1 DUP4 CALLDATALOAD PUSH1 0x1 PUSH1 0x20 SUB DUP5 CALLDATASIZE SUB SUB DUP2 SLT PUSH2 0x183F JUMPI PUSH2 0x183E PUSH2 0x1457 JUMP JUMPDEST JUMPDEST DUP4 DUP2 ADD SWAP3 POP DUP3 CALLDATALOAD SWAP2 POP PUSH1 0x20 DUP4 ADD SWAP3 POP PUSH8 0xFFFFFFFFFFFFFFFF DUP3 GT ISZERO PUSH2 0x1867 JUMPI PUSH2 0x1866 PUSH2 0x144D JUMP JUMPDEST JUMPDEST PUSH1 0x1 DUP3 MUL CALLDATASIZE SUB DUP4 SGT ISZERO PUSH2 0x187D JUMPI PUSH2 0x187C PUSH2 0x1452 JUMP JUMPDEST JUMPDEST POP SWAP3 POP SWAP3 SWAP1 POP JUMP JUMPDEST PUSH1 0x0 PUSH2 0x1891 DUP4 DUP6 PUSH2 0x1607 JUMP JUMPDEST SWAP4 POP PUSH2 0x189E DUP4 DUP6 DUP5 PUSH2 0xDAD JUMP JUMPDEST PUSH2 0x18A7 DUP4 PUSH2 0xDBC JUMP JUMPDEST DUP5 ADD SWAP1 POP SWAP4 SWAP3 POP POP POP JUMP JUMPDEST PUSH1 0x0 PUSH2 0x18C1 PUSH1 0x20 DUP5 ADD DUP5 PUSH2 0x123C JUMP JUMPDEST SWAP1 POP SWAP3 SWAP2 POP POP JUMP JUMPDEST PUSH1 0x0 PUSH1 0xE0 DUP4 ADD PUSH2 0x18DC PUSH1 0x0 DUP5 ADD DUP5 PUSH2 0x145C JUMP JUMPDEST DUP6 DUP4 SUB PUSH1 0x0 DUP8 ADD MSTORE PUSH2 0x18EF DUP4 DUP3 DUP5 PUSH2 0x14D0 JUMP JUMPDEST SWAP3 POP POP POP PUSH2 0x1900 PUSH1 0x20 DUP5 ADD DUP5 PUSH2 0x180B JUMP JUMPDEST PUSH2 0x190D PUSH1 0x20 DUP7 ADD DUP3 PUSH2 0x15F8 JUMP JUMPDEST POP PUSH2 0x191B PUSH1 0x40 DUP5 ADD DUP5 PUSH2 0x1822 JUMP JUMPDEST DUP6 DUP4 SUB PUSH1 0x40 DUP8 ADD MSTORE PUSH2 0x192E DUP4 DUP3 DUP5 PUSH2 0x1885 JUMP JUMPDEST SWAP3 POP POP POP PUSH2 0x193F PUSH1 0x60 DUP5 ADD DUP5 PUSH2 0x18B2 JUMP JUMPDEST PUSH2 0x194C PUSH1 0x60 DUP7 ADD DUP3 PUSH2 0x1651 JUMP JUMPDEST POP PUSH2 0x195A PUSH1 0x80 DUP5 ADD DUP5 PUSH2 0x1822 JUMP JUMPDEST DUP6 DUP4 SUB PUSH1 0x80 DUP8 ADD MSTORE PUSH2 0x196D DUP4 DUP3 DUP5 PUSH2 0x1885 JUMP JUMPDEST SWAP3 POP POP POP PUSH2 0x197E PUSH1 0xA0 DUP5 ADD DUP5 PUSH2 0x1822 JUMP JUMPDEST DUP6 DUP4 SUB PUSH1 0xA0 DUP8 ADD MSTORE PUSH2 0x1991 DUP4 DUP3 DUP5 PUSH2 0x1885 JUMP JUMPDEST SWAP3 POP POP POP PUSH2 0x19A2 PUSH1 0xC0 DUP5 ADD DUP5 PUSH2 0x1822 JUMP JUMPDEST DUP6 DUP4 SUB PUSH1 0xC0 DUP8 ADD MSTORE PUSH2 0x19B5 DUP4 DUP3 DUP5 PUSH2 0x1885 JUMP JUMPDEST SWAP3 POP POP POP DUP1 SWAP2 POP POP SWAP3 SWAP2 POP POP JUMP JUMPDEST PUSH1 0x0 PUSH2 0x19CF DUP4 DUP4 PUSH2 0x18C9 JUMP JUMPDEST SWAP1 POP SWAP3 SWAP2 POP POP JUMP JUMPDEST PUSH1 0x0 DUP3 CALLDATALOAD PUSH1 0x1 PUSH1 0xE0 SUB DUP4 CALLDATASIZE SUB SUB DUP2 SLT PUSH2 0x19F3 JUMPI PUSH2 0x19F2 PUSH2 0x1457 JUMP JUMPDEST JUMPDEST DUP3 DUP2 ADD SWAP2 POP POP SWAP3 SWAP2 POP POP JUMP JUMPDEST PUSH1 0x0 PUSH1 0x20 DUP3 ADD SWAP1 POP SWAP2 SWAP1 POP JUMP JUMPDEST PUSH1 0x0 PUSH2 0x1A18 DUP4 DUP6 PUSH2 0x1593 JUMP JUMPDEST SWAP4 POP DUP4 PUSH1 0x20 DUP5 MUL DUP6 ADD PUSH2 0x1A2A DUP5 PUSH2 0x1801 JUMP JUMPDEST DUP1 PUSH1 0x0 JUMPDEST DUP8 DUP2 LT ISZERO PUSH2 0x1A6E JUMPI DUP5 DUP5 SUB DUP10 MSTORE PUSH2 0x1A45 DUP3 DUP5 PUSH2 0x19D7 JUMP JUMPDEST PUSH2 0x1A4F DUP6 DUP3 PUSH2 0x19C3 JUMP JUMPDEST SWAP5 POP PUSH2 0x1A5A DUP4 PUSH2 0x19FF JUMP JUMPDEST SWAP3 POP PUSH1 0x20 DUP11 ADD SWAP10 POP POP PUSH1 0x1 DUP2 ADD SWAP1 POP PUSH2 0x1A2E JUMP JUMPDEST POP DUP3 SWAP8 POP DUP8 SWAP5 POP POP POP POP POP SWAP4 SWAP3 POP POP POP JUMP JUMPDEST PUSH1 0x0 PUSH1 0x80 DUP3 ADD SWAP1 POP DUP2 DUP2 SUB PUSH1 0x0 DUP4 ADD MSTORE PUSH2 0x1A9A DUP2 DUP9 PUSH2 0x14FD JUMP JUMPDEST SWAP1 POP PUSH2 0x1AA9 PUSH1 0x20 DUP4 ADD DUP8 PUSH2 0xA65 JUMP JUMPDEST PUSH2 0x1AB6 PUSH1 0x40 DUP4 ADD DUP7 PUSH2 0x1579 JUMP JUMPDEST DUP2 DUP2 SUB PUSH1 0x60 DUP4 ADD MSTORE PUSH2 0x1AC9 DUP2 DUP5 DUP7 PUSH2 0x1A0C JUMP JUMPDEST SWAP1 POP SWAP7 SWAP6 POP POP POP POP POP POP JUMP INVALID LOG2 PUSH5 0x6970667358 0x22 SLT KECCAK256 0x29 0xCE 0xBE CODECOPY MSIZE DUP15 0xD8 PUSH18 0x8CA3B2C28414DD23F2E721461A8A673D4AE8 0xBF MULMOD 0xE5 0xC1 SHR 0x29 PUSH5 0x736F6C6343 STOP ADDMOD GT STOP CALLER "},"methodIdentifiers":{"createFrame((string,string,string),uint256,(string,address,bytes,uint8,bytes,bytes,bytes)[])":"de6e8502","createFrameWithStorage((string,string,string),uint256,(string,bytes,uint8,bytes,bytes,bytes),(string,address,bytes,uint8,bytes,bytes,bytes)[])":"9e76ea07","frameFactory()":"954bf4d1","scriptyBuilder()":"91a0d36d","scriptyStorageFactory()":"96ed95d8"}}}}}