{
  "_format": "hh-sol-artifact-1",
  "contractName": "ContentStoreFactory",
  "sourceName": "src/contracts/ContentStoreFactory.sol",
  "abi": [
    {
      "inputs": [
        {
          "internalType": "address",
          "name": "_libraryAddress",
          "type": "address"
        }
      ],
      "stateMutability": "nonpayable",
      "type": "constructor"
    },
    {
      "anonymous": false,
      "inputs": [
        {
          "indexed": false,
          "internalType": "address",
          "name": "newAddress",
          "type": "address"
        }
      ],
      "name": "ContentStoreFactoryCreated",
      "type": "event"
    },
    {
      "inputs": [],
      "name": "create",
      "outputs": [
        {
          "internalType": "address",
          "name": "",
          "type": "address"
        }
      ],
      "stateMutability": "nonpayable",
      "type": "function"
    },
    {
      "inputs": [],
      "name": "libraryAddress",
      "outputs": [
        {
          "internalType": "address",
          "name": "",
          "type": "address"
        }
      ],
      "stateMutability": "view",
      "type": "function"
    }
  ],
  "bytecode": "0x60a060405234801561001057600080fd5b5060405161031f38038061031f833981810160405281019061003291906100cf565b8073ffffffffffffffffffffffffffffffffffffffff1660808173ffffffffffffffffffffffffffffffffffffffff1681525050506100fc565b600080fd5b600073ffffffffffffffffffffffffffffffffffffffff82169050919050565b600061009c82610071565b9050919050565b6100ac81610091565b81146100b757600080fd5b50565b6000815190506100c9816100a3565b92915050565b6000602082840312156100e5576100e461006c565b5b60006100f3848285016100ba565b91505092915050565b60805161020361011c600039600081816079015260a301526102036000f3fe608060405234801561001057600080fd5b50600436106100365760003560e01c8063b816f5131461003b578063efc81a8c14610059575b600080fd5b610043610077565b60405161005091906101b2565b60405180910390f35b61006161009b565b60405161006e91906101b2565b60405180910390f35b7f000000000000000000000000000000000000000000000000000000000000000081565b6000806100c77f0000000000000000000000000000000000000000000000000000000000000000610107565b90507f7679032b6399f4e2b1b32fb722022cc5d09153f5edee576f2f82818f2a4caeb4816040516100f891906101b2565b60405180910390a18091505090565b6000808260601b90506040517f3d602d80600a3d3981f3363d3d373d3d3d363d7300000000000000000000000081528160148201527f5af43d82803e903d91602b57fd5bf3000000000000000000000000000000000060288201526037816000f092505050919050565b600073ffffffffffffffffffffffffffffffffffffffff82169050919050565b600061019c82610171565b9050919050565b6101ac81610191565b82525050565b60006020820190506101c760008301846101a3565b9291505056fea2646970667358221220eee92966e704e6f55c76873a6965518e3543645212f7c80a9093d1816bfc004d64736f6c63430008110033",
  "linkReferences": {},
  "deployedLinkReferences": {}
}