{
  "_format": "hh-sol-artifact-1",
  "contractName": "FrameDataStore",
  "sourceName": "src/services/chain-sim/contracts/FrameDataStore.sol",
  "abi": [
    {
      "inputs": [],
      "stateMutability": "nonpayable",
      "type": "constructor"
    },
    {
      "inputs": [
        {
          "internalType": "string",
          "name": "_key",
          "type": "string"
        },
        {
          "internalType": "uint256",
          "name": "_startPage",
          "type": "uint256"
        }
      ],
      "name": "getAllDataFrom",
      "outputs": [
        {
          "internalType": "bytes",
          "name": "",
          "type": "bytes"
        }
      ],
      "stateMutability": "view",
      "type": "function"
    },
    {
      "inputs": [
        {
          "internalType": "string",
          "name": "_key",
          "type": "string"
        },
        {
          "internalType": "uint256",
          "name": "_startPage",
          "type": "uint256"
        },
        {
          "internalType": "uint256",
          "name": "_endPage",
          "type": "uint256"
        }
      ],
      "name": "getData",
      "outputs": [
        {
          "internalType": "bytes",
          "name": "",
          "type": "bytes"
        }
      ],
      "stateMutability": "view",
      "type": "function"
    },
    {
      "inputs": [
        {
          "internalType": "string",
          "name": "_key",
          "type": "string"
        }
      ],
      "name": "getMaxPageNumber",
      "outputs": [
        {
          "internalType": "uint256",
          "name": "",
          "type": "uint256"
        }
      ],
      "stateMutability": "view",
      "type": "function"
    },
    {
      "inputs": [
        {
          "internalType": "string",
          "name": "_key",
          "type": "string"
        },
        {
          "internalType": "uint256",
          "name": "_startPage",
          "type": "uint256"
        },
        {
          "internalType": "uint256",
          "name": "_endPage",
          "type": "uint256"
        }
      ],
      "name": "getSizeBetweenPages",
      "outputs": [
        {
          "internalType": "uint256",
          "name": "",
          "type": "uint256"
        }
      ],
      "stateMutability": "view",
      "type": "function"
    },
    {
      "inputs": [
        {
          "internalType": "string",
          "name": "_key",
          "type": "string"
        }
      ],
      "name": "getSizeOfPages",
      "outputs": [
        {
          "internalType": "uint256",
          "name": "",
          "type": "uint256"
        }
      ],
      "stateMutability": "view",
      "type": "function"
    },
    {
      "inputs": [
        {
          "internalType": "string",
          "name": "_key",
          "type": "string"
        },
        {
          "internalType": "uint256",
          "name": "_endPage",
          "type": "uint256"
        }
      ],
      "name": "getSizeUpToPage",
      "outputs": [
        {
          "internalType": "uint256",
          "name": "",
          "type": "uint256"
        }
      ],
      "stateMutability": "view",
      "type": "function"
    },
    {
      "inputs": [
        {
          "internalType": "string",
          "name": "_key",
          "type": "string"
        },
        {
          "internalType": "uint128",
          "name": "_pageNumber",
          "type": "uint128"
        },
        {
          "internalType": "bytes",
          "name": "_b",
          "type": "bytes"
        }
      ],
      "name": "saveData",
      "outputs": [],
      "stateMutability": "nonpayable",
      "type": "function"
    },
    {
      "inputs": [
        {
          "internalType": "string",
          "name": "_key",
          "type": "string"
        },
        {
          "internalType": "uint256",
          "name": "_pageNumber",
          "type": "uint256"
        },
        {
          "internalType": "address",
          "name": "dataContract",
          "type": "address"
        },
        {
          "internalType": "uint128",
          "name": "_size",
          "type": "uint128"
        },
        {
          "internalType": "uint128",
          "name": "_offset",
          "type": "uint128"
        }
      ],
      "name": "saveDataForDeployedContract",
      "outputs": [],
      "stateMutability": "nonpayable",
      "type": "function"
    }
  ],
  "bytecode": "0x608060405234801561001057600080fd5b506111d4806100206000396000f3fe608060405234801561001057600080fd5b50600436106100885760003560e01c80637b5493cb1161005b5780637b5493cb14610139578063860536c214610169578063c486a53b14610199578063d431a42f146101b557610088565b806311aa4cba1461008d578063208a43d3146100bd578063545d6be9146100ed5780636af42a8c1461011d575b600080fd5b6100a760048036038101906100a29190610aef565b6101e5565b6040516100b49190610be6565b60405180910390f35b6100d760048036038101906100d29190610aef565b61036c565b6040516100e49190610c17565b60405180910390f35b61010760048036038101906101029190610c32565b610411565b6040516101149190610be6565b60405180910390f35b61013760048036038101906101329190610d77565b61044c565b005b610153600480360381019061014e9190610e02565b610662565b6040516101609190610c17565b60405180910390f35b610183600480360381019061017e9190610c32565b610706565b6040516101909190610c17565b60405180910390f35b6101b360048036038101906101ae9190610ea9565b6107a7565b005b6101cf60048036038101906101ca9190610e02565b610935565b6040516101dc9190610c17565b60405180910390f35b606060006101f485858561036c565b905060008167ffffffffffffffff8111156102125761021161098e565b5b6040519080825280601f01601f1916602001820160405280156102445781602001600182028036833780820191505090505b509050600080876040516102589190610f87565b90815260200160405180910390209050600085905060006020905060008890505b82811161035c576000846002016000838152602001908152602001600020905060008160000160009054906101000a900473ffffffffffffffffffffffffffffffffffffffff16905060008260010160009054906101000a90046fffffffffffffffffffffffffffffffff166fffffffffffffffffffffffffffffffff16905060008360010160109054906101000a90046fffffffffffffffffffffffffffffffff166fffffffffffffffffffffffffffffffff1690508181878b01853c81866103439190610fcd565b955050505050808061035490611023565b915050610279565b5083955050505050509392505050565b60008060008560405161037f9190610f87565b908152602001604051809103902090506000808590505b8481116104045782600201600082815260200190815260200160002060010160009054906101000a90046fffffffffffffffffffffffffffffffff166fffffffffffffffffffffffffffffffff16826103ef9190610fcd565b915080806103fc90611023565b915050610396565b5080925050509392505050565b6060600080846040516104249190610f87565b90815260200160405180910390209050610443848483600001546101e5565b91505092915050565b616000815110610491576040517f08c379a0000000000000000000000000000000000000000000000000000000008152600401610488906110ef565b60405180910390fd5b60006040518060400160405280600e81526020017f610000600e6000396100006000f300000000000000000000000000000000000081525090506000825160f81b9050600060088451901c60f81b905081836002815181106104f6576104f561110f565b5b60200101907effffffffffffffffffffffffffffffffffffffffffffffffffffffffffffff1916908160001a905350808360018151811061053a5761053961110f565b5b60200101907effffffffffffffffffffffffffffffffffffffffffffffffffffffffffffff1916908160001a9053508183600a8151811061057e5761057d61110f565b5b60200101907effffffffffffffffffffffffffffffffffffffffffffffffffffffffffffff1916908160001a90535080836009815181106105c2576105c161110f565b5b60200101907effffffffffffffffffffffffffffffffffffffffffffffffffffffffffffff1916908160001a9053506000838560405160200161060692919061117a565b604051602081830303815290604052905060008151602083016000f090506000811415610637573d6000803e3d6000fd5b61065888886fffffffffffffffffffffffffffffffff1683895160006107a7565b5050505050505050565b6000806000836040516106759190610f87565b908152602001604051809103902090506000805b826000015481116106fb5782600201600082815260200190815260200160002060010160009054906101000a90046fffffffffffffffffffffffffffffffff166fffffffffffffffffffffffffffffffff16826106e69190610fcd565b915080806106f390611023565b915050610689565b508092505050919050565b6000806000846040516107199190610f87565b908152602001604051809103902090506000805b84811161079b5782600201600082815260200190815260200160002060010160009054906101000a90046fffffffffffffffffffffffffffffffff166fffffffffffffffffffffffffffffffff16826107869190610fcd565b9150808061079390611023565b91505061072d565b50809250505092915050565b600080866040516107b89190610f87565b9081526020016040518091039020905084816000015410156107de578481600001819055505b60018160010160006101000a81548160ff02191690831515021790555060405180606001604052808573ffffffffffffffffffffffffffffffffffffffff168152602001846fffffffffffffffffffffffffffffffff168152602001836fffffffffffffffffffffffffffffffff1681525081600201600087815260200190815260200160002060008201518160000160006101000a81548173ffffffffffffffffffffffffffffffffffffffff021916908373ffffffffffffffffffffffffffffffffffffffff16021790555060208201518160010160006101000a8154816fffffffffffffffffffffffffffffffff02191690836fffffffffffffffffffffffffffffffff16021790555060408201518160010160106101000a8154816fffffffffffffffffffffffffffffffff02191690836fffffffffffffffffffffffffffffffff160217905550905050505050505050565b600080826040516109469190610f87565b9081526020016040518091039020600001549050919050565b6000604051905090565b600080fd5b600080fd5b600080fd5b600080fd5b6000601f19601f8301169050919050565b7f4e487b7100000000000000000000000000000000000000000000000000000000600052604160045260246000fd5b6109c68261097d565b810181811067ffffffffffffffff821117156109e5576109e461098e565b5b80604052505050565b60006109f861095f565b9050610a0482826109bd565b919050565b600067ffffffffffffffff821115610a2457610a2361098e565b5b610a2d8261097d565b9050602081019050919050565b82818337600083830152505050565b6000610a5c610a5784610a09565b6109ee565b905082815260208101848484011115610a7857610a77610978565b5b610a83848285610a3a565b509392505050565b600082601f830112610aa057610a9f610973565b5b8135610ab0848260208601610a49565b91505092915050565b6000819050919050565b610acc81610ab9565b8114610ad757600080fd5b50565b600081359050610ae981610ac3565b92915050565b600080600060608486031215610b0857610b07610969565b5b600084013567ffffffffffffffff811115610b2657610b2561096e565b5b610b3286828701610a8b565b9350506020610b4386828701610ada565b9250506040610b5486828701610ada565b9150509250925092565b600081519050919050565b600082825260208201905092915050565b60005b83811015610b98578082015181840152602081019050610b7d565b83811115610ba7576000848401525b50505050565b6000610bb882610b5e565b610bc28185610b69565b9350610bd2818560208601610b7a565b610bdb8161097d565b840191505092915050565b60006020820190508181036000830152610c008184610bad565b905092915050565b610c1181610ab9565b82525050565b6000602082019050610c2c6000830184610c08565b92915050565b60008060408385031215610c4957610c48610969565b5b600083013567ffffffffffffffff811115610c6757610c6661096e565b5b610c7385828601610a8b565b9250506020610c8485828601610ada565b9150509250929050565b60006fffffffffffffffffffffffffffffffff82169050919050565b610cb381610c8e565b8114610cbe57600080fd5b50565b600081359050610cd081610caa565b92915050565b600067ffffffffffffffff821115610cf157610cf061098e565b5b610cfa8261097d565b9050602081019050919050565b6000610d1a610d1584610cd6565b6109ee565b905082815260208101848484011115610d3657610d35610978565b5b610d41848285610a3a565b509392505050565b600082601f830112610d5e57610d5d610973565b5b8135610d6e848260208601610d07565b91505092915050565b600080600060608486031215610d9057610d8f610969565b5b600084013567ffffffffffffffff811115610dae57610dad61096e565b5b610dba86828701610a8b565b9350506020610dcb86828701610cc1565b925050604084013567ffffffffffffffff811115610dec57610deb61096e565b5b610df886828701610d49565b9150509250925092565b600060208284031215610e1857610e17610969565b5b600082013567ffffffffffffffff811115610e3657610e3561096e565b5b610e4284828501610a8b565b91505092915050565b600073ffffffffffffffffffffffffffffffffffffffff82169050919050565b6000610e7682610e4b565b9050919050565b610e8681610e6b565b8114610e9157600080fd5b50565b600081359050610ea381610e7d565b92915050565b600080600080600060a08688031215610ec557610ec4610969565b5b600086013567ffffffffffffffff811115610ee357610ee261096e565b5b610eef88828901610a8b565b9550506020610f0088828901610ada565b9450506040610f1188828901610e94565b9350506060610f2288828901610cc1565b9250506080610f3388828901610cc1565b9150509295509295909350565b600081519050919050565b600081905092915050565b6000610f6182610f40565b610f6b8185610f4b565b9350610f7b818560208601610b7a565b80840191505092915050565b6000610f938284610f56565b915081905092915050565b7f4e487b7100000000000000000000000000000000000000000000000000000000600052601160045260246000fd5b6000610fd882610ab9565b9150610fe383610ab9565b9250827fffffffffffffffffffffffffffffffffffffffffffffffffffffffffffffffff0382111561101857611017610f9e565b5b828201905092915050565b600061102e82610ab9565b91507fffffffffffffffffffffffffffffffffffffffffffffffffffffffffffffffff82141561106157611060610f9e565b5b600182019050919050565b600082825260208201905092915050565b7f53746f726167653a2045786365656465642032342c353736206279746573206d60008201527f617820636f6e74726163742073697a6500000000000000000000000000000000602082015250565b60006110d960308361106c565b91506110e48261107d565b604082019050919050565b60006020820190508181036000830152611108816110cc565b9050919050565b7f4e487b7100000000000000000000000000000000000000000000000000000000600052603260045260246000fd5b600081905092915050565b600061115482610b5e565b61115e818561113e565b935061116e818560208601610b7a565b80840191505092915050565b60006111868285611149565b91506111928284611149565b9150819050939250505056fea26469706673582212200f9ca3791047d26ac982af4afcaf32f024d2759d01ecd267d5da7e2b35eda30864736f6c634300080c0033",
  "linkReferences": {},
  "deployedLinkReferences": {}
}