{
  "_format": "hh-sol-artifact-1",
  "contractName": "FrameDataStore",
  "sourceName": "src/services/chain-sim/contracts/FrameDataStore.sol",
  "abi": [
    {
      "inputs": [],
      "stateMutability": "nonpayable",
      "type": "constructor"
    },
    {
      "inputs": [
        {
          "internalType": "string",
          "name": "_key",
          "type": "string"
        },
        {
          "internalType": "uint256",
          "name": "_startPage",
          "type": "uint256"
        },
        {
          "internalType": "uint256",
          "name": "_endPage",
          "type": "uint256"
        }
      ],
      "name": "getData",
      "outputs": [
        {
          "internalType": "bytes",
          "name": "",
          "type": "bytes"
        }
      ],
      "stateMutability": "view",
      "type": "function"
    },
    {
      "inputs": [
        {
          "internalType": "string",
          "name": "_key",
          "type": "string"
        }
      ],
      "name": "getMaxPageNumber",
      "outputs": [
        {
          "internalType": "uint256",
          "name": "",
          "type": "uint256"
        }
      ],
      "stateMutability": "view",
      "type": "function"
    },
    {
      "inputs": [
        {
          "internalType": "string",
          "name": "_key",
          "type": "string"
        },
        {
          "internalType": "uint256",
          "name": "_startPage",
          "type": "uint256"
        },
        {
          "internalType": "uint256",
          "name": "_endPage",
          "type": "uint256"
        }
      ],
      "name": "getSizeBetweenPages",
      "outputs": [
        {
          "internalType": "uint256",
          "name": "",
          "type": "uint256"
        }
      ],
      "stateMutability": "view",
      "type": "function"
    },
    {
      "inputs": [
        {
          "internalType": "string",
          "name": "_key",
          "type": "string"
        }
      ],
      "name": "getSizeOfPages",
      "outputs": [
        {
          "internalType": "uint256",
          "name": "",
          "type": "uint256"
        }
      ],
      "stateMutability": "view",
      "type": "function"
    },
    {
      "inputs": [
        {
          "internalType": "string",
          "name": "_key",
          "type": "string"
        },
        {
          "internalType": "uint256",
          "name": "_endPage",
          "type": "uint256"
        }
      ],
      "name": "getSizeUpToPage",
      "outputs": [
        {
          "internalType": "uint256",
          "name": "",
          "type": "uint256"
        }
      ],
      "stateMutability": "view",
      "type": "function"
    },
    {
      "inputs": [
        {
          "internalType": "string",
          "name": "_key",
          "type": "string"
        },
        {
          "internalType": "uint128",
          "name": "_pageNumber",
          "type": "uint128"
        },
        {
          "internalType": "bytes",
          "name": "_b",
          "type": "bytes"
        }
      ],
      "name": "saveData",
      "outputs": [],
      "stateMutability": "nonpayable",
      "type": "function"
    },
    {
      "inputs": [
        {
          "internalType": "string",
          "name": "_key",
          "type": "string"
        },
        {
          "internalType": "uint256",
          "name": "_pageNumber",
          "type": "uint256"
        },
        {
          "internalType": "address",
          "name": "dataContract",
          "type": "address"
        },
        {
          "internalType": "uint128",
          "name": "_size",
          "type": "uint128"
        },
        {
          "internalType": "uint128",
          "name": "_offset",
          "type": "uint128"
        }
      ],
      "name": "saveDataForDeployedContract",
      "outputs": [],
      "stateMutability": "nonpayable",
      "type": "function"
    }
  ],
  "bytecode": "0x608060405234801561001057600080fd5b5061118a806100206000396000f3fe608060405234801561001057600080fd5b506004361061007d5760003560e01c80637b5493cb1161005b5780637b5493cb146100fe578063860536c21461012e578063c486a53b1461015e578063d431a42f1461017a5761007d565b806311aa4cba14610082578063208a43d3146100b25780636af42a8c146100e2575b600080fd5b61009c60048036038101906100979190610aa5565b6101aa565b6040516100a99190610b9c565b60405180910390f35b6100cc60048036038101906100c79190610aa5565b61035d565b6040516100d99190610bcd565b60405180910390f35b6100fc60048036038101906100f79190610cd1565b610402565b005b61011860048036038101906101139190610d5c565b610618565b6040516101259190610bcd565b60405180910390f35b61014860048036038101906101439190610da5565b6106bc565b6040516101559190610bcd565b60405180910390f35b61017860048036038101906101739190610e5f565b61075d565b005b610194600480360381019061018f9190610d5c565b6108eb565b6040516101a19190610bcd565b60405180910390f35b6060600080831090506000816101c8576101c386610618565b6101d4565b6101d386868661035d565b5b905060008167ffffffffffffffff8111156101f2576101f1610944565b5b6040519080825280601f01601f1916602001820160405280156102245781602001600182028036833780820191505090505b509050600080886040516102389190610f3d565b9081526020016040518091039020905060008461025957816000015461025b565b865b905060006020905060008990505b82811161034c576000846002016000838152602001908152602001600020905060008160000160009054906101000a900473ffffffffffffffffffffffffffffffffffffffff16905060008260010160009054906101000a90046fffffffffffffffffffffffffffffffff166fffffffffffffffffffffffffffffffff16905060008360010160109054906101000a90046fffffffffffffffffffffffffffffffff166fffffffffffffffffffffffffffffffff1690508181878b01853c81866103339190610f83565b955050505050808061034490610fd9565b915050610269565b508396505050505050509392505050565b6000806000856040516103709190610f3d565b908152602001604051809103902090506000808590505b8481116103f55782600201600082815260200190815260200160002060010160009054906101000a90046fffffffffffffffffffffffffffffffff166fffffffffffffffffffffffffffffffff16826103e09190610f83565b915080806103ed90610fd9565b915050610387565b5080925050509392505050565b616000815110610447576040517f08c379a000000000000000000000000000000000000000000000000000000000815260040161043e906110a5565b60405180910390fd5b60006040518060400160405280600e81526020017f610000600e6000396100006000f300000000000000000000000000000000000081525090506000825160f81b9050600060088451901c60f81b905081836002815181106104ac576104ab6110c5565b5b60200101907effffffffffffffffffffffffffffffffffffffffffffffffffffffffffffff1916908160001a90535080836001815181106104f0576104ef6110c5565b5b60200101907effffffffffffffffffffffffffffffffffffffffffffffffffffffffffffff1916908160001a9053508183600a81518110610534576105336110c5565b5b60200101907effffffffffffffffffffffffffffffffffffffffffffffffffffffffffffff1916908160001a9053508083600981518110610578576105776110c5565b5b60200101907effffffffffffffffffffffffffffffffffffffffffffffffffffffffffffff1916908160001a905350600083856040516020016105bc929190611130565b604051602081830303815290604052905060008151602083016000f0905060008114156105ed573d6000803e3d6000fd5b61060e88886fffffffffffffffffffffffffffffffff16838951600061075d565b5050505050505050565b60008060008360405161062b9190610f3d565b908152602001604051809103902090506000805b826000015481116106b15782600201600082815260200190815260200160002060010160009054906101000a90046fffffffffffffffffffffffffffffffff166fffffffffffffffffffffffffffffffff168261069c9190610f83565b915080806106a990610fd9565b91505061063f565b508092505050919050565b6000806000846040516106cf9190610f3d565b908152602001604051809103902090506000805b8481116107515782600201600082815260200190815260200160002060010160009054906101000a90046fffffffffffffffffffffffffffffffff166fffffffffffffffffffffffffffffffff168261073c9190610f83565b9150808061074990610fd9565b9150506106e3565b50809250505092915050565b6000808660405161076e9190610f3d565b908152602001604051809103902090508481600001541015610794578481600001819055505b60018160010160006101000a81548160ff02191690831515021790555060405180606001604052808573ffffffffffffffffffffffffffffffffffffffff168152602001846fffffffffffffffffffffffffffffffff168152602001836fffffffffffffffffffffffffffffffff1681525081600201600087815260200190815260200160002060008201518160000160006101000a81548173ffffffffffffffffffffffffffffffffffffffff021916908373ffffffffffffffffffffffffffffffffffffffff16021790555060208201518160010160006101000a8154816fffffffffffffffffffffffffffffffff02191690836fffffffffffffffffffffffffffffffff16021790555060408201518160010160106101000a8154816fffffffffffffffffffffffffffffffff02191690836fffffffffffffffffffffffffffffffff160217905550905050505050505050565b600080826040516108fc9190610f3d565b9081526020016040518091039020600001549050919050565b6000604051905090565b600080fd5b600080fd5b600080fd5b600080fd5b6000601f19601f8301169050919050565b7f4e487b7100000000000000000000000000000000000000000000000000000000600052604160045260246000fd5b61097c82610933565b810181811067ffffffffffffffff8211171561099b5761099a610944565b5b80604052505050565b60006109ae610915565b90506109ba8282610973565b919050565b600067ffffffffffffffff8211156109da576109d9610944565b5b6109e382610933565b9050602081019050919050565b82818337600083830152505050565b6000610a12610a0d846109bf565b6109a4565b905082815260208101848484011115610a2e57610a2d61092e565b5b610a398482856109f0565b509392505050565b600082601f830112610a5657610a55610929565b5b8135610a668482602086016109ff565b91505092915050565b6000819050919050565b610a8281610a6f565b8114610a8d57600080fd5b50565b600081359050610a9f81610a79565b92915050565b600080600060608486031215610abe57610abd61091f565b5b600084013567ffffffffffffffff811115610adc57610adb610924565b5b610ae886828701610a41565b9350506020610af986828701610a90565b9250506040610b0a86828701610a90565b9150509250925092565b600081519050919050565b600082825260208201905092915050565b60005b83811015610b4e578082015181840152602081019050610b33565b83811115610b5d576000848401525b50505050565b6000610b6e82610b14565b610b788185610b1f565b9350610b88818560208601610b30565b610b9181610933565b840191505092915050565b60006020820190508181036000830152610bb68184610b63565b905092915050565b610bc781610a6f565b82525050565b6000602082019050610be26000830184610bbe565b92915050565b60006fffffffffffffffffffffffffffffffff82169050919050565b610c0d81610be8565b8114610c1857600080fd5b50565b600081359050610c2a81610c04565b92915050565b600067ffffffffffffffff821115610c4b57610c4a610944565b5b610c5482610933565b9050602081019050919050565b6000610c74610c6f84610c30565b6109a4565b905082815260208101848484011115610c9057610c8f61092e565b5b610c9b8482856109f0565b509392505050565b600082601f830112610cb857610cb7610929565b5b8135610cc8848260208601610c61565b91505092915050565b600080600060608486031215610cea57610ce961091f565b5b600084013567ffffffffffffffff811115610d0857610d07610924565b5b610d1486828701610a41565b9350506020610d2586828701610c1b565b925050604084013567ffffffffffffffff811115610d4657610d45610924565b5b610d5286828701610ca3565b9150509250925092565b600060208284031215610d7257610d7161091f565b5b600082013567ffffffffffffffff811115610d9057610d8f610924565b5b610d9c84828501610a41565b91505092915050565b60008060408385031215610dbc57610dbb61091f565b5b600083013567ffffffffffffffff811115610dda57610dd9610924565b5b610de685828601610a41565b9250506020610df785828601610a90565b9150509250929050565b600073ffffffffffffffffffffffffffffffffffffffff82169050919050565b6000610e2c82610e01565b9050919050565b610e3c81610e21565b8114610e4757600080fd5b50565b600081359050610e5981610e33565b92915050565b600080600080600060a08688031215610e7b57610e7a61091f565b5b600086013567ffffffffffffffff811115610e9957610e98610924565b5b610ea588828901610a41565b9550506020610eb688828901610a90565b9450506040610ec788828901610e4a565b9350506060610ed888828901610c1b565b9250506080610ee988828901610c1b565b9150509295509295909350565b600081519050919050565b600081905092915050565b6000610f1782610ef6565b610f218185610f01565b9350610f31818560208601610b30565b80840191505092915050565b6000610f498284610f0c565b915081905092915050565b7f4e487b7100000000000000000000000000000000000000000000000000000000600052601160045260246000fd5b6000610f8e82610a6f565b9150610f9983610a6f565b9250827fffffffffffffffffffffffffffffffffffffffffffffffffffffffffffffffff03821115610fce57610fcd610f54565b5b828201905092915050565b6000610fe482610a6f565b91507fffffffffffffffffffffffffffffffffffffffffffffffffffffffffffffffff82141561101757611016610f54565b5b600182019050919050565b600082825260208201905092915050565b7f53746f726167653a2045786365656465642032342c353736206279746573206d60008201527f617820636f6e74726163742073697a6500000000000000000000000000000000602082015250565b600061108f603083611022565b915061109a82611033565b604082019050919050565b600060208201905081810360008301526110be81611082565b9050919050565b7f4e487b7100000000000000000000000000000000000000000000000000000000600052603260045260246000fd5b600081905092915050565b600061110a82610b14565b61111481856110f4565b9350611124818560208601610b30565b80840191505092915050565b600061113c82856110ff565b915061114882846110ff565b9150819050939250505056fea2646970667358221220667fcdb6b510e7697709646a590415c9c9ed81ee0291ad8ae3a1dc2356525fa764736f6c634300080c0033",
  "linkReferences": {},
  "deployedLinkReferences": {}
}