{
  "_format": "hh-sol-artifact-1",
  "contractName": "FrameDataStore",
  "sourceName": "src/services/chain-sim/contracts/FrameDataStore.sol",
  "abi": [
    {
      "inputs": [],
      "stateMutability": "nonpayable",
      "type": "constructor"
    },
    {
      "inputs": [
        {
          "internalType": "string",
          "name": "_key",
          "type": "string"
        },
        {
          "internalType": "uint256",
          "name": "_startPage",
          "type": "uint256"
        }
      ],
      "name": "getAllDataFrom",
      "outputs": [
        {
          "internalType": "bytes",
          "name": "",
          "type": "bytes"
        }
      ],
      "stateMutability": "view",
      "type": "function"
    },
    {
      "inputs": [
        {
          "internalType": "string",
          "name": "_key",
          "type": "string"
        },
        {
          "internalType": "uint256",
          "name": "_startPage",
          "type": "uint256"
        },
        {
          "internalType": "uint256",
          "name": "_endPage",
          "type": "uint256"
        }
      ],
      "name": "getData",
      "outputs": [
        {
          "internalType": "bytes",
          "name": "",
          "type": "bytes"
        }
      ],
      "stateMutability": "view",
      "type": "function"
    },
    {
      "inputs": [
        {
          "internalType": "string",
          "name": "_key",
          "type": "string"
        }
      ],
      "name": "getMaxPageNumber",
      "outputs": [
        {
          "internalType": "uint256",
          "name": "",
          "type": "uint256"
        }
      ],
      "stateMutability": "view",
      "type": "function"
    },
    {
      "inputs": [
        {
          "internalType": "string",
          "name": "_key",
          "type": "string"
        },
        {
          "internalType": "uint256",
          "name": "_startPage",
          "type": "uint256"
        },
        {
          "internalType": "uint256",
          "name": "_endPage",
          "type": "uint256"
        }
      ],
      "name": "getSizeBetweenPages",
      "outputs": [
        {
          "internalType": "uint256",
          "name": "",
          "type": "uint256"
        }
      ],
      "stateMutability": "view",
      "type": "function"
    },
    {
      "inputs": [
        {
          "internalType": "string",
          "name": "_key",
          "type": "string"
        }
      ],
      "name": "getSizeOfPages",
      "outputs": [
        {
          "internalType": "uint256",
          "name": "",
          "type": "uint256"
        }
      ],
      "stateMutability": "view",
      "type": "function"
    },
    {
      "inputs": [
        {
          "internalType": "string",
          "name": "_key",
          "type": "string"
        },
        {
          "internalType": "uint256",
          "name": "_endPage",
          "type": "uint256"
        }
      ],
      "name": "getSizeUpToPage",
      "outputs": [
        {
          "internalType": "uint256",
          "name": "",
          "type": "uint256"
        }
      ],
      "stateMutability": "view",
      "type": "function"
    },
    {
      "inputs": [
        {
          "internalType": "string",
          "name": "_key",
          "type": "string"
        },
        {
          "internalType": "uint128",
          "name": "_pageNumber",
          "type": "uint128"
        },
        {
          "internalType": "bytes",
          "name": "_b",
          "type": "bytes"
        }
      ],
      "name": "saveData",
      "outputs": [],
      "stateMutability": "nonpayable",
      "type": "function"
    },
    {
      "inputs": [
        {
          "internalType": "string",
          "name": "_key",
          "type": "string"
        },
        {
          "internalType": "uint256",
          "name": "_pageNumber",
          "type": "uint256"
        },
        {
          "internalType": "address",
          "name": "dataContract",
          "type": "address"
        },
        {
          "internalType": "uint128",
          "name": "_size",
          "type": "uint128"
        },
        {
          "internalType": "uint128",
          "name": "_offset",
          "type": "uint128"
        }
      ],
      "name": "saveDataForDeployedContract",
      "outputs": [],
      "stateMutability": "nonpayable",
      "type": "function"
    }
  ],
  "bytecode": "0x608060405234801561001057600080fd5b506111ce806100206000396000f3fe608060405234801561001057600080fd5b50600436106100885760003560e01c80637b5493cb1161005b5780637b5493cb14610139578063860536c214610169578063c486a53b14610199578063d431a42f146101b557610088565b806311aa4cba1461008d578063208a43d3146100bd578063545d6be9146100ed5780636af42a8c1461011d575b600080fd5b6100a760048036038101906100a29190610ae9565b6101e5565b6040516100b49190610be0565b60405180910390f35b6100d760048036038101906100d29190610ae9565b610366565b6040516100e49190610c11565b60405180910390f35b61010760048036038101906101029190610c2c565b61040b565b6040516101149190610be0565b60405180910390f35b61013760048036038101906101329190610d71565b610446565b005b610153600480360381019061014e9190610dfc565b61065c565b6040516101609190610c11565b60405180910390f35b610183600480360381019061017e9190610c2c565b610700565b6040516101909190610c11565b60405180910390f35b6101b360048036038101906101ae9190610ea3565b6107a1565b005b6101cf60048036038101906101ca9190610dfc565b61092f565b6040516101dc9190610c11565b60405180910390f35b606060006101f4858585610366565b905060008167ffffffffffffffff81111561021257610211610988565b5b6040519080825280601f01601f1916602001820160405280156102445781602001600182028036833780820191505090505b509050600080876040516102589190610f81565b9081526020016040518091039020905060006020905060008790505b868111610357576000836002016000838152602001908152602001600020905060008160000160009054906101000a900473ffffffffffffffffffffffffffffffffffffffff16905060008260010160009054906101000a90046fffffffffffffffffffffffffffffffff166fffffffffffffffffffffffffffffffff16905060008360010160109054906101000a90046fffffffffffffffffffffffffffffffff166fffffffffffffffffffffffffffffffff1690508181878a01853c818661033e9190610fc7565b955050505050808061034f9061101d565b915050610274565b50829450505050509392505050565b6000806000856040516103799190610f81565b908152602001604051809103902090506000808590505b8481116103fe5782600201600082815260200190815260200160002060010160009054906101000a90046fffffffffffffffffffffffffffffffff166fffffffffffffffffffffffffffffffff16826103e99190610fc7565b915080806103f69061101d565b915050610390565b5080925050509392505050565b60606000808460405161041e9190610f81565b9081526020016040518091039020905061043d848483600001546101e5565b91505092915050565b61600081511061048b576040517f08c379a0000000000000000000000000000000000000000000000000000000008152600401610482906110e9565b60405180910390fd5b60006040518060400160405280600e81526020017f610000600e6000396100006000f300000000000000000000000000000000000081525090506000825160f81b9050600060088451901c60f81b905081836002815181106104f0576104ef611109565b5b60200101907effffffffffffffffffffffffffffffffffffffffffffffffffffffffffffff1916908160001a905350808360018151811061053457610533611109565b5b60200101907effffffffffffffffffffffffffffffffffffffffffffffffffffffffffffff1916908160001a9053508183600a8151811061057857610577611109565b5b60200101907effffffffffffffffffffffffffffffffffffffffffffffffffffffffffffff1916908160001a90535080836009815181106105bc576105bb611109565b5b60200101907effffffffffffffffffffffffffffffffffffffffffffffffffffffffffffff1916908160001a90535060008385604051602001610600929190611174565b604051602081830303815290604052905060008151602083016000f090506000811415610631573d6000803e3d6000fd5b61065288886fffffffffffffffffffffffffffffffff1683895160006107a1565b5050505050505050565b60008060008360405161066f9190610f81565b908152602001604051809103902090506000805b826000015481116106f55782600201600082815260200190815260200160002060010160009054906101000a90046fffffffffffffffffffffffffffffffff166fffffffffffffffffffffffffffffffff16826106e09190610fc7565b915080806106ed9061101d565b915050610683565b508092505050919050565b6000806000846040516107139190610f81565b908152602001604051809103902090506000805b8481116107955782600201600082815260200190815260200160002060010160009054906101000a90046fffffffffffffffffffffffffffffffff166fffffffffffffffffffffffffffffffff16826107809190610fc7565b9150808061078d9061101d565b915050610727565b50809250505092915050565b600080866040516107b29190610f81565b9081526020016040518091039020905084816000015410156107d8578481600001819055505b60018160010160006101000a81548160ff02191690831515021790555060405180606001604052808573ffffffffffffffffffffffffffffffffffffffff168152602001846fffffffffffffffffffffffffffffffff168152602001836fffffffffffffffffffffffffffffffff1681525081600201600087815260200190815260200160002060008201518160000160006101000a81548173ffffffffffffffffffffffffffffffffffffffff021916908373ffffffffffffffffffffffffffffffffffffffff16021790555060208201518160010160006101000a8154816fffffffffffffffffffffffffffffffff02191690836fffffffffffffffffffffffffffffffff16021790555060408201518160010160106101000a8154816fffffffffffffffffffffffffffffffff02191690836fffffffffffffffffffffffffffffffff160217905550905050505050505050565b600080826040516109409190610f81565b9081526020016040518091039020600001549050919050565b6000604051905090565b600080fd5b600080fd5b600080fd5b600080fd5b6000601f19601f8301169050919050565b7f4e487b7100000000000000000000000000000000000000000000000000000000600052604160045260246000fd5b6109c082610977565b810181811067ffffffffffffffff821117156109df576109de610988565b5b80604052505050565b60006109f2610959565b90506109fe82826109b7565b919050565b600067ffffffffffffffff821115610a1e57610a1d610988565b5b610a2782610977565b9050602081019050919050565b82818337600083830152505050565b6000610a56610a5184610a03565b6109e8565b905082815260208101848484011115610a7257610a71610972565b5b610a7d848285610a34565b509392505050565b600082601f830112610a9a57610a9961096d565b5b8135610aaa848260208601610a43565b91505092915050565b6000819050919050565b610ac681610ab3565b8114610ad157600080fd5b50565b600081359050610ae381610abd565b92915050565b600080600060608486031215610b0257610b01610963565b5b600084013567ffffffffffffffff811115610b2057610b1f610968565b5b610b2c86828701610a85565b9350506020610b3d86828701610ad4565b9250506040610b4e86828701610ad4565b9150509250925092565b600081519050919050565b600082825260208201905092915050565b60005b83811015610b92578082015181840152602081019050610b77565b83811115610ba1576000848401525b50505050565b6000610bb282610b58565b610bbc8185610b63565b9350610bcc818560208601610b74565b610bd581610977565b840191505092915050565b60006020820190508181036000830152610bfa8184610ba7565b905092915050565b610c0b81610ab3565b82525050565b6000602082019050610c266000830184610c02565b92915050565b60008060408385031215610c4357610c42610963565b5b600083013567ffffffffffffffff811115610c6157610c60610968565b5b610c6d85828601610a85565b9250506020610c7e85828601610ad4565b9150509250929050565b60006fffffffffffffffffffffffffffffffff82169050919050565b610cad81610c88565b8114610cb857600080fd5b50565b600081359050610cca81610ca4565b92915050565b600067ffffffffffffffff821115610ceb57610cea610988565b5b610cf482610977565b9050602081019050919050565b6000610d14610d0f84610cd0565b6109e8565b905082815260208101848484011115610d3057610d2f610972565b5b610d3b848285610a34565b509392505050565b600082601f830112610d5857610d5761096d565b5b8135610d68848260208601610d01565b91505092915050565b600080600060608486031215610d8a57610d89610963565b5b600084013567ffffffffffffffff811115610da857610da7610968565b5b610db486828701610a85565b9350506020610dc586828701610cbb565b925050604084013567ffffffffffffffff811115610de657610de5610968565b5b610df286828701610d43565b9150509250925092565b600060208284031215610e1257610e11610963565b5b600082013567ffffffffffffffff811115610e3057610e2f610968565b5b610e3c84828501610a85565b91505092915050565b600073ffffffffffffffffffffffffffffffffffffffff82169050919050565b6000610e7082610e45565b9050919050565b610e8081610e65565b8114610e8b57600080fd5b50565b600081359050610e9d81610e77565b92915050565b600080600080600060a08688031215610ebf57610ebe610963565b5b600086013567ffffffffffffffff811115610edd57610edc610968565b5b610ee988828901610a85565b9550506020610efa88828901610ad4565b9450506040610f0b88828901610e8e565b9350506060610f1c88828901610cbb565b9250506080610f2d88828901610cbb565b9150509295509295909350565b600081519050919050565b600081905092915050565b6000610f5b82610f3a565b610f658185610f45565b9350610f75818560208601610b74565b80840191505092915050565b6000610f8d8284610f50565b915081905092915050565b7f4e487b7100000000000000000000000000000000000000000000000000000000600052601160045260246000fd5b6000610fd282610ab3565b9150610fdd83610ab3565b9250827fffffffffffffffffffffffffffffffffffffffffffffffffffffffffffffffff0382111561101257611011610f98565b5b828201905092915050565b600061102882610ab3565b91507fffffffffffffffffffffffffffffffffffffffffffffffffffffffffffffffff82141561105b5761105a610f98565b5b600182019050919050565b600082825260208201905092915050565b7f53746f726167653a2045786365656465642032342c353736206279746573206d60008201527f617820636f6e74726163742073697a6500000000000000000000000000000000602082015250565b60006110d3603083611066565b91506110de82611077565b604082019050919050565b60006020820190508181036000830152611102816110c6565b9050919050565b7f4e487b7100000000000000000000000000000000000000000000000000000000600052603260045260246000fd5b600081905092915050565b600061114e82610b58565b6111588185611138565b9350611168818560208601610b74565b80840191505092915050565b60006111808285611143565b915061118c8284611143565b9150819050939250505056fea264697066735822122015751cd1c02fe1c35b418ec164c109939c3eee4f8dd6ca6faf13ab49a593ac4464736f6c634300080c0033",
  "linkReferences": {},
  "deployedLinkReferences": {}
}