{
  "_format": "hh-sol-artifact-1",
  "contractName": "FrameDataStoreFactory",
  "sourceName": "src/services/chain-sim/contracts/FrameDataStoreFactory.sol",
  "abi": [
    {
      "inputs": [],
      "stateMutability": "nonpayable",
      "type": "constructor"
    },
    {
      "anonymous": false,
      "inputs": [
        {
          "indexed": false,
          "internalType": "address",
          "name": "newAddress",
          "type": "address"
        }
      ],
      "name": "FrameDataStoreCreated",
      "type": "event"
    },
    {
      "inputs": [],
      "name": "createFrameDataStore",
      "outputs": [
        {
          "internalType": "address",
          "name": "",
          "type": "address"
        }
      ],
      "stateMutability": "nonpayable",
      "type": "function"
    },
    {
      "inputs": [],
      "name": "libraryAddress",
      "outputs": [
        {
          "internalType": "address",
          "name": "",
          "type": "address"
        }
      ],
      "stateMutability": "view",
      "type": "function"
    },
    {
      "inputs": [
        {
          "internalType": "address",
          "name": "_libraryAddress",
          "type": "address"
        }
      ],
      "name": "setLibraryAddress",
      "outputs": [],
      "stateMutability": "nonpayable",
      "type": "function"
    }
  ],
  "bytecode": "0x608060405234801561001057600080fd5b506102cb806100206000396000f3fe608060405234801561001057600080fd5b50600436106100415760003560e01c80634863ba171461004657806366f4a19e14610062578063b816f51314610080575b600080fd5b610060600480360381019061005b919061023e565b61009e565b005b61006a6100e1565b604051610077919061027a565b60405180910390f35b61008861014d565b604051610095919061027a565b60405180910390f35b806000806101000a81548173ffffffffffffffffffffffffffffffffffffffff021916908373ffffffffffffffffffffffffffffffffffffffff16021790555050565b60008061010d60008054906101000a900473ffffffffffffffffffffffffffffffffffffffff16610171565b90507f3599de364faf66c22700ad0508e0917cc6ac38ccdb10c46716fe1740e5e4ce878160405161013e919061027a565b60405180910390a18091505090565b60008054906101000a900473ffffffffffffffffffffffffffffffffffffffff1681565b6000808260601b90506040517f3d602d80600a3d3981f3363d3d373d3d3d363d7300000000000000000000000081528160148201527f5af43d82803e903d91602b57fd5bf3000000000000000000000000000000000060288201526037816000f092505050919050565b600080fd5b600073ffffffffffffffffffffffffffffffffffffffff82169050919050565b600061020b826101e0565b9050919050565b61021b81610200565b811461022657600080fd5b50565b60008135905061023881610212565b92915050565b600060208284031215610254576102536101db565b5b600061026284828501610229565b91505092915050565b61027481610200565b82525050565b600060208201905061028f600083018461026b565b9291505056fea2646970667358221220c7555740956889c05947c2e6c21fcff0ca542f27d4ceb789fcc9c8a45865ef8764736f6c634300080c0033",
  "linkReferences": {},
  "deployedLinkReferences": {}
}