{
  "_format": "hh-sol-artifact-1",
  "contractName": "FrameDataStoreFactory",
  "sourceName": "src/services/chain-sim/contracts/FrameDataStoreFactory.sol",
  "abi": [
    {
      "inputs": [],
      "stateMutability": "nonpayable",
      "type": "constructor"
    },
    {
      "anonymous": false,
      "inputs": [
        {
          "indexed": false,
          "internalType": "address",
          "name": "newAddress",
          "type": "address"
        }
      ],
      "name": "FrameDataStoreCreated",
      "type": "event"
    },
    {
      "inputs": [
        {
          "internalType": "string",
          "name": "_name",
          "type": "string"
        },
        {
          "internalType": "string",
          "name": "_version",
          "type": "string"
        }
      ],
      "name": "createFrameDataStore",
      "outputs": [
        {
          "internalType": "address",
          "name": "",
          "type": "address"
        }
      ],
      "stateMutability": "nonpayable",
      "type": "function"
    },
    {
      "inputs": [],
      "name": "libraryAddress",
      "outputs": [
        {
          "internalType": "address",
          "name": "",
          "type": "address"
        }
      ],
      "stateMutability": "view",
      "type": "function"
    },
    {
      "inputs": [
        {
          "internalType": "address",
          "name": "_libraryAddress",
          "type": "address"
        }
      ],
      "name": "setLibraryAddress",
      "outputs": [],
      "stateMutability": "nonpayable",
      "type": "function"
    }
  ],
  "bytecode": "0x608060405234801561001057600080fd5b5061074e806100206000396000f3fe608060405234801561001057600080fd5b50600436106100415760003560e01c80634863ba1714610046578063b816f51314610062578063bdbbea5214610080575b600080fd5b610060600480360381019061005b91906103c7565b6100b0565b005b61006a610182565b6040516100779190610403565b60405180910390f35b61009a60048036038101906100959190610564565b6101a6565b6040516100a79190610403565b60405180910390f35b600073ffffffffffffffffffffffffffffffffffffffff1660008054906101000a900473ffffffffffffffffffffffffffffffffffffffff1673ffffffffffffffffffffffffffffffffffffffff161461013f576040517f08c379a00000000000000000000000000000000000000000000000000000000081526004016101369061065f565b60405180910390fd5b806000806101000a81548173ffffffffffffffffffffffffffffffffffffffff021916908373ffffffffffffffffffffffffffffffffffffffff16021790555050565b60008054906101000a900473ffffffffffffffffffffffffffffffffffffffff1681565b6000806101d260008054906101000a900473ffffffffffffffffffffffffffffffffffffffff166102eb565b90508073ffffffffffffffffffffffffffffffffffffffff1663c47f0027856040518263ffffffff1660e01b815260040161020d91906106f6565b600060405180830381600087803b15801561022757600080fd5b505af115801561023b573d6000803e3d6000fd5b505050508073ffffffffffffffffffffffffffffffffffffffff1663788bc78c846040518263ffffffff1660e01b815260040161027891906106f6565b600060405180830381600087803b15801561029257600080fd5b505af11580156102a6573d6000803e3d6000fd5b505050507f3599de364faf66c22700ad0508e0917cc6ac38ccdb10c46716fe1740e5e4ce87816040516102d99190610403565b60405180910390a18091505092915050565b6000808260601b90506040517f3d602d80600a3d3981f3363d3d373d3d3d363d7300000000000000000000000081528160148201527f5af43d82803e903d91602b57fd5bf3000000000000000000000000000000000060288201526037816000f092505050919050565b6000604051905090565b600080fd5b600080fd5b600073ffffffffffffffffffffffffffffffffffffffff82169050919050565b600061039482610369565b9050919050565b6103a481610389565b81146103af57600080fd5b50565b6000813590506103c18161039b565b92915050565b6000602082840312156103dd576103dc61035f565b5b60006103eb848285016103b2565b91505092915050565b6103fd81610389565b82525050565b600060208201905061041860008301846103f4565b92915050565b600080fd5b600080fd5b6000601f19601f8301169050919050565b7f4e487b7100000000000000000000000000000000000000000000000000000000600052604160045260246000fd5b61047182610428565b810181811067ffffffffffffffff821117156104905761048f610439565b5b80604052505050565b60006104a3610355565b90506104af8282610468565b919050565b600067ffffffffffffffff8211156104cf576104ce610439565b5b6104d882610428565b9050602081019050919050565b82818337600083830152505050565b6000610507610502846104b4565b610499565b90508281526020810184848401111561052357610522610423565b5b61052e8482856104e5565b509392505050565b600082601f83011261054b5761054a61041e565b5b813561055b8482602086016104f4565b91505092915050565b6000806040838503121561057b5761057a61035f565b5b600083013567ffffffffffffffff81111561059957610598610364565b5b6105a585828601610536565b925050602083013567ffffffffffffffff8111156105c6576105c5610364565b5b6105d285828601610536565b9150509250929050565b600082825260208201905092915050565b7f4672616d654461746153746f7265466163746f72793a204c696272617279206160008201527f6c72656164792073657400000000000000000000000000000000000000000000602082015250565b6000610649602a836105dc565b9150610654826105ed565b604082019050919050565b600060208201905081810360008301526106788161063c565b9050919050565b600081519050919050565b60005b838110156106a857808201518184015260208101905061068d565b838111156106b7576000848401525b50505050565b60006106c88261067f565b6106d281856105dc565b93506106e281856020860161068a565b6106eb81610428565b840191505092915050565b6000602082019050818103600083015261071081846106bd565b90509291505056fea26469706673582212200f4d8913697a037b32229e7e9d5f014c232637aef9b8440f35b323215590704e64736f6c634300080c0033",
  "linkReferences": {},
  "deployedLinkReferences": {}
}