{
  "_format": "hh-sol-artifact-1",
  "contractName": "ContentStoreFactory",
  "sourceName": "src/contracts/Factories/ContentStoreFactory.sol",
  "abi": [
    {
      "inputs": [],
      "stateMutability": "nonpayable",
      "type": "constructor"
    },
    {
      "anonymous": false,
      "inputs": [
        {
          "indexed": false,
          "internalType": "address",
          "name": "newAddress",
          "type": "address"
        }
      ],
      "name": "ContentStoreFactoryCreated",
      "type": "event"
    },
    {
      "inputs": [
        {
          "internalType": "string",
          "name": "_name",
          "type": "string"
        },
        {
          "internalType": "string",
          "name": "_version",
          "type": "string"
        }
      ],
      "name": "createContentStore",
      "outputs": [
        {
          "internalType": "address",
          "name": "",
          "type": "address"
        }
      ],
      "stateMutability": "nonpayable",
      "type": "function"
    },
    {
      "inputs": [],
      "name": "libraryAddress",
      "outputs": [
        {
          "internalType": "address",
          "name": "",
          "type": "address"
        }
      ],
      "stateMutability": "view",
      "type": "function"
    },
    {
      "inputs": [
        {
          "internalType": "address",
          "name": "_libraryAddress",
          "type": "address"
        }
      ],
      "name": "setLibraryAddress",
      "outputs": [],
      "stateMutability": "nonpayable",
      "type": "function"
    }
  ],
  "bytecode": "0x608060405234801561001057600080fd5b50610745806100206000396000f3fe608060405234801561001057600080fd5b50600436106100415760003560e01c80634863ba17146100465780639ac8653114610062578063b816f51314610092575b600080fd5b610060600480360381019061005b91906103c7565b6100b0565b005b61007c6004803603810190610077919061053a565b610182565b60405161008991906105c1565b60405180910390f35b61009a6102c7565b6040516100a791906105c1565b60405180910390f35b600073ffffffffffffffffffffffffffffffffffffffff1660008054906101000a900473ffffffffffffffffffffffffffffffffffffffff1673ffffffffffffffffffffffffffffffffffffffff161461013f576040517f08c379a00000000000000000000000000000000000000000000000000000000081526004016101369061065f565b60405180910390fd5b806000806101000a81548173ffffffffffffffffffffffffffffffffffffffff021916908373ffffffffffffffffffffffffffffffffffffffff16021790555050565b6000806101ae60008054906101000a900473ffffffffffffffffffffffffffffffffffffffff166102eb565b90508073ffffffffffffffffffffffffffffffffffffffff1663c47f0027856040518263ffffffff1660e01b81526004016101e991906106ed565b600060405180830381600087803b15801561020357600080fd5b505af1158015610217573d6000803e3d6000fd5b505050508073ffffffffffffffffffffffffffffffffffffffff1663788bc78c846040518263ffffffff1660e01b815260040161025491906106ed565b600060405180830381600087803b15801561026e57600080fd5b505af1158015610282573d6000803e3d6000fd5b505050507f7679032b6399f4e2b1b32fb722022cc5d09153f5edee576f2f82818f2a4caeb4816040516102b591906105c1565b60405180910390a18091505092915050565b60008054906101000a900473ffffffffffffffffffffffffffffffffffffffff1681565b6000808260601b90506040517f3d602d80600a3d3981f3363d3d373d3d3d363d7300000000000000000000000081528160148201527f5af43d82803e903d91602b57fd5bf3000000000000000000000000000000000060288201526037816000f092505050919050565b6000604051905090565b600080fd5b600080fd5b600073ffffffffffffffffffffffffffffffffffffffff82169050919050565b600061039482610369565b9050919050565b6103a481610389565b81146103af57600080fd5b50565b6000813590506103c18161039b565b92915050565b6000602082840312156103dd576103dc61035f565b5b60006103eb848285016103b2565b91505092915050565b600080fd5b600080fd5b6000601f19601f8301169050919050565b7f4e487b7100000000000000000000000000000000000000000000000000000000600052604160045260246000fd5b610447826103fe565b810181811067ffffffffffffffff821117156104665761046561040f565b5b80604052505050565b6000610479610355565b9050610485828261043e565b919050565b600067ffffffffffffffff8211156104a5576104a461040f565b5b6104ae826103fe565b9050602081019050919050565b82818337600083830152505050565b60006104dd6104d88461048a565b61046f565b9050828152602081018484840111156104f9576104f86103f9565b5b6105048482856104bb565b509392505050565b600082601f830112610521576105206103f4565b5b81356105318482602086016104ca565b91505092915050565b600080604083850312156105515761055061035f565b5b600083013567ffffffffffffffff81111561056f5761056e610364565b5b61057b8582860161050c565b925050602083013567ffffffffffffffff81111561059c5761059b610364565b5b6105a88582860161050c565b9150509250929050565b6105bb81610389565b82525050565b60006020820190506105d660008301846105b2565b92915050565b600082825260208201905092915050565b7f436f6e74656e7453746f7265466163746f72793a204c69627261727920616c7260008201527f6561647920736574000000000000000000000000000000000000000000000000602082015250565b60006106496028836105dc565b9150610654826105ed565b604082019050919050565b600060208201905081810360008301526106788161063c565b9050919050565b600081519050919050565b60005b838110156106a857808201518184015260208101905061068d565b60008484015250505050565b60006106bf8261067f565b6106c981856105dc565b93506106d981856020860161068a565b6106e2816103fe565b840191505092915050565b6000602082019050818103600083015261070781846106b4565b90509291505056fea26469706673582212201a4eff6483ff3aae4a1bd86905b30c82076d5274f8bc8094a74e6119323f9a1b64736f6c63430008110033",
  "linkReferences": {},
  "deployedLinkReferences": {}
}