{
  "_format": "hh-sol-artifact-1",
  "contractName": "FrameDeployer",
  "sourceName": "src/contracts/FrameDeployer.sol",
  "abi": [
    {
      "inputs": [
        {
          "internalType": "address",
          "name": "_frameFactory",
          "type": "address"
        },
        {
          "internalType": "address",
          "name": "_scriptyBuilder",
          "type": "address"
        }
      ],
      "stateMutability": "nonpayable",
      "type": "constructor"
    },
    {
      "anonymous": false,
      "inputs": [
        {
          "indexed": false,
          "internalType": "address",
          "name": "newAddress",
          "type": "address"
        }
      ],
      "name": "FrameCreated",
      "type": "event"
    },
    {
      "inputs": [
        {
          "components": [
            {
              "internalType": "string",
              "name": "name",
              "type": "string"
            },
            {
              "internalType": "string",
              "name": "description",
              "type": "string"
            },
            {
              "internalType": "string",
              "name": "symbol",
              "type": "string"
            }
          ],
          "internalType": "struct FrameMetadata",
          "name": "_metadata",
          "type": "tuple"
        },
        {
          "components": [
            {
              "internalType": "string",
              "name": "name",
              "type": "string"
            },
            {
              "internalType": "address",
              "name": "contractAddress",
              "type": "address"
            },
            {
              "internalType": "bytes",
              "name": "contractData",
              "type": "bytes"
            },
            {
              "internalType": "uint8",
              "name": "wrapType",
              "type": "uint8"
            },
            {
              "internalType": "bytes",
              "name": "wrapPrefix",
              "type": "bytes"
            },
            {
              "internalType": "bytes",
              "name": "wrapSuffix",
              "type": "bytes"
            },
            {
              "internalType": "bytes",
              "name": "scriptContent",
              "type": "bytes"
            }
          ],
          "internalType": "struct WrappedScriptRequest[]",
          "name": "_requests",
          "type": "tuple[]"
        },
        {
          "internalType": "uint256",
          "name": "_bufferSize",
          "type": "uint256"
        }
      ],
      "name": "createFrame",
      "outputs": [
        {
          "internalType": "address",
          "name": "",
          "type": "address"
        }
      ],
      "stateMutability": "nonpayable",
      "type": "function"
    },
    {
      "inputs": [
        {
          "components": [
            {
              "internalType": "string",
              "name": "name",
              "type": "string"
            },
            {
              "internalType": "string",
              "name": "description",
              "type": "string"
            },
            {
              "internalType": "string",
              "name": "symbol",
              "type": "string"
            }
          ],
          "internalType": "struct FrameMetadata",
          "name": "_metadata",
          "type": "tuple"
        },
        {
          "internalType": "bytes",
          "name": "_script",
          "type": "bytes"
        },
        {
          "components": [
            {
              "internalType": "string",
              "name": "name",
              "type": "string"
            },
            {
              "internalType": "address",
              "name": "contractAddress",
              "type": "address"
            },
            {
              "internalType": "bytes",
              "name": "contractData",
              "type": "bytes"
            },
            {
              "internalType": "uint8",
              "name": "wrapType",
              "type": "uint8"
            },
            {
              "internalType": "bytes",
              "name": "wrapPrefix",
              "type": "bytes"
            },
            {
              "internalType": "bytes",
              "name": "wrapSuffix",
              "type": "bytes"
            },
            {
              "internalType": "bytes",
              "name": "scriptContent",
              "type": "bytes"
            }
          ],
          "internalType": "struct WrappedScriptRequest[]",
          "name": "_requests",
          "type": "tuple[]"
        },
        {
          "internalType": "uint256",
          "name": "_requestsBufferSize",
          "type": "uint256"
        }
      ],
      "name": "createFrameWithScript",
      "outputs": [
        {
          "internalType": "address",
          "name": "",
          "type": "address"
        }
      ],
      "stateMutability": "nonpayable",
      "type": "function"
    },
    {
      "inputs": [],
      "name": "frameFactory",
      "outputs": [
        {
          "internalType": "address",
          "name": "",
          "type": "address"
        }
      ],
      "stateMutability": "view",
      "type": "function"
    },
    {
      "inputs": [],
      "name": "scriptyBuilder",
      "outputs": [
        {
          "internalType": "address",
          "name": "",
          "type": "address"
        }
      ],
      "stateMutability": "view",
      "type": "function"
    }
  ],
  "bytecode": "0x60c06040523480156200001157600080fd5b506040516200153238038062001532833981810160405281019062000037919062000111565b8173ffffffffffffffffffffffffffffffffffffffff1660808173ffffffffffffffffffffffffffffffffffffffff16815250508073ffffffffffffffffffffffffffffffffffffffff1660a08173ffffffffffffffffffffffffffffffffffffffff1681525050505062000158565b600080fd5b600073ffffffffffffffffffffffffffffffffffffffff82169050919050565b6000620000d982620000ac565b9050919050565b620000eb81620000cc565b8114620000f757600080fd5b50565b6000815190506200010b81620000e0565b92915050565b600080604083850312156200012b576200012a620000a7565b5b60006200013b85828601620000fa565b92505060206200014e85828601620000fa565b9150509250929050565b60805160a051611399620001996000396000818160ef015281816101ea01526104ff0152600081816101130152818161013a015261044f01526113996000f3fe608060405234801561001057600080fd5b506004361061004c5760003560e01c806391a0d36d14610051578063954bf4d11461006f578063b46cb1021461008d578063fd3ee5df146100bd575b600080fd5b6100596100ed565b6040516100669190610667565b60405180910390f35b610077610111565b6040516100849190610667565b60405180910390f35b6100a760048036038101906100a29190610755565b610135565b6040516100b49190610667565b60405180910390f35b6100d760048036038101906100d2919061083b565b61030c565b6040516100e49190610667565b60405180910390f35b7f000000000000000000000000000000000000000000000000000000000000000081565b7f000000000000000000000000000000000000000000000000000000000000000081565b6000807f000000000000000000000000000000000000000000000000000000000000000073ffffffffffffffffffffffffffffffffffffffff1663efc81a8c6040518163ffffffff1660e01b81526004016020604051808303816000875af11580156101a5573d6000803e3d6000fd5b505050506040513d601f19601f820116820180604052508101906101c9919061092a565b90508073ffffffffffffffffffffffffffffffffffffffff1663b1149223877f00000000000000000000000000000000000000000000000000000000000000008689896040518663ffffffff1660e01b815260040161022c959493929190610dbf565b600060405180830381600087803b15801561024657600080fd5b505af115801561025a573d6000803e3d6000fd5b505050508073ffffffffffffffffffffffffffffffffffffffff1663a50d81c7336040518263ffffffff1660e01b81526004016102979190610667565b600060405180830381600087803b1580156102b157600080fd5b505af11580156102c5573d6000803e3d6000fd5b505050507f62392641265fcc5a6a8128fd39634480ffe377e76dc54dcad335e1289fcc0fd5816040516102f89190610667565b60405180910390a180915050949350505050565b60008084846001878790506103219190610e43565b81811061033157610330610e77565b5b90506020028101906103439190610eab565b61034c906111df565b90506000816000015190506000826020015190508073ffffffffffffffffffffffffffffffffffffffff16638652d66983604051806020016040528060008152506040518363ffffffff1660e01b81526004016103aa9291906112c6565b600060405180830381600087803b1580156103c457600080fd5b505af11580156103d8573d6000803e3d6000fd5b505050508073ffffffffffffffffffffffffffffffffffffffff16633b7aa8d9838b8b6040518463ffffffff1660e01b81526004016104199392919061132a565b600060405180830381600087803b15801561043357600080fd5b505af1158015610447573d6000803e3d6000fd5b5050505060007f000000000000000000000000000000000000000000000000000000000000000073ffffffffffffffffffffffffffffffffffffffff1663efc81a8c6040518163ffffffff1660e01b81526004016020604051808303816000875af11580156104ba573d6000803e3d6000fd5b505050506040513d601f19601f820116820180604052508101906104de919061092a565b90508073ffffffffffffffffffffffffffffffffffffffff1663b11492238c7f0000000000000000000000000000000000000000000000000000000000000000898c8c6040518663ffffffff1660e01b8152600401610541959493929190610dbf565b600060405180830381600087803b15801561055b57600080fd5b505af115801561056f573d6000803e3d6000fd5b505050508073ffffffffffffffffffffffffffffffffffffffff1663a50d81c7336040518263ffffffff1660e01b81526004016105ac9190610667565b600060405180830381600087803b1580156105c657600080fd5b505af11580156105da573d6000803e3d6000fd5b505050507f62392641265fcc5a6a8128fd39634480ffe377e76dc54dcad335e1289fcc0fd58160405161060d9190610667565b60405180910390a1809450505050509695505050505050565b600073ffffffffffffffffffffffffffffffffffffffff82169050919050565b600061065182610626565b9050919050565b61066181610646565b82525050565b600060208201905061067c6000830184610658565b92915050565b6000604051905090565b600080fd5b600080fd5b600080fd5b6000606082840312156106b1576106b0610696565b5b81905092915050565b600080fd5b600080fd5b600080fd5b60008083601f8401126106df576106de6106ba565b5b8235905067ffffffffffffffff8111156106fc576106fb6106bf565b5b602083019150836020820283011115610718576107176106c4565b5b9250929050565b6000819050919050565b6107328161071f565b811461073d57600080fd5b50565b60008135905061074f81610729565b92915050565b6000806000806060858703121561076f5761076e61068c565b5b600085013567ffffffffffffffff81111561078d5761078c610691565b5b6107998782880161069b565b945050602085013567ffffffffffffffff8111156107ba576107b9610691565b5b6107c6878288016106c9565b935093505060406107d987828801610740565b91505092959194509250565b60008083601f8401126107fb576107fa6106ba565b5b8235905067ffffffffffffffff811115610818576108176106bf565b5b602083019150836001820283011115610834576108336106c4565b5b9250929050565b600080600080600080608087890312156108585761085761068c565b5b600087013567ffffffffffffffff81111561087657610875610691565b5b61088289828a0161069b565b965050602087013567ffffffffffffffff8111156108a3576108a2610691565b5b6108af89828a016107e5565b9550955050604087013567ffffffffffffffff8111156108d2576108d1610691565b5b6108de89828a016106c9565b935093505060606108f189828a01610740565b9150509295509295509295565b61090781610646565b811461091257600080fd5b50565b600081519050610924816108fe565b92915050565b6000602082840312156109405761093f61068c565b5b600061094e84828501610915565b91505092915050565b600080fd5b600080fd5b600080fd5b6000808335600160200384360303811261098357610982610961565b5b83810192508235915060208301925067ffffffffffffffff8211156109ab576109aa610957565b5b6001820236038313156109c1576109c061095c565b5b509250929050565b600082825260208201905092915050565b82818337600083830152505050565b6000601f19601f8301169050919050565b6000610a0683856109c9565b9350610a138385846109da565b610a1c836109e9565b840190509392505050565b600060608301610a3a6000840184610966565b8583036000870152610a4d8382846109fa565b92505050610a5e6020840184610966565b8583036020870152610a718382846109fa565b92505050610a826040840184610966565b8583036040870152610a958382846109fa565b925050508091505092915050565b610aac8161071f565b82525050565b600082825260208201905092915050565b6000819050919050565b600081359050610adc816108fe565b92915050565b6000610af16020840184610acd565b905092915050565b610b0281610646565b82525050565b60008083356001602003843603038112610b2557610b24610961565b5b83810192508235915060208301925067ffffffffffffffff821115610b4d57610b4c610957565b5b600182023603831315610b6357610b6261095c565b5b509250929050565b600082825260208201905092915050565b6000610b888385610b6b565b9350610b958385846109da565b610b9e836109e9565b840190509392505050565b600060ff82169050919050565b610bbf81610ba9565b8114610bca57600080fd5b50565b600081359050610bdc81610bb6565b92915050565b6000610bf16020840184610bcd565b905092915050565b610c0281610ba9565b82525050565b600060e08301610c1b6000840184610966565b8583036000870152610c2e8382846109fa565b92505050610c3f6020840184610ae2565b610c4c6020860182610af9565b50610c5a6040840184610b08565b8583036040870152610c6d838284610b7c565b92505050610c7e6060840184610be2565b610c8b6060860182610bf9565b50610c996080840184610b08565b8583036080870152610cac838284610b7c565b92505050610cbd60a0840184610b08565b85830360a0870152610cd0838284610b7c565b92505050610ce160c0840184610b08565b85830360c0870152610cf4838284610b7c565b925050508091505092915050565b6000610d0e8383610c08565b905092915050565b60008235600160e003833603038112610d3257610d31610961565b5b82810191505092915050565b6000602082019050919050565b6000610d578385610ab2565b935083602084028501610d6984610ac3565b8060005b87811015610dad578484038952610d848284610d16565b610d8e8582610d02565b9450610d9983610d3e565b925060208a01995050600181019050610d6d565b50829750879450505050509392505050565b60006080820190508181036000830152610dd98188610a27565b9050610de86020830187610658565b610df56040830186610aa3565b8181036060830152610e08818486610d4b565b90509695505050505050565b7f4e487b7100000000000000000000000000000000000000000000000000000000600052601160045260246000fd5b6000610e4e8261071f565b9150610e598361071f565b9250828203905081811115610e7157610e70610e14565b5b92915050565b7f4e487b7100000000000000000000000000000000000000000000000000000000600052603260045260246000fd5b600080fd5b60008235600160e003833603038112610ec757610ec6610ea6565b5b80830191505092915050565b600080fd5b7f4e487b7100000000000000000000000000000000000000000000000000000000600052604160045260246000fd5b610f10826109e9565b810181811067ffffffffffffffff82111715610f2f57610f2e610ed8565b5b80604052505050565b6000610f42610682565b9050610f4e8282610f07565b919050565b600080fd5b600080fd5b600067ffffffffffffffff821115610f7857610f77610ed8565b5b610f81826109e9565b9050602081019050919050565b6000610fa1610f9c84610f5d565b610f38565b905082815260208101848484011115610fbd57610fbc610f58565b5b610fc88482856109da565b509392505050565b600082601f830112610fe557610fe46106ba565b5b8135610ff5848260208601610f8e565b91505092915050565b600067ffffffffffffffff82111561101957611018610ed8565b5b611022826109e9565b9050602081019050919050565b600061104261103d84610ffe565b610f38565b90508281526020810184848401111561105e5761105d610f58565b5b6110698482856109da565b509392505050565b600082601f830112611086576110856106ba565b5b813561109684826020860161102f565b91505092915050565b600060e082840312156110b5576110b4610ed3565b5b6110bf60e0610f38565b9050600082013567ffffffffffffffff8111156110df576110de610f53565b5b6110eb84828501610fd0565b60008301525060206110ff84828501610acd565b602083015250604082013567ffffffffffffffff81111561112357611122610f53565b5b61112f84828501611071565b604083015250606061114384828501610bcd565b606083015250608082013567ffffffffffffffff81111561116757611166610f53565b5b61117384828501611071565b60808301525060a082013567ffffffffffffffff81111561119757611196610f53565b5b6111a384828501611071565b60a08301525060c082013567ffffffffffffffff8111156111c7576111c6610f53565b5b6111d384828501611071565b60c08301525092915050565b60006111eb368361109f565b9050919050565b600081519050919050565b600082825260208201905092915050565b60005b8381101561122c578082015181840152602081019050611211565b60008484015250505050565b6000611243826111f2565b61124d81856111fd565b935061125d81856020860161120e565b611266816109e9565b840191505092915050565b600081519050919050565b600082825260208201905092915050565b600061129882611271565b6112a2818561127c565b93506112b281856020860161120e565b6112bb816109e9565b840191505092915050565b600060408201905081810360008301526112e08185611238565b905081810360208301526112f4818461128d565b90509392505050565b6000611309838561127c565b93506113168385846109da565b61131f836109e9565b840190509392505050565b600060408201905081810360008301526113448186611238565b905081810360208301526113598184866112fd565b905094935050505056fea264697066735822122058c7f8c8a995dfcfb53ea7e40cdcf8a9ac7cd00edca0fe49b1cf3d8ed637db2764736f6c63430008110033",
  "linkReferences": {},
  "deployedLinkReferences": {}
}