{
  "_format": "hh-sol-artifact-1",
  "contractName": "FrameDeployer",
  "sourceName": "src/contracts/FrameDeployer.sol",
  "abi": [
    {
      "inputs": [
        {
          "internalType": "address",
          "name": "_scriptyStorageFactory",
          "type": "address"
        },
        {
          "internalType": "address",
          "name": "_frameFactory",
          "type": "address"
        },
        {
          "internalType": "address",
          "name": "_scriptyBuilder",
          "type": "address"
        }
      ],
      "stateMutability": "nonpayable",
      "type": "constructor"
    },
    {
      "anonymous": false,
      "inputs": [
        {
          "indexed": false,
          "internalType": "address",
          "name": "newAddress",
          "type": "address"
        }
      ],
      "name": "FrameCreated",
      "type": "event"
    },
    {
      "inputs": [
        {
          "components": [
            {
              "internalType": "string",
              "name": "name",
              "type": "string"
            },
            {
              "internalType": "string",
              "name": "description",
              "type": "string"
            },
            {
              "internalType": "string",
              "name": "symbol",
              "type": "string"
            }
          ],
          "internalType": "struct FrameMetadata",
          "name": "_metadata",
          "type": "tuple"
        },
        {
          "components": [
            {
              "internalType": "string",
              "name": "name",
              "type": "string"
            },
            {
              "internalType": "address",
              "name": "contractAddress",
              "type": "address"
            },
            {
              "internalType": "bytes",
              "name": "contractData",
              "type": "bytes"
            },
            {
              "internalType": "uint8",
              "name": "wrapType",
              "type": "uint8"
            },
            {
              "internalType": "bytes",
              "name": "wrapPrefix",
              "type": "bytes"
            },
            {
              "internalType": "bytes",
              "name": "wrapSuffix",
              "type": "bytes"
            },
            {
              "internalType": "bytes",
              "name": "scriptContent",
              "type": "bytes"
            }
          ],
          "internalType": "struct WrappedScriptRequest[]",
          "name": "_requests",
          "type": "tuple[]"
        },
        {
          "internalType": "uint256",
          "name": "_bufferSize",
          "type": "uint256"
        }
      ],
      "name": "createFrame",
      "outputs": [
        {
          "internalType": "address",
          "name": "",
          "type": "address"
        }
      ],
      "stateMutability": "nonpayable",
      "type": "function"
    },
    {
      "inputs": [
        {
          "components": [
            {
              "internalType": "string",
              "name": "name",
              "type": "string"
            },
            {
              "internalType": "string",
              "name": "description",
              "type": "string"
            },
            {
              "internalType": "string",
              "name": "symbol",
              "type": "string"
            }
          ],
          "internalType": "struct FrameMetadata",
          "name": "_metadata",
          "type": "tuple"
        },
        {
          "internalType": "bytes",
          "name": "_script",
          "type": "bytes"
        },
        {
          "components": [
            {
              "internalType": "string",
              "name": "name",
              "type": "string"
            },
            {
              "internalType": "bytes",
              "name": "contractData",
              "type": "bytes"
            },
            {
              "internalType": "uint8",
              "name": "wrapType",
              "type": "uint8"
            },
            {
              "internalType": "bytes",
              "name": "wrapPrefix",
              "type": "bytes"
            },
            {
              "internalType": "bytes",
              "name": "wrapSuffix",
              "type": "bytes"
            },
            {
              "internalType": "bytes",
              "name": "scriptContent",
              "type": "bytes"
            }
          ],
          "internalType": "struct EmptyWrappedScriptRequest",
          "name": "_scriptRequest",
          "type": "tuple"
        },
        {
          "components": [
            {
              "internalType": "string",
              "name": "name",
              "type": "string"
            },
            {
              "internalType": "address",
              "name": "contractAddress",
              "type": "address"
            },
            {
              "internalType": "bytes",
              "name": "contractData",
              "type": "bytes"
            },
            {
              "internalType": "uint8",
              "name": "wrapType",
              "type": "uint8"
            },
            {
              "internalType": "bytes",
              "name": "wrapPrefix",
              "type": "bytes"
            },
            {
              "internalType": "bytes",
              "name": "wrapSuffix",
              "type": "bytes"
            },
            {
              "internalType": "bytes",
              "name": "scriptContent",
              "type": "bytes"
            }
          ],
          "internalType": "struct WrappedScriptRequest[]",
          "name": "_requests",
          "type": "tuple[]"
        },
        {
          "internalType": "uint256",
          "name": "_requestsBufferSize",
          "type": "uint256"
        }
      ],
      "name": "createFrameWithScript",
      "outputs": [
        {
          "internalType": "address",
          "name": "",
          "type": "address"
        }
      ],
      "stateMutability": "nonpayable",
      "type": "function"
    },
    {
      "inputs": [],
      "name": "frameFactory",
      "outputs": [
        {
          "internalType": "address",
          "name": "",
          "type": "address"
        }
      ],
      "stateMutability": "view",
      "type": "function"
    },
    {
      "inputs": [],
      "name": "scriptyBuilder",
      "outputs": [
        {
          "internalType": "address",
          "name": "",
          "type": "address"
        }
      ],
      "stateMutability": "view",
      "type": "function"
    },
    {
      "inputs": [],
      "name": "scriptyStorageFactory",
      "outputs": [
        {
          "internalType": "address",
          "name": "",
          "type": "address"
        }
      ],
      "stateMutability": "view",
      "type": "function"
    }
  ],
  "bytecode": "0x60e06040523480156200001157600080fd5b5060405162001c2038038062001c20833981810160405281019062000037919062000146565b8273ffffffffffffffffffffffffffffffffffffffff1660808173ffffffffffffffffffffffffffffffffffffffff16815250508173ffffffffffffffffffffffffffffffffffffffff1660a08173ffffffffffffffffffffffffffffffffffffffff16815250508073ffffffffffffffffffffffffffffffffffffffff1660c08173ffffffffffffffffffffffffffffffffffffffff1681525050505050620001a2565b600080fd5b600073ffffffffffffffffffffffffffffffffffffffff82169050919050565b60006200010e82620000e1565b9050919050565b620001208162000101565b81146200012c57600080fd5b50565b600081519050620001408162000115565b92915050565b600080600060608486031215620001625762000161620000dc565b5b600062000172868287016200012f565b935050602062000185868287016200012f565b925050604062000198868287016200012f565b9150509250925092565b60805160a05160c051611a2b620001f5600039600081816101180152818161023701526107bf01526000818161013c015281816101870152610412015260008181610160015261035e0152611a2b6000f3fe608060405234801561001057600080fd5b50600436106100575760003560e01c806391a0d36d1461005c578063954bf4d11461007a57806396ed95d814610098578063b46cb102146100b6578063fbcd2d83146100e6575b600080fd5b610064610116565b604051610071919061097c565b60405180910390f35b61008261013a565b60405161008f919061097c565b60405180910390f35b6100a061015e565b6040516100ad919061097c565b60405180910390f35b6100d060048036038101906100cb9190610a6a565b610182565b6040516100dd919061097c565b60405180910390f35b61010060048036038101906100fb9190610b6f565b610359565b60405161010d919061097c565b60405180910390f35b7f000000000000000000000000000000000000000000000000000000000000000081565b7f000000000000000000000000000000000000000000000000000000000000000081565b7f000000000000000000000000000000000000000000000000000000000000000081565b6000807f000000000000000000000000000000000000000000000000000000000000000073ffffffffffffffffffffffffffffffffffffffff1663efc81a8c6040518163ffffffff1660e01b81526004016020604051808303816000875af11580156101f2573d6000803e3d6000fd5b505050506040513d601f19601f820116820180604052508101906102169190610c8f565b90508073ffffffffffffffffffffffffffffffffffffffff1663b1149223877f00000000000000000000000000000000000000000000000000000000000000008689896040518663ffffffff1660e01b8152600401610279959493929190611124565b600060405180830381600087803b15801561029357600080fd5b505af11580156102a7573d6000803e3d6000fd5b505050508073ffffffffffffffffffffffffffffffffffffffff1663a50d81c7336040518263ffffffff1660e01b81526004016102e4919061097c565b600060405180830381600087803b1580156102fe57600080fd5b505af1158015610312573d6000803e3d6000fd5b505050507f62392641265fcc5a6a8128fd39634480ffe377e76dc54dcad335e1289fcc0fd581604051610345919061097c565b60405180910390a180915050949350505050565b6000807f000000000000000000000000000000000000000000000000000000000000000073ffffffffffffffffffffffffffffffffffffffff16631bf235ee8780600001906103a89190611188565b8b8b6040518563ffffffff1660e01b81526004016103c99493929190611267565b6020604051808303816000875af11580156103e8573d6000803e3d6000fd5b505050506040513d601f19601f8201168201806040525081019061040c9190610c8f565b905060007f000000000000000000000000000000000000000000000000000000000000000073ffffffffffffffffffffffffffffffffffffffff1663efc81a8c6040518163ffffffff1660e01b81526004016020604051808303816000875af115801561047d573d6000803e3d6000fd5b505050506040513d601f19601f820116820180604052508101906104a19190610c8f565b905060006001878790506104b591906112d1565b905060008167ffffffffffffffff8111156104d3576104d2611305565b5b60405190808252806020026020018201604052801561050c57816020015b6104f96108e5565b8152602001906001900390816104f15790505b50905060005b8888905081101561057c578888828181106105305761052f611334565b5b90506020028101906105429190611363565b61054b90611668565b82828151811061055e5761055d611334565b5b602002602001018190525080806105749061167b565b915050610512565b506040518060e001604052808a80600001906105989190611188565b8080601f016020809104026020016040519081016040528093929190818152602001838380828437600081840152601f19601f8201169050808301925050505050505081526020018573ffffffffffffffffffffffffffffffffffffffff1681526020018a806020019061060c91906116c3565b8080601f016020809104026020016040519081016040528093929190818152602001838380828437600081840152601f19601f8201169050808301925050505050505081526020018a60400160208101906106679190611726565b60ff1681526020018a806060019061067f91906116c3565b8080601f016020809104026020016040519081016040528093929190818152602001838380828437600081840152601f19601f8201169050808301925050505050505081526020018a80608001906106d791906116c3565b8080601f016020809104026020016040519081016040528093929190818152602001838380828437600081840152601f19601f8201169050808301925050505050505081526020018a8060a0019061072f91906116c3565b8080601f016020809104026020016040519081016040528093929190818152602001838380828437600081840152601f19601f8201169050808301925050505050505081525081600183516107849190611753565b8151811061079557610794611334565b5b60200260200101819052508273ffffffffffffffffffffffffffffffffffffffff1663b11492238d7f000000000000000000000000000000000000000000000000000000000000000089856040518563ffffffff1660e01b81526004016107ff94939291906119a2565b600060405180830381600087803b15801561081957600080fd5b505af115801561082d573d6000803e3d6000fd5b505050508273ffffffffffffffffffffffffffffffffffffffff1663a50d81c7336040518263ffffffff1660e01b815260040161086a919061097c565b600060405180830381600087803b15801561088457600080fd5b505af1158015610898573d6000803e3d6000fd5b505050507f62392641265fcc5a6a8128fd39634480ffe377e76dc54dcad335e1289fcc0fd5836040516108cb919061097c565b60405180910390a182945050505050979650505050505050565b6040518060e0016040528060608152602001600073ffffffffffffffffffffffffffffffffffffffff16815260200160608152602001600060ff1681526020016060815260200160608152602001606081525090565b600073ffffffffffffffffffffffffffffffffffffffff82169050919050565b60006109668261093b565b9050919050565b6109768161095b565b82525050565b6000602082019050610991600083018461096d565b92915050565b6000604051905090565b600080fd5b600080fd5b600080fd5b6000606082840312156109c6576109c56109ab565b5b81905092915050565b600080fd5b600080fd5b600080fd5b60008083601f8401126109f4576109f36109cf565b5b8235905067ffffffffffffffff811115610a1157610a106109d4565b5b602083019150836020820283011115610a2d57610a2c6109d9565b5b9250929050565b6000819050919050565b610a4781610a34565b8114610a5257600080fd5b50565b600081359050610a6481610a3e565b92915050565b60008060008060608587031215610a8457610a836109a1565b5b600085013567ffffffffffffffff811115610aa257610aa16109a6565b5b610aae878288016109b0565b945050602085013567ffffffffffffffff811115610acf57610ace6109a6565b5b610adb878288016109de565b93509350506040610aee87828801610a55565b91505092959194509250565b60008083601f840112610b1057610b0f6109cf565b5b8235905067ffffffffffffffff811115610b2d57610b2c6109d4565b5b602083019150836001820283011115610b4957610b486109d9565b5b9250929050565b600060c08284031215610b6657610b656109ab565b5b81905092915050565b600080600080600080600060a0888a031215610b8e57610b8d6109a1565b5b600088013567ffffffffffffffff811115610bac57610bab6109a6565b5b610bb88a828b016109b0565b975050602088013567ffffffffffffffff811115610bd957610bd86109a6565b5b610be58a828b01610afa565b9650965050604088013567ffffffffffffffff811115610c0857610c076109a6565b5b610c148a828b01610b50565b945050606088013567ffffffffffffffff811115610c3557610c346109a6565b5b610c418a828b016109de565b93509350506080610c548a828b01610a55565b91505092959891949750929550565b610c6c8161095b565b8114610c7757600080fd5b50565b600081519050610c8981610c63565b92915050565b600060208284031215610ca557610ca46109a1565b5b6000610cb384828501610c7a565b91505092915050565b600080fd5b600080fd5b600080fd5b60008083356001602003843603038112610ce857610ce7610cc6565b5b83810192508235915060208301925067ffffffffffffffff821115610d1057610d0f610cbc565b5b600182023603831315610d2657610d25610cc1565b5b509250929050565b600082825260208201905092915050565b82818337600083830152505050565b6000601f19601f8301169050919050565b6000610d6b8385610d2e565b9350610d78838584610d3f565b610d8183610d4e565b840190509392505050565b600060608301610d9f6000840184610ccb565b8583036000870152610db2838284610d5f565b92505050610dc36020840184610ccb565b8583036020870152610dd6838284610d5f565b92505050610de76040840184610ccb565b8583036040870152610dfa838284610d5f565b925050508091505092915050565b610e1181610a34565b82525050565b600082825260208201905092915050565b6000819050919050565b600081359050610e4181610c63565b92915050565b6000610e566020840184610e32565b905092915050565b610e678161095b565b82525050565b60008083356001602003843603038112610e8a57610e89610cc6565b5b83810192508235915060208301925067ffffffffffffffff821115610eb257610eb1610cbc565b5b600182023603831315610ec857610ec7610cc1565b5b509250929050565b600082825260208201905092915050565b6000610eed8385610ed0565b9350610efa838584610d3f565b610f0383610d4e565b840190509392505050565b600060ff82169050919050565b610f2481610f0e565b8114610f2f57600080fd5b50565b600081359050610f4181610f1b565b92915050565b6000610f566020840184610f32565b905092915050565b610f6781610f0e565b82525050565b600060e08301610f806000840184610ccb565b8583036000870152610f93838284610d5f565b92505050610fa46020840184610e47565b610fb16020860182610e5e565b50610fbf6040840184610e6d565b8583036040870152610fd2838284610ee1565b92505050610fe36060840184610f47565b610ff06060860182610f5e565b50610ffe6080840184610e6d565b8583036080870152611011838284610ee1565b9250505061102260a0840184610e6d565b85830360a0870152611035838284610ee1565b9250505061104660c0840184610e6d565b85830360c0870152611059838284610ee1565b925050508091505092915050565b60006110738383610f6d565b905092915050565b60008235600160e00383360303811261109757611096610cc6565b5b82810191505092915050565b6000602082019050919050565b60006110bc8385610e17565b9350836020840285016110ce84610e28565b8060005b878110156111125784840389526110e9828461107b565b6110f38582611067565b94506110fe836110a3565b925060208a019950506001810190506110d2565b50829750879450505050509392505050565b6000608082019050818103600083015261113e8188610d8c565b905061114d602083018761096d565b61115a6040830186610e08565b818103606083015261116d8184866110b0565b90509695505050505050565b600080fd5b600080fd5b600080fd5b600080833560016020038436030381126111a5576111a4611179565b5b80840192508235915067ffffffffffffffff8211156111c7576111c661117e565b5b6020830192506001820236038313156111e3576111e2611183565b5b509250929050565b600082825260208201905092915050565b600061120883856111eb565b9350611215838584610d3f565b61121e83610d4e565b840190509392505050565b600082825260208201905092915050565b60006112468385611229565b9350611253838584610d3f565b61125c83610d4e565b840190509392505050565b600060408201905081810360008301526112828186886111fc565b9050818103602083015261129781848661123a565b905095945050505050565b7f4e487b7100000000000000000000000000000000000000000000000000000000600052601160045260246000fd5b60006112dc82610a34565b91506112e783610a34565b92508282019050808211156112ff576112fe6112a2565b5b92915050565b7f4e487b7100000000000000000000000000000000000000000000000000000000600052604160045260246000fd5b7f4e487b7100000000000000000000000000000000000000000000000000000000600052603260045260246000fd5b60008235600160e00383360303811261137f5761137e611179565b5b80830191505092915050565b600080fd5b61139982610d4e565b810181811067ffffffffffffffff821117156113b8576113b7611305565b5b80604052505050565b60006113cb610997565b90506113d78282611390565b919050565b600080fd5b600080fd5b600067ffffffffffffffff82111561140157611400611305565b5b61140a82610d4e565b9050602081019050919050565b600061142a611425846113e6565b6113c1565b905082815260208101848484011115611446576114456113e1565b5b611451848285610d3f565b509392505050565b600082601f83011261146e5761146d6109cf565b5b813561147e848260208601611417565b91505092915050565b600067ffffffffffffffff8211156114a2576114a1611305565b5b6114ab82610d4e565b9050602081019050919050565b60006114cb6114c684611487565b6113c1565b9050828152602081018484840111156114e7576114e66113e1565b5b6114f2848285610d3f565b509392505050565b600082601f83011261150f5761150e6109cf565b5b813561151f8482602086016114b8565b91505092915050565b600060e0828403121561153e5761153d61138b565b5b61154860e06113c1565b9050600082013567ffffffffffffffff811115611568576115676113dc565b5b61157484828501611459565b600083015250602061158884828501610e32565b602083015250604082013567ffffffffffffffff8111156115ac576115ab6113dc565b5b6115b8848285016114fa565b60408301525060606115cc84828501610f32565b606083015250608082013567ffffffffffffffff8111156115f0576115ef6113dc565b5b6115fc848285016114fa565b60808301525060a082013567ffffffffffffffff8111156116205761161f6113dc565b5b61162c848285016114fa565b60a08301525060c082013567ffffffffffffffff8111156116505761164f6113dc565b5b61165c848285016114fa565b60c08301525092915050565b60006116743683611528565b9050919050565b600061168682610a34565b91507fffffffffffffffffffffffffffffffffffffffffffffffffffffffffffffffff82036116b8576116b76112a2565b5b600182019050919050565b600080833560016020038436030381126116e0576116df611179565b5b80840192508235915067ffffffffffffffff8211156117025761170161117e565b5b60208301925060018202360383131561171e5761171d611183565b5b509250929050565b60006020828403121561173c5761173b6109a1565b5b600061174a84828501610f32565b91505092915050565b600061175e82610a34565b915061176983610a34565b9250828203905081811115611781576117806112a2565b5b92915050565b600081519050919050565b6000819050602082019050919050565b600081519050919050565b60005b838110156117cb5780820151818401526020810190506117b0565b60008484015250505050565b60006117e2826117a2565b6117ec8185610d2e565b93506117fc8185602086016117ad565b61180581610d4e565b840191505092915050565b600081519050919050565b600061182682611810565b6118308185610ed0565b93506118408185602086016117ad565b61184981610d4e565b840191505092915050565b600060e083016000830151848203600086015261187182826117d7565b91505060208301516118866020860182610e5e565b506040830151848203604086015261189e828261181b565b91505060608301516118b36060860182610f5e565b50608083015184820360808601526118cb828261181b565b91505060a083015184820360a08601526118e5828261181b565b91505060c083015184820360c08601526118ff828261181b565b9150508091505092915050565b60006119188383611854565b905092915050565b6000602082019050919050565b600061193882611787565b6119428185610e17565b93508360208202850161195485611792565b8060005b858110156119905784840389528151611971858261190c565b945061197c83611920565b925060208a01995050600181019050611958565b50829750879550505050505092915050565b600060808201905081810360008301526119bc8187610d8c565b90506119cb602083018661096d565b6119d86040830185610e08565b81810360608301526119ea818461192d565b90509594505050505056fea2646970667358221220ca3a5ae4803f5ca37b6706a1972a259c550b2aa75210189fdc86c88d7aa7a2c064736f6c63430008110033",
  "linkReferences": {},
  "deployedLinkReferences": {}
}