{
  "_format": "hh-sol-artifact-1",
  "contractName": "FrameDeployer",
  "sourceName": "src/contracts/FrameDeployer.sol",
  "abi": [
    {
      "inputs": [
        {
          "internalType": "address",
          "name": "_scriptyStorage",
          "type": "address"
        },
        {
          "internalType": "address",
          "name": "_frame",
          "type": "address"
        },
        {
          "internalType": "address",
          "name": "_scriptyBuilder",
          "type": "address"
        }
      ],
      "stateMutability": "nonpayable",
      "type": "constructor"
    },
    {
      "anonymous": false,
      "inputs": [
        {
          "indexed": false,
          "internalType": "address",
          "name": "newAddress",
          "type": "address"
        }
      ],
      "name": "FrameCreated",
      "type": "event"
    },
    {
      "inputs": [
        {
          "internalType": "string",
          "name": "_name",
          "type": "string"
        },
        {
          "internalType": "string",
          "name": "_symbol",
          "type": "string"
        },
        {
          "internalType": "uint256",
          "name": "_bufferSize",
          "type": "uint256"
        },
        {
          "components": [
            {
              "internalType": "string",
              "name": "name",
              "type": "string"
            },
            {
              "internalType": "address",
              "name": "contractAddress",
              "type": "address"
            },
            {
              "internalType": "bytes",
              "name": "contractData",
              "type": "bytes"
            },
            {
              "internalType": "uint8",
              "name": "wrapType",
              "type": "uint8"
            },
            {
              "internalType": "bytes",
              "name": "wrapPrefix",
              "type": "bytes"
            },
            {
              "internalType": "bytes",
              "name": "wrapSuffix",
              "type": "bytes"
            },
            {
              "internalType": "bytes",
              "name": "scriptContent",
              "type": "bytes"
            }
          ],
          "internalType": "struct WrappedScriptRequest[]",
          "name": "_requests",
          "type": "tuple[]"
        }
      ],
      "name": "createFrame",
      "outputs": [
        {
          "internalType": "address",
          "name": "",
          "type": "address"
        }
      ],
      "stateMutability": "nonpayable",
      "type": "function"
    },
    {
      "inputs": [],
      "name": "frameFactory",
      "outputs": [
        {
          "internalType": "address",
          "name": "",
          "type": "address"
        }
      ],
      "stateMutability": "view",
      "type": "function"
    },
    {
      "inputs": [],
      "name": "scriptyBuilder",
      "outputs": [
        {
          "internalType": "address",
          "name": "",
          "type": "address"
        }
      ],
      "stateMutability": "view",
      "type": "function"
    },
    {
      "inputs": [],
      "name": "scriptyStorageFactory",
      "outputs": [
        {
          "internalType": "address",
          "name": "",
          "type": "address"
        }
      ],
      "stateMutability": "view",
      "type": "function"
    }
  ],
  "bytecode": "0x60806040523480156200001157600080fd5b5060405162000fbb38038062000fbb83398181016040528101906200003791906200016c565b826000806101000a81548173ffffffffffffffffffffffffffffffffffffffff021916908373ffffffffffffffffffffffffffffffffffffffff16021790555081600160006101000a81548173ffffffffffffffffffffffffffffffffffffffff021916908373ffffffffffffffffffffffffffffffffffffffff16021790555080600260006101000a81548173ffffffffffffffffffffffffffffffffffffffff021916908373ffffffffffffffffffffffffffffffffffffffff160217905550505050620001c8565b600080fd5b600073ffffffffffffffffffffffffffffffffffffffff82169050919050565b6000620001348262000107565b9050919050565b620001468162000127565b81146200015257600080fd5b50565b60008151905062000166816200013b565b92915050565b60008060006060848603121562000188576200018762000102565b5b6000620001988682870162000155565b9350506020620001ab8682870162000155565b9250506040620001be8682870162000155565b9150509250925092565b610de380620001d86000396000f3fe608060405234801561001057600080fd5b506004361061004c5760003560e01c806391a0d36d14610051578063954bf4d11461006f57806396ed95d81461008d578063adbeae72146100ab575b600080fd5b6100596100db565b604051610066919061043c565b60405180910390f35b610077610101565b604051610084919061043c565b60405180910390f35b610095610127565b6040516100a2919061043c565b60405180910390f35b6100c560048036038101906100c0919061091d565b61014b565b6040516100d2919061043c565b60405180910390f35b600260009054906101000a900473ffffffffffffffffffffffffffffffffffffffff1681565b600160009054906101000a900473ffffffffffffffffffffffffffffffffffffffff1681565b60008054906101000a900473ffffffffffffffffffffffffffffffffffffffff1681565b600080600160009054906101000a900473ffffffffffffffffffffffffffffffffffffffff1673ffffffffffffffffffffffffffffffffffffffff1663efc81a8c6040518163ffffffff1660e01b81526004016020604051808303816000875af11580156101bd573d6000803e3d6000fd5b505050506040513d601f19601f820116820180604052508101906101e191906109ed565b90508073ffffffffffffffffffffffffffffffffffffffff16638ec6e11a600260009054906101000a900473ffffffffffffffffffffffffffffffffffffffff1686866040518463ffffffff1660e01b815260040161024293929190610c95565b600060405180830381600087803b15801561025c57600080fd5b505af1158015610270573d6000803e3d6000fd5b505050508073ffffffffffffffffffffffffffffffffffffffff1663c47f0027876040518263ffffffff1660e01b81526004016102ad9190610d1d565b600060405180830381600087803b1580156102c757600080fd5b505af11580156102db573d6000803e3d6000fd5b505050508073ffffffffffffffffffffffffffffffffffffffff1663b84c8246866040518263ffffffff1660e01b81526004016103189190610d1d565b600060405180830381600087803b15801561033257600080fd5b505af1158015610346573d6000803e3d6000fd5b505050508073ffffffffffffffffffffffffffffffffffffffff16634b7cf0496000336040518363ffffffff1660e01b8152600401610386929190610d84565b600060405180830381600087803b1580156103a057600080fd5b505af11580156103b4573d6000803e3d6000fd5b505050507f62392641265fcc5a6a8128fd39634480ffe377e76dc54dcad335e1289fcc0fd5816040516103e7919061043c565b60405180910390a180915050949350505050565b600073ffffffffffffffffffffffffffffffffffffffff82169050919050565b6000610426826103fb565b9050919050565b6104368161041b565b82525050565b6000602082019050610451600083018461042d565b92915050565b6000604051905090565b600080fd5b600080fd5b600080fd5b600080fd5b6000601f19601f8301169050919050565b7f4e487b7100000000000000000000000000000000000000000000000000000000600052604160045260246000fd5b6104be82610475565b810181811067ffffffffffffffff821117156104dd576104dc610486565b5b80604052505050565b60006104f0610457565b90506104fc82826104b5565b919050565b600067ffffffffffffffff82111561051c5761051b610486565b5b61052582610475565b9050602081019050919050565b82818337600083830152505050565b600061055461054f84610501565b6104e6565b9050828152602081018484840111156105705761056f610470565b5b61057b848285610532565b509392505050565b600082601f8301126105985761059761046b565b5b81356105a8848260208601610541565b91505092915050565b6000819050919050565b6105c4816105b1565b81146105cf57600080fd5b50565b6000813590506105e1816105bb565b92915050565b600067ffffffffffffffff82111561060257610601610486565b5b602082029050602081019050919050565b600080fd5b600080fd5b600080fd5b61062b8161041b565b811461063657600080fd5b50565b60008135905061064881610622565b92915050565b600067ffffffffffffffff82111561066957610668610486565b5b61067282610475565b9050602081019050919050565b600061069261068d8461064e565b6104e6565b9050828152602081018484840111156106ae576106ad610470565b5b6106b9848285610532565b509392505050565b600082601f8301126106d6576106d561046b565b5b81356106e684826020860161067f565b91505092915050565b600060ff82169050919050565b610705816106ef565b811461071057600080fd5b50565b600081359050610722816106fc565b92915050565b600060e0828403121561073e5761073d610618565b5b61074860e06104e6565b9050600082013567ffffffffffffffff8111156107685761076761061d565b5b61077484828501610583565b600083015250602061078884828501610639565b602083015250604082013567ffffffffffffffff8111156107ac576107ab61061d565b5b6107b8848285016106c1565b60408301525060606107cc84828501610713565b606083015250608082013567ffffffffffffffff8111156107f0576107ef61061d565b5b6107fc848285016106c1565b60808301525060a082013567ffffffffffffffff8111156108205761081f61061d565b5b61082c848285016106c1565b60a08301525060c082013567ffffffffffffffff8111156108505761084f61061d565b5b61085c848285016106c1565b60c08301525092915050565b600061087b610876846105e7565b6104e6565b9050808382526020820190506020840283018581111561089e5761089d610613565b5b835b818110156108e557803567ffffffffffffffff8111156108c3576108c261046b565b5b8086016108d08982610728565b855260208501945050506020810190506108a0565b5050509392505050565b600082601f8301126109045761090361046b565b5b8135610914848260208601610868565b91505092915050565b6000806000806080858703121561093757610936610461565b5b600085013567ffffffffffffffff81111561095557610954610466565b5b61096187828801610583565b945050602085013567ffffffffffffffff81111561098257610981610466565b5b61098e87828801610583565b935050604061099f878288016105d2565b925050606085013567ffffffffffffffff8111156109c0576109bf610466565b5b6109cc878288016108ef565b91505092959194509250565b6000815190506109e781610622565b92915050565b600060208284031215610a0357610a02610461565b5b6000610a11848285016109d8565b91505092915050565b610a23816105b1565b82525050565b600081519050919050565b600082825260208201905092915050565b6000819050602082019050919050565b600081519050919050565b600082825260208201905092915050565b60005b83811015610a8f578082015181840152602081019050610a74565b60008484015250505050565b6000610aa682610a55565b610ab08185610a60565b9350610ac0818560208601610a71565b610ac981610475565b840191505092915050565b610add8161041b565b82525050565b600081519050919050565b600082825260208201905092915050565b6000610b0a82610ae3565b610b148185610aee565b9350610b24818560208601610a71565b610b2d81610475565b840191505092915050565b610b41816106ef565b82525050565b600060e0830160008301518482036000860152610b648282610a9b565b9150506020830151610b796020860182610ad4565b5060408301518482036040860152610b918282610aff565b9150506060830151610ba66060860182610b38565b5060808301518482036080860152610bbe8282610aff565b91505060a083015184820360a0860152610bd88282610aff565b91505060c083015184820360c0860152610bf28282610aff565b9150508091505092915050565b6000610c0b8383610b47565b905092915050565b6000602082019050919050565b6000610c2b82610a29565b610c358185610a34565b935083602082028501610c4785610a45565b8060005b85811015610c835784840389528151610c648582610bff565b9450610c6f83610c13565b925060208a01995050600181019050610c4b565b50829750879550505050505092915050565b6000606082019050610caa600083018661042d565b610cb76020830185610a1a565b8181036040830152610cc98184610c20565b9050949350505050565b600082825260208201905092915050565b6000610cef82610a55565b610cf98185610cd3565b9350610d09818560208601610a71565b610d1281610475565b840191505092915050565b60006020820190508181036000830152610d378184610ce4565b905092915050565b6000819050919050565b6000819050919050565b6000610d6e610d69610d6484610d3f565b610d49565b6105b1565b9050919050565b610d7e81610d53565b82525050565b6000604082019050610d996000830185610d75565b610da6602083018461042d565b939250505056fea2646970667358221220023c0e7bc46ee40e65d4ebff879bbcf546db23b99c481ee39c79cd4c0d9f0bce64736f6c63430008110033",
  "linkReferences": {},
  "deployedLinkReferences": {}
}