{
  "_format": "hh-sol-artifact-1",
  "contractName": "FrameDeployer",
  "sourceName": "src/contracts/FrameDeployer.sol",
  "abi": [
    {
      "inputs": [
        {
          "internalType": "address",
          "name": "_contentStore",
          "type": "address"
        },
        {
          "internalType": "address",
          "name": "_scriptyStorage",
          "type": "address"
        },
        {
          "internalType": "address",
          "name": "_frame",
          "type": "address"
        },
        {
          "internalType": "address",
          "name": "_scriptyBuilder",
          "type": "address"
        }
      ],
      "stateMutability": "nonpayable",
      "type": "constructor"
    },
    {
      "anonymous": false,
      "inputs": [
        {
          "indexed": false,
          "internalType": "address",
          "name": "newAddress",
          "type": "address"
        }
      ],
      "name": "FrameCreated",
      "type": "event"
    },
    {
      "inputs": [],
      "name": "contentStoreFactory",
      "outputs": [
        {
          "internalType": "address",
          "name": "",
          "type": "address"
        }
      ],
      "stateMutability": "view",
      "type": "function"
    },
    {
      "inputs": [
        {
          "internalType": "string",
          "name": "_name",
          "type": "string"
        },
        {
          "internalType": "string",
          "name": "_symbol",
          "type": "string"
        },
        {
          "internalType": "bytes",
          "name": "_source",
          "type": "bytes"
        },
        {
          "internalType": "uint256",
          "name": "_bufferSize",
          "type": "uint256"
        },
        {
          "components": [
            {
              "internalType": "string",
              "name": "name",
              "type": "string"
            },
            {
              "internalType": "address",
              "name": "contractAddress",
              "type": "address"
            },
            {
              "internalType": "bytes",
              "name": "contractData",
              "type": "bytes"
            },
            {
              "internalType": "uint8",
              "name": "wrapType",
              "type": "uint8"
            },
            {
              "internalType": "bytes",
              "name": "wrapPrefix",
              "type": "bytes"
            },
            {
              "internalType": "bytes",
              "name": "wrapSuffix",
              "type": "bytes"
            },
            {
              "internalType": "bytes",
              "name": "scriptContent",
              "type": "bytes"
            }
          ],
          "internalType": "struct WrappedScriptRequest[]",
          "name": "_requests",
          "type": "tuple[]"
        }
      ],
      "name": "createFrame",
      "outputs": [
        {
          "internalType": "address",
          "name": "",
          "type": "address"
        }
      ],
      "stateMutability": "nonpayable",
      "type": "function"
    },
    {
      "inputs": [],
      "name": "frameFactory",
      "outputs": [
        {
          "internalType": "address",
          "name": "",
          "type": "address"
        }
      ],
      "stateMutability": "view",
      "type": "function"
    },
    {
      "inputs": [],
      "name": "scriptyBuilder",
      "outputs": [
        {
          "internalType": "address",
          "name": "",
          "type": "address"
        }
      ],
      "stateMutability": "view",
      "type": "function"
    },
    {
      "inputs": [],
      "name": "scriptyStorageFactory",
      "outputs": [
        {
          "internalType": "address",
          "name": "",
          "type": "address"
        }
      ],
      "stateMutability": "view",
      "type": "function"
    }
  ],
  "bytecode": "0x60806040523480156200001157600080fd5b5060405162001688380380620016888339818101604052810190620000379190620001ae565b836000806101000a81548173ffffffffffffffffffffffffffffffffffffffff021916908373ffffffffffffffffffffffffffffffffffffffff16021790555082600160006101000a81548173ffffffffffffffffffffffffffffffffffffffff021916908373ffffffffffffffffffffffffffffffffffffffff16021790555081600260006101000a81548173ffffffffffffffffffffffffffffffffffffffff021916908373ffffffffffffffffffffffffffffffffffffffff16021790555080600360006101000a81548173ffffffffffffffffffffffffffffffffffffffff021916908373ffffffffffffffffffffffffffffffffffffffff1602179055505050505062000220565b600080fd5b600073ffffffffffffffffffffffffffffffffffffffff82169050919050565b6000620001768262000149565b9050919050565b620001888162000169565b81146200019457600080fd5b50565b600081519050620001a8816200017d565b92915050565b60008060008060808587031215620001cb57620001ca62000144565b5b6000620001db8782880162000197565b9450506020620001ee8782880162000197565b9350506040620002018782880162000197565b9250506060620002148782880162000197565b91505092959194509250565b61145880620002306000396000f3fe608060405234801561001057600080fd5b50600436106100575760003560e01c8063433273aa1461005c57806391a0d36d1461008c578063954bf4d1146100aa57806396ed95d8146100c8578063e7559584146100e6575b600080fd5b61007660048036038101906100719190610dd7565b610104565b6040516100839190610ed1565b60405180910390f35b6100946107f3565b6040516100a19190610ed1565b60405180910390f35b6100b2610819565b6040516100bf9190610ed1565b60405180910390f35b6100d061083f565b6040516100dd9190610ed1565b60405180910390f35b6100ee610865565b6040516100fb9190610ed1565b60405180910390f35b60008060008054906101000a900473ffffffffffffffffffffffffffffffffffffffff1673ffffffffffffffffffffffffffffffffffffffff1663efc81a8c6040518163ffffffff1660e01b81526004016020604051808303816000875af1158015610174573d6000803e3d6000fd5b505050506040513d601f19601f820116820180604052508101906101989190610f01565b90506000600160009054906101000a900473ffffffffffffffffffffffffffffffffffffffff1673ffffffffffffffffffffffffffffffffffffffff1663efc81a8c6040518163ffffffff1660e01b81526004016020604051808303816000875af115801561020b573d6000803e3d6000fd5b505050506040513d601f19601f8201168201806040525081019061022f9190610f01565b90508073ffffffffffffffffffffffffffffffffffffffff1663ff0c484e836040518263ffffffff1660e01b815260040161026a9190610ed1565b600060405180830381600087803b15801561028457600080fd5b505af1158015610298573d6000803e3d6000fd5b505050508073ffffffffffffffffffffffffffffffffffffffff16638652d6696040518163ffffffff1660e01b81526004016102d390610fc2565b600060405180830381600087803b1580156102ed57600080fd5b505af1158015610301573d6000803e3d6000fd5b505050508073ffffffffffffffffffffffffffffffffffffffff16633b7aa8d9876040518263ffffffff1660e01b815260040161033e9190611063565b600060405180830381600087803b15801561035857600080fd5b505af115801561036c573d6000803e3d6000fd5b505050506000600260009054906101000a900473ffffffffffffffffffffffffffffffffffffffff1673ffffffffffffffffffffffffffffffffffffffff1663efc81a8c6040518163ffffffff1660e01b81526004016020604051808303816000875af11580156103e1573d6000803e3d6000fd5b505050506040513d601f19601f820116820180604052508101906104059190610f01565b90506000600167ffffffffffffffff8111156104245761042361090e565b5b60405190808252806020026020018201604052801561045d57816020015b61044a610889565b8152602001906001900390816104425790505b5090506040518060e001604052806040518060400160405280600681526020017f736f75726365000000000000000000000000000000000000000000000000000081525081526020018473ffffffffffffffffffffffffffffffffffffffff1681526020016040518060400160405280600281526020017f30780000000000000000000000000000000000000000000000000000000000008152508152602001600060ff1681526020016040518060400160405280600281526020017f307800000000000000000000000000000000000000000000000000000000000081525081526020016040518060400160405280600281526020017f307800000000000000000000000000000000000000000000000000000000000081525081526020016040518060400160405280600281526020017f3078000000000000000000000000000000000000000000000000000000000000815250815250816000815181106105ca576105c9611098565b5b60200260200101819052508173ffffffffffffffffffffffffffffffffffffffff1663bacef66984600360009054906101000a900473ffffffffffffffffffffffffffffffffffffffff168a856040518563ffffffff1660e01b8152600401610636949392919061130d565b600060405180830381600087803b15801561065057600080fd5b505af1158015610664573d6000803e3d6000fd5b505050508173ffffffffffffffffffffffffffffffffffffffff1663c47f00278b6040518263ffffffff1660e01b81526004016106a19190611392565b600060405180830381600087803b1580156106bb57600080fd5b505af11580156106cf573d6000803e3d6000fd5b505050508173ffffffffffffffffffffffffffffffffffffffff1663b84c82468a6040518263ffffffff1660e01b815260040161070c9190611392565b600060405180830381600087803b15801561072657600080fd5b505af115801561073a573d6000803e3d6000fd5b505050508173ffffffffffffffffffffffffffffffffffffffff16634b7cf0496000336040518363ffffffff1660e01b815260040161077a9291906113f9565b600060405180830381600087803b15801561079457600080fd5b505af11580156107a8573d6000803e3d6000fd5b505050507f62392641265fcc5a6a8128fd39634480ffe377e76dc54dcad335e1289fcc0fd5826040516107db9190610ed1565b60405180910390a18194505050505095945050505050565b600360009054906101000a900473ffffffffffffffffffffffffffffffffffffffff1681565b600260009054906101000a900473ffffffffffffffffffffffffffffffffffffffff1681565b600160009054906101000a900473ffffffffffffffffffffffffffffffffffffffff1681565b60008054906101000a900473ffffffffffffffffffffffffffffffffffffffff1681565b6040518060e0016040528060608152602001600073ffffffffffffffffffffffffffffffffffffffff16815260200160608152602001600060ff1681526020016060815260200160608152602001606081525090565b6000604051905090565b600080fd5b600080fd5b600080fd5b600080fd5b6000601f19601f8301169050919050565b7f4e487b7100000000000000000000000000000000000000000000000000000000600052604160045260246000fd5b610946826108fd565b810181811067ffffffffffffffff821117156109655761096461090e565b5b80604052505050565b60006109786108df565b9050610984828261093d565b919050565b600067ffffffffffffffff8211156109a4576109a361090e565b5b6109ad826108fd565b9050602081019050919050565b82818337600083830152505050565b60006109dc6109d784610989565b61096e565b9050828152602081018484840111156109f8576109f76108f8565b5b610a038482856109ba565b509392505050565b600082601f830112610a2057610a1f6108f3565b5b8135610a308482602086016109c9565b91505092915050565b600067ffffffffffffffff821115610a5457610a5361090e565b5b610a5d826108fd565b9050602081019050919050565b6000610a7d610a7884610a39565b61096e565b905082815260208101848484011115610a9957610a986108f8565b5b610aa48482856109ba565b509392505050565b600082601f830112610ac157610ac06108f3565b5b8135610ad1848260208601610a6a565b91505092915050565b6000819050919050565b610aed81610ada565b8114610af857600080fd5b50565b600081359050610b0a81610ae4565b92915050565b600067ffffffffffffffff821115610b2b57610b2a61090e565b5b602082029050602081019050919050565b600080fd5b600080fd5b600080fd5b600073ffffffffffffffffffffffffffffffffffffffff82169050919050565b6000610b7682610b4b565b9050919050565b610b8681610b6b565b8114610b9157600080fd5b50565b600081359050610ba381610b7d565b92915050565b600060ff82169050919050565b610bbf81610ba9565b8114610bca57600080fd5b50565b600081359050610bdc81610bb6565b92915050565b600060e08284031215610bf857610bf7610b41565b5b610c0260e061096e565b9050600082013567ffffffffffffffff811115610c2257610c21610b46565b5b610c2e84828501610a0b565b6000830152506020610c4284828501610b94565b602083015250604082013567ffffffffffffffff811115610c6657610c65610b46565b5b610c7284828501610aac565b6040830152506060610c8684828501610bcd565b606083015250608082013567ffffffffffffffff811115610caa57610ca9610b46565b5b610cb684828501610aac565b60808301525060a082013567ffffffffffffffff811115610cda57610cd9610b46565b5b610ce684828501610aac565b60a08301525060c082013567ffffffffffffffff811115610d0a57610d09610b46565b5b610d1684828501610aac565b60c08301525092915050565b6000610d35610d3084610b10565b61096e565b90508083825260208201905060208402830185811115610d5857610d57610b3c565b5b835b81811015610d9f57803567ffffffffffffffff811115610d7d57610d7c6108f3565b5b808601610d8a8982610be2565b85526020850194505050602081019050610d5a565b5050509392505050565b600082601f830112610dbe57610dbd6108f3565b5b8135610dce848260208601610d22565b91505092915050565b600080600080600060a08688031215610df357610df26108e9565b5b600086013567ffffffffffffffff811115610e1157610e106108ee565b5b610e1d88828901610a0b565b955050602086013567ffffffffffffffff811115610e3e57610e3d6108ee565b5b610e4a88828901610a0b565b945050604086013567ffffffffffffffff811115610e6b57610e6a6108ee565b5b610e7788828901610aac565b9350506060610e8888828901610afb565b925050608086013567ffffffffffffffff811115610ea957610ea86108ee565b5b610eb588828901610da9565b9150509295509295909350565b610ecb81610b6b565b82525050565b6000602082019050610ee66000830184610ec2565b92915050565b600081519050610efb81610b7d565b92915050565b600060208284031215610f1757610f166108e9565b5b6000610f2584828501610eec565b91505092915050565b600082825260208201905092915050565b7f736f757263650000000000000000000000000000000000000000000000000000600082015250565b6000610f75600683610f2e565b9150610f8082610f3f565b602082019050919050565b600082825260208201905092915050565b50565b6000610fac600083610f8b565b9150610fb782610f9c565b600082019050919050565b60006040820190508181036000830152610fdb81610f68565b90508181036020830152610fee81610f9f565b9050919050565b600081519050919050565b60005b8381101561101e578082015181840152602081019050611003565b60008484015250505050565b600061103582610ff5565b61103f8185610f8b565b935061104f818560208601611000565b611058816108fd565b840191505092915050565b6000604082019050818103600083015261107c81610f68565b90508181036020830152611090818461102a565b905092915050565b7f4e487b7100000000000000000000000000000000000000000000000000000000600052603260045260246000fd5b6110d081610ada565b82525050565b600081519050919050565b600082825260208201905092915050565b6000819050602082019050919050565b600081519050919050565b600082825260208201905092915050565b600061112982611102565b611133818561110d565b9350611143818560208601611000565b61114c816108fd565b840191505092915050565b61116081610b6b565b82525050565b600082825260208201905092915050565b600061118282610ff5565b61118c8185611166565b935061119c818560208601611000565b6111a5816108fd565b840191505092915050565b6111b981610ba9565b82525050565b600060e08301600083015184820360008601526111dc828261111e565b91505060208301516111f16020860182611157565b50604083015184820360408601526112098282611177565b915050606083015161121e60608601826111b0565b50608083015184820360808601526112368282611177565b91505060a083015184820360a08601526112508282611177565b91505060c083015184820360c086015261126a8282611177565b9150508091505092915050565b600061128383836111bf565b905092915050565b6000602082019050919050565b60006112a3826110d6565b6112ad81856110e1565b9350836020820285016112bf856110f2565b8060005b858110156112fb57848403895281516112dc8582611277565b94506112e78361128b565b925060208a019950506001810190506112c3565b50829750879550505050505092915050565b60006080820190506113226000830187610ec2565b61132f6020830186610ec2565b61133c60408301856110c7565b818103606083015261134e8184611298565b905095945050505050565b600061136482611102565b61136e8185610f2e565b935061137e818560208601611000565b611387816108fd565b840191505092915050565b600060208201905081810360008301526113ac8184611359565b905092915050565b6000819050919050565b6000819050919050565b60006113e36113de6113d9846113b4565b6113be565b610ada565b9050919050565b6113f3816113c8565b82525050565b600060408201905061140e60008301856113ea565b61141b6020830184610ec2565b939250505056fea2646970667358221220554643d6cc345e4683dd15a15b2d7ebead0de9162413ee8a05afcc859061796564736f6c63430008110033",
  "linkReferences": {},
  "deployedLinkReferences": {}
}