{
  "_format": "hh-sol-artifact-1",
  "contractName": "FrameDeployer",
  "sourceName": "src/contracts/FrameDeployer.sol",
  "abi": [
    {
      "inputs": [
        {
          "internalType": "address",
          "name": "_contentStore",
          "type": "address"
        },
        {
          "internalType": "address",
          "name": "_scriptyStorage",
          "type": "address"
        },
        {
          "internalType": "address",
          "name": "_frame",
          "type": "address"
        },
        {
          "internalType": "address",
          "name": "_scriptyBuilder",
          "type": "address"
        }
      ],
      "stateMutability": "nonpayable",
      "type": "constructor"
    },
    {
      "anonymous": false,
      "inputs": [
        {
          "indexed": false,
          "internalType": "address",
          "name": "newAddress",
          "type": "address"
        }
      ],
      "name": "FrameCreated",
      "type": "event"
    },
    {
      "inputs": [],
      "name": "contentStoreFactory",
      "outputs": [
        {
          "internalType": "address",
          "name": "",
          "type": "address"
        }
      ],
      "stateMutability": "view",
      "type": "function"
    },
    {
      "inputs": [
        {
          "internalType": "string",
          "name": "_name",
          "type": "string"
        },
        {
          "internalType": "string",
          "name": "_symbol",
          "type": "string"
        },
        {
          "internalType": "uint256",
          "name": "_bufferSize",
          "type": "uint256"
        },
        {
          "components": [
            {
              "internalType": "string",
              "name": "name",
              "type": "string"
            },
            {
              "internalType": "address",
              "name": "contractAddress",
              "type": "address"
            },
            {
              "internalType": "bytes",
              "name": "contractData",
              "type": "bytes"
            },
            {
              "internalType": "uint8",
              "name": "wrapType",
              "type": "uint8"
            },
            {
              "internalType": "bytes",
              "name": "wrapPrefix",
              "type": "bytes"
            },
            {
              "internalType": "bytes",
              "name": "wrapSuffix",
              "type": "bytes"
            },
            {
              "internalType": "bytes",
              "name": "scriptContent",
              "type": "bytes"
            }
          ],
          "internalType": "struct WrappedScriptRequest[]",
          "name": "_requests",
          "type": "tuple[]"
        }
      ],
      "name": "createFrame",
      "outputs": [
        {
          "internalType": "address",
          "name": "",
          "type": "address"
        }
      ],
      "stateMutability": "nonpayable",
      "type": "function"
    },
    {
      "inputs": [],
      "name": "frameFactory",
      "outputs": [
        {
          "internalType": "address",
          "name": "",
          "type": "address"
        }
      ],
      "stateMutability": "view",
      "type": "function"
    },
    {
      "inputs": [],
      "name": "scriptyBuilder",
      "outputs": [
        {
          "internalType": "address",
          "name": "",
          "type": "address"
        }
      ],
      "stateMutability": "view",
      "type": "function"
    },
    {
      "inputs": [],
      "name": "scriptyStorageFactory",
      "outputs": [
        {
          "internalType": "address",
          "name": "",
          "type": "address"
        }
      ],
      "stateMutability": "view",
      "type": "function"
    }
  ],
  "bytecode": "0x60806040523480156200001157600080fd5b5060405162001062380380620010628339818101604052810190620000379190620001ae565b836000806101000a81548173ffffffffffffffffffffffffffffffffffffffff021916908373ffffffffffffffffffffffffffffffffffffffff16021790555082600160006101000a81548173ffffffffffffffffffffffffffffffffffffffff021916908373ffffffffffffffffffffffffffffffffffffffff16021790555081600260006101000a81548173ffffffffffffffffffffffffffffffffffffffff021916908373ffffffffffffffffffffffffffffffffffffffff16021790555080600360006101000a81548173ffffffffffffffffffffffffffffffffffffffff021916908373ffffffffffffffffffffffffffffffffffffffff1602179055505050505062000220565b600080fd5b600073ffffffffffffffffffffffffffffffffffffffff82169050919050565b6000620001768262000149565b9050919050565b620001888162000169565b81146200019457600080fd5b50565b600081519050620001a8816200017d565b92915050565b60008060008060808587031215620001cb57620001ca62000144565b5b6000620001db8782880162000197565b9450506020620001ee8782880162000197565b9350506040620002018782880162000197565b9250506060620002148782880162000197565b91505092959194509250565b610e3280620002306000396000f3fe608060405234801561001057600080fd5b50600436106100575760003560e01c806391a0d36d1461005c578063954bf4d11461007a57806396ed95d814610098578063adbeae72146100b6578063e7559584146100e6575b600080fd5b610064610104565b604051610071919061048b565b60405180910390f35b61008261012a565b60405161008f919061048b565b60405180910390f35b6100a0610150565b6040516100ad919061048b565b60405180910390f35b6100d060048036038101906100cb919061096c565b610176565b6040516100dd919061048b565b60405180910390f35b6100ee610426565b6040516100fb919061048b565b60405180910390f35b600360009054906101000a900473ffffffffffffffffffffffffffffffffffffffff1681565b600260009054906101000a900473ffffffffffffffffffffffffffffffffffffffff1681565b600160009054906101000a900473ffffffffffffffffffffffffffffffffffffffff1681565b600080600260009054906101000a900473ffffffffffffffffffffffffffffffffffffffff1673ffffffffffffffffffffffffffffffffffffffff1663efc81a8c6040518163ffffffff1660e01b81526004016020604051808303816000875af11580156101e8573d6000803e3d6000fd5b505050506040513d601f19601f8201168201806040525081019061020c9190610a3c565b90508073ffffffffffffffffffffffffffffffffffffffff16638ec6e11a600360009054906101000a900473ffffffffffffffffffffffffffffffffffffffff1686866040518463ffffffff1660e01b815260040161026d93929190610ce4565b600060405180830381600087803b15801561028757600080fd5b505af115801561029b573d6000803e3d6000fd5b505050508073ffffffffffffffffffffffffffffffffffffffff1663c47f0027876040518263ffffffff1660e01b81526004016102d89190610d6c565b600060405180830381600087803b1580156102f257600080fd5b505af1158015610306573d6000803e3d6000fd5b505050508073ffffffffffffffffffffffffffffffffffffffff1663b84c8246866040518263ffffffff1660e01b81526004016103439190610d6c565b600060405180830381600087803b15801561035d57600080fd5b505af1158015610371573d6000803e3d6000fd5b505050508073ffffffffffffffffffffffffffffffffffffffff16634b7cf0496000336040518363ffffffff1660e01b81526004016103b1929190610dd3565b600060405180830381600087803b1580156103cb57600080fd5b505af11580156103df573d6000803e3d6000fd5b505050507f62392641265fcc5a6a8128fd39634480ffe377e76dc54dcad335e1289fcc0fd581604051610412919061048b565b60405180910390a180915050949350505050565b60008054906101000a900473ffffffffffffffffffffffffffffffffffffffff1681565b600073ffffffffffffffffffffffffffffffffffffffff82169050919050565b60006104758261044a565b9050919050565b6104858161046a565b82525050565b60006020820190506104a0600083018461047c565b92915050565b6000604051905090565b600080fd5b600080fd5b600080fd5b600080fd5b6000601f19601f8301169050919050565b7f4e487b7100000000000000000000000000000000000000000000000000000000600052604160045260246000fd5b61050d826104c4565b810181811067ffffffffffffffff8211171561052c5761052b6104d5565b5b80604052505050565b600061053f6104a6565b905061054b8282610504565b919050565b600067ffffffffffffffff82111561056b5761056a6104d5565b5b610574826104c4565b9050602081019050919050565b82818337600083830152505050565b60006105a361059e84610550565b610535565b9050828152602081018484840111156105bf576105be6104bf565b5b6105ca848285610581565b509392505050565b600082601f8301126105e7576105e66104ba565b5b81356105f7848260208601610590565b91505092915050565b6000819050919050565b61061381610600565b811461061e57600080fd5b50565b6000813590506106308161060a565b92915050565b600067ffffffffffffffff821115610651576106506104d5565b5b602082029050602081019050919050565b600080fd5b600080fd5b600080fd5b61067a8161046a565b811461068557600080fd5b50565b60008135905061069781610671565b92915050565b600067ffffffffffffffff8211156106b8576106b76104d5565b5b6106c1826104c4565b9050602081019050919050565b60006106e16106dc8461069d565b610535565b9050828152602081018484840111156106fd576106fc6104bf565b5b610708848285610581565b509392505050565b600082601f830112610725576107246104ba565b5b81356107358482602086016106ce565b91505092915050565b600060ff82169050919050565b6107548161073e565b811461075f57600080fd5b50565b6000813590506107718161074b565b92915050565b600060e0828403121561078d5761078c610667565b5b61079760e0610535565b9050600082013567ffffffffffffffff8111156107b7576107b661066c565b5b6107c3848285016105d2565b60008301525060206107d784828501610688565b602083015250604082013567ffffffffffffffff8111156107fb576107fa61066c565b5b61080784828501610710565b604083015250606061081b84828501610762565b606083015250608082013567ffffffffffffffff81111561083f5761083e61066c565b5b61084b84828501610710565b60808301525060a082013567ffffffffffffffff81111561086f5761086e61066c565b5b61087b84828501610710565b60a08301525060c082013567ffffffffffffffff81111561089f5761089e61066c565b5b6108ab84828501610710565b60c08301525092915050565b60006108ca6108c584610636565b610535565b905080838252602082019050602084028301858111156108ed576108ec610662565b5b835b8181101561093457803567ffffffffffffffff811115610912576109116104ba565b5b80860161091f8982610777565b855260208501945050506020810190506108ef565b5050509392505050565b600082601f830112610953576109526104ba565b5b81356109638482602086016108b7565b91505092915050565b60008060008060808587031215610986576109856104b0565b5b600085013567ffffffffffffffff8111156109a4576109a36104b5565b5b6109b0878288016105d2565b945050602085013567ffffffffffffffff8111156109d1576109d06104b5565b5b6109dd878288016105d2565b93505060406109ee87828801610621565b925050606085013567ffffffffffffffff811115610a0f57610a0e6104b5565b5b610a1b8782880161093e565b91505092959194509250565b600081519050610a3681610671565b92915050565b600060208284031215610a5257610a516104b0565b5b6000610a6084828501610a27565b91505092915050565b610a7281610600565b82525050565b600081519050919050565b600082825260208201905092915050565b6000819050602082019050919050565b600081519050919050565b600082825260208201905092915050565b60005b83811015610ade578082015181840152602081019050610ac3565b60008484015250505050565b6000610af582610aa4565b610aff8185610aaf565b9350610b0f818560208601610ac0565b610b18816104c4565b840191505092915050565b610b2c8161046a565b82525050565b600081519050919050565b600082825260208201905092915050565b6000610b5982610b32565b610b638185610b3d565b9350610b73818560208601610ac0565b610b7c816104c4565b840191505092915050565b610b908161073e565b82525050565b600060e0830160008301518482036000860152610bb38282610aea565b9150506020830151610bc86020860182610b23565b5060408301518482036040860152610be08282610b4e565b9150506060830151610bf56060860182610b87565b5060808301518482036080860152610c0d8282610b4e565b91505060a083015184820360a0860152610c278282610b4e565b91505060c083015184820360c0860152610c418282610b4e565b9150508091505092915050565b6000610c5a8383610b96565b905092915050565b6000602082019050919050565b6000610c7a82610a78565b610c848185610a83565b935083602082028501610c9685610a94565b8060005b85811015610cd25784840389528151610cb38582610c4e565b9450610cbe83610c62565b925060208a01995050600181019050610c9a565b50829750879550505050505092915050565b6000606082019050610cf9600083018661047c565b610d066020830185610a69565b8181036040830152610d188184610c6f565b9050949350505050565b600082825260208201905092915050565b6000610d3e82610aa4565b610d488185610d22565b9350610d58818560208601610ac0565b610d61816104c4565b840191505092915050565b60006020820190508181036000830152610d868184610d33565b905092915050565b6000819050919050565b6000819050919050565b6000610dbd610db8610db384610d8e565b610d98565b610600565b9050919050565b610dcd81610da2565b82525050565b6000604082019050610de86000830185610dc4565b610df5602083018461047c565b939250505056fea2646970667358221220d9b6b8333e914e48e3af675c85343d19863dfddbb7e5ff75a0f6ebbff6f1471564736f6c63430008110033",
  "linkReferences": {},
  "deployedLinkReferences": {}
}