{
  "_format": "hh-sol-artifact-1",
  "contractName": "FrameDeployer",
  "sourceName": "src/contracts/FrameDeployer.sol",
  "abi": [
    {
      "inputs": [
        {
          "internalType": "address",
          "name": "_scriptyStorage",
          "type": "address"
        },
        {
          "internalType": "address",
          "name": "_frame",
          "type": "address"
        },
        {
          "internalType": "address",
          "name": "_scriptyBuilder",
          "type": "address"
        }
      ],
      "stateMutability": "nonpayable",
      "type": "constructor"
    },
    {
      "anonymous": false,
      "inputs": [
        {
          "indexed": false,
          "internalType": "address",
          "name": "newAddress",
          "type": "address"
        }
      ],
      "name": "FrameCreated",
      "type": "event"
    },
    {
      "inputs": [
        {
          "components": [
            {
              "internalType": "string",
              "name": "name",
              "type": "string"
            },
            {
              "internalType": "string",
              "name": "description",
              "type": "string"
            },
            {
              "internalType": "string",
              "name": "symbol",
              "type": "string"
            }
          ],
          "internalType": "struct FrameMetadata",
          "name": "_metadata",
          "type": "tuple"
        },
        {
          "internalType": "uint256",
          "name": "_bufferSize",
          "type": "uint256"
        },
        {
          "components": [
            {
              "internalType": "string",
              "name": "name",
              "type": "string"
            },
            {
              "internalType": "address",
              "name": "contractAddress",
              "type": "address"
            },
            {
              "internalType": "bytes",
              "name": "contractData",
              "type": "bytes"
            },
            {
              "internalType": "uint8",
              "name": "wrapType",
              "type": "uint8"
            },
            {
              "internalType": "bytes",
              "name": "wrapPrefix",
              "type": "bytes"
            },
            {
              "internalType": "bytes",
              "name": "wrapSuffix",
              "type": "bytes"
            },
            {
              "internalType": "bytes",
              "name": "scriptContent",
              "type": "bytes"
            }
          ],
          "internalType": "struct WrappedScriptRequest[]",
          "name": "_requests",
          "type": "tuple[]"
        }
      ],
      "name": "createFrame",
      "outputs": [
        {
          "internalType": "address",
          "name": "",
          "type": "address"
        }
      ],
      "stateMutability": "nonpayable",
      "type": "function"
    },
    {
      "inputs": [
        {
          "components": [
            {
              "internalType": "string",
              "name": "name",
              "type": "string"
            },
            {
              "internalType": "string",
              "name": "description",
              "type": "string"
            },
            {
              "internalType": "string",
              "name": "symbol",
              "type": "string"
            }
          ],
          "internalType": "struct FrameMetadata",
          "name": "_metadata",
          "type": "tuple"
        },
        {
          "internalType": "uint256",
          "name": "_bufferSize",
          "type": "uint256"
        },
        {
          "components": [
            {
              "internalType": "string",
              "name": "name",
              "type": "string"
            },
            {
              "internalType": "bytes",
              "name": "contractData",
              "type": "bytes"
            },
            {
              "internalType": "uint8",
              "name": "wrapType",
              "type": "uint8"
            },
            {
              "internalType": "bytes",
              "name": "wrapPrefix",
              "type": "bytes"
            },
            {
              "internalType": "bytes",
              "name": "wrapSuffix",
              "type": "bytes"
            },
            {
              "internalType": "bytes",
              "name": "scriptContent",
              "type": "bytes"
            }
          ],
          "internalType": "struct EmptyWrappedScriptRequest",
          "name": "_sourceRequest",
          "type": "tuple"
        },
        {
          "components": [
            {
              "internalType": "string",
              "name": "name",
              "type": "string"
            },
            {
              "internalType": "address",
              "name": "contractAddress",
              "type": "address"
            },
            {
              "internalType": "bytes",
              "name": "contractData",
              "type": "bytes"
            },
            {
              "internalType": "uint8",
              "name": "wrapType",
              "type": "uint8"
            },
            {
              "internalType": "bytes",
              "name": "wrapPrefix",
              "type": "bytes"
            },
            {
              "internalType": "bytes",
              "name": "wrapSuffix",
              "type": "bytes"
            },
            {
              "internalType": "bytes",
              "name": "scriptContent",
              "type": "bytes"
            }
          ],
          "internalType": "struct WrappedScriptRequest[]",
          "name": "_requests",
          "type": "tuple[]"
        }
      ],
      "name": "createFrameWithStorage",
      "outputs": [
        {
          "internalType": "address",
          "name": "",
          "type": "address"
        }
      ],
      "stateMutability": "nonpayable",
      "type": "function"
    },
    {
      "inputs": [],
      "name": "frameFactory",
      "outputs": [
        {
          "internalType": "address",
          "name": "",
          "type": "address"
        }
      ],
      "stateMutability": "view",
      "type": "function"
    },
    {
      "inputs": [],
      "name": "scriptyBuilder",
      "outputs": [
        {
          "internalType": "address",
          "name": "",
          "type": "address"
        }
      ],
      "stateMutability": "view",
      "type": "function"
    },
    {
      "inputs": [],
      "name": "scriptyStorageFactory",
      "outputs": [
        {
          "internalType": "address",
          "name": "",
          "type": "address"
        }
      ],
      "stateMutability": "view",
      "type": "function"
    }
  ],
  "bytecode": "0x60e06040523480156200001157600080fd5b5060405162001d0038038062001d00833981810160405281019062000037919062000146565b8273ffffffffffffffffffffffffffffffffffffffff1660808173ffffffffffffffffffffffffffffffffffffffff16815250508173ffffffffffffffffffffffffffffffffffffffff1660a08173ffffffffffffffffffffffffffffffffffffffff16815250508073ffffffffffffffffffffffffffffffffffffffff1660c08173ffffffffffffffffffffffffffffffffffffffff1681525050505050620001a2565b600080fd5b600073ffffffffffffffffffffffffffffffffffffffff82169050919050565b60006200010e82620000e1565b9050919050565b620001208162000101565b81146200012c57600080fd5b50565b600081519050620001408162000115565b92915050565b600080600060608486031215620001625762000161620000dc565b5b600062000172868287016200012f565b935050602062000185868287016200012f565b925050604062000198868287016200012f565b9150509250925092565b60805160a05160c051611b0b620001f560003960008181610118015281816106e201526108bb01526000818161013c01528181610335015261080b01526000818161016001526101870152611b0b6000f3fe608060405234801561001057600080fd5b50600436106100575760003560e01c806391a0d36d1461005c578063954bf4d11461007a57806396ed95d8146100985780639e76ea07146100b6578063de6e8502146100e6575b600080fd5b610064610116565b6040516100719190610a74565b60405180910390f35b61008261013a565b60405161008f9190610a74565b60405180910390f35b6100a061015e565b6040516100ad9190610a74565b60405180910390f35b6100d060048036038101906100cb9190610b81565b610182565b6040516100dd9190610a74565b60405180910390f35b61010060048036038101906100fb9190610c41565b610806565b60405161010d9190610a74565b60405180910390f35b7f000000000000000000000000000000000000000000000000000000000000000081565b7f000000000000000000000000000000000000000000000000000000000000000081565b7f000000000000000000000000000000000000000000000000000000000000000081565b6000807f000000000000000000000000000000000000000000000000000000000000000073ffffffffffffffffffffffffffffffffffffffff1663efc81a8c6040518163ffffffff1660e01b81526004016020604051808303816000875af11580156101f2573d6000803e3d6000fd5b505050506040513d601f19601f820116820180604052508101906102169190610cfd565b90508073ffffffffffffffffffffffffffffffffffffffff16638652d6698680600001906102449190610d39565b604051806020016040528060008152506040518463ffffffff1660e01b815260040161027293929190610e79565b600060405180830381600087803b15801561028c57600080fd5b505af11580156102a0573d6000803e3d6000fd5b505050508073ffffffffffffffffffffffffffffffffffffffff16633b7aa8d98680600001906102d09190610d39565b888060a001906102e09190610eb2565b6040518563ffffffff1660e01b81526004016102ff9493929190610f42565b600060405180830381600087803b15801561031957600080fd5b505af115801561032d573d6000803e3d6000fd5b5050505060007f000000000000000000000000000000000000000000000000000000000000000073ffffffffffffffffffffffffffffffffffffffff1663efc81a8c6040518163ffffffff1660e01b81526004016020604051808303816000875af11580156103a0573d6000803e3d6000fd5b505050506040513d601f19601f820116820180604052508101906103c49190610cfd565b905060006001868690506103d89190610fac565b905060008167ffffffffffffffff8111156103f6576103f5610fe0565b5b60405190808252806020026020018201604052801561042f57816020015b61041c6109dd565b8152602001906001900390816104145790505b50905060005b8787905081101561049f578787828181106104535761045261100f565b5b9050602002810190610465919061103e565b61046e90611391565b8282815181106104815761048061100f565b5b60200260200101819052508080610497906113a4565b915050610435565b506040518060e001604052808980600001906104bb9190610d39565b8080601f016020809104026020016040519081016040528093929190818152602001838380828437600081840152601f19601f8201169050808301925050505050505081526020018573ffffffffffffffffffffffffffffffffffffffff16815260200189806020019061052f9190610eb2565b8080601f016020809104026020016040519081016040528093929190818152602001838380828437600081840152601f19601f82011690508083019250505050505050815260200189604001602081019061058a91906113ec565b60ff1681526020018980606001906105a29190610eb2565b8080601f016020809104026020016040519081016040528093929190818152602001838380828437600081840152601f19601f8201169050808301925050505050505081526020018980608001906105fa9190610eb2565b8080601f016020809104026020016040519081016040528093929190818152602001838380828437600081840152601f19601f820116905080830192505050505050508152602001898060a001906106529190610eb2565b8080601f016020809104026020016040519081016040528093929190818152602001838380828437600081840152601f19601f8201169050808301925050505050505081525081600183516106a79190611419565b815181106106b8576106b761100f565b5b60200260200101819052508273ffffffffffffffffffffffffffffffffffffffff1663b11492238b7f00000000000000000000000000000000000000000000000000000000000000008c856040518563ffffffff1660e01b815260040161072294939291906117ae565b600060405180830381600087803b15801561073c57600080fd5b505af1158015610750573d6000803e3d6000fd5b505050508273ffffffffffffffffffffffffffffffffffffffff1663a50d81c7336040518263ffffffff1660e01b815260040161078d9190610a74565b600060405180830381600087803b1580156107a757600080fd5b505af11580156107bb573d6000803e3d6000fd5b505050507f62392641265fcc5a6a8128fd39634480ffe377e76dc54dcad335e1289fcc0fd5836040516107ee9190610a74565b60405180910390a18294505050505095945050505050565b6000807f000000000000000000000000000000000000000000000000000000000000000073ffffffffffffffffffffffffffffffffffffffff1663efc81a8c6040518163ffffffff1660e01b81526004016020604051808303816000875af1158015610876573d6000803e3d6000fd5b505050506040513d601f19601f8201168201806040525081019061089a9190610cfd565b90508073ffffffffffffffffffffffffffffffffffffffff1663b1149223877f00000000000000000000000000000000000000000000000000000000000000008888886040518663ffffffff1660e01b81526004016108fd959493929190611a80565b600060405180830381600087803b15801561091757600080fd5b505af115801561092b573d6000803e3d6000fd5b505050508073ffffffffffffffffffffffffffffffffffffffff1663a50d81c7336040518263ffffffff1660e01b81526004016109689190610a74565b600060405180830381600087803b15801561098257600080fd5b505af1158015610996573d6000803e3d6000fd5b505050507f62392641265fcc5a6a8128fd39634480ffe377e76dc54dcad335e1289fcc0fd5816040516109c99190610a74565b60405180910390a180915050949350505050565b6040518060e0016040528060608152602001600073ffffffffffffffffffffffffffffffffffffffff16815260200160608152602001600060ff1681526020016060815260200160608152602001606081525090565b600073ffffffffffffffffffffffffffffffffffffffff82169050919050565b6000610a5e82610a33565b9050919050565b610a6e81610a53565b82525050565b6000602082019050610a896000830184610a65565b92915050565b6000604051905090565b600080fd5b600080fd5b600080fd5b600060608284031215610abe57610abd610aa3565b5b81905092915050565b6000819050919050565b610ada81610ac7565b8114610ae557600080fd5b50565b600081359050610af781610ad1565b92915050565b600060c08284031215610b1357610b12610aa3565b5b81905092915050565b600080fd5b600080fd5b600080fd5b60008083601f840112610b4157610b40610b1c565b5b8235905067ffffffffffffffff811115610b5e57610b5d610b21565b5b602083019150836020820283011115610b7a57610b79610b26565b5b9250929050565b600080600080600060808688031215610b9d57610b9c610a99565b5b600086013567ffffffffffffffff811115610bbb57610bba610a9e565b5b610bc788828901610aa8565b9550506020610bd888828901610ae8565b945050604086013567ffffffffffffffff811115610bf957610bf8610a9e565b5b610c0588828901610afd565b935050606086013567ffffffffffffffff811115610c2657610c25610a9e565b5b610c3288828901610b2b565b92509250509295509295909350565b60008060008060608587031215610c5b57610c5a610a99565b5b600085013567ffffffffffffffff811115610c7957610c78610a9e565b5b610c8587828801610aa8565b9450506020610c9687828801610ae8565b935050604085013567ffffffffffffffff811115610cb757610cb6610a9e565b5b610cc387828801610b2b565b925092505092959194509250565b610cda81610a53565b8114610ce557600080fd5b50565b600081519050610cf781610cd1565b92915050565b600060208284031215610d1357610d12610a99565b5b6000610d2184828501610ce8565b91505092915050565b600080fd5b600080fd5b600080fd5b60008083356001602003843603038112610d5657610d55610d2a565b5b80840192508235915067ffffffffffffffff821115610d7857610d77610d2f565b5b602083019250600182023603831315610d9457610d93610d34565b5b509250929050565b600082825260208201905092915050565b82818337600083830152505050565b6000601f19601f8301169050919050565b6000610dd98385610d9c565b9350610de6838584610dad565b610def83610dbc565b840190509392505050565b600081519050919050565b600082825260208201905092915050565b60005b83811015610e34578082015181840152602081019050610e19565b60008484015250505050565b6000610e4b82610dfa565b610e558185610e05565b9350610e65818560208601610e16565b610e6e81610dbc565b840191505092915050565b60006040820190508181036000830152610e94818587610dcd565b90508181036020830152610ea88184610e40565b9050949350505050565b60008083356001602003843603038112610ecf57610ece610d2a565b5b80840192508235915067ffffffffffffffff821115610ef157610ef0610d2f565b5b602083019250600182023603831315610f0d57610f0c610d34565b5b509250929050565b6000610f218385610e05565b9350610f2e838584610dad565b610f3783610dbc565b840190509392505050565b60006040820190508181036000830152610f5d818688610dcd565b90508181036020830152610f72818486610f15565b905095945050505050565b7f4e487b7100000000000000000000000000000000000000000000000000000000600052601160045260246000fd5b6000610fb782610ac7565b9150610fc283610ac7565b9250828201905080821115610fda57610fd9610f7d565b5b92915050565b7f4e487b7100000000000000000000000000000000000000000000000000000000600052604160045260246000fd5b7f4e487b7100000000000000000000000000000000000000000000000000000000600052603260045260246000fd5b60008235600160e00383360303811261105a57611059610d2a565b5b80830191505092915050565b600080fd5b61107482610dbc565b810181811067ffffffffffffffff8211171561109357611092610fe0565b5b80604052505050565b60006110a6610a8f565b90506110b2828261106b565b919050565b600080fd5b600080fd5b600067ffffffffffffffff8211156110dc576110db610fe0565b5b6110e582610dbc565b9050602081019050919050565b6000611105611100846110c1565b61109c565b905082815260208101848484011115611121576111206110bc565b5b61112c848285610dad565b509392505050565b600082601f83011261114957611148610b1c565b5b81356111598482602086016110f2565b91505092915050565b60008135905061117181610cd1565b92915050565b600067ffffffffffffffff82111561119257611191610fe0565b5b61119b82610dbc565b9050602081019050919050565b60006111bb6111b684611177565b61109c565b9050828152602081018484840111156111d7576111d66110bc565b5b6111e2848285610dad565b509392505050565b600082601f8301126111ff576111fe610b1c565b5b813561120f8482602086016111a8565b91505092915050565b600060ff82169050919050565b61122e81611218565b811461123957600080fd5b50565b60008135905061124b81611225565b92915050565b600060e0828403121561126757611266611066565b5b61127160e061109c565b9050600082013567ffffffffffffffff811115611291576112906110b7565b5b61129d84828501611134565b60008301525060206112b184828501611162565b602083015250604082013567ffffffffffffffff8111156112d5576112d46110b7565b5b6112e1848285016111ea565b60408301525060606112f58482850161123c565b606083015250608082013567ffffffffffffffff811115611319576113186110b7565b5b611325848285016111ea565b60808301525060a082013567ffffffffffffffff811115611349576113486110b7565b5b611355848285016111ea565b60a08301525060c082013567ffffffffffffffff811115611379576113786110b7565b5b611385848285016111ea565b60c08301525092915050565b600061139d3683611251565b9050919050565b60006113af82610ac7565b91507fffffffffffffffffffffffffffffffffffffffffffffffffffffffffffffffff82036113e1576113e0610f7d565b5b600182019050919050565b60006020828403121561140257611401610a99565b5b60006114108482850161123c565b91505092915050565b600061142482610ac7565b915061142f83610ac7565b925082820390508181111561144757611446610f7d565b5b92915050565b600080fd5b600080fd5b600080fd5b6000808335600160200384360303811261147957611478611457565b5b83810192508235915060208301925067ffffffffffffffff8211156114a1576114a061144d565b5b6001820236038313156114b7576114b6611452565b5b509250929050565b600082825260208201905092915050565b60006114dc83856114bf565b93506114e9838584610dad565b6114f283610dbc565b840190509392505050565b600060608301611510600084018461145c565b85830360008701526115238382846114d0565b92505050611534602084018461145c565b85830360208701526115478382846114d0565b92505050611558604084018461145c565b858303604087015261156b8382846114d0565b925050508091505092915050565b61158281610ac7565b82525050565b600081519050919050565b600082825260208201905092915050565b6000819050602082019050919050565b600081519050919050565b60006115ca826115b4565b6115d481856114bf565b93506115e4818560208601610e16565b6115ed81610dbc565b840191505092915050565b61160181610a53565b82525050565b600082825260208201905092915050565b600061162382610dfa565b61162d8185611607565b935061163d818560208601610e16565b61164681610dbc565b840191505092915050565b61165a81611218565b82525050565b600060e083016000830151848203600086015261167d82826115bf565b915050602083015161169260208601826115f8565b50604083015184820360408601526116aa8282611618565b91505060608301516116bf6060860182611651565b50608083015184820360808601526116d78282611618565b91505060a083015184820360a08601526116f18282611618565b91505060c083015184820360c086015261170b8282611618565b9150508091505092915050565b60006117248383611660565b905092915050565b6000602082019050919050565b600061174482611588565b61174e8185611593565b935083602082028501611760856115a4565b8060005b8581101561179c578484038952815161177d8582611718565b94506117888361172c565b925060208a01995050600181019050611764565b50829750879550505050505092915050565b600060808201905081810360008301526117c881876114fd565b90506117d76020830186610a65565b6117e46040830185611579565b81810360608301526117f68184611739565b905095945050505050565b6000819050919050565b600061181a6020840184611162565b905092915050565b6000808335600160200384360303811261183f5761183e611457565b5b83810192508235915060208301925067ffffffffffffffff8211156118675761186661144d565b5b60018202360383131561187d5761187c611452565b5b509250929050565b60006118918385611607565b935061189e838584610dad565b6118a783610dbc565b840190509392505050565b60006118c1602084018461123c565b905092915050565b600060e083016118dc600084018461145c565b85830360008701526118ef8382846114d0565b92505050611900602084018461180b565b61190d60208601826115f8565b5061191b6040840184611822565b858303604087015261192e838284611885565b9250505061193f60608401846118b2565b61194c6060860182611651565b5061195a6080840184611822565b858303608087015261196d838284611885565b9250505061197e60a0840184611822565b85830360a0870152611991838284611885565b925050506119a260c0840184611822565b85830360c08701526119b5838284611885565b925050508091505092915050565b60006119cf83836118c9565b905092915050565b60008235600160e0038336030381126119f3576119f2611457565b5b82810191505092915050565b6000602082019050919050565b6000611a188385611593565b935083602084028501611a2a84611801565b8060005b87811015611a6e578484038952611a4582846119d7565b611a4f85826119c3565b9450611a5a836119ff565b925060208a01995050600181019050611a2e565b50829750879450505050509392505050565b60006080820190508181036000830152611a9a81886114fd565b9050611aa96020830187610a65565b611ab66040830186611579565b8181036060830152611ac9818486611a0c565b9050969550505050505056fea264697066735822122029cebe39598ed8718ca3b2c28414dd23f2e721461a8a673d4ae8bf09e5c11c2964736f6c63430008110033",
  "linkReferences": {},
  "deployedLinkReferences": {}
}