{
  "_format": "hh-sol-artifact-1",
  "contractName": "FrameDeployer",
  "sourceName": "src/contracts/FrameDeployer.sol",
  "abi": [
    {
      "inputs": [
        {
          "internalType": "address",
          "name": "_scriptyStorageFactory",
          "type": "address"
        },
        {
          "internalType": "address",
          "name": "_frameFactory",
          "type": "address"
        },
        {
          "internalType": "address",
          "name": "_scriptyBuilder",
          "type": "address"
        }
      ],
      "stateMutability": "nonpayable",
      "type": "constructor"
    },
    {
      "anonymous": false,
      "inputs": [
        {
          "indexed": false,
          "internalType": "address",
          "name": "newAddress",
          "type": "address"
        }
      ],
      "name": "FrameCreated",
      "type": "event"
    },
    {
      "inputs": [
        {
          "components": [
            {
              "internalType": "string",
              "name": "name",
              "type": "string"
            },
            {
              "internalType": "string",
              "name": "description",
              "type": "string"
            },
            {
              "internalType": "string",
              "name": "symbol",
              "type": "string"
            }
          ],
          "internalType": "struct FrameMetadata",
          "name": "_metadata",
          "type": "tuple"
        },
        {
          "components": [
            {
              "internalType": "string",
              "name": "name",
              "type": "string"
            },
            {
              "internalType": "address",
              "name": "contractAddress",
              "type": "address"
            },
            {
              "internalType": "bytes",
              "name": "contractData",
              "type": "bytes"
            },
            {
              "internalType": "uint8",
              "name": "wrapType",
              "type": "uint8"
            },
            {
              "internalType": "bytes",
              "name": "wrapPrefix",
              "type": "bytes"
            },
            {
              "internalType": "bytes",
              "name": "wrapSuffix",
              "type": "bytes"
            },
            {
              "internalType": "bytes",
              "name": "scriptContent",
              "type": "bytes"
            }
          ],
          "internalType": "struct WrappedScriptRequest[]",
          "name": "_requests",
          "type": "tuple[]"
        },
        {
          "internalType": "uint256",
          "name": "_bufferSize",
          "type": "uint256"
        }
      ],
      "name": "createFrame",
      "outputs": [
        {
          "internalType": "address",
          "name": "",
          "type": "address"
        }
      ],
      "stateMutability": "nonpayable",
      "type": "function"
    },
    {
      "inputs": [
        {
          "components": [
            {
              "internalType": "string",
              "name": "name",
              "type": "string"
            },
            {
              "internalType": "string",
              "name": "description",
              "type": "string"
            },
            {
              "internalType": "string",
              "name": "symbol",
              "type": "string"
            }
          ],
          "internalType": "struct FrameMetadata",
          "name": "_metadata",
          "type": "tuple"
        },
        {
          "internalType": "bytes",
          "name": "_script",
          "type": "bytes"
        },
        {
          "components": [
            {
              "internalType": "string",
              "name": "name",
              "type": "string"
            },
            {
              "internalType": "address",
              "name": "contractAddress",
              "type": "address"
            },
            {
              "internalType": "bytes",
              "name": "contractData",
              "type": "bytes"
            },
            {
              "internalType": "uint8",
              "name": "wrapType",
              "type": "uint8"
            },
            {
              "internalType": "bytes",
              "name": "wrapPrefix",
              "type": "bytes"
            },
            {
              "internalType": "bytes",
              "name": "wrapSuffix",
              "type": "bytes"
            },
            {
              "internalType": "bytes",
              "name": "scriptContent",
              "type": "bytes"
            }
          ],
          "internalType": "struct WrappedScriptRequest[]",
          "name": "_requests",
          "type": "tuple[]"
        },
        {
          "internalType": "uint256",
          "name": "_requestsBufferSize",
          "type": "uint256"
        }
      ],
      "name": "createFrameWithScript",
      "outputs": [
        {
          "internalType": "address",
          "name": "",
          "type": "address"
        }
      ],
      "stateMutability": "nonpayable",
      "type": "function"
    },
    {
      "inputs": [],
      "name": "frameFactory",
      "outputs": [
        {
          "internalType": "address",
          "name": "",
          "type": "address"
        }
      ],
      "stateMutability": "view",
      "type": "function"
    },
    {
      "inputs": [],
      "name": "scriptyBuilder",
      "outputs": [
        {
          "internalType": "address",
          "name": "",
          "type": "address"
        }
      ],
      "stateMutability": "view",
      "type": "function"
    },
    {
      "inputs": [],
      "name": "scriptyStorageFactory",
      "outputs": [
        {
          "internalType": "address",
          "name": "",
          "type": "address"
        }
      ],
      "stateMutability": "view",
      "type": "function"
    }
  ],
  "bytecode": "0x60e06040523480156200001157600080fd5b50604051620015d4380380620015d4833981810160405281019062000037919062000146565b8273ffffffffffffffffffffffffffffffffffffffff1660808173ffffffffffffffffffffffffffffffffffffffff16815250508173ffffffffffffffffffffffffffffffffffffffff1660a08173ffffffffffffffffffffffffffffffffffffffff16815250508073ffffffffffffffffffffffffffffffffffffffff1660c08173ffffffffffffffffffffffffffffffffffffffff1681525050505050620001a2565b600080fd5b600073ffffffffffffffffffffffffffffffffffffffff82169050919050565b60006200010e82620000e1565b9050919050565b620001208162000101565b81146200012c57600080fd5b50565b600081519050620001408162000115565b92915050565b600080600060608486031215620001625762000161620000dc565b5b600062000172868287016200012f565b935050602062000185868287016200012f565b925050604062000198868287016200012f565b9150509250925092565b60805160a05160c0516113e6620001ee6000396000818161011801528181610237015261054c01526000818161013c01528181610187015261049c0152600061016001526113e66000f3fe608060405234801561001057600080fd5b50600436106100575760003560e01c806391a0d36d1461005c578063954bf4d11461007a57806396ed95d814610098578063b46cb102146100b6578063fd3ee5df146100e6575b600080fd5b610064610116565b60405161007191906106b4565b60405180910390f35b61008261013a565b60405161008f91906106b4565b60405180910390f35b6100a061015e565b6040516100ad91906106b4565b60405180910390f35b6100d060048036038101906100cb91906107a2565b610182565b6040516100dd91906106b4565b60405180910390f35b61010060048036038101906100fb9190610888565b610359565b60405161010d91906106b4565b60405180910390f35b7f000000000000000000000000000000000000000000000000000000000000000081565b7f000000000000000000000000000000000000000000000000000000000000000081565b7f000000000000000000000000000000000000000000000000000000000000000081565b6000807f000000000000000000000000000000000000000000000000000000000000000073ffffffffffffffffffffffffffffffffffffffff1663efc81a8c6040518163ffffffff1660e01b81526004016020604051808303816000875af11580156101f2573d6000803e3d6000fd5b505050506040513d601f19601f820116820180604052508101906102169190610977565b90508073ffffffffffffffffffffffffffffffffffffffff1663b1149223877f00000000000000000000000000000000000000000000000000000000000000008689896040518663ffffffff1660e01b8152600401610279959493929190610e0c565b600060405180830381600087803b15801561029357600080fd5b505af11580156102a7573d6000803e3d6000fd5b505050508073ffffffffffffffffffffffffffffffffffffffff1663a50d81c7336040518263ffffffff1660e01b81526004016102e491906106b4565b600060405180830381600087803b1580156102fe57600080fd5b505af1158015610312573d6000803e3d6000fd5b505050507f62392641265fcc5a6a8128fd39634480ffe377e76dc54dcad335e1289fcc0fd58160405161034591906106b4565b60405180910390a180915050949350505050565b600080848460018787905061036e9190610e90565b81811061037e5761037d610ec4565b5b90506020028101906103909190610ef8565b6103999061122c565b90506000816000015190506000826020015190508073ffffffffffffffffffffffffffffffffffffffff16638652d66983604051806020016040528060008152506040518363ffffffff1660e01b81526004016103f7929190611313565b600060405180830381600087803b15801561041157600080fd5b505af1158015610425573d6000803e3d6000fd5b505050508073ffffffffffffffffffffffffffffffffffffffff16633b7aa8d9838b8b6040518463ffffffff1660e01b815260040161046693929190611377565b600060405180830381600087803b15801561048057600080fd5b505af1158015610494573d6000803e3d6000fd5b5050505060007f000000000000000000000000000000000000000000000000000000000000000073ffffffffffffffffffffffffffffffffffffffff1663efc81a8c6040518163ffffffff1660e01b81526004016020604051808303816000875af1158015610507573d6000803e3d6000fd5b505050506040513d601f19601f8201168201806040525081019061052b9190610977565b90508073ffffffffffffffffffffffffffffffffffffffff1663b11492238c7f0000000000000000000000000000000000000000000000000000000000000000898c8c6040518663ffffffff1660e01b815260040161058e959493929190610e0c565b600060405180830381600087803b1580156105a857600080fd5b505af11580156105bc573d6000803e3d6000fd5b505050508073ffffffffffffffffffffffffffffffffffffffff1663a50d81c7336040518263ffffffff1660e01b81526004016105f991906106b4565b600060405180830381600087803b15801561061357600080fd5b505af1158015610627573d6000803e3d6000fd5b505050507f62392641265fcc5a6a8128fd39634480ffe377e76dc54dcad335e1289fcc0fd58160405161065a91906106b4565b60405180910390a1809450505050509695505050505050565b600073ffffffffffffffffffffffffffffffffffffffff82169050919050565b600061069e82610673565b9050919050565b6106ae81610693565b82525050565b60006020820190506106c960008301846106a5565b92915050565b6000604051905090565b600080fd5b600080fd5b600080fd5b6000606082840312156106fe576106fd6106e3565b5b81905092915050565b600080fd5b600080fd5b600080fd5b60008083601f84011261072c5761072b610707565b5b8235905067ffffffffffffffff8111156107495761074861070c565b5b60208301915083602082028301111561076557610764610711565b5b9250929050565b6000819050919050565b61077f8161076c565b811461078a57600080fd5b50565b60008135905061079c81610776565b92915050565b600080600080606085870312156107bc576107bb6106d9565b5b600085013567ffffffffffffffff8111156107da576107d96106de565b5b6107e6878288016106e8565b945050602085013567ffffffffffffffff811115610807576108066106de565b5b61081387828801610716565b935093505060406108268782880161078d565b91505092959194509250565b60008083601f84011261084857610847610707565b5b8235905067ffffffffffffffff8111156108655761086461070c565b5b60208301915083600182028301111561088157610880610711565b5b9250929050565b600080600080600080608087890312156108a5576108a46106d9565b5b600087013567ffffffffffffffff8111156108c3576108c26106de565b5b6108cf89828a016106e8565b965050602087013567ffffffffffffffff8111156108f0576108ef6106de565b5b6108fc89828a01610832565b9550955050604087013567ffffffffffffffff81111561091f5761091e6106de565b5b61092b89828a01610716565b9350935050606061093e89828a0161078d565b9150509295509295509295565b61095481610693565b811461095f57600080fd5b50565b6000815190506109718161094b565b92915050565b60006020828403121561098d5761098c6106d9565b5b600061099b84828501610962565b91505092915050565b600080fd5b600080fd5b600080fd5b600080833560016020038436030381126109d0576109cf6109ae565b5b83810192508235915060208301925067ffffffffffffffff8211156109f8576109f76109a4565b5b600182023603831315610a0e57610a0d6109a9565b5b509250929050565b600082825260208201905092915050565b82818337600083830152505050565b6000601f19601f8301169050919050565b6000610a538385610a16565b9350610a60838584610a27565b610a6983610a36565b840190509392505050565b600060608301610a8760008401846109b3565b8583036000870152610a9a838284610a47565b92505050610aab60208401846109b3565b8583036020870152610abe838284610a47565b92505050610acf60408401846109b3565b8583036040870152610ae2838284610a47565b925050508091505092915050565b610af98161076c565b82525050565b600082825260208201905092915050565b6000819050919050565b600081359050610b298161094b565b92915050565b6000610b3e6020840184610b1a565b905092915050565b610b4f81610693565b82525050565b60008083356001602003843603038112610b7257610b716109ae565b5b83810192508235915060208301925067ffffffffffffffff821115610b9a57610b996109a4565b5b600182023603831315610bb057610baf6109a9565b5b509250929050565b600082825260208201905092915050565b6000610bd58385610bb8565b9350610be2838584610a27565b610beb83610a36565b840190509392505050565b600060ff82169050919050565b610c0c81610bf6565b8114610c1757600080fd5b50565b600081359050610c2981610c03565b92915050565b6000610c3e6020840184610c1a565b905092915050565b610c4f81610bf6565b82525050565b600060e08301610c6860008401846109b3565b8583036000870152610c7b838284610a47565b92505050610c8c6020840184610b2f565b610c996020860182610b46565b50610ca76040840184610b55565b8583036040870152610cba838284610bc9565b92505050610ccb6060840184610c2f565b610cd86060860182610c46565b50610ce66080840184610b55565b8583036080870152610cf9838284610bc9565b92505050610d0a60a0840184610b55565b85830360a0870152610d1d838284610bc9565b92505050610d2e60c0840184610b55565b85830360c0870152610d41838284610bc9565b925050508091505092915050565b6000610d5b8383610c55565b905092915050565b60008235600160e003833603038112610d7f57610d7e6109ae565b5b82810191505092915050565b6000602082019050919050565b6000610da48385610aff565b935083602084028501610db684610b10565b8060005b87811015610dfa578484038952610dd18284610d63565b610ddb8582610d4f565b9450610de683610d8b565b925060208a01995050600181019050610dba565b50829750879450505050509392505050565b60006080820190508181036000830152610e268188610a74565b9050610e3560208301876106a5565b610e426040830186610af0565b8181036060830152610e55818486610d98565b90509695505050505050565b7f4e487b7100000000000000000000000000000000000000000000000000000000600052601160045260246000fd5b6000610e9b8261076c565b9150610ea68361076c565b9250828203905081811115610ebe57610ebd610e61565b5b92915050565b7f4e487b7100000000000000000000000000000000000000000000000000000000600052603260045260246000fd5b600080fd5b60008235600160e003833603038112610f1457610f13610ef3565b5b80830191505092915050565b600080fd5b7f4e487b7100000000000000000000000000000000000000000000000000000000600052604160045260246000fd5b610f5d82610a36565b810181811067ffffffffffffffff82111715610f7c57610f7b610f25565b5b80604052505050565b6000610f8f6106cf565b9050610f9b8282610f54565b919050565b600080fd5b600080fd5b600067ffffffffffffffff821115610fc557610fc4610f25565b5b610fce82610a36565b9050602081019050919050565b6000610fee610fe984610faa565b610f85565b90508281526020810184848401111561100a57611009610fa5565b5b611015848285610a27565b509392505050565b600082601f83011261103257611031610707565b5b8135611042848260208601610fdb565b91505092915050565b600067ffffffffffffffff82111561106657611065610f25565b5b61106f82610a36565b9050602081019050919050565b600061108f61108a8461104b565b610f85565b9050828152602081018484840111156110ab576110aa610fa5565b5b6110b6848285610a27565b509392505050565b600082601f8301126110d3576110d2610707565b5b81356110e384826020860161107c565b91505092915050565b600060e0828403121561110257611101610f20565b5b61110c60e0610f85565b9050600082013567ffffffffffffffff81111561112c5761112b610fa0565b5b6111388482850161101d565b600083015250602061114c84828501610b1a565b602083015250604082013567ffffffffffffffff8111156111705761116f610fa0565b5b61117c848285016110be565b604083015250606061119084828501610c1a565b606083015250608082013567ffffffffffffffff8111156111b4576111b3610fa0565b5b6111c0848285016110be565b60808301525060a082013567ffffffffffffffff8111156111e4576111e3610fa0565b5b6111f0848285016110be565b60a08301525060c082013567ffffffffffffffff81111561121457611213610fa0565b5b611220848285016110be565b60c08301525092915050565b600061123836836110ec565b9050919050565b600081519050919050565b600082825260208201905092915050565b60005b8381101561127957808201518184015260208101905061125e565b60008484015250505050565b60006112908261123f565b61129a818561124a565b93506112aa81856020860161125b565b6112b381610a36565b840191505092915050565b600081519050919050565b600082825260208201905092915050565b60006112e5826112be565b6112ef81856112c9565b93506112ff81856020860161125b565b61130881610a36565b840191505092915050565b6000604082019050818103600083015261132d8185611285565b9050818103602083015261134181846112da565b90509392505050565b600061135683856112c9565b9350611363838584610a27565b61136c83610a36565b840190509392505050565b600060408201905081810360008301526113918186611285565b905081810360208301526113a681848661134a565b905094935050505056fea2646970667358221220c324f659e1e45a261e877a9d8fccea6f174dbb03c994f51d860211169d0fed1964736f6c63430008110033",
  "linkReferences": {},
  "deployedLinkReferences": {}
}