{
  "_format": "hh-sol-artifact-1",
  "contractName": "FrameDeployer",
  "sourceName": "src/contracts/FrameDeployer.sol",
  "abi": [
    {
      "inputs": [
        {
          "internalType": "address",
          "name": "_scriptyStorage",
          "type": "address"
        },
        {
          "internalType": "address",
          "name": "_frame",
          "type": "address"
        },
        {
          "internalType": "address",
          "name": "_scriptyBuilder",
          "type": "address"
        }
      ],
      "stateMutability": "nonpayable",
      "type": "constructor"
    },
    {
      "anonymous": false,
      "inputs": [
        {
          "indexed": false,
          "internalType": "address",
          "name": "newAddress",
          "type": "address"
        }
      ],
      "name": "FrameCreated",
      "type": "event"
    },
    {
      "inputs": [
        {
          "components": [
            {
              "internalType": "string",
              "name": "name",
              "type": "string"
            },
            {
              "internalType": "string",
              "name": "symbol",
              "type": "string"
            }
          ],
          "internalType": "struct FrameTokenMetadata",
          "name": "_tokenMetadata",
          "type": "tuple"
        },
        {
          "components": [
            {
              "internalType": "string",
              "name": "encodedName",
              "type": "string"
            },
            {
              "internalType": "string",
              "name": "encodedDescription",
              "type": "string"
            }
          ],
          "internalType": "struct FrameMetadata",
          "name": "_metadata",
          "type": "tuple"
        },
        {
          "internalType": "uint256",
          "name": "_bufferSize",
          "type": "uint256"
        },
        {
          "components": [
            {
              "internalType": "string",
              "name": "name",
              "type": "string"
            },
            {
              "internalType": "address",
              "name": "contractAddress",
              "type": "address"
            },
            {
              "internalType": "bytes",
              "name": "contractData",
              "type": "bytes"
            },
            {
              "internalType": "uint8",
              "name": "wrapType",
              "type": "uint8"
            },
            {
              "internalType": "bytes",
              "name": "wrapPrefix",
              "type": "bytes"
            },
            {
              "internalType": "bytes",
              "name": "wrapSuffix",
              "type": "bytes"
            },
            {
              "internalType": "bytes",
              "name": "scriptContent",
              "type": "bytes"
            }
          ],
          "internalType": "struct WrappedScriptRequest[]",
          "name": "_requests",
          "type": "tuple[]"
        }
      ],
      "name": "createFrame",
      "outputs": [
        {
          "internalType": "address",
          "name": "",
          "type": "address"
        }
      ],
      "stateMutability": "nonpayable",
      "type": "function"
    },
    {
      "inputs": [
        {
          "components": [
            {
              "internalType": "string",
              "name": "name",
              "type": "string"
            },
            {
              "internalType": "string",
              "name": "symbol",
              "type": "string"
            }
          ],
          "internalType": "struct FrameTokenMetadata",
          "name": "_tokenMetadata",
          "type": "tuple"
        },
        {
          "components": [
            {
              "internalType": "string",
              "name": "encodedName",
              "type": "string"
            },
            {
              "internalType": "string",
              "name": "encodedDescription",
              "type": "string"
            }
          ],
          "internalType": "struct FrameMetadata",
          "name": "_metadata",
          "type": "tuple"
        },
        {
          "internalType": "uint256",
          "name": "_bufferSize",
          "type": "uint256"
        },
        {
          "components": [
            {
              "internalType": "string",
              "name": "name",
              "type": "string"
            },
            {
              "internalType": "bytes",
              "name": "contractData",
              "type": "bytes"
            },
            {
              "internalType": "uint8",
              "name": "wrapType",
              "type": "uint8"
            },
            {
              "internalType": "bytes",
              "name": "wrapPrefix",
              "type": "bytes"
            },
            {
              "internalType": "bytes",
              "name": "wrapSuffix",
              "type": "bytes"
            },
            {
              "internalType": "bytes",
              "name": "scriptContent",
              "type": "bytes"
            }
          ],
          "internalType": "struct EmptyWrappedScriptRequest",
          "name": "_sourceRequest",
          "type": "tuple"
        },
        {
          "components": [
            {
              "internalType": "string",
              "name": "name",
              "type": "string"
            },
            {
              "internalType": "address",
              "name": "contractAddress",
              "type": "address"
            },
            {
              "internalType": "bytes",
              "name": "contractData",
              "type": "bytes"
            },
            {
              "internalType": "uint8",
              "name": "wrapType",
              "type": "uint8"
            },
            {
              "internalType": "bytes",
              "name": "wrapPrefix",
              "type": "bytes"
            },
            {
              "internalType": "bytes",
              "name": "wrapSuffix",
              "type": "bytes"
            },
            {
              "internalType": "bytes",
              "name": "scriptContent",
              "type": "bytes"
            }
          ],
          "internalType": "struct WrappedScriptRequest[]",
          "name": "_requests",
          "type": "tuple[]"
        }
      ],
      "name": "createFrameWithStorage",
      "outputs": [
        {
          "internalType": "address",
          "name": "",
          "type": "address"
        }
      ],
      "stateMutability": "nonpayable",
      "type": "function"
    },
    {
      "inputs": [],
      "name": "frameFactory",
      "outputs": [
        {
          "internalType": "address",
          "name": "",
          "type": "address"
        }
      ],
      "stateMutability": "view",
      "type": "function"
    },
    {
      "inputs": [],
      "name": "scriptyBuilder",
      "outputs": [
        {
          "internalType": "address",
          "name": "",
          "type": "address"
        }
      ],
      "stateMutability": "view",
      "type": "function"
    },
    {
      "inputs": [],
      "name": "scriptyStorageFactory",
      "outputs": [
        {
          "internalType": "address",
          "name": "",
          "type": "address"
        }
      ],
      "stateMutability": "view",
      "type": "function"
    }
  ],
  "bytecode": "0x60e06040523480156200001157600080fd5b5060405162001ec038038062001ec0833981810160405281019062000037919062000146565b8273ffffffffffffffffffffffffffffffffffffffff1660808173ffffffffffffffffffffffffffffffffffffffff16815250508173ffffffffffffffffffffffffffffffffffffffff1660a08173ffffffffffffffffffffffffffffffffffffffff16815250508073ffffffffffffffffffffffffffffffffffffffff1660c08173ffffffffffffffffffffffffffffffffffffffff1681525050505050620001a2565b600080fd5b600073ffffffffffffffffffffffffffffffffffffffff82169050919050565b60006200010e82620000e1565b9050919050565b620001208162000101565b81146200012c57600080fd5b50565b600081519050620001408162000115565b92915050565b600080600060608486031215620001625762000161620000dc565b5b600062000172868287016200012f565b935050602062000185868287016200012f565b925050604062000198868287016200012f565b9150509250925092565b60805160a05160c051611ccb620001f5600039600081816102c10152818161037b015261093901526000818161011b0152818161039f01526105980152600081816103c301526103ea0152611ccb6000f3fe608060405234801561001057600080fd5b50600436106100575760003560e01c806355af88221461005c57806391a0d36d1461008c578063954bf4d1146100aa57806396ed95d8146100c8578063dd958cba146100e6575b600080fd5b61007660048036038101906100719190610c9c565b610116565b6040516100839190610d9d565b60405180910390f35b610094610379565b6040516100a19190610d9d565b60405180910390f35b6100b261039d565b6040516100bf9190610d9d565b60405180910390f35b6100d06103c1565b6040516100dd9190610d9d565b60405180910390f35b61010060048036038101906100fb9190610dd7565b6103e5565b60405161010d9190610d9d565b60405180910390f35b6000807f000000000000000000000000000000000000000000000000000000000000000073ffffffffffffffffffffffffffffffffffffffff1663efc81a8c6040518163ffffffff1660e01b81526004016020604051808303816000875af1158015610186573d6000803e3d6000fd5b505050506040513d601f19601f820116820180604052508101906101aa9190610ef1565b90508073ffffffffffffffffffffffffffffffffffffffff1663c47f00278880600001906101d89190610f2d565b6040518363ffffffff1660e01b81526004016101f5929190610fee565b600060405180830381600087803b15801561020f57600080fd5b505af1158015610223573d6000803e3d6000fd5b505050508073ffffffffffffffffffffffffffffffffffffffff1663b84c82468880602001906102539190610f2d565b6040518363ffffffff1660e01b8152600401610270929190610fee565b600060405180830381600087803b15801561028a57600080fd5b505af115801561029e573d6000803e3d6000fd5b505050508073ffffffffffffffffffffffffffffffffffffffff16634e197151877f00000000000000000000000000000000000000000000000000000000000000008888886040518663ffffffff1660e01b8152600401610303959493929190611436565b600060405180830381600087803b15801561031d57600080fd5b505af1158015610331573d6000803e3d6000fd5b505050507f62392641265fcc5a6a8128fd39634480ffe377e76dc54dcad335e1289fcc0fd5816040516103649190610d9d565b60405180910390a18091505095945050505050565b7f000000000000000000000000000000000000000000000000000000000000000081565b7f000000000000000000000000000000000000000000000000000000000000000081565b7f000000000000000000000000000000000000000000000000000000000000000081565b6000807f000000000000000000000000000000000000000000000000000000000000000073ffffffffffffffffffffffffffffffffffffffff1663efc81a8c6040518163ffffffff1660e01b81526004016020604051808303816000875af1158015610455573d6000803e3d6000fd5b505050506040513d601f19601f820116820180604052508101906104799190610ef1565b90508073ffffffffffffffffffffffffffffffffffffffff16638652d6698680600001906104a79190610f2d565b604051806020016040528060008152506040518463ffffffff1660e01b81526004016104d59392919061150a565b600060405180830381600087803b1580156104ef57600080fd5b505af1158015610503573d6000803e3d6000fd5b505050508073ffffffffffffffffffffffffffffffffffffffff16633b7aa8d98680600001906105339190610f2d565b888060a001906105439190611543565b6040518563ffffffff1660e01b815260040161056294939291906115d3565b600060405180830381600087803b15801561057c57600080fd5b505af1158015610590573d6000803e3d6000fd5b5050505060007f000000000000000000000000000000000000000000000000000000000000000073ffffffffffffffffffffffffffffffffffffffff1663efc81a8c6040518163ffffffff1660e01b81526004016020604051808303816000875af1158015610603573d6000803e3d6000fd5b505050506040513d601f19601f820116820180604052508101906106279190610ef1565b9050600060018686905061063b919061163d565b905060008167ffffffffffffffff81111561065957610658611671565b5b60405190808252806020026020018201604052801561069257816020015b61067f610b54565b8152602001906001900390816106775790505b50905060005b87879050811015610702578787828181106106b6576106b56116a0565b5b90506020028101906106c891906116cf565b6106d1906119d4565b8282815181106106e4576106e36116a0565b5b602002602001018190525080806106fa906119e7565b915050610698565b506040518060e0016040528089806000019061071e9190610f2d565b8080601f016020809104026020016040519081016040528093929190818152602001838380828437600081840152601f19601f8201169050808301925050505050505081526020018573ffffffffffffffffffffffffffffffffffffffff1681526020018980602001906107929190611543565b8080601f016020809104026020016040519081016040528093929190818152602001838380828437600081840152601f19601f8201169050808301925050505050505081526020018960400160208101906107ed9190611a2f565b60ff1681526020018980606001906108059190611543565b8080601f016020809104026020016040519081016040528093929190818152602001838380828437600081840152601f19601f82011690508083019250505050505050815260200189806080019061085d9190611543565b8080601f016020809104026020016040519081016040528093929190818152602001838380828437600081840152601f19601f820116905080830192505050505050508152602001898060a001906108b59190611543565b8080601f016020809104026020016040519081016040528093929190818152602001838380828437600081840152601f19601f820116905080830192505050505050508152508182518151811061090f5761090e6116a0565b5b60200260200101819052508273ffffffffffffffffffffffffffffffffffffffff16634e1971518b7f00000000000000000000000000000000000000000000000000000000000000008c856040518563ffffffff1660e01b81526004016109799493929190611c42565b600060405180830381600087803b15801561099357600080fd5b505af11580156109a7573d6000803e3d6000fd5b505050508273ffffffffffffffffffffffffffffffffffffffff1663c47f00278c80600001906109d79190610f2d565b6040518363ffffffff1660e01b81526004016109f4929190610fee565b600060405180830381600087803b158015610a0e57600080fd5b505af1158015610a22573d6000803e3d6000fd5b505050508273ffffffffffffffffffffffffffffffffffffffff1663b84c82468c8060200190610a529190610f2d565b6040518363ffffffff1660e01b8152600401610a6f929190610fee565b600060405180830381600087803b158015610a8957600080fd5b505af1158015610a9d573d6000803e3d6000fd5b505050508273ffffffffffffffffffffffffffffffffffffffff1663a50d81c7336040518263ffffffff1660e01b8152600401610ada9190610d9d565b600060405180830381600087803b158015610af457600080fd5b505af1158015610b08573d6000803e3d6000fd5b505050507f62392641265fcc5a6a8128fd39634480ffe377e76dc54dcad335e1289fcc0fd583604051610b3b9190610d9d565b60405180910390a1829450505050509695505050505050565b6040518060e0016040528060608152602001600073ffffffffffffffffffffffffffffffffffffffff16815260200160608152602001600060ff1681526020016060815260200160608152602001606081525090565b6000604051905090565b600080fd5b600080fd5b600080fd5b600060408284031215610bd957610bd8610bbe565b5b81905092915050565b600060408284031215610bf857610bf7610bbe565b5b81905092915050565b6000819050919050565b610c1481610c01565b8114610c1f57600080fd5b50565b600081359050610c3181610c0b565b92915050565b600080fd5b600080fd5b600080fd5b60008083601f840112610c5c57610c5b610c37565b5b8235905067ffffffffffffffff811115610c7957610c78610c3c565b5b602083019150836020820283011115610c9557610c94610c41565b5b9250929050565b600080600080600060808688031215610cb857610cb7610bb4565b5b600086013567ffffffffffffffff811115610cd657610cd5610bb9565b5b610ce288828901610bc3565b955050602086013567ffffffffffffffff811115610d0357610d02610bb9565b5b610d0f88828901610be2565b9450506040610d2088828901610c22565b935050606086013567ffffffffffffffff811115610d4157610d40610bb9565b5b610d4d88828901610c46565b92509250509295509295909350565b600073ffffffffffffffffffffffffffffffffffffffff82169050919050565b6000610d8782610d5c565b9050919050565b610d9781610d7c565b82525050565b6000602082019050610db26000830184610d8e565b92915050565b600060c08284031215610dce57610dcd610bbe565b5b81905092915050565b60008060008060008060a08789031215610df457610df3610bb4565b5b600087013567ffffffffffffffff811115610e1257610e11610bb9565b5b610e1e89828a01610bc3565b965050602087013567ffffffffffffffff811115610e3f57610e3e610bb9565b5b610e4b89828a01610be2565b9550506040610e5c89828a01610c22565b945050606087013567ffffffffffffffff811115610e7d57610e7c610bb9565b5b610e8989828a01610db8565b935050608087013567ffffffffffffffff811115610eaa57610ea9610bb9565b5b610eb689828a01610c46565b92509250509295509295509295565b610ece81610d7c565b8114610ed957600080fd5b50565b600081519050610eeb81610ec5565b92915050565b600060208284031215610f0757610f06610bb4565b5b6000610f1584828501610edc565b91505092915050565b600080fd5b600080fd5b600080fd5b60008083356001602003843603038112610f4a57610f49610f1e565b5b80840192508235915067ffffffffffffffff821115610f6c57610f6b610f23565b5b602083019250600182023603831315610f8857610f87610f28565b5b509250929050565b600082825260208201905092915050565b82818337600083830152505050565b6000601f19601f8301169050919050565b6000610fcd8385610f90565b9350610fda838584610fa1565b610fe383610fb0565b840190509392505050565b60006020820190508181036000830152611009818486610fc1565b90509392505050565b600080fd5b600080fd5b600080fd5b6000808335600160200384360303811261103e5761103d61101c565b5b83810192508235915060208301925067ffffffffffffffff82111561106657611065611012565b5b60018202360383131561107c5761107b611017565b5b509250929050565b600082825260208201905092915050565b60006110a18385611084565b93506110ae838584610fa1565b6110b783610fb0565b840190509392505050565b6000604083016110d56000840184611021565b85830360008701526110e8838284611095565b925050506110f96020840184611021565b858303602087015261110c838284611095565b925050508091505092915050565b61112381610c01565b82525050565b600082825260208201905092915050565b6000819050919050565b60008135905061115381610ec5565b92915050565b60006111686020840184611144565b905092915050565b61117981610d7c565b82525050565b6000808335600160200384360303811261119c5761119b61101c565b5b83810192508235915060208301925067ffffffffffffffff8211156111c4576111c3611012565b5b6001820236038313156111da576111d9611017565b5b509250929050565b600082825260208201905092915050565b60006111ff83856111e2565b935061120c838584610fa1565b61121583610fb0565b840190509392505050565b600060ff82169050919050565b61123681611220565b811461124157600080fd5b50565b6000813590506112538161122d565b92915050565b60006112686020840184611244565b905092915050565b61127981611220565b82525050565b600060e083016112926000840184611021565b85830360008701526112a5838284611095565b925050506112b66020840184611159565b6112c36020860182611170565b506112d1604084018461117f565b85830360408701526112e48382846111f3565b925050506112f56060840184611259565b6113026060860182611270565b50611310608084018461117f565b85830360808701526113238382846111f3565b9250505061133460a084018461117f565b85830360a08701526113478382846111f3565b9250505061135860c084018461117f565b85830360c087015261136b8382846111f3565b925050508091505092915050565b6000611385838361127f565b905092915050565b60008235600160e0038336030381126113a9576113a861101c565b5b82810191505092915050565b6000602082019050919050565b60006113ce8385611129565b9350836020840285016113e08461113a565b8060005b878110156114245784840389526113fb828461138d565b6114058582611379565b9450611410836113b5565b925060208a019950506001810190506113e4565b50829750879450505050509392505050565b6000608082019050818103600083015261145081886110c2565b905061145f6020830187610d8e565b61146c604083018661111a565b818103606083015261147f8184866113c2565b90509695505050505050565b600081519050919050565b600082825260208201905092915050565b60005b838110156114c55780820151818401526020810190506114aa565b60008484015250505050565b60006114dc8261148b565b6114e68185611496565b93506114f68185602086016114a7565b6114ff81610fb0565b840191505092915050565b60006040820190508181036000830152611525818587610fc1565b9050818103602083015261153981846114d1565b9050949350505050565b600080833560016020038436030381126115605761155f610f1e565b5b80840192508235915067ffffffffffffffff82111561158257611581610f23565b5b60208301925060018202360383131561159e5761159d610f28565b5b509250929050565b60006115b28385611496565b93506115bf838584610fa1565b6115c883610fb0565b840190509392505050565b600060408201905081810360008301526115ee818688610fc1565b905081810360208301526116038184866115a6565b905095945050505050565b7f4e487b7100000000000000000000000000000000000000000000000000000000600052601160045260246000fd5b600061164882610c01565b915061165383610c01565b925082820190508082111561166b5761166a61160e565b5b92915050565b7f4e487b7100000000000000000000000000000000000000000000000000000000600052604160045260246000fd5b7f4e487b7100000000000000000000000000000000000000000000000000000000600052603260045260246000fd5b60008235600160e0038336030381126116eb576116ea610f1e565b5b80830191505092915050565b600080fd5b61170582610fb0565b810181811067ffffffffffffffff8211171561172457611723611671565b5b80604052505050565b6000611737610baa565b905061174382826116fc565b919050565b600080fd5b600080fd5b600067ffffffffffffffff82111561176d5761176c611671565b5b61177682610fb0565b9050602081019050919050565b600061179661179184611752565b61172d565b9050828152602081018484840111156117b2576117b161174d565b5b6117bd848285610fa1565b509392505050565b600082601f8301126117da576117d9610c37565b5b81356117ea848260208601611783565b91505092915050565b600067ffffffffffffffff82111561180e5761180d611671565b5b61181782610fb0565b9050602081019050919050565b6000611837611832846117f3565b61172d565b9050828152602081018484840111156118535761185261174d565b5b61185e848285610fa1565b509392505050565b600082601f83011261187b5761187a610c37565b5b813561188b848260208601611824565b91505092915050565b600060e082840312156118aa576118a96116f7565b5b6118b460e061172d565b9050600082013567ffffffffffffffff8111156118d4576118d3611748565b5b6118e0848285016117c5565b60008301525060206118f484828501611144565b602083015250604082013567ffffffffffffffff81111561191857611917611748565b5b61192484828501611866565b604083015250606061193884828501611244565b606083015250608082013567ffffffffffffffff81111561195c5761195b611748565b5b61196884828501611866565b60808301525060a082013567ffffffffffffffff81111561198c5761198b611748565b5b61199884828501611866565b60a08301525060c082013567ffffffffffffffff8111156119bc576119bb611748565b5b6119c884828501611866565b60c08301525092915050565b60006119e03683611894565b9050919050565b60006119f282610c01565b91507fffffffffffffffffffffffffffffffffffffffffffffffffffffffffffffffff8203611a2457611a2361160e565b5b600182019050919050565b600060208284031215611a4557611a44610bb4565b5b6000611a5384828501611244565b91505092915050565b600081519050919050565b6000819050602082019050919050565b600081519050919050565b6000611a8d82611a77565b611a978185611084565b9350611aa78185602086016114a7565b611ab081610fb0565b840191505092915050565b6000611ac68261148b565b611ad081856111e2565b9350611ae08185602086016114a7565b611ae981610fb0565b840191505092915050565b600060e0830160008301518482036000860152611b118282611a82565b9150506020830151611b266020860182611170565b5060408301518482036040860152611b3e8282611abb565b9150506060830151611b536060860182611270565b5060808301518482036080860152611b6b8282611abb565b91505060a083015184820360a0860152611b858282611abb565b91505060c083015184820360c0860152611b9f8282611abb565b9150508091505092915050565b6000611bb88383611af4565b905092915050565b6000602082019050919050565b6000611bd882611a5c565b611be28185611129565b935083602082028501611bf485611a67565b8060005b85811015611c305784840389528151611c118582611bac565b9450611c1c83611bc0565b925060208a01995050600181019050611bf8565b50829750879550505050505092915050565b60006080820190508181036000830152611c5c81876110c2565b9050611c6b6020830186610d8e565b611c78604083018561111a565b8181036060830152611c8a8184611bcd565b90509594505050505056fea264697066735822122052c371c326faac1a87bfc95a14aa0d30a3e4a6aa9666502c85e6e856d1b24e4a64736f6c63430008110033",
  "linkReferences": {},
  "deployedLinkReferences": {}
}