{
  "_format": "hh-sol-artifact-1",
  "contractName": "FrameDeployer",
  "sourceName": "src/contracts/FrameDeployer.sol",
  "abi": [
    {
      "inputs": [
        {
          "internalType": "address",
          "name": "_scriptyStorage",
          "type": "address"
        },
        {
          "internalType": "address",
          "name": "_frame",
          "type": "address"
        },
        {
          "internalType": "address",
          "name": "_scriptyBuilder",
          "type": "address"
        }
      ],
      "stateMutability": "nonpayable",
      "type": "constructor"
    },
    {
      "anonymous": false,
      "inputs": [
        {
          "indexed": false,
          "internalType": "address",
          "name": "newAddress",
          "type": "address"
        }
      ],
      "name": "FrameCreated",
      "type": "event"
    },
    {
      "inputs": [
        {
          "components": [
            {
              "internalType": "string",
              "name": "name",
              "type": "string"
            },
            {
              "internalType": "string",
              "name": "symbol",
              "type": "string"
            }
          ],
          "internalType": "struct FrameTokenMetadata",
          "name": "_tokenMetadata",
          "type": "tuple"
        },
        {
          "components": [
            {
              "internalType": "string",
              "name": "encodedName",
              "type": "string"
            },
            {
              "internalType": "string",
              "name": "encodedDescription",
              "type": "string"
            }
          ],
          "internalType": "struct FrameMetadata",
          "name": "_metadata",
          "type": "tuple"
        },
        {
          "internalType": "uint256",
          "name": "_bufferSize",
          "type": "uint256"
        },
        {
          "components": [
            {
              "internalType": "string",
              "name": "name",
              "type": "string"
            },
            {
              "internalType": "address",
              "name": "contractAddress",
              "type": "address"
            },
            {
              "internalType": "bytes",
              "name": "contractData",
              "type": "bytes"
            },
            {
              "internalType": "uint8",
              "name": "wrapType",
              "type": "uint8"
            },
            {
              "internalType": "bytes",
              "name": "wrapPrefix",
              "type": "bytes"
            },
            {
              "internalType": "bytes",
              "name": "wrapSuffix",
              "type": "bytes"
            },
            {
              "internalType": "bytes",
              "name": "scriptContent",
              "type": "bytes"
            }
          ],
          "internalType": "struct WrappedScriptRequest[]",
          "name": "_requests",
          "type": "tuple[]"
        }
      ],
      "name": "createFrame",
      "outputs": [
        {
          "internalType": "address",
          "name": "",
          "type": "address"
        }
      ],
      "stateMutability": "nonpayable",
      "type": "function"
    },
    {
      "inputs": [
        {
          "components": [
            {
              "internalType": "string",
              "name": "name",
              "type": "string"
            },
            {
              "internalType": "string",
              "name": "symbol",
              "type": "string"
            }
          ],
          "internalType": "struct FrameTokenMetadata",
          "name": "_tokenMetadata",
          "type": "tuple"
        },
        {
          "components": [
            {
              "internalType": "string",
              "name": "encodedName",
              "type": "string"
            },
            {
              "internalType": "string",
              "name": "encodedDescription",
              "type": "string"
            }
          ],
          "internalType": "struct FrameMetadata",
          "name": "_metadata",
          "type": "tuple"
        },
        {
          "internalType": "uint256",
          "name": "_bufferSize",
          "type": "uint256"
        },
        {
          "components": [
            {
              "internalType": "string",
              "name": "name",
              "type": "string"
            },
            {
              "internalType": "bytes",
              "name": "contractData",
              "type": "bytes"
            },
            {
              "internalType": "uint8",
              "name": "wrapType",
              "type": "uint8"
            },
            {
              "internalType": "bytes",
              "name": "wrapPrefix",
              "type": "bytes"
            },
            {
              "internalType": "bytes",
              "name": "wrapSuffix",
              "type": "bytes"
            },
            {
              "internalType": "bytes",
              "name": "scriptContent",
              "type": "bytes"
            }
          ],
          "internalType": "struct EmptyWrappedScriptRequest",
          "name": "_sourceRequest",
          "type": "tuple"
        },
        {
          "components": [
            {
              "internalType": "string",
              "name": "name",
              "type": "string"
            },
            {
              "internalType": "address",
              "name": "contractAddress",
              "type": "address"
            },
            {
              "internalType": "bytes",
              "name": "contractData",
              "type": "bytes"
            },
            {
              "internalType": "uint8",
              "name": "wrapType",
              "type": "uint8"
            },
            {
              "internalType": "bytes",
              "name": "wrapPrefix",
              "type": "bytes"
            },
            {
              "internalType": "bytes",
              "name": "wrapSuffix",
              "type": "bytes"
            },
            {
              "internalType": "bytes",
              "name": "scriptContent",
              "type": "bytes"
            }
          ],
          "internalType": "struct WrappedScriptRequest[]",
          "name": "_requests",
          "type": "tuple[]"
        }
      ],
      "name": "createFrameWithStorage",
      "outputs": [
        {
          "internalType": "address",
          "name": "",
          "type": "address"
        }
      ],
      "stateMutability": "nonpayable",
      "type": "function"
    },
    {
      "inputs": [],
      "name": "frameFactory",
      "outputs": [
        {
          "internalType": "address",
          "name": "",
          "type": "address"
        }
      ],
      "stateMutability": "view",
      "type": "function"
    },
    {
      "inputs": [],
      "name": "scriptyBuilder",
      "outputs": [
        {
          "internalType": "address",
          "name": "",
          "type": "address"
        }
      ],
      "stateMutability": "view",
      "type": "function"
    },
    {
      "inputs": [],
      "name": "scriptyStorageFactory",
      "outputs": [
        {
          "internalType": "address",
          "name": "",
          "type": "address"
        }
      ],
      "stateMutability": "view",
      "type": "function"
    }
  ],
  "bytecode": "0x60e06040523480156200001157600080fd5b5060405162001f2b38038062001f2b833981810160405281019062000037919062000146565b8273ffffffffffffffffffffffffffffffffffffffff1660808173ffffffffffffffffffffffffffffffffffffffff16815250508173ffffffffffffffffffffffffffffffffffffffff1660a08173ffffffffffffffffffffffffffffffffffffffff16815250508073ffffffffffffffffffffffffffffffffffffffff1660c08173ffffffffffffffffffffffffffffffffffffffff1681525050505050620001a2565b600080fd5b600073ffffffffffffffffffffffffffffffffffffffff82169050919050565b60006200010e82620000e1565b9050919050565b620001208162000101565b81146200012c57600080fd5b50565b600081519050620001408162000115565b92915050565b600080600060608486031215620001625762000161620000dc565b5b600062000172868287016200012f565b935050602062000185868287016200012f565b925050604062000198868287016200012f565b9150509250925092565b60805160a05160c051611d36620001f5600039600081816102c1015281816103e601526109a401526000818161011b0152818161040a015261060301526000818161042e01526104550152611d366000f3fe608060405234801561001057600080fd5b50600436106100575760003560e01c806355af88221461005c57806391a0d36d1461008c578063954bf4d1146100aa57806396ed95d8146100c8578063dd958cba146100e6575b600080fd5b61007660048036038101906100719190610d07565b610116565b6040516100839190610e08565b60405180910390f35b6100946103e4565b6040516100a19190610e08565b60405180910390f35b6100b2610408565b6040516100bf9190610e08565b60405180910390f35b6100d061042c565b6040516100dd9190610e08565b60405180910390f35b61010060048036038101906100fb9190610e42565b610450565b60405161010d9190610e08565b60405180910390f35b6000807f000000000000000000000000000000000000000000000000000000000000000073ffffffffffffffffffffffffffffffffffffffff1663efc81a8c6040518163ffffffff1660e01b81526004016020604051808303816000875af1158015610186573d6000803e3d6000fd5b505050506040513d601f19601f820116820180604052508101906101aa9190610f5c565b90508073ffffffffffffffffffffffffffffffffffffffff1663c47f00278880600001906101d89190610f98565b6040518363ffffffff1660e01b81526004016101f5929190611059565b600060405180830381600087803b15801561020f57600080fd5b505af1158015610223573d6000803e3d6000fd5b505050508073ffffffffffffffffffffffffffffffffffffffff1663b84c82468880602001906102539190610f98565b6040518363ffffffff1660e01b8152600401610270929190611059565b600060405180830381600087803b15801561028a57600080fd5b505af115801561029e573d6000803e3d6000fd5b505050508073ffffffffffffffffffffffffffffffffffffffff16634e197151877f00000000000000000000000000000000000000000000000000000000000000008888886040518663ffffffff1660e01b81526004016103039594939291906114a1565b600060405180830381600087803b15801561031d57600080fd5b505af1158015610331573d6000803e3d6000fd5b505050508073ffffffffffffffffffffffffffffffffffffffff1663a50d81c7336040518263ffffffff1660e01b815260040161036e9190610e08565b600060405180830381600087803b15801561038857600080fd5b505af115801561039c573d6000803e3d6000fd5b505050507f62392641265fcc5a6a8128fd39634480ffe377e76dc54dcad335e1289fcc0fd5816040516103cf9190610e08565b60405180910390a18091505095945050505050565b7f000000000000000000000000000000000000000000000000000000000000000081565b7f000000000000000000000000000000000000000000000000000000000000000081565b7f000000000000000000000000000000000000000000000000000000000000000081565b6000807f000000000000000000000000000000000000000000000000000000000000000073ffffffffffffffffffffffffffffffffffffffff1663efc81a8c6040518163ffffffff1660e01b81526004016020604051808303816000875af11580156104c0573d6000803e3d6000fd5b505050506040513d601f19601f820116820180604052508101906104e49190610f5c565b90508073ffffffffffffffffffffffffffffffffffffffff16638652d6698680600001906105129190610f98565b604051806020016040528060008152506040518463ffffffff1660e01b815260040161054093929190611575565b600060405180830381600087803b15801561055a57600080fd5b505af115801561056e573d6000803e3d6000fd5b505050508073ffffffffffffffffffffffffffffffffffffffff16633b7aa8d986806000019061059e9190610f98565b888060a001906105ae91906115ae565b6040518563ffffffff1660e01b81526004016105cd949392919061163e565b600060405180830381600087803b1580156105e757600080fd5b505af11580156105fb573d6000803e3d6000fd5b5050505060007f000000000000000000000000000000000000000000000000000000000000000073ffffffffffffffffffffffffffffffffffffffff1663efc81a8c6040518163ffffffff1660e01b81526004016020604051808303816000875af115801561066e573d6000803e3d6000fd5b505050506040513d601f19601f820116820180604052508101906106929190610f5c565b905060006001868690506106a691906116a8565b905060008167ffffffffffffffff8111156106c4576106c36116dc565b5b6040519080825280602002602001820160405280156106fd57816020015b6106ea610bbf565b8152602001906001900390816106e25790505b50905060005b8787905081101561076d578787828181106107215761072061170b565b5b9050602002810190610733919061173a565b61073c90611a3f565b82828151811061074f5761074e61170b565b5b6020026020010181905250808061076590611a52565b915050610703565b506040518060e001604052808980600001906107899190610f98565b8080601f016020809104026020016040519081016040528093929190818152602001838380828437600081840152601f19601f8201169050808301925050505050505081526020018573ffffffffffffffffffffffffffffffffffffffff1681526020018980602001906107fd91906115ae565b8080601f016020809104026020016040519081016040528093929190818152602001838380828437600081840152601f19601f8201169050808301925050505050505081526020018960400160208101906108589190611a9a565b60ff16815260200189806060019061087091906115ae565b8080601f016020809104026020016040519081016040528093929190818152602001838380828437600081840152601f19601f8201169050808301925050505050505081526020018980608001906108c891906115ae565b8080601f016020809104026020016040519081016040528093929190818152602001838380828437600081840152601f19601f820116905080830192505050505050508152602001898060a0019061092091906115ae565b8080601f016020809104026020016040519081016040528093929190818152602001838380828437600081840152601f19601f820116905080830192505050505050508152508182518151811061097a5761097961170b565b5b60200260200101819052508273ffffffffffffffffffffffffffffffffffffffff16634e1971518b7f00000000000000000000000000000000000000000000000000000000000000008c856040518563ffffffff1660e01b81526004016109e49493929190611cad565b600060405180830381600087803b1580156109fe57600080fd5b505af1158015610a12573d6000803e3d6000fd5b505050508273ffffffffffffffffffffffffffffffffffffffff1663c47f00278c8060000190610a429190610f98565b6040518363ffffffff1660e01b8152600401610a5f929190611059565b600060405180830381600087803b158015610a7957600080fd5b505af1158015610a8d573d6000803e3d6000fd5b505050508273ffffffffffffffffffffffffffffffffffffffff1663b84c82468c8060200190610abd9190610f98565b6040518363ffffffff1660e01b8152600401610ada929190611059565b600060405180830381600087803b158015610af457600080fd5b505af1158015610b08573d6000803e3d6000fd5b505050508273ffffffffffffffffffffffffffffffffffffffff1663a50d81c7336040518263ffffffff1660e01b8152600401610b459190610e08565b600060405180830381600087803b158015610b5f57600080fd5b505af1158015610b73573d6000803e3d6000fd5b505050507f62392641265fcc5a6a8128fd39634480ffe377e76dc54dcad335e1289fcc0fd583604051610ba69190610e08565b60405180910390a1829450505050509695505050505050565b6040518060e0016040528060608152602001600073ffffffffffffffffffffffffffffffffffffffff16815260200160608152602001600060ff1681526020016060815260200160608152602001606081525090565b6000604051905090565b600080fd5b600080fd5b600080fd5b600060408284031215610c4457610c43610c29565b5b81905092915050565b600060408284031215610c6357610c62610c29565b5b81905092915050565b6000819050919050565b610c7f81610c6c565b8114610c8a57600080fd5b50565b600081359050610c9c81610c76565b92915050565b600080fd5b600080fd5b600080fd5b60008083601f840112610cc757610cc6610ca2565b5b8235905067ffffffffffffffff811115610ce457610ce3610ca7565b5b602083019150836020820283011115610d0057610cff610cac565b5b9250929050565b600080600080600060808688031215610d2357610d22610c1f565b5b600086013567ffffffffffffffff811115610d4157610d40610c24565b5b610d4d88828901610c2e565b955050602086013567ffffffffffffffff811115610d6e57610d6d610c24565b5b610d7a88828901610c4d565b9450506040610d8b88828901610c8d565b935050606086013567ffffffffffffffff811115610dac57610dab610c24565b5b610db888828901610cb1565b92509250509295509295909350565b600073ffffffffffffffffffffffffffffffffffffffff82169050919050565b6000610df282610dc7565b9050919050565b610e0281610de7565b82525050565b6000602082019050610e1d6000830184610df9565b92915050565b600060c08284031215610e3957610e38610c29565b5b81905092915050565b60008060008060008060a08789031215610e5f57610e5e610c1f565b5b600087013567ffffffffffffffff811115610e7d57610e7c610c24565b5b610e8989828a01610c2e565b965050602087013567ffffffffffffffff811115610eaa57610ea9610c24565b5b610eb689828a01610c4d565b9550506040610ec789828a01610c8d565b945050606087013567ffffffffffffffff811115610ee857610ee7610c24565b5b610ef489828a01610e23565b935050608087013567ffffffffffffffff811115610f1557610f14610c24565b5b610f2189828a01610cb1565b92509250509295509295509295565b610f3981610de7565b8114610f4457600080fd5b50565b600081519050610f5681610f30565b92915050565b600060208284031215610f7257610f71610c1f565b5b6000610f8084828501610f47565b91505092915050565b600080fd5b600080fd5b600080fd5b60008083356001602003843603038112610fb557610fb4610f89565b5b80840192508235915067ffffffffffffffff821115610fd757610fd6610f8e565b5b602083019250600182023603831315610ff357610ff2610f93565b5b509250929050565b600082825260208201905092915050565b82818337600083830152505050565b6000601f19601f8301169050919050565b60006110388385610ffb565b935061104583858461100c565b61104e8361101b565b840190509392505050565b6000602082019050818103600083015261107481848661102c565b90509392505050565b600080fd5b600080fd5b600080fd5b600080833560016020038436030381126110a9576110a8611087565b5b83810192508235915060208301925067ffffffffffffffff8211156110d1576110d061107d565b5b6001820236038313156110e7576110e6611082565b5b509250929050565b600082825260208201905092915050565b600061110c83856110ef565b935061111983858461100c565b6111228361101b565b840190509392505050565b600060408301611140600084018461108c565b8583036000870152611153838284611100565b92505050611164602084018461108c565b8583036020870152611177838284611100565b925050508091505092915050565b61118e81610c6c565b82525050565b600082825260208201905092915050565b6000819050919050565b6000813590506111be81610f30565b92915050565b60006111d360208401846111af565b905092915050565b6111e481610de7565b82525050565b6000808335600160200384360303811261120757611206611087565b5b83810192508235915060208301925067ffffffffffffffff82111561122f5761122e61107d565b5b60018202360383131561124557611244611082565b5b509250929050565b600082825260208201905092915050565b600061126a838561124d565b935061127783858461100c565b6112808361101b565b840190509392505050565b600060ff82169050919050565b6112a18161128b565b81146112ac57600080fd5b50565b6000813590506112be81611298565b92915050565b60006112d360208401846112af565b905092915050565b6112e48161128b565b82525050565b600060e083016112fd600084018461108c565b8583036000870152611310838284611100565b9250505061132160208401846111c4565b61132e60208601826111db565b5061133c60408401846111ea565b858303604087015261134f83828461125e565b9250505061136060608401846112c4565b61136d60608601826112db565b5061137b60808401846111ea565b858303608087015261138e83828461125e565b9250505061139f60a08401846111ea565b85830360a08701526113b283828461125e565b925050506113c360c08401846111ea565b85830360c08701526113d683828461125e565b925050508091505092915050565b60006113f083836112ea565b905092915050565b60008235600160e00383360303811261141457611413611087565b5b82810191505092915050565b6000602082019050919050565b60006114398385611194565b93508360208402850161144b846111a5565b8060005b8781101561148f57848403895261146682846113f8565b61147085826113e4565b945061147b83611420565b925060208a0199505060018101905061144f565b50829750879450505050509392505050565b600060808201905081810360008301526114bb818861112d565b90506114ca6020830187610df9565b6114d76040830186611185565b81810360608301526114ea81848661142d565b90509695505050505050565b600081519050919050565b600082825260208201905092915050565b60005b83811015611530578082015181840152602081019050611515565b60008484015250505050565b6000611547826114f6565b6115518185611501565b9350611561818560208601611512565b61156a8161101b565b840191505092915050565b6000604082019050818103600083015261159081858761102c565b905081810360208301526115a4818461153c565b9050949350505050565b600080833560016020038436030381126115cb576115ca610f89565b5b80840192508235915067ffffffffffffffff8211156115ed576115ec610f8e565b5b60208301925060018202360383131561160957611608610f93565b5b509250929050565b600061161d8385611501565b935061162a83858461100c565b6116338361101b565b840190509392505050565b6000604082019050818103600083015261165981868861102c565b9050818103602083015261166e818486611611565b905095945050505050565b7f4e487b7100000000000000000000000000000000000000000000000000000000600052601160045260246000fd5b60006116b382610c6c565b91506116be83610c6c565b92508282019050808211156116d6576116d5611679565b5b92915050565b7f4e487b7100000000000000000000000000000000000000000000000000000000600052604160045260246000fd5b7f4e487b7100000000000000000000000000000000000000000000000000000000600052603260045260246000fd5b60008235600160e00383360303811261175657611755610f89565b5b80830191505092915050565b600080fd5b6117708261101b565b810181811067ffffffffffffffff8211171561178f5761178e6116dc565b5b80604052505050565b60006117a2610c15565b90506117ae8282611767565b919050565b600080fd5b600080fd5b600067ffffffffffffffff8211156117d8576117d76116dc565b5b6117e18261101b565b9050602081019050919050565b60006118016117fc846117bd565b611798565b90508281526020810184848401111561181d5761181c6117b8565b5b61182884828561100c565b509392505050565b600082601f83011261184557611844610ca2565b5b81356118558482602086016117ee565b91505092915050565b600067ffffffffffffffff821115611879576118786116dc565b5b6118828261101b565b9050602081019050919050565b60006118a261189d8461185e565b611798565b9050828152602081018484840111156118be576118bd6117b8565b5b6118c984828561100c565b509392505050565b600082601f8301126118e6576118e5610ca2565b5b81356118f684826020860161188f565b91505092915050565b600060e0828403121561191557611914611762565b5b61191f60e0611798565b9050600082013567ffffffffffffffff81111561193f5761193e6117b3565b5b61194b84828501611830565b600083015250602061195f848285016111af565b602083015250604082013567ffffffffffffffff811115611983576119826117b3565b5b61198f848285016118d1565b60408301525060606119a3848285016112af565b606083015250608082013567ffffffffffffffff8111156119c7576119c66117b3565b5b6119d3848285016118d1565b60808301525060a082013567ffffffffffffffff8111156119f7576119f66117b3565b5b611a03848285016118d1565b60a08301525060c082013567ffffffffffffffff811115611a2757611a266117b3565b5b611a33848285016118d1565b60c08301525092915050565b6000611a4b36836118ff565b9050919050565b6000611a5d82610c6c565b91507fffffffffffffffffffffffffffffffffffffffffffffffffffffffffffffffff8203611a8f57611a8e611679565b5b600182019050919050565b600060208284031215611ab057611aaf610c1f565b5b6000611abe848285016112af565b91505092915050565b600081519050919050565b6000819050602082019050919050565b600081519050919050565b6000611af882611ae2565b611b0281856110ef565b9350611b12818560208601611512565b611b1b8161101b565b840191505092915050565b6000611b31826114f6565b611b3b818561124d565b9350611b4b818560208601611512565b611b548161101b565b840191505092915050565b600060e0830160008301518482036000860152611b7c8282611aed565b9150506020830151611b9160208601826111db565b5060408301518482036040860152611ba98282611b26565b9150506060830151611bbe60608601826112db565b5060808301518482036080860152611bd68282611b26565b91505060a083015184820360a0860152611bf08282611b26565b91505060c083015184820360c0860152611c0a8282611b26565b9150508091505092915050565b6000611c238383611b5f565b905092915050565b6000602082019050919050565b6000611c4382611ac7565b611c4d8185611194565b935083602082028501611c5f85611ad2565b8060005b85811015611c9b5784840389528151611c7c8582611c17565b9450611c8783611c2b565b925060208a01995050600181019050611c63565b50829750879550505050505092915050565b60006080820190508181036000830152611cc7818761112d565b9050611cd66020830186610df9565b611ce36040830185611185565b8181036060830152611cf58184611c38565b90509594505050505056fea2646970667358221220f20d7b4180484f818434db60c48a675cdf5131c1a9d44edea6744b87bdcde42b64736f6c63430008110033",
  "linkReferences": {},
  "deployedLinkReferences": {}
}