{
  "_format": "hh-sol-artifact-1",
  "contractName": "FrameDynamic",
  "sourceName": "src/contracts/FrameDynamic.sol",
  "abi": [
    {
      "inputs": [],
      "stateMutability": "nonpayable",
      "type": "constructor"
    },
    {
      "inputs": [],
      "name": "depsCount",
      "outputs": [
        {
          "internalType": "uint256",
          "name": "",
          "type": "uint256"
        }
      ],
      "stateMutability": "view",
      "type": "function"
    },
    {
      "inputs": [
        {
          "internalType": "uint256",
          "name": "",
          "type": "uint256"
        }
      ],
      "name": "depsList",
      "outputs": [
        {
          "internalType": "string",
          "name": "wrapperKey",
          "type": "string"
        },
        {
          "internalType": "string",
          "name": "key",
          "type": "string"
        },
        {
          "internalType": "address",
          "name": "wrapperStore",
          "type": "address"
        },
        {
          "internalType": "address",
          "name": "store",
          "type": "address"
        }
      ],
      "stateMutability": "view",
      "type": "function"
    },
    {
      "inputs": [
        {
          "components": [
            {
              "internalType": "string",
              "name": "wrapperKey",
              "type": "string"
            },
            {
              "internalType": "string",
              "name": "key",
              "type": "string"
            },
            {
              "internalType": "address",
              "name": "wrapperStore",
              "type": "address"
            },
            {
              "internalType": "address",
              "name": "store",
              "type": "address"
            }
          ],
          "internalType": "struct FrameDynamic.Asset[]",
          "name": "_deps",
          "type": "tuple[]"
        },
        {
          "internalType": "address",
          "name": "_sourceStore",
          "type": "address"
        },
        {
          "internalType": "address",
          "name": "_pageWrapStore",
          "type": "address"
        },
        {
          "internalType": "uint256[4][]",
          "name": "_renderMap",
          "type": "uint256[4][]"
        }
      ],
      "name": "init",
      "outputs": [],
      "stateMutability": "nonpayable",
      "type": "function"
    },
    {
      "inputs": [],
      "name": "initSuccess",
      "outputs": [
        {
          "internalType": "bool",
          "name": "",
          "type": "bool"
        }
      ],
      "stateMutability": "view",
      "type": "function"
    },
    {
      "inputs": [],
      "name": "name",
      "outputs": [
        {
          "internalType": "string",
          "name": "",
          "type": "string"
        }
      ],
      "stateMutability": "view",
      "type": "function"
    },
    {
      "inputs": [],
      "name": "pageWrapStore",
      "outputs": [
        {
          "internalType": "contract IFrameDataStore",
          "name": "",
          "type": "address"
        }
      ],
      "stateMutability": "view",
      "type": "function"
    },
    {
      "inputs": [
        {
          "internalType": "uint256",
          "name": "",
          "type": "uint256"
        },
        {
          "internalType": "uint256",
          "name": "",
          "type": "uint256"
        }
      ],
      "name": "renderMap",
      "outputs": [
        {
          "internalType": "uint256",
          "name": "",
          "type": "uint256"
        }
      ],
      "stateMutability": "view",
      "type": "function"
    },
    {
      "inputs": [
        {
          "internalType": "uint256",
          "name": "_rpage",
          "type": "uint256"
        }
      ],
      "name": "renderPage",
      "outputs": [
        {
          "internalType": "string",
          "name": "",
          "type": "string"
        }
      ],
      "stateMutability": "view",
      "type": "function"
    },
    {
      "inputs": [],
      "name": "renderPagesCount",
      "outputs": [
        {
          "internalType": "uint256",
          "name": "",
          "type": "uint256"
        }
      ],
      "stateMutability": "view",
      "type": "function"
    },
    {
      "inputs": [
        {
          "internalType": "string",
          "name": "_name",
          "type": "string"
        }
      ],
      "name": "setName",
      "outputs": [],
      "stateMutability": "nonpayable",
      "type": "function"
    },
    {
      "inputs": [],
      "name": "sourceStore",
      "outputs": [
        {
          "internalType": "contract IFrameDataStore",
          "name": "",
          "type": "address"
        }
      ],
      "stateMutability": "view",
      "type": "function"
    }
  ],
  "bytecode": "0x608060405260405180602001604052806000815250600090805190602001906200002b9291906200005b565b506000600160006101000a81548160ff0219169083151502179055503480156200005457600080fd5b5062000170565b82805462000069906200013a565b90600052602060002090601f0160209004810192826200008d5760008555620000d9565b82601f10620000a857805160ff1916838001178555620000d9565b82800160010185558215620000d9579182015b82811115620000d8578251825591602001919060010190620000bb565b5b509050620000e89190620000ec565b5090565b5b8082111562000107576000816000905550600101620000ed565b5090565b7f4e487b7100000000000000000000000000000000000000000000000000000000600052602260045260246000fd5b600060028204905060018216806200015357607f821691505b602082108114156200016a57620001696200010b565b5b50919050565b61347180620001806000396000f3fe608060405234801561001057600080fd5b50600436106100a95760003560e01c80638b465a84116100715780638b465a8414610156578063b5d40c0514610174578063bbb69b96146101a7578063c0f2cc89146101c3578063c47f0027146101f3578063c55c85671461020f576100a9565b806306fdde03146100ae5780631b68226f146100cc5780636bd40805146100ea5780637556d1b914610108578063827fbc2b14610138575b600080fd5b6100b661022d565b6040516100c39190611f97565b60405180910390f35b6100d46102bb565b6040516100e19190611fd2565b60405180910390f35b6100f26102c1565b6040516100ff9190611fd2565b60405180910390f35b610122600480360381019061011d919061202d565b6102c7565b60405161012f9190611f97565b60405180910390f35b610140611617565b60405161014d9190612075565b60405180910390f35b61015e61162a565b60405161016b919061210f565b60405180910390f35b61018e6004803603810190610189919061202d565b611650565b60405161019e949392919061214b565b60405180910390f35b6101c160048036038101906101bc9190612285565b6117d0565b005b6101dd60048036038101906101d8919061232c565b6118d8565b6040516101ea9190611fd2565b60405180910390f35b61020d6004803603810190610208919061249c565b611900565b005b61021761196b565b604051610224919061210f565b60405180910390f35b6000805461023a90612514565b80601f016020809104026020016040519081016040528092919081815260200182805461026690612514565b80156102b35780601f10610288576101008083540402835291602001916102b3565b820191906000526020600020905b81548152906001019060200180831161029657829003601f168201915b505050505081565b60035481565b60065481565b6060600060076000848152602001908152602001600020600480602002604051908101604052809291908260048015610315576020028201915b815481526020019060010190808311610301575b5050505050905060008160006004811061033257610331612546565b5b6020020151905060008260016004811061034f5761034e612546565b5b6020020151905060008360026004811061036c5761036b612546565b5b6020020151905060008460036004811061038957610388612546565b5b60200201519050600060405180602001604052806000815250905060008590505b6001856103b791906125a4565b8110156112d1576000600260008381526020019081526020016000206040518060800160405290816000820180546103ee90612514565b80601f016020809104026020016040519081016040528092919081815260200182805461041a90612514565b80156104675780601f1061043c57610100808354040283529160200191610467565b820191906000526020600020905b81548152906001019060200180831161044a57829003601f168201915b5050505050815260200160018201805461048090612514565b80601f01602080910402602001604051908101604052809291908181526020018280546104ac90612514565b80156104f95780601f106104ce576101008083540402835291602001916104f9565b820191906000526020600020905b8154815290600101906020018083116104dc57829003601f168201915b505050505081526020016002820160009054906101000a900473ffffffffffffffffffffffffffffffffffffffff1673ffffffffffffffffffffffffffffffffffffffff1673ffffffffffffffffffffffffffffffffffffffff1681526020016003820160009054906101000a900473ffffffffffffffffffffffffffffffffffffffff1673ffffffffffffffffffffffffffffffffffffffff1673ffffffffffffffffffffffffffffffffffffffff168152505090506000816060015190506000826040015190506000888514905060008a86146105d95760006105db565b885b9050600082610667578473ffffffffffffffffffffffffffffffffffffffff1663d431a42f87602001516040518263ffffffff1660e01b81526004016106219190611f97565b602060405180830381865afa15801561063e573d6000803e3d6000fd5b505050506040513d601f19601f82011682018060405250810190610662919061260f565b610669565b885b9050600061067a8686898686611991565b9050888160405160200161068f929190612678565b60405160208183030381529060405298506000600560009054906101000a900473ffffffffffffffffffffffffffffffffffffffff16905060008173ffffffffffffffffffffffffffffffffffffffff16896060015173ffffffffffffffffffffffffffffffffffffffff161415801561077657508173ffffffffffffffffffffffffffffffffffffffff166002600060018d61072c91906125a4565b815260200190815260200160002060030160009054906101000a900473ffffffffffffffffffffffffffffffffffffffff1673ffffffffffffffffffffffffffffffffffffffff16145b905060008873ffffffffffffffffffffffffffffffffffffffff1663d431a42f8b602001516040518263ffffffff1660e01b81526004016107b79190611f97565b602060405180830381865afa1580156107d4573d6000803e3d6000fd5b505050506040513d601f19601f820116820180604052508101906107f8919061260f565b8514905060006108b16002600060018f61081291906125a4565b8152602001908152602001600020600001805461082e90612514565b80601f016020809104026020016040519081016040528092919081815260200182805461085a90612514565b80156108a75780601f1061087c576101008083540402835291602001916108a7565b820191906000526020600020905b81548152906001019060200180831161088a57829003601f168201915b5050505050611c80565b90506108f66040518060400160405280601181526020017f6236342d777261702e6a7340312e302e300000000000000000000000000000008152508c60000151611cc8565b80156108ff5750815b15610ed0578215610a96578c600460009054906101000a900473ffffffffffffffffffffffffffffffffffffffff1673ffffffffffffffffffffffffffffffffffffffff166311aa4cba6001806040518363ffffffff1660e01b8152600401610969929190612723565b600060405180830381865afa158015610986573d6000803e3d6000fd5b505050506040513d6000823e3d601f19601f820116820180604052508101906109af9190612800565b600460009054906101000a900473ffffffffffffffffffffffffffffffffffffffff1673ffffffffffffffffffffffffffffffffffffffff166311aa4cba6000806040518363ffffffff1660e01b8152600401610a0d9291906128d0565b600060405180830381865afa158015610a2a573d6000803e3d6000fd5b505050506040513d6000823e3d601f19601f82011682018060405250810190610a539190612800565b604051602001610a64929190612953565b604051602081830303815290604052604051602001610a84929190612678565b6040516020818303038152906040529c505b8015610ecf576000600460009054906101000a900473ffffffffffffffffffffffffffffffffffffffff1673ffffffffffffffffffffffffffffffffffffffff166311aa4cba6000806040518363ffffffff1660e01b8152600401610afc9291906129c3565b600060405180830381865afa158015610b19573d6000803e3d6000fd5b505050506040513d6000823e3d601f19601f82011682018060405250810190610b429190612800565b604051602001610b5291906129ff565b604051602081830303815290604052905060005b600354811015610cdf57610c17600260008381526020019081526020016000206000018054610b9490612514565b80601f0160208091040260200160405190810160405280929190818152602001828054610bc090612514565b8015610c0d5780601f10610be257610100808354040283529160200191610c0d565b820191906000526020600020905b815481529060010190602001808311610bf057829003601f168201915b5050505050611c80565b15610ccc5781604051602001610c2d9190612a3c565b60405160208183030381529060405260026000838152602001908152602001600020600101604051602001610c629190612af6565b604051602081830303815290604052604051602001610c82929190612678565b60405160208183030381529060405291506001600354610ca29190612b1c565b8114610ccb5781604051602001610cb99190612b76565b60405160208183030381529060405291505b5b8080610cd790612b9c565b915050610b66565b5080600460009054906101000a900473ffffffffffffffffffffffffffffffffffffffff1673ffffffffffffffffffffffffffffffffffffffff166311aa4cba6001806040518363ffffffff1660e01b8152600401610d3f929190612be5565b600060405180830381865afa158015610d5c573d6000803e3d6000fd5b505050506040513d6000823e3d601f19601f82011682018060405250810190610d859190612800565b604051602001610d9591906129ff565b604051602081830303815290604052604051602001610db5929190612678565b604051602081830303815290604052600460009054906101000a900473ffffffffffffffffffffffffffffffffffffffff1673ffffffffffffffffffffffffffffffffffffffff166311aa4cba6000806040518363ffffffff1660e01b8152600401610e22929190612c6d565b600060405180830381865afa158015610e3f573d6000803e3d6000fd5b505050506040513d6000823e3d601f19601f82011682018060405250810190610e689190612800565b604051602001610e7891906129ff565b604051602081830303815290604052604051602001610e98929190612678565b60405160208183030381529060405290508d81604051602001610ebc929190612678565b6040516020818303038152906040529d50505b5b828015610eda5750815b156112b357610eec8b60000151611c80565b15611126578c600460009054906101000a900473ffffffffffffffffffffffffffffffffffffffff1673ffffffffffffffffffffffffffffffffffffffff166311aa4cba6001806040518363ffffffff1660e01b8152600401610f50929190612ca9565b600060405180830381865afa158015610f6d573d6000803e3d6000fd5b505050506040513d6000823e3d601f19601f82011682018060405250810190610f969190612800565b600460009054906101000a900473ffffffffffffffffffffffffffffffffffffffff1673ffffffffffffffffffffffffffffffffffffffff166311aa4cba6001806040518363ffffffff1660e01b8152600401610ff4929190612723565b600060405180830381865afa158015611011573d6000803e3d6000fd5b505050506040513d6000823e3d601f19601f8201168201806040525081019061103a9190612800565b600460009054906101000a900473ffffffffffffffffffffffffffffffffffffffff1673ffffffffffffffffffffffffffffffffffffffff166311aa4cba6000806040518363ffffffff1660e01b81526004016110989291906128d0565b600060405180830381865afa1580156110b5573d6000803e3d6000fd5b505050506040513d6000823e3d601f19601f820116820180604052508101906110de9190612800565b6040516020016110f093929190612ce5565b604051602081830303815290604052604051602001611110929190612678565b6040516020818303038152906040529c506112b2565b8c600460009054906101000a900473ffffffffffffffffffffffffffffffffffffffff1673ffffffffffffffffffffffffffffffffffffffff166311aa4cba6001806040518363ffffffff1660e01b8152600401611185929190612723565b600060405180830381865afa1580156111a2573d6000803e3d6000fd5b505050506040513d6000823e3d601f19601f820116820180604052508101906111cb9190612800565b600460009054906101000a900473ffffffffffffffffffffffffffffffffffffffff1673ffffffffffffffffffffffffffffffffffffffff166311aa4cba6000806040518363ffffffff1660e01b81526004016112299291906128d0565b600060405180830381865afa158015611246573d6000803e3d6000fd5b505050506040513d6000823e3d601f19601f8201168201806040525081019061126f9190612800565b604051602001611280929190612953565b6040516020818303038152906040526040516020016112a0929190612678565b6040516020818303038152906040529c505b5b505050505050505050505080806112c990612b9c565b9150506103aa565b50600088141561146757600460009054906101000a900473ffffffffffffffffffffffffffffffffffffffff1673ffffffffffffffffffffffffffffffffffffffff166311aa4cba6000806040518363ffffffff1660e01b8152600401611339929190612d62565b600060405180830381865afa158015611356573d6000803e3d6000fd5b505050506040513d6000823e3d601f19601f8201168201806040525081019061137f9190612800565b600460009054906101000a900473ffffffffffffffffffffffffffffffffffffffff1673ffffffffffffffffffffffffffffffffffffffff166311aa4cba6000806040518363ffffffff1660e01b81526004016113dd929190612d9e565b600060405180830381865afa1580156113fa573d6000803e3d6000fd5b505050506040513d6000823e3d601f19601f820116820180604052508101906114239190612800565b604051602001611434929190612953565b60405160208183030381529060405281604051602001611455929190612678565b60405160208183030381529060405290505b60016006546114769190612b1c565b8814156116095780600460009054906101000a900473ffffffffffffffffffffffffffffffffffffffff1673ffffffffffffffffffffffffffffffffffffffff166311aa4cba6001806040518363ffffffff1660e01b81526004016114dc929190612dda565b600060405180830381865afa1580156114f9573d6000803e3d6000fd5b505050506040513d6000823e3d601f19601f820116820180604052508101906115229190612800565b600460009054906101000a900473ffffffffffffffffffffffffffffffffffffffff1673ffffffffffffffffffffffffffffffffffffffff166311aa4cba6001806040518363ffffffff1660e01b8152600401611580929190612e16565b600060405180830381865afa15801561159d573d6000803e3d6000fd5b505050506040513d6000823e3d601f19601f820116820180604052508101906115c69190612800565b6040516020016115d7929190612953565b6040516020818303038152906040526040516020016115f7929190612678565b60405160208183030381529060405290505b809650505050505050919050565b600160009054906101000a900460ff1681565b600460009054906101000a900473ffffffffffffffffffffffffffffffffffffffff1681565b600260205280600052604060002060009150905080600001805461167390612514565b80601f016020809104026020016040519081016040528092919081815260200182805461169f90612514565b80156116ec5780601f106116c1576101008083540402835291602001916116ec565b820191906000526020600020905b8154815290600101906020018083116116cf57829003601f168201915b50505050509080600101805461170190612514565b80601f016020809104026020016040519081016040528092919081815260200182805461172d90612514565b801561177a5780601f1061174f5761010080835404028352916020019161177a565b820191906000526020600020905b81548152906001019060200180831161175d57829003601f168201915b5050505050908060020160009054906101000a900473ffffffffffffffffffffffffffffffffffffffff16908060030160009054906101000a900473ffffffffffffffffffffffffffffffffffffffff16905084565b600160009054906101000a900460ff1615611820576040517f08c379a000000000000000000000000000000000000000000000000000000000815260040161181790612e9e565b60405180910390fd5b61182a8686611d21565b6118348282611d98565b83600560006101000a81548173ffffffffffffffffffffffffffffffffffffffff021916908373ffffffffffffffffffffffffffffffffffffffff16021790555082600460006101000a81548173ffffffffffffffffffffffffffffffffffffffff021916908373ffffffffffffffffffffffffffffffffffffffff16021790555060018060006101000a81548160ff021916908315150217905550505050505050565b600760205281600052604060002081600481106118f457600080fd5b01600091509150505481565b60036000805461190f90612514565b905010611951576040517f08c379a000000000000000000000000000000000000000000000000000000000815260040161194890612f0a565b60405180910390fd5b8060009080519060200190611967929190611e1b565b5050565b600560009054906101000a900473ffffffffffffffffffffffffffffffffffffffff1681565b606060006040518060200160405280600081525090506000841415611a5a578573ffffffffffffffffffffffffffffffffffffffff166311aa4cba86600001516000806040518463ffffffff1660e01b81526004016119f293929190612f2a565b600060405180830381865afa158015611a0f573d6000803e3d6000fd5b505050506040513d6000823e3d601f19601f82011682018060405250810190611a389190612800565b604051602001611a4891906129ff565b60405160208183030381529060405290505b808773ffffffffffffffffffffffffffffffffffffffff166311aa4cba876020015187876040518463ffffffff1660e01b8152600401611a9c93929190612f68565b600060405180830381865afa158015611ab9573d6000803e3d6000fd5b505050506040513d6000823e3d601f19601f82011682018060405250810190611ae29190612800565b604051602001611af291906129ff565b604051602081830303815290604052604051602001611b12929190612678565b60405160208183030381529060405290508673ffffffffffffffffffffffffffffffffffffffff1663d431a42f86602001516040518263ffffffff1660e01b8152600401611b609190611f97565b602060405180830381865afa158015611b7d573d6000803e3d6000fd5b505050506040513d601f19601f82011682018060405250810190611ba1919061260f565b831415611c7357808673ffffffffffffffffffffffffffffffffffffffff166311aa4cba87600001516001806040518463ffffffff1660e01b8152600401611beb93929190612fa6565b600060405180830381865afa158015611c08573d6000803e3d6000fd5b505050506040513d6000823e3d601f19601f82011682018060405250810190611c319190612800565b604051602001611c4191906129ff565b604051602081830303815290604052604051602001611c61929190612678565b60405160208183030381529060405290505b8091505095945050505050565b6000611cc1826040518060400160405280601e81526020017f6236342d677a2d696d706f72746d61702d777261702e6a7340312e302e300000815250611cc8565b9050919050565b600081604051602001611cdb9190612fe4565b6040516020818303038152906040528051906020012083604051602001611d029190612fe4565b6040516020818303038152906040528051906020012014905092915050565b60005b82829050811015611d8957828282818110611d4257611d41612546565b5b9050602002810190611d54919061300a565b600260008381526020019081526020016000208181611d73919061342d565b9050508080611d8190612b9c565b915050611d24565b50818190506003819055505050565b60005b82829050811015611e0c5760066000815480929190611db990612b9c565b9190505550828282818110611dd157611dd0612546565b5b90506080020160076000838152602001908152602001600020906004611df8929190611ea1565b508080611e0490612b9c565b915050611d9b565b50818190506006819055505050565b828054611e2790612514565b90600052602060002090601f016020900481019282611e495760008555611e90565b82601f10611e6257805160ff1916838001178555611e90565b82800160010185558215611e90579182015b82811115611e8f578251825591602001919060010190611e74565b5b509050611e9d9190611ee1565b5090565b8260048101928215611ed0579160200282015b82811115611ecf578235825591602001919060010190611eb4565b5b509050611edd9190611ee1565b5090565b5b80821115611efa576000816000905550600101611ee2565b5090565b600081519050919050565b600082825260208201905092915050565b60005b83811015611f38578082015181840152602081019050611f1d565b83811115611f47576000848401525b50505050565b6000601f19601f8301169050919050565b6000611f6982611efe565b611f738185611f09565b9350611f83818560208601611f1a565b611f8c81611f4d565b840191505092915050565b60006020820190508181036000830152611fb18184611f5e565b905092915050565b6000819050919050565b611fcc81611fb9565b82525050565b6000602082019050611fe76000830184611fc3565b92915050565b6000604051905090565b600080fd5b600080fd5b61200a81611fb9565b811461201557600080fd5b50565b60008135905061202781612001565b92915050565b60006020828403121561204357612042611ff7565b5b600061205184828501612018565b91505092915050565b60008115159050919050565b61206f8161205a565b82525050565b600060208201905061208a6000830184612066565b92915050565b600073ffffffffffffffffffffffffffffffffffffffff82169050919050565b6000819050919050565b60006120d56120d06120cb84612090565b6120b0565b612090565b9050919050565b60006120e7826120ba565b9050919050565b60006120f9826120dc565b9050919050565b612109816120ee565b82525050565b60006020820190506121246000830184612100565b92915050565b600061213582612090565b9050919050565b6121458161212a565b82525050565b600060808201905081810360008301526121658187611f5e565b905081810360208301526121798186611f5e565b9050612188604083018561213c565b612195606083018461213c565b95945050505050565b600080fd5b600080fd5b600080fd5b60008083601f8401126121c3576121c261219e565b5b8235905067ffffffffffffffff8111156121e0576121df6121a3565b5b6020830191508360208202830111156121fc576121fb6121a8565b5b9250929050565b61220c8161212a565b811461221757600080fd5b50565b60008135905061222981612203565b92915050565b60008083601f8401126122455761224461219e565b5b8235905067ffffffffffffffff811115612262576122616121a3565b5b60208301915083608082028301111561227e5761227d6121a8565b5b9250929050565b600080600080600080608087890312156122a2576122a1611ff7565b5b600087013567ffffffffffffffff8111156122c0576122bf611ffc565b5b6122cc89828a016121ad565b965096505060206122df89828a0161221a565b94505060406122f089828a0161221a565b935050606087013567ffffffffffffffff81111561231157612310611ffc565b5b61231d89828a0161222f565b92509250509295509295509295565b6000806040838503121561234357612342611ff7565b5b600061235185828601612018565b925050602061236285828601612018565b9150509250929050565b600080fd5b7f4e487b7100000000000000000000000000000000000000000000000000000000600052604160045260246000fd5b6123a982611f4d565b810181811067ffffffffffffffff821117156123c8576123c7612371565b5b80604052505050565b60006123db611fed565b90506123e782826123a0565b919050565b600067ffffffffffffffff82111561240757612406612371565b5b61241082611f4d565b9050602081019050919050565b82818337600083830152505050565b600061243f61243a846123ec565b6123d1565b90508281526020810184848401111561245b5761245a61236c565b5b61246684828561241d565b509392505050565b600082601f8301126124835761248261219e565b5b813561249384826020860161242c565b91505092915050565b6000602082840312156124b2576124b1611ff7565b5b600082013567ffffffffffffffff8111156124d0576124cf611ffc565b5b6124dc8482850161246e565b91505092915050565b7f4e487b7100000000000000000000000000000000000000000000000000000000600052602260045260246000fd5b6000600282049050600182168061252c57607f821691505b602082108114156125405761253f6124e5565b5b50919050565b7f4e487b7100000000000000000000000000000000000000000000000000000000600052603260045260246000fd5b7f4e487b7100000000000000000000000000000000000000000000000000000000600052601160045260246000fd5b60006125af82611fb9565b91506125ba83611fb9565b9250827fffffffffffffffffffffffffffffffffffffffffffffffffffffffffffffffff038211156125ef576125ee612575565b5b828201905092915050565b60008151905061260981612001565b92915050565b60006020828403121561262557612624611ff7565b5b6000612633848285016125fa565b91505092915050565b600081905092915050565b600061265282611efe565b61265c818561263c565b935061266c818560208601611f1a565b80840191505092915050565b60006126848285612647565b91506126908284612647565b91508190509392505050565b7f686561642d777261702e68746d6c40312e302e30000000000000000000000000600082015250565b60006126d2601483611f09565b91506126dd8261269c565b602082019050919050565b6000819050919050565b600061270d612708612703846126e8565b6120b0565b611fb9565b9050919050565b61271d816126f2565b82525050565b6000606082019050818103600083015261273c816126c5565b905061274b6020830185612714565b6127586040830184612714565b9392505050565b600067ffffffffffffffff82111561277a57612779612371565b5b61278382611f4d565b9050602081019050919050565b60006127a361279e8461275f565b6123d1565b9050828152602081018484840111156127bf576127be61236c565b5b6127ca848285611f1a565b509392505050565b600082601f8301126127e7576127e661219e565b5b81516127f7848260208601612790565b91505092915050565b60006020828403121561281657612815611ff7565b5b600082015167ffffffffffffffff81111561283457612833611ffc565b5b612840848285016127d2565b91505092915050565b7f626f64792d777261702e68746d6c40312e302e30000000000000000000000000600082015250565b600061287f601483611f09565b915061288a82612849565b602082019050919050565b6000819050919050565b60006128ba6128b56128b084612895565b6120b0565b611fb9565b9050919050565b6128ca8161289f565b82525050565b600060608201905081810360008301526128e981612872565b90506128f860208301856128c1565b61290560408301846128c1565b9392505050565b600081519050919050565b600081905092915050565b600061292d8261290c565b6129378185612917565b9350612947818560208601611f1a565b80840191505092915050565b600061295f8285612922565b915061296b8284612922565b91508190509392505050565b7f696d706f72742d6b6579732d777261702e6a7340312e302e3000000000000000600082015250565b60006129ad601983611f09565b91506129b882612977565b602082019050919050565b600060608201905081810360008301526129dc816129a0565b90506129eb60208301856128c1565b6129f860408301846128c1565b9392505050565b6000612a0b8284612922565b915081905092915050565b7f2200000000000000000000000000000000000000000000000000000000000000815250565b6000612a488284612647565b9150612a5382612a16565b60018201915081905092915050565b60008190508160005260206000209050919050565b60008154612a8481612514565b612a8e818661263c565b94506001821660008114612aa95760018114612aba57612aed565b60ff19831686528186019350612aed565b612ac385612a62565b60005b83811015612ae557815481890152600182019150602081019050612ac6565b838801955050505b50505092915050565b6000612b028284612a77565b9150612b0d82612a16565b60018201915081905092915050565b6000612b2782611fb9565b9150612b3283611fb9565b925082821015612b4557612b44612575565b5b828203905092915050565b7f2c00000000000000000000000000000000000000000000000000000000000000815250565b6000612b828284612647565b9150612b8d82612b50565b60018201915081905092915050565b6000612ba782611fb9565b91507fffffffffffffffffffffffffffffffffffffffffffffffffffffffffffffffff821415612bda57612bd9612575565b5b600182019050919050565b60006060820190508181036000830152612bfe816129a0565b9050612c0d6020830185612714565b612c1a6040830184612714565b9392505050565b7f696d706f72746d61702d696e69742d777261702e6a7340322e302e3000000000600082015250565b6000612c57601c83611f09565b9150612c6282612c21565b602082019050919050565b60006060820190508181036000830152612c8681612c4a565b9050612c9560208301856128c1565b612ca260408301846128c1565b9392505050565b60006060820190508181036000830152612cc281612c4a565b9050612cd16020830185612714565b612cde6040830184612714565b9392505050565b6000612cf18286612922565b9150612cfd8285612922565b9150612d098284612922565b9150819050949350505050565b7f68746d6c2d777261702e68746d6c40312e302e30000000000000000000000000600082015250565b6000612d4c601483611f09565b9150612d5782612d16565b602082019050919050565b60006060820190508181036000830152612d7b81612d3f565b9050612d8a60208301856128c1565b612d9760408301846128c1565b9392505050565b60006060820190508181036000830152612db7816126c5565b9050612dc660208301856128c1565b612dd360408301846128c1565b9392505050565b60006060820190508181036000830152612df381612872565b9050612e026020830185612714565b612e0f6040830184612714565b9392505050565b60006060820190508181036000830152612e2f81612d3f565b9050612e3e6020830185612714565b612e4b6040830184612714565b9392505050565b7f4672616d653a2043616e27742072652d696e697420636f6e7472616374000000600082015250565b6000612e88601d83611f09565b9150612e9382612e52565b602082019050919050565b60006020820190508181036000830152612eb781612e7b565b9050919050565b7f4672616d653a204e616d6520616c726561647920736574000000000000000000600082015250565b6000612ef4601783611f09565b9150612eff82612ebe565b602082019050919050565b60006020820190508181036000830152612f2381612ee7565b9050919050565b60006060820190508181036000830152612f448186611f5e565b9050612f5360208301856128c1565b612f6060408301846128c1565b949350505050565b60006060820190508181036000830152612f828186611f5e565b9050612f916020830185611fc3565b612f9e6040830184611fc3565b949350505050565b60006060820190508181036000830152612fc08186611f5e565b9050612fcf6020830185612714565b612fdc6040830184612714565b949350505050565b6000612ff08284612647565b915081905092915050565b600080fd5b600080fd5b600080fd5b60008235600160800383360303811261302657613025612ffb565b5b80830191505092915050565b6000808335600160200384360303811261304f5761304e612ffb565b5b80840192508235915067ffffffffffffffff82111561307157613070613000565b5b60208301925060018202360383131561308d5761308c613005565b5b509250929050565b600082905092915050565b60006020601f8301049050919050565b600082821b905092915050565b6000600883026130ed7fffffffffffffffffffffffffffffffffffffffffffffffffffffffffffffffff826130b0565b6130f786836130b0565b95508019841693508086168417925050509392505050565b600061312a61312561312084611fb9565b6120b0565b611fb9565b9050919050565b6000819050919050565b6131448361310f565b61315861315082613131565b8484546130bd565b825550505050565b600090565b61316d613160565b61317881848461313b565b505050565b5b8181101561319c57613191600082613165565b60018101905061317e565b5050565b601f8211156131e1576131b281612a62565b6131bb846130a0565b810160208510156131ca578190505b6131de6131d6856130a0565b83018261317d565b50505b505050565b600082821c905092915050565b6000613204600019846008026131e6565b1980831691505092915050565b600061321d83836131f3565b9150826002028217905092915050565b6132378383613095565b67ffffffffffffffff8111156132505761324f612371565b5b61325a8254612514565b6132658282856131a0565b6000601f8311600181146132945760008415613282578287013590505b61328c8582613211565b8655506132f4565b601f1984166132a286612a62565b60005b828110156132ca578489013582556001820191506020850194506020810190506132a5565b868310156132e757848901356132e3601f8916826131f3565b8355505b6001600288020188555050505b50505050505050565b61330883838361322d565b505050565b6000813561331a81612203565b80915050919050565b60008160001b9050919050565b600073ffffffffffffffffffffffffffffffffffffffff61335084613323565b9350801983169250808416831791505092915050565b6000613371826120dc565b9050919050565b6000819050919050565b61338b82613366565b61339e61339782613378565b8354613330565b8255505050565b60008101600083016133b78185613032565b6133c28183866132fd565b5050505060018101602083016133d88185613032565b6133e38183866132fd565b505050506002810160408301806133f98161330d565b90506134058184613382565b50505060038101606083018061341a8161330d565b90506134268184613382565b5050505050565b61343782826133a5565b505056fea2646970667358221220072f898d324966baacc2913f8cc4f0311b86bb9465d0132ca43f4d6f7010542464736f6c634300080c0033",
  "linkReferences": {},
  "deployedLinkReferences": {}
}