{
  "_format": "hh-sol-artifact-1",
  "contractName": "FrameDataStoreOwnable",
  "sourceName": "src/contracts/FrameDataStoreOwnable.sol",
  "abi": [
    {
      "inputs": [],
      "stateMutability": "nonpayable",
      "type": "constructor"
    },
    {
      "anonymous": false,
      "inputs": [
        {
          "indexed": true,
          "internalType": "address",
          "name": "previousOwner",
          "type": "address"
        },
        {
          "indexed": true,
          "internalType": "address",
          "name": "newOwner",
          "type": "address"
        }
      ],
      "name": "OwnershipTransferred",
      "type": "event"
    },
    {
      "inputs": [
        {
          "internalType": "string",
          "name": "_key",
          "type": "string"
        },
        {
          "internalType": "uint256",
          "name": "_startPage",
          "type": "uint256"
        }
      ],
      "name": "getAllDataFromPage",
      "outputs": [
        {
          "internalType": "bytes",
          "name": "",
          "type": "bytes"
        }
      ],
      "stateMutability": "view",
      "type": "function"
    },
    {
      "inputs": [
        {
          "internalType": "string",
          "name": "_key",
          "type": "string"
        },
        {
          "internalType": "uint256",
          "name": "_startPage",
          "type": "uint256"
        },
        {
          "internalType": "uint256",
          "name": "_endPage",
          "type": "uint256"
        }
      ],
      "name": "getData",
      "outputs": [
        {
          "internalType": "bytes",
          "name": "",
          "type": "bytes"
        }
      ],
      "stateMutability": "view",
      "type": "function"
    },
    {
      "inputs": [
        {
          "internalType": "string",
          "name": "_key",
          "type": "string"
        }
      ],
      "name": "getMaxPageNumber",
      "outputs": [
        {
          "internalType": "uint256",
          "name": "",
          "type": "uint256"
        }
      ],
      "stateMutability": "view",
      "type": "function"
    },
    {
      "inputs": [
        {
          "internalType": "string",
          "name": "_key",
          "type": "string"
        },
        {
          "internalType": "uint256",
          "name": "_startPage",
          "type": "uint256"
        },
        {
          "internalType": "uint256",
          "name": "_endPage",
          "type": "uint256"
        }
      ],
      "name": "getSizeBetweenPages",
      "outputs": [
        {
          "internalType": "uint256",
          "name": "",
          "type": "uint256"
        }
      ],
      "stateMutability": "view",
      "type": "function"
    },
    {
      "inputs": [
        {
          "internalType": "string",
          "name": "_key",
          "type": "string"
        }
      ],
      "name": "hasKey",
      "outputs": [
        {
          "internalType": "bool",
          "name": "",
          "type": "bool"
        }
      ],
      "stateMutability": "view",
      "type": "function"
    },
    {
      "inputs": [],
      "name": "isLocked",
      "outputs": [
        {
          "internalType": "bool",
          "name": "",
          "type": "bool"
        }
      ],
      "stateMutability": "view",
      "type": "function"
    },
    {
      "inputs": [],
      "name": "lock",
      "outputs": [],
      "stateMutability": "nonpayable",
      "type": "function"
    },
    {
      "inputs": [],
      "name": "name",
      "outputs": [
        {
          "internalType": "string",
          "name": "",
          "type": "string"
        }
      ],
      "stateMutability": "view",
      "type": "function"
    },
    {
      "inputs": [],
      "name": "owner",
      "outputs": [
        {
          "internalType": "address",
          "name": "",
          "type": "address"
        }
      ],
      "stateMutability": "view",
      "type": "function"
    },
    {
      "inputs": [],
      "name": "renounceOwnership",
      "outputs": [],
      "stateMutability": "nonpayable",
      "type": "function"
    },
    {
      "inputs": [
        {
          "internalType": "string",
          "name": "_key",
          "type": "string"
        },
        {
          "internalType": "uint128",
          "name": "_pageNumber",
          "type": "uint128"
        },
        {
          "internalType": "bytes",
          "name": "_b",
          "type": "bytes"
        }
      ],
      "name": "saveData",
      "outputs": [],
      "stateMutability": "nonpayable",
      "type": "function"
    },
    {
      "inputs": [
        {
          "internalType": "string",
          "name": "_name",
          "type": "string"
        }
      ],
      "name": "setName",
      "outputs": [],
      "stateMutability": "nonpayable",
      "type": "function"
    },
    {
      "inputs": [
        {
          "internalType": "string",
          "name": "_version",
          "type": "string"
        }
      ],
      "name": "setVersion",
      "outputs": [],
      "stateMutability": "nonpayable",
      "type": "function"
    },
    {
      "inputs": [
        {
          "internalType": "address",
          "name": "newOwner",
          "type": "address"
        }
      ],
      "name": "transferOwnership",
      "outputs": [],
      "stateMutability": "nonpayable",
      "type": "function"
    },
    {
      "inputs": [],
      "name": "version",
      "outputs": [
        {
          "internalType": "string",
          "name": "",
          "type": "string"
        }
      ],
      "stateMutability": "view",
      "type": "function"
    }
  ],
  "bytecode": "0x60806040526000600360006101000a81548160ff02191690831515021790555034801561002b57600080fd5b5061004861003d61004d60201b60201c565b61005560201b60201c565b610119565b600033905090565b60008060009054906101000a900473ffffffffffffffffffffffffffffffffffffffff169050816000806101000a81548173ffffffffffffffffffffffffffffffffffffffff021916908373ffffffffffffffffffffffffffffffffffffffff1602179055508173ffffffffffffffffffffffffffffffffffffffff168173ffffffffffffffffffffffffffffffffffffffff167f8be0079c531659141344cd1fd0a4f28419497f9722a3daafe3b4186f6b6457e060405160405180910390a35050565b611c37806101286000396000f3fe608060405234801561001057600080fd5b50600436106100f55760003560e01c8063715018a611610097578063c47f002711610066578063c47f002714610274578063d431a42f14610290578063f2fde38b146102c0578063f83d08ba146102dc576100f5565b8063715018a614610212578063788bc78c1461021c5780638da5cb5b14610238578063a4e2d63414610256576100f5565b8063332d3780116100d3578063332d3780146101785780633a04f79b146101a857806354fd4d50146101d85780636af42a8c146101f6576100f5565b806306fdde03146100fa57806311aa4cba14610118578063208a43d314610148575b600080fd5b6101026102e6565b60405161010f9190610fe9565b60405180910390f35b610132600480360381019061012d919061118a565b610374565b60405161013f919061124e565b60405180910390f35b610162600480360381019061015d919061118a565b6104fc565b60405161016f919061127f565b60405180910390f35b610192600480360381019061018d919061129a565b6105a1565b60405161019f91906112fe565b60405180910390f35b6101c260048036038101906101bd9190611319565b6105d9565b6040516101cf919061124e565b60405180910390f35b6101e0610615565b6040516101ed9190610fe9565b60405180910390f35b610210600480360381019061020b919061145e565b6106a3565b005b61021a61098a565b005b6102366004803603810190610231919061129a565b61099e565b005b610240610a09565b60405161024d919061152a565b60405180910390f35b61025e610a32565b60405161026b91906112fe565b60405180910390f35b61028e6004803603810190610289919061129a565b610a45565b005b6102aa60048036038101906102a5919061129a565b610ab0565b6040516102b7919061127f565b60405180910390f35b6102da60048036038101906102d59190611571565b610adb565b005b6102e4610b5f565b005b600480546102f3906115cd565b80601f016020809104026020016040519081016040528092919081815260200182805461031f906115cd565b801561036c5780601f106103415761010080835404028352916020019161036c565b820191906000526020600020905b81548152906001019060200180831161034f57829003601f168201915b505050505081565b606060006103838585856104fc565b905060008167ffffffffffffffff8111156103a1576103a0611029565b5b6040519080825280601f01601f1916602001820160405280156103d35781602001600182028036833780820191505090505b50905060006001876040516103e8919061163b565b90815260200160405180910390209050600085905060006020905060008890505b8281116104ec576000846002016000838152602001908152602001600020905060008160000160009054906101000a900473ffffffffffffffffffffffffffffffffffffffff16905060008260010160009054906101000a90046fffffffffffffffffffffffffffffffff166fffffffffffffffffffffffffffffffff16905060008360010160109054906101000a90046fffffffffffffffffffffffffffffffff166fffffffffffffffffffffffffffffffff1690508181878b01853c81866104d39190611681565b95505050505080806104e4906116d7565b915050610409565b5083955050505050509392505050565b60008060018560405161050f919061163b565b908152602001604051809103902090506000808590505b8481116105945782600201600082815260200190815260200160002060010160009054906101000a90046fffffffffffffffffffffffffffffffff166fffffffffffffffffffffffffffffffff168261057f9190611681565b9150808061058c906116d7565b915050610526565b5080925050509392505050565b60006001826040516105b3919061163b565b908152602001604051809103902060010160009054906101000a900460ff169050919050565b606060006001846040516105ed919061163b565b9081526020016040518091039020905061060c84848360000154610374565b91505092915050565b60058054610622906115cd565b80601f016020809104026020016040519081016040528092919081815260200182805461064e906115cd565b801561069b5780601f106106705761010080835404028352916020019161069b565b820191906000526020600020905b81548152906001019060200180831161067e57829003601f168201915b505050505081565b6106ab610bd4565b6160008151106106f0576040517f08c379a00000000000000000000000000000000000000000000000000000000081526004016106e790611792565b60405180910390fd5b6106f9836105a1565b158061072a575060018261070d91906117b2565b6fffffffffffffffffffffffffffffffff1661072884610ab0565b145b610769576040517f08c379a000000000000000000000000000000000000000000000000000000000815260040161076090611858565b60405180910390fd5b600360009054906101000a900460ff16156107b9576040517f08c379a00000000000000000000000000000000000000000000000000000000081526004016107b0906118c4565b60405180910390fd5b60006040518060400160405280600e81526020017f610000600e6000396100006000f300000000000000000000000000000000000081525090506000825160f81b9050600060088451901c60f81b9050818360028151811061081e5761081d6118e4565b5b60200101907effffffffffffffffffffffffffffffffffffffffffffffffffffffffffffff1916908160001a9053508083600181518110610862576108616118e4565b5b60200101907effffffffffffffffffffffffffffffffffffffffffffffffffffffffffffff1916908160001a9053508183600a815181106108a6576108a56118e4565b5b60200101907effffffffffffffffffffffffffffffffffffffffffffffffffffffffffffff1916908160001a90535080836009815181106108ea576108e96118e4565b5b60200101907effffffffffffffffffffffffffffffffffffffffffffffffffffffffffffff1916908160001a9053506000838560405160200161092e92919061194f565b604051602081830303815290604052905060008151602083016000f09050600081141561095f573d6000803e3d6000fd5b61098088886fffffffffffffffffffffffffffffffff168389516000610c52565b5050505050505050565b610992610bd4565b61099c6000610de1565b565b6003600580546109ad906115cd565b9050106109ef576040517f08c379a00000000000000000000000000000000000000000000000000000000081526004016109e6906119e5565b60405180910390fd5b8060059080519060200190610a05929190610ead565b5050565b60008060009054906101000a900473ffffffffffffffffffffffffffffffffffffffff16905090565b600360009054906101000a900460ff1681565b600360048054610a54906115cd565b905010610a96576040517f08c379a0000000000000000000000000000000000000000000000000000000008152600401610a8d90611a51565b60405180910390fd5b8060049080519060200190610aac929190610ead565b5050565b6000600182604051610ac2919061163b565b9081526020016040518091039020600001549050919050565b610ae3610bd4565b600073ffffffffffffffffffffffffffffffffffffffff168173ffffffffffffffffffffffffffffffffffffffff161415610b53576040517f08c379a0000000000000000000000000000000000000000000000000000000008152600401610b4a90611ae3565b60405180910390fd5b610b5c81610de1565b50565b610b67610bd4565b600360009054906101000a900460ff1615610bb7576040517f08c379a0000000000000000000000000000000000000000000000000000000008152600401610bae90611b75565b60405180910390fd5b6001600360006101000a81548160ff021916908315150217905550565b610bdc610ea5565b73ffffffffffffffffffffffffffffffffffffffff16610bfa610a09565b73ffffffffffffffffffffffffffffffffffffffff1614610c50576040517f08c379a0000000000000000000000000000000000000000000000000000000008152600401610c4790611be1565b60405180910390fd5b565b6000600186604051610c64919061163b565b908152602001604051809103902090508481600001541015610c8a578481600001819055505b60018160010160006101000a81548160ff02191690831515021790555060405180606001604052808573ffffffffffffffffffffffffffffffffffffffff168152602001846fffffffffffffffffffffffffffffffff168152602001836fffffffffffffffffffffffffffffffff1681525081600201600087815260200190815260200160002060008201518160000160006101000a81548173ffffffffffffffffffffffffffffffffffffffff021916908373ffffffffffffffffffffffffffffffffffffffff16021790555060208201518160010160006101000a8154816fffffffffffffffffffffffffffffffff02191690836fffffffffffffffffffffffffffffffff16021790555060408201518160010160106101000a8154816fffffffffffffffffffffffffffffffff02191690836fffffffffffffffffffffffffffffffff160217905550905050505050505050565b60008060009054906101000a900473ffffffffffffffffffffffffffffffffffffffff169050816000806101000a81548173ffffffffffffffffffffffffffffffffffffffff021916908373ffffffffffffffffffffffffffffffffffffffff1602179055508173ffffffffffffffffffffffffffffffffffffffff168173ffffffffffffffffffffffffffffffffffffffff167f8be0079c531659141344cd1fd0a4f28419497f9722a3daafe3b4186f6b6457e060405160405180910390a35050565b600033905090565b828054610eb9906115cd565b90600052602060002090601f016020900481019282610edb5760008555610f22565b82601f10610ef457805160ff1916838001178555610f22565b82800160010185558215610f22579182015b82811115610f21578251825591602001919060010190610f06565b5b509050610f2f9190610f33565b5090565b5b80821115610f4c576000816000905550600101610f34565b5090565b600081519050919050565b600082825260208201905092915050565b60005b83811015610f8a578082015181840152602081019050610f6f565b83811115610f99576000848401525b50505050565b6000601f19601f8301169050919050565b6000610fbb82610f50565b610fc58185610f5b565b9350610fd5818560208601610f6c565b610fde81610f9f565b840191505092915050565b600060208201905081810360008301526110038184610fb0565b905092915050565b6000604051905090565b600080fd5b600080fd5b600080fd5b600080fd5b7f4e487b7100000000000000000000000000000000000000000000000000000000600052604160045260246000fd5b61106182610f9f565b810181811067ffffffffffffffff821117156110805761107f611029565b5b80604052505050565b600061109361100b565b905061109f8282611058565b919050565b600067ffffffffffffffff8211156110bf576110be611029565b5b6110c882610f9f565b9050602081019050919050565b82818337600083830152505050565b60006110f76110f2846110a4565b611089565b90508281526020810184848401111561111357611112611024565b5b61111e8482856110d5565b509392505050565b600082601f83011261113b5761113a61101f565b5b813561114b8482602086016110e4565b91505092915050565b6000819050919050565b61116781611154565b811461117257600080fd5b50565b6000813590506111848161115e565b92915050565b6000806000606084860312156111a3576111a2611015565b5b600084013567ffffffffffffffff8111156111c1576111c061101a565b5b6111cd86828701611126565b93505060206111de86828701611175565b92505060406111ef86828701611175565b9150509250925092565b600081519050919050565b600082825260208201905092915050565b6000611220826111f9565b61122a8185611204565b935061123a818560208601610f6c565b61124381610f9f565b840191505092915050565b600060208201905081810360008301526112688184611215565b905092915050565b61127981611154565b82525050565b60006020820190506112946000830184611270565b92915050565b6000602082840312156112b0576112af611015565b5b600082013567ffffffffffffffff8111156112ce576112cd61101a565b5b6112da84828501611126565b91505092915050565b60008115159050919050565b6112f8816112e3565b82525050565b600060208201905061131360008301846112ef565b92915050565b600080604083850312156113305761132f611015565b5b600083013567ffffffffffffffff81111561134e5761134d61101a565b5b61135a85828601611126565b925050602061136b85828601611175565b9150509250929050565b60006fffffffffffffffffffffffffffffffff82169050919050565b61139a81611375565b81146113a557600080fd5b50565b6000813590506113b781611391565b92915050565b600067ffffffffffffffff8211156113d8576113d7611029565b5b6113e182610f9f565b9050602081019050919050565b60006114016113fc846113bd565b611089565b90508281526020810184848401111561141d5761141c611024565b5b6114288482856110d5565b509392505050565b600082601f8301126114455761144461101f565b5b81356114558482602086016113ee565b91505092915050565b60008060006060848603121561147757611476611015565b5b600084013567ffffffffffffffff8111156114955761149461101a565b5b6114a186828701611126565b93505060206114b2868287016113a8565b925050604084013567ffffffffffffffff8111156114d3576114d261101a565b5b6114df86828701611430565b9150509250925092565b600073ffffffffffffffffffffffffffffffffffffffff82169050919050565b6000611514826114e9565b9050919050565b61152481611509565b82525050565b600060208201905061153f600083018461151b565b92915050565b61154e81611509565b811461155957600080fd5b50565b60008135905061156b81611545565b92915050565b60006020828403121561158757611586611015565b5b60006115958482850161155c565b91505092915050565b7f4e487b7100000000000000000000000000000000000000000000000000000000600052602260045260246000fd5b600060028204905060018216806115e557607f821691505b602082108114156115f9576115f861159e565b5b50919050565b600081905092915050565b600061161582610f50565b61161f81856115ff565b935061162f818560208601610f6c565b80840191505092915050565b6000611647828461160a565b915081905092915050565b7f4e487b7100000000000000000000000000000000000000000000000000000000600052601160045260246000fd5b600061168c82611154565b915061169783611154565b9250827fffffffffffffffffffffffffffffffffffffffffffffffffffffffffffffffff038211156116cc576116cb611652565b5b828201905092915050565b60006116e282611154565b91507fffffffffffffffffffffffffffffffffffffffffffffffffffffffffffffffff82141561171557611714611652565b5b600182019050919050565b7f4672616d654461746153746f72653a2045786365656465642032342c3537362060008201527f6279746573206d617820636f6e74726163742073697a65000000000000000000602082015250565b600061177c603783610f5b565b915061178782611720565b604082019050919050565b600060208201905081810360008301526117ab8161176f565b9050919050565b60006117bd82611375565b91506117c883611375565b9250828210156117db576117da611652565b5b828203905092915050565b7f4672616d654461746153746f72653a2043616e6e6f74206f766572777269746560008201527f2070616765206f7220736b6970206e657874207061676520666f72206b657900602082015250565b6000611842603f83610f5b565b915061184d826117e6565b604082019050919050565b6000602082019050818103600083015261187181611835565b9050919050565b7f4672616d654461746153746f72653a20436f6e7472616374206c6f636b656400600082015250565b60006118ae601f83610f5b565b91506118b982611878565b602082019050919050565b600060208201905081810360008301526118dd816118a1565b9050919050565b7f4e487b7100000000000000000000000000000000000000000000000000000000600052603260045260246000fd5b600081905092915050565b6000611929826111f9565b6119338185611913565b9350611943818560208601610f6c565b80840191505092915050565b600061195b828561191e565b9150611967828461191e565b91508190509392505050565b7f4672616d654461746153746f72653a2056657273696f6e20616c72656164792060008201527f7365740000000000000000000000000000000000000000000000000000000000602082015250565b60006119cf602383610f5b565b91506119da82611973565b604082019050919050565b600060208201905081810360008301526119fe816119c2565b9050919050565b7f4672616d654461746153746f72653a204e616d6520616c726561647920736574600082015250565b6000611a3b602083610f5b565b9150611a4682611a05565b602082019050919050565b60006020820190508181036000830152611a6a81611a2e565b9050919050565b7f4f776e61626c653a206e6577206f776e657220697320746865207a65726f206160008201527f6464726573730000000000000000000000000000000000000000000000000000602082015250565b6000611acd602683610f5b565b9150611ad882611a71565b604082019050919050565b60006020820190508181036000830152611afc81611ac0565b9050919050565b7f4672616d654461746153746f72653a20436f6e747261637420616c726561647960008201527f206c6f636b656400000000000000000000000000000000000000000000000000602082015250565b6000611b5f602783610f5b565b9150611b6a82611b03565b604082019050919050565b60006020820190508181036000830152611b8e81611b52565b9050919050565b7f4f776e61626c653a2063616c6c6572206973206e6f7420746865206f776e6572600082015250565b6000611bcb602083610f5b565b9150611bd682611b95565b602082019050919050565b60006020820190508181036000830152611bfa81611bbe565b905091905056fea26469706673582212209f38a26bba2a1169356e0c5c21a57257397e0b6b9e7f9ea9a67666fa36fb328864736f6c634300080c0033",
  "linkReferences": {},
  "deployedLinkReferences": {}
}