{
  "_format": "hh-sol-artifact-1",
  "contractName": "FrameDataStoreOwnable",
  "sourceName": "src/contracts/FrameDataStoreOwnable.sol",
  "abi": [
    {
      "inputs": [],
      "stateMutability": "nonpayable",
      "type": "constructor"
    },
    {
      "anonymous": false,
      "inputs": [
        {
          "indexed": true,
          "internalType": "address",
          "name": "previousOwner",
          "type": "address"
        },
        {
          "indexed": true,
          "internalType": "address",
          "name": "newOwner",
          "type": "address"
        }
      ],
      "name": "OwnershipTransferred",
      "type": "event"
    },
    {
      "inputs": [
        {
          "internalType": "string",
          "name": "_key",
          "type": "string"
        },
        {
          "internalType": "uint256",
          "name": "_startPage",
          "type": "uint256"
        }
      ],
      "name": "getAllDataFromPage",
      "outputs": [
        {
          "internalType": "bytes",
          "name": "",
          "type": "bytes"
        }
      ],
      "stateMutability": "view",
      "type": "function"
    },
    {
      "inputs": [
        {
          "internalType": "string",
          "name": "_key",
          "type": "string"
        },
        {
          "internalType": "uint256",
          "name": "_startPage",
          "type": "uint256"
        },
        {
          "internalType": "uint256",
          "name": "_endPage",
          "type": "uint256"
        }
      ],
      "name": "getData",
      "outputs": [
        {
          "internalType": "bytes",
          "name": "",
          "type": "bytes"
        }
      ],
      "stateMutability": "view",
      "type": "function"
    },
    {
      "inputs": [
        {
          "internalType": "string",
          "name": "_key",
          "type": "string"
        }
      ],
      "name": "getMaxPageNumber",
      "outputs": [
        {
          "internalType": "uint256",
          "name": "",
          "type": "uint256"
        }
      ],
      "stateMutability": "view",
      "type": "function"
    },
    {
      "inputs": [
        {
          "internalType": "string",
          "name": "_key",
          "type": "string"
        },
        {
          "internalType": "uint256",
          "name": "_startPage",
          "type": "uint256"
        },
        {
          "internalType": "uint256",
          "name": "_endPage",
          "type": "uint256"
        }
      ],
      "name": "getSizeBetweenPages",
      "outputs": [
        {
          "internalType": "uint256",
          "name": "",
          "type": "uint256"
        }
      ],
      "stateMutability": "view",
      "type": "function"
    },
    {
      "inputs": [
        {
          "internalType": "string",
          "name": "_key",
          "type": "string"
        }
      ],
      "name": "hasKey",
      "outputs": [
        {
          "internalType": "bool",
          "name": "",
          "type": "bool"
        }
      ],
      "stateMutability": "view",
      "type": "function"
    },
    {
      "inputs": [],
      "name": "isLocked",
      "outputs": [
        {
          "internalType": "bool",
          "name": "",
          "type": "bool"
        }
      ],
      "stateMutability": "view",
      "type": "function"
    },
    {
      "inputs": [],
      "name": "lock",
      "outputs": [],
      "stateMutability": "nonpayable",
      "type": "function"
    },
    {
      "inputs": [],
      "name": "name",
      "outputs": [
        {
          "internalType": "string",
          "name": "",
          "type": "string"
        }
      ],
      "stateMutability": "view",
      "type": "function"
    },
    {
      "inputs": [],
      "name": "owner",
      "outputs": [
        {
          "internalType": "address",
          "name": "",
          "type": "address"
        }
      ],
      "stateMutability": "view",
      "type": "function"
    },
    {
      "inputs": [],
      "name": "renounceOwnership",
      "outputs": [],
      "stateMutability": "nonpayable",
      "type": "function"
    },
    {
      "inputs": [
        {
          "internalType": "string",
          "name": "_key",
          "type": "string"
        },
        {
          "internalType": "uint128",
          "name": "_pageNumber",
          "type": "uint128"
        },
        {
          "internalType": "bytes",
          "name": "_b",
          "type": "bytes"
        }
      ],
      "name": "saveData",
      "outputs": [],
      "stateMutability": "nonpayable",
      "type": "function"
    },
    {
      "inputs": [
        {
          "internalType": "string",
          "name": "_name",
          "type": "string"
        }
      ],
      "name": "setName",
      "outputs": [],
      "stateMutability": "nonpayable",
      "type": "function"
    },
    {
      "inputs": [
        {
          "internalType": "string",
          "name": "_version",
          "type": "string"
        }
      ],
      "name": "setVersion",
      "outputs": [],
      "stateMutability": "nonpayable",
      "type": "function"
    },
    {
      "inputs": [
        {
          "internalType": "address",
          "name": "newOwner",
          "type": "address"
        }
      ],
      "name": "transferOwnership",
      "outputs": [],
      "stateMutability": "nonpayable",
      "type": "function"
    },
    {
      "inputs": [],
      "name": "version",
      "outputs": [
        {
          "internalType": "string",
          "name": "",
          "type": "string"
        }
      ],
      "stateMutability": "view",
      "type": "function"
    }
  ],
  "bytecode": "0x60806040526000600360006101000a81548160ff02191690831515021790555034801561002b57600080fd5b5061004861003d61004d60201b60201c565b61005560201b60201c565b610119565b600033905090565b60008060009054906101000a900473ffffffffffffffffffffffffffffffffffffffff169050816000806101000a81548173ffffffffffffffffffffffffffffffffffffffff021916908373ffffffffffffffffffffffffffffffffffffffff1602179055508173ffffffffffffffffffffffffffffffffffffffff168173ffffffffffffffffffffffffffffffffffffffff167f8be0079c531659141344cd1fd0a4f28419497f9722a3daafe3b4186f6b6457e060405160405180910390a35050565b611c65806101286000396000f3fe608060405234801561001057600080fd5b50600436106100f55760003560e01c8063715018a611610097578063c47f002711610066578063c47f002714610274578063d431a42f14610290578063f2fde38b146102c0578063f83d08ba146102dc576100f5565b8063715018a614610212578063788bc78c1461021c5780638da5cb5b14610238578063a4e2d63414610256576100f5565b8063332d3780116100d3578063332d3780146101785780633a04f79b146101a857806354fd4d50146101d85780636af42a8c146101f6576100f5565b806306fdde03146100fa57806311aa4cba14610118578063208a43d314610148575b600080fd5b6101026102e6565b60405161010f9190611017565b60405180910390f35b610132600480360381019061012d91906111b8565b610374565b60405161013f919061127c565b60405180910390f35b610162600480360381019061015d91906111b8565b6104fc565b60405161016f91906112ad565b60405180910390f35b610192600480360381019061018d91906112c8565b6105a1565b60405161019f919061132c565b60405180910390f35b6101c260048036038101906101bd9190611347565b6105d9565b6040516101cf919061127c565b60405180910390f35b6101e0610615565b6040516101ed9190611017565b60405180910390f35b610210600480360381019061020b919061148c565b6106a3565b005b61021a6109a8565b005b610236600480360381019061023191906112c8565b6109bc565b005b610240610a2f565b60405161024d9190611558565b60405180910390f35b61025e610a58565b60405161026b919061132c565b60405180910390f35b61028e600480360381019061028991906112c8565b610a6b565b005b6102aa60048036038101906102a591906112c8565b610ade565b6040516102b791906112ad565b60405180910390f35b6102da60048036038101906102d5919061159f565b610b09565b005b6102e4610b8d565b005b600480546102f3906115fb565b80601f016020809104026020016040519081016040528092919081815260200182805461031f906115fb565b801561036c5780601f106103415761010080835404028352916020019161036c565b820191906000526020600020905b81548152906001019060200180831161034f57829003601f168201915b505050505081565b606060006103838585856104fc565b905060008167ffffffffffffffff8111156103a1576103a0611057565b5b6040519080825280601f01601f1916602001820160405280156103d35781602001600182028036833780820191505090505b50905060006001876040516103e89190611669565b90815260200160405180910390209050600085905060006020905060008890505b8281116104ec576000846002016000838152602001908152602001600020905060008160000160009054906101000a900473ffffffffffffffffffffffffffffffffffffffff16905060008260010160009054906101000a90046fffffffffffffffffffffffffffffffff166fffffffffffffffffffffffffffffffff16905060008360010160109054906101000a90046fffffffffffffffffffffffffffffffff166fffffffffffffffffffffffffffffffff1690508181878b01853c81866104d391906116af565b95505050505080806104e490611705565b915050610409565b5083955050505050509392505050565b60008060018560405161050f9190611669565b908152602001604051809103902090506000808590505b8481116105945782600201600082815260200190815260200160002060010160009054906101000a90046fffffffffffffffffffffffffffffffff166fffffffffffffffffffffffffffffffff168261057f91906116af565b9150808061058c90611705565b915050610526565b5080925050509392505050565b60006001826040516105b39190611669565b908152602001604051809103902060010160009054906101000a900460ff169050919050565b606060006001846040516105ed9190611669565b9081526020016040518091039020905061060c84848360000154610374565b91505092915050565b60058054610622906115fb565b80601f016020809104026020016040519081016040528092919081815260200182805461064e906115fb565b801561069b5780601f106106705761010080835404028352916020019161069b565b820191906000526020600020905b81548152906001019060200180831161067e57829003601f168201915b505050505081565b6106ab610c02565b6160008151106106f0576040517f08c379a00000000000000000000000000000000000000000000000000000000081526004016106e7906117c0565b60405180910390fd5b6106f9836105a1565b15801561071857506000826fffffffffffffffffffffffffffffffff16145b80610748575060018261072b91906117e0565b6fffffffffffffffffffffffffffffffff1661074684610ade565b145b610787576040517f08c379a000000000000000000000000000000000000000000000000000000000815260040161077e90611886565b60405180910390fd5b600360009054906101000a900460ff16156107d7576040517f08c379a00000000000000000000000000000000000000000000000000000000081526004016107ce906118f2565b60405180910390fd5b60006040518060400160405280600e81526020017f610000600e6000396100006000f300000000000000000000000000000000000081525090506000825160f81b9050600060088451901c60f81b9050818360028151811061083c5761083b611912565b5b60200101907effffffffffffffffffffffffffffffffffffffffffffffffffffffffffffff1916908160001a90535080836001815181106108805761087f611912565b5b60200101907effffffffffffffffffffffffffffffffffffffffffffffffffffffffffffff1916908160001a9053508183600a815181106108c4576108c3611912565b5b60200101907effffffffffffffffffffffffffffffffffffffffffffffffffffffffffffff1916908160001a905350808360098151811061090857610907611912565b5b60200101907effffffffffffffffffffffffffffffffffffffffffffffffffffffffffffff1916908160001a9053506000838560405160200161094c92919061197d565b604051602081830303815290604052905060008151602083016000f09050600081141561097d573d6000803e3d6000fd5b61099e88886fffffffffffffffffffffffffffffffff168389516000610c80565b5050505050505050565b6109b0610c02565b6109ba6000610e0f565b565b6109c4610c02565b6003600580546109d3906115fb565b905010610a15576040517f08c379a0000000000000000000000000000000000000000000000000000000008152600401610a0c90611a13565b60405180910390fd5b8060059080519060200190610a2b929190610edb565b5050565b60008060009054906101000a900473ffffffffffffffffffffffffffffffffffffffff16905090565b600360009054906101000a900460ff1681565b610a73610c02565b600360048054610a82906115fb565b905010610ac4576040517f08c379a0000000000000000000000000000000000000000000000000000000008152600401610abb90611a7f565b60405180910390fd5b8060049080519060200190610ada929190610edb565b5050565b6000600182604051610af09190611669565b9081526020016040518091039020600001549050919050565b610b11610c02565b600073ffffffffffffffffffffffffffffffffffffffff168173ffffffffffffffffffffffffffffffffffffffff161415610b81576040517f08c379a0000000000000000000000000000000000000000000000000000000008152600401610b7890611b11565b60405180910390fd5b610b8a81610e0f565b50565b610b95610c02565b600360009054906101000a900460ff1615610be5576040517f08c379a0000000000000000000000000000000000000000000000000000000008152600401610bdc90611ba3565b60405180910390fd5b6001600360006101000a81548160ff021916908315150217905550565b610c0a610ed3565b73ffffffffffffffffffffffffffffffffffffffff16610c28610a2f565b73ffffffffffffffffffffffffffffffffffffffff1614610c7e576040517f08c379a0000000000000000000000000000000000000000000000000000000008152600401610c7590611c0f565b60405180910390fd5b565b6000600186604051610c929190611669565b908152602001604051809103902090508481600001541015610cb8578481600001819055505b60018160010160006101000a81548160ff02191690831515021790555060405180606001604052808573ffffffffffffffffffffffffffffffffffffffff168152602001846fffffffffffffffffffffffffffffffff168152602001836fffffffffffffffffffffffffffffffff1681525081600201600087815260200190815260200160002060008201518160000160006101000a81548173ffffffffffffffffffffffffffffffffffffffff021916908373ffffffffffffffffffffffffffffffffffffffff16021790555060208201518160010160006101000a8154816fffffffffffffffffffffffffffffffff02191690836fffffffffffffffffffffffffffffffff16021790555060408201518160010160106101000a8154816fffffffffffffffffffffffffffffffff02191690836fffffffffffffffffffffffffffffffff160217905550905050505050505050565b60008060009054906101000a900473ffffffffffffffffffffffffffffffffffffffff169050816000806101000a81548173ffffffffffffffffffffffffffffffffffffffff021916908373ffffffffffffffffffffffffffffffffffffffff1602179055508173ffffffffffffffffffffffffffffffffffffffff168173ffffffffffffffffffffffffffffffffffffffff167f8be0079c531659141344cd1fd0a4f28419497f9722a3daafe3b4186f6b6457e060405160405180910390a35050565b600033905090565b828054610ee7906115fb565b90600052602060002090601f016020900481019282610f095760008555610f50565b82601f10610f2257805160ff1916838001178555610f50565b82800160010185558215610f50579182015b82811115610f4f578251825591602001919060010190610f34565b5b509050610f5d9190610f61565b5090565b5b80821115610f7a576000816000905550600101610f62565b5090565b600081519050919050565b600082825260208201905092915050565b60005b83811015610fb8578082015181840152602081019050610f9d565b83811115610fc7576000848401525b50505050565b6000601f19601f8301169050919050565b6000610fe982610f7e565b610ff38185610f89565b9350611003818560208601610f9a565b61100c81610fcd565b840191505092915050565b600060208201905081810360008301526110318184610fde565b905092915050565b6000604051905090565b600080fd5b600080fd5b600080fd5b600080fd5b7f4e487b7100000000000000000000000000000000000000000000000000000000600052604160045260246000fd5b61108f82610fcd565b810181811067ffffffffffffffff821117156110ae576110ad611057565b5b80604052505050565b60006110c1611039565b90506110cd8282611086565b919050565b600067ffffffffffffffff8211156110ed576110ec611057565b5b6110f682610fcd565b9050602081019050919050565b82818337600083830152505050565b6000611125611120846110d2565b6110b7565b90508281526020810184848401111561114157611140611052565b5b61114c848285611103565b509392505050565b600082601f8301126111695761116861104d565b5b8135611179848260208601611112565b91505092915050565b6000819050919050565b61119581611182565b81146111a057600080fd5b50565b6000813590506111b28161118c565b92915050565b6000806000606084860312156111d1576111d0611043565b5b600084013567ffffffffffffffff8111156111ef576111ee611048565b5b6111fb86828701611154565b935050602061120c868287016111a3565b925050604061121d868287016111a3565b9150509250925092565b600081519050919050565b600082825260208201905092915050565b600061124e82611227565b6112588185611232565b9350611268818560208601610f9a565b61127181610fcd565b840191505092915050565b600060208201905081810360008301526112968184611243565b905092915050565b6112a781611182565b82525050565b60006020820190506112c2600083018461129e565b92915050565b6000602082840312156112de576112dd611043565b5b600082013567ffffffffffffffff8111156112fc576112fb611048565b5b61130884828501611154565b91505092915050565b60008115159050919050565b61132681611311565b82525050565b6000602082019050611341600083018461131d565b92915050565b6000806040838503121561135e5761135d611043565b5b600083013567ffffffffffffffff81111561137c5761137b611048565b5b61138885828601611154565b9250506020611399858286016111a3565b9150509250929050565b60006fffffffffffffffffffffffffffffffff82169050919050565b6113c8816113a3565b81146113d357600080fd5b50565b6000813590506113e5816113bf565b92915050565b600067ffffffffffffffff82111561140657611405611057565b5b61140f82610fcd565b9050602081019050919050565b600061142f61142a846113eb565b6110b7565b90508281526020810184848401111561144b5761144a611052565b5b611456848285611103565b509392505050565b600082601f8301126114735761147261104d565b5b813561148384826020860161141c565b91505092915050565b6000806000606084860312156114a5576114a4611043565b5b600084013567ffffffffffffffff8111156114c3576114c2611048565b5b6114cf86828701611154565b93505060206114e0868287016113d6565b925050604084013567ffffffffffffffff81111561150157611500611048565b5b61150d8682870161145e565b9150509250925092565b600073ffffffffffffffffffffffffffffffffffffffff82169050919050565b600061154282611517565b9050919050565b61155281611537565b82525050565b600060208201905061156d6000830184611549565b92915050565b61157c81611537565b811461158757600080fd5b50565b60008135905061159981611573565b92915050565b6000602082840312156115b5576115b4611043565b5b60006115c38482850161158a565b91505092915050565b7f4e487b7100000000000000000000000000000000000000000000000000000000600052602260045260246000fd5b6000600282049050600182168061161357607f821691505b60208210811415611627576116266115cc565b5b50919050565b600081905092915050565b600061164382610f7e565b61164d818561162d565b935061165d818560208601610f9a565b80840191505092915050565b60006116758284611638565b915081905092915050565b7f4e487b7100000000000000000000000000000000000000000000000000000000600052601160045260246000fd5b60006116ba82611182565b91506116c583611182565b9250827fffffffffffffffffffffffffffffffffffffffffffffffffffffffffffffffff038211156116fa576116f9611680565b5b828201905092915050565b600061171082611182565b91507fffffffffffffffffffffffffffffffffffffffffffffffffffffffffffffffff82141561174357611742611680565b5b600182019050919050565b7f4672616d654461746153746f72653a2045786365656465642032342c3537362060008201527f6279746573206d617820636f6e74726163742073697a65000000000000000000602082015250565b60006117aa603783610f89565b91506117b58261174e565b604082019050919050565b600060208201905081810360008301526117d98161179d565b9050919050565b60006117eb826113a3565b91506117f6836113a3565b92508282101561180957611808611680565b5b828203905092915050565b7f4672616d654461746153746f72653a2043616e6e6f74206f766572777269746560008201527f2070616765206f7220736b6970206e657874207061676520666f72206b657900602082015250565b6000611870603f83610f89565b915061187b82611814565b604082019050919050565b6000602082019050818103600083015261189f81611863565b9050919050565b7f4672616d654461746153746f72653a20436f6e7472616374206c6f636b656400600082015250565b60006118dc601f83610f89565b91506118e7826118a6565b602082019050919050565b6000602082019050818103600083015261190b816118cf565b9050919050565b7f4e487b7100000000000000000000000000000000000000000000000000000000600052603260045260246000fd5b600081905092915050565b600061195782611227565b6119618185611941565b9350611971818560208601610f9a565b80840191505092915050565b6000611989828561194c565b9150611995828461194c565b91508190509392505050565b7f4672616d654461746153746f72653a2056657273696f6e20616c72656164792060008201527f7365740000000000000000000000000000000000000000000000000000000000602082015250565b60006119fd602383610f89565b9150611a08826119a1565b604082019050919050565b60006020820190508181036000830152611a2c816119f0565b9050919050565b7f4672616d654461746153746f72653a204e616d6520616c726561647920736574600082015250565b6000611a69602083610f89565b9150611a7482611a33565b602082019050919050565b60006020820190508181036000830152611a9881611a5c565b9050919050565b7f4f776e61626c653a206e6577206f776e657220697320746865207a65726f206160008201527f6464726573730000000000000000000000000000000000000000000000000000602082015250565b6000611afb602683610f89565b9150611b0682611a9f565b604082019050919050565b60006020820190508181036000830152611b2a81611aee565b9050919050565b7f4672616d654461746153746f72653a20436f6e747261637420616c726561647960008201527f206c6f636b656400000000000000000000000000000000000000000000000000602082015250565b6000611b8d602783610f89565b9150611b9882611b31565b604082019050919050565b60006020820190508181036000830152611bbc81611b80565b9050919050565b7f4f776e61626c653a2063616c6c6572206973206e6f7420746865206f776e6572600082015250565b6000611bf9602083610f89565b9150611c0482611bc3565b602082019050919050565b60006020820190508181036000830152611c2881611bec565b905091905056fea26469706673582212200e628f02eeb6d560f9a89b1762aad44aab84d267f4a48a3db3341eac0e5971c064736f6c634300080c0033",
  "linkReferences": {},
  "deployedLinkReferences": {}
}