{
  "_format": "hh-sol-artifact-1",
  "contractName": "ScriptyStorage",
  "sourceName": "src/contracts/scripty/ScriptyStorage.sol",
  "abi": [
    {
      "inputs": [
        {
          "internalType": "address",
          "name": "_contentStoreAddress",
          "type": "address"
        }
      ],
      "stateMutability": "nonpayable",
      "type": "constructor"
    },
    {
      "inputs": [],
      "name": "NotScriptOwner",
      "type": "error"
    },
    {
      "inputs": [],
      "name": "ScriptExists",
      "type": "error"
    },
    {
      "anonymous": false,
      "inputs": [
        {
          "indexed": true,
          "internalType": "string",
          "name": "name",
          "type": "string"
        },
        {
          "indexed": false,
          "internalType": "uint256",
          "name": "size",
          "type": "uint256"
        }
      ],
      "name": "ChunkStored",
      "type": "event"
    },
    {
      "anonymous": false,
      "inputs": [
        {
          "indexed": true,
          "internalType": "address",
          "name": "previousOwner",
          "type": "address"
        },
        {
          "indexed": true,
          "internalType": "address",
          "name": "newOwner",
          "type": "address"
        }
      ],
      "name": "OwnershipTransferred",
      "type": "event"
    },
    {
      "anonymous": false,
      "inputs": [
        {
          "indexed": true,
          "internalType": "string",
          "name": "name",
          "type": "string"
        },
        {
          "indexed": false,
          "internalType": "address",
          "name": "owner",
          "type": "address"
        },
        {
          "indexed": false,
          "internalType": "bytes",
          "name": "details",
          "type": "bytes"
        }
      ],
      "name": "ScriptCreated",
      "type": "event"
    },
    {
      "anonymous": false,
      "inputs": [
        {
          "indexed": true,
          "internalType": "string",
          "name": "name",
          "type": "string"
        },
        {
          "indexed": false,
          "internalType": "address",
          "name": "owner",
          "type": "address"
        },
        {
          "indexed": false,
          "internalType": "bytes",
          "name": "details",
          "type": "bytes"
        }
      ],
      "name": "ScriptDetailsUpdated",
      "type": "event"
    },
    {
      "anonymous": false,
      "inputs": [
        {
          "indexed": true,
          "internalType": "string",
          "name": "name",
          "type": "string"
        },
        {
          "indexed": false,
          "internalType": "bool",
          "name": "isVerified",
          "type": "bool"
        }
      ],
      "name": "ScriptVerificationUpdated",
      "type": "event"
    },
    {
      "inputs": [
        {
          "internalType": "string",
          "name": "name",
          "type": "string"
        },
        {
          "internalType": "bytes",
          "name": "chunk",
          "type": "bytes"
        }
      ],
      "name": "addChunkToScript",
      "outputs": [],
      "stateMutability": "nonpayable",
      "type": "function"
    },
    {
      "inputs": [],
      "name": "contentStore",
      "outputs": [
        {
          "internalType": "contract IContentStore",
          "name": "",
          "type": "address"
        }
      ],
      "stateMutability": "view",
      "type": "function"
    },
    {
      "inputs": [
        {
          "internalType": "string",
          "name": "name",
          "type": "string"
        },
        {
          "internalType": "bytes",
          "name": "details",
          "type": "bytes"
        }
      ],
      "name": "createScript",
      "outputs": [],
      "stateMutability": "nonpayable",
      "type": "function"
    },
    {
      "inputs": [
        {
          "internalType": "string",
          "name": "name",
          "type": "string"
        },
        {
          "internalType": "bytes",
          "name": "data",
          "type": "bytes"
        }
      ],
      "name": "getScript",
      "outputs": [
        {
          "internalType": "bytes",
          "name": "script",
          "type": "bytes"
        }
      ],
      "stateMutability": "view",
      "type": "function"
    },
    {
      "inputs": [
        {
          "internalType": "string",
          "name": "name",
          "type": "string"
        }
      ],
      "name": "getScriptChunkPointers",
      "outputs": [
        {
          "internalType": "address[]",
          "name": "pointers",
          "type": "address[]"
        }
      ],
      "stateMutability": "view",
      "type": "function"
    },
    {
      "inputs": [],
      "name": "owner",
      "outputs": [
        {
          "internalType": "address",
          "name": "",
          "type": "address"
        }
      ],
      "stateMutability": "view",
      "type": "function"
    },
    {
      "inputs": [],
      "name": "renounceOwnership",
      "outputs": [],
      "stateMutability": "nonpayable",
      "type": "function"
    },
    {
      "inputs": [
        {
          "internalType": "string",
          "name": "",
          "type": "string"
        }
      ],
      "name": "scripts",
      "outputs": [
        {
          "internalType": "bool",
          "name": "isVerified",
          "type": "bool"
        },
        {
          "internalType": "address",
          "name": "owner",
          "type": "address"
        },
        {
          "internalType": "uint256",
          "name": "size",
          "type": "uint256"
        },
        {
          "internalType": "bytes",
          "name": "details",
          "type": "bytes"
        }
      ],
      "stateMutability": "view",
      "type": "function"
    },
    {
      "inputs": [
        {
          "internalType": "address",
          "name": "newOwner",
          "type": "address"
        }
      ],
      "name": "transferOwnership",
      "outputs": [],
      "stateMutability": "nonpayable",
      "type": "function"
    },
    {
      "inputs": [
        {
          "internalType": "string",
          "name": "name",
          "type": "string"
        },
        {
          "internalType": "bytes",
          "name": "details",
          "type": "bytes"
        }
      ],
      "name": "updateDetails",
      "outputs": [],
      "stateMutability": "nonpayable",
      "type": "function"
    },
    {
      "inputs": [
        {
          "internalType": "string",
          "name": "name",
          "type": "string"
        },
        {
          "internalType": "bool",
          "name": "isVerified",
          "type": "bool"
        }
      ],
      "name": "updateScriptVerification",
      "outputs": [],
      "stateMutability": "nonpayable",
      "type": "function"
    }
  ],
  "bytecode": "0x60a06040523480156200001157600080fd5b5060405162002040380380620020408339818101604052810190620000379190620001c8565b620000576200004b6200009260201b60201c565b6200009a60201b60201c565b8073ffffffffffffffffffffffffffffffffffffffff1660808173ffffffffffffffffffffffffffffffffffffffff168152505050620001fa565b600033905090565b60008060009054906101000a900473ffffffffffffffffffffffffffffffffffffffff169050816000806101000a81548173ffffffffffffffffffffffffffffffffffffffff021916908373ffffffffffffffffffffffffffffffffffffffff1602179055508173ffffffffffffffffffffffffffffffffffffffff168173ffffffffffffffffffffffffffffffffffffffff167f8be0079c531659141344cd1fd0a4f28419497f9722a3daafe3b4186f6b6457e060405160405180910390a35050565b600080fd5b600073ffffffffffffffffffffffffffffffffffffffff82169050919050565b6000620001908262000163565b9050919050565b620001a28162000183565b8114620001ae57600080fd5b50565b600081519050620001c28162000197565b92915050565b600060208284031215620001e157620001e06200015e565b5b6000620001f184828501620001b1565b91505092915050565b608051611e236200021d600039600081816102c401526103d50152611e236000f3fe608060405234801561001057600080fd5b50600436106100a95760003560e01c80638da5cb5b116100715780638da5cb5b1461013e578063ae0f84971461015c578063c3766aff1461018f578063f2fde38b146101ab578063f66188a4146101c7578063f9635594146101e3576100a9565b80633998d026146100ae5780633a6e674c146100de5780633b7aa8d9146100fc578063715018a6146101185780638652d66914610122575b600080fd5b6100c860048036038101906100c39190611097565b610213565b6040516100d591906111d0565b60405180910390f35b6100e66102c2565b6040516100f39190611251565b60405180910390f35b61011660048036038101906101119190611322565b6102e6565b005b61012061058e565b005b61013c60048036038101906101379190611322565b6105a2565b005b61014661087d565b60405161015391906113b2565b60405180910390f35b61017660048036038101906101719190611097565b6108a6565b6040516101869493929190611480565b60405180910390f35b6101a960048036038101906101a49190611322565b6109a1565b005b6101c560048036038101906101c091906114f8565b610b19565b005b6101e160048036038101906101dc9190611551565b610b9c565b005b6101fd60048036038101906101f89190611652565b610c33565b60405161020a91906116ca565b60405180910390f35b60606001826040516102259190611733565b90815260200160405180910390206003018054806020026020016040519081016040528092919081815260200182805480156102b657602002820191906000526020600020905b8160009054906101000a900473ffffffffffffffffffffffffffffffffffffffff1673ffffffffffffffffffffffffffffffffffffffff168152602001906001019080831161026c575b50505050509050919050565b7f000000000000000000000000000000000000000000000000000000000000000081565b83838080601f016020809104026020016040519081016040528093929190818152602001838380828437600081840152601f19601f8201169050808301925050505050505060018160405161033b9190611733565b908152602001604051809103902060000160019054906101000a900473ffffffffffffffffffffffffffffffffffffffff1673ffffffffffffffffffffffffffffffffffffffff163373ffffffffffffffffffffffffffffffffffffffff16146103d1576040517f48430eda00000000000000000000000000000000000000000000000000000000815260040160405180910390fd5b60007f000000000000000000000000000000000000000000000000000000000000000073ffffffffffffffffffffffffffffffffffffffff1663093e983985856040518363ffffffff1660e01b815260040161042e929190611777565b60408051808303816000875af115801561044c573d6000803e3d6000fd5b505050506040513d601f19601f8201168201806040525081019061047091906117e6565b9150506001868660405161048592919061184b565b9081526020016040518091039020600301819080600181540180825580915050600190039060005260206000200160009091909190916101000a81548173ffffffffffffffffffffffffffffffffffffffff021916908373ffffffffffffffffffffffffffffffffffffffff160217905550838390506001878760405161050d92919061184b565b9081526020016040518091039020600101600082825461052d9190611893565b92505081905550858560405161054492919061184b565b60405180910390207f4c4439fb488c666dfac05b75b1eaa33ddec20e80ade108bbfbf9a346101a17fa8585905060405161057e91906118c7565b60405180910390a2505050505050565b610596610ceb565b6105a06000610d69565b565b83838080601f016020809104026020016040519081016040528093929190818152602001838380828437600081840152601f19601f82011690508083019250505050505050600073ffffffffffffffffffffffffffffffffffffffff1660018260405161060f9190611733565b908152602001604051809103902060000160019054906101000a900473ffffffffffffffffffffffffffffffffffffffff1673ffffffffffffffffffffffffffffffffffffffff161461068e576040517f0d3c537600000000000000000000000000000000000000000000000000000000815260040160405180910390fd5b6040518060a001604052806000151581526020013373ffffffffffffffffffffffffffffffffffffffff1681526020016000815260200184848080601f016020809104026020016040519081016040528093929190818152602001838380828437600081840152601f19601f820116905080830192505050505050508152602001600067ffffffffffffffff81111561072a57610729610f6c565b5b6040519080825280602002602001820160405280156107585781602001602082028036833780820191505090505b508152506001868660405161076e92919061184b565b908152602001604051809103902060008201518160000160006101000a81548160ff02191690831515021790555060208201518160000160016101000a81548173ffffffffffffffffffffffffffffffffffffffff021916908373ffffffffffffffffffffffffffffffffffffffff1602179055506040820151816001015560608201518160020190816108029190611ae4565b50608082015181600301908051906020019061081f929190610e96565b50905050848460405161083392919061184b565b60405180910390207f35023683f3e2601679984b8499066b14c71937187f37bdb34221581a22792e0a33858560405161086e93929190611bb6565b60405180910390a25050505050565b60008060009054906101000a900473ffffffffffffffffffffffffffffffffffffffff16905090565b6001818051602081018201805184825260208301602085012081835280955050505050506000915090508060000160009054906101000a900460ff16908060000160019054906101000a900473ffffffffffffffffffffffffffffffffffffffff169080600101549080600201805461091e90611911565b80601f016020809104026020016040519081016040528092919081815260200182805461094a90611911565b80156109975780601f1061096c57610100808354040283529160200191610997565b820191906000526020600020905b81548152906001019060200180831161097a57829003601f168201915b5050505050905084565b83838080601f016020809104026020016040519081016040528093929190818152602001838380828437600081840152601f19601f820116905080830192505050505050506001816040516109f69190611733565b908152602001604051809103902060000160019054906101000a900473ffffffffffffffffffffffffffffffffffffffff1673ffffffffffffffffffffffffffffffffffffffff163373ffffffffffffffffffffffffffffffffffffffff1614610a8c576040517f48430eda00000000000000000000000000000000000000000000000000000000815260040160405180910390fd5b828260018787604051610aa092919061184b565b90815260200160405180910390206002019182610abe929190611bf3565b508484604051610acf92919061184b565b60405180910390207fee4b871e75b741fc8f590502e8d6eef71a1fd737732e9586c2ebbd5c63f172fc338585604051610b0a93929190611bb6565b60405180910390a25050505050565b610b21610ceb565b600073ffffffffffffffffffffffffffffffffffffffff168173ffffffffffffffffffffffffffffffffffffffff1603610b90576040517f08c379a0000000000000000000000000000000000000000000000000000000008152600401610b8790611d46565b60405180910390fd5b610b9981610d69565b50565b610ba4610ceb565b8060018484604051610bb792919061184b565b908152602001604051809103902060000160006101000a81548160ff0219169083151502179055508282604051610bef92919061184b565b60405180910390207fd5c4aa2b5240e0e08c3bbb0802a6dfcd8bc9967b86d7e94970e324fccf1e6d2b82604051610c269190611d66565b60405180910390a2505050565b6060610ce3600184604051610c489190611733565b9081526020016040518091039020600301805480602002602001604051908101604052809291908181526020018280548015610cd957602002820191906000526020600020905b8160009054906101000a900473ffffffffffffffffffffffffffffffffffffffff1673ffffffffffffffffffffffffffffffffffffffff1681526020019060010190808311610c8f575b5050505050610e2d565b905092915050565b610cf3610e8e565b73ffffffffffffffffffffffffffffffffffffffff16610d1161087d565b73ffffffffffffffffffffffffffffffffffffffff1614610d67576040517f08c379a0000000000000000000000000000000000000000000000000000000008152600401610d5e90611dcd565b60405180910390fd5b565b60008060009054906101000a900473ffffffffffffffffffffffffffffffffffffffff169050816000806101000a81548173ffffffffffffffffffffffffffffffffffffffff021916908373ffffffffffffffffffffffffffffffffffffffff1602179055508173ffffffffffffffffffffffffffffffffffffffff168173ffffffffffffffffffffffffffffffffffffffff167f8be0079c531659141344cd1fd0a4f28419497f9722a3daafe3b4186f6b6457e060405160405180910390a35050565b606081516020600060405193506000805b84811015610e71576020810260200187015191506001823b039250826001858801843c8284019350600181019050610e3e565b50602083038552601f19601f840116850160405250505050919050565b600033905090565b828054828255906000526020600020908101928215610f0f579160200282015b82811115610f0e5782518260006101000a81548173ffffffffffffffffffffffffffffffffffffffff021916908373ffffffffffffffffffffffffffffffffffffffff16021790555091602001919060010190610eb6565b5b509050610f1c9190610f20565b5090565b5b80821115610f39576000816000905550600101610f21565b5090565b6000604051905090565b600080fd5b600080fd5b600080fd5b600080fd5b6000601f19601f8301169050919050565b7f4e487b7100000000000000000000000000000000000000000000000000000000600052604160045260246000fd5b610fa482610f5b565b810181811067ffffffffffffffff82111715610fc357610fc2610f6c565b5b80604052505050565b6000610fd6610f3d565b9050610fe28282610f9b565b919050565b600067ffffffffffffffff82111561100257611001610f6c565b5b61100b82610f5b565b9050602081019050919050565b82818337600083830152505050565b600061103a61103584610fe7565b610fcc565b90508281526020810184848401111561105657611055610f56565b5b611061848285611018565b509392505050565b600082601f83011261107e5761107d610f51565b5b813561108e848260208601611027565b91505092915050565b6000602082840312156110ad576110ac610f47565b5b600082013567ffffffffffffffff8111156110cb576110ca610f4c565b5b6110d784828501611069565b91505092915050565b600081519050919050565b600082825260208201905092915050565b6000819050602082019050919050565b600073ffffffffffffffffffffffffffffffffffffffff82169050919050565b60006111378261110c565b9050919050565b6111478161112c565b82525050565b6000611159838361113e565b60208301905092915050565b6000602082019050919050565b600061117d826110e0565b61118781856110eb565b9350611192836110fc565b8060005b838110156111c35781516111aa888261114d565b97506111b583611165565b925050600181019050611196565b5085935050505092915050565b600060208201905081810360008301526111ea8184611172565b905092915050565b6000819050919050565b600061121761121261120d8461110c565b6111f2565b61110c565b9050919050565b6000611229826111fc565b9050919050565b600061123b8261121e565b9050919050565b61124b81611230565b82525050565b60006020820190506112666000830184611242565b92915050565b600080fd5b600080fd5b60008083601f84011261128c5761128b610f51565b5b8235905067ffffffffffffffff8111156112a9576112a861126c565b5b6020830191508360018202830111156112c5576112c4611271565b5b9250929050565b60008083601f8401126112e2576112e1610f51565b5b8235905067ffffffffffffffff8111156112ff576112fe61126c565b5b60208301915083600182028301111561131b5761131a611271565b5b9250929050565b6000806000806040858703121561133c5761133b610f47565b5b600085013567ffffffffffffffff81111561135a57611359610f4c565b5b61136687828801611276565b9450945050602085013567ffffffffffffffff81111561138957611388610f4c565b5b611395878288016112cc565b925092505092959194509250565b6113ac8161112c565b82525050565b60006020820190506113c760008301846113a3565b92915050565b60008115159050919050565b6113e2816113cd565b82525050565b6000819050919050565b6113fb816113e8565b82525050565b600081519050919050565b600082825260208201905092915050565b60005b8381101561143b578082015181840152602081019050611420565b60008484015250505050565b600061145282611401565b61145c818561140c565b935061146c81856020860161141d565b61147581610f5b565b840191505092915050565b600060808201905061149560008301876113d9565b6114a260208301866113a3565b6114af60408301856113f2565b81810360608301526114c18184611447565b905095945050505050565b6114d58161112c565b81146114e057600080fd5b50565b6000813590506114f2816114cc565b92915050565b60006020828403121561150e5761150d610f47565b5b600061151c848285016114e3565b91505092915050565b61152e816113cd565b811461153957600080fd5b50565b60008135905061154b81611525565b92915050565b60008060006040848603121561156a57611569610f47565b5b600084013567ffffffffffffffff81111561158857611587610f4c565b5b61159486828701611276565b935093505060206115a78682870161153c565b9150509250925092565b600067ffffffffffffffff8211156115cc576115cb610f6c565b5b6115d582610f5b565b9050602081019050919050565b60006115f56115f0846115b1565b610fcc565b90508281526020810184848401111561161157611610610f56565b5b61161c848285611018565b509392505050565b600082601f83011261163957611638610f51565b5b81356116498482602086016115e2565b91505092915050565b6000806040838503121561166957611668610f47565b5b600083013567ffffffffffffffff81111561168757611686610f4c565b5b61169385828601611069565b925050602083013567ffffffffffffffff8111156116b4576116b3610f4c565b5b6116c085828601611624565b9150509250929050565b600060208201905081810360008301526116e48184611447565b905092915050565b600081519050919050565b600081905092915050565b600061170d826116ec565b61171781856116f7565b935061172781856020860161141d565b80840191505092915050565b600061173f8284611702565b915081905092915050565b6000611756838561140c565b9350611763838584611018565b61176c83610f5b565b840190509392505050565b6000602082019050818103600083015261179281848661174a565b90509392505050565b6000819050919050565b6117ae8161179b565b81146117b957600080fd5b50565b6000815190506117cb816117a5565b92915050565b6000815190506117e0816114cc565b92915050565b600080604083850312156117fd576117fc610f47565b5b600061180b858286016117bc565b925050602061181c858286016117d1565b9150509250929050565b600061183283856116f7565b935061183f838584611018565b82840190509392505050565b6000611858828486611826565b91508190509392505050565b7f4e487b7100000000000000000000000000000000000000000000000000000000600052601160045260246000fd5b600061189e826113e8565b91506118a9836113e8565b92508282019050808211156118c1576118c0611864565b5b92915050565b60006020820190506118dc60008301846113f2565b92915050565b7f4e487b7100000000000000000000000000000000000000000000000000000000600052602260045260246000fd5b6000600282049050600182168061192957607f821691505b60208210810361193c5761193b6118e2565b5b50919050565b60008190508160005260206000209050919050565b60006020601f8301049050919050565b600082821b905092915050565b6000600883026119a47fffffffffffffffffffffffffffffffffffffffffffffffffffffffffffffffff82611967565b6119ae8683611967565b95508019841693508086168417925050509392505050565b60006119e16119dc6119d7846113e8565b6111f2565b6113e8565b9050919050565b6000819050919050565b6119fb836119c6565b611a0f611a07826119e8565b848454611974565b825550505050565b600090565b611a24611a17565b611a2f8184846119f2565b505050565b5b81811015611a5357611a48600082611a1c565b600181019050611a35565b5050565b601f821115611a9857611a6981611942565b611a7284611957565b81016020851015611a81578190505b611a95611a8d85611957565b830182611a34565b50505b505050565b600082821c905092915050565b6000611abb60001984600802611a9d565b1980831691505092915050565b6000611ad48383611aaa565b9150826002028217905092915050565b611aed82611401565b67ffffffffffffffff811115611b0657611b05610f6c565b5b611b108254611911565b611b1b828285611a57565b600060209050601f831160018114611b4e5760008415611b3c578287015190505b611b468582611ac8565b865550611bae565b601f198416611b5c86611942565b60005b82811015611b8457848901518255600182019150602085019450602081019050611b5f565b86831015611ba15784890151611b9d601f891682611aaa565b8355505b6001600288020188555050505b505050505050565b6000604082019050611bcb60008301866113a3565b8181036020830152611bde81848661174a565b9050949350505050565b600082905092915050565b611bfd8383611be8565b67ffffffffffffffff811115611c1657611c15610f6c565b5b611c208254611911565b611c2b828285611a57565b6000601f831160018114611c5a5760008415611c48578287013590505b611c528582611ac8565b865550611cba565b601f198416611c6886611942565b60005b82811015611c9057848901358255600182019150602085019450602081019050611c6b565b86831015611cad5784890135611ca9601f891682611aaa565b8355505b6001600288020188555050505b50505050505050565b600082825260208201905092915050565b7f4f776e61626c653a206e6577206f776e657220697320746865207a65726f206160008201527f6464726573730000000000000000000000000000000000000000000000000000602082015250565b6000611d30602683611cc3565b9150611d3b82611cd4565b604082019050919050565b60006020820190508181036000830152611d5f81611d23565b9050919050565b6000602082019050611d7b60008301846113d9565b92915050565b7f4f776e61626c653a2063616c6c6572206973206e6f7420746865206f776e6572600082015250565b6000611db7602083611cc3565b9150611dc282611d81565b602082019050919050565b60006020820190508181036000830152611de681611daa565b905091905056fea26469706673582212204128bdf1694ce8e63b79786c067a6b4df3ed70385a8b4a715a9281291a39482f64736f6c63430008110033",
  "linkReferences": {},
  "deployedLinkReferences": {}
}