{
  "_format": "hh-sol-artifact-1",
  "contractName": "FrameFactory",
  "sourceName": "src/contracts/FrameFactory.sol",
  "abi": [
    {
      "anonymous": false,
      "inputs": [
        {
          "indexed": false,
          "internalType": "address",
          "name": "newAddress",
          "type": "address"
        }
      ],
      "name": "FrameFactoryCreated",
      "type": "event"
    },
    {
      "inputs": [],
      "name": "create",
      "outputs": [
        {
          "internalType": "address",
          "name": "",
          "type": "address"
        }
      ],
      "stateMutability": "nonpayable",
      "type": "function"
    },
    {
      "inputs": [],
      "name": "libraryAddress",
      "outputs": [
        {
          "internalType": "address",
          "name": "",
          "type": "address"
        }
      ],
      "stateMutability": "view",
      "type": "function"
    },
    {
      "inputs": [
        {
          "internalType": "address",
          "name": "_libraryAddress",
          "type": "address"
        }
      ],
      "name": "setLibraryAddress",
      "outputs": [],
      "stateMutability": "nonpayable",
      "type": "function"
    }
  ],
  "bytecode": "0x608060405234801561001057600080fd5b506103fd806100206000396000f3fe608060405234801561001057600080fd5b50600436106100415760003560e01c80634863ba1714610046578063b816f51314610062578063efc81a8c14610080575b600080fd5b610060600480360381019061005b91906102cd565b61009e565b005b61006a610170565b6040516100779190610309565b60405180910390f35b610088610194565b6040516100959190610309565b60405180910390f35b600073ffffffffffffffffffffffffffffffffffffffff1660008054906101000a900473ffffffffffffffffffffffffffffffffffffffff1673ffffffffffffffffffffffffffffffffffffffff161461012d576040517f08c379a0000000000000000000000000000000000000000000000000000000008152600401610124906103a7565b60405180910390fd5b806000806101000a81548173ffffffffffffffffffffffffffffffffffffffff021916908373ffffffffffffffffffffffffffffffffffffffff16021790555050565b60008054906101000a900473ffffffffffffffffffffffffffffffffffffffff1681565b6000806101c060008054906101000a900473ffffffffffffffffffffffffffffffffffffffff16610200565b90507ff8fecdf825c6f499a4b0cc5d4924a85a628a57ef4a65a831e7c7f1e6250b2304816040516101f19190610309565b60405180910390a18091505090565b6000808260601b90506040517f3d602d80600a3d3981f3363d3d373d3d3d363d7300000000000000000000000081528160148201527f5af43d82803e903d91602b57fd5bf3000000000000000000000000000000000060288201526037816000f092505050919050565b600080fd5b600073ffffffffffffffffffffffffffffffffffffffff82169050919050565b600061029a8261026f565b9050919050565b6102aa8161028f565b81146102b557600080fd5b50565b6000813590506102c7816102a1565b92915050565b6000602082840312156102e3576102e261026a565b5b60006102f1848285016102b8565b91505092915050565b6103038161028f565b82525050565b600060208201905061031e60008301846102fa565b92915050565b600082825260208201905092915050565b7f536372697074794672616d65466163746f72793a204c69627261727920616c7260008201527f6561647920736574000000000000000000000000000000000000000000000000602082015250565b6000610391602883610324565b915061039c82610335565b604082019050919050565b600060208201905081810360008301526103c081610384565b905091905056fea26469706673582212204edbeff605f4006c37daee78f898e34627b45f3f0e6ba539983ae3947eb3c79d64736f6c63430008110033",
  "linkReferences": {},
  "deployedLinkReferences": {}
}