{
  "_format": "hh-sol-artifact-1",
  "contractName": "FrameFactory",
  "sourceName": "src/contracts/FrameFactory.sol",
  "abi": [
    {
      "inputs": [],
      "stateMutability": "nonpayable",
      "type": "constructor"
    },
    {
      "anonymous": false,
      "inputs": [
        {
          "indexed": false,
          "internalType": "address",
          "name": "newAddress",
          "type": "address"
        }
      ],
      "name": "FrameCreated",
      "type": "event"
    },
    {
      "inputs": [
        {
          "internalType": "contract IFrameDataStoreFactory",
          "name": "_frameDataStoreFactory",
          "type": "address"
        },
        {
          "components": [
            {
              "internalType": "string",
              "name": "wrapperKey",
              "type": "string"
            },
            {
              "internalType": "string",
              "name": "key",
              "type": "string"
            },
            {
              "internalType": "address",
              "name": "wrapperStore",
              "type": "address"
            },
            {
              "internalType": "address",
              "name": "store",
              "type": "address"
            }
          ],
          "internalType": "struct IFrame.Asset[]",
          "name": "_deps",
          "type": "tuple[]"
        },
        {
          "internalType": "bytes[]",
          "name": "_newData",
          "type": "bytes[]"
        },
        {
          "internalType": "address",
          "name": "_pageWrapStore",
          "type": "address"
        },
        {
          "internalType": "uint256[4][]",
          "name": "_renderMap",
          "type": "uint256[4][]"
        },
        {
          "internalType": "string",
          "name": "_name",
          "type": "string"
        }
      ],
      "name": "createFrameWithSource",
      "outputs": [
        {
          "internalType": "address",
          "name": "",
          "type": "address"
        }
      ],
      "stateMutability": "nonpayable",
      "type": "function"
    },
    {
      "inputs": [],
      "name": "libraryAddress",
      "outputs": [
        {
          "internalType": "address",
          "name": "",
          "type": "address"
        }
      ],
      "stateMutability": "view",
      "type": "function"
    },
    {
      "inputs": [
        {
          "internalType": "address",
          "name": "_libraryAddress",
          "type": "address"
        }
      ],
      "name": "setLibraryAddress",
      "outputs": [],
      "stateMutability": "nonpayable",
      "type": "function"
    }
  ],
  "bytecode": "0x608060405234801561001057600080fd5b506112d0806100206000396000f3fe608060405234801561001057600080fd5b50600436106100415760003560e01c80634863ba1714610046578063789b9b4514610062578063b816f51314610092575b600080fd5b610060600480360381019061005b9190610643565b6100b0565b005b61007c60048036038101906100779190610a9b565b610182565b6040516100899190610bb5565b60405180910390f35b61009a610543565b6040516100a79190610bb5565b60405180910390f35b600073ffffffffffffffffffffffffffffffffffffffff1660008054906101000a900473ffffffffffffffffffffffffffffffffffffffff1673ffffffffffffffffffffffffffffffffffffffff161461013f576040517f08c379a000000000000000000000000000000000000000000000000000000000815260040161013690610c53565b60405180910390fd5b806000806101000a81548173ffffffffffffffffffffffffffffffffffffffff021916908373ffffffffffffffffffffffffffffffffffffffff16021790555050565b6000806101ae60008054906101000a900473ffffffffffffffffffffffffffffffffffffffff16610567565b905060008b73ffffffffffffffffffffffffffffffffffffffff1663bdbbea5286866040518363ffffffff1660e01b81526004016101ed929190610cec565b6020604051808303816000875af115801561020c573d6000803e3d6000fd5b505050506040513d601f19601f820116820180604052508101906102309190610d38565b90506000805b8c518110156103b857600073ffffffffffffffffffffffffffffffffffffffff168d828151811061026a57610269610d65565b5b60200260200101516060015173ffffffffffffffffffffffffffffffffffffffff16036103a5578273ffffffffffffffffffffffffffffffffffffffff16636af42a8c8e83815181106102c0576102bf610d65565b5b60200260200101516020015160008f8f878181106102e1576102e0610d65565b5b90506020028101906102f39190610da3565b6040518563ffffffff1660e01b81526004016103129493929190610f13565b600060405180830381600087803b15801561032c57600080fd5b505af1158015610340573d6000803e3d6000fd5b50505050818061034f90610f93565b925050828d828151811061036657610365610d65565b5b60200260200101516060019073ffffffffffffffffffffffffffffffffffffffff16908173ffffffffffffffffffffffffffffffffffffffff16815250505b80806103b090610f93565b915050610236565b508273ffffffffffffffffffffffffffffffffffffffff1663bbb69b968d848c8c8c6040518663ffffffff1660e01b81526004016103fa959493929190611221565b600060405180830381600087803b15801561041457600080fd5b505af1158015610428573d6000803e3d6000fd5b505050508273ffffffffffffffffffffffffffffffffffffffff1663c47f002787876040518363ffffffff1660e01b8152600401610467929190611276565b600060405180830381600087803b15801561048157600080fd5b505af1158015610495573d6000803e3d6000fd5b505050508173ffffffffffffffffffffffffffffffffffffffff1663f83d08ba6040518163ffffffff1660e01b8152600401600060405180830381600087803b1580156104e157600080fd5b505af11580156104f5573d6000803e3d6000fd5b505050507f62392641265fcc5a6a8128fd39634480ffe377e76dc54dcad335e1289fcc0fd5836040516105289190610bb5565b60405180910390a18293505050509998505050505050505050565b60008054906101000a900473ffffffffffffffffffffffffffffffffffffffff1681565b6000808260601b90506040517f3d602d80600a3d3981f3363d3d373d3d3d363d7300000000000000000000000081528160148201527f5af43d82803e903d91602b57fd5bf3000000000000000000000000000000000060288201526037816000f092505050919050565b6000604051905090565b600080fd5b600080fd5b600073ffffffffffffffffffffffffffffffffffffffff82169050919050565b6000610610826105e5565b9050919050565b61062081610605565b811461062b57600080fd5b50565b60008135905061063d81610617565b92915050565b600060208284031215610659576106586105db565b5b60006106678482850161062e565b91505092915050565b600061067b82610605565b9050919050565b61068b81610670565b811461069657600080fd5b50565b6000813590506106a881610682565b92915050565b600080fd5b6000601f19601f8301169050919050565b7f4e487b7100000000000000000000000000000000000000000000000000000000600052604160045260246000fd5b6106fc826106b3565b810181811067ffffffffffffffff8211171561071b5761071a6106c4565b5b80604052505050565b600061072e6105d1565b905061073a82826106f3565b919050565b600067ffffffffffffffff82111561075a576107596106c4565b5b602082029050602081019050919050565b600080fd5b600080fd5b600080fd5b600080fd5b600067ffffffffffffffff82111561079a576107996106c4565b5b6107a3826106b3565b9050602081019050919050565b82818337600083830152505050565b60006107d26107cd8461077f565b610724565b9050828152602081018484840111156107ee576107ed61077a565b5b6107f98482856107b0565b509392505050565b600082601f830112610816576108156106ae565b5b81356108268482602086016107bf565b91505092915050565b60006080828403121561084557610844610770565b5b61084f6080610724565b9050600082013567ffffffffffffffff81111561086f5761086e610775565b5b61087b84828501610801565b600083015250602082013567ffffffffffffffff81111561089f5761089e610775565b5b6108ab84828501610801565b60208301525060406108bf8482850161062e565b60408301525060606108d38482850161062e565b60608301525092915050565b60006108f26108ed8461073f565b610724565b905080838252602082019050602084028301858111156109155761091461076b565b5b835b8181101561095c57803567ffffffffffffffff81111561093a576109396106ae565b5b808601610947898261082f565b85526020850194505050602081019050610917565b5050509392505050565b600082601f83011261097b5761097a6106ae565b5b813561098b8482602086016108df565b91505092915050565b600080fd5b60008083601f8401126109af576109ae6106ae565b5b8235905067ffffffffffffffff8111156109cc576109cb610994565b5b6020830191508360208202830111156109e8576109e761076b565b5b9250929050565b60008083601f840112610a0557610a046106ae565b5b8235905067ffffffffffffffff811115610a2257610a21610994565b5b602083019150836080820283011115610a3e57610a3d61076b565b5b9250929050565b60008083601f840112610a5b57610a5a6106ae565b5b8235905067ffffffffffffffff811115610a7857610a77610994565b5b602083019150836001820283011115610a9457610a9361076b565b5b9250929050565b600080600080600080600080600060c08a8c031215610abd57610abc6105db565b5b6000610acb8c828d01610699565b99505060208a013567ffffffffffffffff811115610aec57610aeb6105e0565b5b610af88c828d01610966565b98505060408a013567ffffffffffffffff811115610b1957610b186105e0565b5b610b258c828d01610999565b97509750506060610b388c828d0161062e565b95505060808a013567ffffffffffffffff811115610b5957610b586105e0565b5b610b658c828d016109ef565b945094505060a08a013567ffffffffffffffff811115610b8857610b876105e0565b5b610b948c828d01610a45565b92509250509295985092959850929598565b610baf81610605565b82525050565b6000602082019050610bca6000830184610ba6565b92915050565b600082825260208201905092915050565b7f4672616d65466163746f72793a204c69627261727920616c726561647920736560008201527f7400000000000000000000000000000000000000000000000000000000000000602082015250565b6000610c3d602183610bd0565b9150610c4882610be1565b604082019050919050565b60006020820190508181036000830152610c6c81610c30565b9050919050565b6000610c7f8385610bd0565b9350610c8c8385846107b0565b610c95836106b3565b840190509392505050565b7f312e302e30000000000000000000000000000000000000000000000000000000600082015250565b6000610cd6600583610bd0565b9150610ce182610ca0565b602082019050919050565b60006040820190508181036000830152610d07818486610c73565b90508181036020830152610d1a81610cc9565b90509392505050565b600081519050610d3281610617565b92915050565b600060208284031215610d4e57610d4d6105db565b5b6000610d5c84828501610d23565b91505092915050565b7f4e487b7100000000000000000000000000000000000000000000000000000000600052603260045260246000fd5b600080fd5b600080fd5b600080fd5b60008083356001602003843603038112610dc057610dbf610d94565b5b80840192508235915067ffffffffffffffff821115610de257610de1610d99565b5b602083019250600182023603831315610dfe57610dfd610d9e565b5b509250929050565b600081519050919050565b60005b83811015610e2f578082015181840152602081019050610e14565b60008484015250505050565b6000610e4682610e06565b610e508185610bd0565b9350610e60818560208601610e11565b610e69816106b3565b840191505092915050565b6000819050919050565b60006fffffffffffffffffffffffffffffffff82169050919050565b6000819050919050565b6000610ebf610eba610eb584610e74565b610e9a565b610e7e565b9050919050565b610ecf81610ea4565b82525050565b600082825260208201905092915050565b6000610ef28385610ed5565b9350610eff8385846107b0565b610f08836106b3565b840190509392505050565b60006060820190508181036000830152610f2d8187610e3b565b9050610f3c6020830186610ec6565b8181036040830152610f4f818486610ee6565b905095945050505050565b7f4e487b7100000000000000000000000000000000000000000000000000000000600052601160045260246000fd5b6000819050919050565b6000610f9e82610f89565b91507fffffffffffffffffffffffffffffffffffffffffffffffffffffffffffffffff8203610fd057610fcf610f5a565b5b600182019050919050565b600081519050919050565b600082825260208201905092915050565b6000819050602082019050919050565b600082825260208201905092915050565b600061102382610e06565b61102d8185611007565b935061103d818560208601610e11565b611046816106b3565b840191505092915050565b61105a81610605565b82525050565b6000608083016000830151848203600086015261107d8282611018565b915050602083015184820360208601526110978282611018565b91505060408301516110ac6040860182611051565b5060608301516110bf6060860182611051565b508091505092915050565b60006110d68383611060565b905092915050565b6000602082019050919050565b60006110f682610fdb565b6111008185610fe6565b93508360208202850161111285610ff7565b8060005b8581101561114e578484038952815161112f85826110ca565b945061113a836110de565b925060208a01995050600181019050611116565b50829750879550505050505092915050565b600082825260208201905092915050565b6000819050919050565b82818337505050565b6111906080838361117b565b5050565b60006111a08383611184565b60808301905092915050565b600082905092915050565b6000608082019050919050565b60006111d08385611160565b93506111db82611171565b8060005b85811015611214576111f182846111ac565b6111fb8882611194565b9750611206836111b7565b9250506001810190506111df565b5085925050509392505050565b6000608082019050818103600083015261123b81886110eb565b905061124a6020830187610ba6565b6112576040830186610ba6565b818103606083015261126a8184866111c4565b90509695505050505050565b60006020820190508181036000830152611291818486610c73565b9050939250505056fea264697066735822122035263f0252c2d121921505397eefe04a2d1bc3909d0afe3008ff9036a79aea5e64736f6c63430008110033",
  "linkReferences": {},
  "deployedLinkReferences": {}
}