{
  "_format": "hh-sol-artifact-1",
  "contractName": "Renderer",
  "sourceName": "src/services/chain-sim/contracts/Render.sol",
  "abi": [
    {
      "inputs": [],
      "stateMutability": "nonpayable",
      "type": "constructor"
    },
    {
      "inputs": [
        {
          "internalType": "uint256",
          "name": "",
          "type": "uint256"
        }
      ],
      "name": "assetList",
      "outputs": [
        {
          "internalType": "string",
          "name": "assetType",
          "type": "string"
        },
        {
          "internalType": "string",
          "name": "key",
          "type": "string"
        },
        {
          "internalType": "uint256",
          "name": "maxPageNumber",
          "type": "uint256"
        }
      ],
      "stateMutability": "view",
      "type": "function"
    },
    {
      "inputs": [
        {
          "internalType": "uint256",
          "name": "",
          "type": "uint256"
        },
        {
          "internalType": "uint256",
          "name": "",
          "type": "uint256"
        }
      ],
      "name": "renderIndex",
      "outputs": [
        {
          "internalType": "uint256",
          "name": "",
          "type": "uint256"
        }
      ],
      "stateMutability": "view",
      "type": "function"
    },
    {
      "inputs": [],
      "name": "renderPagesCount",
      "outputs": [
        {
          "internalType": "uint256",
          "name": "",
          "type": "uint256"
        }
      ],
      "stateMutability": "view",
      "type": "function"
    },
    {
      "inputs": [
        {
          "internalType": "uint256",
          "name": "",
          "type": "uint256"
        }
      ],
      "name": "renderWrapper",
      "outputs": [
        {
          "internalType": "string",
          "name": "",
          "type": "string"
        }
      ],
      "stateMutability": "view",
      "type": "function"
    }
  ],
  "bytecode": "0x608060405260405180602001604052806040518060400160405280600e81526020017f52454e4445525f57524150504552000000000000000000000000000000000000815250815250600090600161005892919061006b565b5034801561006557600080fd5b50610226565b82600281019282156100ad579160200282015b828111156100ac57825182908051906020019061009c9291906100be565b509160200191906001019061007e565b5b5090506100ba9190610144565b5090565b8280546100ca906101f4565b90600052602060002090601f0160209004810192826100ec5760008555610133565b82601f1061010557805160ff1916838001178555610133565b82800160010185558215610133579182015b82811115610132578251825591602001919060010190610117565b5b5090506101409190610168565b5090565b5b80821115610164576000818161015b9190610185565b50600101610145565b5090565b5b80821115610181576000816000905550600101610169565b5090565b508054610191906101f4565b6000825580601f106101a357506101c2565b601f0160209004906000526020600020908101906101c19190610168565b5b50565b7f4e487b7100000000000000000000000000000000000000000000000000000000600052602260045260246000fd5b6000600282049050600182168061020c57607f821691505b602082108114156102205761021f6101c5565b5b50919050565b610575806102356000396000f3fe608060405234801561001057600080fd5b506004361061004c5760003560e01c80636bd4080514610051578063703705131461006f578063a0b4b3011461009f578063ead6d944146100d1575b600080fd5b610059610101565b6040516100669190610325565b60405180910390f35b61008960048036038101906100849190610371565b610107565b6040516100969190610325565b60405180910390f35b6100b960048036038101906100b491906103b1565b61012f565b6040516100c893929190610477565b60405180910390f35b6100eb60048036038101906100e691906103b1565b610269565b6040516100f891906104bc565b60405180910390f35b60035481565b6004602052816000526040600020816004811061012357600080fd5b01600091509150505481565b60026020528060005260406000206000915090508060000180546101529061050d565b80601f016020809104026020016040519081016040528092919081815260200182805461017e9061050d565b80156101cb5780601f106101a0576101008083540402835291602001916101cb565b820191906000526020600020905b8154815290600101906020018083116101ae57829003601f168201915b5050505050908060010180546101e09061050d565b80601f016020809104026020016040519081016040528092919081815260200182805461020c9061050d565b80156102595780601f1061022e57610100808354040283529160200191610259565b820191906000526020600020905b81548152906001019060200180831161023c57829003601f168201915b5050505050908060040154905083565b6000816002811061027957600080fd5b01600091509050805461028b9061050d565b80601f01602080910402602001604051908101604052809291908181526020018280546102b79061050d565b80156103045780601f106102d957610100808354040283529160200191610304565b820191906000526020600020905b8154815290600101906020018083116102e757829003601f168201915b505050505081565b6000819050919050565b61031f8161030c565b82525050565b600060208201905061033a6000830184610316565b92915050565b600080fd5b61034e8161030c565b811461035957600080fd5b50565b60008135905061036b81610345565b92915050565b6000806040838503121561038857610387610340565b5b60006103968582860161035c565b92505060206103a78582860161035c565b9150509250929050565b6000602082840312156103c7576103c6610340565b5b60006103d58482850161035c565b91505092915050565b600081519050919050565b600082825260208201905092915050565b60005b838110156104185780820151818401526020810190506103fd565b83811115610427576000848401525b50505050565b6000601f19601f8301169050919050565b6000610449826103de565b61045381856103e9565b93506104638185602086016103fa565b61046c8161042d565b840191505092915050565b60006060820190508181036000830152610491818661043e565b905081810360208301526104a5818561043e565b90506104b46040830184610316565b949350505050565b600060208201905081810360008301526104d6818461043e565b905092915050565b7f4e487b7100000000000000000000000000000000000000000000000000000000600052602260045260246000fd5b6000600282049050600182168061052557607f821691505b60208210811415610539576105386104de565b5b5091905056fea2646970667358221220fb939afb7bdb40280f7c3e6bda76d72e7e884abe3e0f17cfd9f5a5951b3f409064736f6c634300080c0033",
  "linkReferences": {},
  "deployedLinkReferences": {}
}