{
  "_format": "hh-sol-artifact-1",
  "contractName": "FileStore",
  "sourceName": "src/contracts/libs/ethfs/FileStore.sol",
  "abi": [
    {
      "inputs": [
        {
          "internalType": "contract IContentStore",
          "name": "_contentStore",
          "type": "address"
        }
      ],
      "stateMutability": "nonpayable",
      "type": "constructor"
    },
    {
      "inputs": [],
      "name": "EmptyFile",
      "type": "error"
    },
    {
      "inputs": [
        {
          "internalType": "string",
          "name": "filename",
          "type": "string"
        }
      ],
      "name": "FileNotFound",
      "type": "error"
    },
    {
      "inputs": [
        {
          "internalType": "string",
          "name": "filename",
          "type": "string"
        }
      ],
      "name": "FilenameExists",
      "type": "error"
    },
    {
      "anonymous": false,
      "inputs": [
        {
          "indexed": true,
          "internalType": "string",
          "name": "indexedFilename",
          "type": "string"
        },
        {
          "indexed": true,
          "internalType": "bytes32",
          "name": "checksum",
          "type": "bytes32"
        },
        {
          "indexed": false,
          "internalType": "string",
          "name": "filename",
          "type": "string"
        },
        {
          "indexed": false,
          "internalType": "uint256",
          "name": "size",
          "type": "uint256"
        },
        {
          "indexed": false,
          "internalType": "bytes",
          "name": "metadata",
          "type": "bytes"
        }
      ],
      "name": "FileCreated",
      "type": "event"
    },
    {
      "anonymous": false,
      "inputs": [
        {
          "indexed": true,
          "internalType": "string",
          "name": "indexedFilename",
          "type": "string"
        },
        {
          "indexed": true,
          "internalType": "bytes32",
          "name": "checksum",
          "type": "bytes32"
        },
        {
          "indexed": false,
          "internalType": "string",
          "name": "filename",
          "type": "string"
        }
      ],
      "name": "FileDeleted",
      "type": "event"
    },
    {
      "anonymous": false,
      "inputs": [
        {
          "indexed": true,
          "internalType": "address",
          "name": "previousOwner",
          "type": "address"
        },
        {
          "indexed": true,
          "internalType": "address",
          "name": "newOwner",
          "type": "address"
        }
      ],
      "name": "OwnershipTransferStarted",
      "type": "event"
    },
    {
      "anonymous": false,
      "inputs": [
        {
          "indexed": true,
          "internalType": "address",
          "name": "previousOwner",
          "type": "address"
        },
        {
          "indexed": true,
          "internalType": "address",
          "name": "newOwner",
          "type": "address"
        }
      ],
      "name": "OwnershipTransferred",
      "type": "event"
    },
    {
      "inputs": [],
      "name": "acceptOwnership",
      "outputs": [],
      "stateMutability": "nonpayable",
      "type": "function"
    },
    {
      "inputs": [],
      "name": "contentStore",
      "outputs": [
        {
          "internalType": "contract IContentStore",
          "name": "",
          "type": "address"
        }
      ],
      "stateMutability": "view",
      "type": "function"
    },
    {
      "inputs": [
        {
          "internalType": "string",
          "name": "filename",
          "type": "string"
        },
        {
          "internalType": "bytes32[]",
          "name": "checksums",
          "type": "bytes32[]"
        }
      ],
      "name": "createFile",
      "outputs": [
        {
          "components": [
            {
              "internalType": "uint256",
              "name": "size",
              "type": "uint256"
            },
            {
              "components": [
                {
                  "internalType": "bytes32",
                  "name": "checksum",
                  "type": "bytes32"
                },
                {
                  "internalType": "address",
                  "name": "pointer",
                  "type": "address"
                }
              ],
              "internalType": "struct Content[]",
              "name": "contents",
              "type": "tuple[]"
            }
          ],
          "internalType": "struct File",
          "name": "file",
          "type": "tuple"
        }
      ],
      "stateMutability": "nonpayable",
      "type": "function"
    },
    {
      "inputs": [
        {
          "internalType": "string",
          "name": "filename",
          "type": "string"
        },
        {
          "internalType": "bytes32[]",
          "name": "checksums",
          "type": "bytes32[]"
        },
        {
          "internalType": "bytes",
          "name": "extraData",
          "type": "bytes"
        }
      ],
      "name": "createFile",
      "outputs": [
        {
          "components": [
            {
              "internalType": "uint256",
              "name": "size",
              "type": "uint256"
            },
            {
              "components": [
                {
                  "internalType": "bytes32",
                  "name": "checksum",
                  "type": "bytes32"
                },
                {
                  "internalType": "address",
                  "name": "pointer",
                  "type": "address"
                }
              ],
              "internalType": "struct Content[]",
              "name": "contents",
              "type": "tuple[]"
            }
          ],
          "internalType": "struct File",
          "name": "file",
          "type": "tuple"
        }
      ],
      "stateMutability": "nonpayable",
      "type": "function"
    },
    {
      "inputs": [
        {
          "internalType": "string",
          "name": "filename",
          "type": "string"
        }
      ],
      "name": "deleteFile",
      "outputs": [],
      "stateMutability": "nonpayable",
      "type": "function"
    },
    {
      "inputs": [
        {
          "internalType": "string",
          "name": "filename",
          "type": "string"
        }
      ],
      "name": "fileExists",
      "outputs": [
        {
          "internalType": "bool",
          "name": "",
          "type": "bool"
        }
      ],
      "stateMutability": "view",
      "type": "function"
    },
    {
      "inputs": [
        {
          "internalType": "string",
          "name": "",
          "type": "string"
        }
      ],
      "name": "files",
      "outputs": [
        {
          "internalType": "bytes32",
          "name": "",
          "type": "bytes32"
        }
      ],
      "stateMutability": "view",
      "type": "function"
    },
    {
      "inputs": [
        {
          "internalType": "string",
          "name": "filename",
          "type": "string"
        }
      ],
      "name": "getChecksum",
      "outputs": [
        {
          "internalType": "bytes32",
          "name": "checksum",
          "type": "bytes32"
        }
      ],
      "stateMutability": "view",
      "type": "function"
    },
    {
      "inputs": [
        {
          "internalType": "string",
          "name": "filename",
          "type": "string"
        }
      ],
      "name": "getFile",
      "outputs": [
        {
          "components": [
            {
              "internalType": "uint256",
              "name": "size",
              "type": "uint256"
            },
            {
              "components": [
                {
                  "internalType": "bytes32",
                  "name": "checksum",
                  "type": "bytes32"
                },
                {
                  "internalType": "address",
                  "name": "pointer",
                  "type": "address"
                }
              ],
              "internalType": "struct Content[]",
              "name": "contents",
              "type": "tuple[]"
            }
          ],
          "internalType": "struct File",
          "name": "file",
          "type": "tuple"
        }
      ],
      "stateMutability": "view",
      "type": "function"
    },
    {
      "inputs": [],
      "name": "owner",
      "outputs": [
        {
          "internalType": "address",
          "name": "",
          "type": "address"
        }
      ],
      "stateMutability": "view",
      "type": "function"
    },
    {
      "inputs": [],
      "name": "pendingOwner",
      "outputs": [
        {
          "internalType": "address",
          "name": "",
          "type": "address"
        }
      ],
      "stateMutability": "view",
      "type": "function"
    },
    {
      "inputs": [],
      "name": "renounceOwnership",
      "outputs": [],
      "stateMutability": "nonpayable",
      "type": "function"
    },
    {
      "inputs": [
        {
          "internalType": "address",
          "name": "newOwner",
          "type": "address"
        }
      ],
      "name": "transferOwnership",
      "outputs": [],
      "stateMutability": "nonpayable",
      "type": "function"
    }
  ],
  "bytecode": "0x60a06040523480156200001157600080fd5b5060405162001f1138038062001f1183398181016040528101906200003791906200021a565b620000576200004b6200009260201b60201c565b6200009a60201b60201c565b8073ffffffffffffffffffffffffffffffffffffffff1660808173ffffffffffffffffffffffffffffffffffffffff1681525050506200024c565b600033905090565b600160006101000a81549073ffffffffffffffffffffffffffffffffffffffff0219169055620000d581620000d860201b6200089f1760201c565b50565b60008060009054906101000a900473ffffffffffffffffffffffffffffffffffffffff169050816000806101000a81548173ffffffffffffffffffffffffffffffffffffffff021916908373ffffffffffffffffffffffffffffffffffffffff1602179055508173ffffffffffffffffffffffffffffffffffffffff168173ffffffffffffffffffffffffffffffffffffffff167f8be0079c531659141344cd1fd0a4f28419497f9722a3daafe3b4186f6b6457e060405160405180910390a35050565b600080fd5b600073ffffffffffffffffffffffffffffffffffffffff82169050919050565b6000620001ce82620001a1565b9050919050565b6000620001e282620001c1565b9050919050565b620001f481620001d5565b81146200020057600080fd5b50565b6000815190506200021481620001e9565b92915050565b6000602082840312156200023357620002326200019c565b5b6000620002438482850162000203565b91505092915050565b608051611c8d62000284600039600081816103040152818161066a01528181610a8a01528181610b760152610cc60152611c8d6000f3fe608060405234801561001057600080fd5b50600436106100cf5760003560e01c80639bccd6ad1161008c578063e0876aa811610066578063e0876aa814610200578063e30c397814610230578063e77557611461024e578063f2fde38b1461027e576100cf565b80639bccd6ad14610184578063a52e640e146101b4578063a9910054146101e4576100cf565b80631eb8bc4e146100d45780633a6e674c14610104578063715018a61461012257806379ba50971461012c5780638da5cb5b146101365780639720799214610154575b600080fd5b6100ee60048036038101906100e991906110f2565b61029a565b6040516100fb91906112ee565b60405180910390f35b61010c610302565b604051610119919061136f565b60405180910390f35b61012a610326565b005b61013461033a565b005b61013e6103c7565b60405161014b9190611399565b60405180910390f35b61016e60048036038101906101699190611455565b6103f0565b60405161017b91906112ee565b60405180910390f35b61019e600480360381019061019991906114fc565b610471565b6040516101ab9190611560565b60405180910390f35b6101ce60048036038101906101c991906114fc565b61049f565b6040516101db919061158a565b60405180910390f35b6101fe60048036038101906101f991906114fc565b61050e565b005b61021a600480360381019061021591906114fc565b6105f4565b60405161022791906112ee565b60405180910390f35b61023861079a565b6040516102459190611399565b60405180910390f35b610268600480360381019061026391906114fc565b6107c4565b604051610275919061158a565b60405180910390f35b610298600480360381019061029391906115d1565b6107f2565b005b6102a2610e4d565b6102fa8383600067ffffffffffffffff8111156102c2576102c1610ec9565b5b6040519080825280601f01601f1916602001820160405280156102f45781602001600182028036833780820191505090505b506103f0565b905092915050565b7f000000000000000000000000000000000000000000000000000000000000000081565b61032e610963565b61033860006109e1565b565b6000610344610a12565b90508073ffffffffffffffffffffffffffffffffffffffff1661036561079a565b73ffffffffffffffffffffffffffffffffffffffff16146103bb576040517f08c379a00000000000000000000000000000000000000000000000000000000081526004016103b290611681565b60405180910390fd5b6103c4816109e1565b50565b60008060009054906101000a900473ffffffffffffffffffffffffffffffffffffffff16905090565b6103f8610e4d565b6000801b60028560405161040c9190611712565b9081526020016040518091039020541461045d57836040517f30add8a00000000000000000000000000000000000000000000000000000000081526004016104549190611762565b60405180910390fd5b610468848484610a1a565b90509392505050565b60008060001b6002836040516104879190611712565b90815260200160405180910390205414159050919050565b60006002826040516104b19190611712565b90815260200160405180910390205490506000801b810361050957816040517f5aeb32f80000000000000000000000000000000000000000000000000000000081526004016105009190611762565b60405180910390fd5b919050565b610516610963565b60006002826040516105289190611712565b90815260200160405180910390205490506000801b810361058057816040517f5aeb32f80000000000000000000000000000000000000000000000000000000081526004016105779190611762565b60405180910390fd5b6002826040516105909190611712565b90815260200160405180910390206000905580826040516105b19190611712565b60405180910390207f049d33e2ff016446d304c7c9f197f7112de9a3b3134df07ca017294a25a4e461846040516105e89190611762565b60405180910390a35050565b6105fc610e4d565b600060028360405161060e9190611712565b90815260200160405180910390205490506000801b810361066657826040517f5aeb32f800000000000000000000000000000000000000000000000000000000815260040161065d9190611762565b60405180910390fd5b60007f000000000000000000000000000000000000000000000000000000000000000073ffffffffffffffffffffffffffffffffffffffff16631bf226ac836040518263ffffffff1660e01b81526004016106c1919061158a565b602060405180830381865afa1580156106de573d6000803e3d6000fd5b505050506040513d601f19601f820116820180604052508101906107029190611799565b9050600073ffffffffffffffffffffffffffffffffffffffff168173ffffffffffffffffffffffffffffffffffffffff160361077557836040517f5aeb32f800000000000000000000000000000000000000000000000000000000815260040161076c9190611762565b60405180910390fd5b61077e81610e04565b8060200190518101906107919190611990565b92505050919050565b6000600160009054906101000a900473ffffffffffffffffffffffffffffffffffffffff16905090565b6002818051602081018201805184825260208301602085012081835280955050505050506000915090505481565b6107fa610963565b80600160006101000a81548173ffffffffffffffffffffffffffffffffffffffff021916908373ffffffffffffffffffffffffffffffffffffffff1602179055508073ffffffffffffffffffffffffffffffffffffffff1661085a6103c7565b73ffffffffffffffffffffffffffffffffffffffff167f38d16b8cac22d99fc7c124b9cd0de2d3fa1faef420bfe791d8c362d765e2270060405160405180910390a350565b60008060009054906101000a900473ffffffffffffffffffffffffffffffffffffffff169050816000806101000a81548173ffffffffffffffffffffffffffffffffffffffff021916908373ffffffffffffffffffffffffffffffffffffffff1602179055508173ffffffffffffffffffffffffffffffffffffffff168173ffffffffffffffffffffffffffffffffffffffff167f8be0079c531659141344cd1fd0a4f28419497f9722a3daafe3b4186f6b6457e060405160405180910390a35050565b61096b610a12565b73ffffffffffffffffffffffffffffffffffffffff166109896103c7565b73ffffffffffffffffffffffffffffffffffffffff16146109df576040517f08c379a00000000000000000000000000000000000000000000000000000000081526004016109d690611a25565b60405180910390fd5b565b600160006101000a81549073ffffffffffffffffffffffffffffffffffffffff0219169055610a0f8161089f565b50565b600033905090565b610a22610e4d565b6000835167ffffffffffffffff811115610a3f57610a3e610ec9565b5b604051908082528060200260200182016040528015610a7857816020015b610a65610e67565b815260200190600190039081610a5d5790505b5090506000805b8551811015610c70577f000000000000000000000000000000000000000000000000000000000000000073ffffffffffffffffffffffffffffffffffffffff166331654b09878381518110610ad757610ad6611a45565b5b60200260200101516040518263ffffffff1660e01b8152600401610afb919061158a565b602060405180830381865afa158015610b18573d6000803e3d6000fd5b505050506040513d601f19601f82011682018060405250810190610b3c9190611a74565b82610b479190611ad0565b91506040518060400160405280878381518110610b6757610b66611a45565b5b602002602001015181526020017f000000000000000000000000000000000000000000000000000000000000000073ffffffffffffffffffffffffffffffffffffffff16634641dce6898581518110610bc357610bc2611a45565b5b60200260200101516040518263ffffffff1660e01b8152600401610be7919061158a565b602060405180830381865afa158015610c04573d6000803e3d6000fd5b505050506040513d601f19601f82011682018060405250810190610c289190611799565b73ffffffffffffffffffffffffffffffffffffffff16815250838281518110610c5457610c53611a45565b5b602002602001018190525080610c6990611b04565b9050610a7f565b5060008103610cab576040517f067b6a0f00000000000000000000000000000000000000000000000000000000815260040160405180910390fd5b604051806040016040528082815260200183815250925060007f000000000000000000000000000000000000000000000000000000000000000073ffffffffffffffffffffffffffffffffffffffff1663093e983985604051602001610d1191906112ee565b6040516020818303038152906040526040518263ffffffff1660e01b8152600401610d3c9190611ba1565b60408051808303816000875af1158015610d5a573d6000803e3d6000fd5b505050506040513d601f19601f82011682018060405250810190610d7e9190611bc3565b50905080600288604051610d929190611712565b9081526020016040518091039020819055508087604051610db39190611712565b60405180910390207fbf4d3dad9eb190a395deec4f74f993087bfb5df21ff6c0e1403ec61042090c2d89876000015189604051610df293929190611c12565b60405180910390a35050509392505050565b6060813b80610e1b576311052bb46000526004601cfd5b60018103604051925061ffe0603f820116830160405280835260008160208501015280600160208501863c5050919050565b604051806040016040528060008152602001606081525090565b604051806040016040528060008019168152602001600073ffffffffffffffffffffffffffffffffffffffff1681525090565b6000604051905090565b600080fd5b600080fd5b600080fd5b600080fd5b6000601f19601f8301169050919050565b7f4e487b7100000000000000000000000000000000000000000000000000000000600052604160045260246000fd5b610f0182610eb8565b810181811067ffffffffffffffff82111715610f2057610f1f610ec9565b5b80604052505050565b6000610f33610e9a565b9050610f3f8282610ef8565b919050565b600067ffffffffffffffff821115610f5f57610f5e610ec9565b5b610f6882610eb8565b9050602081019050919050565b82818337600083830152505050565b6000610f97610f9284610f44565b610f29565b905082815260208101848484011115610fb357610fb2610eb3565b5b610fbe848285610f75565b509392505050565b600082601f830112610fdb57610fda610eae565b5b8135610feb848260208601610f84565b91505092915050565b600067ffffffffffffffff82111561100f5761100e610ec9565b5b602082029050602081019050919050565b600080fd5b6000819050919050565b61103881611025565b811461104357600080fd5b50565b6000813590506110558161102f565b92915050565b600061106e61106984610ff4565b610f29565b9050808382526020820190506020840283018581111561109157611090611020565b5b835b818110156110ba57806110a68882611046565b845260208401935050602081019050611093565b5050509392505050565b600082601f8301126110d9576110d8610eae565b5b81356110e984826020860161105b565b91505092915050565b6000806040838503121561110957611108610ea4565b5b600083013567ffffffffffffffff81111561112757611126610ea9565b5b61113385828601610fc6565b925050602083013567ffffffffffffffff81111561115457611153610ea9565b5b611160858286016110c4565b9150509250929050565b6000819050919050565b61117d8161116a565b82525050565b600081519050919050565b600082825260208201905092915050565b6000819050602082019050919050565b6111b881611025565b82525050565b600073ffffffffffffffffffffffffffffffffffffffff82169050919050565b60006111e9826111be565b9050919050565b6111f9816111de565b82525050565b60408201600082015161121560008501826111af565b50602082015161122860208501826111f0565b50505050565b600061123a83836111ff565b60408301905092915050565b6000602082019050919050565b600061125e82611183565b611268818561118e565b93506112738361119f565b8060005b838110156112a457815161128b888261122e565b975061129683611246565b925050600181019050611277565b5085935050505092915050565b60006040830160008301516112c96000860182611174565b50602083015184820360208601526112e18282611253565b9150508091505092915050565b6000602082019050818103600083015261130881846112b1565b905092915050565b6000819050919050565b600061133561133061132b846111be565b611310565b6111be565b9050919050565b60006113478261131a565b9050919050565b60006113598261133c565b9050919050565b6113698161134e565b82525050565b60006020820190506113846000830184611360565b92915050565b611393816111de565b82525050565b60006020820190506113ae600083018461138a565b92915050565b600067ffffffffffffffff8211156113cf576113ce610ec9565b5b6113d882610eb8565b9050602081019050919050565b60006113f86113f3846113b4565b610f29565b90508281526020810184848401111561141457611413610eb3565b5b61141f848285610f75565b509392505050565b600082601f83011261143c5761143b610eae565b5b813561144c8482602086016113e5565b91505092915050565b60008060006060848603121561146e5761146d610ea4565b5b600084013567ffffffffffffffff81111561148c5761148b610ea9565b5b61149886828701610fc6565b935050602084013567ffffffffffffffff8111156114b9576114b8610ea9565b5b6114c5868287016110c4565b925050604084013567ffffffffffffffff8111156114e6576114e5610ea9565b5b6114f286828701611427565b9150509250925092565b60006020828403121561151257611511610ea4565b5b600082013567ffffffffffffffff8111156115305761152f610ea9565b5b61153c84828501610fc6565b91505092915050565b60008115159050919050565b61155a81611545565b82525050565b60006020820190506115756000830184611551565b92915050565b61158481611025565b82525050565b600060208201905061159f600083018461157b565b92915050565b6115ae816111de565b81146115b957600080fd5b50565b6000813590506115cb816115a5565b92915050565b6000602082840312156115e7576115e6610ea4565b5b60006115f5848285016115bc565b91505092915050565b600082825260208201905092915050565b7f4f776e61626c6532537465703a2063616c6c6572206973206e6f74207468652060008201527f6e6577206f776e65720000000000000000000000000000000000000000000000602082015250565b600061166b6029836115fe565b91506116768261160f565b604082019050919050565b6000602082019050818103600083015261169a8161165e565b9050919050565b600081519050919050565b600081905092915050565b60005b838110156116d55780820151818401526020810190506116ba565b60008484015250505050565b60006116ec826116a1565b6116f681856116ac565b93506117068185602086016116b7565b80840191505092915050565b600061171e82846116e1565b915081905092915050565b6000611734826116a1565b61173e81856115fe565b935061174e8185602086016116b7565b61175781610eb8565b840191505092915050565b6000602082019050818103600083015261177c8184611729565b905092915050565b600081519050611793816115a5565b92915050565b6000602082840312156117af576117ae610ea4565b5b60006117bd84828501611784565b91505092915050565b600080fd5b600080fd5b6117d98161116a565b81146117e457600080fd5b50565b6000815190506117f6816117d0565b92915050565b600067ffffffffffffffff82111561181757611816610ec9565b5b602082029050602081019050919050565b6000815190506118378161102f565b92915050565b600060408284031215611853576118526117c6565b5b61185d6040610f29565b9050600061186d84828501611828565b600083015250602061188184828501611784565b60208301525092915050565b60006118a061189b846117fc565b610f29565b905080838252602082019050604084028301858111156118c3576118c2611020565b5b835b818110156118ec57806118d8888261183d565b8452602084019350506040810190506118c5565b5050509392505050565b600082601f83011261190b5761190a610eae565b5b815161191b84826020860161188d565b91505092915050565b60006040828403121561193a576119396117c6565b5b6119446040610f29565b90506000611954848285016117e7565b600083015250602082015167ffffffffffffffff811115611978576119776117cb565b5b611984848285016118f6565b60208301525092915050565b6000602082840312156119a6576119a5610ea4565b5b600082015167ffffffffffffffff8111156119c4576119c3610ea9565b5b6119d084828501611924565b91505092915050565b7f4f776e61626c653a2063616c6c6572206973206e6f7420746865206f776e6572600082015250565b6000611a0f6020836115fe565b9150611a1a826119d9565b602082019050919050565b60006020820190508181036000830152611a3e81611a02565b9050919050565b7f4e487b7100000000000000000000000000000000000000000000000000000000600052603260045260246000fd5b600060208284031215611a8a57611a89610ea4565b5b6000611a98848285016117e7565b91505092915050565b7f4e487b7100000000000000000000000000000000000000000000000000000000600052601160045260246000fd5b6000611adb8261116a565b9150611ae68361116a565b9250828201905080821115611afe57611afd611aa1565b5b92915050565b6000611b0f8261116a565b91507fffffffffffffffffffffffffffffffffffffffffffffffffffffffffffffffff8203611b4157611b40611aa1565b5b600182019050919050565b600081519050919050565b600082825260208201905092915050565b6000611b7382611b4c565b611b7d8185611b57565b9350611b8d8185602086016116b7565b611b9681610eb8565b840191505092915050565b60006020820190508181036000830152611bbb8184611b68565b905092915050565b60008060408385031215611bda57611bd9610ea4565b5b6000611be885828601611828565b9250506020611bf985828601611784565b9150509250929050565b611c0c8161116a565b82525050565b60006060820190508181036000830152611c2c8186611729565b9050611c3b6020830185611c03565b8181036040830152611c4d8184611b68565b905094935050505056fea2646970667358221220ed6e906dfe844b95fe51ac5fad4da1931090e0ba3b4a3f6133c3a9a649b4daec64736f6c63430008110033",
  "linkReferences": {},
  "deployedLinkReferences": {}
}