{
  "_format": "hh-sol-artifact-1",
  "contractName": "ScriptyFrame",
  "sourceName": "src/contracts/ScriptyFrame.sol",
  "abi": [
    {
      "inputs": [
        {
          "internalType": "address",
          "name": "_scriptyStorageAddress",
          "type": "address"
        },
        {
          "internalType": "address",
          "name": "_scriptyBuilderAddress",
          "type": "address"
        },
        {
          "internalType": "uint256",
          "name": "_bufferSize",
          "type": "uint256"
        },
        {
          "components": [
            {
              "internalType": "string",
              "name": "name",
              "type": "string"
            },
            {
              "internalType": "address",
              "name": "contractAddress",
              "type": "address"
            },
            {
              "internalType": "bytes",
              "name": "contractData",
              "type": "bytes"
            },
            {
              "internalType": "uint8",
              "name": "wrapType",
              "type": "uint8"
            },
            {
              "internalType": "bytes",
              "name": "wrapPrefix",
              "type": "bytes"
            },
            {
              "internalType": "bytes",
              "name": "wrapSuffix",
              "type": "bytes"
            },
            {
              "internalType": "bytes",
              "name": "scriptContent",
              "type": "bytes"
            }
          ],
          "internalType": "struct WrappedScriptRequest[]",
          "name": "_requests",
          "type": "tuple[]"
        }
      ],
      "stateMutability": "nonpayable",
      "type": "constructor"
    },
    {
      "anonymous": false,
      "inputs": [
        {
          "indexed": true,
          "internalType": "address",
          "name": "owner",
          "type": "address"
        },
        {
          "indexed": true,
          "internalType": "address",
          "name": "approved",
          "type": "address"
        },
        {
          "indexed": true,
          "internalType": "uint256",
          "name": "tokenId",
          "type": "uint256"
        }
      ],
      "name": "Approval",
      "type": "event"
    },
    {
      "anonymous": false,
      "inputs": [
        {
          "indexed": true,
          "internalType": "address",
          "name": "owner",
          "type": "address"
        },
        {
          "indexed": true,
          "internalType": "address",
          "name": "operator",
          "type": "address"
        },
        {
          "indexed": false,
          "internalType": "bool",
          "name": "approved",
          "type": "bool"
        }
      ],
      "name": "ApprovalForAll",
      "type": "event"
    },
    {
      "anonymous": false,
      "inputs": [
        {
          "indexed": true,
          "internalType": "address",
          "name": "from",
          "type": "address"
        },
        {
          "indexed": true,
          "internalType": "address",
          "name": "to",
          "type": "address"
        },
        {
          "indexed": true,
          "internalType": "uint256",
          "name": "tokenId",
          "type": "uint256"
        }
      ],
      "name": "Transfer",
      "type": "event"
    },
    {
      "inputs": [
        {
          "internalType": "address",
          "name": "to",
          "type": "address"
        },
        {
          "internalType": "uint256",
          "name": "tokenId",
          "type": "uint256"
        }
      ],
      "name": "approve",
      "outputs": [],
      "stateMutability": "nonpayable",
      "type": "function"
    },
    {
      "inputs": [
        {
          "internalType": "address",
          "name": "owner",
          "type": "address"
        }
      ],
      "name": "balanceOf",
      "outputs": [
        {
          "internalType": "uint256",
          "name": "",
          "type": "uint256"
        }
      ],
      "stateMutability": "view",
      "type": "function"
    },
    {
      "inputs": [],
      "name": "bufferSize",
      "outputs": [
        {
          "internalType": "uint256",
          "name": "",
          "type": "uint256"
        }
      ],
      "stateMutability": "view",
      "type": "function"
    },
    {
      "inputs": [
        {
          "internalType": "uint256",
          "name": "tokenId",
          "type": "uint256"
        }
      ],
      "name": "getApproved",
      "outputs": [
        {
          "internalType": "address",
          "name": "",
          "type": "address"
        }
      ],
      "stateMutability": "view",
      "type": "function"
    },
    {
      "inputs": [
        {
          "internalType": "address",
          "name": "owner",
          "type": "address"
        },
        {
          "internalType": "address",
          "name": "operator",
          "type": "address"
        }
      ],
      "name": "isApprovedForAll",
      "outputs": [
        {
          "internalType": "bool",
          "name": "",
          "type": "bool"
        }
      ],
      "stateMutability": "view",
      "type": "function"
    },
    {
      "inputs": [],
      "name": "name",
      "outputs": [
        {
          "internalType": "string",
          "name": "",
          "type": "string"
        }
      ],
      "stateMutability": "view",
      "type": "function"
    },
    {
      "inputs": [
        {
          "internalType": "uint256",
          "name": "tokenId",
          "type": "uint256"
        }
      ],
      "name": "ownerOf",
      "outputs": [
        {
          "internalType": "address",
          "name": "",
          "type": "address"
        }
      ],
      "stateMutability": "view",
      "type": "function"
    },
    {
      "inputs": [
        {
          "internalType": "uint256",
          "name": "",
          "type": "uint256"
        }
      ],
      "name": "requests",
      "outputs": [
        {
          "internalType": "string",
          "name": "name",
          "type": "string"
        },
        {
          "internalType": "address",
          "name": "contractAddress",
          "type": "address"
        },
        {
          "internalType": "bytes",
          "name": "contractData",
          "type": "bytes"
        },
        {
          "internalType": "uint8",
          "name": "wrapType",
          "type": "uint8"
        },
        {
          "internalType": "bytes",
          "name": "wrapPrefix",
          "type": "bytes"
        },
        {
          "internalType": "bytes",
          "name": "wrapSuffix",
          "type": "bytes"
        },
        {
          "internalType": "bytes",
          "name": "scriptContent",
          "type": "bytes"
        }
      ],
      "stateMutability": "view",
      "type": "function"
    },
    {
      "inputs": [
        {
          "internalType": "address",
          "name": "from",
          "type": "address"
        },
        {
          "internalType": "address",
          "name": "to",
          "type": "address"
        },
        {
          "internalType": "uint256",
          "name": "tokenId",
          "type": "uint256"
        }
      ],
      "name": "safeTransferFrom",
      "outputs": [],
      "stateMutability": "nonpayable",
      "type": "function"
    },
    {
      "inputs": [
        {
          "internalType": "address",
          "name": "from",
          "type": "address"
        },
        {
          "internalType": "address",
          "name": "to",
          "type": "address"
        },
        {
          "internalType": "uint256",
          "name": "tokenId",
          "type": "uint256"
        },
        {
          "internalType": "bytes",
          "name": "data",
          "type": "bytes"
        }
      ],
      "name": "safeTransferFrom",
      "outputs": [],
      "stateMutability": "nonpayable",
      "type": "function"
    },
    {
      "inputs": [],
      "name": "scriptyBuilderAddress",
      "outputs": [
        {
          "internalType": "address",
          "name": "",
          "type": "address"
        }
      ],
      "stateMutability": "view",
      "type": "function"
    },
    {
      "inputs": [],
      "name": "scriptyStorageAddress",
      "outputs": [
        {
          "internalType": "address",
          "name": "",
          "type": "address"
        }
      ],
      "stateMutability": "view",
      "type": "function"
    },
    {
      "inputs": [
        {
          "internalType": "address",
          "name": "operator",
          "type": "address"
        },
        {
          "internalType": "bool",
          "name": "approved",
          "type": "bool"
        }
      ],
      "name": "setApprovalForAll",
      "outputs": [],
      "stateMutability": "nonpayable",
      "type": "function"
    },
    {
      "inputs": [
        {
          "internalType": "bytes4",
          "name": "interfaceId",
          "type": "bytes4"
        }
      ],
      "name": "supportsInterface",
      "outputs": [
        {
          "internalType": "bool",
          "name": "",
          "type": "bool"
        }
      ],
      "stateMutability": "view",
      "type": "function"
    },
    {
      "inputs": [],
      "name": "symbol",
      "outputs": [
        {
          "internalType": "string",
          "name": "",
          "type": "string"
        }
      ],
      "stateMutability": "view",
      "type": "function"
    },
    {
      "inputs": [
        {
          "internalType": "uint256",
          "name": "",
          "type": "uint256"
        }
      ],
      "name": "tokenURI",
      "outputs": [
        {
          "internalType": "string",
          "name": "",
          "type": "string"
        }
      ],
      "stateMutability": "view",
      "type": "function"
    },
    {
      "inputs": [],
      "name": "tokenURI_ForGasTest",
      "outputs": [],
      "stateMutability": "nonpayable",
      "type": "function"
    },
    {
      "inputs": [
        {
          "internalType": "address",
          "name": "from",
          "type": "address"
        },
        {
          "internalType": "address",
          "name": "to",
          "type": "address"
        },
        {
          "internalType": "uint256",
          "name": "tokenId",
          "type": "uint256"
        }
      ],
      "name": "transferFrom",
      "outputs": [],
      "stateMutability": "nonpayable",
      "type": "function"
    }
  ],
  "bytecode": "0x60e06040523480156200001157600080fd5b50604051620044b4380380620044b4833981810160405281019062000037919062000eaa565b6040518060400160405280600581526020017f6672616d650000000000000000000000000000000000000000000000000000008152506040518060400160405280600381526020017f46524d00000000000000000000000000000000000000000000000000000000008152508160009081620000b491906200117c565b508060019081620000c691906200117c565b5050508373ffffffffffffffffffffffffffffffffffffffff1660808173ffffffffffffffffffffffffffffffffffffffff16815250508273ffffffffffffffffffffffffffffffffffffffff1660a08173ffffffffffffffffffffffffffffffffffffffff16815250508160c0818152505060005b600680549050811015620002865781818151811062000160576200015f62001263565b5b6020026020010151600682815481106200017f576200017e62001263565b5b90600052602060002090600702016000820151816000019081620001a491906200117c565b5060208201518160010160006101000a81548173ffffffffffffffffffffffffffffffffffffffff021916908373ffffffffffffffffffffffffffffffffffffffff160217905550604082015181600201908162000203919062001302565b5060608201518160030160006101000a81548160ff021916908360ff16021790555060808201518160040190816200023c919062001302565b5060a082015181600501908162000254919062001302565b5060c08201518160060190816200026c919062001302565b5090505080806200027d9062001418565b9150506200013c565b5062000297620002a160201b60201c565b50505050620017bf565b620002b4336000620002b660201b60201c565b565b620002d8828260405180602001604052806000815250620002dc60201b60201c565b5050565b620002ee83836200034a60201b60201c565b6200030360008484846200059060201b60201c565b62000345576040517f08c379a00000000000000000000000000000000000000000000000000000000081526004016200033c90620014ec565b60405180910390fd5b505050565b600073ffffffffffffffffffffffffffffffffffffffff168273ffffffffffffffffffffffffffffffffffffffff1603620003bc576040517f08c379a0000000000000000000000000000000000000000000000000000000008152600401620003b3906200155e565b60405180910390fd5b620003cd816200073960201b60201c565b1562000410576040517f08c379a00000000000000000000000000000000000000000000000000000000081526004016200040790620015d0565b60405180910390fd5b620004266000838360016200078260201b60201c565b62000437816200073960201b60201c565b156200047a576040517f08c379a00000000000000000000000000000000000000000000000000000000081526004016200047190620015d0565b60405180910390fd5b6001600360008473ffffffffffffffffffffffffffffffffffffffff1673ffffffffffffffffffffffffffffffffffffffff16815260200190815260200160002060008282540192505081905550816002600083815260200190815260200160002060006101000a81548173ffffffffffffffffffffffffffffffffffffffff021916908373ffffffffffffffffffffffffffffffffffffffff160217905550808273ffffffffffffffffffffffffffffffffffffffff16600073ffffffffffffffffffffffffffffffffffffffff167fddf252ad1be2c89b69c2b068fc378daa952ba7f163c4a11628f55a4df523b3ef60405160405180910390a46200058c600083836001620008af60201b60201c565b5050565b6000620005be8473ffffffffffffffffffffffffffffffffffffffff16620008b560201b62000e591760201c565b156200072c578373ffffffffffffffffffffffffffffffffffffffff1663150b7a02620005f0620008d860201b60201c565b8786866040518563ffffffff1660e01b815260040162000614949392919062001666565b6020604051808303816000875af19250505080156200065357506040513d601f19601f8201168201806040525081019062000650919062001717565b60015b620006db573d806000811462000686576040519150601f19603f3d011682016040523d82523d6000602084013e6200068b565b606091505b506000815103620006d3576040517f08c379a0000000000000000000000000000000000000000000000000000000008152600401620006ca90620014ec565b60405180910390fd5b805181602001fd5b63150b7a0260e01b7bffffffffffffffffffffffffffffffffffffffffffffffffffffffff1916817bffffffffffffffffffffffffffffffffffffffffffffffffffffffff19161491505062000731565b600190505b949350505050565b60008073ffffffffffffffffffffffffffffffffffffffff166200076383620008e060201b60201c565b73ffffffffffffffffffffffffffffffffffffffff1614159050919050565b6001811115620008a957600073ffffffffffffffffffffffffffffffffffffffff168473ffffffffffffffffffffffffffffffffffffffff16146200081a5780600360008673ffffffffffffffffffffffffffffffffffffffff1673ffffffffffffffffffffffffffffffffffffffff168152602001908152602001600020600082825462000812919062001749565b925050819055505b600073ffffffffffffffffffffffffffffffffffffffff168373ffffffffffffffffffffffffffffffffffffffff1614620008a85780600360008573ffffffffffffffffffffffffffffffffffffffff1673ffffffffffffffffffffffffffffffffffffffff1681526020019081526020016000206000828254620008a0919062001784565b925050819055505b5b50505050565b50505050565b6000808273ffffffffffffffffffffffffffffffffffffffff163b119050919050565b600033905090565b60006002600083815260200190815260200160002060009054906101000a900473ffffffffffffffffffffffffffffffffffffffff169050919050565b6000604051905090565b600080fd5b600080fd5b600073ffffffffffffffffffffffffffffffffffffffff82169050919050565b60006200095e8262000931565b9050919050565b620009708162000951565b81146200097c57600080fd5b50565b600081519050620009908162000965565b92915050565b6000819050919050565b620009ab8162000996565b8114620009b757600080fd5b50565b600081519050620009cb81620009a0565b92915050565b600080fd5b6000601f19601f8301169050919050565b7f4e487b7100000000000000000000000000000000000000000000000000000000600052604160045260246000fd5b62000a2182620009d6565b810181811067ffffffffffffffff8211171562000a435762000a42620009e7565b5b80604052505050565b600062000a586200091d565b905062000a66828262000a16565b919050565b600067ffffffffffffffff82111562000a895762000a88620009e7565b5b602082029050602081019050919050565b600080fd5b600080fd5b600080fd5b600080fd5b600067ffffffffffffffff82111562000acc5762000acb620009e7565b5b62000ad782620009d6565b9050602081019050919050565b60005b8381101562000b0457808201518184015260208101905062000ae7565b60008484015250505050565b600062000b2762000b218462000aae565b62000a4c565b90508281526020810184848401111562000b465762000b4562000aa9565b5b62000b5384828562000ae4565b509392505050565b600082601f83011262000b735762000b72620009d1565b5b815162000b8584826020860162000b10565b91505092915050565b600067ffffffffffffffff82111562000bac5762000bab620009e7565b5b62000bb782620009d6565b9050602081019050919050565b600062000bdb62000bd58462000b8e565b62000a4c565b90508281526020810184848401111562000bfa5762000bf962000aa9565b5b62000c0784828562000ae4565b509392505050565b600082601f83011262000c275762000c26620009d1565b5b815162000c3984826020860162000bc4565b91505092915050565b600060ff82169050919050565b62000c5a8162000c42565b811462000c6657600080fd5b50565b60008151905062000c7a8162000c4f565b92915050565b600060e0828403121562000c995762000c9862000a9f565b5b62000ca560e062000a4c565b9050600082015167ffffffffffffffff81111562000cc85762000cc762000aa4565b5b62000cd68482850162000b5b565b600083015250602062000cec848285016200097f565b602083015250604082015167ffffffffffffffff81111562000d135762000d1262000aa4565b5b62000d218482850162000c0f565b604083015250606062000d378482850162000c69565b606083015250608082015167ffffffffffffffff81111562000d5e5762000d5d62000aa4565b5b62000d6c8482850162000c0f565b60808301525060a082015167ffffffffffffffff81111562000d935762000d9262000aa4565b5b62000da18482850162000c0f565b60a08301525060c082015167ffffffffffffffff81111562000dc85762000dc762000aa4565b5b62000dd68482850162000c0f565b60c08301525092915050565b600062000df962000df38462000a6b565b62000a4c565b9050808382526020820190506020840283018581111562000e1f5762000e1e62000a9a565b5b835b8181101562000e6d57805167ffffffffffffffff81111562000e485762000e47620009d1565b5b80860162000e57898262000c80565b8552602085019450505060208101905062000e21565b5050509392505050565b600082601f83011262000e8f5762000e8e620009d1565b5b815162000ea184826020860162000de2565b91505092915050565b6000806000806080858703121562000ec75762000ec662000927565b5b600062000ed7878288016200097f565b945050602062000eea878288016200097f565b935050604062000efd87828801620009ba565b925050606085015167ffffffffffffffff81111562000f215762000f206200092c565b5b62000f2f8782880162000e77565b91505092959194509250565b600081519050919050565b7f4e487b7100000000000000000000000000000000000000000000000000000000600052602260045260246000fd5b6000600282049050600182168062000f8e57607f821691505b60208210810362000fa45762000fa362000f46565b5b50919050565b60008190508160005260206000209050919050565b60006020601f8301049050919050565b600082821b905092915050565b6000600883026200100e7fffffffffffffffffffffffffffffffffffffffffffffffffffffffffffffffff8262000fcf565b6200101a868362000fcf565b95508019841693508086168417925050509392505050565b6000819050919050565b60006200105d62001057620010518462000996565b62001032565b62000996565b9050919050565b6000819050919050565b62001079836200103c565b62001091620010888262001064565b84845462000fdc565b825550505050565b600090565b620010a862001099565b620010b58184846200106e565b505050565b5b81811015620010dd57620010d16000826200109e565b600181019050620010bb565b5050565b601f8211156200112c57620010f68162000faa565b620011018462000fbf565b8101602085101562001111578190505b62001129620011208562000fbf565b830182620010ba565b50505b505050565b600082821c905092915050565b6000620011516000198460080262001131565b1980831691505092915050565b60006200116c83836200113e565b9150826002028217905092915050565b620011878262000f3b565b67ffffffffffffffff811115620011a357620011a2620009e7565b5b620011af825462000f75565b620011bc828285620010e1565b600060209050601f831160018114620011f45760008415620011df578287015190505b620011eb85826200115e565b8655506200125b565b601f198416620012048662000faa565b60005b828110156200122e5784890151825560018201915060208501945060208101905062001207565b868310156200124e57848901516200124a601f8916826200113e565b8355505b6001600288020188555050505b505050505050565b7f4e487b7100000000000000000000000000000000000000000000000000000000600052603260045260246000fd5b600081519050919050565b60008190508160005260206000209050919050565b601f821115620012fd57620012c7816200129d565b620012d28462000fbf565b81016020851015620012e2578190505b620012fa620012f18562000fbf565b830182620010ba565b50505b505050565b6200130d8262001292565b67ffffffffffffffff811115620013295762001328620009e7565b5b62001335825462000f75565b62001342828285620012b2565b600060209050601f8311600181146200137a576000841562001365578287015190505b6200137185826200115e565b865550620013e1565b601f1984166200138a866200129d565b60005b82811015620013b4578489015182556001820191506020850194506020810190506200138d565b86831015620013d45784890151620013d0601f8916826200113e565b8355505b6001600288020188555050505b505050505050565b7f4e487b7100000000000000000000000000000000000000000000000000000000600052601160045260246000fd5b6000620014258262000996565b91507fffffffffffffffffffffffffffffffffffffffffffffffffffffffffffffffff82036200145a5762001459620013e9565b5b600182019050919050565b600082825260208201905092915050565b7f4552433732313a207472616e7366657220746f206e6f6e20455243373231526560008201527f63656976657220696d706c656d656e7465720000000000000000000000000000602082015250565b6000620014d460328362001465565b9150620014e18262001476565b604082019050919050565b600060208201905081810360008301526200150781620014c5565b9050919050565b7f4552433732313a206d696e7420746f20746865207a65726f2061646472657373600082015250565b60006200154660208362001465565b915062001553826200150e565b602082019050919050565b60006020820190508181036000830152620015798162001537565b9050919050565b7f4552433732313a20746f6b656e20616c7265616479206d696e74656400000000600082015250565b6000620015b8601c8362001465565b9150620015c58262001580565b602082019050919050565b60006020820190508181036000830152620015eb81620015a9565b9050919050565b620015fd8162000951565b82525050565b6200160e8162000996565b82525050565b600082825260208201905092915050565b6000620016328262001292565b6200163e818562001614565b93506200165081856020860162000ae4565b6200165b81620009d6565b840191505092915050565b60006080820190506200167d6000830187620015f2565b6200168c6020830186620015f2565b6200169b604083018562001603565b8181036060830152620016af818462001625565b905095945050505050565b60007fffffffff0000000000000000000000000000000000000000000000000000000082169050919050565b620016f181620016ba565b8114620016fd57600080fd5b50565b6000815190506200171181620016e6565b92915050565b60006020828403121562001730576200172f62000927565b5b6000620017408482850162001700565b91505092915050565b6000620017568262000996565b9150620017638362000996565b92508282039050818111156200177e576200177d620013e9565b5b92915050565b6000620017918262000996565b91506200179e8362000996565b9250828201905080821115620017b957620017b8620013e9565b5b92915050565b60805160a05160c051612cb7620017fd60003960008181610be60152610ce8015260008181610caa0152610d9601526000610c200152612cb76000f3fe608060405234801561001057600080fd5b50600436106101165760003560e01c806395d89b41116100a2578063b88d4fde11610071578063b88d4fde146102f9578063c87b56dd14610315578063e3b71f8714610345578063e564844214610363578063e985e9c51461036d57610116565b806395d89b41146102835780639c2c770b146102a1578063a22cb465146102bf578063a9cb35ae146102db57610116565b806323b872dd116100e957806323b872dd146101b557806342842e0e146101d15780636352211e146101ed57806370a082311461021d57806381d12c581461024d57610116565b806301ffc9a71461011b57806306fdde031461014b578063081812fc14610169578063095ea7b314610199575b600080fd5b610135600480360381019061013091906118e5565b61039d565b604051610142919061192d565b60405180910390f35b61015361047f565b60405161016091906119d8565b60405180910390f35b610183600480360381019061017e9190611a30565b610511565b6040516101909190611a9e565b60405180910390f35b6101b360048036038101906101ae9190611ae5565b610557565b005b6101cf60048036038101906101ca9190611b25565b61066e565b005b6101eb60048036038101906101e69190611b25565b6106ce565b005b61020760048036038101906102029190611a30565b6106ee565b6040516102149190611a9e565b60405180910390f35b61023760048036038101906102329190611b78565b610774565b6040516102449190611bb4565b60405180910390f35b61026760048036038101906102629190611a30565b61082b565b60405161027a9796959493929190611c40565b60405180910390f35b61028b610b52565b60405161029891906119d8565b60405180910390f35b6102a9610be4565b6040516102b69190611bb4565b60405180910390f35b6102d960048036038101906102d49190611cfe565b610c08565b005b6102e3610c1e565b6040516102f09190611a9e565b60405180910390f35b610313600480360381019061030e9190611e73565b610c42565b005b61032f600480360381019061032a9190611a30565b610ca4565b60405161033c91906119d8565b60405180910390f35b61034d610d94565b60405161035a9190611a9e565b60405180910390f35b61036b610db8565b005b61038760048036038101906103829190611ef6565b610dc5565b604051610394919061192d565b60405180910390f35b60007f80ac58cd000000000000000000000000000000000000000000000000000000007bffffffffffffffffffffffffffffffffffffffffffffffffffffffff1916827bffffffffffffffffffffffffffffffffffffffffffffffffffffffff1916148061046857507f5b5e139f000000000000000000000000000000000000000000000000000000007bffffffffffffffffffffffffffffffffffffffffffffffffffffffff1916827bffffffffffffffffffffffffffffffffffffffffffffffffffffffff1916145b80610478575061047782610e7c565b5b9050919050565b60606000805461048e90611f65565b80601f01602080910402602001604051908101604052809291908181526020018280546104ba90611f65565b80156105075780601f106104dc57610100808354040283529160200191610507565b820191906000526020600020905b8154815290600101906020018083116104ea57829003601f168201915b5050505050905090565b600061051c82610ee6565b6004600083815260200190815260200160002060009054906101000a900473ffffffffffffffffffffffffffffffffffffffff169050919050565b6000610562826106ee565b90508073ffffffffffffffffffffffffffffffffffffffff168373ffffffffffffffffffffffffffffffffffffffff16036105d2576040517f08c379a00000000000000000000000000000000000000000000000000000000081526004016105c990612008565b60405180910390fd5b8073ffffffffffffffffffffffffffffffffffffffff166105f1610f31565b73ffffffffffffffffffffffffffffffffffffffff161480610620575061061f8161061a610f31565b610dc5565b5b61065f576040517f08c379a00000000000000000000000000000000000000000000000000000000081526004016106569061209a565b60405180910390fd5b6106698383610f39565b505050565b61067f610679610f31565b82610ff2565b6106be576040517f08c379a00000000000000000000000000000000000000000000000000000000081526004016106b59061212c565b60405180910390fd5b6106c9838383611087565b505050565b6106e983838360405180602001604052806000815250610c42565b505050565b6000806106fa83611380565b9050600073ffffffffffffffffffffffffffffffffffffffff168173ffffffffffffffffffffffffffffffffffffffff160361076b576040517f08c379a000000000000000000000000000000000000000000000000000000000815260040161076290612198565b60405180910390fd5b80915050919050565b60008073ffffffffffffffffffffffffffffffffffffffff168273ffffffffffffffffffffffffffffffffffffffff16036107e4576040517f08c379a00000000000000000000000000000000000000000000000000000000081526004016107db9061222a565b60405180910390fd5b600360008373ffffffffffffffffffffffffffffffffffffffff1673ffffffffffffffffffffffffffffffffffffffff168152602001908152602001600020549050919050565b6006818154811061083b57600080fd5b906000526020600020906007020160009150905080600001805461085e90611f65565b80601f016020809104026020016040519081016040528092919081815260200182805461088a90611f65565b80156108d75780601f106108ac576101008083540402835291602001916108d7565b820191906000526020600020905b8154815290600101906020018083116108ba57829003601f168201915b5050505050908060010160009054906101000a900473ffffffffffffffffffffffffffffffffffffffff169080600201805461091290611f65565b80601f016020809104026020016040519081016040528092919081815260200182805461093e90611f65565b801561098b5780601f106109605761010080835404028352916020019161098b565b820191906000526020600020905b81548152906001019060200180831161096e57829003601f168201915b5050505050908060030160009054906101000a900460ff16908060040180546109b390611f65565b80601f01602080910402602001604051908101604052809291908181526020018280546109df90611f65565b8015610a2c5780601f10610a0157610100808354040283529160200191610a2c565b820191906000526020600020905b815481529060010190602001808311610a0f57829003601f168201915b505050505090806005018054610a4190611f65565b80601f0160208091040260200160405190810160405280929190818152602001828054610a6d90611f65565b8015610aba5780601f10610a8f57610100808354040283529160200191610aba565b820191906000526020600020905b815481529060010190602001808311610a9d57829003601f168201915b505050505090806006018054610acf90611f65565b80601f0160208091040260200160405190810160405280929190818152602001828054610afb90611f65565b8015610b485780601f10610b1d57610100808354040283529160200191610b48565b820191906000526020600020905b815481529060010190602001808311610b2b57829003601f168201915b5050505050905087565b606060018054610b6190611f65565b80601f0160208091040260200160405190810160405280929190818152602001828054610b8d90611f65565b8015610bda5780601f10610baf57610100808354040283529160200191610bda565b820191906000526020600020905b815481529060010190602001808311610bbd57829003601f168201915b5050505050905090565b7f000000000000000000000000000000000000000000000000000000000000000081565b610c1a610c13610f31565b83836113bd565b5050565b7f000000000000000000000000000000000000000000000000000000000000000081565b610c53610c4d610f31565b83610ff2565b610c92576040517f08c379a0000000000000000000000000000000000000000000000000000000008152600401610c899061212c565b60405180910390fd5b610c9e84848484611529565b50505050565b606060007f000000000000000000000000000000000000000000000000000000000000000073ffffffffffffffffffffffffffffffffffffffff1663b4f7d41e60067f00000000000000000000000000000000000000000000000000000000000000006040518363ffffffff1660e01b8152600401610d249291906125bb565b600060405180830381865afa158015610d41573d6000803e3d6000fd5b505050506040513d6000823e3d601f19601f82011682018060405250810190610d6a919061265b565b905080604051602001610d7d9190612902565b604051602081830303815290604052915050919050565b7f000000000000000000000000000000000000000000000000000000000000000081565b610dc26000610ca4565b50565b6000600560008473ffffffffffffffffffffffffffffffffffffffff1673ffffffffffffffffffffffffffffffffffffffff16815260200190815260200160002060008373ffffffffffffffffffffffffffffffffffffffff1673ffffffffffffffffffffffffffffffffffffffff16815260200190815260200160002060009054906101000a900460ff16905092915050565b6000808273ffffffffffffffffffffffffffffffffffffffff163b119050919050565b60007f01ffc9a7000000000000000000000000000000000000000000000000000000007bffffffffffffffffffffffffffffffffffffffffffffffffffffffff1916827bffffffffffffffffffffffffffffffffffffffffffffffffffffffff1916149050919050565b610eef81611585565b610f2e576040517f08c379a0000000000000000000000000000000000000000000000000000000008152600401610f2590612198565b60405180910390fd5b50565b600033905090565b816004600083815260200190815260200160002060006101000a81548173ffffffffffffffffffffffffffffffffffffffff021916908373ffffffffffffffffffffffffffffffffffffffff160217905550808273ffffffffffffffffffffffffffffffffffffffff16610fac836106ee565b73ffffffffffffffffffffffffffffffffffffffff167f8c5be1e5ebec7d5bd14f71427d1e84f3dd0314c0f7b2291e5b200ac8c7c3b92560405160405180910390a45050565b600080610ffe836106ee565b90508073ffffffffffffffffffffffffffffffffffffffff168473ffffffffffffffffffffffffffffffffffffffff161480611040575061103f8185610dc5565b5b8061107e57508373ffffffffffffffffffffffffffffffffffffffff1661106684610511565b73ffffffffffffffffffffffffffffffffffffffff16145b91505092915050565b8273ffffffffffffffffffffffffffffffffffffffff166110a7826106ee565b73ffffffffffffffffffffffffffffffffffffffff16146110fd576040517f08c379a00000000000000000000000000000000000000000000000000000000081526004016110f4906129ac565b60405180910390fd5b600073ffffffffffffffffffffffffffffffffffffffff168273ffffffffffffffffffffffffffffffffffffffff160361116c576040517f08c379a000000000000000000000000000000000000000000000000000000000815260040161116390612a3e565b60405180910390fd5b61117983838360016115c6565b8273ffffffffffffffffffffffffffffffffffffffff16611199826106ee565b73ffffffffffffffffffffffffffffffffffffffff16146111ef576040517f08c379a00000000000000000000000000000000000000000000000000000000081526004016111e6906129ac565b60405180910390fd5b6004600082815260200190815260200160002060006101000a81549073ffffffffffffffffffffffffffffffffffffffff02191690556001600360008573ffffffffffffffffffffffffffffffffffffffff1673ffffffffffffffffffffffffffffffffffffffff168152602001908152602001600020600082825403925050819055506001600360008473ffffffffffffffffffffffffffffffffffffffff1673ffffffffffffffffffffffffffffffffffffffff16815260200190815260200160002060008282540192505081905550816002600083815260200190815260200160002060006101000a81548173ffffffffffffffffffffffffffffffffffffffff021916908373ffffffffffffffffffffffffffffffffffffffff160217905550808273ffffffffffffffffffffffffffffffffffffffff168473ffffffffffffffffffffffffffffffffffffffff167fddf252ad1be2c89b69c2b068fc378daa952ba7f163c4a11628f55a4df523b3ef60405160405180910390a461137b83838360016116ec565b505050565b60006002600083815260200190815260200160002060009054906101000a900473ffffffffffffffffffffffffffffffffffffffff169050919050565b8173ffffffffffffffffffffffffffffffffffffffff168373ffffffffffffffffffffffffffffffffffffffff160361142b576040517f08c379a000000000000000000000000000000000000000000000000000000000815260040161142290612aaa565b60405180910390fd5b80600560008573ffffffffffffffffffffffffffffffffffffffff1673ffffffffffffffffffffffffffffffffffffffff16815260200190815260200160002060008473ffffffffffffffffffffffffffffffffffffffff1673ffffffffffffffffffffffffffffffffffffffff16815260200190815260200160002060006101000a81548160ff0219169083151502179055508173ffffffffffffffffffffffffffffffffffffffff168373ffffffffffffffffffffffffffffffffffffffff167f17307eab39ab6107e8899845ad3d59bd9653f200f220920489ca2b5937696c318360405161151c919061192d565b60405180910390a3505050565b611534848484611087565b611540848484846116f2565b61157f576040517f08c379a000000000000000000000000000000000000000000000000000000000815260040161157690612b3c565b60405180910390fd5b50505050565b60008073ffffffffffffffffffffffffffffffffffffffff166115a783611380565b73ffffffffffffffffffffffffffffffffffffffff1614159050919050565b60018111156116e657600073ffffffffffffffffffffffffffffffffffffffff168473ffffffffffffffffffffffffffffffffffffffff161461165a5780600360008673ffffffffffffffffffffffffffffffffffffffff1673ffffffffffffffffffffffffffffffffffffffff16815260200190815260200160002060008282546116529190612b8b565b925050819055505b600073ffffffffffffffffffffffffffffffffffffffff168373ffffffffffffffffffffffffffffffffffffffff16146116e55780600360008573ffffffffffffffffffffffffffffffffffffffff1673ffffffffffffffffffffffffffffffffffffffff16815260200190815260200160002060008282546116dd9190612bbf565b925050819055505b5b50505050565b50505050565b60006117138473ffffffffffffffffffffffffffffffffffffffff16610e59565b1561186c578373ffffffffffffffffffffffffffffffffffffffff1663150b7a0261173c610f31565b8786866040518563ffffffff1660e01b815260040161175e9493929190612bf3565b6020604051808303816000875af192505050801561179a57506040513d601f19601f820116820180604052508101906117979190612c54565b60015b61181c573d80600081146117ca576040519150601f19603f3d011682016040523d82523d6000602084013e6117cf565b606091505b506000815103611814576040517f08c379a000000000000000000000000000000000000000000000000000000000815260040161180b90612b3c565b60405180910390fd5b805181602001fd5b63150b7a0260e01b7bffffffffffffffffffffffffffffffffffffffffffffffffffffffff1916817bffffffffffffffffffffffffffffffffffffffffffffffffffffffff191614915050611871565b600190505b949350505050565b6000604051905090565b600080fd5b600080fd5b60007fffffffff0000000000000000000000000000000000000000000000000000000082169050919050565b6118c28161188d565b81146118cd57600080fd5b50565b6000813590506118df816118b9565b92915050565b6000602082840312156118fb576118fa611883565b5b6000611909848285016118d0565b91505092915050565b60008115159050919050565b61192781611912565b82525050565b6000602082019050611942600083018461191e565b92915050565b600081519050919050565b600082825260208201905092915050565b60005b83811015611982578082015181840152602081019050611967565b60008484015250505050565b6000601f19601f8301169050919050565b60006119aa82611948565b6119b48185611953565b93506119c4818560208601611964565b6119cd8161198e565b840191505092915050565b600060208201905081810360008301526119f2818461199f565b905092915050565b6000819050919050565b611a0d816119fa565b8114611a1857600080fd5b50565b600081359050611a2a81611a04565b92915050565b600060208284031215611a4657611a45611883565b5b6000611a5484828501611a1b565b91505092915050565b600073ffffffffffffffffffffffffffffffffffffffff82169050919050565b6000611a8882611a5d565b9050919050565b611a9881611a7d565b82525050565b6000602082019050611ab36000830184611a8f565b92915050565b611ac281611a7d565b8114611acd57600080fd5b50565b600081359050611adf81611ab9565b92915050565b60008060408385031215611afc57611afb611883565b5b6000611b0a85828601611ad0565b9250506020611b1b85828601611a1b565b9150509250929050565b600080600060608486031215611b3e57611b3d611883565b5b6000611b4c86828701611ad0565b9350506020611b5d86828701611ad0565b9250506040611b6e86828701611a1b565b9150509250925092565b600060208284031215611b8e57611b8d611883565b5b6000611b9c84828501611ad0565b91505092915050565b611bae816119fa565b82525050565b6000602082019050611bc96000830184611ba5565b92915050565b600081519050919050565b600082825260208201905092915050565b6000611bf682611bcf565b611c008185611bda565b9350611c10818560208601611964565b611c198161198e565b840191505092915050565b600060ff82169050919050565b611c3a81611c24565b82525050565b600060e0820190508181036000830152611c5a818a61199f565b9050611c696020830189611a8f565b8181036040830152611c7b8188611beb565b9050611c8a6060830187611c31565b8181036080830152611c9c8186611beb565b905081810360a0830152611cb08185611beb565b905081810360c0830152611cc48184611beb565b905098975050505050505050565b611cdb81611912565b8114611ce657600080fd5b50565b600081359050611cf881611cd2565b92915050565b60008060408385031215611d1557611d14611883565b5b6000611d2385828601611ad0565b9250506020611d3485828601611ce9565b9150509250929050565b600080fd5b600080fd5b7f4e487b7100000000000000000000000000000000000000000000000000000000600052604160045260246000fd5b611d808261198e565b810181811067ffffffffffffffff82111715611d9f57611d9e611d48565b5b80604052505050565b6000611db2611879565b9050611dbe8282611d77565b919050565b600067ffffffffffffffff821115611dde57611ddd611d48565b5b611de78261198e565b9050602081019050919050565b82818337600083830152505050565b6000611e16611e1184611dc3565b611da8565b905082815260208101848484011115611e3257611e31611d43565b5b611e3d848285611df4565b509392505050565b600082601f830112611e5a57611e59611d3e565b5b8135611e6a848260208601611e03565b91505092915050565b60008060008060808587031215611e8d57611e8c611883565b5b6000611e9b87828801611ad0565b9450506020611eac87828801611ad0565b9350506040611ebd87828801611a1b565b925050606085013567ffffffffffffffff811115611ede57611edd611888565b5b611eea87828801611e45565b91505092959194509250565b60008060408385031215611f0d57611f0c611883565b5b6000611f1b85828601611ad0565b9250506020611f2c85828601611ad0565b9150509250929050565b7f4e487b7100000000000000000000000000000000000000000000000000000000600052602260045260246000fd5b60006002820490506001821680611f7d57607f821691505b602082108103611f9057611f8f611f36565b5b50919050565b7f4552433732313a20617070726f76616c20746f2063757272656e74206f776e6560008201527f7200000000000000000000000000000000000000000000000000000000000000602082015250565b6000611ff2602183611953565b9150611ffd82611f96565b604082019050919050565b6000602082019050818103600083015261202181611fe5565b9050919050565b7f4552433732313a20617070726f76652063616c6c6572206973206e6f7420746f60008201527f6b656e206f776e6572206f7220617070726f76656420666f7220616c6c000000602082015250565b6000612084603d83611953565b915061208f82612028565b604082019050919050565b600060208201905081810360008301526120b381612077565b9050919050565b7f4552433732313a2063616c6c6572206973206e6f7420746f6b656e206f776e6560008201527f72206f7220617070726f76656400000000000000000000000000000000000000602082015250565b6000612116602d83611953565b9150612121826120ba565b604082019050919050565b6000602082019050818103600083015261214581612109565b9050919050565b7f4552433732313a20696e76616c696420746f6b656e2049440000000000000000600082015250565b6000612182601883611953565b915061218d8261214c565b602082019050919050565b600060208201905081810360008301526121b181612175565b9050919050565b7f4552433732313a2061646472657373207a65726f206973206e6f74206120766160008201527f6c6964206f776e65720000000000000000000000000000000000000000000000602082015250565b6000612214602983611953565b915061221f826121b8565b604082019050919050565b6000602082019050818103600083015261224381612207565b9050919050565b600081549050919050565b600082825260208201905092915050565b60008190508160005260206000209050919050565b600082825260208201905092915050565b60008190508160005260206000209050919050565b600081546122ae81611f65565b6122b8818661227b565b945060018216600081146122d357600181146122e95761231c565b60ff19831686528115156020028601935061231c565b6122f28561228c565b60005b83811015612314578154818901526001820191506020810190506122f5565b808801955050505b50505092915050565b60008160001c9050919050565b600073ffffffffffffffffffffffffffffffffffffffff82169050919050565b600061236561236083612325565b612332565b9050919050565b61237581611a7d565b82525050565b600082825260208201905092915050565b60008190508160005260206000209050919050565b600081546123ae81611f65565b6123b8818661237b565b945060018216600081146123d357600181146123e95761241c565b60ff19831686528115156020028601935061241c565b6123f28561238c565b60005b83811015612414578154818901526001820191506020810190506123f5565b808801955050505b50505092915050565b600060ff82169050919050565b600061244561244083612325565b612425565b9050919050565b61245581611c24565b82525050565b600060e083016000808401858303600087015261247883826122a1565b9250506001840154905061248b81612352565b612498602087018261236c565b506002840185830360408701526124af83826123a1565b925050600384015490506124c281612432565b6124cf606087018261244c565b506004840185830360808701526124e683826123a1565b9250506005840185830360a08701526124ff83826123a1565b9250506006840185830360c087015261251883826123a1565b925050819250505092915050565b6000612532838361245b565b905092915050565b6000600782019050919050565b60006125528261224a565b61255c8185612255565b93508360208202850161256e85612266565b8060005b858110156125a95784840389528161258a8582612526565b94506125958361253a565b925060208a01995050600181019050612572565b50829750879550505050505092915050565b600060408201905081810360008301526125d58185612547565b90506125e46020830184611ba5565b9392505050565b60006125fe6125f984611dc3565b611da8565b90508281526020810184848401111561261a57612619611d43565b5b612625848285611964565b509392505050565b600082601f83011261264257612641611d3e565b5b81516126528482602086016125eb565b91505092915050565b60006020828403121561267157612670611883565b5b600082015167ffffffffffffffff81111561268f5761268e611888565b5b61269b8482850161262d565b91505092915050565b600081905092915050565b7f646174613a6170706c69636174696f6e2f6a736f6e2c00000000000000000000600082015250565b60006126e56016836126a4565b91506126f0826126af565b601682019050919050565b7f2537422532326e616d652532322533412532324375626533442532302d25323060008201527f475a4950253230436f6d707265737365642532302d25323055524c253230536160208201527f66652532322532432532302532326465736372697074696f6e2532322533412560408201527f3232417373656d626c6573253230475a4950253230636f6d707265737365642560608201527f3230626173653634253230656e636f64656425323074687265652e6a7325323060808201527f776974682532306125323064656d6f2532307363656e652e2532304d6574616460a08201527f617461253230616e64253230616e696d6174696f6e25323055524c253230617260c08201527f65253230626f746825323055524c253230656e636f6465642e2532322532432560e08201527f3232616e696d6174696f6e5f75726c253232253341253232000000000000000061010082015250565b6000612863610118836126a4565b915061286e826126fb565b61011882019050919050565b600081905092915050565b600061289082611bcf565b61289a818561287a565b93506128aa818560208601611964565b80840191505092915050565b7f2532322537440000000000000000000000000000000000000000000000000000600082015250565b60006128ec6006836126a4565b91506128f7826128b6565b600682019050919050565b600061290d826126d8565b915061291882612855565b91506129248284612885565b915061292f826128df565b915081905092915050565b7f4552433732313a207472616e736665722066726f6d20696e636f72726563742060008201527f6f776e6572000000000000000000000000000000000000000000000000000000602082015250565b6000612996602583611953565b91506129a18261293a565b604082019050919050565b600060208201905081810360008301526129c581612989565b9050919050565b7f4552433732313a207472616e7366657220746f20746865207a65726f2061646460008201527f7265737300000000000000000000000000000000000000000000000000000000602082015250565b6000612a28602483611953565b9150612a33826129cc565b604082019050919050565b60006020820190508181036000830152612a5781612a1b565b9050919050565b7f4552433732313a20617070726f766520746f2063616c6c657200000000000000600082015250565b6000612a94601983611953565b9150612a9f82612a5e565b602082019050919050565b60006020820190508181036000830152612ac381612a87565b9050919050565b7f4552433732313a207472616e7366657220746f206e6f6e20455243373231526560008201527f63656976657220696d706c656d656e7465720000000000000000000000000000602082015250565b6000612b26603283611953565b9150612b3182612aca565b604082019050919050565b60006020820190508181036000830152612b5581612b19565b9050919050565b7f4e487b7100000000000000000000000000000000000000000000000000000000600052601160045260246000fd5b6000612b96826119fa565b9150612ba1836119fa565b9250828203905081811115612bb957612bb8612b5c565b5b92915050565b6000612bca826119fa565b9150612bd5836119fa565b9250828201905080821115612bed57612bec612b5c565b5b92915050565b6000608082019050612c086000830187611a8f565b612c156020830186611a8f565b612c226040830185611ba5565b8181036060830152612c348184611beb565b905095945050505050565b600081519050612c4e816118b9565b92915050565b600060208284031215612c6a57612c69611883565b5b6000612c7884828501612c3f565b9150509291505056fea264697066735822122093a7dd04f5cb045448d7ba62dfdd0ba52bed2c6e6f71cd4bf16d9368042e074a64736f6c63430008110033",
  "linkReferences": {},
  "deployedLinkReferences": {}
}