{
  "_format": "hh-sol-artifact-1",
  "contractName": "FrameFactory",
  "sourceName": "src/services/chain-sim/contracts/FrameFactory.sol",
  "abi": [
    {
      "inputs": [],
      "stateMutability": "nonpayable",
      "type": "constructor"
    },
    {
      "anonymous": false,
      "inputs": [
        {
          "indexed": false,
          "internalType": "address",
          "name": "newAddress",
          "type": "address"
        }
      ],
      "name": "FrameCreated",
      "type": "event"
    },
    {
      "inputs": [
        {
          "internalType": "address",
          "name": "_coreDepStorage",
          "type": "address"
        },
        {
          "internalType": "contract FrameDataStoreFactory",
          "name": "_frameDataStoreFactory",
          "type": "address"
        },
        {
          "internalType": "string[2][]",
          "name": "_deps",
          "type": "string[2][]"
        },
        {
          "internalType": "string[2][]",
          "name": "_assets",
          "type": "string[2][]"
        },
        {
          "internalType": "uint256[4][]",
          "name": "_renderIndex",
          "type": "uint256[4][]"
        }
      ],
      "name": "createFrame",
      "outputs": [
        {
          "internalType": "address",
          "name": "",
          "type": "address"
        }
      ],
      "stateMutability": "nonpayable",
      "type": "function"
    },
    {
      "inputs": [
        {
          "internalType": "address",
          "name": "_coreDepStorage",
          "type": "address"
        },
        {
          "internalType": "contract FrameDataStoreFactory",
          "name": "_frameDataStoreFactory",
          "type": "address"
        },
        {
          "internalType": "string[2][]",
          "name": "_deps",
          "type": "string[2][]"
        },
        {
          "internalType": "string[2][]",
          "name": "_assets",
          "type": "string[2][]"
        },
        {
          "internalType": "bytes[]",
          "name": "_assetsData",
          "type": "bytes[]"
        },
        {
          "internalType": "uint256[4][]",
          "name": "_renderIndex",
          "type": "uint256[4][]"
        }
      ],
      "name": "createFrameWithSources",
      "outputs": [
        {
          "internalType": "address",
          "name": "",
          "type": "address"
        }
      ],
      "stateMutability": "nonpayable",
      "type": "function"
    },
    {
      "inputs": [],
      "name": "libraryAddress",
      "outputs": [
        {
          "internalType": "address",
          "name": "",
          "type": "address"
        }
      ],
      "stateMutability": "view",
      "type": "function"
    },
    {
      "inputs": [
        {
          "internalType": "address",
          "name": "_libraryAddress",
          "type": "address"
        }
      ],
      "name": "setLibraryAddress",
      "outputs": [],
      "stateMutability": "nonpayable",
      "type": "function"
    }
  ],
  "bytecode": "0x608060405234801561001057600080fd5b5061105b806100206000396000f3fe608060405234801561001057600080fd5b506004361061004c5760003560e01c80634863ba1714610051578063b816f5131461006d578063c80a89231461008b578063f9e19d2d146100bb575b600080fd5b61006b600480360381019061006691906105ed565b6100eb565b005b61007561012e565b6040516100829190610629565b60405180910390f35b6100a560048036038101906100a0919061073d565b610152565b6040516100b29190610629565b60405180910390f35b6100d560048036038101906100d0919061086f565b6102b6565b6040516100e29190610629565b60405180910390f35b806000806101000a81548173ffffffffffffffffffffffffffffffffffffffff021916908373ffffffffffffffffffffffffffffffffffffffff16021790555050565b60008054906101000a900473ffffffffffffffffffffffffffffffffffffffff1681565b60008061017e60008054906101000a900473ffffffffffffffffffffffffffffffffffffffff1661051b565b905060008973ffffffffffffffffffffffffffffffffffffffff166366f4a19e6040518163ffffffff1660e01b81526004016020604051808303816000875af11580156101cf573d6000803e3d6000fd5b505050506040513d601f19601f820116820180604052508101906101f39190610994565b90508173ffffffffffffffffffffffffffffffffffffffff16634f5ea5cc8c838c8c8c8c8c8c6040518963ffffffff1660e01b815260040161023c989796959493929190610ce3565b600060405180830381600087803b15801561025657600080fd5b505af115801561026a573d6000803e3d6000fd5b505050507f62392641265fcc5a6a8128fd39634480ffe377e76dc54dcad335e1289fcc0fd58260405161029d9190610629565b60405180910390a1819250505098975050505050505050565b6000806102e260008054906101000a900473ffffffffffffffffffffffffffffffffffffffff1661051b565b905060008b73ffffffffffffffffffffffffffffffffffffffff166366f4a19e6040518163ffffffff1660e01b81526004016020604051808303816000875af1158015610333573d6000803e3d6000fd5b505050506040513d601f19601f820116820180604052508101906103579190610994565b90508173ffffffffffffffffffffffffffffffffffffffff16634f5ea5cc8e838e8e8e8e8c8c6040518963ffffffff1660e01b81526004016103a0989796959493929190610ce3565b600060405180830381600087803b1580156103ba57600080fd5b505af11580156103ce573d6000803e3d6000fd5b505050507f62392641265fcc5a6a8128fd39634480ffe377e76dc54dcad335e1289fcc0fd5826040516104019190610629565b60405180910390a160005b87879050811015610507578173ffffffffffffffffffffffffffffffffffffffff16636af42a8c8b8b8481811061044657610445610d51565b5b90506020028101906104589190610d8f565b60016002811061046b5761046a610d51565b5b60200281019061047b9190610db7565b60008c8c878181106104905761048f610d51565b5b90506020028101906104a29190610e1a565b6040518663ffffffff1660e01b81526004016104c2959493929190610f5a565b600060405180830381600087803b1580156104dc57600080fd5b505af11580156104f0573d6000803e3d6000fd5b5050505080806104ff90610fdc565b91505061040c565b5081925050509a9950505050505050505050565b6000808260601b90506040517f3d602d80600a3d3981f3363d3d373d3d3d363d7300000000000000000000000081528160148201527f5af43d82803e903d91602b57fd5bf3000000000000000000000000000000000060288201526037816000f092505050919050565b600080fd5b600080fd5b600073ffffffffffffffffffffffffffffffffffffffff82169050919050565b60006105ba8261058f565b9050919050565b6105ca816105af565b81146105d557600080fd5b50565b6000813590506105e7816105c1565b92915050565b60006020828403121561060357610602610585565b5b6000610611848285016105d8565b91505092915050565b610623816105af565b82525050565b600060208201905061063e600083018461061a565b92915050565b600061064f826105af565b9050919050565b61065f81610644565b811461066a57600080fd5b50565b60008135905061067c81610656565b92915050565b600080fd5b600080fd5b600080fd5b60008083601f8401126106a7576106a6610682565b5b8235905067ffffffffffffffff8111156106c4576106c3610687565b5b6020830191508360208202830111156106e0576106df61068c565b5b9250929050565b60008083601f8401126106fd576106fc610682565b5b8235905067ffffffffffffffff81111561071a57610719610687565b5b6020830191508360808202830111156107365761073561068c565b5b9250929050565b60008060008060008060008060a0898b03121561075d5761075c610585565b5b600061076b8b828c016105d8565b985050602061077c8b828c0161066d565b975050604089013567ffffffffffffffff81111561079d5761079c61058a565b5b6107a98b828c01610691565b9650965050606089013567ffffffffffffffff8111156107cc576107cb61058a565b5b6107d88b828c01610691565b9450945050608089013567ffffffffffffffff8111156107fb576107fa61058a565b5b6108078b828c016106e7565b92509250509295985092959890939650565b60008083601f84011261082f5761082e610682565b5b8235905067ffffffffffffffff81111561084c5761084b610687565b5b6020830191508360208202830111156108685761086761068c565b5b9250929050565b60008060008060008060008060008060c08b8d03121561089257610891610585565b5b60006108a08d828e016105d8565b9a505060206108b18d828e0161066d565b99505060408b013567ffffffffffffffff8111156108d2576108d161058a565b5b6108de8d828e01610691565b985098505060608b013567ffffffffffffffff8111156109015761090061058a565b5b61090d8d828e01610691565b965096505060808b013567ffffffffffffffff8111156109305761092f61058a565b5b61093c8d828e01610819565b945094505060a08b013567ffffffffffffffff81111561095f5761095e61058a565b5b61096b8d828e016106e7565b92509250509295989b9194979a5092959850565b60008151905061098e816105c1565b92915050565b6000602082840312156109aa576109a9610585565b5b60006109b88482850161097f565b91505092915050565b600082825260208201905092915050565b6000819050919050565b600060029050919050565b600081905092915050565b6000819050919050565b600082825260208201905092915050565b82818337600083830152505050565b6000601f19601f8301169050919050565b6000610a3983856109fc565b9350610a46838584610a0d565b610a4f83610a1c565b840190509392505050565b6000610a67848484610a2d565b90509392505050565b600080fd5b600080fd5b600080fd5b60008083356001602003843603038112610a9c57610a9b610a7a565b5b83810192508235915060208301925067ffffffffffffffff821115610ac457610ac3610a70565b5b600182023603841315610ada57610ad9610a75565b5b509250929050565b6000602082019050919050565b6000610afa826109dc565b610b0481856109e7565b935083602082028501610b16856109f2565b8060005b85811015610b5c578484038952610b318284610a7f565b610b3c868284610a5a565b9550610b4784610ae2565b935060208b019a505050600181019050610b1a565b50829750879550505050505092915050565b6000610b7a8383610aef565b905092915050565b600082356001604003833603038112610b9e57610b9d610a7a565b5b82810191505092915050565b6000602082019050919050565b6000610bc383856109c1565b935083602084028501610bd5846109d2565b8060005b87811015610c19578484038952610bf08284610b82565b610bfa8582610b6e565b9450610c0583610baa565b925060208a01995050600181019050610bd9565b50829750879450505050509392505050565b600082825260208201905092915050565b6000819050919050565b610c5260808383610a0d565b5050565b6000610c628383610c46565b60808301905092915050565b600082905092915050565b6000608082019050919050565b6000610c928385610c2b565b9350610c9d82610c3c565b8060005b85811015610cd657610cb38284610c6e565b610cbd8882610c56565b9750610cc883610c79565b925050600181019050610ca1565b5085925050509392505050565b600060a082019050610cf8600083018b61061a565b610d05602083018a61061a565b8181036040830152610d1881888a610bb7565b90508181036060830152610d2d818688610bb7565b90508181036080830152610d42818486610c86565b90509998505050505050505050565b7f4e487b7100000000000000000000000000000000000000000000000000000000600052603260045260246000fd5b600080fd5b600080fd5b600080fd5b600082356001604003833603038112610dab57610daa610d80565b5b80830191505092915050565b60008083356001602003843603038112610dd457610dd3610d80565b5b80840192508235915067ffffffffffffffff821115610df657610df5610d85565b5b602083019250600182023603831315610e1257610e11610d8a565b5b509250929050565b60008083356001602003843603038112610e3757610e36610d80565b5b80840192508235915067ffffffffffffffff821115610e5957610e58610d85565b5b602083019250600182023603831315610e7557610e74610d8a565b5b509250929050565b600082825260208201905092915050565b6000610e9a8385610e7d565b9350610ea7838584610a0d565b610eb083610a1c565b840190509392505050565b6000819050919050565b60006fffffffffffffffffffffffffffffffff82169050919050565b6000819050919050565b6000610f06610f01610efc84610ebb565b610ee1565b610ec5565b9050919050565b610f1681610eeb565b82525050565b600082825260208201905092915050565b6000610f398385610f1c565b9350610f46838584610a0d565b610f4f83610a1c565b840190509392505050565b60006060820190508181036000830152610f75818789610e8e565b9050610f846020830186610f0d565b8181036040830152610f97818486610f2d565b90509695505050505050565b7f4e487b7100000000000000000000000000000000000000000000000000000000600052601160045260246000fd5b6000819050919050565b6000610fe782610fd2565b91507fffffffffffffffffffffffffffffffffffffffffffffffffffffffffffffffff82141561101a57611019610fa3565b5b60018201905091905056fea264697066735822122033ffc280499c5ce475c08bae91ea7e4e098c28c7448bad9ef93d3baca6e0dcd064736f6c634300080c0033",
  "linkReferences": {},
  "deployedLinkReferences": {}
}