{
  "_format": "hh-sol-artifact-1",
  "contractName": "FrameFactory",
  "sourceName": "src/services/chain-sim/contracts/FrameFactory.sol",
  "abi": [
    {
      "inputs": [],
      "stateMutability": "nonpayable",
      "type": "constructor"
    },
    {
      "anonymous": false,
      "inputs": [
        {
          "indexed": false,
          "internalType": "address",
          "name": "newAddress",
          "type": "address"
        }
      ],
      "name": "FrameCreated",
      "type": "event"
    },
    {
      "inputs": [
        {
          "internalType": "address",
          "name": "_coreDepStorage",
          "type": "address"
        },
        {
          "internalType": "contract FrameDataStoreFactory",
          "name": "_frameDataStoreFactory",
          "type": "address"
        },
        {
          "internalType": "string[2][]",
          "name": "_deps",
          "type": "string[2][]"
        },
        {
          "internalType": "string[2][]",
          "name": "_assets",
          "type": "string[2][]"
        },
        {
          "internalType": "uint256[4][]",
          "name": "_renderIndex",
          "type": "uint256[4][]"
        }
      ],
      "name": "createFrame",
      "outputs": [],
      "stateMutability": "nonpayable",
      "type": "function"
    },
    {
      "inputs": [],
      "name": "libraryAddress",
      "outputs": [
        {
          "internalType": "address",
          "name": "",
          "type": "address"
        }
      ],
      "stateMutability": "view",
      "type": "function"
    },
    {
      "inputs": [
        {
          "internalType": "address",
          "name": "_libraryAddress",
          "type": "address"
        }
      ],
      "name": "setLibraryAddress",
      "outputs": [],
      "stateMutability": "nonpayable",
      "type": "function"
    }
  ],
  "bytecode": "0x608060405234801561001057600080fd5b50610967806100206000396000f3fe608060405234801561001057600080fd5b50600436106100415760003560e01c80634863ba1714610046578063b816f51314610062578063c80a892314610080575b600080fd5b610060600480360381019061005b9190610333565b61009c565b005b61006a6100df565b604051610077919061036f565b60405180910390f35b61009a60048036038101906100959190610483565b610103565b005b806000806101000a81548173ffffffffffffffffffffffffffffffffffffffff021916908373ffffffffffffffffffffffffffffffffffffffff16021790555050565b60008054906101000a900473ffffffffffffffffffffffffffffffffffffffff1681565b600061012e60008054906101000a900473ffffffffffffffffffffffffffffffffffffffff16610261565b905060008873ffffffffffffffffffffffffffffffffffffffff166366f4a19e6040518163ffffffff1660e01b81526004016020604051808303816000875af115801561017f573d6000803e3d6000fd5b505050506040513d601f19601f820116820180604052508101906101a39190610574565b90508173ffffffffffffffffffffffffffffffffffffffff16634f5ea5cc8b838b8b8b8b8b8b6040518963ffffffff1660e01b81526004016101ec9897969594939291906108c3565b600060405180830381600087803b15801561020657600080fd5b505af115801561021a573d6000803e3d6000fd5b505050507f62392641265fcc5a6a8128fd39634480ffe377e76dc54dcad335e1289fcc0fd58260405161024d919061036f565b60405180910390a150505050505050505050565b6000808260601b90506040517f3d602d80600a3d3981f3363d3d373d3d3d363d7300000000000000000000000081528160148201527f5af43d82803e903d91602b57fd5bf3000000000000000000000000000000000060288201526037816000f092505050919050565b600080fd5b600080fd5b600073ffffffffffffffffffffffffffffffffffffffff82169050919050565b6000610300826102d5565b9050919050565b610310816102f5565b811461031b57600080fd5b50565b60008135905061032d81610307565b92915050565b600060208284031215610349576103486102cb565b5b60006103578482850161031e565b91505092915050565b610369816102f5565b82525050565b60006020820190506103846000830184610360565b92915050565b6000610395826102f5565b9050919050565b6103a58161038a565b81146103b057600080fd5b50565b6000813590506103c28161039c565b92915050565b600080fd5b600080fd5b600080fd5b60008083601f8401126103ed576103ec6103c8565b5b8235905067ffffffffffffffff81111561040a576104096103cd565b5b602083019150836020820283011115610426576104256103d2565b5b9250929050565b60008083601f840112610443576104426103c8565b5b8235905067ffffffffffffffff8111156104605761045f6103cd565b5b60208301915083608082028301111561047c5761047b6103d2565b5b9250929050565b60008060008060008060008060a0898b0312156104a3576104a26102cb565b5b60006104b18b828c0161031e565b98505060206104c28b828c016103b3565b975050604089013567ffffffffffffffff8111156104e3576104e26102d0565b5b6104ef8b828c016103d7565b9650965050606089013567ffffffffffffffff811115610512576105116102d0565b5b61051e8b828c016103d7565b9450945050608089013567ffffffffffffffff811115610541576105406102d0565b5b61054d8b828c0161042d565b92509250509295985092959890939650565b60008151905061056e81610307565b92915050565b60006020828403121561058a576105896102cb565b5b60006105988482850161055f565b91505092915050565b600082825260208201905092915050565b6000819050919050565b600060029050919050565b600081905092915050565b6000819050919050565b600082825260208201905092915050565b82818337600083830152505050565b6000601f19601f8301169050919050565b600061061983856105dc565b93506106268385846105ed565b61062f836105fc565b840190509392505050565b600061064784848461060d565b90509392505050565b600080fd5b600080fd5b600080fd5b6000808335600160200384360303811261067c5761067b61065a565b5b83810192508235915060208301925067ffffffffffffffff8211156106a4576106a3610650565b5b6001820236038413156106ba576106b9610655565b5b509250929050565b6000602082019050919050565b60006106da826105bc565b6106e481856105c7565b9350836020820285016106f6856105d2565b8060005b8581101561073c578484038952610711828461065f565b61071c86828461063a565b9550610727846106c2565b935060208b019a5050506001810190506106fa565b50829750879550505050505092915050565b600061075a83836106cf565b905092915050565b60008235600160400383360303811261077e5761077d61065a565b5b82810191505092915050565b6000602082019050919050565b60006107a383856105a1565b9350836020840285016107b5846105b2565b8060005b878110156107f95784840389526107d08284610762565b6107da858261074e565b94506107e58361078a565b925060208a019950506001810190506107b9565b50829750879450505050509392505050565b600082825260208201905092915050565b6000819050919050565b610832608083836105ed565b5050565b60006108428383610826565b60808301905092915050565b600082905092915050565b6000608082019050919050565b6000610872838561080b565b935061087d8261081c565b8060005b858110156108b657610893828461084e565b61089d8882610836565b97506108a883610859565b925050600181019050610881565b5085925050509392505050565b600060a0820190506108d8600083018b610360565b6108e5602083018a610360565b81810360408301526108f881888a610797565b9050818103606083015261090d818688610797565b90508181036080830152610922818486610866565b9050999850505050505050505056fea2646970667358221220e7d45b1ed0839e467b358b36f494c754d8bf3541efc740d2c976d2365bbadcb964736f6c634300080c0033",
  "linkReferences": {},
  "deployedLinkReferences": {}
}