{
  "_format": "hh-sol-artifact-1",
  "contractName": "FrameFactory",
  "sourceName": "src/services/chain-sim/contracts/FrameFactory.sol",
  "abi": [
    {
      "inputs": [],
      "stateMutability": "nonpayable",
      "type": "constructor"
    },
    {
      "anonymous": false,
      "inputs": [
        {
          "indexed": false,
          "internalType": "address",
          "name": "newAddress",
          "type": "address"
        }
      ],
      "name": "FrameCreated",
      "type": "event"
    },
    {
      "inputs": [
        {
          "internalType": "address",
          "name": "_coreDepStorage",
          "type": "address"
        },
        {
          "internalType": "contract IFrameDataStoreFactory",
          "name": "_frameDataStoreFactory",
          "type": "address"
        },
        {
          "internalType": "string[2][][2]",
          "name": "_depsAndAssets",
          "type": "string[2][][2]"
        },
        {
          "internalType": "bytes[]",
          "name": "_assetsData",
          "type": "bytes[]"
        },
        {
          "internalType": "uint256[4][]",
          "name": "_renderIndex",
          "type": "uint256[4][]"
        },
        {
          "internalType": "string",
          "name": "_name",
          "type": "string"
        }
      ],
      "name": "createFrameWithSource",
      "outputs": [
        {
          "internalType": "address",
          "name": "",
          "type": "address"
        }
      ],
      "stateMutability": "nonpayable",
      "type": "function"
    },
    {
      "inputs": [],
      "name": "libraryAddress",
      "outputs": [
        {
          "internalType": "address",
          "name": "",
          "type": "address"
        }
      ],
      "stateMutability": "view",
      "type": "function"
    },
    {
      "inputs": [
        {
          "internalType": "address",
          "name": "_libraryAddress",
          "type": "address"
        }
      ],
      "name": "setLibraryAddress",
      "outputs": [],
      "stateMutability": "nonpayable",
      "type": "function"
    }
  ],
  "bytecode": "0x608060405234801561001057600080fd5b506112ae806100206000396000f3fe608060405234801561001057600080fd5b50600436106100415760003560e01c80634863ba1714610046578063b816f51314610062578063d3a758f314610080575b600080fd5b610060600480360381019061005b919061063b565b6100b0565b005b61006a610182565b6040516100779190610677565b60405180910390f35b61009a60048036038101906100959190610803565b6101a6565b6040516100a79190610677565b60405180910390f35b600073ffffffffffffffffffffffffffffffffffffffff1660008054906101000a900473ffffffffffffffffffffffffffffffffffffffff1673ffffffffffffffffffffffffffffffffffffffff161461013f576040517f08c379a000000000000000000000000000000000000000000000000000000000815260040161013690610991565b60405180910390fd5b806000806101000a81548173ffffffffffffffffffffffffffffffffffffffff021916908373ffffffffffffffffffffffffffffffffffffffff16021790555050565b60008054906101000a900473ffffffffffffffffffffffffffffffffffffffff1681565b6000806101d260008054906101000a900473ffffffffffffffffffffffffffffffffffffffff16610569565b905060008a73ffffffffffffffffffffffffffffffffffffffff1663bdbbea528686604051602001610205929190610a3c565b6040516020818303038152906040526040518263ffffffff1660e01b81526004016102309190610b47565b6020604051808303816000875af115801561024f573d6000803e3d6000fd5b505050506040513d601f19601f820116820180604052508101906102739190610b91565b90508173ffffffffffffffffffffffffffffffffffffffff16634f5ea5cc8d838d6000600281106102a7576102a6610bbe565b5b6020028101906102b79190610bfc565b8f6001600281106102cb576102ca610bbe565b5b6020028101906102db9190610bfc565b8e8e6040518963ffffffff1660e01b8152600401610300989796959493929190610f61565b600060405180830381600087803b15801561031a57600080fd5b505af115801561032e573d6000803e3d6000fd5b505050508173ffffffffffffffffffffffffffffffffffffffff1663c47f002786866040518363ffffffff1660e01b815260040161036d929190610ffc565b600060405180830381600087803b15801561038757600080fd5b505af115801561039b573d6000803e3d6000fd5b5050505060005b898990508110156104bf578173ffffffffffffffffffffffffffffffffffffffff16636af42a8c8c6001600281106103dd576103dc610bbe565b5b6020028101906103ed9190610bfc565b848181106103fe576103fd610bbe565b5b90506020028101906104109190611020565b60016002811061042357610422610bbe565b5b6020028101906104339190611048565b60008e8e8781811061044857610447610bbe565b5b905060200281019061045a91906110ab565b6040518663ffffffff1660e01b815260040161047a9594939291906111ad565b600060405180830381600087803b15801561049457600080fd5b505af11580156104a8573d6000803e3d6000fd5b5050505080806104b79061122f565b9150506103a2565b508073ffffffffffffffffffffffffffffffffffffffff1663f83d08ba6040518163ffffffff1660e01b8152600401600060405180830381600087803b15801561050857600080fd5b505af115801561051c573d6000803e3d6000fd5b505050507f62392641265fcc5a6a8128fd39634480ffe377e76dc54dcad335e1289fcc0fd58260405161054f9190610677565b60405180910390a181925050509998505050505050505050565b6000808260601b90506040517f3d602d80600a3d3981f3363d3d373d3d3d363d7300000000000000000000000081528160148201527f5af43d82803e903d91602b57fd5bf3000000000000000000000000000000000060288201526037816000f092505050919050565b600080fd5b600080fd5b600073ffffffffffffffffffffffffffffffffffffffff82169050919050565b6000610608826105dd565b9050919050565b610618816105fd565b811461062357600080fd5b50565b6000813590506106358161060f565b92915050565b600060208284031215610651576106506105d3565b5b600061065f84828501610626565b91505092915050565b610671816105fd565b82525050565b600060208201905061068c6000830184610668565b92915050565b600061069d826105fd565b9050919050565b6106ad81610692565b81146106b857600080fd5b50565b6000813590506106ca816106a4565b92915050565b600080fd5b6000819050826020600202820111156106f1576106f06106d0565b5b92915050565b600080fd5b600080fd5b60008083601f840112610717576107166106f7565b5b8235905067ffffffffffffffff811115610734576107336106fc565b5b6020830191508360208202830111156107505761074f6106d0565b5b9250929050565b60008083601f84011261076d5761076c6106f7565b5b8235905067ffffffffffffffff81111561078a576107896106fc565b5b6020830191508360808202830111156107a6576107a56106d0565b5b9250929050565b60008083601f8401126107c3576107c26106f7565b5b8235905067ffffffffffffffff8111156107e0576107df6106fc565b5b6020830191508360018202830111156107fc576107fb6106d0565b5b9250929050565b600080600080600080600080600060c08a8c031215610825576108246105d3565b5b60006108338c828d01610626565b99505060206108448c828d016106bb565b98505060408a013567ffffffffffffffff811115610865576108646105d8565b5b6108718c828d016106d5565b97505060608a013567ffffffffffffffff811115610892576108916105d8565b5b61089e8c828d01610701565b965096505060808a013567ffffffffffffffff8111156108c1576108c06105d8565b5b6108cd8c828d01610757565b945094505060a08a013567ffffffffffffffff8111156108f0576108ef6105d8565b5b6108fc8c828d016107ad565b92509250509295985092959850929598565b600082825260208201905092915050565b7f4672616d65466163746f72793a204c69627261727920616c726561647920736560008201527f7400000000000000000000000000000000000000000000000000000000000000602082015250565b600061097b60218361090e565b91506109868261091f565b604082019050919050565b600060208201905081810360008301526109aa8161096e565b9050919050565b600081905092915050565b82818337600083830152505050565b60006109d783856109b1565b93506109e48385846109bc565b82840190509392505050565b7f2000000000000000000000000000000000000000000000000000000000000000815250565b7f536f757263650000000000000000000000000000000000000000000000000000815250565b6000610a498284866109cb565b9150610a54826109f0565b600182019150610a6382610a16565b6006820191508190509392505050565b600081519050919050565b60005b83811015610a9c578082015181840152602081019050610a81565b83811115610aab576000848401525b50505050565b6000601f19601f8301169050919050565b6000610acd82610a73565b610ad7818561090e565b9350610ae7818560208601610a7e565b610af081610ab1565b840191505092915050565b7f312e302e30000000000000000000000000000000000000000000000000000000600082015250565b6000610b3160058361090e565b9150610b3c82610afb565b602082019050919050565b60006040820190508181036000830152610b618184610ac2565b90508181036020830152610b7481610b24565b905092915050565b600081519050610b8b8161060f565b92915050565b600060208284031215610ba757610ba66105d3565b5b6000610bb584828501610b7c565b91505092915050565b7f4e487b7100000000000000000000000000000000000000000000000000000000600052603260045260246000fd5b600080fd5b600080fd5b600080fd5b60008083356001602003843603038112610c1957610c18610bed565b5b80840192508235915067ffffffffffffffff821115610c3b57610c3a610bf2565b5b602083019250602082023603831315610c5757610c56610bf7565b5b509250929050565b600082825260208201905092915050565b6000819050919050565b600060029050919050565b600081905092915050565b6000819050919050565b600082825260208201905092915050565b6000610cb78385610c9a565b9350610cc48385846109bc565b610ccd83610ab1565b840190509392505050565b6000610ce5848484610cab565b90509392505050565b600080fd5b600080fd5b600080fd5b60008083356001602003843603038112610d1a57610d19610cf8565b5b83810192508235915060208301925067ffffffffffffffff821115610d4257610d41610cee565b5b600182023603841315610d5857610d57610cf3565b5b509250929050565b6000602082019050919050565b6000610d7882610c7a565b610d828185610c85565b935083602082028501610d9485610c90565b8060005b85811015610dda578484038952610daf8284610cfd565b610dba868284610cd8565b9550610dc584610d60565b935060208b019a505050600181019050610d98565b50829750879550505050505092915050565b6000610df88383610d6d565b905092915050565b600082356001604003833603038112610e1c57610e1b610cf8565b5b82810191505092915050565b6000602082019050919050565b6000610e418385610c5f565b935083602084028501610e5384610c70565b8060005b87811015610e97578484038952610e6e8284610e00565b610e788582610dec565b9450610e8383610e28565b925060208a01995050600181019050610e57565b50829750879450505050509392505050565b600082825260208201905092915050565b6000819050919050565b610ed0608083836109bc565b5050565b6000610ee08383610ec4565b60808301905092915050565b600082905092915050565b6000608082019050919050565b6000610f108385610ea9565b9350610f1b82610eba565b8060005b85811015610f5457610f318284610eec565b610f3b8882610ed4565b9750610f4683610ef7565b925050600181019050610f1f565b5085925050509392505050565b600060a082019050610f76600083018b610668565b610f83602083018a610668565b8181036040830152610f9681888a610e35565b90508181036060830152610fab818688610e35565b90508181036080830152610fc0818486610f04565b90509998505050505050505050565b6000610fdb838561090e565b9350610fe88385846109bc565b610ff183610ab1565b840190509392505050565b60006020820190508181036000830152611017818486610fcf565b90509392505050565b60008235600160400383360303811261103c5761103b610bed565b5b80830191505092915050565b6000808335600160200384360303811261106557611064610bed565b5b80840192508235915067ffffffffffffffff82111561108757611086610bf2565b5b6020830192506001820236038313156110a3576110a2610bf7565b5b509250929050565b600080833560016020038436030381126110c8576110c7610bed565b5b80840192508235915067ffffffffffffffff8211156110ea576110e9610bf2565b5b60208301925060018202360383131561110657611105610bf7565b5b509250929050565b6000819050919050565b60006fffffffffffffffffffffffffffffffff82169050919050565b6000819050919050565b600061115961115461114f8461110e565b611134565b611118565b9050919050565b6111698161113e565b82525050565b600082825260208201905092915050565b600061118c838561116f565b93506111998385846109bc565b6111a283610ab1565b840190509392505050565b600060608201905081810360008301526111c8818789610fcf565b90506111d76020830186611160565b81810360408301526111ea818486611180565b90509695505050505050565b7f4e487b7100000000000000000000000000000000000000000000000000000000600052601160045260246000fd5b6000819050919050565b600061123a82611225565b91507fffffffffffffffffffffffffffffffffffffffffffffffffffffffffffffffff82141561126d5761126c6111f6565b5b60018201905091905056fea26469706673582212209b7d249d22ab4b2e99e03824b36cefa75a2137fea9e3147a7faef7d553ffaf0664736f6c634300080c0033",
  "linkReferences": {},
  "deployedLinkReferences": {}
}