{
  "_format": "hh-sol-artifact-1",
  "contractName": "FrameFactory",
  "sourceName": "src/services/chain-sim/contracts/FrameFactory.sol",
  "abi": [
    {
      "inputs": [],
      "stateMutability": "nonpayable",
      "type": "constructor"
    },
    {
      "anonymous": false,
      "inputs": [
        {
          "indexed": false,
          "internalType": "address",
          "name": "newAddress",
          "type": "address"
        }
      ],
      "name": "FrameCreated",
      "type": "event"
    },
    {
      "inputs": [
        {
          "internalType": "address",
          "name": "_coreDepStorage",
          "type": "address"
        },
        {
          "internalType": "contract FrameDataStoreFactory",
          "name": "_frameDataStoreFactory",
          "type": "address"
        },
        {
          "internalType": "string[2][]",
          "name": "_deps",
          "type": "string[2][]"
        },
        {
          "internalType": "string[2][]",
          "name": "_assets",
          "type": "string[2][]"
        },
        {
          "internalType": "uint256[4][]",
          "name": "_renderIndex",
          "type": "uint256[4][]"
        }
      ],
      "name": "createFrame",
      "outputs": [
        {
          "internalType": "address",
          "name": "",
          "type": "address"
        }
      ],
      "stateMutability": "nonpayable",
      "type": "function"
    },
    {
      "inputs": [],
      "name": "libraryAddress",
      "outputs": [
        {
          "internalType": "address",
          "name": "",
          "type": "address"
        }
      ],
      "stateMutability": "view",
      "type": "function"
    },
    {
      "inputs": [
        {
          "internalType": "address",
          "name": "_libraryAddress",
          "type": "address"
        }
      ],
      "name": "setLibraryAddress",
      "outputs": [],
      "stateMutability": "nonpayable",
      "type": "function"
    }
  ],
  "bytecode": "0x608060405234801561001057600080fd5b50610981806100206000396000f3fe608060405234801561001057600080fd5b50600436106100415760003560e01c80634863ba1714610046578063b816f51314610062578063c80a892314610080575b600080fd5b610060600480360381019061005b919061034d565b6100b0565b005b61006a6100f3565b6040516100779190610389565b60405180910390f35b61009a6004803603810190610095919061049d565b610117565b6040516100a79190610389565b60405180910390f35b806000806101000a81548173ffffffffffffffffffffffffffffffffffffffff021916908373ffffffffffffffffffffffffffffffffffffffff16021790555050565b60008054906101000a900473ffffffffffffffffffffffffffffffffffffffff1681565b60008061014360008054906101000a900473ffffffffffffffffffffffffffffffffffffffff1661027b565b905060008973ffffffffffffffffffffffffffffffffffffffff166366f4a19e6040518163ffffffff1660e01b81526004016020604051808303816000875af1158015610194573d6000803e3d6000fd5b505050506040513d601f19601f820116820180604052508101906101b8919061058e565b90508173ffffffffffffffffffffffffffffffffffffffff16634f5ea5cc8c838c8c8c8c8c8c6040518963ffffffff1660e01b81526004016102019897969594939291906108dd565b600060405180830381600087803b15801561021b57600080fd5b505af115801561022f573d6000803e3d6000fd5b505050507f62392641265fcc5a6a8128fd39634480ffe377e76dc54dcad335e1289fcc0fd5826040516102629190610389565b60405180910390a1819250505098975050505050505050565b6000808260601b90506040517f3d602d80600a3d3981f3363d3d373d3d3d363d7300000000000000000000000081528160148201527f5af43d82803e903d91602b57fd5bf3000000000000000000000000000000000060288201526037816000f092505050919050565b600080fd5b600080fd5b600073ffffffffffffffffffffffffffffffffffffffff82169050919050565b600061031a826102ef565b9050919050565b61032a8161030f565b811461033557600080fd5b50565b60008135905061034781610321565b92915050565b600060208284031215610363576103626102e5565b5b600061037184828501610338565b91505092915050565b6103838161030f565b82525050565b600060208201905061039e600083018461037a565b92915050565b60006103af8261030f565b9050919050565b6103bf816103a4565b81146103ca57600080fd5b50565b6000813590506103dc816103b6565b92915050565b600080fd5b600080fd5b600080fd5b60008083601f840112610407576104066103e2565b5b8235905067ffffffffffffffff811115610424576104236103e7565b5b6020830191508360208202830111156104405761043f6103ec565b5b9250929050565b60008083601f84011261045d5761045c6103e2565b5b8235905067ffffffffffffffff81111561047a576104796103e7565b5b602083019150836080820283011115610496576104956103ec565b5b9250929050565b60008060008060008060008060a0898b0312156104bd576104bc6102e5565b5b60006104cb8b828c01610338565b98505060206104dc8b828c016103cd565b975050604089013567ffffffffffffffff8111156104fd576104fc6102ea565b5b6105098b828c016103f1565b9650965050606089013567ffffffffffffffff81111561052c5761052b6102ea565b5b6105388b828c016103f1565b9450945050608089013567ffffffffffffffff81111561055b5761055a6102ea565b5b6105678b828c01610447565b92509250509295985092959890939650565b60008151905061058881610321565b92915050565b6000602082840312156105a4576105a36102e5565b5b60006105b284828501610579565b91505092915050565b600082825260208201905092915050565b6000819050919050565b600060029050919050565b600081905092915050565b6000819050919050565b600082825260208201905092915050565b82818337600083830152505050565b6000601f19601f8301169050919050565b600061063383856105f6565b9350610640838584610607565b61064983610616565b840190509392505050565b6000610661848484610627565b90509392505050565b600080fd5b600080fd5b600080fd5b6000808335600160200384360303811261069657610695610674565b5b83810192508235915060208301925067ffffffffffffffff8211156106be576106bd61066a565b5b6001820236038413156106d4576106d361066f565b5b509250929050565b6000602082019050919050565b60006106f4826105d6565b6106fe81856105e1565b935083602082028501610710856105ec565b8060005b8581101561075657848403895261072b8284610679565b610736868284610654565b9550610741846106dc565b935060208b019a505050600181019050610714565b50829750879550505050505092915050565b600061077483836106e9565b905092915050565b60008235600160400383360303811261079857610797610674565b5b82810191505092915050565b6000602082019050919050565b60006107bd83856105bb565b9350836020840285016107cf846105cc565b8060005b878110156108135784840389526107ea828461077c565b6107f48582610768565b94506107ff836107a4565b925060208a019950506001810190506107d3565b50829750879450505050509392505050565b600082825260208201905092915050565b6000819050919050565b61084c60808383610607565b5050565b600061085c8383610840565b60808301905092915050565b600082905092915050565b6000608082019050919050565b600061088c8385610825565b935061089782610836565b8060005b858110156108d0576108ad8284610868565b6108b78882610850565b97506108c283610873565b92505060018101905061089b565b5085925050509392505050565b600060a0820190506108f2600083018b61037a565b6108ff602083018a61037a565b818103604083015261091281888a6107b1565b905081810360608301526109278186886107b1565b9050818103608083015261093c818486610880565b9050999850505050505050505056fea26469706673582212204af8d56b47014c9cacb0b2069c37f7542bfc5d8695b2c09fec86a6ef8dc19a8264736f6c634300080c0033",
  "linkReferences": {},
  "deployedLinkReferences": {}
}