{
  "_format": "hh-sol-artifact-1",
  "contractName": "ScriptyStorageInitializable",
  "sourceName": "src/contracts/libs/scripty/ScriptyStorageInitializable.sol",
  "abi": [
    {
      "inputs": [],
      "stateMutability": "nonpayable",
      "type": "constructor"
    },
    {
      "inputs": [],
      "name": "NotScriptOwner",
      "type": "error"
    },
    {
      "inputs": [],
      "name": "ScriptExists",
      "type": "error"
    },
    {
      "anonymous": false,
      "inputs": [
        {
          "indexed": true,
          "internalType": "string",
          "name": "name",
          "type": "string"
        },
        {
          "indexed": false,
          "internalType": "uint256",
          "name": "size",
          "type": "uint256"
        }
      ],
      "name": "ChunkStored",
      "type": "event"
    },
    {
      "anonymous": false,
      "inputs": [
        {
          "indexed": false,
          "internalType": "uint8",
          "name": "version",
          "type": "uint8"
        }
      ],
      "name": "Initialized",
      "type": "event"
    },
    {
      "anonymous": false,
      "inputs": [
        {
          "indexed": true,
          "internalType": "address",
          "name": "previousOwner",
          "type": "address"
        },
        {
          "indexed": true,
          "internalType": "address",
          "name": "newOwner",
          "type": "address"
        }
      ],
      "name": "OwnershipTransferred",
      "type": "event"
    },
    {
      "anonymous": false,
      "inputs": [
        {
          "indexed": true,
          "internalType": "string",
          "name": "name",
          "type": "string"
        },
        {
          "indexed": false,
          "internalType": "address",
          "name": "owner",
          "type": "address"
        },
        {
          "indexed": false,
          "internalType": "bytes",
          "name": "details",
          "type": "bytes"
        }
      ],
      "name": "ScriptCreated",
      "type": "event"
    },
    {
      "anonymous": false,
      "inputs": [
        {
          "indexed": true,
          "internalType": "string",
          "name": "name",
          "type": "string"
        },
        {
          "indexed": false,
          "internalType": "address",
          "name": "owner",
          "type": "address"
        },
        {
          "indexed": false,
          "internalType": "bytes",
          "name": "details",
          "type": "bytes"
        }
      ],
      "name": "ScriptDetailsUpdated",
      "type": "event"
    },
    {
      "anonymous": false,
      "inputs": [
        {
          "indexed": true,
          "internalType": "string",
          "name": "name",
          "type": "string"
        },
        {
          "indexed": false,
          "internalType": "bool",
          "name": "isVerified",
          "type": "bool"
        }
      ],
      "name": "ScriptVerificationUpdated",
      "type": "event"
    },
    {
      "inputs": [
        {
          "internalType": "string",
          "name": "name",
          "type": "string"
        },
        {
          "internalType": "bytes",
          "name": "chunk",
          "type": "bytes"
        }
      ],
      "name": "addChunkToScript",
      "outputs": [],
      "stateMutability": "nonpayable",
      "type": "function"
    },
    {
      "inputs": [],
      "name": "contentStore",
      "outputs": [
        {
          "internalType": "contract IContentStore",
          "name": "",
          "type": "address"
        }
      ],
      "stateMutability": "view",
      "type": "function"
    },
    {
      "inputs": [
        {
          "internalType": "string",
          "name": "name",
          "type": "string"
        },
        {
          "internalType": "bytes",
          "name": "details",
          "type": "bytes"
        }
      ],
      "name": "createScript",
      "outputs": [],
      "stateMutability": "nonpayable",
      "type": "function"
    },
    {
      "inputs": [
        {
          "internalType": "string",
          "name": "name",
          "type": "string"
        },
        {
          "internalType": "bytes",
          "name": "data",
          "type": "bytes"
        }
      ],
      "name": "getScript",
      "outputs": [
        {
          "internalType": "bytes",
          "name": "script",
          "type": "bytes"
        }
      ],
      "stateMutability": "view",
      "type": "function"
    },
    {
      "inputs": [
        {
          "internalType": "string",
          "name": "name",
          "type": "string"
        }
      ],
      "name": "getScriptChunkPointers",
      "outputs": [
        {
          "internalType": "address[]",
          "name": "pointers",
          "type": "address[]"
        }
      ],
      "stateMutability": "view",
      "type": "function"
    },
    {
      "inputs": [
        {
          "internalType": "address",
          "name": "_contentStoreAddress",
          "type": "address"
        }
      ],
      "name": "initialize",
      "outputs": [],
      "stateMutability": "nonpayable",
      "type": "function"
    },
    {
      "inputs": [],
      "name": "owner",
      "outputs": [
        {
          "internalType": "address",
          "name": "",
          "type": "address"
        }
      ],
      "stateMutability": "view",
      "type": "function"
    },
    {
      "inputs": [],
      "name": "renounceOwnership",
      "outputs": [],
      "stateMutability": "nonpayable",
      "type": "function"
    },
    {
      "inputs": [
        {
          "internalType": "string",
          "name": "",
          "type": "string"
        }
      ],
      "name": "scripts",
      "outputs": [
        {
          "internalType": "bool",
          "name": "isVerified",
          "type": "bool"
        },
        {
          "internalType": "address",
          "name": "owner",
          "type": "address"
        },
        {
          "internalType": "uint256",
          "name": "size",
          "type": "uint256"
        },
        {
          "internalType": "bytes",
          "name": "details",
          "type": "bytes"
        }
      ],
      "stateMutability": "view",
      "type": "function"
    },
    {
      "inputs": [
        {
          "internalType": "address",
          "name": "newOwner",
          "type": "address"
        }
      ],
      "name": "transferOwnership",
      "outputs": [],
      "stateMutability": "nonpayable",
      "type": "function"
    },
    {
      "inputs": [
        {
          "internalType": "string",
          "name": "name",
          "type": "string"
        },
        {
          "internalType": "bytes",
          "name": "details",
          "type": "bytes"
        }
      ],
      "name": "updateDetails",
      "outputs": [],
      "stateMutability": "nonpayable",
      "type": "function"
    },
    {
      "inputs": [
        {
          "internalType": "string",
          "name": "name",
          "type": "string"
        },
        {
          "internalType": "bool",
          "name": "isVerified",
          "type": "bool"
        }
      ],
      "name": "updateScriptVerification",
      "outputs": [],
      "stateMutability": "nonpayable",
      "type": "function"
    }
  ],
  "bytecode": "0x608060405234801561001057600080fd5b5061002d61002261003260201b60201c565b61003a60201b60201c565b6100fe565b600033905090565b60008060009054906101000a900473ffffffffffffffffffffffffffffffffffffffff169050816000806101000a81548173ffffffffffffffffffffffffffffffffffffffff021916908373ffffffffffffffffffffffffffffffffffffffff1602179055508173ffffffffffffffffffffffffffffffffffffffff168173ffffffffffffffffffffffffffffffffffffffff167f8be0079c531659141344cd1fd0a4f28419497f9722a3daafe3b4186f6b6457e060405160405180910390a35050565b6121e0806200010e6000396000f3fe608060405234801561001057600080fd5b50600436106100b45760003560e01c8063ae0f849711610071578063ae0f849714610167578063c3766aff1461019a578063c4d66de8146101b6578063f2fde38b146101d2578063f66188a4146101ee578063f96355941461020a576100b4565b80633998d026146100b95780633a6e674c146100e95780633b7aa8d914610107578063715018a6146101235780638652d6691461012d5780638da5cb5b14610149575b600080fd5b6100d360048036038101906100ce91906112f3565b61023a565b6040516100e0919061142c565b60405180910390f35b6100f16102e9565b6040516100fe91906114ad565b60405180910390f35b610121600480360381019061011c919061157e565b61030f565b005b61012b6105b9565b005b6101476004803603810190610142919061157e565b6105cd565b005b6101516108a8565b60405161015e919061160e565b60405180910390f35b610181600480360381019061017c91906112f3565b6108d1565b60405161019194939291906116dc565b60405180910390f35b6101b460048036038101906101af919061157e565b6109cc565b005b6101d060048036038101906101cb9190611754565b610b44565b005b6101ec60048036038101906101e79190611754565b610d52565b005b610208600480360381019061020391906117ad565b610dd5565b005b610224600480360381019061021f91906118ae565b610e6c565b6040516102319190611926565b60405180910390f35b606060028260405161024c919061198f565b90815260200160405180910390206003018054806020026020016040519081016040528092919081815260200182805480156102dd57602002820191906000526020600020905b8160009054906101000a900473ffffffffffffffffffffffffffffffffffffffff1673ffffffffffffffffffffffffffffffffffffffff1681526020019060010190808311610293575b50505050509050919050565b600160009054906101000a900473ffffffffffffffffffffffffffffffffffffffff1681565b83838080601f016020809104026020016040519081016040528093929190818152602001838380828437600081840152601f19601f82011690508083019250505050505050600281604051610364919061198f565b908152602001604051809103902060000160019054906101000a900473ffffffffffffffffffffffffffffffffffffffff1673ffffffffffffffffffffffffffffffffffffffff163373ffffffffffffffffffffffffffffffffffffffff16146103fa576040517f48430eda00000000000000000000000000000000000000000000000000000000815260040160405180910390fd5b6000600160009054906101000a900473ffffffffffffffffffffffffffffffffffffffff1673ffffffffffffffffffffffffffffffffffffffff1663093e983985856040518363ffffffff1660e01b81526004016104599291906119d3565b60408051808303816000875af1158015610477573d6000803e3d6000fd5b505050506040513d601f19601f8201168201806040525081019061049b9190611a42565b915050600286866040516104b0929190611aa7565b9081526020016040518091039020600301819080600181540180825580915050600190039060005260206000200160009091909190916101000a81548173ffffffffffffffffffffffffffffffffffffffff021916908373ffffffffffffffffffffffffffffffffffffffff1602179055508383905060028787604051610538929190611aa7565b908152602001604051809103902060010160008282546105589190611aef565b92505081905550858560405161056f929190611aa7565b60405180910390207f4c4439fb488c666dfac05b75b1eaa33ddec20e80ade108bbfbf9a346101a17fa858590506040516105a99190611b23565b60405180910390a2505050505050565b6105c1610f24565b6105cb6000610fa2565b565b83838080601f016020809104026020016040519081016040528093929190818152602001838380828437600081840152601f19601f82011690508083019250505050505050600073ffffffffffffffffffffffffffffffffffffffff1660028260405161063a919061198f565b908152602001604051809103902060000160019054906101000a900473ffffffffffffffffffffffffffffffffffffffff1673ffffffffffffffffffffffffffffffffffffffff16146106b9576040517f0d3c537600000000000000000000000000000000000000000000000000000000815260040160405180910390fd5b6040518060a001604052806000151581526020013373ffffffffffffffffffffffffffffffffffffffff1681526020016000815260200184848080601f016020809104026020016040519081016040528093929190818152602001838380828437600081840152601f19601f820116905080830192505050505050508152602001600067ffffffffffffffff811115610755576107546111c8565b5b6040519080825280602002602001820160405280156107835781602001602082028036833780820191505090505b5081525060028686604051610799929190611aa7565b908152602001604051809103902060008201518160000160006101000a81548160ff02191690831515021790555060208201518160000160016101000a81548173ffffffffffffffffffffffffffffffffffffffff021916908373ffffffffffffffffffffffffffffffffffffffff16021790555060408201518160010155606082015181600201908161082d9190611d40565b50608082015181600301908051906020019061084a9291906110f2565b50905050848460405161085e929190611aa7565b60405180910390207f35023683f3e2601679984b8499066b14c71937187f37bdb34221581a22792e0a33858560405161089993929190611e12565b60405180910390a25050505050565b60008060009054906101000a900473ffffffffffffffffffffffffffffffffffffffff16905090565b6002818051602081018201805184825260208301602085012081835280955050505050506000915090508060000160009054906101000a900460ff16908060000160019054906101000a900473ffffffffffffffffffffffffffffffffffffffff169080600101549080600201805461094990611b6d565b80601f016020809104026020016040519081016040528092919081815260200182805461097590611b6d565b80156109c25780601f10610997576101008083540402835291602001916109c2565b820191906000526020600020905b8154815290600101906020018083116109a557829003601f168201915b5050505050905084565b83838080601f016020809104026020016040519081016040528093929190818152602001838380828437600081840152601f19601f82011690508083019250505050505050600281604051610a21919061198f565b908152602001604051809103902060000160019054906101000a900473ffffffffffffffffffffffffffffffffffffffff1673ffffffffffffffffffffffffffffffffffffffff163373ffffffffffffffffffffffffffffffffffffffff1614610ab7576040517f48430eda00000000000000000000000000000000000000000000000000000000815260040160405180910390fd5b828260028787604051610acb929190611aa7565b90815260200160405180910390206002019182610ae9929190611e4f565b508484604051610afa929190611aa7565b60405180910390207fee4b871e75b741fc8f590502e8d6eef71a1fd737732e9586c2ebbd5c63f172fc338585604051610b3593929190611e12565b60405180910390a25050505050565b60008060159054906101000a900460ff16159050808015610b7757506001600060149054906101000a900460ff1660ff16105b80610ba65750610b8630611066565b158015610ba557506001600060149054906101000a900460ff1660ff16145b5b610be5576040517f08c379a0000000000000000000000000000000000000000000000000000000008152600401610bdc90611fa2565b60405180910390fd5b6001600060146101000a81548160ff021916908360ff1602179055508015610c23576001600060156101000a81548160ff0219169083151502179055505b600073ffffffffffffffffffffffffffffffffffffffff16600160009054906101000a900473ffffffffffffffffffffffffffffffffffffffff1673ffffffffffffffffffffffffffffffffffffffff1614610cb4576040517f08c379a0000000000000000000000000000000000000000000000000000000008152600401610cab9061200e565b60405180910390fd5b81600160006101000a81548173ffffffffffffffffffffffffffffffffffffffff021916908373ffffffffffffffffffffffffffffffffffffffff1602179055508015610d4e5760008060156101000a81548160ff0219169083151502179055507f7f26b83ff96e1f2b6a682f133852f6798a09c465da95921460cefb38474024986001604051610d459190612076565b60405180910390a15b5050565b610d5a610f24565b600073ffffffffffffffffffffffffffffffffffffffff168173ffffffffffffffffffffffffffffffffffffffff1603610dc9576040517f08c379a0000000000000000000000000000000000000000000000000000000008152600401610dc090612103565b60405180910390fd5b610dd281610fa2565b50565b610ddd610f24565b8060028484604051610df0929190611aa7565b908152602001604051809103902060000160006101000a81548160ff0219169083151502179055508282604051610e28929190611aa7565b60405180910390207fd5c4aa2b5240e0e08c3bbb0802a6dfcd8bc9967b86d7e94970e324fccf1e6d2b82604051610e5f9190612123565b60405180910390a2505050565b6060610f1c600284604051610e81919061198f565b9081526020016040518091039020600301805480602002602001604051908101604052809291908181526020018280548015610f1257602002820191906000526020600020905b8160009054906101000a900473ffffffffffffffffffffffffffffffffffffffff1673ffffffffffffffffffffffffffffffffffffffff1681526020019060010190808311610ec8575b5050505050611089565b905092915050565b610f2c6110ea565b73ffffffffffffffffffffffffffffffffffffffff16610f4a6108a8565b73ffffffffffffffffffffffffffffffffffffffff1614610fa0576040517f08c379a0000000000000000000000000000000000000000000000000000000008152600401610f979061218a565b60405180910390fd5b565b60008060009054906101000a900473ffffffffffffffffffffffffffffffffffffffff169050816000806101000a81548173ffffffffffffffffffffffffffffffffffffffff021916908373ffffffffffffffffffffffffffffffffffffffff1602179055508173ffffffffffffffffffffffffffffffffffffffff168173ffffffffffffffffffffffffffffffffffffffff167f8be0079c531659141344cd1fd0a4f28419497f9722a3daafe3b4186f6b6457e060405160405180910390a35050565b6000808273ffffffffffffffffffffffffffffffffffffffff163b119050919050565b606081516020600060405193506000805b848110156110cd576020810260200187015191506001823b039250826001858801843c828401935060018101905061109a565b50602083038552601f19601f840116850160405250505050919050565b600033905090565b82805482825590600052602060002090810192821561116b579160200282015b8281111561116a5782518260006101000a81548173ffffffffffffffffffffffffffffffffffffffff021916908373ffffffffffffffffffffffffffffffffffffffff16021790555091602001919060010190611112565b5b509050611178919061117c565b5090565b5b8082111561119557600081600090555060010161117d565b5090565b6000604051905090565b600080fd5b600080fd5b600080fd5b600080fd5b6000601f19601f8301169050919050565b7f4e487b7100000000000000000000000000000000000000000000000000000000600052604160045260246000fd5b611200826111b7565b810181811067ffffffffffffffff8211171561121f5761121e6111c8565b5b80604052505050565b6000611232611199565b905061123e82826111f7565b919050565b600067ffffffffffffffff82111561125e5761125d6111c8565b5b611267826111b7565b9050602081019050919050565b82818337600083830152505050565b600061129661129184611243565b611228565b9050828152602081018484840111156112b2576112b16111b2565b5b6112bd848285611274565b509392505050565b600082601f8301126112da576112d96111ad565b5b81356112ea848260208601611283565b91505092915050565b600060208284031215611309576113086111a3565b5b600082013567ffffffffffffffff811115611327576113266111a8565b5b611333848285016112c5565b91505092915050565b600081519050919050565b600082825260208201905092915050565b6000819050602082019050919050565b600073ffffffffffffffffffffffffffffffffffffffff82169050919050565b600061139382611368565b9050919050565b6113a381611388565b82525050565b60006113b5838361139a565b60208301905092915050565b6000602082019050919050565b60006113d98261133c565b6113e38185611347565b93506113ee83611358565b8060005b8381101561141f57815161140688826113a9565b9750611411836113c1565b9250506001810190506113f2565b5085935050505092915050565b6000602082019050818103600083015261144681846113ce565b905092915050565b6000819050919050565b600061147361146e61146984611368565b61144e565b611368565b9050919050565b600061148582611458565b9050919050565b60006114978261147a565b9050919050565b6114a78161148c565b82525050565b60006020820190506114c2600083018461149e565b92915050565b600080fd5b600080fd5b60008083601f8401126114e8576114e76111ad565b5b8235905067ffffffffffffffff811115611505576115046114c8565b5b602083019150836001820283011115611521576115206114cd565b5b9250929050565b60008083601f84011261153e5761153d6111ad565b5b8235905067ffffffffffffffff81111561155b5761155a6114c8565b5b602083019150836001820283011115611577576115766114cd565b5b9250929050565b60008060008060408587031215611598576115976111a3565b5b600085013567ffffffffffffffff8111156115b6576115b56111a8565b5b6115c2878288016114d2565b9450945050602085013567ffffffffffffffff8111156115e5576115e46111a8565b5b6115f187828801611528565b925092505092959194509250565b61160881611388565b82525050565b600060208201905061162360008301846115ff565b92915050565b60008115159050919050565b61163e81611629565b82525050565b6000819050919050565b61165781611644565b82525050565b600081519050919050565b600082825260208201905092915050565b60005b8381101561169757808201518184015260208101905061167c565b60008484015250505050565b60006116ae8261165d565b6116b88185611668565b93506116c8818560208601611679565b6116d1816111b7565b840191505092915050565b60006080820190506116f16000830187611635565b6116fe60208301866115ff565b61170b604083018561164e565b818103606083015261171d81846116a3565b905095945050505050565b61173181611388565b811461173c57600080fd5b50565b60008135905061174e81611728565b92915050565b60006020828403121561176a576117696111a3565b5b60006117788482850161173f565b91505092915050565b61178a81611629565b811461179557600080fd5b50565b6000813590506117a781611781565b92915050565b6000806000604084860312156117c6576117c56111a3565b5b600084013567ffffffffffffffff8111156117e4576117e36111a8565b5b6117f0868287016114d2565b9350935050602061180386828701611798565b9150509250925092565b600067ffffffffffffffff821115611828576118276111c8565b5b611831826111b7565b9050602081019050919050565b600061185161184c8461180d565b611228565b90508281526020810184848401111561186d5761186c6111b2565b5b611878848285611274565b509392505050565b600082601f830112611895576118946111ad565b5b81356118a584826020860161183e565b91505092915050565b600080604083850312156118c5576118c46111a3565b5b600083013567ffffffffffffffff8111156118e3576118e26111a8565b5b6118ef858286016112c5565b925050602083013567ffffffffffffffff8111156119105761190f6111a8565b5b61191c85828601611880565b9150509250929050565b6000602082019050818103600083015261194081846116a3565b905092915050565b600081519050919050565b600081905092915050565b600061196982611948565b6119738185611953565b9350611983818560208601611679565b80840191505092915050565b600061199b828461195e565b915081905092915050565b60006119b28385611668565b93506119bf838584611274565b6119c8836111b7565b840190509392505050565b600060208201905081810360008301526119ee8184866119a6565b90509392505050565b6000819050919050565b611a0a816119f7565b8114611a1557600080fd5b50565b600081519050611a2781611a01565b92915050565b600081519050611a3c81611728565b92915050565b60008060408385031215611a5957611a586111a3565b5b6000611a6785828601611a18565b9250506020611a7885828601611a2d565b9150509250929050565b6000611a8e8385611953565b9350611a9b838584611274565b82840190509392505050565b6000611ab4828486611a82565b91508190509392505050565b7f4e487b7100000000000000000000000000000000000000000000000000000000600052601160045260246000fd5b6000611afa82611644565b9150611b0583611644565b9250828201905080821115611b1d57611b1c611ac0565b5b92915050565b6000602082019050611b38600083018461164e565b92915050565b7f4e487b7100000000000000000000000000000000000000000000000000000000600052602260045260246000fd5b60006002820490506001821680611b8557607f821691505b602082108103611b9857611b97611b3e565b5b50919050565b60008190508160005260206000209050919050565b60006020601f8301049050919050565b600082821b905092915050565b600060088302611c007fffffffffffffffffffffffffffffffffffffffffffffffffffffffffffffffff82611bc3565b611c0a8683611bc3565b95508019841693508086168417925050509392505050565b6000611c3d611c38611c3384611644565b61144e565b611644565b9050919050565b6000819050919050565b611c5783611c22565b611c6b611c6382611c44565b848454611bd0565b825550505050565b600090565b611c80611c73565b611c8b818484611c4e565b505050565b5b81811015611caf57611ca4600082611c78565b600181019050611c91565b5050565b601f821115611cf457611cc581611b9e565b611cce84611bb3565b81016020851015611cdd578190505b611cf1611ce985611bb3565b830182611c90565b50505b505050565b600082821c905092915050565b6000611d1760001984600802611cf9565b1980831691505092915050565b6000611d308383611d06565b9150826002028217905092915050565b611d498261165d565b67ffffffffffffffff811115611d6257611d616111c8565b5b611d6c8254611b6d565b611d77828285611cb3565b600060209050601f831160018114611daa5760008415611d98578287015190505b611da28582611d24565b865550611e0a565b601f198416611db886611b9e565b60005b82811015611de057848901518255600182019150602085019450602081019050611dbb565b86831015611dfd5784890151611df9601f891682611d06565b8355505b6001600288020188555050505b505050505050565b6000604082019050611e2760008301866115ff565b8181036020830152611e3a8184866119a6565b9050949350505050565b600082905092915050565b611e598383611e44565b67ffffffffffffffff811115611e7257611e716111c8565b5b611e7c8254611b6d565b611e87828285611cb3565b6000601f831160018114611eb65760008415611ea4578287013590505b611eae8582611d24565b865550611f16565b601f198416611ec486611b9e565b60005b82811015611eec57848901358255600182019150602085019450602081019050611ec7565b86831015611f095784890135611f05601f891682611d06565b8355505b6001600288020188555050505b50505050505050565b600082825260208201905092915050565b7f496e697469616c697a61626c653a20636f6e747261637420697320616c72656160008201527f647920696e697469616c697a6564000000000000000000000000000000000000602082015250565b6000611f8c602e83611f1f565b9150611f9782611f30565b604082019050919050565b60006020820190508181036000830152611fbb81611f7f565b9050919050565b7f416c726561647920696e697469616c697a656400000000000000000000000000600082015250565b6000611ff8601383611f1f565b915061200382611fc2565b602082019050919050565b6000602082019050818103600083015261202781611feb565b9050919050565b6000819050919050565b600060ff82169050919050565b600061206061205b6120568461202e565b61144e565b612038565b9050919050565b61207081612045565b82525050565b600060208201905061208b6000830184612067565b92915050565b7f4f776e61626c653a206e6577206f776e657220697320746865207a65726f206160008201527f6464726573730000000000000000000000000000000000000000000000000000602082015250565b60006120ed602683611f1f565b91506120f882612091565b604082019050919050565b6000602082019050818103600083015261211c816120e0565b9050919050565b60006020820190506121386000830184611635565b92915050565b7f4f776e61626c653a2063616c6c6572206973206e6f7420746865206f776e6572600082015250565b6000612174602083611f1f565b915061217f8261213e565b602082019050919050565b600060208201905081810360008301526121a381612167565b905091905056fea2646970667358221220b12550166b74a26da09471b4a325100ff68fcc8877026891310fdafede9e820964736f6c63430008110033",
  "linkReferences": {},
  "deployedLinkReferences": {}
}