{
  "_format": "hh-sol-artifact-1",
  "contractName": "Frame",
  "sourceName": "src/services/chain-sim/contracts/Frame.sol",
  "abi": [
    {
      "inputs": [],
      "stateMutability": "nonpayable",
      "type": "constructor"
    },
    {
      "inputs": [
        {
          "internalType": "uint256",
          "name": "",
          "type": "uint256"
        }
      ],
      "name": "assetList",
      "outputs": [
        {
          "internalType": "string",
          "name": "wrapperKey",
          "type": "string"
        },
        {
          "internalType": "string",
          "name": "key",
          "type": "string"
        }
      ],
      "stateMutability": "view",
      "type": "function"
    },
    {
      "inputs": [],
      "name": "assetStorage",
      "outputs": [
        {
          "internalType": "contract FrameDataStore",
          "name": "",
          "type": "address"
        }
      ],
      "stateMutability": "view",
      "type": "function"
    },
    {
      "inputs": [],
      "name": "assetsCount",
      "outputs": [
        {
          "internalType": "uint256",
          "name": "",
          "type": "uint256"
        }
      ],
      "stateMutability": "view",
      "type": "function"
    },
    {
      "inputs": [
        {
          "internalType": "uint256",
          "name": "",
          "type": "uint256"
        }
      ],
      "name": "bodyWrapper",
      "outputs": [
        {
          "internalType": "string",
          "name": "",
          "type": "string"
        }
      ],
      "stateMutability": "view",
      "type": "function"
    },
    {
      "inputs": [],
      "name": "coreDepStorage",
      "outputs": [
        {
          "internalType": "contract FrameDataStore",
          "name": "",
          "type": "address"
        }
      ],
      "stateMutability": "view",
      "type": "function"
    },
    {
      "inputs": [],
      "name": "depsCount",
      "outputs": [
        {
          "internalType": "uint256",
          "name": "",
          "type": "uint256"
        }
      ],
      "stateMutability": "view",
      "type": "function"
    },
    {
      "inputs": [
        {
          "internalType": "uint256",
          "name": "",
          "type": "uint256"
        }
      ],
      "name": "depsList",
      "outputs": [
        {
          "internalType": "string",
          "name": "wrapperKey",
          "type": "string"
        },
        {
          "internalType": "string",
          "name": "key",
          "type": "string"
        }
      ],
      "stateMutability": "view",
      "type": "function"
    },
    {
      "inputs": [
        {
          "internalType": "uint256",
          "name": "",
          "type": "uint256"
        }
      ],
      "name": "headWrapper",
      "outputs": [
        {
          "internalType": "string",
          "name": "",
          "type": "string"
        }
      ],
      "stateMutability": "view",
      "type": "function"
    },
    {
      "inputs": [
        {
          "internalType": "uint256",
          "name": "",
          "type": "uint256"
        }
      ],
      "name": "htmlWrapper",
      "outputs": [
        {
          "internalType": "string",
          "name": "",
          "type": "string"
        }
      ],
      "stateMutability": "view",
      "type": "function"
    },
    {
      "inputs": [
        {
          "internalType": "uint256",
          "name": "",
          "type": "uint256"
        }
      ],
      "name": "importsWrapper",
      "outputs": [
        {
          "internalType": "string",
          "name": "",
          "type": "string"
        }
      ],
      "stateMutability": "view",
      "type": "function"
    },
    {
      "inputs": [
        {
          "internalType": "address",
          "name": "_coreDepStorage",
          "type": "address"
        },
        {
          "internalType": "address",
          "name": "_assetStorage",
          "type": "address"
        },
        {
          "internalType": "string[2][]",
          "name": "_deps",
          "type": "string[2][]"
        },
        {
          "internalType": "string[2][]",
          "name": "_assets",
          "type": "string[2][]"
        },
        {
          "internalType": "uint256[4][]",
          "name": "_renderIndex",
          "type": "uint256[4][]"
        }
      ],
      "name": "init",
      "outputs": [],
      "stateMutability": "nonpayable",
      "type": "function"
    },
    {
      "inputs": [],
      "name": "initSuccess",
      "outputs": [
        {
          "internalType": "bool",
          "name": "",
          "type": "bool"
        }
      ],
      "stateMutability": "view",
      "type": "function"
    },
    {
      "inputs": [
        {
          "internalType": "uint256",
          "name": "",
          "type": "uint256"
        }
      ],
      "name": "libKeysWrapper",
      "outputs": [
        {
          "internalType": "string",
          "name": "",
          "type": "string"
        }
      ],
      "stateMutability": "view",
      "type": "function"
    },
    {
      "inputs": [],
      "name": "name",
      "outputs": [
        {
          "internalType": "string",
          "name": "",
          "type": "string"
        }
      ],
      "stateMutability": "view",
      "type": "function"
    },
    {
      "inputs": [
        {
          "internalType": "uint256",
          "name": "",
          "type": "uint256"
        },
        {
          "internalType": "uint256",
          "name": "",
          "type": "uint256"
        }
      ],
      "name": "renderIndex",
      "outputs": [
        {
          "internalType": "uint256",
          "name": "",
          "type": "uint256"
        }
      ],
      "stateMutability": "view",
      "type": "function"
    },
    {
      "inputs": [
        {
          "internalType": "uint256",
          "name": "_rpage",
          "type": "uint256"
        }
      ],
      "name": "renderPage",
      "outputs": [
        {
          "internalType": "string",
          "name": "",
          "type": "string"
        }
      ],
      "stateMutability": "view",
      "type": "function"
    },
    {
      "inputs": [],
      "name": "renderPagesCount",
      "outputs": [
        {
          "internalType": "uint256",
          "name": "",
          "type": "uint256"
        }
      ],
      "stateMutability": "view",
      "type": "function"
    },
    {
      "inputs": [
        {
          "internalType": "string",
          "name": "_name",
          "type": "string"
        }
      ],
      "name": "setName",
      "outputs": [],
      "stateMutability": "nonpayable",
      "type": "function"
    }
  ],
  "bytecode": "0x608060405260405180602001604052806000815250600090805190602001906200002b929190620002e4565b506000600160006101000a81548160ff02191690831515021790555060405180604001604052806040518060400160405280601581526020017f3c21444f43545950452068746d6c3e3c68746d6c3e000000000000000000000081525081526020016040518060400160405280600781526020017f3c2f68746d6c3e000000000000000000000000000000000000000000000000008152508152506009906002620000d892919062000375565b5060405180604001604052806040518060a0016040528060698152602001620032176069913981526020016040518060400160405280601081526020017f3c2f7363726970743e3c2f686561643e00000000000000000000000000000000815250815250600b9060026200014e92919062000375565b5060405180604001604052806040518060400160405280601a81526020017f3c626f6479207374796c653d226d617267696e3a20307078223e00000000000081525081526020016040518060400160405280600781526020017f3c2f626f64793e00000000000000000000000000000000000000000000000000815250815250600d906002620001e092919062000375565b5060405180604001604052806040518060400160405280601181526020017f636f6e7374206672616d654b6579733d5b00000000000000000000000000000081525081526020016040518060800160405280604b8152602001620031cc604b9139815250600f9060026200025692919062000375565b5060405180604001604052806040518060400160405280601281526020017f6c657420696d706f7274446174613d5b5d3b00000000000000000000000000008152508152602001604051806101a0016040528061017581526020016200328061017591398152506011906002620002cf92919062000375565b50348015620002dd57600080fd5b50620004c1565b828054620002f2906200048b565b90600052602060002090601f01602090048101928262000316576000855562000362565b82601f106200033157805160ff191683800117855562000362565b8280016001018555821562000362579182015b828111156200036157825182559160200191906001019062000344565b5b509050620003719190620003cf565b5090565b8260028101928215620003bc579160200282015b82811115620003bb578251829080519060200190620003aa929190620002e4565b509160200191906001019062000389565b5b509050620003cb9190620003ee565b5090565b5b80821115620003ea576000816000905550600101620003d0565b5090565b5b8082111562000412576000818162000408919062000416565b50600101620003ef565b5090565b50805462000424906200048b565b6000825580601f1062000438575062000459565b601f016020900490600052602060002090810190620004589190620003cf565b5b50565b7f4e487b7100000000000000000000000000000000000000000000000000000000600052602260045260246000fd5b60006002820490506001821680620004a457607f821691505b60208210811415620004bb57620004ba6200045c565b5b50919050565b612cfb80620004d16000396000f3fe608060405234801561001057600080fd5b50600436106101165760003560e01c8063a0b4b301116100a2578063b5d40c0511610071578063b5d40c051461031e578063c47f00271461034f578063cd9df1901461036b578063cdb53ac114610389578063fe347b31146103a757610116565b8063a0b4b3011461025d578063a51204f81461028e578063ae275e40146102be578063afd86d7a146102ee57610116565b80635e1ffbdd116100e95780635e1ffbdd146101915780636bd40805146101c157806370370513146101df5780637556d1b91461020f578063827fbc2b1461023f57610116565b806306fdde031461011b5780631b68226f146101395780634cb139a6146101575780634f5ea5cc14610175575b600080fd5b6101236103d7565b6040516101309190611f46565b60405180910390f35b610141610465565b60405161014e9190611f81565b60405180910390f35b61015f61046b565b60405161016c919061201b565b60405180910390f35b61018f600480360381019061018a9190612143565b610491565b005b6101ab60048036038101906101a6919061224b565b610535565b6040516101b89190611f46565b60405180910390f35b6101c96105d8565b6040516101d69190611f81565b60405180910390f35b6101f960048036038101906101f49190612278565b6105de565b6040516102069190611f81565b60405180910390f35b6102296004803603810190610224919061224b565b610606565b6040516102369190611f46565b60405180910390f35b610247611189565b60405161025491906122d3565b60405180910390f35b6102776004803603810190610272919061224b565b61119c565b6040516102859291906122ee565b60405180910390f35b6102a860048036038101906102a3919061224b565b6112d0565b6040516102b59190611f46565b60405180910390f35b6102d860048036038101906102d3919061224b565b611373565b6040516102e59190611f46565b60405180910390f35b6103086004803603810190610303919061224b565b611416565b6040516103159190611f46565b60405180910390f35b6103386004803603810190610333919061224b565b6114b9565b6040516103469291906122ee565b60405180910390f35b61036960048036038101906103649190612455565b6115ed565b005b610373611658565b6040516103809190611f81565b60405180910390f35b61039161165e565b60405161039e919061201b565b60405180910390f35b6103c160048036038101906103bc919061224b565b611682565b6040516103ce9190611f46565b60405180910390f35b600080546103e4906124cd565b80601f0160208091040260200160405190810160405280929190818152602001828054610410906124cd565b801561045d5780601f106104325761010080835404028352916020019161045d565b820191906000526020600020905b81548152906001019060200180831161044057829003601f168201915b505050505081565b60045481565b600260009054906101000a900473ffffffffffffffffffffffffffffffffffffffff1681565b600160009054906101000a900460ff16156104e1576040517f08c379a00000000000000000000000000000000000000000000000000000000081526004016104d89061254b565b60405180910390fd5b6104ea88611725565b6104f387611768565b6104fd86866117ac565b6105078484611963565b6105118282611b1a565b60018060006101000a81548160ff0219169083151502179055505050505050505050565b6011816002811061054557600080fd5b016000915090508054610557906124cd565b80601f0160208091040260200160405190810160405280929190818152602001828054610583906124cd565b80156105d05780601f106105a5576101008083540402835291602001916105d0565b820191906000526020600020905b8154815290600101906020018083116105b357829003601f168201915b505050505081565b60075481565b600860205281600052604060002081600481106105fa57600080fd5b01600091509150505481565b6060600060086000848152602001908152602001600020600480602002604051908101604052809291908260048015610654576020028201915b815481526020019060010190808311610640575b505050505090506000816000600481106106715761067061256b565b5b6020020151905060008260016004811061068e5761068d61256b565b5b602002015190506000836002600481106106ab576106aa61256b565b5b602002015190506000846003600481106106c8576106c761256b565b5b60200201519050600060405180602001604052806000815250905060008590505b84811161107b57600060045460018361070291906125c9565b11159050600081610720576004548361071b919061261f565b610722565b825b905060008261075357600260009054906101000a900473ffffffffffffffffffffffffffffffffffffffff16610775565b60018054906101000a900473ffffffffffffffffffffffffffffffffffffffff165b905060008361079657600560008481526020019081526020016000206107aa565b600360008681526020019081526020016000205b6040518060400160405290816000820180546107c5906124cd565b80601f01602080910402602001604051908101604052809291908181526020018280546107f1906124cd565b801561083e5780601f106108135761010080835404028352916020019161083e565b820191906000526020600020905b81548152906001019060200180831161082157829003601f168201915b50505050508152602001600182018054610857906124cd565b80601f0160208091040260200160405190810160405280929190818152602001828054610883906124cd565b80156108d05780601f106108a5576101008083540402835291602001916108d0565b820191906000526020600020905b8154815290600101906020018083116108b357829003601f168201915b50505050508152505090506000898614905060008b87146108f25760006108f4565b895b9050600082610980578473ffffffffffffffffffffffffffffffffffffffff1663d431a42f85602001516040518263ffffffff1660e01b815260040161093a9190611f46565b602060405180830381865afa158015610957573d6000803e3d6000fd5b505050506040513d601f19601f8201168201806040525081019061097b9190612668565b610982565b895b90506000821415610a78578860018054906101000a900473ffffffffffffffffffffffffffffffffffffffff1673ffffffffffffffffffffffffffffffffffffffff166311aa4cba86600001516000806040518463ffffffff1660e01b81526004016109f0939291906126d0565b600060405180830381865afa158015610a0d573d6000803e3d6000fd5b505050506040513d6000823e3d601f19601f82011682018060405250810190610a3691906127af565b604051602001610a46919061283f565b604051602081830303815290604052604051602001610a66929190612892565b60405160208183030381529060405298505b888573ffffffffffffffffffffffffffffffffffffffff166311aa4cba866020015185856040518463ffffffff1660e01b8152600401610aba939291906128b6565b600060405180830381865afa158015610ad7573d6000803e3d6000fd5b505050506040513d6000823e3d601f19601f82011682018060405250810190610b0091906127af565b604051602001610b10919061283f565b604051602081830303815290604052604051602001610b30929190612892565b604051602081830303815290604052985060008573ffffffffffffffffffffffffffffffffffffffff1663d431a42f86602001516040518263ffffffff1660e01b8152600401610b809190611f46565b602060405180830381865afa158015610b9d573d6000803e3d6000fd5b505050506040513d601f19601f82011682018060405250810190610bc19190612668565b8b1490506000888015610be157506001600454610bde919061261f565b8a145b90506000610c2887602001516040518060400160405280600e81526020017f677a2d7574696c7340312e302e30000000000000000000000000000000000000815250611b9d565b9050821561105e578b60018054906101000a900473ffffffffffffffffffffffffffffffffffffffff1673ffffffffffffffffffffffffffffffffffffffff166311aa4cba89600001516001806040518463ffffffff1660e01b8152600401610c939392919061292f565b600060405180830381865afa158015610cb0573d6000803e3d6000fd5b505050506040513d6000823e3d601f19601f82011682018060405250810190610cd991906127af565b604051602001610ce9919061283f565b604051602081830303815290604052604051602001610d09929190612892565b6040516020818303038152906040529b50808015610d25575081155b8015610e165750610e156003600060018e610d4091906125c9565b81526020019081526020016000206000018054610d5c906124cd565b80601f0160208091040260200160405190810160405280929190818152602001828054610d88906124cd565b8015610dd55780601f10610daa57610100808354040283529160200191610dd5565b820191906000526020600020905b815481529060010190602001808311610db857829003601f168201915b50505050506040518060400160405280601481526020017f686578677a6a73696d2d7772617040312e302e30000000000000000000000000815250611b9d565b5b15610ee8576000610e276001611bf6565b905060005b600454811015610eb85760036000828152602001908152602001600020600101604051602001610e5c9190612a27565b60405160208183030381529060405291506001600454610e7c919061261f565b8114610ea55781604051602001610e939190612a82565b60405160208183030381529060405291505b8080610eb090612aa8565b915050610e2c565b5080610ec46002611bf6565b604051602001610ed5929190612892565b6040516020818303038152906040529050505b811561105d57610f3187600001516040518060400160405280601481526020017f686578677a6a73696d2d7772617040312e302e30000000000000000000000000815250611b9d565b80610f7b5750610f7a87600001516040518060400160405280601281526020017f6236346a73696d2d7772617040312e302e300000000000000000000000000000815250611b9d565b5b1561100b578b6011600160028110610f9657610f9561256b565b5b01600b600160028110610fac57610fab61256b565b5b01604051602001610fbe929190612af1565b604051602081830303815290604052600d600060028110610fe257610fe161256b565b5b01604051602001610ff593929190612b15565b6040516020818303038152906040529b5061105c565b8b600b6001600281106110215761102061256b565b5b01600d6000600281106110375761103661256b565b5b0160405160200161104a93929190612b46565b6040516020818303038152906040529b505b5b5b50505050505050505050808061107390612aa8565b9150506106e9565b5060008814156110f557600960006002811061109a5761109961256b565b5b01600b6000600281106110b0576110af61256b565b5b016040516020016110c2929190612af1565b604051602081830303815290604052816040516020016110e3929190612892565b60405160208183030381529060405290505b6001600754611104919061261f565b88141561117b5780600d6001600281106111215761112061256b565b5b0160096001600281106111375761113661256b565b5b01604051602001611149929190612af1565b604051602081830303815290604052604051602001611169929190612892565b60405160208183030381529060405290505b809650505050505050919050565b600160009054906101000a900460ff1681565b60056020528060005260406000206000915090508060000180546111bf906124cd565b80601f01602080910402602001604051908101604052809291908181526020018280546111eb906124cd565b80156112385780601f1061120d57610100808354040283529160200191611238565b820191906000526020600020905b81548152906001019060200180831161121b57829003601f168201915b50505050509080600101805461124d906124cd565b80601f0160208091040260200160405190810160405280929190818152602001828054611279906124cd565b80156112c65780601f1061129b576101008083540402835291602001916112c6565b820191906000526020600020905b8154815290600101906020018083116112a957829003601f168201915b5050505050905082565b600981600281106112e057600080fd5b0160009150905080546112f2906124cd565b80601f016020809104026020016040519081016040528092919081815260200182805461131e906124cd565b801561136b5780601f106113405761010080835404028352916020019161136b565b820191906000526020600020905b81548152906001019060200180831161134e57829003601f168201915b505050505081565b600b816002811061138357600080fd5b016000915090508054611395906124cd565b80601f01602080910402602001604051908101604052809291908181526020018280546113c1906124cd565b801561140e5780601f106113e35761010080835404028352916020019161140e565b820191906000526020600020905b8154815290600101906020018083116113f157829003601f168201915b505050505081565b600f816002811061142657600080fd5b016000915090508054611438906124cd565b80601f0160208091040260200160405190810160405280929190818152602001828054611464906124cd565b80156114b15780601f10611486576101008083540402835291602001916114b1565b820191906000526020600020905b81548152906001019060200180831161149457829003601f168201915b505050505081565b60036020528060005260406000206000915090508060000180546114dc906124cd565b80601f0160208091040260200160405190810160405280929190818152602001828054611508906124cd565b80156115555780601f1061152a57610100808354040283529160200191611555565b820191906000526020600020905b81548152906001019060200180831161153857829003601f168201915b50505050509080600101805461156a906124cd565b80601f0160208091040260200160405190810160405280929190818152602001828054611596906124cd565b80156115e35780601f106115b8576101008083540402835291602001916115e3565b820191906000526020600020905b8154815290600101906020018083116115c657829003601f168201915b5050505050905082565b6003600080546115fc906124cd565b90501061163e576040517f08c379a000000000000000000000000000000000000000000000000000000000815260040161163590612bc3565b60405180910390fd5b8060009080519060200190611654929190611dca565b5050565b60065481565b60018054906101000a900473ffffffffffffffffffffffffffffffffffffffff1681565b600d816002811061169257600080fd5b0160009150905080546116a4906124cd565b80601f01602080910402602001604051908101604052809291908181526020018280546116d0906124cd565b801561171d5780601f106116f25761010080835404028352916020019161171d565b820191906000526020600020905b81548152906001019060200180831161170057829003601f168201915b505050505081565b806001806101000a81548173ffffffffffffffffffffffffffffffffffffffff021916908373ffffffffffffffffffffffffffffffffffffffff16021790555050565b80600260006101000a81548173ffffffffffffffffffffffffffffffffffffffff021916908373ffffffffffffffffffffffffffffffffffffffff16021790555050565b60005b8282905081101561195e5760405180604001604052808484848181106117d8576117d761256b565b5b90506020028101906117ea9190612bf2565b6000600281106117fd576117fc61256b565b5b60200281019061180d9190612c1a565b8080601f016020809104026020016040519081016040528093929190818152602001838380828437600081840152601f19601f8201169050808301925050505050505081526020018484848181106118685761186761256b565b5b905060200281019061187a9190612bf2565b60016002811061188d5761188c61256b565b5b60200281019061189d9190612c1a565b8080601f016020809104026020016040519081016040528093929190818152602001838380828437600081840152601f19601f82011690508083019250505050505050815250600360008381526020019081526020016000206000820151816000019080519060200190611912929190611dca565b50602082015181600101908051906020019061192f929190611dca565b509050506004600081548092919061194690612aa8565b9190505550808061195690612aa8565b9150506117af565b505050565b60005b82829050811015611b1557604051806040016040528084848481811061198f5761198e61256b565b5b90506020028101906119a19190612bf2565b6000600281106119b4576119b361256b565b5b6020028101906119c49190612c1a565b8080601f016020809104026020016040519081016040528093929190818152602001838380828437600081840152601f19601f820116905080830192505050505050508152602001848484818110611a1f57611a1e61256b565b5b9050602002810190611a319190612bf2565b600160028110611a4457611a4361256b565b5b602002810190611a549190612c1a565b8080601f016020809104026020016040519081016040528093929190818152602001838380828437600081840152601f19601f82011690508083019250505050505050815250600560008381526020019081526020016000206000820151816000019080519060200190611ac9929190611dca565b506020820151816001019080519060200190611ae6929190611dca565b5090505060066000815480929190611afd90612aa8565b91905055508080611b0d90612aa8565b915050611966565b505050565b60005b82829050811015611b8e5760076000815480929190611b3b90612aa8565b9190505550828282818110611b5357611b5261256b565b5b90506080020160086000838152602001908152602001600020906004611b7a929190611e50565b508080611b8690612aa8565b915050611b1d565b50818190506007819055505050565b600081604051602001611bb09190612c7d565b6040516020818303038152906040528051906020012083604051602001611bd79190612c7d565b6040516020818303038152906040528051906020012014905092915050565b60606000821415611c54576009600060028110611c1657611c1561256b565b5b01600b600060028110611c2c57611c2b61256b565b5b01604051602001611c3e929190612af1565b6040516020818303038152906040529050611dc5565b6001821415611d0357600f600060028110611c7257611c7161256b565b5b018054611c7e906124cd565b80601f0160208091040260200160405190810160405280929190818152602001828054611caa906124cd565b8015611cf75780601f10611ccc57610100808354040283529160200191611cf7565b820191906000526020600020905b815481529060010190602001808311611cda57829003601f168201915b50505050509050611dc5565b6002821415611d5f57600f600160028110611d2157611d2061256b565b5b016011600060028110611d3757611d3661256b565b5b01604051602001611d49929190612af1565b6040516020818303038152906040529050611dc5565b6011600160028110611d7457611d7361256b565b5b01600b600160028110611d8a57611d8961256b565b5b016009600160028110611da057611d9f61256b565b5b01604051602001611db393929190612c94565b60405160208183030381529060405290505b919050565b828054611dd6906124cd565b90600052602060002090601f016020900481019282611df85760008555611e3f565b82601f10611e1157805160ff1916838001178555611e3f565b82800160010185558215611e3f579182015b82811115611e3e578251825591602001919060010190611e23565b5b509050611e4c9190611e90565b5090565b8260048101928215611e7f579160200282015b82811115611e7e578235825591602001919060010190611e63565b5b509050611e8c9190611e90565b5090565b5b80821115611ea9576000816000905550600101611e91565b5090565b600081519050919050565b600082825260208201905092915050565b60005b83811015611ee7578082015181840152602081019050611ecc565b83811115611ef6576000848401525b50505050565b6000601f19601f8301169050919050565b6000611f1882611ead565b611f228185611eb8565b9350611f32818560208601611ec9565b611f3b81611efc565b840191505092915050565b60006020820190508181036000830152611f608184611f0d565b905092915050565b6000819050919050565b611f7b81611f68565b82525050565b6000602082019050611f966000830184611f72565b92915050565b600073ffffffffffffffffffffffffffffffffffffffff82169050919050565b6000819050919050565b6000611fe1611fdc611fd784611f9c565b611fbc565b611f9c565b9050919050565b6000611ff382611fc6565b9050919050565b600061200582611fe8565b9050919050565b61201581611ffa565b82525050565b6000602082019050612030600083018461200c565b92915050565b6000604051905090565b600080fd5b600080fd5b600061205582611f9c565b9050919050565b6120658161204a565b811461207057600080fd5b50565b6000813590506120828161205c565b92915050565b600080fd5b600080fd5b600080fd5b60008083601f8401126120ad576120ac612088565b5b8235905067ffffffffffffffff8111156120ca576120c961208d565b5b6020830191508360208202830111156120e6576120e5612092565b5b9250929050565b60008083601f84011261210357612102612088565b5b8235905067ffffffffffffffff8111156121205761211f61208d565b5b60208301915083608082028301111561213c5761213b612092565b5b9250929050565b60008060008060008060008060a0898b03121561216357612162612040565b5b60006121718b828c01612073565b98505060206121828b828c01612073565b975050604089013567ffffffffffffffff8111156121a3576121a2612045565b5b6121af8b828c01612097565b9650965050606089013567ffffffffffffffff8111156121d2576121d1612045565b5b6121de8b828c01612097565b9450945050608089013567ffffffffffffffff81111561220157612200612045565b5b61220d8b828c016120ed565b92509250509295985092959890939650565b61222881611f68565b811461223357600080fd5b50565b6000813590506122458161221f565b92915050565b60006020828403121561226157612260612040565b5b600061226f84828501612236565b91505092915050565b6000806040838503121561228f5761228e612040565b5b600061229d85828601612236565b92505060206122ae85828601612236565b9150509250929050565b60008115159050919050565b6122cd816122b8565b82525050565b60006020820190506122e860008301846122c4565b92915050565b600060408201905081810360008301526123088185611f0d565b9050818103602083015261231c8184611f0d565b90509392505050565b600080fd5b7f4e487b7100000000000000000000000000000000000000000000000000000000600052604160045260246000fd5b61236282611efc565b810181811067ffffffffffffffff821117156123815761238061232a565b5b80604052505050565b6000612394612036565b90506123a08282612359565b919050565b600067ffffffffffffffff8211156123c0576123bf61232a565b5b6123c982611efc565b9050602081019050919050565b82818337600083830152505050565b60006123f86123f3846123a5565b61238a565b90508281526020810184848401111561241457612413612325565b5b61241f8482856123d6565b509392505050565b600082601f83011261243c5761243b612088565b5b813561244c8482602086016123e5565b91505092915050565b60006020828403121561246b5761246a612040565b5b600082013567ffffffffffffffff81111561248957612488612045565b5b61249584828501612427565b91505092915050565b7f4e487b7100000000000000000000000000000000000000000000000000000000600052602260045260246000fd5b600060028204905060018216806124e557607f821691505b602082108114156124f9576124f861249e565b5b50919050565b7f4672616d653a2043616e27742072652d696e697420636f6e7472616374000000600082015250565b6000612535601d83611eb8565b9150612540826124ff565b602082019050919050565b6000602082019050818103600083015261256481612528565b9050919050565b7f4e487b7100000000000000000000000000000000000000000000000000000000600052603260045260246000fd5b7f4e487b7100000000000000000000000000000000000000000000000000000000600052601160045260246000fd5b60006125d482611f68565b91506125df83611f68565b9250827fffffffffffffffffffffffffffffffffffffffffffffffffffffffffffffffff038211156126145761261361259a565b5b828201905092915050565b600061262a82611f68565b915061263583611f68565b9250828210156126485761264761259a565b5b828203905092915050565b6000815190506126628161221f565b92915050565b60006020828403121561267e5761267d612040565b5b600061268c84828501612653565b91505092915050565b6000819050919050565b60006126ba6126b56126b084612695565b611fbc565b611f68565b9050919050565b6126ca8161269f565b82525050565b600060608201905081810360008301526126ea8186611f0d565b90506126f960208301856126c1565b61270660408301846126c1565b949350505050565b600067ffffffffffffffff8211156127295761272861232a565b5b61273282611efc565b9050602081019050919050565b600061275261274d8461270e565b61238a565b90508281526020810184848401111561276e5761276d612325565b5b612779848285611ec9565b509392505050565b600082601f83011261279657612795612088565b5b81516127a684826020860161273f565b91505092915050565b6000602082840312156127c5576127c4612040565b5b600082015167ffffffffffffffff8111156127e3576127e2612045565b5b6127ef84828501612781565b91505092915050565b600081519050919050565b600081905092915050565b6000612819826127f8565b6128238185612803565b9350612833818560208601611ec9565b80840191505092915050565b600061284b828461280e565b915081905092915050565b600081905092915050565b600061286c82611ead565b6128768185612856565b9350612886818560208601611ec9565b80840191505092915050565b600061289e8285612861565b91506128aa8284612861565b91508190509392505050565b600060608201905081810360008301526128d08186611f0d565b90506128df6020830185611f72565b6128ec6040830184611f72565b949350505050565b6000819050919050565b600061291961291461290f846128f4565b611fbc565b611f68565b9050919050565b612929816128fe565b82525050565b600060608201905081810360008301526129498186611f0d565b90506129586020830185612920565b6129656040830184612920565b949350505050565b7f2200000000000000000000000000000000000000000000000000000000000000815250565b60008190508160005260206000209050919050565b600081546129b5816124cd565b6129bf8186612856565b945060018216600081146129da57600181146129eb57612a1e565b60ff19831686528186019350612a1e565b6129f485612993565b60005b83811015612a16578154818901526001820191506020810190506129f7565b838801955050505b50505092915050565b6000612a328261296d565b600182019150612a4282846129a8565b9150612a4d8261296d565b60018201915081905092915050565b7f2c00000000000000000000000000000000000000000000000000000000000000815250565b6000612a8e8284612861565b9150612a9982612a5c565b60018201915081905092915050565b6000612ab382611f68565b91507fffffffffffffffffffffffffffffffffffffffffffffffffffffffffffffffff821415612ae657612ae561259a565b5b600182019050919050565b6000612afd82856129a8565b9150612b0982846129a8565b91508190509392505050565b6000612b218286612861565b9150612b2d8285612861565b9150612b3982846129a8565b9150819050949350505050565b6000612b528286612861565b9150612b5e82856129a8565b9150612b6a82846129a8565b9150819050949350505050565b7f4672616d653a204e616d6520616c726561647920736574000000000000000000600082015250565b6000612bad601783611eb8565b9150612bb882612b77565b602082019050919050565b60006020820190508181036000830152612bdc81612ba0565b9050919050565b600080fd5b600080fd5b600080fd5b600082356001604003833603038112612c0e57612c0d612be3565b5b80830191505092915050565b60008083356001602003843603038112612c3757612c36612be3565b5b80840192508235915067ffffffffffffffff821115612c5957612c58612be8565b5b602083019250600182023603831315612c7557612c74612bed565b5b509250929050565b6000612c898284612861565b915081905092915050565b6000612ca082866129a8565b9150612cac82856129a8565b9150612cb882846129a8565b915081905094935050505056fea264697066735822122095248b0b14b608c191cd7be1dbca45d4416a01f86fdc431f4d252b5443d62c9264736f6c634300080c00335d3b636f6e737420696d706f72744b6579733d6672616d654b6579732e66696c7465722828666b293d3e666b213d3d22677a2d7574696c7340312e302e3022292e7265766572736528293b3c686561643e3c6d65746120687474702d65717569763d22436f6e74656e742d547970652220636f6e74656e743d22746578742f68746d6c3b20636861727365743d5554462d38222f3e3c73637269707420747970653d22746578742f6a617661736372697074223e696d706f727473203d20696d706f7274732e7265766572736528293b206c657420696d706f72746d6170203d20227b223b20666f7220286b6579496e64657820696e20696d706f72744b65797329207b20696d706f72744d6170203d206022247b206672616d654b6579735b6b6579496e6465785d207d223a2022646174613a746578742f6a6176617363726970743b6261736536342c247b62746f6128696d706f72744b6579735b6b6579496e6465785d297d22247b206b6579496e646578203c206672616d654b6579732e6c656e677468202d2031203f20222c22203a202222207d603b207d20636f6e737420736372697074203d20646f63756d656e742e637265617465456c656d656e74282273637269707422293b207363726970742e74797065203d2022696d706f72746d6170223b207363726970742e696e6e657248544d4c203d20696d706f72746d61703b20646f63756d656e742e686561642e617070656e644368696c6428736372697074293b",
  "linkReferences": {},
  "deployedLinkReferences": {}
}