{
  "_format": "hh-sol-artifact-1",
  "contractName": "Frame",
  "sourceName": "src/services/chain-sim/contracts/Frame.sol",
  "abi": [
    {
      "inputs": [],
      "stateMutability": "nonpayable",
      "type": "constructor"
    },
    {
      "inputs": [
        {
          "internalType": "uint256",
          "name": "",
          "type": "uint256"
        }
      ],
      "name": "assetList",
      "outputs": [
        {
          "internalType": "string",
          "name": "assetType",
          "type": "string"
        },
        {
          "internalType": "string",
          "name": "key",
          "type": "string"
        }
      ],
      "stateMutability": "view",
      "type": "function"
    },
    {
      "inputs": [],
      "name": "assetStorage",
      "outputs": [
        {
          "internalType": "contract FrameDataStore",
          "name": "",
          "type": "address"
        }
      ],
      "stateMutability": "view",
      "type": "function"
    },
    {
      "inputs": [],
      "name": "assetsCount",
      "outputs": [
        {
          "internalType": "uint256",
          "name": "",
          "type": "uint256"
        }
      ],
      "stateMutability": "view",
      "type": "function"
    },
    {
      "inputs": [],
      "name": "coreDepStorage",
      "outputs": [
        {
          "internalType": "contract FrameDataStore",
          "name": "",
          "type": "address"
        }
      ],
      "stateMutability": "view",
      "type": "function"
    },
    {
      "inputs": [],
      "name": "depsCount",
      "outputs": [
        {
          "internalType": "uint256",
          "name": "",
          "type": "uint256"
        }
      ],
      "stateMutability": "view",
      "type": "function"
    },
    {
      "inputs": [
        {
          "internalType": "uint256",
          "name": "",
          "type": "uint256"
        }
      ],
      "name": "depsList",
      "outputs": [
        {
          "internalType": "string",
          "name": "assetType",
          "type": "string"
        },
        {
          "internalType": "string",
          "name": "key",
          "type": "string"
        }
      ],
      "stateMutability": "view",
      "type": "function"
    },
    {
      "inputs": [
        {
          "internalType": "address",
          "name": "_coreDepStorage",
          "type": "address"
        },
        {
          "internalType": "address",
          "name": "_assetStorage",
          "type": "address"
        },
        {
          "internalType": "string[2][]",
          "name": "_deps",
          "type": "string[2][]"
        },
        {
          "internalType": "string[2][]",
          "name": "_assets",
          "type": "string[2][]"
        },
        {
          "internalType": "uint256[4][]",
          "name": "_renderIndex",
          "type": "uint256[4][]"
        }
      ],
      "name": "init",
      "outputs": [],
      "stateMutability": "nonpayable",
      "type": "function"
    },
    {
      "inputs": [
        {
          "internalType": "uint256",
          "name": "",
          "type": "uint256"
        },
        {
          "internalType": "uint256",
          "name": "",
          "type": "uint256"
        }
      ],
      "name": "renderIndex",
      "outputs": [
        {
          "internalType": "uint256",
          "name": "",
          "type": "uint256"
        }
      ],
      "stateMutability": "view",
      "type": "function"
    },
    {
      "inputs": [
        {
          "internalType": "uint256",
          "name": "_rpage",
          "type": "uint256"
        }
      ],
      "name": "renderPage",
      "outputs": [
        {
          "internalType": "string",
          "name": "",
          "type": "string"
        }
      ],
      "stateMutability": "view",
      "type": "function"
    },
    {
      "inputs": [],
      "name": "renderPagesCount",
      "outputs": [
        {
          "internalType": "uint256",
          "name": "",
          "type": "uint256"
        }
      ],
      "stateMutability": "view",
      "type": "function"
    },
    {
      "inputs": [],
      "name": "renderWrapper",
      "outputs": [
        {
          "internalType": "string",
          "name": "",
          "type": "string"
        }
      ],
      "stateMutability": "view",
      "type": "function"
    },
    {
      "inputs": [
        {
          "internalType": "contract FrameDataStore",
          "name": "_storage",
          "type": "address"
        }
      ],
      "name": "setAssetStorage",
      "outputs": [],
      "stateMutability": "nonpayable",
      "type": "function"
    },
    {
      "inputs": [
        {
          "internalType": "string[2][]",
          "name": "_assets",
          "type": "string[2][]"
        }
      ],
      "name": "setAssets",
      "outputs": [],
      "stateMutability": "nonpayable",
      "type": "function"
    },
    {
      "inputs": [
        {
          "internalType": "contract FrameDataStore",
          "name": "_storage",
          "type": "address"
        }
      ],
      "name": "setCoreDepStorage",
      "outputs": [],
      "stateMutability": "nonpayable",
      "type": "function"
    },
    {
      "inputs": [
        {
          "internalType": "string[2][]",
          "name": "_deps",
          "type": "string[2][]"
        }
      ],
      "name": "setDeps",
      "outputs": [],
      "stateMutability": "nonpayable",
      "type": "function"
    },
    {
      "inputs": [
        {
          "internalType": "uint256[4][]",
          "name": "_index",
          "type": "uint256[4][]"
        }
      ],
      "name": "setRenderIndex",
      "outputs": [],
      "stateMutability": "nonpayable",
      "type": "function"
    }
  ],
  "bytecode": "0x608060405234801561001057600080fd5b50612175806100206000396000f3fe608060405234801561001057600080fd5b50600436106101005760003560e01c80637556d1b911610097578063b5d40c0511610066578063b5d40c051461029a578063cd9df190146102cb578063cdb53ac1146102e9578063dc1335751461030757610100565b80637556d1b9146101ff57806380536f631461022f57806392f02e131461024b578063a0b4b3011461026957610100565b80634cb139a6116100d35780634cb139a6146101775780634f5ea5cc146101955780636bd40805146101b157806370370513146101cf57610100565b806311bf85ce146101055780631b68226f1461012157806327d98df31461013f578063292eabde1461015b575b600080fd5b61011f600480360381019061011a91906115a6565b610323565b005b610129610366565b60405161013691906115ec565b60405180910390f35b610159600480360381019061015491906115a6565b61036c565b005b6101756004803603810190610170919061166c565b6103b0565b005b61017f610433565b60405161018c9190611718565b60405180910390f35b6101af60048036038101906101aa91906117b5565b610459565b005b6101b9610493565b6040516101c691906115ec565b60405180910390f35b6101e960048036038101906101e491906118bd565b610499565b6040516101f691906115ec565b60405180910390f35b610219600480360381019061021491906118fd565b6104c1565b60405161022691906119c3565b60405180910390f35b610249600480360381019061024491906119e5565b610d96565b005b610253610f4d565b60405161026091906119c3565b60405180910390f35b610283600480360381019061027e91906118fd565b610ff6565b604051610291929190611a32565b60405180910390f35b6102b460048036038101906102af91906118fd565b61112a565b6040516102c2929190611a32565b60405180910390f35b6102d361125e565b6040516102e091906115ec565b60405180910390f35b6102f1611264565b6040516102fe9190611718565b60405180910390f35b610321600480360381019061031c91906119e5565b611288565b005b806000806101000a81548173ffffffffffffffffffffffffffffffffffffffff021916908373ffffffffffffffffffffffffffffffffffffffff16021790555050565b60035481565b80600160006101000a81548173ffffffffffffffffffffffffffffffffffffffff021916908373ffffffffffffffffffffffffffffffffffffffff16021790555050565b60005b8282905081101561042457600660008154809291906103d190611a98565b91905055508282828181106103e9576103e8611ae1565b5b9050608002016007600083815260200190815260200160002090600461041092919061143f565b50808061041c90611a98565b9150506103b3565b50818190506006819055505050565b600160009054906101000a900473ffffffffffffffffffffffffffffffffffffffff1681565b61046288610323565b61046b8761036c565b6104758686610d96565b61047f8484611288565b61048982826103b0565b5050505050505050565b60065481565b600760205281600052604060002081600481106104b557600080fd5b01600091509150505481565b606060006007600084815260200190815260200160002060048060200260405190810160405280929190826004801561050f576020028201915b8154815260200190600101908083116104fb575b5050505050905060008160006004811061052c5761052b611ae1565b5b6020020151905060008260016004811061054957610548611ae1565b5b6020020151905060008360026004811061056657610565611ae1565b5b6020020151905060008460036004811061058357610582611ae1565b5b60200201519050600060405180602001604052806000815250905060008590505b6001856105b19190611b10565b811015610bdc5760006003546001836105ca9190611b10565b111590506000816105e857600354836105e39190611b66565b6105ea565b825b905060008261061b57600160009054906101000a900473ffffffffffffffffffffffffffffffffffffffff1661063d565b60008054906101000a900473ffffffffffffffffffffffffffffffffffffffff165b905060008361065e5760046000848152602001908152602001600020610672565b600260008681526020019081526020016000205b60405180604001604052908160008201805461068d90611bc9565b80601f01602080910402602001604051908101604052809291908181526020018280546106b990611bc9565b80156107065780601f106106db57610100808354040283529160200191610706565b820191906000526020600020905b8154815290600101906020018083116106e957829003601f168201915b5050505050815260200160018201805461071f90611bc9565b80601f016020809104026020016040519081016040528092919081815260200182805461074b90611bc9565b80156107985780601f1061076d57610100808354040283529160200191610798565b820191906000526020600020905b81548152906001019060200180831161077b57829003601f168201915b505050505081525050905060008a86146107b35760006107b5565b885b905060008a8714610843578373ffffffffffffffffffffffffffffffffffffffff1663d431a42f84602001516040518263ffffffff1660e01b81526004016107fd91906119c3565b602060405180830381865afa15801561081a573d6000803e3d6000fd5b505050506040513d601f19601f8201168201806040525081019061083e9190611c10565b610845565b885b9050600082141561095a578760008054906101000a900473ffffffffffffffffffffffffffffffffffffffff1673ffffffffffffffffffffffffffffffffffffffff166311aa4cba85600001516040516020016108a29190611c9f565b6040516020818303038152906040526000806040518463ffffffff1660e01b81526004016108d293929190611d00565b600060405180830381865afa1580156108ef573d6000803e3d6000fd5b505050506040513d6000823e3d601f19601f820116820180604052508101906109189190611e5f565b6040516020016109289190611eef565b604051602081830303815290604052604051602001610948929190611f06565b60405160208183030381529060405297505b878473ffffffffffffffffffffffffffffffffffffffff166311aa4cba856020015185856040518463ffffffff1660e01b815260040161099c93929190611f2a565b600060405180830381865afa1580156109b9573d6000803e3d6000fd5b505050506040513d6000823e3d601f19601f820116820180604052508101906109e29190611e5f565b6040516020016109f29190611eef565b604051602081830303815290604052604051602001610a12929190611f06565b604051602081830303815290604052975060008b88148015610ab157508473ffffffffffffffffffffffffffffffffffffffff1663d431a42f85602001516040518263ffffffff1660e01b8152600401610a6c91906119c3565b602060405180830381865afa158015610a89573d6000803e3d6000fd5b505050506040513d601f19601f82011682018060405250810190610aad9190611c10565b8a14155b905080610bc2578860008054906101000a900473ffffffffffffffffffffffffffffffffffffffff1673ffffffffffffffffffffffffffffffffffffffff166311aa4cba8660000151604051602001610b0a9190611c9f565b6040516020818303038152906040526001806040518463ffffffff1660e01b8152600401610b3a93929190611fa3565b600060405180830381865afa158015610b57573d6000803e3d6000fd5b505050506040513d6000823e3d601f19601f82011682018060405250810190610b809190611e5f565b604051602001610b909190611eef565b604051602081830303815290604052604051602001610bb0929190611f06565b60405160208183030381529060405298505b505050505050508080610bd490611a98565b9150506105a4565b506000881415610cac5760008054906101000a900473ffffffffffffffffffffffffffffffffffffffff1673ffffffffffffffffffffffffffffffffffffffff166311aa4cba6000806040518363ffffffff1660e01b8152600401610c4292919061202d565b600060405180830381865afa158015610c5f573d6000803e3d6000fd5b505050506040513d6000823e3d601f19601f82011682018060405250810190610c889190611e5f565b81604051602001610c9a929190611f06565b60405160208183030381529060405290505b6001600654610cbb9190611b66565b881415610d88578060008054906101000a900473ffffffffffffffffffffffffffffffffffffffff1673ffffffffffffffffffffffffffffffffffffffff166311aa4cba6001806040518363ffffffff1660e01b8152600401610d1f929190612069565b600060405180830381865afa158015610d3c573d6000803e3d6000fd5b505050506040513d6000823e3d601f19601f82011682018060405250810190610d659190611e5f565b604051602001610d76929190611f06565b60405160208183030381529060405290505b809650505050505050919050565b60005b82829050811015610f48576040518060400160405280848484818110610dc257610dc1611ae1565b5b9050602002810190610dd491906120b4565b600060028110610de757610de6611ae1565b5b602002810190610df791906120dc565b8080601f016020809104026020016040519081016040528093929190818152602001838380828437600081840152601f19601f820116905080830192505050505050508152602001848484818110610e5257610e51611ae1565b5b9050602002810190610e6491906120b4565b600160028110610e7757610e76611ae1565b5b602002810190610e8791906120dc565b8080601f016020809104026020016040519081016040528093929190818152602001838380828437600081840152601f19601f82011690508083019250505050505050815250600260008381526020019081526020016000206000820151816000019080519060200190610efc92919061147f565b506020820151816001019080519060200190610f1992919061147f565b5090505060036000815480929190610f3090611a98565b91905055508080610f4090611a98565b915050610d99565b505050565b606060008054906101000a900473ffffffffffffffffffffffffffffffffffffffff1673ffffffffffffffffffffffffffffffffffffffff166311aa4cba6000806040518363ffffffff1660e01b8152600401610fab92919061202d565b600060405180830381865afa158015610fc8573d6000803e3d6000fd5b505050506040513d6000823e3d601f19601f82011682018060405250810190610ff19190611e5f565b905090565b600460205280600052604060002060009150905080600001805461101990611bc9565b80601f016020809104026020016040519081016040528092919081815260200182805461104590611bc9565b80156110925780601f1061106757610100808354040283529160200191611092565b820191906000526020600020905b81548152906001019060200180831161107557829003601f168201915b5050505050908060010180546110a790611bc9565b80601f01602080910402602001604051908101604052809291908181526020018280546110d390611bc9565b80156111205780601f106110f557610100808354040283529160200191611120565b820191906000526020600020905b81548152906001019060200180831161110357829003601f168201915b5050505050905082565b600260205280600052604060002060009150905080600001805461114d90611bc9565b80601f016020809104026020016040519081016040528092919081815260200182805461117990611bc9565b80156111c65780601f1061119b576101008083540402835291602001916111c6565b820191906000526020600020905b8154815290600101906020018083116111a957829003601f168201915b5050505050908060010180546111db90611bc9565b80601f016020809104026020016040519081016040528092919081815260200182805461120790611bc9565b80156112545780601f1061122957610100808354040283529160200191611254565b820191906000526020600020905b81548152906001019060200180831161123757829003601f168201915b5050505050905082565b60055481565b60008054906101000a900473ffffffffffffffffffffffffffffffffffffffff1681565b60005b8282905081101561143a5760405180604001604052808484848181106112b4576112b3611ae1565b5b90506020028101906112c691906120b4565b6000600281106112d9576112d8611ae1565b5b6020028101906112e991906120dc565b8080601f016020809104026020016040519081016040528093929190818152602001838380828437600081840152601f19601f82011690508083019250505050505050815260200184848481811061134457611343611ae1565b5b905060200281019061135691906120b4565b60016002811061136957611368611ae1565b5b60200281019061137991906120dc565b8080601f016020809104026020016040519081016040528093929190818152602001838380828437600081840152601f19601f820116905080830192505050505050508152506004600083815260200190815260200160002060008201518160000190805190602001906113ee92919061147f565b50602082015181600101908051906020019061140b92919061147f565b509050506005600081548092919061142290611a98565b9190505550808061143290611a98565b91505061128b565b505050565b826004810192821561146e579160200282015b8281111561146d578235825591602001919060010190611452565b5b50905061147b9190611505565b5090565b82805461148b90611bc9565b90600052602060002090601f0160209004810192826114ad57600085556114f4565b82601f106114c657805160ff19168380011785556114f4565b828001600101855582156114f4579182015b828111156114f35782518255916020019190600101906114d8565b5b5090506115019190611505565b5090565b5b8082111561151e576000816000905550600101611506565b5090565b6000604051905090565b600080fd5b600080fd5b600073ffffffffffffffffffffffffffffffffffffffff82169050919050565b600061156182611536565b9050919050565b600061157382611556565b9050919050565b61158381611568565b811461158e57600080fd5b50565b6000813590506115a08161157a565b92915050565b6000602082840312156115bc576115bb61152c565b5b60006115ca84828501611591565b91505092915050565b6000819050919050565b6115e6816115d3565b82525050565b600060208201905061160160008301846115dd565b92915050565b600080fd5b600080fd5b600080fd5b60008083601f84011261162c5761162b611607565b5b8235905067ffffffffffffffff8111156116495761164861160c565b5b60208301915083608082028301111561166557611664611611565b5b9250929050565b600080602083850312156116835761168261152c565b5b600083013567ffffffffffffffff8111156116a1576116a0611531565b5b6116ad85828601611616565b92509250509250929050565b6000819050919050565b60006116de6116d96116d484611536565b6116b9565b611536565b9050919050565b60006116f0826116c3565b9050919050565b6000611702826116e5565b9050919050565b611712816116f7565b82525050565b600060208201905061172d6000830184611709565b92915050565b61173c81611556565b811461174757600080fd5b50565b60008135905061175981611733565b92915050565b60008083601f84011261177557611774611607565b5b8235905067ffffffffffffffff8111156117925761179161160c565b5b6020830191508360208202830111156117ae576117ad611611565b5b9250929050565b60008060008060008060008060a0898b0312156117d5576117d461152c565b5b60006117e38b828c0161174a565b98505060206117f48b828c0161174a565b975050604089013567ffffffffffffffff81111561181557611814611531565b5b6118218b828c0161175f565b9650965050606089013567ffffffffffffffff81111561184457611843611531565b5b6118508b828c0161175f565b9450945050608089013567ffffffffffffffff81111561187357611872611531565b5b61187f8b828c01611616565b92509250509295985092959890939650565b61189a816115d3565b81146118a557600080fd5b50565b6000813590506118b781611891565b92915050565b600080604083850312156118d4576118d361152c565b5b60006118e2858286016118a8565b92505060206118f3858286016118a8565b9150509250929050565b6000602082840312156119135761191261152c565b5b6000611921848285016118a8565b91505092915050565b600081519050919050565b600082825260208201905092915050565b60005b83811015611964578082015181840152602081019050611949565b83811115611973576000848401525b50505050565b6000601f19601f8301169050919050565b60006119958261192a565b61199f8185611935565b93506119af818560208601611946565b6119b881611979565b840191505092915050565b600060208201905081810360008301526119dd818461198a565b905092915050565b600080602083850312156119fc576119fb61152c565b5b600083013567ffffffffffffffff811115611a1a57611a19611531565b5b611a268582860161175f565b92509250509250929050565b60006040820190508181036000830152611a4c818561198a565b90508181036020830152611a60818461198a565b90509392505050565b7f4e487b7100000000000000000000000000000000000000000000000000000000600052601160045260246000fd5b6000611aa3826115d3565b91507fffffffffffffffffffffffffffffffffffffffffffffffffffffffffffffffff821415611ad657611ad5611a69565b5b600182019050919050565b7f4e487b7100000000000000000000000000000000000000000000000000000000600052603260045260246000fd5b6000611b1b826115d3565b9150611b26836115d3565b9250827fffffffffffffffffffffffffffffffffffffffffffffffffffffffffffffffff03821115611b5b57611b5a611a69565b5b828201905092915050565b6000611b71826115d3565b9150611b7c836115d3565b925082821015611b8f57611b8e611a69565b5b828203905092915050565b7f4e487b7100000000000000000000000000000000000000000000000000000000600052602260045260246000fd5b60006002820490506001821680611be157607f821691505b60208210811415611bf557611bf4611b9a565b5b50919050565b600081519050611c0a81611891565b92915050565b600060208284031215611c2657611c2561152c565b5b6000611c3484828501611bfb565b91505092915050565b600081905092915050565b6000611c538261192a565b611c5d8185611c3d565b9350611c6d818560208601611946565b80840191505092915050565b7f5772617070657200000000000000000000000000000000000000000000000000815250565b6000611cab8284611c48565b9150611cb682611c79565b60078201915081905092915050565b6000819050919050565b6000611cea611ce5611ce084611cc5565b6116b9565b6115d3565b9050919050565b611cfa81611ccf565b82525050565b60006060820190508181036000830152611d1a818661198a565b9050611d296020830185611cf1565b611d366040830184611cf1565b949350505050565b600080fd5b7f4e487b7100000000000000000000000000000000000000000000000000000000600052604160045260246000fd5b611d7b82611979565b810181811067ffffffffffffffff82111715611d9a57611d99611d43565b5b80604052505050565b6000611dad611522565b9050611db98282611d72565b919050565b600067ffffffffffffffff821115611dd957611dd8611d43565b5b611de282611979565b9050602081019050919050565b6000611e02611dfd84611dbe565b611da3565b905082815260208101848484011115611e1e57611e1d611d3e565b5b611e29848285611946565b509392505050565b600082601f830112611e4657611e45611607565b5b8151611e56848260208601611def565b91505092915050565b600060208284031215611e7557611e7461152c565b5b600082015167ffffffffffffffff811115611e9357611e92611531565b5b611e9f84828501611e31565b91505092915050565b600081519050919050565b600081905092915050565b6000611ec982611ea8565b611ed38185611eb3565b9350611ee3818560208601611946565b80840191505092915050565b6000611efb8284611ebe565b915081905092915050565b6000611f128285611c48565b9150611f1e8284611c48565b91508190509392505050565b60006060820190508181036000830152611f44818661198a565b9050611f5360208301856115dd565b611f6060408301846115dd565b949350505050565b6000819050919050565b6000611f8d611f88611f8384611f68565b6116b9565b6115d3565b9050919050565b611f9d81611f72565b82525050565b60006060820190508181036000830152611fbd818661198a565b9050611fcc6020830185611f94565b611fd96040830184611f94565b949350505050565b7f72656e6465725772617070657200000000000000000000000000000000000000600082015250565b6000612017600d83611935565b915061202282611fe1565b602082019050919050565b600060608201905081810360008301526120468161200a565b90506120556020830185611cf1565b6120626040830184611cf1565b9392505050565b600060608201905081810360008301526120828161200a565b90506120916020830185611f94565b61209e6040830184611f94565b9392505050565b600080fd5b600080fd5b600080fd5b6000823560016040038336030381126120d0576120cf6120a5565b5b80830191505092915050565b600080833560016020038436030381126120f9576120f86120a5565b5b80840192508235915067ffffffffffffffff82111561211b5761211a6120aa565b5b602083019250600182023603831315612137576121366120af565b5b50925092905056fea26469706673582212203d10f171069e3cfac18aeccc5f88b1d26cea5ce538b720730efea76b922e28d664736f6c634300080c0033",
  "linkReferences": {},
  "deployedLinkReferences": {}
}