{
  "_format": "hh-sol-artifact-1",
  "contractName": "Frame",
  "sourceName": "src/services/chain-sim/contracts/Frame.sol",
  "abi": [
    {
      "inputs": [],
      "stateMutability": "nonpayable",
      "type": "constructor"
    },
    {
      "inputs": [
        {
          "internalType": "uint256",
          "name": "",
          "type": "uint256"
        }
      ],
      "name": "assetList",
      "outputs": [
        {
          "internalType": "string",
          "name": "assetType",
          "type": "string"
        },
        {
          "internalType": "string",
          "name": "key",
          "type": "string"
        }
      ],
      "stateMutability": "view",
      "type": "function"
    },
    {
      "inputs": [],
      "name": "assetStorage",
      "outputs": [
        {
          "internalType": "contract FrameDataStore",
          "name": "",
          "type": "address"
        }
      ],
      "stateMutability": "view",
      "type": "function"
    },
    {
      "inputs": [],
      "name": "coreDepStorage",
      "outputs": [
        {
          "internalType": "contract FrameDataStore",
          "name": "",
          "type": "address"
        }
      ],
      "stateMutability": "view",
      "type": "function"
    },
    {
      "inputs": [],
      "name": "depsCount",
      "outputs": [
        {
          "internalType": "uint256",
          "name": "",
          "type": "uint256"
        }
      ],
      "stateMutability": "view",
      "type": "function"
    },
    {
      "inputs": [
        {
          "internalType": "uint256",
          "name": "",
          "type": "uint256"
        }
      ],
      "name": "depsList",
      "outputs": [
        {
          "internalType": "string",
          "name": "assetType",
          "type": "string"
        },
        {
          "internalType": "string",
          "name": "key",
          "type": "string"
        }
      ],
      "stateMutability": "view",
      "type": "function"
    },
    {
      "inputs": [
        {
          "internalType": "address",
          "name": "_coreDepStorage",
          "type": "address"
        },
        {
          "internalType": "address",
          "name": "_assetStorage",
          "type": "address"
        },
        {
          "internalType": "string[2][]",
          "name": "_deps",
          "type": "string[2][]"
        },
        {
          "internalType": "string[2][]",
          "name": "_assets",
          "type": "string[2][]"
        },
        {
          "internalType": "uint256[4][]",
          "name": "_renderIndex",
          "type": "uint256[4][]"
        }
      ],
      "name": "init",
      "outputs": [],
      "stateMutability": "nonpayable",
      "type": "function"
    },
    {
      "inputs": [
        {
          "internalType": "uint256",
          "name": "",
          "type": "uint256"
        },
        {
          "internalType": "uint256",
          "name": "",
          "type": "uint256"
        }
      ],
      "name": "renderIndex",
      "outputs": [
        {
          "internalType": "uint256",
          "name": "",
          "type": "uint256"
        }
      ],
      "stateMutability": "view",
      "type": "function"
    },
    {
      "inputs": [
        {
          "internalType": "uint256",
          "name": "_rpage",
          "type": "uint256"
        }
      ],
      "name": "renderPage",
      "outputs": [
        {
          "internalType": "string",
          "name": "",
          "type": "string"
        }
      ],
      "stateMutability": "view",
      "type": "function"
    },
    {
      "inputs": [],
      "name": "renderPagesCount",
      "outputs": [
        {
          "internalType": "uint256",
          "name": "",
          "type": "uint256"
        }
      ],
      "stateMutability": "view",
      "type": "function"
    },
    {
      "inputs": [],
      "name": "renderWrapper",
      "outputs": [
        {
          "internalType": "string",
          "name": "",
          "type": "string"
        }
      ],
      "stateMutability": "view",
      "type": "function"
    },
    {
      "inputs": [
        {
          "internalType": "contract FrameDataStore",
          "name": "_storage",
          "type": "address"
        }
      ],
      "name": "setAssetStorage",
      "outputs": [],
      "stateMutability": "nonpayable",
      "type": "function"
    },
    {
      "inputs": [
        {
          "internalType": "string[2][]",
          "name": "_assets",
          "type": "string[2][]"
        }
      ],
      "name": "setAssets",
      "outputs": [],
      "stateMutability": "nonpayable",
      "type": "function"
    },
    {
      "inputs": [
        {
          "internalType": "contract FrameDataStore",
          "name": "_storage",
          "type": "address"
        }
      ],
      "name": "setCoreDepStorage",
      "outputs": [],
      "stateMutability": "nonpayable",
      "type": "function"
    },
    {
      "inputs": [
        {
          "internalType": "string[2][]",
          "name": "_deps",
          "type": "string[2][]"
        }
      ],
      "name": "setDeps",
      "outputs": [],
      "stateMutability": "nonpayable",
      "type": "function"
    },
    {
      "inputs": [
        {
          "internalType": "uint256[4][]",
          "name": "_index",
          "type": "uint256[4][]"
        }
      ],
      "name": "setRenderIndex",
      "outputs": [],
      "stateMutability": "nonpayable",
      "type": "function"
    }
  ],
  "bytecode": "0x608060405234801561001057600080fd5b506120c6806100206000396000f3fe608060405234801561001057600080fd5b50600436106100f55760003560e01c80637037051311610097578063a0b4b30111610066578063a0b4b3011461025e578063b5d40c051461028f578063cdb53ac1146102c0578063dc133575146102de576100f5565b806370370513146101c45780637556d1b9146101f457806380536f631461022457806392f02e1314610240576100f5565b8063292eabde116100d3578063292eabde146101505780634cb139a61461016c5780634f5ea5cc1461018a5780636bd40805146101a6576100f5565b806311bf85ce146100fa5780631b68226f1461011657806327d98df314610134575b600080fd5b610114600480360381019061010f919061152b565b6102fa565b005b61011e61033d565b60405161012b9190611571565b60405180910390f35b61014e6004803603810190610149919061152b565b610343565b005b61016a600480360381019061016591906115f1565b610387565b005b61017461040a565b604051610181919061169d565b60405180910390f35b6101a4600480360381019061019f919061173a565b610430565b005b6101ae61046a565b6040516101bb9190611571565b60405180910390f35b6101de60048036038101906101d99190611842565b610470565b6040516101eb9190611571565b60405180910390f35b61020e60048036038101906102099190611882565b610498565b60405161021b9190611948565b60405180910390f35b61023e6004803603810190610239919061196a565b610d39565b005b610248610ef0565b6040516102559190611948565b60405180910390f35b61027860048036038101906102739190611882565b610f99565b6040516102869291906119b7565b60405180910390f35b6102a960048036038101906102a49190611882565b6110cd565b6040516102b79291906119b7565b60405180910390f35b6102c8611201565b6040516102d5919061169d565b60405180910390f35b6102f860048036038101906102f3919061196a565b611225565b005b806000806101000a81548173ffffffffffffffffffffffffffffffffffffffff021916908373ffffffffffffffffffffffffffffffffffffffff16021790555050565b60035481565b80600160006101000a81548173ffffffffffffffffffffffffffffffffffffffff021916908373ffffffffffffffffffffffffffffffffffffffff16021790555050565b60005b828290508110156103fb57600560008154809291906103a890611a1d565b91905055508282828181106103c0576103bf611a66565b5b905060800201600660008381526020019081526020016000209060046103e79291906113c4565b5080806103f390611a1d565b91505061038a565b50818190506005819055505050565b600160009054906101000a900473ffffffffffffffffffffffffffffffffffffffff1681565b610439886102fa565b61044287610343565b61044c8686610d39565b6104568484611225565b6104608282610387565b5050505050505050565b60055481565b6006602052816000526040600020816004811061048c57600080fd5b01600091509150505481565b60606000600660008481526020019081526020016000206004806020026040519081016040528092919082600480156104e6576020028201915b8154815260200190600101908083116104d2575b5050505050905060008160006004811061050357610502611a66565b5b602002015190506000826001600481106105205761051f611a66565b5b6020020151905060008360026004811061053d5761053c611a66565b5b6020020151905060008460036004811061055a57610559611a66565b5b60200201519050600060405180602001604052806000815250905060008590505b6001856105889190611a95565b811015610b765760006003546001836105a19190611a95565b111590506000816105d457600160009054906101000a900473ffffffffffffffffffffffffffffffffffffffff166105f6565b60008054906101000a900473ffffffffffffffffffffffffffffffffffffffff165b9050600082610617576004600085815260200190815260200160002061062b565b600260008581526020019081526020016000205b60405180604001604052908160008201805461064690611b1a565b80601f016020809104026020016040519081016040528092919081815260200182805461067290611b1a565b80156106bf5780601f10610694576101008083540402835291602001916106bf565b820191906000526020600020905b8154815290600101906020018083116106a257829003601f168201915b505050505081526020016001820180546106d890611b1a565b80601f016020809104026020016040519081016040528092919081815260200182805461070490611b1a565b80156107515780601f1061072657610100808354040283529160200191610751565b820191906000526020600020905b81548152906001019060200180831161073457829003601f168201915b5050505050815250509050600089851461076c57600061076e565b875b905060008986146107fc578373ffffffffffffffffffffffffffffffffffffffff1663d431a42f84602001516040518263ffffffff1660e01b81526004016107b69190611948565b602060405180830381865afa1580156107d3573d6000803e3d6000fd5b505050506040513d601f19601f820116820180604052508101906107f79190611b61565b6107fe565b875b905060008214156108f4578660008054906101000a900473ffffffffffffffffffffffffffffffffffffffff1673ffffffffffffffffffffffffffffffffffffffff166311aa4cba856000015160405160200161085b9190611bf0565b6040516020818303038152906040526000806040518463ffffffff1660e01b815260040161088b93929190611c51565b600060405180830381865afa1580156108a8573d6000803e3d6000fd5b505050506040513d6000823e3d601f19601f820116820180604052508101906108d19190611db0565b6040516020016108e2929190611df9565b60405160208183030381529060405296505b8660008054906101000a900473ffffffffffffffffffffffffffffffffffffffff1673ffffffffffffffffffffffffffffffffffffffff166311aa4cba856020015185856040518463ffffffff1660e01b815260040161095693929190611e1d565b600060405180830381865afa158015610973573d6000803e3d6000fd5b505050506040513d6000823e3d601f19601f8201168201806040525081019061099c9190611db0565b6040516020016109ac9190611ea2565b6040516020818303038152906040526040516020016109cc929190611df9565b604051602081830303815290604052965060008a87148015610a6b57508473ffffffffffffffffffffffffffffffffffffffff1663d431a42f85602001516040518263ffffffff1660e01b8152600401610a269190611948565b602060405180830381865afa158015610a43573d6000803e3d6000fd5b505050506040513d601f19601f82011682018060405250810190610a679190611b61565b8914155b905080610b5d578760008054906101000a900473ffffffffffffffffffffffffffffffffffffffff1673ffffffffffffffffffffffffffffffffffffffff166311aa4cba8660000151604051602001610ac49190611bf0565b6040516020818303038152906040526001806040518463ffffffff1660e01b8152600401610af493929190611ef4565b600060405180830381865afa158015610b11573d6000803e3d6000fd5b505050506040513d6000823e3d601f19601f82011682018060405250810190610b3a9190611db0565b604051602001610b4b929190611df9565b60405160208183030381529060405297505b5050505050508080610b6e90611a1d565b91505061057b565b506000881415610c505760008054906101000a900473ffffffffffffffffffffffffffffffffffffffff1673ffffffffffffffffffffffffffffffffffffffff166311aa4cba6000806040518363ffffffff1660e01b8152600401610bdc929190611f7e565b600060405180830381865afa158015610bf9573d6000803e3d6000fd5b505050506040513d6000823e3d601f19601f82011682018060405250810190610c229190611db0565b81604051602001610c34929190611df9565b6040516020818303038152906040529650505050505050610d34565b600554881415610d2a578060008054906101000a900473ffffffffffffffffffffffffffffffffffffffff1673ffffffffffffffffffffffffffffffffffffffff166311aa4cba6001806040518363ffffffff1660e01b8152600401610cb7929190611fba565b600060405180830381865afa158015610cd4573d6000803e3d6000fd5b505050506040513d6000823e3d601f19601f82011682018060405250810190610cfd9190611db0565b604051602001610d0e929190611df9565b6040516020818303038152906040529650505050505050610d34565b8096505050505050505b919050565b60005b82829050811015610eeb576040518060400160405280848484818110610d6557610d64611a66565b5b9050602002810190610d779190612005565b600060028110610d8a57610d89611a66565b5b602002810190610d9a919061202d565b8080601f016020809104026020016040519081016040528093929190818152602001838380828437600081840152601f19601f820116905080830192505050505050508152602001848484818110610df557610df4611a66565b5b9050602002810190610e079190612005565b600160028110610e1a57610e19611a66565b5b602002810190610e2a919061202d565b8080601f016020809104026020016040519081016040528093929190818152602001838380828437600081840152601f19601f82011690508083019250505050505050815250600260008381526020019081526020016000206000820151816000019080519060200190610e9f929190611404565b506020820151816001019080519060200190610ebc929190611404565b5090505060036000815480929190610ed390611a1d565b91905055508080610ee390611a1d565b915050610d3c565b505050565b606060008054906101000a900473ffffffffffffffffffffffffffffffffffffffff1673ffffffffffffffffffffffffffffffffffffffff166311aa4cba6000806040518363ffffffff1660e01b8152600401610f4e929190611f7e565b600060405180830381865afa158015610f6b573d6000803e3d6000fd5b505050506040513d6000823e3d601f19601f82011682018060405250810190610f949190611db0565b905090565b6004602052806000526040600020600091509050806000018054610fbc90611b1a565b80601f0160208091040260200160405190810160405280929190818152602001828054610fe890611b1a565b80156110355780601f1061100a57610100808354040283529160200191611035565b820191906000526020600020905b81548152906001019060200180831161101857829003601f168201915b50505050509080600101805461104a90611b1a565b80601f016020809104026020016040519081016040528092919081815260200182805461107690611b1a565b80156110c35780601f10611098576101008083540402835291602001916110c3565b820191906000526020600020905b8154815290600101906020018083116110a657829003601f168201915b5050505050905082565b60026020528060005260406000206000915090508060000180546110f090611b1a565b80601f016020809104026020016040519081016040528092919081815260200182805461111c90611b1a565b80156111695780601f1061113e57610100808354040283529160200191611169565b820191906000526020600020905b81548152906001019060200180831161114c57829003601f168201915b50505050509080600101805461117e90611b1a565b80601f01602080910402602001604051908101604052809291908181526020018280546111aa90611b1a565b80156111f75780601f106111cc576101008083540402835291602001916111f7565b820191906000526020600020905b8154815290600101906020018083116111da57829003601f168201915b5050505050905082565b60008054906101000a900473ffffffffffffffffffffffffffffffffffffffff1681565b60005b828290508110156113bf57604051806040016040528084848481811061125157611250611a66565b5b90506020028101906112639190612005565b60006002811061127657611275611a66565b5b602002810190611286919061202d565b8080601f016020809104026020016040519081016040528093929190818152602001838380828437600081840152601f19601f8201169050808301925050505050505081526020018484848181106112e1576112e0611a66565b5b90506020028101906112f39190612005565b60016002811061130657611305611a66565b5b602002810190611316919061202d565b8080601f016020809104026020016040519081016040528093929190818152602001838380828437600081840152601f19601f8201169050808301925050505050505081525060046000838152602001908152602001600020600082015181600001908051906020019061138b929190611404565b5060208201518160010190805190602001906113a8929190611404565b5090505080806113b790611a1d565b915050611228565b505050565b82600481019282156113f3579160200282015b828111156113f25782358255916020019190600101906113d7565b5b509050611400919061148a565b5090565b82805461141090611b1a565b90600052602060002090601f0160209004810192826114325760008555611479565b82601f1061144b57805160ff1916838001178555611479565b82800160010185558215611479579182015b8281111561147857825182559160200191906001019061145d565b5b509050611486919061148a565b5090565b5b808211156114a357600081600090555060010161148b565b5090565b6000604051905090565b600080fd5b600080fd5b600073ffffffffffffffffffffffffffffffffffffffff82169050919050565b60006114e6826114bb565b9050919050565b60006114f8826114db565b9050919050565b611508816114ed565b811461151357600080fd5b50565b600081359050611525816114ff565b92915050565b600060208284031215611541576115406114b1565b5b600061154f84828501611516565b91505092915050565b6000819050919050565b61156b81611558565b82525050565b60006020820190506115866000830184611562565b92915050565b600080fd5b600080fd5b600080fd5b60008083601f8401126115b1576115b061158c565b5b8235905067ffffffffffffffff8111156115ce576115cd611591565b5b6020830191508360808202830111156115ea576115e9611596565b5b9250929050565b60008060208385031215611608576116076114b1565b5b600083013567ffffffffffffffff811115611626576116256114b6565b5b6116328582860161159b565b92509250509250929050565b6000819050919050565b600061166361165e611659846114bb565b61163e565b6114bb565b9050919050565b600061167582611648565b9050919050565b60006116878261166a565b9050919050565b6116978161167c565b82525050565b60006020820190506116b2600083018461168e565b92915050565b6116c1816114db565b81146116cc57600080fd5b50565b6000813590506116de816116b8565b92915050565b60008083601f8401126116fa576116f961158c565b5b8235905067ffffffffffffffff81111561171757611716611591565b5b60208301915083602082028301111561173357611732611596565b5b9250929050565b60008060008060008060008060a0898b03121561175a576117596114b1565b5b60006117688b828c016116cf565b98505060206117798b828c016116cf565b975050604089013567ffffffffffffffff81111561179a576117996114b6565b5b6117a68b828c016116e4565b9650965050606089013567ffffffffffffffff8111156117c9576117c86114b6565b5b6117d58b828c016116e4565b9450945050608089013567ffffffffffffffff8111156117f8576117f76114b6565b5b6118048b828c0161159b565b92509250509295985092959890939650565b61181f81611558565b811461182a57600080fd5b50565b60008135905061183c81611816565b92915050565b60008060408385031215611859576118586114b1565b5b60006118678582860161182d565b92505060206118788582860161182d565b9150509250929050565b600060208284031215611898576118976114b1565b5b60006118a68482850161182d565b91505092915050565b600081519050919050565b600082825260208201905092915050565b60005b838110156118e95780820151818401526020810190506118ce565b838111156118f8576000848401525b50505050565b6000601f19601f8301169050919050565b600061191a826118af565b61192481856118ba565b93506119348185602086016118cb565b61193d816118fe565b840191505092915050565b60006020820190508181036000830152611962818461190f565b905092915050565b60008060208385031215611981576119806114b1565b5b600083013567ffffffffffffffff81111561199f5761199e6114b6565b5b6119ab858286016116e4565b92509250509250929050565b600060408201905081810360008301526119d1818561190f565b905081810360208301526119e5818461190f565b90509392505050565b7f4e487b7100000000000000000000000000000000000000000000000000000000600052601160045260246000fd5b6000611a2882611558565b91507fffffffffffffffffffffffffffffffffffffffffffffffffffffffffffffffff821415611a5b57611a5a6119ee565b5b600182019050919050565b7f4e487b7100000000000000000000000000000000000000000000000000000000600052603260045260246000fd5b6000611aa082611558565b9150611aab83611558565b9250827fffffffffffffffffffffffffffffffffffffffffffffffffffffffffffffffff03821115611ae057611adf6119ee565b5b828201905092915050565b7f4e487b7100000000000000000000000000000000000000000000000000000000600052602260045260246000fd5b60006002820490506001821680611b3257607f821691505b60208210811415611b4657611b45611aeb565b5b50919050565b600081519050611b5b81611816565b92915050565b600060208284031215611b7757611b766114b1565b5b6000611b8584828501611b4c565b91505092915050565b600081905092915050565b6000611ba4826118af565b611bae8185611b8e565b9350611bbe8185602086016118cb565b80840191505092915050565b7f5772617070657200000000000000000000000000000000000000000000000000815250565b6000611bfc8284611b99565b9150611c0782611bca565b60078201915081905092915050565b6000819050919050565b6000611c3b611c36611c3184611c16565b61163e565b611558565b9050919050565b611c4b81611c20565b82525050565b60006060820190508181036000830152611c6b818661190f565b9050611c7a6020830185611c42565b611c876040830184611c42565b949350505050565b600080fd5b7f4e487b7100000000000000000000000000000000000000000000000000000000600052604160045260246000fd5b611ccc826118fe565b810181811067ffffffffffffffff82111715611ceb57611cea611c94565b5b80604052505050565b6000611cfe6114a7565b9050611d0a8282611cc3565b919050565b600067ffffffffffffffff821115611d2a57611d29611c94565b5b611d33826118fe565b9050602081019050919050565b6000611d53611d4e84611d0f565b611cf4565b905082815260208101848484011115611d6f57611d6e611c8f565b5b611d7a8482856118cb565b509392505050565b600082601f830112611d9757611d9661158c565b5b8151611da7848260208601611d40565b91505092915050565b600060208284031215611dc657611dc56114b1565b5b600082015167ffffffffffffffff811115611de457611de36114b6565b5b611df084828501611d82565b91505092915050565b6000611e058285611b99565b9150611e118284611b99565b91508190509392505050565b60006060820190508181036000830152611e37818661190f565b9050611e466020830185611562565b611e536040830184611562565b949350505050565b600081519050919050565b600081905092915050565b6000611e7c82611e5b565b611e868185611e66565b9350611e968185602086016118cb565b80840191505092915050565b6000611eae8284611e71565b915081905092915050565b6000819050919050565b6000611ede611ed9611ed484611eb9565b61163e565b611558565b9050919050565b611eee81611ec3565b82525050565b60006060820190508181036000830152611f0e818661190f565b9050611f1d6020830185611ee5565b611f2a6040830184611ee5565b949350505050565b7f72656e6465725772617070657200000000000000000000000000000000000000600082015250565b6000611f68600d836118ba565b9150611f7382611f32565b602082019050919050565b60006060820190508181036000830152611f9781611f5b565b9050611fa66020830185611c42565b611fb36040830184611c42565b9392505050565b60006060820190508181036000830152611fd381611f5b565b9050611fe26020830185611ee5565b611fef6040830184611ee5565b9392505050565b600080fd5b600080fd5b600080fd5b60008235600160400383360303811261202157612020611ff6565b5b80830191505092915050565b6000808335600160200384360303811261204a57612049611ff6565b5b80840192508235915067ffffffffffffffff82111561206c5761206b611ffb565b5b60208301925060018202360383131561208857612087612000565b5b50925092905056fea2646970667358221220dade7b41283a31be6ca191e895ba1fdbcda992d49efdf666cf30567e2b8cc4b264736f6c634300080c0033",
  "linkReferences": {},
  "deployedLinkReferences": {}
}