{
  "_format": "hh-sol-artifact-1",
  "contractName": "Frame",
  "sourceName": "src/services/chain-sim/contracts/Frame.sol",
  "abi": [
    {
      "inputs": [],
      "stateMutability": "nonpayable",
      "type": "constructor"
    },
    {
      "inputs": [
        {
          "internalType": "uint256",
          "name": "",
          "type": "uint256"
        }
      ],
      "name": "assetList",
      "outputs": [
        {
          "internalType": "string",
          "name": "wrapperKey",
          "type": "string"
        },
        {
          "internalType": "string",
          "name": "key",
          "type": "string"
        }
      ],
      "stateMutability": "view",
      "type": "function"
    },
    {
      "inputs": [],
      "name": "assetStorage",
      "outputs": [
        {
          "internalType": "contract FrameDataStore",
          "name": "",
          "type": "address"
        }
      ],
      "stateMutability": "view",
      "type": "function"
    },
    {
      "inputs": [],
      "name": "assetsCount",
      "outputs": [
        {
          "internalType": "uint256",
          "name": "",
          "type": "uint256"
        }
      ],
      "stateMutability": "view",
      "type": "function"
    },
    {
      "inputs": [],
      "name": "coreDepStorage",
      "outputs": [
        {
          "internalType": "contract FrameDataStore",
          "name": "",
          "type": "address"
        }
      ],
      "stateMutability": "view",
      "type": "function"
    },
    {
      "inputs": [],
      "name": "depsCount",
      "outputs": [
        {
          "internalType": "uint256",
          "name": "",
          "type": "uint256"
        }
      ],
      "stateMutability": "view",
      "type": "function"
    },
    {
      "inputs": [
        {
          "internalType": "uint256",
          "name": "",
          "type": "uint256"
        }
      ],
      "name": "depsList",
      "outputs": [
        {
          "internalType": "string",
          "name": "wrapperKey",
          "type": "string"
        },
        {
          "internalType": "string",
          "name": "key",
          "type": "string"
        }
      ],
      "stateMutability": "view",
      "type": "function"
    },
    {
      "inputs": [
        {
          "internalType": "address",
          "name": "_coreDepStorage",
          "type": "address"
        },
        {
          "internalType": "address",
          "name": "_assetStorage",
          "type": "address"
        },
        {
          "internalType": "string[2][]",
          "name": "_deps",
          "type": "string[2][]"
        },
        {
          "internalType": "string[2][]",
          "name": "_assets",
          "type": "string[2][]"
        },
        {
          "internalType": "uint256[4][]",
          "name": "_renderIndex",
          "type": "uint256[4][]"
        }
      ],
      "name": "init",
      "outputs": [],
      "stateMutability": "nonpayable",
      "type": "function"
    },
    {
      "inputs": [],
      "name": "initSuccess",
      "outputs": [
        {
          "internalType": "bool",
          "name": "",
          "type": "bool"
        }
      ],
      "stateMutability": "view",
      "type": "function"
    },
    {
      "inputs": [],
      "name": "name",
      "outputs": [
        {
          "internalType": "string",
          "name": "",
          "type": "string"
        }
      ],
      "stateMutability": "view",
      "type": "function"
    },
    {
      "inputs": [
        {
          "internalType": "uint256",
          "name": "",
          "type": "uint256"
        },
        {
          "internalType": "uint256",
          "name": "",
          "type": "uint256"
        }
      ],
      "name": "renderIndex",
      "outputs": [
        {
          "internalType": "uint256",
          "name": "",
          "type": "uint256"
        }
      ],
      "stateMutability": "view",
      "type": "function"
    },
    {
      "inputs": [
        {
          "internalType": "uint256",
          "name": "_rpage",
          "type": "uint256"
        }
      ],
      "name": "renderPage",
      "outputs": [
        {
          "internalType": "string",
          "name": "",
          "type": "string"
        }
      ],
      "stateMutability": "view",
      "type": "function"
    },
    {
      "inputs": [],
      "name": "renderPagesCount",
      "outputs": [
        {
          "internalType": "uint256",
          "name": "",
          "type": "uint256"
        }
      ],
      "stateMutability": "view",
      "type": "function"
    },
    {
      "inputs": [
        {
          "internalType": "string",
          "name": "_name",
          "type": "string"
        }
      ],
      "name": "setName",
      "outputs": [],
      "stateMutability": "nonpayable",
      "type": "function"
    }
  ],
  "bytecode": "0x608060405260405180602001604052806000815250600090805190602001906200002b9291906200005b565b506000600160006101000a81548160ff0219169083151502179055503480156200005457600080fd5b5062000170565b82805462000069906200013a565b90600052602060002090601f0160209004810192826200008d5760008555620000d9565b82601f10620000a857805160ff1916838001178555620000d9565b82800160010185558215620000d9579182015b82811115620000d8578251825591602001919060010190620000bb565b5b509050620000e89190620000ec565b5090565b5b8082111562000107576000816000905550600101620000ed565b5090565b7f4e487b7100000000000000000000000000000000000000000000000000000000600052602260045260246000fd5b600060028204905060018216806200015357607f821691505b602082108114156200016a57620001696200010b565b5b50919050565b61223780620001806000396000f3fe608060405234801561001057600080fd5b50600436106100cf5760003560e01c80637556d1b91161008c578063b5d40c0511610066578063b5d40c0514610217578063c47f002714610248578063cd9df19014610264578063cdb53ac114610282576100cf565b80637556d1b914610198578063827fbc2b146101c8578063a0b4b301146101e6576100cf565b806306fdde03146100d45780631b68226f146100f25780634cb139a6146101105780634f5ea5cc1461012e5780636bd408051461014a5780637037051314610168575b600080fd5b6100dc6102a0565b6040516100e991906115c7565b60405180910390f35b6100fa61032e565b6040516101079190611602565b60405180910390f35b610118610334565b604051610125919061169c565b60405180910390f35b610148600480360381019061014391906117c4565b61035a565b005b6101526103fe565b60405161015f9190611602565b60405180910390f35b610182600480360381019061017d91906118cc565b610404565b60405161018f9190611602565b60405180910390f35b6101b260048036038101906101ad919061190c565b61042c565b6040516101bf91906115c7565b60405180910390f35b6101d0610cc3565b6040516101dd9190611954565b60405180910390f35b61020060048036038101906101fb919061190c565b610cd6565b60405161020e92919061196f565b60405180910390f35b610231600480360381019061022c919061190c565b610e0a565b60405161023f92919061196f565b60405180910390f35b610262600480360381019061025d9190611ad6565b610f3e565b005b61026c610fa9565b6040516102799190611602565b60405180910390f35b61028a610faf565b604051610297919061169c565b60405180910390f35b600080546102ad90611b4e565b80601f01602080910402602001604051908101604052809291908181526020018280546102d990611b4e565b80156103265780601f106102fb57610100808354040283529160200191610326565b820191906000526020600020905b81548152906001019060200180831161030957829003601f168201915b505050505081565b60045481565b600260009054906101000a900473ffffffffffffffffffffffffffffffffffffffff1681565b600160009054906101000a900460ff16156103aa576040517f08c379a00000000000000000000000000000000000000000000000000000000081526004016103a190611bcc565b60405180910390fd5b6103b388610fd3565b6103bc87611016565b6103c6868661105a565b6103d08484611211565b6103da82826113c8565b60018060006101000a81548160ff0219169083151502179055505050505050505050565b60075481565b6008602052816000526040600020816004811061042057600080fd5b01600091509150505481565b606060006008600084815260200190815260200160002060048060200260405190810160405280929190826004801561047a576020028201915b815481526020019060010190808311610466575b5050505050905060008160006004811061049757610496611bec565b5b602002015190506000826001600481106104b4576104b3611bec565b5b602002015190506000836002600481106104d1576104d0611bec565b5b602002015190506000846003600481106104ee576104ed611bec565b5b60200201519050600060405180602001604052806000815250905060008590505b60018561051c9190611c4a565b811015610b095760006004546001836105359190611c4a565b11159050600081610553576004548361054e9190611ca0565b610555565b825b905060008261058657600260009054906101000a900473ffffffffffffffffffffffffffffffffffffffff166105a8565b60018054906101000a900473ffffffffffffffffffffffffffffffffffffffff165b90506000836105c957600560008481526020019081526020016000206105dd565b600360008681526020019081526020016000205b6040518060400160405290816000820180546105f890611b4e565b80601f016020809104026020016040519081016040528092919081815260200182805461062490611b4e565b80156106715780601f1061064657610100808354040283529160200191610671565b820191906000526020600020905b81548152906001019060200180831161065457829003601f168201915b5050505050815260200160018201805461068a90611b4e565b80601f01602080910402602001604051908101604052809291908181526020018280546106b690611b4e565b80156107035780601f106106d857610100808354040283529160200191610703565b820191906000526020600020905b8154815290600101906020018083116106e657829003601f168201915b505050505081525050905060008a861461071e576000610720565b885b905060008a87146107ae578373ffffffffffffffffffffffffffffffffffffffff1663d431a42f84602001516040518263ffffffff1660e01b815260040161076891906115c7565b602060405180830381865afa158015610785573d6000803e3d6000fd5b505050506040513d601f19601f820116820180604052508101906107a99190611ce9565b6107b0565b885b905060008214156108a6578760018054906101000a900473ffffffffffffffffffffffffffffffffffffffff1673ffffffffffffffffffffffffffffffffffffffff166311aa4cba85600001516000806040518463ffffffff1660e01b815260040161081e93929190611d51565b600060405180830381865afa15801561083b573d6000803e3d6000fd5b505050506040513d6000823e3d601f19601f820116820180604052508101906108649190611e30565b6040516020016108749190611ec0565b604051602081830303815290604052604051602001610894929190611f13565b60405160208183030381529060405297505b878473ffffffffffffffffffffffffffffffffffffffff166311aa4cba856020015185856040518463ffffffff1660e01b81526004016108e893929190611f37565b600060405180830381865afa158015610905573d6000803e3d6000fd5b505050506040513d6000823e3d601f19601f8201168201806040525081019061092e9190611e30565b60405160200161093e9190611ec0565b60405160208183030381529060405260405160200161095e929190611f13565b604051602081830303815290604052975060008b881480156109fd57508473ffffffffffffffffffffffffffffffffffffffff1663d431a42f85602001516040518263ffffffff1660e01b81526004016109b891906115c7565b602060405180830381865afa1580156109d5573d6000803e3d6000fd5b505050506040513d601f19601f820116820180604052508101906109f99190611ce9565b8a14155b905080610aef578860018054906101000a900473ffffffffffffffffffffffffffffffffffffffff1673ffffffffffffffffffffffffffffffffffffffff166311aa4cba86600001516001806040518463ffffffff1660e01b8152600401610a6793929190611fb0565b600060405180830381865afa158015610a84573d6000803e3d6000fd5b505050506040513d6000823e3d601f19601f82011682018060405250810190610aad9190611e30565b604051602001610abd9190611ec0565b604051602081830303815290604052604051602001610add929190611f13565b60405160208183030381529060405298505b505050505050508080610b0190611fee565b91505061050f565b506000881415610bd95760018054906101000a900473ffffffffffffffffffffffffffffffffffffffff1673ffffffffffffffffffffffffffffffffffffffff166311aa4cba6000806040518363ffffffff1660e01b8152600401610b6f929190612083565b600060405180830381865afa158015610b8c573d6000803e3d6000fd5b505050506040513d6000823e3d601f19601f82011682018060405250810190610bb59190611e30565b81604051602001610bc7929190611f13565b60405160208183030381529060405290505b6001600754610be89190611ca0565b881415610cb5578060018054906101000a900473ffffffffffffffffffffffffffffffffffffffff1673ffffffffffffffffffffffffffffffffffffffff166311aa4cba6001806040518363ffffffff1660e01b8152600401610c4c9291906120bf565b600060405180830381865afa158015610c69573d6000803e3d6000fd5b505050506040513d6000823e3d601f19601f82011682018060405250810190610c929190611e30565b604051602001610ca3929190611f13565b60405160208183030381529060405290505b809650505050505050919050565b600160009054906101000a900460ff1681565b6005602052806000526040600020600091509050806000018054610cf990611b4e565b80601f0160208091040260200160405190810160405280929190818152602001828054610d2590611b4e565b8015610d725780601f10610d4757610100808354040283529160200191610d72565b820191906000526020600020905b815481529060010190602001808311610d5557829003601f168201915b505050505090806001018054610d8790611b4e565b80601f0160208091040260200160405190810160405280929190818152602001828054610db390611b4e565b8015610e005780601f10610dd557610100808354040283529160200191610e00565b820191906000526020600020905b815481529060010190602001808311610de357829003601f168201915b5050505050905082565b6003602052806000526040600020600091509050806000018054610e2d90611b4e565b80601f0160208091040260200160405190810160405280929190818152602001828054610e5990611b4e565b8015610ea65780601f10610e7b57610100808354040283529160200191610ea6565b820191906000526020600020905b815481529060010190602001808311610e8957829003601f168201915b505050505090806001018054610ebb90611b4e565b80601f0160208091040260200160405190810160405280929190818152602001828054610ee790611b4e565b8015610f345780601f10610f0957610100808354040283529160200191610f34565b820191906000526020600020905b815481529060010190602001808311610f1757829003601f168201915b5050505050905082565b600360008054610f4d90611b4e565b905010610f8f576040517f08c379a0000000000000000000000000000000000000000000000000000000008152600401610f8690612147565b60405180910390fd5b8060009080519060200190610fa592919061144b565b5050565b60065481565b60018054906101000a900473ffffffffffffffffffffffffffffffffffffffff1681565b806001806101000a81548173ffffffffffffffffffffffffffffffffffffffff021916908373ffffffffffffffffffffffffffffffffffffffff16021790555050565b80600260006101000a81548173ffffffffffffffffffffffffffffffffffffffff021916908373ffffffffffffffffffffffffffffffffffffffff16021790555050565b60005b8282905081101561120c57604051806040016040528084848481811061108657611085611bec565b5b90506020028101906110989190612176565b6000600281106110ab576110aa611bec565b5b6020028101906110bb919061219e565b8080601f016020809104026020016040519081016040528093929190818152602001838380828437600081840152601f19601f82011690508083019250505050505050815260200184848481811061111657611115611bec565b5b90506020028101906111289190612176565b60016002811061113b5761113a611bec565b5b60200281019061114b919061219e565b8080601f016020809104026020016040519081016040528093929190818152602001838380828437600081840152601f19601f820116905080830192505050505050508152506003600083815260200190815260200160002060008201518160000190805190602001906111c092919061144b565b5060208201518160010190805190602001906111dd92919061144b565b50905050600460008154809291906111f490611fee565b9190505550808061120490611fee565b91505061105d565b505050565b60005b828290508110156113c357604051806040016040528084848481811061123d5761123c611bec565b5b905060200281019061124f9190612176565b60006002811061126257611261611bec565b5b602002810190611272919061219e565b8080601f016020809104026020016040519081016040528093929190818152602001838380828437600081840152601f19601f8201169050808301925050505050505081526020018484848181106112cd576112cc611bec565b5b90506020028101906112df9190612176565b6001600281106112f2576112f1611bec565b5b602002810190611302919061219e565b8080601f016020809104026020016040519081016040528093929190818152602001838380828437600081840152601f19601f8201169050808301925050505050505081525060056000838152602001908152602001600020600082015181600001908051906020019061137792919061144b565b50602082015181600101908051906020019061139492919061144b565b50905050600660008154809291906113ab90611fee565b919050555080806113bb90611fee565b915050611214565b505050565b60005b8282905081101561143c57600760008154809291906113e990611fee565b919050555082828281811061140157611400611bec565b5b905060800201600860008381526020019081526020016000209060046114289291906114d1565b50808061143490611fee565b9150506113cb565b50818190506007819055505050565b82805461145790611b4e565b90600052602060002090601f01602090048101928261147957600085556114c0565b82601f1061149257805160ff19168380011785556114c0565b828001600101855582156114c0579182015b828111156114bf5782518255916020019190600101906114a4565b5b5090506114cd9190611511565b5090565b8260048101928215611500579160200282015b828111156114ff5782358255916020019190600101906114e4565b5b50905061150d9190611511565b5090565b5b8082111561152a576000816000905550600101611512565b5090565b600081519050919050565b600082825260208201905092915050565b60005b8381101561156857808201518184015260208101905061154d565b83811115611577576000848401525b50505050565b6000601f19601f8301169050919050565b60006115998261152e565b6115a38185611539565b93506115b381856020860161154a565b6115bc8161157d565b840191505092915050565b600060208201905081810360008301526115e1818461158e565b905092915050565b6000819050919050565b6115fc816115e9565b82525050565b600060208201905061161760008301846115f3565b92915050565b600073ffffffffffffffffffffffffffffffffffffffff82169050919050565b6000819050919050565b600061166261165d6116588461161d565b61163d565b61161d565b9050919050565b600061167482611647565b9050919050565b600061168682611669565b9050919050565b6116968161167b565b82525050565b60006020820190506116b1600083018461168d565b92915050565b6000604051905090565b600080fd5b600080fd5b60006116d68261161d565b9050919050565b6116e6816116cb565b81146116f157600080fd5b50565b600081359050611703816116dd565b92915050565b600080fd5b600080fd5b600080fd5b60008083601f84011261172e5761172d611709565b5b8235905067ffffffffffffffff81111561174b5761174a61170e565b5b60208301915083602082028301111561176757611766611713565b5b9250929050565b60008083601f84011261178457611783611709565b5b8235905067ffffffffffffffff8111156117a1576117a061170e565b5b6020830191508360808202830111156117bd576117bc611713565b5b9250929050565b60008060008060008060008060a0898b0312156117e4576117e36116c1565b5b60006117f28b828c016116f4565b98505060206118038b828c016116f4565b975050604089013567ffffffffffffffff811115611824576118236116c6565b5b6118308b828c01611718565b9650965050606089013567ffffffffffffffff811115611853576118526116c6565b5b61185f8b828c01611718565b9450945050608089013567ffffffffffffffff811115611882576118816116c6565b5b61188e8b828c0161176e565b92509250509295985092959890939650565b6118a9816115e9565b81146118b457600080fd5b50565b6000813590506118c6816118a0565b92915050565b600080604083850312156118e3576118e26116c1565b5b60006118f1858286016118b7565b9250506020611902858286016118b7565b9150509250929050565b600060208284031215611922576119216116c1565b5b6000611930848285016118b7565b91505092915050565b60008115159050919050565b61194e81611939565b82525050565b60006020820190506119696000830184611945565b92915050565b60006040820190508181036000830152611989818561158e565b9050818103602083015261199d818461158e565b90509392505050565b600080fd5b7f4e487b7100000000000000000000000000000000000000000000000000000000600052604160045260246000fd5b6119e38261157d565b810181811067ffffffffffffffff82111715611a0257611a016119ab565b5b80604052505050565b6000611a156116b7565b9050611a2182826119da565b919050565b600067ffffffffffffffff821115611a4157611a406119ab565b5b611a4a8261157d565b9050602081019050919050565b82818337600083830152505050565b6000611a79611a7484611a26565b611a0b565b905082815260208101848484011115611a9557611a946119a6565b5b611aa0848285611a57565b509392505050565b600082601f830112611abd57611abc611709565b5b8135611acd848260208601611a66565b91505092915050565b600060208284031215611aec57611aeb6116c1565b5b600082013567ffffffffffffffff811115611b0a57611b096116c6565b5b611b1684828501611aa8565b91505092915050565b7f4e487b7100000000000000000000000000000000000000000000000000000000600052602260045260246000fd5b60006002820490506001821680611b6657607f821691505b60208210811415611b7a57611b79611b1f565b5b50919050565b7f4672616d653a2043616e27742072652d696e697420636f6e7472616374000000600082015250565b6000611bb6601d83611539565b9150611bc182611b80565b602082019050919050565b60006020820190508181036000830152611be581611ba9565b9050919050565b7f4e487b7100000000000000000000000000000000000000000000000000000000600052603260045260246000fd5b7f4e487b7100000000000000000000000000000000000000000000000000000000600052601160045260246000fd5b6000611c55826115e9565b9150611c60836115e9565b9250827fffffffffffffffffffffffffffffffffffffffffffffffffffffffffffffffff03821115611c9557611c94611c1b565b5b828201905092915050565b6000611cab826115e9565b9150611cb6836115e9565b925082821015611cc957611cc8611c1b565b5b828203905092915050565b600081519050611ce3816118a0565b92915050565b600060208284031215611cff57611cfe6116c1565b5b6000611d0d84828501611cd4565b91505092915050565b6000819050919050565b6000611d3b611d36611d3184611d16565b61163d565b6115e9565b9050919050565b611d4b81611d20565b82525050565b60006060820190508181036000830152611d6b818661158e565b9050611d7a6020830185611d42565b611d876040830184611d42565b949350505050565b600067ffffffffffffffff821115611daa57611da96119ab565b5b611db38261157d565b9050602081019050919050565b6000611dd3611dce84611d8f565b611a0b565b905082815260208101848484011115611def57611dee6119a6565b5b611dfa84828561154a565b509392505050565b600082601f830112611e1757611e16611709565b5b8151611e27848260208601611dc0565b91505092915050565b600060208284031215611e4657611e456116c1565b5b600082015167ffffffffffffffff811115611e6457611e636116c6565b5b611e7084828501611e02565b91505092915050565b600081519050919050565b600081905092915050565b6000611e9a82611e79565b611ea48185611e84565b9350611eb481856020860161154a565b80840191505092915050565b6000611ecc8284611e8f565b915081905092915050565b600081905092915050565b6000611eed8261152e565b611ef78185611ed7565b9350611f0781856020860161154a565b80840191505092915050565b6000611f1f8285611ee2565b9150611f2b8284611ee2565b91508190509392505050565b60006060820190508181036000830152611f51818661158e565b9050611f6060208301856115f3565b611f6d60408301846115f3565b949350505050565b6000819050919050565b6000611f9a611f95611f9084611f75565b61163d565b6115e9565b9050919050565b611faa81611f7f565b82525050565b60006060820190508181036000830152611fca818661158e565b9050611fd96020830185611fa1565b611fe66040830184611fa1565b949350505050565b6000611ff9826115e9565b91507fffffffffffffffffffffffffffffffffffffffffffffffffffffffffffffffff82141561202c5761202b611c1b565b5b600182019050919050565b7f68746d6c2d7772617040312e302e300000000000000000000000000000000000600082015250565b600061206d600f83611539565b915061207882612037565b602082019050919050565b6000606082019050818103600083015261209c81612060565b90506120ab6020830185611d42565b6120b86040830184611d42565b9392505050565b600060608201905081810360008301526120d881612060565b90506120e76020830185611fa1565b6120f46040830184611fa1565b9392505050565b7f4672616d653a204e616d6520616c726561647920736574000000000000000000600082015250565b6000612131601783611539565b915061213c826120fb565b602082019050919050565b6000602082019050818103600083015261216081612124565b9050919050565b600080fd5b600080fd5b600080fd5b60008235600160400383360303811261219257612191612167565b5b80830191505092915050565b600080833560016020038436030381126121bb576121ba612167565b5b80840192508235915067ffffffffffffffff8211156121dd576121dc61216c565b5b6020830192506001820236038313156121f9576121f8612171565b5b50925092905056fea26469706673582212205158fe940127c44106d8535a8a8a7332ea94c585e98f133e51f5303d917a68f764736f6c634300080c0033",
  "linkReferences": {},
  "deployedLinkReferences": {}
}