{
  "_format": "hh-sol-artifact-1",
  "contractName": "Frame",
  "sourceName": "src/services/chain-sim/contracts/Frame.sol",
  "abi": [
    {
      "inputs": [],
      "stateMutability": "nonpayable",
      "type": "constructor"
    },
    {
      "inputs": [
        {
          "internalType": "uint256",
          "name": "",
          "type": "uint256"
        }
      ],
      "name": "assetList",
      "outputs": [
        {
          "internalType": "string",
          "name": "assetType",
          "type": "string"
        },
        {
          "internalType": "string",
          "name": "key",
          "type": "string"
        }
      ],
      "stateMutability": "view",
      "type": "function"
    },
    {
      "inputs": [],
      "name": "assetStorage",
      "outputs": [
        {
          "internalType": "contract FrameDataStore",
          "name": "",
          "type": "address"
        }
      ],
      "stateMutability": "view",
      "type": "function"
    },
    {
      "inputs": [],
      "name": "coreDepStorage",
      "outputs": [
        {
          "internalType": "contract FrameDataStore",
          "name": "",
          "type": "address"
        }
      ],
      "stateMutability": "view",
      "type": "function"
    },
    {
      "inputs": [],
      "name": "depsCount",
      "outputs": [
        {
          "internalType": "uint256",
          "name": "",
          "type": "uint256"
        }
      ],
      "stateMutability": "view",
      "type": "function"
    },
    {
      "inputs": [
        {
          "internalType": "uint256",
          "name": "",
          "type": "uint256"
        }
      ],
      "name": "depsList",
      "outputs": [
        {
          "internalType": "string",
          "name": "assetType",
          "type": "string"
        },
        {
          "internalType": "string",
          "name": "key",
          "type": "string"
        }
      ],
      "stateMutability": "view",
      "type": "function"
    },
    {
      "inputs": [
        {
          "internalType": "address",
          "name": "_coreDepStorage",
          "type": "address"
        },
        {
          "internalType": "address",
          "name": "_assetStorage",
          "type": "address"
        },
        {
          "internalType": "string[2][]",
          "name": "_deps",
          "type": "string[2][]"
        },
        {
          "internalType": "string[2][]",
          "name": "_assets",
          "type": "string[2][]"
        },
        {
          "internalType": "uint256[4][]",
          "name": "_renderIndex",
          "type": "uint256[4][]"
        }
      ],
      "name": "init",
      "outputs": [],
      "stateMutability": "nonpayable",
      "type": "function"
    },
    {
      "inputs": [
        {
          "internalType": "uint256",
          "name": "",
          "type": "uint256"
        },
        {
          "internalType": "uint256",
          "name": "",
          "type": "uint256"
        }
      ],
      "name": "renderIndex",
      "outputs": [
        {
          "internalType": "uint256",
          "name": "",
          "type": "uint256"
        }
      ],
      "stateMutability": "view",
      "type": "function"
    },
    {
      "inputs": [
        {
          "internalType": "uint256",
          "name": "_rpage",
          "type": "uint256"
        }
      ],
      "name": "renderPage",
      "outputs": [
        {
          "internalType": "string",
          "name": "",
          "type": "string"
        }
      ],
      "stateMutability": "view",
      "type": "function"
    },
    {
      "inputs": [],
      "name": "renderPagesCount",
      "outputs": [
        {
          "internalType": "uint256",
          "name": "",
          "type": "uint256"
        }
      ],
      "stateMutability": "view",
      "type": "function"
    },
    {
      "inputs": [
        {
          "internalType": "contract FrameDataStore",
          "name": "_storage",
          "type": "address"
        }
      ],
      "name": "setAssetStorage",
      "outputs": [],
      "stateMutability": "nonpayable",
      "type": "function"
    },
    {
      "inputs": [
        {
          "internalType": "string[2][]",
          "name": "_assets",
          "type": "string[2][]"
        }
      ],
      "name": "setAssets",
      "outputs": [],
      "stateMutability": "nonpayable",
      "type": "function"
    },
    {
      "inputs": [
        {
          "internalType": "contract FrameDataStore",
          "name": "_storage",
          "type": "address"
        }
      ],
      "name": "setCoreDepStorage",
      "outputs": [],
      "stateMutability": "nonpayable",
      "type": "function"
    },
    {
      "inputs": [
        {
          "internalType": "string[2][]",
          "name": "_deps",
          "type": "string[2][]"
        }
      ],
      "name": "setDeps",
      "outputs": [],
      "stateMutability": "nonpayable",
      "type": "function"
    },
    {
      "inputs": [
        {
          "internalType": "uint256[4][]",
          "name": "_index",
          "type": "uint256[4][]"
        }
      ],
      "name": "setRenderIndex",
      "outputs": [],
      "stateMutability": "nonpayable",
      "type": "function"
    }
  ],
  "bytecode": "0x608060405234801561001057600080fd5b50611ff4806100206000396000f3fe608060405234801561001057600080fd5b50600436106100ea5760003560e01c8063703705131161008c578063a0b4b30111610066578063a0b4b30114610235578063b5d40c0514610266578063cdb53ac114610297578063dc133575146102b5576100ea565b806370370513146101b95780637556d1b9146101e957806380536f6314610219576100ea565b8063292eabde116100c8578063292eabde146101455780634cb139a6146101615780634f5ea5cc1461017f5780636bd408051461019b576100ea565b806311bf85ce146100ef5780631b68226f1461010b57806327d98df314610129575b600080fd5b61010960048036038101906101049190611459565b6102d1565b005b610113610314565b604051610120919061149f565b60405180910390f35b610143600480360381019061013e9190611459565b61031a565b005b61015f600480360381019061015a919061151f565b61035e565b005b6101696103e1565b60405161017691906115cb565b60405180910390f35b61019960048036038101906101949190611668565b610407565b005b6101a3610441565b6040516101b0919061149f565b60405180910390f35b6101d360048036038101906101ce9190611770565b610447565b6040516101e0919061149f565b60405180910390f35b61020360048036038101906101fe91906117b0565b61046f565b6040516102109190611876565b60405180910390f35b610233600480360381019061022e9190611898565b610d10565b005b61024f600480360381019061024a91906117b0565b610ec7565b60405161025d9291906118e5565b60405180910390f35b610280600480360381019061027b91906117b0565b610ffb565b60405161028e9291906118e5565b60405180910390f35b61029f61112f565b6040516102ac91906115cb565b60405180910390f35b6102cf60048036038101906102ca9190611898565b611153565b005b806000806101000a81548173ffffffffffffffffffffffffffffffffffffffff021916908373ffffffffffffffffffffffffffffffffffffffff16021790555050565b60035481565b80600160006101000a81548173ffffffffffffffffffffffffffffffffffffffff021916908373ffffffffffffffffffffffffffffffffffffffff16021790555050565b60005b828290508110156103d2576005600081548092919061037f9061194b565b919050555082828281811061039757610396611994565b5b905060800201600660008381526020019081526020016000209060046103be9291906112f2565b5080806103ca9061194b565b915050610361565b50818190506005819055505050565b600160009054906101000a900473ffffffffffffffffffffffffffffffffffffffff1681565b610410886102d1565b6104198761031a565b6104238686610d10565b61042d8484611153565b610437828261035e565b5050505050505050565b60055481565b6006602052816000526040600020816004811061046357600080fd5b01600091509150505481565b60606000600660008481526020019081526020016000206004806020026040519081016040528092919082600480156104bd576020028201915b8154815260200190600101908083116104a9575b505050505090506000816000600481106104da576104d9611994565b5b602002015190506000826001600481106104f7576104f6611994565b5b6020020151905060008360026004811061051457610513611994565b5b6020020151905060008460036004811061053157610530611994565b5b60200201519050600060405180602001604052806000815250905060008590505b60018561055f91906119c3565b811015610b4d57600060035460018361057891906119c3565b111590506000816105ab57600160009054906101000a900473ffffffffffffffffffffffffffffffffffffffff166105cd565b60008054906101000a900473ffffffffffffffffffffffffffffffffffffffff165b90506000826105ee5760046000858152602001908152602001600020610602565b600260008581526020019081526020016000205b60405180604001604052908160008201805461061d90611a48565b80601f016020809104026020016040519081016040528092919081815260200182805461064990611a48565b80156106965780601f1061066b57610100808354040283529160200191610696565b820191906000526020600020905b81548152906001019060200180831161067957829003601f168201915b505050505081526020016001820180546106af90611a48565b80601f01602080910402602001604051908101604052809291908181526020018280546106db90611a48565b80156107285780601f106106fd57610100808354040283529160200191610728565b820191906000526020600020905b81548152906001019060200180831161070b57829003601f168201915b50505050508152505090506000898514610743576000610745565b875b905060008986146107d3578373ffffffffffffffffffffffffffffffffffffffff1663d431a42f84602001516040518263ffffffff1660e01b815260040161078d9190611876565b602060405180830381865afa1580156107aa573d6000803e3d6000fd5b505050506040513d601f19601f820116820180604052508101906107ce9190611a8f565b6107d5565b875b905060008214156108cb578660008054906101000a900473ffffffffffffffffffffffffffffffffffffffff1673ffffffffffffffffffffffffffffffffffffffff166311aa4cba85600001516040516020016108329190611b1e565b6040516020818303038152906040526000806040518463ffffffff1660e01b815260040161086293929190611b7f565b600060405180830381865afa15801561087f573d6000803e3d6000fd5b505050506040513d6000823e3d601f19601f820116820180604052508101906108a89190611cde565b6040516020016108b9929190611d27565b60405160208183030381529060405296505b8660008054906101000a900473ffffffffffffffffffffffffffffffffffffffff1673ffffffffffffffffffffffffffffffffffffffff166311aa4cba856020015185856040518463ffffffff1660e01b815260040161092d93929190611d4b565b600060405180830381865afa15801561094a573d6000803e3d6000fd5b505050506040513d6000823e3d601f19601f820116820180604052508101906109739190611cde565b6040516020016109839190611dd0565b6040516020818303038152906040526040516020016109a3929190611d27565b604051602081830303815290604052965060008a87148015610a4257508473ffffffffffffffffffffffffffffffffffffffff1663d431a42f85602001516040518263ffffffff1660e01b81526004016109fd9190611876565b602060405180830381865afa158015610a1a573d6000803e3d6000fd5b505050506040513d601f19601f82011682018060405250810190610a3e9190611a8f565b8914155b905080610b34578760008054906101000a900473ffffffffffffffffffffffffffffffffffffffff1673ffffffffffffffffffffffffffffffffffffffff166311aa4cba8660000151604051602001610a9b9190611b1e565b6040516020818303038152906040526001806040518463ffffffff1660e01b8152600401610acb93929190611e22565b600060405180830381865afa158015610ae8573d6000803e3d6000fd5b505050506040513d6000823e3d601f19601f82011682018060405250810190610b119190611cde565b604051602001610b22929190611d27565b60405160208183030381529060405297505b5050505050508080610b459061194b565b915050610552565b506000881415610c275760008054906101000a900473ffffffffffffffffffffffffffffffffffffffff1673ffffffffffffffffffffffffffffffffffffffff166311aa4cba6000806040518363ffffffff1660e01b8152600401610bb3929190611eac565b600060405180830381865afa158015610bd0573d6000803e3d6000fd5b505050506040513d6000823e3d601f19601f82011682018060405250810190610bf99190611cde565b81604051602001610c0b929190611d27565b6040516020818303038152906040529650505050505050610d0b565b600554881415610d01578060008054906101000a900473ffffffffffffffffffffffffffffffffffffffff1673ffffffffffffffffffffffffffffffffffffffff166311aa4cba6001806040518363ffffffff1660e01b8152600401610c8e929190611ee8565b600060405180830381865afa158015610cab573d6000803e3d6000fd5b505050506040513d6000823e3d601f19601f82011682018060405250810190610cd49190611cde565b604051602001610ce5929190611d27565b6040516020818303038152906040529650505050505050610d0b565b8096505050505050505b919050565b60005b82829050811015610ec2576040518060400160405280848484818110610d3c57610d3b611994565b5b9050602002810190610d4e9190611f33565b600060028110610d6157610d60611994565b5b602002810190610d719190611f5b565b8080601f016020809104026020016040519081016040528093929190818152602001838380828437600081840152601f19601f820116905080830192505050505050508152602001848484818110610dcc57610dcb611994565b5b9050602002810190610dde9190611f33565b600160028110610df157610df0611994565b5b602002810190610e019190611f5b565b8080601f016020809104026020016040519081016040528093929190818152602001838380828437600081840152601f19601f82011690508083019250505050505050815250600260008381526020019081526020016000206000820151816000019080519060200190610e76929190611332565b506020820151816001019080519060200190610e93929190611332565b5090505060036000815480929190610eaa9061194b565b91905055508080610eba9061194b565b915050610d13565b505050565b6004602052806000526040600020600091509050806000018054610eea90611a48565b80601f0160208091040260200160405190810160405280929190818152602001828054610f1690611a48565b8015610f635780601f10610f3857610100808354040283529160200191610f63565b820191906000526020600020905b815481529060010190602001808311610f4657829003601f168201915b505050505090806001018054610f7890611a48565b80601f0160208091040260200160405190810160405280929190818152602001828054610fa490611a48565b8015610ff15780601f10610fc657610100808354040283529160200191610ff1565b820191906000526020600020905b815481529060010190602001808311610fd457829003601f168201915b5050505050905082565b600260205280600052604060002060009150905080600001805461101e90611a48565b80601f016020809104026020016040519081016040528092919081815260200182805461104a90611a48565b80156110975780601f1061106c57610100808354040283529160200191611097565b820191906000526020600020905b81548152906001019060200180831161107a57829003601f168201915b5050505050908060010180546110ac90611a48565b80601f01602080910402602001604051908101604052809291908181526020018280546110d890611a48565b80156111255780601f106110fa57610100808354040283529160200191611125565b820191906000526020600020905b81548152906001019060200180831161110857829003601f168201915b5050505050905082565b60008054906101000a900473ffffffffffffffffffffffffffffffffffffffff1681565b60005b828290508110156112ed57604051806040016040528084848481811061117f5761117e611994565b5b90506020028101906111919190611f33565b6000600281106111a4576111a3611994565b5b6020028101906111b49190611f5b565b8080601f016020809104026020016040519081016040528093929190818152602001838380828437600081840152601f19601f82011690508083019250505050505050815260200184848481811061120f5761120e611994565b5b90506020028101906112219190611f33565b60016002811061123457611233611994565b5b6020028101906112449190611f5b565b8080601f016020809104026020016040519081016040528093929190818152602001838380828437600081840152601f19601f820116905080830192505050505050508152506004600083815260200190815260200160002060008201518160000190805190602001906112b9929190611332565b5060208201518160010190805190602001906112d6929190611332565b5090505080806112e59061194b565b915050611156565b505050565b8260048101928215611321579160200282015b82811115611320578235825591602001919060010190611305565b5b50905061132e91906113b8565b5090565b82805461133e90611a48565b90600052602060002090601f01602090048101928261136057600085556113a7565b82601f1061137957805160ff19168380011785556113a7565b828001600101855582156113a7579182015b828111156113a657825182559160200191906001019061138b565b5b5090506113b491906113b8565b5090565b5b808211156113d15760008160009055506001016113b9565b5090565b6000604051905090565b600080fd5b600080fd5b600073ffffffffffffffffffffffffffffffffffffffff82169050919050565b6000611414826113e9565b9050919050565b600061142682611409565b9050919050565b6114368161141b565b811461144157600080fd5b50565b6000813590506114538161142d565b92915050565b60006020828403121561146f5761146e6113df565b5b600061147d84828501611444565b91505092915050565b6000819050919050565b61149981611486565b82525050565b60006020820190506114b46000830184611490565b92915050565b600080fd5b600080fd5b600080fd5b60008083601f8401126114df576114de6114ba565b5b8235905067ffffffffffffffff8111156114fc576114fb6114bf565b5b602083019150836080820283011115611518576115176114c4565b5b9250929050565b60008060208385031215611536576115356113df565b5b600083013567ffffffffffffffff811115611554576115536113e4565b5b611560858286016114c9565b92509250509250929050565b6000819050919050565b600061159161158c611587846113e9565b61156c565b6113e9565b9050919050565b60006115a382611576565b9050919050565b60006115b582611598565b9050919050565b6115c5816115aa565b82525050565b60006020820190506115e060008301846115bc565b92915050565b6115ef81611409565b81146115fa57600080fd5b50565b60008135905061160c816115e6565b92915050565b60008083601f840112611628576116276114ba565b5b8235905067ffffffffffffffff811115611645576116446114bf565b5b602083019150836020820283011115611661576116606114c4565b5b9250929050565b60008060008060008060008060a0898b031215611688576116876113df565b5b60006116968b828c016115fd565b98505060206116a78b828c016115fd565b975050604089013567ffffffffffffffff8111156116c8576116c76113e4565b5b6116d48b828c01611612565b9650965050606089013567ffffffffffffffff8111156116f7576116f66113e4565b5b6117038b828c01611612565b9450945050608089013567ffffffffffffffff811115611726576117256113e4565b5b6117328b828c016114c9565b92509250509295985092959890939650565b61174d81611486565b811461175857600080fd5b50565b60008135905061176a81611744565b92915050565b60008060408385031215611787576117866113df565b5b60006117958582860161175b565b92505060206117a68582860161175b565b9150509250929050565b6000602082840312156117c6576117c56113df565b5b60006117d48482850161175b565b91505092915050565b600081519050919050565b600082825260208201905092915050565b60005b838110156118175780820151818401526020810190506117fc565b83811115611826576000848401525b50505050565b6000601f19601f8301169050919050565b6000611848826117dd565b61185281856117e8565b93506118628185602086016117f9565b61186b8161182c565b840191505092915050565b60006020820190508181036000830152611890818461183d565b905092915050565b600080602083850312156118af576118ae6113df565b5b600083013567ffffffffffffffff8111156118cd576118cc6113e4565b5b6118d985828601611612565b92509250509250929050565b600060408201905081810360008301526118ff818561183d565b90508181036020830152611913818461183d565b90509392505050565b7f4e487b7100000000000000000000000000000000000000000000000000000000600052601160045260246000fd5b600061195682611486565b91507fffffffffffffffffffffffffffffffffffffffffffffffffffffffffffffffff8214156119895761198861191c565b5b600182019050919050565b7f4e487b7100000000000000000000000000000000000000000000000000000000600052603260045260246000fd5b60006119ce82611486565b91506119d983611486565b9250827fffffffffffffffffffffffffffffffffffffffffffffffffffffffffffffffff03821115611a0e57611a0d61191c565b5b828201905092915050565b7f4e487b7100000000000000000000000000000000000000000000000000000000600052602260045260246000fd5b60006002820490506001821680611a6057607f821691505b60208210811415611a7457611a73611a19565b5b50919050565b600081519050611a8981611744565b92915050565b600060208284031215611aa557611aa46113df565b5b6000611ab384828501611a7a565b91505092915050565b600081905092915050565b6000611ad2826117dd565b611adc8185611abc565b9350611aec8185602086016117f9565b80840191505092915050565b7f5772617070657200000000000000000000000000000000000000000000000000815250565b6000611b2a8284611ac7565b9150611b3582611af8565b60078201915081905092915050565b6000819050919050565b6000611b69611b64611b5f84611b44565b61156c565b611486565b9050919050565b611b7981611b4e565b82525050565b60006060820190508181036000830152611b99818661183d565b9050611ba86020830185611b70565b611bb56040830184611b70565b949350505050565b600080fd5b7f4e487b7100000000000000000000000000000000000000000000000000000000600052604160045260246000fd5b611bfa8261182c565b810181811067ffffffffffffffff82111715611c1957611c18611bc2565b5b80604052505050565b6000611c2c6113d5565b9050611c388282611bf1565b919050565b600067ffffffffffffffff821115611c5857611c57611bc2565b5b611c618261182c565b9050602081019050919050565b6000611c81611c7c84611c3d565b611c22565b905082815260208101848484011115611c9d57611c9c611bbd565b5b611ca88482856117f9565b509392505050565b600082601f830112611cc557611cc46114ba565b5b8151611cd5848260208601611c6e565b91505092915050565b600060208284031215611cf457611cf36113df565b5b600082015167ffffffffffffffff811115611d1257611d116113e4565b5b611d1e84828501611cb0565b91505092915050565b6000611d338285611ac7565b9150611d3f8284611ac7565b91508190509392505050565b60006060820190508181036000830152611d65818661183d565b9050611d746020830185611490565b611d816040830184611490565b949350505050565b600081519050919050565b600081905092915050565b6000611daa82611d89565b611db48185611d94565b9350611dc48185602086016117f9565b80840191505092915050565b6000611ddc8284611d9f565b915081905092915050565b6000819050919050565b6000611e0c611e07611e0284611de7565b61156c565b611486565b9050919050565b611e1c81611df1565b82525050565b60006060820190508181036000830152611e3c818661183d565b9050611e4b6020830185611e13565b611e586040830184611e13565b949350505050565b7f72656e6465725772617070657200000000000000000000000000000000000000600082015250565b6000611e96600d836117e8565b9150611ea182611e60565b602082019050919050565b60006060820190508181036000830152611ec581611e89565b9050611ed46020830185611b70565b611ee16040830184611b70565b9392505050565b60006060820190508181036000830152611f0181611e89565b9050611f106020830185611e13565b611f1d6040830184611e13565b9392505050565b600080fd5b600080fd5b600080fd5b600082356001604003833603038112611f4f57611f4e611f24565b5b80830191505092915050565b60008083356001602003843603038112611f7857611f77611f24565b5b80840192508235915067ffffffffffffffff821115611f9a57611f99611f29565b5b602083019250600182023603831315611fb657611fb5611f2e565b5b50925092905056fea2646970667358221220f7efefa28d7e288e6d46cf6396e5955052ee97d6351f6c68b5741164db29228764736f6c634300080c0033",
  "linkReferences": {},
  "deployedLinkReferences": {}
}