{
  "_format": "hh-sol-artifact-1",
  "contractName": "Frame",
  "sourceName": "src/services/chain-sim/contracts/Frame.sol",
  "abi": [
    {
      "inputs": [],
      "stateMutability": "nonpayable",
      "type": "constructor"
    },
    {
      "inputs": [
        {
          "internalType": "uint256",
          "name": "",
          "type": "uint256"
        }
      ],
      "name": "assetList",
      "outputs": [
        {
          "internalType": "string",
          "name": "wrapperKey",
          "type": "string"
        },
        {
          "internalType": "string",
          "name": "key",
          "type": "string"
        }
      ],
      "stateMutability": "view",
      "type": "function"
    },
    {
      "inputs": [],
      "name": "assetStorage",
      "outputs": [
        {
          "internalType": "contract FrameDataStore",
          "name": "",
          "type": "address"
        }
      ],
      "stateMutability": "view",
      "type": "function"
    },
    {
      "inputs": [],
      "name": "assetsCount",
      "outputs": [
        {
          "internalType": "uint256",
          "name": "",
          "type": "uint256"
        }
      ],
      "stateMutability": "view",
      "type": "function"
    },
    {
      "inputs": [
        {
          "internalType": "uint256",
          "name": "",
          "type": "uint256"
        }
      ],
      "name": "bodyWrapper",
      "outputs": [
        {
          "internalType": "string",
          "name": "",
          "type": "string"
        }
      ],
      "stateMutability": "view",
      "type": "function"
    },
    {
      "inputs": [],
      "name": "coreDepStorage",
      "outputs": [
        {
          "internalType": "contract FrameDataStore",
          "name": "",
          "type": "address"
        }
      ],
      "stateMutability": "view",
      "type": "function"
    },
    {
      "inputs": [],
      "name": "depsCount",
      "outputs": [
        {
          "internalType": "uint256",
          "name": "",
          "type": "uint256"
        }
      ],
      "stateMutability": "view",
      "type": "function"
    },
    {
      "inputs": [
        {
          "internalType": "uint256",
          "name": "",
          "type": "uint256"
        }
      ],
      "name": "depsList",
      "outputs": [
        {
          "internalType": "string",
          "name": "wrapperKey",
          "type": "string"
        },
        {
          "internalType": "string",
          "name": "key",
          "type": "string"
        }
      ],
      "stateMutability": "view",
      "type": "function"
    },
    {
      "inputs": [
        {
          "internalType": "uint256",
          "name": "",
          "type": "uint256"
        }
      ],
      "name": "headWrapper",
      "outputs": [
        {
          "internalType": "string",
          "name": "",
          "type": "string"
        }
      ],
      "stateMutability": "view",
      "type": "function"
    },
    {
      "inputs": [
        {
          "internalType": "uint256",
          "name": "",
          "type": "uint256"
        }
      ],
      "name": "htmlWrapper",
      "outputs": [
        {
          "internalType": "string",
          "name": "",
          "type": "string"
        }
      ],
      "stateMutability": "view",
      "type": "function"
    },
    {
      "inputs": [
        {
          "internalType": "uint256",
          "name": "",
          "type": "uint256"
        }
      ],
      "name": "importMapWrapper",
      "outputs": [
        {
          "internalType": "string",
          "name": "",
          "type": "string"
        }
      ],
      "stateMutability": "view",
      "type": "function"
    },
    {
      "inputs": [
        {
          "internalType": "address",
          "name": "_coreDepStorage",
          "type": "address"
        },
        {
          "internalType": "address",
          "name": "_assetStorage",
          "type": "address"
        },
        {
          "internalType": "string[2][]",
          "name": "_deps",
          "type": "string[2][]"
        },
        {
          "internalType": "string[2][]",
          "name": "_assets",
          "type": "string[2][]"
        },
        {
          "internalType": "uint256[4][]",
          "name": "_renderIndex",
          "type": "uint256[4][]"
        }
      ],
      "name": "init",
      "outputs": [],
      "stateMutability": "nonpayable",
      "type": "function"
    },
    {
      "inputs": [],
      "name": "initSuccess",
      "outputs": [
        {
          "internalType": "bool",
          "name": "",
          "type": "bool"
        }
      ],
      "stateMutability": "view",
      "type": "function"
    },
    {
      "inputs": [
        {
          "internalType": "uint256",
          "name": "",
          "type": "uint256"
        }
      ],
      "name": "libKeysWrapper",
      "outputs": [
        {
          "internalType": "string",
          "name": "",
          "type": "string"
        }
      ],
      "stateMutability": "view",
      "type": "function"
    },
    {
      "inputs": [],
      "name": "name",
      "outputs": [
        {
          "internalType": "string",
          "name": "",
          "type": "string"
        }
      ],
      "stateMutability": "view",
      "type": "function"
    },
    {
      "inputs": [
        {
          "internalType": "uint256",
          "name": "",
          "type": "uint256"
        },
        {
          "internalType": "uint256",
          "name": "",
          "type": "uint256"
        }
      ],
      "name": "renderIndex",
      "outputs": [
        {
          "internalType": "uint256",
          "name": "",
          "type": "uint256"
        }
      ],
      "stateMutability": "view",
      "type": "function"
    },
    {
      "inputs": [
        {
          "internalType": "uint256",
          "name": "_rpage",
          "type": "uint256"
        }
      ],
      "name": "renderPage",
      "outputs": [
        {
          "internalType": "string",
          "name": "",
          "type": "string"
        }
      ],
      "stateMutability": "view",
      "type": "function"
    },
    {
      "inputs": [],
      "name": "renderPagesCount",
      "outputs": [
        {
          "internalType": "uint256",
          "name": "",
          "type": "uint256"
        }
      ],
      "stateMutability": "view",
      "type": "function"
    },
    {
      "inputs": [
        {
          "internalType": "string",
          "name": "_name",
          "type": "string"
        }
      ],
      "name": "setName",
      "outputs": [],
      "stateMutability": "nonpayable",
      "type": "function"
    }
  ],
  "bytecode": "0x608060405260405180602001604052806000815250600090805190602001906200002b929190620002e4565b506000600160006101000a81548160ff02191690831515021790555060405180604001604052806040518060400160405280601581526020017f3c21444f43545950452068746d6c3e3c68746d6c3e000000000000000000000081525081526020016040518060400160405280600781526020017f3c2f68746d6c3e000000000000000000000000000000000000000000000000008152508152506009906002620000d892919062000375565b5060405180604001604052806040518060a0016040528060698152602001620031066069913981526020016040518060400160405280601081526020017f3c2f7363726970743e3c2f686561643e00000000000000000000000000000000815250815250600b9060026200014e92919062000375565b5060405180604001604052806040518060400160405280601a81526020017f3c626f6479207374796c653d226d617267696e3a20307078223e00000000000081525081526020016040518060400160405280600781526020017f3c2f626f64793e00000000000000000000000000000000000000000000000000815250815250600d906002620001e092919062000375565b5060405180604001604052806040518060400160405280600b81526020017f636f6e737420666b733d5b00000000000000000000000000000000000000000081525081526020016040518060600160405280603e8152602001620032ae603e9139815250600f9060026200025692919062000375565b5060405180604001604052806040518060400160405280600f81526020017f6c6574206964617461203d205b5d3b0000000000000000000000000000000000815250815260200160405180610160016040528061013f81526020016200316f61013f91398152506011906002620002cf92919062000375565b50348015620002dd57600080fd5b50620004c1565b828054620002f2906200048b565b90600052602060002090601f01602090048101928262000316576000855562000362565b82601f106200033157805160ff191683800117855562000362565b8280016001018555821562000362579182015b828111156200036157825182559160200191906001019062000344565b5b509050620003719190620003cf565b5090565b8260028101928215620003bc579160200282015b82811115620003bb578251829080519060200190620003aa929190620002e4565b509160200191906001019062000389565b5b509050620003cb9190620003ee565b5090565b5b80821115620003ea576000816000905550600101620003d0565b5090565b5b8082111562000412576000818162000408919062000416565b50600101620003ef565b5090565b50805462000424906200048b565b6000825580601f1062000438575062000459565b601f016020900490600052602060002090810190620004589190620003cf565b5b50565b7f4e487b7100000000000000000000000000000000000000000000000000000000600052602260045260246000fd5b60006002820490506001821680620004a457607f821691505b60208210811415620004bb57620004ba6200045c565b5b50919050565b612c3580620004d16000396000f3fe608060405234801561001057600080fd5b50600436106101165760003560e01c8063a0b4b301116100a2578063b5d40c0511610071578063b5d40c051461031e578063c47f00271461034f578063cd9df1901461036b578063cdb53ac114610389578063fe347b31146103a757610116565b8063a0b4b3011461025d578063a51204f81461028e578063ae275e40146102be578063afd86d7a146102ee57610116565b80636bd40805116100e95780636bd408051461019157806370370513146101af5780637556d1b9146101df5780637a4159c01461020f578063827fbc2b1461023f57610116565b806306fdde031461011b5780631b68226f146101395780634cb139a6146101575780634f5ea5cc14610175575b600080fd5b6101236103d7565b6040516101309190611ec8565b60405180910390f35b610141610465565b60405161014e9190611f03565b60405180910390f35b61015f61046b565b60405161016c9190611f9d565b60405180910390f35b61018f600480360381019061018a91906120c5565b610491565b005b610199610535565b6040516101a69190611f03565b60405180910390f35b6101c960048036038101906101c491906121cd565b61053b565b6040516101d69190611f03565b60405180910390f35b6101f960048036038101906101f4919061220d565b610563565b6040516102069190611ec8565b60405180910390f35b6102296004803603810190610224919061220d565b611173565b6040516102369190611ec8565b60405180910390f35b610247611216565b6040516102549190612255565b60405180910390f35b6102776004803603810190610272919061220d565b611229565b604051610285929190612270565b60405180910390f35b6102a860048036038101906102a3919061220d565b61135d565b6040516102b59190611ec8565b60405180910390f35b6102d860048036038101906102d3919061220d565b611400565b6040516102e59190611ec8565b60405180910390f35b6103086004803603810190610303919061220d565b6114a3565b6040516103159190611ec8565b60405180910390f35b6103386004803603810190610333919061220d565b611546565b604051610346929190612270565b60405180910390f35b610369600480360381019061036491906123d7565b61167a565b005b6103736116e5565b6040516103809190611f03565b60405180910390f35b6103916116eb565b60405161039e9190611f9d565b60405180910390f35b6103c160048036038101906103bc919061220d565b61170f565b6040516103ce9190611ec8565b60405180910390f35b600080546103e49061244f565b80601f01602080910402602001604051908101604052809291908181526020018280546104109061244f565b801561045d5780601f106104325761010080835404028352916020019161045d565b820191906000526020600020905b81548152906001019060200180831161044057829003601f168201915b505050505081565b60045481565b600260009054906101000a900473ffffffffffffffffffffffffffffffffffffffff1681565b600160009054906101000a900460ff16156104e1576040517f08c379a00000000000000000000000000000000000000000000000000000000081526004016104d8906124cd565b60405180910390fd5b6104ea886117b2565b6104f3876117f5565b6104fd8686611839565b61050784846119f0565b6105118282611ba7565b60018060006101000a81548160ff0219169083151502179055505050505050505050565b60075481565b6008602052816000526040600020816004811061055757600080fd5b01600091509150505481565b60606000600860008481526020019081526020016000206004806020026040519081016040528092919082600480156105b1576020028201915b81548152602001906001019080831161059d575b505050505090506000816000600481106105ce576105cd6124ed565b5b602002015190506000826001600481106105eb576105ea6124ed565b5b60200201519050600083600260048110610608576106076124ed565b5b60200201519050600084600360048110610625576106246124ed565b5b60200201519050600060405180602001604052806000815250905060008590505b84811161106557600060045460018361065f919061254b565b1115905060008161067d576004548361067891906125a1565b61067f565b825b90506000826106b057600260009054906101000a900473ffffffffffffffffffffffffffffffffffffffff166106d2565b60018054906101000a900473ffffffffffffffffffffffffffffffffffffffff165b90506000836106f35760056000848152602001908152602001600020610707565b600360008681526020019081526020016000205b6040518060400160405290816000820180546107229061244f565b80601f016020809104026020016040519081016040528092919081815260200182805461074e9061244f565b801561079b5780601f106107705761010080835404028352916020019161079b565b820191906000526020600020905b81548152906001019060200180831161077e57829003601f168201915b505050505081526020016001820180546107b49061244f565b80601f01602080910402602001604051908101604052809291908181526020018280546107e09061244f565b801561082d5780601f106108025761010080835404028352916020019161082d565b820191906000526020600020905b81548152906001019060200180831161081057829003601f168201915b50505050508152505090506000898614905060008b871461084f576000610851565b895b90506000826108dd578473ffffffffffffffffffffffffffffffffffffffff1663d431a42f85602001516040518263ffffffff1660e01b81526004016108979190611ec8565b602060405180830381865afa1580156108b4573d6000803e3d6000fd5b505050506040513d601f19601f820116820180604052508101906108d891906125ea565b6108df565b895b905060008214156109d5578860018054906101000a900473ffffffffffffffffffffffffffffffffffffffff1673ffffffffffffffffffffffffffffffffffffffff166311aa4cba86600001516000806040518463ffffffff1660e01b815260040161094d93929190612652565b600060405180830381865afa15801561096a573d6000803e3d6000fd5b505050506040513d6000823e3d601f19601f820116820180604052508101906109939190612731565b6040516020016109a391906127c1565b6040516020818303038152906040526040516020016109c3929190612814565b60405160208183030381529060405298505b888573ffffffffffffffffffffffffffffffffffffffff166311aa4cba866020015185856040518463ffffffff1660e01b8152600401610a1793929190612838565b600060405180830381865afa158015610a34573d6000803e3d6000fd5b505050506040513d6000823e3d601f19601f82011682018060405250810190610a5d9190612731565b604051602001610a6d91906127c1565b604051602081830303815290604052604051602001610a8d929190612814565b604051602081830303815290604052985060008573ffffffffffffffffffffffffffffffffffffffff1663d431a42f86602001516040518263ffffffff1660e01b8152600401610add9190611ec8565b602060405180830381865afa158015610afa573d6000803e3d6000fd5b505050506040513d601f19601f82011682018060405250810190610b1e91906125ea565b8b1490506000888015610b3e57506001600454610b3b91906125a1565b8a145b90506000610b856040518060400160405280600b81526020017f6672616d652d7574696c730000000000000000000000000000000000000000008152508860200151611c2a565b90508215611048578b60018054906101000a900473ffffffffffffffffffffffffffffffffffffffff1673ffffffffffffffffffffffffffffffffffffffff166311aa4cba89600001516001806040518463ffffffff1660e01b8152600401610bf0939291906128b1565b600060405180830381865afa158015610c0d573d6000803e3d6000fd5b505050506040513d6000823e3d601f19601f82011682018060405250810190610c369190612731565b604051602001610c4691906127c1565b604051602081830303815290604052604051602001610c66929190612814565b6040516020818303038152906040529b50808015610c82575081155b8015610d735750610d726040518060400160405280600981526020017f696d706f72746d617000000000000000000000000000000000000000000000008152506003600060018f610cd3919061254b565b81526020019081526020016000206000018054610cef9061244f565b80601f0160208091040260200160405190810160405280929190818152602001828054610d1b9061244f565b8015610d685780601f10610d3d57610100808354040283529160200191610d68565b820191906000526020600020905b815481529060010190602001808311610d4b57829003601f168201915b5050505050611c2a565b5b15610f1c576000600f600060028110610d8f57610d8e6124ed565b5b018054610d9b9061244f565b80601f0160208091040260200160405190810160405280929190818152602001828054610dc79061244f565b8015610e145780601f10610de957610100808354040283529160200191610e14565b820191906000526020600020905b815481529060010190602001808311610df757829003601f168201915b5050505050905060005b600454811015610eaa5760036000828152602001908152602001600020600101604051602001610e4e91906129a9565b60405160208183030381529060405291506001600454610e6e91906125a1565b8114610e975781604051602001610e859190612a04565b60405160208183030381529060405291505b8080610ea290612a2a565b915050610e1e565b5080600f600160028110610ec157610ec06124ed565b5b016011600060028110610ed757610ed66124ed565b5b01604051602001610ee9929190612a73565b604051602081830303815290604052604051602001610f09929190612814565b6040516020818303038152906040529050505b811561104757610f656040518060400160405280600981526020017f696d706f72746d617000000000000000000000000000000000000000000000008152508860000151611c2a565b15610ff5578b6011600160028110610f8057610f7f6124ed565b5b01600b600160028110610f9657610f956124ed565b5b01604051602001610fa8929190612a73565b604051602081830303815290604052600d600060028110610fcc57610fcb6124ed565b5b01604051602001610fdf93929190612a97565b6040516020818303038152906040529b50611046565b8b600b60016002811061100b5761100a6124ed565b5b01600d600060028110611021576110206124ed565b5b0160405160200161103493929190612ac8565b6040516020818303038152906040529b505b5b5b50505050505050505050808061105d90612a2a565b915050610646565b5060008814156110df576009600060028110611084576110836124ed565b5b01600b60006002811061109a576110996124ed565b5b016040516020016110ac929190612a73565b604051602081830303815290604052816040516020016110cd929190612814565b60405160208183030381529060405290505b60016007546110ee91906125a1565b8814156111655780600d60016002811061110b5761110a6124ed565b5b016009600160028110611121576111206124ed565b5b01604051602001611133929190612a73565b604051602081830303815290604052604051602001611153929190612814565b60405160208183030381529060405290505b809650505050505050919050565b6011816002811061118357600080fd5b0160009150905080546111959061244f565b80601f01602080910402602001604051908101604052809291908181526020018280546111c19061244f565b801561120e5780601f106111e35761010080835404028352916020019161120e565b820191906000526020600020905b8154815290600101906020018083116111f157829003601f168201915b505050505081565b600160009054906101000a900460ff1681565b600560205280600052604060002060009150905080600001805461124c9061244f565b80601f01602080910402602001604051908101604052809291908181526020018280546112789061244f565b80156112c55780601f1061129a576101008083540402835291602001916112c5565b820191906000526020600020905b8154815290600101906020018083116112a857829003601f168201915b5050505050908060010180546112da9061244f565b80601f01602080910402602001604051908101604052809291908181526020018280546113069061244f565b80156113535780601f1061132857610100808354040283529160200191611353565b820191906000526020600020905b81548152906001019060200180831161133657829003601f168201915b5050505050905082565b6009816002811061136d57600080fd5b01600091509050805461137f9061244f565b80601f01602080910402602001604051908101604052809291908181526020018280546113ab9061244f565b80156113f85780601f106113cd576101008083540402835291602001916113f8565b820191906000526020600020905b8154815290600101906020018083116113db57829003601f168201915b505050505081565b600b816002811061141057600080fd5b0160009150905080546114229061244f565b80601f016020809104026020016040519081016040528092919081815260200182805461144e9061244f565b801561149b5780601f106114705761010080835404028352916020019161149b565b820191906000526020600020905b81548152906001019060200180831161147e57829003601f168201915b505050505081565b600f81600281106114b357600080fd5b0160009150905080546114c59061244f565b80601f01602080910402602001604051908101604052809291908181526020018280546114f19061244f565b801561153e5780601f106115135761010080835404028352916020019161153e565b820191906000526020600020905b81548152906001019060200180831161152157829003601f168201915b505050505081565b60036020528060005260406000206000915090508060000180546115699061244f565b80601f01602080910402602001604051908101604052809291908181526020018280546115959061244f565b80156115e25780601f106115b7576101008083540402835291602001916115e2565b820191906000526020600020905b8154815290600101906020018083116115c557829003601f168201915b5050505050908060010180546115f79061244f565b80601f01602080910402602001604051908101604052809291908181526020018280546116239061244f565b80156116705780601f1061164557610100808354040283529160200191611670565b820191906000526020600020905b81548152906001019060200180831161165357829003601f168201915b5050505050905082565b6003600080546116899061244f565b9050106116cb576040517f08c379a00000000000000000000000000000000000000000000000000000000081526004016116c290612b45565b60405180910390fd5b80600090805190602001906116e1929190611d4c565b5050565b60065481565b60018054906101000a900473ffffffffffffffffffffffffffffffffffffffff1681565b600d816002811061171f57600080fd5b0160009150905080546117319061244f565b80601f016020809104026020016040519081016040528092919081815260200182805461175d9061244f565b80156117aa5780601f1061177f576101008083540402835291602001916117aa565b820191906000526020600020905b81548152906001019060200180831161178d57829003601f168201915b505050505081565b806001806101000a81548173ffffffffffffffffffffffffffffffffffffffff021916908373ffffffffffffffffffffffffffffffffffffffff16021790555050565b80600260006101000a81548173ffffffffffffffffffffffffffffffffffffffff021916908373ffffffffffffffffffffffffffffffffffffffff16021790555050565b60005b828290508110156119eb576040518060400160405280848484818110611865576118646124ed565b5b90506020028101906118779190612b74565b60006002811061188a576118896124ed565b5b60200281019061189a9190612b9c565b8080601f016020809104026020016040519081016040528093929190818152602001838380828437600081840152601f19601f8201169050808301925050505050505081526020018484848181106118f5576118f46124ed565b5b90506020028101906119079190612b74565b60016002811061191a576119196124ed565b5b60200281019061192a9190612b9c565b8080601f016020809104026020016040519081016040528093929190818152602001838380828437600081840152601f19601f8201169050808301925050505050505081525060036000838152602001908152602001600020600082015181600001908051906020019061199f929190611d4c565b5060208201518160010190805190602001906119bc929190611d4c565b50905050600460008154809291906119d390612a2a565b919050555080806119e390612a2a565b91505061183c565b505050565b60005b82829050811015611ba2576040518060400160405280848484818110611a1c57611a1b6124ed565b5b9050602002810190611a2e9190612b74565b600060028110611a4157611a406124ed565b5b602002810190611a519190612b9c565b8080601f016020809104026020016040519081016040528093929190818152602001838380828437600081840152601f19601f820116905080830192505050505050508152602001848484818110611aac57611aab6124ed565b5b9050602002810190611abe9190612b74565b600160028110611ad157611ad06124ed565b5b602002810190611ae19190612b9c565b8080601f016020809104026020016040519081016040528093929190818152602001838380828437600081840152601f19601f82011690508083019250505050505050815250600560008381526020019081526020016000206000820151816000019080519060200190611b56929190611d4c565b506020820151816001019080519060200190611b73929190611d4c565b5090505060066000815480929190611b8a90612a2a565b91905055508080611b9a90612a2a565b9150506119f3565b505050565b60005b82829050811015611c1b5760076000815480929190611bc890612a2a565b9190505550828282818110611be057611bdf6124ed565b5b90506080020160086000838152602001908152602001600020906004611c07929190611dd2565b508080611c1390612a2a565b915050611baa565b50818190506007819055505050565b6000808390506000839050815181511015611c4457600080fd5b6000805b83518351611c5691906125a1565b8111611d3f5760006001905060005b8551811015611d1a57858181518110611c8157611c806124ed565b5b602001015160f81c60f81b7effffffffffffffffffffffffffffffffffffffffffffffffffffffffffffff1916858285611cbb919061254b565b81518110611ccc57611ccb6124ed565b5b602001015160f81c60f81b7effffffffffffffffffffffffffffffffffffffffffffffffffffffffffffff191614611d075760009150611d1a565b8080611d1290612a2a565b915050611c65565b508015611d2b576001925050611d3f565b508080611d3790612a2a565b915050611c48565b5080935050505092915050565b828054611d589061244f565b90600052602060002090601f016020900481019282611d7a5760008555611dc1565b82601f10611d9357805160ff1916838001178555611dc1565b82800160010185558215611dc1579182015b82811115611dc0578251825591602001919060010190611da5565b5b509050611dce9190611e12565b5090565b8260048101928215611e01579160200282015b82811115611e00578235825591602001919060010190611de5565b5b509050611e0e9190611e12565b5090565b5b80821115611e2b576000816000905550600101611e13565b5090565b600081519050919050565b600082825260208201905092915050565b60005b83811015611e69578082015181840152602081019050611e4e565b83811115611e78576000848401525b50505050565b6000601f19601f8301169050919050565b6000611e9a82611e2f565b611ea48185611e3a565b9350611eb4818560208601611e4b565b611ebd81611e7e565b840191505092915050565b60006020820190508181036000830152611ee28184611e8f565b905092915050565b6000819050919050565b611efd81611eea565b82525050565b6000602082019050611f186000830184611ef4565b92915050565b600073ffffffffffffffffffffffffffffffffffffffff82169050919050565b6000819050919050565b6000611f63611f5e611f5984611f1e565b611f3e565b611f1e565b9050919050565b6000611f7582611f48565b9050919050565b6000611f8782611f6a565b9050919050565b611f9781611f7c565b82525050565b6000602082019050611fb26000830184611f8e565b92915050565b6000604051905090565b600080fd5b600080fd5b6000611fd782611f1e565b9050919050565b611fe781611fcc565b8114611ff257600080fd5b50565b60008135905061200481611fde565b92915050565b600080fd5b600080fd5b600080fd5b60008083601f84011261202f5761202e61200a565b5b8235905067ffffffffffffffff81111561204c5761204b61200f565b5b60208301915083602082028301111561206857612067612014565b5b9250929050565b60008083601f8401126120855761208461200a565b5b8235905067ffffffffffffffff8111156120a2576120a161200f565b5b6020830191508360808202830111156120be576120bd612014565b5b9250929050565b60008060008060008060008060a0898b0312156120e5576120e4611fc2565b5b60006120f38b828c01611ff5565b98505060206121048b828c01611ff5565b975050604089013567ffffffffffffffff81111561212557612124611fc7565b5b6121318b828c01612019565b9650965050606089013567ffffffffffffffff81111561215457612153611fc7565b5b6121608b828c01612019565b9450945050608089013567ffffffffffffffff81111561218357612182611fc7565b5b61218f8b828c0161206f565b92509250509295985092959890939650565b6121aa81611eea565b81146121b557600080fd5b50565b6000813590506121c7816121a1565b92915050565b600080604083850312156121e4576121e3611fc2565b5b60006121f2858286016121b8565b9250506020612203858286016121b8565b9150509250929050565b60006020828403121561222357612222611fc2565b5b6000612231848285016121b8565b91505092915050565b60008115159050919050565b61224f8161223a565b82525050565b600060208201905061226a6000830184612246565b92915050565b6000604082019050818103600083015261228a8185611e8f565b9050818103602083015261229e8184611e8f565b90509392505050565b600080fd5b7f4e487b7100000000000000000000000000000000000000000000000000000000600052604160045260246000fd5b6122e482611e7e565b810181811067ffffffffffffffff82111715612303576123026122ac565b5b80604052505050565b6000612316611fb8565b905061232282826122db565b919050565b600067ffffffffffffffff821115612342576123416122ac565b5b61234b82611e7e565b9050602081019050919050565b82818337600083830152505050565b600061237a61237584612327565b61230c565b905082815260208101848484011115612396576123956122a7565b5b6123a1848285612358565b509392505050565b600082601f8301126123be576123bd61200a565b5b81356123ce848260208601612367565b91505092915050565b6000602082840312156123ed576123ec611fc2565b5b600082013567ffffffffffffffff81111561240b5761240a611fc7565b5b612417848285016123a9565b91505092915050565b7f4e487b7100000000000000000000000000000000000000000000000000000000600052602260045260246000fd5b6000600282049050600182168061246757607f821691505b6020821081141561247b5761247a612420565b5b50919050565b7f4672616d653a2043616e27742072652d696e697420636f6e7472616374000000600082015250565b60006124b7601d83611e3a565b91506124c282612481565b602082019050919050565b600060208201905081810360008301526124e6816124aa565b9050919050565b7f4e487b7100000000000000000000000000000000000000000000000000000000600052603260045260246000fd5b7f4e487b7100000000000000000000000000000000000000000000000000000000600052601160045260246000fd5b600061255682611eea565b915061256183611eea565b9250827fffffffffffffffffffffffffffffffffffffffffffffffffffffffffffffffff038211156125965761259561251c565b5b828201905092915050565b60006125ac82611eea565b91506125b783611eea565b9250828210156125ca576125c961251c565b5b828203905092915050565b6000815190506125e4816121a1565b92915050565b600060208284031215612600576125ff611fc2565b5b600061260e848285016125d5565b91505092915050565b6000819050919050565b600061263c61263761263284612617565b611f3e565b611eea565b9050919050565b61264c81612621565b82525050565b6000606082019050818103600083015261266c8186611e8f565b905061267b6020830185612643565b6126886040830184612643565b949350505050565b600067ffffffffffffffff8211156126ab576126aa6122ac565b5b6126b482611e7e565b9050602081019050919050565b60006126d46126cf84612690565b61230c565b9050828152602081018484840111156126f0576126ef6122a7565b5b6126fb848285611e4b565b509392505050565b600082601f8301126127185761271761200a565b5b81516127288482602086016126c1565b91505092915050565b60006020828403121561274757612746611fc2565b5b600082015167ffffffffffffffff81111561276557612764611fc7565b5b61277184828501612703565b91505092915050565b600081519050919050565b600081905092915050565b600061279b8261277a565b6127a58185612785565b93506127b5818560208601611e4b565b80840191505092915050565b60006127cd8284612790565b915081905092915050565b600081905092915050565b60006127ee82611e2f565b6127f881856127d8565b9350612808818560208601611e4b565b80840191505092915050565b600061282082856127e3565b915061282c82846127e3565b91508190509392505050565b600060608201905081810360008301526128528186611e8f565b90506128616020830185611ef4565b61286e6040830184611ef4565b949350505050565b6000819050919050565b600061289b61289661289184612876565b611f3e565b611eea565b9050919050565b6128ab81612880565b82525050565b600060608201905081810360008301526128cb8186611e8f565b90506128da60208301856128a2565b6128e760408301846128a2565b949350505050565b7f2200000000000000000000000000000000000000000000000000000000000000815250565b60008190508160005260206000209050919050565b600081546129378161244f565b61294181866127d8565b9450600182166000811461295c576001811461296d576129a0565b60ff198316865281860193506129a0565b61297685612915565b60005b8381101561299857815481890152600182019150602081019050612979565b838801955050505b50505092915050565b60006129b4826128ef565b6001820191506129c4828461292a565b91506129cf826128ef565b60018201915081905092915050565b7f2c00000000000000000000000000000000000000000000000000000000000000815250565b6000612a1082846127e3565b9150612a1b826129de565b60018201915081905092915050565b6000612a3582611eea565b91507fffffffffffffffffffffffffffffffffffffffffffffffffffffffffffffffff821415612a6857612a6761251c565b5b600182019050919050565b6000612a7f828561292a565b9150612a8b828461292a565b91508190509392505050565b6000612aa382866127e3565b9150612aaf82856127e3565b9150612abb828461292a565b9150819050949350505050565b6000612ad482866127e3565b9150612ae0828561292a565b9150612aec828461292a565b9150819050949350505050565b7f4672616d653a204e616d6520616c726561647920736574000000000000000000600082015250565b6000612b2f601783611e3a565b9150612b3a82612af9565b602082019050919050565b60006020820190508181036000830152612b5e81612b22565b9050919050565b600080fd5b600080fd5b600080fd5b600082356001604003833603038112612b9057612b8f612b65565b5b80830191505092915050565b60008083356001602003843603038112612bb957612bb8612b65565b5b80840192508235915067ffffffffffffffff821115612bdb57612bda612b6a565b5b602083019250600182023603831315612bf757612bf6612b6f565b5b50925092905056fea26469706673582212203247dd62c86ef2714c876f02d876c0cf8cbda4c878d4731446e19404a5fe031964736f6c634300080c00333c686561643e3c6d65746120687474702d65717569763d22436f6e74656e742d547970652220636f6e74656e743d22746578742f68746d6c3b20636861727365743d5554462d38222f3e3c73637269707420747970653d22746578742f6a617661736372697074223e6c657420696d6170203d20607b2022696d706f727473223a207b20603b20666f7220286b6920696e20696b7329207b20696d6170203d20696d6170202b206022247b20696b735b6b695d2e73706c697428224022295b305d207d223a2022646174613a746578742f6a6176617363726970743b6261736536342c247b62746f612869646174615b6b695d297d22247b206b69203c2028696b732e6c656e677468202d203129203f20222c22203a202222207d603b207d20696d6170203d20696d6170202b20227d207d223b20636f6e73742073203d20646f63756d656e742e637265617465456c656d656e74282273637269707422293b20732e74797065203d2022696d706f72746d6170223b20732e696e6e657248544d4c203d20696d61703b20646f63756d656e742e686561642e617070656e644368696c642873293b5d3b636f6e737420696b73203d20666b732e66696c7465722828666b29203d3e2021666b2e696e636c7564657328226672616d652d7574696c732229293b",
  "linkReferences": {},
  "deployedLinkReferences": {}
}