{
  "_format": "hh-sol-artifact-1",
  "contractName": "Frame",
  "sourceName": "src/services/chain-sim/contracts/Frame.sol",
  "abi": [
    {
      "inputs": [],
      "stateMutability": "nonpayable",
      "type": "constructor"
    },
    {
      "inputs": [
        {
          "internalType": "address",
          "name": "_addr",
          "type": "address"
        }
      ],
      "name": "addressToString",
      "outputs": [
        {
          "internalType": "string",
          "name": "",
          "type": "string"
        }
      ],
      "stateMutability": "pure",
      "type": "function"
    },
    {
      "inputs": [
        {
          "internalType": "uint256",
          "name": "",
          "type": "uint256"
        }
      ],
      "name": "assetList",
      "outputs": [
        {
          "internalType": "string",
          "name": "assetType",
          "type": "string"
        },
        {
          "internalType": "string",
          "name": "key",
          "type": "string"
        }
      ],
      "stateMutability": "view",
      "type": "function"
    },
    {
      "inputs": [],
      "name": "assetStorage",
      "outputs": [
        {
          "internalType": "contract FrameDataStore",
          "name": "",
          "type": "address"
        }
      ],
      "stateMutability": "view",
      "type": "function"
    },
    {
      "inputs": [],
      "name": "assetsCount",
      "outputs": [
        {
          "internalType": "uint256",
          "name": "",
          "type": "uint256"
        }
      ],
      "stateMutability": "view",
      "type": "function"
    },
    {
      "inputs": [],
      "name": "coreDepStorage",
      "outputs": [
        {
          "internalType": "contract FrameDataStore",
          "name": "",
          "type": "address"
        }
      ],
      "stateMutability": "view",
      "type": "function"
    },
    {
      "inputs": [],
      "name": "depsCount",
      "outputs": [
        {
          "internalType": "uint256",
          "name": "",
          "type": "uint256"
        }
      ],
      "stateMutability": "view",
      "type": "function"
    },
    {
      "inputs": [
        {
          "internalType": "uint256",
          "name": "",
          "type": "uint256"
        }
      ],
      "name": "depsList",
      "outputs": [
        {
          "internalType": "string",
          "name": "assetType",
          "type": "string"
        },
        {
          "internalType": "string",
          "name": "key",
          "type": "string"
        }
      ],
      "stateMutability": "view",
      "type": "function"
    },
    {
      "inputs": [
        {
          "internalType": "address",
          "name": "_coreDepStorage",
          "type": "address"
        },
        {
          "internalType": "address",
          "name": "_assetStorage",
          "type": "address"
        },
        {
          "internalType": "string[2][]",
          "name": "_deps",
          "type": "string[2][]"
        },
        {
          "internalType": "string[2][]",
          "name": "_assets",
          "type": "string[2][]"
        },
        {
          "internalType": "uint256[4][]",
          "name": "_renderIndex",
          "type": "uint256[4][]"
        }
      ],
      "name": "init",
      "outputs": [],
      "stateMutability": "nonpayable",
      "type": "function"
    },
    {
      "inputs": [
        {
          "internalType": "uint256",
          "name": "",
          "type": "uint256"
        },
        {
          "internalType": "uint256",
          "name": "",
          "type": "uint256"
        }
      ],
      "name": "renderIndex",
      "outputs": [
        {
          "internalType": "uint256",
          "name": "",
          "type": "uint256"
        }
      ],
      "stateMutability": "view",
      "type": "function"
    },
    {
      "inputs": [
        {
          "internalType": "uint256",
          "name": "_rpage",
          "type": "uint256"
        }
      ],
      "name": "renderPage",
      "outputs": [
        {
          "internalType": "string",
          "name": "",
          "type": "string"
        }
      ],
      "stateMutability": "view",
      "type": "function"
    },
    {
      "inputs": [],
      "name": "renderPagesCount",
      "outputs": [
        {
          "internalType": "uint256",
          "name": "",
          "type": "uint256"
        }
      ],
      "stateMutability": "view",
      "type": "function"
    },
    {
      "inputs": [],
      "name": "renderWrapper",
      "outputs": [
        {
          "internalType": "string",
          "name": "",
          "type": "string"
        }
      ],
      "stateMutability": "view",
      "type": "function"
    },
    {
      "inputs": [
        {
          "internalType": "contract FrameDataStore",
          "name": "_storage",
          "type": "address"
        }
      ],
      "name": "setAssetStorage",
      "outputs": [],
      "stateMutability": "nonpayable",
      "type": "function"
    },
    {
      "inputs": [
        {
          "internalType": "string[2][]",
          "name": "_assets",
          "type": "string[2][]"
        }
      ],
      "name": "setAssets",
      "outputs": [],
      "stateMutability": "nonpayable",
      "type": "function"
    },
    {
      "inputs": [
        {
          "internalType": "contract FrameDataStore",
          "name": "_storage",
          "type": "address"
        }
      ],
      "name": "setCoreDepStorage",
      "outputs": [],
      "stateMutability": "nonpayable",
      "type": "function"
    },
    {
      "inputs": [
        {
          "internalType": "string[2][]",
          "name": "_deps",
          "type": "string[2][]"
        }
      ],
      "name": "setDeps",
      "outputs": [],
      "stateMutability": "nonpayable",
      "type": "function"
    },
    {
      "inputs": [
        {
          "internalType": "uint256[4][]",
          "name": "_index",
          "type": "uint256[4][]"
        }
      ],
      "name": "setRenderIndex",
      "outputs": [],
      "stateMutability": "nonpayable",
      "type": "function"
    }
  ],
  "bytecode": "0x608060405234801561001057600080fd5b506127cc806100206000396000f3fe608060405234801561001057600080fd5b506004361061010b5760003560e01c806370370513116100a2578063a0b4b30111610071578063a0b4b301146102a4578063b5d40c05146102d5578063cd9df19014610306578063cdb53ac114610324578063dc133575146103425761010b565b8063703705131461020a5780637556d1b91461023a57806380536f631461026a57806392f02e13146102865761010b565b80634cb139a6116100de5780634cb139a6146101825780634f5ea5cc146101a05780635e57966d146101bc5780636bd40805146101ec5761010b565b806311bf85ce146101105780631b68226f1461012c57806327d98df31461014a578063292eabde14610166575b600080fd5b61012a60048036038101906101259190611ae5565b61035e565b005b6101346103a1565b6040516101419190611b2b565b60405180910390f35b610164600480360381019061015f9190611ae5565b6103a7565b005b610180600480360381019061017b9190611bab565b6103eb565b005b61018a61046e565b6040516101979190611c57565b60405180910390f35b6101ba60048036038101906101b59190611cf4565b610494565b005b6101d660048036038101906101d19190611dd0565b6104ce565b6040516101e39190611e96565b60405180910390f35b6101f46107d9565b6040516102019190611b2b565b60405180910390f35b610224600480360381019061021f9190611ee4565b6107df565b6040516102319190611b2b565b60405180910390f35b610254600480360381019061024f9190611f24565b610807565b6040516102619190611e96565b60405180910390f35b610284600480360381019061027f9190611f51565b611174565b005b61028e61132b565b60405161029b9190611e96565b60405180910390f35b6102be60048036038101906102b99190611f24565b6113d4565b6040516102cc929190611f9e565b60405180910390f35b6102ef60048036038101906102ea9190611f24565b611508565b6040516102fd929190611f9e565b60405180910390f35b61030e61163c565b60405161031b9190611b2b565b60405180910390f35b61032c611642565b6040516103399190611c57565b60405180910390f35b61035c60048036038101906103579190611f51565b611666565b005b806000806101000a81548173ffffffffffffffffffffffffffffffffffffffff021916908373ffffffffffffffffffffffffffffffffffffffff16021790555050565b60035481565b80600160006101000a81548173ffffffffffffffffffffffffffffffffffffffff021916908373ffffffffffffffffffffffffffffffffffffffff16021790555050565b60005b8282905081101561045f576006600081548092919061040c90612004565b91905055508282828181106104245761042361204d565b5b9050608002016007600083815260200190815260200160002090600461044b92919061197e565b50808061045790612004565b9150506103ee565b50818190506006819055505050565b600160009054906101000a900473ffffffffffffffffffffffffffffffffffffffff1681565b61049d8861035e565b6104a6876103a7565b6104b08686611174565b6104ba8484611666565b6104c482826103eb565b5050505050505050565b606060008273ffffffffffffffffffffffffffffffffffffffff1660001b905060006040518060400160405280601081526020017f303132333435363738396162636465660000000000000000000000000000000081525090506000603367ffffffffffffffff8111156105455761054461207c565b5b6040519080825280601f01601f1916602001820160405280156105775781602001600182028036833780820191505090505b5090507f3000000000000000000000000000000000000000000000000000000000000000816000815181106105af576105ae61204d565b5b60200101907effffffffffffffffffffffffffffffffffffffffffffffffffffffffffffff1916908160001a9053507f7800000000000000000000000000000000000000000000000000000000000000816001815181106106135761061261204d565b5b60200101907effffffffffffffffffffffffffffffffffffffffffffffffffffffffffffff1916908160001a90535060005b60148110156107cd5782600485600c8461065f91906120ab565b602081106106705761066f61204d565b5b1a60f81b7effffffffffffffffffffffffffffffffffffffffffffffffffffffffffffff1916901c60f81c60ff16815181106106af576106ae61204d565b5b602001015160f81c60f81b826002836106c89190612101565b60026106d491906120ab565b815181106106e5576106e461204d565b5b60200101907effffffffffffffffffffffffffffffffffffffffffffffffffffffffffffff1916908160001a90535082600f60f81b85600c8461072891906120ab565b602081106107395761073861204d565b5b1a60f81b1660f81c60ff16815181106107555761075461204d565b5b602001015160f81c60f81b8260028361076e9190612101565b600361077a91906120ab565b8151811061078b5761078a61204d565b5b60200101907effffffffffffffffffffffffffffffffffffffffffffffffffffffffffffff1916908160001a90535080806107c590612004565b915050610645565b50809350505050919050565b60065481565b600760205281600052604060002081600481106107fb57600080fd5b01600091509150505481565b6060600060076000848152602001908152602001600020600480602002604051908101604052809291908260048015610855576020028201915b815481526020019060010190808311610841575b505050505090506000816000600481106108725761087161204d565b5b6020020151905060008260016004811061088f5761088e61204d565b5b602002015190506000836002600481106108ac576108ab61204d565b5b602002015190506000846003600481106108c9576108c861204d565b5b60200201519050600060405180602001604052806000815250905060008590505b6001856108f791906120ab565b811015610fba57600060035460018361091091906120ab565b1115905060008161092e5760035483610929919061215b565b610930565b825b905060008261096157600160009054906101000a900473ffffffffffffffffffffffffffffffffffffffff16610983565b60008054906101000a900473ffffffffffffffffffffffffffffffffffffffff165b90506000836109a457600460008481526020019081526020016000206109b8565b600260008681526020019081526020016000205b6040518060400160405290816000820180546109d3906121be565b80601f01602080910402602001604051908101604052809291908181526020018280546109ff906121be565b8015610a4c5780601f10610a2157610100808354040283529160200191610a4c565b820191906000526020600020905b815481529060010190602001808311610a2f57829003601f168201915b50505050508152602001600182018054610a65906121be565b80601f0160208091040260200160405190810160405280929190818152602001828054610a91906121be565b8015610ade5780601f10610ab357610100808354040283529160200191610ade565b820191906000526020600020905b815481529060010190602001808311610ac157829003601f168201915b5050505050815250509050600084610b2b576040518060400160405280600c81526020017f617373657453746f726167650000000000000000000000000000000000000000815250610b62565b6040518060400160405280600e81526020017f636f726544657053746f726167650000000000000000000000000000000000008152505b905060008b8714610b74576000610b76565b895b905060008b8814610c04578473ffffffffffffffffffffffffffffffffffffffff1663d431a42f85602001516040518263ffffffff1660e01b8152600401610bbe9190611e96565b602060405180830381865afa158015610bdb573d6000803e3d6000fd5b505050506040513d601f19601f82011682018060405250810190610bff9190612205565b610c06565b895b90506000821415610d1b578860008054906101000a900473ffffffffffffffffffffffffffffffffffffffff1673ffffffffffffffffffffffffffffffffffffffff166311aa4cba8660000151604051602001610c639190612294565b6040516020818303038152906040526000806040518463ffffffff1660e01b8152600401610c93939291906122f5565b600060405180830381865afa158015610cb0573d6000803e3d6000fd5b505050506040513d6000823e3d601f19601f82011682018060405250810190610cd99190612425565b604051602001610ce991906124b5565b604051602081830303815290604052604051602001610d099291906124cc565b60405160208183030381529060405298505b6000610d268361181d565b90506000610d338361181d565b90508a8773ffffffffffffffffffffffffffffffffffffffff166311aa4cba886020015187876040518463ffffffff1660e01b8152600401610d77939291906124f0565b600060405180830381865afa158015610d94573d6000803e3d6000fd5b505050506040513d6000823e3d601f19601f82011682018060405250810190610dbd9190612425565b604051602001610dcd91906124b5565b604051602081830303815290604052604051602001610ded9291906124cc565b6040516020818303038152906040529a5060008e8b148015610e8c57508773ffffffffffffffffffffffffffffffffffffffff1663d431a42f88602001516040518263ffffffff1660e01b8152600401610e479190611e96565b602060405180830381865afa158015610e64573d6000803e3d6000fd5b505050506040513d601f19601f82011682018060405250810190610e889190612205565b8d14155b905080610f9d578b60008054906101000a900473ffffffffffffffffffffffffffffffffffffffff1673ffffffffffffffffffffffffffffffffffffffff166311aa4cba8960000151604051602001610ee59190612294565b6040516020818303038152906040526001806040518463ffffffff1660e01b8152600401610f1593929190612569565b600060405180830381865afa158015610f32573d6000803e3d6000fd5b505050506040513d6000823e3d601f19601f82011682018060405250810190610f5b9190612425565b604051602001610f6b91906124b5565b604051602081830303815290604052604051602001610f8b9291906124cc565b6040516020818303038152906040529b505b505050505050505050508080610fb290612004565b9150506108ea565b50600088141561108a5760008054906101000a900473ffffffffffffffffffffffffffffffffffffffff1673ffffffffffffffffffffffffffffffffffffffff166311aa4cba6000806040518363ffffffff1660e01b81526004016110209291906125f3565b600060405180830381865afa15801561103d573d6000803e3d6000fd5b505050506040513d6000823e3d601f19601f820116820180604052508101906110669190612425565b816040516020016110789291906124cc565b60405160208183030381529060405290505b6001600654611099919061215b565b881415611166578060008054906101000a900473ffffffffffffffffffffffffffffffffffffffff1673ffffffffffffffffffffffffffffffffffffffff166311aa4cba6001806040518363ffffffff1660e01b81526004016110fd92919061262f565b600060405180830381865afa15801561111a573d6000803e3d6000fd5b505050506040513d6000823e3d601f19601f820116820180604052508101906111439190612425565b6040516020016111549291906124cc565b60405160208183030381529060405290505b809650505050505050919050565b60005b828290508110156113265760405180604001604052808484848181106111a05761119f61204d565b5b90506020028101906111b2919061267a565b6000600281106111c5576111c461204d565b5b6020028101906111d591906126a2565b8080601f016020809104026020016040519081016040528093929190818152602001838380828437600081840152601f19601f8201169050808301925050505050505081526020018484848181106112305761122f61204d565b5b9050602002810190611242919061267a565b6001600281106112555761125461204d565b5b60200281019061126591906126a2565b8080601f016020809104026020016040519081016040528093929190818152602001838380828437600081840152601f19601f820116905080830192505050505050508152506002600083815260200190815260200160002060008201518160000190805190602001906112da9291906119be565b5060208201518160010190805190602001906112f79291906119be565b509050506003600081548092919061130e90612004565b9190505550808061131e90612004565b915050611177565b505050565b606060008054906101000a900473ffffffffffffffffffffffffffffffffffffffff1673ffffffffffffffffffffffffffffffffffffffff166311aa4cba6000806040518363ffffffff1660e01b81526004016113899291906125f3565b600060405180830381865afa1580156113a6573d6000803e3d6000fd5b505050506040513d6000823e3d601f19601f820116820180604052508101906113cf9190612425565b905090565b60046020528060005260406000206000915090508060000180546113f7906121be565b80601f0160208091040260200160405190810160405280929190818152602001828054611423906121be565b80156114705780601f1061144557610100808354040283529160200191611470565b820191906000526020600020905b81548152906001019060200180831161145357829003601f168201915b505050505090806001018054611485906121be565b80601f01602080910402602001604051908101604052809291908181526020018280546114b1906121be565b80156114fe5780601f106114d3576101008083540402835291602001916114fe565b820191906000526020600020905b8154815290600101906020018083116114e157829003601f168201915b5050505050905082565b600260205280600052604060002060009150905080600001805461152b906121be565b80601f0160208091040260200160405190810160405280929190818152602001828054611557906121be565b80156115a45780601f10611579576101008083540402835291602001916115a4565b820191906000526020600020905b81548152906001019060200180831161158757829003601f168201915b5050505050908060010180546115b9906121be565b80601f01602080910402602001604051908101604052809291908181526020018280546115e5906121be565b80156116325780601f1061160757610100808354040283529160200191611632565b820191906000526020600020905b81548152906001019060200180831161161557829003601f168201915b5050505050905082565b60055481565b60008054906101000a900473ffffffffffffffffffffffffffffffffffffffff1681565b60005b828290508110156118185760405180604001604052808484848181106116925761169161204d565b5b90506020028101906116a4919061267a565b6000600281106116b7576116b661204d565b5b6020028101906116c791906126a2565b8080601f016020809104026020016040519081016040528093929190818152602001838380828437600081840152601f19601f8201169050808301925050505050505081526020018484848181106117225761172161204d565b5b9050602002810190611734919061267a565b6001600281106117475761174661204d565b5b60200281019061175791906126a2565b8080601f016020809104026020016040519081016040528093929190818152602001838380828437600081840152601f19601f820116905080830192505050505050508152506004600083815260200190815260200160002060008201518160000190805190602001906117cc9291906119be565b5060208201518160010190805190602001906117e99291906119be565b509050506005600081548092919061180090612004565b9190505550808061181090612004565b915050611669565b505050565b60606000821415611865576040518060400160405280600181526020017f30000000000000000000000000000000000000000000000000000000000000008152509050611979565b600082905060005b6000821461189757808061188090612004565b915050600a826118909190612734565b915061186d565b60008167ffffffffffffffff8111156118b3576118b261207c565b5b6040519080825280601f01601f1916602001820160405280156118e55781602001600182028036833780820191505090505b5090505b60008514611972576001826118fe919061215b565b9150600a8561190d9190612765565b603061191991906120ab565b60f81b81838151811061192f5761192e61204d565b5b60200101907effffffffffffffffffffffffffffffffffffffffffffffffffffffffffffff1916908160001a905350600a8561196b9190612734565b94506118e9565b8093505050505b919050565b82600481019282156119ad579160200282015b828111156119ac578235825591602001919060010190611991565b5b5090506119ba9190611a44565b5090565b8280546119ca906121be565b90600052602060002090601f0160209004810192826119ec5760008555611a33565b82601f10611a0557805160ff1916838001178555611a33565b82800160010185558215611a33579182015b82811115611a32578251825591602001919060010190611a17565b5b509050611a409190611a44565b5090565b5b80821115611a5d576000816000905550600101611a45565b5090565b6000604051905090565b600080fd5b600080fd5b600073ffffffffffffffffffffffffffffffffffffffff82169050919050565b6000611aa082611a75565b9050919050565b6000611ab282611a95565b9050919050565b611ac281611aa7565b8114611acd57600080fd5b50565b600081359050611adf81611ab9565b92915050565b600060208284031215611afb57611afa611a6b565b5b6000611b0984828501611ad0565b91505092915050565b6000819050919050565b611b2581611b12565b82525050565b6000602082019050611b406000830184611b1c565b92915050565b600080fd5b600080fd5b600080fd5b60008083601f840112611b6b57611b6a611b46565b5b8235905067ffffffffffffffff811115611b8857611b87611b4b565b5b602083019150836080820283011115611ba457611ba3611b50565b5b9250929050565b60008060208385031215611bc257611bc1611a6b565b5b600083013567ffffffffffffffff811115611be057611bdf611a70565b5b611bec85828601611b55565b92509250509250929050565b6000819050919050565b6000611c1d611c18611c1384611a75565b611bf8565b611a75565b9050919050565b6000611c2f82611c02565b9050919050565b6000611c4182611c24565b9050919050565b611c5181611c36565b82525050565b6000602082019050611c6c6000830184611c48565b92915050565b611c7b81611a95565b8114611c8657600080fd5b50565b600081359050611c9881611c72565b92915050565b60008083601f840112611cb457611cb3611b46565b5b8235905067ffffffffffffffff811115611cd157611cd0611b4b565b5b602083019150836020820283011115611ced57611cec611b50565b5b9250929050565b60008060008060008060008060a0898b031215611d1457611d13611a6b565b5b6000611d228b828c01611c89565b9850506020611d338b828c01611c89565b975050604089013567ffffffffffffffff811115611d5457611d53611a70565b5b611d608b828c01611c9e565b9650965050606089013567ffffffffffffffff811115611d8357611d82611a70565b5b611d8f8b828c01611c9e565b9450945050608089013567ffffffffffffffff811115611db257611db1611a70565b5b611dbe8b828c01611b55565b92509250509295985092959890939650565b600060208284031215611de657611de5611a6b565b5b6000611df484828501611c89565b91505092915050565b600081519050919050565b600082825260208201905092915050565b60005b83811015611e37578082015181840152602081019050611e1c565b83811115611e46576000848401525b50505050565b6000601f19601f8301169050919050565b6000611e6882611dfd565b611e728185611e08565b9350611e82818560208601611e19565b611e8b81611e4c565b840191505092915050565b60006020820190508181036000830152611eb08184611e5d565b905092915050565b611ec181611b12565b8114611ecc57600080fd5b50565b600081359050611ede81611eb8565b92915050565b60008060408385031215611efb57611efa611a6b565b5b6000611f0985828601611ecf565b9250506020611f1a85828601611ecf565b9150509250929050565b600060208284031215611f3a57611f39611a6b565b5b6000611f4884828501611ecf565b91505092915050565b60008060208385031215611f6857611f67611a6b565b5b600083013567ffffffffffffffff811115611f8657611f85611a70565b5b611f9285828601611c9e565b92509250509250929050565b60006040820190508181036000830152611fb88185611e5d565b90508181036020830152611fcc8184611e5d565b90509392505050565b7f4e487b7100000000000000000000000000000000000000000000000000000000600052601160045260246000fd5b600061200f82611b12565b91507fffffffffffffffffffffffffffffffffffffffffffffffffffffffffffffffff82141561204257612041611fd5565b5b600182019050919050565b7f4e487b7100000000000000000000000000000000000000000000000000000000600052603260045260246000fd5b7f4e487b7100000000000000000000000000000000000000000000000000000000600052604160045260246000fd5b60006120b682611b12565b91506120c183611b12565b9250827fffffffffffffffffffffffffffffffffffffffffffffffffffffffffffffffff038211156120f6576120f5611fd5565b5b828201905092915050565b600061210c82611b12565b915061211783611b12565b9250817fffffffffffffffffffffffffffffffffffffffffffffffffffffffffffffffff04831182151516156121505761214f611fd5565b5b828202905092915050565b600061216682611b12565b915061217183611b12565b92508282101561218457612183611fd5565b5b828203905092915050565b7f4e487b7100000000000000000000000000000000000000000000000000000000600052602260045260246000fd5b600060028204905060018216806121d657607f821691505b602082108114156121ea576121e961218f565b5b50919050565b6000815190506121ff81611eb8565b92915050565b60006020828403121561221b5761221a611a6b565b5b6000612229848285016121f0565b91505092915050565b600081905092915050565b600061224882611dfd565b6122528185612232565b9350612262818560208601611e19565b80840191505092915050565b7f5772617070657200000000000000000000000000000000000000000000000000815250565b60006122a0828461223d565b91506122ab8261226e565b60078201915081905092915050565b6000819050919050565b60006122df6122da6122d5846122ba565b611bf8565b611b12565b9050919050565b6122ef816122c4565b82525050565b6000606082019050818103600083015261230f8186611e5d565b905061231e60208301856122e6565b61232b60408301846122e6565b949350505050565b600080fd5b61234182611e4c565b810181811067ffffffffffffffff821117156123605761235f61207c565b5b80604052505050565b6000612373611a61565b905061237f8282612338565b919050565b600067ffffffffffffffff82111561239f5761239e61207c565b5b6123a882611e4c565b9050602081019050919050565b60006123c86123c384612384565b612369565b9050828152602081018484840111156123e4576123e3612333565b5b6123ef848285611e19565b509392505050565b600082601f83011261240c5761240b611b46565b5b815161241c8482602086016123b5565b91505092915050565b60006020828403121561243b5761243a611a6b565b5b600082015167ffffffffffffffff81111561245957612458611a70565b5b612465848285016123f7565b91505092915050565b600081519050919050565b600081905092915050565b600061248f8261246e565b6124998185612479565b93506124a9818560208601611e19565b80840191505092915050565b60006124c18284612484565b915081905092915050565b60006124d8828561223d565b91506124e4828461223d565b91508190509392505050565b6000606082019050818103600083015261250a8186611e5d565b90506125196020830185611b1c565b6125266040830184611b1c565b949350505050565b6000819050919050565b600061255361254e6125498461252e565b611bf8565b611b12565b9050919050565b61256381612538565b82525050565b600060608201905081810360008301526125838186611e5d565b9050612592602083018561255a565b61259f604083018461255a565b949350505050565b7f72656e6465725772617070657200000000000000000000000000000000000000600082015250565b60006125dd600d83611e08565b91506125e8826125a7565b602082019050919050565b6000606082019050818103600083015261260c816125d0565b905061261b60208301856122e6565b61262860408301846122e6565b9392505050565b60006060820190508181036000830152612648816125d0565b9050612657602083018561255a565b612664604083018461255a565b9392505050565b600080fd5b600080fd5b600080fd5b6000823560016040038336030381126126965761269561266b565b5b80830191505092915050565b600080833560016020038436030381126126bf576126be61266b565b5b80840192508235915067ffffffffffffffff8211156126e1576126e0612670565b5b6020830192506001820236038313156126fd576126fc612675565b5b509250929050565b7f4e487b7100000000000000000000000000000000000000000000000000000000600052601260045260246000fd5b600061273f82611b12565b915061274a83611b12565b92508261275a57612759612705565b5b828204905092915050565b600061277082611b12565b915061277b83611b12565b92508261278b5761278a612705565b5b82820690509291505056fea26469706673582212209c3ba8432f8b11b2565b65836151082f26512acfc9e98556dddbb51931feeb4964736f6c634300080c0033",
  "linkReferences": {},
  "deployedLinkReferences": {}
}