{
  "_format": "hh-sol-artifact-1",
  "contractName": "Frame",
  "sourceName": "src/services/chain-sim/contracts/Frame.sol",
  "abi": [
    {
      "inputs": [],
      "stateMutability": "nonpayable",
      "type": "constructor"
    },
    {
      "inputs": [
        {
          "internalType": "uint256",
          "name": "",
          "type": "uint256"
        }
      ],
      "name": "assetList",
      "outputs": [
        {
          "internalType": "string",
          "name": "assetType",
          "type": "string"
        },
        {
          "internalType": "string",
          "name": "key",
          "type": "string"
        }
      ],
      "stateMutability": "view",
      "type": "function"
    },
    {
      "inputs": [],
      "name": "assetStorage",
      "outputs": [
        {
          "internalType": "contract FrameDataStore",
          "name": "",
          "type": "address"
        }
      ],
      "stateMutability": "view",
      "type": "function"
    },
    {
      "inputs": [],
      "name": "assetsCount",
      "outputs": [
        {
          "internalType": "uint256",
          "name": "",
          "type": "uint256"
        }
      ],
      "stateMutability": "view",
      "type": "function"
    },
    {
      "inputs": [],
      "name": "coreDepStorage",
      "outputs": [
        {
          "internalType": "contract FrameDataStore",
          "name": "",
          "type": "address"
        }
      ],
      "stateMutability": "view",
      "type": "function"
    },
    {
      "inputs": [],
      "name": "depsCount",
      "outputs": [
        {
          "internalType": "uint256",
          "name": "",
          "type": "uint256"
        }
      ],
      "stateMutability": "view",
      "type": "function"
    },
    {
      "inputs": [
        {
          "internalType": "uint256",
          "name": "",
          "type": "uint256"
        }
      ],
      "name": "depsList",
      "outputs": [
        {
          "internalType": "string",
          "name": "assetType",
          "type": "string"
        },
        {
          "internalType": "string",
          "name": "key",
          "type": "string"
        }
      ],
      "stateMutability": "view",
      "type": "function"
    },
    {
      "inputs": [
        {
          "internalType": "address",
          "name": "_coreDepStorage",
          "type": "address"
        },
        {
          "internalType": "address",
          "name": "_assetStorage",
          "type": "address"
        },
        {
          "internalType": "string[2][]",
          "name": "_deps",
          "type": "string[2][]"
        },
        {
          "internalType": "string[2][]",
          "name": "_assets",
          "type": "string[2][]"
        },
        {
          "internalType": "uint256[4][]",
          "name": "_renderIndex",
          "type": "uint256[4][]"
        }
      ],
      "name": "init",
      "outputs": [],
      "stateMutability": "nonpayable",
      "type": "function"
    },
    {
      "inputs": [
        {
          "internalType": "uint256",
          "name": "",
          "type": "uint256"
        },
        {
          "internalType": "uint256",
          "name": "",
          "type": "uint256"
        }
      ],
      "name": "renderIndex",
      "outputs": [
        {
          "internalType": "uint256",
          "name": "",
          "type": "uint256"
        }
      ],
      "stateMutability": "view",
      "type": "function"
    },
    {
      "inputs": [
        {
          "internalType": "uint256",
          "name": "_rpage",
          "type": "uint256"
        }
      ],
      "name": "renderPage",
      "outputs": [
        {
          "internalType": "string",
          "name": "",
          "type": "string"
        }
      ],
      "stateMutability": "view",
      "type": "function"
    },
    {
      "inputs": [],
      "name": "renderPagesCount",
      "outputs": [
        {
          "internalType": "uint256",
          "name": "",
          "type": "uint256"
        }
      ],
      "stateMutability": "view",
      "type": "function"
    },
    {
      "inputs": [],
      "name": "renderWrapper",
      "outputs": [
        {
          "internalType": "string",
          "name": "",
          "type": "string"
        }
      ],
      "stateMutability": "view",
      "type": "function"
    },
    {
      "inputs": [
        {
          "internalType": "contract FrameDataStore",
          "name": "_storage",
          "type": "address"
        }
      ],
      "name": "setAssetStorage",
      "outputs": [],
      "stateMutability": "nonpayable",
      "type": "function"
    },
    {
      "inputs": [
        {
          "internalType": "string[2][]",
          "name": "_assets",
          "type": "string[2][]"
        }
      ],
      "name": "setAssets",
      "outputs": [],
      "stateMutability": "nonpayable",
      "type": "function"
    },
    {
      "inputs": [
        {
          "internalType": "contract FrameDataStore",
          "name": "_storage",
          "type": "address"
        }
      ],
      "name": "setCoreDepStorage",
      "outputs": [],
      "stateMutability": "nonpayable",
      "type": "function"
    },
    {
      "inputs": [
        {
          "internalType": "string[2][]",
          "name": "_deps",
          "type": "string[2][]"
        }
      ],
      "name": "setDeps",
      "outputs": [],
      "stateMutability": "nonpayable",
      "type": "function"
    },
    {
      "inputs": [
        {
          "internalType": "uint256[4][]",
          "name": "_index",
          "type": "uint256[4][]"
        }
      ],
      "name": "setRenderIndex",
      "outputs": [],
      "stateMutability": "nonpayable",
      "type": "function"
    }
  ],
  "bytecode": "0x608060405234801561001057600080fd5b50612371806100206000396000f3fe608060405234801561001057600080fd5b50600436106101005760003560e01c80637556d1b911610097578063b5d40c0511610066578063b5d40c051461029a578063cd9df190146102cb578063cdb53ac1146102e9578063dc1335751461030757610100565b80637556d1b9146101ff57806380536f631461022f57806392f02e131461024b578063a0b4b3011461026957610100565b80634cb139a6116100d35780634cb139a6146101775780634f5ea5cc146101955780636bd40805146101b157806370370513146101cf57610100565b806311bf85ce146101055780631b68226f1461012157806327d98df31461013f578063292eabde1461015b575b600080fd5b61011f600480360381019061011a9190611704565b610323565b005b610129610366565b604051610136919061174a565b60405180910390f35b61015960048036038101906101549190611704565b61036c565b005b610175600480360381019061017091906117ca565b6103b0565b005b61017f610433565b60405161018c9190611876565b60405180910390f35b6101af60048036038101906101aa9190611913565b610459565b005b6101b9610493565b6040516101c6919061174a565b60405180910390f35b6101e960048036038101906101e49190611a1b565b610499565b6040516101f6919061174a565b60405180910390f35b61021960048036038101906102149190611a5b565b6104c1565b6040516102269190611b21565b60405180910390f35b61024960048036038101906102449190611b43565b610d93565b005b610253610f4a565b6040516102609190611b21565b60405180910390f35b610283600480360381019061027e9190611a5b565b610ff3565b604051610291929190611b90565b60405180910390f35b6102b460048036038101906102af9190611a5b565b611127565b6040516102c2929190611b90565b60405180910390f35b6102d361125b565b6040516102e0919061174a565b60405180910390f35b6102f1611261565b6040516102fe9190611876565b60405180910390f35b610321600480360381019061031c9190611b43565b611285565b005b806000806101000a81548173ffffffffffffffffffffffffffffffffffffffff021916908373ffffffffffffffffffffffffffffffffffffffff16021790555050565b60035481565b80600160006101000a81548173ffffffffffffffffffffffffffffffffffffffff021916908373ffffffffffffffffffffffffffffffffffffffff16021790555050565b60005b8282905081101561042457600660008154809291906103d190611bf6565b91905055508282828181106103e9576103e8611c3f565b5b9050608002016007600083815260200190815260200160002090600461041092919061159d565b50808061041c90611bf6565b9150506103b3565b50818190506006819055505050565b600160009054906101000a900473ffffffffffffffffffffffffffffffffffffffff1681565b61046288610323565b61046b8761036c565b6104758686610d93565b61047f8484611285565b61048982826103b0565b5050505050505050565b60065481565b600760205281600052604060002081600481106104b557600080fd5b01600091509150505481565b606060006007600084815260200190815260200160002060048060200260405190810160405280929190826004801561050f576020028201915b8154815260200190600101908083116104fb575b5050505050905060008160006004811061052c5761052b611c3f565b5b6020020151905060008260016004811061054957610548611c3f565b5b6020020151905060008360026004811061056657610565611c3f565b5b6020020151905060008460036004811061058357610582611c3f565b5b60200201519050600060405180602001604052806000815250905060008590505b6001856105b19190611c6e565b811015610bd95760006003546001836105ca9190611c6e565b111590506000816105e857600354836105e39190611cc4565b6105ea565b825b905060008261061b57600160009054906101000a900473ffffffffffffffffffffffffffffffffffffffff1661063d565b60008054906101000a900473ffffffffffffffffffffffffffffffffffffffff165b905060008361065e5760046000848152602001908152602001600020610672565b600260008681526020019081526020016000205b60405180604001604052908160008201805461068d90611d27565b80601f01602080910402602001604051908101604052809291908181526020018280546106b990611d27565b80156107065780601f106106db57610100808354040283529160200191610706565b820191906000526020600020905b8154815290600101906020018083116106e957829003601f168201915b5050505050815260200160018201805461071f90611d27565b80601f016020809104026020016040519081016040528092919081815260200182805461074b90611d27565b80156107985780601f1061076d57610100808354040283529160200191610798565b820191906000526020600020905b81548152906001019060200180831161077b57829003601f168201915b50505050508152505090506000846107e5576040518060400160405280600c81526020017f617373657453746f72616765000000000000000000000000000000000000000081525061081c565b6040518060400160405280600e81526020017f636f726544657053746f726167650000000000000000000000000000000000008152505b905060008b871461082e576000610830565b895b905060008b88146108be578473ffffffffffffffffffffffffffffffffffffffff1663d431a42f85602001516040518263ffffffff1660e01b81526004016108789190611b21565b602060405180830381865afa158015610895573d6000803e3d6000fd5b505050506040513d601f19601f820116820180604052508101906108b99190611d6e565b6108c0565b895b905060008214156109d5578860008054906101000a900473ffffffffffffffffffffffffffffffffffffffff1673ffffffffffffffffffffffffffffffffffffffff166311aa4cba866000015160405160200161091d9190611dfd565b6040516020818303038152906040526000806040518463ffffffff1660e01b815260040161094d93929190611e5e565b600060405180830381865afa15801561096a573d6000803e3d6000fd5b505050506040513d6000823e3d601f19601f820116820180604052508101906109939190611fbd565b6040516020016109a3919061204d565b6040516020818303038152906040526040516020016109c3929190612064565b60405160208183030381529060405298505b60006109e08361143c565b905060006109ed8361143c565b90508a8587602001518484604051602001610a0c959493929190612088565b6040516020818303038152906040529a5060008e8b148015610aab57508773ffffffffffffffffffffffffffffffffffffffff1663d431a42f88602001516040518263ffffffff1660e01b8152600401610a669190611b21565b602060405180830381865afa158015610a83573d6000803e3d6000fd5b505050506040513d601f19601f82011682018060405250810190610aa79190611d6e565b8d14155b905080610bbc578b60008054906101000a900473ffffffffffffffffffffffffffffffffffffffff1673ffffffffffffffffffffffffffffffffffffffff166311aa4cba8960000151604051602001610b049190611dfd565b6040516020818303038152906040526001806040518463ffffffff1660e01b8152600401610b349392919061210e565b600060405180830381865afa158015610b51573d6000803e3d6000fd5b505050506040513d6000823e3d601f19601f82011682018060405250810190610b7a9190611fbd565b604051602001610b8a919061204d565b604051602081830303815290604052604051602001610baa929190612064565b6040516020818303038152906040529b505b505050505050505050508080610bd190611bf6565b9150506105a4565b506000881415610ca95760008054906101000a900473ffffffffffffffffffffffffffffffffffffffff1673ffffffffffffffffffffffffffffffffffffffff166311aa4cba6000806040518363ffffffff1660e01b8152600401610c3f929190612198565b600060405180830381865afa158015610c5c573d6000803e3d6000fd5b505050506040513d6000823e3d601f19601f82011682018060405250810190610c859190611fbd565b81604051602001610c97929190612064565b60405160208183030381529060405290505b6001600654610cb89190611cc4565b881415610d85578060008054906101000a900473ffffffffffffffffffffffffffffffffffffffff1673ffffffffffffffffffffffffffffffffffffffff166311aa4cba6001806040518363ffffffff1660e01b8152600401610d1c9291906121d4565b600060405180830381865afa158015610d39573d6000803e3d6000fd5b505050506040513d6000823e3d601f19601f82011682018060405250810190610d629190611fbd565b604051602001610d73929190612064565b60405160208183030381529060405290505b809650505050505050919050565b60005b82829050811015610f45576040518060400160405280848484818110610dbf57610dbe611c3f565b5b9050602002810190610dd1919061221f565b600060028110610de457610de3611c3f565b5b602002810190610df49190612247565b8080601f016020809104026020016040519081016040528093929190818152602001838380828437600081840152601f19601f820116905080830192505050505050508152602001848484818110610e4f57610e4e611c3f565b5b9050602002810190610e61919061221f565b600160028110610e7457610e73611c3f565b5b602002810190610e849190612247565b8080601f016020809104026020016040519081016040528093929190818152602001838380828437600081840152601f19601f82011690508083019250505050505050815250600260008381526020019081526020016000206000820151816000019080519060200190610ef99291906115dd565b506020820151816001019080519060200190610f169291906115dd565b5090505060036000815480929190610f2d90611bf6565b91905055508080610f3d90611bf6565b915050610d96565b505050565b606060008054906101000a900473ffffffffffffffffffffffffffffffffffffffff1673ffffffffffffffffffffffffffffffffffffffff166311aa4cba6000806040518363ffffffff1660e01b8152600401610fa8929190612198565b600060405180830381865afa158015610fc5573d6000803e3d6000fd5b505050506040513d6000823e3d601f19601f82011682018060405250810190610fee9190611fbd565b905090565b600460205280600052604060002060009150905080600001805461101690611d27565b80601f016020809104026020016040519081016040528092919081815260200182805461104290611d27565b801561108f5780601f106110645761010080835404028352916020019161108f565b820191906000526020600020905b81548152906001019060200180831161107257829003601f168201915b5050505050908060010180546110a490611d27565b80601f01602080910402602001604051908101604052809291908181526020018280546110d090611d27565b801561111d5780601f106110f25761010080835404028352916020019161111d565b820191906000526020600020905b81548152906001019060200180831161110057829003601f168201915b5050505050905082565b600260205280600052604060002060009150905080600001805461114a90611d27565b80601f016020809104026020016040519081016040528092919081815260200182805461117690611d27565b80156111c35780601f10611198576101008083540402835291602001916111c3565b820191906000526020600020905b8154815290600101906020018083116111a657829003601f168201915b5050505050908060010180546111d890611d27565b80601f016020809104026020016040519081016040528092919081815260200182805461120490611d27565b80156112515780601f1061122657610100808354040283529160200191611251565b820191906000526020600020905b81548152906001019060200180831161123457829003601f168201915b5050505050905082565b60055481565b60008054906101000a900473ffffffffffffffffffffffffffffffffffffffff1681565b60005b828290508110156114375760405180604001604052808484848181106112b1576112b0611c3f565b5b90506020028101906112c3919061221f565b6000600281106112d6576112d5611c3f565b5b6020028101906112e69190612247565b8080601f016020809104026020016040519081016040528093929190818152602001838380828437600081840152601f19601f82011690508083019250505050505050815260200184848481811061134157611340611c3f565b5b9050602002810190611353919061221f565b60016002811061136657611365611c3f565b5b6020028101906113769190612247565b8080601f016020809104026020016040519081016040528093929190818152602001838380828437600081840152601f19601f820116905080830192505050505050508152506004600083815260200190815260200160002060008201518160000190805190602001906113eb9291906115dd565b5060208201518160010190805190602001906114089291906115dd565b509050506005600081548092919061141f90611bf6565b9190505550808061142f90611bf6565b915050611288565b505050565b60606000821415611484576040518060400160405280600181526020017f30000000000000000000000000000000000000000000000000000000000000008152509050611598565b600082905060005b600082146114b657808061149f90611bf6565b915050600a826114af91906122d9565b915061148c565b60008167ffffffffffffffff8111156114d2576114d1611ea1565b5b6040519080825280601f01601f1916602001820160405280156115045781602001600182028036833780820191505090505b5090505b600085146115915760018261151d9190611cc4565b9150600a8561152c919061230a565b60306115389190611c6e565b60f81b81838151811061154e5761154d611c3f565b5b60200101907effffffffffffffffffffffffffffffffffffffffffffffffffffffffffffff1916908160001a905350600a8561158a91906122d9565b9450611508565b8093505050505b919050565b82600481019282156115cc579160200282015b828111156115cb5782358255916020019190600101906115b0565b5b5090506115d99190611663565b5090565b8280546115e990611d27565b90600052602060002090601f01602090048101928261160b5760008555611652565b82601f1061162457805160ff1916838001178555611652565b82800160010185558215611652579182015b82811115611651578251825591602001919060010190611636565b5b50905061165f9190611663565b5090565b5b8082111561167c576000816000905550600101611664565b5090565b6000604051905090565b600080fd5b600080fd5b600073ffffffffffffffffffffffffffffffffffffffff82169050919050565b60006116bf82611694565b9050919050565b60006116d1826116b4565b9050919050565b6116e1816116c6565b81146116ec57600080fd5b50565b6000813590506116fe816116d8565b92915050565b60006020828403121561171a5761171961168a565b5b6000611728848285016116ef565b91505092915050565b6000819050919050565b61174481611731565b82525050565b600060208201905061175f600083018461173b565b92915050565b600080fd5b600080fd5b600080fd5b60008083601f84011261178a57611789611765565b5b8235905067ffffffffffffffff8111156117a7576117a661176a565b5b6020830191508360808202830111156117c3576117c261176f565b5b9250929050565b600080602083850312156117e1576117e061168a565b5b600083013567ffffffffffffffff8111156117ff576117fe61168f565b5b61180b85828601611774565b92509250509250929050565b6000819050919050565b600061183c61183761183284611694565b611817565b611694565b9050919050565b600061184e82611821565b9050919050565b600061186082611843565b9050919050565b61187081611855565b82525050565b600060208201905061188b6000830184611867565b92915050565b61189a816116b4565b81146118a557600080fd5b50565b6000813590506118b781611891565b92915050565b60008083601f8401126118d3576118d2611765565b5b8235905067ffffffffffffffff8111156118f0576118ef61176a565b5b60208301915083602082028301111561190c5761190b61176f565b5b9250929050565b60008060008060008060008060a0898b0312156119335761193261168a565b5b60006119418b828c016118a8565b98505060206119528b828c016118a8565b975050604089013567ffffffffffffffff8111156119735761197261168f565b5b61197f8b828c016118bd565b9650965050606089013567ffffffffffffffff8111156119a2576119a161168f565b5b6119ae8b828c016118bd565b9450945050608089013567ffffffffffffffff8111156119d1576119d061168f565b5b6119dd8b828c01611774565b92509250509295985092959890939650565b6119f881611731565b8114611a0357600080fd5b50565b600081359050611a15816119ef565b92915050565b60008060408385031215611a3257611a3161168a565b5b6000611a4085828601611a06565b9250506020611a5185828601611a06565b9150509250929050565b600060208284031215611a7157611a7061168a565b5b6000611a7f84828501611a06565b91505092915050565b600081519050919050565b600082825260208201905092915050565b60005b83811015611ac2578082015181840152602081019050611aa7565b83811115611ad1576000848401525b50505050565b6000601f19601f8301169050919050565b6000611af382611a88565b611afd8185611a93565b9350611b0d818560208601611aa4565b611b1681611ad7565b840191505092915050565b60006020820190508181036000830152611b3b8184611ae8565b905092915050565b60008060208385031215611b5a57611b5961168a565b5b600083013567ffffffffffffffff811115611b7857611b7761168f565b5b611b84858286016118bd565b92509250509250929050565b60006040820190508181036000830152611baa8185611ae8565b90508181036020830152611bbe8184611ae8565b90509392505050565b7f4e487b7100000000000000000000000000000000000000000000000000000000600052601160045260246000fd5b6000611c0182611731565b91507fffffffffffffffffffffffffffffffffffffffffffffffffffffffffffffffff821415611c3457611c33611bc7565b5b600182019050919050565b7f4e487b7100000000000000000000000000000000000000000000000000000000600052603260045260246000fd5b6000611c7982611731565b9150611c8483611731565b9250827fffffffffffffffffffffffffffffffffffffffffffffffffffffffffffffffff03821115611cb957611cb8611bc7565b5b828201905092915050565b6000611ccf82611731565b9150611cda83611731565b925082821015611ced57611cec611bc7565b5b828203905092915050565b7f4e487b7100000000000000000000000000000000000000000000000000000000600052602260045260246000fd5b60006002820490506001821680611d3f57607f821691505b60208210811415611d5357611d52611cf8565b5b50919050565b600081519050611d68816119ef565b92915050565b600060208284031215611d8457611d8361168a565b5b6000611d9284828501611d59565b91505092915050565b600081905092915050565b6000611db182611a88565b611dbb8185611d9b565b9350611dcb818560208601611aa4565b80840191505092915050565b7f5772617070657200000000000000000000000000000000000000000000000000815250565b6000611e098284611da6565b9150611e1482611dd7565b60078201915081905092915050565b6000819050919050565b6000611e48611e43611e3e84611e23565b611817565b611731565b9050919050565b611e5881611e2d565b82525050565b60006060820190508181036000830152611e788186611ae8565b9050611e876020830185611e4f565b611e946040830184611e4f565b949350505050565b600080fd5b7f4e487b7100000000000000000000000000000000000000000000000000000000600052604160045260246000fd5b611ed982611ad7565b810181811067ffffffffffffffff82111715611ef857611ef7611ea1565b5b80604052505050565b6000611f0b611680565b9050611f178282611ed0565b919050565b600067ffffffffffffffff821115611f3757611f36611ea1565b5b611f4082611ad7565b9050602081019050919050565b6000611f60611f5b84611f1c565b611f01565b905082815260208101848484011115611f7c57611f7b611e9c565b5b611f87848285611aa4565b509392505050565b600082601f830112611fa457611fa3611765565b5b8151611fb4848260208601611f4d565b91505092915050565b600060208284031215611fd357611fd261168a565b5b600082015167ffffffffffffffff811115611ff157611ff061168f565b5b611ffd84828501611f8f565b91505092915050565b600081519050919050565b600081905092915050565b600061202782612006565b6120318185612011565b9350612041818560208601611aa4565b80840191505092915050565b6000612059828461201c565b915081905092915050565b60006120708285611da6565b915061207c8284611da6565b91508190509392505050565b60006120948288611da6565b91506120a08287611da6565b91506120ac8286611da6565b91506120b88285611da6565b91506120c48284611da6565b91508190509695505050505050565b6000819050919050565b60006120f86120f36120ee846120d3565b611817565b611731565b9050919050565b612108816120dd565b82525050565b600060608201905081810360008301526121288186611ae8565b905061213760208301856120ff565b61214460408301846120ff565b949350505050565b7f72656e6465725772617070657200000000000000000000000000000000000000600082015250565b6000612182600d83611a93565b915061218d8261214c565b602082019050919050565b600060608201905081810360008301526121b181612175565b90506121c06020830185611e4f565b6121cd6040830184611e4f565b9392505050565b600060608201905081810360008301526121ed81612175565b90506121fc60208301856120ff565b61220960408301846120ff565b9392505050565b600080fd5b600080fd5b600080fd5b60008235600160400383360303811261223b5761223a612210565b5b80830191505092915050565b6000808335600160200384360303811261226457612263612210565b5b80840192508235915067ffffffffffffffff82111561228657612285612215565b5b6020830192506001820236038313156122a2576122a161221a565b5b509250929050565b7f4e487b7100000000000000000000000000000000000000000000000000000000600052601260045260246000fd5b60006122e482611731565b91506122ef83611731565b9250826122ff576122fe6122aa565b5b828204905092915050565b600061231582611731565b915061232083611731565b9250826123305761232f6122aa565b5b82820690509291505056fea2646970667358221220fb0857d239fabfb54ed51e48af24836c911f8f341c7f5ee80c90b9eabfcfb67c64736f6c634300080c0033",
  "linkReferences": {},
  "deployedLinkReferences": {}
}