{
  "_format": "hh-sol-artifact-1",
  "contractName": "Frame",
  "sourceName": "src/services/chain-sim/contracts/Frame.sol",
  "abi": [
    {
      "inputs": [],
      "stateMutability": "nonpayable",
      "type": "constructor"
    },
    {
      "inputs": [
        {
          "internalType": "uint256",
          "name": "",
          "type": "uint256"
        }
      ],
      "name": "assetList",
      "outputs": [
        {
          "internalType": "string",
          "name": "wrapperKey",
          "type": "string"
        },
        {
          "internalType": "string",
          "name": "key",
          "type": "string"
        }
      ],
      "stateMutability": "view",
      "type": "function"
    },
    {
      "inputs": [],
      "name": "assetStorage",
      "outputs": [
        {
          "internalType": "contract IFrameDataStore",
          "name": "",
          "type": "address"
        }
      ],
      "stateMutability": "view",
      "type": "function"
    },
    {
      "inputs": [],
      "name": "assetsCount",
      "outputs": [
        {
          "internalType": "uint256",
          "name": "",
          "type": "uint256"
        }
      ],
      "stateMutability": "view",
      "type": "function"
    },
    {
      "inputs": [],
      "name": "coreDepStorage",
      "outputs": [
        {
          "internalType": "contract IFrameDataStore",
          "name": "",
          "type": "address"
        }
      ],
      "stateMutability": "view",
      "type": "function"
    },
    {
      "inputs": [],
      "name": "depsCount",
      "outputs": [
        {
          "internalType": "uint256",
          "name": "",
          "type": "uint256"
        }
      ],
      "stateMutability": "view",
      "type": "function"
    },
    {
      "inputs": [
        {
          "internalType": "uint256",
          "name": "",
          "type": "uint256"
        }
      ],
      "name": "depsList",
      "outputs": [
        {
          "internalType": "string",
          "name": "wrapperKey",
          "type": "string"
        },
        {
          "internalType": "string",
          "name": "key",
          "type": "string"
        }
      ],
      "stateMutability": "view",
      "type": "function"
    },
    {
      "inputs": [
        {
          "internalType": "address",
          "name": "_coreDepStorage",
          "type": "address"
        },
        {
          "internalType": "address",
          "name": "_assetStorage",
          "type": "address"
        },
        {
          "internalType": "string[2][]",
          "name": "_deps",
          "type": "string[2][]"
        },
        {
          "internalType": "string[2][]",
          "name": "_assets",
          "type": "string[2][]"
        },
        {
          "internalType": "uint256[4][]",
          "name": "_renderIndex",
          "type": "uint256[4][]"
        }
      ],
      "name": "init",
      "outputs": [],
      "stateMutability": "nonpayable",
      "type": "function"
    },
    {
      "inputs": [],
      "name": "initSuccess",
      "outputs": [
        {
          "internalType": "bool",
          "name": "",
          "type": "bool"
        }
      ],
      "stateMutability": "view",
      "type": "function"
    },
    {
      "inputs": [],
      "name": "name",
      "outputs": [
        {
          "internalType": "string",
          "name": "",
          "type": "string"
        }
      ],
      "stateMutability": "view",
      "type": "function"
    },
    {
      "inputs": [
        {
          "internalType": "uint256",
          "name": "",
          "type": "uint256"
        },
        {
          "internalType": "uint256",
          "name": "",
          "type": "uint256"
        }
      ],
      "name": "renderIndex",
      "outputs": [
        {
          "internalType": "uint256",
          "name": "",
          "type": "uint256"
        }
      ],
      "stateMutability": "view",
      "type": "function"
    },
    {
      "inputs": [
        {
          "internalType": "uint256",
          "name": "_rpage",
          "type": "uint256"
        }
      ],
      "name": "renderPage",
      "outputs": [
        {
          "internalType": "string",
          "name": "",
          "type": "string"
        }
      ],
      "stateMutability": "view",
      "type": "function"
    },
    {
      "inputs": [],
      "name": "renderPagesCount",
      "outputs": [
        {
          "internalType": "uint256",
          "name": "",
          "type": "uint256"
        }
      ],
      "stateMutability": "view",
      "type": "function"
    },
    {
      "inputs": [
        {
          "internalType": "string",
          "name": "_name",
          "type": "string"
        }
      ],
      "name": "setName",
      "outputs": [],
      "stateMutability": "nonpayable",
      "type": "function"
    }
  ],
  "bytecode": "0x608060405260405180602001604052806000815250600090805190602001906200002b9291906200005b565b506000600160006101000a81548160ff0219169083151502179055503480156200005457600080fd5b5062000170565b82805462000069906200013a565b90600052602060002090601f0160209004810192826200008d5760008555620000d9565b82601f10620000a857805160ff1916838001178555620000d9565b82800160010185558215620000d9579182015b82811115620000d8578251825591602001919060010190620000bb565b5b509050620000e89190620000ec565b5090565b5b8082111562000107576000816000905550600101620000ed565b5090565b7f4e487b7100000000000000000000000000000000000000000000000000000000600052602260045260246000fd5b600060028204905060018216806200015357607f821691505b602082108114156200016a57620001696200010b565b5b50919050565b61326980620001806000396000f3fe608060405234801561001057600080fd5b50600436106100cf5760003560e01c80637556d1b91161008c578063b5d40c0511610066578063b5d40c0514610217578063c47f002714610248578063cd9df19014610264578063cdb53ac114610282576100cf565b80637556d1b914610198578063827fbc2b146101c8578063a0b4b301146101e6576100cf565b806306fdde03146100d45780631b68226f146100f25780634cb139a6146101105780634f5ea5cc1461012e5780636bd408051461014a5780637037051314610168575b600080fd5b6100dc6102a0565b6040516100e9919061212b565b60405180910390f35b6100fa61032e565b6040516101079190612166565b60405180910390f35b610118610334565b6040516101259190612200565b60405180910390f35b61014860048036038101906101439190612328565b61035a565b005b6101526103fe565b60405161015f9190612166565b60405180910390f35b610182600480360381019061017d9190612430565b610404565b60405161018f9190612166565b60405180910390f35b6101b260048036038101906101ad9190612470565b61042c565b6040516101bf919061212b565b60405180910390f35b6101d0611489565b6040516101dd91906124b8565b60405180910390f35b61020060048036038101906101fb9190612470565b61149c565b60405161020e9291906124d3565b60405180910390f35b610231600480360381019061022c9190612470565b6115d0565b60405161023f9291906124d3565b60405180910390f35b610262600480360381019061025d919061263a565b611704565b005b61026c61176f565b6040516102799190612166565b60405180910390f35b61028a611775565b6040516102979190612200565b60405180910390f35b600080546102ad906126b2565b80601f01602080910402602001604051908101604052809291908181526020018280546102d9906126b2565b80156103265780601f106102fb57610100808354040283529160200191610326565b820191906000526020600020905b81548152906001019060200180831161030957829003601f168201915b505050505081565b60045481565b600260009054906101000a900473ffffffffffffffffffffffffffffffffffffffff1681565b600160009054906101000a900460ff16156103aa576040517f08c379a00000000000000000000000000000000000000000000000000000000081526004016103a190612730565b60405180910390fd5b6103b388611799565b6103bc876117dc565b6103c68686611820565b6103d084846119d7565b6103da8282611b8e565b60018060006101000a81548160ff0219169083151502179055505050505050505050565b60075481565b6008602052816000526040600020816004811061042057600080fd5b01600091509150505481565b6060600754821061044e57604051806020016040528060008152509050611484565b60006008600084815260200190815260200160002060048060200260405190810160405280929190826004801561049a576020028201915b815481526020019060010190808311610486575b505050505090506000816000600481106104b7576104b6612750565b5b602002015190506000826001600481106104d4576104d3612750565b5b602002015190506000836002600481106104f1576104f0612750565b5b6020020151905060008460036004811061050e5761050d612750565b5b60200201519050600060405180602001604052806000815250905060008590505b84811161114a57600061054182611c11565b905060008161055d576004548361055891906127ae565b61055f565b825b905060008261059057600260009054906101000a900473ffffffffffffffffffffffffffffffffffffffff166105b2565b60018054906101000a900473ffffffffffffffffffffffffffffffffffffffff165b90506000836105d357600560008481526020019081526020016000206105e7565b600360008681526020019081526020016000205b604051806040016040529081600082018054610602906126b2565b80601f016020809104026020016040519081016040528092919081815260200182805461062e906126b2565b801561067b5780601f106106505761010080835404028352916020019161067b565b820191906000526020600020905b81548152906001019060200180831161065e57829003601f168201915b50505050508152602001600182018054610694906126b2565b80601f01602080910402602001604051908101604052809291908181526020018280546106c0906126b2565b801561070d5780601f106106e25761010080835404028352916020019161070d565b820191906000526020600020905b8154815290600101906020018083116106f057829003601f168201915b50505050508152505090506000898614905060008b871461072f576000610731565b895b90506000826107bd578473ffffffffffffffffffffffffffffffffffffffff1663d431a42f85602001516040518263ffffffff1660e01b8152600401610777919061212b565b602060405180830381865afa158015610794573d6000803e3d6000fd5b505050506040513d601f19601f820116820180604052508101906107b891906127f7565b6107bf565b895b905060006107f08660018054906101000a900473ffffffffffffffffffffffffffffffffffffffff16878686611c1f565b90508981604051602001610805929190612860565b604051602081830303815290604052995060008880156108325750600160045461082f91906127ae565b8a145b905060006108796040518060400160405280601181526020017f6672616d652d7574696c7340312e302e300000000000000000000000000000008152508860200151611f0e565b905060008873ffffffffffffffffffffffffffffffffffffffff1663d431a42f89602001516040518263ffffffff1660e01b81526004016108ba919061212b565b602060405180830381865afa1580156108d7573d6000803e3d6000fd5b505050506040513d601f19601f820116820180604052508101906108fb91906127f7565b851490508180156109095750805b8015610913575082155b80156109ce57506109cd6003600060018f61092e9190612884565b8152602001908152602001600020600001805461094a906126b2565b80601f0160208091040260200160405190810160405280929190818152602001828054610976906126b2565b80156109c35780601f10610998576101008083540402835291602001916109c3565b820191906000526020600020905b8154815290600101906020018083116109a657829003601f168201915b5050505050611f67565b5b15610d5357600060018054906101000a900473ffffffffffffffffffffffffffffffffffffffff1673ffffffffffffffffffffffffffffffffffffffff166311aa4cba6000806040518363ffffffff1660e01b8152600401610a31929190612961565b600060405180830381865afa158015610a4e573d6000803e3d6000fd5b505050506040513d6000823e3d601f19601f82011682018060405250810190610a779190612a3e565b604051602001610a879190612ace565b604051602081830303815290604052905060005b600454811015610b675781604051602001610ab69190612b0b565b60405160208183030381529060405260036000838152602001908152602001600020600101604051602001610aeb9190612bc5565b604051602081830303815290604052604051602001610b0b929190612860565b60405160208183030381529060405291506001600454610b2b91906127ae565b8114610b545781604051602001610b429190612c11565b60405160208183030381529060405291505b8080610b5f90612c37565b915050610a9b565b508060018054906101000a900473ffffffffffffffffffffffffffffffffffffffff1673ffffffffffffffffffffffffffffffffffffffff166311aa4cba6001806040518363ffffffff1660e01b8152600401610bc5929190612cbb565b600060405180830381865afa158015610be2573d6000803e3d6000fd5b505050506040513d6000823e3d601f19601f82011682018060405250810190610c0b9190612a3e565b604051602001610c1b9190612ace565b604051602081830303815290604052604051602001610c3b929190612860565b60405160208183030381529060405260018054906101000a900473ffffffffffffffffffffffffffffffffffffffff1673ffffffffffffffffffffffffffffffffffffffff166311aa4cba6000806040518363ffffffff1660e01b8152600401610ca6929190612d43565b600060405180830381865afa158015610cc3573d6000803e3d6000fd5b505050506040513d6000823e3d601f19601f82011682018060405250810190610cec9190612a3e565b604051602001610cfc9190612ace565b604051602081830303815290604052604051602001610d1c929190612860565b60405160208183030381529060405290508d81604051602001610d40929190612860565b6040516020818303038152906040529d50505b828015610d5d5750805b1561112c57610d6f8860000151611f67565b15610fa3578c60018054906101000a900473ffffffffffffffffffffffffffffffffffffffff1673ffffffffffffffffffffffffffffffffffffffff166311aa4cba6001806040518363ffffffff1660e01b8152600401610dd1929190612d7f565b600060405180830381865afa158015610dee573d6000803e3d6000fd5b505050506040513d6000823e3d601f19601f82011682018060405250810190610e179190612a3e565b60018054906101000a900473ffffffffffffffffffffffffffffffffffffffff1673ffffffffffffffffffffffffffffffffffffffff166311aa4cba6001806040518363ffffffff1660e01b8152600401610e73929190612e07565b600060405180830381865afa158015610e90573d6000803e3d6000fd5b505050506040513d6000823e3d601f19601f82011682018060405250810190610eb99190612a3e565b60018054906101000a900473ffffffffffffffffffffffffffffffffffffffff1673ffffffffffffffffffffffffffffffffffffffff166311aa4cba6000806040518363ffffffff1660e01b8152600401610f15929190612e8f565b600060405180830381865afa158015610f32573d6000803e3d6000fd5b505050506040513d6000823e3d601f19601f82011682018060405250810190610f5b9190612a3e565b604051602001610f6d93929190612ecb565b604051602081830303815290604052604051602001610f8d929190612860565b6040516020818303038152906040529c5061112b565b8c60018054906101000a900473ffffffffffffffffffffffffffffffffffffffff1673ffffffffffffffffffffffffffffffffffffffff166311aa4cba6001806040518363ffffffff1660e01b8152600401611000929190612e07565b600060405180830381865afa15801561101d573d6000803e3d6000fd5b505050506040513d6000823e3d601f19601f820116820180604052508101906110469190612a3e565b60018054906101000a900473ffffffffffffffffffffffffffffffffffffffff1673ffffffffffffffffffffffffffffffffffffffff166311aa4cba6000806040518363ffffffff1660e01b81526004016110a2929190612e8f565b600060405180830381865afa1580156110bf573d6000803e3d6000fd5b505050506040513d6000823e3d601f19601f820116820180604052508101906110e89190612a3e565b6040516020016110f9929190612efc565b604051602081830303815290604052604051602001611119929190612860565b6040516020818303038152906040529c505b5b5050505050505050505050808061114290612c37565b91505061052f565b5060008814156112dc5760018054906101000a900473ffffffffffffffffffffffffffffffffffffffff1673ffffffffffffffffffffffffffffffffffffffff166311aa4cba6000806040518363ffffffff1660e01b81526004016111b0929190612f6c565b600060405180830381865afa1580156111cd573d6000803e3d6000fd5b505050506040513d6000823e3d601f19601f820116820180604052508101906111f69190612a3e565b60018054906101000a900473ffffffffffffffffffffffffffffffffffffffff1673ffffffffffffffffffffffffffffffffffffffff166311aa4cba6000806040518363ffffffff1660e01b8152600401611252929190612fa8565b600060405180830381865afa15801561126f573d6000803e3d6000fd5b505050506040513d6000823e3d601f19601f820116820180604052508101906112989190612a3e565b6040516020016112a9929190612efc565b604051602081830303815290604052816040516020016112ca929190612860565b60405160208183030381529060405290505b60016007546112eb91906127ae565b88141561147a578060018054906101000a900473ffffffffffffffffffffffffffffffffffffffff1673ffffffffffffffffffffffffffffffffffffffff166311aa4cba6001806040518363ffffffff1660e01b815260040161134f929190612fe4565b600060405180830381865afa15801561136c573d6000803e3d6000fd5b505050506040513d6000823e3d601f19601f820116820180604052508101906113959190612a3e565b60018054906101000a900473ffffffffffffffffffffffffffffffffffffffff1673ffffffffffffffffffffffffffffffffffffffff166311aa4cba6001806040518363ffffffff1660e01b81526004016113f1929190613020565b600060405180830381865afa15801561140e573d6000803e3d6000fd5b505050506040513d6000823e3d601f19601f820116820180604052508101906114379190612a3e565b604051602001611448929190612efc565b604051602081830303815290604052604051602001611468929190612860565b60405160208183030381529060405290505b8096505050505050505b919050565b600160009054906101000a900460ff1681565b60056020528060005260406000206000915090508060000180546114bf906126b2565b80601f01602080910402602001604051908101604052809291908181526020018280546114eb906126b2565b80156115385780601f1061150d57610100808354040283529160200191611538565b820191906000526020600020905b81548152906001019060200180831161151b57829003601f168201915b50505050509080600101805461154d906126b2565b80601f0160208091040260200160405190810160405280929190818152602001828054611579906126b2565b80156115c65780601f1061159b576101008083540402835291602001916115c6565b820191906000526020600020905b8154815290600101906020018083116115a957829003601f168201915b5050505050905082565b60036020528060005260406000206000915090508060000180546115f3906126b2565b80601f016020809104026020016040519081016040528092919081815260200182805461161f906126b2565b801561166c5780601f106116415761010080835404028352916020019161166c565b820191906000526020600020905b81548152906001019060200180831161164f57829003601f168201915b505050505090806001018054611681906126b2565b80601f01602080910402602001604051908101604052809291908181526020018280546116ad906126b2565b80156116fa5780601f106116cf576101008083540402835291602001916116fa565b820191906000526020600020905b8154815290600101906020018083116116dd57829003601f168201915b5050505050905082565b600360008054611713906126b2565b905010611755576040517f08c379a000000000000000000000000000000000000000000000000000000000815260040161174c906130a8565b60405180910390fd5b806000908051906020019061176b929190611faf565b5050565b60065481565b60018054906101000a900473ffffffffffffffffffffffffffffffffffffffff1681565b806001806101000a81548173ffffffffffffffffffffffffffffffffffffffff021916908373ffffffffffffffffffffffffffffffffffffffff16021790555050565b80600260006101000a81548173ffffffffffffffffffffffffffffffffffffffff021916908373ffffffffffffffffffffffffffffffffffffffff16021790555050565b60005b828290508110156119d257604051806040016040528084848481811061184c5761184b612750565b5b905060200281019061185e91906130d7565b60006002811061187157611870612750565b5b60200281019061188191906130ff565b8080601f016020809104026020016040519081016040528093929190818152602001838380828437600081840152601f19601f8201169050808301925050505050505081526020018484848181106118dc576118db612750565b5b90506020028101906118ee91906130d7565b60016002811061190157611900612750565b5b60200281019061191191906130ff565b8080601f016020809104026020016040519081016040528093929190818152602001838380828437600081840152601f19601f82011690508083019250505050505050815250600360008381526020019081526020016000206000820151816000019080519060200190611986929190611faf565b5060208201518160010190805190602001906119a3929190611faf565b50905050600460008154809291906119ba90612c37565b919050555080806119ca90612c37565b915050611823565b505050565b60005b82829050811015611b89576040518060400160405280848484818110611a0357611a02612750565b5b9050602002810190611a1591906130d7565b600060028110611a2857611a27612750565b5b602002810190611a3891906130ff565b8080601f016020809104026020016040519081016040528093929190818152602001838380828437600081840152601f19601f820116905080830192505050505050508152602001848484818110611a9357611a92612750565b5b9050602002810190611aa591906130d7565b600160028110611ab857611ab7612750565b5b602002810190611ac891906130ff565b8080601f016020809104026020016040519081016040528093929190818152602001838380828437600081840152601f19601f82011690508083019250505050505050815250600560008381526020019081526020016000206000820151816000019080519060200190611b3d929190611faf565b506020820151816001019080519060200190611b5a929190611faf565b5090505060066000815480929190611b7190612c37565b91905055508080611b8190612c37565b9150506119da565b505050565b60005b82829050811015611c025760076000815480929190611baf90612c37565b9190505550828282818110611bc757611bc6612750565b5b90506080020160086000838152602001908152602001600020906004611bee929190612035565b508080611bfa90612c37565b915050611b91565b50818190506007819055505050565b600060045482109050919050565b606060006040518060200160405280600081525090506000841415611ce8578573ffffffffffffffffffffffffffffffffffffffff166311aa4cba86600001516000806040518463ffffffff1660e01b8152600401611c8093929190613162565b600060405180830381865afa158015611c9d573d6000803e3d6000fd5b505050506040513d6000823e3d601f19601f82011682018060405250810190611cc69190612a3e565b604051602001611cd69190612ace565b60405160208183030381529060405290505b808773ffffffffffffffffffffffffffffffffffffffff166311aa4cba876020015187876040518463ffffffff1660e01b8152600401611d2a939291906131a0565b600060405180830381865afa158015611d47573d6000803e3d6000fd5b505050506040513d6000823e3d601f19601f82011682018060405250810190611d709190612a3e565b604051602001611d809190612ace565b604051602081830303815290604052604051602001611da0929190612860565b60405160208183030381529060405290508673ffffffffffffffffffffffffffffffffffffffff1663d431a42f86602001516040518263ffffffff1660e01b8152600401611dee919061212b565b602060405180830381865afa158015611e0b573d6000803e3d6000fd5b505050506040513d601f19601f82011682018060405250810190611e2f91906127f7565b831415611f0157808673ffffffffffffffffffffffffffffffffffffffff166311aa4cba87600001516001806040518463ffffffff1660e01b8152600401611e79939291906131de565b600060405180830381865afa158015611e96573d6000803e3d6000fd5b505050506040513d6000823e3d601f19601f82011682018060405250810190611ebf9190612a3e565b604051602001611ecf9190612ace565b604051602081830303815290604052604051602001611eef929190612860565b60405160208183030381529060405290505b8091505095945050505050565b600081604051602001611f21919061321c565b6040516020818303038152906040528051906020012083604051602001611f48919061321c565b6040516020818303038152906040528051906020012014905092915050565b6000611fa8826040518060400160405280601981526020017f6236342d677a2d696d706f72746d61702d6a732d777261703300000000000000815250611f0e565b9050919050565b828054611fbb906126b2565b90600052602060002090601f016020900481019282611fdd5760008555612024565b82601f10611ff657805160ff1916838001178555612024565b82800160010185558215612024579182015b82811115612023578251825591602001919060010190612008565b5b5090506120319190612075565b5090565b8260048101928215612064579160200282015b82811115612063578235825591602001919060010190612048565b5b5090506120719190612075565b5090565b5b8082111561208e576000816000905550600101612076565b5090565b600081519050919050565b600082825260208201905092915050565b60005b838110156120cc5780820151818401526020810190506120b1565b838111156120db576000848401525b50505050565b6000601f19601f8301169050919050565b60006120fd82612092565b612107818561209d565b93506121178185602086016120ae565b612120816120e1565b840191505092915050565b6000602082019050818103600083015261214581846120f2565b905092915050565b6000819050919050565b6121608161214d565b82525050565b600060208201905061217b6000830184612157565b92915050565b600073ffffffffffffffffffffffffffffffffffffffff82169050919050565b6000819050919050565b60006121c66121c16121bc84612181565b6121a1565b612181565b9050919050565b60006121d8826121ab565b9050919050565b60006121ea826121cd565b9050919050565b6121fa816121df565b82525050565b600060208201905061221560008301846121f1565b92915050565b6000604051905090565b600080fd5b600080fd5b600061223a82612181565b9050919050565b61224a8161222f565b811461225557600080fd5b50565b60008135905061226781612241565b92915050565b600080fd5b600080fd5b600080fd5b60008083601f8401126122925761229161226d565b5b8235905067ffffffffffffffff8111156122af576122ae612272565b5b6020830191508360208202830111156122cb576122ca612277565b5b9250929050565b60008083601f8401126122e8576122e761226d565b5b8235905067ffffffffffffffff81111561230557612304612272565b5b60208301915083608082028301111561232157612320612277565b5b9250929050565b60008060008060008060008060a0898b03121561234857612347612225565b5b60006123568b828c01612258565b98505060206123678b828c01612258565b975050604089013567ffffffffffffffff8111156123885761238761222a565b5b6123948b828c0161227c565b9650965050606089013567ffffffffffffffff8111156123b7576123b661222a565b5b6123c38b828c0161227c565b9450945050608089013567ffffffffffffffff8111156123e6576123e561222a565b5b6123f28b828c016122d2565b92509250509295985092959890939650565b61240d8161214d565b811461241857600080fd5b50565b60008135905061242a81612404565b92915050565b6000806040838503121561244757612446612225565b5b60006124558582860161241b565b92505060206124668582860161241b565b9150509250929050565b60006020828403121561248657612485612225565b5b60006124948482850161241b565b91505092915050565b60008115159050919050565b6124b28161249d565b82525050565b60006020820190506124cd60008301846124a9565b92915050565b600060408201905081810360008301526124ed81856120f2565b9050818103602083015261250181846120f2565b90509392505050565b600080fd5b7f4e487b7100000000000000000000000000000000000000000000000000000000600052604160045260246000fd5b612547826120e1565b810181811067ffffffffffffffff821117156125665761256561250f565b5b80604052505050565b600061257961221b565b9050612585828261253e565b919050565b600067ffffffffffffffff8211156125a5576125a461250f565b5b6125ae826120e1565b9050602081019050919050565b82818337600083830152505050565b60006125dd6125d88461258a565b61256f565b9050828152602081018484840111156125f9576125f861250a565b5b6126048482856125bb565b509392505050565b600082601f8301126126215761262061226d565b5b81356126318482602086016125ca565b91505092915050565b6000602082840312156126505761264f612225565b5b600082013567ffffffffffffffff81111561266e5761266d61222a565b5b61267a8482850161260c565b91505092915050565b7f4e487b7100000000000000000000000000000000000000000000000000000000600052602260045260246000fd5b600060028204905060018216806126ca57607f821691505b602082108114156126de576126dd612683565b5b50919050565b7f4672616d653a2043616e27742072652d696e697420636f6e7472616374000000600082015250565b600061271a601d8361209d565b9150612725826126e4565b602082019050919050565b600060208201905081810360008301526127498161270d565b9050919050565b7f4e487b7100000000000000000000000000000000000000000000000000000000600052603260045260246000fd5b7f4e487b7100000000000000000000000000000000000000000000000000000000600052601160045260246000fd5b60006127b98261214d565b91506127c48361214d565b9250828210156127d7576127d661277f565b5b828203905092915050565b6000815190506127f181612404565b92915050565b60006020828403121561280d5761280c612225565b5b600061281b848285016127e2565b91505092915050565b600081905092915050565b600061283a82612092565b6128448185612824565b93506128548185602086016120ae565b80840191505092915050565b600061286c828561282f565b9150612878828461282f565b91508190509392505050565b600061288f8261214d565b915061289a8361214d565b9250827fffffffffffffffffffffffffffffffffffffffffffffffffffffffffffffffff038211156128cf576128ce61277f565b5b828201905092915050565b7f696d706f72742d6b6579732d6a732d7772617040312e302e3000000000000000600082015250565b600061291060198361209d565b915061291b826128da565b602082019050919050565b6000819050919050565b600061294b61294661294184612926565b6121a1565b61214d565b9050919050565b61295b81612930565b82525050565b6000606082019050818103600083015261297a81612903565b90506129896020830185612952565b6129966040830184612952565b9392505050565b600067ffffffffffffffff8211156129b8576129b761250f565b5b6129c1826120e1565b9050602081019050919050565b60006129e16129dc8461299d565b61256f565b9050828152602081018484840111156129fd576129fc61250a565b5b612a088482856120ae565b509392505050565b600082601f830112612a2557612a2461226d565b5b8151612a358482602086016129ce565b91505092915050565b600060208284031215612a5457612a53612225565b5b600082015167ffffffffffffffff811115612a7257612a7161222a565b5b612a7e84828501612a10565b91505092915050565b600081519050919050565b600081905092915050565b6000612aa882612a87565b612ab28185612a92565b9350612ac28185602086016120ae565b80840191505092915050565b6000612ada8284612a9d565b915081905092915050565b7f2200000000000000000000000000000000000000000000000000000000000000815250565b6000612b17828461282f565b9150612b2282612ae5565b60018201915081905092915050565b60008190508160005260206000209050919050565b60008154612b53816126b2565b612b5d8186612824565b94506001821660008114612b785760018114612b8957612bbc565b60ff19831686528186019350612bbc565b612b9285612b31565b60005b83811015612bb457815481890152600182019150602081019050612b95565b838801955050505b50505092915050565b6000612bd18284612b46565b9150612bdc82612ae5565b60018201915081905092915050565b7f2c00000000000000000000000000000000000000000000000000000000000000815250565b6000612c1d828461282f565b9150612c2882612beb565b60018201915081905092915050565b6000612c428261214d565b91507fffffffffffffffffffffffffffffffffffffffffffffffffffffffffffffffff821415612c7557612c7461277f565b5b600182019050919050565b6000819050919050565b6000612ca5612ca0612c9b84612c80565b6121a1565b61214d565b9050919050565b612cb581612c8a565b82525050565b60006060820190508181036000830152612cd481612903565b9050612ce36020830185612cac565b612cf06040830184612cac565b9392505050565b7f696d706f72746d61702d696e69742d6a732d7772617040312e302e3000000000600082015250565b6000612d2d601c8361209d565b9150612d3882612cf7565b602082019050919050565b60006060820190508181036000830152612d5c81612d20565b9050612d6b6020830185612952565b612d786040830184612952565b9392505050565b60006060820190508181036000830152612d9881612d20565b9050612da76020830185612cac565b612db46040830184612cac565b9392505050565b7f686561642d68746d6c2d7772617040312e302e30000000000000000000000000600082015250565b6000612df160148361209d565b9150612dfc82612dbb565b602082019050919050565b60006060820190508181036000830152612e2081612de4565b9050612e2f6020830185612cac565b612e3c6040830184612cac565b9392505050565b7f626f64792d68746d6c2d7772617040312e302e30000000000000000000000000600082015250565b6000612e7960148361209d565b9150612e8482612e43565b602082019050919050565b60006060820190508181036000830152612ea881612e6c565b9050612eb76020830185612952565b612ec46040830184612952565b9392505050565b6000612ed78286612a9d565b9150612ee38285612a9d565b9150612eef8284612a9d565b9150819050949350505050565b6000612f088285612a9d565b9150612f148284612a9d565b91508190509392505050565b7f68746d6c2d7772617040312e302e300000000000000000000000000000000000600082015250565b6000612f56600f8361209d565b9150612f6182612f20565b602082019050919050565b60006060820190508181036000830152612f8581612f49565b9050612f946020830185612952565b612fa16040830184612952565b9392505050565b60006060820190508181036000830152612fc181612de4565b9050612fd06020830185612952565b612fdd6040830184612952565b9392505050565b60006060820190508181036000830152612ffd81612e6c565b905061300c6020830185612cac565b6130196040830184612cac565b9392505050565b6000606082019050818103600083015261303981612f49565b90506130486020830185612cac565b6130556040830184612cac565b9392505050565b7f4672616d653a204e616d6520616c726561647920736574000000000000000000600082015250565b600061309260178361209d565b915061309d8261305c565b602082019050919050565b600060208201905081810360008301526130c181613085565b9050919050565b600080fd5b600080fd5b600080fd5b6000823560016040038336030381126130f3576130f26130c8565b5b80830191505092915050565b6000808335600160200384360303811261311c5761311b6130c8565b5b80840192508235915067ffffffffffffffff82111561313e5761313d6130cd565b5b60208301925060018202360383131561315a576131596130d2565b5b509250929050565b6000606082019050818103600083015261317c81866120f2565b905061318b6020830185612952565b6131986040830184612952565b949350505050565b600060608201905081810360008301526131ba81866120f2565b90506131c96020830185612157565b6131d66040830184612157565b949350505050565b600060608201905081810360008301526131f881866120f2565b90506132076020830185612cac565b6132146040830184612cac565b949350505050565b6000613228828461282f565b91508190509291505056fea2646970667358221220d57e9cf3f99e5c3851eecc38ac805871bac0d36847d62ca8ffe1d5317663229d64736f6c634300080c0033",
  "linkReferences": {},
  "deployedLinkReferences": {}
}