{
  "_format": "hh-sol-artifact-1",
  "contractName": "Frame",
  "sourceName": "src/contracts/Frame.sol",
  "abi": [
    {
      "inputs": [],
      "stateMutability": "nonpayable",
      "type": "constructor"
    },
    {
      "anonymous": false,
      "inputs": [
        {
          "indexed": true,
          "internalType": "address",
          "name": "owner",
          "type": "address"
        },
        {
          "indexed": true,
          "internalType": "address",
          "name": "approved",
          "type": "address"
        },
        {
          "indexed": true,
          "internalType": "uint256",
          "name": "tokenId",
          "type": "uint256"
        }
      ],
      "name": "Approval",
      "type": "event"
    },
    {
      "anonymous": false,
      "inputs": [
        {
          "indexed": true,
          "internalType": "address",
          "name": "owner",
          "type": "address"
        },
        {
          "indexed": true,
          "internalType": "address",
          "name": "operator",
          "type": "address"
        },
        {
          "indexed": false,
          "internalType": "bool",
          "name": "approved",
          "type": "bool"
        }
      ],
      "name": "ApprovalForAll",
      "type": "event"
    },
    {
      "anonymous": false,
      "inputs": [
        {
          "indexed": true,
          "internalType": "address",
          "name": "from",
          "type": "address"
        },
        {
          "indexed": true,
          "internalType": "address",
          "name": "to",
          "type": "address"
        },
        {
          "indexed": true,
          "internalType": "uint256",
          "name": "tokenId",
          "type": "uint256"
        }
      ],
      "name": "Transfer",
      "type": "event"
    },
    {
      "inputs": [
        {
          "internalType": "address",
          "name": "to",
          "type": "address"
        },
        {
          "internalType": "uint256",
          "name": "tokenId",
          "type": "uint256"
        }
      ],
      "name": "approve",
      "outputs": [],
      "stateMutability": "nonpayable",
      "type": "function"
    },
    {
      "inputs": [
        {
          "internalType": "address",
          "name": "owner",
          "type": "address"
        }
      ],
      "name": "balanceOf",
      "outputs": [
        {
          "internalType": "uint256",
          "name": "",
          "type": "uint256"
        }
      ],
      "stateMutability": "view",
      "type": "function"
    },
    {
      "inputs": [],
      "name": "bufferSize",
      "outputs": [
        {
          "internalType": "uint256",
          "name": "",
          "type": "uint256"
        }
      ],
      "stateMutability": "view",
      "type": "function"
    },
    {
      "inputs": [
        {
          "internalType": "uint256",
          "name": "tokenId",
          "type": "uint256"
        }
      ],
      "name": "getApproved",
      "outputs": [
        {
          "internalType": "address",
          "name": "",
          "type": "address"
        }
      ],
      "stateMutability": "view",
      "type": "function"
    },
    {
      "inputs": [
        {
          "internalType": "address",
          "name": "owner",
          "type": "address"
        },
        {
          "internalType": "address",
          "name": "operator",
          "type": "address"
        }
      ],
      "name": "isApprovedForAll",
      "outputs": [
        {
          "internalType": "bool",
          "name": "",
          "type": "bool"
        }
      ],
      "stateMutability": "view",
      "type": "function"
    },
    {
      "inputs": [
        {
          "internalType": "uint256",
          "name": "_id",
          "type": "uint256"
        },
        {
          "internalType": "address",
          "name": "_owner",
          "type": "address"
        }
      ],
      "name": "mintIdForOwner",
      "outputs": [],
      "stateMutability": "nonpayable",
      "type": "function"
    },
    {
      "inputs": [],
      "name": "name",
      "outputs": [
        {
          "internalType": "string",
          "name": "",
          "type": "string"
        }
      ],
      "stateMutability": "view",
      "type": "function"
    },
    {
      "inputs": [
        {
          "internalType": "uint256",
          "name": "tokenId",
          "type": "uint256"
        }
      ],
      "name": "ownerOf",
      "outputs": [
        {
          "internalType": "address",
          "name": "",
          "type": "address"
        }
      ],
      "stateMutability": "view",
      "type": "function"
    },
    {
      "inputs": [
        {
          "internalType": "uint256",
          "name": "",
          "type": "uint256"
        }
      ],
      "name": "requests",
      "outputs": [
        {
          "internalType": "string",
          "name": "name",
          "type": "string"
        },
        {
          "internalType": "address",
          "name": "contractAddress",
          "type": "address"
        },
        {
          "internalType": "bytes",
          "name": "contractData",
          "type": "bytes"
        },
        {
          "internalType": "uint8",
          "name": "wrapType",
          "type": "uint8"
        },
        {
          "internalType": "bytes",
          "name": "wrapPrefix",
          "type": "bytes"
        },
        {
          "internalType": "bytes",
          "name": "wrapSuffix",
          "type": "bytes"
        },
        {
          "internalType": "bytes",
          "name": "scriptContent",
          "type": "bytes"
        }
      ],
      "stateMutability": "view",
      "type": "function"
    },
    {
      "inputs": [
        {
          "internalType": "address",
          "name": "from",
          "type": "address"
        },
        {
          "internalType": "address",
          "name": "to",
          "type": "address"
        },
        {
          "internalType": "uint256",
          "name": "tokenId",
          "type": "uint256"
        }
      ],
      "name": "safeTransferFrom",
      "outputs": [],
      "stateMutability": "nonpayable",
      "type": "function"
    },
    {
      "inputs": [
        {
          "internalType": "address",
          "name": "from",
          "type": "address"
        },
        {
          "internalType": "address",
          "name": "to",
          "type": "address"
        },
        {
          "internalType": "uint256",
          "name": "tokenId",
          "type": "uint256"
        },
        {
          "internalType": "bytes",
          "name": "data",
          "type": "bytes"
        }
      ],
      "name": "safeTransferFrom",
      "outputs": [],
      "stateMutability": "nonpayable",
      "type": "function"
    },
    {
      "inputs": [],
      "name": "scriptyBuilderAddress",
      "outputs": [
        {
          "internalType": "address",
          "name": "",
          "type": "address"
        }
      ],
      "stateMutability": "view",
      "type": "function"
    },
    {
      "inputs": [],
      "name": "scriptyStorageAddress",
      "outputs": [
        {
          "internalType": "address",
          "name": "",
          "type": "address"
        }
      ],
      "stateMutability": "view",
      "type": "function"
    },
    {
      "inputs": [
        {
          "internalType": "address",
          "name": "operator",
          "type": "address"
        },
        {
          "internalType": "bool",
          "name": "approved",
          "type": "bool"
        }
      ],
      "name": "setApprovalForAll",
      "outputs": [],
      "stateMutability": "nonpayable",
      "type": "function"
    },
    {
      "inputs": [
        {
          "internalType": "string",
          "name": "nameString",
          "type": "string"
        }
      ],
      "name": "setName",
      "outputs": [],
      "stateMutability": "nonpayable",
      "type": "function"
    },
    {
      "inputs": [
        {
          "internalType": "address",
          "name": "_scriptyStorageAddress",
          "type": "address"
        },
        {
          "internalType": "address",
          "name": "_scriptyBuilderAddress",
          "type": "address"
        },
        {
          "internalType": "uint256",
          "name": "_bufferSize",
          "type": "uint256"
        },
        {
          "components": [
            {
              "internalType": "string",
              "name": "name",
              "type": "string"
            },
            {
              "internalType": "address",
              "name": "contractAddress",
              "type": "address"
            },
            {
              "internalType": "bytes",
              "name": "contractData",
              "type": "bytes"
            },
            {
              "internalType": "uint8",
              "name": "wrapType",
              "type": "uint8"
            },
            {
              "internalType": "bytes",
              "name": "wrapPrefix",
              "type": "bytes"
            },
            {
              "internalType": "bytes",
              "name": "wrapSuffix",
              "type": "bytes"
            },
            {
              "internalType": "bytes",
              "name": "scriptContent",
              "type": "bytes"
            }
          ],
          "internalType": "struct WrappedScriptRequest[]",
          "name": "_requests",
          "type": "tuple[]"
        }
      ],
      "name": "setParams",
      "outputs": [],
      "stateMutability": "nonpayable",
      "type": "function"
    },
    {
      "inputs": [
        {
          "internalType": "string",
          "name": "symbolString",
          "type": "string"
        }
      ],
      "name": "setSymbol",
      "outputs": [],
      "stateMutability": "nonpayable",
      "type": "function"
    },
    {
      "inputs": [
        {
          "internalType": "bytes4",
          "name": "interfaceId",
          "type": "bytes4"
        }
      ],
      "name": "supportsInterface",
      "outputs": [
        {
          "internalType": "bool",
          "name": "",
          "type": "bool"
        }
      ],
      "stateMutability": "view",
      "type": "function"
    },
    {
      "inputs": [],
      "name": "symbol",
      "outputs": [
        {
          "internalType": "string",
          "name": "",
          "type": "string"
        }
      ],
      "stateMutability": "view",
      "type": "function"
    },
    {
      "inputs": [
        {
          "internalType": "uint256",
          "name": "",
          "type": "uint256"
        }
      ],
      "name": "tokenURI",
      "outputs": [
        {
          "internalType": "string",
          "name": "",
          "type": "string"
        }
      ],
      "stateMutability": "view",
      "type": "function"
    },
    {
      "inputs": [
        {
          "internalType": "address",
          "name": "from",
          "type": "address"
        },
        {
          "internalType": "address",
          "name": "to",
          "type": "address"
        },
        {
          "internalType": "uint256",
          "name": "tokenId",
          "type": "uint256"
        }
      ],
      "name": "transferFrom",
      "outputs": [],
      "stateMutability": "nonpayable",
      "type": "function"
    }
  ],
  "bytecode": "0x608060405234801561001057600080fd5b50613cee806100206000396000f3fe608060405234801561001057600080fd5b50600436106101375760003560e01c806395d89b41116100b8578063b88d4fde1161007c578063b88d4fde14610352578063bacef6691461036e578063c47f00271461038a578063c87b56dd146103a6578063e3b71f87146103d6578063e985e9c5146103f457610137565b806395d89b41146102c05780639c2c770b146102de578063a22cb465146102fc578063a9cb35ae14610318578063b84c82461461033657610137565b806342842e0e116100ff57806342842e0e146101f25780634b7cf0491461020e5780636352211e1461022a57806370a082311461025a57806381d12c581461028a57610137565b806301ffc9a71461013c57806306fdde031461016c578063081812fc1461018a578063095ea7b3146101ba57806323b872dd146101d6575b600080fd5b61015660048036038101906101519190611e61565b610424565b6040516101639190611ea9565b60405180910390f35b610174610506565b6040516101819190611f54565b60405180910390f35b6101a4600480360381019061019f9190611fac565b610598565b6040516101b1919061201a565b60405180910390f35b6101d460048036038101906101cf9190612061565b6105de565b005b6101f060048036038101906101eb91906120a1565b6106f5565b005b61020c600480360381019061020791906120a1565b610755565b005b610228600480360381019061022391906120f4565b610775565b005b610244600480360381019061023f9190611fac565b610783565b604051610251919061201a565b60405180910390f35b610274600480360381019061026f9190612134565b610809565b6040516102819190612170565b60405180910390f35b6102a4600480360381019061029f9190611fac565b6108c0565b6040516102b797969594939291906121fc565b60405180910390f35b6102c8610be7565b6040516102d59190611f54565b60405180910390f35b6102e6610c79565b6040516102f39190612170565b60405180910390f35b610316600480360381019061031191906122ba565b610c7f565b005b610320610c95565b60405161032d919061201a565b60405180910390f35b610350600480360381019061034b919061242f565b610cbb565b005b61036c60048036038101906103679190612519565b610d1f565b005b610388600480360381019061038391906127f8565b610d81565b005b6103a4600480360381019061039f919061242f565b610f4e565b005b6103c060048036038101906103bb9190611fac565b610fb1565b6040516103cd9190611f54565b60405180910390f35b6103de611085565b6040516103eb919061201a565b60405180910390f35b61040e6004803603810190610409919061287b565b6110ab565b60405161041b9190611ea9565b60405180910390f35b60007ffc9fdaac000000000000000000000000000000000000000000000000000000007bffffffffffffffffffffffffffffffffffffffffffffffffffffffff1916827bffffffffffffffffffffffffffffffffffffffffffffffffffffffff191614806104ef57507f5b5e139f000000000000000000000000000000000000000000000000000000007bffffffffffffffffffffffffffffffffffffffffffffffffffffffff1916827bffffffffffffffffffffffffffffffffffffffffffffffffffffffff1916145b806104ff57506104fe8261113f565b5b9050919050565b606060008054610515906128ea565b80601f0160208091040260200160405190810160405280929190818152602001828054610541906128ea565b801561058e5780601f106105635761010080835404028352916020019161058e565b820191906000526020600020905b81548152906001019060200180831161057157829003601f168201915b5050505050905090565b60006105a3826111a9565b6004600083815260200190815260200160002060009054906101000a900473ffffffffffffffffffffffffffffffffffffffff169050919050565b60006105e982610783565b90508073ffffffffffffffffffffffffffffffffffffffff168373ffffffffffffffffffffffffffffffffffffffff1603610659576040517f08c379a00000000000000000000000000000000000000000000000000000000081526004016106509061298d565b60405180910390fd5b8073ffffffffffffffffffffffffffffffffffffffff166106786111f4565b73ffffffffffffffffffffffffffffffffffffffff1614806106a757506106a6816106a16111f4565b6110ab565b5b6106e6576040517f08c379a00000000000000000000000000000000000000000000000000000000081526004016106dd90612a45565b60405180910390fd5b6106f083836111fc565b505050565b6107066107006111f4565b826112b5565b610745576040517f08c379a000000000000000000000000000000000000000000000000000000000815260040161073c90612ad7565b60405180910390fd5b61075083838361134a565b505050565b61077083838360405180602001604052806000815250610d1f565b505050565b61077f8183611643565b5050565b60008061078f83611661565b9050600073ffffffffffffffffffffffffffffffffffffffff168173ffffffffffffffffffffffffffffffffffffffff1603610800576040517f08c379a00000000000000000000000000000000000000000000000000000000081526004016107f790612b69565b60405180910390fd5b80915050919050565b60008073ffffffffffffffffffffffffffffffffffffffff168273ffffffffffffffffffffffffffffffffffffffff1603610879576040517f08c379a000000000000000000000000000000000000000000000000000000000815260040161087090612bfb565b60405180910390fd5b600360008373ffffffffffffffffffffffffffffffffffffffff1673ffffffffffffffffffffffffffffffffffffffff168152602001908152602001600020549050919050565b600981815481106108d057600080fd5b90600052602060002090600702016000915090508060000180546108f3906128ea565b80601f016020809104026020016040519081016040528092919081815260200182805461091f906128ea565b801561096c5780601f106109415761010080835404028352916020019161096c565b820191906000526020600020905b81548152906001019060200180831161094f57829003601f168201915b5050505050908060010160009054906101000a900473ffffffffffffffffffffffffffffffffffffffff16908060020180546109a7906128ea565b80601f01602080910402602001604051908101604052809291908181526020018280546109d3906128ea565b8015610a205780601f106109f557610100808354040283529160200191610a20565b820191906000526020600020905b815481529060010190602001808311610a0357829003601f168201915b5050505050908060030160009054906101000a900460ff1690806004018054610a48906128ea565b80601f0160208091040260200160405190810160405280929190818152602001828054610a74906128ea565b8015610ac15780601f10610a9657610100808354040283529160200191610ac1565b820191906000526020600020905b815481529060010190602001808311610aa457829003601f168201915b505050505090806005018054610ad6906128ea565b80601f0160208091040260200160405190810160405280929190818152602001828054610b02906128ea565b8015610b4f5780601f10610b2457610100808354040283529160200191610b4f565b820191906000526020600020905b815481529060010190602001808311610b3257829003601f168201915b505050505090806006018054610b64906128ea565b80601f0160208091040260200160405190810160405280929190818152602001828054610b90906128ea565b8015610bdd5780601f10610bb257610100808354040283529160200191610bdd565b820191906000526020600020905b815481529060010190602001808311610bc057829003601f168201915b5050505050905087565b606060018054610bf6906128ea565b80601f0160208091040260200160405190810160405280929190818152602001828054610c22906128ea565b8015610c6f5780601f10610c4457610100808354040283529160200191610c6f565b820191906000526020600020905b815481529060010190602001808311610c5257829003601f168201915b5050505050905090565b60085481565b610c91610c8a6111f4565b838361169e565b5050565b600660009054906101000a900473ffffffffffffffffffffffffffffffffffffffff1681565b600060018054610cca906128ea565b905014610d0c576040517f08c379a0000000000000000000000000000000000000000000000000000000008152600401610d0390612c8d565b60405180910390fd5b8060019081610d1b9190612e59565b5050565b610d30610d2a6111f4565b836112b5565b610d6f576040517f08c379a0000000000000000000000000000000000000000000000000000000008152600401610d6690612ad7565b60405180910390fd5b610d7b8484848461180a565b50505050565b83600660006101000a81548173ffffffffffffffffffffffffffffffffffffffff021916908373ffffffffffffffffffffffffffffffffffffffff16021790555082600760006101000a81548173ffffffffffffffffffffffffffffffffffffffff021916908373ffffffffffffffffffffffffffffffffffffffff1602179055508160088190555060005b8151811015610f47576009828281518110610e2b57610e2a612f2b565b5b602002602001015190806001815401808255809150506001900390600052602060002090600702016000909190919091506000820151816000019081610e719190612e59565b5060208201518160010160006101000a81548173ffffffffffffffffffffffffffffffffffffffff021916908373ffffffffffffffffffffffffffffffffffffffff1602179055506040820151816002019081610ece9190612fb5565b5060608201518160030160006101000a81548160ff021916908360ff1602179055506080820151816004019081610f059190612fb5565b5060a0820151816005019081610f1b9190612fb5565b5060c0820151816006019081610f319190612fb5565b5050508080610f3f906130b6565b915050610e0d565b5050505050565b6000808054610f5c906128ea565b905014610f9e576040517f08c379a0000000000000000000000000000000000000000000000000000000008152600401610f9590613170565b60405180910390fd5b8060009081610fad9190612e59565b5050565b60606000600760009054906101000a900473ffffffffffffffffffffffffffffffffffffffff1673ffffffffffffffffffffffffffffffffffffffff1663b4f7d41e60096008546040518363ffffffff1660e01b81526004016110159291906134d7565b600060405180830381865afa158015611032573d6000803e3d6000fd5b505050506040513d6000823e3d601f19601f8201168201806040525081019061105b9190613577565b90508060405160200161106e919061381e565b604051602081830303815290604052915050919050565b600760009054906101000a900473ffffffffffffffffffffffffffffffffffffffff1681565b6000600560008473ffffffffffffffffffffffffffffffffffffffff1673ffffffffffffffffffffffffffffffffffffffff16815260200190815260200160002060008373ffffffffffffffffffffffffffffffffffffffff1673ffffffffffffffffffffffffffffffffffffffff16815260200190815260200160002060009054906101000a900460ff16905092915050565b60007f01ffc9a7000000000000000000000000000000000000000000000000000000007bffffffffffffffffffffffffffffffffffffffffffffffffffffffff1916827bffffffffffffffffffffffffffffffffffffffffffffffffffffffff1916149050919050565b6111b281611866565b6111f1576040517f08c379a00000000000000000000000000000000000000000000000000000000081526004016111e890612b69565b60405180910390fd5b50565b600033905090565b816004600083815260200190815260200160002060006101000a81548173ffffffffffffffffffffffffffffffffffffffff021916908373ffffffffffffffffffffffffffffffffffffffff160217905550808273ffffffffffffffffffffffffffffffffffffffff1661126f83610783565b73ffffffffffffffffffffffffffffffffffffffff167f8c5be1e5ebec7d5bd14f71427d1e84f3dd0314c0f7b2291e5b200ac8c7c3b92560405160405180910390a45050565b6000806112c183610783565b90508073ffffffffffffffffffffffffffffffffffffffff168473ffffffffffffffffffffffffffffffffffffffff161480611303575061130281856110ab565b5b8061134157508373ffffffffffffffffffffffffffffffffffffffff1661132984610598565b73ffffffffffffffffffffffffffffffffffffffff16145b91505092915050565b8273ffffffffffffffffffffffffffffffffffffffff1661136a82610783565b73ffffffffffffffffffffffffffffffffffffffff16146113c0576040517f08c379a00000000000000000000000000000000000000000000000000000000081526004016113b7906138c8565b60405180910390fd5b600073ffffffffffffffffffffffffffffffffffffffff168273ffffffffffffffffffffffffffffffffffffffff160361142f576040517f08c379a00000000000000000000000000000000000000000000000000000000081526004016114269061395a565b60405180910390fd5b61143c83838360016118a7565b8273ffffffffffffffffffffffffffffffffffffffff1661145c82610783565b73ffffffffffffffffffffffffffffffffffffffff16146114b2576040517f08c379a00000000000000000000000000000000000000000000000000000000081526004016114a9906138c8565b60405180910390fd5b6004600082815260200190815260200160002060006101000a81549073ffffffffffffffffffffffffffffffffffffffff02191690556001600360008573ffffffffffffffffffffffffffffffffffffffff1673ffffffffffffffffffffffffffffffffffffffff168152602001908152602001600020600082825403925050819055506001600360008473ffffffffffffffffffffffffffffffffffffffff1673ffffffffffffffffffffffffffffffffffffffff16815260200190815260200160002060008282540192505081905550816002600083815260200190815260200160002060006101000a81548173ffffffffffffffffffffffffffffffffffffffff021916908373ffffffffffffffffffffffffffffffffffffffff160217905550808273ffffffffffffffffffffffffffffffffffffffff168473ffffffffffffffffffffffffffffffffffffffff167fddf252ad1be2c89b69c2b068fc378daa952ba7f163c4a11628f55a4df523b3ef60405160405180910390a461163e83838360016119cd565b505050565b61165d8282604051806020016040528060008152506119d3565b5050565b60006002600083815260200190815260200160002060009054906101000a900473ffffffffffffffffffffffffffffffffffffffff169050919050565b8173ffffffffffffffffffffffffffffffffffffffff168373ffffffffffffffffffffffffffffffffffffffff160361170c576040517f08c379a0000000000000000000000000000000000000000000000000000000008152600401611703906139ec565b60405180910390fd5b80600560008573ffffffffffffffffffffffffffffffffffffffff1673ffffffffffffffffffffffffffffffffffffffff16815260200190815260200160002060008473ffffffffffffffffffffffffffffffffffffffff1673ffffffffffffffffffffffffffffffffffffffff16815260200190815260200160002060006101000a81548160ff0219169083151502179055508173ffffffffffffffffffffffffffffffffffffffff168373ffffffffffffffffffffffffffffffffffffffff167f17307eab39ab6107e8899845ad3d59bd9653f200f220920489ca2b5937696c31836040516117fd9190611ea9565b60405180910390a3505050565b61181584848461134a565b61182184848484611a2e565b611860576040517f08c379a000000000000000000000000000000000000000000000000000000000815260040161185790613a7e565b60405180910390fd5b50505050565b60008073ffffffffffffffffffffffffffffffffffffffff1661188883611661565b73ffffffffffffffffffffffffffffffffffffffff1614159050919050565b60018111156119c757600073ffffffffffffffffffffffffffffffffffffffff168473ffffffffffffffffffffffffffffffffffffffff161461193b5780600360008673ffffffffffffffffffffffffffffffffffffffff1673ffffffffffffffffffffffffffffffffffffffff16815260200190815260200160002060008282546119339190613a9e565b925050819055505b600073ffffffffffffffffffffffffffffffffffffffff168373ffffffffffffffffffffffffffffffffffffffff16146119c65780600360008573ffffffffffffffffffffffffffffffffffffffff1673ffffffffffffffffffffffffffffffffffffffff16815260200190815260200160002060008282546119be9190613ad2565b925050819055505b5b50505050565b50505050565b6119dd8383611bb5565b6119ea6000848484611a2e565b611a29576040517f08c379a0000000000000000000000000000000000000000000000000000000008152600401611a2090613a7e565b60405180910390fd5b505050565b6000611a4f8473ffffffffffffffffffffffffffffffffffffffff16611dd2565b15611ba8578373ffffffffffffffffffffffffffffffffffffffff1663150b7a02611a786111f4565b8786866040518563ffffffff1660e01b8152600401611a9a9493929190613b06565b6020604051808303816000875af1925050508015611ad657506040513d601f19601f82011682018060405250810190611ad39190613b67565b60015b611b58573d8060008114611b06576040519150601f19603f3d011682016040523d82523d6000602084013e611b0b565b606091505b506000815103611b50576040517f08c379a0000000000000000000000000000000000000000000000000000000008152600401611b4790613a7e565b60405180910390fd5b805181602001fd5b63150b7a0260e01b7bffffffffffffffffffffffffffffffffffffffffffffffffffffffff1916817bffffffffffffffffffffffffffffffffffffffffffffffffffffffff191614915050611bad565b600190505b949350505050565b600073ffffffffffffffffffffffffffffffffffffffff168273ffffffffffffffffffffffffffffffffffffffff1603611c24576040517f08c379a0000000000000000000000000000000000000000000000000000000008152600401611c1b90613c06565b60405180910390fd5b611c2d81611866565b15611c6d576040517f08c379a0000000000000000000000000000000000000000000000000000000008152600401611c6490613c98565b60405180910390fd5b611c7b6000838360016118a7565b611c8481611866565b15611cc4576040517f08c379a0000000000000000000000000000000000000000000000000000000008152600401611cbb90613c98565b60405180910390fd5b6001600360008473ffffffffffffffffffffffffffffffffffffffff1673ffffffffffffffffffffffffffffffffffffffff16815260200190815260200160002060008282540192505081905550816002600083815260200190815260200160002060006101000a81548173ffffffffffffffffffffffffffffffffffffffff021916908373ffffffffffffffffffffffffffffffffffffffff160217905550808273ffffffffffffffffffffffffffffffffffffffff16600073ffffffffffffffffffffffffffffffffffffffff167fddf252ad1be2c89b69c2b068fc378daa952ba7f163c4a11628f55a4df523b3ef60405160405180910390a4611dce6000838360016119cd565b5050565b6000808273ffffffffffffffffffffffffffffffffffffffff163b119050919050565b6000604051905090565b600080fd5b600080fd5b60007fffffffff0000000000000000000000000000000000000000000000000000000082169050919050565b611e3e81611e09565b8114611e4957600080fd5b50565b600081359050611e5b81611e35565b92915050565b600060208284031215611e7757611e76611dff565b5b6000611e8584828501611e4c565b91505092915050565b60008115159050919050565b611ea381611e8e565b82525050565b6000602082019050611ebe6000830184611e9a565b92915050565b600081519050919050565b600082825260208201905092915050565b60005b83811015611efe578082015181840152602081019050611ee3565b60008484015250505050565b6000601f19601f8301169050919050565b6000611f2682611ec4565b611f308185611ecf565b9350611f40818560208601611ee0565b611f4981611f0a565b840191505092915050565b60006020820190508181036000830152611f6e8184611f1b565b905092915050565b6000819050919050565b611f8981611f76565b8114611f9457600080fd5b50565b600081359050611fa681611f80565b92915050565b600060208284031215611fc257611fc1611dff565b5b6000611fd084828501611f97565b91505092915050565b600073ffffffffffffffffffffffffffffffffffffffff82169050919050565b600061200482611fd9565b9050919050565b61201481611ff9565b82525050565b600060208201905061202f600083018461200b565b92915050565b61203e81611ff9565b811461204957600080fd5b50565b60008135905061205b81612035565b92915050565b6000806040838503121561207857612077611dff565b5b60006120868582860161204c565b925050602061209785828601611f97565b9150509250929050565b6000806000606084860312156120ba576120b9611dff565b5b60006120c88682870161204c565b93505060206120d98682870161204c565b92505060406120ea86828701611f97565b9150509250925092565b6000806040838503121561210b5761210a611dff565b5b600061211985828601611f97565b925050602061212a8582860161204c565b9150509250929050565b60006020828403121561214a57612149611dff565b5b60006121588482850161204c565b91505092915050565b61216a81611f76565b82525050565b60006020820190506121856000830184612161565b92915050565b600081519050919050565b600082825260208201905092915050565b60006121b28261218b565b6121bc8185612196565b93506121cc818560208601611ee0565b6121d581611f0a565b840191505092915050565b600060ff82169050919050565b6121f6816121e0565b82525050565b600060e0820190508181036000830152612216818a611f1b565b9050612225602083018961200b565b818103604083015261223781886121a7565b905061224660608301876121ed565b818103608083015261225881866121a7565b905081810360a083015261226c81856121a7565b905081810360c083015261228081846121a7565b905098975050505050505050565b61229781611e8e565b81146122a257600080fd5b50565b6000813590506122b48161228e565b92915050565b600080604083850312156122d1576122d0611dff565b5b60006122df8582860161204c565b92505060206122f0858286016122a5565b9150509250929050565b600080fd5b600080fd5b7f4e487b7100000000000000000000000000000000000000000000000000000000600052604160045260246000fd5b61233c82611f0a565b810181811067ffffffffffffffff8211171561235b5761235a612304565b5b80604052505050565b600061236e611df5565b905061237a8282612333565b919050565b600067ffffffffffffffff82111561239a57612399612304565b5b6123a382611f0a565b9050602081019050919050565b82818337600083830152505050565b60006123d26123cd8461237f565b612364565b9050828152602081018484840111156123ee576123ed6122ff565b5b6123f98482856123b0565b509392505050565b600082601f830112612416576124156122fa565b5b81356124268482602086016123bf565b91505092915050565b60006020828403121561244557612444611dff565b5b600082013567ffffffffffffffff81111561246357612462611e04565b5b61246f84828501612401565b91505092915050565b600067ffffffffffffffff82111561249357612492612304565b5b61249c82611f0a565b9050602081019050919050565b60006124bc6124b784612478565b612364565b9050828152602081018484840111156124d8576124d76122ff565b5b6124e38482856123b0565b509392505050565b600082601f830112612500576124ff6122fa565b5b81356125108482602086016124a9565b91505092915050565b6000806000806080858703121561253357612532611dff565b5b60006125418782880161204c565b94505060206125528782880161204c565b935050604061256387828801611f97565b925050606085013567ffffffffffffffff81111561258457612583611e04565b5b612590878288016124eb565b91505092959194509250565b600067ffffffffffffffff8211156125b7576125b6612304565b5b602082029050602081019050919050565b600080fd5b600080fd5b600080fd5b6125e0816121e0565b81146125eb57600080fd5b50565b6000813590506125fd816125d7565b92915050565b600060e08284031215612619576126186125cd565b5b61262360e0612364565b9050600082013567ffffffffffffffff811115612643576126426125d2565b5b61264f84828501612401565b60008301525060206126638482850161204c565b602083015250604082013567ffffffffffffffff811115612687576126866125d2565b5b612693848285016124eb565b60408301525060606126a7848285016125ee565b606083015250608082013567ffffffffffffffff8111156126cb576126ca6125d2565b5b6126d7848285016124eb565b60808301525060a082013567ffffffffffffffff8111156126fb576126fa6125d2565b5b612707848285016124eb565b60a08301525060c082013567ffffffffffffffff81111561272b5761272a6125d2565b5b612737848285016124eb565b60c08301525092915050565b60006127566127518461259c565b612364565b90508083825260208201905060208402830185811115612779576127786125c8565b5b835b818110156127c057803567ffffffffffffffff81111561279e5761279d6122fa565b5b8086016127ab8982612603565b8552602085019450505060208101905061277b565b5050509392505050565b600082601f8301126127df576127de6122fa565b5b81356127ef848260208601612743565b91505092915050565b6000806000806080858703121561281257612811611dff565b5b60006128208782880161204c565b94505060206128318782880161204c565b935050604061284287828801611f97565b925050606085013567ffffffffffffffff81111561286357612862611e04565b5b61286f878288016127ca565b91505092959194509250565b6000806040838503121561289257612891611dff565b5b60006128a08582860161204c565b92505060206128b18582860161204c565b9150509250929050565b7f4e487b7100000000000000000000000000000000000000000000000000000000600052602260045260246000fd5b6000600282049050600182168061290257607f821691505b602082108103612915576129146128bb565b5b50919050565b7f455243373231436c6f6e6561626c653a20617070726f76616c20746f2063757260008201527f72656e74206f776e657200000000000000000000000000000000000000000000602082015250565b6000612977602a83611ecf565b91506129828261291b565b604082019050919050565b600060208201905081810360008301526129a68161296a565b9050919050565b7f455243373231436c6f6e6561626c653a20617070726f76652063616c6c65722060008201527f6973206e6f7420746f6b656e206f776e6572206f7220617070726f766564206660208201527f6f7220616c6c0000000000000000000000000000000000000000000000000000604082015250565b6000612a2f604683611ecf565b9150612a3a826129ad565b606082019050919050565b60006020820190508181036000830152612a5e81612a22565b9050919050565b7f455243373231436c6f6e6561626c653a2063616c6c6572206973206e6f74207460008201527f6f6b656e206f776e6572206f7220617070726f76656400000000000000000000602082015250565b6000612ac1603683611ecf565b9150612acc82612a65565b604082019050919050565b60006020820190508181036000830152612af081612ab4565b9050919050565b7f455243373231436c6f6e6561626c653a20696e76616c696420746f6b656e204960008201527f4400000000000000000000000000000000000000000000000000000000000000602082015250565b6000612b53602183611ecf565b9150612b5e82612af7565b604082019050919050565b60006020820190508181036000830152612b8281612b46565b9050919050565b7f455243373231436c6f6e6561626c653a2061646472657373207a65726f20697360008201527f206e6f7420612076616c6964206f776e65720000000000000000000000000000602082015250565b6000612be5603283611ecf565b9150612bf082612b89565b604082019050919050565b60006020820190508181036000830152612c1481612bd8565b9050919050565b7f455243373231436c6f6e6561626c653a2073796d626f6c20616c72656164792060008201527f7365740000000000000000000000000000000000000000000000000000000000602082015250565b6000612c77602383611ecf565b9150612c8282612c1b565b604082019050919050565b60006020820190508181036000830152612ca681612c6a565b9050919050565b60008190508160005260206000209050919050565b60006020601f8301049050919050565b600082821b905092915050565b600060088302612d0f7fffffffffffffffffffffffffffffffffffffffffffffffffffffffffffffffff82612cd2565b612d198683612cd2565b95508019841693508086168417925050509392505050565b6000819050919050565b6000612d56612d51612d4c84611f76565b612d31565b611f76565b9050919050565b6000819050919050565b612d7083612d3b565b612d84612d7c82612d5d565b848454612cdf565b825550505050565b600090565b612d99612d8c565b612da4818484612d67565b505050565b5b81811015612dc857612dbd600082612d91565b600181019050612daa565b5050565b601f821115612e0d57612dde81612cad565b612de784612cc2565b81016020851015612df6578190505b612e0a612e0285612cc2565b830182612da9565b50505b505050565b600082821c905092915050565b6000612e3060001984600802612e12565b1980831691505092915050565b6000612e498383612e1f565b9150826002028217905092915050565b612e6282611ec4565b67ffffffffffffffff811115612e7b57612e7a612304565b5b612e8582546128ea565b612e90828285612dcc565b600060209050601f831160018114612ec35760008415612eb1578287015190505b612ebb8582612e3d565b865550612f23565b601f198416612ed186612cad565b60005b82811015612ef957848901518255600182019150602085019450602081019050612ed4565b86831015612f165784890151612f12601f891682612e1f565b8355505b6001600288020188555050505b505050505050565b7f4e487b7100000000000000000000000000000000000000000000000000000000600052603260045260246000fd5b60008190508160005260206000209050919050565b601f821115612fb057612f8181612f5a565b612f8a84612cc2565b81016020851015612f99578190505b612fad612fa585612cc2565b830182612da9565b50505b505050565b612fbe8261218b565b67ffffffffffffffff811115612fd757612fd6612304565b5b612fe182546128ea565b612fec828285612f6f565b600060209050601f83116001811461301f576000841561300d578287015190505b6130178582612e3d565b86555061307f565b601f19841661302d86612f5a565b60005b8281101561305557848901518255600182019150602085019450602081019050613030565b86831015613072578489015161306e601f891682612e1f565b8355505b6001600288020188555050505b505050505050565b7f4e487b7100000000000000000000000000000000000000000000000000000000600052601160045260246000fd5b60006130c182611f76565b91507fffffffffffffffffffffffffffffffffffffffffffffffffffffffffffffffff82036130f3576130f2613087565b5b600182019050919050565b7f455243373231436c6f6e6561626c653a206e616d6520616c726561647920736560008201527f7400000000000000000000000000000000000000000000000000000000000000602082015250565b600061315a602183611ecf565b9150613165826130fe565b604082019050919050565b600060208201905081810360008301526131898161314d565b9050919050565b600081549050919050565b600082825260208201905092915050565b60008190508160005260206000209050919050565b600082825260208201905092915050565b600081546131df816128ea565b6131e981866131c1565b94506001821660008114613204576001811461321a5761324d565b60ff19831686528115156020028601935061324d565b61322385612cad565b60005b8381101561324557815481890152600182019150602081019050613226565b808801955050505b50505092915050565b60008160001c9050919050565b600073ffffffffffffffffffffffffffffffffffffffff82169050919050565b600061329661329183613256565b613263565b9050919050565b6132a681611ff9565b82525050565b600082825260208201905092915050565b600081546132ca816128ea565b6132d481866132ac565b945060018216600081146132ef576001811461330557613338565b60ff198316865281151560200286019350613338565b61330e85612f5a565b60005b8381101561333057815481890152600182019150602081019050613311565b808801955050505b50505092915050565b600060ff82169050919050565b600061336161335c83613256565b613341565b9050919050565b613371816121e0565b82525050565b600060e083016000808401858303600087015261339483826131d2565b925050600184015490506133a781613283565b6133b4602087018261329d565b506002840185830360408701526133cb83826132bd565b925050600384015490506133de8161334e565b6133eb6060870182613368565b5060048401858303608087015261340283826132bd565b9250506005840185830360a087015261341b83826132bd565b9250506006840185830360c087015261343483826132bd565b925050819250505092915050565b600061344e8383613377565b905092915050565b6000600782019050919050565b600061346e82613190565b613478818561319b565b93508360208202850161348a856131ac565b8060005b858110156134c5578484038952816134a68582613442565b94506134b183613456565b925060208a0199505060018101905061348e565b50829750879550505050505092915050565b600060408201905081810360008301526134f18185613463565b90506135006020830184612161565b9392505050565b600061351a61351584612478565b612364565b905082815260208101848484011115613536576135356122ff565b5b613541848285611ee0565b509392505050565b600082601f83011261355e5761355d6122fa565b5b815161356e848260208601613507565b91505092915050565b60006020828403121561358d5761358c611dff565b5b600082015167ffffffffffffffff8111156135ab576135aa611e04565b5b6135b784828501613549565b91505092915050565b600081905092915050565b7f646174613a6170706c69636174696f6e2f6a736f6e2c00000000000000000000600082015250565b60006136016016836135c0565b915061360c826135cb565b601682019050919050565b7f2537422532326e616d652532322533412532324375626533442532302d25323060008201527f475a4950253230436f6d707265737365642532302d25323055524c253230536160208201527f66652532322532432532302532326465736372697074696f6e2532322533412560408201527f3232417373656d626c6573253230475a4950253230636f6d707265737365642560608201527f3230626173653634253230656e636f64656425323074687265652e6a7325323060808201527f776974682532306125323064656d6f2532307363656e652e2532304d6574616460a08201527f617461253230616e64253230616e696d6174696f6e25323055524c253230617260c08201527f65253230626f746825323055524c253230656e636f6465642e2532322532432560e08201527f3232616e696d6174696f6e5f75726c253232253341253232000000000000000061010082015250565b600061377f610118836135c0565b915061378a82613617565b61011882019050919050565b600081905092915050565b60006137ac8261218b565b6137b68185613796565b93506137c6818560208601611ee0565b80840191505092915050565b7f2532322537440000000000000000000000000000000000000000000000000000600082015250565b60006138086006836135c0565b9150613813826137d2565b600682019050919050565b6000613829826135f4565b915061383482613771565b915061384082846137a1565b915061384b826137fb565b915081905092915050565b7f455243373231436c6f6e6561626c653a207472616e736665722066726f6d206960008201527f6e636f7272656374206f776e6572000000000000000000000000000000000000602082015250565b60006138b2602e83611ecf565b91506138bd82613856565b604082019050919050565b600060208201905081810360008301526138e1816138a5565b9050919050565b7f455243373231436c6f6e6561626c653a207472616e7366657220746f2074686560008201527f207a65726f206164647265737300000000000000000000000000000000000000602082015250565b6000613944602d83611ecf565b915061394f826138e8565b604082019050919050565b6000602082019050818103600083015261397381613937565b9050919050565b7f455243373231436c6f6e6561626c653a20617070726f766520746f2063616c6c60008201527f6572000000000000000000000000000000000000000000000000000000000000602082015250565b60006139d6602283611ecf565b91506139e18261397a565b604082019050919050565b60006020820190508181036000830152613a05816139c9565b9050919050565b7f455243373231436c6f6e6561626c653a207472616e7366657220746f206e6f6e60008201527f20455243373231526563656976657220696d706c656d656e7465720000000000602082015250565b6000613a68603b83611ecf565b9150613a7382613a0c565b604082019050919050565b60006020820190508181036000830152613a9781613a5b565b9050919050565b6000613aa982611f76565b9150613ab483611f76565b9250828203905081811115613acc57613acb613087565b5b92915050565b6000613add82611f76565b9150613ae883611f76565b9250828201905080821115613b0057613aff613087565b5b92915050565b6000608082019050613b1b600083018761200b565b613b28602083018661200b565b613b356040830185612161565b8181036060830152613b4781846121a7565b905095945050505050565b600081519050613b6181611e35565b92915050565b600060208284031215613b7d57613b7c611dff565b5b6000613b8b84828501613b52565b91505092915050565b7f455243373231436c6f6e6561626c653a206d696e7420746f20746865207a657260008201527f6f20616464726573730000000000000000000000000000000000000000000000602082015250565b6000613bf0602983611ecf565b9150613bfb82613b94565b604082019050919050565b60006020820190508181036000830152613c1f81613be3565b9050919050565b7f455243373231436c6f6e6561626c653a20746f6b656e20616c7265616479206d60008201527f696e746564000000000000000000000000000000000000000000000000000000602082015250565b6000613c82602583611ecf565b9150613c8d82613c26565b604082019050919050565b60006020820190508181036000830152613cb181613c75565b905091905056fea2646970667358221220a6ad02dde5cdd717128c2344aa4ebb66ba3cef2641314100cb9a085e067208b164736f6c63430008110033",
  "linkReferences": {},
  "deployedLinkReferences": {}
}