{
  "_format": "hh-sol-artifact-1",
  "contractName": "Frame",
  "sourceName": "src/contracts/Frame.sol",
  "abi": [
    {
      "inputs": [],
      "stateMutability": "nonpayable",
      "type": "constructor"
    },
    {
      "anonymous": false,
      "inputs": [
        {
          "indexed": true,
          "internalType": "address",
          "name": "owner",
          "type": "address"
        },
        {
          "indexed": true,
          "internalType": "address",
          "name": "approved",
          "type": "address"
        },
        {
          "indexed": true,
          "internalType": "uint256",
          "name": "tokenId",
          "type": "uint256"
        }
      ],
      "name": "Approval",
      "type": "event"
    },
    {
      "anonymous": false,
      "inputs": [
        {
          "indexed": true,
          "internalType": "address",
          "name": "owner",
          "type": "address"
        },
        {
          "indexed": true,
          "internalType": "address",
          "name": "operator",
          "type": "address"
        },
        {
          "indexed": false,
          "internalType": "bool",
          "name": "approved",
          "type": "bool"
        }
      ],
      "name": "ApprovalForAll",
      "type": "event"
    },
    {
      "anonymous": false,
      "inputs": [
        {
          "indexed": true,
          "internalType": "address",
          "name": "from",
          "type": "address"
        },
        {
          "indexed": true,
          "internalType": "address",
          "name": "to",
          "type": "address"
        },
        {
          "indexed": true,
          "internalType": "uint256",
          "name": "tokenId",
          "type": "uint256"
        }
      ],
      "name": "Transfer",
      "type": "event"
    },
    {
      "inputs": [
        {
          "internalType": "address",
          "name": "to",
          "type": "address"
        },
        {
          "internalType": "uint256",
          "name": "tokenId",
          "type": "uint256"
        }
      ],
      "name": "approve",
      "outputs": [],
      "stateMutability": "nonpayable",
      "type": "function"
    },
    {
      "inputs": [
        {
          "internalType": "address",
          "name": "owner",
          "type": "address"
        }
      ],
      "name": "balanceOf",
      "outputs": [
        {
          "internalType": "uint256",
          "name": "",
          "type": "uint256"
        }
      ],
      "stateMutability": "view",
      "type": "function"
    },
    {
      "inputs": [],
      "name": "bufferSize",
      "outputs": [
        {
          "internalType": "uint256",
          "name": "",
          "type": "uint256"
        }
      ],
      "stateMutability": "view",
      "type": "function"
    },
    {
      "inputs": [
        {
          "internalType": "uint256",
          "name": "tokenId",
          "type": "uint256"
        }
      ],
      "name": "getApproved",
      "outputs": [
        {
          "internalType": "address",
          "name": "",
          "type": "address"
        }
      ],
      "stateMutability": "view",
      "type": "function"
    },
    {
      "inputs": [
        {
          "internalType": "address",
          "name": "owner",
          "type": "address"
        },
        {
          "internalType": "address",
          "name": "operator",
          "type": "address"
        }
      ],
      "name": "isApprovedForAll",
      "outputs": [
        {
          "internalType": "bool",
          "name": "",
          "type": "bool"
        }
      ],
      "stateMutability": "view",
      "type": "function"
    },
    {
      "inputs": [
        {
          "internalType": "uint256",
          "name": "_id",
          "type": "uint256"
        },
        {
          "internalType": "address",
          "name": "_owner",
          "type": "address"
        }
      ],
      "name": "mintIdForOwner",
      "outputs": [],
      "stateMutability": "nonpayable",
      "type": "function"
    },
    {
      "inputs": [],
      "name": "name",
      "outputs": [
        {
          "internalType": "string",
          "name": "",
          "type": "string"
        }
      ],
      "stateMutability": "view",
      "type": "function"
    },
    {
      "inputs": [
        {
          "internalType": "uint256",
          "name": "tokenId",
          "type": "uint256"
        }
      ],
      "name": "ownerOf",
      "outputs": [
        {
          "internalType": "address",
          "name": "",
          "type": "address"
        }
      ],
      "stateMutability": "view",
      "type": "function"
    },
    {
      "inputs": [
        {
          "internalType": "uint256",
          "name": "",
          "type": "uint256"
        }
      ],
      "name": "requests",
      "outputs": [
        {
          "internalType": "string",
          "name": "name",
          "type": "string"
        },
        {
          "internalType": "address",
          "name": "contractAddress",
          "type": "address"
        },
        {
          "internalType": "bytes",
          "name": "contractData",
          "type": "bytes"
        },
        {
          "internalType": "uint8",
          "name": "wrapType",
          "type": "uint8"
        },
        {
          "internalType": "bytes",
          "name": "wrapPrefix",
          "type": "bytes"
        },
        {
          "internalType": "bytes",
          "name": "wrapSuffix",
          "type": "bytes"
        },
        {
          "internalType": "bytes",
          "name": "scriptContent",
          "type": "bytes"
        }
      ],
      "stateMutability": "view",
      "type": "function"
    },
    {
      "inputs": [],
      "name": "requestsLength",
      "outputs": [
        {
          "internalType": "uint256",
          "name": "",
          "type": "uint256"
        }
      ],
      "stateMutability": "view",
      "type": "function"
    },
    {
      "inputs": [
        {
          "internalType": "address",
          "name": "from",
          "type": "address"
        },
        {
          "internalType": "address",
          "name": "to",
          "type": "address"
        },
        {
          "internalType": "uint256",
          "name": "tokenId",
          "type": "uint256"
        }
      ],
      "name": "safeTransferFrom",
      "outputs": [],
      "stateMutability": "nonpayable",
      "type": "function"
    },
    {
      "inputs": [
        {
          "internalType": "address",
          "name": "from",
          "type": "address"
        },
        {
          "internalType": "address",
          "name": "to",
          "type": "address"
        },
        {
          "internalType": "uint256",
          "name": "tokenId",
          "type": "uint256"
        },
        {
          "internalType": "bytes",
          "name": "data",
          "type": "bytes"
        }
      ],
      "name": "safeTransferFrom",
      "outputs": [],
      "stateMutability": "nonpayable",
      "type": "function"
    },
    {
      "inputs": [],
      "name": "scriptyBuilderAddress",
      "outputs": [
        {
          "internalType": "address",
          "name": "",
          "type": "address"
        }
      ],
      "stateMutability": "view",
      "type": "function"
    },
    {
      "inputs": [],
      "name": "scriptyStorageAddress",
      "outputs": [
        {
          "internalType": "address",
          "name": "",
          "type": "address"
        }
      ],
      "stateMutability": "view",
      "type": "function"
    },
    {
      "inputs": [
        {
          "internalType": "address",
          "name": "operator",
          "type": "address"
        },
        {
          "internalType": "bool",
          "name": "approved",
          "type": "bool"
        }
      ],
      "name": "setApprovalForAll",
      "outputs": [],
      "stateMutability": "nonpayable",
      "type": "function"
    },
    {
      "inputs": [
        {
          "internalType": "string",
          "name": "nameString",
          "type": "string"
        }
      ],
      "name": "setName",
      "outputs": [],
      "stateMutability": "nonpayable",
      "type": "function"
    },
    {
      "inputs": [
        {
          "internalType": "address",
          "name": "_scriptyStorageAddress",
          "type": "address"
        },
        {
          "internalType": "address",
          "name": "_scriptyBuilderAddress",
          "type": "address"
        },
        {
          "internalType": "uint256",
          "name": "_bufferSize",
          "type": "uint256"
        },
        {
          "components": [
            {
              "internalType": "string",
              "name": "name",
              "type": "string"
            },
            {
              "internalType": "address",
              "name": "contractAddress",
              "type": "address"
            },
            {
              "internalType": "bytes",
              "name": "contractData",
              "type": "bytes"
            },
            {
              "internalType": "uint8",
              "name": "wrapType",
              "type": "uint8"
            },
            {
              "internalType": "bytes",
              "name": "wrapPrefix",
              "type": "bytes"
            },
            {
              "internalType": "bytes",
              "name": "wrapSuffix",
              "type": "bytes"
            },
            {
              "internalType": "bytes",
              "name": "scriptContent",
              "type": "bytes"
            }
          ],
          "internalType": "struct WrappedScriptRequest[]",
          "name": "_requests",
          "type": "tuple[]"
        }
      ],
      "name": "setParams",
      "outputs": [],
      "stateMutability": "nonpayable",
      "type": "function"
    },
    {
      "inputs": [
        {
          "internalType": "string",
          "name": "symbolString",
          "type": "string"
        }
      ],
      "name": "setSymbol",
      "outputs": [],
      "stateMutability": "nonpayable",
      "type": "function"
    },
    {
      "inputs": [
        {
          "internalType": "bytes4",
          "name": "interfaceId",
          "type": "bytes4"
        }
      ],
      "name": "supportsInterface",
      "outputs": [
        {
          "internalType": "bool",
          "name": "",
          "type": "bool"
        }
      ],
      "stateMutability": "view",
      "type": "function"
    },
    {
      "inputs": [],
      "name": "symbol",
      "outputs": [
        {
          "internalType": "string",
          "name": "",
          "type": "string"
        }
      ],
      "stateMutability": "view",
      "type": "function"
    },
    {
      "inputs": [
        {
          "internalType": "uint256",
          "name": "",
          "type": "uint256"
        }
      ],
      "name": "tokenURI",
      "outputs": [
        {
          "internalType": "string",
          "name": "",
          "type": "string"
        }
      ],
      "stateMutability": "view",
      "type": "function"
    },
    {
      "inputs": [
        {
          "internalType": "address",
          "name": "from",
          "type": "address"
        },
        {
          "internalType": "address",
          "name": "to",
          "type": "address"
        },
        {
          "internalType": "uint256",
          "name": "tokenId",
          "type": "uint256"
        }
      ],
      "name": "transferFrom",
      "outputs": [],
      "stateMutability": "nonpayable",
      "type": "function"
    }
  ],
  "bytecode": "0x608060405234801561001057600080fd5b50613d24806100206000396000f3fe608060405234801561001057600080fd5b50600436106101425760003560e01c80639c2c770b116100b8578063bacef6691161007c578063bacef66914610379578063c47f002714610395578063c87b56dd146103b1578063e3b71f87146103e1578063e985e9c5146103ff578063ffbbfcb01461042f57610142565b80639c2c770b146102e9578063a22cb46514610307578063a9cb35ae14610323578063b84c824614610341578063b88d4fde1461035d57610142565b806342842e0e1161010a57806342842e0e146101fd5780634b7cf049146102195780636352211e1461023557806370a082311461026557806381d12c581461029557806395d89b41146102cb57610142565b806301ffc9a71461014757806306fdde0314610177578063081812fc14610195578063095ea7b3146101c557806323b872dd146101e1575b600080fd5b610161600480360381019061015c9190611e97565b61044d565b60405161016e9190611edf565b60405180910390f35b61017f61052f565b60405161018c9190611f8a565b60405180910390f35b6101af60048036038101906101aa9190611fe2565b6105c1565b6040516101bc9190612050565b60405180910390f35b6101df60048036038101906101da9190612097565b610607565b005b6101fb60048036038101906101f691906120d7565b61071e565b005b610217600480360381019061021291906120d7565b61077e565b005b610233600480360381019061022e919061212a565b61079e565b005b61024f600480360381019061024a9190611fe2565b6107ac565b60405161025c9190612050565b60405180910390f35b61027f600480360381019061027a919061216a565b610832565b60405161028c91906121a6565b60405180910390f35b6102af60048036038101906102aa9190611fe2565b6108e9565b6040516102c29796959493929190612232565b60405180910390f35b6102d3610c10565b6040516102e09190611f8a565b60405180910390f35b6102f1610ca2565b6040516102fe91906121a6565b60405180910390f35b610321600480360381019061031c91906122f0565b610ca8565b005b61032b610cbe565b6040516103389190612050565b60405180910390f35b61035b60048036038101906103569190612465565b610ce4565b005b6103776004803603810190610372919061254f565b610d48565b005b610393600480360381019061038e919061282e565b610daa565b005b6103af60048036038101906103aa9190612465565b610f77565b005b6103cb60048036038101906103c69190611fe2565b610fda565b6040516103d89190611f8a565b60405180910390f35b6103e96110ae565b6040516103f69190612050565b60405180910390f35b610419600480360381019061041491906128b1565b6110d4565b6040516104269190611edf565b60405180910390f35b610437611168565b60405161044491906121a6565b60405180910390f35b60007ffc9fdaac000000000000000000000000000000000000000000000000000000007bffffffffffffffffffffffffffffffffffffffffffffffffffffffff1916827bffffffffffffffffffffffffffffffffffffffffffffffffffffffff1916148061051857507f5b5e139f000000000000000000000000000000000000000000000000000000007bffffffffffffffffffffffffffffffffffffffffffffffffffffffff1916827bffffffffffffffffffffffffffffffffffffffffffffffffffffffff1916145b80610528575061052782611175565b5b9050919050565b60606000805461053e90612920565b80601f016020809104026020016040519081016040528092919081815260200182805461056a90612920565b80156105b75780601f1061058c576101008083540402835291602001916105b7565b820191906000526020600020905b81548152906001019060200180831161059a57829003601f168201915b5050505050905090565b60006105cc826111df565b6004600083815260200190815260200160002060009054906101000a900473ffffffffffffffffffffffffffffffffffffffff169050919050565b6000610612826107ac565b90508073ffffffffffffffffffffffffffffffffffffffff168373ffffffffffffffffffffffffffffffffffffffff1603610682576040517f08c379a0000000000000000000000000000000000000000000000000000000008152600401610679906129c3565b60405180910390fd5b8073ffffffffffffffffffffffffffffffffffffffff166106a161122a565b73ffffffffffffffffffffffffffffffffffffffff1614806106d057506106cf816106ca61122a565b6110d4565b5b61070f576040517f08c379a000000000000000000000000000000000000000000000000000000000815260040161070690612a7b565b60405180910390fd5b6107198383611232565b505050565b61072f61072961122a565b826112eb565b61076e576040517f08c379a000000000000000000000000000000000000000000000000000000000815260040161076590612b0d565b60405180910390fd5b610779838383611380565b505050565b61079983838360405180602001604052806000815250610d48565b505050565b6107a88183611679565b5050565b6000806107b883611697565b9050600073ffffffffffffffffffffffffffffffffffffffff168173ffffffffffffffffffffffffffffffffffffffff1603610829576040517f08c379a000000000000000000000000000000000000000000000000000000000815260040161082090612b9f565b60405180910390fd5b80915050919050565b60008073ffffffffffffffffffffffffffffffffffffffff168273ffffffffffffffffffffffffffffffffffffffff16036108a2576040517f08c379a000000000000000000000000000000000000000000000000000000000815260040161089990612c31565b60405180910390fd5b600360008373ffffffffffffffffffffffffffffffffffffffff1673ffffffffffffffffffffffffffffffffffffffff168152602001908152602001600020549050919050565b600981815481106108f957600080fd5b906000526020600020906007020160009150905080600001805461091c90612920565b80601f016020809104026020016040519081016040528092919081815260200182805461094890612920565b80156109955780601f1061096a57610100808354040283529160200191610995565b820191906000526020600020905b81548152906001019060200180831161097857829003601f168201915b5050505050908060010160009054906101000a900473ffffffffffffffffffffffffffffffffffffffff16908060020180546109d090612920565b80601f01602080910402602001604051908101604052809291908181526020018280546109fc90612920565b8015610a495780601f10610a1e57610100808354040283529160200191610a49565b820191906000526020600020905b815481529060010190602001808311610a2c57829003601f168201915b5050505050908060030160009054906101000a900460ff1690806004018054610a7190612920565b80601f0160208091040260200160405190810160405280929190818152602001828054610a9d90612920565b8015610aea5780601f10610abf57610100808354040283529160200191610aea565b820191906000526020600020905b815481529060010190602001808311610acd57829003601f168201915b505050505090806005018054610aff90612920565b80601f0160208091040260200160405190810160405280929190818152602001828054610b2b90612920565b8015610b785780601f10610b4d57610100808354040283529160200191610b78565b820191906000526020600020905b815481529060010190602001808311610b5b57829003601f168201915b505050505090806006018054610b8d90612920565b80601f0160208091040260200160405190810160405280929190818152602001828054610bb990612920565b8015610c065780601f10610bdb57610100808354040283529160200191610c06565b820191906000526020600020905b815481529060010190602001808311610be957829003601f168201915b5050505050905087565b606060018054610c1f90612920565b80601f0160208091040260200160405190810160405280929190818152602001828054610c4b90612920565b8015610c985780601f10610c6d57610100808354040283529160200191610c98565b820191906000526020600020905b815481529060010190602001808311610c7b57829003601f168201915b5050505050905090565b60085481565b610cba610cb361122a565b83836116d4565b5050565b600660009054906101000a900473ffffffffffffffffffffffffffffffffffffffff1681565b600060018054610cf390612920565b905014610d35576040517f08c379a0000000000000000000000000000000000000000000000000000000008152600401610d2c90612cc3565b60405180910390fd5b8060019081610d449190612e8f565b5050565b610d59610d5361122a565b836112eb565b610d98576040517f08c379a0000000000000000000000000000000000000000000000000000000008152600401610d8f90612b0d565b60405180910390fd5b610da484848484611840565b50505050565b83600660006101000a81548173ffffffffffffffffffffffffffffffffffffffff021916908373ffffffffffffffffffffffffffffffffffffffff16021790555082600760006101000a81548173ffffffffffffffffffffffffffffffffffffffff021916908373ffffffffffffffffffffffffffffffffffffffff1602179055508160088190555060005b8151811015610f70576009828281518110610e5457610e53612f61565b5b602002602001015190806001815401808255809150506001900390600052602060002090600702016000909190919091506000820151816000019081610e9a9190612e8f565b5060208201518160010160006101000a81548173ffffffffffffffffffffffffffffffffffffffff021916908373ffffffffffffffffffffffffffffffffffffffff1602179055506040820151816002019081610ef79190612feb565b5060608201518160030160006101000a81548160ff021916908360ff1602179055506080820151816004019081610f2e9190612feb565b5060a0820151816005019081610f449190612feb565b5060c0820151816006019081610f5a9190612feb565b5050508080610f68906130ec565b915050610e36565b5050505050565b6000808054610f8590612920565b905014610fc7576040517f08c379a0000000000000000000000000000000000000000000000000000000008152600401610fbe906131a6565b60405180910390fd5b8060009081610fd69190612e8f565b5050565b60606000600760009054906101000a900473ffffffffffffffffffffffffffffffffffffffff1673ffffffffffffffffffffffffffffffffffffffff1663b4f7d41e60096008546040518363ffffffff1660e01b815260040161103e92919061350d565b600060405180830381865afa15801561105b573d6000803e3d6000fd5b505050506040513d6000823e3d601f19601f8201168201806040525081019061108491906135ad565b9050806040516020016110979190613854565b604051602081830303815290604052915050919050565b600760009054906101000a900473ffffffffffffffffffffffffffffffffffffffff1681565b6000600560008473ffffffffffffffffffffffffffffffffffffffff1673ffffffffffffffffffffffffffffffffffffffff16815260200190815260200160002060008373ffffffffffffffffffffffffffffffffffffffff1673ffffffffffffffffffffffffffffffffffffffff16815260200190815260200160002060009054906101000a900460ff16905092915050565b6000600980549050905090565b60007f01ffc9a7000000000000000000000000000000000000000000000000000000007bffffffffffffffffffffffffffffffffffffffffffffffffffffffff1916827bffffffffffffffffffffffffffffffffffffffffffffffffffffffff1916149050919050565b6111e88161189c565b611227576040517f08c379a000000000000000000000000000000000000000000000000000000000815260040161121e90612b9f565b60405180910390fd5b50565b600033905090565b816004600083815260200190815260200160002060006101000a81548173ffffffffffffffffffffffffffffffffffffffff021916908373ffffffffffffffffffffffffffffffffffffffff160217905550808273ffffffffffffffffffffffffffffffffffffffff166112a5836107ac565b73ffffffffffffffffffffffffffffffffffffffff167f8c5be1e5ebec7d5bd14f71427d1e84f3dd0314c0f7b2291e5b200ac8c7c3b92560405160405180910390a45050565b6000806112f7836107ac565b90508073ffffffffffffffffffffffffffffffffffffffff168473ffffffffffffffffffffffffffffffffffffffff161480611339575061133881856110d4565b5b8061137757508373ffffffffffffffffffffffffffffffffffffffff1661135f846105c1565b73ffffffffffffffffffffffffffffffffffffffff16145b91505092915050565b8273ffffffffffffffffffffffffffffffffffffffff166113a0826107ac565b73ffffffffffffffffffffffffffffffffffffffff16146113f6576040517f08c379a00000000000000000000000000000000000000000000000000000000081526004016113ed906138fe565b60405180910390fd5b600073ffffffffffffffffffffffffffffffffffffffff168273ffffffffffffffffffffffffffffffffffffffff1603611465576040517f08c379a000000000000000000000000000000000000000000000000000000000815260040161145c90613990565b60405180910390fd5b61147283838360016118dd565b8273ffffffffffffffffffffffffffffffffffffffff16611492826107ac565b73ffffffffffffffffffffffffffffffffffffffff16146114e8576040517f08c379a00000000000000000000000000000000000000000000000000000000081526004016114df906138fe565b60405180910390fd5b6004600082815260200190815260200160002060006101000a81549073ffffffffffffffffffffffffffffffffffffffff02191690556001600360008573ffffffffffffffffffffffffffffffffffffffff1673ffffffffffffffffffffffffffffffffffffffff168152602001908152602001600020600082825403925050819055506001600360008473ffffffffffffffffffffffffffffffffffffffff1673ffffffffffffffffffffffffffffffffffffffff16815260200190815260200160002060008282540192505081905550816002600083815260200190815260200160002060006101000a81548173ffffffffffffffffffffffffffffffffffffffff021916908373ffffffffffffffffffffffffffffffffffffffff160217905550808273ffffffffffffffffffffffffffffffffffffffff168473ffffffffffffffffffffffffffffffffffffffff167fddf252ad1be2c89b69c2b068fc378daa952ba7f163c4a11628f55a4df523b3ef60405160405180910390a46116748383836001611a03565b505050565b611693828260405180602001604052806000815250611a09565b5050565b60006002600083815260200190815260200160002060009054906101000a900473ffffffffffffffffffffffffffffffffffffffff169050919050565b8173ffffffffffffffffffffffffffffffffffffffff168373ffffffffffffffffffffffffffffffffffffffff1603611742576040517f08c379a000000000000000000000000000000000000000000000000000000000815260040161173990613a22565b60405180910390fd5b80600560008573ffffffffffffffffffffffffffffffffffffffff1673ffffffffffffffffffffffffffffffffffffffff16815260200190815260200160002060008473ffffffffffffffffffffffffffffffffffffffff1673ffffffffffffffffffffffffffffffffffffffff16815260200190815260200160002060006101000a81548160ff0219169083151502179055508173ffffffffffffffffffffffffffffffffffffffff168373ffffffffffffffffffffffffffffffffffffffff167f17307eab39ab6107e8899845ad3d59bd9653f200f220920489ca2b5937696c31836040516118339190611edf565b60405180910390a3505050565b61184b848484611380565b61185784848484611a64565b611896576040517f08c379a000000000000000000000000000000000000000000000000000000000815260040161188d90613ab4565b60405180910390fd5b50505050565b60008073ffffffffffffffffffffffffffffffffffffffff166118be83611697565b73ffffffffffffffffffffffffffffffffffffffff1614159050919050565b60018111156119fd57600073ffffffffffffffffffffffffffffffffffffffff168473ffffffffffffffffffffffffffffffffffffffff16146119715780600360008673ffffffffffffffffffffffffffffffffffffffff1673ffffffffffffffffffffffffffffffffffffffff16815260200190815260200160002060008282546119699190613ad4565b925050819055505b600073ffffffffffffffffffffffffffffffffffffffff168373ffffffffffffffffffffffffffffffffffffffff16146119fc5780600360008573ffffffffffffffffffffffffffffffffffffffff1673ffffffffffffffffffffffffffffffffffffffff16815260200190815260200160002060008282546119f49190613b08565b925050819055505b5b50505050565b50505050565b611a138383611beb565b611a206000848484611a64565b611a5f576040517f08c379a0000000000000000000000000000000000000000000000000000000008152600401611a5690613ab4565b60405180910390fd5b505050565b6000611a858473ffffffffffffffffffffffffffffffffffffffff16611e08565b15611bde578373ffffffffffffffffffffffffffffffffffffffff1663150b7a02611aae61122a565b8786866040518563ffffffff1660e01b8152600401611ad09493929190613b3c565b6020604051808303816000875af1925050508015611b0c57506040513d601f19601f82011682018060405250810190611b099190613b9d565b60015b611b8e573d8060008114611b3c576040519150601f19603f3d011682016040523d82523d6000602084013e611b41565b606091505b506000815103611b86576040517f08c379a0000000000000000000000000000000000000000000000000000000008152600401611b7d90613ab4565b60405180910390fd5b805181602001fd5b63150b7a0260e01b7bffffffffffffffffffffffffffffffffffffffffffffffffffffffff1916817bffffffffffffffffffffffffffffffffffffffffffffffffffffffff191614915050611be3565b600190505b949350505050565b600073ffffffffffffffffffffffffffffffffffffffff168273ffffffffffffffffffffffffffffffffffffffff1603611c5a576040517f08c379a0000000000000000000000000000000000000000000000000000000008152600401611c5190613c3c565b60405180910390fd5b611c638161189c565b15611ca3576040517f08c379a0000000000000000000000000000000000000000000000000000000008152600401611c9a90613cce565b60405180910390fd5b611cb16000838360016118dd565b611cba8161189c565b15611cfa576040517f08c379a0000000000000000000000000000000000000000000000000000000008152600401611cf190613cce565b60405180910390fd5b6001600360008473ffffffffffffffffffffffffffffffffffffffff1673ffffffffffffffffffffffffffffffffffffffff16815260200190815260200160002060008282540192505081905550816002600083815260200190815260200160002060006101000a81548173ffffffffffffffffffffffffffffffffffffffff021916908373ffffffffffffffffffffffffffffffffffffffff160217905550808273ffffffffffffffffffffffffffffffffffffffff16600073ffffffffffffffffffffffffffffffffffffffff167fddf252ad1be2c89b69c2b068fc378daa952ba7f163c4a11628f55a4df523b3ef60405160405180910390a4611e04600083836001611a03565b5050565b6000808273ffffffffffffffffffffffffffffffffffffffff163b119050919050565b6000604051905090565b600080fd5b600080fd5b60007fffffffff0000000000000000000000000000000000000000000000000000000082169050919050565b611e7481611e3f565b8114611e7f57600080fd5b50565b600081359050611e9181611e6b565b92915050565b600060208284031215611ead57611eac611e35565b5b6000611ebb84828501611e82565b91505092915050565b60008115159050919050565b611ed981611ec4565b82525050565b6000602082019050611ef46000830184611ed0565b92915050565b600081519050919050565b600082825260208201905092915050565b60005b83811015611f34578082015181840152602081019050611f19565b60008484015250505050565b6000601f19601f8301169050919050565b6000611f5c82611efa565b611f668185611f05565b9350611f76818560208601611f16565b611f7f81611f40565b840191505092915050565b60006020820190508181036000830152611fa48184611f51565b905092915050565b6000819050919050565b611fbf81611fac565b8114611fca57600080fd5b50565b600081359050611fdc81611fb6565b92915050565b600060208284031215611ff857611ff7611e35565b5b600061200684828501611fcd565b91505092915050565b600073ffffffffffffffffffffffffffffffffffffffff82169050919050565b600061203a8261200f565b9050919050565b61204a8161202f565b82525050565b60006020820190506120656000830184612041565b92915050565b6120748161202f565b811461207f57600080fd5b50565b6000813590506120918161206b565b92915050565b600080604083850312156120ae576120ad611e35565b5b60006120bc85828601612082565b92505060206120cd85828601611fcd565b9150509250929050565b6000806000606084860312156120f0576120ef611e35565b5b60006120fe86828701612082565b935050602061210f86828701612082565b925050604061212086828701611fcd565b9150509250925092565b6000806040838503121561214157612140611e35565b5b600061214f85828601611fcd565b925050602061216085828601612082565b9150509250929050565b6000602082840312156121805761217f611e35565b5b600061218e84828501612082565b91505092915050565b6121a081611fac565b82525050565b60006020820190506121bb6000830184612197565b92915050565b600081519050919050565b600082825260208201905092915050565b60006121e8826121c1565b6121f281856121cc565b9350612202818560208601611f16565b61220b81611f40565b840191505092915050565b600060ff82169050919050565b61222c81612216565b82525050565b600060e082019050818103600083015261224c818a611f51565b905061225b6020830189612041565b818103604083015261226d81886121dd565b905061227c6060830187612223565b818103608083015261228e81866121dd565b905081810360a08301526122a281856121dd565b905081810360c08301526122b681846121dd565b905098975050505050505050565b6122cd81611ec4565b81146122d857600080fd5b50565b6000813590506122ea816122c4565b92915050565b6000806040838503121561230757612306611e35565b5b600061231585828601612082565b9250506020612326858286016122db565b9150509250929050565b600080fd5b600080fd5b7f4e487b7100000000000000000000000000000000000000000000000000000000600052604160045260246000fd5b61237282611f40565b810181811067ffffffffffffffff821117156123915761239061233a565b5b80604052505050565b60006123a4611e2b565b90506123b08282612369565b919050565b600067ffffffffffffffff8211156123d0576123cf61233a565b5b6123d982611f40565b9050602081019050919050565b82818337600083830152505050565b6000612408612403846123b5565b61239a565b90508281526020810184848401111561242457612423612335565b5b61242f8482856123e6565b509392505050565b600082601f83011261244c5761244b612330565b5b813561245c8482602086016123f5565b91505092915050565b60006020828403121561247b5761247a611e35565b5b600082013567ffffffffffffffff81111561249957612498611e3a565b5b6124a584828501612437565b91505092915050565b600067ffffffffffffffff8211156124c9576124c861233a565b5b6124d282611f40565b9050602081019050919050565b60006124f26124ed846124ae565b61239a565b90508281526020810184848401111561250e5761250d612335565b5b6125198482856123e6565b509392505050565b600082601f83011261253657612535612330565b5b81356125468482602086016124df565b91505092915050565b6000806000806080858703121561256957612568611e35565b5b600061257787828801612082565b945050602061258887828801612082565b935050604061259987828801611fcd565b925050606085013567ffffffffffffffff8111156125ba576125b9611e3a565b5b6125c687828801612521565b91505092959194509250565b600067ffffffffffffffff8211156125ed576125ec61233a565b5b602082029050602081019050919050565b600080fd5b600080fd5b600080fd5b61261681612216565b811461262157600080fd5b50565b6000813590506126338161260d565b92915050565b600060e0828403121561264f5761264e612603565b5b61265960e061239a565b9050600082013567ffffffffffffffff81111561267957612678612608565b5b61268584828501612437565b600083015250602061269984828501612082565b602083015250604082013567ffffffffffffffff8111156126bd576126bc612608565b5b6126c984828501612521565b60408301525060606126dd84828501612624565b606083015250608082013567ffffffffffffffff81111561270157612700612608565b5b61270d84828501612521565b60808301525060a082013567ffffffffffffffff81111561273157612730612608565b5b61273d84828501612521565b60a08301525060c082013567ffffffffffffffff81111561276157612760612608565b5b61276d84828501612521565b60c08301525092915050565b600061278c612787846125d2565b61239a565b905080838252602082019050602084028301858111156127af576127ae6125fe565b5b835b818110156127f657803567ffffffffffffffff8111156127d4576127d3612330565b5b8086016127e18982612639565b855260208501945050506020810190506127b1565b5050509392505050565b600082601f83011261281557612814612330565b5b8135612825848260208601612779565b91505092915050565b6000806000806080858703121561284857612847611e35565b5b600061285687828801612082565b945050602061286787828801612082565b935050604061287887828801611fcd565b925050606085013567ffffffffffffffff81111561289957612898611e3a565b5b6128a587828801612800565b91505092959194509250565b600080604083850312156128c8576128c7611e35565b5b60006128d685828601612082565b92505060206128e785828601612082565b9150509250929050565b7f4e487b7100000000000000000000000000000000000000000000000000000000600052602260045260246000fd5b6000600282049050600182168061293857607f821691505b60208210810361294b5761294a6128f1565b5b50919050565b7f455243373231436c6f6e6561626c653a20617070726f76616c20746f2063757260008201527f72656e74206f776e657200000000000000000000000000000000000000000000602082015250565b60006129ad602a83611f05565b91506129b882612951565b604082019050919050565b600060208201905081810360008301526129dc816129a0565b9050919050565b7f455243373231436c6f6e6561626c653a20617070726f76652063616c6c65722060008201527f6973206e6f7420746f6b656e206f776e6572206f7220617070726f766564206660208201527f6f7220616c6c0000000000000000000000000000000000000000000000000000604082015250565b6000612a65604683611f05565b9150612a70826129e3565b606082019050919050565b60006020820190508181036000830152612a9481612a58565b9050919050565b7f455243373231436c6f6e6561626c653a2063616c6c6572206973206e6f74207460008201527f6f6b656e206f776e6572206f7220617070726f76656400000000000000000000602082015250565b6000612af7603683611f05565b9150612b0282612a9b565b604082019050919050565b60006020820190508181036000830152612b2681612aea565b9050919050565b7f455243373231436c6f6e6561626c653a20696e76616c696420746f6b656e204960008201527f4400000000000000000000000000000000000000000000000000000000000000602082015250565b6000612b89602183611f05565b9150612b9482612b2d565b604082019050919050565b60006020820190508181036000830152612bb881612b7c565b9050919050565b7f455243373231436c6f6e6561626c653a2061646472657373207a65726f20697360008201527f206e6f7420612076616c6964206f776e65720000000000000000000000000000602082015250565b6000612c1b603283611f05565b9150612c2682612bbf565b604082019050919050565b60006020820190508181036000830152612c4a81612c0e565b9050919050565b7f455243373231436c6f6e6561626c653a2073796d626f6c20616c72656164792060008201527f7365740000000000000000000000000000000000000000000000000000000000602082015250565b6000612cad602383611f05565b9150612cb882612c51565b604082019050919050565b60006020820190508181036000830152612cdc81612ca0565b9050919050565b60008190508160005260206000209050919050565b60006020601f8301049050919050565b600082821b905092915050565b600060088302612d457fffffffffffffffffffffffffffffffffffffffffffffffffffffffffffffffff82612d08565b612d4f8683612d08565b95508019841693508086168417925050509392505050565b6000819050919050565b6000612d8c612d87612d8284611fac565b612d67565b611fac565b9050919050565b6000819050919050565b612da683612d71565b612dba612db282612d93565b848454612d15565b825550505050565b600090565b612dcf612dc2565b612dda818484612d9d565b505050565b5b81811015612dfe57612df3600082612dc7565b600181019050612de0565b5050565b601f821115612e4357612e1481612ce3565b612e1d84612cf8565b81016020851015612e2c578190505b612e40612e3885612cf8565b830182612ddf565b50505b505050565b600082821c905092915050565b6000612e6660001984600802612e48565b1980831691505092915050565b6000612e7f8383612e55565b9150826002028217905092915050565b612e9882611efa565b67ffffffffffffffff811115612eb157612eb061233a565b5b612ebb8254612920565b612ec6828285612e02565b600060209050601f831160018114612ef95760008415612ee7578287015190505b612ef18582612e73565b865550612f59565b601f198416612f0786612ce3565b60005b82811015612f2f57848901518255600182019150602085019450602081019050612f0a565b86831015612f4c5784890151612f48601f891682612e55565b8355505b6001600288020188555050505b505050505050565b7f4e487b7100000000000000000000000000000000000000000000000000000000600052603260045260246000fd5b60008190508160005260206000209050919050565b601f821115612fe657612fb781612f90565b612fc084612cf8565b81016020851015612fcf578190505b612fe3612fdb85612cf8565b830182612ddf565b50505b505050565b612ff4826121c1565b67ffffffffffffffff81111561300d5761300c61233a565b5b6130178254612920565b613022828285612fa5565b600060209050601f8311600181146130555760008415613043578287015190505b61304d8582612e73565b8655506130b5565b601f19841661306386612f90565b60005b8281101561308b57848901518255600182019150602085019450602081019050613066565b868310156130a857848901516130a4601f891682612e55565b8355505b6001600288020188555050505b505050505050565b7f4e487b7100000000000000000000000000000000000000000000000000000000600052601160045260246000fd5b60006130f782611fac565b91507fffffffffffffffffffffffffffffffffffffffffffffffffffffffffffffffff8203613129576131286130bd565b5b600182019050919050565b7f455243373231436c6f6e6561626c653a206e616d6520616c726561647920736560008201527f7400000000000000000000000000000000000000000000000000000000000000602082015250565b6000613190602183611f05565b915061319b82613134565b604082019050919050565b600060208201905081810360008301526131bf81613183565b9050919050565b600081549050919050565b600082825260208201905092915050565b60008190508160005260206000209050919050565b600082825260208201905092915050565b6000815461321581612920565b61321f81866131f7565b9450600182166000811461323a576001811461325057613283565b60ff198316865281151560200286019350613283565b61325985612ce3565b60005b8381101561327b5781548189015260018201915060208101905061325c565b808801955050505b50505092915050565b60008160001c9050919050565b600073ffffffffffffffffffffffffffffffffffffffff82169050919050565b60006132cc6132c78361328c565b613299565b9050919050565b6132dc8161202f565b82525050565b600082825260208201905092915050565b6000815461330081612920565b61330a81866132e2565b94506001821660008114613325576001811461333b5761336e565b60ff19831686528115156020028601935061336e565b61334485612f90565b60005b8381101561336657815481890152600182019150602081019050613347565b808801955050505b50505092915050565b600060ff82169050919050565b60006133976133928361328c565b613377565b9050919050565b6133a781612216565b82525050565b600060e08301600080840185830360008701526133ca8382613208565b925050600184015490506133dd816132b9565b6133ea60208701826132d3565b5060028401858303604087015261340183826132f3565b9250506003840154905061341481613384565b613421606087018261339e565b5060048401858303608087015261343883826132f3565b9250506005840185830360a087015261345183826132f3565b9250506006840185830360c087015261346a83826132f3565b925050819250505092915050565b600061348483836133ad565b905092915050565b6000600782019050919050565b60006134a4826131c6565b6134ae81856131d1565b9350836020820285016134c0856131e2565b8060005b858110156134fb578484038952816134dc8582613478565b94506134e78361348c565b925060208a019950506001810190506134c4565b50829750879550505050505092915050565b600060408201905081810360008301526135278185613499565b90506135366020830184612197565b9392505050565b600061355061354b846124ae565b61239a565b90508281526020810184848401111561356c5761356b612335565b5b613577848285611f16565b509392505050565b600082601f83011261359457613593612330565b5b81516135a484826020860161353d565b91505092915050565b6000602082840312156135c3576135c2611e35565b5b600082015167ffffffffffffffff8111156135e1576135e0611e3a565b5b6135ed8482850161357f565b91505092915050565b600081905092915050565b7f646174613a6170706c69636174696f6e2f6a736f6e2c00000000000000000000600082015250565b60006136376016836135f6565b915061364282613601565b601682019050919050565b7f2537422532326e616d652532322533412532324375626533442532302d25323060008201527f475a4950253230436f6d707265737365642532302d25323055524c253230536160208201527f66652532322532432532302532326465736372697074696f6e2532322533412560408201527f3232417373656d626c6573253230475a4950253230636f6d707265737365642560608201527f3230626173653634253230656e636f64656425323074687265652e6a7325323060808201527f776974682532306125323064656d6f2532307363656e652e2532304d6574616460a08201527f617461253230616e64253230616e696d6174696f6e25323055524c253230617260c08201527f65253230626f746825323055524c253230656e636f6465642e2532322532432560e08201527f3232616e696d6174696f6e5f75726c253232253341253232000000000000000061010082015250565b60006137b5610118836135f6565b91506137c08261364d565b61011882019050919050565b600081905092915050565b60006137e2826121c1565b6137ec81856137cc565b93506137fc818560208601611f16565b80840191505092915050565b7f2532322537440000000000000000000000000000000000000000000000000000600082015250565b600061383e6006836135f6565b915061384982613808565b600682019050919050565b600061385f8261362a565b915061386a826137a7565b915061387682846137d7565b915061388182613831565b915081905092915050565b7f455243373231436c6f6e6561626c653a207472616e736665722066726f6d206960008201527f6e636f7272656374206f776e6572000000000000000000000000000000000000602082015250565b60006138e8602e83611f05565b91506138f38261388c565b604082019050919050565b60006020820190508181036000830152613917816138db565b9050919050565b7f455243373231436c6f6e6561626c653a207472616e7366657220746f2074686560008201527f207a65726f206164647265737300000000000000000000000000000000000000602082015250565b600061397a602d83611f05565b91506139858261391e565b604082019050919050565b600060208201905081810360008301526139a98161396d565b9050919050565b7f455243373231436c6f6e6561626c653a20617070726f766520746f2063616c6c60008201527f6572000000000000000000000000000000000000000000000000000000000000602082015250565b6000613a0c602283611f05565b9150613a17826139b0565b604082019050919050565b60006020820190508181036000830152613a3b816139ff565b9050919050565b7f455243373231436c6f6e6561626c653a207472616e7366657220746f206e6f6e60008201527f20455243373231526563656976657220696d706c656d656e7465720000000000602082015250565b6000613a9e603b83611f05565b9150613aa982613a42565b604082019050919050565b60006020820190508181036000830152613acd81613a91565b9050919050565b6000613adf82611fac565b9150613aea83611fac565b9250828203905081811115613b0257613b016130bd565b5b92915050565b6000613b1382611fac565b9150613b1e83611fac565b9250828201905080821115613b3657613b356130bd565b5b92915050565b6000608082019050613b516000830187612041565b613b5e6020830186612041565b613b6b6040830185612197565b8181036060830152613b7d81846121dd565b905095945050505050565b600081519050613b9781611e6b565b92915050565b600060208284031215613bb357613bb2611e35565b5b6000613bc184828501613b88565b91505092915050565b7f455243373231436c6f6e6561626c653a206d696e7420746f20746865207a657260008201527f6f20616464726573730000000000000000000000000000000000000000000000602082015250565b6000613c26602983611f05565b9150613c3182613bca565b604082019050919050565b60006020820190508181036000830152613c5581613c19565b9050919050565b7f455243373231436c6f6e6561626c653a20746f6b656e20616c7265616479206d60008201527f696e746564000000000000000000000000000000000000000000000000000000602082015250565b6000613cb8602583611f05565b9150613cc382613c5c565b604082019050919050565b60006020820190508181036000830152613ce781613cab565b905091905056fea2646970667358221220118d5f58896254e91a61739e9abd013997f4c8e51a7078c62e7937a9946fc19964736f6c63430008110033",
  "linkReferences": {},
  "deployedLinkReferences": {}
}