{
  "_format": "hh-sol-artifact-1",
  "contractName": "Frame",
  "sourceName": "src/contracts/Frame.sol",
  "abi": [
    {
      "inputs": [],
      "stateMutability": "nonpayable",
      "type": "constructor"
    },
    {
      "anonymous": false,
      "inputs": [
        {
          "indexed": true,
          "internalType": "address",
          "name": "owner",
          "type": "address"
        },
        {
          "indexed": true,
          "internalType": "address",
          "name": "approved",
          "type": "address"
        },
        {
          "indexed": true,
          "internalType": "uint256",
          "name": "tokenId",
          "type": "uint256"
        }
      ],
      "name": "Approval",
      "type": "event"
    },
    {
      "anonymous": false,
      "inputs": [
        {
          "indexed": true,
          "internalType": "address",
          "name": "owner",
          "type": "address"
        },
        {
          "indexed": true,
          "internalType": "address",
          "name": "operator",
          "type": "address"
        },
        {
          "indexed": false,
          "internalType": "bool",
          "name": "approved",
          "type": "bool"
        }
      ],
      "name": "ApprovalForAll",
      "type": "event"
    },
    {
      "anonymous": false,
      "inputs": [
        {
          "indexed": true,
          "internalType": "address",
          "name": "from",
          "type": "address"
        },
        {
          "indexed": true,
          "internalType": "address",
          "name": "to",
          "type": "address"
        },
        {
          "indexed": true,
          "internalType": "uint256",
          "name": "tokenId",
          "type": "uint256"
        }
      ],
      "name": "Transfer",
      "type": "event"
    },
    {
      "inputs": [
        {
          "internalType": "address",
          "name": "to",
          "type": "address"
        },
        {
          "internalType": "uint256",
          "name": "tokenId",
          "type": "uint256"
        }
      ],
      "name": "approve",
      "outputs": [],
      "stateMutability": "nonpayable",
      "type": "function"
    },
    {
      "inputs": [
        {
          "internalType": "address",
          "name": "owner",
          "type": "address"
        }
      ],
      "name": "balanceOf",
      "outputs": [
        {
          "internalType": "uint256",
          "name": "",
          "type": "uint256"
        }
      ],
      "stateMutability": "view",
      "type": "function"
    },
    {
      "inputs": [],
      "name": "bufferSize",
      "outputs": [
        {
          "internalType": "uint256",
          "name": "",
          "type": "uint256"
        }
      ],
      "stateMutability": "view",
      "type": "function"
    },
    {
      "inputs": [],
      "name": "description",
      "outputs": [
        {
          "internalType": "string",
          "name": "",
          "type": "string"
        }
      ],
      "stateMutability": "view",
      "type": "function"
    },
    {
      "inputs": [
        {
          "internalType": "uint256",
          "name": "tokenId",
          "type": "uint256"
        }
      ],
      "name": "getApproved",
      "outputs": [
        {
          "internalType": "address",
          "name": "",
          "type": "address"
        }
      ],
      "stateMutability": "view",
      "type": "function"
    },
    {
      "inputs": [
        {
          "components": [
            {
              "internalType": "string",
              "name": "name",
              "type": "string"
            },
            {
              "internalType": "string",
              "name": "description",
              "type": "string"
            },
            {
              "internalType": "string",
              "name": "symbol",
              "type": "string"
            }
          ],
          "internalType": "struct FrameMetadata",
          "name": "_metadata",
          "type": "tuple"
        },
        {
          "internalType": "address",
          "name": "_scriptyBuilderAddress",
          "type": "address"
        },
        {
          "internalType": "uint256",
          "name": "_bufferSize",
          "type": "uint256"
        },
        {
          "components": [
            {
              "internalType": "string",
              "name": "name",
              "type": "string"
            },
            {
              "internalType": "address",
              "name": "contractAddress",
              "type": "address"
            },
            {
              "internalType": "bytes",
              "name": "contractData",
              "type": "bytes"
            },
            {
              "internalType": "uint8",
              "name": "wrapType",
              "type": "uint8"
            },
            {
              "internalType": "bytes",
              "name": "wrapPrefix",
              "type": "bytes"
            },
            {
              "internalType": "bytes",
              "name": "wrapSuffix",
              "type": "bytes"
            },
            {
              "internalType": "bytes",
              "name": "scriptContent",
              "type": "bytes"
            }
          ],
          "internalType": "struct WrappedScriptRequest[]",
          "name": "_requests",
          "type": "tuple[]"
        }
      ],
      "name": "init",
      "outputs": [],
      "stateMutability": "nonpayable",
      "type": "function"
    },
    {
      "inputs": [],
      "name": "initialized",
      "outputs": [
        {
          "internalType": "bool",
          "name": "",
          "type": "bool"
        }
      ],
      "stateMutability": "view",
      "type": "function"
    },
    {
      "inputs": [
        {
          "internalType": "address",
          "name": "owner",
          "type": "address"
        },
        {
          "internalType": "address",
          "name": "operator",
          "type": "address"
        }
      ],
      "name": "isApprovedForAll",
      "outputs": [
        {
          "internalType": "bool",
          "name": "",
          "type": "bool"
        }
      ],
      "stateMutability": "view",
      "type": "function"
    },
    {
      "inputs": [
        {
          "internalType": "address",
          "name": "_owner",
          "type": "address"
        }
      ],
      "name": "mintForOwner",
      "outputs": [],
      "stateMutability": "nonpayable",
      "type": "function"
    },
    {
      "inputs": [],
      "name": "minted",
      "outputs": [
        {
          "internalType": "bool",
          "name": "",
          "type": "bool"
        }
      ],
      "stateMutability": "view",
      "type": "function"
    },
    {
      "inputs": [],
      "name": "name",
      "outputs": [
        {
          "internalType": "string",
          "name": "",
          "type": "string"
        }
      ],
      "stateMutability": "view",
      "type": "function"
    },
    {
      "inputs": [
        {
          "internalType": "uint256",
          "name": "tokenId",
          "type": "uint256"
        }
      ],
      "name": "ownerOf",
      "outputs": [
        {
          "internalType": "address",
          "name": "",
          "type": "address"
        }
      ],
      "stateMutability": "view",
      "type": "function"
    },
    {
      "inputs": [
        {
          "internalType": "uint256",
          "name": "",
          "type": "uint256"
        }
      ],
      "name": "requests",
      "outputs": [
        {
          "internalType": "string",
          "name": "name",
          "type": "string"
        },
        {
          "internalType": "address",
          "name": "contractAddress",
          "type": "address"
        },
        {
          "internalType": "bytes",
          "name": "contractData",
          "type": "bytes"
        },
        {
          "internalType": "uint8",
          "name": "wrapType",
          "type": "uint8"
        },
        {
          "internalType": "bytes",
          "name": "wrapPrefix",
          "type": "bytes"
        },
        {
          "internalType": "bytes",
          "name": "wrapSuffix",
          "type": "bytes"
        },
        {
          "internalType": "bytes",
          "name": "scriptContent",
          "type": "bytes"
        }
      ],
      "stateMutability": "view",
      "type": "function"
    },
    {
      "inputs": [
        {
          "internalType": "address",
          "name": "from",
          "type": "address"
        },
        {
          "internalType": "address",
          "name": "to",
          "type": "address"
        },
        {
          "internalType": "uint256",
          "name": "tokenId",
          "type": "uint256"
        }
      ],
      "name": "safeTransferFrom",
      "outputs": [],
      "stateMutability": "nonpayable",
      "type": "function"
    },
    {
      "inputs": [
        {
          "internalType": "address",
          "name": "from",
          "type": "address"
        },
        {
          "internalType": "address",
          "name": "to",
          "type": "address"
        },
        {
          "internalType": "uint256",
          "name": "tokenId",
          "type": "uint256"
        },
        {
          "internalType": "bytes",
          "name": "data",
          "type": "bytes"
        }
      ],
      "name": "safeTransferFrom",
      "outputs": [],
      "stateMutability": "nonpayable",
      "type": "function"
    },
    {
      "inputs": [],
      "name": "scriptyBuilderAddress",
      "outputs": [
        {
          "internalType": "address",
          "name": "",
          "type": "address"
        }
      ],
      "stateMutability": "view",
      "type": "function"
    },
    {
      "inputs": [
        {
          "internalType": "address",
          "name": "operator",
          "type": "address"
        },
        {
          "internalType": "bool",
          "name": "approved",
          "type": "bool"
        }
      ],
      "name": "setApprovalForAll",
      "outputs": [],
      "stateMutability": "nonpayable",
      "type": "function"
    },
    {
      "inputs": [
        {
          "internalType": "string",
          "name": "nameString",
          "type": "string"
        }
      ],
      "name": "setName",
      "outputs": [],
      "stateMutability": "nonpayable",
      "type": "function"
    },
    {
      "inputs": [
        {
          "internalType": "string",
          "name": "symbolString",
          "type": "string"
        }
      ],
      "name": "setSymbol",
      "outputs": [],
      "stateMutability": "nonpayable",
      "type": "function"
    },
    {
      "inputs": [
        {
          "internalType": "bytes4",
          "name": "interfaceId",
          "type": "bytes4"
        }
      ],
      "name": "supportsInterface",
      "outputs": [
        {
          "internalType": "bool",
          "name": "",
          "type": "bool"
        }
      ],
      "stateMutability": "view",
      "type": "function"
    },
    {
      "inputs": [],
      "name": "symbol",
      "outputs": [
        {
          "internalType": "string",
          "name": "",
          "type": "string"
        }
      ],
      "stateMutability": "view",
      "type": "function"
    },
    {
      "inputs": [
        {
          "internalType": "uint256",
          "name": "",
          "type": "uint256"
        }
      ],
      "name": "tokenURI",
      "outputs": [
        {
          "internalType": "string",
          "name": "",
          "type": "string"
        }
      ],
      "stateMutability": "view",
      "type": "function"
    },
    {
      "inputs": [
        {
          "internalType": "address",
          "name": "from",
          "type": "address"
        },
        {
          "internalType": "address",
          "name": "to",
          "type": "address"
        },
        {
          "internalType": "uint256",
          "name": "tokenId",
          "type": "uint256"
        }
      ],
      "name": "transferFrom",
      "outputs": [],
      "stateMutability": "nonpayable",
      "type": "function"
    }
  ],
  "bytecode": "0x608060405234801561001057600080fd5b50614253806100206000396000f3fe608060405234801561001057600080fd5b506004361061014d5760003560e01c806381d12c58116100c3578063b84c82461161007c578063b84c8246146103a4578063b88d4fde146103c0578063c47f0027146103dc578063c87b56dd146103f8578063e3b71f8714610428578063e985e9c5146104465761014d565b806381d12c58146102de57806395d89b41146103145780639c2c770b14610332578063a22cb46514610350578063a50d81c71461036c578063b1149223146103885761014d565b806323b872dd1161011557806323b872dd1461020a57806342842e0e146102265780634f02c420146102425780636352211e1461026057806370a08231146102905780637284e416146102c05761014d565b806301ffc9a71461015257806306fdde0314610182578063081812fc146101a0578063095ea7b3146101d0578063158ef93e146101ec575b600080fd5b61016c60048036038101906101679190612020565b610476565b6040516101799190612068565b60405180910390f35b61018a610558565b6040516101979190612113565b60405180910390f35b6101ba60048036038101906101b5919061216b565b6105ea565b6040516101c791906121d9565b60405180910390f35b6101ea60048036038101906101e59190612220565b610630565b005b6101f4610747565b6040516102019190612068565b60405180910390f35b610224600480360381019061021f9190612260565b61075a565b005b610240600480360381019061023b9190612260565b6107ba565b005b61024a6107da565b6040516102579190612068565b60405180910390f35b61027a6004803603810190610275919061216b565b6107ed565b60405161028791906121d9565b60405180910390f35b6102aa60048036038101906102a591906122b3565b610873565b6040516102b791906122ef565b60405180910390f35b6102c861092a565b6040516102d59190612113565b60405180910390f35b6102f860048036038101906102f3919061216b565b6109b8565b60405161030b979695949392919061237b565b60405180910390f35b61031c610cdf565b6040516103299190612113565b60405180910390f35b61033a610d71565b60405161034791906122ef565b60405180910390f35b61036a60048036038101906103659190612439565b610d77565b005b610386600480360381019061038191906122b3565b610d8d565b005b6103a2600480360381019061039d9190612502565b610e06565b005b6103be60048036038101906103b991906126d6565b611016565b005b6103da60048036038101906103d591906127c0565b61107a565b005b6103f660048036038101906103f191906126d6565b6110dc565b005b610412600480360381019061040d919061216b565b61113f565b60405161041f9190612113565b60405180910390f35b610430611244565b60405161043d91906121d9565b60405180910390f35b610460600480360381019061045b9190612843565b61126a565b60405161046d9190612068565b60405180910390f35b60007ffc9fdaac000000000000000000000000000000000000000000000000000000007bffffffffffffffffffffffffffffffffffffffffffffffffffffffff1916827bffffffffffffffffffffffffffffffffffffffffffffffffffffffff1916148061054157507f5b5e139f000000000000000000000000000000000000000000000000000000007bffffffffffffffffffffffffffffffffffffffffffffffffffffffff1916827bffffffffffffffffffffffffffffffffffffffffffffffffffffffff1916145b806105515750610550826112fe565b5b9050919050565b606060008054610567906128b2565b80601f0160208091040260200160405190810160405280929190818152602001828054610593906128b2565b80156105e05780601f106105b5576101008083540402835291602001916105e0565b820191906000526020600020905b8154815290600101906020018083116105c357829003601f168201915b5050505050905090565b60006105f582611368565b6004600083815260200190815260200160002060009054906101000a900473ffffffffffffffffffffffffffffffffffffffff169050919050565b600061063b826107ed565b90508073ffffffffffffffffffffffffffffffffffffffff168373ffffffffffffffffffffffffffffffffffffffff16036106ab576040517f08c379a00000000000000000000000000000000000000000000000000000000081526004016106a290612955565b60405180910390fd5b8073ffffffffffffffffffffffffffffffffffffffff166106ca6113b3565b73ffffffffffffffffffffffffffffffffffffffff1614806106f957506106f8816106f36113b3565b61126a565b5b610738576040517f08c379a000000000000000000000000000000000000000000000000000000000815260040161072f90612a0d565b60405180910390fd5b61074283836113bb565b505050565b600660009054906101000a900460ff1681565b61076b6107656113b3565b82611474565b6107aa576040517f08c379a00000000000000000000000000000000000000000000000000000000081526004016107a190612a9f565b60405180910390fd5b6107b5838383611509565b505050565b6107d58383836040518060200160405280600081525061107a565b505050565b600660019054906101000a900460ff1681565b6000806107f983611802565b9050600073ffffffffffffffffffffffffffffffffffffffff168173ffffffffffffffffffffffffffffffffffffffff160361086a576040517f08c379a000000000000000000000000000000000000000000000000000000000815260040161086190612b31565b60405180910390fd5b80915050919050565b60008073ffffffffffffffffffffffffffffffffffffffff168273ffffffffffffffffffffffffffffffffffffffff16036108e3576040517f08c379a00000000000000000000000000000000000000000000000000000000081526004016108da90612bc3565b60405180910390fd5b600360008373ffffffffffffffffffffffffffffffffffffffff1673ffffffffffffffffffffffffffffffffffffffff168152602001908152602001600020549050919050565b60078054610937906128b2565b80601f0160208091040260200160405190810160405280929190818152602001828054610963906128b2565b80156109b05780601f10610985576101008083540402835291602001916109b0565b820191906000526020600020905b81548152906001019060200180831161099357829003601f168201915b505050505081565b600a81815481106109c857600080fd5b90600052602060002090600702016000915090508060000180546109eb906128b2565b80601f0160208091040260200160405190810160405280929190818152602001828054610a17906128b2565b8015610a645780601f10610a3957610100808354040283529160200191610a64565b820191906000526020600020905b815481529060010190602001808311610a4757829003601f168201915b5050505050908060010160009054906101000a900473ffffffffffffffffffffffffffffffffffffffff1690806002018054610a9f906128b2565b80601f0160208091040260200160405190810160405280929190818152602001828054610acb906128b2565b8015610b185780601f10610aed57610100808354040283529160200191610b18565b820191906000526020600020905b815481529060010190602001808311610afb57829003601f168201915b5050505050908060030160009054906101000a900460ff1690806004018054610b40906128b2565b80601f0160208091040260200160405190810160405280929190818152602001828054610b6c906128b2565b8015610bb95780601f10610b8e57610100808354040283529160200191610bb9565b820191906000526020600020905b815481529060010190602001808311610b9c57829003601f168201915b505050505090806005018054610bce906128b2565b80601f0160208091040260200160405190810160405280929190818152602001828054610bfa906128b2565b8015610c475780601f10610c1c57610100808354040283529160200191610c47565b820191906000526020600020905b815481529060010190602001808311610c2a57829003601f168201915b505050505090806006018054610c5c906128b2565b80601f0160208091040260200160405190810160405280929190818152602001828054610c88906128b2565b8015610cd55780601f10610caa57610100808354040283529160200191610cd5565b820191906000526020600020905b815481529060010190602001808311610cb857829003601f168201915b5050505050905087565b606060018054610cee906128b2565b80601f0160208091040260200160405190810160405280929190818152602001828054610d1a906128b2565b8015610d675780601f10610d3c57610100808354040283529160200191610d67565b820191906000526020600020905b815481529060010190602001808311610d4a57829003601f168201915b5050505050905090565b60095481565b610d89610d826113b3565b838361183f565b5050565b600660019054906101000a900460ff1615610ddd576040517f08c379a0000000000000000000000000000000000000000000000000000000008152600401610dd490612c2f565b60405180910390fd5b610de88160006119ab565b6001600660016101000a81548160ff02191690831515021790555050565b600660009054906101000a900460ff1615610e56576040517f08c379a0000000000000000000000000000000000000000000000000000000008152600401610e4d90612c9b565b60405180910390fd5b610eb1858060000190610e699190612cca565b8080601f016020809104026020016040519081016040528093929190818152602001838380828437600081840152601f19601f820116905080830192505050505050506110dc565b610f0c858060400190610ec49190612cca565b8080601f016020809104026020016040519081016040528093929190818152602001838380828437600081840152601f19601f82011690508083019250505050505050611016565b848060200190610f1c9190612cca565b60079182610f2b929190612ee4565b5083600860006101000a81548173ffffffffffffffffffffffffffffffffffffffff021916908373ffffffffffffffffffffffffffffffffffffffff1602179055508260098190555060005b82829050811015610ff357600a838383818110610f9757610f96612fb4565b5b9050602002810190610fa99190612fe3565b90806001815401808255809150506001900390600052602060002090600702016000909190919091508181610fde919061341a565b50508080610feb90613457565b915050610f77565b506001600660006101000a81548160ff0219169083151502179055505050505050565b600060018054611025906128b2565b905014611067576040517f08c379a000000000000000000000000000000000000000000000000000000000815260040161105e90613511565b60405180910390fd5b80600190816110769190613531565b5050565b61108b6110856113b3565b83611474565b6110ca576040517f08c379a00000000000000000000000000000000000000000000000000000000081526004016110c190612a9f565b60405180910390fd5b6110d6848484846119c9565b50505050565b60008080546110ea906128b2565b90501461112c576040517f08c379a000000000000000000000000000000000000000000000000000000000815260040161112390613675565b60405180910390fd5b806000908161113b9190613531565b5050565b60606000600860009054906101000a900473ffffffffffffffffffffffffffffffffffffffff1673ffffffffffffffffffffffffffffffffffffffff1663b4f7d41e600a6009546040518363ffffffff1660e01b81526004016111a39291906139dc565b600060405180830381865afa1580156111c0573d6000803e3d6000fd5b505050506040513d6000823e3d601f19601f820116820180604052508101906111e99190613a7c565b905060006111f5610558565b60078360405160200161120a93929190613cf0565b60405160208183030381529060405290508060405160200161122c9190613d99565b60405160208183030381529060405292505050919050565b600860009054906101000a900473ffffffffffffffffffffffffffffffffffffffff1681565b6000600560008473ffffffffffffffffffffffffffffffffffffffff1673ffffffffffffffffffffffffffffffffffffffff16815260200190815260200160002060008373ffffffffffffffffffffffffffffffffffffffff1673ffffffffffffffffffffffffffffffffffffffff16815260200190815260200160002060009054906101000a900460ff16905092915050565b60007f01ffc9a7000000000000000000000000000000000000000000000000000000007bffffffffffffffffffffffffffffffffffffffffffffffffffffffff1916827bffffffffffffffffffffffffffffffffffffffffffffffffffffffff1916149050919050565b61137181611a25565b6113b0576040517f08c379a00000000000000000000000000000000000000000000000000000000081526004016113a790612b31565b60405180910390fd5b50565b600033905090565b816004600083815260200190815260200160002060006101000a81548173ffffffffffffffffffffffffffffffffffffffff021916908373ffffffffffffffffffffffffffffffffffffffff160217905550808273ffffffffffffffffffffffffffffffffffffffff1661142e836107ed565b73ffffffffffffffffffffffffffffffffffffffff167f8c5be1e5ebec7d5bd14f71427d1e84f3dd0314c0f7b2291e5b200ac8c7c3b92560405160405180910390a45050565b600080611480836107ed565b90508073ffffffffffffffffffffffffffffffffffffffff168473ffffffffffffffffffffffffffffffffffffffff1614806114c257506114c1818561126a565b5b8061150057508373ffffffffffffffffffffffffffffffffffffffff166114e8846105ea565b73ffffffffffffffffffffffffffffffffffffffff16145b91505092915050565b8273ffffffffffffffffffffffffffffffffffffffff16611529826107ed565b73ffffffffffffffffffffffffffffffffffffffff161461157f576040517f08c379a000000000000000000000000000000000000000000000000000000000815260040161157690613e2d565b60405180910390fd5b600073ffffffffffffffffffffffffffffffffffffffff168273ffffffffffffffffffffffffffffffffffffffff16036115ee576040517f08c379a00000000000000000000000000000000000000000000000000000000081526004016115e590613ebf565b60405180910390fd5b6115fb8383836001611a66565b8273ffffffffffffffffffffffffffffffffffffffff1661161b826107ed565b73ffffffffffffffffffffffffffffffffffffffff1614611671576040517f08c379a000000000000000000000000000000000000000000000000000000000815260040161166890613e2d565b60405180910390fd5b6004600082815260200190815260200160002060006101000a81549073ffffffffffffffffffffffffffffffffffffffff02191690556001600360008573ffffffffffffffffffffffffffffffffffffffff1673ffffffffffffffffffffffffffffffffffffffff168152602001908152602001600020600082825403925050819055506001600360008473ffffffffffffffffffffffffffffffffffffffff1673ffffffffffffffffffffffffffffffffffffffff16815260200190815260200160002060008282540192505081905550816002600083815260200190815260200160002060006101000a81548173ffffffffffffffffffffffffffffffffffffffff021916908373ffffffffffffffffffffffffffffffffffffffff160217905550808273ffffffffffffffffffffffffffffffffffffffff168473ffffffffffffffffffffffffffffffffffffffff167fddf252ad1be2c89b69c2b068fc378daa952ba7f163c4a11628f55a4df523b3ef60405160405180910390a46117fd8383836001611b8c565b505050565b60006002600083815260200190815260200160002060009054906101000a900473ffffffffffffffffffffffffffffffffffffffff169050919050565b8173ffffffffffffffffffffffffffffffffffffffff168373ffffffffffffffffffffffffffffffffffffffff16036118ad576040517f08c379a00000000000000000000000000000000000000000000000000000000081526004016118a490613f51565b60405180910390fd5b80600560008573ffffffffffffffffffffffffffffffffffffffff1673ffffffffffffffffffffffffffffffffffffffff16815260200190815260200160002060008473ffffffffffffffffffffffffffffffffffffffff1673ffffffffffffffffffffffffffffffffffffffff16815260200190815260200160002060006101000a81548160ff0219169083151502179055508173ffffffffffffffffffffffffffffffffffffffff168373ffffffffffffffffffffffffffffffffffffffff167f17307eab39ab6107e8899845ad3d59bd9653f200f220920489ca2b5937696c318360405161199e9190612068565b60405180910390a3505050565b6119c5828260405180602001604052806000815250611b92565b5050565b6119d4848484611509565b6119e084848484611bed565b611a1f576040517f08c379a0000000000000000000000000000000000000000000000000000000008152600401611a1690613fe3565b60405180910390fd5b50505050565b60008073ffffffffffffffffffffffffffffffffffffffff16611a4783611802565b73ffffffffffffffffffffffffffffffffffffffff1614159050919050565b6001811115611b8657600073ffffffffffffffffffffffffffffffffffffffff168473ffffffffffffffffffffffffffffffffffffffff1614611afa5780600360008673ffffffffffffffffffffffffffffffffffffffff1673ffffffffffffffffffffffffffffffffffffffff1681526020019081526020016000206000828254611af29190614003565b925050819055505b600073ffffffffffffffffffffffffffffffffffffffff168373ffffffffffffffffffffffffffffffffffffffff1614611b855780600360008573ffffffffffffffffffffffffffffffffffffffff1673ffffffffffffffffffffffffffffffffffffffff1681526020019081526020016000206000828254611b7d9190614037565b925050819055505b5b50505050565b50505050565b611b9c8383611d74565b611ba96000848484611bed565b611be8576040517f08c379a0000000000000000000000000000000000000000000000000000000008152600401611bdf90613fe3565b60405180910390fd5b505050565b6000611c0e8473ffffffffffffffffffffffffffffffffffffffff16611f91565b15611d67578373ffffffffffffffffffffffffffffffffffffffff1663150b7a02611c376113b3565b8786866040518563ffffffff1660e01b8152600401611c59949392919061406b565b6020604051808303816000875af1925050508015611c9557506040513d601f19601f82011682018060405250810190611c9291906140cc565b60015b611d17573d8060008114611cc5576040519150601f19603f3d011682016040523d82523d6000602084013e611cca565b606091505b506000815103611d0f576040517f08c379a0000000000000000000000000000000000000000000000000000000008152600401611d0690613fe3565b60405180910390fd5b805181602001fd5b63150b7a0260e01b7bffffffffffffffffffffffffffffffffffffffffffffffffffffffff1916817bffffffffffffffffffffffffffffffffffffffffffffffffffffffff191614915050611d6c565b600190505b949350505050565b600073ffffffffffffffffffffffffffffffffffffffff168273ffffffffffffffffffffffffffffffffffffffff1603611de3576040517f08c379a0000000000000000000000000000000000000000000000000000000008152600401611dda9061416b565b60405180910390fd5b611dec81611a25565b15611e2c576040517f08c379a0000000000000000000000000000000000000000000000000000000008152600401611e23906141fd565b60405180910390fd5b611e3a600083836001611a66565b611e4381611a25565b15611e83576040517f08c379a0000000000000000000000000000000000000000000000000000000008152600401611e7a906141fd565b60405180910390fd5b6001600360008473ffffffffffffffffffffffffffffffffffffffff1673ffffffffffffffffffffffffffffffffffffffff16815260200190815260200160002060008282540192505081905550816002600083815260200190815260200160002060006101000a81548173ffffffffffffffffffffffffffffffffffffffff021916908373ffffffffffffffffffffffffffffffffffffffff160217905550808273ffffffffffffffffffffffffffffffffffffffff16600073ffffffffffffffffffffffffffffffffffffffff167fddf252ad1be2c89b69c2b068fc378daa952ba7f163c4a11628f55a4df523b3ef60405160405180910390a4611f8d600083836001611b8c565b5050565b6000808273ffffffffffffffffffffffffffffffffffffffff163b119050919050565b6000604051905090565b600080fd5b600080fd5b60007fffffffff0000000000000000000000000000000000000000000000000000000082169050919050565b611ffd81611fc8565b811461200857600080fd5b50565b60008135905061201a81611ff4565b92915050565b60006020828403121561203657612035611fbe565b5b60006120448482850161200b565b91505092915050565b60008115159050919050565b6120628161204d565b82525050565b600060208201905061207d6000830184612059565b92915050565b600081519050919050565b600082825260208201905092915050565b60005b838110156120bd5780820151818401526020810190506120a2565b60008484015250505050565b6000601f19601f8301169050919050565b60006120e582612083565b6120ef818561208e565b93506120ff81856020860161209f565b612108816120c9565b840191505092915050565b6000602082019050818103600083015261212d81846120da565b905092915050565b6000819050919050565b61214881612135565b811461215357600080fd5b50565b6000813590506121658161213f565b92915050565b60006020828403121561218157612180611fbe565b5b600061218f84828501612156565b91505092915050565b600073ffffffffffffffffffffffffffffffffffffffff82169050919050565b60006121c382612198565b9050919050565b6121d3816121b8565b82525050565b60006020820190506121ee60008301846121ca565b92915050565b6121fd816121b8565b811461220857600080fd5b50565b60008135905061221a816121f4565b92915050565b6000806040838503121561223757612236611fbe565b5b60006122458582860161220b565b925050602061225685828601612156565b9150509250929050565b60008060006060848603121561227957612278611fbe565b5b60006122878682870161220b565b93505060206122988682870161220b565b92505060406122a986828701612156565b9150509250925092565b6000602082840312156122c9576122c8611fbe565b5b60006122d78482850161220b565b91505092915050565b6122e981612135565b82525050565b600060208201905061230460008301846122e0565b92915050565b600081519050919050565b600082825260208201905092915050565b60006123318261230a565b61233b8185612315565b935061234b81856020860161209f565b612354816120c9565b840191505092915050565b600060ff82169050919050565b6123758161235f565b82525050565b600060e0820190508181036000830152612395818a6120da565b90506123a460208301896121ca565b81810360408301526123b68188612326565b90506123c5606083018761236c565b81810360808301526123d78186612326565b905081810360a08301526123eb8185612326565b905081810360c08301526123ff8184612326565b905098975050505050505050565b6124168161204d565b811461242157600080fd5b50565b6000813590506124338161240d565b92915050565b600080604083850312156124505761244f611fbe565b5b600061245e8582860161220b565b925050602061246f85828601612424565b9150509250929050565b600080fd5b60006060828403121561249457612493612479565b5b81905092915050565b600080fd5b600080fd5b600080fd5b60008083601f8401126124c2576124c161249d565b5b8235905067ffffffffffffffff8111156124df576124de6124a2565b5b6020830191508360208202830111156124fb576124fa6124a7565b5b9250929050565b60008060008060006080868803121561251e5761251d611fbe565b5b600086013567ffffffffffffffff81111561253c5761253b611fc3565b5b6125488882890161247e565b95505060206125598882890161220b565b945050604061256a88828901612156565b935050606086013567ffffffffffffffff81111561258b5761258a611fc3565b5b612597888289016124ac565b92509250509295509295909350565b600080fd5b7f4e487b7100000000000000000000000000000000000000000000000000000000600052604160045260246000fd5b6125e3826120c9565b810181811067ffffffffffffffff82111715612602576126016125ab565b5b80604052505050565b6000612615611fb4565b905061262182826125da565b919050565b600067ffffffffffffffff821115612641576126406125ab565b5b61264a826120c9565b9050602081019050919050565b82818337600083830152505050565b600061267961267484612626565b61260b565b905082815260208101848484011115612695576126946125a6565b5b6126a0848285612657565b509392505050565b600082601f8301126126bd576126bc61249d565b5b81356126cd848260208601612666565b91505092915050565b6000602082840312156126ec576126eb611fbe565b5b600082013567ffffffffffffffff81111561270a57612709611fc3565b5b612716848285016126a8565b91505092915050565b600067ffffffffffffffff82111561273a576127396125ab565b5b612743826120c9565b9050602081019050919050565b600061276361275e8461271f565b61260b565b90508281526020810184848401111561277f5761277e6125a6565b5b61278a848285612657565b509392505050565b600082601f8301126127a7576127a661249d565b5b81356127b7848260208601612750565b91505092915050565b600080600080608085870312156127da576127d9611fbe565b5b60006127e88782880161220b565b94505060206127f98782880161220b565b935050604061280a87828801612156565b925050606085013567ffffffffffffffff81111561282b5761282a611fc3565b5b61283787828801612792565b91505092959194509250565b6000806040838503121561285a57612859611fbe565b5b60006128688582860161220b565b92505060206128798582860161220b565b9150509250929050565b7f4e487b7100000000000000000000000000000000000000000000000000000000600052602260045260246000fd5b600060028204905060018216806128ca57607f821691505b6020821081036128dd576128dc612883565b5b50919050565b7f455243373231436c6f6e6561626c653a20617070726f76616c20746f2063757260008201527f72656e74206f776e657200000000000000000000000000000000000000000000602082015250565b600061293f602a8361208e565b915061294a826128e3565b604082019050919050565b6000602082019050818103600083015261296e81612932565b9050919050565b7f455243373231436c6f6e6561626c653a20617070726f76652063616c6c65722060008201527f6973206e6f7420746f6b656e206f776e6572206f7220617070726f766564206660208201527f6f7220616c6c0000000000000000000000000000000000000000000000000000604082015250565b60006129f760468361208e565b9150612a0282612975565b606082019050919050565b60006020820190508181036000830152612a26816129ea565b9050919050565b7f455243373231436c6f6e6561626c653a2063616c6c6572206973206e6f74207460008201527f6f6b656e206f776e6572206f7220617070726f76656400000000000000000000602082015250565b6000612a8960368361208e565b9150612a9482612a2d565b604082019050919050565b60006020820190508181036000830152612ab881612a7c565b9050919050565b7f455243373231436c6f6e6561626c653a20696e76616c696420746f6b656e204960008201527f4400000000000000000000000000000000000000000000000000000000000000602082015250565b6000612b1b60218361208e565b9150612b2682612abf565b604082019050919050565b60006020820190508181036000830152612b4a81612b0e565b9050919050565b7f455243373231436c6f6e6561626c653a2061646472657373207a65726f20697360008201527f206e6f7420612076616c6964206f776e65720000000000000000000000000000602082015250565b6000612bad60328361208e565b9150612bb882612b51565b604082019050919050565b60006020820190508181036000830152612bdc81612ba0565b9050919050565b7f4672616d653a20416c7265616479206d696e7465640000000000000000000000600082015250565b6000612c1960158361208e565b9150612c2482612be3565b602082019050919050565b60006020820190508181036000830152612c4881612c0c565b9050919050565b7f4672616d653a20616c726561647920696e697469616c697a6564000000000000600082015250565b6000612c85601a8361208e565b9150612c9082612c4f565b602082019050919050565b60006020820190508181036000830152612cb481612c78565b9050919050565b600080fd5b600080fd5b600080fd5b60008083356001602003843603038112612ce757612ce6612cbb565b5b80840192508235915067ffffffffffffffff821115612d0957612d08612cc0565b5b602083019250600182023603831315612d2557612d24612cc5565b5b509250929050565b600082905092915050565b60008190508160005260206000209050919050565b60006020601f8301049050919050565b600082821b905092915050565b600060088302612d9a7fffffffffffffffffffffffffffffffffffffffffffffffffffffffffffffffff82612d5d565b612da48683612d5d565b95508019841693508086168417925050509392505050565b6000819050919050565b6000612de1612ddc612dd784612135565b612dbc565b612135565b9050919050565b6000819050919050565b612dfb83612dc6565b612e0f612e0782612de8565b848454612d6a565b825550505050565b600090565b612e24612e17565b612e2f818484612df2565b505050565b5b81811015612e5357612e48600082612e1c565b600181019050612e35565b5050565b601f821115612e9857612e6981612d38565b612e7284612d4d565b81016020851015612e81578190505b612e95612e8d85612d4d565b830182612e34565b50505b505050565b600082821c905092915050565b6000612ebb60001984600802612e9d565b1980831691505092915050565b6000612ed48383612eaa565b9150826002028217905092915050565b612eee8383612d2d565b67ffffffffffffffff811115612f0757612f066125ab565b5b612f1182546128b2565b612f1c828285612e57565b6000601f831160018114612f4b5760008415612f39578287013590505b612f438582612ec8565b865550612fab565b601f198416612f5986612d38565b60005b82811015612f8157848901358255600182019150602085019450602081019050612f5c565b86831015612f9e5784890135612f9a601f891682612eaa565b8355505b6001600288020188555050505b50505050505050565b7f4e487b7100000000000000000000000000000000000000000000000000000000600052603260045260246000fd5b60008235600160e003833603038112612fff57612ffe612cbb565b5b80830191505092915050565b613016838383612ee4565b505050565b60008135613028816121f4565b80915050919050565b60008160001b9050919050565b600073ffffffffffffffffffffffffffffffffffffffff61305e84613031565b9350801983169250808416831791505092915050565b600061308f61308a61308584612198565b612dbc565b612198565b9050919050565b60006130a182613074565b9050919050565b60006130b382613096565b9050919050565b6000819050919050565b6130cd826130a8565b6130e06130d9826130ba565b835461303e565b8255505050565b6000808335600160200384360303811261310457613103612cbb565b5b80840192508235915067ffffffffffffffff82111561312657613125612cc0565b5b60208301925060018202360383131561314257613141612cc5565b5b509250929050565b600082905092915050565b60008190508160005260206000209050919050565b601f8211156131ab5761317c81613155565b61318584612d4d565b81016020851015613194578190505b6131a86131a085612d4d565b830182612e34565b50505b505050565b6131ba838361314a565b67ffffffffffffffff8111156131d3576131d26125ab565b5b6131dd82546128b2565b6131e882828561316a565b6000601f8311600181146132175760008415613205578287013590505b61320f8582612ec8565b865550613277565b601f19841661322586613155565b60005b8281101561324d57848901358255600182019150602085019450602081019050613228565b8683101561326a5784890135613266601f891682612eaa565b8355505b6001600288020188555050505b50505050505050565b61328b8383836131b0565b505050565b6132998161235f565b81146132a457600080fd5b50565b600081356132b481613290565b80915050919050565b600060ff6132ca84613031565b9350801983169250808416831791505092915050565b60006132fb6132f66132f18461235f565b612dbc565b61235f565b9050919050565b6000819050919050565b613315826132e0565b61332861332182613302565b83546132bd565b8255505050565b60008101600083016133418185612cca565b61334c81838661300b565b505050506001810160208301806133628161301b565b905061336e81846130c4565b505050600281016040830161338381856130e7565b61338e818386613280565b505050506003810160608301806133a4816132a7565b90506133b0818461330c565b50505060048101608083016133c581856130e7565b6133d0818386613280565b505050506005810160a083016133e681856130e7565b6133f1818386613280565b505050506006810160c0830161340781856130e7565b613412818386613280565b505050505050565b613424828261332f565b5050565b7f4e487b7100000000000000000000000000000000000000000000000000000000600052601160045260246000fd5b600061346282612135565b91507fffffffffffffffffffffffffffffffffffffffffffffffffffffffffffffffff820361349457613493613428565b5b600182019050919050565b7f455243373231436c6f6e6561626c653a2073796d626f6c20616c72656164792060008201527f7365740000000000000000000000000000000000000000000000000000000000602082015250565b60006134fb60238361208e565b91506135068261349f565b604082019050919050565b6000602082019050818103600083015261352a816134ee565b9050919050565b61353a82612083565b67ffffffffffffffff811115613553576135526125ab565b5b61355d82546128b2565b613568828285612e57565b600060209050601f83116001811461359b5760008415613589578287015190505b6135938582612ec8565b8655506135fb565b601f1984166135a986612d38565b60005b828110156135d1578489015182556001820191506020850194506020810190506135ac565b868310156135ee57848901516135ea601f891682612eaa565b8355505b6001600288020188555050505b505050505050565b7f455243373231436c6f6e6561626c653a206e616d6520616c726561647920736560008201527f7400000000000000000000000000000000000000000000000000000000000000602082015250565b600061365f60218361208e565b915061366a82613603565b604082019050919050565b6000602082019050818103600083015261368e81613652565b9050919050565b600081549050919050565b600082825260208201905092915050565b60008190508160005260206000209050919050565b600082825260208201905092915050565b600081546136e4816128b2565b6136ee81866136c6565b94506001821660008114613709576001811461371f57613752565b60ff198316865281151560200286019350613752565b61372885612d38565b60005b8381101561374a5781548189015260018201915060208101905061372b565b808801955050505b50505092915050565b60008160001c9050919050565b600073ffffffffffffffffffffffffffffffffffffffff82169050919050565b600061379b6137968361375b565b613768565b9050919050565b6137ab816121b8565b82525050565b600082825260208201905092915050565b600081546137cf816128b2565b6137d981866137b1565b945060018216600081146137f4576001811461380a5761383d565b60ff19831686528115156020028601935061383d565b61381385613155565b60005b8381101561383557815481890152600182019150602081019050613816565b808801955050505b50505092915050565b600060ff82169050919050565b60006138666138618361375b565b613846565b9050919050565b6138768161235f565b82525050565b600060e083016000808401858303600087015261389983826136d7565b925050600184015490506138ac81613788565b6138b960208701826137a2565b506002840185830360408701526138d083826137c2565b925050600384015490506138e381613853565b6138f0606087018261386d565b5060048401858303608087015261390783826137c2565b9250506005840185830360a087015261392083826137c2565b9250506006840185830360c087015261393983826137c2565b925050819250505092915050565b6000613953838361387c565b905092915050565b6000600782019050919050565b600061397382613695565b61397d81856136a0565b93508360208202850161398f856136b1565b8060005b858110156139ca578484038952816139ab8582613947565b94506139b68361395b565b925060208a01995050600181019050613993565b50829750879550505050505092915050565b600060408201905081810360008301526139f68185613968565b9050613a0560208301846122e0565b9392505050565b6000613a1f613a1a8461271f565b61260b565b905082815260208101848484011115613a3b57613a3a6125a6565b5b613a4684828561209f565b509392505050565b600082601f830112613a6357613a6261249d565b5b8151613a73848260208601613a0c565b91505092915050565b600060208284031215613a9257613a91611fbe565b5b600082015167ffffffffffffffff811115613ab057613aaf611fc3565b5b613abc84828501613a4e565b91505092915050565b600081905092915050565b7f7b226e616d65223a220000000000000000000000000000000000000000000000600082015250565b6000613b06600983613ac5565b9150613b1182613ad0565b600982019050919050565b6000613b2782612083565b613b318185613ac5565b9350613b4181856020860161209f565b80840191505092915050565b7f222c20226465736372697074696f6e223a220000000000000000000000000000600082015250565b6000613b83601283613ac5565b9150613b8e82613b4d565b601282019050919050565b60008154613ba6816128b2565b613bb08186613ac5565b94506001821660008114613bcb5760018114613be057613c13565b60ff1983168652811515820286019350613c13565b613be985612d38565b60005b83811015613c0b57815481890152600182019150602081019050613bec565b838801955050505b50505092915050565b7f222c22616e696d6174696f6e5f75726c223a2200000000000000000000000000600082015250565b6000613c52601383613ac5565b9150613c5d82613c1c565b601382019050919050565b600081905092915050565b6000613c7e8261230a565b613c888185613c68565b9350613c9881856020860161209f565b80840191505092915050565b7f227d000000000000000000000000000000000000000000000000000000000000600082015250565b6000613cda600283613ac5565b9150613ce582613ca4565b600282019050919050565b6000613cfb82613af9565b9150613d078286613b1c565b9150613d1282613b76565b9150613d1e8285613b99565b9150613d2982613c45565b9150613d358284613c73565b9150613d4082613ccd565b9150819050949350505050565b7f646174613a6170706c69636174696f6e2f6a736f6e2c00000000000000000000600082015250565b6000613d83601683613ac5565b9150613d8e82613d4d565b601682019050919050565b6000613da482613d76565b9150613db08284613c73565b915081905092915050565b7f455243373231436c6f6e6561626c653a207472616e736665722066726f6d206960008201527f6e636f7272656374206f776e6572000000000000000000000000000000000000602082015250565b6000613e17602e8361208e565b9150613e2282613dbb565b604082019050919050565b60006020820190508181036000830152613e4681613e0a565b9050919050565b7f455243373231436c6f6e6561626c653a207472616e7366657220746f2074686560008201527f207a65726f206164647265737300000000000000000000000000000000000000602082015250565b6000613ea9602d8361208e565b9150613eb482613e4d565b604082019050919050565b60006020820190508181036000830152613ed881613e9c565b9050919050565b7f455243373231436c6f6e6561626c653a20617070726f766520746f2063616c6c60008201527f6572000000000000000000000000000000000000000000000000000000000000602082015250565b6000613f3b60228361208e565b9150613f4682613edf565b604082019050919050565b60006020820190508181036000830152613f6a81613f2e565b9050919050565b7f455243373231436c6f6e6561626c653a207472616e7366657220746f206e6f6e60008201527f20455243373231526563656976657220696d706c656d656e7465720000000000602082015250565b6000613fcd603b8361208e565b9150613fd882613f71565b604082019050919050565b60006020820190508181036000830152613ffc81613fc0565b9050919050565b600061400e82612135565b915061401983612135565b925082820390508181111561403157614030613428565b5b92915050565b600061404282612135565b915061404d83612135565b925082820190508082111561406557614064613428565b5b92915050565b600060808201905061408060008301876121ca565b61408d60208301866121ca565b61409a60408301856122e0565b81810360608301526140ac8184612326565b905095945050505050565b6000815190506140c681611ff4565b92915050565b6000602082840312156140e2576140e1611fbe565b5b60006140f0848285016140b7565b91505092915050565b7f455243373231436c6f6e6561626c653a206d696e7420746f20746865207a657260008201527f6f20616464726573730000000000000000000000000000000000000000000000602082015250565b600061415560298361208e565b9150614160826140f9565b604082019050919050565b6000602082019050818103600083015261418481614148565b9050919050565b7f455243373231436c6f6e6561626c653a20746f6b656e20616c7265616479206d60008201527f696e746564000000000000000000000000000000000000000000000000000000602082015250565b60006141e760258361208e565b91506141f28261418b565b604082019050919050565b60006020820190508181036000830152614216816141da565b905091905056fea26469706673582212207a4523f2acb311bf027e05cf4d9c29793d0ef41e822fadecca5a668768e28d0e64736f6c63430008110033",
  "linkReferences": {},
  "deployedLinkReferences": {}
}