{
  "_format": "hh-sol-artifact-1",
  "contractName": "Frame",
  "sourceName": "src/contracts/Frame.sol",
  "abi": [
    {
      "inputs": [],
      "stateMutability": "nonpayable",
      "type": "constructor"
    },
    {
      "inputs": [],
      "name": "depsCount",
      "outputs": [
        {
          "internalType": "uint256",
          "name": "",
          "type": "uint256"
        }
      ],
      "stateMutability": "view",
      "type": "function"
    },
    {
      "inputs": [
        {
          "internalType": "uint256",
          "name": "",
          "type": "uint256"
        }
      ],
      "name": "depsList",
      "outputs": [
        {
          "internalType": "string",
          "name": "wrapperKey",
          "type": "string"
        },
        {
          "internalType": "string",
          "name": "key",
          "type": "string"
        },
        {
          "internalType": "address",
          "name": "wrapperStore",
          "type": "address"
        },
        {
          "internalType": "address",
          "name": "store",
          "type": "address"
        }
      ],
      "stateMutability": "view",
      "type": "function"
    },
    {
      "inputs": [
        {
          "components": [
            {
              "internalType": "string",
              "name": "wrapperKey",
              "type": "string"
            },
            {
              "internalType": "string",
              "name": "key",
              "type": "string"
            },
            {
              "internalType": "address",
              "name": "wrapperStore",
              "type": "address"
            },
            {
              "internalType": "address",
              "name": "store",
              "type": "address"
            }
          ],
          "internalType": "struct Frame.Asset[]",
          "name": "_deps",
          "type": "tuple[]"
        },
        {
          "internalType": "address",
          "name": "_sourceStore",
          "type": "address"
        },
        {
          "internalType": "address",
          "name": "_pageWrapStore",
          "type": "address"
        },
        {
          "internalType": "uint256[4][]",
          "name": "_renderMap",
          "type": "uint256[4][]"
        }
      ],
      "name": "init",
      "outputs": [],
      "stateMutability": "nonpayable",
      "type": "function"
    },
    {
      "inputs": [],
      "name": "initSuccess",
      "outputs": [
        {
          "internalType": "bool",
          "name": "",
          "type": "bool"
        }
      ],
      "stateMutability": "view",
      "type": "function"
    },
    {
      "inputs": [],
      "name": "name",
      "outputs": [
        {
          "internalType": "string",
          "name": "",
          "type": "string"
        }
      ],
      "stateMutability": "view",
      "type": "function"
    },
    {
      "inputs": [],
      "name": "pageWrapStore",
      "outputs": [
        {
          "internalType": "contract IFrameDataStore",
          "name": "",
          "type": "address"
        }
      ],
      "stateMutability": "view",
      "type": "function"
    },
    {
      "inputs": [
        {
          "internalType": "uint256",
          "name": "",
          "type": "uint256"
        },
        {
          "internalType": "uint256",
          "name": "",
          "type": "uint256"
        }
      ],
      "name": "renderMap",
      "outputs": [
        {
          "internalType": "uint256",
          "name": "",
          "type": "uint256"
        }
      ],
      "stateMutability": "view",
      "type": "function"
    },
    {
      "inputs": [
        {
          "internalType": "uint256",
          "name": "_rpage",
          "type": "uint256"
        }
      ],
      "name": "renderPage",
      "outputs": [
        {
          "internalType": "string",
          "name": "",
          "type": "string"
        }
      ],
      "stateMutability": "view",
      "type": "function"
    },
    {
      "inputs": [],
      "name": "renderPagesCount",
      "outputs": [
        {
          "internalType": "uint256",
          "name": "",
          "type": "uint256"
        }
      ],
      "stateMutability": "view",
      "type": "function"
    },
    {
      "inputs": [
        {
          "internalType": "string",
          "name": "_name",
          "type": "string"
        }
      ],
      "name": "setName",
      "outputs": [],
      "stateMutability": "nonpayable",
      "type": "function"
    },
    {
      "inputs": [],
      "name": "sourceStore",
      "outputs": [
        {
          "internalType": "contract IFrameDataStore",
          "name": "",
          "type": "address"
        }
      ],
      "stateMutability": "view",
      "type": "function"
    }
  ],
  "bytecode": "0x608060405260405180602001604052806000815250600090805190602001906200002b9291906200005b565b506000600160006101000a81548160ff0219169083151502179055503480156200005457600080fd5b5062000170565b82805462000069906200013a565b90600052602060002090601f0160209004810192826200008d5760008555620000d9565b82601f10620000a857805160ff1916838001178555620000d9565b82800160010185558215620000d9579182015b82811115620000d8578251825591602001919060010190620000bb565b5b509050620000e89190620000ec565b5090565b5b8082111562000107576000816000905550600101620000ed565b5090565b7f4e487b7100000000000000000000000000000000000000000000000000000000600052602260045260246000fd5b600060028204905060018216806200015357607f821691505b602082108114156200016a57620001696200010b565b5b50919050565b61348380620001806000396000f3fe608060405234801561001057600080fd5b50600436106100a95760003560e01c80638b465a84116100715780638b465a8414610156578063b5d40c0514610174578063bbb69b96146101a7578063c0f2cc89146101c3578063c47f0027146101f3578063c55c85671461020f576100a9565b806306fdde03146100ae5780631b68226f146100cc5780636bd40805146100ea5780637556d1b914610108578063827fbc2b14610138575b600080fd5b6100b661022d565b6040516100c39190611fa9565b60405180910390f35b6100d46102bb565b6040516100e19190611fe4565b60405180910390f35b6100f26102c1565b6040516100ff9190611fe4565b60405180910390f35b610122600480360381019061011d919061203f565b6102c7565b60405161012f9190611fa9565b60405180910390f35b6101406115e1565b60405161014d9190612087565b60405180910390f35b61015e6115f4565b60405161016b9190612121565b60405180910390f35b61018e6004803603810190610189919061203f565b61161a565b60405161019e949392919061215d565b60405180910390f35b6101c160048036038101906101bc9190612297565b61179a565b005b6101dd60048036038101906101d8919061233e565b6118a2565b6040516101ea9190611fe4565b60405180910390f35b61020d600480360381019061020891906124ae565b6118ca565b005b610217611935565b6040516102249190612121565b60405180910390f35b6000805461023a90612526565b80601f016020809104026020016040519081016040528092919081815260200182805461026690612526565b80156102b35780601f10610288576101008083540402835291602001916102b3565b820191906000526020600020905b81548152906001019060200180831161029657829003601f168201915b505050505081565b60035481565b60065481565b6060600060076000848152602001908152602001600020600480602002604051908101604052809291908260048015610315576020028201915b815481526020019060010190808311610301575b5050505050905060008160006004811061033257610331612558565b5b6020020151905060008260016004811061034f5761034e612558565b5b6020020151905060008360026004811061036c5761036b612558565b5b6020020151905060008460036004811061038957610388612558565b5b60200201519050600060405180602001604052806000815250905060008590505b6001856103b791906125b6565b81101561129b576000600260008381526020019081526020016000206040518060800160405290816000820180546103ee90612526565b80601f016020809104026020016040519081016040528092919081815260200182805461041a90612526565b80156104675780601f1061043c57610100808354040283529160200191610467565b820191906000526020600020905b81548152906001019060200180831161044a57829003601f168201915b5050505050815260200160018201805461048090612526565b80601f01602080910402602001604051908101604052809291908181526020018280546104ac90612526565b80156104f95780601f106104ce576101008083540402835291602001916104f9565b820191906000526020600020905b8154815290600101906020018083116104dc57829003601f168201915b505050505081526020016002820160009054906101000a900473ffffffffffffffffffffffffffffffffffffffff1673ffffffffffffffffffffffffffffffffffffffff1673ffffffffffffffffffffffffffffffffffffffff1681526020016003820160009054906101000a900473ffffffffffffffffffffffffffffffffffffffff1673ffffffffffffffffffffffffffffffffffffffff1673ffffffffffffffffffffffffffffffffffffffff168152505090506000816060015190506000826040015190506000888514905060008a86146105d95760006105db565b885b9050600082610667578473ffffffffffffffffffffffffffffffffffffffff1663d431a42f87602001516040518263ffffffff1660e01b81526004016106219190611fa9565b602060405180830381865afa15801561063e573d6000803e3d6000fd5b505050506040513d601f19601f820116820180604052508101906106629190612621565b610669565b885b9050600061067a868689868661195b565b9050888160405160200161068f92919061268a565b60405160208183030381529060405298506000600560009054906101000a900473ffffffffffffffffffffffffffffffffffffffff16905060008173ffffffffffffffffffffffffffffffffffffffff16896060015173ffffffffffffffffffffffffffffffffffffffff161415801561077657508173ffffffffffffffffffffffffffffffffffffffff166002600060018d61072c91906125b6565b815260200190815260200160002060030160009054906101000a900473ffffffffffffffffffffffffffffffffffffffff1673ffffffffffffffffffffffffffffffffffffffff16145b905060008873ffffffffffffffffffffffffffffffffffffffff1663d431a42f8b602001516040518263ffffffff1660e01b81526004016107b79190611fa9565b602060405180830381865afa1580156107d4573d6000803e3d6000fd5b505050506040513d601f19601f820116820180604052508101906107f89190612621565b8514905060006108b16002600060018f61081291906125b6565b8152602001908152602001600020600001805461082e90612526565b80601f016020809104026020016040519081016040528092919081815260200182805461085a90612526565b80156108a75780601f1061087c576101008083540402835291602001916108a7565b820191906000526020600020905b81548152906001019060200180831161088a57829003601f168201915b5050505050611c4a565b90506108c08b60000151611c92565b80156108c95750815b15610e9a578215610a60578c600460009054906101000a900473ffffffffffffffffffffffffffffffffffffffff1673ffffffffffffffffffffffffffffffffffffffff166311aa4cba6001806040518363ffffffff1660e01b8152600401610933929190612735565b600060405180830381865afa158015610950573d6000803e3d6000fd5b505050506040513d6000823e3d601f19601f820116820180604052508101906109799190612812565b600460009054906101000a900473ffffffffffffffffffffffffffffffffffffffff1673ffffffffffffffffffffffffffffffffffffffff166311aa4cba6000806040518363ffffffff1660e01b81526004016109d79291906128e2565b600060405180830381865afa1580156109f4573d6000803e3d6000fd5b505050506040513d6000823e3d601f19601f82011682018060405250810190610a1d9190612812565b604051602001610a2e929190612965565b604051602081830303815290604052604051602001610a4e92919061268a565b6040516020818303038152906040529c505b8015610e99576000600460009054906101000a900473ffffffffffffffffffffffffffffffffffffffff1673ffffffffffffffffffffffffffffffffffffffff166311aa4cba6000806040518363ffffffff1660e01b8152600401610ac69291906129d5565b600060405180830381865afa158015610ae3573d6000803e3d6000fd5b505050506040513d6000823e3d601f19601f82011682018060405250810190610b0c9190612812565b604051602001610b1c9190612a11565b604051602081830303815290604052905060005b600354811015610ca957610be1600260008381526020019081526020016000206000018054610b5e90612526565b80601f0160208091040260200160405190810160405280929190818152602001828054610b8a90612526565b8015610bd75780601f10610bac57610100808354040283529160200191610bd7565b820191906000526020600020905b815481529060010190602001808311610bba57829003601f168201915b5050505050611c4a565b15610c965781604051602001610bf79190612a4e565b60405160208183030381529060405260026000838152602001908152602001600020600101604051602001610c2c9190612b08565b604051602081830303815290604052604051602001610c4c92919061268a565b60405160208183030381529060405291506001600354610c6c9190612b2e565b8114610c955781604051602001610c839190612b88565b60405160208183030381529060405291505b5b8080610ca190612bae565b915050610b30565b5080600460009054906101000a900473ffffffffffffffffffffffffffffffffffffffff1673ffffffffffffffffffffffffffffffffffffffff166311aa4cba6001806040518363ffffffff1660e01b8152600401610d09929190612bf7565b600060405180830381865afa158015610d26573d6000803e3d6000fd5b505050506040513d6000823e3d601f19601f82011682018060405250810190610d4f9190612812565b604051602001610d5f9190612a11565b604051602081830303815290604052604051602001610d7f92919061268a565b604051602081830303815290604052600460009054906101000a900473ffffffffffffffffffffffffffffffffffffffff1673ffffffffffffffffffffffffffffffffffffffff166311aa4cba6000806040518363ffffffff1660e01b8152600401610dec929190612c7f565b600060405180830381865afa158015610e09573d6000803e3d6000fd5b505050506040513d6000823e3d601f19601f82011682018060405250810190610e329190612812565b604051602001610e429190612a11565b604051602081830303815290604052604051602001610e6292919061268a565b60405160208183030381529060405290508d81604051602001610e8692919061268a565b6040516020818303038152906040529d50505b5b828015610ea45750815b1561127d57610eb68b60000151611c4a565b156110f0578c600460009054906101000a900473ffffffffffffffffffffffffffffffffffffffff1673ffffffffffffffffffffffffffffffffffffffff166311aa4cba6001806040518363ffffffff1660e01b8152600401610f1a929190612cbb565b600060405180830381865afa158015610f37573d6000803e3d6000fd5b505050506040513d6000823e3d601f19601f82011682018060405250810190610f609190612812565b600460009054906101000a900473ffffffffffffffffffffffffffffffffffffffff1673ffffffffffffffffffffffffffffffffffffffff166311aa4cba6001806040518363ffffffff1660e01b8152600401610fbe929190612735565b600060405180830381865afa158015610fdb573d6000803e3d6000fd5b505050506040513d6000823e3d601f19601f820116820180604052508101906110049190612812565b600460009054906101000a900473ffffffffffffffffffffffffffffffffffffffff1673ffffffffffffffffffffffffffffffffffffffff166311aa4cba6000806040518363ffffffff1660e01b81526004016110629291906128e2565b600060405180830381865afa15801561107f573d6000803e3d6000fd5b505050506040513d6000823e3d601f19601f820116820180604052508101906110a89190612812565b6040516020016110ba93929190612cf7565b6040516020818303038152906040526040516020016110da92919061268a565b6040516020818303038152906040529c5061127c565b8c600460009054906101000a900473ffffffffffffffffffffffffffffffffffffffff1673ffffffffffffffffffffffffffffffffffffffff166311aa4cba6001806040518363ffffffff1660e01b815260040161114f929190612735565b600060405180830381865afa15801561116c573d6000803e3d6000fd5b505050506040513d6000823e3d601f19601f820116820180604052508101906111959190612812565b600460009054906101000a900473ffffffffffffffffffffffffffffffffffffffff1673ffffffffffffffffffffffffffffffffffffffff166311aa4cba6000806040518363ffffffff1660e01b81526004016111f39291906128e2565b600060405180830381865afa158015611210573d6000803e3d6000fd5b505050506040513d6000823e3d601f19601f820116820180604052508101906112399190612812565b60405160200161124a929190612965565b60405160208183030381529060405260405160200161126a92919061268a565b6040516020818303038152906040529c505b5b5050505050505050505050808061129390612bae565b9150506103aa565b50600088141561143157600460009054906101000a900473ffffffffffffffffffffffffffffffffffffffff1673ffffffffffffffffffffffffffffffffffffffff166311aa4cba6000806040518363ffffffff1660e01b8152600401611303929190612d74565b600060405180830381865afa158015611320573d6000803e3d6000fd5b505050506040513d6000823e3d601f19601f820116820180604052508101906113499190612812565b600460009054906101000a900473ffffffffffffffffffffffffffffffffffffffff1673ffffffffffffffffffffffffffffffffffffffff166311aa4cba6000806040518363ffffffff1660e01b81526004016113a7929190612db0565b600060405180830381865afa1580156113c4573d6000803e3d6000fd5b505050506040513d6000823e3d601f19601f820116820180604052508101906113ed9190612812565b6040516020016113fe929190612965565b6040516020818303038152906040528160405160200161141f92919061268a565b60405160208183030381529060405290505b60016006546114409190612b2e565b8814156115d35780600460009054906101000a900473ffffffffffffffffffffffffffffffffffffffff1673ffffffffffffffffffffffffffffffffffffffff166311aa4cba6001806040518363ffffffff1660e01b81526004016114a6929190612dec565b600060405180830381865afa1580156114c3573d6000803e3d6000fd5b505050506040513d6000823e3d601f19601f820116820180604052508101906114ec9190612812565b600460009054906101000a900473ffffffffffffffffffffffffffffffffffffffff1673ffffffffffffffffffffffffffffffffffffffff166311aa4cba6001806040518363ffffffff1660e01b815260040161154a929190612e28565b600060405180830381865afa158015611567573d6000803e3d6000fd5b505050506040513d6000823e3d601f19601f820116820180604052508101906115909190612812565b6040516020016115a1929190612965565b6040516020818303038152906040526040516020016115c192919061268a565b60405160208183030381529060405290505b809650505050505050919050565b600160009054906101000a900460ff1681565b600460009054906101000a900473ffffffffffffffffffffffffffffffffffffffff1681565b600260205280600052604060002060009150905080600001805461163d90612526565b80601f016020809104026020016040519081016040528092919081815260200182805461166990612526565b80156116b65780601f1061168b576101008083540402835291602001916116b6565b820191906000526020600020905b81548152906001019060200180831161169957829003601f168201915b5050505050908060010180546116cb90612526565b80601f01602080910402602001604051908101604052809291908181526020018280546116f790612526565b80156117445780601f1061171957610100808354040283529160200191611744565b820191906000526020600020905b81548152906001019060200180831161172757829003601f168201915b5050505050908060020160009054906101000a900473ffffffffffffffffffffffffffffffffffffffff16908060030160009054906101000a900473ffffffffffffffffffffffffffffffffffffffff16905084565b600160009054906101000a900460ff16156117ea576040517f08c379a00000000000000000000000000000000000000000000000000000000081526004016117e190612eb0565b60405180910390fd5b6117f48686611cda565b6117fe8282611d51565b83600560006101000a81548173ffffffffffffffffffffffffffffffffffffffff021916908373ffffffffffffffffffffffffffffffffffffffff16021790555082600460006101000a81548173ffffffffffffffffffffffffffffffffffffffff021916908373ffffffffffffffffffffffffffffffffffffffff16021790555060018060006101000a81548160ff021916908315150217905550505050505050565b600760205281600052604060002081600481106118be57600080fd5b01600091509150505481565b6003600080546118d990612526565b90501061191b576040517f08c379a000000000000000000000000000000000000000000000000000000000815260040161191290612f1c565b60405180910390fd5b8060009080519060200190611931929190611e2d565b5050565b600560009054906101000a900473ffffffffffffffffffffffffffffffffffffffff1681565b606060006040518060200160405280600081525090506000841415611a24578573ffffffffffffffffffffffffffffffffffffffff166311aa4cba86600001516000806040518463ffffffff1660e01b81526004016119bc93929190612f3c565b600060405180830381865afa1580156119d9573d6000803e3d6000fd5b505050506040513d6000823e3d601f19601f82011682018060405250810190611a029190612812565b604051602001611a129190612a11565b60405160208183030381529060405290505b808773ffffffffffffffffffffffffffffffffffffffff166311aa4cba876020015187876040518463ffffffff1660e01b8152600401611a6693929190612f7a565b600060405180830381865afa158015611a83573d6000803e3d6000fd5b505050506040513d6000823e3d601f19601f82011682018060405250810190611aac9190612812565b604051602001611abc9190612a11565b604051602081830303815290604052604051602001611adc92919061268a565b60405160208183030381529060405290508673ffffffffffffffffffffffffffffffffffffffff1663d431a42f86602001516040518263ffffffff1660e01b8152600401611b2a9190611fa9565b602060405180830381865afa158015611b47573d6000803e3d6000fd5b505050506040513d601f19601f82011682018060405250810190611b6b9190612621565b831415611c3d57808673ffffffffffffffffffffffffffffffffffffffff166311aa4cba87600001516001806040518463ffffffff1660e01b8152600401611bb593929190612fb8565b600060405180830381865afa158015611bd2573d6000803e3d6000fd5b505050506040513d6000823e3d601f19601f82011682018060405250810190611bfb9190612812565b604051602001611c0b9190612a11565b604051602081830303815290604052604051602001611c2b92919061268a565b60405160208183030381529060405290505b8091505095945050505050565b6000611c8b6040518060400160405280601e81526020017f6236342d677a2d696d706f72746d61702d777261702e6a7340312e302e30000081525083611dd4565b9050919050565b6000611cd36040518060400160405280601181526020017f6236342d777261702e6a7340312e302e3000000000000000000000000000000081525083611dd4565b9050919050565b60005b82829050811015611d4257828282818110611cfb57611cfa612558565b5b9050602002810190611d0d9190613005565b600260008381526020019081526020016000208181611d2c9190613428565b9050508080611d3a90612bae565b915050611cdd565b50818190506003819055505050565b60005b82829050811015611dc55760066000815480929190611d7290612bae565b9190505550828282818110611d8a57611d89612558565b5b90506080020160076000838152602001908152602001600020906004611db1929190611eb3565b508080611dbd90612bae565b915050611d54565b50818190506006819055505050565b600081604051602001611de79190613436565b6040516020818303038152906040528051906020012083604051602001611e0e9190613436565b6040516020818303038152906040528051906020012014905092915050565b828054611e3990612526565b90600052602060002090601f016020900481019282611e5b5760008555611ea2565b82601f10611e7457805160ff1916838001178555611ea2565b82800160010185558215611ea2579182015b82811115611ea1578251825591602001919060010190611e86565b5b509050611eaf9190611ef3565b5090565b8260048101928215611ee2579160200282015b82811115611ee1578235825591602001919060010190611ec6565b5b509050611eef9190611ef3565b5090565b5b80821115611f0c576000816000905550600101611ef4565b5090565b600081519050919050565b600082825260208201905092915050565b60005b83811015611f4a578082015181840152602081019050611f2f565b83811115611f59576000848401525b50505050565b6000601f19601f8301169050919050565b6000611f7b82611f10565b611f858185611f1b565b9350611f95818560208601611f2c565b611f9e81611f5f565b840191505092915050565b60006020820190508181036000830152611fc38184611f70565b905092915050565b6000819050919050565b611fde81611fcb565b82525050565b6000602082019050611ff96000830184611fd5565b92915050565b6000604051905090565b600080fd5b600080fd5b61201c81611fcb565b811461202757600080fd5b50565b60008135905061203981612013565b92915050565b60006020828403121561205557612054612009565b5b60006120638482850161202a565b91505092915050565b60008115159050919050565b6120818161206c565b82525050565b600060208201905061209c6000830184612078565b92915050565b600073ffffffffffffffffffffffffffffffffffffffff82169050919050565b6000819050919050565b60006120e76120e26120dd846120a2565b6120c2565b6120a2565b9050919050565b60006120f9826120cc565b9050919050565b600061210b826120ee565b9050919050565b61211b81612100565b82525050565b60006020820190506121366000830184612112565b92915050565b6000612147826120a2565b9050919050565b6121578161213c565b82525050565b600060808201905081810360008301526121778187611f70565b9050818103602083015261218b8186611f70565b905061219a604083018561214e565b6121a7606083018461214e565b95945050505050565b600080fd5b600080fd5b600080fd5b60008083601f8401126121d5576121d46121b0565b5b8235905067ffffffffffffffff8111156121f2576121f16121b5565b5b60208301915083602082028301111561220e5761220d6121ba565b5b9250929050565b61221e8161213c565b811461222957600080fd5b50565b60008135905061223b81612215565b92915050565b60008083601f840112612257576122566121b0565b5b8235905067ffffffffffffffff811115612274576122736121b5565b5b6020830191508360808202830111156122905761228f6121ba565b5b9250929050565b600080600080600080608087890312156122b4576122b3612009565b5b600087013567ffffffffffffffff8111156122d2576122d161200e565b5b6122de89828a016121bf565b965096505060206122f189828a0161222c565b945050604061230289828a0161222c565b935050606087013567ffffffffffffffff8111156123235761232261200e565b5b61232f89828a01612241565b92509250509295509295509295565b6000806040838503121561235557612354612009565b5b60006123638582860161202a565b92505060206123748582860161202a565b9150509250929050565b600080fd5b7f4e487b7100000000000000000000000000000000000000000000000000000000600052604160045260246000fd5b6123bb82611f5f565b810181811067ffffffffffffffff821117156123da576123d9612383565b5b80604052505050565b60006123ed611fff565b90506123f982826123b2565b919050565b600067ffffffffffffffff82111561241957612418612383565b5b61242282611f5f565b9050602081019050919050565b82818337600083830152505050565b600061245161244c846123fe565b6123e3565b90508281526020810184848401111561246d5761246c61237e565b5b61247884828561242f565b509392505050565b600082601f830112612495576124946121b0565b5b81356124a584826020860161243e565b91505092915050565b6000602082840312156124c4576124c3612009565b5b600082013567ffffffffffffffff8111156124e2576124e161200e565b5b6124ee84828501612480565b91505092915050565b7f4e487b7100000000000000000000000000000000000000000000000000000000600052602260045260246000fd5b6000600282049050600182168061253e57607f821691505b60208210811415612552576125516124f7565b5b50919050565b7f4e487b7100000000000000000000000000000000000000000000000000000000600052603260045260246000fd5b7f4e487b7100000000000000000000000000000000000000000000000000000000600052601160045260246000fd5b60006125c182611fcb565b91506125cc83611fcb565b9250827fffffffffffffffffffffffffffffffffffffffffffffffffffffffffffffffff0382111561260157612600612587565b5b828201905092915050565b60008151905061261b81612013565b92915050565b60006020828403121561263757612636612009565b5b60006126458482850161260c565b91505092915050565b600081905092915050565b600061266482611f10565b61266e818561264e565b935061267e818560208601611f2c565b80840191505092915050565b60006126968285612659565b91506126a28284612659565b91508190509392505050565b7f686561642d777261702e68746d6c40312e302e30000000000000000000000000600082015250565b60006126e4601483611f1b565b91506126ef826126ae565b602082019050919050565b6000819050919050565b600061271f61271a612715846126fa565b6120c2565b611fcb565b9050919050565b61272f81612704565b82525050565b6000606082019050818103600083015261274e816126d7565b905061275d6020830185612726565b61276a6040830184612726565b9392505050565b600067ffffffffffffffff82111561278c5761278b612383565b5b61279582611f5f565b9050602081019050919050565b60006127b56127b084612771565b6123e3565b9050828152602081018484840111156127d1576127d061237e565b5b6127dc848285611f2c565b509392505050565b600082601f8301126127f9576127f86121b0565b5b81516128098482602086016127a2565b91505092915050565b60006020828403121561282857612827612009565b5b600082015167ffffffffffffffff8111156128465761284561200e565b5b612852848285016127e4565b91505092915050565b7f626f64792d777261702e68746d6c40312e302e30000000000000000000000000600082015250565b6000612891601483611f1b565b915061289c8261285b565b602082019050919050565b6000819050919050565b60006128cc6128c76128c2846128a7565b6120c2565b611fcb565b9050919050565b6128dc816128b1565b82525050565b600060608201905081810360008301526128fb81612884565b905061290a60208301856128d3565b61291760408301846128d3565b9392505050565b600081519050919050565b600081905092915050565b600061293f8261291e565b6129498185612929565b9350612959818560208601611f2c565b80840191505092915050565b60006129718285612934565b915061297d8284612934565b91508190509392505050565b7f696d706f72742d6b6579732d777261702e6a7340312e302e3000000000000000600082015250565b60006129bf601983611f1b565b91506129ca82612989565b602082019050919050565b600060608201905081810360008301526129ee816129b2565b90506129fd60208301856128d3565b612a0a60408301846128d3565b9392505050565b6000612a1d8284612934565b915081905092915050565b7f2200000000000000000000000000000000000000000000000000000000000000815250565b6000612a5a8284612659565b9150612a6582612a28565b60018201915081905092915050565b60008190508160005260206000209050919050565b60008154612a9681612526565b612aa0818661264e565b94506001821660008114612abb5760018114612acc57612aff565b60ff19831686528186019350612aff565b612ad585612a74565b60005b83811015612af757815481890152600182019150602081019050612ad8565b838801955050505b50505092915050565b6000612b148284612a89565b9150612b1f82612a28565b60018201915081905092915050565b6000612b3982611fcb565b9150612b4483611fcb565b925082821015612b5757612b56612587565b5b828203905092915050565b7f2c00000000000000000000000000000000000000000000000000000000000000815250565b6000612b948284612659565b9150612b9f82612b62565b60018201915081905092915050565b6000612bb982611fcb565b91507fffffffffffffffffffffffffffffffffffffffffffffffffffffffffffffffff821415612bec57612beb612587565b5b600182019050919050565b60006060820190508181036000830152612c10816129b2565b9050612c1f6020830185612726565b612c2c6040830184612726565b9392505050565b7f696d706f72746d61702d696e69742d777261702e6a7340312e302e3000000000600082015250565b6000612c69601c83611f1b565b9150612c7482612c33565b602082019050919050565b60006060820190508181036000830152612c9881612c5c565b9050612ca760208301856128d3565b612cb460408301846128d3565b9392505050565b60006060820190508181036000830152612cd481612c5c565b9050612ce36020830185612726565b612cf06040830184612726565b9392505050565b6000612d038286612934565b9150612d0f8285612934565b9150612d1b8284612934565b9150819050949350505050565b7f68746d6c2d777261702e68746d6c40312e302e30000000000000000000000000600082015250565b6000612d5e601483611f1b565b9150612d6982612d28565b602082019050919050565b60006060820190508181036000830152612d8d81612d51565b9050612d9c60208301856128d3565b612da960408301846128d3565b9392505050565b60006060820190508181036000830152612dc9816126d7565b9050612dd860208301856128d3565b612de560408301846128d3565b9392505050565b60006060820190508181036000830152612e0581612884565b9050612e146020830185612726565b612e216040830184612726565b9392505050565b60006060820190508181036000830152612e4181612d51565b9050612e506020830185612726565b612e5d6040830184612726565b9392505050565b7f4672616d653a2043616e27742072652d696e697420636f6e7472616374000000600082015250565b6000612e9a601d83611f1b565b9150612ea582612e64565b602082019050919050565b60006020820190508181036000830152612ec981612e8d565b9050919050565b7f4672616d653a204e616d6520616c726561647920736574000000000000000000600082015250565b6000612f06601783611f1b565b9150612f1182612ed0565b602082019050919050565b60006020820190508181036000830152612f3581612ef9565b9050919050565b60006060820190508181036000830152612f568186611f70565b9050612f6560208301856128d3565b612f7260408301846128d3565b949350505050565b60006060820190508181036000830152612f948186611f70565b9050612fa36020830185611fd5565b612fb06040830184611fd5565b949350505050565b60006060820190508181036000830152612fd28186611f70565b9050612fe16020830185612726565b612fee6040830184612726565b949350505050565b600080fd5b600080fd5b600080fd5b60008235600160800383360303811261302157613020612ff6565b5b80830191505092915050565b6000808335600160200384360303811261304a57613049612ff6565b5b80840192508235915067ffffffffffffffff82111561306c5761306b612ffb565b5b60208301925060018202360383131561308857613087613000565b5b509250929050565b600082905092915050565b60006020601f8301049050919050565b600082821b905092915050565b6000600883026130e87fffffffffffffffffffffffffffffffffffffffffffffffffffffffffffffffff826130ab565b6130f286836130ab565b95508019841693508086168417925050509392505050565b600061312561312061311b84611fcb565b6120c2565b611fcb565b9050919050565b6000819050919050565b61313f8361310a565b61315361314b8261312c565b8484546130b8565b825550505050565b600090565b61316861315b565b613173818484613136565b505050565b5b818110156131975761318c600082613160565b600181019050613179565b5050565b601f8211156131dc576131ad81612a74565b6131b68461309b565b810160208510156131c5578190505b6131d96131d18561309b565b830182613178565b50505b505050565b600082821c905092915050565b60006131ff600019846008026131e1565b1980831691505092915050565b600061321883836131ee565b9150826002028217905092915050565b6132328383613090565b67ffffffffffffffff81111561324b5761324a612383565b5b6132558254612526565b61326082828561319b565b6000601f83116001811461328f576000841561327d578287013590505b613287858261320c565b8655506132ef565b601f19841661329d86612a74565b60005b828110156132c5578489013582556001820191506020850194506020810190506132a0565b868310156132e257848901356132de601f8916826131ee565b8355505b6001600288020188555050505b50505050505050565b613303838383613228565b505050565b6000813561331581612215565b80915050919050565b60008160001b9050919050565b600073ffffffffffffffffffffffffffffffffffffffff61334b8461331e565b9350801983169250808416831791505092915050565b600061336c826120ee565b9050919050565b6000819050919050565b61338682613361565b61339961339282613373565b835461332b565b8255505050565b60008101600083016133b2818561302d565b6133bd8183866132f8565b5050505060018101602083016133d3818561302d565b6133de8183866132f8565b505050506002810160408301806133f481613308565b9050613400818461337d565b50505060038101606083018061341581613308565b9050613421818461337d565b5050505050565b61343282826133a0565b5050565b60006134428284612659565b91508190509291505056fea2646970667358221220e395766bd182e43efa9504d4256da3c16dd8052ceffb5ddfd504f5bf9b19bb3664736f6c634300080c0033",
  "linkReferences": {},
  "deployedLinkReferences": {}
}