{
  "_format": "hh-sol-artifact-1",
  "contractName": "Frame",
  "sourceName": "src/contracts/Frame.sol",
  "abi": [
    {
      "inputs": [],
      "stateMutability": "nonpayable",
      "type": "constructor"
    },
    {
      "anonymous": false,
      "inputs": [
        {
          "indexed": true,
          "internalType": "address",
          "name": "owner",
          "type": "address"
        },
        {
          "indexed": true,
          "internalType": "address",
          "name": "approved",
          "type": "address"
        },
        {
          "indexed": true,
          "internalType": "uint256",
          "name": "tokenId",
          "type": "uint256"
        }
      ],
      "name": "Approval",
      "type": "event"
    },
    {
      "anonymous": false,
      "inputs": [
        {
          "indexed": true,
          "internalType": "address",
          "name": "owner",
          "type": "address"
        },
        {
          "indexed": true,
          "internalType": "address",
          "name": "operator",
          "type": "address"
        },
        {
          "indexed": false,
          "internalType": "bool",
          "name": "approved",
          "type": "bool"
        }
      ],
      "name": "ApprovalForAll",
      "type": "event"
    },
    {
      "anonymous": false,
      "inputs": [
        {
          "indexed": true,
          "internalType": "address",
          "name": "from",
          "type": "address"
        },
        {
          "indexed": true,
          "internalType": "address",
          "name": "to",
          "type": "address"
        },
        {
          "indexed": true,
          "internalType": "uint256",
          "name": "tokenId",
          "type": "uint256"
        }
      ],
      "name": "Transfer",
      "type": "event"
    },
    {
      "inputs": [
        {
          "internalType": "address",
          "name": "to",
          "type": "address"
        },
        {
          "internalType": "uint256",
          "name": "tokenId",
          "type": "uint256"
        }
      ],
      "name": "approve",
      "outputs": [],
      "stateMutability": "nonpayable",
      "type": "function"
    },
    {
      "inputs": [
        {
          "internalType": "address",
          "name": "owner",
          "type": "address"
        }
      ],
      "name": "balanceOf",
      "outputs": [
        {
          "internalType": "uint256",
          "name": "",
          "type": "uint256"
        }
      ],
      "stateMutability": "view",
      "type": "function"
    },
    {
      "inputs": [],
      "name": "bufferSize",
      "outputs": [
        {
          "internalType": "uint256",
          "name": "",
          "type": "uint256"
        }
      ],
      "stateMutability": "view",
      "type": "function"
    },
    {
      "inputs": [
        {
          "internalType": "uint256",
          "name": "tokenId",
          "type": "uint256"
        }
      ],
      "name": "getApproved",
      "outputs": [
        {
          "internalType": "address",
          "name": "",
          "type": "address"
        }
      ],
      "stateMutability": "view",
      "type": "function"
    },
    {
      "inputs": [
        {
          "components": [
            {
              "internalType": "string",
              "name": "encodedName",
              "type": "string"
            },
            {
              "internalType": "string",
              "name": "encodedDescription",
              "type": "string"
            }
          ],
          "internalType": "struct FrameMetadata",
          "name": "_metadata",
          "type": "tuple"
        },
        {
          "internalType": "address",
          "name": "_scriptyBuilderAddress",
          "type": "address"
        },
        {
          "internalType": "uint256",
          "name": "_bufferSize",
          "type": "uint256"
        },
        {
          "components": [
            {
              "internalType": "string",
              "name": "name",
              "type": "string"
            },
            {
              "internalType": "address",
              "name": "contractAddress",
              "type": "address"
            },
            {
              "internalType": "bytes",
              "name": "contractData",
              "type": "bytes"
            },
            {
              "internalType": "uint8",
              "name": "wrapType",
              "type": "uint8"
            },
            {
              "internalType": "bytes",
              "name": "wrapPrefix",
              "type": "bytes"
            },
            {
              "internalType": "bytes",
              "name": "wrapSuffix",
              "type": "bytes"
            },
            {
              "internalType": "bytes",
              "name": "scriptContent",
              "type": "bytes"
            }
          ],
          "internalType": "struct WrappedScriptRequest[]",
          "name": "_requests",
          "type": "tuple[]"
        }
      ],
      "name": "init",
      "outputs": [],
      "stateMutability": "nonpayable",
      "type": "function"
    },
    {
      "inputs": [],
      "name": "initialized",
      "outputs": [
        {
          "internalType": "bool",
          "name": "",
          "type": "bool"
        }
      ],
      "stateMutability": "view",
      "type": "function"
    },
    {
      "inputs": [
        {
          "internalType": "address",
          "name": "owner",
          "type": "address"
        },
        {
          "internalType": "address",
          "name": "operator",
          "type": "address"
        }
      ],
      "name": "isApprovedForAll",
      "outputs": [
        {
          "internalType": "bool",
          "name": "",
          "type": "bool"
        }
      ],
      "stateMutability": "view",
      "type": "function"
    },
    {
      "inputs": [
        {
          "internalType": "address",
          "name": "_owner",
          "type": "address"
        }
      ],
      "name": "mintForOwner",
      "outputs": [],
      "stateMutability": "nonpayable",
      "type": "function"
    },
    {
      "inputs": [],
      "name": "minted",
      "outputs": [
        {
          "internalType": "bool",
          "name": "",
          "type": "bool"
        }
      ],
      "stateMutability": "view",
      "type": "function"
    },
    {
      "inputs": [],
      "name": "name",
      "outputs": [
        {
          "internalType": "string",
          "name": "",
          "type": "string"
        }
      ],
      "stateMutability": "view",
      "type": "function"
    },
    {
      "inputs": [
        {
          "internalType": "uint256",
          "name": "tokenId",
          "type": "uint256"
        }
      ],
      "name": "ownerOf",
      "outputs": [
        {
          "internalType": "address",
          "name": "",
          "type": "address"
        }
      ],
      "stateMutability": "view",
      "type": "function"
    },
    {
      "inputs": [
        {
          "internalType": "uint256",
          "name": "",
          "type": "uint256"
        }
      ],
      "name": "requests",
      "outputs": [
        {
          "internalType": "string",
          "name": "name",
          "type": "string"
        },
        {
          "internalType": "address",
          "name": "contractAddress",
          "type": "address"
        },
        {
          "internalType": "bytes",
          "name": "contractData",
          "type": "bytes"
        },
        {
          "internalType": "uint8",
          "name": "wrapType",
          "type": "uint8"
        },
        {
          "internalType": "bytes",
          "name": "wrapPrefix",
          "type": "bytes"
        },
        {
          "internalType": "bytes",
          "name": "wrapSuffix",
          "type": "bytes"
        },
        {
          "internalType": "bytes",
          "name": "scriptContent",
          "type": "bytes"
        }
      ],
      "stateMutability": "view",
      "type": "function"
    },
    {
      "inputs": [
        {
          "internalType": "address",
          "name": "from",
          "type": "address"
        },
        {
          "internalType": "address",
          "name": "to",
          "type": "address"
        },
        {
          "internalType": "uint256",
          "name": "tokenId",
          "type": "uint256"
        }
      ],
      "name": "safeTransferFrom",
      "outputs": [],
      "stateMutability": "nonpayable",
      "type": "function"
    },
    {
      "inputs": [
        {
          "internalType": "address",
          "name": "from",
          "type": "address"
        },
        {
          "internalType": "address",
          "name": "to",
          "type": "address"
        },
        {
          "internalType": "uint256",
          "name": "tokenId",
          "type": "uint256"
        },
        {
          "internalType": "bytes",
          "name": "data",
          "type": "bytes"
        }
      ],
      "name": "safeTransferFrom",
      "outputs": [],
      "stateMutability": "nonpayable",
      "type": "function"
    },
    {
      "inputs": [],
      "name": "scriptyBuilderAddress",
      "outputs": [
        {
          "internalType": "address",
          "name": "",
          "type": "address"
        }
      ],
      "stateMutability": "view",
      "type": "function"
    },
    {
      "inputs": [
        {
          "internalType": "address",
          "name": "operator",
          "type": "address"
        },
        {
          "internalType": "bool",
          "name": "approved",
          "type": "bool"
        }
      ],
      "name": "setApprovalForAll",
      "outputs": [],
      "stateMutability": "nonpayable",
      "type": "function"
    },
    {
      "inputs": [
        {
          "internalType": "string",
          "name": "nameString",
          "type": "string"
        }
      ],
      "name": "setName",
      "outputs": [],
      "stateMutability": "nonpayable",
      "type": "function"
    },
    {
      "inputs": [
        {
          "internalType": "string",
          "name": "symbolString",
          "type": "string"
        }
      ],
      "name": "setSymbol",
      "outputs": [],
      "stateMutability": "nonpayable",
      "type": "function"
    },
    {
      "inputs": [
        {
          "internalType": "bytes4",
          "name": "interfaceId",
          "type": "bytes4"
        }
      ],
      "name": "supportsInterface",
      "outputs": [
        {
          "internalType": "bool",
          "name": "",
          "type": "bool"
        }
      ],
      "stateMutability": "view",
      "type": "function"
    },
    {
      "inputs": [],
      "name": "symbol",
      "outputs": [
        {
          "internalType": "string",
          "name": "",
          "type": "string"
        }
      ],
      "stateMutability": "view",
      "type": "function"
    },
    {
      "inputs": [
        {
          "internalType": "uint256",
          "name": "",
          "type": "uint256"
        }
      ],
      "name": "tokenURI",
      "outputs": [
        {
          "internalType": "string",
          "name": "",
          "type": "string"
        }
      ],
      "stateMutability": "view",
      "type": "function"
    },
    {
      "inputs": [
        {
          "internalType": "address",
          "name": "from",
          "type": "address"
        },
        {
          "internalType": "address",
          "name": "to",
          "type": "address"
        },
        {
          "internalType": "uint256",
          "name": "tokenId",
          "type": "uint256"
        }
      ],
      "name": "transferFrom",
      "outputs": [],
      "stateMutability": "nonpayable",
      "type": "function"
    },
    {
      "inputs": [],
      "name": "urlEncodedDesc",
      "outputs": [
        {
          "internalType": "string",
          "name": "",
          "type": "string"
        }
      ],
      "stateMutability": "view",
      "type": "function"
    },
    {
      "inputs": [],
      "name": "urlEncodedName",
      "outputs": [
        {
          "internalType": "string",
          "name": "",
          "type": "string"
        }
      ],
      "stateMutability": "view",
      "type": "function"
    }
  ],
  "bytecode": "0x608060405234801561001057600080fd5b50613e66806100206000396000f3fe608060405234801561001057600080fd5b50600436106101585760003560e01c806370a08231116100c3578063b84c82461161007c578063b84c8246146103cd578063b88d4fde146103e9578063c47f002714610405578063c87b56dd14610421578063e3b71f8714610451578063e985e9c51461046f57610158565b806370a08231146102f357806381d12c581461032357806395d89b41146103595780639c2c770b14610377578063a22cb46514610395578063a50d81c7146103b157610158565b806332032db51161011557806332032db51461023157806342842e0e1461024f5780634e1971511461026b5780634f02c420146102875780636352211e146102a55780636eaa1afe146102d557610158565b806301ffc9a71461015d57806306fdde031461018d578063081812fc146101ab578063095ea7b3146101db578063158ef93e146101f757806323b872dd14610215575b600080fd5b610177600480360381019061017291906120ac565b61049f565b60405161018491906120f4565b60405180910390f35b610195610581565b6040516101a2919061219f565b60405180910390f35b6101c560048036038101906101c091906121f7565b610613565b6040516101d29190612265565b60405180910390f35b6101f560048036038101906101f091906122ac565b610659565b005b6101ff610770565b60405161020c91906120f4565b60405180910390f35b61022f600480360381019061022a91906122ec565b610783565b005b6102396107e3565b604051610246919061219f565b60405180910390f35b610269600480360381019061026491906122ec565b610871565b005b610285600480360381019061028091906123c8565b610891565b005b61028f610a0b565b60405161029c91906120f4565b60405180910390f35b6102bf60048036038101906102ba91906121f7565b610a1e565b6040516102cc9190612265565b60405180910390f35b6102dd610aa4565b6040516102ea919061219f565b60405180910390f35b61030d6004803603810190610308919061246c565b610b32565b60405161031a91906124a8565b60405180910390f35b61033d600480360381019061033891906121f7565b610be9565b6040516103509796959493929190612534565b60405180910390f35b610361610f10565b60405161036e919061219f565b60405180910390f35b61037f610fa2565b60405161038c91906124a8565b60405180910390f35b6103af60048036038101906103aa91906125f2565b610fa8565b005b6103cb60048036038101906103c6919061246c565b610fbe565b005b6103e760048036038101906103e29190612762565b611037565b005b61040360048036038101906103fe919061284c565b61109b565b005b61041f600480360381019061041a9190612762565b6110fd565b005b61043b600480360381019061043691906121f7565b611160565b604051610448919061219f565b60405180910390f35b6104596111ba565b6040516104669190612265565b60405180910390f35b610489600480360381019061048491906128cf565b6111e0565b60405161049691906120f4565b60405180910390f35b60007ffc9fdaac000000000000000000000000000000000000000000000000000000007bffffffffffffffffffffffffffffffffffffffffffffffffffffffff1916827bffffffffffffffffffffffffffffffffffffffffffffffffffffffff1916148061056a57507f5b5e139f000000000000000000000000000000000000000000000000000000007bffffffffffffffffffffffffffffffffffffffffffffffffffffffff1916827bffffffffffffffffffffffffffffffffffffffffffffffffffffffff1916145b8061057a575061057982611274565b5b9050919050565b6060600080546105909061293e565b80601f01602080910402602001604051908101604052809291908181526020018280546105bc9061293e565b80156106095780601f106105de57610100808354040283529160200191610609565b820191906000526020600020905b8154815290600101906020018083116105ec57829003601f168201915b5050505050905090565b600061061e826112de565b6004600083815260200190815260200160002060009054906101000a900473ffffffffffffffffffffffffffffffffffffffff169050919050565b600061066482610a1e565b90508073ffffffffffffffffffffffffffffffffffffffff168373ffffffffffffffffffffffffffffffffffffffff16036106d4576040517f08c379a00000000000000000000000000000000000000000000000000000000081526004016106cb906129e1565b60405180910390fd5b8073ffffffffffffffffffffffffffffffffffffffff166106f3611329565b73ffffffffffffffffffffffffffffffffffffffff16148061072257506107218161071c611329565b6111e0565b5b610761576040517f08c379a000000000000000000000000000000000000000000000000000000000815260040161075890612a99565b60405180910390fd5b61076b8383611331565b505050565b600660009054906101000a900460ff1681565b61079461078e611329565b826113ea565b6107d3576040517f08c379a00000000000000000000000000000000000000000000000000000000081526004016107ca90612b2b565b60405180910390fd5b6107de83838361147f565b505050565b600780546107f09061293e565b80601f016020809104026020016040519081016040528092919081815260200182805461081c9061293e565b80156108695780601f1061083e57610100808354040283529160200191610869565b820191906000526020600020905b81548152906001019060200180831161084c57829003601f168201915b505050505081565b61088c8383836040518060200160405280600081525061109b565b505050565b600660009054906101000a900460ff16156108e1576040517f08c379a00000000000000000000000000000000000000000000000000000000081526004016108d890612b97565b60405180910390fd5b8480600001906108f19190612bc6565b60079182610900929190612de0565b508480602001906109119190612bc6565b60089182610920929190612de0565b5083600960006101000a81548173ffffffffffffffffffffffffffffffffffffffff021916908373ffffffffffffffffffffffffffffffffffffffff16021790555082600a8190555060005b828290508110156109e857600b83838381811061098c5761098b612eb0565b5b905060200281019061099e9190612edf565b908060018154018082558091505060019003906000526020600020906007020160009091909190915081816109d39190613316565b505080806109e090613353565b91505061096c565b506001600660006101000a81548160ff0219169083151502179055505050505050565b600660019054906101000a900460ff1681565b600080610a2a83611778565b9050600073ffffffffffffffffffffffffffffffffffffffff168173ffffffffffffffffffffffffffffffffffffffff1603610a9b576040517f08c379a0000000000000000000000000000000000000000000000000000000008152600401610a929061340d565b60405180910390fd5b80915050919050565b60088054610ab19061293e565b80601f0160208091040260200160405190810160405280929190818152602001828054610add9061293e565b8015610b2a5780601f10610aff57610100808354040283529160200191610b2a565b820191906000526020600020905b815481529060010190602001808311610b0d57829003601f168201915b505050505081565b60008073ffffffffffffffffffffffffffffffffffffffff168273ffffffffffffffffffffffffffffffffffffffff1603610ba2576040517f08c379a0000000000000000000000000000000000000000000000000000000008152600401610b999061349f565b60405180910390fd5b600360008373ffffffffffffffffffffffffffffffffffffffff1673ffffffffffffffffffffffffffffffffffffffff168152602001908152602001600020549050919050565b600b8181548110610bf957600080fd5b9060005260206000209060070201600091509050806000018054610c1c9061293e565b80601f0160208091040260200160405190810160405280929190818152602001828054610c489061293e565b8015610c955780601f10610c6a57610100808354040283529160200191610c95565b820191906000526020600020905b815481529060010190602001808311610c7857829003601f168201915b5050505050908060010160009054906101000a900473ffffffffffffffffffffffffffffffffffffffff1690806002018054610cd09061293e565b80601f0160208091040260200160405190810160405280929190818152602001828054610cfc9061293e565b8015610d495780601f10610d1e57610100808354040283529160200191610d49565b820191906000526020600020905b815481529060010190602001808311610d2c57829003601f168201915b5050505050908060030160009054906101000a900460ff1690806004018054610d719061293e565b80601f0160208091040260200160405190810160405280929190818152602001828054610d9d9061293e565b8015610dea5780601f10610dbf57610100808354040283529160200191610dea565b820191906000526020600020905b815481529060010190602001808311610dcd57829003601f168201915b505050505090806005018054610dff9061293e565b80601f0160208091040260200160405190810160405280929190818152602001828054610e2b9061293e565b8015610e785780601f10610e4d57610100808354040283529160200191610e78565b820191906000526020600020905b815481529060010190602001808311610e5b57829003601f168201915b505050505090806006018054610e8d9061293e565b80601f0160208091040260200160405190810160405280929190818152602001828054610eb99061293e565b8015610f065780601f10610edb57610100808354040283529160200191610f06565b820191906000526020600020905b815481529060010190602001808311610ee957829003601f168201915b5050505050905087565b606060018054610f1f9061293e565b80601f0160208091040260200160405190810160405280929190818152602001828054610f4b9061293e565b8015610f985780601f10610f6d57610100808354040283529160200191610f98565b820191906000526020600020905b815481529060010190602001808311610f7b57829003601f168201915b5050505050905090565b600a5481565b610fba610fb3611329565b83836117b5565b5050565b600660019054906101000a900460ff161561100e576040517f08c379a00000000000000000000000000000000000000000000000000000000081526004016110059061350b565b60405180910390fd5b611019816000611921565b6001600660016101000a81548160ff02191690831515021790555050565b6000600180546110469061293e565b905014611088576040517f08c379a000000000000000000000000000000000000000000000000000000000815260040161107f9061359d565b60405180910390fd5b806001908161109791906135bd565b5050565b6110ac6110a6611329565b836113ea565b6110eb576040517f08c379a00000000000000000000000000000000000000000000000000000000081526004016110e290612b2b565b60405180910390fd5b6110f78484848461193f565b50505050565b600080805461110b9061293e565b90501461114d576040517f08c379a000000000000000000000000000000000000000000000000000000000815260040161114490613701565b60405180910390fd5b806000908161115c91906135bd565b5050565b60606000600760086040516020016111799291906138df565b60405160208183030381529060405290506111938161199b565b6040516020016111a391906139ac565b604051602081830303815290604052915050919050565b600960009054906101000a900473ffffffffffffffffffffffffffffffffffffffff1681565b6000600560008473ffffffffffffffffffffffffffffffffffffffff1673ffffffffffffffffffffffffffffffffffffffff16815260200190815260200160002060008373ffffffffffffffffffffffffffffffffffffffff1673ffffffffffffffffffffffffffffffffffffffff16815260200190815260200160002060009054906101000a900460ff16905092915050565b60007f01ffc9a7000000000000000000000000000000000000000000000000000000007bffffffffffffffffffffffffffffffffffffffffffffffffffffffff1916827bffffffffffffffffffffffffffffffffffffffffffffffffffffffff1916149050919050565b6112e7816119b0565b611326576040517f08c379a000000000000000000000000000000000000000000000000000000000815260040161131d9061340d565b60405180910390fd5b50565b600033905090565b816004600083815260200190815260200160002060006101000a81548173ffffffffffffffffffffffffffffffffffffffff021916908373ffffffffffffffffffffffffffffffffffffffff160217905550808273ffffffffffffffffffffffffffffffffffffffff166113a483610a1e565b73ffffffffffffffffffffffffffffffffffffffff167f8c5be1e5ebec7d5bd14f71427d1e84f3dd0314c0f7b2291e5b200ac8c7c3b92560405160405180910390a45050565b6000806113f683610a1e565b90508073ffffffffffffffffffffffffffffffffffffffff168473ffffffffffffffffffffffffffffffffffffffff161480611438575061143781856111e0565b5b8061147657508373ffffffffffffffffffffffffffffffffffffffff1661145e84610613565b73ffffffffffffffffffffffffffffffffffffffff16145b91505092915050565b8273ffffffffffffffffffffffffffffffffffffffff1661149f82610a1e565b73ffffffffffffffffffffffffffffffffffffffff16146114f5576040517f08c379a00000000000000000000000000000000000000000000000000000000081526004016114ec90613a40565b60405180910390fd5b600073ffffffffffffffffffffffffffffffffffffffff168273ffffffffffffffffffffffffffffffffffffffff1603611564576040517f08c379a000000000000000000000000000000000000000000000000000000000815260040161155b90613ad2565b60405180910390fd5b61157183838360016119f1565b8273ffffffffffffffffffffffffffffffffffffffff1661159182610a1e565b73ffffffffffffffffffffffffffffffffffffffff16146115e7576040517f08c379a00000000000000000000000000000000000000000000000000000000081526004016115de90613a40565b60405180910390fd5b6004600082815260200190815260200160002060006101000a81549073ffffffffffffffffffffffffffffffffffffffff02191690556001600360008573ffffffffffffffffffffffffffffffffffffffff1673ffffffffffffffffffffffffffffffffffffffff168152602001908152602001600020600082825403925050819055506001600360008473ffffffffffffffffffffffffffffffffffffffff1673ffffffffffffffffffffffffffffffffffffffff16815260200190815260200160002060008282540192505081905550816002600083815260200190815260200160002060006101000a81548173ffffffffffffffffffffffffffffffffffffffff021916908373ffffffffffffffffffffffffffffffffffffffff160217905550808273ffffffffffffffffffffffffffffffffffffffff168473ffffffffffffffffffffffffffffffffffffffff167fddf252ad1be2c89b69c2b068fc378daa952ba7f163c4a11628f55a4df523b3ef60405160405180910390a46117738383836001611b17565b505050565b60006002600083815260200190815260200160002060009054906101000a900473ffffffffffffffffffffffffffffffffffffffff169050919050565b8173ffffffffffffffffffffffffffffffffffffffff168373ffffffffffffffffffffffffffffffffffffffff1603611823576040517f08c379a000000000000000000000000000000000000000000000000000000000815260040161181a90613b64565b60405180910390fd5b80600560008573ffffffffffffffffffffffffffffffffffffffff1673ffffffffffffffffffffffffffffffffffffffff16815260200190815260200160002060008473ffffffffffffffffffffffffffffffffffffffff1673ffffffffffffffffffffffffffffffffffffffff16815260200190815260200160002060006101000a81548160ff0219169083151502179055508173ffffffffffffffffffffffffffffffffffffffff168373ffffffffffffffffffffffffffffffffffffffff167f17307eab39ab6107e8899845ad3d59bd9653f200f220920489ca2b5937696c318360405161191491906120f4565b60405180910390a3505050565b61193b828260405180602001604052806000815250611b1d565b5050565b61194a84848461147f565b61195684848484611b78565b611995576040517f08c379a000000000000000000000000000000000000000000000000000000000815260040161198c90613bf6565b60405180910390fd5b50505050565b60606119a982600080611cff565b9050919050565b60008073ffffffffffffffffffffffffffffffffffffffff166119d283611778565b73ffffffffffffffffffffffffffffffffffffffff1614159050919050565b6001811115611b1157600073ffffffffffffffffffffffffffffffffffffffff168473ffffffffffffffffffffffffffffffffffffffff1614611a855780600360008673ffffffffffffffffffffffffffffffffffffffff1673ffffffffffffffffffffffffffffffffffffffff1681526020019081526020016000206000828254611a7d9190613c16565b925050819055505b600073ffffffffffffffffffffffffffffffffffffffff168373ffffffffffffffffffffffffffffffffffffffff1614611b105780600360008573ffffffffffffffffffffffffffffffffffffffff1673ffffffffffffffffffffffffffffffffffffffff1681526020019081526020016000206000828254611b089190613c4a565b925050819055505b5b50505050565b50505050565b611b278383611e00565b611b346000848484611b78565b611b73576040517f08c379a0000000000000000000000000000000000000000000000000000000008152600401611b6a90613bf6565b60405180910390fd5b505050565b6000611b998473ffffffffffffffffffffffffffffffffffffffff1661201d565b15611cf2578373ffffffffffffffffffffffffffffffffffffffff1663150b7a02611bc2611329565b8786866040518563ffffffff1660e01b8152600401611be49493929190613c7e565b6020604051808303816000875af1925050508015611c2057506040513d601f19601f82011682018060405250810190611c1d9190613cdf565b60015b611ca2573d8060008114611c50576040519150601f19603f3d011682016040523d82523d6000602084013e611c55565b606091505b506000815103611c9a576040517f08c379a0000000000000000000000000000000000000000000000000000000008152600401611c9190613bf6565b60405180910390fd5b805181602001fd5b63150b7a0260e01b7bffffffffffffffffffffffffffffffffffffffffffffffffffffffff1916817bffffffffffffffffffffffffffffffffffffffffffffffffffffffff191614915050611cf7565b600190505b949350505050565b606083518015611df8576003600282010460021b60405192507f4142434445464748494a4b4c4d4e4f505152535455565758595a616263646566601f526102308515027f6768696a6b6c6d6e6f707172737475767778797a303132333435363738392d5f03603f52602083018181015b600115611dc5576003880197508751603f8160121c1651600053603f81600c1c1651600153603f8160061c1651600253603f8116516003536000518352600483019250818310611dbf5750611dc5565b50611d6f565b601f19601f82011660405260038406600204613d3d60f01b81840352808715150290506000818403528084038652505050505b509392505050565b600073ffffffffffffffffffffffffffffffffffffffff168273ffffffffffffffffffffffffffffffffffffffff1603611e6f576040517f08c379a0000000000000000000000000000000000000000000000000000000008152600401611e6690613d7e565b60405180910390fd5b611e78816119b0565b15611eb8576040517f08c379a0000000000000000000000000000000000000000000000000000000008152600401611eaf90613e10565b60405180910390fd5b611ec66000838360016119f1565b611ecf816119b0565b15611f0f576040517f08c379a0000000000000000000000000000000000000000000000000000000008152600401611f0690613e10565b60405180910390fd5b6001600360008473ffffffffffffffffffffffffffffffffffffffff1673ffffffffffffffffffffffffffffffffffffffff16815260200190815260200160002060008282540192505081905550816002600083815260200190815260200160002060006101000a81548173ffffffffffffffffffffffffffffffffffffffff021916908373ffffffffffffffffffffffffffffffffffffffff160217905550808273ffffffffffffffffffffffffffffffffffffffff16600073ffffffffffffffffffffffffffffffffffffffff167fddf252ad1be2c89b69c2b068fc378daa952ba7f163c4a11628f55a4df523b3ef60405160405180910390a4612019600083836001611b17565b5050565b6000808273ffffffffffffffffffffffffffffffffffffffff163b119050919050565b6000604051905090565b600080fd5b600080fd5b60007fffffffff0000000000000000000000000000000000000000000000000000000082169050919050565b61208981612054565b811461209457600080fd5b50565b6000813590506120a681612080565b92915050565b6000602082840312156120c2576120c161204a565b5b60006120d084828501612097565b91505092915050565b60008115159050919050565b6120ee816120d9565b82525050565b600060208201905061210960008301846120e5565b92915050565b600081519050919050565b600082825260208201905092915050565b60005b8381101561214957808201518184015260208101905061212e565b60008484015250505050565b6000601f19601f8301169050919050565b60006121718261210f565b61217b818561211a565b935061218b81856020860161212b565b61219481612155565b840191505092915050565b600060208201905081810360008301526121b98184612166565b905092915050565b6000819050919050565b6121d4816121c1565b81146121df57600080fd5b50565b6000813590506121f1816121cb565b92915050565b60006020828403121561220d5761220c61204a565b5b600061221b848285016121e2565b91505092915050565b600073ffffffffffffffffffffffffffffffffffffffff82169050919050565b600061224f82612224565b9050919050565b61225f81612244565b82525050565b600060208201905061227a6000830184612256565b92915050565b61228981612244565b811461229457600080fd5b50565b6000813590506122a681612280565b92915050565b600080604083850312156122c3576122c261204a565b5b60006122d185828601612297565b92505060206122e2858286016121e2565b9150509250929050565b6000806000606084860312156123055761230461204a565b5b600061231386828701612297565b935050602061232486828701612297565b9250506040612335868287016121e2565b9150509250925092565b600080fd5b60006040828403121561235a5761235961233f565b5b81905092915050565b600080fd5b600080fd5b600080fd5b60008083601f84011261238857612387612363565b5b8235905067ffffffffffffffff8111156123a5576123a4612368565b5b6020830191508360208202830111156123c1576123c061236d565b5b9250929050565b6000806000806000608086880312156123e4576123e361204a565b5b600086013567ffffffffffffffff8111156124025761240161204f565b5b61240e88828901612344565b955050602061241f88828901612297565b9450506040612430888289016121e2565b935050606086013567ffffffffffffffff8111156124515761245061204f565b5b61245d88828901612372565b92509250509295509295909350565b6000602082840312156124825761248161204a565b5b600061249084828501612297565b91505092915050565b6124a2816121c1565b82525050565b60006020820190506124bd6000830184612499565b92915050565b600081519050919050565b600082825260208201905092915050565b60006124ea826124c3565b6124f481856124ce565b935061250481856020860161212b565b61250d81612155565b840191505092915050565b600060ff82169050919050565b61252e81612518565b82525050565b600060e082019050818103600083015261254e818a612166565b905061255d6020830189612256565b818103604083015261256f81886124df565b905061257e6060830187612525565b818103608083015261259081866124df565b905081810360a08301526125a481856124df565b905081810360c08301526125b881846124df565b905098975050505050505050565b6125cf816120d9565b81146125da57600080fd5b50565b6000813590506125ec816125c6565b92915050565b600080604083850312156126095761260861204a565b5b600061261785828601612297565b9250506020612628858286016125dd565b9150509250929050565b600080fd5b7f4e487b7100000000000000000000000000000000000000000000000000000000600052604160045260246000fd5b61266f82612155565b810181811067ffffffffffffffff8211171561268e5761268d612637565b5b80604052505050565b60006126a1612040565b90506126ad8282612666565b919050565b600067ffffffffffffffff8211156126cd576126cc612637565b5b6126d682612155565b9050602081019050919050565b82818337600083830152505050565b6000612705612700846126b2565b612697565b90508281526020810184848401111561272157612720612632565b5b61272c8482856126e3565b509392505050565b600082601f83011261274957612748612363565b5b81356127598482602086016126f2565b91505092915050565b6000602082840312156127785761277761204a565b5b600082013567ffffffffffffffff8111156127965761279561204f565b5b6127a284828501612734565b91505092915050565b600067ffffffffffffffff8211156127c6576127c5612637565b5b6127cf82612155565b9050602081019050919050565b60006127ef6127ea846127ab565b612697565b90508281526020810184848401111561280b5761280a612632565b5b6128168482856126e3565b509392505050565b600082601f83011261283357612832612363565b5b81356128438482602086016127dc565b91505092915050565b600080600080608085870312156128665761286561204a565b5b600061287487828801612297565b945050602061288587828801612297565b9350506040612896878288016121e2565b925050606085013567ffffffffffffffff8111156128b7576128b661204f565b5b6128c38782880161281e565b91505092959194509250565b600080604083850312156128e6576128e561204a565b5b60006128f485828601612297565b925050602061290585828601612297565b9150509250929050565b7f4e487b7100000000000000000000000000000000000000000000000000000000600052602260045260246000fd5b6000600282049050600182168061295657607f821691505b6020821081036129695761296861290f565b5b50919050565b7f455243373231436c6f6e6561626c653a20617070726f76616c20746f2063757260008201527f72656e74206f776e657200000000000000000000000000000000000000000000602082015250565b60006129cb602a8361211a565b91506129d68261296f565b604082019050919050565b600060208201905081810360008301526129fa816129be565b9050919050565b7f455243373231436c6f6e6561626c653a20617070726f76652063616c6c65722060008201527f6973206e6f7420746f6b656e206f776e6572206f7220617070726f766564206660208201527f6f7220616c6c0000000000000000000000000000000000000000000000000000604082015250565b6000612a8360468361211a565b9150612a8e82612a01565b606082019050919050565b60006020820190508181036000830152612ab281612a76565b9050919050565b7f455243373231436c6f6e6561626c653a2063616c6c6572206973206e6f74207460008201527f6f6b656e206f776e6572206f7220617070726f76656400000000000000000000602082015250565b6000612b1560368361211a565b9150612b2082612ab9565b604082019050919050565b60006020820190508181036000830152612b4481612b08565b9050919050565b7f4672616d653a20616c726561647920696e697469616c697a6564000000000000600082015250565b6000612b81601a8361211a565b9150612b8c82612b4b565b602082019050919050565b60006020820190508181036000830152612bb081612b74565b9050919050565b600080fd5b600080fd5b600080fd5b60008083356001602003843603038112612be357612be2612bb7565b5b80840192508235915067ffffffffffffffff821115612c0557612c04612bbc565b5b602083019250600182023603831315612c2157612c20612bc1565b5b509250929050565b600082905092915050565b60008190508160005260206000209050919050565b60006020601f8301049050919050565b600082821b905092915050565b600060088302612c967fffffffffffffffffffffffffffffffffffffffffffffffffffffffffffffffff82612c59565b612ca08683612c59565b95508019841693508086168417925050509392505050565b6000819050919050565b6000612cdd612cd8612cd3846121c1565b612cb8565b6121c1565b9050919050565b6000819050919050565b612cf783612cc2565b612d0b612d0382612ce4565b848454612c66565b825550505050565b600090565b612d20612d13565b612d2b818484612cee565b505050565b5b81811015612d4f57612d44600082612d18565b600181019050612d31565b5050565b601f821115612d9457612d6581612c34565b612d6e84612c49565b81016020851015612d7d578190505b612d91612d8985612c49565b830182612d30565b50505b505050565b600082821c905092915050565b6000612db760001984600802612d99565b1980831691505092915050565b6000612dd08383612da6565b9150826002028217905092915050565b612dea8383612c29565b67ffffffffffffffff811115612e0357612e02612637565b5b612e0d825461293e565b612e18828285612d53565b6000601f831160018114612e475760008415612e35578287013590505b612e3f8582612dc4565b865550612ea7565b601f198416612e5586612c34565b60005b82811015612e7d57848901358255600182019150602085019450602081019050612e58565b86831015612e9a5784890135612e96601f891682612da6565b8355505b6001600288020188555050505b50505050505050565b7f4e487b7100000000000000000000000000000000000000000000000000000000600052603260045260246000fd5b60008235600160e003833603038112612efb57612efa612bb7565b5b80830191505092915050565b612f12838383612de0565b505050565b60008135612f2481612280565b80915050919050565b60008160001b9050919050565b600073ffffffffffffffffffffffffffffffffffffffff612f5a84612f2d565b9350801983169250808416831791505092915050565b6000612f8b612f86612f8184612224565b612cb8565b612224565b9050919050565b6000612f9d82612f70565b9050919050565b6000612faf82612f92565b9050919050565b6000819050919050565b612fc982612fa4565b612fdc612fd582612fb6565b8354612f3a565b8255505050565b6000808335600160200384360303811261300057612fff612bb7565b5b80840192508235915067ffffffffffffffff82111561302257613021612bbc565b5b60208301925060018202360383131561303e5761303d612bc1565b5b509250929050565b600082905092915050565b60008190508160005260206000209050919050565b601f8211156130a75761307881613051565b61308184612c49565b81016020851015613090578190505b6130a461309c85612c49565b830182612d30565b50505b505050565b6130b68383613046565b67ffffffffffffffff8111156130cf576130ce612637565b5b6130d9825461293e565b6130e4828285613066565b6000601f8311600181146131135760008415613101578287013590505b61310b8582612dc4565b865550613173565b601f19841661312186613051565b60005b8281101561314957848901358255600182019150602085019450602081019050613124565b868310156131665784890135613162601f891682612da6565b8355505b6001600288020188555050505b50505050505050565b6131878383836130ac565b505050565b61319581612518565b81146131a057600080fd5b50565b600081356131b08161318c565b80915050919050565b600060ff6131c684612f2d565b9350801983169250808416831791505092915050565b60006131f76131f26131ed84612518565b612cb8565b612518565b9050919050565b6000819050919050565b613211826131dc565b61322461321d826131fe565b83546131b9565b8255505050565b600081016000830161323d8185612bc6565b613248818386612f07565b5050505060018101602083018061325e81612f17565b905061326a8184612fc0565b505050600281016040830161327f8185612fe3565b61328a81838661317c565b505050506003810160608301806132a0816131a3565b90506132ac8184613208565b50505060048101608083016132c18185612fe3565b6132cc81838661317c565b505050506005810160a083016132e28185612fe3565b6132ed81838661317c565b505050506006810160c083016133038185612fe3565b61330e81838661317c565b505050505050565b613320828261322b565b5050565b7f4e487b7100000000000000000000000000000000000000000000000000000000600052601160045260246000fd5b600061335e826121c1565b91507fffffffffffffffffffffffffffffffffffffffffffffffffffffffffffffffff82036133905761338f613324565b5b600182019050919050565b7f455243373231436c6f6e6561626c653a20696e76616c696420746f6b656e204960008201527f4400000000000000000000000000000000000000000000000000000000000000602082015250565b60006133f760218361211a565b91506134028261339b565b604082019050919050565b60006020820190508181036000830152613426816133ea565b9050919050565b7f455243373231436c6f6e6561626c653a2061646472657373207a65726f20697360008201527f206e6f7420612076616c6964206f776e65720000000000000000000000000000602082015250565b600061348960328361211a565b91506134948261342d565b604082019050919050565b600060208201905081810360008301526134b88161347c565b9050919050565b7f4672616d653a20416c7265616479206d696e7465640000000000000000000000600082015250565b60006134f560158361211a565b9150613500826134bf565b602082019050919050565b60006020820190508181036000830152613524816134e8565b9050919050565b7f455243373231436c6f6e6561626c653a2073796d626f6c20616c72656164792060008201527f7365740000000000000000000000000000000000000000000000000000000000602082015250565b600061358760238361211a565b91506135928261352b565b604082019050919050565b600060208201905081810360008301526135b68161357a565b9050919050565b6135c68261210f565b67ffffffffffffffff8111156135df576135de612637565b5b6135e9825461293e565b6135f4828285612d53565b600060209050601f8311600181146136275760008415613615578287015190505b61361f8582612dc4565b865550613687565b601f19841661363586612c34565b60005b8281101561365d57848901518255600182019150602085019450602081019050613638565b8683101561367a5784890151613676601f891682612da6565b8355505b6001600288020188555050505b505050505050565b7f455243373231436c6f6e6561626c653a206e616d6520616c726561647920736560008201527f7400000000000000000000000000000000000000000000000000000000000000602082015250565b60006136eb60218361211a565b91506136f68261368f565b604082019050919050565b6000602082019050818103600083015261371a816136de565b9050919050565b600081905092915050565b7f7b226e616d65223a220000000000000000000000000000000000000000000000600082015250565b6000613762600983613721565b915061376d8261372c565b600982019050919050565b600081546137858161293e565b61378f8186613721565b945060018216600081146137aa57600181146137bf576137f2565b60ff19831686528115158202860193506137f2565b6137c885612c34565b60005b838110156137ea578154818901526001820191506020810190506137cb565b838801955050505b50505092915050565b7f222c20226465736372697074696f6e223a220000000000000000000000000000600082015250565b6000613831601283613721565b915061383c826137fb565b601282019050919050565b7f222c22616e696d6174696f6e5f75726c223a0000000000000000000000000000600082015250565b600061387d601283613721565b915061388882613847565b601282019050919050565b7f227d000000000000000000000000000000000000000000000000000000000000600082015250565b60006138c9600283613721565b91506138d482613893565b600282019050919050565b60006138ea82613755565b91506138f68285613778565b915061390182613824565b915061390d8284613778565b915061391882613870565b9150613923826138bc565b91508190509392505050565b7f646174613a6170706c69636174696f6e2f6a736f6e3b6261736536342c000000600082015250565b6000613965601d83613721565b91506139708261392f565b601d82019050919050565b60006139868261210f565b6139908185613721565b93506139a081856020860161212b565b80840191505092915050565b60006139b782613958565b91506139c3828461397b565b915081905092915050565b7f455243373231436c6f6e6561626c653a207472616e736665722066726f6d206960008201527f6e636f7272656374206f776e6572000000000000000000000000000000000000602082015250565b6000613a2a602e8361211a565b9150613a35826139ce565b604082019050919050565b60006020820190508181036000830152613a5981613a1d565b9050919050565b7f455243373231436c6f6e6561626c653a207472616e7366657220746f2074686560008201527f207a65726f206164647265737300000000000000000000000000000000000000602082015250565b6000613abc602d8361211a565b9150613ac782613a60565b604082019050919050565b60006020820190508181036000830152613aeb81613aaf565b9050919050565b7f455243373231436c6f6e6561626c653a20617070726f766520746f2063616c6c60008201527f6572000000000000000000000000000000000000000000000000000000000000602082015250565b6000613b4e60228361211a565b9150613b5982613af2565b604082019050919050565b60006020820190508181036000830152613b7d81613b41565b9050919050565b7f455243373231436c6f6e6561626c653a207472616e7366657220746f206e6f6e60008201527f20455243373231526563656976657220696d706c656d656e7465720000000000602082015250565b6000613be0603b8361211a565b9150613beb82613b84565b604082019050919050565b60006020820190508181036000830152613c0f81613bd3565b9050919050565b6000613c21826121c1565b9150613c2c836121c1565b9250828203905081811115613c4457613c43613324565b5b92915050565b6000613c55826121c1565b9150613c60836121c1565b9250828201905080821115613c7857613c77613324565b5b92915050565b6000608082019050613c936000830187612256565b613ca06020830186612256565b613cad6040830185612499565b8181036060830152613cbf81846124df565b905095945050505050565b600081519050613cd981612080565b92915050565b600060208284031215613cf557613cf461204a565b5b6000613d0384828501613cca565b91505092915050565b7f455243373231436c6f6e6561626c653a206d696e7420746f20746865207a657260008201527f6f20616464726573730000000000000000000000000000000000000000000000602082015250565b6000613d6860298361211a565b9150613d7382613d0c565b604082019050919050565b60006020820190508181036000830152613d9781613d5b565b9050919050565b7f455243373231436c6f6e6561626c653a20746f6b656e20616c7265616479206d60008201527f696e746564000000000000000000000000000000000000000000000000000000602082015250565b6000613dfa60258361211a565b9150613e0582613d9e565b604082019050919050565b60006020820190508181036000830152613e2981613ded565b905091905056fea2646970667358221220bb62b90cedd5f4bdfb39c89215c496a5f41a0dbe5a1066c2de6bef74bea7eca064736f6c63430008110033",
  "linkReferences": {},
  "deployedLinkReferences": {}
}