{
  "_format": "hh-sol-artifact-1",
  "contractName": "Frame",
  "sourceName": "src/contracts/Frame.sol",
  "abi": [
    {
      "inputs": [],
      "stateMutability": "nonpayable",
      "type": "constructor"
    },
    {
      "anonymous": false,
      "inputs": [
        {
          "indexed": true,
          "internalType": "address",
          "name": "owner",
          "type": "address"
        },
        {
          "indexed": true,
          "internalType": "address",
          "name": "approved",
          "type": "address"
        },
        {
          "indexed": true,
          "internalType": "uint256",
          "name": "tokenId",
          "type": "uint256"
        }
      ],
      "name": "Approval",
      "type": "event"
    },
    {
      "anonymous": false,
      "inputs": [
        {
          "indexed": true,
          "internalType": "address",
          "name": "owner",
          "type": "address"
        },
        {
          "indexed": true,
          "internalType": "address",
          "name": "operator",
          "type": "address"
        },
        {
          "indexed": false,
          "internalType": "bool",
          "name": "approved",
          "type": "bool"
        }
      ],
      "name": "ApprovalForAll",
      "type": "event"
    },
    {
      "anonymous": false,
      "inputs": [
        {
          "indexed": true,
          "internalType": "address",
          "name": "from",
          "type": "address"
        },
        {
          "indexed": true,
          "internalType": "address",
          "name": "to",
          "type": "address"
        },
        {
          "indexed": true,
          "internalType": "uint256",
          "name": "tokenId",
          "type": "uint256"
        }
      ],
      "name": "Transfer",
      "type": "event"
    },
    {
      "inputs": [
        {
          "internalType": "address",
          "name": "to",
          "type": "address"
        },
        {
          "internalType": "uint256",
          "name": "tokenId",
          "type": "uint256"
        }
      ],
      "name": "approve",
      "outputs": [],
      "stateMutability": "nonpayable",
      "type": "function"
    },
    {
      "inputs": [
        {
          "internalType": "address",
          "name": "owner",
          "type": "address"
        }
      ],
      "name": "balanceOf",
      "outputs": [
        {
          "internalType": "uint256",
          "name": "",
          "type": "uint256"
        }
      ],
      "stateMutability": "view",
      "type": "function"
    },
    {
      "inputs": [],
      "name": "bufferSize",
      "outputs": [
        {
          "internalType": "uint256",
          "name": "",
          "type": "uint256"
        }
      ],
      "stateMutability": "view",
      "type": "function"
    },
    {
      "inputs": [
        {
          "internalType": "uint256",
          "name": "tokenId",
          "type": "uint256"
        }
      ],
      "name": "getApproved",
      "outputs": [
        {
          "internalType": "address",
          "name": "",
          "type": "address"
        }
      ],
      "stateMutability": "view",
      "type": "function"
    },
    {
      "inputs": [
        {
          "internalType": "address",
          "name": "owner",
          "type": "address"
        },
        {
          "internalType": "address",
          "name": "operator",
          "type": "address"
        }
      ],
      "name": "isApprovedForAll",
      "outputs": [
        {
          "internalType": "bool",
          "name": "",
          "type": "bool"
        }
      ],
      "stateMutability": "view",
      "type": "function"
    },
    {
      "inputs": [
        {
          "internalType": "uint256",
          "name": "_id",
          "type": "uint256"
        },
        {
          "internalType": "address",
          "name": "_owner",
          "type": "address"
        }
      ],
      "name": "mintIdForOwner",
      "outputs": [],
      "stateMutability": "nonpayable",
      "type": "function"
    },
    {
      "inputs": [],
      "name": "name",
      "outputs": [
        {
          "internalType": "string",
          "name": "",
          "type": "string"
        }
      ],
      "stateMutability": "view",
      "type": "function"
    },
    {
      "inputs": [
        {
          "internalType": "uint256",
          "name": "tokenId",
          "type": "uint256"
        }
      ],
      "name": "ownerOf",
      "outputs": [
        {
          "internalType": "address",
          "name": "",
          "type": "address"
        }
      ],
      "stateMutability": "view",
      "type": "function"
    },
    {
      "inputs": [
        {
          "internalType": "uint256",
          "name": "",
          "type": "uint256"
        }
      ],
      "name": "requests",
      "outputs": [
        {
          "internalType": "string",
          "name": "name",
          "type": "string"
        },
        {
          "internalType": "address",
          "name": "contractAddress",
          "type": "address"
        },
        {
          "internalType": "bytes",
          "name": "contractData",
          "type": "bytes"
        },
        {
          "internalType": "uint8",
          "name": "wrapType",
          "type": "uint8"
        },
        {
          "internalType": "bytes",
          "name": "wrapPrefix",
          "type": "bytes"
        },
        {
          "internalType": "bytes",
          "name": "wrapSuffix",
          "type": "bytes"
        },
        {
          "internalType": "bytes",
          "name": "scriptContent",
          "type": "bytes"
        }
      ],
      "stateMutability": "view",
      "type": "function"
    },
    {
      "inputs": [
        {
          "internalType": "address",
          "name": "from",
          "type": "address"
        },
        {
          "internalType": "address",
          "name": "to",
          "type": "address"
        },
        {
          "internalType": "uint256",
          "name": "tokenId",
          "type": "uint256"
        }
      ],
      "name": "safeTransferFrom",
      "outputs": [],
      "stateMutability": "nonpayable",
      "type": "function"
    },
    {
      "inputs": [
        {
          "internalType": "address",
          "name": "from",
          "type": "address"
        },
        {
          "internalType": "address",
          "name": "to",
          "type": "address"
        },
        {
          "internalType": "uint256",
          "name": "tokenId",
          "type": "uint256"
        },
        {
          "internalType": "bytes",
          "name": "data",
          "type": "bytes"
        }
      ],
      "name": "safeTransferFrom",
      "outputs": [],
      "stateMutability": "nonpayable",
      "type": "function"
    },
    {
      "inputs": [],
      "name": "scriptyBuilderAddress",
      "outputs": [
        {
          "internalType": "address",
          "name": "",
          "type": "address"
        }
      ],
      "stateMutability": "view",
      "type": "function"
    },
    {
      "inputs": [],
      "name": "scriptyStorageAddress",
      "outputs": [
        {
          "internalType": "address",
          "name": "",
          "type": "address"
        }
      ],
      "stateMutability": "view",
      "type": "function"
    },
    {
      "inputs": [
        {
          "internalType": "address",
          "name": "operator",
          "type": "address"
        },
        {
          "internalType": "bool",
          "name": "approved",
          "type": "bool"
        }
      ],
      "name": "setApprovalForAll",
      "outputs": [],
      "stateMutability": "nonpayable",
      "type": "function"
    },
    {
      "inputs": [
        {
          "internalType": "string",
          "name": "nameString",
          "type": "string"
        }
      ],
      "name": "setName",
      "outputs": [],
      "stateMutability": "nonpayable",
      "type": "function"
    },
    {
      "inputs": [
        {
          "internalType": "address",
          "name": "_scriptyStorageAddress",
          "type": "address"
        },
        {
          "internalType": "address",
          "name": "_scriptyBuilderAddress",
          "type": "address"
        },
        {
          "internalType": "uint256",
          "name": "_bufferSize",
          "type": "uint256"
        },
        {
          "components": [
            {
              "internalType": "string",
              "name": "name",
              "type": "string"
            },
            {
              "internalType": "address",
              "name": "contractAddress",
              "type": "address"
            },
            {
              "internalType": "bytes",
              "name": "contractData",
              "type": "bytes"
            },
            {
              "internalType": "uint8",
              "name": "wrapType",
              "type": "uint8"
            },
            {
              "internalType": "bytes",
              "name": "wrapPrefix",
              "type": "bytes"
            },
            {
              "internalType": "bytes",
              "name": "wrapSuffix",
              "type": "bytes"
            },
            {
              "internalType": "bytes",
              "name": "scriptContent",
              "type": "bytes"
            }
          ],
          "internalType": "struct WrappedScriptRequest[]",
          "name": "_requests",
          "type": "tuple[]"
        }
      ],
      "name": "setParams",
      "outputs": [],
      "stateMutability": "nonpayable",
      "type": "function"
    },
    {
      "inputs": [
        {
          "internalType": "string",
          "name": "symbolString",
          "type": "string"
        }
      ],
      "name": "setSymbol",
      "outputs": [],
      "stateMutability": "nonpayable",
      "type": "function"
    },
    {
      "inputs": [
        {
          "internalType": "bytes4",
          "name": "interfaceId",
          "type": "bytes4"
        }
      ],
      "name": "supportsInterface",
      "outputs": [
        {
          "internalType": "bool",
          "name": "",
          "type": "bool"
        }
      ],
      "stateMutability": "view",
      "type": "function"
    },
    {
      "inputs": [],
      "name": "symbol",
      "outputs": [
        {
          "internalType": "string",
          "name": "",
          "type": "string"
        }
      ],
      "stateMutability": "view",
      "type": "function"
    },
    {
      "inputs": [
        {
          "internalType": "uint256",
          "name": "",
          "type": "uint256"
        }
      ],
      "name": "tokenURI",
      "outputs": [
        {
          "internalType": "string",
          "name": "",
          "type": "string"
        }
      ],
      "stateMutability": "view",
      "type": "function"
    },
    {
      "inputs": [
        {
          "internalType": "address",
          "name": "from",
          "type": "address"
        },
        {
          "internalType": "address",
          "name": "to",
          "type": "address"
        },
        {
          "internalType": "uint256",
          "name": "tokenId",
          "type": "uint256"
        }
      ],
      "name": "transferFrom",
      "outputs": [],
      "stateMutability": "nonpayable",
      "type": "function"
    }
  ],
  "bytecode": "0x608060405234801561001057600080fd5b506137c4806100206000396000f3fe608060405234801561001057600080fd5b50600436106101375760003560e01c806395d89b41116100b8578063b88d4fde1161007c578063b88d4fde14610352578063bacef6691461036e578063c47f00271461038a578063c87b56dd146103a6578063e3b71f87146103d6578063e985e9c5146103f457610137565b806395d89b41146102c05780639c2c770b146102de578063a22cb465146102fc578063a9cb35ae14610318578063b84c82461461033657610137565b806342842e0e116100ff57806342842e0e146101f25780634b7cf0491461020e5780636352211e1461022a57806370a082311461025a57806381d12c581461028a57610137565b806301ffc9a71461013c57806306fdde031461016c578063081812fc1461018a578063095ea7b3146101ba57806323b872dd146101d6575b600080fd5b61015660048036038101906101519190611db0565b610424565b6040516101639190611df8565b60405180910390f35b610174610506565b6040516101819190611ea3565b60405180910390f35b6101a4600480360381019061019f9190611efb565b610598565b6040516101b19190611f69565b60405180910390f35b6101d460048036038101906101cf9190611fb0565b6105de565b005b6101f060048036038101906101eb9190611ff0565b6106f5565b005b61020c60048036038101906102079190611ff0565b610755565b005b61022860048036038101906102239190612043565b610775565b005b610244600480360381019061023f9190611efb565b610783565b6040516102519190611f69565b60405180910390f35b610274600480360381019061026f9190612083565b610809565b60405161028191906120bf565b60405180910390f35b6102a4600480360381019061029f9190611efb565b6108c0565b6040516102b7979695949392919061214b565b60405180910390f35b6102c8610be7565b6040516102d59190611ea3565b60405180910390f35b6102e6610c79565b6040516102f391906120bf565b60405180910390f35b61031660048036038101906103119190612209565b610c7f565b005b610320610c95565b60405161032d9190611f69565b60405180910390f35b610350600480360381019061034b919061237e565b610cbb565b005b61036c60048036038101906103679190612468565b610d1f565b005b61038860048036038101906103839190612747565b610d81565b005b6103a4600480360381019061039f919061237e565b610f4a565b005b6103c060048036038101906103bb9190611efb565b610fad565b6040516103cd9190611ea3565b60405180910390f35b6103de610fd4565b6040516103eb9190611f69565b60405180910390f35b61040e600480360381019061040991906127ca565b610ffa565b60405161041b9190611df8565b60405180910390f35b60007ffc9fdaac000000000000000000000000000000000000000000000000000000007bffffffffffffffffffffffffffffffffffffffffffffffffffffffff1916827bffffffffffffffffffffffffffffffffffffffffffffffffffffffff191614806104ef57507f5b5e139f000000000000000000000000000000000000000000000000000000007bffffffffffffffffffffffffffffffffffffffffffffffffffffffff1916827bffffffffffffffffffffffffffffffffffffffffffffffffffffffff1916145b806104ff57506104fe8261108e565b5b9050919050565b60606000805461051590612839565b80601f016020809104026020016040519081016040528092919081815260200182805461054190612839565b801561058e5780601f106105635761010080835404028352916020019161058e565b820191906000526020600020905b81548152906001019060200180831161057157829003601f168201915b5050505050905090565b60006105a3826110f8565b6004600083815260200190815260200160002060009054906101000a900473ffffffffffffffffffffffffffffffffffffffff169050919050565b60006105e982610783565b90508073ffffffffffffffffffffffffffffffffffffffff168373ffffffffffffffffffffffffffffffffffffffff1603610659576040517f08c379a0000000000000000000000000000000000000000000000000000000008152600401610650906128dc565b60405180910390fd5b8073ffffffffffffffffffffffffffffffffffffffff16610678611143565b73ffffffffffffffffffffffffffffffffffffffff1614806106a757506106a6816106a1611143565b610ffa565b5b6106e6576040517f08c379a00000000000000000000000000000000000000000000000000000000081526004016106dd90612994565b60405180910390fd5b6106f0838361114b565b505050565b610706610700611143565b82611204565b610745576040517f08c379a000000000000000000000000000000000000000000000000000000000815260040161073c90612a26565b60405180910390fd5b610750838383611299565b505050565b61077083838360405180602001604052806000815250610d1f565b505050565b61077f8183611592565b5050565b60008061078f836115b0565b9050600073ffffffffffffffffffffffffffffffffffffffff168173ffffffffffffffffffffffffffffffffffffffff1603610800576040517f08c379a00000000000000000000000000000000000000000000000000000000081526004016107f790612ab8565b60405180910390fd5b80915050919050565b60008073ffffffffffffffffffffffffffffffffffffffff168273ffffffffffffffffffffffffffffffffffffffff1603610879576040517f08c379a000000000000000000000000000000000000000000000000000000000815260040161087090612b4a565b60405180910390fd5b600360008373ffffffffffffffffffffffffffffffffffffffff1673ffffffffffffffffffffffffffffffffffffffff168152602001908152602001600020549050919050565b600981815481106108d057600080fd5b90600052602060002090600702016000915090508060000180546108f390612839565b80601f016020809104026020016040519081016040528092919081815260200182805461091f90612839565b801561096c5780601f106109415761010080835404028352916020019161096c565b820191906000526020600020905b81548152906001019060200180831161094f57829003601f168201915b5050505050908060010160009054906101000a900473ffffffffffffffffffffffffffffffffffffffff16908060020180546109a790612839565b80601f01602080910402602001604051908101604052809291908181526020018280546109d390612839565b8015610a205780601f106109f557610100808354040283529160200191610a20565b820191906000526020600020905b815481529060010190602001808311610a0357829003601f168201915b5050505050908060030160009054906101000a900460ff1690806004018054610a4890612839565b80601f0160208091040260200160405190810160405280929190818152602001828054610a7490612839565b8015610ac15780601f10610a9657610100808354040283529160200191610ac1565b820191906000526020600020905b815481529060010190602001808311610aa457829003601f168201915b505050505090806005018054610ad690612839565b80601f0160208091040260200160405190810160405280929190818152602001828054610b0290612839565b8015610b4f5780601f10610b2457610100808354040283529160200191610b4f565b820191906000526020600020905b815481529060010190602001808311610b3257829003601f168201915b505050505090806006018054610b6490612839565b80601f0160208091040260200160405190810160405280929190818152602001828054610b9090612839565b8015610bdd5780601f10610bb257610100808354040283529160200191610bdd565b820191906000526020600020905b815481529060010190602001808311610bc057829003601f168201915b5050505050905087565b606060018054610bf690612839565b80601f0160208091040260200160405190810160405280929190818152602001828054610c2290612839565b8015610c6f5780601f10610c4457610100808354040283529160200191610c6f565b820191906000526020600020905b815481529060010190602001808311610c5257829003601f168201915b5050505050905090565b60085481565b610c91610c8a611143565b83836115ed565b5050565b600660009054906101000a900473ffffffffffffffffffffffffffffffffffffffff1681565b600060018054610cca90612839565b905014610d0c576040517f08c379a0000000000000000000000000000000000000000000000000000000008152600401610d0390612bdc565b60405180910390fd5b8060019081610d1b9190612da8565b5050565b610d30610d2a611143565b83611204565b610d6f576040517f08c379a0000000000000000000000000000000000000000000000000000000008152600401610d6690612a26565b60405180910390fd5b610d7b84848484611759565b50505050565b83600660006101000a81548173ffffffffffffffffffffffffffffffffffffffff021916908373ffffffffffffffffffffffffffffffffffffffff16021790555082600760006101000a81548173ffffffffffffffffffffffffffffffffffffffff021916908373ffffffffffffffffffffffffffffffffffffffff1602179055508160088190555060005b600980549050811015610f4357818181518110610e2d57610e2c612e7a565b5b602002602001015160098281548110610e4957610e48612e7a565b5b90600052602060002090600702016000820151816000019081610e6c9190612da8565b5060208201518160010160006101000a81548173ffffffffffffffffffffffffffffffffffffffff021916908373ffffffffffffffffffffffffffffffffffffffff1602179055506040820151816002019081610ec99190612f04565b5060608201518160030160006101000a81548160ff021916908360ff1602179055506080820151816004019081610f009190612f04565b5060a0820151816005019081610f169190612f04565b5060c0820151816006019081610f2c9190612f04565b509050508080610f3b90613005565b915050610e0d565b5050505050565b6000808054610f5890612839565b905014610f9a576040517f08c379a0000000000000000000000000000000000000000000000000000000008152600401610f91906130bf565b60405180910390fd5b8060009081610fa99190612da8565b5050565b6060604051602001610fbe90613301565b6040516020818303038152906040529050919050565b600760009054906101000a900473ffffffffffffffffffffffffffffffffffffffff1681565b6000600560008473ffffffffffffffffffffffffffffffffffffffff1673ffffffffffffffffffffffffffffffffffffffff16815260200190815260200160002060008373ffffffffffffffffffffffffffffffffffffffff1673ffffffffffffffffffffffffffffffffffffffff16815260200190815260200160002060009054906101000a900460ff16905092915050565b60007f01ffc9a7000000000000000000000000000000000000000000000000000000007bffffffffffffffffffffffffffffffffffffffffffffffffffffffff1916827bffffffffffffffffffffffffffffffffffffffffffffffffffffffff1916149050919050565b611101816117b5565b611140576040517f08c379a000000000000000000000000000000000000000000000000000000000815260040161113790612ab8565b60405180910390fd5b50565b600033905090565b816004600083815260200190815260200160002060006101000a81548173ffffffffffffffffffffffffffffffffffffffff021916908373ffffffffffffffffffffffffffffffffffffffff160217905550808273ffffffffffffffffffffffffffffffffffffffff166111be83610783565b73ffffffffffffffffffffffffffffffffffffffff167f8c5be1e5ebec7d5bd14f71427d1e84f3dd0314c0f7b2291e5b200ac8c7c3b92560405160405180910390a45050565b60008061121083610783565b90508073ffffffffffffffffffffffffffffffffffffffff168473ffffffffffffffffffffffffffffffffffffffff16148061125257506112518185610ffa565b5b8061129057508373ffffffffffffffffffffffffffffffffffffffff1661127884610598565b73ffffffffffffffffffffffffffffffffffffffff16145b91505092915050565b8273ffffffffffffffffffffffffffffffffffffffff166112b982610783565b73ffffffffffffffffffffffffffffffffffffffff161461130f576040517f08c379a00000000000000000000000000000000000000000000000000000000081526004016113069061339e565b60405180910390fd5b600073ffffffffffffffffffffffffffffffffffffffff168273ffffffffffffffffffffffffffffffffffffffff160361137e576040517f08c379a000000000000000000000000000000000000000000000000000000000815260040161137590613430565b60405180910390fd5b61138b83838360016117f6565b8273ffffffffffffffffffffffffffffffffffffffff166113ab82610783565b73ffffffffffffffffffffffffffffffffffffffff1614611401576040517f08c379a00000000000000000000000000000000000000000000000000000000081526004016113f89061339e565b60405180910390fd5b6004600082815260200190815260200160002060006101000a81549073ffffffffffffffffffffffffffffffffffffffff02191690556001600360008573ffffffffffffffffffffffffffffffffffffffff1673ffffffffffffffffffffffffffffffffffffffff168152602001908152602001600020600082825403925050819055506001600360008473ffffffffffffffffffffffffffffffffffffffff1673ffffffffffffffffffffffffffffffffffffffff16815260200190815260200160002060008282540192505081905550816002600083815260200190815260200160002060006101000a81548173ffffffffffffffffffffffffffffffffffffffff021916908373ffffffffffffffffffffffffffffffffffffffff160217905550808273ffffffffffffffffffffffffffffffffffffffff168473ffffffffffffffffffffffffffffffffffffffff167fddf252ad1be2c89b69c2b068fc378daa952ba7f163c4a11628f55a4df523b3ef60405160405180910390a461158d838383600161191c565b505050565b6115ac828260405180602001604052806000815250611922565b5050565b60006002600083815260200190815260200160002060009054906101000a900473ffffffffffffffffffffffffffffffffffffffff169050919050565b8173ffffffffffffffffffffffffffffffffffffffff168373ffffffffffffffffffffffffffffffffffffffff160361165b576040517f08c379a0000000000000000000000000000000000000000000000000000000008152600401611652906134c2565b60405180910390fd5b80600560008573ffffffffffffffffffffffffffffffffffffffff1673ffffffffffffffffffffffffffffffffffffffff16815260200190815260200160002060008473ffffffffffffffffffffffffffffffffffffffff1673ffffffffffffffffffffffffffffffffffffffff16815260200190815260200160002060006101000a81548160ff0219169083151502179055508173ffffffffffffffffffffffffffffffffffffffff168373ffffffffffffffffffffffffffffffffffffffff167f17307eab39ab6107e8899845ad3d59bd9653f200f220920489ca2b5937696c318360405161174c9190611df8565b60405180910390a3505050565b611764848484611299565b6117708484848461197d565b6117af576040517f08c379a00000000000000000000000000000000000000000000000000000000081526004016117a690613554565b60405180910390fd5b50505050565b60008073ffffffffffffffffffffffffffffffffffffffff166117d7836115b0565b73ffffffffffffffffffffffffffffffffffffffff1614159050919050565b600181111561191657600073ffffffffffffffffffffffffffffffffffffffff168473ffffffffffffffffffffffffffffffffffffffff161461188a5780600360008673ffffffffffffffffffffffffffffffffffffffff1673ffffffffffffffffffffffffffffffffffffffff16815260200190815260200160002060008282546118829190613574565b925050819055505b600073ffffffffffffffffffffffffffffffffffffffff168373ffffffffffffffffffffffffffffffffffffffff16146119155780600360008573ffffffffffffffffffffffffffffffffffffffff1673ffffffffffffffffffffffffffffffffffffffff168152602001908152602001600020600082825461190d91906135a8565b925050819055505b5b50505050565b50505050565b61192c8383611b04565b611939600084848461197d565b611978576040517f08c379a000000000000000000000000000000000000000000000000000000000815260040161196f90613554565b60405180910390fd5b505050565b600061199e8473ffffffffffffffffffffffffffffffffffffffff16611d21565b15611af7578373ffffffffffffffffffffffffffffffffffffffff1663150b7a026119c7611143565b8786866040518563ffffffff1660e01b81526004016119e994939291906135dc565b6020604051808303816000875af1925050508015611a2557506040513d601f19601f82011682018060405250810190611a22919061363d565b60015b611aa7573d8060008114611a55576040519150601f19603f3d011682016040523d82523d6000602084013e611a5a565b606091505b506000815103611a9f576040517f08c379a0000000000000000000000000000000000000000000000000000000008152600401611a9690613554565b60405180910390fd5b805181602001fd5b63150b7a0260e01b7bffffffffffffffffffffffffffffffffffffffffffffffffffffffff1916817bffffffffffffffffffffffffffffffffffffffffffffffffffffffff191614915050611afc565b600190505b949350505050565b600073ffffffffffffffffffffffffffffffffffffffff168273ffffffffffffffffffffffffffffffffffffffff1603611b73576040517f08c379a0000000000000000000000000000000000000000000000000000000008152600401611b6a906136dc565b60405180910390fd5b611b7c816117b5565b15611bbc576040517f08c379a0000000000000000000000000000000000000000000000000000000008152600401611bb39061376e565b60405180910390fd5b611bca6000838360016117f6565b611bd3816117b5565b15611c13576040517f08c379a0000000000000000000000000000000000000000000000000000000008152600401611c0a9061376e565b60405180910390fd5b6001600360008473ffffffffffffffffffffffffffffffffffffffff1673ffffffffffffffffffffffffffffffffffffffff16815260200190815260200160002060008282540192505081905550816002600083815260200190815260200160002060006101000a81548173ffffffffffffffffffffffffffffffffffffffff021916908373ffffffffffffffffffffffffffffffffffffffff160217905550808273ffffffffffffffffffffffffffffffffffffffff16600073ffffffffffffffffffffffffffffffffffffffff167fddf252ad1be2c89b69c2b068fc378daa952ba7f163c4a11628f55a4df523b3ef60405160405180910390a4611d1d60008383600161191c565b5050565b6000808273ffffffffffffffffffffffffffffffffffffffff163b119050919050565b6000604051905090565b600080fd5b600080fd5b60007fffffffff0000000000000000000000000000000000000000000000000000000082169050919050565b611d8d81611d58565b8114611d9857600080fd5b50565b600081359050611daa81611d84565b92915050565b600060208284031215611dc657611dc5611d4e565b5b6000611dd484828501611d9b565b91505092915050565b60008115159050919050565b611df281611ddd565b82525050565b6000602082019050611e0d6000830184611de9565b92915050565b600081519050919050565b600082825260208201905092915050565b60005b83811015611e4d578082015181840152602081019050611e32565b60008484015250505050565b6000601f19601f8301169050919050565b6000611e7582611e13565b611e7f8185611e1e565b9350611e8f818560208601611e2f565b611e9881611e59565b840191505092915050565b60006020820190508181036000830152611ebd8184611e6a565b905092915050565b6000819050919050565b611ed881611ec5565b8114611ee357600080fd5b50565b600081359050611ef581611ecf565b92915050565b600060208284031215611f1157611f10611d4e565b5b6000611f1f84828501611ee6565b91505092915050565b600073ffffffffffffffffffffffffffffffffffffffff82169050919050565b6000611f5382611f28565b9050919050565b611f6381611f48565b82525050565b6000602082019050611f7e6000830184611f5a565b92915050565b611f8d81611f48565b8114611f9857600080fd5b50565b600081359050611faa81611f84565b92915050565b60008060408385031215611fc757611fc6611d4e565b5b6000611fd585828601611f9b565b9250506020611fe685828601611ee6565b9150509250929050565b60008060006060848603121561200957612008611d4e565b5b600061201786828701611f9b565b935050602061202886828701611f9b565b925050604061203986828701611ee6565b9150509250925092565b6000806040838503121561205a57612059611d4e565b5b600061206885828601611ee6565b925050602061207985828601611f9b565b9150509250929050565b60006020828403121561209957612098611d4e565b5b60006120a784828501611f9b565b91505092915050565b6120b981611ec5565b82525050565b60006020820190506120d460008301846120b0565b92915050565b600081519050919050565b600082825260208201905092915050565b6000612101826120da565b61210b81856120e5565b935061211b818560208601611e2f565b61212481611e59565b840191505092915050565b600060ff82169050919050565b6121458161212f565b82525050565b600060e0820190508181036000830152612165818a611e6a565b90506121746020830189611f5a565b818103604083015261218681886120f6565b9050612195606083018761213c565b81810360808301526121a781866120f6565b905081810360a08301526121bb81856120f6565b905081810360c08301526121cf81846120f6565b905098975050505050505050565b6121e681611ddd565b81146121f157600080fd5b50565b600081359050612203816121dd565b92915050565b600080604083850312156122205761221f611d4e565b5b600061222e85828601611f9b565b925050602061223f858286016121f4565b9150509250929050565b600080fd5b600080fd5b7f4e487b7100000000000000000000000000000000000000000000000000000000600052604160045260246000fd5b61228b82611e59565b810181811067ffffffffffffffff821117156122aa576122a9612253565b5b80604052505050565b60006122bd611d44565b90506122c98282612282565b919050565b600067ffffffffffffffff8211156122e9576122e8612253565b5b6122f282611e59565b9050602081019050919050565b82818337600083830152505050565b600061232161231c846122ce565b6122b3565b90508281526020810184848401111561233d5761233c61224e565b5b6123488482856122ff565b509392505050565b600082601f83011261236557612364612249565b5b813561237584826020860161230e565b91505092915050565b60006020828403121561239457612393611d4e565b5b600082013567ffffffffffffffff8111156123b2576123b1611d53565b5b6123be84828501612350565b91505092915050565b600067ffffffffffffffff8211156123e2576123e1612253565b5b6123eb82611e59565b9050602081019050919050565b600061240b612406846123c7565b6122b3565b9050828152602081018484840111156124275761242661224e565b5b6124328482856122ff565b509392505050565b600082601f83011261244f5761244e612249565b5b813561245f8482602086016123f8565b91505092915050565b6000806000806080858703121561248257612481611d4e565b5b600061249087828801611f9b565b94505060206124a187828801611f9b565b93505060406124b287828801611ee6565b925050606085013567ffffffffffffffff8111156124d3576124d2611d53565b5b6124df8782880161243a565b91505092959194509250565b600067ffffffffffffffff82111561250657612505612253565b5b602082029050602081019050919050565b600080fd5b600080fd5b600080fd5b61252f8161212f565b811461253a57600080fd5b50565b60008135905061254c81612526565b92915050565b600060e082840312156125685761256761251c565b5b61257260e06122b3565b9050600082013567ffffffffffffffff81111561259257612591612521565b5b61259e84828501612350565b60008301525060206125b284828501611f9b565b602083015250604082013567ffffffffffffffff8111156125d6576125d5612521565b5b6125e28482850161243a565b60408301525060606125f68482850161253d565b606083015250608082013567ffffffffffffffff81111561261a57612619612521565b5b6126268482850161243a565b60808301525060a082013567ffffffffffffffff81111561264a57612649612521565b5b6126568482850161243a565b60a08301525060c082013567ffffffffffffffff81111561267a57612679612521565b5b6126868482850161243a565b60c08301525092915050565b60006126a56126a0846124eb565b6122b3565b905080838252602082019050602084028301858111156126c8576126c7612517565b5b835b8181101561270f57803567ffffffffffffffff8111156126ed576126ec612249565b5b8086016126fa8982612552565b855260208501945050506020810190506126ca565b5050509392505050565b600082601f83011261272e5761272d612249565b5b813561273e848260208601612692565b91505092915050565b6000806000806080858703121561276157612760611d4e565b5b600061276f87828801611f9b565b945050602061278087828801611f9b565b935050604061279187828801611ee6565b925050606085013567ffffffffffffffff8111156127b2576127b1611d53565b5b6127be87828801612719565b91505092959194509250565b600080604083850312156127e1576127e0611d4e565b5b60006127ef85828601611f9b565b925050602061280085828601611f9b565b9150509250929050565b7f4e487b7100000000000000000000000000000000000000000000000000000000600052602260045260246000fd5b6000600282049050600182168061285157607f821691505b6020821081036128645761286361280a565b5b50919050565b7f455243373231436c6f6e6561626c653a20617070726f76616c20746f2063757260008201527f72656e74206f776e657200000000000000000000000000000000000000000000602082015250565b60006128c6602a83611e1e565b91506128d18261286a565b604082019050919050565b600060208201905081810360008301526128f5816128b9565b9050919050565b7f455243373231436c6f6e6561626c653a20617070726f76652063616c6c65722060008201527f6973206e6f7420746f6b656e206f776e6572206f7220617070726f766564206660208201527f6f7220616c6c0000000000000000000000000000000000000000000000000000604082015250565b600061297e604683611e1e565b9150612989826128fc565b606082019050919050565b600060208201905081810360008301526129ad81612971565b9050919050565b7f455243373231436c6f6e6561626c653a2063616c6c6572206973206e6f74207460008201527f6f6b656e206f776e6572206f7220617070726f76656400000000000000000000602082015250565b6000612a10603683611e1e565b9150612a1b826129b4565b604082019050919050565b60006020820190508181036000830152612a3f81612a03565b9050919050565b7f455243373231436c6f6e6561626c653a20696e76616c696420746f6b656e204960008201527f4400000000000000000000000000000000000000000000000000000000000000602082015250565b6000612aa2602183611e1e565b9150612aad82612a46565b604082019050919050565b60006020820190508181036000830152612ad181612a95565b9050919050565b7f455243373231436c6f6e6561626c653a2061646472657373207a65726f20697360008201527f206e6f7420612076616c6964206f776e65720000000000000000000000000000602082015250565b6000612b34603283611e1e565b9150612b3f82612ad8565b604082019050919050565b60006020820190508181036000830152612b6381612b27565b9050919050565b7f455243373231436c6f6e6561626c653a2073796d626f6c20616c72656164792060008201527f7365740000000000000000000000000000000000000000000000000000000000602082015250565b6000612bc6602383611e1e565b9150612bd182612b6a565b604082019050919050565b60006020820190508181036000830152612bf581612bb9565b9050919050565b60008190508160005260206000209050919050565b60006020601f8301049050919050565b600082821b905092915050565b600060088302612c5e7fffffffffffffffffffffffffffffffffffffffffffffffffffffffffffffffff82612c21565b612c688683612c21565b95508019841693508086168417925050509392505050565b6000819050919050565b6000612ca5612ca0612c9b84611ec5565b612c80565b611ec5565b9050919050565b6000819050919050565b612cbf83612c8a565b612cd3612ccb82612cac565b848454612c2e565b825550505050565b600090565b612ce8612cdb565b612cf3818484612cb6565b505050565b5b81811015612d1757612d0c600082612ce0565b600181019050612cf9565b5050565b601f821115612d5c57612d2d81612bfc565b612d3684612c11565b81016020851015612d45578190505b612d59612d5185612c11565b830182612cf8565b50505b505050565b600082821c905092915050565b6000612d7f60001984600802612d61565b1980831691505092915050565b6000612d988383612d6e565b9150826002028217905092915050565b612db182611e13565b67ffffffffffffffff811115612dca57612dc9612253565b5b612dd48254612839565b612ddf828285612d1b565b600060209050601f831160018114612e125760008415612e00578287015190505b612e0a8582612d8c565b865550612e72565b601f198416612e2086612bfc565b60005b82811015612e4857848901518255600182019150602085019450602081019050612e23565b86831015612e655784890151612e61601f891682612d6e565b8355505b6001600288020188555050505b505050505050565b7f4e487b7100000000000000000000000000000000000000000000000000000000600052603260045260246000fd5b60008190508160005260206000209050919050565b601f821115612eff57612ed081612ea9565b612ed984612c11565b81016020851015612ee8578190505b612efc612ef485612c11565b830182612cf8565b50505b505050565b612f0d826120da565b67ffffffffffffffff811115612f2657612f25612253565b5b612f308254612839565b612f3b828285612ebe565b600060209050601f831160018114612f6e5760008415612f5c578287015190505b612f668582612d8c565b865550612fce565b601f198416612f7c86612ea9565b60005b82811015612fa457848901518255600182019150602085019450602081019050612f7f565b86831015612fc15784890151612fbd601f891682612d6e565b8355505b6001600288020188555050505b505050505050565b7f4e487b7100000000000000000000000000000000000000000000000000000000600052601160045260246000fd5b600061301082611ec5565b91507fffffffffffffffffffffffffffffffffffffffffffffffffffffffffffffffff820361304257613041612fd6565b5b600182019050919050565b7f455243373231436c6f6e6561626c653a206e616d6520616c726561647920736560008201527f7400000000000000000000000000000000000000000000000000000000000000602082015250565b60006130a9602183611e1e565b91506130b48261304d565b604082019050919050565b600060208201905081810360008301526130d88161309c565b9050919050565b600081905092915050565b7f646174613a6170706c69636174696f6e2f6a736f6e2c00000000000000000000600082015250565b60006131206016836130df565b915061312b826130ea565b601682019050919050565b7f2537422532326e616d652532322533412532324375626533442532302d25323060008201527f475a4950253230436f6d707265737365642532302d25323055524c253230536160208201527f66652532322532432532302532326465736372697074696f6e2532322533412560408201527f3232417373656d626c6573253230475a4950253230636f6d707265737365642560608201527f3230626173653634253230656e636f64656425323074687265652e6a7325323060808201527f776974682532306125323064656d6f2532307363656e652e2532304d6574616460a08201527f617461253230616e64253230616e696d6174696f6e25323055524c253230617260c08201527f65253230626f746825323055524c253230656e636f6465642e2532322532432560e08201527f3232616e696d6174696f6e5f75726c253232253341253232000000000000000061010082015250565b600061329e610118836130df565b91506132a982613136565b61011882019050919050565b7f2532322537440000000000000000000000000000000000000000000000000000600082015250565b60006132eb6006836130df565b91506132f6826132b5565b600682019050919050565b600061330c82613113565b915061331782613290565b9150613322826132de565b9150819050919050565b7f455243373231436c6f6e6561626c653a207472616e736665722066726f6d206960008201527f6e636f7272656374206f776e6572000000000000000000000000000000000000602082015250565b6000613388602e83611e1e565b91506133938261332c565b604082019050919050565b600060208201905081810360008301526133b78161337b565b9050919050565b7f455243373231436c6f6e6561626c653a207472616e7366657220746f2074686560008201527f207a65726f206164647265737300000000000000000000000000000000000000602082015250565b600061341a602d83611e1e565b9150613425826133be565b604082019050919050565b600060208201905081810360008301526134498161340d565b9050919050565b7f455243373231436c6f6e6561626c653a20617070726f766520746f2063616c6c60008201527f6572000000000000000000000000000000000000000000000000000000000000602082015250565b60006134ac602283611e1e565b91506134b782613450565b604082019050919050565b600060208201905081810360008301526134db8161349f565b9050919050565b7f455243373231436c6f6e6561626c653a207472616e7366657220746f206e6f6e60008201527f20455243373231526563656976657220696d706c656d656e7465720000000000602082015250565b600061353e603b83611e1e565b9150613549826134e2565b604082019050919050565b6000602082019050818103600083015261356d81613531565b9050919050565b600061357f82611ec5565b915061358a83611ec5565b92508282039050818111156135a2576135a1612fd6565b5b92915050565b60006135b382611ec5565b91506135be83611ec5565b92508282019050808211156135d6576135d5612fd6565b5b92915050565b60006080820190506135f16000830187611f5a565b6135fe6020830186611f5a565b61360b60408301856120b0565b818103606083015261361d81846120f6565b905095945050505050565b60008151905061363781611d84565b92915050565b60006020828403121561365357613652611d4e565b5b600061366184828501613628565b91505092915050565b7f455243373231436c6f6e6561626c653a206d696e7420746f20746865207a657260008201527f6f20616464726573730000000000000000000000000000000000000000000000602082015250565b60006136c6602983611e1e565b91506136d18261366a565b604082019050919050565b600060208201905081810360008301526136f5816136b9565b9050919050565b7f455243373231436c6f6e6561626c653a20746f6b656e20616c7265616479206d60008201527f696e746564000000000000000000000000000000000000000000000000000000602082015250565b6000613758602583611e1e565b9150613763826136fc565b604082019050919050565b600060208201905081810360008301526137878161374b565b905091905056fea2646970667358221220035afd2218dd224cae6d10fe57a2192a4229800aa89b86ae8aac417b4aef52b164736f6c63430008110033",
  "linkReferences": {},
  "deployedLinkReferences": {}
}