{
  "_format": "hh-sol-artifact-1",
  "contractName": "Frame",
  "sourceName": "src/contracts/Frame.sol",
  "abi": [
    {
      "inputs": [],
      "stateMutability": "nonpayable",
      "type": "constructor"
    },
    {
      "anonymous": false,
      "inputs": [
        {
          "indexed": true,
          "internalType": "address",
          "name": "owner",
          "type": "address"
        },
        {
          "indexed": true,
          "internalType": "address",
          "name": "approved",
          "type": "address"
        },
        {
          "indexed": true,
          "internalType": "uint256",
          "name": "tokenId",
          "type": "uint256"
        }
      ],
      "name": "Approval",
      "type": "event"
    },
    {
      "anonymous": false,
      "inputs": [
        {
          "indexed": true,
          "internalType": "address",
          "name": "owner",
          "type": "address"
        },
        {
          "indexed": true,
          "internalType": "address",
          "name": "operator",
          "type": "address"
        },
        {
          "indexed": false,
          "internalType": "bool",
          "name": "approved",
          "type": "bool"
        }
      ],
      "name": "ApprovalForAll",
      "type": "event"
    },
    {
      "anonymous": false,
      "inputs": [
        {
          "indexed": true,
          "internalType": "address",
          "name": "from",
          "type": "address"
        },
        {
          "indexed": true,
          "internalType": "address",
          "name": "to",
          "type": "address"
        },
        {
          "indexed": true,
          "internalType": "uint256",
          "name": "tokenId",
          "type": "uint256"
        }
      ],
      "name": "Transfer",
      "type": "event"
    },
    {
      "inputs": [
        {
          "internalType": "address",
          "name": "to",
          "type": "address"
        },
        {
          "internalType": "uint256",
          "name": "tokenId",
          "type": "uint256"
        }
      ],
      "name": "approve",
      "outputs": [],
      "stateMutability": "nonpayable",
      "type": "function"
    },
    {
      "inputs": [
        {
          "internalType": "address",
          "name": "owner",
          "type": "address"
        }
      ],
      "name": "balanceOf",
      "outputs": [
        {
          "internalType": "uint256",
          "name": "",
          "type": "uint256"
        }
      ],
      "stateMutability": "view",
      "type": "function"
    },
    {
      "inputs": [],
      "name": "bufferSize",
      "outputs": [
        {
          "internalType": "uint256",
          "name": "",
          "type": "uint256"
        }
      ],
      "stateMutability": "view",
      "type": "function"
    },
    {
      "inputs": [
        {
          "internalType": "uint256",
          "name": "tokenId",
          "type": "uint256"
        }
      ],
      "name": "getApproved",
      "outputs": [
        {
          "internalType": "address",
          "name": "",
          "type": "address"
        }
      ],
      "stateMutability": "view",
      "type": "function"
    },
    {
      "inputs": [
        {
          "components": [
            {
              "internalType": "string",
              "name": "encodedName",
              "type": "string"
            },
            {
              "internalType": "string",
              "name": "encodedDescription",
              "type": "string"
            }
          ],
          "internalType": "struct FrameMetadata",
          "name": "_metadata",
          "type": "tuple"
        },
        {
          "internalType": "address",
          "name": "_scriptyBuilderAddress",
          "type": "address"
        },
        {
          "internalType": "uint256",
          "name": "_bufferSize",
          "type": "uint256"
        },
        {
          "components": [
            {
              "internalType": "string",
              "name": "name",
              "type": "string"
            },
            {
              "internalType": "address",
              "name": "contractAddress",
              "type": "address"
            },
            {
              "internalType": "bytes",
              "name": "contractData",
              "type": "bytes"
            },
            {
              "internalType": "uint8",
              "name": "wrapType",
              "type": "uint8"
            },
            {
              "internalType": "bytes",
              "name": "wrapPrefix",
              "type": "bytes"
            },
            {
              "internalType": "bytes",
              "name": "wrapSuffix",
              "type": "bytes"
            },
            {
              "internalType": "bytes",
              "name": "scriptContent",
              "type": "bytes"
            }
          ],
          "internalType": "struct WrappedScriptRequest[]",
          "name": "_requests",
          "type": "tuple[]"
        }
      ],
      "name": "init",
      "outputs": [],
      "stateMutability": "nonpayable",
      "type": "function"
    },
    {
      "inputs": [],
      "name": "initialized",
      "outputs": [
        {
          "internalType": "bool",
          "name": "",
          "type": "bool"
        }
      ],
      "stateMutability": "view",
      "type": "function"
    },
    {
      "inputs": [
        {
          "internalType": "address",
          "name": "owner",
          "type": "address"
        },
        {
          "internalType": "address",
          "name": "operator",
          "type": "address"
        }
      ],
      "name": "isApprovedForAll",
      "outputs": [
        {
          "internalType": "bool",
          "name": "",
          "type": "bool"
        }
      ],
      "stateMutability": "view",
      "type": "function"
    },
    {
      "inputs": [],
      "name": "minted",
      "outputs": [
        {
          "internalType": "bool",
          "name": "",
          "type": "bool"
        }
      ],
      "stateMutability": "view",
      "type": "function"
    },
    {
      "inputs": [],
      "name": "name",
      "outputs": [
        {
          "internalType": "string",
          "name": "",
          "type": "string"
        }
      ],
      "stateMutability": "view",
      "type": "function"
    },
    {
      "inputs": [
        {
          "internalType": "uint256",
          "name": "tokenId",
          "type": "uint256"
        }
      ],
      "name": "ownerOf",
      "outputs": [
        {
          "internalType": "address",
          "name": "",
          "type": "address"
        }
      ],
      "stateMutability": "view",
      "type": "function"
    },
    {
      "inputs": [
        {
          "internalType": "uint256",
          "name": "",
          "type": "uint256"
        }
      ],
      "name": "requests",
      "outputs": [
        {
          "internalType": "string",
          "name": "name",
          "type": "string"
        },
        {
          "internalType": "address",
          "name": "contractAddress",
          "type": "address"
        },
        {
          "internalType": "bytes",
          "name": "contractData",
          "type": "bytes"
        },
        {
          "internalType": "uint8",
          "name": "wrapType",
          "type": "uint8"
        },
        {
          "internalType": "bytes",
          "name": "wrapPrefix",
          "type": "bytes"
        },
        {
          "internalType": "bytes",
          "name": "wrapSuffix",
          "type": "bytes"
        },
        {
          "internalType": "bytes",
          "name": "scriptContent",
          "type": "bytes"
        }
      ],
      "stateMutability": "view",
      "type": "function"
    },
    {
      "inputs": [
        {
          "internalType": "address",
          "name": "from",
          "type": "address"
        },
        {
          "internalType": "address",
          "name": "to",
          "type": "address"
        },
        {
          "internalType": "uint256",
          "name": "tokenId",
          "type": "uint256"
        }
      ],
      "name": "safeTransferFrom",
      "outputs": [],
      "stateMutability": "nonpayable",
      "type": "function"
    },
    {
      "inputs": [
        {
          "internalType": "address",
          "name": "from",
          "type": "address"
        },
        {
          "internalType": "address",
          "name": "to",
          "type": "address"
        },
        {
          "internalType": "uint256",
          "name": "tokenId",
          "type": "uint256"
        },
        {
          "internalType": "bytes",
          "name": "data",
          "type": "bytes"
        }
      ],
      "name": "safeTransferFrom",
      "outputs": [],
      "stateMutability": "nonpayable",
      "type": "function"
    },
    {
      "inputs": [],
      "name": "scriptyBuilderAddress",
      "outputs": [
        {
          "internalType": "address",
          "name": "",
          "type": "address"
        }
      ],
      "stateMutability": "view",
      "type": "function"
    },
    {
      "inputs": [
        {
          "internalType": "address",
          "name": "operator",
          "type": "address"
        },
        {
          "internalType": "bool",
          "name": "approved",
          "type": "bool"
        }
      ],
      "name": "setApprovalForAll",
      "outputs": [],
      "stateMutability": "nonpayable",
      "type": "function"
    },
    {
      "inputs": [
        {
          "internalType": "string",
          "name": "nameString",
          "type": "string"
        }
      ],
      "name": "setName",
      "outputs": [],
      "stateMutability": "nonpayable",
      "type": "function"
    },
    {
      "inputs": [
        {
          "internalType": "string",
          "name": "symbolString",
          "type": "string"
        }
      ],
      "name": "setSymbol",
      "outputs": [],
      "stateMutability": "nonpayable",
      "type": "function"
    },
    {
      "inputs": [
        {
          "internalType": "bytes4",
          "name": "interfaceId",
          "type": "bytes4"
        }
      ],
      "name": "supportsInterface",
      "outputs": [
        {
          "internalType": "bool",
          "name": "",
          "type": "bool"
        }
      ],
      "stateMutability": "view",
      "type": "function"
    },
    {
      "inputs": [],
      "name": "symbol",
      "outputs": [
        {
          "internalType": "string",
          "name": "",
          "type": "string"
        }
      ],
      "stateMutability": "view",
      "type": "function"
    },
    {
      "inputs": [
        {
          "internalType": "uint256",
          "name": "",
          "type": "uint256"
        }
      ],
      "name": "tokenURI",
      "outputs": [
        {
          "internalType": "string",
          "name": "",
          "type": "string"
        }
      ],
      "stateMutability": "view",
      "type": "function"
    },
    {
      "inputs": [
        {
          "internalType": "address",
          "name": "from",
          "type": "address"
        },
        {
          "internalType": "address",
          "name": "to",
          "type": "address"
        },
        {
          "internalType": "uint256",
          "name": "tokenId",
          "type": "uint256"
        }
      ],
      "name": "transferFrom",
      "outputs": [],
      "stateMutability": "nonpayable",
      "type": "function"
    },
    {
      "inputs": [],
      "name": "urlEncodedDesc",
      "outputs": [
        {
          "internalType": "string",
          "name": "",
          "type": "string"
        }
      ],
      "stateMutability": "view",
      "type": "function"
    },
    {
      "inputs": [],
      "name": "urlEncodedName",
      "outputs": [
        {
          "internalType": "string",
          "name": "",
          "type": "string"
        }
      ],
      "stateMutability": "view",
      "type": "function"
    }
  ],
  "bytecode": "0x608060405234801561001057600080fd5b50613d0a806100206000396000f3fe608060405234801561001057600080fd5b506004361061014d5760003560e01c80636eaa1afe116100c3578063b84c82461161007c578063b84c8246146103a6578063b88d4fde146103c2578063c47f0027146103de578063c87b56dd146103fa578063e3b71f871461042a578063e985e9c5146104485761014d565b80636eaa1afe146102ca57806370a08231146102e857806381d12c581461031857806395d89b411461034e5780639c2c770b1461036c578063a22cb4651461038a5761014d565b806323b872dd1161011557806323b872dd1461020a57806332032db51461022657806342842e0e146102445780634e197151146102605780634f02c4201461027c5780636352211e1461029a5761014d565b806301ffc9a71461015257806306fdde0314610182578063081812fc146101a0578063095ea7b3146101d0578063158ef93e146101ec575b600080fd5b61016c60048036038101906101679190611ce0565b610478565b6040516101799190611d28565b60405180910390f35b61018a61055a565b6040516101979190611dd3565b60405180910390f35b6101ba60048036038101906101b59190611e2b565b6105ec565b6040516101c79190611e99565b60405180910390f35b6101ea60048036038101906101e59190611ee0565b610632565b005b6101f4610749565b6040516102019190611d28565b60405180910390f35b610224600480360381019061021f9190611f20565b61075c565b005b61022e6107bc565b60405161023b9190611dd3565b60405180910390f35b61025e60048036038101906102599190611f20565b61084a565b005b61027a60048036038101906102759190611ffc565b61086a565b005b6102846109e4565b6040516102919190611d28565b60405180910390f35b6102b460048036038101906102af9190611e2b565b6109f7565b6040516102c19190611e99565b60405180910390f35b6102d2610a7d565b6040516102df9190611dd3565b60405180910390f35b61030260048036038101906102fd91906120a0565b610b0b565b60405161030f91906120dc565b60405180910390f35b610332600480360381019061032d9190611e2b565b610bc2565b6040516103459796959493929190612168565b60405180910390f35b610356610ee9565b6040516103639190611dd3565b60405180910390f35b610374610f7b565b60405161038191906120dc565b60405180910390f35b6103a4600480360381019061039f9190612226565b610f81565b005b6103c060048036038101906103bb9190612396565b610f97565b005b6103dc60048036038101906103d79190612480565b610ffb565b005b6103f860048036038101906103f39190612396565b61105d565b005b610414600480360381019061040f9190611e2b565b6110c0565b6040516104219190611dd3565b60405180910390f35b61043261119a565b60405161043f9190611e99565b60405180910390f35b610462600480360381019061045d9190612503565b6111c0565b60405161046f9190611d28565b60405180910390f35b60007ffc9fdaac000000000000000000000000000000000000000000000000000000007bffffffffffffffffffffffffffffffffffffffffffffffffffffffff1916827bffffffffffffffffffffffffffffffffffffffffffffffffffffffff1916148061054357507f5b5e139f000000000000000000000000000000000000000000000000000000007bffffffffffffffffffffffffffffffffffffffffffffffffffffffff1916827bffffffffffffffffffffffffffffffffffffffffffffffffffffffff1916145b80610553575061055282611254565b5b9050919050565b60606000805461056990612572565b80601f016020809104026020016040519081016040528092919081815260200182805461059590612572565b80156105e25780601f106105b7576101008083540402835291602001916105e2565b820191906000526020600020905b8154815290600101906020018083116105c557829003601f168201915b5050505050905090565b60006105f7826112be565b6004600083815260200190815260200160002060009054906101000a900473ffffffffffffffffffffffffffffffffffffffff169050919050565b600061063d826109f7565b90508073ffffffffffffffffffffffffffffffffffffffff168373ffffffffffffffffffffffffffffffffffffffff16036106ad576040517f08c379a00000000000000000000000000000000000000000000000000000000081526004016106a490612615565b60405180910390fd5b8073ffffffffffffffffffffffffffffffffffffffff166106cc611309565b73ffffffffffffffffffffffffffffffffffffffff1614806106fb57506106fa816106f5611309565b6111c0565b5b61073a576040517f08c379a0000000000000000000000000000000000000000000000000000000008152600401610731906126cd565b60405180910390fd5b6107448383611311565b505050565b600660009054906101000a900460ff1681565b61076d610767611309565b826113ca565b6107ac576040517f08c379a00000000000000000000000000000000000000000000000000000000081526004016107a39061275f565b60405180910390fd5b6107b783838361145f565b505050565b600780546107c990612572565b80601f01602080910402602001604051908101604052809291908181526020018280546107f590612572565b80156108425780601f1061081757610100808354040283529160200191610842565b820191906000526020600020905b81548152906001019060200180831161082557829003601f168201915b505050505081565b61086583838360405180602001604052806000815250610ffb565b505050565b600660009054906101000a900460ff16156108ba576040517f08c379a00000000000000000000000000000000000000000000000000000000081526004016108b1906127cb565b60405180910390fd5b8480600001906108ca91906127fa565b600791826108d9929190612a14565b508480602001906108ea91906127fa565b600891826108f9929190612a14565b5083600960006101000a81548173ffffffffffffffffffffffffffffffffffffffff021916908373ffffffffffffffffffffffffffffffffffffffff16021790555082600a8190555060005b828290508110156109c157600b83838381811061096557610964612ae4565b5b90506020028101906109779190612b13565b908060018154018082558091505060019003906000526020600020906007020160009091909190915081816109ac9190612f4a565b505080806109b990612f87565b915050610945565b506001600660006101000a81548160ff0219169083151502179055505050505050565b600660019054906101000a900460ff1681565b600080610a0383611758565b9050600073ffffffffffffffffffffffffffffffffffffffff168173ffffffffffffffffffffffffffffffffffffffff1603610a74576040517f08c379a0000000000000000000000000000000000000000000000000000000008152600401610a6b90613041565b60405180910390fd5b80915050919050565b60088054610a8a90612572565b80601f0160208091040260200160405190810160405280929190818152602001828054610ab690612572565b8015610b035780601f10610ad857610100808354040283529160200191610b03565b820191906000526020600020905b815481529060010190602001808311610ae657829003601f168201915b505050505081565b60008073ffffffffffffffffffffffffffffffffffffffff168273ffffffffffffffffffffffffffffffffffffffff1603610b7b576040517f08c379a0000000000000000000000000000000000000000000000000000000008152600401610b72906130d3565b60405180910390fd5b600360008373ffffffffffffffffffffffffffffffffffffffff1673ffffffffffffffffffffffffffffffffffffffff168152602001908152602001600020549050919050565b600b8181548110610bd257600080fd5b9060005260206000209060070201600091509050806000018054610bf590612572565b80601f0160208091040260200160405190810160405280929190818152602001828054610c2190612572565b8015610c6e5780601f10610c4357610100808354040283529160200191610c6e565b820191906000526020600020905b815481529060010190602001808311610c5157829003601f168201915b5050505050908060010160009054906101000a900473ffffffffffffffffffffffffffffffffffffffff1690806002018054610ca990612572565b80601f0160208091040260200160405190810160405280929190818152602001828054610cd590612572565b8015610d225780601f10610cf757610100808354040283529160200191610d22565b820191906000526020600020905b815481529060010190602001808311610d0557829003601f168201915b5050505050908060030160009054906101000a900460ff1690806004018054610d4a90612572565b80601f0160208091040260200160405190810160405280929190818152602001828054610d7690612572565b8015610dc35780601f10610d9857610100808354040283529160200191610dc3565b820191906000526020600020905b815481529060010190602001808311610da657829003601f168201915b505050505090806005018054610dd890612572565b80601f0160208091040260200160405190810160405280929190818152602001828054610e0490612572565b8015610e515780601f10610e2657610100808354040283529160200191610e51565b820191906000526020600020905b815481529060010190602001808311610e3457829003601f168201915b505050505090806006018054610e6690612572565b80601f0160208091040260200160405190810160405280929190818152602001828054610e9290612572565b8015610edf5780601f10610eb457610100808354040283529160200191610edf565b820191906000526020600020905b815481529060010190602001808311610ec257829003601f168201915b5050505050905087565b606060018054610ef890612572565b80601f0160208091040260200160405190810160405280929190818152602001828054610f2490612572565b8015610f715780601f10610f4657610100808354040283529160200191610f71565b820191906000526020600020905b815481529060010190602001808311610f5457829003601f168201915b5050505050905090565b600a5481565b610f93610f8c611309565b8383611795565b5050565b600060018054610fa690612572565b905014610fe8576040517f08c379a0000000000000000000000000000000000000000000000000000000008152600401610fdf90613165565b60405180910390fd5b8060019081610ff79190613185565b5050565b61100c611006611309565b836113ca565b61104b576040517f08c379a00000000000000000000000000000000000000000000000000000000081526004016110429061275f565b60405180910390fd5b61105784848484611901565b50505050565b600080805461106b90612572565b9050146110ad576040517f08c379a00000000000000000000000000000000000000000000000000000000081526004016110a4906132c9565b60405180910390fd5b80600090816110bc9190613185565b5050565b60606000600960009054906101000a900473ffffffffffffffffffffffffffffffffffffffff1673ffffffffffffffffffffffffffffffffffffffff1663b4f7d41e600b600a546040518363ffffffff1660e01b8152600401611124929190613630565b600060405180830381865afa158015611141573d6000803e3d6000fd5b505050506040513d6000823e3d601f19601f8201168201806040525081019061116a91906136d0565b9050600760088260405160200161118393929190613939565b604051602081830303815290604052915050919050565b600960009054906101000a900473ffffffffffffffffffffffffffffffffffffffff1681565b6000600560008473ffffffffffffffffffffffffffffffffffffffff1673ffffffffffffffffffffffffffffffffffffffff16815260200190815260200160002060008373ffffffffffffffffffffffffffffffffffffffff1673ffffffffffffffffffffffffffffffffffffffff16815260200190815260200160002060009054906101000a900460ff16905092915050565b60007f01ffc9a7000000000000000000000000000000000000000000000000000000007bffffffffffffffffffffffffffffffffffffffffffffffffffffffff1916827bffffffffffffffffffffffffffffffffffffffffffffffffffffffff1916149050919050565b6112c78161195d565b611306576040517f08c379a00000000000000000000000000000000000000000000000000000000081526004016112fd90613041565b60405180910390fd5b50565b600033905090565b816004600083815260200190815260200160002060006101000a81548173ffffffffffffffffffffffffffffffffffffffff021916908373ffffffffffffffffffffffffffffffffffffffff160217905550808273ffffffffffffffffffffffffffffffffffffffff16611384836109f7565b73ffffffffffffffffffffffffffffffffffffffff167f8c5be1e5ebec7d5bd14f71427d1e84f3dd0314c0f7b2291e5b200ac8c7c3b92560405160405180910390a45050565b6000806113d6836109f7565b90508073ffffffffffffffffffffffffffffffffffffffff168473ffffffffffffffffffffffffffffffffffffffff161480611418575061141781856111c0565b5b8061145657508373ffffffffffffffffffffffffffffffffffffffff1661143e846105ec565b73ffffffffffffffffffffffffffffffffffffffff16145b91505092915050565b8273ffffffffffffffffffffffffffffffffffffffff1661147f826109f7565b73ffffffffffffffffffffffffffffffffffffffff16146114d5576040517f08c379a00000000000000000000000000000000000000000000000000000000081526004016114cc90613a08565b60405180910390fd5b600073ffffffffffffffffffffffffffffffffffffffff168273ffffffffffffffffffffffffffffffffffffffff1603611544576040517f08c379a000000000000000000000000000000000000000000000000000000000815260040161153b90613a9a565b60405180910390fd5b611551838383600161199e565b8273ffffffffffffffffffffffffffffffffffffffff16611571826109f7565b73ffffffffffffffffffffffffffffffffffffffff16146115c7576040517f08c379a00000000000000000000000000000000000000000000000000000000081526004016115be90613a08565b60405180910390fd5b6004600082815260200190815260200160002060006101000a81549073ffffffffffffffffffffffffffffffffffffffff02191690556001600360008573ffffffffffffffffffffffffffffffffffffffff1673ffffffffffffffffffffffffffffffffffffffff168152602001908152602001600020600082825403925050819055506001600360008473ffffffffffffffffffffffffffffffffffffffff1673ffffffffffffffffffffffffffffffffffffffff16815260200190815260200160002060008282540192505081905550816002600083815260200190815260200160002060006101000a81548173ffffffffffffffffffffffffffffffffffffffff021916908373ffffffffffffffffffffffffffffffffffffffff160217905550808273ffffffffffffffffffffffffffffffffffffffff168473ffffffffffffffffffffffffffffffffffffffff167fddf252ad1be2c89b69c2b068fc378daa952ba7f163c4a11628f55a4df523b3ef60405160405180910390a46117538383836001611ac4565b505050565b60006002600083815260200190815260200160002060009054906101000a900473ffffffffffffffffffffffffffffffffffffffff169050919050565b8173ffffffffffffffffffffffffffffffffffffffff168373ffffffffffffffffffffffffffffffffffffffff1603611803576040517f08c379a00000000000000000000000000000000000000000000000000000000081526004016117fa90613b2c565b60405180910390fd5b80600560008573ffffffffffffffffffffffffffffffffffffffff1673ffffffffffffffffffffffffffffffffffffffff16815260200190815260200160002060008473ffffffffffffffffffffffffffffffffffffffff1673ffffffffffffffffffffffffffffffffffffffff16815260200190815260200160002060006101000a81548160ff0219169083151502179055508173ffffffffffffffffffffffffffffffffffffffff168373ffffffffffffffffffffffffffffffffffffffff167f17307eab39ab6107e8899845ad3d59bd9653f200f220920489ca2b5937696c31836040516118f49190611d28565b60405180910390a3505050565b61190c84848461145f565b61191884848484611aca565b611957576040517f08c379a000000000000000000000000000000000000000000000000000000000815260040161194e90613bbe565b60405180910390fd5b50505050565b60008073ffffffffffffffffffffffffffffffffffffffff1661197f83611758565b73ffffffffffffffffffffffffffffffffffffffff1614159050919050565b6001811115611abe57600073ffffffffffffffffffffffffffffffffffffffff168473ffffffffffffffffffffffffffffffffffffffff1614611a325780600360008673ffffffffffffffffffffffffffffffffffffffff1673ffffffffffffffffffffffffffffffffffffffff1681526020019081526020016000206000828254611a2a9190613bde565b925050819055505b600073ffffffffffffffffffffffffffffffffffffffff168373ffffffffffffffffffffffffffffffffffffffff1614611abd5780600360008573ffffffffffffffffffffffffffffffffffffffff1673ffffffffffffffffffffffffffffffffffffffff1681526020019081526020016000206000828254611ab59190613c12565b925050819055505b5b50505050565b50505050565b6000611aeb8473ffffffffffffffffffffffffffffffffffffffff16611c51565b15611c44578373ffffffffffffffffffffffffffffffffffffffff1663150b7a02611b14611309565b8786866040518563ffffffff1660e01b8152600401611b369493929190613c46565b6020604051808303816000875af1925050508015611b7257506040513d601f19601f82011682018060405250810190611b6f9190613ca7565b60015b611bf4573d8060008114611ba2576040519150601f19603f3d011682016040523d82523d6000602084013e611ba7565b606091505b506000815103611bec576040517f08c379a0000000000000000000000000000000000000000000000000000000008152600401611be390613bbe565b60405180910390fd5b805181602001fd5b63150b7a0260e01b7bffffffffffffffffffffffffffffffffffffffffffffffffffffffff1916817bffffffffffffffffffffffffffffffffffffffffffffffffffffffff191614915050611c49565b600190505b949350505050565b6000808273ffffffffffffffffffffffffffffffffffffffff163b119050919050565b6000604051905090565b600080fd5b600080fd5b60007fffffffff0000000000000000000000000000000000000000000000000000000082169050919050565b611cbd81611c88565b8114611cc857600080fd5b50565b600081359050611cda81611cb4565b92915050565b600060208284031215611cf657611cf5611c7e565b5b6000611d0484828501611ccb565b91505092915050565b60008115159050919050565b611d2281611d0d565b82525050565b6000602082019050611d3d6000830184611d19565b92915050565b600081519050919050565b600082825260208201905092915050565b60005b83811015611d7d578082015181840152602081019050611d62565b60008484015250505050565b6000601f19601f8301169050919050565b6000611da582611d43565b611daf8185611d4e565b9350611dbf818560208601611d5f565b611dc881611d89565b840191505092915050565b60006020820190508181036000830152611ded8184611d9a565b905092915050565b6000819050919050565b611e0881611df5565b8114611e1357600080fd5b50565b600081359050611e2581611dff565b92915050565b600060208284031215611e4157611e40611c7e565b5b6000611e4f84828501611e16565b91505092915050565b600073ffffffffffffffffffffffffffffffffffffffff82169050919050565b6000611e8382611e58565b9050919050565b611e9381611e78565b82525050565b6000602082019050611eae6000830184611e8a565b92915050565b611ebd81611e78565b8114611ec857600080fd5b50565b600081359050611eda81611eb4565b92915050565b60008060408385031215611ef757611ef6611c7e565b5b6000611f0585828601611ecb565b9250506020611f1685828601611e16565b9150509250929050565b600080600060608486031215611f3957611f38611c7e565b5b6000611f4786828701611ecb565b9350506020611f5886828701611ecb565b9250506040611f6986828701611e16565b9150509250925092565b600080fd5b600060408284031215611f8e57611f8d611f73565b5b81905092915050565b600080fd5b600080fd5b600080fd5b60008083601f840112611fbc57611fbb611f97565b5b8235905067ffffffffffffffff811115611fd957611fd8611f9c565b5b602083019150836020820283011115611ff557611ff4611fa1565b5b9250929050565b60008060008060006080868803121561201857612017611c7e565b5b600086013567ffffffffffffffff81111561203657612035611c83565b5b61204288828901611f78565b955050602061205388828901611ecb565b945050604061206488828901611e16565b935050606086013567ffffffffffffffff81111561208557612084611c83565b5b61209188828901611fa6565b92509250509295509295909350565b6000602082840312156120b6576120b5611c7e565b5b60006120c484828501611ecb565b91505092915050565b6120d681611df5565b82525050565b60006020820190506120f160008301846120cd565b92915050565b600081519050919050565b600082825260208201905092915050565b600061211e826120f7565b6121288185612102565b9350612138818560208601611d5f565b61214181611d89565b840191505092915050565b600060ff82169050919050565b6121628161214c565b82525050565b600060e0820190508181036000830152612182818a611d9a565b90506121916020830189611e8a565b81810360408301526121a38188612113565b90506121b26060830187612159565b81810360808301526121c48186612113565b905081810360a08301526121d88185612113565b905081810360c08301526121ec8184612113565b905098975050505050505050565b61220381611d0d565b811461220e57600080fd5b50565b600081359050612220816121fa565b92915050565b6000806040838503121561223d5761223c611c7e565b5b600061224b85828601611ecb565b925050602061225c85828601612211565b9150509250929050565b600080fd5b7f4e487b7100000000000000000000000000000000000000000000000000000000600052604160045260246000fd5b6122a382611d89565b810181811067ffffffffffffffff821117156122c2576122c161226b565b5b80604052505050565b60006122d5611c74565b90506122e1828261229a565b919050565b600067ffffffffffffffff8211156123015761230061226b565b5b61230a82611d89565b9050602081019050919050565b82818337600083830152505050565b6000612339612334846122e6565b6122cb565b90508281526020810184848401111561235557612354612266565b5b612360848285612317565b509392505050565b600082601f83011261237d5761237c611f97565b5b813561238d848260208601612326565b91505092915050565b6000602082840312156123ac576123ab611c7e565b5b600082013567ffffffffffffffff8111156123ca576123c9611c83565b5b6123d684828501612368565b91505092915050565b600067ffffffffffffffff8211156123fa576123f961226b565b5b61240382611d89565b9050602081019050919050565b600061242361241e846123df565b6122cb565b90508281526020810184848401111561243f5761243e612266565b5b61244a848285612317565b509392505050565b600082601f83011261246757612466611f97565b5b8135612477848260208601612410565b91505092915050565b6000806000806080858703121561249a57612499611c7e565b5b60006124a887828801611ecb565b94505060206124b987828801611ecb565b93505060406124ca87828801611e16565b925050606085013567ffffffffffffffff8111156124eb576124ea611c83565b5b6124f787828801612452565b91505092959194509250565b6000806040838503121561251a57612519611c7e565b5b600061252885828601611ecb565b925050602061253985828601611ecb565b9150509250929050565b7f4e487b7100000000000000000000000000000000000000000000000000000000600052602260045260246000fd5b6000600282049050600182168061258a57607f821691505b60208210810361259d5761259c612543565b5b50919050565b7f455243373231436c6f6e6561626c653a20617070726f76616c20746f2063757260008201527f72656e74206f776e657200000000000000000000000000000000000000000000602082015250565b60006125ff602a83611d4e565b915061260a826125a3565b604082019050919050565b6000602082019050818103600083015261262e816125f2565b9050919050565b7f455243373231436c6f6e6561626c653a20617070726f76652063616c6c65722060008201527f6973206e6f7420746f6b656e206f776e6572206f7220617070726f766564206660208201527f6f7220616c6c0000000000000000000000000000000000000000000000000000604082015250565b60006126b7604683611d4e565b91506126c282612635565b606082019050919050565b600060208201905081810360008301526126e6816126aa565b9050919050565b7f455243373231436c6f6e6561626c653a2063616c6c6572206973206e6f74207460008201527f6f6b656e206f776e6572206f7220617070726f76656400000000000000000000602082015250565b6000612749603683611d4e565b9150612754826126ed565b604082019050919050565b600060208201905081810360008301526127788161273c565b9050919050565b7f4672616d653a20616c726561647920696e697469616c697a6564000000000000600082015250565b60006127b5601a83611d4e565b91506127c08261277f565b602082019050919050565b600060208201905081810360008301526127e4816127a8565b9050919050565b600080fd5b600080fd5b600080fd5b60008083356001602003843603038112612817576128166127eb565b5b80840192508235915067ffffffffffffffff821115612839576128386127f0565b5b602083019250600182023603831315612855576128546127f5565b5b509250929050565b600082905092915050565b60008190508160005260206000209050919050565b60006020601f8301049050919050565b600082821b905092915050565b6000600883026128ca7fffffffffffffffffffffffffffffffffffffffffffffffffffffffffffffffff8261288d565b6128d4868361288d565b95508019841693508086168417925050509392505050565b6000819050919050565b600061291161290c61290784611df5565b6128ec565b611df5565b9050919050565b6000819050919050565b61292b836128f6565b61293f61293782612918565b84845461289a565b825550505050565b600090565b612954612947565b61295f818484612922565b505050565b5b818110156129835761297860008261294c565b600181019050612965565b5050565b601f8211156129c85761299981612868565b6129a28461287d565b810160208510156129b1578190505b6129c56129bd8561287d565b830182612964565b50505b505050565b600082821c905092915050565b60006129eb600019846008026129cd565b1980831691505092915050565b6000612a0483836129da565b9150826002028217905092915050565b612a1e838361285d565b67ffffffffffffffff811115612a3757612a3661226b565b5b612a418254612572565b612a4c828285612987565b6000601f831160018114612a7b5760008415612a69578287013590505b612a7385826129f8565b865550612adb565b601f198416612a8986612868565b60005b82811015612ab157848901358255600182019150602085019450602081019050612a8c565b86831015612ace5784890135612aca601f8916826129da565b8355505b6001600288020188555050505b50505050505050565b7f4e487b7100000000000000000000000000000000000000000000000000000000600052603260045260246000fd5b60008235600160e003833603038112612b2f57612b2e6127eb565b5b80830191505092915050565b612b46838383612a14565b505050565b60008135612b5881611eb4565b80915050919050565b60008160001b9050919050565b600073ffffffffffffffffffffffffffffffffffffffff612b8e84612b61565b9350801983169250808416831791505092915050565b6000612bbf612bba612bb584611e58565b6128ec565b611e58565b9050919050565b6000612bd182612ba4565b9050919050565b6000612be382612bc6565b9050919050565b6000819050919050565b612bfd82612bd8565b612c10612c0982612bea565b8354612b6e565b8255505050565b60008083356001602003843603038112612c3457612c336127eb565b5b80840192508235915067ffffffffffffffff821115612c5657612c556127f0565b5b602083019250600182023603831315612c7257612c716127f5565b5b509250929050565b600082905092915050565b60008190508160005260206000209050919050565b601f821115612cdb57612cac81612c85565b612cb58461287d565b81016020851015612cc4578190505b612cd8612cd08561287d565b830182612964565b50505b505050565b612cea8383612c7a565b67ffffffffffffffff811115612d0357612d0261226b565b5b612d0d8254612572565b612d18828285612c9a565b6000601f831160018114612d475760008415612d35578287013590505b612d3f85826129f8565b865550612da7565b601f198416612d5586612c85565b60005b82811015612d7d57848901358255600182019150602085019450602081019050612d58565b86831015612d9a5784890135612d96601f8916826129da565b8355505b6001600288020188555050505b50505050505050565b612dbb838383612ce0565b505050565b612dc98161214c565b8114612dd457600080fd5b50565b60008135612de481612dc0565b80915050919050565b600060ff612dfa84612b61565b9350801983169250808416831791505092915050565b6000612e2b612e26612e218461214c565b6128ec565b61214c565b9050919050565b6000819050919050565b612e4582612e10565b612e58612e5182612e32565b8354612ded565b8255505050565b6000810160008301612e7181856127fa565b612e7c818386612b3b565b50505050600181016020830180612e9281612b4b565b9050612e9e8184612bf4565b5050506002810160408301612eb38185612c17565b612ebe818386612db0565b50505050600381016060830180612ed481612dd7565b9050612ee08184612e3c565b5050506004810160808301612ef58185612c17565b612f00818386612db0565b505050506005810160a08301612f168185612c17565b612f21818386612db0565b505050506006810160c08301612f378185612c17565b612f42818386612db0565b505050505050565b612f548282612e5f565b5050565b7f4e487b7100000000000000000000000000000000000000000000000000000000600052601160045260246000fd5b6000612f9282611df5565b91507fffffffffffffffffffffffffffffffffffffffffffffffffffffffffffffffff8203612fc457612fc3612f58565b5b600182019050919050565b7f455243373231436c6f6e6561626c653a20696e76616c696420746f6b656e204960008201527f4400000000000000000000000000000000000000000000000000000000000000602082015250565b600061302b602183611d4e565b915061303682612fcf565b604082019050919050565b6000602082019050818103600083015261305a8161301e565b9050919050565b7f455243373231436c6f6e6561626c653a2061646472657373207a65726f20697360008201527f206e6f7420612076616c6964206f776e65720000000000000000000000000000602082015250565b60006130bd603283611d4e565b91506130c882613061565b604082019050919050565b600060208201905081810360008301526130ec816130b0565b9050919050565b7f455243373231436c6f6e6561626c653a2073796d626f6c20616c72656164792060008201527f7365740000000000000000000000000000000000000000000000000000000000602082015250565b600061314f602383611d4e565b915061315a826130f3565b604082019050919050565b6000602082019050818103600083015261317e81613142565b9050919050565b61318e82611d43565b67ffffffffffffffff8111156131a7576131a661226b565b5b6131b18254612572565b6131bc828285612987565b600060209050601f8311600181146131ef57600084156131dd578287015190505b6131e785826129f8565b86555061324f565b601f1984166131fd86612868565b60005b8281101561322557848901518255600182019150602085019450602081019050613200565b86831015613242578489015161323e601f8916826129da565b8355505b6001600288020188555050505b505050505050565b7f455243373231436c6f6e6561626c653a206e616d6520616c726561647920736560008201527f7400000000000000000000000000000000000000000000000000000000000000602082015250565b60006132b3602183611d4e565b91506132be82613257565b604082019050919050565b600060208201905081810360008301526132e2816132a6565b9050919050565b600081549050919050565b600082825260208201905092915050565b60008190508160005260206000209050919050565b600082825260208201905092915050565b6000815461333881612572565b613342818661331a565b9450600182166000811461335d5760018114613373576133a6565b60ff1983168652811515602002860193506133a6565b61337c85612868565b60005b8381101561339e5781548189015260018201915060208101905061337f565b808801955050505b50505092915050565b60008160001c9050919050565b600073ffffffffffffffffffffffffffffffffffffffff82169050919050565b60006133ef6133ea836133af565b6133bc565b9050919050565b6133ff81611e78565b82525050565b600082825260208201905092915050565b6000815461342381612572565b61342d8186613405565b94506001821660008114613448576001811461345e57613491565b60ff198316865281151560200286019350613491565b61346785612c85565b60005b838110156134895781548189015260018201915060208101905061346a565b808801955050505b50505092915050565b600060ff82169050919050565b60006134ba6134b5836133af565b61349a565b9050919050565b6134ca8161214c565b82525050565b600060e08301600080840185830360008701526134ed838261332b565b92505060018401549050613500816133dc565b61350d60208701826133f6565b506002840185830360408701526135248382613416565b92505060038401549050613537816134a7565b61354460608701826134c1565b5060048401858303608087015261355b8382613416565b9250506005840185830360a08701526135748382613416565b9250506006840185830360c087015261358d8382613416565b925050819250505092915050565b60006135a783836134d0565b905092915050565b6000600782019050919050565b60006135c7826132e9565b6135d181856132f4565b9350836020820285016135e385613305565b8060005b8581101561361e578484038952816135ff858261359b565b945061360a836135af565b925060208a019950506001810190506135e7565b50829750879550505050505092915050565b6000604082019050818103600083015261364a81856135bc565b905061365960208301846120cd565b9392505050565b600061367361366e846123df565b6122cb565b90508281526020810184848401111561368f5761368e612266565b5b61369a848285611d5f565b509392505050565b600082601f8301126136b7576136b6611f97565b5b81516136c7848260208601613660565b91505092915050565b6000602082840312156136e6576136e5611c7e565b5b600082015167ffffffffffffffff81111561370457613703611c83565b5b613710848285016136a2565b91505092915050565b600081905092915050565b7f646174613a6170706c69636174696f6e2f6a736f6e2c2532326e616d6525323260008201527f2533412532320000000000000000000000000000000000000000000000000000602082015250565b6000613780602683613719565b915061378b82613724565b602682019050919050565b600081546137a381612572565b6137ad8186613719565b945060018216600081146137c857600181146137dd57613810565b60ff1983168652811515820286019350613810565b6137e685612868565b60005b83811015613808578154818901526001820191506020810190506137e9565b838801955050505b50505092915050565b7f2532432532326465736372697074696f6e253232253341253232000000000000600082015250565b600061384f601a83613719565b915061385a82613819565b601a82019050919050565b7f253243253232616e696d6174696f6e5f75726c25323225334125323200000000600082015250565b600061389b601c83613719565b91506138a682613865565b601c82019050919050565b600081905092915050565b60006138c7826120f7565b6138d181856138b1565b93506138e1818560208601611d5f565b80840191505092915050565b7f2532322537440000000000000000000000000000000000000000000000000000600082015250565b6000613923600683613719565b915061392e826138ed565b600682019050919050565b600061394482613773565b91506139508286613796565b915061395b82613842565b91506139678285613796565b91506139728261388e565b915061397e82846138bc565b915061398982613916565b9150819050949350505050565b7f455243373231436c6f6e6561626c653a207472616e736665722066726f6d206960008201527f6e636f7272656374206f776e6572000000000000000000000000000000000000602082015250565b60006139f2602e83611d4e565b91506139fd82613996565b604082019050919050565b60006020820190508181036000830152613a21816139e5565b9050919050565b7f455243373231436c6f6e6561626c653a207472616e7366657220746f2074686560008201527f207a65726f206164647265737300000000000000000000000000000000000000602082015250565b6000613a84602d83611d4e565b9150613a8f82613a28565b604082019050919050565b60006020820190508181036000830152613ab381613a77565b9050919050565b7f455243373231436c6f6e6561626c653a20617070726f766520746f2063616c6c60008201527f6572000000000000000000000000000000000000000000000000000000000000602082015250565b6000613b16602283611d4e565b9150613b2182613aba565b604082019050919050565b60006020820190508181036000830152613b4581613b09565b9050919050565b7f455243373231436c6f6e6561626c653a207472616e7366657220746f206e6f6e60008201527f20455243373231526563656976657220696d706c656d656e7465720000000000602082015250565b6000613ba8603b83611d4e565b9150613bb382613b4c565b604082019050919050565b60006020820190508181036000830152613bd781613b9b565b9050919050565b6000613be982611df5565b9150613bf483611df5565b9250828203905081811115613c0c57613c0b612f58565b5b92915050565b6000613c1d82611df5565b9150613c2883611df5565b9250828201905080821115613c4057613c3f612f58565b5b92915050565b6000608082019050613c5b6000830187611e8a565b613c686020830186611e8a565b613c7560408301856120cd565b8181036060830152613c878184612113565b905095945050505050565b600081519050613ca181611cb4565b92915050565b600060208284031215613cbd57613cbc611c7e565b5b6000613ccb84828501613c92565b9150509291505056fea2646970667358221220b29aa00350f5f75e901d01de5b797c8d9b6480423e4ee0db5892dfc4bab1eb1b64736f6c63430008110033",
  "linkReferences": {},
  "deployedLinkReferences": {}
}