{
  "_format": "hh-sol-artifact-1",
  "contractName": "Frame",
  "sourceName": "src/contracts/Frame.sol",
  "abi": [
    {
      "inputs": [],
      "stateMutability": "nonpayable",
      "type": "constructor"
    },
    {
      "anonymous": false,
      "inputs": [
        {
          "indexed": true,
          "internalType": "address",
          "name": "owner",
          "type": "address"
        },
        {
          "indexed": true,
          "internalType": "address",
          "name": "approved",
          "type": "address"
        },
        {
          "indexed": true,
          "internalType": "uint256",
          "name": "tokenId",
          "type": "uint256"
        }
      ],
      "name": "Approval",
      "type": "event"
    },
    {
      "anonymous": false,
      "inputs": [
        {
          "indexed": true,
          "internalType": "address",
          "name": "owner",
          "type": "address"
        },
        {
          "indexed": true,
          "internalType": "address",
          "name": "operator",
          "type": "address"
        },
        {
          "indexed": false,
          "internalType": "bool",
          "name": "approved",
          "type": "bool"
        }
      ],
      "name": "ApprovalForAll",
      "type": "event"
    },
    {
      "anonymous": false,
      "inputs": [
        {
          "indexed": true,
          "internalType": "address",
          "name": "from",
          "type": "address"
        },
        {
          "indexed": true,
          "internalType": "address",
          "name": "to",
          "type": "address"
        },
        {
          "indexed": true,
          "internalType": "uint256",
          "name": "tokenId",
          "type": "uint256"
        }
      ],
      "name": "Transfer",
      "type": "event"
    },
    {
      "inputs": [
        {
          "internalType": "address",
          "name": "to",
          "type": "address"
        },
        {
          "internalType": "uint256",
          "name": "tokenId",
          "type": "uint256"
        }
      ],
      "name": "approve",
      "outputs": [],
      "stateMutability": "nonpayable",
      "type": "function"
    },
    {
      "inputs": [
        {
          "internalType": "address",
          "name": "owner",
          "type": "address"
        }
      ],
      "name": "balanceOf",
      "outputs": [
        {
          "internalType": "uint256",
          "name": "",
          "type": "uint256"
        }
      ],
      "stateMutability": "view",
      "type": "function"
    },
    {
      "inputs": [],
      "name": "bufferSize",
      "outputs": [
        {
          "internalType": "uint256",
          "name": "",
          "type": "uint256"
        }
      ],
      "stateMutability": "view",
      "type": "function"
    },
    {
      "inputs": [
        {
          "internalType": "uint256",
          "name": "tokenId",
          "type": "uint256"
        }
      ],
      "name": "getApproved",
      "outputs": [
        {
          "internalType": "address",
          "name": "",
          "type": "address"
        }
      ],
      "stateMutability": "view",
      "type": "function"
    },
    {
      "inputs": [
        {
          "internalType": "address",
          "name": "owner",
          "type": "address"
        },
        {
          "internalType": "address",
          "name": "operator",
          "type": "address"
        }
      ],
      "name": "isApprovedForAll",
      "outputs": [
        {
          "internalType": "bool",
          "name": "",
          "type": "bool"
        }
      ],
      "stateMutability": "view",
      "type": "function"
    },
    {
      "inputs": [
        {
          "internalType": "uint256",
          "name": "_id",
          "type": "uint256"
        },
        {
          "internalType": "address",
          "name": "_owner",
          "type": "address"
        }
      ],
      "name": "mintIdForOwner",
      "outputs": [],
      "stateMutability": "nonpayable",
      "type": "function"
    },
    {
      "inputs": [],
      "name": "name",
      "outputs": [
        {
          "internalType": "string",
          "name": "",
          "type": "string"
        }
      ],
      "stateMutability": "view",
      "type": "function"
    },
    {
      "inputs": [
        {
          "internalType": "uint256",
          "name": "tokenId",
          "type": "uint256"
        }
      ],
      "name": "ownerOf",
      "outputs": [
        {
          "internalType": "address",
          "name": "",
          "type": "address"
        }
      ],
      "stateMutability": "view",
      "type": "function"
    },
    {
      "inputs": [
        {
          "internalType": "uint256",
          "name": "",
          "type": "uint256"
        }
      ],
      "name": "requests",
      "outputs": [
        {
          "internalType": "string",
          "name": "name",
          "type": "string"
        },
        {
          "internalType": "address",
          "name": "contractAddress",
          "type": "address"
        },
        {
          "internalType": "bytes",
          "name": "contractData",
          "type": "bytes"
        },
        {
          "internalType": "uint8",
          "name": "wrapType",
          "type": "uint8"
        },
        {
          "internalType": "bytes",
          "name": "wrapPrefix",
          "type": "bytes"
        },
        {
          "internalType": "bytes",
          "name": "wrapSuffix",
          "type": "bytes"
        },
        {
          "internalType": "bytes",
          "name": "scriptContent",
          "type": "bytes"
        }
      ],
      "stateMutability": "view",
      "type": "function"
    },
    {
      "inputs": [
        {
          "internalType": "address",
          "name": "from",
          "type": "address"
        },
        {
          "internalType": "address",
          "name": "to",
          "type": "address"
        },
        {
          "internalType": "uint256",
          "name": "tokenId",
          "type": "uint256"
        }
      ],
      "name": "safeTransferFrom",
      "outputs": [],
      "stateMutability": "nonpayable",
      "type": "function"
    },
    {
      "inputs": [
        {
          "internalType": "address",
          "name": "from",
          "type": "address"
        },
        {
          "internalType": "address",
          "name": "to",
          "type": "address"
        },
        {
          "internalType": "uint256",
          "name": "tokenId",
          "type": "uint256"
        },
        {
          "internalType": "bytes",
          "name": "data",
          "type": "bytes"
        }
      ],
      "name": "safeTransferFrom",
      "outputs": [],
      "stateMutability": "nonpayable",
      "type": "function"
    },
    {
      "inputs": [],
      "name": "scriptyBuilderAddress",
      "outputs": [
        {
          "internalType": "address",
          "name": "",
          "type": "address"
        }
      ],
      "stateMutability": "view",
      "type": "function"
    },
    {
      "inputs": [
        {
          "internalType": "address",
          "name": "operator",
          "type": "address"
        },
        {
          "internalType": "bool",
          "name": "approved",
          "type": "bool"
        }
      ],
      "name": "setApprovalForAll",
      "outputs": [],
      "stateMutability": "nonpayable",
      "type": "function"
    },
    {
      "inputs": [
        {
          "internalType": "string",
          "name": "nameString",
          "type": "string"
        }
      ],
      "name": "setName",
      "outputs": [],
      "stateMutability": "nonpayable",
      "type": "function"
    },
    {
      "inputs": [
        {
          "internalType": "address",
          "name": "_scriptyBuilderAddress",
          "type": "address"
        },
        {
          "internalType": "uint256",
          "name": "_bufferSize",
          "type": "uint256"
        },
        {
          "components": [
            {
              "internalType": "string",
              "name": "name",
              "type": "string"
            },
            {
              "internalType": "address",
              "name": "contractAddress",
              "type": "address"
            },
            {
              "internalType": "bytes",
              "name": "contractData",
              "type": "bytes"
            },
            {
              "internalType": "uint8",
              "name": "wrapType",
              "type": "uint8"
            },
            {
              "internalType": "bytes",
              "name": "wrapPrefix",
              "type": "bytes"
            },
            {
              "internalType": "bytes",
              "name": "wrapSuffix",
              "type": "bytes"
            },
            {
              "internalType": "bytes",
              "name": "scriptContent",
              "type": "bytes"
            }
          ],
          "internalType": "struct WrappedScriptRequest[]",
          "name": "_requests",
          "type": "tuple[]"
        }
      ],
      "name": "setParams",
      "outputs": [],
      "stateMutability": "nonpayable",
      "type": "function"
    },
    {
      "inputs": [
        {
          "internalType": "string",
          "name": "symbolString",
          "type": "string"
        }
      ],
      "name": "setSymbol",
      "outputs": [],
      "stateMutability": "nonpayable",
      "type": "function"
    },
    {
      "inputs": [
        {
          "internalType": "bytes4",
          "name": "interfaceId",
          "type": "bytes4"
        }
      ],
      "name": "supportsInterface",
      "outputs": [
        {
          "internalType": "bool",
          "name": "",
          "type": "bool"
        }
      ],
      "stateMutability": "view",
      "type": "function"
    },
    {
      "inputs": [],
      "name": "symbol",
      "outputs": [
        {
          "internalType": "string",
          "name": "",
          "type": "string"
        }
      ],
      "stateMutability": "view",
      "type": "function"
    },
    {
      "inputs": [
        {
          "internalType": "uint256",
          "name": "",
          "type": "uint256"
        }
      ],
      "name": "tokenURI",
      "outputs": [
        {
          "internalType": "string",
          "name": "",
          "type": "string"
        }
      ],
      "stateMutability": "view",
      "type": "function"
    },
    {
      "inputs": [
        {
          "internalType": "address",
          "name": "from",
          "type": "address"
        },
        {
          "internalType": "address",
          "name": "to",
          "type": "address"
        },
        {
          "internalType": "uint256",
          "name": "tokenId",
          "type": "uint256"
        }
      ],
      "name": "transferFrom",
      "outputs": [],
      "stateMutability": "nonpayable",
      "type": "function"
    }
  ],
  "bytecode": "0x608060405234801561001057600080fd5b50613c49806100206000396000f3fe608060405234801561001057600080fd5b506004361061012c5760003560e01c80638ec6e11a116100ad578063b88d4fde11610071578063b88d4fde14610345578063c47f002714610361578063c87b56dd1461037d578063e3b71f87146103ad578063e985e9c5146103cb5761012c565b80638ec6e11a146102b557806395d89b41146102d15780639c2c770b146102ef578063a22cb4651461030d578063b84c8246146103295761012c565b806342842e0e116100f457806342842e0e146101e75780634b7cf049146102035780636352211e1461021f57806370a082311461024f57806381d12c581461027f5761012c565b806301ffc9a71461013157806306fdde0314610161578063081812fc1461017f578063095ea7b3146101af57806323b872dd146101cb575b600080fd5b61014b60048036038101906101469190611dd0565b6103fb565b6040516101589190611e18565b60405180910390f35b6101696104dd565b6040516101769190611ec3565b60405180910390f35b61019960048036038101906101949190611f1b565b61056f565b6040516101a69190611f89565b60405180910390f35b6101c960048036038101906101c49190611fd0565b6105b5565b005b6101e560048036038101906101e09190612010565b6106cc565b005b61020160048036038101906101fc9190612010565b61072c565b005b61021d60048036038101906102189190612063565b61074c565b005b61023960048036038101906102349190611f1b565b61075a565b6040516102469190611f89565b60405180910390f35b610269600480360381019061026491906120a3565b6107e0565b60405161027691906120df565b60405180910390f35b61029960048036038101906102949190611f1b565b610897565b6040516102ac979695949392919061216b565b60405180910390f35b6102cf60048036038101906102ca919061262f565b610bbe565b005b6102d9610d49565b6040516102e69190611ec3565b60405180910390f35b6102f7610ddb565b60405161030491906120df565b60405180910390f35b610327600480360381019061032291906126ca565b610de1565b005b610343600480360381019061033e919061270a565b610df7565b005b61035f600480360381019061035a9190612753565b610e5b565b005b61037b6004803603810190610376919061270a565b610ebd565b005b61039760048036038101906103929190611f1b565b610f20565b6040516103a49190611ec3565b60405180910390f35b6103b5610ff4565b6040516103c29190611f89565b60405180910390f35b6103e560048036038101906103e091906127d6565b61101a565b6040516103f29190611e18565b60405180910390f35b60007ffc9fdaac000000000000000000000000000000000000000000000000000000007bffffffffffffffffffffffffffffffffffffffffffffffffffffffff1916827bffffffffffffffffffffffffffffffffffffffffffffffffffffffff191614806104c657507f5b5e139f000000000000000000000000000000000000000000000000000000007bffffffffffffffffffffffffffffffffffffffffffffffffffffffff1916827bffffffffffffffffffffffffffffffffffffffffffffffffffffffff1916145b806104d657506104d5826110ae565b5b9050919050565b6060600080546104ec90612845565b80601f016020809104026020016040519081016040528092919081815260200182805461051890612845565b80156105655780601f1061053a57610100808354040283529160200191610565565b820191906000526020600020905b81548152906001019060200180831161054857829003601f168201915b5050505050905090565b600061057a82611118565b6004600083815260200190815260200160002060009054906101000a900473ffffffffffffffffffffffffffffffffffffffff169050919050565b60006105c08261075a565b90508073ffffffffffffffffffffffffffffffffffffffff168373ffffffffffffffffffffffffffffffffffffffff1603610630576040517f08c379a0000000000000000000000000000000000000000000000000000000008152600401610627906128e8565b60405180910390fd5b8073ffffffffffffffffffffffffffffffffffffffff1661064f611163565b73ffffffffffffffffffffffffffffffffffffffff16148061067e575061067d81610678611163565b61101a565b5b6106bd576040517f08c379a00000000000000000000000000000000000000000000000000000000081526004016106b4906129a0565b60405180910390fd5b6106c7838361116b565b505050565b6106dd6106d7611163565b82611224565b61071c576040517f08c379a000000000000000000000000000000000000000000000000000000000815260040161071390612a32565b60405180910390fd5b6107278383836112b9565b505050565b61074783838360405180602001604052806000815250610e5b565b505050565b61075681836115b2565b5050565b600080610766836115d0565b9050600073ffffffffffffffffffffffffffffffffffffffff168173ffffffffffffffffffffffffffffffffffffffff16036107d7576040517f08c379a00000000000000000000000000000000000000000000000000000000081526004016107ce90612ac4565b60405180910390fd5b80915050919050565b60008073ffffffffffffffffffffffffffffffffffffffff168273ffffffffffffffffffffffffffffffffffffffff1603610850576040517f08c379a000000000000000000000000000000000000000000000000000000000815260040161084790612b56565b60405180910390fd5b600360008373ffffffffffffffffffffffffffffffffffffffff1673ffffffffffffffffffffffffffffffffffffffff168152602001908152602001600020549050919050565b600881815481106108a757600080fd5b90600052602060002090600702016000915090508060000180546108ca90612845565b80601f01602080910402602001604051908101604052809291908181526020018280546108f690612845565b80156109435780601f1061091857610100808354040283529160200191610943565b820191906000526020600020905b81548152906001019060200180831161092657829003601f168201915b5050505050908060010160009054906101000a900473ffffffffffffffffffffffffffffffffffffffff169080600201805461097e90612845565b80601f01602080910402602001604051908101604052809291908181526020018280546109aa90612845565b80156109f75780601f106109cc576101008083540402835291602001916109f7565b820191906000526020600020905b8154815290600101906020018083116109da57829003601f168201915b5050505050908060030160009054906101000a900460ff1690806004018054610a1f90612845565b80601f0160208091040260200160405190810160405280929190818152602001828054610a4b90612845565b8015610a985780601f10610a6d57610100808354040283529160200191610a98565b820191906000526020600020905b815481529060010190602001808311610a7b57829003601f168201915b505050505090806005018054610aad90612845565b80601f0160208091040260200160405190810160405280929190818152602001828054610ad990612845565b8015610b265780601f10610afb57610100808354040283529160200191610b26565b820191906000526020600020905b815481529060010190602001808311610b0957829003601f168201915b505050505090806006018054610b3b90612845565b80601f0160208091040260200160405190810160405280929190818152602001828054610b6790612845565b8015610bb45780601f10610b8957610100808354040283529160200191610bb4565b820191906000526020600020905b815481529060010190602001808311610b9757829003601f168201915b5050505050905087565b82600660006101000a81548173ffffffffffffffffffffffffffffffffffffffff021916908373ffffffffffffffffffffffffffffffffffffffff1602179055508160078190555060005b8151811015610d43576008828281518110610c2757610c26612b76565b5b602002602001015190806001815401808255809150506001900390600052602060002090600702016000909190919091506000820151816000019081610c6d9190612d51565b5060208201518160010160006101000a81548173ffffffffffffffffffffffffffffffffffffffff021916908373ffffffffffffffffffffffffffffffffffffffff1602179055506040820151816002019081610cca9190612e7e565b5060608201518160030160006101000a81548160ff021916908360ff1602179055506080820151816004019081610d019190612e7e565b5060a0820151816005019081610d179190612e7e565b5060c0820151816006019081610d2d9190612e7e565b5050508080610d3b90612f7f565b915050610c09565b50505050565b606060018054610d5890612845565b80601f0160208091040260200160405190810160405280929190818152602001828054610d8490612845565b8015610dd15780601f10610da657610100808354040283529160200191610dd1565b820191906000526020600020905b815481529060010190602001808311610db457829003601f168201915b5050505050905090565b60075481565b610df3610dec611163565b838361160d565b5050565b600060018054610e0690612845565b905014610e48576040517f08c379a0000000000000000000000000000000000000000000000000000000008152600401610e3f90613039565b60405180910390fd5b8060019081610e579190612d51565b5050565b610e6c610e66611163565b83611224565b610eab576040517f08c379a0000000000000000000000000000000000000000000000000000000008152600401610ea290612a32565b60405180910390fd5b610eb784848484611779565b50505050565b6000808054610ecb90612845565b905014610f0d576040517f08c379a0000000000000000000000000000000000000000000000000000000008152600401610f04906130cb565b60405180910390fd5b8060009081610f1c9190612d51565b5050565b60606000600660009054906101000a900473ffffffffffffffffffffffffffffffffffffffff1673ffffffffffffffffffffffffffffffffffffffff1663b4f7d41e60086007546040518363ffffffff1660e01b8152600401610f84929190613432565b600060405180830381865afa158015610fa1573d6000803e3d6000fd5b505050506040513d6000823e3d601f19601f82011682018060405250810190610fca91906134d2565b905080604051602001610fdd9190613779565b604051602081830303815290604052915050919050565b600660009054906101000a900473ffffffffffffffffffffffffffffffffffffffff1681565b6000600560008473ffffffffffffffffffffffffffffffffffffffff1673ffffffffffffffffffffffffffffffffffffffff16815260200190815260200160002060008373ffffffffffffffffffffffffffffffffffffffff1673ffffffffffffffffffffffffffffffffffffffff16815260200190815260200160002060009054906101000a900460ff16905092915050565b60007f01ffc9a7000000000000000000000000000000000000000000000000000000007bffffffffffffffffffffffffffffffffffffffffffffffffffffffff1916827bffffffffffffffffffffffffffffffffffffffffffffffffffffffff1916149050919050565b611121816117d5565b611160576040517f08c379a000000000000000000000000000000000000000000000000000000000815260040161115790612ac4565b60405180910390fd5b50565b600033905090565b816004600083815260200190815260200160002060006101000a81548173ffffffffffffffffffffffffffffffffffffffff021916908373ffffffffffffffffffffffffffffffffffffffff160217905550808273ffffffffffffffffffffffffffffffffffffffff166111de8361075a565b73ffffffffffffffffffffffffffffffffffffffff167f8c5be1e5ebec7d5bd14f71427d1e84f3dd0314c0f7b2291e5b200ac8c7c3b92560405160405180910390a45050565b6000806112308361075a565b90508073ffffffffffffffffffffffffffffffffffffffff168473ffffffffffffffffffffffffffffffffffffffff1614806112725750611271818561101a565b5b806112b057508373ffffffffffffffffffffffffffffffffffffffff166112988461056f565b73ffffffffffffffffffffffffffffffffffffffff16145b91505092915050565b8273ffffffffffffffffffffffffffffffffffffffff166112d98261075a565b73ffffffffffffffffffffffffffffffffffffffff161461132f576040517f08c379a000000000000000000000000000000000000000000000000000000000815260040161132690613823565b60405180910390fd5b600073ffffffffffffffffffffffffffffffffffffffff168273ffffffffffffffffffffffffffffffffffffffff160361139e576040517f08c379a0000000000000000000000000000000000000000000000000000000008152600401611395906138b5565b60405180910390fd5b6113ab8383836001611816565b8273ffffffffffffffffffffffffffffffffffffffff166113cb8261075a565b73ffffffffffffffffffffffffffffffffffffffff1614611421576040517f08c379a000000000000000000000000000000000000000000000000000000000815260040161141890613823565b60405180910390fd5b6004600082815260200190815260200160002060006101000a81549073ffffffffffffffffffffffffffffffffffffffff02191690556001600360008573ffffffffffffffffffffffffffffffffffffffff1673ffffffffffffffffffffffffffffffffffffffff168152602001908152602001600020600082825403925050819055506001600360008473ffffffffffffffffffffffffffffffffffffffff1673ffffffffffffffffffffffffffffffffffffffff16815260200190815260200160002060008282540192505081905550816002600083815260200190815260200160002060006101000a81548173ffffffffffffffffffffffffffffffffffffffff021916908373ffffffffffffffffffffffffffffffffffffffff160217905550808273ffffffffffffffffffffffffffffffffffffffff168473ffffffffffffffffffffffffffffffffffffffff167fddf252ad1be2c89b69c2b068fc378daa952ba7f163c4a11628f55a4df523b3ef60405160405180910390a46115ad838383600161193c565b505050565b6115cc828260405180602001604052806000815250611942565b5050565b60006002600083815260200190815260200160002060009054906101000a900473ffffffffffffffffffffffffffffffffffffffff169050919050565b8173ffffffffffffffffffffffffffffffffffffffff168373ffffffffffffffffffffffffffffffffffffffff160361167b576040517f08c379a000000000000000000000000000000000000000000000000000000000815260040161167290613947565b60405180910390fd5b80600560008573ffffffffffffffffffffffffffffffffffffffff1673ffffffffffffffffffffffffffffffffffffffff16815260200190815260200160002060008473ffffffffffffffffffffffffffffffffffffffff1673ffffffffffffffffffffffffffffffffffffffff16815260200190815260200160002060006101000a81548160ff0219169083151502179055508173ffffffffffffffffffffffffffffffffffffffff168373ffffffffffffffffffffffffffffffffffffffff167f17307eab39ab6107e8899845ad3d59bd9653f200f220920489ca2b5937696c318360405161176c9190611e18565b60405180910390a3505050565b6117848484846112b9565b6117908484848461199d565b6117cf576040517f08c379a00000000000000000000000000000000000000000000000000000000081526004016117c6906139d9565b60405180910390fd5b50505050565b60008073ffffffffffffffffffffffffffffffffffffffff166117f7836115d0565b73ffffffffffffffffffffffffffffffffffffffff1614159050919050565b600181111561193657600073ffffffffffffffffffffffffffffffffffffffff168473ffffffffffffffffffffffffffffffffffffffff16146118aa5780600360008673ffffffffffffffffffffffffffffffffffffffff1673ffffffffffffffffffffffffffffffffffffffff16815260200190815260200160002060008282546118a291906139f9565b925050819055505b600073ffffffffffffffffffffffffffffffffffffffff168373ffffffffffffffffffffffffffffffffffffffff16146119355780600360008573ffffffffffffffffffffffffffffffffffffffff1673ffffffffffffffffffffffffffffffffffffffff168152602001908152602001600020600082825461192d9190613a2d565b925050819055505b5b50505050565b50505050565b61194c8383611b24565b611959600084848461199d565b611998576040517f08c379a000000000000000000000000000000000000000000000000000000000815260040161198f906139d9565b60405180910390fd5b505050565b60006119be8473ffffffffffffffffffffffffffffffffffffffff16611d41565b15611b17578373ffffffffffffffffffffffffffffffffffffffff1663150b7a026119e7611163565b8786866040518563ffffffff1660e01b8152600401611a099493929190613a61565b6020604051808303816000875af1925050508015611a4557506040513d601f19601f82011682018060405250810190611a429190613ac2565b60015b611ac7573d8060008114611a75576040519150601f19603f3d011682016040523d82523d6000602084013e611a7a565b606091505b506000815103611abf576040517f08c379a0000000000000000000000000000000000000000000000000000000008152600401611ab6906139d9565b60405180910390fd5b805181602001fd5b63150b7a0260e01b7bffffffffffffffffffffffffffffffffffffffffffffffffffffffff1916817bffffffffffffffffffffffffffffffffffffffffffffffffffffffff191614915050611b1c565b600190505b949350505050565b600073ffffffffffffffffffffffffffffffffffffffff168273ffffffffffffffffffffffffffffffffffffffff1603611b93576040517f08c379a0000000000000000000000000000000000000000000000000000000008152600401611b8a90613b61565b60405180910390fd5b611b9c816117d5565b15611bdc576040517f08c379a0000000000000000000000000000000000000000000000000000000008152600401611bd390613bf3565b60405180910390fd5b611bea600083836001611816565b611bf3816117d5565b15611c33576040517f08c379a0000000000000000000000000000000000000000000000000000000008152600401611c2a90613bf3565b60405180910390fd5b6001600360008473ffffffffffffffffffffffffffffffffffffffff1673ffffffffffffffffffffffffffffffffffffffff16815260200190815260200160002060008282540192505081905550816002600083815260200190815260200160002060006101000a81548173ffffffffffffffffffffffffffffffffffffffff021916908373ffffffffffffffffffffffffffffffffffffffff160217905550808273ffffffffffffffffffffffffffffffffffffffff16600073ffffffffffffffffffffffffffffffffffffffff167fddf252ad1be2c89b69c2b068fc378daa952ba7f163c4a11628f55a4df523b3ef60405160405180910390a4611d3d60008383600161193c565b5050565b6000808273ffffffffffffffffffffffffffffffffffffffff163b119050919050565b6000604051905090565b600080fd5b600080fd5b60007fffffffff0000000000000000000000000000000000000000000000000000000082169050919050565b611dad81611d78565b8114611db857600080fd5b50565b600081359050611dca81611da4565b92915050565b600060208284031215611de657611de5611d6e565b5b6000611df484828501611dbb565b91505092915050565b60008115159050919050565b611e1281611dfd565b82525050565b6000602082019050611e2d6000830184611e09565b92915050565b600081519050919050565b600082825260208201905092915050565b60005b83811015611e6d578082015181840152602081019050611e52565b60008484015250505050565b6000601f19601f8301169050919050565b6000611e9582611e33565b611e9f8185611e3e565b9350611eaf818560208601611e4f565b611eb881611e79565b840191505092915050565b60006020820190508181036000830152611edd8184611e8a565b905092915050565b6000819050919050565b611ef881611ee5565b8114611f0357600080fd5b50565b600081359050611f1581611eef565b92915050565b600060208284031215611f3157611f30611d6e565b5b6000611f3f84828501611f06565b91505092915050565b600073ffffffffffffffffffffffffffffffffffffffff82169050919050565b6000611f7382611f48565b9050919050565b611f8381611f68565b82525050565b6000602082019050611f9e6000830184611f7a565b92915050565b611fad81611f68565b8114611fb857600080fd5b50565b600081359050611fca81611fa4565b92915050565b60008060408385031215611fe757611fe6611d6e565b5b6000611ff585828601611fbb565b925050602061200685828601611f06565b9150509250929050565b60008060006060848603121561202957612028611d6e565b5b600061203786828701611fbb565b935050602061204886828701611fbb565b925050604061205986828701611f06565b9150509250925092565b6000806040838503121561207a57612079611d6e565b5b600061208885828601611f06565b925050602061209985828601611fbb565b9150509250929050565b6000602082840312156120b9576120b8611d6e565b5b60006120c784828501611fbb565b91505092915050565b6120d981611ee5565b82525050565b60006020820190506120f460008301846120d0565b92915050565b600081519050919050565b600082825260208201905092915050565b6000612121826120fa565b61212b8185612105565b935061213b818560208601611e4f565b61214481611e79565b840191505092915050565b600060ff82169050919050565b6121658161214f565b82525050565b600060e0820190508181036000830152612185818a611e8a565b90506121946020830189611f7a565b81810360408301526121a68188612116565b90506121b5606083018761215c565b81810360808301526121c78186612116565b905081810360a08301526121db8185612116565b905081810360c08301526121ef8184612116565b905098975050505050505050565b600080fd5b7f4e487b7100000000000000000000000000000000000000000000000000000000600052604160045260246000fd5b61223a82611e79565b810181811067ffffffffffffffff8211171561225957612258612202565b5b80604052505050565b600061226c611d64565b90506122788282612231565b919050565b600067ffffffffffffffff82111561229857612297612202565b5b602082029050602081019050919050565b600080fd5b600080fd5b600080fd5b600080fd5b600067ffffffffffffffff8211156122d8576122d7612202565b5b6122e182611e79565b9050602081019050919050565b82818337600083830152505050565b600061231061230b846122bd565b612262565b90508281526020810184848401111561232c5761232b6122b8565b5b6123378482856122ee565b509392505050565b600082601f830112612354576123536121fd565b5b81356123648482602086016122fd565b91505092915050565b600067ffffffffffffffff82111561238857612387612202565b5b61239182611e79565b9050602081019050919050565b60006123b16123ac8461236d565b612262565b9050828152602081018484840111156123cd576123cc6122b8565b5b6123d88482856122ee565b509392505050565b600082601f8301126123f5576123f46121fd565b5b813561240584826020860161239e565b91505092915050565b6124178161214f565b811461242257600080fd5b50565b6000813590506124348161240e565b92915050565b600060e082840312156124505761244f6122ae565b5b61245a60e0612262565b9050600082013567ffffffffffffffff81111561247a576124796122b3565b5b6124868482850161233f565b600083015250602061249a84828501611fbb565b602083015250604082013567ffffffffffffffff8111156124be576124bd6122b3565b5b6124ca848285016123e0565b60408301525060606124de84828501612425565b606083015250608082013567ffffffffffffffff811115612502576125016122b3565b5b61250e848285016123e0565b60808301525060a082013567ffffffffffffffff811115612532576125316122b3565b5b61253e848285016123e0565b60a08301525060c082013567ffffffffffffffff811115612562576125616122b3565b5b61256e848285016123e0565b60c08301525092915050565b600061258d6125888461227d565b612262565b905080838252602082019050602084028301858111156125b0576125af6122a9565b5b835b818110156125f757803567ffffffffffffffff8111156125d5576125d46121fd565b5b8086016125e2898261243a565b855260208501945050506020810190506125b2565b5050509392505050565b600082601f830112612616576126156121fd565b5b813561262684826020860161257a565b91505092915050565b60008060006060848603121561264857612647611d6e565b5b600061265686828701611fbb565b935050602061266786828701611f06565b925050604084013567ffffffffffffffff81111561268857612687611d73565b5b61269486828701612601565b9150509250925092565b6126a781611dfd565b81146126b257600080fd5b50565b6000813590506126c48161269e565b92915050565b600080604083850312156126e1576126e0611d6e565b5b60006126ef85828601611fbb565b9250506020612700858286016126b5565b9150509250929050565b6000602082840312156127205761271f611d6e565b5b600082013567ffffffffffffffff81111561273e5761273d611d73565b5b61274a8482850161233f565b91505092915050565b6000806000806080858703121561276d5761276c611d6e565b5b600061277b87828801611fbb565b945050602061278c87828801611fbb565b935050604061279d87828801611f06565b925050606085013567ffffffffffffffff8111156127be576127bd611d73565b5b6127ca878288016123e0565b91505092959194509250565b600080604083850312156127ed576127ec611d6e565b5b60006127fb85828601611fbb565b925050602061280c85828601611fbb565b9150509250929050565b7f4e487b7100000000000000000000000000000000000000000000000000000000600052602260045260246000fd5b6000600282049050600182168061285d57607f821691505b6020821081036128705761286f612816565b5b50919050565b7f455243373231436c6f6e6561626c653a20617070726f76616c20746f2063757260008201527f72656e74206f776e657200000000000000000000000000000000000000000000602082015250565b60006128d2602a83611e3e565b91506128dd82612876565b604082019050919050565b60006020820190508181036000830152612901816128c5565b9050919050565b7f455243373231436c6f6e6561626c653a20617070726f76652063616c6c65722060008201527f6973206e6f7420746f6b656e206f776e6572206f7220617070726f766564206660208201527f6f7220616c6c0000000000000000000000000000000000000000000000000000604082015250565b600061298a604683611e3e565b915061299582612908565b606082019050919050565b600060208201905081810360008301526129b98161297d565b9050919050565b7f455243373231436c6f6e6561626c653a2063616c6c6572206973206e6f74207460008201527f6f6b656e206f776e6572206f7220617070726f76656400000000000000000000602082015250565b6000612a1c603683611e3e565b9150612a27826129c0565b604082019050919050565b60006020820190508181036000830152612a4b81612a0f565b9050919050565b7f455243373231436c6f6e6561626c653a20696e76616c696420746f6b656e204960008201527f4400000000000000000000000000000000000000000000000000000000000000602082015250565b6000612aae602183611e3e565b9150612ab982612a52565b604082019050919050565b60006020820190508181036000830152612add81612aa1565b9050919050565b7f455243373231436c6f6e6561626c653a2061646472657373207a65726f20697360008201527f206e6f7420612076616c6964206f776e65720000000000000000000000000000602082015250565b6000612b40603283611e3e565b9150612b4b82612ae4565b604082019050919050565b60006020820190508181036000830152612b6f81612b33565b9050919050565b7f4e487b7100000000000000000000000000000000000000000000000000000000600052603260045260246000fd5b60008190508160005260206000209050919050565b60006020601f8301049050919050565b600082821b905092915050565b600060088302612c077fffffffffffffffffffffffffffffffffffffffffffffffffffffffffffffffff82612bca565b612c118683612bca565b95508019841693508086168417925050509392505050565b6000819050919050565b6000612c4e612c49612c4484611ee5565b612c29565b611ee5565b9050919050565b6000819050919050565b612c6883612c33565b612c7c612c7482612c55565b848454612bd7565b825550505050565b600090565b612c91612c84565b612c9c818484612c5f565b505050565b5b81811015612cc057612cb5600082612c89565b600181019050612ca2565b5050565b601f821115612d0557612cd681612ba5565b612cdf84612bba565b81016020851015612cee578190505b612d02612cfa85612bba565b830182612ca1565b50505b505050565b600082821c905092915050565b6000612d2860001984600802612d0a565b1980831691505092915050565b6000612d418383612d17565b9150826002028217905092915050565b612d5a82611e33565b67ffffffffffffffff811115612d7357612d72612202565b5b612d7d8254612845565b612d88828285612cc4565b600060209050601f831160018114612dbb5760008415612da9578287015190505b612db38582612d35565b865550612e1b565b601f198416612dc986612ba5565b60005b82811015612df157848901518255600182019150602085019450602081019050612dcc565b86831015612e0e5784890151612e0a601f891682612d17565b8355505b6001600288020188555050505b505050505050565b60008190508160005260206000209050919050565b601f821115612e7957612e4a81612e23565b612e5384612bba565b81016020851015612e62578190505b612e76612e6e85612bba565b830182612ca1565b50505b505050565b612e87826120fa565b67ffffffffffffffff811115612ea057612e9f612202565b5b612eaa8254612845565b612eb5828285612e38565b600060209050601f831160018114612ee85760008415612ed6578287015190505b612ee08582612d35565b865550612f48565b601f198416612ef686612e23565b60005b82811015612f1e57848901518255600182019150602085019450602081019050612ef9565b86831015612f3b5784890151612f37601f891682612d17565b8355505b6001600288020188555050505b505050505050565b7f4e487b7100000000000000000000000000000000000000000000000000000000600052601160045260246000fd5b6000612f8a82611ee5565b91507fffffffffffffffffffffffffffffffffffffffffffffffffffffffffffffffff8203612fbc57612fbb612f50565b5b600182019050919050565b7f455243373231436c6f6e6561626c653a2073796d626f6c20616c72656164792060008201527f7365740000000000000000000000000000000000000000000000000000000000602082015250565b6000613023602383611e3e565b915061302e82612fc7565b604082019050919050565b6000602082019050818103600083015261305281613016565b9050919050565b7f455243373231436c6f6e6561626c653a206e616d6520616c726561647920736560008201527f7400000000000000000000000000000000000000000000000000000000000000602082015250565b60006130b5602183611e3e565b91506130c082613059565b604082019050919050565b600060208201905081810360008301526130e4816130a8565b9050919050565b600081549050919050565b600082825260208201905092915050565b60008190508160005260206000209050919050565b600082825260208201905092915050565b6000815461313a81612845565b613144818661311c565b9450600182166000811461315f5760018114613175576131a8565b60ff1983168652811515602002860193506131a8565b61317e85612ba5565b60005b838110156131a057815481890152600182019150602081019050613181565b808801955050505b50505092915050565b60008160001c9050919050565b600073ffffffffffffffffffffffffffffffffffffffff82169050919050565b60006131f16131ec836131b1565b6131be565b9050919050565b61320181611f68565b82525050565b600082825260208201905092915050565b6000815461322581612845565b61322f8186613207565b9450600182166000811461324a576001811461326057613293565b60ff198316865281151560200286019350613293565b61326985612e23565b60005b8381101561328b5781548189015260018201915060208101905061326c565b808801955050505b50505092915050565b600060ff82169050919050565b60006132bc6132b7836131b1565b61329c565b9050919050565b6132cc8161214f565b82525050565b600060e08301600080840185830360008701526132ef838261312d565b92505060018401549050613302816131de565b61330f60208701826131f8565b506002840185830360408701526133268382613218565b92505060038401549050613339816132a9565b61334660608701826132c3565b5060048401858303608087015261335d8382613218565b9250506005840185830360a08701526133768382613218565b9250506006840185830360c087015261338f8382613218565b925050819250505092915050565b60006133a983836132d2565b905092915050565b6000600782019050919050565b60006133c9826130eb565b6133d381856130f6565b9350836020820285016133e585613107565b8060005b8581101561342057848403895281613401858261339d565b945061340c836133b1565b925060208a019950506001810190506133e9565b50829750879550505050505092915050565b6000604082019050818103600083015261344c81856133be565b905061345b60208301846120d0565b9392505050565b60006134756134708461236d565b612262565b905082815260208101848484011115613491576134906122b8565b5b61349c848285611e4f565b509392505050565b600082601f8301126134b9576134b86121fd565b5b81516134c9848260208601613462565b91505092915050565b6000602082840312156134e8576134e7611d6e565b5b600082015167ffffffffffffffff81111561350657613505611d73565b5b613512848285016134a4565b91505092915050565b600081905092915050565b7f646174613a6170706c69636174696f6e2f6a736f6e2c00000000000000000000600082015250565b600061355c60168361351b565b915061356782613526565b601682019050919050565b7f2537422532326e616d652532322533412532324375626533442532302d25323060008201527f475a4950253230436f6d707265737365642532302d25323055524c253230536160208201527f66652532322532432532302532326465736372697074696f6e2532322533412560408201527f3232417373656d626c6573253230475a4950253230636f6d707265737365642560608201527f3230626173653634253230656e636f64656425323074687265652e6a7325323060808201527f776974682532306125323064656d6f2532307363656e652e2532304d6574616460a08201527f617461253230616e64253230616e696d6174696f6e25323055524c253230617260c08201527f65253230626f746825323055524c253230656e636f6465642e2532322532432560e08201527f3232616e696d6174696f6e5f75726c253232253341253232000000000000000061010082015250565b60006136da6101188361351b565b91506136e582613572565b61011882019050919050565b600081905092915050565b6000613707826120fa565b61371181856136f1565b9350613721818560208601611e4f565b80840191505092915050565b7f2532322537440000000000000000000000000000000000000000000000000000600082015250565b600061376360068361351b565b915061376e8261372d565b600682019050919050565b60006137848261354f565b915061378f826136cc565b915061379b82846136fc565b91506137a682613756565b915081905092915050565b7f455243373231436c6f6e6561626c653a207472616e736665722066726f6d206960008201527f6e636f7272656374206f776e6572000000000000000000000000000000000000602082015250565b600061380d602e83611e3e565b9150613818826137b1565b604082019050919050565b6000602082019050818103600083015261383c81613800565b9050919050565b7f455243373231436c6f6e6561626c653a207472616e7366657220746f2074686560008201527f207a65726f206164647265737300000000000000000000000000000000000000602082015250565b600061389f602d83611e3e565b91506138aa82613843565b604082019050919050565b600060208201905081810360008301526138ce81613892565b9050919050565b7f455243373231436c6f6e6561626c653a20617070726f766520746f2063616c6c60008201527f6572000000000000000000000000000000000000000000000000000000000000602082015250565b6000613931602283611e3e565b915061393c826138d5565b604082019050919050565b6000602082019050818103600083015261396081613924565b9050919050565b7f455243373231436c6f6e6561626c653a207472616e7366657220746f206e6f6e60008201527f20455243373231526563656976657220696d706c656d656e7465720000000000602082015250565b60006139c3603b83611e3e565b91506139ce82613967565b604082019050919050565b600060208201905081810360008301526139f2816139b6565b9050919050565b6000613a0482611ee5565b9150613a0f83611ee5565b9250828203905081811115613a2757613a26612f50565b5b92915050565b6000613a3882611ee5565b9150613a4383611ee5565b9250828201905080821115613a5b57613a5a612f50565b5b92915050565b6000608082019050613a766000830187611f7a565b613a836020830186611f7a565b613a9060408301856120d0565b8181036060830152613aa28184612116565b905095945050505050565b600081519050613abc81611da4565b92915050565b600060208284031215613ad857613ad7611d6e565b5b6000613ae684828501613aad565b91505092915050565b7f455243373231436c6f6e6561626c653a206d696e7420746f20746865207a657260008201527f6f20616464726573730000000000000000000000000000000000000000000000602082015250565b6000613b4b602983611e3e565b9150613b5682613aef565b604082019050919050565b60006020820190508181036000830152613b7a81613b3e565b9050919050565b7f455243373231436c6f6e6561626c653a20746f6b656e20616c7265616479206d60008201527f696e746564000000000000000000000000000000000000000000000000000000602082015250565b6000613bdd602583611e3e565b9150613be882613b81565b604082019050919050565b60006020820190508181036000830152613c0c81613bd0565b905091905056fea26469706673582212201d8672d66d3e2744ceb15ece37cde3cd82c684f5ece56f1292551b73ddad2f2264736f6c63430008110033",
  "linkReferences": {},
  "deployedLinkReferences": {}
}