{
  "_format": "hh-sol-artifact-1",
  "contractName": "ContractDataStorage",
  "sourceName": "src/services/chain-sim/contracts/ContractDataStorage.sol",
  "abi": [
    {
      "inputs": [],
      "stateMutability": "nonpayable",
      "type": "constructor"
    },
    {
      "inputs": [
        {
          "internalType": "string",
          "name": "_key",
          "type": "string"
        },
        {
          "internalType": "uint256",
          "name": "_startPage",
          "type": "uint256"
        },
        {
          "internalType": "uint256",
          "name": "_endPage",
          "type": "uint256"
        }
      ],
      "name": "getData",
      "outputs": [
        {
          "internalType": "bytes",
          "name": "",
          "type": "bytes"
        }
      ],
      "stateMutability": "view",
      "type": "function"
    },
    {
      "inputs": [
        {
          "internalType": "string[]",
          "name": "_keys",
          "type": "string[]"
        }
      ],
      "name": "getDataForAll",
      "outputs": [
        {
          "internalType": "bytes",
          "name": "",
          "type": "bytes"
        }
      ],
      "stateMutability": "view",
      "type": "function"
    },
    {
      "inputs": [
        {
          "internalType": "string",
          "name": "_key",
          "type": "string"
        }
      ],
      "name": "getMaxPageNumber",
      "outputs": [
        {
          "internalType": "uint256",
          "name": "",
          "type": "uint256"
        }
      ],
      "stateMutability": "view",
      "type": "function"
    },
    {
      "inputs": [
        {
          "internalType": "string",
          "name": "_key",
          "type": "string"
        },
        {
          "internalType": "uint256",
          "name": "_startPage",
          "type": "uint256"
        },
        {
          "internalType": "uint256",
          "name": "_endPage",
          "type": "uint256"
        }
      ],
      "name": "getSizeBetweenPages",
      "outputs": [
        {
          "internalType": "uint256",
          "name": "",
          "type": "uint256"
        }
      ],
      "stateMutability": "view",
      "type": "function"
    },
    {
      "inputs": [
        {
          "internalType": "string",
          "name": "_key",
          "type": "string"
        }
      ],
      "name": "getSizeOfPages",
      "outputs": [
        {
          "internalType": "uint256",
          "name": "",
          "type": "uint256"
        }
      ],
      "stateMutability": "view",
      "type": "function"
    },
    {
      "inputs": [
        {
          "internalType": "string",
          "name": "_key",
          "type": "string"
        },
        {
          "internalType": "uint256",
          "name": "_endPage",
          "type": "uint256"
        }
      ],
      "name": "getSizeUpToPage",
      "outputs": [
        {
          "internalType": "uint256",
          "name": "",
          "type": "uint256"
        }
      ],
      "stateMutability": "view",
      "type": "function"
    },
    {
      "inputs": [
        {
          "internalType": "string",
          "name": "_key",
          "type": "string"
        }
      ],
      "name": "hasKey",
      "outputs": [
        {
          "internalType": "bool",
          "name": "",
          "type": "bool"
        }
      ],
      "stateMutability": "view",
      "type": "function"
    },
    {
      "inputs": [
        {
          "internalType": "string",
          "name": "_key",
          "type": "string"
        }
      ],
      "name": "revokeContractData",
      "outputs": [],
      "stateMutability": "nonpayable",
      "type": "function"
    },
    {
      "inputs": [
        {
          "internalType": "string",
          "name": "_key",
          "type": "string"
        },
        {
          "internalType": "uint128",
          "name": "_pageNumber",
          "type": "uint128"
        },
        {
          "internalType": "bytes",
          "name": "_b",
          "type": "bytes"
        }
      ],
      "name": "saveData",
      "outputs": [],
      "stateMutability": "nonpayable",
      "type": "function"
    },
    {
      "inputs": [
        {
          "internalType": "string",
          "name": "_key",
          "type": "string"
        },
        {
          "internalType": "uint256",
          "name": "_pageNumber",
          "type": "uint256"
        },
        {
          "internalType": "address",
          "name": "dataContract",
          "type": "address"
        },
        {
          "internalType": "uint128",
          "name": "_size",
          "type": "uint128"
        },
        {
          "internalType": "uint128",
          "name": "_offset",
          "type": "uint128"
        }
      ],
      "name": "saveDataForDeployedContract",
      "outputs": [],
      "stateMutability": "nonpayable",
      "type": "function"
    }
  ],
  "bytecode": "0x608060405234801561001057600080fd5b506115fb806100206000396000f3fe608060405234801561001057600080fd5b506004361061009e5760003560e01c80637b5493cb116100665780637b5493cb1461017f578063860536c2146101af578063c486a53b146101df578063d431a42f146101fb578063f16e95b51461022b5761009e565b80630854ddcf146100a357806311aa4cba146100d3578063208a43d314610103578063332d3780146101335780636af42a8c14610163575b600080fd5b6100bd60048036038101906100b89190610e61565b610247565b6040516100ca9190610f32565b60405180910390f35b6100ed60048036038101906100e89190610f8a565b610443565b6040516100fa9190610f32565b60405180910390f35b61011d60048036038101906101189190610f8a565b6105f2565b60405161012a9190611008565b60405180910390f35b61014d60048036038101906101489190611023565b610697565b60405161015a9190611087565b60405180910390f35b61017d6004803603810190610178919061118b565b6106ce565b005b61019960048036038101906101949190611023565b6108e4565b6040516101a69190611008565b60405180910390f35b6101c960048036038101906101c49190611216565b610988565b6040516101d69190611008565b60405180910390f35b6101f960048036038101906101f491906112d0565b610a29565b005b61021560048036038101906102109190611023565b610bb7565b6040516102229190611008565b60405180910390f35b61024560048036038101906102409190611023565b610be1565b005b60606000805b83518110156102995761027984828151811061026c5761026b611367565b5b60200260200101516108e4565b8261028491906113c5565b915080806102919061141b565b91505061024d565b5060008167ffffffffffffffff8111156102b6576102b5610c4b565b5b6040519080825280601f01601f1916602001820160405280156102e85781602001600182028036833780820191505090505b50905060006020905060005b85518110156104375760008087838151811061031357610312611367565b5b602002602001015160405161032891906114ab565b9081526020016040518091039020905060005b81600001548111610422576000826002016000838152602001908152602001600020905060008160000160009054906101000a900473ffffffffffffffffffffffffffffffffffffffff16905060008260010160009054906101000a90046fffffffffffffffffffffffffffffffff166fffffffffffffffffffffffffffffffff16905060008360010160109054906101000a90046fffffffffffffffffffffffffffffffff166fffffffffffffffffffffffffffffffff1690508181898b01853c818861040991906113c5565b975050505050808061041a9061141b565b91505061033b565b5050808061042f9061141b565b9150506102f4565b50819350505050919050565b6060600080831161045c57610457856108e4565b610468565b6104678585856105f2565b5b905060008167ffffffffffffffff81111561048657610485610c4b565b5b6040519080825280601f01601f1916602001820160405280156104b85781602001600182028036833780820191505090505b509050600080876040516104cc91906114ab565b9081526020016040518091039020905060008086116104ef5781600001546104f1565b855b905060006020905060008890505b8281116105e2576000846002016000838152602001908152602001600020905060008160000160009054906101000a900473ffffffffffffffffffffffffffffffffffffffff16905060008260010160009054906101000a90046fffffffffffffffffffffffffffffffff166fffffffffffffffffffffffffffffffff16905060008360010160109054906101000a90046fffffffffffffffffffffffffffffffff166fffffffffffffffffffffffffffffffff1690508181878b01853c81866105c991906113c5565b95505050505080806105da9061141b565b9150506104ff565b5083955050505050509392505050565b60008060008560405161060591906114ab565b908152602001604051809103902090506000808590505b84811161068a5782600201600082815260200190815260200160002060010160009054906101000a90046fffffffffffffffffffffffffffffffff166fffffffffffffffffffffffffffffffff168261067591906113c5565b915080806106829061141b565b91505061061c565b5080925050509392505050565b600080826040516106a891906114ab565b908152602001604051809103902060010160009054906101000a900460ff169050919050565b616000815110610713576040517f08c379a000000000000000000000000000000000000000000000000000000000815260040161070a90611545565b60405180910390fd5b60006040518060400160405280600e81526020017f610000600e6000396100006000f300000000000000000000000000000000000081525090506000825160f81b9050600060088451901c60f81b9050818360028151811061077857610777611367565b5b60200101907effffffffffffffffffffffffffffffffffffffffffffffffffffffffffffff1916908160001a90535080836001815181106107bc576107bb611367565b5b60200101907effffffffffffffffffffffffffffffffffffffffffffffffffffffffffffff1916908160001a9053508183600a81518110610800576107ff611367565b5b60200101907effffffffffffffffffffffffffffffffffffffffffffffffffffffffffffff1916908160001a905350808360098151811061084457610843611367565b5b60200101907effffffffffffffffffffffffffffffffffffffffffffffffffffffffffffff1916908160001a905350600083856040516020016108889291906115a1565b604051602081830303815290604052905060008151602083016000f0905060008114156108b9573d6000803e3d6000fd5b6108da88886fffffffffffffffffffffffffffffffff168389516000610a29565b5050505050505050565b6000806000836040516108f791906114ab565b908152602001604051809103902090506000805b8260000154811161097d5782600201600082815260200190815260200160002060010160009054906101000a90046fffffffffffffffffffffffffffffffff166fffffffffffffffffffffffffffffffff168261096891906113c5565b915080806109759061141b565b91505061090b565b508092505050919050565b60008060008460405161099b91906114ab565b908152602001604051809103902090506000805b848111610a1d5782600201600082815260200190815260200160002060010160009054906101000a90046fffffffffffffffffffffffffffffffff166fffffffffffffffffffffffffffffffff1682610a0891906113c5565b91508080610a159061141b565b9150506109af565b50809250505092915050565b60008086604051610a3a91906114ab565b908152602001604051809103902090508481600001541015610a60578481600001819055505b60018160010160006101000a81548160ff02191690831515021790555060405180606001604052808573ffffffffffffffffffffffffffffffffffffffff168152602001846fffffffffffffffffffffffffffffffff168152602001836fffffffffffffffffffffffffffffffff1681525081600201600087815260200190815260200160002060008201518160000160006101000a81548173ffffffffffffffffffffffffffffffffffffffff021916908373ffffffffffffffffffffffffffffffffffffffff16021790555060208201518160010160006101000a8154816fffffffffffffffffffffffffffffffff02191690836fffffffffffffffffffffffffffffffff16021790555060408201518160010160106101000a8154816fffffffffffffffffffffffffffffffff02191690836fffffffffffffffffffffffffffffffff160217905550905050505050505050565b60008082604051610bc891906114ab565b9081526020016040518091039020600001549050919050565b600081604051610bf191906114ab565b90815260200160405180910390206000808201600090556001820160006101000a81549060ff0219169055505050565b6000604051905090565b600080fd5b600080fd5b600080fd5b6000601f19601f8301169050919050565b7f4e487b7100000000000000000000000000000000000000000000000000000000600052604160045260246000fd5b610c8382610c3a565b810181811067ffffffffffffffff82111715610ca257610ca1610c4b565b5b80604052505050565b6000610cb5610c21565b9050610cc18282610c7a565b919050565b600067ffffffffffffffff821115610ce157610ce0610c4b565b5b602082029050602081019050919050565b600080fd5b600080fd5b600067ffffffffffffffff821115610d1757610d16610c4b565b5b610d2082610c3a565b9050602081019050919050565b82818337600083830152505050565b6000610d4f610d4a84610cfc565b610cab565b905082815260208101848484011115610d6b57610d6a610cf7565b5b610d76848285610d2d565b509392505050565b600082601f830112610d9357610d92610c35565b5b8135610da3848260208601610d3c565b91505092915050565b6000610dbf610dba84610cc6565b610cab565b90508083825260208201905060208402830185811115610de257610de1610cf2565b5b835b81811015610e2957803567ffffffffffffffff811115610e0757610e06610c35565b5b808601610e148982610d7e565b85526020850194505050602081019050610de4565b5050509392505050565b600082601f830112610e4857610e47610c35565b5b8135610e58848260208601610dac565b91505092915050565b600060208284031215610e7757610e76610c2b565b5b600082013567ffffffffffffffff811115610e9557610e94610c30565b5b610ea184828501610e33565b91505092915050565b600081519050919050565b600082825260208201905092915050565b60005b83811015610ee4578082015181840152602081019050610ec9565b83811115610ef3576000848401525b50505050565b6000610f0482610eaa565b610f0e8185610eb5565b9350610f1e818560208601610ec6565b610f2781610c3a565b840191505092915050565b60006020820190508181036000830152610f4c8184610ef9565b905092915050565b6000819050919050565b610f6781610f54565b8114610f7257600080fd5b50565b600081359050610f8481610f5e565b92915050565b600080600060608486031215610fa357610fa2610c2b565b5b600084013567ffffffffffffffff811115610fc157610fc0610c30565b5b610fcd86828701610d7e565b9350506020610fde86828701610f75565b9250506040610fef86828701610f75565b9150509250925092565b61100281610f54565b82525050565b600060208201905061101d6000830184610ff9565b92915050565b60006020828403121561103957611038610c2b565b5b600082013567ffffffffffffffff81111561105757611056610c30565b5b61106384828501610d7e565b91505092915050565b60008115159050919050565b6110818161106c565b82525050565b600060208201905061109c6000830184611078565b92915050565b60006fffffffffffffffffffffffffffffffff82169050919050565b6110c7816110a2565b81146110d257600080fd5b50565b6000813590506110e4816110be565b92915050565b600067ffffffffffffffff82111561110557611104610c4b565b5b61110e82610c3a565b9050602081019050919050565b600061112e611129846110ea565b610cab565b90508281526020810184848401111561114a57611149610cf7565b5b611155848285610d2d565b509392505050565b600082601f83011261117257611171610c35565b5b813561118284826020860161111b565b91505092915050565b6000806000606084860312156111a4576111a3610c2b565b5b600084013567ffffffffffffffff8111156111c2576111c1610c30565b5b6111ce86828701610d7e565b93505060206111df868287016110d5565b925050604084013567ffffffffffffffff811115611200576111ff610c30565b5b61120c8682870161115d565b9150509250925092565b6000806040838503121561122d5761122c610c2b565b5b600083013567ffffffffffffffff81111561124b5761124a610c30565b5b61125785828601610d7e565b925050602061126885828601610f75565b9150509250929050565b600073ffffffffffffffffffffffffffffffffffffffff82169050919050565b600061129d82611272565b9050919050565b6112ad81611292565b81146112b857600080fd5b50565b6000813590506112ca816112a4565b92915050565b600080600080600060a086880312156112ec576112eb610c2b565b5b600086013567ffffffffffffffff81111561130a57611309610c30565b5b61131688828901610d7e565b955050602061132788828901610f75565b9450506040611338888289016112bb565b9350506060611349888289016110d5565b925050608061135a888289016110d5565b9150509295509295909350565b7f4e487b7100000000000000000000000000000000000000000000000000000000600052603260045260246000fd5b7f4e487b7100000000000000000000000000000000000000000000000000000000600052601160045260246000fd5b60006113d082610f54565b91506113db83610f54565b9250827fffffffffffffffffffffffffffffffffffffffffffffffffffffffffffffffff038211156114105761140f611396565b5b828201905092915050565b600061142682610f54565b91507fffffffffffffffffffffffffffffffffffffffffffffffffffffffffffffffff82141561145957611458611396565b5b600182019050919050565b600081519050919050565b600081905092915050565b600061148582611464565b61148f818561146f565b935061149f818560208601610ec6565b80840191505092915050565b60006114b7828461147a565b915081905092915050565b600082825260208201905092915050565b7f53766753746f726167653a2045786365656465642032342c353736206279746560008201527f73206d617820636f6e74726163742073697a6500000000000000000000000000602082015250565b600061152f6033836114c2565b915061153a826114d3565b604082019050919050565b6000602082019050818103600083015261155e81611522565b9050919050565b600081905092915050565b600061157b82610eaa565b6115858185611565565b9350611595818560208601610ec6565b80840191505092915050565b60006115ad8285611570565b91506115b98284611570565b9150819050939250505056fea2646970667358221220c729fae65d56f2120602891dc46baf0088dc0a24df09518e4b069b810452859564736f6c634300080c0033",
  "linkReferences": {},
  "deployedLinkReferences": {}
}