{
  "_format": "hh-sol-artifact-1",
  "contractName": "ScriptyStorage",
  "sourceName": "src/contracts/libs/scripty/ScriptyStorage.sol",
  "abi": [
    {
      "inputs": [
        {
          "internalType": "address",
          "name": "_contentStoreAddress",
          "type": "address"
        }
      ],
      "stateMutability": "nonpayable",
      "type": "constructor"
    },
    {
      "inputs": [],
      "name": "NotScriptOwner",
      "type": "error"
    },
    {
      "inputs": [],
      "name": "ScriptExists",
      "type": "error"
    },
    {
      "anonymous": false,
      "inputs": [
        {
          "indexed": true,
          "internalType": "string",
          "name": "name",
          "type": "string"
        },
        {
          "indexed": false,
          "internalType": "uint256",
          "name": "size",
          "type": "uint256"
        }
      ],
      "name": "ChunkStored",
      "type": "event"
    },
    {
      "anonymous": false,
      "inputs": [
        {
          "indexed": true,
          "internalType": "address",
          "name": "previousOwner",
          "type": "address"
        },
        {
          "indexed": true,
          "internalType": "address",
          "name": "newOwner",
          "type": "address"
        }
      ],
      "name": "OwnershipTransferred",
      "type": "event"
    },
    {
      "anonymous": false,
      "inputs": [
        {
          "indexed": true,
          "internalType": "string",
          "name": "name",
          "type": "string"
        },
        {
          "indexed": false,
          "internalType": "address",
          "name": "owner",
          "type": "address"
        },
        {
          "indexed": false,
          "internalType": "bytes",
          "name": "details",
          "type": "bytes"
        }
      ],
      "name": "ScriptCreated",
      "type": "event"
    },
    {
      "anonymous": false,
      "inputs": [
        {
          "indexed": true,
          "internalType": "string",
          "name": "name",
          "type": "string"
        },
        {
          "indexed": false,
          "internalType": "address",
          "name": "owner",
          "type": "address"
        },
        {
          "indexed": false,
          "internalType": "bytes",
          "name": "details",
          "type": "bytes"
        }
      ],
      "name": "ScriptDetailsUpdated",
      "type": "event"
    },
    {
      "anonymous": false,
      "inputs": [
        {
          "indexed": true,
          "internalType": "string",
          "name": "name",
          "type": "string"
        },
        {
          "indexed": false,
          "internalType": "bool",
          "name": "isVerified",
          "type": "bool"
        }
      ],
      "name": "ScriptVerificationUpdated",
      "type": "event"
    },
    {
      "inputs": [
        {
          "internalType": "string",
          "name": "name",
          "type": "string"
        },
        {
          "internalType": "bytes",
          "name": "chunk",
          "type": "bytes"
        }
      ],
      "name": "addChunkToScript",
      "outputs": [],
      "stateMutability": "nonpayable",
      "type": "function"
    },
    {
      "inputs": [],
      "name": "contentStore",
      "outputs": [
        {
          "internalType": "contract IContentStore",
          "name": "",
          "type": "address"
        }
      ],
      "stateMutability": "view",
      "type": "function"
    },
    {
      "inputs": [
        {
          "internalType": "string",
          "name": "name",
          "type": "string"
        },
        {
          "internalType": "bytes",
          "name": "details",
          "type": "bytes"
        }
      ],
      "name": "createScript",
      "outputs": [],
      "stateMutability": "nonpayable",
      "type": "function"
    },
    {
      "inputs": [
        {
          "internalType": "string",
          "name": "name",
          "type": "string"
        },
        {
          "internalType": "bytes",
          "name": "data",
          "type": "bytes"
        }
      ],
      "name": "getScript",
      "outputs": [
        {
          "internalType": "bytes",
          "name": "script",
          "type": "bytes"
        }
      ],
      "stateMutability": "view",
      "type": "function"
    },
    {
      "inputs": [
        {
          "internalType": "string",
          "name": "name",
          "type": "string"
        }
      ],
      "name": "getScriptChunkPointers",
      "outputs": [
        {
          "internalType": "address[]",
          "name": "pointers",
          "type": "address[]"
        }
      ],
      "stateMutability": "view",
      "type": "function"
    },
    {
      "inputs": [],
      "name": "owner",
      "outputs": [
        {
          "internalType": "address",
          "name": "",
          "type": "address"
        }
      ],
      "stateMutability": "view",
      "type": "function"
    },
    {
      "inputs": [],
      "name": "renounceOwnership",
      "outputs": [],
      "stateMutability": "nonpayable",
      "type": "function"
    },
    {
      "inputs": [
        {
          "internalType": "string",
          "name": "",
          "type": "string"
        }
      ],
      "name": "scripts",
      "outputs": [
        {
          "internalType": "bool",
          "name": "isVerified",
          "type": "bool"
        },
        {
          "internalType": "address",
          "name": "owner",
          "type": "address"
        },
        {
          "internalType": "uint256",
          "name": "size",
          "type": "uint256"
        },
        {
          "internalType": "bytes",
          "name": "details",
          "type": "bytes"
        }
      ],
      "stateMutability": "view",
      "type": "function"
    },
    {
      "inputs": [
        {
          "internalType": "address",
          "name": "newOwner",
          "type": "address"
        }
      ],
      "name": "transferOwnership",
      "outputs": [],
      "stateMutability": "nonpayable",
      "type": "function"
    },
    {
      "inputs": [
        {
          "internalType": "string",
          "name": "name",
          "type": "string"
        },
        {
          "internalType": "bytes",
          "name": "details",
          "type": "bytes"
        }
      ],
      "name": "updateDetails",
      "outputs": [],
      "stateMutability": "nonpayable",
      "type": "function"
    },
    {
      "inputs": [
        {
          "internalType": "string",
          "name": "name",
          "type": "string"
        },
        {
          "internalType": "bool",
          "name": "isVerified",
          "type": "bool"
        }
      ],
      "name": "updateScriptVerification",
      "outputs": [],
      "stateMutability": "nonpayable",
      "type": "function"
    }
  ],
  "bytecode": "0x60806040523480156200001157600080fd5b506040516200203e3803806200203e8339818101604052810190620000379190620001d5565b620000576200004b6200009f60201b60201c565b620000a760201b60201c565b80600160006101000a81548173ffffffffffffffffffffffffffffffffffffffff021916908373ffffffffffffffffffffffffffffffffffffffff1602179055505062000207565b600033905090565b60008060009054906101000a900473ffffffffffffffffffffffffffffffffffffffff169050816000806101000a81548173ffffffffffffffffffffffffffffffffffffffff021916908373ffffffffffffffffffffffffffffffffffffffff1602179055508173ffffffffffffffffffffffffffffffffffffffff168173ffffffffffffffffffffffffffffffffffffffff167f8be0079c531659141344cd1fd0a4f28419497f9722a3daafe3b4186f6b6457e060405160405180910390a35050565b600080fd5b600073ffffffffffffffffffffffffffffffffffffffff82169050919050565b60006200019d8262000170565b9050919050565b620001af8162000190565b8114620001bb57600080fd5b50565b600081519050620001cf81620001a4565b92915050565b600060208284031215620001ee57620001ed6200016b565b5b6000620001fe84828501620001be565b91505092915050565b611e2780620002176000396000f3fe608060405234801561001057600080fd5b50600436106100a95760003560e01c80638da5cb5b116100715780638da5cb5b1461013e578063ae0f84971461015c578063c3766aff1461018f578063f2fde38b146101ab578063f66188a4146101c7578063f9635594146101e3576100a9565b80633998d026146100ae5780633a6e674c146100de5780633b7aa8d9146100fc578063715018a6146101185780638652d66914610122575b600080fd5b6100c860048036038101906100c3919061109b565b610213565b6040516100d591906111d4565b60405180910390f35b6100e66102c2565b6040516100f39190611255565b60405180910390f35b61011660048036038101906101119190611326565b6102e8565b005b610120610592565b005b61013c60048036038101906101379190611326565b6105a6565b005b610146610881565b60405161015391906113b6565b60405180910390f35b6101766004803603810190610171919061109b565b6108aa565b6040516101869493929190611484565b60405180910390f35b6101a960048036038101906101a49190611326565b6109a5565b005b6101c560048036038101906101c091906114fc565b610b1d565b005b6101e160048036038101906101dc9190611555565b610ba0565b005b6101fd60048036038101906101f89190611656565b610c37565b60405161020a91906116ce565b60405180910390f35b60606002826040516102259190611737565b90815260200160405180910390206003018054806020026020016040519081016040528092919081815260200182805480156102b657602002820191906000526020600020905b8160009054906101000a900473ffffffffffffffffffffffffffffffffffffffff1673ffffffffffffffffffffffffffffffffffffffff168152602001906001019080831161026c575b50505050509050919050565b600160009054906101000a900473ffffffffffffffffffffffffffffffffffffffff1681565b83838080601f016020809104026020016040519081016040528093929190818152602001838380828437600081840152601f19601f8201169050808301925050505050505060028160405161033d9190611737565b908152602001604051809103902060000160019054906101000a900473ffffffffffffffffffffffffffffffffffffffff1673ffffffffffffffffffffffffffffffffffffffff163373ffffffffffffffffffffffffffffffffffffffff16146103d3576040517f48430eda00000000000000000000000000000000000000000000000000000000815260040160405180910390fd5b6000600160009054906101000a900473ffffffffffffffffffffffffffffffffffffffff1673ffffffffffffffffffffffffffffffffffffffff1663093e983985856040518363ffffffff1660e01b815260040161043292919061177b565b60408051808303816000875af1158015610450573d6000803e3d6000fd5b505050506040513d601f19601f8201168201806040525081019061047491906117ea565b9150506002868660405161048992919061184f565b9081526020016040518091039020600301819080600181540180825580915050600190039060005260206000200160009091909190916101000a81548173ffffffffffffffffffffffffffffffffffffffff021916908373ffffffffffffffffffffffffffffffffffffffff160217905550838390506002878760405161051192919061184f565b908152602001604051809103902060010160008282546105319190611897565b92505081905550858560405161054892919061184f565b60405180910390207f4c4439fb488c666dfac05b75b1eaa33ddec20e80ade108bbfbf9a346101a17fa8585905060405161058291906118cb565b60405180910390a2505050505050565b61059a610cef565b6105a46000610d6d565b565b83838080601f016020809104026020016040519081016040528093929190818152602001838380828437600081840152601f19601f82011690508083019250505050505050600073ffffffffffffffffffffffffffffffffffffffff166002826040516106139190611737565b908152602001604051809103902060000160019054906101000a900473ffffffffffffffffffffffffffffffffffffffff1673ffffffffffffffffffffffffffffffffffffffff1614610692576040517f0d3c537600000000000000000000000000000000000000000000000000000000815260040160405180910390fd5b6040518060a001604052806000151581526020013373ffffffffffffffffffffffffffffffffffffffff1681526020016000815260200184848080601f016020809104026020016040519081016040528093929190818152602001838380828437600081840152601f19601f820116905080830192505050505050508152602001600067ffffffffffffffff81111561072e5761072d610f70565b5b60405190808252806020026020018201604052801561075c5781602001602082028036833780820191505090505b508152506002868660405161077292919061184f565b908152602001604051809103902060008201518160000160006101000a81548160ff02191690831515021790555060208201518160000160016101000a81548173ffffffffffffffffffffffffffffffffffffffff021916908373ffffffffffffffffffffffffffffffffffffffff1602179055506040820151816001015560608201518160020190816108069190611ae8565b506080820151816003019080519060200190610823929190610e9a565b50905050848460405161083792919061184f565b60405180910390207f35023683f3e2601679984b8499066b14c71937187f37bdb34221581a22792e0a33858560405161087293929190611bba565b60405180910390a25050505050565b60008060009054906101000a900473ffffffffffffffffffffffffffffffffffffffff16905090565b6002818051602081018201805184825260208301602085012081835280955050505050506000915090508060000160009054906101000a900460ff16908060000160019054906101000a900473ffffffffffffffffffffffffffffffffffffffff169080600101549080600201805461092290611915565b80601f016020809104026020016040519081016040528092919081815260200182805461094e90611915565b801561099b5780601f106109705761010080835404028352916020019161099b565b820191906000526020600020905b81548152906001019060200180831161097e57829003601f168201915b5050505050905084565b83838080601f016020809104026020016040519081016040528093929190818152602001838380828437600081840152601f19601f820116905080830192505050505050506002816040516109fa9190611737565b908152602001604051809103902060000160019054906101000a900473ffffffffffffffffffffffffffffffffffffffff1673ffffffffffffffffffffffffffffffffffffffff163373ffffffffffffffffffffffffffffffffffffffff1614610a90576040517f48430eda00000000000000000000000000000000000000000000000000000000815260040160405180910390fd5b828260028787604051610aa492919061184f565b90815260200160405180910390206002019182610ac2929190611bf7565b508484604051610ad392919061184f565b60405180910390207fee4b871e75b741fc8f590502e8d6eef71a1fd737732e9586c2ebbd5c63f172fc338585604051610b0e93929190611bba565b60405180910390a25050505050565b610b25610cef565b600073ffffffffffffffffffffffffffffffffffffffff168173ffffffffffffffffffffffffffffffffffffffff1603610b94576040517f08c379a0000000000000000000000000000000000000000000000000000000008152600401610b8b90611d4a565b60405180910390fd5b610b9d81610d6d565b50565b610ba8610cef565b8060028484604051610bbb92919061184f565b908152602001604051809103902060000160006101000a81548160ff0219169083151502179055508282604051610bf392919061184f565b60405180910390207fd5c4aa2b5240e0e08c3bbb0802a6dfcd8bc9967b86d7e94970e324fccf1e6d2b82604051610c2a9190611d6a565b60405180910390a2505050565b6060610ce7600284604051610c4c9190611737565b9081526020016040518091039020600301805480602002602001604051908101604052809291908181526020018280548015610cdd57602002820191906000526020600020905b8160009054906101000a900473ffffffffffffffffffffffffffffffffffffffff1673ffffffffffffffffffffffffffffffffffffffff1681526020019060010190808311610c93575b5050505050610e31565b905092915050565b610cf7610e92565b73ffffffffffffffffffffffffffffffffffffffff16610d15610881565b73ffffffffffffffffffffffffffffffffffffffff1614610d6b576040517f08c379a0000000000000000000000000000000000000000000000000000000008152600401610d6290611dd1565b60405180910390fd5b565b60008060009054906101000a900473ffffffffffffffffffffffffffffffffffffffff169050816000806101000a81548173ffffffffffffffffffffffffffffffffffffffff021916908373ffffffffffffffffffffffffffffffffffffffff1602179055508173ffffffffffffffffffffffffffffffffffffffff168173ffffffffffffffffffffffffffffffffffffffff167f8be0079c531659141344cd1fd0a4f28419497f9722a3daafe3b4186f6b6457e060405160405180910390a35050565b606081516020600060405193506000805b84811015610e75576020810260200187015191506001823b039250826001858801843c8284019350600181019050610e42565b50602083038552601f19601f840116850160405250505050919050565b600033905090565b828054828255906000526020600020908101928215610f13579160200282015b82811115610f125782518260006101000a81548173ffffffffffffffffffffffffffffffffffffffff021916908373ffffffffffffffffffffffffffffffffffffffff16021790555091602001919060010190610eba565b5b509050610f209190610f24565b5090565b5b80821115610f3d576000816000905550600101610f25565b5090565b6000604051905090565b600080fd5b600080fd5b600080fd5b600080fd5b6000601f19601f8301169050919050565b7f4e487b7100000000000000000000000000000000000000000000000000000000600052604160045260246000fd5b610fa882610f5f565b810181811067ffffffffffffffff82111715610fc757610fc6610f70565b5b80604052505050565b6000610fda610f41565b9050610fe68282610f9f565b919050565b600067ffffffffffffffff82111561100657611005610f70565b5b61100f82610f5f565b9050602081019050919050565b82818337600083830152505050565b600061103e61103984610feb565b610fd0565b90508281526020810184848401111561105a57611059610f5a565b5b61106584828561101c565b509392505050565b600082601f83011261108257611081610f55565b5b813561109284826020860161102b565b91505092915050565b6000602082840312156110b1576110b0610f4b565b5b600082013567ffffffffffffffff8111156110cf576110ce610f50565b5b6110db8482850161106d565b91505092915050565b600081519050919050565b600082825260208201905092915050565b6000819050602082019050919050565b600073ffffffffffffffffffffffffffffffffffffffff82169050919050565b600061113b82611110565b9050919050565b61114b81611130565b82525050565b600061115d8383611142565b60208301905092915050565b6000602082019050919050565b6000611181826110e4565b61118b81856110ef565b935061119683611100565b8060005b838110156111c75781516111ae8882611151565b97506111b983611169565b92505060018101905061119a565b5085935050505092915050565b600060208201905081810360008301526111ee8184611176565b905092915050565b6000819050919050565b600061121b61121661121184611110565b6111f6565b611110565b9050919050565b600061122d82611200565b9050919050565b600061123f82611222565b9050919050565b61124f81611234565b82525050565b600060208201905061126a6000830184611246565b92915050565b600080fd5b600080fd5b60008083601f8401126112905761128f610f55565b5b8235905067ffffffffffffffff8111156112ad576112ac611270565b5b6020830191508360018202830111156112c9576112c8611275565b5b9250929050565b60008083601f8401126112e6576112e5610f55565b5b8235905067ffffffffffffffff81111561130357611302611270565b5b60208301915083600182028301111561131f5761131e611275565b5b9250929050565b600080600080604085870312156113405761133f610f4b565b5b600085013567ffffffffffffffff81111561135e5761135d610f50565b5b61136a8782880161127a565b9450945050602085013567ffffffffffffffff81111561138d5761138c610f50565b5b611399878288016112d0565b925092505092959194509250565b6113b081611130565b82525050565b60006020820190506113cb60008301846113a7565b92915050565b60008115159050919050565b6113e6816113d1565b82525050565b6000819050919050565b6113ff816113ec565b82525050565b600081519050919050565b600082825260208201905092915050565b60005b8381101561143f578082015181840152602081019050611424565b60008484015250505050565b600061145682611405565b6114608185611410565b9350611470818560208601611421565b61147981610f5f565b840191505092915050565b600060808201905061149960008301876113dd565b6114a660208301866113a7565b6114b360408301856113f6565b81810360608301526114c5818461144b565b905095945050505050565b6114d981611130565b81146114e457600080fd5b50565b6000813590506114f6816114d0565b92915050565b60006020828403121561151257611511610f4b565b5b6000611520848285016114e7565b91505092915050565b611532816113d1565b811461153d57600080fd5b50565b60008135905061154f81611529565b92915050565b60008060006040848603121561156e5761156d610f4b565b5b600084013567ffffffffffffffff81111561158c5761158b610f50565b5b6115988682870161127a565b935093505060206115ab86828701611540565b9150509250925092565b600067ffffffffffffffff8211156115d0576115cf610f70565b5b6115d982610f5f565b9050602081019050919050565b60006115f96115f4846115b5565b610fd0565b90508281526020810184848401111561161557611614610f5a565b5b61162084828561101c565b509392505050565b600082601f83011261163d5761163c610f55565b5b813561164d8482602086016115e6565b91505092915050565b6000806040838503121561166d5761166c610f4b565b5b600083013567ffffffffffffffff81111561168b5761168a610f50565b5b6116978582860161106d565b925050602083013567ffffffffffffffff8111156116b8576116b7610f50565b5b6116c485828601611628565b9150509250929050565b600060208201905081810360008301526116e8818461144b565b905092915050565b600081519050919050565b600081905092915050565b6000611711826116f0565b61171b81856116fb565b935061172b818560208601611421565b80840191505092915050565b60006117438284611706565b915081905092915050565b600061175a8385611410565b935061176783858461101c565b61177083610f5f565b840190509392505050565b6000602082019050818103600083015261179681848661174e565b90509392505050565b6000819050919050565b6117b28161179f565b81146117bd57600080fd5b50565b6000815190506117cf816117a9565b92915050565b6000815190506117e4816114d0565b92915050565b6000806040838503121561180157611800610f4b565b5b600061180f858286016117c0565b9250506020611820858286016117d5565b9150509250929050565b600061183683856116fb565b935061184383858461101c565b82840190509392505050565b600061185c82848661182a565b91508190509392505050565b7f4e487b7100000000000000000000000000000000000000000000000000000000600052601160045260246000fd5b60006118a2826113ec565b91506118ad836113ec565b92508282019050808211156118c5576118c4611868565b5b92915050565b60006020820190506118e060008301846113f6565b92915050565b7f4e487b7100000000000000000000000000000000000000000000000000000000600052602260045260246000fd5b6000600282049050600182168061192d57607f821691505b6020821081036119405761193f6118e6565b5b50919050565b60008190508160005260206000209050919050565b60006020601f8301049050919050565b600082821b905092915050565b6000600883026119a87fffffffffffffffffffffffffffffffffffffffffffffffffffffffffffffffff8261196b565b6119b2868361196b565b95508019841693508086168417925050509392505050565b60006119e56119e06119db846113ec565b6111f6565b6113ec565b9050919050565b6000819050919050565b6119ff836119ca565b611a13611a0b826119ec565b848454611978565b825550505050565b600090565b611a28611a1b565b611a338184846119f6565b505050565b5b81811015611a5757611a4c600082611a20565b600181019050611a39565b5050565b601f821115611a9c57611a6d81611946565b611a768461195b565b81016020851015611a85578190505b611a99611a918561195b565b830182611a38565b50505b505050565b600082821c905092915050565b6000611abf60001984600802611aa1565b1980831691505092915050565b6000611ad88383611aae565b9150826002028217905092915050565b611af182611405565b67ffffffffffffffff811115611b0a57611b09610f70565b5b611b148254611915565b611b1f828285611a5b565b600060209050601f831160018114611b525760008415611b40578287015190505b611b4a8582611acc565b865550611bb2565b601f198416611b6086611946565b60005b82811015611b8857848901518255600182019150602085019450602081019050611b63565b86831015611ba55784890151611ba1601f891682611aae565b8355505b6001600288020188555050505b505050505050565b6000604082019050611bcf60008301866113a7565b8181036020830152611be281848661174e565b9050949350505050565b600082905092915050565b611c018383611bec565b67ffffffffffffffff811115611c1a57611c19610f70565b5b611c248254611915565b611c2f828285611a5b565b6000601f831160018114611c5e5760008415611c4c578287013590505b611c568582611acc565b865550611cbe565b601f198416611c6c86611946565b60005b82811015611c9457848901358255600182019150602085019450602081019050611c6f565b86831015611cb15784890135611cad601f891682611aae565b8355505b6001600288020188555050505b50505050505050565b600082825260208201905092915050565b7f4f776e61626c653a206e6577206f776e657220697320746865207a65726f206160008201527f6464726573730000000000000000000000000000000000000000000000000000602082015250565b6000611d34602683611cc7565b9150611d3f82611cd8565b604082019050919050565b60006020820190508181036000830152611d6381611d27565b9050919050565b6000602082019050611d7f60008301846113dd565b92915050565b7f4f776e61626c653a2063616c6c6572206973206e6f7420746865206f776e6572600082015250565b6000611dbb602083611cc7565b9150611dc682611d85565b602082019050919050565b60006020820190508181036000830152611dea81611dae565b905091905056fea2646970667358221220f76deba64c1ebc237d1a5df34dc95a3648ba4e4417745a759305212aa9c1c09264736f6c63430008110033",
  "linkReferences": {},
  "deployedLinkReferences": {}
}