{
  "_format": "hh-sol-artifact-1",
  "contractName": "Renderer",
  "sourceName": "src/services/chain-sim/contracts/misc/Renderer.sol",
  "abi": [
    {
      "inputs": [],
      "stateMutability": "nonpayable",
      "type": "constructor"
    },
    {
      "inputs": [
        {
          "internalType": "uint256",
          "name": "",
          "type": "uint256"
        }
      ],
      "name": "assetList",
      "outputs": [
        {
          "internalType": "string",
          "name": "assetType",
          "type": "string"
        },
        {
          "internalType": "string",
          "name": "key",
          "type": "string"
        },
        {
          "internalType": "uint256",
          "name": "maxPageNumber",
          "type": "uint256"
        }
      ],
      "stateMutability": "view",
      "type": "function"
    },
    {
      "inputs": [],
      "name": "assetStorage",
      "outputs": [
        {
          "internalType": "contract IContractStorage",
          "name": "",
          "type": "address"
        }
      ],
      "stateMutability": "view",
      "type": "function"
    },
    {
      "inputs": [
        {
          "internalType": "uint256",
          "name": "a",
          "type": "uint256"
        },
        {
          "internalType": "uint256",
          "name": "m",
          "type": "uint256"
        }
      ],
      "name": "ceil",
      "outputs": [
        {
          "internalType": "uint256",
          "name": "",
          "type": "uint256"
        }
      ],
      "stateMutability": "pure",
      "type": "function"
    },
    {
      "inputs": [
        {
          "internalType": "uint256",
          "name": "_id",
          "type": "uint256"
        }
      ],
      "name": "example",
      "outputs": [
        {
          "internalType": "string",
          "name": "",
          "type": "string"
        }
      ],
      "stateMutability": "view",
      "type": "function"
    },
    {
      "inputs": [
        {
          "internalType": "uint256",
          "name": "_index",
          "type": "uint256"
        }
      ],
      "name": "getRenderIndexItem",
      "outputs": [
        {
          "internalType": "uint256[4]",
          "name": "",
          "type": "uint256[4]"
        }
      ],
      "stateMutability": "view",
      "type": "function"
    },
    {
      "inputs": [
        {
          "internalType": "uint256",
          "name": "_tokenId",
          "type": "uint256"
        }
      ],
      "name": "render",
      "outputs": [
        {
          "internalType": "string",
          "name": "",
          "type": "string"
        }
      ],
      "stateMutability": "view",
      "type": "function"
    },
    {
      "inputs": [
        {
          "internalType": "uint256",
          "name": "",
          "type": "uint256"
        },
        {
          "internalType": "uint256",
          "name": "",
          "type": "uint256"
        }
      ],
      "name": "renderIndex",
      "outputs": [
        {
          "internalType": "uint256",
          "name": "",
          "type": "uint256"
        }
      ],
      "stateMutability": "view",
      "type": "function"
    },
    {
      "inputs": [
        {
          "internalType": "uint256",
          "name": "_rpage",
          "type": "uint256"
        }
      ],
      "name": "renderPage",
      "outputs": [
        {
          "internalType": "string",
          "name": "",
          "type": "string"
        }
      ],
      "stateMutability": "view",
      "type": "function"
    },
    {
      "inputs": [],
      "name": "renderPagesCount",
      "outputs": [
        {
          "internalType": "uint256",
          "name": "",
          "type": "uint256"
        }
      ],
      "stateMutability": "view",
      "type": "function"
    },
    {
      "inputs": [
        {
          "internalType": "uint256",
          "name": "",
          "type": "uint256"
        }
      ],
      "name": "renderWrapper",
      "outputs": [
        {
          "internalType": "string",
          "name": "",
          "type": "string"
        }
      ],
      "stateMutability": "view",
      "type": "function"
    },
    {
      "inputs": [
        {
          "internalType": "contract IContractStorage",
          "name": "_storage",
          "type": "address"
        }
      ],
      "name": "setAssetStorage",
      "outputs": [],
      "stateMutability": "nonpayable",
      "type": "function"
    },
    {
      "inputs": [],
      "name": "setAssets",
      "outputs": [],
      "stateMutability": "nonpayable",
      "type": "function"
    },
    {
      "inputs": [
        {
          "internalType": "uint256[4][]",
          "name": "_index",
          "type": "uint256[4][]"
        }
      ],
      "name": "setRenderIndex",
      "outputs": [],
      "stateMutability": "nonpayable",
      "type": "function"
    }
  ],
  "bytecode": "0x608060405260405180604001604052806040518060a00160405280606c815260200162003078606c913981526020016040518060400160405280601981526020017f3c6469763e3c2f6469763e3c2f626f64793e3c2f68746d6c3e000000000000008152508152506001906002620000799291906200008e565b503480156200008757600080fd5b506200026b565b8260028101928215620000d5579160200282015b82811115620000d4578251829080519060200190620000c3929190620000e8565b5091602001919060010190620000a2565b5b509050620000e4919062000179565b5090565b828054620000f69062000235565b90600052602060002090601f0160209004810192826200011a576000855562000166565b82601f106200013557805160ff191683800117855562000166565b8280016001018555821562000166579182015b828111156200016557825182559160200191906001019062000148565b5b509050620001759190620001a1565b5090565b5b808211156200019d5760008181620001939190620001c0565b506001016200017a565b5090565b5b80821115620001bc576000816000905550600101620001a2565b5090565b508054620001ce9062000235565b6000825580601f10620001e2575062000203565b601f016020900490600052602060002090810190620002029190620001a1565b5b50565b7f4e487b7100000000000000000000000000000000000000000000000000000000600052602260045260246000fd5b600060028204905060018216806200024e57607f821691505b6020821081141562000265576200026462000206565b5b50919050565b612dfd806200027b6000396000f3fe608060405234801561001057600080fd5b50600436106100cf5760003560e01c8063703705131161008c578063943e6c8211610066578063943e6c8214610212578063a0b4b30114610242578063c321118c14610274578063ead6d944146102a4576100cf565b806370370513146101825780637556d1b9146101b25780638587be6e146101e2576100cf565b806327d98df3146100d45780632852c05c146100f0578063292eabde146100fa578063477e4a02146101165780634cb139a6146101465780636bd4080514610164575b600080fd5b6100ee60048036038101906100e99190611926565b6102d4565b005b6100f8610317565b005b610114600480360381019061010f9190611b93565b610adb565b005b610130600480360381019061012b9190611bdc565b610b5b565b60405161013d9190611c91565b60405180910390f35b61014e610b6d565b60405161015b9190611d12565b60405180910390f35b61016c610b91565b6040516101799190611d3c565b60405180910390f35b61019c60048036038101906101979190611d57565b610b97565b6040516101a99190611d3c565b60405180910390f35b6101cc60048036038101906101c79190611bdc565b610bbf565b6040516101d99190611c91565b60405180910390f35b6101fc60048036038101906101f79190611d57565b611151565b6040516102099190611d3c565b60405180910390f35b61022c60048036038101906102279190611bdc565b611189565b6040516102399190611e42565b60405180910390f35b61025c60048036038101906102579190611bdc565b6111e7565b60405161026b93929190611e5d565b60405180910390f35b61028e60048036038101906102899190611bdc565b611321565b60405161029b9190611c91565b60405180910390f35b6102be60048036038101906102b99190611bdc565b611643565b6040516102cb9190611c91565b60405180910390f35b806000806101000a81548173ffffffffffffffffffffffffffffffffffffffff021916908373ffffffffffffffffffffffffffffffffffffffff16021790555050565b600060405180604001604052806040518060400160405280600881526020017f3c7363726970743e00000000000000000000000000000000000000000000000081525081526020016040518060400160405280600981526020017f3c2f7363726970743e00000000000000000000000000000000000000000000008152508152509050600060405180604001604052806040518060400160405280601381526020017f3c7363726970743e6576616c2861746f6228270000000000000000000000000081525081526020016040518060400160405280600d81526020017f2729293b3c2f7363726970743e000000000000000000000000000000000000008152508152509050600060405180604001604052806040518060c0016040528060898152602001612d3f6089913981526020016040518060400160405280600f81526020017f27292929293b3c2f7363726970743e0000000000000000000000000000000000815250815250905060405180608001604052806040518060400160405280600981526020017f6236346a736576616c000000000000000000000000000000000000000000000081525081526020016040518060400160405280601381526020017f636f6d70726573736f72476c6f62616c42363400000000000000000000000000815250815260200183815260200160008054906101000a900473ffffffffffffffffffffffffffffffffffffffff1673ffffffffffffffffffffffffffffffffffffffff1663d431a42f6040518163ffffffff1660e01b815260040161056190611eee565b602060405180830381865afa15801561057e573d6000803e3d6000fd5b505050506040513d601f19601f820116820180604052508101906105a29190611f23565b8152506003600080815260200190815260200160002060008201518160000190805190602001906105d49291906116e6565b5060208201518160010190805190602001906105f19291906116e6565b5060408201518160020190600261060992919061176c565b506060820151816004015590505060405180608001604052806040518060400160405280600781526020017f677a6865786a730000000000000000000000000000000000000000000000000081525081526020016040518060400160405280600781526020017f7035677a68657800000000000000000000000000000000000000000000000000815250815260200182815260200160008054906101000a900473ffffffffffffffffffffffffffffffffffffffff1673ffffffffffffffffffffffffffffffffffffffff1663d431a42f6040518163ffffffff1660e01b81526004016106f590611f9c565b602060405180830381865afa158015610712573d6000803e3d6000fd5b505050506040513d601f19601f820116820180604052508101906107369190611f23565b815250600360006001815260200190815260200160002060008201518160000190805190602001906107699291906116e6565b5060208201518160010190805190602001906107869291906116e6565b5060408201518160020190600261079e92919061176c565b506060820151816004015590505060405180608001604052806040518060400160405280600581526020017f7261776a7300000000000000000000000000000000000000000000000000000081525081526020016040518060400160405280600781526020017f7035736574757000000000000000000000000000000000000000000000000000815250815260200184815260200160008054906101000a900473ffffffffffffffffffffffffffffffffffffffff1673ffffffffffffffffffffffffffffffffffffffff1663d431a42f6040518163ffffffff1660e01b815260040161088a90612008565b602060405180830381865afa1580156108a7573d6000803e3d6000fd5b505050506040513d601f19601f820116820180604052508101906108cb9190611f23565b815250600360006002815260200190815260200160002060008201518160000190805190602001906108fe9291906116e6565b50602082015181600101908051906020019061091b9291906116e6565b5060408201518160020190600261093392919061176c565b506060820151816004015590505060405180608001604052806040518060400160405280600581526020017f7261776a7300000000000000000000000000000000000000000000000000000081525081526020016040518060400160405280600481526020017f6472617700000000000000000000000000000000000000000000000000000000815250815260200184815260200160008054906101000a900473ffffffffffffffffffffffffffffffffffffffff1673ffffffffffffffffffffffffffffffffffffffff1663d431a42f6040518163ffffffff1660e01b8152600401610a1f90612074565b602060405180830381865afa158015610a3c573d6000803e3d6000fd5b505050506040513d601f19601f82011682018060405250810190610a609190611f23565b81525060036000600381526020019081526020016000206000820151816000019080519060200190610a939291906116e6565b506020820151816001019080519060200190610ab09291906116e6565b50604082015181600201906002610ac892919061176c565b5060608201518160040155905050505050565b60005b8151811015610b4f5760046000815480929190610afa906120c3565b9190505550818181518110610b1257610b1161210c565b5b602002602001015160056000838152602001908152602001600020906004610b3b9291906117bf565b508080610b47906120c3565b915050610ade565b50805160048190555050565b6060610b6682611321565b9050919050565b60008054906101000a900473ffffffffffffffffffffffffffffffffffffffff1681565b60045481565b60056020528160005260406000208160048110610bb357600080fd5b01600091509150505481565b6060600060056000848152602001908152602001600020600480602002604051908101604052809291908260048015610c0d576020028201915b815481526020019060010190808311610bf9575b50505050509050600081600060048110610c2a57610c2961210c565b5b60200201519050600082600160048110610c4757610c4661210c565b5b60200201519050600083600260048110610c6457610c6361210c565b5b60200201519050600084600360048110610c8157610c8061210c565b5b60200201519050600060405180602001604052806000815250905060008590505b600185610caf919061213b565b8110156110a75760008682149050600060036000848152602001908152602001600020604051806080016040529081600082018054610ced906121c0565b80601f0160208091040260200160405190810160405280929190818152602001828054610d19906121c0565b8015610d665780601f10610d3b57610100808354040283529160200191610d66565b820191906000526020600020905b815481529060010190602001808311610d4957829003601f168201915b50505050508152602001600182018054610d7f906121c0565b80601f0160208091040260200160405190810160405280929190818152602001828054610dab906121c0565b8015610df85780601f10610dcd57610100808354040283529160200191610df8565b820191906000526020600020905b815481529060010190602001808311610ddb57829003601f168201915b5050505050815260200160028201600280602002604051908101604052809291906000905b82821015610ec0578382018054610e33906121c0565b80601f0160208091040260200160405190810160405280929190818152602001828054610e5f906121c0565b8015610eac5780601f10610e8157610100808354040283529160200191610eac565b820191906000526020600020905b815481529060010190602001808311610e8f57829003601f168201915b505050505081526020019060010190610e1d565b50505050815260200160048201548152505090506000888414610ee4576000610ee6565b865b90506000888514610efb578260600151610efd565b865b90506000821415610f4957858360400151600060028110610f2157610f2061210c565b5b6020020151604051602001610f3792919061222e565b60405160208183030381529060405295505b8560008054906101000a900473ffffffffffffffffffffffffffffffffffffffff1673ffffffffffffffffffffffffffffffffffffffff166311aa4cba856020015185856040518463ffffffff1660e01b8152600401610fab93929190612252565b600060405180830381865afa158015610fc8573d6000803e3d6000fd5b505050506040513d6000823e3d601f19601f82011682018060405250810190610ff19190612336565b60405160200161100191906123c6565b60405160208183030381529060405260405160200161102192919061222e565b604051602081830303815290604052955060008986148015611047575083606001518814155b90508061108f578684604001516001600281106110675761106661210c565b5b602002015160405160200161107d92919061222e565b60405160208183030381529060405296505b5050505050808061109f906120c3565b915050610ca2565b5060008814156110f55760016000600281106110c6576110c561210c565b5b01816040516020016110d9929190612471565b604051602081830303815290604052965050505050505061114c565b6004548814156111425780600180600281106111145761111361210c565b5b01604051602001611126929190612495565b604051602081830303815290604052965050505050505061114c565b8096505050505050505b919050565b6000818260018486611163919061213b565b61116d91906124b9565b611177919061251c565b611181919061254d565b905092915050565b6111916117ff565b600560008381526020019081526020016000206004806020026040519081016040528092919082600480156111db576020028201915b8154815260200190600101908083116111c7575b50505050509050919050565b600360205280600052604060002060009150905080600001805461120a906121c0565b80601f0160208091040260200160405190810160405280929190818152602001828054611236906121c0565b80156112835780601f1061125857610100808354040283529160200191611283565b820191906000526020600020905b81548152906001019060200180831161126657829003601f168201915b505050505090806001018054611298906121c0565b80601f01602080910402602001604051908101604052809291908181526020018280546112c4906121c0565b80156113115780601f106112e657610100808354040283529160200191611311565b820191906000526020600020905b8154815290600101906020018083116112f457829003601f168201915b5050505050908060040154905083565b606060008060009054906101000a900473ffffffffffffffffffffffffffffffffffffffff1673ffffffffffffffffffffffffffffffffffffffff166311aa4cba6000806040518363ffffffff1660e01b81526004016113829291906125e2565b600060405180830381865afa15801561139f573d6000803e3d6000fd5b505050506040513d6000823e3d601f19601f820116820180604052508101906113c89190612336565b6040516020016113d891906123c6565b6040516020818303038152906040526040516020016113f7919061266a565b604051602081830303815290604052905060008060009054906101000a900473ffffffffffffffffffffffffffffffffffffffff1673ffffffffffffffffffffffffffffffffffffffff166311aa4cba6000806040518363ffffffff1660e01b81526004016114679291906126eb565b600060405180830381865afa158015611484573d6000803e3d6000fd5b505050506040513d6000823e3d601f19601f820116820180604052508101906114ad9190612336565b6040516020016114bd91906123c6565b6040516020818303038152906040526040516020016114dc9190612831565b604051602081830303815290604052905060008060009054906101000a900473ffffffffffffffffffffffffffffffffffffffff1673ffffffffffffffffffffffffffffffffffffffff166311aa4cba6000806040518363ffffffff1660e01b815260040161154c9291906128ae565b600060405180830381865afa158015611569573d6000803e3d6000fd5b505050506040513d6000823e3d601f19601f820116820180604052508101906115929190612336565b6040516020016115a291906123c6565b6040516020818303038152906040526040516020016115c19190612831565b60405160208183030381529060405290506000604051806060016040528060298152602001612a3460299139905060006040518061032001604052806102e28152602001612a5d6102e29139905084848484846040516020016116289594939291906129ce565b60405160208183030381529060405295505050505050919050565b6001816002811061165357600080fd5b016000915090508054611665906121c0565b80601f0160208091040260200160405190810160405280929190818152602001828054611691906121c0565b80156116de5780601f106116b3576101008083540402835291602001916116de565b820191906000526020600020905b8154815290600101906020018083116116c157829003601f168201915b505050505081565b8280546116f2906121c0565b90600052602060002090601f016020900481019282611714576000855561175b565b82601f1061172d57805160ff191683800117855561175b565b8280016001018555821561175b579182015b8281111561175a57825182559160200191906001019061173f565b5b5090506117689190611821565b5090565b82600281019282156117ae579160200282015b828111156117ad57825182908051906020019061179d9291906116e6565b509160200191906001019061177f565b5b5090506117bb919061183e565b5090565b82600481019282156117ee579160200282015b828111156117ed5782518255916020019190600101906117d2565b5b5090506117fb9190611821565b5090565b6040518060800160405280600490602082028036833780820191505090505090565b5b8082111561183a576000816000905550600101611822565b5090565b5b8082111561185e57600081816118559190611862565b5060010161183f565b5090565b50805461186e906121c0565b6000825580601f10611880575061189f565b601f01602090049060005260206000209081019061189e9190611821565b5b50565b6000604051905090565b600080fd5b600080fd5b600073ffffffffffffffffffffffffffffffffffffffff82169050919050565b60006118e1826118b6565b9050919050565b60006118f3826118d6565b9050919050565b611903816118e8565b811461190e57600080fd5b50565b600081359050611920816118fa565b92915050565b60006020828403121561193c5761193b6118ac565b5b600061194a84828501611911565b91505092915050565b600080fd5b6000601f19601f8301169050919050565b7f4e487b7100000000000000000000000000000000000000000000000000000000600052604160045260246000fd5b6119a182611958565b810181811067ffffffffffffffff821117156119c0576119bf611969565b5b80604052505050565b60006119d36118a2565b90506119df8282611998565b919050565b600067ffffffffffffffff8211156119ff576119fe611969565b5b602082029050602081019050919050565b600080fd5b600067ffffffffffffffff821115611a3057611a2f611969565b5b602082029050919050565b6000819050919050565b611a4e81611a3b565b8114611a5957600080fd5b50565b600081359050611a6b81611a45565b92915050565b6000611a84611a7f84611a15565b6119c9565b90508060208402830185811115611a9e57611a9d611a10565b5b835b81811015611ac75780611ab38882611a5c565b845260208401935050602081019050611aa0565b5050509392505050565b600082601f830112611ae657611ae5611953565b5b6004611af3848285611a71565b91505092915050565b6000611b0f611b0a846119e4565b6119c9565b90508083825260208201905060808402830185811115611b3257611b31611a10565b5b835b81811015611b5b5780611b478882611ad1565b845260208401935050608081019050611b34565b5050509392505050565b600082601f830112611b7a57611b79611953565b5b8135611b8a848260208601611afc565b91505092915050565b600060208284031215611ba957611ba86118ac565b5b600082013567ffffffffffffffff811115611bc757611bc66118b1565b5b611bd384828501611b65565b91505092915050565b600060208284031215611bf257611bf16118ac565b5b6000611c0084828501611a5c565b91505092915050565b600081519050919050565b600082825260208201905092915050565b60005b83811015611c43578082015181840152602081019050611c28565b83811115611c52576000848401525b50505050565b6000611c6382611c09565b611c6d8185611c14565b9350611c7d818560208601611c25565b611c8681611958565b840191505092915050565b60006020820190508181036000830152611cab8184611c58565b905092915050565b6000819050919050565b6000611cd8611cd3611cce846118b6565b611cb3565b6118b6565b9050919050565b6000611cea82611cbd565b9050919050565b6000611cfc82611cdf565b9050919050565b611d0c81611cf1565b82525050565b6000602082019050611d276000830184611d03565b92915050565b611d3681611a3b565b82525050565b6000602082019050611d516000830184611d2d565b92915050565b60008060408385031215611d6e57611d6d6118ac565b5b6000611d7c85828601611a5c565b9250506020611d8d85828601611a5c565b9150509250929050565b600060049050919050565b600081905092915050565b6000819050919050565b611dc081611a3b565b82525050565b6000611dd28383611db7565b60208301905092915050565b6000602082019050919050565b611df481611d97565b611dfe8184611da2565b9250611e0982611dad565b8060005b83811015611e3a578151611e218782611dc6565b9650611e2c83611dde565b925050600181019050611e0d565b505050505050565b6000608082019050611e576000830184611deb565b92915050565b60006060820190508181036000830152611e778186611c58565b90508181036020830152611e8b8185611c58565b9050611e9a6040830184611d2d565b949350505050565b7f636f6d70726573736f72476c6f62616c42363400000000000000000000000000600082015250565b6000611ed8601383611c14565b9150611ee382611ea2565b602082019050919050565b60006020820190508181036000830152611f0781611ecb565b9050919050565b600081519050611f1d81611a45565b92915050565b600060208284031215611f3957611f386118ac565b5b6000611f4784828501611f0e565b91505092915050565b7f7035677a68657800000000000000000000000000000000000000000000000000600082015250565b6000611f86600783611c14565b9150611f9182611f50565b602082019050919050565b60006020820190508181036000830152611fb581611f79565b9050919050565b7f7035736574757000000000000000000000000000000000000000000000000000600082015250565b6000611ff2600783611c14565b9150611ffd82611fbc565b602082019050919050565b6000602082019050818103600083015261202181611fe5565b9050919050565b7f6472617700000000000000000000000000000000000000000000000000000000600082015250565b600061205e600483611c14565b915061206982612028565b602082019050919050565b6000602082019050818103600083015261208d81612051565b9050919050565b7f4e487b7100000000000000000000000000000000000000000000000000000000600052601160045260246000fd5b60006120ce82611a3b565b91507fffffffffffffffffffffffffffffffffffffffffffffffffffffffffffffffff82141561210157612100612094565b5b600182019050919050565b7f4e487b7100000000000000000000000000000000000000000000000000000000600052603260045260246000fd5b600061214682611a3b565b915061215183611a3b565b9250827fffffffffffffffffffffffffffffffffffffffffffffffffffffffffffffffff0382111561218657612185612094565b5b828201905092915050565b7f4e487b7100000000000000000000000000000000000000000000000000000000600052602260045260246000fd5b600060028204905060018216806121d857607f821691505b602082108114156121ec576121eb612191565b5b50919050565b600081905092915050565b600061220882611c09565b61221281856121f2565b9350612222818560208601611c25565b80840191505092915050565b600061223a82856121fd565b915061224682846121fd565b91508190509392505050565b6000606082019050818103600083015261226c8186611c58565b905061227b6020830185611d2d565b6122886040830184611d2d565b949350505050565b600080fd5b600067ffffffffffffffff8211156122b0576122af611969565b5b6122b982611958565b9050602081019050919050565b60006122d96122d484612295565b6119c9565b9050828152602081018484840111156122f5576122f4612290565b5b612300848285611c25565b509392505050565b600082601f83011261231d5761231c611953565b5b815161232d8482602086016122c6565b91505092915050565b60006020828403121561234c5761234b6118ac565b5b600082015167ffffffffffffffff81111561236a576123696118b1565b5b61237684828501612308565b91505092915050565b600081519050919050565b600081905092915050565b60006123a08261237f565b6123aa818561238a565b93506123ba818560208601611c25565b80840191505092915050565b60006123d28284612395565b915081905092915050565b60008190508160005260206000209050919050565b600081546123ff816121c0565b61240981866121f2565b94506001821660008114612424576001811461243557612468565b60ff19831686528186019350612468565b61243e856123dd565b60005b8381101561246057815481890152600182019150602081019050612441565b838801955050505b50505092915050565b600061247d82856123f2565b915061248982846121fd565b91508190509392505050565b60006124a182856121fd565b91506124ad82846123f2565b91508190509392505050565b60006124c482611a3b565b91506124cf83611a3b565b9250828210156124e2576124e1612094565b5b828203905092915050565b7f4e487b7100000000000000000000000000000000000000000000000000000000600052601260045260246000fd5b600061252782611a3b565b915061253283611a3b565b925082612542576125416124ed565b5b828204905092915050565b600061255882611a3b565b915061256383611a3b565b9250817fffffffffffffffffffffffffffffffffffffffffffffffffffffffffffffffff048311821515161561259c5761259b612094565b5b828202905092915050565b6000819050919050565b60006125cc6125c76125c2846125a7565b611cb3565b611a3b565b9050919050565b6125dc816125b1565b82525050565b600060608201905081810360008301526125fb81611ecb565b905061260a60208301856125d3565b61261760408301846125d3565b9392505050565b7f3c7363726970743e6576616c2861746f62282700000000000000000000000000815250565b7f2729293b3c2f7363726970743e00000000000000000000000000000000000000815250565b60006126758261261e565b60138201915061268582846121fd565b915061269082612644565b600d8201915081905092915050565b7f6433746f706f677a686578000000000000000000000000000000000000000000600082015250565b60006126d5600b83611c14565b91506126e08261269f565b602082019050919050565b60006060820190508181036000830152612704816126c8565b905061271360208301856125d3565b61272060408301846125d3565b9392505050565b7f3c7363726970743e77696e646f772e5f617373657473203d202877696e646f7760008201527f2e5f6173736574737c7c5b5d292e636f6e6361742877696e646f772e66666c6160208201527f74652e73747246726f6d55382877696e646f772e66666c6174652e6465636f6d60408201527f707265737353796e632877696e646f772e686578537472696e67546f4172726160608201527f7942756666657228270000000000000000000000000000000000000000000000608082015250565b60006127f56089836121f2565b915061280082612727565b608982019050919050565b7f27292929293b3c2f7363726970743e0000000000000000000000000000000000815250565b600061283c826127e8565b915061284882846121fd565b91506128538261280b565b600f8201915081905092915050565b7f666c6f7765723168657800000000000000000000000000000000000000000000600082015250565b6000612898600a83611c14565b91506128a382612862565b602082019050919050565b600060608201905081810360008301526128c78161288b565b90506128d660208301856125d3565b6128e360408301846125d3565b9392505050565b7f3c21444f43545950452068746d6c3e3c68746d6c3e3c686561643e3c6d65746160008201527f20687474702d65717569763d22436f6e74656e742d547970652220636f6e746560208201527f6e743d22746578742f68746d6c3b20636861727365743d5554462d38222f3e3c60408201527f2f686561643e3c626f64793e0000000000000000000000000000000000000000606082015250565b6000612992606c836121f2565b915061299d826128ea565b606c82019050919050565b7f3c6469763e3c2f6469763e3c2f626f64793e3c2f68746d6c3e00000000000000815250565b60006129d982612985565b91506129e582886121fd565b91506129f182876121fd565b91506129fd82866121fd565b9150612a0982856121fd565b9150612a1582846121fd565b9150612a20826129a8565b601982019150819050969550505050505056fe3c7363726970743e6576616c2877696e646f772e5f6173736574735b305d293b3c2f7363726970743e3c7363726970743e76617220636f6c6f7273203d205b202223666364653963222c202223666161343736222c202223663037343665222c202223653334663666222c202223646333393737222c202223623932353761222c202223376331643666222c205d3b2076617220746f706f6c6f6779203d204a534f4e2e70617273652877696e646f772e5f6173736574735b315d293b20766172207769647468203d20353030302c20686569676874203d20353030303b207661722070617468203d2067656f5061746828293b2076617220737667203d2073656c6563742822626f64792229202e617070656e6428227376672229202e6174747228227769647468222c20776964746829202e617474722822686569676874222c20686569676874293b207661722067656f6a736f6e203d206665617475726528746f706f6c6f67792c20746f706f6c6f67792e6f626a656374735b226261736963322d67656f225d293b20636f6e736f6c652e6c6f67282267656f6a736f6e222c2067656f6a736f6e293b20737667202e73656c656374416c6c2822706174682229202e646174612867656f6a736f6e2e666561747572657329202e656e7465722829202e617070656e642822706174682229202e61747472282264222c207061746829202e61747472282266696c6c222c2066756e6374696f6e202829207b2072657475726e20636f6c6f72735b4d6174682e726f756e64284d6174682e72616e646f6d2829202a2036295d3b207d293b2066756e6374696f6e206368616e6765436f6c6f722829207b20737667202e73656c656374416c6c2822706174682229202e7472616e736974696f6e2829202e6475726174696f6e2877696e646f772e6773696e74207c7c203130303029202e61747472282266696c6c222c2066756e6374696f6e202829207b2072657475726e20636f6c6f72735b4d6174682e726f756e64284d6174682e72616e646f6d2829202a2036295d3b207d293b207d3c2f7363726970743e3c7363726970743e77696e646f772e5f617373657473203d202877696e646f772e5f6173736574737c7c5b5d292e636f6e6361742877696e646f772e66666c6174652e73747246726f6d55382877696e646f772e66666c6174652e6465636f6d707265737353796e632877696e646f772e686578537472696e67546f41727261794275666665722827a2646970667358221220ff24072116c68435143195b0375eaa8ae3ab5b5a8a45f53f05cf91cac6009afc64736f6c634300080c00333c21444f43545950452068746d6c3e3c68746d6c3e3c686561643e3c6d65746120687474702d65717569763d22436f6e74656e742d547970652220636f6e74656e743d22746578742f68746d6c3b20636861727365743d5554462d38222f3e3c2f686561643e3c626f64793e",
  "linkReferences": {},
  "deployedLinkReferences": {}
}