{
  "_format": "hh-sol-artifact-1",
  "contractName": "ERC721Cloneable",
  "sourceName": "src/contracts/libs/erc721-cloneable/ERC721Cloneable.sol",
  "abi": [
    {
      "inputs": [],
      "stateMutability": "nonpayable",
      "type": "constructor"
    },
    {
      "anonymous": false,
      "inputs": [
        {
          "indexed": true,
          "internalType": "address",
          "name": "owner",
          "type": "address"
        },
        {
          "indexed": true,
          "internalType": "address",
          "name": "approved",
          "type": "address"
        },
        {
          "indexed": true,
          "internalType": "uint256",
          "name": "tokenId",
          "type": "uint256"
        }
      ],
      "name": "Approval",
      "type": "event"
    },
    {
      "anonymous": false,
      "inputs": [
        {
          "indexed": true,
          "internalType": "address",
          "name": "owner",
          "type": "address"
        },
        {
          "indexed": true,
          "internalType": "address",
          "name": "operator",
          "type": "address"
        },
        {
          "indexed": false,
          "internalType": "bool",
          "name": "approved",
          "type": "bool"
        }
      ],
      "name": "ApprovalForAll",
      "type": "event"
    },
    {
      "anonymous": false,
      "inputs": [
        {
          "indexed": true,
          "internalType": "address",
          "name": "from",
          "type": "address"
        },
        {
          "indexed": true,
          "internalType": "address",
          "name": "to",
          "type": "address"
        },
        {
          "indexed": true,
          "internalType": "uint256",
          "name": "tokenId",
          "type": "uint256"
        }
      ],
      "name": "Transfer",
      "type": "event"
    },
    {
      "inputs": [
        {
          "internalType": "address",
          "name": "to",
          "type": "address"
        },
        {
          "internalType": "uint256",
          "name": "tokenId",
          "type": "uint256"
        }
      ],
      "name": "approve",
      "outputs": [],
      "stateMutability": "nonpayable",
      "type": "function"
    },
    {
      "inputs": [
        {
          "internalType": "address",
          "name": "owner",
          "type": "address"
        }
      ],
      "name": "balanceOf",
      "outputs": [
        {
          "internalType": "uint256",
          "name": "",
          "type": "uint256"
        }
      ],
      "stateMutability": "view",
      "type": "function"
    },
    {
      "inputs": [
        {
          "internalType": "uint256",
          "name": "tokenId",
          "type": "uint256"
        }
      ],
      "name": "getApproved",
      "outputs": [
        {
          "internalType": "address",
          "name": "",
          "type": "address"
        }
      ],
      "stateMutability": "view",
      "type": "function"
    },
    {
      "inputs": [
        {
          "internalType": "address",
          "name": "owner",
          "type": "address"
        },
        {
          "internalType": "address",
          "name": "operator",
          "type": "address"
        }
      ],
      "name": "isApprovedForAll",
      "outputs": [
        {
          "internalType": "bool",
          "name": "",
          "type": "bool"
        }
      ],
      "stateMutability": "view",
      "type": "function"
    },
    {
      "inputs": [],
      "name": "name",
      "outputs": [
        {
          "internalType": "string",
          "name": "",
          "type": "string"
        }
      ],
      "stateMutability": "view",
      "type": "function"
    },
    {
      "inputs": [
        {
          "internalType": "uint256",
          "name": "tokenId",
          "type": "uint256"
        }
      ],
      "name": "ownerOf",
      "outputs": [
        {
          "internalType": "address",
          "name": "",
          "type": "address"
        }
      ],
      "stateMutability": "view",
      "type": "function"
    },
    {
      "inputs": [
        {
          "internalType": "address",
          "name": "from",
          "type": "address"
        },
        {
          "internalType": "address",
          "name": "to",
          "type": "address"
        },
        {
          "internalType": "uint256",
          "name": "tokenId",
          "type": "uint256"
        }
      ],
      "name": "safeTransferFrom",
      "outputs": [],
      "stateMutability": "nonpayable",
      "type": "function"
    },
    {
      "inputs": [
        {
          "internalType": "address",
          "name": "from",
          "type": "address"
        },
        {
          "internalType": "address",
          "name": "to",
          "type": "address"
        },
        {
          "internalType": "uint256",
          "name": "tokenId",
          "type": "uint256"
        },
        {
          "internalType": "bytes",
          "name": "data",
          "type": "bytes"
        }
      ],
      "name": "safeTransferFrom",
      "outputs": [],
      "stateMutability": "nonpayable",
      "type": "function"
    },
    {
      "inputs": [
        {
          "internalType": "address",
          "name": "operator",
          "type": "address"
        },
        {
          "internalType": "bool",
          "name": "approved",
          "type": "bool"
        }
      ],
      "name": "setApprovalForAll",
      "outputs": [],
      "stateMutability": "nonpayable",
      "type": "function"
    },
    {
      "inputs": [
        {
          "internalType": "string",
          "name": "nameString",
          "type": "string"
        }
      ],
      "name": "setName",
      "outputs": [],
      "stateMutability": "nonpayable",
      "type": "function"
    },
    {
      "inputs": [
        {
          "internalType": "string",
          "name": "symbolString",
          "type": "string"
        }
      ],
      "name": "setSymbol",
      "outputs": [],
      "stateMutability": "nonpayable",
      "type": "function"
    },
    {
      "inputs": [
        {
          "internalType": "bytes4",
          "name": "interfaceId",
          "type": "bytes4"
        }
      ],
      "name": "supportsInterface",
      "outputs": [
        {
          "internalType": "bool",
          "name": "",
          "type": "bool"
        }
      ],
      "stateMutability": "view",
      "type": "function"
    },
    {
      "inputs": [],
      "name": "symbol",
      "outputs": [
        {
          "internalType": "string",
          "name": "",
          "type": "string"
        }
      ],
      "stateMutability": "view",
      "type": "function"
    },
    {
      "inputs": [
        {
          "internalType": "uint256",
          "name": "tokenId",
          "type": "uint256"
        }
      ],
      "name": "tokenURI",
      "outputs": [
        {
          "internalType": "string",
          "name": "",
          "type": "string"
        }
      ],
      "stateMutability": "view",
      "type": "function"
    },
    {
      "inputs": [
        {
          "internalType": "address",
          "name": "from",
          "type": "address"
        },
        {
          "internalType": "address",
          "name": "to",
          "type": "address"
        },
        {
          "internalType": "uint256",
          "name": "tokenId",
          "type": "uint256"
        }
      ],
      "name": "transferFrom",
      "outputs": [],
      "stateMutability": "nonpayable",
      "type": "function"
    }
  ],
  "bytecode": "0x608060405234801561001057600080fd5b506128fa806100206000396000f3fe608060405234801561001057600080fd5b50600436106100f55760003560e01c806370a0823111610097578063b88d4fde11610066578063b88d4fde14610282578063c47f00271461029e578063c87b56dd146102ba578063e985e9c5146102ea576100f5565b806370a08231146101fc57806395d89b411461022c578063a22cb4651461024a578063b84c824614610266576100f5565b8063095ea7b3116100d3578063095ea7b31461017857806323b872dd1461019457806342842e0e146101b05780636352211e146101cc576100f5565b806301ffc9a7146100fa57806306fdde031461012a578063081812fc14610148575b600080fd5b610114600480360381019061010f9190611739565b61031a565b6040516101219190611781565b60405180910390f35b6101326103fc565b60405161013f919061182c565b60405180910390f35b610162600480360381019061015d9190611884565b61048e565b60405161016f91906118f2565b60405180910390f35b610192600480360381019061018d9190611939565b6104d4565b005b6101ae60048036038101906101a99190611979565b6105eb565b005b6101ca60048036038101906101c59190611979565b61064b565b005b6101e660048036038101906101e19190611884565b61066b565b6040516101f391906118f2565b60405180910390f35b610216600480360381019061021191906119cc565b6106f1565b6040516102239190611a08565b60405180910390f35b6102346107a8565b604051610241919061182c565b60405180910390f35b610264600480360381019061025f9190611a4f565b61083a565b005b610280600480360381019061027b9190611bc4565b610850565b005b61029c60048036038101906102979190611cae565b6108b4565b005b6102b860048036038101906102b39190611bc4565b610916565b005b6102d460048036038101906102cf9190611884565b610979565b6040516102e1919061182c565b60405180910390f35b61030460048036038101906102ff9190611d31565b6109e1565b6040516103119190611781565b60405180910390f35b60007ffc9fdaac000000000000000000000000000000000000000000000000000000007bffffffffffffffffffffffffffffffffffffffffffffffffffffffff1916827bffffffffffffffffffffffffffffffffffffffffffffffffffffffff191614806103e557507f5b5e139f000000000000000000000000000000000000000000000000000000007bffffffffffffffffffffffffffffffffffffffffffffffffffffffff1916827bffffffffffffffffffffffffffffffffffffffffffffffffffffffff1916145b806103f557506103f482610a75565b5b9050919050565b60606000805461040b90611da0565b80601f016020809104026020016040519081016040528092919081815260200182805461043790611da0565b80156104845780601f1061045957610100808354040283529160200191610484565b820191906000526020600020905b81548152906001019060200180831161046757829003601f168201915b5050505050905090565b600061049982610adf565b6004600083815260200190815260200160002060009054906101000a900473ffffffffffffffffffffffffffffffffffffffff169050919050565b60006104df8261066b565b90508073ffffffffffffffffffffffffffffffffffffffff168373ffffffffffffffffffffffffffffffffffffffff160361054f576040517f08c379a000000000000000000000000000000000000000000000000000000000815260040161054690611e43565b60405180910390fd5b8073ffffffffffffffffffffffffffffffffffffffff1661056e610b2a565b73ffffffffffffffffffffffffffffffffffffffff16148061059d575061059c81610597610b2a565b6109e1565b5b6105dc576040517f08c379a00000000000000000000000000000000000000000000000000000000081526004016105d390611efb565b60405180910390fd5b6105e68383610b32565b505050565b6105fc6105f6610b2a565b82610beb565b61063b576040517f08c379a000000000000000000000000000000000000000000000000000000000815260040161063290611f8d565b60405180910390fd5b610646838383610c80565b505050565b610666838383604051806020016040528060008152506108b4565b505050565b60008061067783610f79565b9050600073ffffffffffffffffffffffffffffffffffffffff168173ffffffffffffffffffffffffffffffffffffffff16036106e8576040517f08c379a00000000000000000000000000000000000000000000000000000000081526004016106df9061201f565b60405180910390fd5b80915050919050565b60008073ffffffffffffffffffffffffffffffffffffffff168273ffffffffffffffffffffffffffffffffffffffff1603610761576040517f08c379a0000000000000000000000000000000000000000000000000000000008152600401610758906120b1565b60405180910390fd5b600360008373ffffffffffffffffffffffffffffffffffffffff1673ffffffffffffffffffffffffffffffffffffffff168152602001908152602001600020549050919050565b6060600180546107b790611da0565b80601f01602080910402602001604051908101604052809291908181526020018280546107e390611da0565b80156108305780601f1061080557610100808354040283529160200191610830565b820191906000526020600020905b81548152906001019060200180831161081357829003601f168201915b5050505050905090565b61084c610845610b2a565b8383610fb6565b5050565b60006001805461085f90611da0565b9050146108a1576040517f08c379a000000000000000000000000000000000000000000000000000000000815260040161089890612143565b60405180910390fd5b80600190816108b0919061230f565b5050565b6108c56108bf610b2a565b83610beb565b610904576040517f08c379a00000000000000000000000000000000000000000000000000000000081526004016108fb90611f8d565b60405180910390fd5b61091084848484611122565b50505050565b600080805461092490611da0565b905014610966576040517f08c379a000000000000000000000000000000000000000000000000000000000815260040161095d90612453565b60405180910390fd5b8060009081610975919061230f565b5050565b606061098482610adf565b600061098e61117e565b905060008151116109ae57604051806020016040528060008152506109d9565b806109b884611195565b6040516020016109c99291906124af565b6040516020818303038152906040525b915050919050565b6000600560008473ffffffffffffffffffffffffffffffffffffffff1673ffffffffffffffffffffffffffffffffffffffff16815260200190815260200160002060008373ffffffffffffffffffffffffffffffffffffffff1673ffffffffffffffffffffffffffffffffffffffff16815260200190815260200160002060009054906101000a900460ff16905092915050565b60007f01ffc9a7000000000000000000000000000000000000000000000000000000007bffffffffffffffffffffffffffffffffffffffffffffffffffffffff1916827bffffffffffffffffffffffffffffffffffffffffffffffffffffffff1916149050919050565b610ae881611263565b610b27576040517f08c379a0000000000000000000000000000000000000000000000000000000008152600401610b1e9061201f565b60405180910390fd5b50565b600033905090565b816004600083815260200190815260200160002060006101000a81548173ffffffffffffffffffffffffffffffffffffffff021916908373ffffffffffffffffffffffffffffffffffffffff160217905550808273ffffffffffffffffffffffffffffffffffffffff16610ba58361066b565b73ffffffffffffffffffffffffffffffffffffffff167f8c5be1e5ebec7d5bd14f71427d1e84f3dd0314c0f7b2291e5b200ac8c7c3b92560405160405180910390a45050565b600080610bf78361066b565b90508073ffffffffffffffffffffffffffffffffffffffff168473ffffffffffffffffffffffffffffffffffffffff161480610c395750610c3881856109e1565b5b80610c7757508373ffffffffffffffffffffffffffffffffffffffff16610c5f8461048e565b73ffffffffffffffffffffffffffffffffffffffff16145b91505092915050565b8273ffffffffffffffffffffffffffffffffffffffff16610ca08261066b565b73ffffffffffffffffffffffffffffffffffffffff1614610cf6576040517f08c379a0000000000000000000000000000000000000000000000000000000008152600401610ced90612545565b60405180910390fd5b600073ffffffffffffffffffffffffffffffffffffffff168273ffffffffffffffffffffffffffffffffffffffff1603610d65576040517f08c379a0000000000000000000000000000000000000000000000000000000008152600401610d5c906125d7565b60405180910390fd5b610d7283838360016112a4565b8273ffffffffffffffffffffffffffffffffffffffff16610d928261066b565b73ffffffffffffffffffffffffffffffffffffffff1614610de8576040517f08c379a0000000000000000000000000000000000000000000000000000000008152600401610ddf90612545565b60405180910390fd5b6004600082815260200190815260200160002060006101000a81549073ffffffffffffffffffffffffffffffffffffffff02191690556001600360008573ffffffffffffffffffffffffffffffffffffffff1673ffffffffffffffffffffffffffffffffffffffff168152602001908152602001600020600082825403925050819055506001600360008473ffffffffffffffffffffffffffffffffffffffff1673ffffffffffffffffffffffffffffffffffffffff16815260200190815260200160002060008282540192505081905550816002600083815260200190815260200160002060006101000a81548173ffffffffffffffffffffffffffffffffffffffff021916908373ffffffffffffffffffffffffffffffffffffffff160217905550808273ffffffffffffffffffffffffffffffffffffffff168473ffffffffffffffffffffffffffffffffffffffff167fddf252ad1be2c89b69c2b068fc378daa952ba7f163c4a11628f55a4df523b3ef60405160405180910390a4610f7483838360016113ca565b505050565b60006002600083815260200190815260200160002060009054906101000a900473ffffffffffffffffffffffffffffffffffffffff169050919050565b8173ffffffffffffffffffffffffffffffffffffffff168373ffffffffffffffffffffffffffffffffffffffff1603611024576040517f08c379a000000000000000000000000000000000000000000000000000000000815260040161101b90612669565b60405180910390fd5b80600560008573ffffffffffffffffffffffffffffffffffffffff1673ffffffffffffffffffffffffffffffffffffffff16815260200190815260200160002060008473ffffffffffffffffffffffffffffffffffffffff1673ffffffffffffffffffffffffffffffffffffffff16815260200190815260200160002060006101000a81548160ff0219169083151502179055508173ffffffffffffffffffffffffffffffffffffffff168373ffffffffffffffffffffffffffffffffffffffff167f17307eab39ab6107e8899845ad3d59bd9653f200f220920489ca2b5937696c31836040516111159190611781565b60405180910390a3505050565b61112d848484610c80565b611139848484846113d0565b611178576040517f08c379a000000000000000000000000000000000000000000000000000000000815260040161116f906126fb565b60405180910390fd5b50505050565b606060405180602001604052806000815250905090565b6060600060016111a484611557565b01905060008167ffffffffffffffff8111156111c3576111c2611a99565b5b6040519080825280601f01601f1916602001820160405280156111f55781602001600182028036833780820191505090505b509050600082602001820190505b600115611258578080600190039150507f3031323334353637383961626364656600000000000000000000000000000000600a86061a8153600a858161124c5761124b61271b565b5b04945060008503611203575b819350505050919050565b60008073ffffffffffffffffffffffffffffffffffffffff1661128583610f79565b73ffffffffffffffffffffffffffffffffffffffff1614159050919050565b60018111156113c457600073ffffffffffffffffffffffffffffffffffffffff168473ffffffffffffffffffffffffffffffffffffffff16146113385780600360008673ffffffffffffffffffffffffffffffffffffffff1673ffffffffffffffffffffffffffffffffffffffff16815260200190815260200160002060008282546113309190612779565b925050819055505b600073ffffffffffffffffffffffffffffffffffffffff168373ffffffffffffffffffffffffffffffffffffffff16146113c35780600360008573ffffffffffffffffffffffffffffffffffffffff1673ffffffffffffffffffffffffffffffffffffffff16815260200190815260200160002060008282546113bb91906127ad565b925050819055505b5b50505050565b50505050565b60006113f18473ffffffffffffffffffffffffffffffffffffffff166116aa565b1561154a578373ffffffffffffffffffffffffffffffffffffffff1663150b7a0261141a610b2a565b8786866040518563ffffffff1660e01b815260040161143c9493929190612836565b6020604051808303816000875af192505050801561147857506040513d601f19601f820116820180604052508101906114759190612897565b60015b6114fa573d80600081146114a8576040519150601f19603f3d011682016040523d82523d6000602084013e6114ad565b606091505b5060008151036114f2576040517f08c379a00000000000000000000000000000000000000000000000000000000081526004016114e9906126fb565b60405180910390fd5b805181602001fd5b63150b7a0260e01b7bffffffffffffffffffffffffffffffffffffffffffffffffffffffff1916817bffffffffffffffffffffffffffffffffffffffffffffffffffffffff19161491505061154f565b600190505b949350505050565b600080600090507a184f03e93ff9f4daa797ed6e38ed64bf6a1f01000000000000000083106115b5577a184f03e93ff9f4daa797ed6e38ed64bf6a1f01000000000000000083816115ab576115aa61271b565b5b0492506040810190505b6d04ee2d6d415b85acef810000000083106115f2576d04ee2d6d415b85acef810000000083816115e8576115e761271b565b5b0492506020810190505b662386f26fc10000831061162157662386f26fc1000083816116175761161661271b565b5b0492506010810190505b6305f5e100831061164a576305f5e10083816116405761163f61271b565b5b0492506008810190505b612710831061166f5761271083816116655761166461271b565b5b0492506004810190505b6064831061169257606483816116885761168761271b565b5b0492506002810190505b600a83106116a1576001810190505b80915050919050565b6000808273ffffffffffffffffffffffffffffffffffffffff163b119050919050565b6000604051905090565b600080fd5b600080fd5b60007fffffffff0000000000000000000000000000000000000000000000000000000082169050919050565b611716816116e1565b811461172157600080fd5b50565b6000813590506117338161170d565b92915050565b60006020828403121561174f5761174e6116d7565b5b600061175d84828501611724565b91505092915050565b60008115159050919050565b61177b81611766565b82525050565b60006020820190506117966000830184611772565b92915050565b600081519050919050565b600082825260208201905092915050565b60005b838110156117d65780820151818401526020810190506117bb565b60008484015250505050565b6000601f19601f8301169050919050565b60006117fe8261179c565b61180881856117a7565b93506118188185602086016117b8565b611821816117e2565b840191505092915050565b6000602082019050818103600083015261184681846117f3565b905092915050565b6000819050919050565b6118618161184e565b811461186c57600080fd5b50565b60008135905061187e81611858565b92915050565b60006020828403121561189a576118996116d7565b5b60006118a88482850161186f565b91505092915050565b600073ffffffffffffffffffffffffffffffffffffffff82169050919050565b60006118dc826118b1565b9050919050565b6118ec816118d1565b82525050565b600060208201905061190760008301846118e3565b92915050565b611916816118d1565b811461192157600080fd5b50565b6000813590506119338161190d565b92915050565b600080604083850312156119505761194f6116d7565b5b600061195e85828601611924565b925050602061196f8582860161186f565b9150509250929050565b600080600060608486031215611992576119916116d7565b5b60006119a086828701611924565b93505060206119b186828701611924565b92505060406119c28682870161186f565b9150509250925092565b6000602082840312156119e2576119e16116d7565b5b60006119f084828501611924565b91505092915050565b611a028161184e565b82525050565b6000602082019050611a1d60008301846119f9565b92915050565b611a2c81611766565b8114611a3757600080fd5b50565b600081359050611a4981611a23565b92915050565b60008060408385031215611a6657611a656116d7565b5b6000611a7485828601611924565b9250506020611a8585828601611a3a565b9150509250929050565b600080fd5b600080fd5b7f4e487b7100000000000000000000000000000000000000000000000000000000600052604160045260246000fd5b611ad1826117e2565b810181811067ffffffffffffffff82111715611af057611aef611a99565b5b80604052505050565b6000611b036116cd565b9050611b0f8282611ac8565b919050565b600067ffffffffffffffff821115611b2f57611b2e611a99565b5b611b38826117e2565b9050602081019050919050565b82818337600083830152505050565b6000611b67611b6284611b14565b611af9565b905082815260208101848484011115611b8357611b82611a94565b5b611b8e848285611b45565b509392505050565b600082601f830112611bab57611baa611a8f565b5b8135611bbb848260208601611b54565b91505092915050565b600060208284031215611bda57611bd96116d7565b5b600082013567ffffffffffffffff811115611bf857611bf76116dc565b5b611c0484828501611b96565b91505092915050565b600067ffffffffffffffff821115611c2857611c27611a99565b5b611c31826117e2565b9050602081019050919050565b6000611c51611c4c84611c0d565b611af9565b905082815260208101848484011115611c6d57611c6c611a94565b5b611c78848285611b45565b509392505050565b600082601f830112611c9557611c94611a8f565b5b8135611ca5848260208601611c3e565b91505092915050565b60008060008060808587031215611cc857611cc76116d7565b5b6000611cd687828801611924565b9450506020611ce787828801611924565b9350506040611cf88782880161186f565b925050606085013567ffffffffffffffff811115611d1957611d186116dc565b5b611d2587828801611c80565b91505092959194509250565b60008060408385031215611d4857611d476116d7565b5b6000611d5685828601611924565b9250506020611d6785828601611924565b9150509250929050565b7f4e487b7100000000000000000000000000000000000000000000000000000000600052602260045260246000fd5b60006002820490506001821680611db857607f821691505b602082108103611dcb57611dca611d71565b5b50919050565b7f455243373231436c6f6e6561626c653a20617070726f76616c20746f2063757260008201527f72656e74206f776e657200000000000000000000000000000000000000000000602082015250565b6000611e2d602a836117a7565b9150611e3882611dd1565b604082019050919050565b60006020820190508181036000830152611e5c81611e20565b9050919050565b7f455243373231436c6f6e6561626c653a20617070726f76652063616c6c65722060008201527f6973206e6f7420746f6b656e206f776e6572206f7220617070726f766564206660208201527f6f7220616c6c0000000000000000000000000000000000000000000000000000604082015250565b6000611ee56046836117a7565b9150611ef082611e63565b606082019050919050565b60006020820190508181036000830152611f1481611ed8565b9050919050565b7f455243373231436c6f6e6561626c653a2063616c6c6572206973206e6f74207460008201527f6f6b656e206f776e6572206f7220617070726f76656400000000000000000000602082015250565b6000611f776036836117a7565b9150611f8282611f1b565b604082019050919050565b60006020820190508181036000830152611fa681611f6a565b9050919050565b7f455243373231436c6f6e6561626c653a20696e76616c696420746f6b656e204960008201527f4400000000000000000000000000000000000000000000000000000000000000602082015250565b60006120096021836117a7565b915061201482611fad565b604082019050919050565b6000602082019050818103600083015261203881611ffc565b9050919050565b7f455243373231436c6f6e6561626c653a2061646472657373207a65726f20697360008201527f206e6f7420612076616c6964206f776e65720000000000000000000000000000602082015250565b600061209b6032836117a7565b91506120a68261203f565b604082019050919050565b600060208201905081810360008301526120ca8161208e565b9050919050565b7f455243373231436c6f6e6561626c653a2073796d626f6c20616c72656164792060008201527f7365740000000000000000000000000000000000000000000000000000000000602082015250565b600061212d6023836117a7565b9150612138826120d1565b604082019050919050565b6000602082019050818103600083015261215c81612120565b9050919050565b60008190508160005260206000209050919050565b60006020601f8301049050919050565b600082821b905092915050565b6000600883026121c57fffffffffffffffffffffffffffffffffffffffffffffffffffffffffffffffff82612188565b6121cf8683612188565b95508019841693508086168417925050509392505050565b6000819050919050565b600061220c6122076122028461184e565b6121e7565b61184e565b9050919050565b6000819050919050565b612226836121f1565b61223a61223282612213565b848454612195565b825550505050565b600090565b61224f612242565b61225a81848461221d565b505050565b5b8181101561227e57612273600082612247565b600181019050612260565b5050565b601f8211156122c35761229481612163565b61229d84612178565b810160208510156122ac578190505b6122c06122b885612178565b83018261225f565b50505b505050565b600082821c905092915050565b60006122e6600019846008026122c8565b1980831691505092915050565b60006122ff83836122d5565b9150826002028217905092915050565b6123188261179c565b67ffffffffffffffff81111561233157612330611a99565b5b61233b8254611da0565b612346828285612282565b600060209050601f8311600181146123795760008415612367578287015190505b61237185826122f3565b8655506123d9565b601f19841661238786612163565b60005b828110156123af5784890151825560018201915060208501945060208101905061238a565b868310156123cc57848901516123c8601f8916826122d5565b8355505b6001600288020188555050505b505050505050565b7f455243373231436c6f6e6561626c653a206e616d6520616c726561647920736560008201527f7400000000000000000000000000000000000000000000000000000000000000602082015250565b600061243d6021836117a7565b9150612448826123e1565b604082019050919050565b6000602082019050818103600083015261246c81612430565b9050919050565b600081905092915050565b60006124898261179c565b6124938185612473565b93506124a38185602086016117b8565b80840191505092915050565b60006124bb828561247e565b91506124c7828461247e565b91508190509392505050565b7f455243373231436c6f6e6561626c653a207472616e736665722066726f6d206960008201527f6e636f7272656374206f776e6572000000000000000000000000000000000000602082015250565b600061252f602e836117a7565b915061253a826124d3565b604082019050919050565b6000602082019050818103600083015261255e81612522565b9050919050565b7f455243373231436c6f6e6561626c653a207472616e7366657220746f2074686560008201527f207a65726f206164647265737300000000000000000000000000000000000000602082015250565b60006125c1602d836117a7565b91506125cc82612565565b604082019050919050565b600060208201905081810360008301526125f0816125b4565b9050919050565b7f455243373231436c6f6e6561626c653a20617070726f766520746f2063616c6c60008201527f6572000000000000000000000000000000000000000000000000000000000000602082015250565b60006126536022836117a7565b915061265e826125f7565b604082019050919050565b6000602082019050818103600083015261268281612646565b9050919050565b7f455243373231436c6f6e6561626c653a207472616e7366657220746f206e6f6e60008201527f20455243373231526563656976657220696d706c656d656e7465720000000000602082015250565b60006126e5603b836117a7565b91506126f082612689565b604082019050919050565b60006020820190508181036000830152612714816126d8565b9050919050565b7f4e487b7100000000000000000000000000000000000000000000000000000000600052601260045260246000fd5b7f4e487b7100000000000000000000000000000000000000000000000000000000600052601160045260246000fd5b60006127848261184e565b915061278f8361184e565b92508282039050818111156127a7576127a661274a565b5b92915050565b60006127b88261184e565b91506127c38361184e565b92508282019050808211156127db576127da61274a565b5b92915050565b600081519050919050565b600082825260208201905092915050565b6000612808826127e1565b61281281856127ec565b93506128228185602086016117b8565b61282b816117e2565b840191505092915050565b600060808201905061284b60008301876118e3565b61285860208301866118e3565b61286560408301856119f9565b818103606083015261287781846127fd565b905095945050505050565b6000815190506128918161170d565b92915050565b6000602082840312156128ad576128ac6116d7565b5b60006128bb84828501612882565b9150509291505056fea26469706673582212206756c3f7f4937bb67a69609c33fb161b4ff7e7fd8a52eb7a1ab2dc6ff6e4fb3b64736f6c63430008110033",
  "linkReferences": {},
  "deployedLinkReferences": {}
}