{
  "_format": "hh-sol-artifact-1",
  "contractName": "ContentStore",
  "sourceName": "src/contracts/libs/ethfs/ContentStore.sol",
  "abi": [
    {
      "inputs": [
        {
          "internalType": "bytes32",
          "name": "checksum",
          "type": "bytes32"
        }
      ],
      "name": "ChecksumExists",
      "type": "error"
    },
    {
      "inputs": [
        {
          "internalType": "bytes32",
          "name": "checksum",
          "type": "bytes32"
        }
      ],
      "name": "ChecksumNotFound",
      "type": "error"
    },
    {
      "anonymous": false,
      "inputs": [
        {
          "indexed": true,
          "internalType": "bytes32",
          "name": "checksum",
          "type": "bytes32"
        },
        {
          "indexed": false,
          "internalType": "uint256",
          "name": "contentSize",
          "type": "uint256"
        }
      ],
      "name": "NewChecksum",
      "type": "event"
    },
    {
      "inputs": [
        {
          "internalType": "bytes",
          "name": "content",
          "type": "bytes"
        }
      ],
      "name": "addContent",
      "outputs": [
        {
          "internalType": "bytes32",
          "name": "checksum",
          "type": "bytes32"
        },
        {
          "internalType": "address",
          "name": "pointer",
          "type": "address"
        }
      ],
      "stateMutability": "nonpayable",
      "type": "function"
    },
    {
      "inputs": [
        {
          "internalType": "address",
          "name": "pointer",
          "type": "address"
        }
      ],
      "name": "addPointer",
      "outputs": [
        {
          "internalType": "bytes32",
          "name": "checksum",
          "type": "bytes32"
        }
      ],
      "stateMutability": "nonpayable",
      "type": "function"
    },
    {
      "inputs": [
        {
          "internalType": "bytes32",
          "name": "checksum",
          "type": "bytes32"
        }
      ],
      "name": "checksumExists",
      "outputs": [
        {
          "internalType": "bool",
          "name": "",
          "type": "bool"
        }
      ],
      "stateMutability": "view",
      "type": "function"
    },
    {
      "inputs": [
        {
          "internalType": "bytes32",
          "name": "checksum",
          "type": "bytes32"
        }
      ],
      "name": "contentLength",
      "outputs": [
        {
          "internalType": "uint256",
          "name": "size",
          "type": "uint256"
        }
      ],
      "stateMutability": "view",
      "type": "function"
    },
    {
      "inputs": [
        {
          "internalType": "bytes32",
          "name": "checksum",
          "type": "bytes32"
        }
      ],
      "name": "getPointer",
      "outputs": [
        {
          "internalType": "address",
          "name": "pointer",
          "type": "address"
        }
      ],
      "stateMutability": "view",
      "type": "function"
    },
    {
      "inputs": [
        {
          "internalType": "bytes32",
          "name": "",
          "type": "bytes32"
        }
      ],
      "name": "pointers",
      "outputs": [
        {
          "internalType": "address",
          "name": "",
          "type": "address"
        }
      ],
      "stateMutability": "view",
      "type": "function"
    }
  ],
  "bytecode": "0x608060405234801561001057600080fd5b506109d7806100206000396000f3fe608060405234801561001057600080fd5b50600436106100625760003560e01c8063093e9839146100675780631bf226ac1461009857806331654b09146100c85780633a77c6c9146100f85780634641dce614610128578063f97406f714610158575b600080fd5b610081600480360381019061007c9190610783565b610188565b60405161008f929190610826565b60405180910390f35b6100b260048036038101906100ad919061087b565b6102d3565b6040516100bf91906108a8565b60405180910390f35b6100e260048036038101906100dd919061087b565b610306565b6040516100ef91906108dc565b60405180910390f35b610112600480360381019061010d9190610923565b610395565b60405161011f9190610950565b60405180910390f35b610142600480360381019061013d919061087b565b6104aa565b60405161014f91906108a8565b60405180910390f35b610172600480360381019061016d919061087b565b610530565b60405161017f9190610986565b60405180910390f35b60008082805190602001209150600073ffffffffffffffffffffffffffffffffffffffff1660008084815260200190815260200160002060009054906101000a900473ffffffffffffffffffffffffffffffffffffffff1673ffffffffffffffffffffffffffffffffffffffff1614610238578160008084815260200190815260200160002060009054906101000a900473ffffffffffffffffffffffffffffffffffffffff16915091506102ce565b6102418361059b565b90508060008084815260200190815260200160002060006101000a81548173ffffffffffffffffffffffffffffffffffffffff021916908373ffffffffffffffffffffffffffffffffffffffff160217905550817fa1011c3aaafa54b70d8ca12f3b9257ca9a4fe1f6a02196819ea1dcaee1932ca084516040516102c591906108dc565b60405180910390a25b915091565b60006020528060005260406000206000915054906101000a900473ffffffffffffffffffffffffffffffffffffffff1681565b600061031182610530565b61035257816040517f3001a1900000000000000000000000000000000000000000000000000000000081526004016103499190610950565b60405180910390fd5b61038d60008084815260200190815260200160002060009054906101000a900473ffffffffffffffffffffffffffffffffffffffff166105e0565b519050919050565b6000806103a1836105e0565b905080805190602001209150600073ffffffffffffffffffffffffffffffffffffffff1660008084815260200190815260200160002060009054906101000a900473ffffffffffffffffffffffffffffffffffffffff1673ffffffffffffffffffffffffffffffffffffffff161461041957506104a5565b8260008084815260200190815260200160002060006101000a81548173ffffffffffffffffffffffffffffffffffffffff021916908373ffffffffffffffffffffffffffffffffffffffff160217905550817fa1011c3aaafa54b70d8ca12f3b9257ca9a4fe1f6a02196819ea1dcaee1932ca0825160405161049b91906108dc565b60405180910390a2505b919050565b60006104b582610530565b6104f657816040517f3001a1900000000000000000000000000000000000000000000000000000000081526004016104ed9190610950565b60405180910390fd5b60008083815260200190815260200160002060009054906101000a900473ffffffffffffffffffffffffffffffffffffffff169050919050565b60008073ffffffffffffffffffffffffffffffffffffffff1660008084815260200190815260200160002060009054906101000a900473ffffffffffffffffffffffffffffffffffffffff1673ffffffffffffffffffffffffffffffffffffffff1614159050919050565b60008151600181018060401b6a61000080600a3d393df300178452600a8101601585016000f09250826105d65763301164256000526004601cfd5b8184525050919050565b6060813b806105f7576311052bb46000526004601cfd5b60018103604051925061ffe0603f820116830160405280835260008160208501015280600160208501863c5050919050565b6000604051905090565b600080fd5b600080fd5b600080fd5b600080fd5b6000601f19601f8301169050919050565b7f4e487b7100000000000000000000000000000000000000000000000000000000600052604160045260246000fd5b61069082610647565b810181811067ffffffffffffffff821117156106af576106ae610658565b5b80604052505050565b60006106c2610629565b90506106ce8282610687565b919050565b600067ffffffffffffffff8211156106ee576106ed610658565b5b6106f782610647565b9050602081019050919050565b82818337600083830152505050565b6000610726610721846106d3565b6106b8565b90508281526020810184848401111561074257610741610642565b5b61074d848285610704565b509392505050565b600082601f83011261076a5761076961063d565b5b813561077a848260208601610713565b91505092915050565b60006020828403121561079957610798610633565b5b600082013567ffffffffffffffff8111156107b7576107b6610638565b5b6107c384828501610755565b91505092915050565b6000819050919050565b6107df816107cc565b82525050565b600073ffffffffffffffffffffffffffffffffffffffff82169050919050565b6000610810826107e5565b9050919050565b61082081610805565b82525050565b600060408201905061083b60008301856107d6565b6108486020830184610817565b9392505050565b610858816107cc565b811461086357600080fd5b50565b6000813590506108758161084f565b92915050565b60006020828403121561089157610890610633565b5b600061089f84828501610866565b91505092915050565b60006020820190506108bd6000830184610817565b92915050565b6000819050919050565b6108d6816108c3565b82525050565b60006020820190506108f160008301846108cd565b92915050565b61090081610805565b811461090b57600080fd5b50565b60008135905061091d816108f7565b92915050565b60006020828403121561093957610938610633565b5b60006109478482850161090e565b91505092915050565b600060208201905061096560008301846107d6565b92915050565b60008115159050919050565b6109808161096b565b82525050565b600060208201905061099b6000830184610977565b9291505056fea26469706673582212201498b7d39b4d59efed31f63453c6d2e7df8306ced47da22640fb25b8856a697964736f6c63430008110033",
  "linkReferences": {},
  "deployedLinkReferences": {}
}