{
  "_format": "hh-sol-artifact-1",
  "contractName": "ETHFSFileStorage",
  "sourceName": "src/contracts/scripty/externalStorage/ethfs/ETHFSFileStorage.sol",
  "abi": [
    {
      "inputs": [
        {
          "internalType": "address",
          "name": "_fileStoreAddress",
          "type": "address"
        }
      ],
      "stateMutability": "nonpayable",
      "type": "constructor"
    },
    {
      "inputs": [],
      "name": "fileStore",
      "outputs": [
        {
          "internalType": "contract IFileStore",
          "name": "",
          "type": "address"
        }
      ],
      "stateMutability": "view",
      "type": "function"
    },
    {
      "inputs": [
        {
          "internalType": "string",
          "name": "name",
          "type": "string"
        },
        {
          "internalType": "bytes",
          "name": "data",
          "type": "bytes"
        }
      ],
      "name": "getScript",
      "outputs": [
        {
          "internalType": "bytes",
          "name": "script",
          "type": "bytes"
        }
      ],
      "stateMutability": "view",
      "type": "function"
    }
  ],
  "bytecode": "0x60a060405234801561001057600080fd5b50604051610976380380610976833981810160405281019061003291906100cf565b8073ffffffffffffffffffffffffffffffffffffffff1660808173ffffffffffffffffffffffffffffffffffffffff1681525050506100fc565b600080fd5b600073ffffffffffffffffffffffffffffffffffffffff82169050919050565b600061009c82610071565b9050919050565b6100ac81610091565b81146100b757600080fd5b50565b6000815190506100c9816100a3565b92915050565b6000602082840312156100e5576100e461006c565b5b60006100f3848285016100ba565b91505092915050565b60805161085a61011c60003960008181608b015260b4015261085a6000f3fe608060405234801561001057600080fd5b50600436106100365760003560e01c806321ea07e11461003b578063f963559414610059575b600080fd5b610043610089565b6040516100509190610254565b60405180910390f35b610073600480360381019061006e9190610429565b6100ad565b6040516100809190610524565b60405180910390f35b7f000000000000000000000000000000000000000000000000000000000000000081565b60606101587f000000000000000000000000000000000000000000000000000000000000000073ffffffffffffffffffffffffffffffffffffffff1663e0876aa886866040518363ffffffff1660e01b815260040161010d929190610584565b600060405180830381865afa15801561012a573d6000803e3d6000fd5b505050506040513d6000823e3d601f19601f8201168201806040525081019061015391906107db565b610161565b90509392505050565b60606000826020015190508051602060405193506000806000805b858110156101b657602081026020018701519250602083015191506001823b039350836001868a01843c838501945060018101905061017c565b50602084038752601f19601f8501168701604052505050505050919050565b600073ffffffffffffffffffffffffffffffffffffffff82169050919050565b6000819050919050565b600061021a610215610210846101d5565b6101f5565b6101d5565b9050919050565b600061022c826101ff565b9050919050565b600061023e82610221565b9050919050565b61024e81610233565b82525050565b60006020820190506102696000830184610245565b92915050565b6000604051905090565b600080fd5b600080fd5b600080fd5b600080fd5b600080fd5b60008083601f8401126102a8576102a7610283565b5b8235905067ffffffffffffffff8111156102c5576102c4610288565b5b6020830191508360018202830111156102e1576102e061028d565b5b9250929050565b600080fd5b6000601f19601f8301169050919050565b7f4e487b7100000000000000000000000000000000000000000000000000000000600052604160045260246000fd5b610336826102ed565b810181811067ffffffffffffffff82111715610355576103546102fe565b5b80604052505050565b600061036861026f565b9050610374828261032d565b919050565b600067ffffffffffffffff821115610394576103936102fe565b5b61039d826102ed565b9050602081019050919050565b82818337600083830152505050565b60006103cc6103c784610379565b61035e565b9050828152602081018484840111156103e8576103e76102e8565b5b6103f38482856103aa565b509392505050565b600082601f8301126104105761040f610283565b5b81356104208482602086016103b9565b91505092915050565b60008060006040848603121561044257610441610279565b5b600084013567ffffffffffffffff8111156104605761045f61027e565b5b61046c86828701610292565b9350935050602084013567ffffffffffffffff81111561048f5761048e61027e565b5b61049b868287016103fb565b9150509250925092565b600081519050919050565b600082825260208201905092915050565b60005b838110156104df5780820151818401526020810190506104c4565b60008484015250505050565b60006104f6826104a5565b61050081856104b0565b93506105108185602086016104c1565b610519816102ed565b840191505092915050565b6000602082019050818103600083015261053e81846104eb565b905092915050565b600082825260208201905092915050565b60006105638385610546565b93506105708385846103aa565b610579836102ed565b840190509392505050565b6000602082019050818103600083015261059f818486610557565b90509392505050565b600080fd5b600080fd5b6000819050919050565b6105c5816105b2565b81146105d057600080fd5b50565b6000815190506105e2816105bc565b92915050565b600067ffffffffffffffff821115610603576106026102fe565b5b602082029050602081019050919050565b6000819050919050565b61062781610614565b811461063257600080fd5b50565b6000815190506106448161061e565b92915050565b6000610655826101d5565b9050919050565b6106658161064a565b811461067057600080fd5b50565b6000815190506106828161065c565b92915050565b60006040828403121561069e5761069d6105a8565b5b6106a8604061035e565b905060006106b884828501610635565b60008301525060206106cc84828501610673565b60208301525092915050565b60006106eb6106e6846105e8565b61035e565b9050808382526020820190506040840283018581111561070e5761070d61028d565b5b835b8181101561073757806107238882610688565b845260208401935050604081019050610710565b5050509392505050565b600082601f83011261075657610755610283565b5b81516107668482602086016106d8565b91505092915050565b600060408284031215610785576107846105a8565b5b61078f604061035e565b9050600061079f848285016105d3565b600083015250602082015167ffffffffffffffff8111156107c3576107c26105ad565b5b6107cf84828501610741565b60208301525092915050565b6000602082840312156107f1576107f0610279565b5b600082015167ffffffffffffffff81111561080f5761080e61027e565b5b61081b8482850161076f565b9150509291505056fea264697066735822122062a2761665674c61151fbb108b7041a19db967bd8ef061ad3cdba5931e6d1e5664736f6c63430008110033",
  "linkReferences": {},
  "deployedLinkReferences": {}
}