{
  "src/services/chain-sim/contracts/FrameFactory.sol": {
    "FrameFactory": {
      "abi": [
        {
          "inputs": [],
          "stateMutability": "nonpayable",
          "type": "constructor"
        },
        {
          "anonymous": false,
          "inputs": [
            {
              "indexed": false,
              "internalType": "address",
              "name": "newAddress",
              "type": "address"
            }
          ],
          "name": "FrameCreated",
          "type": "event"
        },
        {
          "inputs": [
            {
              "internalType": "address",
              "name": "_coreDepStorage",
              "type": "address"
            },
            {
              "internalType": "contract FrameDataStoreFactory",
              "name": "_frameDataStoreFactory",
              "type": "address"
            },
            {
              "internalType": "string[2][]",
              "name": "_deps",
              "type": "string[2][]"
            },
            {
              "internalType": "string[2][]",
              "name": "_assets",
              "type": "string[2][]"
            },
            {
              "internalType": "uint256[4][]",
              "name": "_renderIndex",
              "type": "uint256[4][]"
            }
          ],
          "name": "createFrame",
          "outputs": [
            {
              "internalType": "address",
              "name": "",
              "type": "address"
            }
          ],
          "stateMutability": "nonpayable",
          "type": "function"
        },
        {
          "inputs": [
            {
              "internalType": "address",
              "name": "_coreDepStorage",
              "type": "address"
            },
            {
              "internalType": "contract FrameDataStoreFactory",
              "name": "_frameDataStoreFactory",
              "type": "address"
            },
            {
              "internalType": "string[2][]",
              "name": "_deps",
              "type": "string[2][]"
            },
            {
              "internalType": "string[2][]",
              "name": "_assets",
              "type": "string[2][]"
            },
            {
              "internalType": "bytes[]",
              "name": "_assetsData",
              "type": "bytes[]"
            },
            {
              "internalType": "uint256[4][]",
              "name": "_renderIndex",
              "type": "uint256[4][]"
            }
          ],
          "name": "createFrameWithSources",
          "outputs": [
            {
              "internalType": "address",
              "name": "",
              "type": "address"
            }
          ],
          "stateMutability": "nonpayable",
          "type": "function"
        },
        {
          "inputs": [],
          "name": "libraryAddress",
          "outputs": [
            {
              "internalType": "address",
              "name": "",
              "type": "address"
            }
          ],
          "stateMutability": "view",
          "type": "function"
        },
        {
          "inputs": [
            {
              "internalType": "address",
              "name": "_libraryAddress",
              "type": "address"
            }
          ],
          "name": "setLibraryAddress",
          "outputs": [],
          "stateMutability": "nonpayable",
          "type": "function"
        }
      ],
      "evm": {
        "bytecode": {
          "linkReferences": {},
          "object": "608060405234801561001057600080fd5b5061105b806100206000396000f3fe608060405234801561001057600080fd5b506004361061004c5760003560e01c80634863ba1714610051578063b816f5131461006d578063c80a89231461008b578063f9e19d2d146100bb575b600080fd5b61006b600480360381019061006691906105ed565b6100eb565b005b61007561012e565b6040516100829190610629565b60405180910390f35b6100a560048036038101906100a0919061073d565b610152565b6040516100b29190610629565b60405180910390f35b6100d560048036038101906100d0919061086f565b6102b6565b6040516100e29190610629565b60405180910390f35b806000806101000a81548173ffffffffffffffffffffffffffffffffffffffff021916908373ffffffffffffffffffffffffffffffffffffffff16021790555050565b60008054906101000a900473ffffffffffffffffffffffffffffffffffffffff1681565b60008061017e60008054906101000a900473ffffffffffffffffffffffffffffffffffffffff1661051b565b905060008973ffffffffffffffffffffffffffffffffffffffff166366f4a19e6040518163ffffffff1660e01b81526004016020604051808303816000875af11580156101cf573d6000803e3d6000fd5b505050506040513d601f19601f820116820180604052508101906101f39190610994565b90508173ffffffffffffffffffffffffffffffffffffffff16634f5ea5cc8c838c8c8c8c8c8c6040518963ffffffff1660e01b815260040161023c989796959493929190610ce3565b600060405180830381600087803b15801561025657600080fd5b505af115801561026a573d6000803e3d6000fd5b505050507f62392641265fcc5a6a8128fd39634480ffe377e76dc54dcad335e1289fcc0fd58260405161029d9190610629565b60405180910390a1819250505098975050505050505050565b6000806102e260008054906101000a900473ffffffffffffffffffffffffffffffffffffffff1661051b565b905060008b73ffffffffffffffffffffffffffffffffffffffff166366f4a19e6040518163ffffffff1660e01b81526004016020604051808303816000875af1158015610333573d6000803e3d6000fd5b505050506040513d601f19601f820116820180604052508101906103579190610994565b90508173ffffffffffffffffffffffffffffffffffffffff16634f5ea5cc8e838e8e8e8e8c8c6040518963ffffffff1660e01b81526004016103a0989796959493929190610ce3565b600060405180830381600087803b1580156103ba57600080fd5b505af11580156103ce573d6000803e3d6000fd5b505050507f62392641265fcc5a6a8128fd39634480ffe377e76dc54dcad335e1289fcc0fd5826040516104019190610629565b60405180910390a160005b87879050811015610507578173ffffffffffffffffffffffffffffffffffffffff16636af42a8c8b8b8481811061044657610445610d51565b5b90506020028101906104589190610d8f565b60016002811061046b5761046a610d51565b5b60200281019061047b9190610db7565b60008c8c878181106104905761048f610d51565b5b90506020028101906104a29190610e1a565b6040518663ffffffff1660e01b81526004016104c2959493929190610f5a565b600060405180830381600087803b1580156104dc57600080fd5b505af11580156104f0573d6000803e3d6000fd5b5050505080806104ff90610fdc565b91505061040c565b5081925050509a9950505050505050505050565b6000808260601b90506040517f3d602d80600a3d3981f3363d3d373d3d3d363d7300000000000000000000000081528160148201527f5af43d82803e903d91602b57fd5bf3000000000000000000000000000000000060288201526037816000f092505050919050565b600080fd5b600080fd5b600073ffffffffffffffffffffffffffffffffffffffff82169050919050565b60006105ba8261058f565b9050919050565b6105ca816105af565b81146105d557600080fd5b50565b6000813590506105e7816105c1565b92915050565b60006020828403121561060357610602610585565b5b6000610611848285016105d8565b91505092915050565b610623816105af565b82525050565b600060208201905061063e600083018461061a565b92915050565b600061064f826105af565b9050919050565b61065f81610644565b811461066a57600080fd5b50565b60008135905061067c81610656565b92915050565b600080fd5b600080fd5b600080fd5b60008083601f8401126106a7576106a6610682565b5b8235905067ffffffffffffffff8111156106c4576106c3610687565b5b6020830191508360208202830111156106e0576106df61068c565b5b9250929050565b60008083601f8401126106fd576106fc610682565b5b8235905067ffffffffffffffff81111561071a57610719610687565b5b6020830191508360808202830111156107365761073561068c565b5b9250929050565b60008060008060008060008060a0898b03121561075d5761075c610585565b5b600061076b8b828c016105d8565b985050602061077c8b828c0161066d565b975050604089013567ffffffffffffffff81111561079d5761079c61058a565b5b6107a98b828c01610691565b9650965050606089013567ffffffffffffffff8111156107cc576107cb61058a565b5b6107d88b828c01610691565b9450945050608089013567ffffffffffffffff8111156107fb576107fa61058a565b5b6108078b828c016106e7565b92509250509295985092959890939650565b60008083601f84011261082f5761082e610682565b5b8235905067ffffffffffffffff81111561084c5761084b610687565b5b6020830191508360208202830111156108685761086761068c565b5b9250929050565b60008060008060008060008060008060c08b8d03121561089257610891610585565b5b60006108a08d828e016105d8565b9a505060206108b18d828e0161066d565b99505060408b013567ffffffffffffffff8111156108d2576108d161058a565b5b6108de8d828e01610691565b985098505060608b013567ffffffffffffffff8111156109015761090061058a565b5b61090d8d828e01610691565b965096505060808b013567ffffffffffffffff8111156109305761092f61058a565b5b61093c8d828e01610819565b945094505060a08b013567ffffffffffffffff81111561095f5761095e61058a565b5b61096b8d828e016106e7565b92509250509295989b9194979a5092959850565b60008151905061098e816105c1565b92915050565b6000602082840312156109aa576109a9610585565b5b60006109b88482850161097f565b91505092915050565b600082825260208201905092915050565b6000819050919050565b600060029050919050565b600081905092915050565b6000819050919050565b600082825260208201905092915050565b82818337600083830152505050565b6000601f19601f8301169050919050565b6000610a3983856109fc565b9350610a46838584610a0d565b610a4f83610a1c565b840190509392505050565b6000610a67848484610a2d565b90509392505050565b600080fd5b600080fd5b600080fd5b60008083356001602003843603038112610a9c57610a9b610a7a565b5b83810192508235915060208301925067ffffffffffffffff821115610ac457610ac3610a70565b5b600182023603841315610ada57610ad9610a75565b5b509250929050565b6000602082019050919050565b6000610afa826109dc565b610b0481856109e7565b935083602082028501610b16856109f2565b8060005b85811015610b5c578484038952610b318284610a7f565b610b3c868284610a5a565b9550610b4784610ae2565b935060208b019a505050600181019050610b1a565b50829750879550505050505092915050565b6000610b7a8383610aef565b905092915050565b600082356001604003833603038112610b9e57610b9d610a7a565b5b82810191505092915050565b6000602082019050919050565b6000610bc383856109c1565b935083602084028501610bd5846109d2565b8060005b87811015610c19578484038952610bf08284610b82565b610bfa8582610b6e565b9450610c0583610baa565b925060208a01995050600181019050610bd9565b50829750879450505050509392505050565b600082825260208201905092915050565b6000819050919050565b610c5260808383610a0d565b5050565b6000610c628383610c46565b60808301905092915050565b600082905092915050565b6000608082019050919050565b6000610c928385610c2b565b9350610c9d82610c3c565b8060005b85811015610cd657610cb38284610c6e565b610cbd8882610c56565b9750610cc883610c79565b925050600181019050610ca1565b5085925050509392505050565b600060a082019050610cf8600083018b61061a565b610d05602083018a61061a565b8181036040830152610d1881888a610bb7565b90508181036060830152610d2d818688610bb7565b90508181036080830152610d42818486610c86565b90509998505050505050505050565b7f4e487b7100000000000000000000000000000000000000000000000000000000600052603260045260246000fd5b600080fd5b600080fd5b600080fd5b600082356001604003833603038112610dab57610daa610d80565b5b80830191505092915050565b60008083356001602003843603038112610dd457610dd3610d80565b5b80840192508235915067ffffffffffffffff821115610df657610df5610d85565b5b602083019250600182023603831315610e1257610e11610d8a565b5b509250929050565b60008083356001602003843603038112610e3757610e36610d80565b5b80840192508235915067ffffffffffffffff821115610e5957610e58610d85565b5b602083019250600182023603831315610e7557610e74610d8a565b5b509250929050565b600082825260208201905092915050565b6000610e9a8385610e7d565b9350610ea7838584610a0d565b610eb083610a1c565b840190509392505050565b6000819050919050565b60006fffffffffffffffffffffffffffffffff82169050919050565b6000819050919050565b6000610f06610f01610efc84610ebb565b610ee1565b610ec5565b9050919050565b610f1681610eeb565b82525050565b600082825260208201905092915050565b6000610f398385610f1c565b9350610f46838584610a0d565b610f4f83610a1c565b840190509392505050565b60006060820190508181036000830152610f75818789610e8e565b9050610f846020830186610f0d565b8181036040830152610f97818486610f2d565b90509695505050505050565b7f4e487b7100000000000000000000000000000000000000000000000000000000600052601160045260246000fd5b6000819050919050565b6000610fe782610fd2565b91507fffffffffffffffffffffffffffffffffffffffffffffffffffffffffffffffff82141561101a57611019610fa3565b5b60018201905091905056fea264697066735822122033ffc280499c5ce475c08bae91ea7e4e098c28c7448bad9ef93d3baca6e0dcd064736f6c634300080c0033",
          "opcodes": "PUSH1 0x80 PUSH1 0x40 MSTORE CALLVALUE DUP1 ISZERO PUSH2 0x10 JUMPI PUSH1 0x0 DUP1 REVERT JUMPDEST POP PUSH2 0x105B DUP1 PUSH2 0x20 PUSH1 0x0 CODECOPY PUSH1 0x0 RETURN INVALID PUSH1 0x80 PUSH1 0x40 MSTORE CALLVALUE DUP1 ISZERO PUSH2 0x10 JUMPI PUSH1 0x0 DUP1 REVERT JUMPDEST POP PUSH1 0x4 CALLDATASIZE LT PUSH2 0x4C JUMPI PUSH1 0x0 CALLDATALOAD PUSH1 0xE0 SHR DUP1 PUSH4 0x4863BA17 EQ PUSH2 0x51 JUMPI DUP1 PUSH4 0xB816F513 EQ PUSH2 0x6D JUMPI DUP1 PUSH4 0xC80A8923 EQ PUSH2 0x8B JUMPI DUP1 PUSH4 0xF9E19D2D EQ PUSH2 0xBB JUMPI JUMPDEST PUSH1 0x0 DUP1 REVERT JUMPDEST PUSH2 0x6B PUSH1 0x4 DUP1 CALLDATASIZE SUB DUP2 ADD SWAP1 PUSH2 0x66 SWAP2 SWAP1 PUSH2 0x5ED JUMP JUMPDEST PUSH2 0xEB JUMP JUMPDEST STOP JUMPDEST PUSH2 0x75 PUSH2 0x12E JUMP JUMPDEST PUSH1 0x40 MLOAD PUSH2 0x82 SWAP2 SWAP1 PUSH2 0x629 JUMP JUMPDEST PUSH1 0x40 MLOAD DUP1 SWAP2 SUB SWAP1 RETURN JUMPDEST PUSH2 0xA5 PUSH1 0x4 DUP1 CALLDATASIZE SUB DUP2 ADD SWAP1 PUSH2 0xA0 SWAP2 SWAP1 PUSH2 0x73D JUMP JUMPDEST PUSH2 0x152 JUMP JUMPDEST PUSH1 0x40 MLOAD PUSH2 0xB2 SWAP2 SWAP1 PUSH2 0x629 JUMP JUMPDEST PUSH1 0x40 MLOAD DUP1 SWAP2 SUB SWAP1 RETURN JUMPDEST PUSH2 0xD5 PUSH1 0x4 DUP1 CALLDATASIZE SUB DUP2 ADD SWAP1 PUSH2 0xD0 SWAP2 SWAP1 PUSH2 0x86F JUMP JUMPDEST PUSH2 0x2B6 JUMP JUMPDEST PUSH1 0x40 MLOAD PUSH2 0xE2 SWAP2 SWAP1 PUSH2 0x629 JUMP JUMPDEST PUSH1 0x40 MLOAD DUP1 SWAP2 SUB SWAP1 RETURN JUMPDEST DUP1 PUSH1 0x0 DUP1 PUSH2 0x100 EXP DUP2 SLOAD DUP2 PUSH20 0xFFFFFFFFFFFFFFFFFFFFFFFFFFFFFFFFFFFFFFFF MUL NOT AND SWAP1 DUP4 PUSH20 0xFFFFFFFFFFFFFFFFFFFFFFFFFFFFFFFFFFFFFFFF AND MUL OR SWAP1 SSTORE POP POP JUMP JUMPDEST PUSH1 0x0 DUP1 SLOAD SWAP1 PUSH2 0x100 EXP SWAP1 DIV PUSH20 0xFFFFFFFFFFFFFFFFFFFFFFFFFFFFFFFFFFFFFFFF AND DUP2 JUMP JUMPDEST PUSH1 0x0 DUP1 PUSH2 0x17E PUSH1 0x0 DUP1 SLOAD SWAP1 PUSH2 0x100 EXP SWAP1 DIV PUSH20 0xFFFFFFFFFFFFFFFFFFFFFFFFFFFFFFFFFFFFFFFF AND PUSH2 0x51B JUMP JUMPDEST SWAP1 POP PUSH1 0x0 DUP10 PUSH20 0xFFFFFFFFFFFFFFFFFFFFFFFFFFFFFFFFFFFFFFFF AND PUSH4 0x66F4A19E PUSH1 0x40 MLOAD DUP2 PUSH4 0xFFFFFFFF AND PUSH1 0xE0 SHL DUP2 MSTORE PUSH1 0x4 ADD PUSH1 0x20 PUSH1 0x40 MLOAD DUP1 DUP4 SUB DUP2 PUSH1 0x0 DUP8 GAS CALL ISZERO DUP1 ISZERO PUSH2 0x1CF JUMPI RETURNDATASIZE PUSH1 0x0 DUP1 RETURNDATACOPY RETURNDATASIZE PUSH1 0x0 REVERT JUMPDEST POP POP POP POP PUSH1 0x40 MLOAD RETURNDATASIZE PUSH1 0x1F NOT PUSH1 0x1F DUP3 ADD AND DUP3 ADD DUP1 PUSH1 0x40 MSTORE POP DUP2 ADD SWAP1 PUSH2 0x1F3 SWAP2 SWAP1 PUSH2 0x994 JUMP JUMPDEST SWAP1 POP DUP2 PUSH20 0xFFFFFFFFFFFFFFFFFFFFFFFFFFFFFFFFFFFFFFFF AND PUSH4 0x4F5EA5CC DUP13 DUP4 DUP13 DUP13 DUP13 DUP13 DUP13 DUP13 PUSH1 0x40 MLOAD DUP10 PUSH4 0xFFFFFFFF AND PUSH1 0xE0 SHL DUP2 MSTORE PUSH1 0x4 ADD PUSH2 0x23C SWAP9 SWAP8 SWAP7 SWAP6 SWAP5 SWAP4 SWAP3 SWAP2 SWAP1 PUSH2 0xCE3 JUMP JUMPDEST PUSH1 0x0 PUSH1 0x40 MLOAD DUP1 DUP4 SUB DUP2 PUSH1 0x0 DUP8 DUP1 EXTCODESIZE ISZERO DUP1 ISZERO PUSH2 0x256 JUMPI PUSH1 0x0 DUP1 REVERT JUMPDEST POP GAS CALL ISZERO DUP1 ISZERO PUSH2 0x26A JUMPI RETURNDATASIZE PUSH1 0x0 DUP1 RETURNDATACOPY RETURNDATASIZE PUSH1 0x0 REVERT JUMPDEST POP POP POP POP PUSH32 0x62392641265FCC5A6A8128FD39634480FFE377E76DC54DCAD335E1289FCC0FD5 DUP3 PUSH1 0x40 MLOAD PUSH2 0x29D SWAP2 SWAP1 PUSH2 0x629 JUMP JUMPDEST PUSH1 0x40 MLOAD DUP1 SWAP2 SUB SWAP1 LOG1 DUP2 SWAP3 POP POP POP SWAP9 SWAP8 POP POP POP POP POP POP POP POP JUMP JUMPDEST PUSH1 0x0 DUP1 PUSH2 0x2E2 PUSH1 0x0 DUP1 SLOAD SWAP1 PUSH2 0x100 EXP SWAP1 DIV PUSH20 0xFFFFFFFFFFFFFFFFFFFFFFFFFFFFFFFFFFFFFFFF AND PUSH2 0x51B JUMP JUMPDEST SWAP1 POP PUSH1 0x0 DUP12 PUSH20 0xFFFFFFFFFFFFFFFFFFFFFFFFFFFFFFFFFFFFFFFF AND PUSH4 0x66F4A19E PUSH1 0x40 MLOAD DUP2 PUSH4 0xFFFFFFFF AND PUSH1 0xE0 SHL DUP2 MSTORE PUSH1 0x4 ADD PUSH1 0x20 PUSH1 0x40 MLOAD DUP1 DUP4 SUB DUP2 PUSH1 0x0 DUP8 GAS CALL ISZERO DUP1 ISZERO PUSH2 0x333 JUMPI RETURNDATASIZE PUSH1 0x0 DUP1 RETURNDATACOPY RETURNDATASIZE PUSH1 0x0 REVERT JUMPDEST POP POP POP POP PUSH1 0x40 MLOAD RETURNDATASIZE PUSH1 0x1F NOT PUSH1 0x1F DUP3 ADD AND DUP3 ADD DUP1 PUSH1 0x40 MSTORE POP DUP2 ADD SWAP1 PUSH2 0x357 SWAP2 SWAP1 PUSH2 0x994 JUMP JUMPDEST SWAP1 POP DUP2 PUSH20 0xFFFFFFFFFFFFFFFFFFFFFFFFFFFFFFFFFFFFFFFF AND PUSH4 0x4F5EA5CC DUP15 DUP4 DUP15 DUP15 DUP15 DUP15 DUP13 DUP13 PUSH1 0x40 MLOAD DUP10 PUSH4 0xFFFFFFFF AND PUSH1 0xE0 SHL DUP2 MSTORE PUSH1 0x4 ADD PUSH2 0x3A0 SWAP9 SWAP8 SWAP7 SWAP6 SWAP5 SWAP4 SWAP3 SWAP2 SWAP1 PUSH2 0xCE3 JUMP JUMPDEST PUSH1 0x0 PUSH1 0x40 MLOAD DUP1 DUP4 SUB DUP2 PUSH1 0x0 DUP8 DUP1 EXTCODESIZE ISZERO DUP1 ISZERO PUSH2 0x3BA JUMPI PUSH1 0x0 DUP1 REVERT JUMPDEST POP GAS CALL ISZERO DUP1 ISZERO PUSH2 0x3CE JUMPI RETURNDATASIZE PUSH1 0x0 DUP1 RETURNDATACOPY RETURNDATASIZE PUSH1 0x0 REVERT JUMPDEST POP POP POP POP PUSH32 0x62392641265FCC5A6A8128FD39634480FFE377E76DC54DCAD335E1289FCC0FD5 DUP3 PUSH1 0x40 MLOAD PUSH2 0x401 SWAP2 SWAP1 PUSH2 0x629 JUMP JUMPDEST PUSH1 0x40 MLOAD DUP1 SWAP2 SUB SWAP1 LOG1 PUSH1 0x0 JUMPDEST DUP8 DUP8 SWAP1 POP DUP2 LT ISZERO PUSH2 0x507 JUMPI DUP2 PUSH20 0xFFFFFFFFFFFFFFFFFFFFFFFFFFFFFFFFFFFFFFFF AND PUSH4 0x6AF42A8C DUP12 DUP12 DUP5 DUP2 DUP2 LT PUSH2 0x446 JUMPI PUSH2 0x445 PUSH2 0xD51 JUMP JUMPDEST JUMPDEST SWAP1 POP PUSH1 0x20 MUL DUP2 ADD SWAP1 PUSH2 0x458 SWAP2 SWAP1 PUSH2 0xD8F JUMP JUMPDEST PUSH1 0x1 PUSH1 0x2 DUP2 LT PUSH2 0x46B JUMPI PUSH2 0x46A PUSH2 0xD51 JUMP JUMPDEST JUMPDEST PUSH1 0x20 MUL DUP2 ADD SWAP1 PUSH2 0x47B SWAP2 SWAP1 PUSH2 0xDB7 JUMP JUMPDEST PUSH1 0x0 DUP13 DUP13 DUP8 DUP2 DUP2 LT PUSH2 0x490 JUMPI PUSH2 0x48F PUSH2 0xD51 JUMP JUMPDEST JUMPDEST SWAP1 POP PUSH1 0x20 MUL DUP2 ADD SWAP1 PUSH2 0x4A2 SWAP2 SWAP1 PUSH2 0xE1A JUMP JUMPDEST PUSH1 0x40 MLOAD DUP7 PUSH4 0xFFFFFFFF AND PUSH1 0xE0 SHL DUP2 MSTORE PUSH1 0x4 ADD PUSH2 0x4C2 SWAP6 SWAP5 SWAP4 SWAP3 SWAP2 SWAP1 PUSH2 0xF5A JUMP JUMPDEST PUSH1 0x0 PUSH1 0x40 MLOAD DUP1 DUP4 SUB DUP2 PUSH1 0x0 DUP8 DUP1 EXTCODESIZE ISZERO DUP1 ISZERO PUSH2 0x4DC JUMPI PUSH1 0x0 DUP1 REVERT JUMPDEST POP GAS CALL ISZERO DUP1 ISZERO PUSH2 0x4F0 JUMPI RETURNDATASIZE PUSH1 0x0 DUP1 RETURNDATACOPY RETURNDATASIZE PUSH1 0x0 REVERT JUMPDEST POP POP POP POP DUP1 DUP1 PUSH2 0x4FF SWAP1 PUSH2 0xFDC JUMP JUMPDEST SWAP2 POP POP PUSH2 0x40C JUMP JUMPDEST POP DUP2 SWAP3 POP POP POP SWAP11 SWAP10 POP POP POP POP POP POP POP POP POP POP JUMP JUMPDEST PUSH1 0x0 DUP1 DUP3 PUSH1 0x60 SHL SWAP1 POP PUSH1 0x40 MLOAD PUSH32 0x3D602D80600A3D3981F3363D3D373D3D3D363D73000000000000000000000000 DUP2 MSTORE DUP2 PUSH1 0x14 DUP3 ADD MSTORE PUSH32 0x5AF43D82803E903D91602B57FD5BF30000000000000000000000000000000000 PUSH1 0x28 DUP3 ADD MSTORE PUSH1 0x37 DUP2 PUSH1 0x0 CREATE SWAP3 POP POP POP SWAP2 SWAP1 POP JUMP JUMPDEST PUSH1 0x0 DUP1 REVERT JUMPDEST PUSH1 0x0 DUP1 REVERT JUMPDEST PUSH1 0x0 PUSH20 0xFFFFFFFFFFFFFFFFFFFFFFFFFFFFFFFFFFFFFFFF DUP3 AND SWAP1 POP SWAP2 SWAP1 POP JUMP JUMPDEST PUSH1 0x0 PUSH2 0x5BA DUP3 PUSH2 0x58F JUMP JUMPDEST SWAP1 POP SWAP2 SWAP1 POP JUMP JUMPDEST PUSH2 0x5CA DUP2 PUSH2 0x5AF JUMP JUMPDEST DUP2 EQ PUSH2 0x5D5 JUMPI PUSH1 0x0 DUP1 REVERT JUMPDEST POP JUMP JUMPDEST PUSH1 0x0 DUP2 CALLDATALOAD SWAP1 POP PUSH2 0x5E7 DUP2 PUSH2 0x5C1 JUMP JUMPDEST SWAP3 SWAP2 POP POP JUMP JUMPDEST PUSH1 0x0 PUSH1 0x20 DUP3 DUP5 SUB SLT ISZERO PUSH2 0x603 JUMPI PUSH2 0x602 PUSH2 0x585 JUMP JUMPDEST JUMPDEST PUSH1 0x0 PUSH2 0x611 DUP5 DUP3 DUP6 ADD PUSH2 0x5D8 JUMP JUMPDEST SWAP2 POP POP SWAP3 SWAP2 POP POP JUMP JUMPDEST PUSH2 0x623 DUP2 PUSH2 0x5AF JUMP JUMPDEST DUP3 MSTORE POP POP JUMP JUMPDEST PUSH1 0x0 PUSH1 0x20 DUP3 ADD SWAP1 POP PUSH2 0x63E PUSH1 0x0 DUP4 ADD DUP5 PUSH2 0x61A JUMP JUMPDEST SWAP3 SWAP2 POP POP JUMP JUMPDEST PUSH1 0x0 PUSH2 0x64F DUP3 PUSH2 0x5AF JUMP JUMPDEST SWAP1 POP SWAP2 SWAP1 POP JUMP JUMPDEST PUSH2 0x65F DUP2 PUSH2 0x644 JUMP JUMPDEST DUP2 EQ PUSH2 0x66A JUMPI PUSH1 0x0 DUP1 REVERT JUMPDEST POP JUMP JUMPDEST PUSH1 0x0 DUP2 CALLDATALOAD SWAP1 POP PUSH2 0x67C DUP2 PUSH2 0x656 JUMP JUMPDEST SWAP3 SWAP2 POP POP JUMP JUMPDEST PUSH1 0x0 DUP1 REVERT JUMPDEST PUSH1 0x0 DUP1 REVERT JUMPDEST PUSH1 0x0 DUP1 REVERT JUMPDEST PUSH1 0x0 DUP1 DUP4 PUSH1 0x1F DUP5 ADD SLT PUSH2 0x6A7 JUMPI PUSH2 0x6A6 PUSH2 0x682 JUMP JUMPDEST JUMPDEST DUP3 CALLDATALOAD SWAP1 POP PUSH8 0xFFFFFFFFFFFFFFFF DUP2 GT ISZERO PUSH2 0x6C4 JUMPI PUSH2 0x6C3 PUSH2 0x687 JUMP JUMPDEST JUMPDEST PUSH1 0x20 DUP4 ADD SWAP2 POP DUP4 PUSH1 0x20 DUP3 MUL DUP4 ADD GT ISZERO PUSH2 0x6E0 JUMPI PUSH2 0x6DF PUSH2 0x68C JUMP JUMPDEST JUMPDEST SWAP3 POP SWAP3 SWAP1 POP JUMP JUMPDEST PUSH1 0x0 DUP1 DUP4 PUSH1 0x1F DUP5 ADD SLT PUSH2 0x6FD JUMPI PUSH2 0x6FC PUSH2 0x682 JUMP JUMPDEST JUMPDEST DUP3 CALLDATALOAD SWAP1 POP PUSH8 0xFFFFFFFFFFFFFFFF DUP2 GT ISZERO PUSH2 0x71A JUMPI PUSH2 0x719 PUSH2 0x687 JUMP JUMPDEST JUMPDEST PUSH1 0x20 DUP4 ADD SWAP2 POP DUP4 PUSH1 0x80 DUP3 MUL DUP4 ADD GT ISZERO PUSH2 0x736 JUMPI PUSH2 0x735 PUSH2 0x68C JUMP JUMPDEST JUMPDEST SWAP3 POP SWAP3 SWAP1 POP JUMP JUMPDEST PUSH1 0x0 DUP1 PUSH1 0x0 DUP1 PUSH1 0x0 DUP1 PUSH1 0x0 DUP1 PUSH1 0xA0 DUP10 DUP12 SUB SLT ISZERO PUSH2 0x75D JUMPI PUSH2 0x75C PUSH2 0x585 JUMP JUMPDEST JUMPDEST PUSH1 0x0 PUSH2 0x76B DUP12 DUP3 DUP13 ADD PUSH2 0x5D8 JUMP JUMPDEST SWAP9 POP POP PUSH1 0x20 PUSH2 0x77C DUP12 DUP3 DUP13 ADD PUSH2 0x66D JUMP JUMPDEST SWAP8 POP POP PUSH1 0x40 DUP10 ADD CALLDATALOAD PUSH8 0xFFFFFFFFFFFFFFFF DUP2 GT ISZERO PUSH2 0x79D JUMPI PUSH2 0x79C PUSH2 0x58A JUMP JUMPDEST JUMPDEST PUSH2 0x7A9 DUP12 DUP3 DUP13 ADD PUSH2 0x691 JUMP JUMPDEST SWAP7 POP SWAP7 POP POP PUSH1 0x60 DUP10 ADD CALLDATALOAD PUSH8 0xFFFFFFFFFFFFFFFF DUP2 GT ISZERO PUSH2 0x7CC JUMPI PUSH2 0x7CB PUSH2 0x58A JUMP JUMPDEST JUMPDEST PUSH2 0x7D8 DUP12 DUP3 DUP13 ADD PUSH2 0x691 JUMP JUMPDEST SWAP5 POP SWAP5 POP POP PUSH1 0x80 DUP10 ADD CALLDATALOAD PUSH8 0xFFFFFFFFFFFFFFFF DUP2 GT ISZERO PUSH2 0x7FB JUMPI PUSH2 0x7FA PUSH2 0x58A JUMP JUMPDEST JUMPDEST PUSH2 0x807 DUP12 DUP3 DUP13 ADD PUSH2 0x6E7 JUMP JUMPDEST SWAP3 POP SWAP3 POP POP SWAP3 SWAP6 SWAP9 POP SWAP3 SWAP6 SWAP9 SWAP1 SWAP4 SWAP7 POP JUMP JUMPDEST PUSH1 0x0 DUP1 DUP4 PUSH1 0x1F DUP5 ADD SLT PUSH2 0x82F JUMPI PUSH2 0x82E PUSH2 0x682 JUMP JUMPDEST JUMPDEST DUP3 CALLDATALOAD SWAP1 POP PUSH8 0xFFFFFFFFFFFFFFFF DUP2 GT ISZERO PUSH2 0x84C JUMPI PUSH2 0x84B PUSH2 0x687 JUMP JUMPDEST JUMPDEST PUSH1 0x20 DUP4 ADD SWAP2 POP DUP4 PUSH1 0x20 DUP3 MUL DUP4 ADD GT ISZERO PUSH2 0x868 JUMPI PUSH2 0x867 PUSH2 0x68C JUMP JUMPDEST JUMPDEST SWAP3 POP SWAP3 SWAP1 POP JUMP JUMPDEST PUSH1 0x0 DUP1 PUSH1 0x0 DUP1 PUSH1 0x0 DUP1 PUSH1 0x0 DUP1 PUSH1 0x0 DUP1 PUSH1 0xC0 DUP12 DUP14 SUB SLT ISZERO PUSH2 0x892 JUMPI PUSH2 0x891 PUSH2 0x585 JUMP JUMPDEST JUMPDEST PUSH1 0x0 PUSH2 0x8A0 DUP14 DUP3 DUP15 ADD PUSH2 0x5D8 JUMP JUMPDEST SWAP11 POP POP PUSH1 0x20 PUSH2 0x8B1 DUP14 DUP3 DUP15 ADD PUSH2 0x66D JUMP JUMPDEST SWAP10 POP POP PUSH1 0x40 DUP12 ADD CALLDATALOAD PUSH8 0xFFFFFFFFFFFFFFFF DUP2 GT ISZERO PUSH2 0x8D2 JUMPI PUSH2 0x8D1 PUSH2 0x58A JUMP JUMPDEST JUMPDEST PUSH2 0x8DE DUP14 DUP3 DUP15 ADD PUSH2 0x691 JUMP JUMPDEST SWAP9 POP SWAP9 POP POP PUSH1 0x60 DUP12 ADD CALLDATALOAD PUSH8 0xFFFFFFFFFFFFFFFF DUP2 GT ISZERO PUSH2 0x901 JUMPI PUSH2 0x900 PUSH2 0x58A JUMP JUMPDEST JUMPDEST PUSH2 0x90D DUP14 DUP3 DUP15 ADD PUSH2 0x691 JUMP JUMPDEST SWAP7 POP SWAP7 POP POP PUSH1 0x80 DUP12 ADD CALLDATALOAD PUSH8 0xFFFFFFFFFFFFFFFF DUP2 GT ISZERO PUSH2 0x930 JUMPI PUSH2 0x92F PUSH2 0x58A JUMP JUMPDEST JUMPDEST PUSH2 0x93C DUP14 DUP3 DUP15 ADD PUSH2 0x819 JUMP JUMPDEST SWAP5 POP SWAP5 POP POP PUSH1 0xA0 DUP12 ADD CALLDATALOAD PUSH8 0xFFFFFFFFFFFFFFFF DUP2 GT ISZERO PUSH2 0x95F JUMPI PUSH2 0x95E PUSH2 0x58A JUMP JUMPDEST JUMPDEST PUSH2 0x96B DUP14 DUP3 DUP15 ADD PUSH2 0x6E7 JUMP JUMPDEST SWAP3 POP SWAP3 POP POP SWAP3 SWAP6 SWAP9 SWAP12 SWAP2 SWAP5 SWAP8 SWAP11 POP SWAP3 SWAP6 SWAP9 POP JUMP JUMPDEST PUSH1 0x0 DUP2 MLOAD SWAP1 POP PUSH2 0x98E DUP2 PUSH2 0x5C1 JUMP JUMPDEST SWAP3 SWAP2 POP POP JUMP JUMPDEST PUSH1 0x0 PUSH1 0x20 DUP3 DUP5 SUB SLT ISZERO PUSH2 0x9AA JUMPI PUSH2 0x9A9 PUSH2 0x585 JUMP JUMPDEST JUMPDEST PUSH1 0x0 PUSH2 0x9B8 DUP5 DUP3 DUP6 ADD PUSH2 0x97F JUMP JUMPDEST SWAP2 POP POP SWAP3 SWAP2 POP POP JUMP JUMPDEST PUSH1 0x0 DUP3 DUP3 MSTORE PUSH1 0x20 DUP3 ADD SWAP1 POP SWAP3 SWAP2 POP POP JUMP JUMPDEST PUSH1 0x0 DUP2 SWAP1 POP SWAP2 SWAP1 POP JUMP JUMPDEST PUSH1 0x0 PUSH1 0x2 SWAP1 POP SWAP2 SWAP1 POP JUMP JUMPDEST PUSH1 0x0 DUP2 SWAP1 POP SWAP3 SWAP2 POP POP JUMP JUMPDEST PUSH1 0x0 DUP2 SWAP1 POP SWAP2 SWAP1 POP JUMP JUMPDEST PUSH1 0x0 DUP3 DUP3 MSTORE PUSH1 0x20 DUP3 ADD SWAP1 POP SWAP3 SWAP2 POP POP JUMP JUMPDEST DUP3 DUP2 DUP4 CALLDATACOPY PUSH1 0x0 DUP4 DUP4 ADD MSTORE POP POP POP JUMP JUMPDEST PUSH1 0x0 PUSH1 0x1F NOT PUSH1 0x1F DUP4 ADD AND SWAP1 POP SWAP2 SWAP1 POP JUMP JUMPDEST PUSH1 0x0 PUSH2 0xA39 DUP4 DUP6 PUSH2 0x9FC JUMP JUMPDEST SWAP4 POP PUSH2 0xA46 DUP4 DUP6 DUP5 PUSH2 0xA0D JUMP JUMPDEST PUSH2 0xA4F DUP4 PUSH2 0xA1C JUMP JUMPDEST DUP5 ADD SWAP1 POP SWAP4 SWAP3 POP POP POP JUMP JUMPDEST PUSH1 0x0 PUSH2 0xA67 DUP5 DUP5 DUP5 PUSH2 0xA2D JUMP JUMPDEST SWAP1 POP SWAP4 SWAP3 POP POP POP JUMP JUMPDEST PUSH1 0x0 DUP1 REVERT JUMPDEST PUSH1 0x0 DUP1 REVERT JUMPDEST PUSH1 0x0 DUP1 REVERT JUMPDEST PUSH1 0x0 DUP1 DUP4 CALLDATALOAD PUSH1 0x1 PUSH1 0x20 SUB DUP5 CALLDATASIZE SUB SUB DUP2 SLT PUSH2 0xA9C JUMPI PUSH2 0xA9B PUSH2 0xA7A JUMP JUMPDEST JUMPDEST DUP4 DUP2 ADD SWAP3 POP DUP3 CALLDATALOAD SWAP2 POP PUSH1 0x20 DUP4 ADD SWAP3 POP PUSH8 0xFFFFFFFFFFFFFFFF DUP3 GT ISZERO PUSH2 0xAC4 JUMPI PUSH2 0xAC3 PUSH2 0xA70 JUMP JUMPDEST JUMPDEST PUSH1 0x1 DUP3 MUL CALLDATASIZE SUB DUP5 SGT ISZERO PUSH2 0xADA JUMPI PUSH2 0xAD9 PUSH2 0xA75 JUMP JUMPDEST JUMPDEST POP SWAP3 POP SWAP3 SWAP1 POP JUMP JUMPDEST PUSH1 0x0 PUSH1 0x20 DUP3 ADD SWAP1 POP SWAP2 SWAP1 POP JUMP JUMPDEST PUSH1 0x0 PUSH2 0xAFA DUP3 PUSH2 0x9DC JUMP JUMPDEST PUSH2 0xB04 DUP2 DUP6 PUSH2 0x9E7 JUMP JUMPDEST SWAP4 POP DUP4 PUSH1 0x20 DUP3 MUL DUP6 ADD PUSH2 0xB16 DUP6 PUSH2 0x9F2 JUMP JUMPDEST DUP1 PUSH1 0x0 JUMPDEST DUP6 DUP2 LT ISZERO PUSH2 0xB5C JUMPI DUP5 DUP5 SUB DUP10 MSTORE PUSH2 0xB31 DUP3 DUP5 PUSH2 0xA7F JUMP JUMPDEST PUSH2 0xB3C DUP7 DUP3 DUP5 PUSH2 0xA5A JUMP JUMPDEST SWAP6 POP PUSH2 0xB47 DUP5 PUSH2 0xAE2 JUMP JUMPDEST SWAP4 POP PUSH1 0x20 DUP12 ADD SWAP11 POP POP POP PUSH1 0x1 DUP2 ADD SWAP1 POP PUSH2 0xB1A JUMP JUMPDEST POP DUP3 SWAP8 POP DUP8 SWAP6 POP POP POP POP POP POP SWAP3 SWAP2 POP POP JUMP JUMPDEST PUSH1 0x0 PUSH2 0xB7A DUP4 DUP4 PUSH2 0xAEF JUMP JUMPDEST SWAP1 POP SWAP3 SWAP2 POP POP JUMP JUMPDEST PUSH1 0x0 DUP3 CALLDATALOAD PUSH1 0x1 PUSH1 0x40 SUB DUP4 CALLDATASIZE SUB SUB DUP2 SLT PUSH2 0xB9E JUMPI PUSH2 0xB9D PUSH2 0xA7A JUMP JUMPDEST JUMPDEST DUP3 DUP2 ADD SWAP2 POP POP SWAP3 SWAP2 POP POP JUMP JUMPDEST PUSH1 0x0 PUSH1 0x20 DUP3 ADD SWAP1 POP SWAP2 SWAP1 POP JUMP JUMPDEST PUSH1 0x0 PUSH2 0xBC3 DUP4 DUP6 PUSH2 0x9C1 JUMP JUMPDEST SWAP4 POP DUP4 PUSH1 0x20 DUP5 MUL DUP6 ADD PUSH2 0xBD5 DUP5 PUSH2 0x9D2 JUMP JUMPDEST DUP1 PUSH1 0x0 JUMPDEST DUP8 DUP2 LT ISZERO PUSH2 0xC19 JUMPI DUP5 DUP5 SUB DUP10 MSTORE PUSH2 0xBF0 DUP3 DUP5 PUSH2 0xB82 JUMP JUMPDEST PUSH2 0xBFA DUP6 DUP3 PUSH2 0xB6E JUMP JUMPDEST SWAP5 POP PUSH2 0xC05 DUP4 PUSH2 0xBAA JUMP JUMPDEST SWAP3 POP PUSH1 0x20 DUP11 ADD SWAP10 POP POP PUSH1 0x1 DUP2 ADD SWAP1 POP PUSH2 0xBD9 JUMP JUMPDEST POP DUP3 SWAP8 POP DUP8 SWAP5 POP POP POP POP POP SWAP4 SWAP3 POP POP POP JUMP JUMPDEST PUSH1 0x0 DUP3 DUP3 MSTORE PUSH1 0x20 DUP3 ADD SWAP1 POP SWAP3 SWAP2 POP POP JUMP JUMPDEST PUSH1 0x0 DUP2 SWAP1 POP SWAP2 SWAP1 POP JUMP JUMPDEST PUSH2 0xC52 PUSH1 0x80 DUP4 DUP4 PUSH2 0xA0D JUMP JUMPDEST POP POP JUMP JUMPDEST PUSH1 0x0 PUSH2 0xC62 DUP4 DUP4 PUSH2 0xC46 JUMP JUMPDEST PUSH1 0x80 DUP4 ADD SWAP1 POP SWAP3 SWAP2 POP POP JUMP JUMPDEST PUSH1 0x0 DUP3 SWAP1 POP SWAP3 SWAP2 POP POP JUMP JUMPDEST PUSH1 0x0 PUSH1 0x80 DUP3 ADD SWAP1 POP SWAP2 SWAP1 POP JUMP JUMPDEST PUSH1 0x0 PUSH2 0xC92 DUP4 DUP6 PUSH2 0xC2B JUMP JUMPDEST SWAP4 POP PUSH2 0xC9D DUP3 PUSH2 0xC3C JUMP JUMPDEST DUP1 PUSH1 0x0 JUMPDEST DUP6 DUP2 LT ISZERO PUSH2 0xCD6 JUMPI PUSH2 0xCB3 DUP3 DUP5 PUSH2 0xC6E JUMP JUMPDEST PUSH2 0xCBD DUP9 DUP3 PUSH2 0xC56 JUMP JUMPDEST SWAP8 POP PUSH2 0xCC8 DUP4 PUSH2 0xC79 JUMP JUMPDEST SWAP3 POP POP PUSH1 0x1 DUP2 ADD SWAP1 POP PUSH2 0xCA1 JUMP JUMPDEST POP DUP6 SWAP3 POP POP POP SWAP4 SWAP3 POP POP POP JUMP JUMPDEST PUSH1 0x0 PUSH1 0xA0 DUP3 ADD SWAP1 POP PUSH2 0xCF8 PUSH1 0x0 DUP4 ADD DUP12 PUSH2 0x61A JUMP JUMPDEST PUSH2 0xD05 PUSH1 0x20 DUP4 ADD DUP11 PUSH2 0x61A JUMP JUMPDEST DUP2 DUP2 SUB PUSH1 0x40 DUP4 ADD MSTORE PUSH2 0xD18 DUP2 DUP9 DUP11 PUSH2 0xBB7 JUMP JUMPDEST SWAP1 POP DUP2 DUP2 SUB PUSH1 0x60 DUP4 ADD MSTORE PUSH2 0xD2D DUP2 DUP7 DUP9 PUSH2 0xBB7 JUMP JUMPDEST SWAP1 POP DUP2 DUP2 SUB PUSH1 0x80 DUP4 ADD MSTORE PUSH2 0xD42 DUP2 DUP5 DUP7 PUSH2 0xC86 JUMP JUMPDEST SWAP1 POP SWAP10 SWAP9 POP POP POP POP POP POP POP POP POP JUMP JUMPDEST PUSH32 0x4E487B7100000000000000000000000000000000000000000000000000000000 PUSH1 0x0 MSTORE PUSH1 0x32 PUSH1 0x4 MSTORE PUSH1 0x24 PUSH1 0x0 REVERT JUMPDEST PUSH1 0x0 DUP1 REVERT JUMPDEST PUSH1 0x0 DUP1 REVERT JUMPDEST PUSH1 0x0 DUP1 REVERT JUMPDEST PUSH1 0x0 DUP3 CALLDATALOAD PUSH1 0x1 PUSH1 0x40 SUB DUP4 CALLDATASIZE SUB SUB DUP2 SLT PUSH2 0xDAB JUMPI PUSH2 0xDAA PUSH2 0xD80 JUMP JUMPDEST JUMPDEST DUP1 DUP4 ADD SWAP2 POP POP SWAP3 SWAP2 POP POP JUMP JUMPDEST PUSH1 0x0 DUP1 DUP4 CALLDATALOAD PUSH1 0x1 PUSH1 0x20 SUB DUP5 CALLDATASIZE SUB SUB DUP2 SLT PUSH2 0xDD4 JUMPI PUSH2 0xDD3 PUSH2 0xD80 JUMP JUMPDEST JUMPDEST DUP1 DUP5 ADD SWAP3 POP DUP3 CALLDATALOAD SWAP2 POP PUSH8 0xFFFFFFFFFFFFFFFF DUP3 GT ISZERO PUSH2 0xDF6 JUMPI PUSH2 0xDF5 PUSH2 0xD85 JUMP JUMPDEST JUMPDEST PUSH1 0x20 DUP4 ADD SWAP3 POP PUSH1 0x1 DUP3 MUL CALLDATASIZE SUB DUP4 SGT ISZERO PUSH2 0xE12 JUMPI PUSH2 0xE11 PUSH2 0xD8A JUMP JUMPDEST JUMPDEST POP SWAP3 POP SWAP3 SWAP1 POP JUMP JUMPDEST PUSH1 0x0 DUP1 DUP4 CALLDATALOAD PUSH1 0x1 PUSH1 0x20 SUB DUP5 CALLDATASIZE SUB SUB DUP2 SLT PUSH2 0xE37 JUMPI PUSH2 0xE36 PUSH2 0xD80 JUMP JUMPDEST JUMPDEST DUP1 DUP5 ADD SWAP3 POP DUP3 CALLDATALOAD SWAP2 POP PUSH8 0xFFFFFFFFFFFFFFFF DUP3 GT ISZERO PUSH2 0xE59 JUMPI PUSH2 0xE58 PUSH2 0xD85 JUMP JUMPDEST JUMPDEST PUSH1 0x20 DUP4 ADD SWAP3 POP PUSH1 0x1 DUP3 MUL CALLDATASIZE SUB DUP4 SGT ISZERO PUSH2 0xE75 JUMPI PUSH2 0xE74 PUSH2 0xD8A JUMP JUMPDEST JUMPDEST POP SWAP3 POP SWAP3 SWAP1 POP JUMP JUMPDEST PUSH1 0x0 DUP3 DUP3 MSTORE PUSH1 0x20 DUP3 ADD SWAP1 POP SWAP3 SWAP2 POP POP JUMP JUMPDEST PUSH1 0x0 PUSH2 0xE9A DUP4 DUP6 PUSH2 0xE7D JUMP JUMPDEST SWAP4 POP PUSH2 0xEA7 DUP4 DUP6 DUP5 PUSH2 0xA0D JUMP JUMPDEST PUSH2 0xEB0 DUP4 PUSH2 0xA1C JUMP JUMPDEST DUP5 ADD SWAP1 POP SWAP4 SWAP3 POP POP POP JUMP JUMPDEST PUSH1 0x0 DUP2 SWAP1 POP SWAP2 SWAP1 POP JUMP JUMPDEST PUSH1 0x0 PUSH16 0xFFFFFFFFFFFFFFFFFFFFFFFFFFFFFFFF DUP3 AND SWAP1 POP SWAP2 SWAP1 POP JUMP JUMPDEST PUSH1 0x0 DUP2 SWAP1 POP SWAP2 SWAP1 POP JUMP JUMPDEST PUSH1 0x0 PUSH2 0xF06 PUSH2 0xF01 PUSH2 0xEFC DUP5 PUSH2 0xEBB JUMP JUMPDEST PUSH2 0xEE1 JUMP JUMPDEST PUSH2 0xEC5 JUMP JUMPDEST SWAP1 POP SWAP2 SWAP1 POP JUMP JUMPDEST PUSH2 0xF16 DUP2 PUSH2 0xEEB JUMP JUMPDEST DUP3 MSTORE POP POP JUMP JUMPDEST PUSH1 0x0 DUP3 DUP3 MSTORE PUSH1 0x20 DUP3 ADD SWAP1 POP SWAP3 SWAP2 POP POP JUMP JUMPDEST PUSH1 0x0 PUSH2 0xF39 DUP4 DUP6 PUSH2 0xF1C JUMP JUMPDEST SWAP4 POP PUSH2 0xF46 DUP4 DUP6 DUP5 PUSH2 0xA0D JUMP JUMPDEST PUSH2 0xF4F DUP4 PUSH2 0xA1C JUMP JUMPDEST DUP5 ADD SWAP1 POP SWAP4 SWAP3 POP POP POP JUMP JUMPDEST PUSH1 0x0 PUSH1 0x60 DUP3 ADD SWAP1 POP DUP2 DUP2 SUB PUSH1 0x0 DUP4 ADD MSTORE PUSH2 0xF75 DUP2 DUP8 DUP10 PUSH2 0xE8E JUMP JUMPDEST SWAP1 POP PUSH2 0xF84 PUSH1 0x20 DUP4 ADD DUP7 PUSH2 0xF0D JUMP JUMPDEST DUP2 DUP2 SUB PUSH1 0x40 DUP4 ADD MSTORE PUSH2 0xF97 DUP2 DUP5 DUP7 PUSH2 0xF2D JUMP JUMPDEST SWAP1 POP SWAP7 SWAP6 POP POP POP POP POP POP JUMP JUMPDEST PUSH32 0x4E487B7100000000000000000000000000000000000000000000000000000000 PUSH1 0x0 MSTORE PUSH1 0x11 PUSH1 0x4 MSTORE PUSH1 0x24 PUSH1 0x0 REVERT JUMPDEST PUSH1 0x0 DUP2 SWAP1 POP SWAP2 SWAP1 POP JUMP JUMPDEST PUSH1 0x0 PUSH2 0xFE7 DUP3 PUSH2 0xFD2 JUMP JUMPDEST SWAP2 POP PUSH32 0xFFFFFFFFFFFFFFFFFFFFFFFFFFFFFFFFFFFFFFFFFFFFFFFFFFFFFFFFFFFFFFFF DUP3 EQ ISZERO PUSH2 0x101A JUMPI PUSH2 0x1019 PUSH2 0xFA3 JUMP JUMPDEST JUMPDEST PUSH1 0x1 DUP3 ADD SWAP1 POP SWAP2 SWAP1 POP JUMP INVALID LOG2 PUSH5 0x6970667358 0x22 SLT KECCAK256 CALLER SELFDESTRUCT 0xC2 DUP1 0x49 SWAP13 0x5C 0xE4 PUSH22 0xC08BAE91EA7E4E098C28C7448BAD9EF93D3BACA6E0DC 0xD0 PUSH5 0x736F6C6343 STOP ADDMOD 0xC STOP CALLER "
        },
        "methodIdentifiers": {
          "createFrame(address,address,string[2][],string[2][],uint256[4][])": "c80a8923",
          "createFrameWithSources(address,address,string[2][],string[2][],bytes[],uint256[4][])": "f9e19d2d",
          "libraryAddress()": "b816f513",
          "setLibraryAddress(address)": "4863ba17"
        }
      }
    }
  }
}