{
  "src/services/chain-sim/contracts/Frame.sol": {
    "Frame": {
      "abi": [
        {
          "inputs": [],
          "stateMutability": "nonpayable",
          "type": "constructor"
        },
        {
          "inputs": [
            {
              "internalType": "address",
              "name": "_addr",
              "type": "address"
            }
          ],
          "name": "addressToString",
          "outputs": [
            {
              "internalType": "string",
              "name": "",
              "type": "string"
            }
          ],
          "stateMutability": "pure",
          "type": "function"
        },
        {
          "inputs": [
            {
              "internalType": "uint256",
              "name": "",
              "type": "uint256"
            }
          ],
          "name": "assetList",
          "outputs": [
            {
              "internalType": "string",
              "name": "assetType",
              "type": "string"
            },
            {
              "internalType": "string",
              "name": "key",
              "type": "string"
            }
          ],
          "stateMutability": "view",
          "type": "function"
        },
        {
          "inputs": [],
          "name": "assetStorage",
          "outputs": [
            {
              "internalType": "contract FrameDataStore",
              "name": "",
              "type": "address"
            }
          ],
          "stateMutability": "view",
          "type": "function"
        },
        {
          "inputs": [],
          "name": "assetsCount",
          "outputs": [
            {
              "internalType": "uint256",
              "name": "",
              "type": "uint256"
            }
          ],
          "stateMutability": "view",
          "type": "function"
        },
        {
          "inputs": [],
          "name": "coreDepStorage",
          "outputs": [
            {
              "internalType": "contract FrameDataStore",
              "name": "",
              "type": "address"
            }
          ],
          "stateMutability": "view",
          "type": "function"
        },
        {
          "inputs": [],
          "name": "depsCount",
          "outputs": [
            {
              "internalType": "uint256",
              "name": "",
              "type": "uint256"
            }
          ],
          "stateMutability": "view",
          "type": "function"
        },
        {
          "inputs": [
            {
              "internalType": "uint256",
              "name": "",
              "type": "uint256"
            }
          ],
          "name": "depsList",
          "outputs": [
            {
              "internalType": "string",
              "name": "assetType",
              "type": "string"
            },
            {
              "internalType": "string",
              "name": "key",
              "type": "string"
            }
          ],
          "stateMutability": "view",
          "type": "function"
        },
        {
          "inputs": [
            {
              "internalType": "address",
              "name": "_coreDepStorage",
              "type": "address"
            },
            {
              "internalType": "address",
              "name": "_assetStorage",
              "type": "address"
            },
            {
              "internalType": "string[2][]",
              "name": "_deps",
              "type": "string[2][]"
            },
            {
              "internalType": "string[2][]",
              "name": "_assets",
              "type": "string[2][]"
            },
            {
              "internalType": "uint256[4][]",
              "name": "_renderIndex",
              "type": "uint256[4][]"
            }
          ],
          "name": "init",
          "outputs": [],
          "stateMutability": "nonpayable",
          "type": "function"
        },
        {
          "inputs": [
            {
              "internalType": "uint256",
              "name": "",
              "type": "uint256"
            },
            {
              "internalType": "uint256",
              "name": "",
              "type": "uint256"
            }
          ],
          "name": "renderIndex",
          "outputs": [
            {
              "internalType": "uint256",
              "name": "",
              "type": "uint256"
            }
          ],
          "stateMutability": "view",
          "type": "function"
        },
        {
          "inputs": [
            {
              "internalType": "uint256",
              "name": "_rpage",
              "type": "uint256"
            }
          ],
          "name": "renderPage",
          "outputs": [
            {
              "internalType": "string",
              "name": "",
              "type": "string"
            }
          ],
          "stateMutability": "view",
          "type": "function"
        },
        {
          "inputs": [],
          "name": "renderPagesCount",
          "outputs": [
            {
              "internalType": "uint256",
              "name": "",
              "type": "uint256"
            }
          ],
          "stateMutability": "view",
          "type": "function"
        },
        {
          "inputs": [],
          "name": "renderWrapper",
          "outputs": [
            {
              "internalType": "string",
              "name": "",
              "type": "string"
            }
          ],
          "stateMutability": "view",
          "type": "function"
        },
        {
          "inputs": [
            {
              "internalType": "contract FrameDataStore",
              "name": "_storage",
              "type": "address"
            }
          ],
          "name": "setAssetStorage",
          "outputs": [],
          "stateMutability": "nonpayable",
          "type": "function"
        },
        {
          "inputs": [
            {
              "internalType": "string[2][]",
              "name": "_assets",
              "type": "string[2][]"
            }
          ],
          "name": "setAssets",
          "outputs": [],
          "stateMutability": "nonpayable",
          "type": "function"
        },
        {
          "inputs": [
            {
              "internalType": "contract FrameDataStore",
              "name": "_storage",
              "type": "address"
            }
          ],
          "name": "setCoreDepStorage",
          "outputs": [],
          "stateMutability": "nonpayable",
          "type": "function"
        },
        {
          "inputs": [
            {
              "internalType": "string[2][]",
              "name": "_deps",
              "type": "string[2][]"
            }
          ],
          "name": "setDeps",
          "outputs": [],
          "stateMutability": "nonpayable",
          "type": "function"
        },
        {
          "inputs": [
            {
              "internalType": "uint256[4][]",
              "name": "_index",
              "type": "uint256[4][]"
            }
          ],
          "name": "setRenderIndex",
          "outputs": [],
          "stateMutability": "nonpayable",
          "type": "function"
        }
      ],
      "evm": {
        "bytecode": {
          "linkReferences": {},
          "object": "608060405234801561001057600080fd5b506127cc806100206000396000f3fe608060405234801561001057600080fd5b506004361061010b5760003560e01c806370370513116100a2578063a0b4b30111610071578063a0b4b301146102a4578063b5d40c05146102d5578063cd9df19014610306578063cdb53ac114610324578063dc133575146103425761010b565b8063703705131461020a5780637556d1b91461023a57806380536f631461026a57806392f02e13146102865761010b565b80634cb139a6116100de5780634cb139a6146101825780634f5ea5cc146101a05780635e57966d146101bc5780636bd40805146101ec5761010b565b806311bf85ce146101105780631b68226f1461012c57806327d98df31461014a578063292eabde14610166575b600080fd5b61012a60048036038101906101259190611ae5565b61035e565b005b6101346103a1565b6040516101419190611b2b565b60405180910390f35b610164600480360381019061015f9190611ae5565b6103a7565b005b610180600480360381019061017b9190611bab565b6103eb565b005b61018a61046e565b6040516101979190611c57565b60405180910390f35b6101ba60048036038101906101b59190611cf4565b610494565b005b6101d660048036038101906101d19190611dd0565b6104ce565b6040516101e39190611e96565b60405180910390f35b6101f46107d9565b6040516102019190611b2b565b60405180910390f35b610224600480360381019061021f9190611ee4565b6107df565b6040516102319190611b2b565b60405180910390f35b610254600480360381019061024f9190611f24565b610807565b6040516102619190611e96565b60405180910390f35b610284600480360381019061027f9190611f51565b611174565b005b61028e61132b565b60405161029b9190611e96565b60405180910390f35b6102be60048036038101906102b99190611f24565b6113d4565b6040516102cc929190611f9e565b60405180910390f35b6102ef60048036038101906102ea9190611f24565b611508565b6040516102fd929190611f9e565b60405180910390f35b61030e61163c565b60405161031b9190611b2b565b60405180910390f35b61032c611642565b6040516103399190611c57565b60405180910390f35b61035c60048036038101906103579190611f51565b611666565b005b806000806101000a81548173ffffffffffffffffffffffffffffffffffffffff021916908373ffffffffffffffffffffffffffffffffffffffff16021790555050565b60035481565b80600160006101000a81548173ffffffffffffffffffffffffffffffffffffffff021916908373ffffffffffffffffffffffffffffffffffffffff16021790555050565b60005b8282905081101561045f576006600081548092919061040c90612004565b91905055508282828181106104245761042361204d565b5b9050608002016007600083815260200190815260200160002090600461044b92919061197e565b50808061045790612004565b9150506103ee565b50818190506006819055505050565b600160009054906101000a900473ffffffffffffffffffffffffffffffffffffffff1681565b61049d8861035e565b6104a6876103a7565b6104b08686611174565b6104ba8484611666565b6104c482826103eb565b5050505050505050565b606060008273ffffffffffffffffffffffffffffffffffffffff1660001b905060006040518060400160405280601081526020017f303132333435363738396162636465660000000000000000000000000000000081525090506000603367ffffffffffffffff8111156105455761054461207c565b5b6040519080825280601f01601f1916602001820160405280156105775781602001600182028036833780820191505090505b5090507f3000000000000000000000000000000000000000000000000000000000000000816000815181106105af576105ae61204d565b5b60200101907effffffffffffffffffffffffffffffffffffffffffffffffffffffffffffff1916908160001a9053507f7800000000000000000000000000000000000000000000000000000000000000816001815181106106135761061261204d565b5b60200101907effffffffffffffffffffffffffffffffffffffffffffffffffffffffffffff1916908160001a90535060005b60148110156107cd5782600485600c8461065f91906120ab565b602081106106705761066f61204d565b5b1a60f81b7effffffffffffffffffffffffffffffffffffffffffffffffffffffffffffff1916901c60f81c60ff16815181106106af576106ae61204d565b5b602001015160f81c60f81b826002836106c89190612101565b60026106d491906120ab565b815181106106e5576106e461204d565b5b60200101907effffffffffffffffffffffffffffffffffffffffffffffffffffffffffffff1916908160001a90535082600f60f81b85600c8461072891906120ab565b602081106107395761073861204d565b5b1a60f81b1660f81c60ff16815181106107555761075461204d565b5b602001015160f81c60f81b8260028361076e9190612101565b600361077a91906120ab565b8151811061078b5761078a61204d565b5b60200101907effffffffffffffffffffffffffffffffffffffffffffffffffffffffffffff1916908160001a90535080806107c590612004565b915050610645565b50809350505050919050565b60065481565b600760205281600052604060002081600481106107fb57600080fd5b01600091509150505481565b6060600060076000848152602001908152602001600020600480602002604051908101604052809291908260048015610855576020028201915b815481526020019060010190808311610841575b505050505090506000816000600481106108725761087161204d565b5b6020020151905060008260016004811061088f5761088e61204d565b5b602002015190506000836002600481106108ac576108ab61204d565b5b602002015190506000846003600481106108c9576108c861204d565b5b60200201519050600060405180602001604052806000815250905060008590505b6001856108f791906120ab565b811015610fba57600060035460018361091091906120ab565b1115905060008161092e5760035483610929919061215b565b610930565b825b905060008261096157600160009054906101000a900473ffffffffffffffffffffffffffffffffffffffff16610983565b60008054906101000a900473ffffffffffffffffffffffffffffffffffffffff165b90506000836109a457600460008481526020019081526020016000206109b8565b600260008681526020019081526020016000205b6040518060400160405290816000820180546109d3906121be565b80601f01602080910402602001604051908101604052809291908181526020018280546109ff906121be565b8015610a4c5780601f10610a2157610100808354040283529160200191610a4c565b820191906000526020600020905b815481529060010190602001808311610a2f57829003601f168201915b50505050508152602001600182018054610a65906121be565b80601f0160208091040260200160405190810160405280929190818152602001828054610a91906121be565b8015610ade5780601f10610ab357610100808354040283529160200191610ade565b820191906000526020600020905b815481529060010190602001808311610ac157829003601f168201915b5050505050815250509050600084610b2b576040518060400160405280600c81526020017f617373657453746f726167650000000000000000000000000000000000000000815250610b62565b6040518060400160405280600e81526020017f636f726544657053746f726167650000000000000000000000000000000000008152505b905060008b8714610b74576000610b76565b895b905060008b8814610c04578473ffffffffffffffffffffffffffffffffffffffff1663d431a42f85602001516040518263ffffffff1660e01b8152600401610bbe9190611e96565b602060405180830381865afa158015610bdb573d6000803e3d6000fd5b505050506040513d601f19601f82011682018060405250810190610bff9190612205565b610c06565b895b90506000821415610d1b578860008054906101000a900473ffffffffffffffffffffffffffffffffffffffff1673ffffffffffffffffffffffffffffffffffffffff166311aa4cba8660000151604051602001610c639190612294565b6040516020818303038152906040526000806040518463ffffffff1660e01b8152600401610c93939291906122f5565b600060405180830381865afa158015610cb0573d6000803e3d6000fd5b505050506040513d6000823e3d601f19601f82011682018060405250810190610cd99190612425565b604051602001610ce991906124b5565b604051602081830303815290604052604051602001610d099291906124cc565b60405160208183030381529060405298505b6000610d268361181d565b90506000610d338361181d565b90508a8773ffffffffffffffffffffffffffffffffffffffff166311aa4cba886020015187876040518463ffffffff1660e01b8152600401610d77939291906124f0565b600060405180830381865afa158015610d94573d6000803e3d6000fd5b505050506040513d6000823e3d601f19601f82011682018060405250810190610dbd9190612425565b604051602001610dcd91906124b5565b604051602081830303815290604052604051602001610ded9291906124cc565b6040516020818303038152906040529a5060008e8b148015610e8c57508773ffffffffffffffffffffffffffffffffffffffff1663d431a42f88602001516040518263ffffffff1660e01b8152600401610e479190611e96565b602060405180830381865afa158015610e64573d6000803e3d6000fd5b505050506040513d601f19601f82011682018060405250810190610e889190612205565b8d14155b905080610f9d578b60008054906101000a900473ffffffffffffffffffffffffffffffffffffffff1673ffffffffffffffffffffffffffffffffffffffff166311aa4cba8960000151604051602001610ee59190612294565b6040516020818303038152906040526001806040518463ffffffff1660e01b8152600401610f1593929190612569565b600060405180830381865afa158015610f32573d6000803e3d6000fd5b505050506040513d6000823e3d601f19601f82011682018060405250810190610f5b9190612425565b604051602001610f6b91906124b5565b604051602081830303815290604052604051602001610f8b9291906124cc565b6040516020818303038152906040529b505b505050505050505050508080610fb290612004565b9150506108ea565b50600088141561108a5760008054906101000a900473ffffffffffffffffffffffffffffffffffffffff1673ffffffffffffffffffffffffffffffffffffffff166311aa4cba6000806040518363ffffffff1660e01b81526004016110209291906125f3565b600060405180830381865afa15801561103d573d6000803e3d6000fd5b505050506040513d6000823e3d601f19601f820116820180604052508101906110669190612425565b816040516020016110789291906124cc565b60405160208183030381529060405290505b6001600654611099919061215b565b881415611166578060008054906101000a900473ffffffffffffffffffffffffffffffffffffffff1673ffffffffffffffffffffffffffffffffffffffff166311aa4cba6001806040518363ffffffff1660e01b81526004016110fd92919061262f565b600060405180830381865afa15801561111a573d6000803e3d6000fd5b505050506040513d6000823e3d601f19601f820116820180604052508101906111439190612425565b6040516020016111549291906124cc565b60405160208183030381529060405290505b809650505050505050919050565b60005b828290508110156113265760405180604001604052808484848181106111a05761119f61204d565b5b90506020028101906111b2919061267a565b6000600281106111c5576111c461204d565b5b6020028101906111d591906126a2565b8080601f016020809104026020016040519081016040528093929190818152602001838380828437600081840152601f19601f8201169050808301925050505050505081526020018484848181106112305761122f61204d565b5b9050602002810190611242919061267a565b6001600281106112555761125461204d565b5b60200281019061126591906126a2565b8080601f016020809104026020016040519081016040528093929190818152602001838380828437600081840152601f19601f820116905080830192505050505050508152506002600083815260200190815260200160002060008201518160000190805190602001906112da9291906119be565b5060208201518160010190805190602001906112f79291906119be565b509050506003600081548092919061130e90612004565b9190505550808061131e90612004565b915050611177565b505050565b606060008054906101000a900473ffffffffffffffffffffffffffffffffffffffff1673ffffffffffffffffffffffffffffffffffffffff166311aa4cba6000806040518363ffffffff1660e01b81526004016113899291906125f3565b600060405180830381865afa1580156113a6573d6000803e3d6000fd5b505050506040513d6000823e3d601f19601f820116820180604052508101906113cf9190612425565b905090565b60046020528060005260406000206000915090508060000180546113f7906121be565b80601f0160208091040260200160405190810160405280929190818152602001828054611423906121be565b80156114705780601f1061144557610100808354040283529160200191611470565b820191906000526020600020905b81548152906001019060200180831161145357829003601f168201915b505050505090806001018054611485906121be565b80601f01602080910402602001604051908101604052809291908181526020018280546114b1906121be565b80156114fe5780601f106114d3576101008083540402835291602001916114fe565b820191906000526020600020905b8154815290600101906020018083116114e157829003601f168201915b5050505050905082565b600260205280600052604060002060009150905080600001805461152b906121be565b80601f0160208091040260200160405190810160405280929190818152602001828054611557906121be565b80156115a45780601f10611579576101008083540402835291602001916115a4565b820191906000526020600020905b81548152906001019060200180831161158757829003601f168201915b5050505050908060010180546115b9906121be565b80601f01602080910402602001604051908101604052809291908181526020018280546115e5906121be565b80156116325780601f1061160757610100808354040283529160200191611632565b820191906000526020600020905b81548152906001019060200180831161161557829003601f168201915b5050505050905082565b60055481565b60008054906101000a900473ffffffffffffffffffffffffffffffffffffffff1681565b60005b828290508110156118185760405180604001604052808484848181106116925761169161204d565b5b90506020028101906116a4919061267a565b6000600281106116b7576116b661204d565b5b6020028101906116c791906126a2565b8080601f016020809104026020016040519081016040528093929190818152602001838380828437600081840152601f19601f8201169050808301925050505050505081526020018484848181106117225761172161204d565b5b9050602002810190611734919061267a565b6001600281106117475761174661204d565b5b60200281019061175791906126a2565b8080601f016020809104026020016040519081016040528093929190818152602001838380828437600081840152601f19601f820116905080830192505050505050508152506004600083815260200190815260200160002060008201518160000190805190602001906117cc9291906119be565b5060208201518160010190805190602001906117e99291906119be565b509050506005600081548092919061180090612004565b9190505550808061181090612004565b915050611669565b505050565b60606000821415611865576040518060400160405280600181526020017f30000000000000000000000000000000000000000000000000000000000000008152509050611979565b600082905060005b6000821461189757808061188090612004565b915050600a826118909190612734565b915061186d565b60008167ffffffffffffffff8111156118b3576118b261207c565b5b6040519080825280601f01601f1916602001820160405280156118e55781602001600182028036833780820191505090505b5090505b60008514611972576001826118fe919061215b565b9150600a8561190d9190612765565b603061191991906120ab565b60f81b81838151811061192f5761192e61204d565b5b60200101907effffffffffffffffffffffffffffffffffffffffffffffffffffffffffffff1916908160001a905350600a8561196b9190612734565b94506118e9565b8093505050505b919050565b82600481019282156119ad579160200282015b828111156119ac578235825591602001919060010190611991565b5b5090506119ba9190611a44565b5090565b8280546119ca906121be565b90600052602060002090601f0160209004810192826119ec5760008555611a33565b82601f10611a0557805160ff1916838001178555611a33565b82800160010185558215611a33579182015b82811115611a32578251825591602001919060010190611a17565b5b509050611a409190611a44565b5090565b5b80821115611a5d576000816000905550600101611a45565b5090565b6000604051905090565b600080fd5b600080fd5b600073ffffffffffffffffffffffffffffffffffffffff82169050919050565b6000611aa082611a75565b9050919050565b6000611ab282611a95565b9050919050565b611ac281611aa7565b8114611acd57600080fd5b50565b600081359050611adf81611ab9565b92915050565b600060208284031215611afb57611afa611a6b565b5b6000611b0984828501611ad0565b91505092915050565b6000819050919050565b611b2581611b12565b82525050565b6000602082019050611b406000830184611b1c565b92915050565b600080fd5b600080fd5b600080fd5b60008083601f840112611b6b57611b6a611b46565b5b8235905067ffffffffffffffff811115611b8857611b87611b4b565b5b602083019150836080820283011115611ba457611ba3611b50565b5b9250929050565b60008060208385031215611bc257611bc1611a6b565b5b600083013567ffffffffffffffff811115611be057611bdf611a70565b5b611bec85828601611b55565b92509250509250929050565b6000819050919050565b6000611c1d611c18611c1384611a75565b611bf8565b611a75565b9050919050565b6000611c2f82611c02565b9050919050565b6000611c4182611c24565b9050919050565b611c5181611c36565b82525050565b6000602082019050611c6c6000830184611c48565b92915050565b611c7b81611a95565b8114611c8657600080fd5b50565b600081359050611c9881611c72565b92915050565b60008083601f840112611cb457611cb3611b46565b5b8235905067ffffffffffffffff811115611cd157611cd0611b4b565b5b602083019150836020820283011115611ced57611cec611b50565b5b9250929050565b60008060008060008060008060a0898b031215611d1457611d13611a6b565b5b6000611d228b828c01611c89565b9850506020611d338b828c01611c89565b975050604089013567ffffffffffffffff811115611d5457611d53611a70565b5b611d608b828c01611c9e565b9650965050606089013567ffffffffffffffff811115611d8357611d82611a70565b5b611d8f8b828c01611c9e565b9450945050608089013567ffffffffffffffff811115611db257611db1611a70565b5b611dbe8b828c01611b55565b92509250509295985092959890939650565b600060208284031215611de657611de5611a6b565b5b6000611df484828501611c89565b91505092915050565b600081519050919050565b600082825260208201905092915050565b60005b83811015611e37578082015181840152602081019050611e1c565b83811115611e46576000848401525b50505050565b6000601f19601f8301169050919050565b6000611e6882611dfd565b611e728185611e08565b9350611e82818560208601611e19565b611e8b81611e4c565b840191505092915050565b60006020820190508181036000830152611eb08184611e5d565b905092915050565b611ec181611b12565b8114611ecc57600080fd5b50565b600081359050611ede81611eb8565b92915050565b60008060408385031215611efb57611efa611a6b565b5b6000611f0985828601611ecf565b9250506020611f1a85828601611ecf565b9150509250929050565b600060208284031215611f3a57611f39611a6b565b5b6000611f4884828501611ecf565b91505092915050565b60008060208385031215611f6857611f67611a6b565b5b600083013567ffffffffffffffff811115611f8657611f85611a70565b5b611f9285828601611c9e565b92509250509250929050565b60006040820190508181036000830152611fb88185611e5d565b90508181036020830152611fcc8184611e5d565b90509392505050565b7f4e487b7100000000000000000000000000000000000000000000000000000000600052601160045260246000fd5b600061200f82611b12565b91507fffffffffffffffffffffffffffffffffffffffffffffffffffffffffffffffff82141561204257612041611fd5565b5b600182019050919050565b7f4e487b7100000000000000000000000000000000000000000000000000000000600052603260045260246000fd5b7f4e487b7100000000000000000000000000000000000000000000000000000000600052604160045260246000fd5b60006120b682611b12565b91506120c183611b12565b9250827fffffffffffffffffffffffffffffffffffffffffffffffffffffffffffffffff038211156120f6576120f5611fd5565b5b828201905092915050565b600061210c82611b12565b915061211783611b12565b9250817fffffffffffffffffffffffffffffffffffffffffffffffffffffffffffffffff04831182151516156121505761214f611fd5565b5b828202905092915050565b600061216682611b12565b915061217183611b12565b92508282101561218457612183611fd5565b5b828203905092915050565b7f4e487b7100000000000000000000000000000000000000000000000000000000600052602260045260246000fd5b600060028204905060018216806121d657607f821691505b602082108114156121ea576121e961218f565b5b50919050565b6000815190506121ff81611eb8565b92915050565b60006020828403121561221b5761221a611a6b565b5b6000612229848285016121f0565b91505092915050565b600081905092915050565b600061224882611dfd565b6122528185612232565b9350612262818560208601611e19565b80840191505092915050565b7f5772617070657200000000000000000000000000000000000000000000000000815250565b60006122a0828461223d565b91506122ab8261226e565b60078201915081905092915050565b6000819050919050565b60006122df6122da6122d5846122ba565b611bf8565b611b12565b9050919050565b6122ef816122c4565b82525050565b6000606082019050818103600083015261230f8186611e5d565b905061231e60208301856122e6565b61232b60408301846122e6565b949350505050565b600080fd5b61234182611e4c565b810181811067ffffffffffffffff821117156123605761235f61207c565b5b80604052505050565b6000612373611a61565b905061237f8282612338565b919050565b600067ffffffffffffffff82111561239f5761239e61207c565b5b6123a882611e4c565b9050602081019050919050565b60006123c86123c384612384565b612369565b9050828152602081018484840111156123e4576123e3612333565b5b6123ef848285611e19565b509392505050565b600082601f83011261240c5761240b611b46565b5b815161241c8482602086016123b5565b91505092915050565b60006020828403121561243b5761243a611a6b565b5b600082015167ffffffffffffffff81111561245957612458611a70565b5b612465848285016123f7565b91505092915050565b600081519050919050565b600081905092915050565b600061248f8261246e565b6124998185612479565b93506124a9818560208601611e19565b80840191505092915050565b60006124c18284612484565b915081905092915050565b60006124d8828561223d565b91506124e4828461223d565b91508190509392505050565b6000606082019050818103600083015261250a8186611e5d565b90506125196020830185611b1c565b6125266040830184611b1c565b949350505050565b6000819050919050565b600061255361254e6125498461252e565b611bf8565b611b12565b9050919050565b61256381612538565b82525050565b600060608201905081810360008301526125838186611e5d565b9050612592602083018561255a565b61259f604083018461255a565b949350505050565b7f72656e6465725772617070657200000000000000000000000000000000000000600082015250565b60006125dd600d83611e08565b91506125e8826125a7565b602082019050919050565b6000606082019050818103600083015261260c816125d0565b905061261b60208301856122e6565b61262860408301846122e6565b9392505050565b60006060820190508181036000830152612648816125d0565b9050612657602083018561255a565b612664604083018461255a565b9392505050565b600080fd5b600080fd5b600080fd5b6000823560016040038336030381126126965761269561266b565b5b80830191505092915050565b600080833560016020038436030381126126bf576126be61266b565b5b80840192508235915067ffffffffffffffff8211156126e1576126e0612670565b5b6020830192506001820236038313156126fd576126fc612675565b5b509250929050565b7f4e487b7100000000000000000000000000000000000000000000000000000000600052601260045260246000fd5b600061273f82611b12565b915061274a83611b12565b92508261275a57612759612705565b5b828204905092915050565b600061277082611b12565b915061277b83611b12565b92508261278b5761278a612705565b5b82820690509291505056fea26469706673582212209c3ba8432f8b11b2565b65836151082f26512acfc9e98556dddbb51931feeb4964736f6c634300080c0033",
          "opcodes": "PUSH1 0x80 PUSH1 0x40 MSTORE CALLVALUE DUP1 ISZERO PUSH2 0x10 JUMPI PUSH1 0x0 DUP1 REVERT JUMPDEST POP PUSH2 0x27CC DUP1 PUSH2 0x20 PUSH1 0x0 CODECOPY PUSH1 0x0 RETURN INVALID PUSH1 0x80 PUSH1 0x40 MSTORE CALLVALUE DUP1 ISZERO PUSH2 0x10 JUMPI PUSH1 0x0 DUP1 REVERT JUMPDEST POP PUSH1 0x4 CALLDATASIZE LT PUSH2 0x10B JUMPI PUSH1 0x0 CALLDATALOAD PUSH1 0xE0 SHR DUP1 PUSH4 0x70370513 GT PUSH2 0xA2 JUMPI DUP1 PUSH4 0xA0B4B301 GT PUSH2 0x71 JUMPI DUP1 PUSH4 0xA0B4B301 EQ PUSH2 0x2A4 JUMPI DUP1 PUSH4 0xB5D40C05 EQ PUSH2 0x2D5 JUMPI DUP1 PUSH4 0xCD9DF190 EQ PUSH2 0x306 JUMPI DUP1 PUSH4 0xCDB53AC1 EQ PUSH2 0x324 JUMPI DUP1 PUSH4 0xDC133575 EQ PUSH2 0x342 JUMPI PUSH2 0x10B JUMP JUMPDEST DUP1 PUSH4 0x70370513 EQ PUSH2 0x20A JUMPI DUP1 PUSH4 0x7556D1B9 EQ PUSH2 0x23A JUMPI DUP1 PUSH4 0x80536F63 EQ PUSH2 0x26A JUMPI DUP1 PUSH4 0x92F02E13 EQ PUSH2 0x286 JUMPI PUSH2 0x10B JUMP JUMPDEST DUP1 PUSH4 0x4CB139A6 GT PUSH2 0xDE JUMPI DUP1 PUSH4 0x4CB139A6 EQ PUSH2 0x182 JUMPI DUP1 PUSH4 0x4F5EA5CC EQ PUSH2 0x1A0 JUMPI DUP1 PUSH4 0x5E57966D EQ PUSH2 0x1BC JUMPI DUP1 PUSH4 0x6BD40805 EQ PUSH2 0x1EC JUMPI PUSH2 0x10B JUMP JUMPDEST DUP1 PUSH4 0x11BF85CE EQ PUSH2 0x110 JUMPI DUP1 PUSH4 0x1B68226F EQ PUSH2 0x12C JUMPI DUP1 PUSH4 0x27D98DF3 EQ PUSH2 0x14A JUMPI DUP1 PUSH4 0x292EABDE EQ PUSH2 0x166 JUMPI JUMPDEST PUSH1 0x0 DUP1 REVERT JUMPDEST PUSH2 0x12A PUSH1 0x4 DUP1 CALLDATASIZE SUB DUP2 ADD SWAP1 PUSH2 0x125 SWAP2 SWAP1 PUSH2 0x1AE5 JUMP JUMPDEST PUSH2 0x35E JUMP JUMPDEST STOP JUMPDEST PUSH2 0x134 PUSH2 0x3A1 JUMP JUMPDEST PUSH1 0x40 MLOAD PUSH2 0x141 SWAP2 SWAP1 PUSH2 0x1B2B JUMP JUMPDEST PUSH1 0x40 MLOAD DUP1 SWAP2 SUB SWAP1 RETURN JUMPDEST PUSH2 0x164 PUSH1 0x4 DUP1 CALLDATASIZE SUB DUP2 ADD SWAP1 PUSH2 0x15F SWAP2 SWAP1 PUSH2 0x1AE5 JUMP JUMPDEST PUSH2 0x3A7 JUMP JUMPDEST STOP JUMPDEST PUSH2 0x180 PUSH1 0x4 DUP1 CALLDATASIZE SUB DUP2 ADD SWAP1 PUSH2 0x17B SWAP2 SWAP1 PUSH2 0x1BAB JUMP JUMPDEST PUSH2 0x3EB JUMP JUMPDEST STOP JUMPDEST PUSH2 0x18A PUSH2 0x46E JUMP JUMPDEST PUSH1 0x40 MLOAD PUSH2 0x197 SWAP2 SWAP1 PUSH2 0x1C57 JUMP JUMPDEST PUSH1 0x40 MLOAD DUP1 SWAP2 SUB SWAP1 RETURN JUMPDEST PUSH2 0x1BA PUSH1 0x4 DUP1 CALLDATASIZE SUB DUP2 ADD SWAP1 PUSH2 0x1B5 SWAP2 SWAP1 PUSH2 0x1CF4 JUMP JUMPDEST PUSH2 0x494 JUMP JUMPDEST STOP JUMPDEST PUSH2 0x1D6 PUSH1 0x4 DUP1 CALLDATASIZE SUB DUP2 ADD SWAP1 PUSH2 0x1D1 SWAP2 SWAP1 PUSH2 0x1DD0 JUMP JUMPDEST PUSH2 0x4CE JUMP JUMPDEST PUSH1 0x40 MLOAD PUSH2 0x1E3 SWAP2 SWAP1 PUSH2 0x1E96 JUMP JUMPDEST PUSH1 0x40 MLOAD DUP1 SWAP2 SUB SWAP1 RETURN JUMPDEST PUSH2 0x1F4 PUSH2 0x7D9 JUMP JUMPDEST PUSH1 0x40 MLOAD PUSH2 0x201 SWAP2 SWAP1 PUSH2 0x1B2B JUMP JUMPDEST PUSH1 0x40 MLOAD DUP1 SWAP2 SUB SWAP1 RETURN JUMPDEST PUSH2 0x224 PUSH1 0x4 DUP1 CALLDATASIZE SUB DUP2 ADD SWAP1 PUSH2 0x21F SWAP2 SWAP1 PUSH2 0x1EE4 JUMP JUMPDEST PUSH2 0x7DF JUMP JUMPDEST PUSH1 0x40 MLOAD PUSH2 0x231 SWAP2 SWAP1 PUSH2 0x1B2B JUMP JUMPDEST PUSH1 0x40 MLOAD DUP1 SWAP2 SUB SWAP1 RETURN JUMPDEST PUSH2 0x254 PUSH1 0x4 DUP1 CALLDATASIZE SUB DUP2 ADD SWAP1 PUSH2 0x24F SWAP2 SWAP1 PUSH2 0x1F24 JUMP JUMPDEST PUSH2 0x807 JUMP JUMPDEST PUSH1 0x40 MLOAD PUSH2 0x261 SWAP2 SWAP1 PUSH2 0x1E96 JUMP JUMPDEST PUSH1 0x40 MLOAD DUP1 SWAP2 SUB SWAP1 RETURN JUMPDEST PUSH2 0x284 PUSH1 0x4 DUP1 CALLDATASIZE SUB DUP2 ADD SWAP1 PUSH2 0x27F SWAP2 SWAP1 PUSH2 0x1F51 JUMP JUMPDEST PUSH2 0x1174 JUMP JUMPDEST STOP JUMPDEST PUSH2 0x28E PUSH2 0x132B JUMP JUMPDEST PUSH1 0x40 MLOAD PUSH2 0x29B SWAP2 SWAP1 PUSH2 0x1E96 JUMP JUMPDEST PUSH1 0x40 MLOAD DUP1 SWAP2 SUB SWAP1 RETURN JUMPDEST PUSH2 0x2BE PUSH1 0x4 DUP1 CALLDATASIZE SUB DUP2 ADD SWAP1 PUSH2 0x2B9 SWAP2 SWAP1 PUSH2 0x1F24 JUMP JUMPDEST PUSH2 0x13D4 JUMP JUMPDEST PUSH1 0x40 MLOAD PUSH2 0x2CC SWAP3 SWAP2 SWAP1 PUSH2 0x1F9E JUMP JUMPDEST PUSH1 0x40 MLOAD DUP1 SWAP2 SUB SWAP1 RETURN JUMPDEST PUSH2 0x2EF PUSH1 0x4 DUP1 CALLDATASIZE SUB DUP2 ADD SWAP1 PUSH2 0x2EA SWAP2 SWAP1 PUSH2 0x1F24 JUMP JUMPDEST PUSH2 0x1508 JUMP JUMPDEST PUSH1 0x40 MLOAD PUSH2 0x2FD SWAP3 SWAP2 SWAP1 PUSH2 0x1F9E JUMP JUMPDEST PUSH1 0x40 MLOAD DUP1 SWAP2 SUB SWAP1 RETURN JUMPDEST PUSH2 0x30E PUSH2 0x163C JUMP JUMPDEST PUSH1 0x40 MLOAD PUSH2 0x31B SWAP2 SWAP1 PUSH2 0x1B2B JUMP JUMPDEST PUSH1 0x40 MLOAD DUP1 SWAP2 SUB SWAP1 RETURN JUMPDEST PUSH2 0x32C PUSH2 0x1642 JUMP JUMPDEST PUSH1 0x40 MLOAD PUSH2 0x339 SWAP2 SWAP1 PUSH2 0x1C57 JUMP JUMPDEST PUSH1 0x40 MLOAD DUP1 SWAP2 SUB SWAP1 RETURN JUMPDEST PUSH2 0x35C PUSH1 0x4 DUP1 CALLDATASIZE SUB DUP2 ADD SWAP1 PUSH2 0x357 SWAP2 SWAP1 PUSH2 0x1F51 JUMP JUMPDEST PUSH2 0x1666 JUMP JUMPDEST STOP JUMPDEST DUP1 PUSH1 0x0 DUP1 PUSH2 0x100 EXP DUP2 SLOAD DUP2 PUSH20 0xFFFFFFFFFFFFFFFFFFFFFFFFFFFFFFFFFFFFFFFF MUL NOT AND SWAP1 DUP4 PUSH20 0xFFFFFFFFFFFFFFFFFFFFFFFFFFFFFFFFFFFFFFFF AND MUL OR SWAP1 SSTORE POP POP JUMP JUMPDEST PUSH1 0x3 SLOAD DUP2 JUMP JUMPDEST DUP1 PUSH1 0x1 PUSH1 0x0 PUSH2 0x100 EXP DUP2 SLOAD DUP2 PUSH20 0xFFFFFFFFFFFFFFFFFFFFFFFFFFFFFFFFFFFFFFFF MUL NOT AND SWAP1 DUP4 PUSH20 0xFFFFFFFFFFFFFFFFFFFFFFFFFFFFFFFFFFFFFFFF AND MUL OR SWAP1 SSTORE POP POP JUMP JUMPDEST PUSH1 0x0 JUMPDEST DUP3 DUP3 SWAP1 POP DUP2 LT ISZERO PUSH2 0x45F JUMPI PUSH1 0x6 PUSH1 0x0 DUP2 SLOAD DUP1 SWAP3 SWAP2 SWAP1 PUSH2 0x40C SWAP1 PUSH2 0x2004 JUMP JUMPDEST SWAP2 SWAP1 POP SSTORE POP DUP3 DUP3 DUP3 DUP2 DUP2 LT PUSH2 0x424 JUMPI PUSH2 0x423 PUSH2 0x204D JUMP JUMPDEST JUMPDEST SWAP1 POP PUSH1 0x80 MUL ADD PUSH1 0x7 PUSH1 0x0 DUP4 DUP2 MSTORE PUSH1 0x20 ADD SWAP1 DUP2 MSTORE PUSH1 0x20 ADD PUSH1 0x0 KECCAK256 SWAP1 PUSH1 0x4 PUSH2 0x44B SWAP3 SWAP2 SWAP1 PUSH2 0x197E JUMP JUMPDEST POP DUP1 DUP1 PUSH2 0x457 SWAP1 PUSH2 0x2004 JUMP JUMPDEST SWAP2 POP POP PUSH2 0x3EE JUMP JUMPDEST POP DUP2 DUP2 SWAP1 POP PUSH1 0x6 DUP2 SWAP1 SSTORE POP POP POP JUMP JUMPDEST PUSH1 0x1 PUSH1 0x0 SWAP1 SLOAD SWAP1 PUSH2 0x100 EXP SWAP1 DIV PUSH20 0xFFFFFFFFFFFFFFFFFFFFFFFFFFFFFFFFFFFFFFFF AND DUP2 JUMP JUMPDEST PUSH2 0x49D DUP9 PUSH2 0x35E JUMP JUMPDEST PUSH2 0x4A6 DUP8 PUSH2 0x3A7 JUMP JUMPDEST PUSH2 0x4B0 DUP7 DUP7 PUSH2 0x1174 JUMP JUMPDEST PUSH2 0x4BA DUP5 DUP5 PUSH2 0x1666 JUMP JUMPDEST PUSH2 0x4C4 DUP3 DUP3 PUSH2 0x3EB JUMP JUMPDEST POP POP POP POP POP POP POP POP JUMP JUMPDEST PUSH1 0x60 PUSH1 0x0 DUP3 PUSH20 0xFFFFFFFFFFFFFFFFFFFFFFFFFFFFFFFFFFFFFFFF AND PUSH1 0x0 SHL SWAP1 POP PUSH1 0x0 PUSH1 0x40 MLOAD DUP1 PUSH1 0x40 ADD PUSH1 0x40 MSTORE DUP1 PUSH1 0x10 DUP2 MSTORE PUSH1 0x20 ADD PUSH32 0x3031323334353637383961626364656600000000000000000000000000000000 DUP2 MSTORE POP SWAP1 POP PUSH1 0x0 PUSH1 0x33 PUSH8 0xFFFFFFFFFFFFFFFF DUP2 GT ISZERO PUSH2 0x545 JUMPI PUSH2 0x544 PUSH2 0x207C JUMP JUMPDEST JUMPDEST PUSH1 0x40 MLOAD SWAP1 DUP1 DUP3 MSTORE DUP1 PUSH1 0x1F ADD PUSH1 0x1F NOT AND PUSH1 0x20 ADD DUP3 ADD PUSH1 0x40 MSTORE DUP1 ISZERO PUSH2 0x577 JUMPI DUP2 PUSH1 0x20 ADD PUSH1 0x1 DUP3 MUL DUP1 CALLDATASIZE DUP4 CALLDATACOPY DUP1 DUP3 ADD SWAP2 POP POP SWAP1 POP JUMPDEST POP SWAP1 POP PUSH32 0x3000000000000000000000000000000000000000000000000000000000000000 DUP2 PUSH1 0x0 DUP2 MLOAD DUP2 LT PUSH2 0x5AF JUMPI PUSH2 0x5AE PUSH2 0x204D JUMP JUMPDEST JUMPDEST PUSH1 0x20 ADD ADD SWAP1 PUSH31 0xFFFFFFFFFFFFFFFFFFFFFFFFFFFFFFFFFFFFFFFFFFFFFFFFFFFFFFFFFFFFFF NOT AND SWAP1 DUP2 PUSH1 0x0 BYTE SWAP1 MSTORE8 POP PUSH32 0x7800000000000000000000000000000000000000000000000000000000000000 DUP2 PUSH1 0x1 DUP2 MLOAD DUP2 LT PUSH2 0x613 JUMPI PUSH2 0x612 PUSH2 0x204D JUMP JUMPDEST JUMPDEST PUSH1 0x20 ADD ADD SWAP1 PUSH31 0xFFFFFFFFFFFFFFFFFFFFFFFFFFFFFFFFFFFFFFFFFFFFFFFFFFFFFFFFFFFFFF NOT AND SWAP1 DUP2 PUSH1 0x0 BYTE SWAP1 MSTORE8 POP PUSH1 0x0 JUMPDEST PUSH1 0x14 DUP2 LT ISZERO PUSH2 0x7CD JUMPI DUP3 PUSH1 0x4 DUP6 PUSH1 0xC DUP5 PUSH2 0x65F SWAP2 SWAP1 PUSH2 0x20AB JUMP JUMPDEST PUSH1 0x20 DUP2 LT PUSH2 0x670 JUMPI PUSH2 0x66F PUSH2 0x204D JUMP JUMPDEST JUMPDEST BYTE PUSH1 0xF8 SHL PUSH31 0xFFFFFFFFFFFFFFFFFFFFFFFFFFFFFFFFFFFFFFFFFFFFFFFFFFFFFFFFFFFFFF NOT AND SWAP1 SHR PUSH1 0xF8 SHR PUSH1 0xFF AND DUP2 MLOAD DUP2 LT PUSH2 0x6AF JUMPI PUSH2 0x6AE PUSH2 0x204D JUMP JUMPDEST JUMPDEST PUSH1 0x20 ADD ADD MLOAD PUSH1 0xF8 SHR PUSH1 0xF8 SHL DUP3 PUSH1 0x2 DUP4 PUSH2 0x6C8 SWAP2 SWAP1 PUSH2 0x2101 JUMP JUMPDEST PUSH1 0x2 PUSH2 0x6D4 SWAP2 SWAP1 PUSH2 0x20AB JUMP JUMPDEST DUP2 MLOAD DUP2 LT PUSH2 0x6E5 JUMPI PUSH2 0x6E4 PUSH2 0x204D JUMP JUMPDEST JUMPDEST PUSH1 0x20 ADD ADD SWAP1 PUSH31 0xFFFFFFFFFFFFFFFFFFFFFFFFFFFFFFFFFFFFFFFFFFFFFFFFFFFFFFFFFFFFFF NOT AND SWAP1 DUP2 PUSH1 0x0 BYTE SWAP1 MSTORE8 POP DUP3 PUSH1 0xF PUSH1 0xF8 SHL DUP6 PUSH1 0xC DUP5 PUSH2 0x728 SWAP2 SWAP1 PUSH2 0x20AB JUMP JUMPDEST PUSH1 0x20 DUP2 LT PUSH2 0x739 JUMPI PUSH2 0x738 PUSH2 0x204D JUMP JUMPDEST JUMPDEST BYTE PUSH1 0xF8 SHL AND PUSH1 0xF8 SHR PUSH1 0xFF AND DUP2 MLOAD DUP2 LT PUSH2 0x755 JUMPI PUSH2 0x754 PUSH2 0x204D JUMP JUMPDEST JUMPDEST PUSH1 0x20 ADD ADD MLOAD PUSH1 0xF8 SHR PUSH1 0xF8 SHL DUP3 PUSH1 0x2 DUP4 PUSH2 0x76E SWAP2 SWAP1 PUSH2 0x2101 JUMP JUMPDEST PUSH1 0x3 PUSH2 0x77A SWAP2 SWAP1 PUSH2 0x20AB JUMP JUMPDEST DUP2 MLOAD DUP2 LT PUSH2 0x78B JUMPI PUSH2 0x78A PUSH2 0x204D JUMP JUMPDEST JUMPDEST PUSH1 0x20 ADD ADD SWAP1 PUSH31 0xFFFFFFFFFFFFFFFFFFFFFFFFFFFFFFFFFFFFFFFFFFFFFFFFFFFFFFFFFFFFFF NOT AND SWAP1 DUP2 PUSH1 0x0 BYTE SWAP1 MSTORE8 POP DUP1 DUP1 PUSH2 0x7C5 SWAP1 PUSH2 0x2004 JUMP JUMPDEST SWAP2 POP POP PUSH2 0x645 JUMP JUMPDEST POP DUP1 SWAP4 POP POP POP POP SWAP2 SWAP1 POP JUMP JUMPDEST PUSH1 0x6 SLOAD DUP2 JUMP JUMPDEST PUSH1 0x7 PUSH1 0x20 MSTORE DUP2 PUSH1 0x0 MSTORE PUSH1 0x40 PUSH1 0x0 KECCAK256 DUP2 PUSH1 0x4 DUP2 LT PUSH2 0x7FB JUMPI PUSH1 0x0 DUP1 REVERT JUMPDEST ADD PUSH1 0x0 SWAP2 POP SWAP2 POP POP SLOAD DUP2 JUMP JUMPDEST PUSH1 0x60 PUSH1 0x0 PUSH1 0x7 PUSH1 0x0 DUP5 DUP2 MSTORE PUSH1 0x20 ADD SWAP1 DUP2 MSTORE PUSH1 0x20 ADD PUSH1 0x0 KECCAK256 PUSH1 0x4 DUP1 PUSH1 0x20 MUL PUSH1 0x40 MLOAD SWAP1 DUP2 ADD PUSH1 0x40 MSTORE DUP1 SWAP3 SWAP2 SWAP1 DUP3 PUSH1 0x4 DUP1 ISZERO PUSH2 0x855 JUMPI PUSH1 0x20 MUL DUP3 ADD SWAP2 JUMPDEST DUP2 SLOAD DUP2 MSTORE PUSH1 0x20 ADD SWAP1 PUSH1 0x1 ADD SWAP1 DUP1 DUP4 GT PUSH2 0x841 JUMPI JUMPDEST POP POP POP POP POP SWAP1 POP PUSH1 0x0 DUP2 PUSH1 0x0 PUSH1 0x4 DUP2 LT PUSH2 0x872 JUMPI PUSH2 0x871 PUSH2 0x204D JUMP JUMPDEST JUMPDEST PUSH1 0x20 MUL ADD MLOAD SWAP1 POP PUSH1 0x0 DUP3 PUSH1 0x1 PUSH1 0x4 DUP2 LT PUSH2 0x88F JUMPI PUSH2 0x88E PUSH2 0x204D JUMP JUMPDEST JUMPDEST PUSH1 0x20 MUL ADD MLOAD SWAP1 POP PUSH1 0x0 DUP4 PUSH1 0x2 PUSH1 0x4 DUP2 LT PUSH2 0x8AC JUMPI PUSH2 0x8AB PUSH2 0x204D JUMP JUMPDEST JUMPDEST PUSH1 0x20 MUL ADD MLOAD SWAP1 POP PUSH1 0x0 DUP5 PUSH1 0x3 PUSH1 0x4 DUP2 LT PUSH2 0x8C9 JUMPI PUSH2 0x8C8 PUSH2 0x204D JUMP JUMPDEST JUMPDEST PUSH1 0x20 MUL ADD MLOAD SWAP1 POP PUSH1 0x0 PUSH1 0x40 MLOAD DUP1 PUSH1 0x20 ADD PUSH1 0x40 MSTORE DUP1 PUSH1 0x0 DUP2 MSTORE POP SWAP1 POP PUSH1 0x0 DUP6 SWAP1 POP JUMPDEST PUSH1 0x1 DUP6 PUSH2 0x8F7 SWAP2 SWAP1 PUSH2 0x20AB JUMP JUMPDEST DUP2 LT ISZERO PUSH2 0xFBA JUMPI PUSH1 0x0 PUSH1 0x3 SLOAD PUSH1 0x1 DUP4 PUSH2 0x910 SWAP2 SWAP1 PUSH2 0x20AB JUMP JUMPDEST GT ISZERO SWAP1 POP PUSH1 0x0 DUP2 PUSH2 0x92E JUMPI PUSH1 0x3 SLOAD DUP4 PUSH2 0x929 SWAP2 SWAP1 PUSH2 0x215B JUMP JUMPDEST PUSH2 0x930 JUMP JUMPDEST DUP3 JUMPDEST SWAP1 POP PUSH1 0x0 DUP3 PUSH2 0x961 JUMPI PUSH1 0x1 PUSH1 0x0 SWAP1 SLOAD SWAP1 PUSH2 0x100 EXP SWAP1 DIV PUSH20 0xFFFFFFFFFFFFFFFFFFFFFFFFFFFFFFFFFFFFFFFF AND PUSH2 0x983 JUMP JUMPDEST PUSH1 0x0 DUP1 SLOAD SWAP1 PUSH2 0x100 EXP SWAP1 DIV PUSH20 0xFFFFFFFFFFFFFFFFFFFFFFFFFFFFFFFFFFFFFFFF AND JUMPDEST SWAP1 POP PUSH1 0x0 DUP4 PUSH2 0x9A4 JUMPI PUSH1 0x4 PUSH1 0x0 DUP5 DUP2 MSTORE PUSH1 0x20 ADD SWAP1 DUP2 MSTORE PUSH1 0x20 ADD PUSH1 0x0 KECCAK256 PUSH2 0x9B8 JUMP JUMPDEST PUSH1 0x2 PUSH1 0x0 DUP7 DUP2 MSTORE PUSH1 0x20 ADD SWAP1 DUP2 MSTORE PUSH1 0x20 ADD PUSH1 0x0 KECCAK256 JUMPDEST PUSH1 0x40 MLOAD DUP1 PUSH1 0x40 ADD PUSH1 0x40 MSTORE SWAP1 DUP2 PUSH1 0x0 DUP3 ADD DUP1 SLOAD PUSH2 0x9D3 SWAP1 PUSH2 0x21BE JUMP JUMPDEST DUP1 PUSH1 0x1F ADD PUSH1 0x20 DUP1 SWAP2 DIV MUL PUSH1 0x20 ADD PUSH1 0x40 MLOAD SWAP1 DUP2 ADD PUSH1 0x40 MSTORE DUP1 SWAP3 SWAP2 SWAP1 DUP2 DUP2 MSTORE PUSH1 0x20 ADD DUP3 DUP1 SLOAD PUSH2 0x9FF SWAP1 PUSH2 0x21BE JUMP JUMPDEST DUP1 ISZERO PUSH2 0xA4C JUMPI DUP1 PUSH1 0x1F LT PUSH2 0xA21 JUMPI PUSH2 0x100 DUP1 DUP4 SLOAD DIV MUL DUP4 MSTORE SWAP2 PUSH1 0x20 ADD SWAP2 PUSH2 0xA4C JUMP JUMPDEST DUP3 ADD SWAP2 SWAP1 PUSH1 0x0 MSTORE PUSH1 0x20 PUSH1 0x0 KECCAK256 SWAP1 JUMPDEST DUP2 SLOAD DUP2 MSTORE SWAP1 PUSH1 0x1 ADD SWAP1 PUSH1 0x20 ADD DUP1 DUP4 GT PUSH2 0xA2F JUMPI DUP3 SWAP1 SUB PUSH1 0x1F AND DUP3 ADD SWAP2 JUMPDEST POP POP POP POP POP DUP2 MSTORE PUSH1 0x20 ADD PUSH1 0x1 DUP3 ADD DUP1 SLOAD PUSH2 0xA65 SWAP1 PUSH2 0x21BE JUMP JUMPDEST DUP1 PUSH1 0x1F ADD PUSH1 0x20 DUP1 SWAP2 DIV MUL PUSH1 0x20 ADD PUSH1 0x40 MLOAD SWAP1 DUP2 ADD PUSH1 0x40 MSTORE DUP1 SWAP3 SWAP2 SWAP1 DUP2 DUP2 MSTORE PUSH1 0x20 ADD DUP3 DUP1 SLOAD PUSH2 0xA91 SWAP1 PUSH2 0x21BE JUMP JUMPDEST DUP1 ISZERO PUSH2 0xADE JUMPI DUP1 PUSH1 0x1F LT PUSH2 0xAB3 JUMPI PUSH2 0x100 DUP1 DUP4 SLOAD DIV MUL DUP4 MSTORE SWAP2 PUSH1 0x20 ADD SWAP2 PUSH2 0xADE JUMP JUMPDEST DUP3 ADD SWAP2 SWAP1 PUSH1 0x0 MSTORE PUSH1 0x20 PUSH1 0x0 KECCAK256 SWAP1 JUMPDEST DUP2 SLOAD DUP2 MSTORE SWAP1 PUSH1 0x1 ADD SWAP1 PUSH1 0x20 ADD DUP1 DUP4 GT PUSH2 0xAC1 JUMPI DUP3 SWAP1 SUB PUSH1 0x1F AND DUP3 ADD SWAP2 JUMPDEST POP POP POP POP POP DUP2 MSTORE POP POP SWAP1 POP PUSH1 0x0 DUP5 PUSH2 0xB2B JUMPI PUSH1 0x40 MLOAD DUP1 PUSH1 0x40 ADD PUSH1 0x40 MSTORE DUP1 PUSH1 0xC DUP2 MSTORE PUSH1 0x20 ADD PUSH32 0x617373657453746F726167650000000000000000000000000000000000000000 DUP2 MSTORE POP PUSH2 0xB62 JUMP JUMPDEST PUSH1 0x40 MLOAD DUP1 PUSH1 0x40 ADD PUSH1 0x40 MSTORE DUP1 PUSH1 0xE DUP2 MSTORE PUSH1 0x20 ADD PUSH32 0x636F726544657053746F72616765000000000000000000000000000000000000 DUP2 MSTORE POP JUMPDEST SWAP1 POP PUSH1 0x0 DUP12 DUP8 EQ PUSH2 0xB74 JUMPI PUSH1 0x0 PUSH2 0xB76 JUMP JUMPDEST DUP10 JUMPDEST SWAP1 POP PUSH1 0x0 DUP12 DUP9 EQ PUSH2 0xC04 JUMPI DUP5 PUSH20 0xFFFFFFFFFFFFFFFFFFFFFFFFFFFFFFFFFFFFFFFF AND PUSH4 0xD431A42F DUP6 PUSH1 0x20 ADD MLOAD PUSH1 0x40 MLOAD DUP3 PUSH4 0xFFFFFFFF AND PUSH1 0xE0 SHL DUP2 MSTORE PUSH1 0x4 ADD PUSH2 0xBBE SWAP2 SWAP1 PUSH2 0x1E96 JUMP JUMPDEST PUSH1 0x20 PUSH1 0x40 MLOAD DUP1 DUP4 SUB DUP2 DUP7 GAS STATICCALL ISZERO DUP1 ISZERO PUSH2 0xBDB JUMPI RETURNDATASIZE PUSH1 0x0 DUP1 RETURNDATACOPY RETURNDATASIZE PUSH1 0x0 REVERT JUMPDEST POP POP POP POP PUSH1 0x40 MLOAD RETURNDATASIZE PUSH1 0x1F NOT PUSH1 0x1F DUP3 ADD AND DUP3 ADD DUP1 PUSH1 0x40 MSTORE POP DUP2 ADD SWAP1 PUSH2 0xBFF SWAP2 SWAP1 PUSH2 0x2205 JUMP JUMPDEST PUSH2 0xC06 JUMP JUMPDEST DUP10 JUMPDEST SWAP1 POP PUSH1 0x0 DUP3 EQ ISZERO PUSH2 0xD1B JUMPI DUP9 PUSH1 0x0 DUP1 SLOAD SWAP1 PUSH2 0x100 EXP SWAP1 DIV PUSH20 0xFFFFFFFFFFFFFFFFFFFFFFFFFFFFFFFFFFFFFFFF AND PUSH20 0xFFFFFFFFFFFFFFFFFFFFFFFFFFFFFFFFFFFFFFFF AND PUSH4 0x11AA4CBA DUP7 PUSH1 0x0 ADD MLOAD PUSH1 0x40 MLOAD PUSH1 0x20 ADD PUSH2 0xC63 SWAP2 SWAP1 PUSH2 0x2294 JUMP JUMPDEST PUSH1 0x40 MLOAD PUSH1 0x20 DUP2 DUP4 SUB SUB DUP2 MSTORE SWAP1 PUSH1 0x40 MSTORE PUSH1 0x0 DUP1 PUSH1 0x40 MLOAD DUP5 PUSH4 0xFFFFFFFF AND PUSH1 0xE0 SHL DUP2 MSTORE PUSH1 0x4 ADD PUSH2 0xC93 SWAP4 SWAP3 SWAP2 SWAP1 PUSH2 0x22F5 JUMP JUMPDEST PUSH1 0x0 PUSH1 0x40 MLOAD DUP1 DUP4 SUB DUP2 DUP7 GAS STATICCALL ISZERO DUP1 ISZERO PUSH2 0xCB0 JUMPI RETURNDATASIZE PUSH1 0x0 DUP1 RETURNDATACOPY RETURNDATASIZE PUSH1 0x0 REVERT JUMPDEST POP POP POP POP PUSH1 0x40 MLOAD RETURNDATASIZE PUSH1 0x0 DUP3 RETURNDATACOPY RETURNDATASIZE PUSH1 0x1F NOT PUSH1 0x1F DUP3 ADD AND DUP3 ADD DUP1 PUSH1 0x40 MSTORE POP DUP2 ADD SWAP1 PUSH2 0xCD9 SWAP2 SWAP1 PUSH2 0x2425 JUMP JUMPDEST PUSH1 0x40 MLOAD PUSH1 0x20 ADD PUSH2 0xCE9 SWAP2 SWAP1 PUSH2 0x24B5 JUMP JUMPDEST PUSH1 0x40 MLOAD PUSH1 0x20 DUP2 DUP4 SUB SUB DUP2 MSTORE SWAP1 PUSH1 0x40 MSTORE PUSH1 0x40 MLOAD PUSH1 0x20 ADD PUSH2 0xD09 SWAP3 SWAP2 SWAP1 PUSH2 0x24CC JUMP JUMPDEST PUSH1 0x40 MLOAD PUSH1 0x20 DUP2 DUP4 SUB SUB DUP2 MSTORE SWAP1 PUSH1 0x40 MSTORE SWAP9 POP JUMPDEST PUSH1 0x0 PUSH2 0xD26 DUP4 PUSH2 0x181D JUMP JUMPDEST SWAP1 POP PUSH1 0x0 PUSH2 0xD33 DUP4 PUSH2 0x181D JUMP JUMPDEST SWAP1 POP DUP11 DUP8 PUSH20 0xFFFFFFFFFFFFFFFFFFFFFFFFFFFFFFFFFFFFFFFF AND PUSH4 0x11AA4CBA DUP9 PUSH1 0x20 ADD MLOAD DUP8 DUP8 PUSH1 0x40 MLOAD DUP5 PUSH4 0xFFFFFFFF AND PUSH1 0xE0 SHL DUP2 MSTORE PUSH1 0x4 ADD PUSH2 0xD77 SWAP4 SWAP3 SWAP2 SWAP1 PUSH2 0x24F0 JUMP JUMPDEST PUSH1 0x0 PUSH1 0x40 MLOAD DUP1 DUP4 SUB DUP2 DUP7 GAS STATICCALL ISZERO DUP1 ISZERO PUSH2 0xD94 JUMPI RETURNDATASIZE PUSH1 0x0 DUP1 RETURNDATACOPY RETURNDATASIZE PUSH1 0x0 REVERT JUMPDEST POP POP POP POP PUSH1 0x40 MLOAD RETURNDATASIZE PUSH1 0x0 DUP3 RETURNDATACOPY RETURNDATASIZE PUSH1 0x1F NOT PUSH1 0x1F DUP3 ADD AND DUP3 ADD DUP1 PUSH1 0x40 MSTORE POP DUP2 ADD SWAP1 PUSH2 0xDBD SWAP2 SWAP1 PUSH2 0x2425 JUMP JUMPDEST PUSH1 0x40 MLOAD PUSH1 0x20 ADD PUSH2 0xDCD SWAP2 SWAP1 PUSH2 0x24B5 JUMP JUMPDEST PUSH1 0x40 MLOAD PUSH1 0x20 DUP2 DUP4 SUB SUB DUP2 MSTORE SWAP1 PUSH1 0x40 MSTORE PUSH1 0x40 MLOAD PUSH1 0x20 ADD PUSH2 0xDED SWAP3 SWAP2 SWAP1 PUSH2 0x24CC JUMP JUMPDEST PUSH1 0x40 MLOAD PUSH1 0x20 DUP2 DUP4 SUB SUB DUP2 MSTORE SWAP1 PUSH1 0x40 MSTORE SWAP11 POP PUSH1 0x0 DUP15 DUP12 EQ DUP1 ISZERO PUSH2 0xE8C JUMPI POP DUP8 PUSH20 0xFFFFFFFFFFFFFFFFFFFFFFFFFFFFFFFFFFFFFFFF AND PUSH4 0xD431A42F DUP9 PUSH1 0x20 ADD MLOAD PUSH1 0x40 MLOAD DUP3 PUSH4 0xFFFFFFFF AND PUSH1 0xE0 SHL DUP2 MSTORE PUSH1 0x4 ADD PUSH2 0xE47 SWAP2 SWAP1 PUSH2 0x1E96 JUMP JUMPDEST PUSH1 0x20 PUSH1 0x40 MLOAD DUP1 DUP4 SUB DUP2 DUP7 GAS STATICCALL ISZERO DUP1 ISZERO PUSH2 0xE64 JUMPI RETURNDATASIZE PUSH1 0x0 DUP1 RETURNDATACOPY RETURNDATASIZE PUSH1 0x0 REVERT JUMPDEST POP POP POP POP PUSH1 0x40 MLOAD RETURNDATASIZE PUSH1 0x1F NOT PUSH1 0x1F DUP3 ADD AND DUP3 ADD DUP1 PUSH1 0x40 MSTORE POP DUP2 ADD SWAP1 PUSH2 0xE88 SWAP2 SWAP1 PUSH2 0x2205 JUMP JUMPDEST DUP14 EQ ISZERO JUMPDEST SWAP1 POP DUP1 PUSH2 0xF9D JUMPI DUP12 PUSH1 0x0 DUP1 SLOAD SWAP1 PUSH2 0x100 EXP SWAP1 DIV PUSH20 0xFFFFFFFFFFFFFFFFFFFFFFFFFFFFFFFFFFFFFFFF AND PUSH20 0xFFFFFFFFFFFFFFFFFFFFFFFFFFFFFFFFFFFFFFFF AND PUSH4 0x11AA4CBA DUP10 PUSH1 0x0 ADD MLOAD PUSH1 0x40 MLOAD PUSH1 0x20 ADD PUSH2 0xEE5 SWAP2 SWAP1 PUSH2 0x2294 JUMP JUMPDEST PUSH1 0x40 MLOAD PUSH1 0x20 DUP2 DUP4 SUB SUB DUP2 MSTORE SWAP1 PUSH1 0x40 MSTORE PUSH1 0x1 DUP1 PUSH1 0x40 MLOAD DUP5 PUSH4 0xFFFFFFFF AND PUSH1 0xE0 SHL DUP2 MSTORE PUSH1 0x4 ADD PUSH2 0xF15 SWAP4 SWAP3 SWAP2 SWAP1 PUSH2 0x2569 JUMP JUMPDEST PUSH1 0x0 PUSH1 0x40 MLOAD DUP1 DUP4 SUB DUP2 DUP7 GAS STATICCALL ISZERO DUP1 ISZERO PUSH2 0xF32 JUMPI RETURNDATASIZE PUSH1 0x0 DUP1 RETURNDATACOPY RETURNDATASIZE PUSH1 0x0 REVERT JUMPDEST POP POP POP POP PUSH1 0x40 MLOAD RETURNDATASIZE PUSH1 0x0 DUP3 RETURNDATACOPY RETURNDATASIZE PUSH1 0x1F NOT PUSH1 0x1F DUP3 ADD AND DUP3 ADD DUP1 PUSH1 0x40 MSTORE POP DUP2 ADD SWAP1 PUSH2 0xF5B SWAP2 SWAP1 PUSH2 0x2425 JUMP JUMPDEST PUSH1 0x40 MLOAD PUSH1 0x20 ADD PUSH2 0xF6B SWAP2 SWAP1 PUSH2 0x24B5 JUMP JUMPDEST PUSH1 0x40 MLOAD PUSH1 0x20 DUP2 DUP4 SUB SUB DUP2 MSTORE SWAP1 PUSH1 0x40 MSTORE PUSH1 0x40 MLOAD PUSH1 0x20 ADD PUSH2 0xF8B SWAP3 SWAP2 SWAP1 PUSH2 0x24CC JUMP JUMPDEST PUSH1 0x40 MLOAD PUSH1 0x20 DUP2 DUP4 SUB SUB DUP2 MSTORE SWAP1 PUSH1 0x40 MSTORE SWAP12 POP JUMPDEST POP POP POP POP POP POP POP POP POP POP DUP1 DUP1 PUSH2 0xFB2 SWAP1 PUSH2 0x2004 JUMP JUMPDEST SWAP2 POP POP PUSH2 0x8EA JUMP JUMPDEST POP PUSH1 0x0 DUP9 EQ ISZERO PUSH2 0x108A JUMPI PUSH1 0x0 DUP1 SLOAD SWAP1 PUSH2 0x100 EXP SWAP1 DIV PUSH20 0xFFFFFFFFFFFFFFFFFFFFFFFFFFFFFFFFFFFFFFFF AND PUSH20 0xFFFFFFFFFFFFFFFFFFFFFFFFFFFFFFFFFFFFFFFF AND PUSH4 0x11AA4CBA PUSH1 0x0 DUP1 PUSH1 0x40 MLOAD DUP4 PUSH4 0xFFFFFFFF AND PUSH1 0xE0 SHL DUP2 MSTORE PUSH1 0x4 ADD PUSH2 0x1020 SWAP3 SWAP2 SWAP1 PUSH2 0x25F3 JUMP JUMPDEST PUSH1 0x0 PUSH1 0x40 MLOAD DUP1 DUP4 SUB DUP2 DUP7 GAS STATICCALL ISZERO DUP1 ISZERO PUSH2 0x103D JUMPI RETURNDATASIZE PUSH1 0x0 DUP1 RETURNDATACOPY RETURNDATASIZE PUSH1 0x0 REVERT JUMPDEST POP POP POP POP PUSH1 0x40 MLOAD RETURNDATASIZE PUSH1 0x0 DUP3 RETURNDATACOPY RETURNDATASIZE PUSH1 0x1F NOT PUSH1 0x1F DUP3 ADD AND DUP3 ADD DUP1 PUSH1 0x40 MSTORE POP DUP2 ADD SWAP1 PUSH2 0x1066 SWAP2 SWAP1 PUSH2 0x2425 JUMP JUMPDEST DUP2 PUSH1 0x40 MLOAD PUSH1 0x20 ADD PUSH2 0x1078 SWAP3 SWAP2 SWAP1 PUSH2 0x24CC JUMP JUMPDEST PUSH1 0x40 MLOAD PUSH1 0x20 DUP2 DUP4 SUB SUB DUP2 MSTORE SWAP1 PUSH1 0x40 MSTORE SWAP1 POP JUMPDEST PUSH1 0x1 PUSH1 0x6 SLOAD PUSH2 0x1099 SWAP2 SWAP1 PUSH2 0x215B JUMP JUMPDEST DUP9 EQ ISZERO PUSH2 0x1166 JUMPI DUP1 PUSH1 0x0 DUP1 SLOAD SWAP1 PUSH2 0x100 EXP SWAP1 DIV PUSH20 0xFFFFFFFFFFFFFFFFFFFFFFFFFFFFFFFFFFFFFFFF AND PUSH20 0xFFFFFFFFFFFFFFFFFFFFFFFFFFFFFFFFFFFFFFFF AND PUSH4 0x11AA4CBA PUSH1 0x1 DUP1 PUSH1 0x40 MLOAD DUP4 PUSH4 0xFFFFFFFF AND PUSH1 0xE0 SHL DUP2 MSTORE PUSH1 0x4 ADD PUSH2 0x10FD SWAP3 SWAP2 SWAP1 PUSH2 0x262F JUMP JUMPDEST PUSH1 0x0 PUSH1 0x40 MLOAD DUP1 DUP4 SUB DUP2 DUP7 GAS STATICCALL ISZERO DUP1 ISZERO PUSH2 0x111A JUMPI RETURNDATASIZE PUSH1 0x0 DUP1 RETURNDATACOPY RETURNDATASIZE PUSH1 0x0 REVERT JUMPDEST POP POP POP POP PUSH1 0x40 MLOAD RETURNDATASIZE PUSH1 0x0 DUP3 RETURNDATACOPY RETURNDATASIZE PUSH1 0x1F NOT PUSH1 0x1F DUP3 ADD AND DUP3 ADD DUP1 PUSH1 0x40 MSTORE POP DUP2 ADD SWAP1 PUSH2 0x1143 SWAP2 SWAP1 PUSH2 0x2425 JUMP JUMPDEST PUSH1 0x40 MLOAD PUSH1 0x20 ADD PUSH2 0x1154 SWAP3 SWAP2 SWAP1 PUSH2 0x24CC JUMP JUMPDEST PUSH1 0x40 MLOAD PUSH1 0x20 DUP2 DUP4 SUB SUB DUP2 MSTORE SWAP1 PUSH1 0x40 MSTORE SWAP1 POP JUMPDEST DUP1 SWAP7 POP POP POP POP POP POP POP SWAP2 SWAP1 POP JUMP JUMPDEST PUSH1 0x0 JUMPDEST DUP3 DUP3 SWAP1 POP DUP2 LT ISZERO PUSH2 0x1326 JUMPI PUSH1 0x40 MLOAD DUP1 PUSH1 0x40 ADD PUSH1 0x40 MSTORE DUP1 DUP5 DUP5 DUP5 DUP2 DUP2 LT PUSH2 0x11A0 JUMPI PUSH2 0x119F PUSH2 0x204D JUMP JUMPDEST JUMPDEST SWAP1 POP PUSH1 0x20 MUL DUP2 ADD SWAP1 PUSH2 0x11B2 SWAP2 SWAP1 PUSH2 0x267A JUMP JUMPDEST PUSH1 0x0 PUSH1 0x2 DUP2 LT PUSH2 0x11C5 JUMPI PUSH2 0x11C4 PUSH2 0x204D JUMP JUMPDEST JUMPDEST PUSH1 0x20 MUL DUP2 ADD SWAP1 PUSH2 0x11D5 SWAP2 SWAP1 PUSH2 0x26A2 JUMP JUMPDEST DUP1 DUP1 PUSH1 0x1F ADD PUSH1 0x20 DUP1 SWAP2 DIV MUL PUSH1 0x20 ADD PUSH1 0x40 MLOAD SWAP1 DUP2 ADD PUSH1 0x40 MSTORE DUP1 SWAP4 SWAP3 SWAP2 SWAP1 DUP2 DUP2 MSTORE PUSH1 0x20 ADD DUP4 DUP4 DUP1 DUP3 DUP5 CALLDATACOPY PUSH1 0x0 DUP2 DUP5 ADD MSTORE PUSH1 0x1F NOT PUSH1 0x1F DUP3 ADD AND SWAP1 POP DUP1 DUP4 ADD SWAP3 POP POP POP POP POP POP POP DUP2 MSTORE PUSH1 0x20 ADD DUP5 DUP5 DUP5 DUP2 DUP2 LT PUSH2 0x1230 JUMPI PUSH2 0x122F PUSH2 0x204D JUMP JUMPDEST JUMPDEST SWAP1 POP PUSH1 0x20 MUL DUP2 ADD SWAP1 PUSH2 0x1242 SWAP2 SWAP1 PUSH2 0x267A JUMP JUMPDEST PUSH1 0x1 PUSH1 0x2 DUP2 LT PUSH2 0x1255 JUMPI PUSH2 0x1254 PUSH2 0x204D JUMP JUMPDEST JUMPDEST PUSH1 0x20 MUL DUP2 ADD SWAP1 PUSH2 0x1265 SWAP2 SWAP1 PUSH2 0x26A2 JUMP JUMPDEST DUP1 DUP1 PUSH1 0x1F ADD PUSH1 0x20 DUP1 SWAP2 DIV MUL PUSH1 0x20 ADD PUSH1 0x40 MLOAD SWAP1 DUP2 ADD PUSH1 0x40 MSTORE DUP1 SWAP4 SWAP3 SWAP2 SWAP1 DUP2 DUP2 MSTORE PUSH1 0x20 ADD DUP4 DUP4 DUP1 DUP3 DUP5 CALLDATACOPY PUSH1 0x0 DUP2 DUP5 ADD MSTORE PUSH1 0x1F NOT PUSH1 0x1F DUP3 ADD AND SWAP1 POP DUP1 DUP4 ADD SWAP3 POP POP POP POP POP POP POP DUP2 MSTORE POP PUSH1 0x2 PUSH1 0x0 DUP4 DUP2 MSTORE PUSH1 0x20 ADD SWAP1 DUP2 MSTORE PUSH1 0x20 ADD PUSH1 0x0 KECCAK256 PUSH1 0x0 DUP3 ADD MLOAD DUP2 PUSH1 0x0 ADD SWAP1 DUP1 MLOAD SWAP1 PUSH1 0x20 ADD SWAP1 PUSH2 0x12DA SWAP3 SWAP2 SWAP1 PUSH2 0x19BE JUMP JUMPDEST POP PUSH1 0x20 DUP3 ADD MLOAD DUP2 PUSH1 0x1 ADD SWAP1 DUP1 MLOAD SWAP1 PUSH1 0x20 ADD SWAP1 PUSH2 0x12F7 SWAP3 SWAP2 SWAP1 PUSH2 0x19BE JUMP JUMPDEST POP SWAP1 POP POP PUSH1 0x3 PUSH1 0x0 DUP2 SLOAD DUP1 SWAP3 SWAP2 SWAP1 PUSH2 0x130E SWAP1 PUSH2 0x2004 JUMP JUMPDEST SWAP2 SWAP1 POP SSTORE POP DUP1 DUP1 PUSH2 0x131E SWAP1 PUSH2 0x2004 JUMP JUMPDEST SWAP2 POP POP PUSH2 0x1177 JUMP JUMPDEST POP POP POP JUMP JUMPDEST PUSH1 0x60 PUSH1 0x0 DUP1 SLOAD SWAP1 PUSH2 0x100 EXP SWAP1 DIV PUSH20 0xFFFFFFFFFFFFFFFFFFFFFFFFFFFFFFFFFFFFFFFF AND PUSH20 0xFFFFFFFFFFFFFFFFFFFFFFFFFFFFFFFFFFFFFFFF AND PUSH4 0x11AA4CBA PUSH1 0x0 DUP1 PUSH1 0x40 MLOAD DUP4 PUSH4 0xFFFFFFFF AND PUSH1 0xE0 SHL DUP2 MSTORE PUSH1 0x4 ADD PUSH2 0x1389 SWAP3 SWAP2 SWAP1 PUSH2 0x25F3 JUMP JUMPDEST PUSH1 0x0 PUSH1 0x40 MLOAD DUP1 DUP4 SUB DUP2 DUP7 GAS STATICCALL ISZERO DUP1 ISZERO PUSH2 0x13A6 JUMPI RETURNDATASIZE PUSH1 0x0 DUP1 RETURNDATACOPY RETURNDATASIZE PUSH1 0x0 REVERT JUMPDEST POP POP POP POP PUSH1 0x40 MLOAD RETURNDATASIZE PUSH1 0x0 DUP3 RETURNDATACOPY RETURNDATASIZE PUSH1 0x1F NOT PUSH1 0x1F DUP3 ADD AND DUP3 ADD DUP1 PUSH1 0x40 MSTORE POP DUP2 ADD SWAP1 PUSH2 0x13CF SWAP2 SWAP1 PUSH2 0x2425 JUMP JUMPDEST SWAP1 POP SWAP1 JUMP JUMPDEST PUSH1 0x4 PUSH1 0x20 MSTORE DUP1 PUSH1 0x0 MSTORE PUSH1 0x40 PUSH1 0x0 KECCAK256 PUSH1 0x0 SWAP2 POP SWAP1 POP DUP1 PUSH1 0x0 ADD DUP1 SLOAD PUSH2 0x13F7 SWAP1 PUSH2 0x21BE JUMP JUMPDEST DUP1 PUSH1 0x1F ADD PUSH1 0x20 DUP1 SWAP2 DIV MUL PUSH1 0x20 ADD PUSH1 0x40 MLOAD SWAP1 DUP2 ADD PUSH1 0x40 MSTORE DUP1 SWAP3 SWAP2 SWAP1 DUP2 DUP2 MSTORE PUSH1 0x20 ADD DUP3 DUP1 SLOAD PUSH2 0x1423 SWAP1 PUSH2 0x21BE JUMP JUMPDEST DUP1 ISZERO PUSH2 0x1470 JUMPI DUP1 PUSH1 0x1F LT PUSH2 0x1445 JUMPI PUSH2 0x100 DUP1 DUP4 SLOAD DIV MUL DUP4 MSTORE SWAP2 PUSH1 0x20 ADD SWAP2 PUSH2 0x1470 JUMP JUMPDEST DUP3 ADD SWAP2 SWAP1 PUSH1 0x0 MSTORE PUSH1 0x20 PUSH1 0x0 KECCAK256 SWAP1 JUMPDEST DUP2 SLOAD DUP2 MSTORE SWAP1 PUSH1 0x1 ADD SWAP1 PUSH1 0x20 ADD DUP1 DUP4 GT PUSH2 0x1453 JUMPI DUP3 SWAP1 SUB PUSH1 0x1F AND DUP3 ADD SWAP2 JUMPDEST POP POP POP POP POP SWAP1 DUP1 PUSH1 0x1 ADD DUP1 SLOAD PUSH2 0x1485 SWAP1 PUSH2 0x21BE JUMP JUMPDEST DUP1 PUSH1 0x1F ADD PUSH1 0x20 DUP1 SWAP2 DIV MUL PUSH1 0x20 ADD PUSH1 0x40 MLOAD SWAP1 DUP2 ADD PUSH1 0x40 MSTORE DUP1 SWAP3 SWAP2 SWAP1 DUP2 DUP2 MSTORE PUSH1 0x20 ADD DUP3 DUP1 SLOAD PUSH2 0x14B1 SWAP1 PUSH2 0x21BE JUMP JUMPDEST DUP1 ISZERO PUSH2 0x14FE JUMPI DUP1 PUSH1 0x1F LT PUSH2 0x14D3 JUMPI PUSH2 0x100 DUP1 DUP4 SLOAD DIV MUL DUP4 MSTORE SWAP2 PUSH1 0x20 ADD SWAP2 PUSH2 0x14FE JUMP JUMPDEST DUP3 ADD SWAP2 SWAP1 PUSH1 0x0 MSTORE PUSH1 0x20 PUSH1 0x0 KECCAK256 SWAP1 JUMPDEST DUP2 SLOAD DUP2 MSTORE SWAP1 PUSH1 0x1 ADD SWAP1 PUSH1 0x20 ADD DUP1 DUP4 GT PUSH2 0x14E1 JUMPI DUP3 SWAP1 SUB PUSH1 0x1F AND DUP3 ADD SWAP2 JUMPDEST POP POP POP POP POP SWAP1 POP DUP3 JUMP JUMPDEST PUSH1 0x2 PUSH1 0x20 MSTORE DUP1 PUSH1 0x0 MSTORE PUSH1 0x40 PUSH1 0x0 KECCAK256 PUSH1 0x0 SWAP2 POP SWAP1 POP DUP1 PUSH1 0x0 ADD DUP1 SLOAD PUSH2 0x152B SWAP1 PUSH2 0x21BE JUMP JUMPDEST DUP1 PUSH1 0x1F ADD PUSH1 0x20 DUP1 SWAP2 DIV MUL PUSH1 0x20 ADD PUSH1 0x40 MLOAD SWAP1 DUP2 ADD PUSH1 0x40 MSTORE DUP1 SWAP3 SWAP2 SWAP1 DUP2 DUP2 MSTORE PUSH1 0x20 ADD DUP3 DUP1 SLOAD PUSH2 0x1557 SWAP1 PUSH2 0x21BE JUMP JUMPDEST DUP1 ISZERO PUSH2 0x15A4 JUMPI DUP1 PUSH1 0x1F LT PUSH2 0x1579 JUMPI PUSH2 0x100 DUP1 DUP4 SLOAD DIV MUL DUP4 MSTORE SWAP2 PUSH1 0x20 ADD SWAP2 PUSH2 0x15A4 JUMP JUMPDEST DUP3 ADD SWAP2 SWAP1 PUSH1 0x0 MSTORE PUSH1 0x20 PUSH1 0x0 KECCAK256 SWAP1 JUMPDEST DUP2 SLOAD DUP2 MSTORE SWAP1 PUSH1 0x1 ADD SWAP1 PUSH1 0x20 ADD DUP1 DUP4 GT PUSH2 0x1587 JUMPI DUP3 SWAP1 SUB PUSH1 0x1F AND DUP3 ADD SWAP2 JUMPDEST POP POP POP POP POP SWAP1 DUP1 PUSH1 0x1 ADD DUP1 SLOAD PUSH2 0x15B9 SWAP1 PUSH2 0x21BE JUMP JUMPDEST DUP1 PUSH1 0x1F ADD PUSH1 0x20 DUP1 SWAP2 DIV MUL PUSH1 0x20 ADD PUSH1 0x40 MLOAD SWAP1 DUP2 ADD PUSH1 0x40 MSTORE DUP1 SWAP3 SWAP2 SWAP1 DUP2 DUP2 MSTORE PUSH1 0x20 ADD DUP3 DUP1 SLOAD PUSH2 0x15E5 SWAP1 PUSH2 0x21BE JUMP JUMPDEST DUP1 ISZERO PUSH2 0x1632 JUMPI DUP1 PUSH1 0x1F LT PUSH2 0x1607 JUMPI PUSH2 0x100 DUP1 DUP4 SLOAD DIV MUL DUP4 MSTORE SWAP2 PUSH1 0x20 ADD SWAP2 PUSH2 0x1632 JUMP JUMPDEST DUP3 ADD SWAP2 SWAP1 PUSH1 0x0 MSTORE PUSH1 0x20 PUSH1 0x0 KECCAK256 SWAP1 JUMPDEST DUP2 SLOAD DUP2 MSTORE SWAP1 PUSH1 0x1 ADD SWAP1 PUSH1 0x20 ADD DUP1 DUP4 GT PUSH2 0x1615 JUMPI DUP3 SWAP1 SUB PUSH1 0x1F AND DUP3 ADD SWAP2 JUMPDEST POP POP POP POP POP SWAP1 POP DUP3 JUMP JUMPDEST PUSH1 0x5 SLOAD DUP2 JUMP JUMPDEST PUSH1 0x0 DUP1 SLOAD SWAP1 PUSH2 0x100 EXP SWAP1 DIV PUSH20 0xFFFFFFFFFFFFFFFFFFFFFFFFFFFFFFFFFFFFFFFF AND DUP2 JUMP JUMPDEST PUSH1 0x0 JUMPDEST DUP3 DUP3 SWAP1 POP DUP2 LT ISZERO PUSH2 0x1818 JUMPI PUSH1 0x40 MLOAD DUP1 PUSH1 0x40 ADD PUSH1 0x40 MSTORE DUP1 DUP5 DUP5 DUP5 DUP2 DUP2 LT PUSH2 0x1692 JUMPI PUSH2 0x1691 PUSH2 0x204D JUMP JUMPDEST JUMPDEST SWAP1 POP PUSH1 0x20 MUL DUP2 ADD SWAP1 PUSH2 0x16A4 SWAP2 SWAP1 PUSH2 0x267A JUMP JUMPDEST PUSH1 0x0 PUSH1 0x2 DUP2 LT PUSH2 0x16B7 JUMPI PUSH2 0x16B6 PUSH2 0x204D JUMP JUMPDEST JUMPDEST PUSH1 0x20 MUL DUP2 ADD SWAP1 PUSH2 0x16C7 SWAP2 SWAP1 PUSH2 0x26A2 JUMP JUMPDEST DUP1 DUP1 PUSH1 0x1F ADD PUSH1 0x20 DUP1 SWAP2 DIV MUL PUSH1 0x20 ADD PUSH1 0x40 MLOAD SWAP1 DUP2 ADD PUSH1 0x40 MSTORE DUP1 SWAP4 SWAP3 SWAP2 SWAP1 DUP2 DUP2 MSTORE PUSH1 0x20 ADD DUP4 DUP4 DUP1 DUP3 DUP5 CALLDATACOPY PUSH1 0x0 DUP2 DUP5 ADD MSTORE PUSH1 0x1F NOT PUSH1 0x1F DUP3 ADD AND SWAP1 POP DUP1 DUP4 ADD SWAP3 POP POP POP POP POP POP POP DUP2 MSTORE PUSH1 0x20 ADD DUP5 DUP5 DUP5 DUP2 DUP2 LT PUSH2 0x1722 JUMPI PUSH2 0x1721 PUSH2 0x204D JUMP JUMPDEST JUMPDEST SWAP1 POP PUSH1 0x20 MUL DUP2 ADD SWAP1 PUSH2 0x1734 SWAP2 SWAP1 PUSH2 0x267A JUMP JUMPDEST PUSH1 0x1 PUSH1 0x2 DUP2 LT PUSH2 0x1747 JUMPI PUSH2 0x1746 PUSH2 0x204D JUMP JUMPDEST JUMPDEST PUSH1 0x20 MUL DUP2 ADD SWAP1 PUSH2 0x1757 SWAP2 SWAP1 PUSH2 0x26A2 JUMP JUMPDEST DUP1 DUP1 PUSH1 0x1F ADD PUSH1 0x20 DUP1 SWAP2 DIV MUL PUSH1 0x20 ADD PUSH1 0x40 MLOAD SWAP1 DUP2 ADD PUSH1 0x40 MSTORE DUP1 SWAP4 SWAP3 SWAP2 SWAP1 DUP2 DUP2 MSTORE PUSH1 0x20 ADD DUP4 DUP4 DUP1 DUP3 DUP5 CALLDATACOPY PUSH1 0x0 DUP2 DUP5 ADD MSTORE PUSH1 0x1F NOT PUSH1 0x1F DUP3 ADD AND SWAP1 POP DUP1 DUP4 ADD SWAP3 POP POP POP POP POP POP POP DUP2 MSTORE POP PUSH1 0x4 PUSH1 0x0 DUP4 DUP2 MSTORE PUSH1 0x20 ADD SWAP1 DUP2 MSTORE PUSH1 0x20 ADD PUSH1 0x0 KECCAK256 PUSH1 0x0 DUP3 ADD MLOAD DUP2 PUSH1 0x0 ADD SWAP1 DUP1 MLOAD SWAP1 PUSH1 0x20 ADD SWAP1 PUSH2 0x17CC SWAP3 SWAP2 SWAP1 PUSH2 0x19BE JUMP JUMPDEST POP PUSH1 0x20 DUP3 ADD MLOAD DUP2 PUSH1 0x1 ADD SWAP1 DUP1 MLOAD SWAP1 PUSH1 0x20 ADD SWAP1 PUSH2 0x17E9 SWAP3 SWAP2 SWAP1 PUSH2 0x19BE JUMP JUMPDEST POP SWAP1 POP POP PUSH1 0x5 PUSH1 0x0 DUP2 SLOAD DUP1 SWAP3 SWAP2 SWAP1 PUSH2 0x1800 SWAP1 PUSH2 0x2004 JUMP JUMPDEST SWAP2 SWAP1 POP SSTORE POP DUP1 DUP1 PUSH2 0x1810 SWAP1 PUSH2 0x2004 JUMP JUMPDEST SWAP2 POP POP PUSH2 0x1669 JUMP JUMPDEST POP POP POP JUMP JUMPDEST PUSH1 0x60 PUSH1 0x0 DUP3 EQ ISZERO PUSH2 0x1865 JUMPI PUSH1 0x40 MLOAD DUP1 PUSH1 0x40 ADD PUSH1 0x40 MSTORE DUP1 PUSH1 0x1 DUP2 MSTORE PUSH1 0x20 ADD PUSH32 0x3000000000000000000000000000000000000000000000000000000000000000 DUP2 MSTORE POP SWAP1 POP PUSH2 0x1979 JUMP JUMPDEST PUSH1 0x0 DUP3 SWAP1 POP PUSH1 0x0 JUMPDEST PUSH1 0x0 DUP3 EQ PUSH2 0x1897 JUMPI DUP1 DUP1 PUSH2 0x1880 SWAP1 PUSH2 0x2004 JUMP JUMPDEST SWAP2 POP POP PUSH1 0xA DUP3 PUSH2 0x1890 SWAP2 SWAP1 PUSH2 0x2734 JUMP JUMPDEST SWAP2 POP PUSH2 0x186D JUMP JUMPDEST PUSH1 0x0 DUP2 PUSH8 0xFFFFFFFFFFFFFFFF DUP2 GT ISZERO PUSH2 0x18B3 JUMPI PUSH2 0x18B2 PUSH2 0x207C JUMP JUMPDEST JUMPDEST PUSH1 0x40 MLOAD SWAP1 DUP1 DUP3 MSTORE DUP1 PUSH1 0x1F ADD PUSH1 0x1F NOT AND PUSH1 0x20 ADD DUP3 ADD PUSH1 0x40 MSTORE DUP1 ISZERO PUSH2 0x18E5 JUMPI DUP2 PUSH1 0x20 ADD PUSH1 0x1 DUP3 MUL DUP1 CALLDATASIZE DUP4 CALLDATACOPY DUP1 DUP3 ADD SWAP2 POP POP SWAP1 POP JUMPDEST POP SWAP1 POP JUMPDEST PUSH1 0x0 DUP6 EQ PUSH2 0x1972 JUMPI PUSH1 0x1 DUP3 PUSH2 0x18FE SWAP2 SWAP1 PUSH2 0x215B JUMP JUMPDEST SWAP2 POP PUSH1 0xA DUP6 PUSH2 0x190D SWAP2 SWAP1 PUSH2 0x2765 JUMP JUMPDEST PUSH1 0x30 PUSH2 0x1919 SWAP2 SWAP1 PUSH2 0x20AB JUMP JUMPDEST PUSH1 0xF8 SHL DUP2 DUP4 DUP2 MLOAD DUP2 LT PUSH2 0x192F JUMPI PUSH2 0x192E PUSH2 0x204D JUMP JUMPDEST JUMPDEST PUSH1 0x20 ADD ADD SWAP1 PUSH31 0xFFFFFFFFFFFFFFFFFFFFFFFFFFFFFFFFFFFFFFFFFFFFFFFFFFFFFFFFFFFFFF NOT AND SWAP1 DUP2 PUSH1 0x0 BYTE SWAP1 MSTORE8 POP PUSH1 0xA DUP6 PUSH2 0x196B SWAP2 SWAP1 PUSH2 0x2734 JUMP JUMPDEST SWAP5 POP PUSH2 0x18E9 JUMP JUMPDEST DUP1 SWAP4 POP POP POP POP JUMPDEST SWAP2 SWAP1 POP JUMP JUMPDEST DUP3 PUSH1 0x4 DUP2 ADD SWAP3 DUP3 ISZERO PUSH2 0x19AD JUMPI SWAP2 PUSH1 0x20 MUL DUP3 ADD JUMPDEST DUP3 DUP2 GT ISZERO PUSH2 0x19AC JUMPI DUP3 CALLDATALOAD DUP3 SSTORE SWAP2 PUSH1 0x20 ADD SWAP2 SWAP1 PUSH1 0x1 ADD SWAP1 PUSH2 0x1991 JUMP JUMPDEST JUMPDEST POP SWAP1 POP PUSH2 0x19BA SWAP2 SWAP1 PUSH2 0x1A44 JUMP JUMPDEST POP SWAP1 JUMP JUMPDEST DUP3 DUP1 SLOAD PUSH2 0x19CA SWAP1 PUSH2 0x21BE JUMP JUMPDEST SWAP1 PUSH1 0x0 MSTORE PUSH1 0x20 PUSH1 0x0 KECCAK256 SWAP1 PUSH1 0x1F ADD PUSH1 0x20 SWAP1 DIV DUP2 ADD SWAP3 DUP3 PUSH2 0x19EC JUMPI PUSH1 0x0 DUP6 SSTORE PUSH2 0x1A33 JUMP JUMPDEST DUP3 PUSH1 0x1F LT PUSH2 0x1A05 JUMPI DUP1 MLOAD PUSH1 0xFF NOT AND DUP4 DUP1 ADD OR DUP6 SSTORE PUSH2 0x1A33 JUMP JUMPDEST DUP3 DUP1 ADD PUSH1 0x1 ADD DUP6 SSTORE DUP3 ISZERO PUSH2 0x1A33 JUMPI SWAP2 DUP3 ADD JUMPDEST DUP3 DUP2 GT ISZERO PUSH2 0x1A32 JUMPI DUP3 MLOAD DUP3 SSTORE SWAP2 PUSH1 0x20 ADD SWAP2 SWAP1 PUSH1 0x1 ADD SWAP1 PUSH2 0x1A17 JUMP JUMPDEST JUMPDEST POP SWAP1 POP PUSH2 0x1A40 SWAP2 SWAP1 PUSH2 0x1A44 JUMP JUMPDEST POP SWAP1 JUMP JUMPDEST JUMPDEST DUP1 DUP3 GT ISZERO PUSH2 0x1A5D JUMPI PUSH1 0x0 DUP2 PUSH1 0x0 SWAP1 SSTORE POP PUSH1 0x1 ADD PUSH2 0x1A45 JUMP JUMPDEST POP SWAP1 JUMP JUMPDEST PUSH1 0x0 PUSH1 0x40 MLOAD SWAP1 POP SWAP1 JUMP JUMPDEST PUSH1 0x0 DUP1 REVERT JUMPDEST PUSH1 0x0 DUP1 REVERT JUMPDEST PUSH1 0x0 PUSH20 0xFFFFFFFFFFFFFFFFFFFFFFFFFFFFFFFFFFFFFFFF DUP3 AND SWAP1 POP SWAP2 SWAP1 POP JUMP JUMPDEST PUSH1 0x0 PUSH2 0x1AA0 DUP3 PUSH2 0x1A75 JUMP JUMPDEST SWAP1 POP SWAP2 SWAP1 POP JUMP JUMPDEST PUSH1 0x0 PUSH2 0x1AB2 DUP3 PUSH2 0x1A95 JUMP JUMPDEST SWAP1 POP SWAP2 SWAP1 POP JUMP JUMPDEST PUSH2 0x1AC2 DUP2 PUSH2 0x1AA7 JUMP JUMPDEST DUP2 EQ PUSH2 0x1ACD JUMPI PUSH1 0x0 DUP1 REVERT JUMPDEST POP JUMP JUMPDEST PUSH1 0x0 DUP2 CALLDATALOAD SWAP1 POP PUSH2 0x1ADF DUP2 PUSH2 0x1AB9 JUMP JUMPDEST SWAP3 SWAP2 POP POP JUMP JUMPDEST PUSH1 0x0 PUSH1 0x20 DUP3 DUP5 SUB SLT ISZERO PUSH2 0x1AFB JUMPI PUSH2 0x1AFA PUSH2 0x1A6B JUMP JUMPDEST JUMPDEST PUSH1 0x0 PUSH2 0x1B09 DUP5 DUP3 DUP6 ADD PUSH2 0x1AD0 JUMP JUMPDEST SWAP2 POP POP SWAP3 SWAP2 POP POP JUMP JUMPDEST PUSH1 0x0 DUP2 SWAP1 POP SWAP2 SWAP1 POP JUMP JUMPDEST PUSH2 0x1B25 DUP2 PUSH2 0x1B12 JUMP JUMPDEST DUP3 MSTORE POP POP JUMP JUMPDEST PUSH1 0x0 PUSH1 0x20 DUP3 ADD SWAP1 POP PUSH2 0x1B40 PUSH1 0x0 DUP4 ADD DUP5 PUSH2 0x1B1C JUMP JUMPDEST SWAP3 SWAP2 POP POP JUMP JUMPDEST PUSH1 0x0 DUP1 REVERT JUMPDEST PUSH1 0x0 DUP1 REVERT JUMPDEST PUSH1 0x0 DUP1 REVERT JUMPDEST PUSH1 0x0 DUP1 DUP4 PUSH1 0x1F DUP5 ADD SLT PUSH2 0x1B6B JUMPI PUSH2 0x1B6A PUSH2 0x1B46 JUMP JUMPDEST JUMPDEST DUP3 CALLDATALOAD SWAP1 POP PUSH8 0xFFFFFFFFFFFFFFFF DUP2 GT ISZERO PUSH2 0x1B88 JUMPI PUSH2 0x1B87 PUSH2 0x1B4B JUMP JUMPDEST JUMPDEST PUSH1 0x20 DUP4 ADD SWAP2 POP DUP4 PUSH1 0x80 DUP3 MUL DUP4 ADD GT ISZERO PUSH2 0x1BA4 JUMPI PUSH2 0x1BA3 PUSH2 0x1B50 JUMP JUMPDEST JUMPDEST SWAP3 POP SWAP3 SWAP1 POP JUMP JUMPDEST PUSH1 0x0 DUP1 PUSH1 0x20 DUP4 DUP6 SUB SLT ISZERO PUSH2 0x1BC2 JUMPI PUSH2 0x1BC1 PUSH2 0x1A6B JUMP JUMPDEST JUMPDEST PUSH1 0x0 DUP4 ADD CALLDATALOAD PUSH8 0xFFFFFFFFFFFFFFFF DUP2 GT ISZERO PUSH2 0x1BE0 JUMPI PUSH2 0x1BDF PUSH2 0x1A70 JUMP JUMPDEST JUMPDEST PUSH2 0x1BEC DUP6 DUP3 DUP7 ADD PUSH2 0x1B55 JUMP JUMPDEST SWAP3 POP SWAP3 POP POP SWAP3 POP SWAP3 SWAP1 POP JUMP JUMPDEST PUSH1 0x0 DUP2 SWAP1 POP SWAP2 SWAP1 POP JUMP JUMPDEST PUSH1 0x0 PUSH2 0x1C1D PUSH2 0x1C18 PUSH2 0x1C13 DUP5 PUSH2 0x1A75 JUMP JUMPDEST PUSH2 0x1BF8 JUMP JUMPDEST PUSH2 0x1A75 JUMP JUMPDEST SWAP1 POP SWAP2 SWAP1 POP JUMP JUMPDEST PUSH1 0x0 PUSH2 0x1C2F DUP3 PUSH2 0x1C02 JUMP JUMPDEST SWAP1 POP SWAP2 SWAP1 POP JUMP JUMPDEST PUSH1 0x0 PUSH2 0x1C41 DUP3 PUSH2 0x1C24 JUMP JUMPDEST SWAP1 POP SWAP2 SWAP1 POP JUMP JUMPDEST PUSH2 0x1C51 DUP2 PUSH2 0x1C36 JUMP JUMPDEST DUP3 MSTORE POP POP JUMP JUMPDEST PUSH1 0x0 PUSH1 0x20 DUP3 ADD SWAP1 POP PUSH2 0x1C6C PUSH1 0x0 DUP4 ADD DUP5 PUSH2 0x1C48 JUMP JUMPDEST SWAP3 SWAP2 POP POP JUMP JUMPDEST PUSH2 0x1C7B DUP2 PUSH2 0x1A95 JUMP JUMPDEST DUP2 EQ PUSH2 0x1C86 JUMPI PUSH1 0x0 DUP1 REVERT JUMPDEST POP JUMP JUMPDEST PUSH1 0x0 DUP2 CALLDATALOAD SWAP1 POP PUSH2 0x1C98 DUP2 PUSH2 0x1C72 JUMP JUMPDEST SWAP3 SWAP2 POP POP JUMP JUMPDEST PUSH1 0x0 DUP1 DUP4 PUSH1 0x1F DUP5 ADD SLT PUSH2 0x1CB4 JUMPI PUSH2 0x1CB3 PUSH2 0x1B46 JUMP JUMPDEST JUMPDEST DUP3 CALLDATALOAD SWAP1 POP PUSH8 0xFFFFFFFFFFFFFFFF DUP2 GT ISZERO PUSH2 0x1CD1 JUMPI PUSH2 0x1CD0 PUSH2 0x1B4B JUMP JUMPDEST JUMPDEST PUSH1 0x20 DUP4 ADD SWAP2 POP DUP4 PUSH1 0x20 DUP3 MUL DUP4 ADD GT ISZERO PUSH2 0x1CED JUMPI PUSH2 0x1CEC PUSH2 0x1B50 JUMP JUMPDEST JUMPDEST SWAP3 POP SWAP3 SWAP1 POP JUMP JUMPDEST PUSH1 0x0 DUP1 PUSH1 0x0 DUP1 PUSH1 0x0 DUP1 PUSH1 0x0 DUP1 PUSH1 0xA0 DUP10 DUP12 SUB SLT ISZERO PUSH2 0x1D14 JUMPI PUSH2 0x1D13 PUSH2 0x1A6B JUMP JUMPDEST JUMPDEST PUSH1 0x0 PUSH2 0x1D22 DUP12 DUP3 DUP13 ADD PUSH2 0x1C89 JUMP JUMPDEST SWAP9 POP POP PUSH1 0x20 PUSH2 0x1D33 DUP12 DUP3 DUP13 ADD PUSH2 0x1C89 JUMP JUMPDEST SWAP8 POP POP PUSH1 0x40 DUP10 ADD CALLDATALOAD PUSH8 0xFFFFFFFFFFFFFFFF DUP2 GT ISZERO PUSH2 0x1D54 JUMPI PUSH2 0x1D53 PUSH2 0x1A70 JUMP JUMPDEST JUMPDEST PUSH2 0x1D60 DUP12 DUP3 DUP13 ADD PUSH2 0x1C9E JUMP JUMPDEST SWAP7 POP SWAP7 POP POP PUSH1 0x60 DUP10 ADD CALLDATALOAD PUSH8 0xFFFFFFFFFFFFFFFF DUP2 GT ISZERO PUSH2 0x1D83 JUMPI PUSH2 0x1D82 PUSH2 0x1A70 JUMP JUMPDEST JUMPDEST PUSH2 0x1D8F DUP12 DUP3 DUP13 ADD PUSH2 0x1C9E JUMP JUMPDEST SWAP5 POP SWAP5 POP POP PUSH1 0x80 DUP10 ADD CALLDATALOAD PUSH8 0xFFFFFFFFFFFFFFFF DUP2 GT ISZERO PUSH2 0x1DB2 JUMPI PUSH2 0x1DB1 PUSH2 0x1A70 JUMP JUMPDEST JUMPDEST PUSH2 0x1DBE DUP12 DUP3 DUP13 ADD PUSH2 0x1B55 JUMP JUMPDEST SWAP3 POP SWAP3 POP POP SWAP3 SWAP6 SWAP9 POP SWAP3 SWAP6 SWAP9 SWAP1 SWAP4 SWAP7 POP JUMP JUMPDEST PUSH1 0x0 PUSH1 0x20 DUP3 DUP5 SUB SLT ISZERO PUSH2 0x1DE6 JUMPI PUSH2 0x1DE5 PUSH2 0x1A6B JUMP JUMPDEST JUMPDEST PUSH1 0x0 PUSH2 0x1DF4 DUP5 DUP3 DUP6 ADD PUSH2 0x1C89 JUMP JUMPDEST SWAP2 POP POP SWAP3 SWAP2 POP POP JUMP JUMPDEST PUSH1 0x0 DUP2 MLOAD SWAP1 POP SWAP2 SWAP1 POP JUMP JUMPDEST PUSH1 0x0 DUP3 DUP3 MSTORE PUSH1 0x20 DUP3 ADD SWAP1 POP SWAP3 SWAP2 POP POP JUMP JUMPDEST PUSH1 0x0 JUMPDEST DUP4 DUP2 LT ISZERO PUSH2 0x1E37 JUMPI DUP1 DUP3 ADD MLOAD DUP2 DUP5 ADD MSTORE PUSH1 0x20 DUP2 ADD SWAP1 POP PUSH2 0x1E1C JUMP JUMPDEST DUP4 DUP2 GT ISZERO PUSH2 0x1E46 JUMPI PUSH1 0x0 DUP5 DUP5 ADD MSTORE JUMPDEST POP POP POP POP JUMP JUMPDEST PUSH1 0x0 PUSH1 0x1F NOT PUSH1 0x1F DUP4 ADD AND SWAP1 POP SWAP2 SWAP1 POP JUMP JUMPDEST PUSH1 0x0 PUSH2 0x1E68 DUP3 PUSH2 0x1DFD JUMP JUMPDEST PUSH2 0x1E72 DUP2 DUP6 PUSH2 0x1E08 JUMP JUMPDEST SWAP4 POP PUSH2 0x1E82 DUP2 DUP6 PUSH1 0x20 DUP7 ADD PUSH2 0x1E19 JUMP JUMPDEST PUSH2 0x1E8B DUP2 PUSH2 0x1E4C JUMP JUMPDEST DUP5 ADD SWAP2 POP POP SWAP3 SWAP2 POP POP JUMP JUMPDEST PUSH1 0x0 PUSH1 0x20 DUP3 ADD SWAP1 POP DUP2 DUP2 SUB PUSH1 0x0 DUP4 ADD MSTORE PUSH2 0x1EB0 DUP2 DUP5 PUSH2 0x1E5D JUMP JUMPDEST SWAP1 POP SWAP3 SWAP2 POP POP JUMP JUMPDEST PUSH2 0x1EC1 DUP2 PUSH2 0x1B12 JUMP JUMPDEST DUP2 EQ PUSH2 0x1ECC JUMPI PUSH1 0x0 DUP1 REVERT JUMPDEST POP JUMP JUMPDEST PUSH1 0x0 DUP2 CALLDATALOAD SWAP1 POP PUSH2 0x1EDE DUP2 PUSH2 0x1EB8 JUMP JUMPDEST SWAP3 SWAP2 POP POP JUMP JUMPDEST PUSH1 0x0 DUP1 PUSH1 0x40 DUP4 DUP6 SUB SLT ISZERO PUSH2 0x1EFB JUMPI PUSH2 0x1EFA PUSH2 0x1A6B JUMP JUMPDEST JUMPDEST PUSH1 0x0 PUSH2 0x1F09 DUP6 DUP3 DUP7 ADD PUSH2 0x1ECF JUMP JUMPDEST SWAP3 POP POP PUSH1 0x20 PUSH2 0x1F1A DUP6 DUP3 DUP7 ADD PUSH2 0x1ECF JUMP JUMPDEST SWAP2 POP POP SWAP3 POP SWAP3 SWAP1 POP JUMP JUMPDEST PUSH1 0x0 PUSH1 0x20 DUP3 DUP5 SUB SLT ISZERO PUSH2 0x1F3A JUMPI PUSH2 0x1F39 PUSH2 0x1A6B JUMP JUMPDEST JUMPDEST PUSH1 0x0 PUSH2 0x1F48 DUP5 DUP3 DUP6 ADD PUSH2 0x1ECF JUMP JUMPDEST SWAP2 POP POP SWAP3 SWAP2 POP POP JUMP JUMPDEST PUSH1 0x0 DUP1 PUSH1 0x20 DUP4 DUP6 SUB SLT ISZERO PUSH2 0x1F68 JUMPI PUSH2 0x1F67 PUSH2 0x1A6B JUMP JUMPDEST JUMPDEST PUSH1 0x0 DUP4 ADD CALLDATALOAD PUSH8 0xFFFFFFFFFFFFFFFF DUP2 GT ISZERO PUSH2 0x1F86 JUMPI PUSH2 0x1F85 PUSH2 0x1A70 JUMP JUMPDEST JUMPDEST PUSH2 0x1F92 DUP6 DUP3 DUP7 ADD PUSH2 0x1C9E JUMP JUMPDEST SWAP3 POP SWAP3 POP POP SWAP3 POP SWAP3 SWAP1 POP JUMP JUMPDEST PUSH1 0x0 PUSH1 0x40 DUP3 ADD SWAP1 POP DUP2 DUP2 SUB PUSH1 0x0 DUP4 ADD MSTORE PUSH2 0x1FB8 DUP2 DUP6 PUSH2 0x1E5D JUMP JUMPDEST SWAP1 POP DUP2 DUP2 SUB PUSH1 0x20 DUP4 ADD MSTORE PUSH2 0x1FCC DUP2 DUP5 PUSH2 0x1E5D JUMP JUMPDEST SWAP1 POP SWAP4 SWAP3 POP POP POP JUMP JUMPDEST PUSH32 0x4E487B7100000000000000000000000000000000000000000000000000000000 PUSH1 0x0 MSTORE PUSH1 0x11 PUSH1 0x4 MSTORE PUSH1 0x24 PUSH1 0x0 REVERT JUMPDEST PUSH1 0x0 PUSH2 0x200F DUP3 PUSH2 0x1B12 JUMP JUMPDEST SWAP2 POP PUSH32 0xFFFFFFFFFFFFFFFFFFFFFFFFFFFFFFFFFFFFFFFFFFFFFFFFFFFFFFFFFFFFFFFF DUP3 EQ ISZERO PUSH2 0x2042 JUMPI PUSH2 0x2041 PUSH2 0x1FD5 JUMP JUMPDEST JUMPDEST PUSH1 0x1 DUP3 ADD SWAP1 POP SWAP2 SWAP1 POP JUMP JUMPDEST PUSH32 0x4E487B7100000000000000000000000000000000000000000000000000000000 PUSH1 0x0 MSTORE PUSH1 0x32 PUSH1 0x4 MSTORE PUSH1 0x24 PUSH1 0x0 REVERT JUMPDEST PUSH32 0x4E487B7100000000000000000000000000000000000000000000000000000000 PUSH1 0x0 MSTORE PUSH1 0x41 PUSH1 0x4 MSTORE PUSH1 0x24 PUSH1 0x0 REVERT JUMPDEST PUSH1 0x0 PUSH2 0x20B6 DUP3 PUSH2 0x1B12 JUMP JUMPDEST SWAP2 POP PUSH2 0x20C1 DUP4 PUSH2 0x1B12 JUMP JUMPDEST SWAP3 POP DUP3 PUSH32 0xFFFFFFFFFFFFFFFFFFFFFFFFFFFFFFFFFFFFFFFFFFFFFFFFFFFFFFFFFFFFFFFF SUB DUP3 GT ISZERO PUSH2 0x20F6 JUMPI PUSH2 0x20F5 PUSH2 0x1FD5 JUMP JUMPDEST JUMPDEST DUP3 DUP3 ADD SWAP1 POP SWAP3 SWAP2 POP POP JUMP JUMPDEST PUSH1 0x0 PUSH2 0x210C DUP3 PUSH2 0x1B12 JUMP JUMPDEST SWAP2 POP PUSH2 0x2117 DUP4 PUSH2 0x1B12 JUMP JUMPDEST SWAP3 POP DUP2 PUSH32 0xFFFFFFFFFFFFFFFFFFFFFFFFFFFFFFFFFFFFFFFFFFFFFFFFFFFFFFFFFFFFFFFF DIV DUP4 GT DUP3 ISZERO ISZERO AND ISZERO PUSH2 0x2150 JUMPI PUSH2 0x214F PUSH2 0x1FD5 JUMP JUMPDEST JUMPDEST DUP3 DUP3 MUL SWAP1 POP SWAP3 SWAP2 POP POP JUMP JUMPDEST PUSH1 0x0 PUSH2 0x2166 DUP3 PUSH2 0x1B12 JUMP JUMPDEST SWAP2 POP PUSH2 0x2171 DUP4 PUSH2 0x1B12 JUMP JUMPDEST SWAP3 POP DUP3 DUP3 LT ISZERO PUSH2 0x2184 JUMPI PUSH2 0x2183 PUSH2 0x1FD5 JUMP JUMPDEST JUMPDEST DUP3 DUP3 SUB SWAP1 POP SWAP3 SWAP2 POP POP JUMP JUMPDEST PUSH32 0x4E487B7100000000000000000000000000000000000000000000000000000000 PUSH1 0x0 MSTORE PUSH1 0x22 PUSH1 0x4 MSTORE PUSH1 0x24 PUSH1 0x0 REVERT JUMPDEST PUSH1 0x0 PUSH1 0x2 DUP3 DIV SWAP1 POP PUSH1 0x1 DUP3 AND DUP1 PUSH2 0x21D6 JUMPI PUSH1 0x7F DUP3 AND SWAP2 POP JUMPDEST PUSH1 0x20 DUP3 LT DUP2 EQ ISZERO PUSH2 0x21EA JUMPI PUSH2 0x21E9 PUSH2 0x218F JUMP JUMPDEST JUMPDEST POP SWAP2 SWAP1 POP JUMP JUMPDEST PUSH1 0x0 DUP2 MLOAD SWAP1 POP PUSH2 0x21FF DUP2 PUSH2 0x1EB8 JUMP JUMPDEST SWAP3 SWAP2 POP POP JUMP JUMPDEST PUSH1 0x0 PUSH1 0x20 DUP3 DUP5 SUB SLT ISZERO PUSH2 0x221B JUMPI PUSH2 0x221A PUSH2 0x1A6B JUMP JUMPDEST JUMPDEST PUSH1 0x0 PUSH2 0x2229 DUP5 DUP3 DUP6 ADD PUSH2 0x21F0 JUMP JUMPDEST SWAP2 POP POP SWAP3 SWAP2 POP POP JUMP JUMPDEST PUSH1 0x0 DUP2 SWAP1 POP SWAP3 SWAP2 POP POP JUMP JUMPDEST PUSH1 0x0 PUSH2 0x2248 DUP3 PUSH2 0x1DFD JUMP JUMPDEST PUSH2 0x2252 DUP2 DUP6 PUSH2 0x2232 JUMP JUMPDEST SWAP4 POP PUSH2 0x2262 DUP2 DUP6 PUSH1 0x20 DUP7 ADD PUSH2 0x1E19 JUMP JUMPDEST DUP1 DUP5 ADD SWAP2 POP POP SWAP3 SWAP2 POP POP JUMP JUMPDEST PUSH32 0x5772617070657200000000000000000000000000000000000000000000000000 DUP2 MSTORE POP JUMP JUMPDEST PUSH1 0x0 PUSH2 0x22A0 DUP3 DUP5 PUSH2 0x223D JUMP JUMPDEST SWAP2 POP PUSH2 0x22AB DUP3 PUSH2 0x226E JUMP JUMPDEST PUSH1 0x7 DUP3 ADD SWAP2 POP DUP2 SWAP1 POP SWAP3 SWAP2 POP POP JUMP JUMPDEST PUSH1 0x0 DUP2 SWAP1 POP SWAP2 SWAP1 POP JUMP JUMPDEST PUSH1 0x0 PUSH2 0x22DF PUSH2 0x22DA PUSH2 0x22D5 DUP5 PUSH2 0x22BA JUMP JUMPDEST PUSH2 0x1BF8 JUMP JUMPDEST PUSH2 0x1B12 JUMP JUMPDEST SWAP1 POP SWAP2 SWAP1 POP JUMP JUMPDEST PUSH2 0x22EF DUP2 PUSH2 0x22C4 JUMP JUMPDEST DUP3 MSTORE POP POP JUMP JUMPDEST PUSH1 0x0 PUSH1 0x60 DUP3 ADD SWAP1 POP DUP2 DUP2 SUB PUSH1 0x0 DUP4 ADD MSTORE PUSH2 0x230F DUP2 DUP7 PUSH2 0x1E5D JUMP JUMPDEST SWAP1 POP PUSH2 0x231E PUSH1 0x20 DUP4 ADD DUP6 PUSH2 0x22E6 JUMP JUMPDEST PUSH2 0x232B PUSH1 0x40 DUP4 ADD DUP5 PUSH2 0x22E6 JUMP JUMPDEST SWAP5 SWAP4 POP POP POP POP JUMP JUMPDEST PUSH1 0x0 DUP1 REVERT JUMPDEST PUSH2 0x2341 DUP3 PUSH2 0x1E4C JUMP JUMPDEST DUP2 ADD DUP2 DUP2 LT PUSH8 0xFFFFFFFFFFFFFFFF DUP3 GT OR ISZERO PUSH2 0x2360 JUMPI PUSH2 0x235F PUSH2 0x207C JUMP JUMPDEST JUMPDEST DUP1 PUSH1 0x40 MSTORE POP POP POP JUMP JUMPDEST PUSH1 0x0 PUSH2 0x2373 PUSH2 0x1A61 JUMP JUMPDEST SWAP1 POP PUSH2 0x237F DUP3 DUP3 PUSH2 0x2338 JUMP JUMPDEST SWAP2 SWAP1 POP JUMP JUMPDEST PUSH1 0x0 PUSH8 0xFFFFFFFFFFFFFFFF DUP3 GT ISZERO PUSH2 0x239F JUMPI PUSH2 0x239E PUSH2 0x207C JUMP JUMPDEST JUMPDEST PUSH2 0x23A8 DUP3 PUSH2 0x1E4C JUMP JUMPDEST SWAP1 POP PUSH1 0x20 DUP2 ADD SWAP1 POP SWAP2 SWAP1 POP JUMP JUMPDEST PUSH1 0x0 PUSH2 0x23C8 PUSH2 0x23C3 DUP5 PUSH2 0x2384 JUMP JUMPDEST PUSH2 0x2369 JUMP JUMPDEST SWAP1 POP DUP3 DUP2 MSTORE PUSH1 0x20 DUP2 ADD DUP5 DUP5 DUP5 ADD GT ISZERO PUSH2 0x23E4 JUMPI PUSH2 0x23E3 PUSH2 0x2333 JUMP JUMPDEST JUMPDEST PUSH2 0x23EF DUP5 DUP3 DUP6 PUSH2 0x1E19 JUMP JUMPDEST POP SWAP4 SWAP3 POP POP POP JUMP JUMPDEST PUSH1 0x0 DUP3 PUSH1 0x1F DUP4 ADD SLT PUSH2 0x240C JUMPI PUSH2 0x240B PUSH2 0x1B46 JUMP JUMPDEST JUMPDEST DUP2 MLOAD PUSH2 0x241C DUP5 DUP3 PUSH1 0x20 DUP7 ADD PUSH2 0x23B5 JUMP JUMPDEST SWAP2 POP POP SWAP3 SWAP2 POP POP JUMP JUMPDEST PUSH1 0x0 PUSH1 0x20 DUP3 DUP5 SUB SLT ISZERO PUSH2 0x243B JUMPI PUSH2 0x243A PUSH2 0x1A6B JUMP JUMPDEST JUMPDEST PUSH1 0x0 DUP3 ADD MLOAD PUSH8 0xFFFFFFFFFFFFFFFF DUP2 GT ISZERO PUSH2 0x2459 JUMPI PUSH2 0x2458 PUSH2 0x1A70 JUMP JUMPDEST JUMPDEST PUSH2 0x2465 DUP5 DUP3 DUP6 ADD PUSH2 0x23F7 JUMP JUMPDEST SWAP2 POP POP SWAP3 SWAP2 POP POP JUMP JUMPDEST PUSH1 0x0 DUP2 MLOAD SWAP1 POP SWAP2 SWAP1 POP JUMP JUMPDEST PUSH1 0x0 DUP2 SWAP1 POP SWAP3 SWAP2 POP POP JUMP JUMPDEST PUSH1 0x0 PUSH2 0x248F DUP3 PUSH2 0x246E JUMP JUMPDEST PUSH2 0x2499 DUP2 DUP6 PUSH2 0x2479 JUMP JUMPDEST SWAP4 POP PUSH2 0x24A9 DUP2 DUP6 PUSH1 0x20 DUP7 ADD PUSH2 0x1E19 JUMP JUMPDEST DUP1 DUP5 ADD SWAP2 POP POP SWAP3 SWAP2 POP POP JUMP JUMPDEST PUSH1 0x0 PUSH2 0x24C1 DUP3 DUP5 PUSH2 0x2484 JUMP JUMPDEST SWAP2 POP DUP2 SWAP1 POP SWAP3 SWAP2 POP POP JUMP JUMPDEST PUSH1 0x0 PUSH2 0x24D8 DUP3 DUP6 PUSH2 0x223D JUMP JUMPDEST SWAP2 POP PUSH2 0x24E4 DUP3 DUP5 PUSH2 0x223D JUMP JUMPDEST SWAP2 POP DUP2 SWAP1 POP SWAP4 SWAP3 POP POP POP JUMP JUMPDEST PUSH1 0x0 PUSH1 0x60 DUP3 ADD SWAP1 POP DUP2 DUP2 SUB PUSH1 0x0 DUP4 ADD MSTORE PUSH2 0x250A DUP2 DUP7 PUSH2 0x1E5D JUMP JUMPDEST SWAP1 POP PUSH2 0x2519 PUSH1 0x20 DUP4 ADD DUP6 PUSH2 0x1B1C JUMP JUMPDEST PUSH2 0x2526 PUSH1 0x40 DUP4 ADD DUP5 PUSH2 0x1B1C JUMP JUMPDEST SWAP5 SWAP4 POP POP POP POP JUMP JUMPDEST PUSH1 0x0 DUP2 SWAP1 POP SWAP2 SWAP1 POP JUMP JUMPDEST PUSH1 0x0 PUSH2 0x2553 PUSH2 0x254E PUSH2 0x2549 DUP5 PUSH2 0x252E JUMP JUMPDEST PUSH2 0x1BF8 JUMP JUMPDEST PUSH2 0x1B12 JUMP JUMPDEST SWAP1 POP SWAP2 SWAP1 POP JUMP JUMPDEST PUSH2 0x2563 DUP2 PUSH2 0x2538 JUMP JUMPDEST DUP3 MSTORE POP POP JUMP JUMPDEST PUSH1 0x0 PUSH1 0x60 DUP3 ADD SWAP1 POP DUP2 DUP2 SUB PUSH1 0x0 DUP4 ADD MSTORE PUSH2 0x2583 DUP2 DUP7 PUSH2 0x1E5D JUMP JUMPDEST SWAP1 POP PUSH2 0x2592 PUSH1 0x20 DUP4 ADD DUP6 PUSH2 0x255A JUMP JUMPDEST PUSH2 0x259F PUSH1 0x40 DUP4 ADD DUP5 PUSH2 0x255A JUMP JUMPDEST SWAP5 SWAP4 POP POP POP POP JUMP JUMPDEST PUSH32 0x72656E6465725772617070657200000000000000000000000000000000000000 PUSH1 0x0 DUP3 ADD MSTORE POP JUMP JUMPDEST PUSH1 0x0 PUSH2 0x25DD PUSH1 0xD DUP4 PUSH2 0x1E08 JUMP JUMPDEST SWAP2 POP PUSH2 0x25E8 DUP3 PUSH2 0x25A7 JUMP JUMPDEST PUSH1 0x20 DUP3 ADD SWAP1 POP SWAP2 SWAP1 POP JUMP JUMPDEST PUSH1 0x0 PUSH1 0x60 DUP3 ADD SWAP1 POP DUP2 DUP2 SUB PUSH1 0x0 DUP4 ADD MSTORE PUSH2 0x260C DUP2 PUSH2 0x25D0 JUMP JUMPDEST SWAP1 POP PUSH2 0x261B PUSH1 0x20 DUP4 ADD DUP6 PUSH2 0x22E6 JUMP JUMPDEST PUSH2 0x2628 PUSH1 0x40 DUP4 ADD DUP5 PUSH2 0x22E6 JUMP JUMPDEST SWAP4 SWAP3 POP POP POP JUMP JUMPDEST PUSH1 0x0 PUSH1 0x60 DUP3 ADD SWAP1 POP DUP2 DUP2 SUB PUSH1 0x0 DUP4 ADD MSTORE PUSH2 0x2648 DUP2 PUSH2 0x25D0 JUMP JUMPDEST SWAP1 POP PUSH2 0x2657 PUSH1 0x20 DUP4 ADD DUP6 PUSH2 0x255A JUMP JUMPDEST PUSH2 0x2664 PUSH1 0x40 DUP4 ADD DUP5 PUSH2 0x255A JUMP JUMPDEST SWAP4 SWAP3 POP POP POP JUMP JUMPDEST PUSH1 0x0 DUP1 REVERT JUMPDEST PUSH1 0x0 DUP1 REVERT JUMPDEST PUSH1 0x0 DUP1 REVERT JUMPDEST PUSH1 0x0 DUP3 CALLDATALOAD PUSH1 0x1 PUSH1 0x40 SUB DUP4 CALLDATASIZE SUB SUB DUP2 SLT PUSH2 0x2696 JUMPI PUSH2 0x2695 PUSH2 0x266B JUMP JUMPDEST JUMPDEST DUP1 DUP4 ADD SWAP2 POP POP SWAP3 SWAP2 POP POP JUMP JUMPDEST PUSH1 0x0 DUP1 DUP4 CALLDATALOAD PUSH1 0x1 PUSH1 0x20 SUB DUP5 CALLDATASIZE SUB SUB DUP2 SLT PUSH2 0x26BF JUMPI PUSH2 0x26BE PUSH2 0x266B JUMP JUMPDEST JUMPDEST DUP1 DUP5 ADD SWAP3 POP DUP3 CALLDATALOAD SWAP2 POP PUSH8 0xFFFFFFFFFFFFFFFF DUP3 GT ISZERO PUSH2 0x26E1 JUMPI PUSH2 0x26E0 PUSH2 0x2670 JUMP JUMPDEST JUMPDEST PUSH1 0x20 DUP4 ADD SWAP3 POP PUSH1 0x1 DUP3 MUL CALLDATASIZE SUB DUP4 SGT ISZERO PUSH2 0x26FD JUMPI PUSH2 0x26FC PUSH2 0x2675 JUMP JUMPDEST JUMPDEST POP SWAP3 POP SWAP3 SWAP1 POP JUMP JUMPDEST PUSH32 0x4E487B7100000000000000000000000000000000000000000000000000000000 PUSH1 0x0 MSTORE PUSH1 0x12 PUSH1 0x4 MSTORE PUSH1 0x24 PUSH1 0x0 REVERT JUMPDEST PUSH1 0x0 PUSH2 0x273F DUP3 PUSH2 0x1B12 JUMP JUMPDEST SWAP2 POP PUSH2 0x274A DUP4 PUSH2 0x1B12 JUMP JUMPDEST SWAP3 POP DUP3 PUSH2 0x275A JUMPI PUSH2 0x2759 PUSH2 0x2705 JUMP JUMPDEST JUMPDEST DUP3 DUP3 DIV SWAP1 POP SWAP3 SWAP2 POP POP JUMP JUMPDEST PUSH1 0x0 PUSH2 0x2770 DUP3 PUSH2 0x1B12 JUMP JUMPDEST SWAP2 POP PUSH2 0x277B DUP4 PUSH2 0x1B12 JUMP JUMPDEST SWAP3 POP DUP3 PUSH2 0x278B JUMPI PUSH2 0x278A PUSH2 0x2705 JUMP JUMPDEST JUMPDEST DUP3 DUP3 MOD SWAP1 POP SWAP3 SWAP2 POP POP JUMP INVALID LOG2 PUSH5 0x6970667358 0x22 SLT KECCAK256 SWAP13 EXTCODESIZE 0xA8 NUMBER 0x2F DUP12 GT 0xB2 JUMP JUMPDEST PUSH6 0x836151082F26 MLOAD 0x2A 0xCF 0xC9 0xE9 DUP6 JUMP 0xDD 0xDB 0xB5 NOT BALANCE INVALID 0xEB 0x49 PUSH5 0x736F6C6343 STOP ADDMOD 0xC STOP CALLER "
        },
        "methodIdentifiers": {
          "addressToString(address)": "5e57966d",
          "assetList(uint256)": "a0b4b301",
          "assetStorage()": "4cb139a6",
          "assetsCount()": "cd9df190",
          "coreDepStorage()": "cdb53ac1",
          "depsCount()": "1b68226f",
          "depsList(uint256)": "b5d40c05",
          "init(address,address,string[2][],string[2][],uint256[4][])": "4f5ea5cc",
          "renderIndex(uint256,uint256)": "70370513",
          "renderPage(uint256)": "7556d1b9",
          "renderPagesCount()": "6bd40805",
          "renderWrapper()": "92f02e13",
          "setAssetStorage(address)": "27d98df3",
          "setAssets(string[2][])": "dc133575",
          "setCoreDepStorage(address)": "11bf85ce",
          "setDeps(string[2][])": "80536f63",
          "setRenderIndex(uint256[4][])": "292eabde"
        }
      }
    }
  }
}