{
  "src/services/chain-sim/contracts/FrameDataStore.sol": {
    "FrameDataStore": {
      "abi": [
        {
          "inputs": [],
          "stateMutability": "nonpayable",
          "type": "constructor"
        },
        {
          "inputs": [
            {
              "internalType": "string",
              "name": "_key",
              "type": "string"
            },
            {
              "internalType": "uint256",
              "name": "_startPage",
              "type": "uint256"
            },
            {
              "internalType": "uint256",
              "name": "_endPage",
              "type": "uint256"
            }
          ],
          "name": "getData",
          "outputs": [
            {
              "internalType": "bytes",
              "name": "",
              "type": "bytes"
            }
          ],
          "stateMutability": "view",
          "type": "function"
        },
        {
          "inputs": [
            {
              "internalType": "string",
              "name": "_key",
              "type": "string"
            }
          ],
          "name": "getMaxPageNumber",
          "outputs": [
            {
              "internalType": "uint256",
              "name": "",
              "type": "uint256"
            }
          ],
          "stateMutability": "view",
          "type": "function"
        },
        {
          "inputs": [
            {
              "internalType": "string",
              "name": "_key",
              "type": "string"
            },
            {
              "internalType": "uint256",
              "name": "_startPage",
              "type": "uint256"
            },
            {
              "internalType": "uint256",
              "name": "_endPage",
              "type": "uint256"
            }
          ],
          "name": "getSizeBetweenPages",
          "outputs": [
            {
              "internalType": "uint256",
              "name": "",
              "type": "uint256"
            }
          ],
          "stateMutability": "view",
          "type": "function"
        },
        {
          "inputs": [
            {
              "internalType": "string",
              "name": "_key",
              "type": "string"
            }
          ],
          "name": "getSizeOfPages",
          "outputs": [
            {
              "internalType": "uint256",
              "name": "",
              "type": "uint256"
            }
          ],
          "stateMutability": "view",
          "type": "function"
        },
        {
          "inputs": [
            {
              "internalType": "string",
              "name": "_key",
              "type": "string"
            },
            {
              "internalType": "uint256",
              "name": "_endPage",
              "type": "uint256"
            }
          ],
          "name": "getSizeUpToPage",
          "outputs": [
            {
              "internalType": "uint256",
              "name": "",
              "type": "uint256"
            }
          ],
          "stateMutability": "view",
          "type": "function"
        },
        {
          "inputs": [
            {
              "internalType": "string",
              "name": "_key",
              "type": "string"
            },
            {
              "internalType": "uint128",
              "name": "_pageNumber",
              "type": "uint128"
            },
            {
              "internalType": "bytes",
              "name": "_b",
              "type": "bytes"
            }
          ],
          "name": "saveData",
          "outputs": [],
          "stateMutability": "nonpayable",
          "type": "function"
        },
        {
          "inputs": [
            {
              "internalType": "string",
              "name": "_key",
              "type": "string"
            },
            {
              "internalType": "uint256",
              "name": "_pageNumber",
              "type": "uint256"
            },
            {
              "internalType": "address",
              "name": "dataContract",
              "type": "address"
            },
            {
              "internalType": "uint128",
              "name": "_size",
              "type": "uint128"
            },
            {
              "internalType": "uint128",
              "name": "_offset",
              "type": "uint128"
            }
          ],
          "name": "saveDataForDeployedContract",
          "outputs": [],
          "stateMutability": "nonpayable",
          "type": "function"
        }
      ],
      "evm": {
        "bytecode": {
          "linkReferences": {},
          "object": "608060405234801561001057600080fd5b5061118a806100206000396000f3fe608060405234801561001057600080fd5b506004361061007d5760003560e01c80637b5493cb1161005b5780637b5493cb146100fe578063860536c21461012e578063c486a53b1461015e578063d431a42f1461017a5761007d565b806311aa4cba14610082578063208a43d3146100b25780636af42a8c146100e2575b600080fd5b61009c60048036038101906100979190610aa5565b6101aa565b6040516100a99190610b9c565b60405180910390f35b6100cc60048036038101906100c79190610aa5565b61035d565b6040516100d99190610bcd565b60405180910390f35b6100fc60048036038101906100f79190610cd1565b610402565b005b61011860048036038101906101139190610d5c565b610618565b6040516101259190610bcd565b60405180910390f35b61014860048036038101906101439190610da5565b6106bc565b6040516101559190610bcd565b60405180910390f35b61017860048036038101906101739190610e5f565b61075d565b005b610194600480360381019061018f9190610d5c565b6108eb565b6040516101a19190610bcd565b60405180910390f35b6060600080831090506000816101c8576101c386610618565b6101d4565b6101d386868661035d565b5b905060008167ffffffffffffffff8111156101f2576101f1610944565b5b6040519080825280601f01601f1916602001820160405280156102245781602001600182028036833780820191505090505b509050600080886040516102389190610f3d565b9081526020016040518091039020905060008461025957816000015461025b565b865b905060006020905060008990505b82811161034c576000846002016000838152602001908152602001600020905060008160000160009054906101000a900473ffffffffffffffffffffffffffffffffffffffff16905060008260010160009054906101000a90046fffffffffffffffffffffffffffffffff166fffffffffffffffffffffffffffffffff16905060008360010160109054906101000a90046fffffffffffffffffffffffffffffffff166fffffffffffffffffffffffffffffffff1690508181878b01853c81866103339190610f83565b955050505050808061034490610fd9565b915050610269565b508396505050505050509392505050565b6000806000856040516103709190610f3d565b908152602001604051809103902090506000808590505b8481116103f55782600201600082815260200190815260200160002060010160009054906101000a90046fffffffffffffffffffffffffffffffff166fffffffffffffffffffffffffffffffff16826103e09190610f83565b915080806103ed90610fd9565b915050610387565b5080925050509392505050565b616000815110610447576040517f08c379a000000000000000000000000000000000000000000000000000000000815260040161043e906110a5565b60405180910390fd5b60006040518060400160405280600e81526020017f610000600e6000396100006000f300000000000000000000000000000000000081525090506000825160f81b9050600060088451901c60f81b905081836002815181106104ac576104ab6110c5565b5b60200101907effffffffffffffffffffffffffffffffffffffffffffffffffffffffffffff1916908160001a90535080836001815181106104f0576104ef6110c5565b5b60200101907effffffffffffffffffffffffffffffffffffffffffffffffffffffffffffff1916908160001a9053508183600a81518110610534576105336110c5565b5b60200101907effffffffffffffffffffffffffffffffffffffffffffffffffffffffffffff1916908160001a9053508083600981518110610578576105776110c5565b5b60200101907effffffffffffffffffffffffffffffffffffffffffffffffffffffffffffff1916908160001a905350600083856040516020016105bc929190611130565b604051602081830303815290604052905060008151602083016000f0905060008114156105ed573d6000803e3d6000fd5b61060e88886fffffffffffffffffffffffffffffffff16838951600061075d565b5050505050505050565b60008060008360405161062b9190610f3d565b908152602001604051809103902090506000805b826000015481116106b15782600201600082815260200190815260200160002060010160009054906101000a90046fffffffffffffffffffffffffffffffff166fffffffffffffffffffffffffffffffff168261069c9190610f83565b915080806106a990610fd9565b91505061063f565b508092505050919050565b6000806000846040516106cf9190610f3d565b908152602001604051809103902090506000805b8481116107515782600201600082815260200190815260200160002060010160009054906101000a90046fffffffffffffffffffffffffffffffff166fffffffffffffffffffffffffffffffff168261073c9190610f83565b9150808061074990610fd9565b9150506106e3565b50809250505092915050565b6000808660405161076e9190610f3d565b908152602001604051809103902090508481600001541015610794578481600001819055505b60018160010160006101000a81548160ff02191690831515021790555060405180606001604052808573ffffffffffffffffffffffffffffffffffffffff168152602001846fffffffffffffffffffffffffffffffff168152602001836fffffffffffffffffffffffffffffffff1681525081600201600087815260200190815260200160002060008201518160000160006101000a81548173ffffffffffffffffffffffffffffffffffffffff021916908373ffffffffffffffffffffffffffffffffffffffff16021790555060208201518160010160006101000a8154816fffffffffffffffffffffffffffffffff02191690836fffffffffffffffffffffffffffffffff16021790555060408201518160010160106101000a8154816fffffffffffffffffffffffffffffffff02191690836fffffffffffffffffffffffffffffffff160217905550905050505050505050565b600080826040516108fc9190610f3d565b9081526020016040518091039020600001549050919050565b6000604051905090565b600080fd5b600080fd5b600080fd5b600080fd5b6000601f19601f8301169050919050565b7f4e487b7100000000000000000000000000000000000000000000000000000000600052604160045260246000fd5b61097c82610933565b810181811067ffffffffffffffff8211171561099b5761099a610944565b5b80604052505050565b60006109ae610915565b90506109ba8282610973565b919050565b600067ffffffffffffffff8211156109da576109d9610944565b5b6109e382610933565b9050602081019050919050565b82818337600083830152505050565b6000610a12610a0d846109bf565b6109a4565b905082815260208101848484011115610a2e57610a2d61092e565b5b610a398482856109f0565b509392505050565b600082601f830112610a5657610a55610929565b5b8135610a668482602086016109ff565b91505092915050565b6000819050919050565b610a8281610a6f565b8114610a8d57600080fd5b50565b600081359050610a9f81610a79565b92915050565b600080600060608486031215610abe57610abd61091f565b5b600084013567ffffffffffffffff811115610adc57610adb610924565b5b610ae886828701610a41565b9350506020610af986828701610a90565b9250506040610b0a86828701610a90565b9150509250925092565b600081519050919050565b600082825260208201905092915050565b60005b83811015610b4e578082015181840152602081019050610b33565b83811115610b5d576000848401525b50505050565b6000610b6e82610b14565b610b788185610b1f565b9350610b88818560208601610b30565b610b9181610933565b840191505092915050565b60006020820190508181036000830152610bb68184610b63565b905092915050565b610bc781610a6f565b82525050565b6000602082019050610be26000830184610bbe565b92915050565b60006fffffffffffffffffffffffffffffffff82169050919050565b610c0d81610be8565b8114610c1857600080fd5b50565b600081359050610c2a81610c04565b92915050565b600067ffffffffffffffff821115610c4b57610c4a610944565b5b610c5482610933565b9050602081019050919050565b6000610c74610c6f84610c30565b6109a4565b905082815260208101848484011115610c9057610c8f61092e565b5b610c9b8482856109f0565b509392505050565b600082601f830112610cb857610cb7610929565b5b8135610cc8848260208601610c61565b91505092915050565b600080600060608486031215610cea57610ce961091f565b5b600084013567ffffffffffffffff811115610d0857610d07610924565b5b610d1486828701610a41565b9350506020610d2586828701610c1b565b925050604084013567ffffffffffffffff811115610d4657610d45610924565b5b610d5286828701610ca3565b9150509250925092565b600060208284031215610d7257610d7161091f565b5b600082013567ffffffffffffffff811115610d9057610d8f610924565b5b610d9c84828501610a41565b91505092915050565b60008060408385031215610dbc57610dbb61091f565b5b600083013567ffffffffffffffff811115610dda57610dd9610924565b5b610de685828601610a41565b9250506020610df785828601610a90565b9150509250929050565b600073ffffffffffffffffffffffffffffffffffffffff82169050919050565b6000610e2c82610e01565b9050919050565b610e3c81610e21565b8114610e4757600080fd5b50565b600081359050610e5981610e33565b92915050565b600080600080600060a08688031215610e7b57610e7a61091f565b5b600086013567ffffffffffffffff811115610e9957610e98610924565b5b610ea588828901610a41565b9550506020610eb688828901610a90565b9450506040610ec788828901610e4a565b9350506060610ed888828901610c1b565b9250506080610ee988828901610c1b565b9150509295509295909350565b600081519050919050565b600081905092915050565b6000610f1782610ef6565b610f218185610f01565b9350610f31818560208601610b30565b80840191505092915050565b6000610f498284610f0c565b915081905092915050565b7f4e487b7100000000000000000000000000000000000000000000000000000000600052601160045260246000fd5b6000610f8e82610a6f565b9150610f9983610a6f565b9250827fffffffffffffffffffffffffffffffffffffffffffffffffffffffffffffffff03821115610fce57610fcd610f54565b5b828201905092915050565b6000610fe482610a6f565b91507fffffffffffffffffffffffffffffffffffffffffffffffffffffffffffffffff82141561101757611016610f54565b5b600182019050919050565b600082825260208201905092915050565b7f53746f726167653a2045786365656465642032342c353736206279746573206d60008201527f617820636f6e74726163742073697a6500000000000000000000000000000000602082015250565b600061108f603083611022565b915061109a82611033565b604082019050919050565b600060208201905081810360008301526110be81611082565b9050919050565b7f4e487b7100000000000000000000000000000000000000000000000000000000600052603260045260246000fd5b600081905092915050565b600061110a82610b14565b61111481856110f4565b9350611124818560208601610b30565b80840191505092915050565b600061113c82856110ff565b915061114882846110ff565b9150819050939250505056fea2646970667358221220667fcdb6b510e7697709646a590415c9c9ed81ee0291ad8ae3a1dc2356525fa764736f6c634300080c0033",
          "opcodes": "PUSH1 0x80 PUSH1 0x40 MSTORE CALLVALUE DUP1 ISZERO PUSH2 0x10 JUMPI PUSH1 0x0 DUP1 REVERT JUMPDEST POP PUSH2 0x118A DUP1 PUSH2 0x20 PUSH1 0x0 CODECOPY PUSH1 0x0 RETURN INVALID PUSH1 0x80 PUSH1 0x40 MSTORE CALLVALUE DUP1 ISZERO PUSH2 0x10 JUMPI PUSH1 0x0 DUP1 REVERT JUMPDEST POP PUSH1 0x4 CALLDATASIZE LT PUSH2 0x7D JUMPI PUSH1 0x0 CALLDATALOAD PUSH1 0xE0 SHR DUP1 PUSH4 0x7B5493CB GT PUSH2 0x5B JUMPI DUP1 PUSH4 0x7B5493CB EQ PUSH2 0xFE JUMPI DUP1 PUSH4 0x860536C2 EQ PUSH2 0x12E JUMPI DUP1 PUSH4 0xC486A53B EQ PUSH2 0x15E JUMPI DUP1 PUSH4 0xD431A42F EQ PUSH2 0x17A JUMPI PUSH2 0x7D JUMP JUMPDEST DUP1 PUSH4 0x11AA4CBA EQ PUSH2 0x82 JUMPI DUP1 PUSH4 0x208A43D3 EQ PUSH2 0xB2 JUMPI DUP1 PUSH4 0x6AF42A8C EQ PUSH2 0xE2 JUMPI JUMPDEST PUSH1 0x0 DUP1 REVERT JUMPDEST PUSH2 0x9C PUSH1 0x4 DUP1 CALLDATASIZE SUB DUP2 ADD SWAP1 PUSH2 0x97 SWAP2 SWAP1 PUSH2 0xAA5 JUMP JUMPDEST PUSH2 0x1AA JUMP JUMPDEST PUSH1 0x40 MLOAD PUSH2 0xA9 SWAP2 SWAP1 PUSH2 0xB9C JUMP JUMPDEST PUSH1 0x40 MLOAD DUP1 SWAP2 SUB SWAP1 RETURN JUMPDEST PUSH2 0xCC PUSH1 0x4 DUP1 CALLDATASIZE SUB DUP2 ADD SWAP1 PUSH2 0xC7 SWAP2 SWAP1 PUSH2 0xAA5 JUMP JUMPDEST PUSH2 0x35D JUMP JUMPDEST PUSH1 0x40 MLOAD PUSH2 0xD9 SWAP2 SWAP1 PUSH2 0xBCD JUMP JUMPDEST PUSH1 0x40 MLOAD DUP1 SWAP2 SUB SWAP1 RETURN JUMPDEST PUSH2 0xFC PUSH1 0x4 DUP1 CALLDATASIZE SUB DUP2 ADD SWAP1 PUSH2 0xF7 SWAP2 SWAP1 PUSH2 0xCD1 JUMP JUMPDEST PUSH2 0x402 JUMP JUMPDEST STOP JUMPDEST PUSH2 0x118 PUSH1 0x4 DUP1 CALLDATASIZE SUB DUP2 ADD SWAP1 PUSH2 0x113 SWAP2 SWAP1 PUSH2 0xD5C JUMP JUMPDEST PUSH2 0x618 JUMP JUMPDEST PUSH1 0x40 MLOAD PUSH2 0x125 SWAP2 SWAP1 PUSH2 0xBCD JUMP JUMPDEST PUSH1 0x40 MLOAD DUP1 SWAP2 SUB SWAP1 RETURN JUMPDEST PUSH2 0x148 PUSH1 0x4 DUP1 CALLDATASIZE SUB DUP2 ADD SWAP1 PUSH2 0x143 SWAP2 SWAP1 PUSH2 0xDA5 JUMP JUMPDEST PUSH2 0x6BC JUMP JUMPDEST PUSH1 0x40 MLOAD PUSH2 0x155 SWAP2 SWAP1 PUSH2 0xBCD JUMP JUMPDEST PUSH1 0x40 MLOAD DUP1 SWAP2 SUB SWAP1 RETURN JUMPDEST PUSH2 0x178 PUSH1 0x4 DUP1 CALLDATASIZE SUB DUP2 ADD SWAP1 PUSH2 0x173 SWAP2 SWAP1 PUSH2 0xE5F JUMP JUMPDEST PUSH2 0x75D JUMP JUMPDEST STOP JUMPDEST PUSH2 0x194 PUSH1 0x4 DUP1 CALLDATASIZE SUB DUP2 ADD SWAP1 PUSH2 0x18F SWAP2 SWAP1 PUSH2 0xD5C JUMP JUMPDEST PUSH2 0x8EB JUMP JUMPDEST PUSH1 0x40 MLOAD PUSH2 0x1A1 SWAP2 SWAP1 PUSH2 0xBCD JUMP JUMPDEST PUSH1 0x40 MLOAD DUP1 SWAP2 SUB SWAP1 RETURN JUMPDEST PUSH1 0x60 PUSH1 0x0 DUP1 DUP4 LT SWAP1 POP PUSH1 0x0 DUP2 PUSH2 0x1C8 JUMPI PUSH2 0x1C3 DUP7 PUSH2 0x618 JUMP JUMPDEST PUSH2 0x1D4 JUMP JUMPDEST PUSH2 0x1D3 DUP7 DUP7 DUP7 PUSH2 0x35D JUMP JUMPDEST JUMPDEST SWAP1 POP PUSH1 0x0 DUP2 PUSH8 0xFFFFFFFFFFFFFFFF DUP2 GT ISZERO PUSH2 0x1F2 JUMPI PUSH2 0x1F1 PUSH2 0x944 JUMP JUMPDEST JUMPDEST PUSH1 0x40 MLOAD SWAP1 DUP1 DUP3 MSTORE DUP1 PUSH1 0x1F ADD PUSH1 0x1F NOT AND PUSH1 0x20 ADD DUP3 ADD PUSH1 0x40 MSTORE DUP1 ISZERO PUSH2 0x224 JUMPI DUP2 PUSH1 0x20 ADD PUSH1 0x1 DUP3 MUL DUP1 CALLDATASIZE DUP4 CALLDATACOPY DUP1 DUP3 ADD SWAP2 POP POP SWAP1 POP JUMPDEST POP SWAP1 POP PUSH1 0x0 DUP1 DUP9 PUSH1 0x40 MLOAD PUSH2 0x238 SWAP2 SWAP1 PUSH2 0xF3D JUMP JUMPDEST SWAP1 DUP2 MSTORE PUSH1 0x20 ADD PUSH1 0x40 MLOAD DUP1 SWAP2 SUB SWAP1 KECCAK256 SWAP1 POP PUSH1 0x0 DUP5 PUSH2 0x259 JUMPI DUP2 PUSH1 0x0 ADD SLOAD PUSH2 0x25B JUMP JUMPDEST DUP7 JUMPDEST SWAP1 POP PUSH1 0x0 PUSH1 0x20 SWAP1 POP PUSH1 0x0 DUP10 SWAP1 POP JUMPDEST DUP3 DUP2 GT PUSH2 0x34C JUMPI PUSH1 0x0 DUP5 PUSH1 0x2 ADD PUSH1 0x0 DUP4 DUP2 MSTORE PUSH1 0x20 ADD SWAP1 DUP2 MSTORE PUSH1 0x20 ADD PUSH1 0x0 KECCAK256 SWAP1 POP PUSH1 0x0 DUP2 PUSH1 0x0 ADD PUSH1 0x0 SWAP1 SLOAD SWAP1 PUSH2 0x100 EXP SWAP1 DIV PUSH20 0xFFFFFFFFFFFFFFFFFFFFFFFFFFFFFFFFFFFFFFFF AND SWAP1 POP PUSH1 0x0 DUP3 PUSH1 0x1 ADD PUSH1 0x0 SWAP1 SLOAD SWAP1 PUSH2 0x100 EXP SWAP1 DIV PUSH16 0xFFFFFFFFFFFFFFFFFFFFFFFFFFFFFFFF AND PUSH16 0xFFFFFFFFFFFFFFFFFFFFFFFFFFFFFFFF AND SWAP1 POP PUSH1 0x0 DUP4 PUSH1 0x1 ADD PUSH1 0x10 SWAP1 SLOAD SWAP1 PUSH2 0x100 EXP SWAP1 DIV PUSH16 0xFFFFFFFFFFFFFFFFFFFFFFFFFFFFFFFF AND PUSH16 0xFFFFFFFFFFFFFFFFFFFFFFFFFFFFFFFF AND SWAP1 POP DUP2 DUP2 DUP8 DUP12 ADD DUP6 EXTCODECOPY DUP2 DUP7 PUSH2 0x333 SWAP2 SWAP1 PUSH2 0xF83 JUMP JUMPDEST SWAP6 POP POP POP POP POP DUP1 DUP1 PUSH2 0x344 SWAP1 PUSH2 0xFD9 JUMP JUMPDEST SWAP2 POP POP PUSH2 0x269 JUMP JUMPDEST POP DUP4 SWAP7 POP POP POP POP POP POP POP SWAP4 SWAP3 POP POP POP JUMP JUMPDEST PUSH1 0x0 DUP1 PUSH1 0x0 DUP6 PUSH1 0x40 MLOAD PUSH2 0x370 SWAP2 SWAP1 PUSH2 0xF3D JUMP JUMPDEST SWAP1 DUP2 MSTORE PUSH1 0x20 ADD PUSH1 0x40 MLOAD DUP1 SWAP2 SUB SWAP1 KECCAK256 SWAP1 POP PUSH1 0x0 DUP1 DUP6 SWAP1 POP JUMPDEST DUP5 DUP2 GT PUSH2 0x3F5 JUMPI DUP3 PUSH1 0x2 ADD PUSH1 0x0 DUP3 DUP2 MSTORE PUSH1 0x20 ADD SWAP1 DUP2 MSTORE PUSH1 0x20 ADD PUSH1 0x0 KECCAK256 PUSH1 0x1 ADD PUSH1 0x0 SWAP1 SLOAD SWAP1 PUSH2 0x100 EXP SWAP1 DIV PUSH16 0xFFFFFFFFFFFFFFFFFFFFFFFFFFFFFFFF AND PUSH16 0xFFFFFFFFFFFFFFFFFFFFFFFFFFFFFFFF AND DUP3 PUSH2 0x3E0 SWAP2 SWAP1 PUSH2 0xF83 JUMP JUMPDEST SWAP2 POP DUP1 DUP1 PUSH2 0x3ED SWAP1 PUSH2 0xFD9 JUMP JUMPDEST SWAP2 POP POP PUSH2 0x387 JUMP JUMPDEST POP DUP1 SWAP3 POP POP POP SWAP4 SWAP3 POP POP POP JUMP JUMPDEST PUSH2 0x6000 DUP2 MLOAD LT PUSH2 0x447 JUMPI PUSH1 0x40 MLOAD PUSH32 0x8C379A000000000000000000000000000000000000000000000000000000000 DUP2 MSTORE PUSH1 0x4 ADD PUSH2 0x43E SWAP1 PUSH2 0x10A5 JUMP JUMPDEST PUSH1 0x40 MLOAD DUP1 SWAP2 SUB SWAP1 REVERT JUMPDEST PUSH1 0x0 PUSH1 0x40 MLOAD DUP1 PUSH1 0x40 ADD PUSH1 0x40 MSTORE DUP1 PUSH1 0xE DUP2 MSTORE PUSH1 0x20 ADD PUSH32 0x610000600E6000396100006000F3000000000000000000000000000000000000 DUP2 MSTORE POP SWAP1 POP PUSH1 0x0 DUP3 MLOAD PUSH1 0xF8 SHL SWAP1 POP PUSH1 0x0 PUSH1 0x8 DUP5 MLOAD SWAP1 SHR PUSH1 0xF8 SHL SWAP1 POP DUP2 DUP4 PUSH1 0x2 DUP2 MLOAD DUP2 LT PUSH2 0x4AC JUMPI PUSH2 0x4AB PUSH2 0x10C5 JUMP JUMPDEST JUMPDEST PUSH1 0x20 ADD ADD SWAP1 PUSH31 0xFFFFFFFFFFFFFFFFFFFFFFFFFFFFFFFFFFFFFFFFFFFFFFFFFFFFFFFFFFFFFF NOT AND SWAP1 DUP2 PUSH1 0x0 BYTE SWAP1 MSTORE8 POP DUP1 DUP4 PUSH1 0x1 DUP2 MLOAD DUP2 LT PUSH2 0x4F0 JUMPI PUSH2 0x4EF PUSH2 0x10C5 JUMP JUMPDEST JUMPDEST PUSH1 0x20 ADD ADD SWAP1 PUSH31 0xFFFFFFFFFFFFFFFFFFFFFFFFFFFFFFFFFFFFFFFFFFFFFFFFFFFFFFFFFFFFFF NOT AND SWAP1 DUP2 PUSH1 0x0 BYTE SWAP1 MSTORE8 POP DUP2 DUP4 PUSH1 0xA DUP2 MLOAD DUP2 LT PUSH2 0x534 JUMPI PUSH2 0x533 PUSH2 0x10C5 JUMP JUMPDEST JUMPDEST PUSH1 0x20 ADD ADD SWAP1 PUSH31 0xFFFFFFFFFFFFFFFFFFFFFFFFFFFFFFFFFFFFFFFFFFFFFFFFFFFFFFFFFFFFFF NOT AND SWAP1 DUP2 PUSH1 0x0 BYTE SWAP1 MSTORE8 POP DUP1 DUP4 PUSH1 0x9 DUP2 MLOAD DUP2 LT PUSH2 0x578 JUMPI PUSH2 0x577 PUSH2 0x10C5 JUMP JUMPDEST JUMPDEST PUSH1 0x20 ADD ADD SWAP1 PUSH31 0xFFFFFFFFFFFFFFFFFFFFFFFFFFFFFFFFFFFFFFFFFFFFFFFFFFFFFFFFFFFFFF NOT AND SWAP1 DUP2 PUSH1 0x0 BYTE SWAP1 MSTORE8 POP PUSH1 0x0 DUP4 DUP6 PUSH1 0x40 MLOAD PUSH1 0x20 ADD PUSH2 0x5BC SWAP3 SWAP2 SWAP1 PUSH2 0x1130 JUMP JUMPDEST PUSH1 0x40 MLOAD PUSH1 0x20 DUP2 DUP4 SUB SUB DUP2 MSTORE SWAP1 PUSH1 0x40 MSTORE SWAP1 POP PUSH1 0x0 DUP2 MLOAD PUSH1 0x20 DUP4 ADD PUSH1 0x0 CREATE SWAP1 POP PUSH1 0x0 DUP2 EQ ISZERO PUSH2 0x5ED JUMPI RETURNDATASIZE PUSH1 0x0 DUP1 RETURNDATACOPY RETURNDATASIZE PUSH1 0x0 REVERT JUMPDEST PUSH2 0x60E DUP9 DUP9 PUSH16 0xFFFFFFFFFFFFFFFFFFFFFFFFFFFFFFFF AND DUP4 DUP10 MLOAD PUSH1 0x0 PUSH2 0x75D JUMP JUMPDEST POP POP POP POP POP POP POP POP JUMP JUMPDEST PUSH1 0x0 DUP1 PUSH1 0x0 DUP4 PUSH1 0x40 MLOAD PUSH2 0x62B SWAP2 SWAP1 PUSH2 0xF3D JUMP JUMPDEST SWAP1 DUP2 MSTORE PUSH1 0x20 ADD PUSH1 0x40 MLOAD DUP1 SWAP2 SUB SWAP1 KECCAK256 SWAP1 POP PUSH1 0x0 DUP1 JUMPDEST DUP3 PUSH1 0x0 ADD SLOAD DUP2 GT PUSH2 0x6B1 JUMPI DUP3 PUSH1 0x2 ADD PUSH1 0x0 DUP3 DUP2 MSTORE PUSH1 0x20 ADD SWAP1 DUP2 MSTORE PUSH1 0x20 ADD PUSH1 0x0 KECCAK256 PUSH1 0x1 ADD PUSH1 0x0 SWAP1 SLOAD SWAP1 PUSH2 0x100 EXP SWAP1 DIV PUSH16 0xFFFFFFFFFFFFFFFFFFFFFFFFFFFFFFFF AND PUSH16 0xFFFFFFFFFFFFFFFFFFFFFFFFFFFFFFFF AND DUP3 PUSH2 0x69C SWAP2 SWAP1 PUSH2 0xF83 JUMP JUMPDEST SWAP2 POP DUP1 DUP1 PUSH2 0x6A9 SWAP1 PUSH2 0xFD9 JUMP JUMPDEST SWAP2 POP POP PUSH2 0x63F JUMP JUMPDEST POP DUP1 SWAP3 POP POP POP SWAP2 SWAP1 POP JUMP JUMPDEST PUSH1 0x0 DUP1 PUSH1 0x0 DUP5 PUSH1 0x40 MLOAD PUSH2 0x6CF SWAP2 SWAP1 PUSH2 0xF3D JUMP JUMPDEST SWAP1 DUP2 MSTORE PUSH1 0x20 ADD PUSH1 0x40 MLOAD DUP1 SWAP2 SUB SWAP1 KECCAK256 SWAP1 POP PUSH1 0x0 DUP1 JUMPDEST DUP5 DUP2 GT PUSH2 0x751 JUMPI DUP3 PUSH1 0x2 ADD PUSH1 0x0 DUP3 DUP2 MSTORE PUSH1 0x20 ADD SWAP1 DUP2 MSTORE PUSH1 0x20 ADD PUSH1 0x0 KECCAK256 PUSH1 0x1 ADD PUSH1 0x0 SWAP1 SLOAD SWAP1 PUSH2 0x100 EXP SWAP1 DIV PUSH16 0xFFFFFFFFFFFFFFFFFFFFFFFFFFFFFFFF AND PUSH16 0xFFFFFFFFFFFFFFFFFFFFFFFFFFFFFFFF AND DUP3 PUSH2 0x73C SWAP2 SWAP1 PUSH2 0xF83 JUMP JUMPDEST SWAP2 POP DUP1 DUP1 PUSH2 0x749 SWAP1 PUSH2 0xFD9 JUMP JUMPDEST SWAP2 POP POP PUSH2 0x6E3 JUMP JUMPDEST POP DUP1 SWAP3 POP POP POP SWAP3 SWAP2 POP POP JUMP JUMPDEST PUSH1 0x0 DUP1 DUP7 PUSH1 0x40 MLOAD PUSH2 0x76E SWAP2 SWAP1 PUSH2 0xF3D JUMP JUMPDEST SWAP1 DUP2 MSTORE PUSH1 0x20 ADD PUSH1 0x40 MLOAD DUP1 SWAP2 SUB SWAP1 KECCAK256 SWAP1 POP DUP5 DUP2 PUSH1 0x0 ADD SLOAD LT ISZERO PUSH2 0x794 JUMPI DUP5 DUP2 PUSH1 0x0 ADD DUP2 SWAP1 SSTORE POP JUMPDEST PUSH1 0x1 DUP2 PUSH1 0x1 ADD PUSH1 0x0 PUSH2 0x100 EXP DUP2 SLOAD DUP2 PUSH1 0xFF MUL NOT AND SWAP1 DUP4 ISZERO ISZERO MUL OR SWAP1 SSTORE POP PUSH1 0x40 MLOAD DUP1 PUSH1 0x60 ADD PUSH1 0x40 MSTORE DUP1 DUP6 PUSH20 0xFFFFFFFFFFFFFFFFFFFFFFFFFFFFFFFFFFFFFFFF AND DUP2 MSTORE PUSH1 0x20 ADD DUP5 PUSH16 0xFFFFFFFFFFFFFFFFFFFFFFFFFFFFFFFF AND DUP2 MSTORE PUSH1 0x20 ADD DUP4 PUSH16 0xFFFFFFFFFFFFFFFFFFFFFFFFFFFFFFFF AND DUP2 MSTORE POP DUP2 PUSH1 0x2 ADD PUSH1 0x0 DUP8 DUP2 MSTORE PUSH1 0x20 ADD SWAP1 DUP2 MSTORE PUSH1 0x20 ADD PUSH1 0x0 KECCAK256 PUSH1 0x0 DUP3 ADD MLOAD DUP2 PUSH1 0x0 ADD PUSH1 0x0 PUSH2 0x100 EXP DUP2 SLOAD DUP2 PUSH20 0xFFFFFFFFFFFFFFFFFFFFFFFFFFFFFFFFFFFFFFFF MUL NOT AND SWAP1 DUP4 PUSH20 0xFFFFFFFFFFFFFFFFFFFFFFFFFFFFFFFFFFFFFFFF AND MUL OR SWAP1 SSTORE POP PUSH1 0x20 DUP3 ADD MLOAD DUP2 PUSH1 0x1 ADD PUSH1 0x0 PUSH2 0x100 EXP DUP2 SLOAD DUP2 PUSH16 0xFFFFFFFFFFFFFFFFFFFFFFFFFFFFFFFF MUL NOT AND SWAP1 DUP4 PUSH16 0xFFFFFFFFFFFFFFFFFFFFFFFFFFFFFFFF AND MUL OR SWAP1 SSTORE POP PUSH1 0x40 DUP3 ADD MLOAD DUP2 PUSH1 0x1 ADD PUSH1 0x10 PUSH2 0x100 EXP DUP2 SLOAD DUP2 PUSH16 0xFFFFFFFFFFFFFFFFFFFFFFFFFFFFFFFF MUL NOT AND SWAP1 DUP4 PUSH16 0xFFFFFFFFFFFFFFFFFFFFFFFFFFFFFFFF AND MUL OR SWAP1 SSTORE POP SWAP1 POP POP POP POP POP POP POP POP JUMP JUMPDEST PUSH1 0x0 DUP1 DUP3 PUSH1 0x40 MLOAD PUSH2 0x8FC SWAP2 SWAP1 PUSH2 0xF3D JUMP JUMPDEST SWAP1 DUP2 MSTORE PUSH1 0x20 ADD PUSH1 0x40 MLOAD DUP1 SWAP2 SUB SWAP1 KECCAK256 PUSH1 0x0 ADD SLOAD SWAP1 POP SWAP2 SWAP1 POP JUMP JUMPDEST PUSH1 0x0 PUSH1 0x40 MLOAD SWAP1 POP SWAP1 JUMP JUMPDEST PUSH1 0x0 DUP1 REVERT JUMPDEST PUSH1 0x0 DUP1 REVERT JUMPDEST PUSH1 0x0 DUP1 REVERT JUMPDEST PUSH1 0x0 DUP1 REVERT JUMPDEST PUSH1 0x0 PUSH1 0x1F NOT PUSH1 0x1F DUP4 ADD AND SWAP1 POP SWAP2 SWAP1 POP JUMP JUMPDEST PUSH32 0x4E487B7100000000000000000000000000000000000000000000000000000000 PUSH1 0x0 MSTORE PUSH1 0x41 PUSH1 0x4 MSTORE PUSH1 0x24 PUSH1 0x0 REVERT JUMPDEST PUSH2 0x97C DUP3 PUSH2 0x933 JUMP JUMPDEST DUP2 ADD DUP2 DUP2 LT PUSH8 0xFFFFFFFFFFFFFFFF DUP3 GT OR ISZERO PUSH2 0x99B JUMPI PUSH2 0x99A PUSH2 0x944 JUMP JUMPDEST JUMPDEST DUP1 PUSH1 0x40 MSTORE POP POP POP JUMP JUMPDEST PUSH1 0x0 PUSH2 0x9AE PUSH2 0x915 JUMP JUMPDEST SWAP1 POP PUSH2 0x9BA DUP3 DUP3 PUSH2 0x973 JUMP JUMPDEST SWAP2 SWAP1 POP JUMP JUMPDEST PUSH1 0x0 PUSH8 0xFFFFFFFFFFFFFFFF DUP3 GT ISZERO PUSH2 0x9DA JUMPI PUSH2 0x9D9 PUSH2 0x944 JUMP JUMPDEST JUMPDEST PUSH2 0x9E3 DUP3 PUSH2 0x933 JUMP JUMPDEST SWAP1 POP PUSH1 0x20 DUP2 ADD SWAP1 POP SWAP2 SWAP1 POP JUMP JUMPDEST DUP3 DUP2 DUP4 CALLDATACOPY PUSH1 0x0 DUP4 DUP4 ADD MSTORE POP POP POP JUMP JUMPDEST PUSH1 0x0 PUSH2 0xA12 PUSH2 0xA0D DUP5 PUSH2 0x9BF JUMP JUMPDEST PUSH2 0x9A4 JUMP JUMPDEST SWAP1 POP DUP3 DUP2 MSTORE PUSH1 0x20 DUP2 ADD DUP5 DUP5 DUP5 ADD GT ISZERO PUSH2 0xA2E JUMPI PUSH2 0xA2D PUSH2 0x92E JUMP JUMPDEST JUMPDEST PUSH2 0xA39 DUP5 DUP3 DUP6 PUSH2 0x9F0 JUMP JUMPDEST POP SWAP4 SWAP3 POP POP POP JUMP JUMPDEST PUSH1 0x0 DUP3 PUSH1 0x1F DUP4 ADD SLT PUSH2 0xA56 JUMPI PUSH2 0xA55 PUSH2 0x929 JUMP JUMPDEST JUMPDEST DUP2 CALLDATALOAD PUSH2 0xA66 DUP5 DUP3 PUSH1 0x20 DUP7 ADD PUSH2 0x9FF JUMP JUMPDEST SWAP2 POP POP SWAP3 SWAP2 POP POP JUMP JUMPDEST PUSH1 0x0 DUP2 SWAP1 POP SWAP2 SWAP1 POP JUMP JUMPDEST PUSH2 0xA82 DUP2 PUSH2 0xA6F JUMP JUMPDEST DUP2 EQ PUSH2 0xA8D JUMPI PUSH1 0x0 DUP1 REVERT JUMPDEST POP JUMP JUMPDEST PUSH1 0x0 DUP2 CALLDATALOAD SWAP1 POP PUSH2 0xA9F DUP2 PUSH2 0xA79 JUMP JUMPDEST SWAP3 SWAP2 POP POP JUMP JUMPDEST PUSH1 0x0 DUP1 PUSH1 0x0 PUSH1 0x60 DUP5 DUP7 SUB SLT ISZERO PUSH2 0xABE JUMPI PUSH2 0xABD PUSH2 0x91F JUMP JUMPDEST JUMPDEST PUSH1 0x0 DUP5 ADD CALLDATALOAD PUSH8 0xFFFFFFFFFFFFFFFF DUP2 GT ISZERO PUSH2 0xADC JUMPI PUSH2 0xADB PUSH2 0x924 JUMP JUMPDEST JUMPDEST PUSH2 0xAE8 DUP7 DUP3 DUP8 ADD PUSH2 0xA41 JUMP JUMPDEST SWAP4 POP POP PUSH1 0x20 PUSH2 0xAF9 DUP7 DUP3 DUP8 ADD PUSH2 0xA90 JUMP JUMPDEST SWAP3 POP POP PUSH1 0x40 PUSH2 0xB0A DUP7 DUP3 DUP8 ADD PUSH2 0xA90 JUMP JUMPDEST SWAP2 POP POP SWAP3 POP SWAP3 POP SWAP3 JUMP JUMPDEST PUSH1 0x0 DUP2 MLOAD SWAP1 POP SWAP2 SWAP1 POP JUMP JUMPDEST PUSH1 0x0 DUP3 DUP3 MSTORE PUSH1 0x20 DUP3 ADD SWAP1 POP SWAP3 SWAP2 POP POP JUMP JUMPDEST PUSH1 0x0 JUMPDEST DUP4 DUP2 LT ISZERO PUSH2 0xB4E JUMPI DUP1 DUP3 ADD MLOAD DUP2 DUP5 ADD MSTORE PUSH1 0x20 DUP2 ADD SWAP1 POP PUSH2 0xB33 JUMP JUMPDEST DUP4 DUP2 GT ISZERO PUSH2 0xB5D JUMPI PUSH1 0x0 DUP5 DUP5 ADD MSTORE JUMPDEST POP POP POP POP JUMP JUMPDEST PUSH1 0x0 PUSH2 0xB6E DUP3 PUSH2 0xB14 JUMP JUMPDEST PUSH2 0xB78 DUP2 DUP6 PUSH2 0xB1F JUMP JUMPDEST SWAP4 POP PUSH2 0xB88 DUP2 DUP6 PUSH1 0x20 DUP7 ADD PUSH2 0xB30 JUMP JUMPDEST PUSH2 0xB91 DUP2 PUSH2 0x933 JUMP JUMPDEST DUP5 ADD SWAP2 POP POP SWAP3 SWAP2 POP POP JUMP JUMPDEST PUSH1 0x0 PUSH1 0x20 DUP3 ADD SWAP1 POP DUP2 DUP2 SUB PUSH1 0x0 DUP4 ADD MSTORE PUSH2 0xBB6 DUP2 DUP5 PUSH2 0xB63 JUMP JUMPDEST SWAP1 POP SWAP3 SWAP2 POP POP JUMP JUMPDEST PUSH2 0xBC7 DUP2 PUSH2 0xA6F JUMP JUMPDEST DUP3 MSTORE POP POP JUMP JUMPDEST PUSH1 0x0 PUSH1 0x20 DUP3 ADD SWAP1 POP PUSH2 0xBE2 PUSH1 0x0 DUP4 ADD DUP5 PUSH2 0xBBE JUMP JUMPDEST SWAP3 SWAP2 POP POP JUMP JUMPDEST PUSH1 0x0 PUSH16 0xFFFFFFFFFFFFFFFFFFFFFFFFFFFFFFFF DUP3 AND SWAP1 POP SWAP2 SWAP1 POP JUMP JUMPDEST PUSH2 0xC0D DUP2 PUSH2 0xBE8 JUMP JUMPDEST DUP2 EQ PUSH2 0xC18 JUMPI PUSH1 0x0 DUP1 REVERT JUMPDEST POP JUMP JUMPDEST PUSH1 0x0 DUP2 CALLDATALOAD SWAP1 POP PUSH2 0xC2A DUP2 PUSH2 0xC04 JUMP JUMPDEST SWAP3 SWAP2 POP POP JUMP JUMPDEST PUSH1 0x0 PUSH8 0xFFFFFFFFFFFFFFFF DUP3 GT ISZERO PUSH2 0xC4B JUMPI PUSH2 0xC4A PUSH2 0x944 JUMP JUMPDEST JUMPDEST PUSH2 0xC54 DUP3 PUSH2 0x933 JUMP JUMPDEST SWAP1 POP PUSH1 0x20 DUP2 ADD SWAP1 POP SWAP2 SWAP1 POP JUMP JUMPDEST PUSH1 0x0 PUSH2 0xC74 PUSH2 0xC6F DUP5 PUSH2 0xC30 JUMP JUMPDEST PUSH2 0x9A4 JUMP JUMPDEST SWAP1 POP DUP3 DUP2 MSTORE PUSH1 0x20 DUP2 ADD DUP5 DUP5 DUP5 ADD GT ISZERO PUSH2 0xC90 JUMPI PUSH2 0xC8F PUSH2 0x92E JUMP JUMPDEST JUMPDEST PUSH2 0xC9B DUP5 DUP3 DUP6 PUSH2 0x9F0 JUMP JUMPDEST POP SWAP4 SWAP3 POP POP POP JUMP JUMPDEST PUSH1 0x0 DUP3 PUSH1 0x1F DUP4 ADD SLT PUSH2 0xCB8 JUMPI PUSH2 0xCB7 PUSH2 0x929 JUMP JUMPDEST JUMPDEST DUP2 CALLDATALOAD PUSH2 0xCC8 DUP5 DUP3 PUSH1 0x20 DUP7 ADD PUSH2 0xC61 JUMP JUMPDEST SWAP2 POP POP SWAP3 SWAP2 POP POP JUMP JUMPDEST PUSH1 0x0 DUP1 PUSH1 0x0 PUSH1 0x60 DUP5 DUP7 SUB SLT ISZERO PUSH2 0xCEA JUMPI PUSH2 0xCE9 PUSH2 0x91F JUMP JUMPDEST JUMPDEST PUSH1 0x0 DUP5 ADD CALLDATALOAD PUSH8 0xFFFFFFFFFFFFFFFF DUP2 GT ISZERO PUSH2 0xD08 JUMPI PUSH2 0xD07 PUSH2 0x924 JUMP JUMPDEST JUMPDEST PUSH2 0xD14 DUP7 DUP3 DUP8 ADD PUSH2 0xA41 JUMP JUMPDEST SWAP4 POP POP PUSH1 0x20 PUSH2 0xD25 DUP7 DUP3 DUP8 ADD PUSH2 0xC1B JUMP JUMPDEST SWAP3 POP POP PUSH1 0x40 DUP5 ADD CALLDATALOAD PUSH8 0xFFFFFFFFFFFFFFFF DUP2 GT ISZERO PUSH2 0xD46 JUMPI PUSH2 0xD45 PUSH2 0x924 JUMP JUMPDEST JUMPDEST PUSH2 0xD52 DUP7 DUP3 DUP8 ADD PUSH2 0xCA3 JUMP JUMPDEST SWAP2 POP POP SWAP3 POP SWAP3 POP SWAP3 JUMP JUMPDEST PUSH1 0x0 PUSH1 0x20 DUP3 DUP5 SUB SLT ISZERO PUSH2 0xD72 JUMPI PUSH2 0xD71 PUSH2 0x91F JUMP JUMPDEST JUMPDEST PUSH1 0x0 DUP3 ADD CALLDATALOAD PUSH8 0xFFFFFFFFFFFFFFFF DUP2 GT ISZERO PUSH2 0xD90 JUMPI PUSH2 0xD8F PUSH2 0x924 JUMP JUMPDEST JUMPDEST PUSH2 0xD9C DUP5 DUP3 DUP6 ADD PUSH2 0xA41 JUMP JUMPDEST SWAP2 POP POP SWAP3 SWAP2 POP POP JUMP JUMPDEST PUSH1 0x0 DUP1 PUSH1 0x40 DUP4 DUP6 SUB SLT ISZERO PUSH2 0xDBC JUMPI PUSH2 0xDBB PUSH2 0x91F JUMP JUMPDEST JUMPDEST PUSH1 0x0 DUP4 ADD CALLDATALOAD PUSH8 0xFFFFFFFFFFFFFFFF DUP2 GT ISZERO PUSH2 0xDDA JUMPI PUSH2 0xDD9 PUSH2 0x924 JUMP JUMPDEST JUMPDEST PUSH2 0xDE6 DUP6 DUP3 DUP7 ADD PUSH2 0xA41 JUMP JUMPDEST SWAP3 POP POP PUSH1 0x20 PUSH2 0xDF7 DUP6 DUP3 DUP7 ADD PUSH2 0xA90 JUMP JUMPDEST SWAP2 POP POP SWAP3 POP SWAP3 SWAP1 POP JUMP JUMPDEST PUSH1 0x0 PUSH20 0xFFFFFFFFFFFFFFFFFFFFFFFFFFFFFFFFFFFFFFFF DUP3 AND SWAP1 POP SWAP2 SWAP1 POP JUMP JUMPDEST PUSH1 0x0 PUSH2 0xE2C DUP3 PUSH2 0xE01 JUMP JUMPDEST SWAP1 POP SWAP2 SWAP1 POP JUMP JUMPDEST PUSH2 0xE3C DUP2 PUSH2 0xE21 JUMP JUMPDEST DUP2 EQ PUSH2 0xE47 JUMPI PUSH1 0x0 DUP1 REVERT JUMPDEST POP JUMP JUMPDEST PUSH1 0x0 DUP2 CALLDATALOAD SWAP1 POP PUSH2 0xE59 DUP2 PUSH2 0xE33 JUMP JUMPDEST SWAP3 SWAP2 POP POP JUMP JUMPDEST PUSH1 0x0 DUP1 PUSH1 0x0 DUP1 PUSH1 0x0 PUSH1 0xA0 DUP7 DUP9 SUB SLT ISZERO PUSH2 0xE7B JUMPI PUSH2 0xE7A PUSH2 0x91F JUMP JUMPDEST JUMPDEST PUSH1 0x0 DUP7 ADD CALLDATALOAD PUSH8 0xFFFFFFFFFFFFFFFF DUP2 GT ISZERO PUSH2 0xE99 JUMPI PUSH2 0xE98 PUSH2 0x924 JUMP JUMPDEST JUMPDEST PUSH2 0xEA5 DUP9 DUP3 DUP10 ADD PUSH2 0xA41 JUMP JUMPDEST SWAP6 POP POP PUSH1 0x20 PUSH2 0xEB6 DUP9 DUP3 DUP10 ADD PUSH2 0xA90 JUMP JUMPDEST SWAP5 POP POP PUSH1 0x40 PUSH2 0xEC7 DUP9 DUP3 DUP10 ADD PUSH2 0xE4A JUMP JUMPDEST SWAP4 POP POP PUSH1 0x60 PUSH2 0xED8 DUP9 DUP3 DUP10 ADD PUSH2 0xC1B JUMP JUMPDEST SWAP3 POP POP PUSH1 0x80 PUSH2 0xEE9 DUP9 DUP3 DUP10 ADD PUSH2 0xC1B JUMP JUMPDEST SWAP2 POP POP SWAP3 SWAP6 POP SWAP3 SWAP6 SWAP1 SWAP4 POP JUMP JUMPDEST PUSH1 0x0 DUP2 MLOAD SWAP1 POP SWAP2 SWAP1 POP JUMP JUMPDEST PUSH1 0x0 DUP2 SWAP1 POP SWAP3 SWAP2 POP POP JUMP JUMPDEST PUSH1 0x0 PUSH2 0xF17 DUP3 PUSH2 0xEF6 JUMP JUMPDEST PUSH2 0xF21 DUP2 DUP6 PUSH2 0xF01 JUMP JUMPDEST SWAP4 POP PUSH2 0xF31 DUP2 DUP6 PUSH1 0x20 DUP7 ADD PUSH2 0xB30 JUMP JUMPDEST DUP1 DUP5 ADD SWAP2 POP POP SWAP3 SWAP2 POP POP JUMP JUMPDEST PUSH1 0x0 PUSH2 0xF49 DUP3 DUP5 PUSH2 0xF0C JUMP JUMPDEST SWAP2 POP DUP2 SWAP1 POP SWAP3 SWAP2 POP POP JUMP JUMPDEST PUSH32 0x4E487B7100000000000000000000000000000000000000000000000000000000 PUSH1 0x0 MSTORE PUSH1 0x11 PUSH1 0x4 MSTORE PUSH1 0x24 PUSH1 0x0 REVERT JUMPDEST PUSH1 0x0 PUSH2 0xF8E DUP3 PUSH2 0xA6F JUMP JUMPDEST SWAP2 POP PUSH2 0xF99 DUP4 PUSH2 0xA6F JUMP JUMPDEST SWAP3 POP DUP3 PUSH32 0xFFFFFFFFFFFFFFFFFFFFFFFFFFFFFFFFFFFFFFFFFFFFFFFFFFFFFFFFFFFFFFFF SUB DUP3 GT ISZERO PUSH2 0xFCE JUMPI PUSH2 0xFCD PUSH2 0xF54 JUMP JUMPDEST JUMPDEST DUP3 DUP3 ADD SWAP1 POP SWAP3 SWAP2 POP POP JUMP JUMPDEST PUSH1 0x0 PUSH2 0xFE4 DUP3 PUSH2 0xA6F JUMP JUMPDEST SWAP2 POP PUSH32 0xFFFFFFFFFFFFFFFFFFFFFFFFFFFFFFFFFFFFFFFFFFFFFFFFFFFFFFFFFFFFFFFF DUP3 EQ ISZERO PUSH2 0x1017 JUMPI PUSH2 0x1016 PUSH2 0xF54 JUMP JUMPDEST JUMPDEST PUSH1 0x1 DUP3 ADD SWAP1 POP SWAP2 SWAP1 POP JUMP JUMPDEST PUSH1 0x0 DUP3 DUP3 MSTORE PUSH1 0x20 DUP3 ADD SWAP1 POP SWAP3 SWAP2 POP POP JUMP JUMPDEST PUSH32 0x53746F726167653A2045786365656465642032342C353736206279746573206D PUSH1 0x0 DUP3 ADD MSTORE PUSH32 0x617820636F6E74726163742073697A6500000000000000000000000000000000 PUSH1 0x20 DUP3 ADD MSTORE POP JUMP JUMPDEST PUSH1 0x0 PUSH2 0x108F PUSH1 0x30 DUP4 PUSH2 0x1022 JUMP JUMPDEST SWAP2 POP PUSH2 0x109A DUP3 PUSH2 0x1033 JUMP JUMPDEST PUSH1 0x40 DUP3 ADD SWAP1 POP SWAP2 SWAP1 POP JUMP JUMPDEST PUSH1 0x0 PUSH1 0x20 DUP3 ADD SWAP1 POP DUP2 DUP2 SUB PUSH1 0x0 DUP4 ADD MSTORE PUSH2 0x10BE DUP2 PUSH2 0x1082 JUMP JUMPDEST SWAP1 POP SWAP2 SWAP1 POP JUMP JUMPDEST PUSH32 0x4E487B7100000000000000000000000000000000000000000000000000000000 PUSH1 0x0 MSTORE PUSH1 0x32 PUSH1 0x4 MSTORE PUSH1 0x24 PUSH1 0x0 REVERT JUMPDEST PUSH1 0x0 DUP2 SWAP1 POP SWAP3 SWAP2 POP POP JUMP JUMPDEST PUSH1 0x0 PUSH2 0x110A DUP3 PUSH2 0xB14 JUMP JUMPDEST PUSH2 0x1114 DUP2 DUP6 PUSH2 0x10F4 JUMP JUMPDEST SWAP4 POP PUSH2 0x1124 DUP2 DUP6 PUSH1 0x20 DUP7 ADD PUSH2 0xB30 JUMP JUMPDEST DUP1 DUP5 ADD SWAP2 POP POP SWAP3 SWAP2 POP POP JUMP JUMPDEST PUSH1 0x0 PUSH2 0x113C DUP3 DUP6 PUSH2 0x10FF JUMP JUMPDEST SWAP2 POP PUSH2 0x1148 DUP3 DUP5 PUSH2 0x10FF JUMP JUMPDEST SWAP2 POP DUP2 SWAP1 POP SWAP4 SWAP3 POP POP POP JUMP INVALID LOG2 PUSH5 0x6970667358 0x22 SLT KECCAK256 PUSH7 0x7FCDB6B510E769 PUSH24 0x9646A590415C9C9ED81EE0291AD8AE3A1DC2356525FA764 PUSH20 0x6F6C634300080C00330000000000000000000000 "
        },
        "methodIdentifiers": {
          "getData(string,uint256,uint256)": "11aa4cba",
          "getMaxPageNumber(string)": "d431a42f",
          "getSizeBetweenPages(string,uint256,uint256)": "208a43d3",
          "getSizeOfPages(string)": "7b5493cb",
          "getSizeUpToPage(string,uint256)": "860536c2",
          "saveData(string,uint128,bytes)": "6af42a8c",
          "saveDataForDeployedContract(string,uint256,address,uint128,uint128)": "c486a53b"
        }
      }
    }
  }
}