{
  "src/services/chain-sim/contracts/FrameDataStore.sol": {
    "FrameDataStore": {
      "abi": [
        {
          "inputs": [],
          "stateMutability": "nonpayable",
          "type": "constructor"
        },
        {
          "inputs": [
            {
              "internalType": "string",
              "name": "_key",
              "type": "string"
            },
            {
              "internalType": "uint256",
              "name": "_startPage",
              "type": "uint256"
            }
          ],
          "name": "getAllDataFrom",
          "outputs": [
            {
              "internalType": "bytes",
              "name": "",
              "type": "bytes"
            }
          ],
          "stateMutability": "view",
          "type": "function"
        },
        {
          "inputs": [
            {
              "internalType": "string",
              "name": "_key",
              "type": "string"
            },
            {
              "internalType": "uint256",
              "name": "_startPage",
              "type": "uint256"
            },
            {
              "internalType": "uint256",
              "name": "_endPage",
              "type": "uint256"
            }
          ],
          "name": "getData",
          "outputs": [
            {
              "internalType": "bytes",
              "name": "",
              "type": "bytes"
            }
          ],
          "stateMutability": "view",
          "type": "function"
        },
        {
          "inputs": [
            {
              "internalType": "string",
              "name": "_key",
              "type": "string"
            }
          ],
          "name": "getMaxPageNumber",
          "outputs": [
            {
              "internalType": "uint256",
              "name": "",
              "type": "uint256"
            }
          ],
          "stateMutability": "view",
          "type": "function"
        },
        {
          "inputs": [
            {
              "internalType": "string",
              "name": "_key",
              "type": "string"
            },
            {
              "internalType": "uint256",
              "name": "_startPage",
              "type": "uint256"
            },
            {
              "internalType": "uint256",
              "name": "_endPage",
              "type": "uint256"
            }
          ],
          "name": "getSizeBetweenPages",
          "outputs": [
            {
              "internalType": "uint256",
              "name": "",
              "type": "uint256"
            }
          ],
          "stateMutability": "view",
          "type": "function"
        },
        {
          "inputs": [
            {
              "internalType": "string",
              "name": "_key",
              "type": "string"
            }
          ],
          "name": "getSizeOfPages",
          "outputs": [
            {
              "internalType": "uint256",
              "name": "",
              "type": "uint256"
            }
          ],
          "stateMutability": "view",
          "type": "function"
        },
        {
          "inputs": [
            {
              "internalType": "string",
              "name": "_key",
              "type": "string"
            },
            {
              "internalType": "uint256",
              "name": "_endPage",
              "type": "uint256"
            }
          ],
          "name": "getSizeUpToPage",
          "outputs": [
            {
              "internalType": "uint256",
              "name": "",
              "type": "uint256"
            }
          ],
          "stateMutability": "view",
          "type": "function"
        },
        {
          "inputs": [
            {
              "internalType": "string",
              "name": "_key",
              "type": "string"
            },
            {
              "internalType": "uint128",
              "name": "_pageNumber",
              "type": "uint128"
            },
            {
              "internalType": "bytes",
              "name": "_b",
              "type": "bytes"
            }
          ],
          "name": "saveData",
          "outputs": [],
          "stateMutability": "nonpayable",
          "type": "function"
        },
        {
          "inputs": [
            {
              "internalType": "string",
              "name": "_key",
              "type": "string"
            },
            {
              "internalType": "uint256",
              "name": "_pageNumber",
              "type": "uint256"
            },
            {
              "internalType": "address",
              "name": "dataContract",
              "type": "address"
            },
            {
              "internalType": "uint128",
              "name": "_size",
              "type": "uint128"
            },
            {
              "internalType": "uint128",
              "name": "_offset",
              "type": "uint128"
            }
          ],
          "name": "saveDataForDeployedContract",
          "outputs": [],
          "stateMutability": "nonpayable",
          "type": "function"
        }
      ],
      "evm": {
        "bytecode": {
          "linkReferences": {},
          "object": "608060405234801561001057600080fd5b506111d4806100206000396000f3fe608060405234801561001057600080fd5b50600436106100885760003560e01c80637b5493cb1161005b5780637b5493cb14610139578063860536c214610169578063c486a53b14610199578063d431a42f146101b557610088565b806311aa4cba1461008d578063208a43d3146100bd578063545d6be9146100ed5780636af42a8c1461011d575b600080fd5b6100a760048036038101906100a29190610aef565b6101e5565b6040516100b49190610be6565b60405180910390f35b6100d760048036038101906100d29190610aef565b61036c565b6040516100e49190610c17565b60405180910390f35b61010760048036038101906101029190610c32565b610411565b6040516101149190610be6565b60405180910390f35b61013760048036038101906101329190610d77565b61044c565b005b610153600480360381019061014e9190610e02565b610662565b6040516101609190610c17565b60405180910390f35b610183600480360381019061017e9190610c32565b610706565b6040516101909190610c17565b60405180910390f35b6101b360048036038101906101ae9190610ea9565b6107a7565b005b6101cf60048036038101906101ca9190610e02565b610935565b6040516101dc9190610c17565b60405180910390f35b606060006101f485858561036c565b905060008167ffffffffffffffff8111156102125761021161098e565b5b6040519080825280601f01601f1916602001820160405280156102445781602001600182028036833780820191505090505b509050600080876040516102589190610f87565b90815260200160405180910390209050600085905060006020905060008890505b82811161035c576000846002016000838152602001908152602001600020905060008160000160009054906101000a900473ffffffffffffffffffffffffffffffffffffffff16905060008260010160009054906101000a90046fffffffffffffffffffffffffffffffff166fffffffffffffffffffffffffffffffff16905060008360010160109054906101000a90046fffffffffffffffffffffffffffffffff166fffffffffffffffffffffffffffffffff1690508181878b01853c81866103439190610fcd565b955050505050808061035490611023565b915050610279565b5083955050505050509392505050565b60008060008560405161037f9190610f87565b908152602001604051809103902090506000808590505b8481116104045782600201600082815260200190815260200160002060010160009054906101000a90046fffffffffffffffffffffffffffffffff166fffffffffffffffffffffffffffffffff16826103ef9190610fcd565b915080806103fc90611023565b915050610396565b5080925050509392505050565b6060600080846040516104249190610f87565b90815260200160405180910390209050610443848483600001546101e5565b91505092915050565b616000815110610491576040517f08c379a0000000000000000000000000000000000000000000000000000000008152600401610488906110ef565b60405180910390fd5b60006040518060400160405280600e81526020017f610000600e6000396100006000f300000000000000000000000000000000000081525090506000825160f81b9050600060088451901c60f81b905081836002815181106104f6576104f561110f565b5b60200101907effffffffffffffffffffffffffffffffffffffffffffffffffffffffffffff1916908160001a905350808360018151811061053a5761053961110f565b5b60200101907effffffffffffffffffffffffffffffffffffffffffffffffffffffffffffff1916908160001a9053508183600a8151811061057e5761057d61110f565b5b60200101907effffffffffffffffffffffffffffffffffffffffffffffffffffffffffffff1916908160001a90535080836009815181106105c2576105c161110f565b5b60200101907effffffffffffffffffffffffffffffffffffffffffffffffffffffffffffff1916908160001a9053506000838560405160200161060692919061117a565b604051602081830303815290604052905060008151602083016000f090506000811415610637573d6000803e3d6000fd5b61065888886fffffffffffffffffffffffffffffffff1683895160006107a7565b5050505050505050565b6000806000836040516106759190610f87565b908152602001604051809103902090506000805b826000015481116106fb5782600201600082815260200190815260200160002060010160009054906101000a90046fffffffffffffffffffffffffffffffff166fffffffffffffffffffffffffffffffff16826106e69190610fcd565b915080806106f390611023565b915050610689565b508092505050919050565b6000806000846040516107199190610f87565b908152602001604051809103902090506000805b84811161079b5782600201600082815260200190815260200160002060010160009054906101000a90046fffffffffffffffffffffffffffffffff166fffffffffffffffffffffffffffffffff16826107869190610fcd565b9150808061079390611023565b91505061072d565b50809250505092915050565b600080866040516107b89190610f87565b9081526020016040518091039020905084816000015410156107de578481600001819055505b60018160010160006101000a81548160ff02191690831515021790555060405180606001604052808573ffffffffffffffffffffffffffffffffffffffff168152602001846fffffffffffffffffffffffffffffffff168152602001836fffffffffffffffffffffffffffffffff1681525081600201600087815260200190815260200160002060008201518160000160006101000a81548173ffffffffffffffffffffffffffffffffffffffff021916908373ffffffffffffffffffffffffffffffffffffffff16021790555060208201518160010160006101000a8154816fffffffffffffffffffffffffffffffff02191690836fffffffffffffffffffffffffffffffff16021790555060408201518160010160106101000a8154816fffffffffffffffffffffffffffffffff02191690836fffffffffffffffffffffffffffffffff160217905550905050505050505050565b600080826040516109469190610f87565b9081526020016040518091039020600001549050919050565b6000604051905090565b600080fd5b600080fd5b600080fd5b600080fd5b6000601f19601f8301169050919050565b7f4e487b7100000000000000000000000000000000000000000000000000000000600052604160045260246000fd5b6109c68261097d565b810181811067ffffffffffffffff821117156109e5576109e461098e565b5b80604052505050565b60006109f861095f565b9050610a0482826109bd565b919050565b600067ffffffffffffffff821115610a2457610a2361098e565b5b610a2d8261097d565b9050602081019050919050565b82818337600083830152505050565b6000610a5c610a5784610a09565b6109ee565b905082815260208101848484011115610a7857610a77610978565b5b610a83848285610a3a565b509392505050565b600082601f830112610aa057610a9f610973565b5b8135610ab0848260208601610a49565b91505092915050565b6000819050919050565b610acc81610ab9565b8114610ad757600080fd5b50565b600081359050610ae981610ac3565b92915050565b600080600060608486031215610b0857610b07610969565b5b600084013567ffffffffffffffff811115610b2657610b2561096e565b5b610b3286828701610a8b565b9350506020610b4386828701610ada565b9250506040610b5486828701610ada565b9150509250925092565b600081519050919050565b600082825260208201905092915050565b60005b83811015610b98578082015181840152602081019050610b7d565b83811115610ba7576000848401525b50505050565b6000610bb882610b5e565b610bc28185610b69565b9350610bd2818560208601610b7a565b610bdb8161097d565b840191505092915050565b60006020820190508181036000830152610c008184610bad565b905092915050565b610c1181610ab9565b82525050565b6000602082019050610c2c6000830184610c08565b92915050565b60008060408385031215610c4957610c48610969565b5b600083013567ffffffffffffffff811115610c6757610c6661096e565b5b610c7385828601610a8b565b9250506020610c8485828601610ada565b9150509250929050565b60006fffffffffffffffffffffffffffffffff82169050919050565b610cb381610c8e565b8114610cbe57600080fd5b50565b600081359050610cd081610caa565b92915050565b600067ffffffffffffffff821115610cf157610cf061098e565b5b610cfa8261097d565b9050602081019050919050565b6000610d1a610d1584610cd6565b6109ee565b905082815260208101848484011115610d3657610d35610978565b5b610d41848285610a3a565b509392505050565b600082601f830112610d5e57610d5d610973565b5b8135610d6e848260208601610d07565b91505092915050565b600080600060608486031215610d9057610d8f610969565b5b600084013567ffffffffffffffff811115610dae57610dad61096e565b5b610dba86828701610a8b565b9350506020610dcb86828701610cc1565b925050604084013567ffffffffffffffff811115610dec57610deb61096e565b5b610df886828701610d49565b9150509250925092565b600060208284031215610e1857610e17610969565b5b600082013567ffffffffffffffff811115610e3657610e3561096e565b5b610e4284828501610a8b565b91505092915050565b600073ffffffffffffffffffffffffffffffffffffffff82169050919050565b6000610e7682610e4b565b9050919050565b610e8681610e6b565b8114610e9157600080fd5b50565b600081359050610ea381610e7d565b92915050565b600080600080600060a08688031215610ec557610ec4610969565b5b600086013567ffffffffffffffff811115610ee357610ee261096e565b5b610eef88828901610a8b565b9550506020610f0088828901610ada565b9450506040610f1188828901610e94565b9350506060610f2288828901610cc1565b9250506080610f3388828901610cc1565b9150509295509295909350565b600081519050919050565b600081905092915050565b6000610f6182610f40565b610f6b8185610f4b565b9350610f7b818560208601610b7a565b80840191505092915050565b6000610f938284610f56565b915081905092915050565b7f4e487b7100000000000000000000000000000000000000000000000000000000600052601160045260246000fd5b6000610fd882610ab9565b9150610fe383610ab9565b9250827fffffffffffffffffffffffffffffffffffffffffffffffffffffffffffffffff0382111561101857611017610f9e565b5b828201905092915050565b600061102e82610ab9565b91507fffffffffffffffffffffffffffffffffffffffffffffffffffffffffffffffff82141561106157611060610f9e565b5b600182019050919050565b600082825260208201905092915050565b7f53746f726167653a2045786365656465642032342c353736206279746573206d60008201527f617820636f6e74726163742073697a6500000000000000000000000000000000602082015250565b60006110d960308361106c565b91506110e48261107d565b604082019050919050565b60006020820190508181036000830152611108816110cc565b9050919050565b7f4e487b7100000000000000000000000000000000000000000000000000000000600052603260045260246000fd5b600081905092915050565b600061115482610b5e565b61115e818561113e565b935061116e818560208601610b7a565b80840191505092915050565b60006111868285611149565b91506111928284611149565b9150819050939250505056fea26469706673582212200f9ca3791047d26ac982af4afcaf32f024d2759d01ecd267d5da7e2b35eda30864736f6c634300080c0033",
          "opcodes": "PUSH1 0x80 PUSH1 0x40 MSTORE CALLVALUE DUP1 ISZERO PUSH2 0x10 JUMPI PUSH1 0x0 DUP1 REVERT JUMPDEST POP PUSH2 0x11D4 DUP1 PUSH2 0x20 PUSH1 0x0 CODECOPY PUSH1 0x0 RETURN INVALID PUSH1 0x80 PUSH1 0x40 MSTORE CALLVALUE DUP1 ISZERO PUSH2 0x10 JUMPI PUSH1 0x0 DUP1 REVERT JUMPDEST POP PUSH1 0x4 CALLDATASIZE LT PUSH2 0x88 JUMPI PUSH1 0x0 CALLDATALOAD PUSH1 0xE0 SHR DUP1 PUSH4 0x7B5493CB GT PUSH2 0x5B JUMPI DUP1 PUSH4 0x7B5493CB EQ PUSH2 0x139 JUMPI DUP1 PUSH4 0x860536C2 EQ PUSH2 0x169 JUMPI DUP1 PUSH4 0xC486A53B EQ PUSH2 0x199 JUMPI DUP1 PUSH4 0xD431A42F EQ PUSH2 0x1B5 JUMPI PUSH2 0x88 JUMP JUMPDEST DUP1 PUSH4 0x11AA4CBA EQ PUSH2 0x8D JUMPI DUP1 PUSH4 0x208A43D3 EQ PUSH2 0xBD JUMPI DUP1 PUSH4 0x545D6BE9 EQ PUSH2 0xED JUMPI DUP1 PUSH4 0x6AF42A8C EQ PUSH2 0x11D JUMPI JUMPDEST PUSH1 0x0 DUP1 REVERT JUMPDEST PUSH2 0xA7 PUSH1 0x4 DUP1 CALLDATASIZE SUB DUP2 ADD SWAP1 PUSH2 0xA2 SWAP2 SWAP1 PUSH2 0xAEF JUMP JUMPDEST PUSH2 0x1E5 JUMP JUMPDEST PUSH1 0x40 MLOAD PUSH2 0xB4 SWAP2 SWAP1 PUSH2 0xBE6 JUMP JUMPDEST PUSH1 0x40 MLOAD DUP1 SWAP2 SUB SWAP1 RETURN JUMPDEST PUSH2 0xD7 PUSH1 0x4 DUP1 CALLDATASIZE SUB DUP2 ADD SWAP1 PUSH2 0xD2 SWAP2 SWAP1 PUSH2 0xAEF JUMP JUMPDEST PUSH2 0x36C JUMP JUMPDEST PUSH1 0x40 MLOAD PUSH2 0xE4 SWAP2 SWAP1 PUSH2 0xC17 JUMP JUMPDEST PUSH1 0x40 MLOAD DUP1 SWAP2 SUB SWAP1 RETURN JUMPDEST PUSH2 0x107 PUSH1 0x4 DUP1 CALLDATASIZE SUB DUP2 ADD SWAP1 PUSH2 0x102 SWAP2 SWAP1 PUSH2 0xC32 JUMP JUMPDEST PUSH2 0x411 JUMP JUMPDEST PUSH1 0x40 MLOAD PUSH2 0x114 SWAP2 SWAP1 PUSH2 0xBE6 JUMP JUMPDEST PUSH1 0x40 MLOAD DUP1 SWAP2 SUB SWAP1 RETURN JUMPDEST PUSH2 0x137 PUSH1 0x4 DUP1 CALLDATASIZE SUB DUP2 ADD SWAP1 PUSH2 0x132 SWAP2 SWAP1 PUSH2 0xD77 JUMP JUMPDEST PUSH2 0x44C JUMP JUMPDEST STOP JUMPDEST PUSH2 0x153 PUSH1 0x4 DUP1 CALLDATASIZE SUB DUP2 ADD SWAP1 PUSH2 0x14E SWAP2 SWAP1 PUSH2 0xE02 JUMP JUMPDEST PUSH2 0x662 JUMP JUMPDEST PUSH1 0x40 MLOAD PUSH2 0x160 SWAP2 SWAP1 PUSH2 0xC17 JUMP JUMPDEST PUSH1 0x40 MLOAD DUP1 SWAP2 SUB SWAP1 RETURN JUMPDEST PUSH2 0x183 PUSH1 0x4 DUP1 CALLDATASIZE SUB DUP2 ADD SWAP1 PUSH2 0x17E SWAP2 SWAP1 PUSH2 0xC32 JUMP JUMPDEST PUSH2 0x706 JUMP JUMPDEST PUSH1 0x40 MLOAD PUSH2 0x190 SWAP2 SWAP1 PUSH2 0xC17 JUMP JUMPDEST PUSH1 0x40 MLOAD DUP1 SWAP2 SUB SWAP1 RETURN JUMPDEST PUSH2 0x1B3 PUSH1 0x4 DUP1 CALLDATASIZE SUB DUP2 ADD SWAP1 PUSH2 0x1AE SWAP2 SWAP1 PUSH2 0xEA9 JUMP JUMPDEST PUSH2 0x7A7 JUMP JUMPDEST STOP JUMPDEST PUSH2 0x1CF PUSH1 0x4 DUP1 CALLDATASIZE SUB DUP2 ADD SWAP1 PUSH2 0x1CA SWAP2 SWAP1 PUSH2 0xE02 JUMP JUMPDEST PUSH2 0x935 JUMP JUMPDEST PUSH1 0x40 MLOAD PUSH2 0x1DC SWAP2 SWAP1 PUSH2 0xC17 JUMP JUMPDEST PUSH1 0x40 MLOAD DUP1 SWAP2 SUB SWAP1 RETURN JUMPDEST PUSH1 0x60 PUSH1 0x0 PUSH2 0x1F4 DUP6 DUP6 DUP6 PUSH2 0x36C JUMP JUMPDEST SWAP1 POP PUSH1 0x0 DUP2 PUSH8 0xFFFFFFFFFFFFFFFF DUP2 GT ISZERO PUSH2 0x212 JUMPI PUSH2 0x211 PUSH2 0x98E JUMP JUMPDEST JUMPDEST PUSH1 0x40 MLOAD SWAP1 DUP1 DUP3 MSTORE DUP1 PUSH1 0x1F ADD PUSH1 0x1F NOT AND PUSH1 0x20 ADD DUP3 ADD PUSH1 0x40 MSTORE DUP1 ISZERO PUSH2 0x244 JUMPI DUP2 PUSH1 0x20 ADD PUSH1 0x1 DUP3 MUL DUP1 CALLDATASIZE DUP4 CALLDATACOPY DUP1 DUP3 ADD SWAP2 POP POP SWAP1 POP JUMPDEST POP SWAP1 POP PUSH1 0x0 DUP1 DUP8 PUSH1 0x40 MLOAD PUSH2 0x258 SWAP2 SWAP1 PUSH2 0xF87 JUMP JUMPDEST SWAP1 DUP2 MSTORE PUSH1 0x20 ADD PUSH1 0x40 MLOAD DUP1 SWAP2 SUB SWAP1 KECCAK256 SWAP1 POP PUSH1 0x0 DUP6 SWAP1 POP PUSH1 0x0 PUSH1 0x20 SWAP1 POP PUSH1 0x0 DUP9 SWAP1 POP JUMPDEST DUP3 DUP2 GT PUSH2 0x35C JUMPI PUSH1 0x0 DUP5 PUSH1 0x2 ADD PUSH1 0x0 DUP4 DUP2 MSTORE PUSH1 0x20 ADD SWAP1 DUP2 MSTORE PUSH1 0x20 ADD PUSH1 0x0 KECCAK256 SWAP1 POP PUSH1 0x0 DUP2 PUSH1 0x0 ADD PUSH1 0x0 SWAP1 SLOAD SWAP1 PUSH2 0x100 EXP SWAP1 DIV PUSH20 0xFFFFFFFFFFFFFFFFFFFFFFFFFFFFFFFFFFFFFFFF AND SWAP1 POP PUSH1 0x0 DUP3 PUSH1 0x1 ADD PUSH1 0x0 SWAP1 SLOAD SWAP1 PUSH2 0x100 EXP SWAP1 DIV PUSH16 0xFFFFFFFFFFFFFFFFFFFFFFFFFFFFFFFF AND PUSH16 0xFFFFFFFFFFFFFFFFFFFFFFFFFFFFFFFF AND SWAP1 POP PUSH1 0x0 DUP4 PUSH1 0x1 ADD PUSH1 0x10 SWAP1 SLOAD SWAP1 PUSH2 0x100 EXP SWAP1 DIV PUSH16 0xFFFFFFFFFFFFFFFFFFFFFFFFFFFFFFFF AND PUSH16 0xFFFFFFFFFFFFFFFFFFFFFFFFFFFFFFFF AND SWAP1 POP DUP2 DUP2 DUP8 DUP12 ADD DUP6 EXTCODECOPY DUP2 DUP7 PUSH2 0x343 SWAP2 SWAP1 PUSH2 0xFCD JUMP JUMPDEST SWAP6 POP POP POP POP POP DUP1 DUP1 PUSH2 0x354 SWAP1 PUSH2 0x1023 JUMP JUMPDEST SWAP2 POP POP PUSH2 0x279 JUMP JUMPDEST POP DUP4 SWAP6 POP POP POP POP POP POP SWAP4 SWAP3 POP POP POP JUMP JUMPDEST PUSH1 0x0 DUP1 PUSH1 0x0 DUP6 PUSH1 0x40 MLOAD PUSH2 0x37F SWAP2 SWAP1 PUSH2 0xF87 JUMP JUMPDEST SWAP1 DUP2 MSTORE PUSH1 0x20 ADD PUSH1 0x40 MLOAD DUP1 SWAP2 SUB SWAP1 KECCAK256 SWAP1 POP PUSH1 0x0 DUP1 DUP6 SWAP1 POP JUMPDEST DUP5 DUP2 GT PUSH2 0x404 JUMPI DUP3 PUSH1 0x2 ADD PUSH1 0x0 DUP3 DUP2 MSTORE PUSH1 0x20 ADD SWAP1 DUP2 MSTORE PUSH1 0x20 ADD PUSH1 0x0 KECCAK256 PUSH1 0x1 ADD PUSH1 0x0 SWAP1 SLOAD SWAP1 PUSH2 0x100 EXP SWAP1 DIV PUSH16 0xFFFFFFFFFFFFFFFFFFFFFFFFFFFFFFFF AND PUSH16 0xFFFFFFFFFFFFFFFFFFFFFFFFFFFFFFFF AND DUP3 PUSH2 0x3EF SWAP2 SWAP1 PUSH2 0xFCD JUMP JUMPDEST SWAP2 POP DUP1 DUP1 PUSH2 0x3FC SWAP1 PUSH2 0x1023 JUMP JUMPDEST SWAP2 POP POP PUSH2 0x396 JUMP JUMPDEST POP DUP1 SWAP3 POP POP POP SWAP4 SWAP3 POP POP POP JUMP JUMPDEST PUSH1 0x60 PUSH1 0x0 DUP1 DUP5 PUSH1 0x40 MLOAD PUSH2 0x424 SWAP2 SWAP1 PUSH2 0xF87 JUMP JUMPDEST SWAP1 DUP2 MSTORE PUSH1 0x20 ADD PUSH1 0x40 MLOAD DUP1 SWAP2 SUB SWAP1 KECCAK256 SWAP1 POP PUSH2 0x443 DUP5 DUP5 DUP4 PUSH1 0x0 ADD SLOAD PUSH2 0x1E5 JUMP JUMPDEST SWAP2 POP POP SWAP3 SWAP2 POP POP JUMP JUMPDEST PUSH2 0x6000 DUP2 MLOAD LT PUSH2 0x491 JUMPI PUSH1 0x40 MLOAD PUSH32 0x8C379A000000000000000000000000000000000000000000000000000000000 DUP2 MSTORE PUSH1 0x4 ADD PUSH2 0x488 SWAP1 PUSH2 0x10EF JUMP JUMPDEST PUSH1 0x40 MLOAD DUP1 SWAP2 SUB SWAP1 REVERT JUMPDEST PUSH1 0x0 PUSH1 0x40 MLOAD DUP1 PUSH1 0x40 ADD PUSH1 0x40 MSTORE DUP1 PUSH1 0xE DUP2 MSTORE PUSH1 0x20 ADD PUSH32 0x610000600E6000396100006000F3000000000000000000000000000000000000 DUP2 MSTORE POP SWAP1 POP PUSH1 0x0 DUP3 MLOAD PUSH1 0xF8 SHL SWAP1 POP PUSH1 0x0 PUSH1 0x8 DUP5 MLOAD SWAP1 SHR PUSH1 0xF8 SHL SWAP1 POP DUP2 DUP4 PUSH1 0x2 DUP2 MLOAD DUP2 LT PUSH2 0x4F6 JUMPI PUSH2 0x4F5 PUSH2 0x110F JUMP JUMPDEST JUMPDEST PUSH1 0x20 ADD ADD SWAP1 PUSH31 0xFFFFFFFFFFFFFFFFFFFFFFFFFFFFFFFFFFFFFFFFFFFFFFFFFFFFFFFFFFFFFF NOT AND SWAP1 DUP2 PUSH1 0x0 BYTE SWAP1 MSTORE8 POP DUP1 DUP4 PUSH1 0x1 DUP2 MLOAD DUP2 LT PUSH2 0x53A JUMPI PUSH2 0x539 PUSH2 0x110F JUMP JUMPDEST JUMPDEST PUSH1 0x20 ADD ADD SWAP1 PUSH31 0xFFFFFFFFFFFFFFFFFFFFFFFFFFFFFFFFFFFFFFFFFFFFFFFFFFFFFFFFFFFFFF NOT AND SWAP1 DUP2 PUSH1 0x0 BYTE SWAP1 MSTORE8 POP DUP2 DUP4 PUSH1 0xA DUP2 MLOAD DUP2 LT PUSH2 0x57E JUMPI PUSH2 0x57D PUSH2 0x110F JUMP JUMPDEST JUMPDEST PUSH1 0x20 ADD ADD SWAP1 PUSH31 0xFFFFFFFFFFFFFFFFFFFFFFFFFFFFFFFFFFFFFFFFFFFFFFFFFFFFFFFFFFFFFF NOT AND SWAP1 DUP2 PUSH1 0x0 BYTE SWAP1 MSTORE8 POP DUP1 DUP4 PUSH1 0x9 DUP2 MLOAD DUP2 LT PUSH2 0x5C2 JUMPI PUSH2 0x5C1 PUSH2 0x110F JUMP JUMPDEST JUMPDEST PUSH1 0x20 ADD ADD SWAP1 PUSH31 0xFFFFFFFFFFFFFFFFFFFFFFFFFFFFFFFFFFFFFFFFFFFFFFFFFFFFFFFFFFFFFF NOT AND SWAP1 DUP2 PUSH1 0x0 BYTE SWAP1 MSTORE8 POP PUSH1 0x0 DUP4 DUP6 PUSH1 0x40 MLOAD PUSH1 0x20 ADD PUSH2 0x606 SWAP3 SWAP2 SWAP1 PUSH2 0x117A JUMP JUMPDEST PUSH1 0x40 MLOAD PUSH1 0x20 DUP2 DUP4 SUB SUB DUP2 MSTORE SWAP1 PUSH1 0x40 MSTORE SWAP1 POP PUSH1 0x0 DUP2 MLOAD PUSH1 0x20 DUP4 ADD PUSH1 0x0 CREATE SWAP1 POP PUSH1 0x0 DUP2 EQ ISZERO PUSH2 0x637 JUMPI RETURNDATASIZE PUSH1 0x0 DUP1 RETURNDATACOPY RETURNDATASIZE PUSH1 0x0 REVERT JUMPDEST PUSH2 0x658 DUP9 DUP9 PUSH16 0xFFFFFFFFFFFFFFFFFFFFFFFFFFFFFFFF AND DUP4 DUP10 MLOAD PUSH1 0x0 PUSH2 0x7A7 JUMP JUMPDEST POP POP POP POP POP POP POP POP JUMP JUMPDEST PUSH1 0x0 DUP1 PUSH1 0x0 DUP4 PUSH1 0x40 MLOAD PUSH2 0x675 SWAP2 SWAP1 PUSH2 0xF87 JUMP JUMPDEST SWAP1 DUP2 MSTORE PUSH1 0x20 ADD PUSH1 0x40 MLOAD DUP1 SWAP2 SUB SWAP1 KECCAK256 SWAP1 POP PUSH1 0x0 DUP1 JUMPDEST DUP3 PUSH1 0x0 ADD SLOAD DUP2 GT PUSH2 0x6FB JUMPI DUP3 PUSH1 0x2 ADD PUSH1 0x0 DUP3 DUP2 MSTORE PUSH1 0x20 ADD SWAP1 DUP2 MSTORE PUSH1 0x20 ADD PUSH1 0x0 KECCAK256 PUSH1 0x1 ADD PUSH1 0x0 SWAP1 SLOAD SWAP1 PUSH2 0x100 EXP SWAP1 DIV PUSH16 0xFFFFFFFFFFFFFFFFFFFFFFFFFFFFFFFF AND PUSH16 0xFFFFFFFFFFFFFFFFFFFFFFFFFFFFFFFF AND DUP3 PUSH2 0x6E6 SWAP2 SWAP1 PUSH2 0xFCD JUMP JUMPDEST SWAP2 POP DUP1 DUP1 PUSH2 0x6F3 SWAP1 PUSH2 0x1023 JUMP JUMPDEST SWAP2 POP POP PUSH2 0x689 JUMP JUMPDEST POP DUP1 SWAP3 POP POP POP SWAP2 SWAP1 POP JUMP JUMPDEST PUSH1 0x0 DUP1 PUSH1 0x0 DUP5 PUSH1 0x40 MLOAD PUSH2 0x719 SWAP2 SWAP1 PUSH2 0xF87 JUMP JUMPDEST SWAP1 DUP2 MSTORE PUSH1 0x20 ADD PUSH1 0x40 MLOAD DUP1 SWAP2 SUB SWAP1 KECCAK256 SWAP1 POP PUSH1 0x0 DUP1 JUMPDEST DUP5 DUP2 GT PUSH2 0x79B JUMPI DUP3 PUSH1 0x2 ADD PUSH1 0x0 DUP3 DUP2 MSTORE PUSH1 0x20 ADD SWAP1 DUP2 MSTORE PUSH1 0x20 ADD PUSH1 0x0 KECCAK256 PUSH1 0x1 ADD PUSH1 0x0 SWAP1 SLOAD SWAP1 PUSH2 0x100 EXP SWAP1 DIV PUSH16 0xFFFFFFFFFFFFFFFFFFFFFFFFFFFFFFFF AND PUSH16 0xFFFFFFFFFFFFFFFFFFFFFFFFFFFFFFFF AND DUP3 PUSH2 0x786 SWAP2 SWAP1 PUSH2 0xFCD JUMP JUMPDEST SWAP2 POP DUP1 DUP1 PUSH2 0x793 SWAP1 PUSH2 0x1023 JUMP JUMPDEST SWAP2 POP POP PUSH2 0x72D JUMP JUMPDEST POP DUP1 SWAP3 POP POP POP SWAP3 SWAP2 POP POP JUMP JUMPDEST PUSH1 0x0 DUP1 DUP7 PUSH1 0x40 MLOAD PUSH2 0x7B8 SWAP2 SWAP1 PUSH2 0xF87 JUMP JUMPDEST SWAP1 DUP2 MSTORE PUSH1 0x20 ADD PUSH1 0x40 MLOAD DUP1 SWAP2 SUB SWAP1 KECCAK256 SWAP1 POP DUP5 DUP2 PUSH1 0x0 ADD SLOAD LT ISZERO PUSH2 0x7DE JUMPI DUP5 DUP2 PUSH1 0x0 ADD DUP2 SWAP1 SSTORE POP JUMPDEST PUSH1 0x1 DUP2 PUSH1 0x1 ADD PUSH1 0x0 PUSH2 0x100 EXP DUP2 SLOAD DUP2 PUSH1 0xFF MUL NOT AND SWAP1 DUP4 ISZERO ISZERO MUL OR SWAP1 SSTORE POP PUSH1 0x40 MLOAD DUP1 PUSH1 0x60 ADD PUSH1 0x40 MSTORE DUP1 DUP6 PUSH20 0xFFFFFFFFFFFFFFFFFFFFFFFFFFFFFFFFFFFFFFFF AND DUP2 MSTORE PUSH1 0x20 ADD DUP5 PUSH16 0xFFFFFFFFFFFFFFFFFFFFFFFFFFFFFFFF AND DUP2 MSTORE PUSH1 0x20 ADD DUP4 PUSH16 0xFFFFFFFFFFFFFFFFFFFFFFFFFFFFFFFF AND DUP2 MSTORE POP DUP2 PUSH1 0x2 ADD PUSH1 0x0 DUP8 DUP2 MSTORE PUSH1 0x20 ADD SWAP1 DUP2 MSTORE PUSH1 0x20 ADD PUSH1 0x0 KECCAK256 PUSH1 0x0 DUP3 ADD MLOAD DUP2 PUSH1 0x0 ADD PUSH1 0x0 PUSH2 0x100 EXP DUP2 SLOAD DUP2 PUSH20 0xFFFFFFFFFFFFFFFFFFFFFFFFFFFFFFFFFFFFFFFF MUL NOT AND SWAP1 DUP4 PUSH20 0xFFFFFFFFFFFFFFFFFFFFFFFFFFFFFFFFFFFFFFFF AND MUL OR SWAP1 SSTORE POP PUSH1 0x20 DUP3 ADD MLOAD DUP2 PUSH1 0x1 ADD PUSH1 0x0 PUSH2 0x100 EXP DUP2 SLOAD DUP2 PUSH16 0xFFFFFFFFFFFFFFFFFFFFFFFFFFFFFFFF MUL NOT AND SWAP1 DUP4 PUSH16 0xFFFFFFFFFFFFFFFFFFFFFFFFFFFFFFFF AND MUL OR SWAP1 SSTORE POP PUSH1 0x40 DUP3 ADD MLOAD DUP2 PUSH1 0x1 ADD PUSH1 0x10 PUSH2 0x100 EXP DUP2 SLOAD DUP2 PUSH16 0xFFFFFFFFFFFFFFFFFFFFFFFFFFFFFFFF MUL NOT AND SWAP1 DUP4 PUSH16 0xFFFFFFFFFFFFFFFFFFFFFFFFFFFFFFFF AND MUL OR SWAP1 SSTORE POP SWAP1 POP POP POP POP POP POP POP POP JUMP JUMPDEST PUSH1 0x0 DUP1 DUP3 PUSH1 0x40 MLOAD PUSH2 0x946 SWAP2 SWAP1 PUSH2 0xF87 JUMP JUMPDEST SWAP1 DUP2 MSTORE PUSH1 0x20 ADD PUSH1 0x40 MLOAD DUP1 SWAP2 SUB SWAP1 KECCAK256 PUSH1 0x0 ADD SLOAD SWAP1 POP SWAP2 SWAP1 POP JUMP JUMPDEST PUSH1 0x0 PUSH1 0x40 MLOAD SWAP1 POP SWAP1 JUMP JUMPDEST PUSH1 0x0 DUP1 REVERT JUMPDEST PUSH1 0x0 DUP1 REVERT JUMPDEST PUSH1 0x0 DUP1 REVERT JUMPDEST PUSH1 0x0 DUP1 REVERT JUMPDEST PUSH1 0x0 PUSH1 0x1F NOT PUSH1 0x1F DUP4 ADD AND SWAP1 POP SWAP2 SWAP1 POP JUMP JUMPDEST PUSH32 0x4E487B7100000000000000000000000000000000000000000000000000000000 PUSH1 0x0 MSTORE PUSH1 0x41 PUSH1 0x4 MSTORE PUSH1 0x24 PUSH1 0x0 REVERT JUMPDEST PUSH2 0x9C6 DUP3 PUSH2 0x97D JUMP JUMPDEST DUP2 ADD DUP2 DUP2 LT PUSH8 0xFFFFFFFFFFFFFFFF DUP3 GT OR ISZERO PUSH2 0x9E5 JUMPI PUSH2 0x9E4 PUSH2 0x98E JUMP JUMPDEST JUMPDEST DUP1 PUSH1 0x40 MSTORE POP POP POP JUMP JUMPDEST PUSH1 0x0 PUSH2 0x9F8 PUSH2 0x95F JUMP JUMPDEST SWAP1 POP PUSH2 0xA04 DUP3 DUP3 PUSH2 0x9BD JUMP JUMPDEST SWAP2 SWAP1 POP JUMP JUMPDEST PUSH1 0x0 PUSH8 0xFFFFFFFFFFFFFFFF DUP3 GT ISZERO PUSH2 0xA24 JUMPI PUSH2 0xA23 PUSH2 0x98E JUMP JUMPDEST JUMPDEST PUSH2 0xA2D DUP3 PUSH2 0x97D JUMP JUMPDEST SWAP1 POP PUSH1 0x20 DUP2 ADD SWAP1 POP SWAP2 SWAP1 POP JUMP JUMPDEST DUP3 DUP2 DUP4 CALLDATACOPY PUSH1 0x0 DUP4 DUP4 ADD MSTORE POP POP POP JUMP JUMPDEST PUSH1 0x0 PUSH2 0xA5C PUSH2 0xA57 DUP5 PUSH2 0xA09 JUMP JUMPDEST PUSH2 0x9EE JUMP JUMPDEST SWAP1 POP DUP3 DUP2 MSTORE PUSH1 0x20 DUP2 ADD DUP5 DUP5 DUP5 ADD GT ISZERO PUSH2 0xA78 JUMPI PUSH2 0xA77 PUSH2 0x978 JUMP JUMPDEST JUMPDEST PUSH2 0xA83 DUP5 DUP3 DUP6 PUSH2 0xA3A JUMP JUMPDEST POP SWAP4 SWAP3 POP POP POP JUMP JUMPDEST PUSH1 0x0 DUP3 PUSH1 0x1F DUP4 ADD SLT PUSH2 0xAA0 JUMPI PUSH2 0xA9F PUSH2 0x973 JUMP JUMPDEST JUMPDEST DUP2 CALLDATALOAD PUSH2 0xAB0 DUP5 DUP3 PUSH1 0x20 DUP7 ADD PUSH2 0xA49 JUMP JUMPDEST SWAP2 POP POP SWAP3 SWAP2 POP POP JUMP JUMPDEST PUSH1 0x0 DUP2 SWAP1 POP SWAP2 SWAP1 POP JUMP JUMPDEST PUSH2 0xACC DUP2 PUSH2 0xAB9 JUMP JUMPDEST DUP2 EQ PUSH2 0xAD7 JUMPI PUSH1 0x0 DUP1 REVERT JUMPDEST POP JUMP JUMPDEST PUSH1 0x0 DUP2 CALLDATALOAD SWAP1 POP PUSH2 0xAE9 DUP2 PUSH2 0xAC3 JUMP JUMPDEST SWAP3 SWAP2 POP POP JUMP JUMPDEST PUSH1 0x0 DUP1 PUSH1 0x0 PUSH1 0x60 DUP5 DUP7 SUB SLT ISZERO PUSH2 0xB08 JUMPI PUSH2 0xB07 PUSH2 0x969 JUMP JUMPDEST JUMPDEST PUSH1 0x0 DUP5 ADD CALLDATALOAD PUSH8 0xFFFFFFFFFFFFFFFF DUP2 GT ISZERO PUSH2 0xB26 JUMPI PUSH2 0xB25 PUSH2 0x96E JUMP JUMPDEST JUMPDEST PUSH2 0xB32 DUP7 DUP3 DUP8 ADD PUSH2 0xA8B JUMP JUMPDEST SWAP4 POP POP PUSH1 0x20 PUSH2 0xB43 DUP7 DUP3 DUP8 ADD PUSH2 0xADA JUMP JUMPDEST SWAP3 POP POP PUSH1 0x40 PUSH2 0xB54 DUP7 DUP3 DUP8 ADD PUSH2 0xADA JUMP JUMPDEST SWAP2 POP POP SWAP3 POP SWAP3 POP SWAP3 JUMP JUMPDEST PUSH1 0x0 DUP2 MLOAD SWAP1 POP SWAP2 SWAP1 POP JUMP JUMPDEST PUSH1 0x0 DUP3 DUP3 MSTORE PUSH1 0x20 DUP3 ADD SWAP1 POP SWAP3 SWAP2 POP POP JUMP JUMPDEST PUSH1 0x0 JUMPDEST DUP4 DUP2 LT ISZERO PUSH2 0xB98 JUMPI DUP1 DUP3 ADD MLOAD DUP2 DUP5 ADD MSTORE PUSH1 0x20 DUP2 ADD SWAP1 POP PUSH2 0xB7D JUMP JUMPDEST DUP4 DUP2 GT ISZERO PUSH2 0xBA7 JUMPI PUSH1 0x0 DUP5 DUP5 ADD MSTORE JUMPDEST POP POP POP POP JUMP JUMPDEST PUSH1 0x0 PUSH2 0xBB8 DUP3 PUSH2 0xB5E JUMP JUMPDEST PUSH2 0xBC2 DUP2 DUP6 PUSH2 0xB69 JUMP JUMPDEST SWAP4 POP PUSH2 0xBD2 DUP2 DUP6 PUSH1 0x20 DUP7 ADD PUSH2 0xB7A JUMP JUMPDEST PUSH2 0xBDB DUP2 PUSH2 0x97D JUMP JUMPDEST DUP5 ADD SWAP2 POP POP SWAP3 SWAP2 POP POP JUMP JUMPDEST PUSH1 0x0 PUSH1 0x20 DUP3 ADD SWAP1 POP DUP2 DUP2 SUB PUSH1 0x0 DUP4 ADD MSTORE PUSH2 0xC00 DUP2 DUP5 PUSH2 0xBAD JUMP JUMPDEST SWAP1 POP SWAP3 SWAP2 POP POP JUMP JUMPDEST PUSH2 0xC11 DUP2 PUSH2 0xAB9 JUMP JUMPDEST DUP3 MSTORE POP POP JUMP JUMPDEST PUSH1 0x0 PUSH1 0x20 DUP3 ADD SWAP1 POP PUSH2 0xC2C PUSH1 0x0 DUP4 ADD DUP5 PUSH2 0xC08 JUMP JUMPDEST SWAP3 SWAP2 POP POP JUMP JUMPDEST PUSH1 0x0 DUP1 PUSH1 0x40 DUP4 DUP6 SUB SLT ISZERO PUSH2 0xC49 JUMPI PUSH2 0xC48 PUSH2 0x969 JUMP JUMPDEST JUMPDEST PUSH1 0x0 DUP4 ADD CALLDATALOAD PUSH8 0xFFFFFFFFFFFFFFFF DUP2 GT ISZERO PUSH2 0xC67 JUMPI PUSH2 0xC66 PUSH2 0x96E JUMP JUMPDEST JUMPDEST PUSH2 0xC73 DUP6 DUP3 DUP7 ADD PUSH2 0xA8B JUMP JUMPDEST SWAP3 POP POP PUSH1 0x20 PUSH2 0xC84 DUP6 DUP3 DUP7 ADD PUSH2 0xADA JUMP JUMPDEST SWAP2 POP POP SWAP3 POP SWAP3 SWAP1 POP JUMP JUMPDEST PUSH1 0x0 PUSH16 0xFFFFFFFFFFFFFFFFFFFFFFFFFFFFFFFF DUP3 AND SWAP1 POP SWAP2 SWAP1 POP JUMP JUMPDEST PUSH2 0xCB3 DUP2 PUSH2 0xC8E JUMP JUMPDEST DUP2 EQ PUSH2 0xCBE JUMPI PUSH1 0x0 DUP1 REVERT JUMPDEST POP JUMP JUMPDEST PUSH1 0x0 DUP2 CALLDATALOAD SWAP1 POP PUSH2 0xCD0 DUP2 PUSH2 0xCAA JUMP JUMPDEST SWAP3 SWAP2 POP POP JUMP JUMPDEST PUSH1 0x0 PUSH8 0xFFFFFFFFFFFFFFFF DUP3 GT ISZERO PUSH2 0xCF1 JUMPI PUSH2 0xCF0 PUSH2 0x98E JUMP JUMPDEST JUMPDEST PUSH2 0xCFA DUP3 PUSH2 0x97D JUMP JUMPDEST SWAP1 POP PUSH1 0x20 DUP2 ADD SWAP1 POP SWAP2 SWAP1 POP JUMP JUMPDEST PUSH1 0x0 PUSH2 0xD1A PUSH2 0xD15 DUP5 PUSH2 0xCD6 JUMP JUMPDEST PUSH2 0x9EE JUMP JUMPDEST SWAP1 POP DUP3 DUP2 MSTORE PUSH1 0x20 DUP2 ADD DUP5 DUP5 DUP5 ADD GT ISZERO PUSH2 0xD36 JUMPI PUSH2 0xD35 PUSH2 0x978 JUMP JUMPDEST JUMPDEST PUSH2 0xD41 DUP5 DUP3 DUP6 PUSH2 0xA3A JUMP JUMPDEST POP SWAP4 SWAP3 POP POP POP JUMP JUMPDEST PUSH1 0x0 DUP3 PUSH1 0x1F DUP4 ADD SLT PUSH2 0xD5E JUMPI PUSH2 0xD5D PUSH2 0x973 JUMP JUMPDEST JUMPDEST DUP2 CALLDATALOAD PUSH2 0xD6E DUP5 DUP3 PUSH1 0x20 DUP7 ADD PUSH2 0xD07 JUMP JUMPDEST SWAP2 POP POP SWAP3 SWAP2 POP POP JUMP JUMPDEST PUSH1 0x0 DUP1 PUSH1 0x0 PUSH1 0x60 DUP5 DUP7 SUB SLT ISZERO PUSH2 0xD90 JUMPI PUSH2 0xD8F PUSH2 0x969 JUMP JUMPDEST JUMPDEST PUSH1 0x0 DUP5 ADD CALLDATALOAD PUSH8 0xFFFFFFFFFFFFFFFF DUP2 GT ISZERO PUSH2 0xDAE JUMPI PUSH2 0xDAD PUSH2 0x96E JUMP JUMPDEST JUMPDEST PUSH2 0xDBA DUP7 DUP3 DUP8 ADD PUSH2 0xA8B JUMP JUMPDEST SWAP4 POP POP PUSH1 0x20 PUSH2 0xDCB DUP7 DUP3 DUP8 ADD PUSH2 0xCC1 JUMP JUMPDEST SWAP3 POP POP PUSH1 0x40 DUP5 ADD CALLDATALOAD PUSH8 0xFFFFFFFFFFFFFFFF DUP2 GT ISZERO PUSH2 0xDEC JUMPI PUSH2 0xDEB PUSH2 0x96E JUMP JUMPDEST JUMPDEST PUSH2 0xDF8 DUP7 DUP3 DUP8 ADD PUSH2 0xD49 JUMP JUMPDEST SWAP2 POP POP SWAP3 POP SWAP3 POP SWAP3 JUMP JUMPDEST PUSH1 0x0 PUSH1 0x20 DUP3 DUP5 SUB SLT ISZERO PUSH2 0xE18 JUMPI PUSH2 0xE17 PUSH2 0x969 JUMP JUMPDEST JUMPDEST PUSH1 0x0 DUP3 ADD CALLDATALOAD PUSH8 0xFFFFFFFFFFFFFFFF DUP2 GT ISZERO PUSH2 0xE36 JUMPI PUSH2 0xE35 PUSH2 0x96E JUMP JUMPDEST JUMPDEST PUSH2 0xE42 DUP5 DUP3 DUP6 ADD PUSH2 0xA8B JUMP JUMPDEST SWAP2 POP POP SWAP3 SWAP2 POP POP JUMP JUMPDEST PUSH1 0x0 PUSH20 0xFFFFFFFFFFFFFFFFFFFFFFFFFFFFFFFFFFFFFFFF DUP3 AND SWAP1 POP SWAP2 SWAP1 POP JUMP JUMPDEST PUSH1 0x0 PUSH2 0xE76 DUP3 PUSH2 0xE4B JUMP JUMPDEST SWAP1 POP SWAP2 SWAP1 POP JUMP JUMPDEST PUSH2 0xE86 DUP2 PUSH2 0xE6B JUMP JUMPDEST DUP2 EQ PUSH2 0xE91 JUMPI PUSH1 0x0 DUP1 REVERT JUMPDEST POP JUMP JUMPDEST PUSH1 0x0 DUP2 CALLDATALOAD SWAP1 POP PUSH2 0xEA3 DUP2 PUSH2 0xE7D JUMP JUMPDEST SWAP3 SWAP2 POP POP JUMP JUMPDEST PUSH1 0x0 DUP1 PUSH1 0x0 DUP1 PUSH1 0x0 PUSH1 0xA0 DUP7 DUP9 SUB SLT ISZERO PUSH2 0xEC5 JUMPI PUSH2 0xEC4 PUSH2 0x969 JUMP JUMPDEST JUMPDEST PUSH1 0x0 DUP7 ADD CALLDATALOAD PUSH8 0xFFFFFFFFFFFFFFFF DUP2 GT ISZERO PUSH2 0xEE3 JUMPI PUSH2 0xEE2 PUSH2 0x96E JUMP JUMPDEST JUMPDEST PUSH2 0xEEF DUP9 DUP3 DUP10 ADD PUSH2 0xA8B JUMP JUMPDEST SWAP6 POP POP PUSH1 0x20 PUSH2 0xF00 DUP9 DUP3 DUP10 ADD PUSH2 0xADA JUMP JUMPDEST SWAP5 POP POP PUSH1 0x40 PUSH2 0xF11 DUP9 DUP3 DUP10 ADD PUSH2 0xE94 JUMP JUMPDEST SWAP4 POP POP PUSH1 0x60 PUSH2 0xF22 DUP9 DUP3 DUP10 ADD PUSH2 0xCC1 JUMP JUMPDEST SWAP3 POP POP PUSH1 0x80 PUSH2 0xF33 DUP9 DUP3 DUP10 ADD PUSH2 0xCC1 JUMP JUMPDEST SWAP2 POP POP SWAP3 SWAP6 POP SWAP3 SWAP6 SWAP1 SWAP4 POP JUMP JUMPDEST PUSH1 0x0 DUP2 MLOAD SWAP1 POP SWAP2 SWAP1 POP JUMP JUMPDEST PUSH1 0x0 DUP2 SWAP1 POP SWAP3 SWAP2 POP POP JUMP JUMPDEST PUSH1 0x0 PUSH2 0xF61 DUP3 PUSH2 0xF40 JUMP JUMPDEST PUSH2 0xF6B DUP2 DUP6 PUSH2 0xF4B JUMP JUMPDEST SWAP4 POP PUSH2 0xF7B DUP2 DUP6 PUSH1 0x20 DUP7 ADD PUSH2 0xB7A JUMP JUMPDEST DUP1 DUP5 ADD SWAP2 POP POP SWAP3 SWAP2 POP POP JUMP JUMPDEST PUSH1 0x0 PUSH2 0xF93 DUP3 DUP5 PUSH2 0xF56 JUMP JUMPDEST SWAP2 POP DUP2 SWAP1 POP SWAP3 SWAP2 POP POP JUMP JUMPDEST PUSH32 0x4E487B7100000000000000000000000000000000000000000000000000000000 PUSH1 0x0 MSTORE PUSH1 0x11 PUSH1 0x4 MSTORE PUSH1 0x24 PUSH1 0x0 REVERT JUMPDEST PUSH1 0x0 PUSH2 0xFD8 DUP3 PUSH2 0xAB9 JUMP JUMPDEST SWAP2 POP PUSH2 0xFE3 DUP4 PUSH2 0xAB9 JUMP JUMPDEST SWAP3 POP DUP3 PUSH32 0xFFFFFFFFFFFFFFFFFFFFFFFFFFFFFFFFFFFFFFFFFFFFFFFFFFFFFFFFFFFFFFFF SUB DUP3 GT ISZERO PUSH2 0x1018 JUMPI PUSH2 0x1017 PUSH2 0xF9E JUMP JUMPDEST JUMPDEST DUP3 DUP3 ADD SWAP1 POP SWAP3 SWAP2 POP POP JUMP JUMPDEST PUSH1 0x0 PUSH2 0x102E DUP3 PUSH2 0xAB9 JUMP JUMPDEST SWAP2 POP PUSH32 0xFFFFFFFFFFFFFFFFFFFFFFFFFFFFFFFFFFFFFFFFFFFFFFFFFFFFFFFFFFFFFFFF DUP3 EQ ISZERO PUSH2 0x1061 JUMPI PUSH2 0x1060 PUSH2 0xF9E JUMP JUMPDEST JUMPDEST PUSH1 0x1 DUP3 ADD SWAP1 POP SWAP2 SWAP1 POP JUMP JUMPDEST PUSH1 0x0 DUP3 DUP3 MSTORE PUSH1 0x20 DUP3 ADD SWAP1 POP SWAP3 SWAP2 POP POP JUMP JUMPDEST PUSH32 0x53746F726167653A2045786365656465642032342C353736206279746573206D PUSH1 0x0 DUP3 ADD MSTORE PUSH32 0x617820636F6E74726163742073697A6500000000000000000000000000000000 PUSH1 0x20 DUP3 ADD MSTORE POP JUMP JUMPDEST PUSH1 0x0 PUSH2 0x10D9 PUSH1 0x30 DUP4 PUSH2 0x106C JUMP JUMPDEST SWAP2 POP PUSH2 0x10E4 DUP3 PUSH2 0x107D JUMP JUMPDEST PUSH1 0x40 DUP3 ADD SWAP1 POP SWAP2 SWAP1 POP JUMP JUMPDEST PUSH1 0x0 PUSH1 0x20 DUP3 ADD SWAP1 POP DUP2 DUP2 SUB PUSH1 0x0 DUP4 ADD MSTORE PUSH2 0x1108 DUP2 PUSH2 0x10CC JUMP JUMPDEST SWAP1 POP SWAP2 SWAP1 POP JUMP JUMPDEST PUSH32 0x4E487B7100000000000000000000000000000000000000000000000000000000 PUSH1 0x0 MSTORE PUSH1 0x32 PUSH1 0x4 MSTORE PUSH1 0x24 PUSH1 0x0 REVERT JUMPDEST PUSH1 0x0 DUP2 SWAP1 POP SWAP3 SWAP2 POP POP JUMP JUMPDEST PUSH1 0x0 PUSH2 0x1154 DUP3 PUSH2 0xB5E JUMP JUMPDEST PUSH2 0x115E DUP2 DUP6 PUSH2 0x113E JUMP JUMPDEST SWAP4 POP PUSH2 0x116E DUP2 DUP6 PUSH1 0x20 DUP7 ADD PUSH2 0xB7A JUMP JUMPDEST DUP1 DUP5 ADD SWAP2 POP POP SWAP3 SWAP2 POP POP JUMP JUMPDEST PUSH1 0x0 PUSH2 0x1186 DUP3 DUP6 PUSH2 0x1149 JUMP JUMPDEST SWAP2 POP PUSH2 0x1192 DUP3 DUP5 PUSH2 0x1149 JUMP JUMPDEST SWAP2 POP DUP2 SWAP1 POP SWAP4 SWAP3 POP POP POP JUMP INVALID LOG2 PUSH5 0x6970667358 0x22 SLT KECCAK256 0xF SWAP13 LOG3 PUSH26 0x1047D26AC982AF4AFCAF32F024D2759D01ECD267D5DA7E2B35ED LOG3 ADDMOD PUSH5 0x736F6C6343 STOP ADDMOD 0xC STOP CALLER "
        },
        "methodIdentifiers": {
          "getAllDataFrom(string,uint256)": "545d6be9",
          "getData(string,uint256,uint256)": "11aa4cba",
          "getMaxPageNumber(string)": "d431a42f",
          "getSizeBetweenPages(string,uint256,uint256)": "208a43d3",
          "getSizeOfPages(string)": "7b5493cb",
          "getSizeUpToPage(string,uint256)": "860536c2",
          "saveData(string,uint128,bytes)": "6af42a8c",
          "saveDataForDeployedContract(string,uint256,address,uint128,uint128)": "c486a53b"
        }
      }
    }
  }
}