{
  "src/services/chain-sim/contracts/Frame.sol": {
    "Frame": {
      "abi": [
        {
          "inputs": [],
          "stateMutability": "nonpayable",
          "type": "constructor"
        },
        {
          "inputs": [
            {
              "internalType": "uint256",
              "name": "",
              "type": "uint256"
            }
          ],
          "name": "assetList",
          "outputs": [
            {
              "internalType": "string",
              "name": "assetType",
              "type": "string"
            },
            {
              "internalType": "string",
              "name": "key",
              "type": "string"
            }
          ],
          "stateMutability": "view",
          "type": "function"
        },
        {
          "inputs": [],
          "name": "assetStorage",
          "outputs": [
            {
              "internalType": "contract FrameDataStore",
              "name": "",
              "type": "address"
            }
          ],
          "stateMutability": "view",
          "type": "function"
        },
        {
          "inputs": [],
          "name": "assetsCount",
          "outputs": [
            {
              "internalType": "uint256",
              "name": "",
              "type": "uint256"
            }
          ],
          "stateMutability": "view",
          "type": "function"
        },
        {
          "inputs": [],
          "name": "coreDepStorage",
          "outputs": [
            {
              "internalType": "contract FrameDataStore",
              "name": "",
              "type": "address"
            }
          ],
          "stateMutability": "view",
          "type": "function"
        },
        {
          "inputs": [],
          "name": "depsCount",
          "outputs": [
            {
              "internalType": "uint256",
              "name": "",
              "type": "uint256"
            }
          ],
          "stateMutability": "view",
          "type": "function"
        },
        {
          "inputs": [
            {
              "internalType": "uint256",
              "name": "",
              "type": "uint256"
            }
          ],
          "name": "depsList",
          "outputs": [
            {
              "internalType": "string",
              "name": "assetType",
              "type": "string"
            },
            {
              "internalType": "string",
              "name": "key",
              "type": "string"
            }
          ],
          "stateMutability": "view",
          "type": "function"
        },
        {
          "inputs": [
            {
              "internalType": "address",
              "name": "_coreDepStorage",
              "type": "address"
            },
            {
              "internalType": "address",
              "name": "_assetStorage",
              "type": "address"
            },
            {
              "internalType": "string[2][]",
              "name": "_deps",
              "type": "string[2][]"
            },
            {
              "internalType": "string[2][]",
              "name": "_assets",
              "type": "string[2][]"
            },
            {
              "internalType": "uint256[4][]",
              "name": "_renderIndex",
              "type": "uint256[4][]"
            }
          ],
          "name": "init",
          "outputs": [],
          "stateMutability": "nonpayable",
          "type": "function"
        },
        {
          "inputs": [
            {
              "internalType": "uint256",
              "name": "",
              "type": "uint256"
            },
            {
              "internalType": "uint256",
              "name": "",
              "type": "uint256"
            }
          ],
          "name": "renderIndex",
          "outputs": [
            {
              "internalType": "uint256",
              "name": "",
              "type": "uint256"
            }
          ],
          "stateMutability": "view",
          "type": "function"
        },
        {
          "inputs": [
            {
              "internalType": "uint256",
              "name": "_rpage",
              "type": "uint256"
            }
          ],
          "name": "renderPage",
          "outputs": [
            {
              "internalType": "string",
              "name": "",
              "type": "string"
            }
          ],
          "stateMutability": "view",
          "type": "function"
        },
        {
          "inputs": [],
          "name": "renderPagesCount",
          "outputs": [
            {
              "internalType": "uint256",
              "name": "",
              "type": "uint256"
            }
          ],
          "stateMutability": "view",
          "type": "function"
        },
        {
          "inputs": [],
          "name": "renderWrapper",
          "outputs": [
            {
              "internalType": "string",
              "name": "",
              "type": "string"
            }
          ],
          "stateMutability": "view",
          "type": "function"
        },
        {
          "inputs": [
            {
              "internalType": "contract FrameDataStore",
              "name": "_storage",
              "type": "address"
            }
          ],
          "name": "setAssetStorage",
          "outputs": [],
          "stateMutability": "nonpayable",
          "type": "function"
        },
        {
          "inputs": [
            {
              "internalType": "string[2][]",
              "name": "_assets",
              "type": "string[2][]"
            }
          ],
          "name": "setAssets",
          "outputs": [],
          "stateMutability": "nonpayable",
          "type": "function"
        },
        {
          "inputs": [
            {
              "internalType": "contract FrameDataStore",
              "name": "_storage",
              "type": "address"
            }
          ],
          "name": "setCoreDepStorage",
          "outputs": [],
          "stateMutability": "nonpayable",
          "type": "function"
        },
        {
          "inputs": [
            {
              "internalType": "string[2][]",
              "name": "_deps",
              "type": "string[2][]"
            }
          ],
          "name": "setDeps",
          "outputs": [],
          "stateMutability": "nonpayable",
          "type": "function"
        },
        {
          "inputs": [
            {
              "internalType": "uint256[4][]",
              "name": "_index",
              "type": "uint256[4][]"
            }
          ],
          "name": "setRenderIndex",
          "outputs": [],
          "stateMutability": "nonpayable",
          "type": "function"
        }
      ],
      "evm": {
        "bytecode": {
          "linkReferences": {},
          "object": "608060405234801561001057600080fd5b50612175806100206000396000f3fe608060405234801561001057600080fd5b50600436106101005760003560e01c80637556d1b911610097578063b5d40c0511610066578063b5d40c051461029a578063cd9df190146102cb578063cdb53ac1146102e9578063dc1335751461030757610100565b80637556d1b9146101ff57806380536f631461022f57806392f02e131461024b578063a0b4b3011461026957610100565b80634cb139a6116100d35780634cb139a6146101775780634f5ea5cc146101955780636bd40805146101b157806370370513146101cf57610100565b806311bf85ce146101055780631b68226f1461012157806327d98df31461013f578063292eabde1461015b575b600080fd5b61011f600480360381019061011a91906115a6565b610323565b005b610129610366565b60405161013691906115ec565b60405180910390f35b610159600480360381019061015491906115a6565b61036c565b005b6101756004803603810190610170919061166c565b6103b0565b005b61017f610433565b60405161018c9190611718565b60405180910390f35b6101af60048036038101906101aa91906117b5565b610459565b005b6101b9610493565b6040516101c691906115ec565b60405180910390f35b6101e960048036038101906101e491906118bd565b610499565b6040516101f691906115ec565b60405180910390f35b610219600480360381019061021491906118fd565b6104c1565b60405161022691906119c3565b60405180910390f35b610249600480360381019061024491906119e5565b610d96565b005b610253610f4d565b60405161026091906119c3565b60405180910390f35b610283600480360381019061027e91906118fd565b610ff6565b604051610291929190611a32565b60405180910390f35b6102b460048036038101906102af91906118fd565b61112a565b6040516102c2929190611a32565b60405180910390f35b6102d361125e565b6040516102e091906115ec565b60405180910390f35b6102f1611264565b6040516102fe9190611718565b60405180910390f35b610321600480360381019061031c91906119e5565b611288565b005b806000806101000a81548173ffffffffffffffffffffffffffffffffffffffff021916908373ffffffffffffffffffffffffffffffffffffffff16021790555050565b60035481565b80600160006101000a81548173ffffffffffffffffffffffffffffffffffffffff021916908373ffffffffffffffffffffffffffffffffffffffff16021790555050565b60005b8282905081101561042457600660008154809291906103d190611a98565b91905055508282828181106103e9576103e8611ae1565b5b9050608002016007600083815260200190815260200160002090600461041092919061143f565b50808061041c90611a98565b9150506103b3565b50818190506006819055505050565b600160009054906101000a900473ffffffffffffffffffffffffffffffffffffffff1681565b61046288610323565b61046b8761036c565b6104758686610d96565b61047f8484611288565b61048982826103b0565b5050505050505050565b60065481565b600760205281600052604060002081600481106104b557600080fd5b01600091509150505481565b606060006007600084815260200190815260200160002060048060200260405190810160405280929190826004801561050f576020028201915b8154815260200190600101908083116104fb575b5050505050905060008160006004811061052c5761052b611ae1565b5b6020020151905060008260016004811061054957610548611ae1565b5b6020020151905060008360026004811061056657610565611ae1565b5b6020020151905060008460036004811061058357610582611ae1565b5b60200201519050600060405180602001604052806000815250905060008590505b6001856105b19190611b10565b811015610bdc5760006003546001836105ca9190611b10565b111590506000816105e857600354836105e39190611b66565b6105ea565b825b905060008261061b57600160009054906101000a900473ffffffffffffffffffffffffffffffffffffffff1661063d565b60008054906101000a900473ffffffffffffffffffffffffffffffffffffffff165b905060008361065e5760046000848152602001908152602001600020610672565b600260008681526020019081526020016000205b60405180604001604052908160008201805461068d90611bc9565b80601f01602080910402602001604051908101604052809291908181526020018280546106b990611bc9565b80156107065780601f106106db57610100808354040283529160200191610706565b820191906000526020600020905b8154815290600101906020018083116106e957829003601f168201915b5050505050815260200160018201805461071f90611bc9565b80601f016020809104026020016040519081016040528092919081815260200182805461074b90611bc9565b80156107985780601f1061076d57610100808354040283529160200191610798565b820191906000526020600020905b81548152906001019060200180831161077b57829003601f168201915b505050505081525050905060008a86146107b35760006107b5565b885b905060008a8714610843578373ffffffffffffffffffffffffffffffffffffffff1663d431a42f84602001516040518263ffffffff1660e01b81526004016107fd91906119c3565b602060405180830381865afa15801561081a573d6000803e3d6000fd5b505050506040513d601f19601f8201168201806040525081019061083e9190611c10565b610845565b885b9050600082141561095a578760008054906101000a900473ffffffffffffffffffffffffffffffffffffffff1673ffffffffffffffffffffffffffffffffffffffff166311aa4cba85600001516040516020016108a29190611c9f565b6040516020818303038152906040526000806040518463ffffffff1660e01b81526004016108d293929190611d00565b600060405180830381865afa1580156108ef573d6000803e3d6000fd5b505050506040513d6000823e3d601f19601f820116820180604052508101906109189190611e5f565b6040516020016109289190611eef565b604051602081830303815290604052604051602001610948929190611f06565b60405160208183030381529060405297505b878473ffffffffffffffffffffffffffffffffffffffff166311aa4cba856020015185856040518463ffffffff1660e01b815260040161099c93929190611f2a565b600060405180830381865afa1580156109b9573d6000803e3d6000fd5b505050506040513d6000823e3d601f19601f820116820180604052508101906109e29190611e5f565b6040516020016109f29190611eef565b604051602081830303815290604052604051602001610a12929190611f06565b604051602081830303815290604052975060008b88148015610ab157508473ffffffffffffffffffffffffffffffffffffffff1663d431a42f85602001516040518263ffffffff1660e01b8152600401610a6c91906119c3565b602060405180830381865afa158015610a89573d6000803e3d6000fd5b505050506040513d601f19601f82011682018060405250810190610aad9190611c10565b8a14155b905080610bc2578860008054906101000a900473ffffffffffffffffffffffffffffffffffffffff1673ffffffffffffffffffffffffffffffffffffffff166311aa4cba8660000151604051602001610b0a9190611c9f565b6040516020818303038152906040526001806040518463ffffffff1660e01b8152600401610b3a93929190611fa3565b600060405180830381865afa158015610b57573d6000803e3d6000fd5b505050506040513d6000823e3d601f19601f82011682018060405250810190610b809190611e5f565b604051602001610b909190611eef565b604051602081830303815290604052604051602001610bb0929190611f06565b60405160208183030381529060405298505b505050505050508080610bd490611a98565b9150506105a4565b506000881415610cac5760008054906101000a900473ffffffffffffffffffffffffffffffffffffffff1673ffffffffffffffffffffffffffffffffffffffff166311aa4cba6000806040518363ffffffff1660e01b8152600401610c4292919061202d565b600060405180830381865afa158015610c5f573d6000803e3d6000fd5b505050506040513d6000823e3d601f19601f82011682018060405250810190610c889190611e5f565b81604051602001610c9a929190611f06565b60405160208183030381529060405290505b6001600654610cbb9190611b66565b881415610d88578060008054906101000a900473ffffffffffffffffffffffffffffffffffffffff1673ffffffffffffffffffffffffffffffffffffffff166311aa4cba6001806040518363ffffffff1660e01b8152600401610d1f929190612069565b600060405180830381865afa158015610d3c573d6000803e3d6000fd5b505050506040513d6000823e3d601f19601f82011682018060405250810190610d659190611e5f565b604051602001610d76929190611f06565b60405160208183030381529060405290505b809650505050505050919050565b60005b82829050811015610f48576040518060400160405280848484818110610dc257610dc1611ae1565b5b9050602002810190610dd491906120b4565b600060028110610de757610de6611ae1565b5b602002810190610df791906120dc565b8080601f016020809104026020016040519081016040528093929190818152602001838380828437600081840152601f19601f820116905080830192505050505050508152602001848484818110610e5257610e51611ae1565b5b9050602002810190610e6491906120b4565b600160028110610e7757610e76611ae1565b5b602002810190610e8791906120dc565b8080601f016020809104026020016040519081016040528093929190818152602001838380828437600081840152601f19601f82011690508083019250505050505050815250600260008381526020019081526020016000206000820151816000019080519060200190610efc92919061147f565b506020820151816001019080519060200190610f1992919061147f565b5090505060036000815480929190610f3090611a98565b91905055508080610f4090611a98565b915050610d99565b505050565b606060008054906101000a900473ffffffffffffffffffffffffffffffffffffffff1673ffffffffffffffffffffffffffffffffffffffff166311aa4cba6000806040518363ffffffff1660e01b8152600401610fab92919061202d565b600060405180830381865afa158015610fc8573d6000803e3d6000fd5b505050506040513d6000823e3d601f19601f82011682018060405250810190610ff19190611e5f565b905090565b600460205280600052604060002060009150905080600001805461101990611bc9565b80601f016020809104026020016040519081016040528092919081815260200182805461104590611bc9565b80156110925780601f1061106757610100808354040283529160200191611092565b820191906000526020600020905b81548152906001019060200180831161107557829003601f168201915b5050505050908060010180546110a790611bc9565b80601f01602080910402602001604051908101604052809291908181526020018280546110d390611bc9565b80156111205780601f106110f557610100808354040283529160200191611120565b820191906000526020600020905b81548152906001019060200180831161110357829003601f168201915b5050505050905082565b600260205280600052604060002060009150905080600001805461114d90611bc9565b80601f016020809104026020016040519081016040528092919081815260200182805461117990611bc9565b80156111c65780601f1061119b576101008083540402835291602001916111c6565b820191906000526020600020905b8154815290600101906020018083116111a957829003601f168201915b5050505050908060010180546111db90611bc9565b80601f016020809104026020016040519081016040528092919081815260200182805461120790611bc9565b80156112545780601f1061122957610100808354040283529160200191611254565b820191906000526020600020905b81548152906001019060200180831161123757829003601f168201915b5050505050905082565b60055481565b60008054906101000a900473ffffffffffffffffffffffffffffffffffffffff1681565b60005b8282905081101561143a5760405180604001604052808484848181106112b4576112b3611ae1565b5b90506020028101906112c691906120b4565b6000600281106112d9576112d8611ae1565b5b6020028101906112e991906120dc565b8080601f016020809104026020016040519081016040528093929190818152602001838380828437600081840152601f19601f82011690508083019250505050505050815260200184848481811061134457611343611ae1565b5b905060200281019061135691906120b4565b60016002811061136957611368611ae1565b5b60200281019061137991906120dc565b8080601f016020809104026020016040519081016040528093929190818152602001838380828437600081840152601f19601f820116905080830192505050505050508152506004600083815260200190815260200160002060008201518160000190805190602001906113ee92919061147f565b50602082015181600101908051906020019061140b92919061147f565b509050506005600081548092919061142290611a98565b9190505550808061143290611a98565b91505061128b565b505050565b826004810192821561146e579160200282015b8281111561146d578235825591602001919060010190611452565b5b50905061147b9190611505565b5090565b82805461148b90611bc9565b90600052602060002090601f0160209004810192826114ad57600085556114f4565b82601f106114c657805160ff19168380011785556114f4565b828001600101855582156114f4579182015b828111156114f35782518255916020019190600101906114d8565b5b5090506115019190611505565b5090565b5b8082111561151e576000816000905550600101611506565b5090565b6000604051905090565b600080fd5b600080fd5b600073ffffffffffffffffffffffffffffffffffffffff82169050919050565b600061156182611536565b9050919050565b600061157382611556565b9050919050565b61158381611568565b811461158e57600080fd5b50565b6000813590506115a08161157a565b92915050565b6000602082840312156115bc576115bb61152c565b5b60006115ca84828501611591565b91505092915050565b6000819050919050565b6115e6816115d3565b82525050565b600060208201905061160160008301846115dd565b92915050565b600080fd5b600080fd5b600080fd5b60008083601f84011261162c5761162b611607565b5b8235905067ffffffffffffffff8111156116495761164861160c565b5b60208301915083608082028301111561166557611664611611565b5b9250929050565b600080602083850312156116835761168261152c565b5b600083013567ffffffffffffffff8111156116a1576116a0611531565b5b6116ad85828601611616565b92509250509250929050565b6000819050919050565b60006116de6116d96116d484611536565b6116b9565b611536565b9050919050565b60006116f0826116c3565b9050919050565b6000611702826116e5565b9050919050565b611712816116f7565b82525050565b600060208201905061172d6000830184611709565b92915050565b61173c81611556565b811461174757600080fd5b50565b60008135905061175981611733565b92915050565b60008083601f84011261177557611774611607565b5b8235905067ffffffffffffffff8111156117925761179161160c565b5b6020830191508360208202830111156117ae576117ad611611565b5b9250929050565b60008060008060008060008060a0898b0312156117d5576117d461152c565b5b60006117e38b828c0161174a565b98505060206117f48b828c0161174a565b975050604089013567ffffffffffffffff81111561181557611814611531565b5b6118218b828c0161175f565b9650965050606089013567ffffffffffffffff81111561184457611843611531565b5b6118508b828c0161175f565b9450945050608089013567ffffffffffffffff81111561187357611872611531565b5b61187f8b828c01611616565b92509250509295985092959890939650565b61189a816115d3565b81146118a557600080fd5b50565b6000813590506118b781611891565b92915050565b600080604083850312156118d4576118d361152c565b5b60006118e2858286016118a8565b92505060206118f3858286016118a8565b9150509250929050565b6000602082840312156119135761191261152c565b5b6000611921848285016118a8565b91505092915050565b600081519050919050565b600082825260208201905092915050565b60005b83811015611964578082015181840152602081019050611949565b83811115611973576000848401525b50505050565b6000601f19601f8301169050919050565b60006119958261192a565b61199f8185611935565b93506119af818560208601611946565b6119b881611979565b840191505092915050565b600060208201905081810360008301526119dd818461198a565b905092915050565b600080602083850312156119fc576119fb61152c565b5b600083013567ffffffffffffffff811115611a1a57611a19611531565b5b611a268582860161175f565b92509250509250929050565b60006040820190508181036000830152611a4c818561198a565b90508181036020830152611a60818461198a565b90509392505050565b7f4e487b7100000000000000000000000000000000000000000000000000000000600052601160045260246000fd5b6000611aa3826115d3565b91507fffffffffffffffffffffffffffffffffffffffffffffffffffffffffffffffff821415611ad657611ad5611a69565b5b600182019050919050565b7f4e487b7100000000000000000000000000000000000000000000000000000000600052603260045260246000fd5b6000611b1b826115d3565b9150611b26836115d3565b9250827fffffffffffffffffffffffffffffffffffffffffffffffffffffffffffffffff03821115611b5b57611b5a611a69565b5b828201905092915050565b6000611b71826115d3565b9150611b7c836115d3565b925082821015611b8f57611b8e611a69565b5b828203905092915050565b7f4e487b7100000000000000000000000000000000000000000000000000000000600052602260045260246000fd5b60006002820490506001821680611be157607f821691505b60208210811415611bf557611bf4611b9a565b5b50919050565b600081519050611c0a81611891565b92915050565b600060208284031215611c2657611c2561152c565b5b6000611c3484828501611bfb565b91505092915050565b600081905092915050565b6000611c538261192a565b611c5d8185611c3d565b9350611c6d818560208601611946565b80840191505092915050565b7f5772617070657200000000000000000000000000000000000000000000000000815250565b6000611cab8284611c48565b9150611cb682611c79565b60078201915081905092915050565b6000819050919050565b6000611cea611ce5611ce084611cc5565b6116b9565b6115d3565b9050919050565b611cfa81611ccf565b82525050565b60006060820190508181036000830152611d1a818661198a565b9050611d296020830185611cf1565b611d366040830184611cf1565b949350505050565b600080fd5b7f4e487b7100000000000000000000000000000000000000000000000000000000600052604160045260246000fd5b611d7b82611979565b810181811067ffffffffffffffff82111715611d9a57611d99611d43565b5b80604052505050565b6000611dad611522565b9050611db98282611d72565b919050565b600067ffffffffffffffff821115611dd957611dd8611d43565b5b611de282611979565b9050602081019050919050565b6000611e02611dfd84611dbe565b611da3565b905082815260208101848484011115611e1e57611e1d611d3e565b5b611e29848285611946565b509392505050565b600082601f830112611e4657611e45611607565b5b8151611e56848260208601611def565b91505092915050565b600060208284031215611e7557611e7461152c565b5b600082015167ffffffffffffffff811115611e9357611e92611531565b5b611e9f84828501611e31565b91505092915050565b600081519050919050565b600081905092915050565b6000611ec982611ea8565b611ed38185611eb3565b9350611ee3818560208601611946565b80840191505092915050565b6000611efb8284611ebe565b915081905092915050565b6000611f128285611c48565b9150611f1e8284611c48565b91508190509392505050565b60006060820190508181036000830152611f44818661198a565b9050611f5360208301856115dd565b611f6060408301846115dd565b949350505050565b6000819050919050565b6000611f8d611f88611f8384611f68565b6116b9565b6115d3565b9050919050565b611f9d81611f72565b82525050565b60006060820190508181036000830152611fbd818661198a565b9050611fcc6020830185611f94565b611fd96040830184611f94565b949350505050565b7f72656e6465725772617070657200000000000000000000000000000000000000600082015250565b6000612017600d83611935565b915061202282611fe1565b602082019050919050565b600060608201905081810360008301526120468161200a565b90506120556020830185611cf1565b6120626040830184611cf1565b9392505050565b600060608201905081810360008301526120828161200a565b90506120916020830185611f94565b61209e6040830184611f94565b9392505050565b600080fd5b600080fd5b600080fd5b6000823560016040038336030381126120d0576120cf6120a5565b5b80830191505092915050565b600080833560016020038436030381126120f9576120f86120a5565b5b80840192508235915067ffffffffffffffff82111561211b5761211a6120aa565b5b602083019250600182023603831315612137576121366120af565b5b50925092905056fea264697066735822122068f00d482d72abe0015ff91ed6c7acda1f03de6672704b2b7e93c11c38502bd964736f6c634300080c0033",
          "opcodes": "PUSH1 0x80 PUSH1 0x40 MSTORE CALLVALUE DUP1 ISZERO PUSH2 0x10 JUMPI PUSH1 0x0 DUP1 REVERT JUMPDEST POP PUSH2 0x2175 DUP1 PUSH2 0x20 PUSH1 0x0 CODECOPY PUSH1 0x0 RETURN INVALID PUSH1 0x80 PUSH1 0x40 MSTORE CALLVALUE DUP1 ISZERO PUSH2 0x10 JUMPI PUSH1 0x0 DUP1 REVERT JUMPDEST POP PUSH1 0x4 CALLDATASIZE LT PUSH2 0x100 JUMPI PUSH1 0x0 CALLDATALOAD PUSH1 0xE0 SHR DUP1 PUSH4 0x7556D1B9 GT PUSH2 0x97 JUMPI DUP1 PUSH4 0xB5D40C05 GT PUSH2 0x66 JUMPI DUP1 PUSH4 0xB5D40C05 EQ PUSH2 0x29A JUMPI DUP1 PUSH4 0xCD9DF190 EQ PUSH2 0x2CB JUMPI DUP1 PUSH4 0xCDB53AC1 EQ PUSH2 0x2E9 JUMPI DUP1 PUSH4 0xDC133575 EQ PUSH2 0x307 JUMPI PUSH2 0x100 JUMP JUMPDEST DUP1 PUSH4 0x7556D1B9 EQ PUSH2 0x1FF JUMPI DUP1 PUSH4 0x80536F63 EQ PUSH2 0x22F JUMPI DUP1 PUSH4 0x92F02E13 EQ PUSH2 0x24B JUMPI DUP1 PUSH4 0xA0B4B301 EQ PUSH2 0x269 JUMPI PUSH2 0x100 JUMP JUMPDEST DUP1 PUSH4 0x4CB139A6 GT PUSH2 0xD3 JUMPI DUP1 PUSH4 0x4CB139A6 EQ PUSH2 0x177 JUMPI DUP1 PUSH4 0x4F5EA5CC EQ PUSH2 0x195 JUMPI DUP1 PUSH4 0x6BD40805 EQ PUSH2 0x1B1 JUMPI DUP1 PUSH4 0x70370513 EQ PUSH2 0x1CF JUMPI PUSH2 0x100 JUMP JUMPDEST DUP1 PUSH4 0x11BF85CE EQ PUSH2 0x105 JUMPI DUP1 PUSH4 0x1B68226F EQ PUSH2 0x121 JUMPI DUP1 PUSH4 0x27D98DF3 EQ PUSH2 0x13F JUMPI DUP1 PUSH4 0x292EABDE EQ PUSH2 0x15B JUMPI JUMPDEST PUSH1 0x0 DUP1 REVERT JUMPDEST PUSH2 0x11F PUSH1 0x4 DUP1 CALLDATASIZE SUB DUP2 ADD SWAP1 PUSH2 0x11A SWAP2 SWAP1 PUSH2 0x15A6 JUMP JUMPDEST PUSH2 0x323 JUMP JUMPDEST STOP JUMPDEST PUSH2 0x129 PUSH2 0x366 JUMP JUMPDEST PUSH1 0x40 MLOAD PUSH2 0x136 SWAP2 SWAP1 PUSH2 0x15EC JUMP JUMPDEST PUSH1 0x40 MLOAD DUP1 SWAP2 SUB SWAP1 RETURN JUMPDEST PUSH2 0x159 PUSH1 0x4 DUP1 CALLDATASIZE SUB DUP2 ADD SWAP1 PUSH2 0x154 SWAP2 SWAP1 PUSH2 0x15A6 JUMP JUMPDEST PUSH2 0x36C JUMP JUMPDEST STOP JUMPDEST PUSH2 0x175 PUSH1 0x4 DUP1 CALLDATASIZE SUB DUP2 ADD SWAP1 PUSH2 0x170 SWAP2 SWAP1 PUSH2 0x166C JUMP JUMPDEST PUSH2 0x3B0 JUMP JUMPDEST STOP JUMPDEST PUSH2 0x17F PUSH2 0x433 JUMP JUMPDEST PUSH1 0x40 MLOAD PUSH2 0x18C SWAP2 SWAP1 PUSH2 0x1718 JUMP JUMPDEST PUSH1 0x40 MLOAD DUP1 SWAP2 SUB SWAP1 RETURN JUMPDEST PUSH2 0x1AF PUSH1 0x4 DUP1 CALLDATASIZE SUB DUP2 ADD SWAP1 PUSH2 0x1AA SWAP2 SWAP1 PUSH2 0x17B5 JUMP JUMPDEST PUSH2 0x459 JUMP JUMPDEST STOP JUMPDEST PUSH2 0x1B9 PUSH2 0x493 JUMP JUMPDEST PUSH1 0x40 MLOAD PUSH2 0x1C6 SWAP2 SWAP1 PUSH2 0x15EC JUMP JUMPDEST PUSH1 0x40 MLOAD DUP1 SWAP2 SUB SWAP1 RETURN JUMPDEST PUSH2 0x1E9 PUSH1 0x4 DUP1 CALLDATASIZE SUB DUP2 ADD SWAP1 PUSH2 0x1E4 SWAP2 SWAP1 PUSH2 0x18BD JUMP JUMPDEST PUSH2 0x499 JUMP JUMPDEST PUSH1 0x40 MLOAD PUSH2 0x1F6 SWAP2 SWAP1 PUSH2 0x15EC JUMP JUMPDEST PUSH1 0x40 MLOAD DUP1 SWAP2 SUB SWAP1 RETURN JUMPDEST PUSH2 0x219 PUSH1 0x4 DUP1 CALLDATASIZE SUB DUP2 ADD SWAP1 PUSH2 0x214 SWAP2 SWAP1 PUSH2 0x18FD JUMP JUMPDEST PUSH2 0x4C1 JUMP JUMPDEST PUSH1 0x40 MLOAD PUSH2 0x226 SWAP2 SWAP1 PUSH2 0x19C3 JUMP JUMPDEST PUSH1 0x40 MLOAD DUP1 SWAP2 SUB SWAP1 RETURN JUMPDEST PUSH2 0x249 PUSH1 0x4 DUP1 CALLDATASIZE SUB DUP2 ADD SWAP1 PUSH2 0x244 SWAP2 SWAP1 PUSH2 0x19E5 JUMP JUMPDEST PUSH2 0xD96 JUMP JUMPDEST STOP JUMPDEST PUSH2 0x253 PUSH2 0xF4D JUMP JUMPDEST PUSH1 0x40 MLOAD PUSH2 0x260 SWAP2 SWAP1 PUSH2 0x19C3 JUMP JUMPDEST PUSH1 0x40 MLOAD DUP1 SWAP2 SUB SWAP1 RETURN JUMPDEST PUSH2 0x283 PUSH1 0x4 DUP1 CALLDATASIZE SUB DUP2 ADD SWAP1 PUSH2 0x27E SWAP2 SWAP1 PUSH2 0x18FD JUMP JUMPDEST PUSH2 0xFF6 JUMP JUMPDEST PUSH1 0x40 MLOAD PUSH2 0x291 SWAP3 SWAP2 SWAP1 PUSH2 0x1A32 JUMP JUMPDEST PUSH1 0x40 MLOAD DUP1 SWAP2 SUB SWAP1 RETURN JUMPDEST PUSH2 0x2B4 PUSH1 0x4 DUP1 CALLDATASIZE SUB DUP2 ADD SWAP1 PUSH2 0x2AF SWAP2 SWAP1 PUSH2 0x18FD JUMP JUMPDEST PUSH2 0x112A JUMP JUMPDEST PUSH1 0x40 MLOAD PUSH2 0x2C2 SWAP3 SWAP2 SWAP1 PUSH2 0x1A32 JUMP JUMPDEST PUSH1 0x40 MLOAD DUP1 SWAP2 SUB SWAP1 RETURN JUMPDEST PUSH2 0x2D3 PUSH2 0x125E JUMP JUMPDEST PUSH1 0x40 MLOAD PUSH2 0x2E0 SWAP2 SWAP1 PUSH2 0x15EC JUMP JUMPDEST PUSH1 0x40 MLOAD DUP1 SWAP2 SUB SWAP1 RETURN JUMPDEST PUSH2 0x2F1 PUSH2 0x1264 JUMP JUMPDEST PUSH1 0x40 MLOAD PUSH2 0x2FE SWAP2 SWAP1 PUSH2 0x1718 JUMP JUMPDEST PUSH1 0x40 MLOAD DUP1 SWAP2 SUB SWAP1 RETURN JUMPDEST PUSH2 0x321 PUSH1 0x4 DUP1 CALLDATASIZE SUB DUP2 ADD SWAP1 PUSH2 0x31C SWAP2 SWAP1 PUSH2 0x19E5 JUMP JUMPDEST PUSH2 0x1288 JUMP JUMPDEST STOP JUMPDEST DUP1 PUSH1 0x0 DUP1 PUSH2 0x100 EXP DUP2 SLOAD DUP2 PUSH20 0xFFFFFFFFFFFFFFFFFFFFFFFFFFFFFFFFFFFFFFFF MUL NOT AND SWAP1 DUP4 PUSH20 0xFFFFFFFFFFFFFFFFFFFFFFFFFFFFFFFFFFFFFFFF AND MUL OR SWAP1 SSTORE POP POP JUMP JUMPDEST PUSH1 0x3 SLOAD DUP2 JUMP JUMPDEST DUP1 PUSH1 0x1 PUSH1 0x0 PUSH2 0x100 EXP DUP2 SLOAD DUP2 PUSH20 0xFFFFFFFFFFFFFFFFFFFFFFFFFFFFFFFFFFFFFFFF MUL NOT AND SWAP1 DUP4 PUSH20 0xFFFFFFFFFFFFFFFFFFFFFFFFFFFFFFFFFFFFFFFF AND MUL OR SWAP1 SSTORE POP POP JUMP JUMPDEST PUSH1 0x0 JUMPDEST DUP3 DUP3 SWAP1 POP DUP2 LT ISZERO PUSH2 0x424 JUMPI PUSH1 0x6 PUSH1 0x0 DUP2 SLOAD DUP1 SWAP3 SWAP2 SWAP1 PUSH2 0x3D1 SWAP1 PUSH2 0x1A98 JUMP JUMPDEST SWAP2 SWAP1 POP SSTORE POP DUP3 DUP3 DUP3 DUP2 DUP2 LT PUSH2 0x3E9 JUMPI PUSH2 0x3E8 PUSH2 0x1AE1 JUMP JUMPDEST JUMPDEST SWAP1 POP PUSH1 0x80 MUL ADD PUSH1 0x7 PUSH1 0x0 DUP4 DUP2 MSTORE PUSH1 0x20 ADD SWAP1 DUP2 MSTORE PUSH1 0x20 ADD PUSH1 0x0 KECCAK256 SWAP1 PUSH1 0x4 PUSH2 0x410 SWAP3 SWAP2 SWAP1 PUSH2 0x143F JUMP JUMPDEST POP DUP1 DUP1 PUSH2 0x41C SWAP1 PUSH2 0x1A98 JUMP JUMPDEST SWAP2 POP POP PUSH2 0x3B3 JUMP JUMPDEST POP DUP2 DUP2 SWAP1 POP PUSH1 0x6 DUP2 SWAP1 SSTORE POP POP POP JUMP JUMPDEST PUSH1 0x1 PUSH1 0x0 SWAP1 SLOAD SWAP1 PUSH2 0x100 EXP SWAP1 DIV PUSH20 0xFFFFFFFFFFFFFFFFFFFFFFFFFFFFFFFFFFFFFFFF AND DUP2 JUMP JUMPDEST PUSH2 0x462 DUP9 PUSH2 0x323 JUMP JUMPDEST PUSH2 0x46B DUP8 PUSH2 0x36C JUMP JUMPDEST PUSH2 0x475 DUP7 DUP7 PUSH2 0xD96 JUMP JUMPDEST PUSH2 0x47F DUP5 DUP5 PUSH2 0x1288 JUMP JUMPDEST PUSH2 0x489 DUP3 DUP3 PUSH2 0x3B0 JUMP JUMPDEST POP POP POP POP POP POP POP POP JUMP JUMPDEST PUSH1 0x6 SLOAD DUP2 JUMP JUMPDEST PUSH1 0x7 PUSH1 0x20 MSTORE DUP2 PUSH1 0x0 MSTORE PUSH1 0x40 PUSH1 0x0 KECCAK256 DUP2 PUSH1 0x4 DUP2 LT PUSH2 0x4B5 JUMPI PUSH1 0x0 DUP1 REVERT JUMPDEST ADD PUSH1 0x0 SWAP2 POP SWAP2 POP POP SLOAD DUP2 JUMP JUMPDEST PUSH1 0x60 PUSH1 0x0 PUSH1 0x7 PUSH1 0x0 DUP5 DUP2 MSTORE PUSH1 0x20 ADD SWAP1 DUP2 MSTORE PUSH1 0x20 ADD PUSH1 0x0 KECCAK256 PUSH1 0x4 DUP1 PUSH1 0x20 MUL PUSH1 0x40 MLOAD SWAP1 DUP2 ADD PUSH1 0x40 MSTORE DUP1 SWAP3 SWAP2 SWAP1 DUP3 PUSH1 0x4 DUP1 ISZERO PUSH2 0x50F JUMPI PUSH1 0x20 MUL DUP3 ADD SWAP2 JUMPDEST DUP2 SLOAD DUP2 MSTORE PUSH1 0x20 ADD SWAP1 PUSH1 0x1 ADD SWAP1 DUP1 DUP4 GT PUSH2 0x4FB JUMPI JUMPDEST POP POP POP POP POP SWAP1 POP PUSH1 0x0 DUP2 PUSH1 0x0 PUSH1 0x4 DUP2 LT PUSH2 0x52C JUMPI PUSH2 0x52B PUSH2 0x1AE1 JUMP JUMPDEST JUMPDEST PUSH1 0x20 MUL ADD MLOAD SWAP1 POP PUSH1 0x0 DUP3 PUSH1 0x1 PUSH1 0x4 DUP2 LT PUSH2 0x549 JUMPI PUSH2 0x548 PUSH2 0x1AE1 JUMP JUMPDEST JUMPDEST PUSH1 0x20 MUL ADD MLOAD SWAP1 POP PUSH1 0x0 DUP4 PUSH1 0x2 PUSH1 0x4 DUP2 LT PUSH2 0x566 JUMPI PUSH2 0x565 PUSH2 0x1AE1 JUMP JUMPDEST JUMPDEST PUSH1 0x20 MUL ADD MLOAD SWAP1 POP PUSH1 0x0 DUP5 PUSH1 0x3 PUSH1 0x4 DUP2 LT PUSH2 0x583 JUMPI PUSH2 0x582 PUSH2 0x1AE1 JUMP JUMPDEST JUMPDEST PUSH1 0x20 MUL ADD MLOAD SWAP1 POP PUSH1 0x0 PUSH1 0x40 MLOAD DUP1 PUSH1 0x20 ADD PUSH1 0x40 MSTORE DUP1 PUSH1 0x0 DUP2 MSTORE POP SWAP1 POP PUSH1 0x0 DUP6 SWAP1 POP JUMPDEST PUSH1 0x1 DUP6 PUSH2 0x5B1 SWAP2 SWAP1 PUSH2 0x1B10 JUMP JUMPDEST DUP2 LT ISZERO PUSH2 0xBDC JUMPI PUSH1 0x0 PUSH1 0x3 SLOAD PUSH1 0x1 DUP4 PUSH2 0x5CA SWAP2 SWAP1 PUSH2 0x1B10 JUMP JUMPDEST GT ISZERO SWAP1 POP PUSH1 0x0 DUP2 PUSH2 0x5E8 JUMPI PUSH1 0x3 SLOAD DUP4 PUSH2 0x5E3 SWAP2 SWAP1 PUSH2 0x1B66 JUMP JUMPDEST PUSH2 0x5EA JUMP JUMPDEST DUP3 JUMPDEST SWAP1 POP PUSH1 0x0 DUP3 PUSH2 0x61B JUMPI PUSH1 0x1 PUSH1 0x0 SWAP1 SLOAD SWAP1 PUSH2 0x100 EXP SWAP1 DIV PUSH20 0xFFFFFFFFFFFFFFFFFFFFFFFFFFFFFFFFFFFFFFFF AND PUSH2 0x63D JUMP JUMPDEST PUSH1 0x0 DUP1 SLOAD SWAP1 PUSH2 0x100 EXP SWAP1 DIV PUSH20 0xFFFFFFFFFFFFFFFFFFFFFFFFFFFFFFFFFFFFFFFF AND JUMPDEST SWAP1 POP PUSH1 0x0 DUP4 PUSH2 0x65E JUMPI PUSH1 0x4 PUSH1 0x0 DUP5 DUP2 MSTORE PUSH1 0x20 ADD SWAP1 DUP2 MSTORE PUSH1 0x20 ADD PUSH1 0x0 KECCAK256 PUSH2 0x672 JUMP JUMPDEST PUSH1 0x2 PUSH1 0x0 DUP7 DUP2 MSTORE PUSH1 0x20 ADD SWAP1 DUP2 MSTORE PUSH1 0x20 ADD PUSH1 0x0 KECCAK256 JUMPDEST PUSH1 0x40 MLOAD DUP1 PUSH1 0x40 ADD PUSH1 0x40 MSTORE SWAP1 DUP2 PUSH1 0x0 DUP3 ADD DUP1 SLOAD PUSH2 0x68D SWAP1 PUSH2 0x1BC9 JUMP JUMPDEST DUP1 PUSH1 0x1F ADD PUSH1 0x20 DUP1 SWAP2 DIV MUL PUSH1 0x20 ADD PUSH1 0x40 MLOAD SWAP1 DUP2 ADD PUSH1 0x40 MSTORE DUP1 SWAP3 SWAP2 SWAP1 DUP2 DUP2 MSTORE PUSH1 0x20 ADD DUP3 DUP1 SLOAD PUSH2 0x6B9 SWAP1 PUSH2 0x1BC9 JUMP JUMPDEST DUP1 ISZERO PUSH2 0x706 JUMPI DUP1 PUSH1 0x1F LT PUSH2 0x6DB JUMPI PUSH2 0x100 DUP1 DUP4 SLOAD DIV MUL DUP4 MSTORE SWAP2 PUSH1 0x20 ADD SWAP2 PUSH2 0x706 JUMP JUMPDEST DUP3 ADD SWAP2 SWAP1 PUSH1 0x0 MSTORE PUSH1 0x20 PUSH1 0x0 KECCAK256 SWAP1 JUMPDEST DUP2 SLOAD DUP2 MSTORE SWAP1 PUSH1 0x1 ADD SWAP1 PUSH1 0x20 ADD DUP1 DUP4 GT PUSH2 0x6E9 JUMPI DUP3 SWAP1 SUB PUSH1 0x1F AND DUP3 ADD SWAP2 JUMPDEST POP POP POP POP POP DUP2 MSTORE PUSH1 0x20 ADD PUSH1 0x1 DUP3 ADD DUP1 SLOAD PUSH2 0x71F SWAP1 PUSH2 0x1BC9 JUMP JUMPDEST DUP1 PUSH1 0x1F ADD PUSH1 0x20 DUP1 SWAP2 DIV MUL PUSH1 0x20 ADD PUSH1 0x40 MLOAD SWAP1 DUP2 ADD PUSH1 0x40 MSTORE DUP1 SWAP3 SWAP2 SWAP1 DUP2 DUP2 MSTORE PUSH1 0x20 ADD DUP3 DUP1 SLOAD PUSH2 0x74B SWAP1 PUSH2 0x1BC9 JUMP JUMPDEST DUP1 ISZERO PUSH2 0x798 JUMPI DUP1 PUSH1 0x1F LT PUSH2 0x76D JUMPI PUSH2 0x100 DUP1 DUP4 SLOAD DIV MUL DUP4 MSTORE SWAP2 PUSH1 0x20 ADD SWAP2 PUSH2 0x798 JUMP JUMPDEST DUP3 ADD SWAP2 SWAP1 PUSH1 0x0 MSTORE PUSH1 0x20 PUSH1 0x0 KECCAK256 SWAP1 JUMPDEST DUP2 SLOAD DUP2 MSTORE SWAP1 PUSH1 0x1 ADD SWAP1 PUSH1 0x20 ADD DUP1 DUP4 GT PUSH2 0x77B JUMPI DUP3 SWAP1 SUB PUSH1 0x1F AND DUP3 ADD SWAP2 JUMPDEST POP POP POP POP POP DUP2 MSTORE POP POP SWAP1 POP PUSH1 0x0 DUP11 DUP7 EQ PUSH2 0x7B3 JUMPI PUSH1 0x0 PUSH2 0x7B5 JUMP JUMPDEST DUP9 JUMPDEST SWAP1 POP PUSH1 0x0 DUP11 DUP8 EQ PUSH2 0x843 JUMPI DUP4 PUSH20 0xFFFFFFFFFFFFFFFFFFFFFFFFFFFFFFFFFFFFFFFF AND PUSH4 0xD431A42F DUP5 PUSH1 0x20 ADD MLOAD PUSH1 0x40 MLOAD DUP3 PUSH4 0xFFFFFFFF AND PUSH1 0xE0 SHL DUP2 MSTORE PUSH1 0x4 ADD PUSH2 0x7FD SWAP2 SWAP1 PUSH2 0x19C3 JUMP JUMPDEST PUSH1 0x20 PUSH1 0x40 MLOAD DUP1 DUP4 SUB DUP2 DUP7 GAS STATICCALL ISZERO DUP1 ISZERO PUSH2 0x81A JUMPI RETURNDATASIZE PUSH1 0x0 DUP1 RETURNDATACOPY RETURNDATASIZE PUSH1 0x0 REVERT JUMPDEST POP POP POP POP PUSH1 0x40 MLOAD RETURNDATASIZE PUSH1 0x1F NOT PUSH1 0x1F DUP3 ADD AND DUP3 ADD DUP1 PUSH1 0x40 MSTORE POP DUP2 ADD SWAP1 PUSH2 0x83E SWAP2 SWAP1 PUSH2 0x1C10 JUMP JUMPDEST PUSH2 0x845 JUMP JUMPDEST DUP9 JUMPDEST SWAP1 POP PUSH1 0x0 DUP3 EQ ISZERO PUSH2 0x95A JUMPI DUP8 PUSH1 0x0 DUP1 SLOAD SWAP1 PUSH2 0x100 EXP SWAP1 DIV PUSH20 0xFFFFFFFFFFFFFFFFFFFFFFFFFFFFFFFFFFFFFFFF AND PUSH20 0xFFFFFFFFFFFFFFFFFFFFFFFFFFFFFFFFFFFFFFFF AND PUSH4 0x11AA4CBA DUP6 PUSH1 0x0 ADD MLOAD PUSH1 0x40 MLOAD PUSH1 0x20 ADD PUSH2 0x8A2 SWAP2 SWAP1 PUSH2 0x1C9F JUMP JUMPDEST PUSH1 0x40 MLOAD PUSH1 0x20 DUP2 DUP4 SUB SUB DUP2 MSTORE SWAP1 PUSH1 0x40 MSTORE PUSH1 0x0 DUP1 PUSH1 0x40 MLOAD DUP5 PUSH4 0xFFFFFFFF AND PUSH1 0xE0 SHL DUP2 MSTORE PUSH1 0x4 ADD PUSH2 0x8D2 SWAP4 SWAP3 SWAP2 SWAP1 PUSH2 0x1D00 JUMP JUMPDEST PUSH1 0x0 PUSH1 0x40 MLOAD DUP1 DUP4 SUB DUP2 DUP7 GAS STATICCALL ISZERO DUP1 ISZERO PUSH2 0x8EF JUMPI RETURNDATASIZE PUSH1 0x0 DUP1 RETURNDATACOPY RETURNDATASIZE PUSH1 0x0 REVERT JUMPDEST POP POP POP POP PUSH1 0x40 MLOAD RETURNDATASIZE PUSH1 0x0 DUP3 RETURNDATACOPY RETURNDATASIZE PUSH1 0x1F NOT PUSH1 0x1F DUP3 ADD AND DUP3 ADD DUP1 PUSH1 0x40 MSTORE POP DUP2 ADD SWAP1 PUSH2 0x918 SWAP2 SWAP1 PUSH2 0x1E5F JUMP JUMPDEST PUSH1 0x40 MLOAD PUSH1 0x20 ADD PUSH2 0x928 SWAP2 SWAP1 PUSH2 0x1EEF JUMP JUMPDEST PUSH1 0x40 MLOAD PUSH1 0x20 DUP2 DUP4 SUB SUB DUP2 MSTORE SWAP1 PUSH1 0x40 MSTORE PUSH1 0x40 MLOAD PUSH1 0x20 ADD PUSH2 0x948 SWAP3 SWAP2 SWAP1 PUSH2 0x1F06 JUMP JUMPDEST PUSH1 0x40 MLOAD PUSH1 0x20 DUP2 DUP4 SUB SUB DUP2 MSTORE SWAP1 PUSH1 0x40 MSTORE SWAP8 POP JUMPDEST DUP8 DUP5 PUSH20 0xFFFFFFFFFFFFFFFFFFFFFFFFFFFFFFFFFFFFFFFF AND PUSH4 0x11AA4CBA DUP6 PUSH1 0x20 ADD MLOAD DUP6 DUP6 PUSH1 0x40 MLOAD DUP5 PUSH4 0xFFFFFFFF AND PUSH1 0xE0 SHL DUP2 MSTORE PUSH1 0x4 ADD PUSH2 0x99C SWAP4 SWAP3 SWAP2 SWAP1 PUSH2 0x1F2A JUMP JUMPDEST PUSH1 0x0 PUSH1 0x40 MLOAD DUP1 DUP4 SUB DUP2 DUP7 GAS STATICCALL ISZERO DUP1 ISZERO PUSH2 0x9B9 JUMPI RETURNDATASIZE PUSH1 0x0 DUP1 RETURNDATACOPY RETURNDATASIZE PUSH1 0x0 REVERT JUMPDEST POP POP POP POP PUSH1 0x40 MLOAD RETURNDATASIZE PUSH1 0x0 DUP3 RETURNDATACOPY RETURNDATASIZE PUSH1 0x1F NOT PUSH1 0x1F DUP3 ADD AND DUP3 ADD DUP1 PUSH1 0x40 MSTORE POP DUP2 ADD SWAP1 PUSH2 0x9E2 SWAP2 SWAP1 PUSH2 0x1E5F JUMP JUMPDEST PUSH1 0x40 MLOAD PUSH1 0x20 ADD PUSH2 0x9F2 SWAP2 SWAP1 PUSH2 0x1EEF JUMP JUMPDEST PUSH1 0x40 MLOAD PUSH1 0x20 DUP2 DUP4 SUB SUB DUP2 MSTORE SWAP1 PUSH1 0x40 MSTORE PUSH1 0x40 MLOAD PUSH1 0x20 ADD PUSH2 0xA12 SWAP3 SWAP2 SWAP1 PUSH2 0x1F06 JUMP JUMPDEST PUSH1 0x40 MLOAD PUSH1 0x20 DUP2 DUP4 SUB SUB DUP2 MSTORE SWAP1 PUSH1 0x40 MSTORE SWAP8 POP PUSH1 0x0 DUP12 DUP9 EQ DUP1 ISZERO PUSH2 0xAB1 JUMPI POP DUP5 PUSH20 0xFFFFFFFFFFFFFFFFFFFFFFFFFFFFFFFFFFFFFFFF AND PUSH4 0xD431A42F DUP6 PUSH1 0x20 ADD MLOAD PUSH1 0x40 MLOAD DUP3 PUSH4 0xFFFFFFFF AND PUSH1 0xE0 SHL DUP2 MSTORE PUSH1 0x4 ADD PUSH2 0xA6C SWAP2 SWAP1 PUSH2 0x19C3 JUMP JUMPDEST PUSH1 0x20 PUSH1 0x40 MLOAD DUP1 DUP4 SUB DUP2 DUP7 GAS STATICCALL ISZERO DUP1 ISZERO PUSH2 0xA89 JUMPI RETURNDATASIZE PUSH1 0x0 DUP1 RETURNDATACOPY RETURNDATASIZE PUSH1 0x0 REVERT JUMPDEST POP POP POP POP PUSH1 0x40 MLOAD RETURNDATASIZE PUSH1 0x1F NOT PUSH1 0x1F DUP3 ADD AND DUP3 ADD DUP1 PUSH1 0x40 MSTORE POP DUP2 ADD SWAP1 PUSH2 0xAAD SWAP2 SWAP1 PUSH2 0x1C10 JUMP JUMPDEST DUP11 EQ ISZERO JUMPDEST SWAP1 POP DUP1 PUSH2 0xBC2 JUMPI DUP9 PUSH1 0x0 DUP1 SLOAD SWAP1 PUSH2 0x100 EXP SWAP1 DIV PUSH20 0xFFFFFFFFFFFFFFFFFFFFFFFFFFFFFFFFFFFFFFFF AND PUSH20 0xFFFFFFFFFFFFFFFFFFFFFFFFFFFFFFFFFFFFFFFF AND PUSH4 0x11AA4CBA DUP7 PUSH1 0x0 ADD MLOAD PUSH1 0x40 MLOAD PUSH1 0x20 ADD PUSH2 0xB0A SWAP2 SWAP1 PUSH2 0x1C9F JUMP JUMPDEST PUSH1 0x40 MLOAD PUSH1 0x20 DUP2 DUP4 SUB SUB DUP2 MSTORE SWAP1 PUSH1 0x40 MSTORE PUSH1 0x1 DUP1 PUSH1 0x40 MLOAD DUP5 PUSH4 0xFFFFFFFF AND PUSH1 0xE0 SHL DUP2 MSTORE PUSH1 0x4 ADD PUSH2 0xB3A SWAP4 SWAP3 SWAP2 SWAP1 PUSH2 0x1FA3 JUMP JUMPDEST PUSH1 0x0 PUSH1 0x40 MLOAD DUP1 DUP4 SUB DUP2 DUP7 GAS STATICCALL ISZERO DUP1 ISZERO PUSH2 0xB57 JUMPI RETURNDATASIZE PUSH1 0x0 DUP1 RETURNDATACOPY RETURNDATASIZE PUSH1 0x0 REVERT JUMPDEST POP POP POP POP PUSH1 0x40 MLOAD RETURNDATASIZE PUSH1 0x0 DUP3 RETURNDATACOPY RETURNDATASIZE PUSH1 0x1F NOT PUSH1 0x1F DUP3 ADD AND DUP3 ADD DUP1 PUSH1 0x40 MSTORE POP DUP2 ADD SWAP1 PUSH2 0xB80 SWAP2 SWAP1 PUSH2 0x1E5F JUMP JUMPDEST PUSH1 0x40 MLOAD PUSH1 0x20 ADD PUSH2 0xB90 SWAP2 SWAP1 PUSH2 0x1EEF JUMP JUMPDEST PUSH1 0x40 MLOAD PUSH1 0x20 DUP2 DUP4 SUB SUB DUP2 MSTORE SWAP1 PUSH1 0x40 MSTORE PUSH1 0x40 MLOAD PUSH1 0x20 ADD PUSH2 0xBB0 SWAP3 SWAP2 SWAP1 PUSH2 0x1F06 JUMP JUMPDEST PUSH1 0x40 MLOAD PUSH1 0x20 DUP2 DUP4 SUB SUB DUP2 MSTORE SWAP1 PUSH1 0x40 MSTORE SWAP9 POP JUMPDEST POP POP POP POP POP POP POP DUP1 DUP1 PUSH2 0xBD4 SWAP1 PUSH2 0x1A98 JUMP JUMPDEST SWAP2 POP POP PUSH2 0x5A4 JUMP JUMPDEST POP PUSH1 0x0 DUP9 EQ ISZERO PUSH2 0xCAC JUMPI PUSH1 0x0 DUP1 SLOAD SWAP1 PUSH2 0x100 EXP SWAP1 DIV PUSH20 0xFFFFFFFFFFFFFFFFFFFFFFFFFFFFFFFFFFFFFFFF AND PUSH20 0xFFFFFFFFFFFFFFFFFFFFFFFFFFFFFFFFFFFFFFFF AND PUSH4 0x11AA4CBA PUSH1 0x0 DUP1 PUSH1 0x40 MLOAD DUP4 PUSH4 0xFFFFFFFF AND PUSH1 0xE0 SHL DUP2 MSTORE PUSH1 0x4 ADD PUSH2 0xC42 SWAP3 SWAP2 SWAP1 PUSH2 0x202D JUMP JUMPDEST PUSH1 0x0 PUSH1 0x40 MLOAD DUP1 DUP4 SUB DUP2 DUP7 GAS STATICCALL ISZERO DUP1 ISZERO PUSH2 0xC5F JUMPI RETURNDATASIZE PUSH1 0x0 DUP1 RETURNDATACOPY RETURNDATASIZE PUSH1 0x0 REVERT JUMPDEST POP POP POP POP PUSH1 0x40 MLOAD RETURNDATASIZE PUSH1 0x0 DUP3 RETURNDATACOPY RETURNDATASIZE PUSH1 0x1F NOT PUSH1 0x1F DUP3 ADD AND DUP3 ADD DUP1 PUSH1 0x40 MSTORE POP DUP2 ADD SWAP1 PUSH2 0xC88 SWAP2 SWAP1 PUSH2 0x1E5F JUMP JUMPDEST DUP2 PUSH1 0x40 MLOAD PUSH1 0x20 ADD PUSH2 0xC9A SWAP3 SWAP2 SWAP1 PUSH2 0x1F06 JUMP JUMPDEST PUSH1 0x40 MLOAD PUSH1 0x20 DUP2 DUP4 SUB SUB DUP2 MSTORE SWAP1 PUSH1 0x40 MSTORE SWAP1 POP JUMPDEST PUSH1 0x1 PUSH1 0x6 SLOAD PUSH2 0xCBB SWAP2 SWAP1 PUSH2 0x1B66 JUMP JUMPDEST DUP9 EQ ISZERO PUSH2 0xD88 JUMPI DUP1 PUSH1 0x0 DUP1 SLOAD SWAP1 PUSH2 0x100 EXP SWAP1 DIV PUSH20 0xFFFFFFFFFFFFFFFFFFFFFFFFFFFFFFFFFFFFFFFF AND PUSH20 0xFFFFFFFFFFFFFFFFFFFFFFFFFFFFFFFFFFFFFFFF AND PUSH4 0x11AA4CBA PUSH1 0x1 DUP1 PUSH1 0x40 MLOAD DUP4 PUSH4 0xFFFFFFFF AND PUSH1 0xE0 SHL DUP2 MSTORE PUSH1 0x4 ADD PUSH2 0xD1F SWAP3 SWAP2 SWAP1 PUSH2 0x2069 JUMP JUMPDEST PUSH1 0x0 PUSH1 0x40 MLOAD DUP1 DUP4 SUB DUP2 DUP7 GAS STATICCALL ISZERO DUP1 ISZERO PUSH2 0xD3C JUMPI RETURNDATASIZE PUSH1 0x0 DUP1 RETURNDATACOPY RETURNDATASIZE PUSH1 0x0 REVERT JUMPDEST POP POP POP POP PUSH1 0x40 MLOAD RETURNDATASIZE PUSH1 0x0 DUP3 RETURNDATACOPY RETURNDATASIZE PUSH1 0x1F NOT PUSH1 0x1F DUP3 ADD AND DUP3 ADD DUP1 PUSH1 0x40 MSTORE POP DUP2 ADD SWAP1 PUSH2 0xD65 SWAP2 SWAP1 PUSH2 0x1E5F JUMP JUMPDEST PUSH1 0x40 MLOAD PUSH1 0x20 ADD PUSH2 0xD76 SWAP3 SWAP2 SWAP1 PUSH2 0x1F06 JUMP JUMPDEST PUSH1 0x40 MLOAD PUSH1 0x20 DUP2 DUP4 SUB SUB DUP2 MSTORE SWAP1 PUSH1 0x40 MSTORE SWAP1 POP JUMPDEST DUP1 SWAP7 POP POP POP POP POP POP POP SWAP2 SWAP1 POP JUMP JUMPDEST PUSH1 0x0 JUMPDEST DUP3 DUP3 SWAP1 POP DUP2 LT ISZERO PUSH2 0xF48 JUMPI PUSH1 0x40 MLOAD DUP1 PUSH1 0x40 ADD PUSH1 0x40 MSTORE DUP1 DUP5 DUP5 DUP5 DUP2 DUP2 LT PUSH2 0xDC2 JUMPI PUSH2 0xDC1 PUSH2 0x1AE1 JUMP JUMPDEST JUMPDEST SWAP1 POP PUSH1 0x20 MUL DUP2 ADD SWAP1 PUSH2 0xDD4 SWAP2 SWAP1 PUSH2 0x20B4 JUMP JUMPDEST PUSH1 0x0 PUSH1 0x2 DUP2 LT PUSH2 0xDE7 JUMPI PUSH2 0xDE6 PUSH2 0x1AE1 JUMP JUMPDEST JUMPDEST PUSH1 0x20 MUL DUP2 ADD SWAP1 PUSH2 0xDF7 SWAP2 SWAP1 PUSH2 0x20DC JUMP JUMPDEST DUP1 DUP1 PUSH1 0x1F ADD PUSH1 0x20 DUP1 SWAP2 DIV MUL PUSH1 0x20 ADD PUSH1 0x40 MLOAD SWAP1 DUP2 ADD PUSH1 0x40 MSTORE DUP1 SWAP4 SWAP3 SWAP2 SWAP1 DUP2 DUP2 MSTORE PUSH1 0x20 ADD DUP4 DUP4 DUP1 DUP3 DUP5 CALLDATACOPY PUSH1 0x0 DUP2 DUP5 ADD MSTORE PUSH1 0x1F NOT PUSH1 0x1F DUP3 ADD AND SWAP1 POP DUP1 DUP4 ADD SWAP3 POP POP POP POP POP POP POP DUP2 MSTORE PUSH1 0x20 ADD DUP5 DUP5 DUP5 DUP2 DUP2 LT PUSH2 0xE52 JUMPI PUSH2 0xE51 PUSH2 0x1AE1 JUMP JUMPDEST JUMPDEST SWAP1 POP PUSH1 0x20 MUL DUP2 ADD SWAP1 PUSH2 0xE64 SWAP2 SWAP1 PUSH2 0x20B4 JUMP JUMPDEST PUSH1 0x1 PUSH1 0x2 DUP2 LT PUSH2 0xE77 JUMPI PUSH2 0xE76 PUSH2 0x1AE1 JUMP JUMPDEST JUMPDEST PUSH1 0x20 MUL DUP2 ADD SWAP1 PUSH2 0xE87 SWAP2 SWAP1 PUSH2 0x20DC JUMP JUMPDEST DUP1 DUP1 PUSH1 0x1F ADD PUSH1 0x20 DUP1 SWAP2 DIV MUL PUSH1 0x20 ADD PUSH1 0x40 MLOAD SWAP1 DUP2 ADD PUSH1 0x40 MSTORE DUP1 SWAP4 SWAP3 SWAP2 SWAP1 DUP2 DUP2 MSTORE PUSH1 0x20 ADD DUP4 DUP4 DUP1 DUP3 DUP5 CALLDATACOPY PUSH1 0x0 DUP2 DUP5 ADD MSTORE PUSH1 0x1F NOT PUSH1 0x1F DUP3 ADD AND SWAP1 POP DUP1 DUP4 ADD SWAP3 POP POP POP POP POP POP POP DUP2 MSTORE POP PUSH1 0x2 PUSH1 0x0 DUP4 DUP2 MSTORE PUSH1 0x20 ADD SWAP1 DUP2 MSTORE PUSH1 0x20 ADD PUSH1 0x0 KECCAK256 PUSH1 0x0 DUP3 ADD MLOAD DUP2 PUSH1 0x0 ADD SWAP1 DUP1 MLOAD SWAP1 PUSH1 0x20 ADD SWAP1 PUSH2 0xEFC SWAP3 SWAP2 SWAP1 PUSH2 0x147F JUMP JUMPDEST POP PUSH1 0x20 DUP3 ADD MLOAD DUP2 PUSH1 0x1 ADD SWAP1 DUP1 MLOAD SWAP1 PUSH1 0x20 ADD SWAP1 PUSH2 0xF19 SWAP3 SWAP2 SWAP1 PUSH2 0x147F JUMP JUMPDEST POP SWAP1 POP POP PUSH1 0x3 PUSH1 0x0 DUP2 SLOAD DUP1 SWAP3 SWAP2 SWAP1 PUSH2 0xF30 SWAP1 PUSH2 0x1A98 JUMP JUMPDEST SWAP2 SWAP1 POP SSTORE POP DUP1 DUP1 PUSH2 0xF40 SWAP1 PUSH2 0x1A98 JUMP JUMPDEST SWAP2 POP POP PUSH2 0xD99 JUMP JUMPDEST POP POP POP JUMP JUMPDEST PUSH1 0x60 PUSH1 0x0 DUP1 SLOAD SWAP1 PUSH2 0x100 EXP SWAP1 DIV PUSH20 0xFFFFFFFFFFFFFFFFFFFFFFFFFFFFFFFFFFFFFFFF AND PUSH20 0xFFFFFFFFFFFFFFFFFFFFFFFFFFFFFFFFFFFFFFFF AND PUSH4 0x11AA4CBA PUSH1 0x0 DUP1 PUSH1 0x40 MLOAD DUP4 PUSH4 0xFFFFFFFF AND PUSH1 0xE0 SHL DUP2 MSTORE PUSH1 0x4 ADD PUSH2 0xFAB SWAP3 SWAP2 SWAP1 PUSH2 0x202D JUMP JUMPDEST PUSH1 0x0 PUSH1 0x40 MLOAD DUP1 DUP4 SUB DUP2 DUP7 GAS STATICCALL ISZERO DUP1 ISZERO PUSH2 0xFC8 JUMPI RETURNDATASIZE PUSH1 0x0 DUP1 RETURNDATACOPY RETURNDATASIZE PUSH1 0x0 REVERT JUMPDEST POP POP POP POP PUSH1 0x40 MLOAD RETURNDATASIZE PUSH1 0x0 DUP3 RETURNDATACOPY RETURNDATASIZE PUSH1 0x1F NOT PUSH1 0x1F DUP3 ADD AND DUP3 ADD DUP1 PUSH1 0x40 MSTORE POP DUP2 ADD SWAP1 PUSH2 0xFF1 SWAP2 SWAP1 PUSH2 0x1E5F JUMP JUMPDEST SWAP1 POP SWAP1 JUMP JUMPDEST PUSH1 0x4 PUSH1 0x20 MSTORE DUP1 PUSH1 0x0 MSTORE PUSH1 0x40 PUSH1 0x0 KECCAK256 PUSH1 0x0 SWAP2 POP SWAP1 POP DUP1 PUSH1 0x0 ADD DUP1 SLOAD PUSH2 0x1019 SWAP1 PUSH2 0x1BC9 JUMP JUMPDEST DUP1 PUSH1 0x1F ADD PUSH1 0x20 DUP1 SWAP2 DIV MUL PUSH1 0x20 ADD PUSH1 0x40 MLOAD SWAP1 DUP2 ADD PUSH1 0x40 MSTORE DUP1 SWAP3 SWAP2 SWAP1 DUP2 DUP2 MSTORE PUSH1 0x20 ADD DUP3 DUP1 SLOAD PUSH2 0x1045 SWAP1 PUSH2 0x1BC9 JUMP JUMPDEST DUP1 ISZERO PUSH2 0x1092 JUMPI DUP1 PUSH1 0x1F LT PUSH2 0x1067 JUMPI PUSH2 0x100 DUP1 DUP4 SLOAD DIV MUL DUP4 MSTORE SWAP2 PUSH1 0x20 ADD SWAP2 PUSH2 0x1092 JUMP JUMPDEST DUP3 ADD SWAP2 SWAP1 PUSH1 0x0 MSTORE PUSH1 0x20 PUSH1 0x0 KECCAK256 SWAP1 JUMPDEST DUP2 SLOAD DUP2 MSTORE SWAP1 PUSH1 0x1 ADD SWAP1 PUSH1 0x20 ADD DUP1 DUP4 GT PUSH2 0x1075 JUMPI DUP3 SWAP1 SUB PUSH1 0x1F AND DUP3 ADD SWAP2 JUMPDEST POP POP POP POP POP SWAP1 DUP1 PUSH1 0x1 ADD DUP1 SLOAD PUSH2 0x10A7 SWAP1 PUSH2 0x1BC9 JUMP JUMPDEST DUP1 PUSH1 0x1F ADD PUSH1 0x20 DUP1 SWAP2 DIV MUL PUSH1 0x20 ADD PUSH1 0x40 MLOAD SWAP1 DUP2 ADD PUSH1 0x40 MSTORE DUP1 SWAP3 SWAP2 SWAP1 DUP2 DUP2 MSTORE PUSH1 0x20 ADD DUP3 DUP1 SLOAD PUSH2 0x10D3 SWAP1 PUSH2 0x1BC9 JUMP JUMPDEST DUP1 ISZERO PUSH2 0x1120 JUMPI DUP1 PUSH1 0x1F LT PUSH2 0x10F5 JUMPI PUSH2 0x100 DUP1 DUP4 SLOAD DIV MUL DUP4 MSTORE SWAP2 PUSH1 0x20 ADD SWAP2 PUSH2 0x1120 JUMP JUMPDEST DUP3 ADD SWAP2 SWAP1 PUSH1 0x0 MSTORE PUSH1 0x20 PUSH1 0x0 KECCAK256 SWAP1 JUMPDEST DUP2 SLOAD DUP2 MSTORE SWAP1 PUSH1 0x1 ADD SWAP1 PUSH1 0x20 ADD DUP1 DUP4 GT PUSH2 0x1103 JUMPI DUP3 SWAP1 SUB PUSH1 0x1F AND DUP3 ADD SWAP2 JUMPDEST POP POP POP POP POP SWAP1 POP DUP3 JUMP JUMPDEST PUSH1 0x2 PUSH1 0x20 MSTORE DUP1 PUSH1 0x0 MSTORE PUSH1 0x40 PUSH1 0x0 KECCAK256 PUSH1 0x0 SWAP2 POP SWAP1 POP DUP1 PUSH1 0x0 ADD DUP1 SLOAD PUSH2 0x114D SWAP1 PUSH2 0x1BC9 JUMP JUMPDEST DUP1 PUSH1 0x1F ADD PUSH1 0x20 DUP1 SWAP2 DIV MUL PUSH1 0x20 ADD PUSH1 0x40 MLOAD SWAP1 DUP2 ADD PUSH1 0x40 MSTORE DUP1 SWAP3 SWAP2 SWAP1 DUP2 DUP2 MSTORE PUSH1 0x20 ADD DUP3 DUP1 SLOAD PUSH2 0x1179 SWAP1 PUSH2 0x1BC9 JUMP JUMPDEST DUP1 ISZERO PUSH2 0x11C6 JUMPI DUP1 PUSH1 0x1F LT PUSH2 0x119B JUMPI PUSH2 0x100 DUP1 DUP4 SLOAD DIV MUL DUP4 MSTORE SWAP2 PUSH1 0x20 ADD SWAP2 PUSH2 0x11C6 JUMP JUMPDEST DUP3 ADD SWAP2 SWAP1 PUSH1 0x0 MSTORE PUSH1 0x20 PUSH1 0x0 KECCAK256 SWAP1 JUMPDEST DUP2 SLOAD DUP2 MSTORE SWAP1 PUSH1 0x1 ADD SWAP1 PUSH1 0x20 ADD DUP1 DUP4 GT PUSH2 0x11A9 JUMPI DUP3 SWAP1 SUB PUSH1 0x1F AND DUP3 ADD SWAP2 JUMPDEST POP POP POP POP POP SWAP1 DUP1 PUSH1 0x1 ADD DUP1 SLOAD PUSH2 0x11DB SWAP1 PUSH2 0x1BC9 JUMP JUMPDEST DUP1 PUSH1 0x1F ADD PUSH1 0x20 DUP1 SWAP2 DIV MUL PUSH1 0x20 ADD PUSH1 0x40 MLOAD SWAP1 DUP2 ADD PUSH1 0x40 MSTORE DUP1 SWAP3 SWAP2 SWAP1 DUP2 DUP2 MSTORE PUSH1 0x20 ADD DUP3 DUP1 SLOAD PUSH2 0x1207 SWAP1 PUSH2 0x1BC9 JUMP JUMPDEST DUP1 ISZERO PUSH2 0x1254 JUMPI DUP1 PUSH1 0x1F LT PUSH2 0x1229 JUMPI PUSH2 0x100 DUP1 DUP4 SLOAD DIV MUL DUP4 MSTORE SWAP2 PUSH1 0x20 ADD SWAP2 PUSH2 0x1254 JUMP JUMPDEST DUP3 ADD SWAP2 SWAP1 PUSH1 0x0 MSTORE PUSH1 0x20 PUSH1 0x0 KECCAK256 SWAP1 JUMPDEST DUP2 SLOAD DUP2 MSTORE SWAP1 PUSH1 0x1 ADD SWAP1 PUSH1 0x20 ADD DUP1 DUP4 GT PUSH2 0x1237 JUMPI DUP3 SWAP1 SUB PUSH1 0x1F AND DUP3 ADD SWAP2 JUMPDEST POP POP POP POP POP SWAP1 POP DUP3 JUMP JUMPDEST PUSH1 0x5 SLOAD DUP2 JUMP JUMPDEST PUSH1 0x0 DUP1 SLOAD SWAP1 PUSH2 0x100 EXP SWAP1 DIV PUSH20 0xFFFFFFFFFFFFFFFFFFFFFFFFFFFFFFFFFFFFFFFF AND DUP2 JUMP JUMPDEST PUSH1 0x0 JUMPDEST DUP3 DUP3 SWAP1 POP DUP2 LT ISZERO PUSH2 0x143A JUMPI PUSH1 0x40 MLOAD DUP1 PUSH1 0x40 ADD PUSH1 0x40 MSTORE DUP1 DUP5 DUP5 DUP5 DUP2 DUP2 LT PUSH2 0x12B4 JUMPI PUSH2 0x12B3 PUSH2 0x1AE1 JUMP JUMPDEST JUMPDEST SWAP1 POP PUSH1 0x20 MUL DUP2 ADD SWAP1 PUSH2 0x12C6 SWAP2 SWAP1 PUSH2 0x20B4 JUMP JUMPDEST PUSH1 0x0 PUSH1 0x2 DUP2 LT PUSH2 0x12D9 JUMPI PUSH2 0x12D8 PUSH2 0x1AE1 JUMP JUMPDEST JUMPDEST PUSH1 0x20 MUL DUP2 ADD SWAP1 PUSH2 0x12E9 SWAP2 SWAP1 PUSH2 0x20DC JUMP JUMPDEST DUP1 DUP1 PUSH1 0x1F ADD PUSH1 0x20 DUP1 SWAP2 DIV MUL PUSH1 0x20 ADD PUSH1 0x40 MLOAD SWAP1 DUP2 ADD PUSH1 0x40 MSTORE DUP1 SWAP4 SWAP3 SWAP2 SWAP1 DUP2 DUP2 MSTORE PUSH1 0x20 ADD DUP4 DUP4 DUP1 DUP3 DUP5 CALLDATACOPY PUSH1 0x0 DUP2 DUP5 ADD MSTORE PUSH1 0x1F NOT PUSH1 0x1F DUP3 ADD AND SWAP1 POP DUP1 DUP4 ADD SWAP3 POP POP POP POP POP POP POP DUP2 MSTORE PUSH1 0x20 ADD DUP5 DUP5 DUP5 DUP2 DUP2 LT PUSH2 0x1344 JUMPI PUSH2 0x1343 PUSH2 0x1AE1 JUMP JUMPDEST JUMPDEST SWAP1 POP PUSH1 0x20 MUL DUP2 ADD SWAP1 PUSH2 0x1356 SWAP2 SWAP1 PUSH2 0x20B4 JUMP JUMPDEST PUSH1 0x1 PUSH1 0x2 DUP2 LT PUSH2 0x1369 JUMPI PUSH2 0x1368 PUSH2 0x1AE1 JUMP JUMPDEST JUMPDEST PUSH1 0x20 MUL DUP2 ADD SWAP1 PUSH2 0x1379 SWAP2 SWAP1 PUSH2 0x20DC JUMP JUMPDEST DUP1 DUP1 PUSH1 0x1F ADD PUSH1 0x20 DUP1 SWAP2 DIV MUL PUSH1 0x20 ADD PUSH1 0x40 MLOAD SWAP1 DUP2 ADD PUSH1 0x40 MSTORE DUP1 SWAP4 SWAP3 SWAP2 SWAP1 DUP2 DUP2 MSTORE PUSH1 0x20 ADD DUP4 DUP4 DUP1 DUP3 DUP5 CALLDATACOPY PUSH1 0x0 DUP2 DUP5 ADD MSTORE PUSH1 0x1F NOT PUSH1 0x1F DUP3 ADD AND SWAP1 POP DUP1 DUP4 ADD SWAP3 POP POP POP POP POP POP POP DUP2 MSTORE POP PUSH1 0x4 PUSH1 0x0 DUP4 DUP2 MSTORE PUSH1 0x20 ADD SWAP1 DUP2 MSTORE PUSH1 0x20 ADD PUSH1 0x0 KECCAK256 PUSH1 0x0 DUP3 ADD MLOAD DUP2 PUSH1 0x0 ADD SWAP1 DUP1 MLOAD SWAP1 PUSH1 0x20 ADD SWAP1 PUSH2 0x13EE SWAP3 SWAP2 SWAP1 PUSH2 0x147F JUMP JUMPDEST POP PUSH1 0x20 DUP3 ADD MLOAD DUP2 PUSH1 0x1 ADD SWAP1 DUP1 MLOAD SWAP1 PUSH1 0x20 ADD SWAP1 PUSH2 0x140B SWAP3 SWAP2 SWAP1 PUSH2 0x147F JUMP JUMPDEST POP SWAP1 POP POP PUSH1 0x5 PUSH1 0x0 DUP2 SLOAD DUP1 SWAP3 SWAP2 SWAP1 PUSH2 0x1422 SWAP1 PUSH2 0x1A98 JUMP JUMPDEST SWAP2 SWAP1 POP SSTORE POP DUP1 DUP1 PUSH2 0x1432 SWAP1 PUSH2 0x1A98 JUMP JUMPDEST SWAP2 POP POP PUSH2 0x128B JUMP JUMPDEST POP POP POP JUMP JUMPDEST DUP3 PUSH1 0x4 DUP2 ADD SWAP3 DUP3 ISZERO PUSH2 0x146E JUMPI SWAP2 PUSH1 0x20 MUL DUP3 ADD JUMPDEST DUP3 DUP2 GT ISZERO PUSH2 0x146D JUMPI DUP3 CALLDATALOAD DUP3 SSTORE SWAP2 PUSH1 0x20 ADD SWAP2 SWAP1 PUSH1 0x1 ADD SWAP1 PUSH2 0x1452 JUMP JUMPDEST JUMPDEST POP SWAP1 POP PUSH2 0x147B SWAP2 SWAP1 PUSH2 0x1505 JUMP JUMPDEST POP SWAP1 JUMP JUMPDEST DUP3 DUP1 SLOAD PUSH2 0x148B SWAP1 PUSH2 0x1BC9 JUMP JUMPDEST SWAP1 PUSH1 0x0 MSTORE PUSH1 0x20 PUSH1 0x0 KECCAK256 SWAP1 PUSH1 0x1F ADD PUSH1 0x20 SWAP1 DIV DUP2 ADD SWAP3 DUP3 PUSH2 0x14AD JUMPI PUSH1 0x0 DUP6 SSTORE PUSH2 0x14F4 JUMP JUMPDEST DUP3 PUSH1 0x1F LT PUSH2 0x14C6 JUMPI DUP1 MLOAD PUSH1 0xFF NOT AND DUP4 DUP1 ADD OR DUP6 SSTORE PUSH2 0x14F4 JUMP JUMPDEST DUP3 DUP1 ADD PUSH1 0x1 ADD DUP6 SSTORE DUP3 ISZERO PUSH2 0x14F4 JUMPI SWAP2 DUP3 ADD JUMPDEST DUP3 DUP2 GT ISZERO PUSH2 0x14F3 JUMPI DUP3 MLOAD DUP3 SSTORE SWAP2 PUSH1 0x20 ADD SWAP2 SWAP1 PUSH1 0x1 ADD SWAP1 PUSH2 0x14D8 JUMP JUMPDEST JUMPDEST POP SWAP1 POP PUSH2 0x1501 SWAP2 SWAP1 PUSH2 0x1505 JUMP JUMPDEST POP SWAP1 JUMP JUMPDEST JUMPDEST DUP1 DUP3 GT ISZERO PUSH2 0x151E JUMPI PUSH1 0x0 DUP2 PUSH1 0x0 SWAP1 SSTORE POP PUSH1 0x1 ADD PUSH2 0x1506 JUMP JUMPDEST POP SWAP1 JUMP JUMPDEST PUSH1 0x0 PUSH1 0x40 MLOAD SWAP1 POP SWAP1 JUMP JUMPDEST PUSH1 0x0 DUP1 REVERT JUMPDEST PUSH1 0x0 DUP1 REVERT JUMPDEST PUSH1 0x0 PUSH20 0xFFFFFFFFFFFFFFFFFFFFFFFFFFFFFFFFFFFFFFFF DUP3 AND SWAP1 POP SWAP2 SWAP1 POP JUMP JUMPDEST PUSH1 0x0 PUSH2 0x1561 DUP3 PUSH2 0x1536 JUMP JUMPDEST SWAP1 POP SWAP2 SWAP1 POP JUMP JUMPDEST PUSH1 0x0 PUSH2 0x1573 DUP3 PUSH2 0x1556 JUMP JUMPDEST SWAP1 POP SWAP2 SWAP1 POP JUMP JUMPDEST PUSH2 0x1583 DUP2 PUSH2 0x1568 JUMP JUMPDEST DUP2 EQ PUSH2 0x158E JUMPI PUSH1 0x0 DUP1 REVERT JUMPDEST POP JUMP JUMPDEST PUSH1 0x0 DUP2 CALLDATALOAD SWAP1 POP PUSH2 0x15A0 DUP2 PUSH2 0x157A JUMP JUMPDEST SWAP3 SWAP2 POP POP JUMP JUMPDEST PUSH1 0x0 PUSH1 0x20 DUP3 DUP5 SUB SLT ISZERO PUSH2 0x15BC JUMPI PUSH2 0x15BB PUSH2 0x152C JUMP JUMPDEST JUMPDEST PUSH1 0x0 PUSH2 0x15CA DUP5 DUP3 DUP6 ADD PUSH2 0x1591 JUMP JUMPDEST SWAP2 POP POP SWAP3 SWAP2 POP POP JUMP JUMPDEST PUSH1 0x0 DUP2 SWAP1 POP SWAP2 SWAP1 POP JUMP JUMPDEST PUSH2 0x15E6 DUP2 PUSH2 0x15D3 JUMP JUMPDEST DUP3 MSTORE POP POP JUMP JUMPDEST PUSH1 0x0 PUSH1 0x20 DUP3 ADD SWAP1 POP PUSH2 0x1601 PUSH1 0x0 DUP4 ADD DUP5 PUSH2 0x15DD JUMP JUMPDEST SWAP3 SWAP2 POP POP JUMP JUMPDEST PUSH1 0x0 DUP1 REVERT JUMPDEST PUSH1 0x0 DUP1 REVERT JUMPDEST PUSH1 0x0 DUP1 REVERT JUMPDEST PUSH1 0x0 DUP1 DUP4 PUSH1 0x1F DUP5 ADD SLT PUSH2 0x162C JUMPI PUSH2 0x162B PUSH2 0x1607 JUMP JUMPDEST JUMPDEST DUP3 CALLDATALOAD SWAP1 POP PUSH8 0xFFFFFFFFFFFFFFFF DUP2 GT ISZERO PUSH2 0x1649 JUMPI PUSH2 0x1648 PUSH2 0x160C JUMP JUMPDEST JUMPDEST PUSH1 0x20 DUP4 ADD SWAP2 POP DUP4 PUSH1 0x80 DUP3 MUL DUP4 ADD GT ISZERO PUSH2 0x1665 JUMPI PUSH2 0x1664 PUSH2 0x1611 JUMP JUMPDEST JUMPDEST SWAP3 POP SWAP3 SWAP1 POP JUMP JUMPDEST PUSH1 0x0 DUP1 PUSH1 0x20 DUP4 DUP6 SUB SLT ISZERO PUSH2 0x1683 JUMPI PUSH2 0x1682 PUSH2 0x152C JUMP JUMPDEST JUMPDEST PUSH1 0x0 DUP4 ADD CALLDATALOAD PUSH8 0xFFFFFFFFFFFFFFFF DUP2 GT ISZERO PUSH2 0x16A1 JUMPI PUSH2 0x16A0 PUSH2 0x1531 JUMP JUMPDEST JUMPDEST PUSH2 0x16AD DUP6 DUP3 DUP7 ADD PUSH2 0x1616 JUMP JUMPDEST SWAP3 POP SWAP3 POP POP SWAP3 POP SWAP3 SWAP1 POP JUMP JUMPDEST PUSH1 0x0 DUP2 SWAP1 POP SWAP2 SWAP1 POP JUMP JUMPDEST PUSH1 0x0 PUSH2 0x16DE PUSH2 0x16D9 PUSH2 0x16D4 DUP5 PUSH2 0x1536 JUMP JUMPDEST PUSH2 0x16B9 JUMP JUMPDEST PUSH2 0x1536 JUMP JUMPDEST SWAP1 POP SWAP2 SWAP1 POP JUMP JUMPDEST PUSH1 0x0 PUSH2 0x16F0 DUP3 PUSH2 0x16C3 JUMP JUMPDEST SWAP1 POP SWAP2 SWAP1 POP JUMP JUMPDEST PUSH1 0x0 PUSH2 0x1702 DUP3 PUSH2 0x16E5 JUMP JUMPDEST SWAP1 POP SWAP2 SWAP1 POP JUMP JUMPDEST PUSH2 0x1712 DUP2 PUSH2 0x16F7 JUMP JUMPDEST DUP3 MSTORE POP POP JUMP JUMPDEST PUSH1 0x0 PUSH1 0x20 DUP3 ADD SWAP1 POP PUSH2 0x172D PUSH1 0x0 DUP4 ADD DUP5 PUSH2 0x1709 JUMP JUMPDEST SWAP3 SWAP2 POP POP JUMP JUMPDEST PUSH2 0x173C DUP2 PUSH2 0x1556 JUMP JUMPDEST DUP2 EQ PUSH2 0x1747 JUMPI PUSH1 0x0 DUP1 REVERT JUMPDEST POP JUMP JUMPDEST PUSH1 0x0 DUP2 CALLDATALOAD SWAP1 POP PUSH2 0x1759 DUP2 PUSH2 0x1733 JUMP JUMPDEST SWAP3 SWAP2 POP POP JUMP JUMPDEST PUSH1 0x0 DUP1 DUP4 PUSH1 0x1F DUP5 ADD SLT PUSH2 0x1775 JUMPI PUSH2 0x1774 PUSH2 0x1607 JUMP JUMPDEST JUMPDEST DUP3 CALLDATALOAD SWAP1 POP PUSH8 0xFFFFFFFFFFFFFFFF DUP2 GT ISZERO PUSH2 0x1792 JUMPI PUSH2 0x1791 PUSH2 0x160C JUMP JUMPDEST JUMPDEST PUSH1 0x20 DUP4 ADD SWAP2 POP DUP4 PUSH1 0x20 DUP3 MUL DUP4 ADD GT ISZERO PUSH2 0x17AE JUMPI PUSH2 0x17AD PUSH2 0x1611 JUMP JUMPDEST JUMPDEST SWAP3 POP SWAP3 SWAP1 POP JUMP JUMPDEST PUSH1 0x0 DUP1 PUSH1 0x0 DUP1 PUSH1 0x0 DUP1 PUSH1 0x0 DUP1 PUSH1 0xA0 DUP10 DUP12 SUB SLT ISZERO PUSH2 0x17D5 JUMPI PUSH2 0x17D4 PUSH2 0x152C JUMP JUMPDEST JUMPDEST PUSH1 0x0 PUSH2 0x17E3 DUP12 DUP3 DUP13 ADD PUSH2 0x174A JUMP JUMPDEST SWAP9 POP POP PUSH1 0x20 PUSH2 0x17F4 DUP12 DUP3 DUP13 ADD PUSH2 0x174A JUMP JUMPDEST SWAP8 POP POP PUSH1 0x40 DUP10 ADD CALLDATALOAD PUSH8 0xFFFFFFFFFFFFFFFF DUP2 GT ISZERO PUSH2 0x1815 JUMPI PUSH2 0x1814 PUSH2 0x1531 JUMP JUMPDEST JUMPDEST PUSH2 0x1821 DUP12 DUP3 DUP13 ADD PUSH2 0x175F JUMP JUMPDEST SWAP7 POP SWAP7 POP POP PUSH1 0x60 DUP10 ADD CALLDATALOAD PUSH8 0xFFFFFFFFFFFFFFFF DUP2 GT ISZERO PUSH2 0x1844 JUMPI PUSH2 0x1843 PUSH2 0x1531 JUMP JUMPDEST JUMPDEST PUSH2 0x1850 DUP12 DUP3 DUP13 ADD PUSH2 0x175F JUMP JUMPDEST SWAP5 POP SWAP5 POP POP PUSH1 0x80 DUP10 ADD CALLDATALOAD PUSH8 0xFFFFFFFFFFFFFFFF DUP2 GT ISZERO PUSH2 0x1873 JUMPI PUSH2 0x1872 PUSH2 0x1531 JUMP JUMPDEST JUMPDEST PUSH2 0x187F DUP12 DUP3 DUP13 ADD PUSH2 0x1616 JUMP JUMPDEST SWAP3 POP SWAP3 POP POP SWAP3 SWAP6 SWAP9 POP SWAP3 SWAP6 SWAP9 SWAP1 SWAP4 SWAP7 POP JUMP JUMPDEST PUSH2 0x189A DUP2 PUSH2 0x15D3 JUMP JUMPDEST DUP2 EQ PUSH2 0x18A5 JUMPI PUSH1 0x0 DUP1 REVERT JUMPDEST POP JUMP JUMPDEST PUSH1 0x0 DUP2 CALLDATALOAD SWAP1 POP PUSH2 0x18B7 DUP2 PUSH2 0x1891 JUMP JUMPDEST SWAP3 SWAP2 POP POP JUMP JUMPDEST PUSH1 0x0 DUP1 PUSH1 0x40 DUP4 DUP6 SUB SLT ISZERO PUSH2 0x18D4 JUMPI PUSH2 0x18D3 PUSH2 0x152C JUMP JUMPDEST JUMPDEST PUSH1 0x0 PUSH2 0x18E2 DUP6 DUP3 DUP7 ADD PUSH2 0x18A8 JUMP JUMPDEST SWAP3 POP POP PUSH1 0x20 PUSH2 0x18F3 DUP6 DUP3 DUP7 ADD PUSH2 0x18A8 JUMP JUMPDEST SWAP2 POP POP SWAP3 POP SWAP3 SWAP1 POP JUMP JUMPDEST PUSH1 0x0 PUSH1 0x20 DUP3 DUP5 SUB SLT ISZERO PUSH2 0x1913 JUMPI PUSH2 0x1912 PUSH2 0x152C JUMP JUMPDEST JUMPDEST PUSH1 0x0 PUSH2 0x1921 DUP5 DUP3 DUP6 ADD PUSH2 0x18A8 JUMP JUMPDEST SWAP2 POP POP SWAP3 SWAP2 POP POP JUMP JUMPDEST PUSH1 0x0 DUP2 MLOAD SWAP1 POP SWAP2 SWAP1 POP JUMP JUMPDEST PUSH1 0x0 DUP3 DUP3 MSTORE PUSH1 0x20 DUP3 ADD SWAP1 POP SWAP3 SWAP2 POP POP JUMP JUMPDEST PUSH1 0x0 JUMPDEST DUP4 DUP2 LT ISZERO PUSH2 0x1964 JUMPI DUP1 DUP3 ADD MLOAD DUP2 DUP5 ADD MSTORE PUSH1 0x20 DUP2 ADD SWAP1 POP PUSH2 0x1949 JUMP JUMPDEST DUP4 DUP2 GT ISZERO PUSH2 0x1973 JUMPI PUSH1 0x0 DUP5 DUP5 ADD MSTORE JUMPDEST POP POP POP POP JUMP JUMPDEST PUSH1 0x0 PUSH1 0x1F NOT PUSH1 0x1F DUP4 ADD AND SWAP1 POP SWAP2 SWAP1 POP JUMP JUMPDEST PUSH1 0x0 PUSH2 0x1995 DUP3 PUSH2 0x192A JUMP JUMPDEST PUSH2 0x199F DUP2 DUP6 PUSH2 0x1935 JUMP JUMPDEST SWAP4 POP PUSH2 0x19AF DUP2 DUP6 PUSH1 0x20 DUP7 ADD PUSH2 0x1946 JUMP JUMPDEST PUSH2 0x19B8 DUP2 PUSH2 0x1979 JUMP JUMPDEST DUP5 ADD SWAP2 POP POP SWAP3 SWAP2 POP POP JUMP JUMPDEST PUSH1 0x0 PUSH1 0x20 DUP3 ADD SWAP1 POP DUP2 DUP2 SUB PUSH1 0x0 DUP4 ADD MSTORE PUSH2 0x19DD DUP2 DUP5 PUSH2 0x198A JUMP JUMPDEST SWAP1 POP SWAP3 SWAP2 POP POP JUMP JUMPDEST PUSH1 0x0 DUP1 PUSH1 0x20 DUP4 DUP6 SUB SLT ISZERO PUSH2 0x19FC JUMPI PUSH2 0x19FB PUSH2 0x152C JUMP JUMPDEST JUMPDEST PUSH1 0x0 DUP4 ADD CALLDATALOAD PUSH8 0xFFFFFFFFFFFFFFFF DUP2 GT ISZERO PUSH2 0x1A1A JUMPI PUSH2 0x1A19 PUSH2 0x1531 JUMP JUMPDEST JUMPDEST PUSH2 0x1A26 DUP6 DUP3 DUP7 ADD PUSH2 0x175F JUMP JUMPDEST SWAP3 POP SWAP3 POP POP SWAP3 POP SWAP3 SWAP1 POP JUMP JUMPDEST PUSH1 0x0 PUSH1 0x40 DUP3 ADD SWAP1 POP DUP2 DUP2 SUB PUSH1 0x0 DUP4 ADD MSTORE PUSH2 0x1A4C DUP2 DUP6 PUSH2 0x198A JUMP JUMPDEST SWAP1 POP DUP2 DUP2 SUB PUSH1 0x20 DUP4 ADD MSTORE PUSH2 0x1A60 DUP2 DUP5 PUSH2 0x198A JUMP JUMPDEST SWAP1 POP SWAP4 SWAP3 POP POP POP JUMP JUMPDEST PUSH32 0x4E487B7100000000000000000000000000000000000000000000000000000000 PUSH1 0x0 MSTORE PUSH1 0x11 PUSH1 0x4 MSTORE PUSH1 0x24 PUSH1 0x0 REVERT JUMPDEST PUSH1 0x0 PUSH2 0x1AA3 DUP3 PUSH2 0x15D3 JUMP JUMPDEST SWAP2 POP PUSH32 0xFFFFFFFFFFFFFFFFFFFFFFFFFFFFFFFFFFFFFFFFFFFFFFFFFFFFFFFFFFFFFFFF DUP3 EQ ISZERO PUSH2 0x1AD6 JUMPI PUSH2 0x1AD5 PUSH2 0x1A69 JUMP JUMPDEST JUMPDEST PUSH1 0x1 DUP3 ADD SWAP1 POP SWAP2 SWAP1 POP JUMP JUMPDEST PUSH32 0x4E487B7100000000000000000000000000000000000000000000000000000000 PUSH1 0x0 MSTORE PUSH1 0x32 PUSH1 0x4 MSTORE PUSH1 0x24 PUSH1 0x0 REVERT JUMPDEST PUSH1 0x0 PUSH2 0x1B1B DUP3 PUSH2 0x15D3 JUMP JUMPDEST SWAP2 POP PUSH2 0x1B26 DUP4 PUSH2 0x15D3 JUMP JUMPDEST SWAP3 POP DUP3 PUSH32 0xFFFFFFFFFFFFFFFFFFFFFFFFFFFFFFFFFFFFFFFFFFFFFFFFFFFFFFFFFFFFFFFF SUB DUP3 GT ISZERO PUSH2 0x1B5B JUMPI PUSH2 0x1B5A PUSH2 0x1A69 JUMP JUMPDEST JUMPDEST DUP3 DUP3 ADD SWAP1 POP SWAP3 SWAP2 POP POP JUMP JUMPDEST PUSH1 0x0 PUSH2 0x1B71 DUP3 PUSH2 0x15D3 JUMP JUMPDEST SWAP2 POP PUSH2 0x1B7C DUP4 PUSH2 0x15D3 JUMP JUMPDEST SWAP3 POP DUP3 DUP3 LT ISZERO PUSH2 0x1B8F JUMPI PUSH2 0x1B8E PUSH2 0x1A69 JUMP JUMPDEST JUMPDEST DUP3 DUP3 SUB SWAP1 POP SWAP3 SWAP2 POP POP JUMP JUMPDEST PUSH32 0x4E487B7100000000000000000000000000000000000000000000000000000000 PUSH1 0x0 MSTORE PUSH1 0x22 PUSH1 0x4 MSTORE PUSH1 0x24 PUSH1 0x0 REVERT JUMPDEST PUSH1 0x0 PUSH1 0x2 DUP3 DIV SWAP1 POP PUSH1 0x1 DUP3 AND DUP1 PUSH2 0x1BE1 JUMPI PUSH1 0x7F DUP3 AND SWAP2 POP JUMPDEST PUSH1 0x20 DUP3 LT DUP2 EQ ISZERO PUSH2 0x1BF5 JUMPI PUSH2 0x1BF4 PUSH2 0x1B9A JUMP JUMPDEST JUMPDEST POP SWAP2 SWAP1 POP JUMP JUMPDEST PUSH1 0x0 DUP2 MLOAD SWAP1 POP PUSH2 0x1C0A DUP2 PUSH2 0x1891 JUMP JUMPDEST SWAP3 SWAP2 POP POP JUMP JUMPDEST PUSH1 0x0 PUSH1 0x20 DUP3 DUP5 SUB SLT ISZERO PUSH2 0x1C26 JUMPI PUSH2 0x1C25 PUSH2 0x152C JUMP JUMPDEST JUMPDEST PUSH1 0x0 PUSH2 0x1C34 DUP5 DUP3 DUP6 ADD PUSH2 0x1BFB JUMP JUMPDEST SWAP2 POP POP SWAP3 SWAP2 POP POP JUMP JUMPDEST PUSH1 0x0 DUP2 SWAP1 POP SWAP3 SWAP2 POP POP JUMP JUMPDEST PUSH1 0x0 PUSH2 0x1C53 DUP3 PUSH2 0x192A JUMP JUMPDEST PUSH2 0x1C5D DUP2 DUP6 PUSH2 0x1C3D JUMP JUMPDEST SWAP4 POP PUSH2 0x1C6D DUP2 DUP6 PUSH1 0x20 DUP7 ADD PUSH2 0x1946 JUMP JUMPDEST DUP1 DUP5 ADD SWAP2 POP POP SWAP3 SWAP2 POP POP JUMP JUMPDEST PUSH32 0x5772617070657200000000000000000000000000000000000000000000000000 DUP2 MSTORE POP JUMP JUMPDEST PUSH1 0x0 PUSH2 0x1CAB DUP3 DUP5 PUSH2 0x1C48 JUMP JUMPDEST SWAP2 POP PUSH2 0x1CB6 DUP3 PUSH2 0x1C79 JUMP JUMPDEST PUSH1 0x7 DUP3 ADD SWAP2 POP DUP2 SWAP1 POP SWAP3 SWAP2 POP POP JUMP JUMPDEST PUSH1 0x0 DUP2 SWAP1 POP SWAP2 SWAP1 POP JUMP JUMPDEST PUSH1 0x0 PUSH2 0x1CEA PUSH2 0x1CE5 PUSH2 0x1CE0 DUP5 PUSH2 0x1CC5 JUMP JUMPDEST PUSH2 0x16B9 JUMP JUMPDEST PUSH2 0x15D3 JUMP JUMPDEST SWAP1 POP SWAP2 SWAP1 POP JUMP JUMPDEST PUSH2 0x1CFA DUP2 PUSH2 0x1CCF JUMP JUMPDEST DUP3 MSTORE POP POP JUMP JUMPDEST PUSH1 0x0 PUSH1 0x60 DUP3 ADD SWAP1 POP DUP2 DUP2 SUB PUSH1 0x0 DUP4 ADD MSTORE PUSH2 0x1D1A DUP2 DUP7 PUSH2 0x198A JUMP JUMPDEST SWAP1 POP PUSH2 0x1D29 PUSH1 0x20 DUP4 ADD DUP6 PUSH2 0x1CF1 JUMP JUMPDEST PUSH2 0x1D36 PUSH1 0x40 DUP4 ADD DUP5 PUSH2 0x1CF1 JUMP JUMPDEST SWAP5 SWAP4 POP POP POP POP JUMP JUMPDEST PUSH1 0x0 DUP1 REVERT JUMPDEST PUSH32 0x4E487B7100000000000000000000000000000000000000000000000000000000 PUSH1 0x0 MSTORE PUSH1 0x41 PUSH1 0x4 MSTORE PUSH1 0x24 PUSH1 0x0 REVERT JUMPDEST PUSH2 0x1D7B DUP3 PUSH2 0x1979 JUMP JUMPDEST DUP2 ADD DUP2 DUP2 LT PUSH8 0xFFFFFFFFFFFFFFFF DUP3 GT OR ISZERO PUSH2 0x1D9A JUMPI PUSH2 0x1D99 PUSH2 0x1D43 JUMP JUMPDEST JUMPDEST DUP1 PUSH1 0x40 MSTORE POP POP POP JUMP JUMPDEST PUSH1 0x0 PUSH2 0x1DAD PUSH2 0x1522 JUMP JUMPDEST SWAP1 POP PUSH2 0x1DB9 DUP3 DUP3 PUSH2 0x1D72 JUMP JUMPDEST SWAP2 SWAP1 POP JUMP JUMPDEST PUSH1 0x0 PUSH8 0xFFFFFFFFFFFFFFFF DUP3 GT ISZERO PUSH2 0x1DD9 JUMPI PUSH2 0x1DD8 PUSH2 0x1D43 JUMP JUMPDEST JUMPDEST PUSH2 0x1DE2 DUP3 PUSH2 0x1979 JUMP JUMPDEST SWAP1 POP PUSH1 0x20 DUP2 ADD SWAP1 POP SWAP2 SWAP1 POP JUMP JUMPDEST PUSH1 0x0 PUSH2 0x1E02 PUSH2 0x1DFD DUP5 PUSH2 0x1DBE JUMP JUMPDEST PUSH2 0x1DA3 JUMP JUMPDEST SWAP1 POP DUP3 DUP2 MSTORE PUSH1 0x20 DUP2 ADD DUP5 DUP5 DUP5 ADD GT ISZERO PUSH2 0x1E1E JUMPI PUSH2 0x1E1D PUSH2 0x1D3E JUMP JUMPDEST JUMPDEST PUSH2 0x1E29 DUP5 DUP3 DUP6 PUSH2 0x1946 JUMP JUMPDEST POP SWAP4 SWAP3 POP POP POP JUMP JUMPDEST PUSH1 0x0 DUP3 PUSH1 0x1F DUP4 ADD SLT PUSH2 0x1E46 JUMPI PUSH2 0x1E45 PUSH2 0x1607 JUMP JUMPDEST JUMPDEST DUP2 MLOAD PUSH2 0x1E56 DUP5 DUP3 PUSH1 0x20 DUP7 ADD PUSH2 0x1DEF JUMP JUMPDEST SWAP2 POP POP SWAP3 SWAP2 POP POP JUMP JUMPDEST PUSH1 0x0 PUSH1 0x20 DUP3 DUP5 SUB SLT ISZERO PUSH2 0x1E75 JUMPI PUSH2 0x1E74 PUSH2 0x152C JUMP JUMPDEST JUMPDEST PUSH1 0x0 DUP3 ADD MLOAD PUSH8 0xFFFFFFFFFFFFFFFF DUP2 GT ISZERO PUSH2 0x1E93 JUMPI PUSH2 0x1E92 PUSH2 0x1531 JUMP JUMPDEST JUMPDEST PUSH2 0x1E9F DUP5 DUP3 DUP6 ADD PUSH2 0x1E31 JUMP JUMPDEST SWAP2 POP POP SWAP3 SWAP2 POP POP JUMP JUMPDEST PUSH1 0x0 DUP2 MLOAD SWAP1 POP SWAP2 SWAP1 POP JUMP JUMPDEST PUSH1 0x0 DUP2 SWAP1 POP SWAP3 SWAP2 POP POP JUMP JUMPDEST PUSH1 0x0 PUSH2 0x1EC9 DUP3 PUSH2 0x1EA8 JUMP JUMPDEST PUSH2 0x1ED3 DUP2 DUP6 PUSH2 0x1EB3 JUMP JUMPDEST SWAP4 POP PUSH2 0x1EE3 DUP2 DUP6 PUSH1 0x20 DUP7 ADD PUSH2 0x1946 JUMP JUMPDEST DUP1 DUP5 ADD SWAP2 POP POP SWAP3 SWAP2 POP POP JUMP JUMPDEST PUSH1 0x0 PUSH2 0x1EFB DUP3 DUP5 PUSH2 0x1EBE JUMP JUMPDEST SWAP2 POP DUP2 SWAP1 POP SWAP3 SWAP2 POP POP JUMP JUMPDEST PUSH1 0x0 PUSH2 0x1F12 DUP3 DUP6 PUSH2 0x1C48 JUMP JUMPDEST SWAP2 POP PUSH2 0x1F1E DUP3 DUP5 PUSH2 0x1C48 JUMP JUMPDEST SWAP2 POP DUP2 SWAP1 POP SWAP4 SWAP3 POP POP POP JUMP JUMPDEST PUSH1 0x0 PUSH1 0x60 DUP3 ADD SWAP1 POP DUP2 DUP2 SUB PUSH1 0x0 DUP4 ADD MSTORE PUSH2 0x1F44 DUP2 DUP7 PUSH2 0x198A JUMP JUMPDEST SWAP1 POP PUSH2 0x1F53 PUSH1 0x20 DUP4 ADD DUP6 PUSH2 0x15DD JUMP JUMPDEST PUSH2 0x1F60 PUSH1 0x40 DUP4 ADD DUP5 PUSH2 0x15DD JUMP JUMPDEST SWAP5 SWAP4 POP POP POP POP JUMP JUMPDEST PUSH1 0x0 DUP2 SWAP1 POP SWAP2 SWAP1 POP JUMP JUMPDEST PUSH1 0x0 PUSH2 0x1F8D PUSH2 0x1F88 PUSH2 0x1F83 DUP5 PUSH2 0x1F68 JUMP JUMPDEST PUSH2 0x16B9 JUMP JUMPDEST PUSH2 0x15D3 JUMP JUMPDEST SWAP1 POP SWAP2 SWAP1 POP JUMP JUMPDEST PUSH2 0x1F9D DUP2 PUSH2 0x1F72 JUMP JUMPDEST DUP3 MSTORE POP POP JUMP JUMPDEST PUSH1 0x0 PUSH1 0x60 DUP3 ADD SWAP1 POP DUP2 DUP2 SUB PUSH1 0x0 DUP4 ADD MSTORE PUSH2 0x1FBD DUP2 DUP7 PUSH2 0x198A JUMP JUMPDEST SWAP1 POP PUSH2 0x1FCC PUSH1 0x20 DUP4 ADD DUP6 PUSH2 0x1F94 JUMP JUMPDEST PUSH2 0x1FD9 PUSH1 0x40 DUP4 ADD DUP5 PUSH2 0x1F94 JUMP JUMPDEST SWAP5 SWAP4 POP POP POP POP JUMP JUMPDEST PUSH32 0x72656E6465725772617070657200000000000000000000000000000000000000 PUSH1 0x0 DUP3 ADD MSTORE POP JUMP JUMPDEST PUSH1 0x0 PUSH2 0x2017 PUSH1 0xD DUP4 PUSH2 0x1935 JUMP JUMPDEST SWAP2 POP PUSH2 0x2022 DUP3 PUSH2 0x1FE1 JUMP JUMPDEST PUSH1 0x20 DUP3 ADD SWAP1 POP SWAP2 SWAP1 POP JUMP JUMPDEST PUSH1 0x0 PUSH1 0x60 DUP3 ADD SWAP1 POP DUP2 DUP2 SUB PUSH1 0x0 DUP4 ADD MSTORE PUSH2 0x2046 DUP2 PUSH2 0x200A JUMP JUMPDEST SWAP1 POP PUSH2 0x2055 PUSH1 0x20 DUP4 ADD DUP6 PUSH2 0x1CF1 JUMP JUMPDEST PUSH2 0x2062 PUSH1 0x40 DUP4 ADD DUP5 PUSH2 0x1CF1 JUMP JUMPDEST SWAP4 SWAP3 POP POP POP JUMP JUMPDEST PUSH1 0x0 PUSH1 0x60 DUP3 ADD SWAP1 POP DUP2 DUP2 SUB PUSH1 0x0 DUP4 ADD MSTORE PUSH2 0x2082 DUP2 PUSH2 0x200A JUMP JUMPDEST SWAP1 POP PUSH2 0x2091 PUSH1 0x20 DUP4 ADD DUP6 PUSH2 0x1F94 JUMP JUMPDEST PUSH2 0x209E PUSH1 0x40 DUP4 ADD DUP5 PUSH2 0x1F94 JUMP JUMPDEST SWAP4 SWAP3 POP POP POP JUMP JUMPDEST PUSH1 0x0 DUP1 REVERT JUMPDEST PUSH1 0x0 DUP1 REVERT JUMPDEST PUSH1 0x0 DUP1 REVERT JUMPDEST PUSH1 0x0 DUP3 CALLDATALOAD PUSH1 0x1 PUSH1 0x40 SUB DUP4 CALLDATASIZE SUB SUB DUP2 SLT PUSH2 0x20D0 JUMPI PUSH2 0x20CF PUSH2 0x20A5 JUMP JUMPDEST JUMPDEST DUP1 DUP4 ADD SWAP2 POP POP SWAP3 SWAP2 POP POP JUMP JUMPDEST PUSH1 0x0 DUP1 DUP4 CALLDATALOAD PUSH1 0x1 PUSH1 0x20 SUB DUP5 CALLDATASIZE SUB SUB DUP2 SLT PUSH2 0x20F9 JUMPI PUSH2 0x20F8 PUSH2 0x20A5 JUMP JUMPDEST JUMPDEST DUP1 DUP5 ADD SWAP3 POP DUP3 CALLDATALOAD SWAP2 POP PUSH8 0xFFFFFFFFFFFFFFFF DUP3 GT ISZERO PUSH2 0x211B JUMPI PUSH2 0x211A PUSH2 0x20AA JUMP JUMPDEST JUMPDEST PUSH1 0x20 DUP4 ADD SWAP3 POP PUSH1 0x1 DUP3 MUL CALLDATASIZE SUB DUP4 SGT ISZERO PUSH2 0x2137 JUMPI PUSH2 0x2136 PUSH2 0x20AF JUMP JUMPDEST JUMPDEST POP SWAP3 POP SWAP3 SWAP1 POP JUMP INVALID LOG2 PUSH5 0x6970667358 0x22 SLT KECCAK256 PUSH9 0xF00D482D72ABE0015F 0xF9 0x1E 0xD6 0xC7 0xAC 0xDA 0x1F SUB 0xDE PUSH7 0x72704B2B7E93C1 SHR CODESIZE POP 0x2B 0xD9 PUSH5 0x736F6C6343 STOP ADDMOD 0xC STOP CALLER "
        },
        "methodIdentifiers": {
          "assetList(uint256)": "a0b4b301",
          "assetStorage()": "4cb139a6",
          "assetsCount()": "cd9df190",
          "coreDepStorage()": "cdb53ac1",
          "depsCount()": "1b68226f",
          "depsList(uint256)": "b5d40c05",
          "init(address,address,string[2][],string[2][],uint256[4][])": "4f5ea5cc",
          "renderIndex(uint256,uint256)": "70370513",
          "renderPage(uint256)": "7556d1b9",
          "renderPagesCount()": "6bd40805",
          "renderWrapper()": "92f02e13",
          "setAssetStorage(address)": "27d98df3",
          "setAssets(string[2][])": "dc133575",
          "setCoreDepStorage(address)": "11bf85ce",
          "setDeps(string[2][])": "80536f63",
          "setRenderIndex(uint256[4][])": "292eabde"
        }
      }
    }
  }
}