{
  "src/services/chain-sim/contracts/Utils.sol": {
    "utils": {
      "abi": [
        {
          "inputs": [
            {
              "internalType": "bytes",
              "name": "byteCode",
              "type": "bytes"
            }
          ],
          "name": "bytesToString",
          "outputs": [
            {
              "internalType": "string",
              "name": "stringData",
              "type": "string"
            }
          ],
          "stateMutability": "pure",
          "type": "function"
        }
      ],
      "evm": {
        "bytecode": {
          "linkReferences": {},
          "object": "610568610053600b82828239805160001a607314610046577f4e487b7100000000000000000000000000000000000000000000000000000000600052600060045260246000fd5b30600052607381538281f3fe73000000000000000000000000000000000000000030146080604052600436106100355760003560e01c806339614e4f1461003a575b600080fd5b610054600480360381019061004f91906102d6565b61006a565b60405161006191906103a7565b60405180910390f35b6060600080835190506000602085516100839190610431565b9050600082905060006020846100999190610462565b11156100bd5781806100aa90610493565b9250506020816100ba91906104dc565b90505b8067ffffffffffffffff8111156100d7576100d66101ab565b5b6040519080825280601f01601f1916602001820160405280156101095781602001600182028036833780820191505090505b509450600060208601602088015b8483101561013a5780518252602082019150602081019050600183019250610117565b505050600060208461014c9190610462565b111561017357600083602061016191906104dc565b90508086016020860151815284875250505b50505050919050565b6000604051905090565b600080fd5b600080fd5b600080fd5b600080fd5b6000601f19601f8301169050919050565b7f4e487b7100000000000000000000000000000000000000000000000000000000600052604160045260246000fd5b6101e38261019a565b810181811067ffffffffffffffff82111715610202576102016101ab565b5b80604052505050565b600061021561017c565b905061022182826101da565b919050565b600067ffffffffffffffff821115610241576102406101ab565b5b61024a8261019a565b9050602081019050919050565b82818337600083830152505050565b600061027961027484610226565b61020b565b90508281526020810184848401111561029557610294610195565b5b6102a0848285610257565b509392505050565b600082601f8301126102bd576102bc610190565b5b81356102cd848260208601610266565b91505092915050565b6000602082840312156102ec576102eb610186565b5b600082013567ffffffffffffffff81111561030a5761030961018b565b5b610316848285016102a8565b91505092915050565b600081519050919050565b600082825260208201905092915050565b60005b8381101561035957808201518184015260208101905061033e565b83811115610368576000848401525b50505050565b60006103798261031f565b610383818561032a565b935061039381856020860161033b565b61039c8161019a565b840191505092915050565b600060208201905081810360008301526103c1818461036e565b905092915050565b6000819050919050565b7f4e487b7100000000000000000000000000000000000000000000000000000000600052601260045260246000fd5b7f4e487b7100000000000000000000000000000000000000000000000000000000600052601160045260246000fd5b600061043c826103c9565b9150610447836103c9565b925082610457576104566103d3565b5b828204905092915050565b600061046d826103c9565b9150610478836103c9565b925082610488576104876103d3565b5b828206905092915050565b600061049e826103c9565b91507fffffffffffffffffffffffffffffffffffffffffffffffffffffffffffffffff8214156104d1576104d0610402565b5b600182019050919050565b60006104e7826103c9565b91506104f2836103c9565b9250827fffffffffffffffffffffffffffffffffffffffffffffffffffffffffffffffff0382111561052757610526610402565b5b82820190509291505056fea2646970667358221220e6048119382ca15ce30a41e4331ae847e511b17bcab919d887efbceb952e36ac64736f6c634300080c0033",
          "opcodes": "PUSH2 0x568 PUSH2 0x53 PUSH1 0xB DUP3 DUP3 DUP3 CODECOPY DUP1 MLOAD PUSH1 0x0 BYTE PUSH1 0x73 EQ PUSH2 0x46 JUMPI PUSH32 0x4E487B7100000000000000000000000000000000000000000000000000000000 PUSH1 0x0 MSTORE PUSH1 0x0 PUSH1 0x4 MSTORE PUSH1 0x24 PUSH1 0x0 REVERT JUMPDEST ADDRESS PUSH1 0x0 MSTORE PUSH1 0x73 DUP2 MSTORE8 DUP3 DUP2 RETURN INVALID PUSH20 0x0 ADDRESS EQ PUSH1 0x80 PUSH1 0x40 MSTORE PUSH1 0x4 CALLDATASIZE LT PUSH2 0x35 JUMPI PUSH1 0x0 CALLDATALOAD PUSH1 0xE0 SHR DUP1 PUSH4 0x39614E4F EQ PUSH2 0x3A JUMPI JUMPDEST PUSH1 0x0 DUP1 REVERT JUMPDEST PUSH2 0x54 PUSH1 0x4 DUP1 CALLDATASIZE SUB DUP2 ADD SWAP1 PUSH2 0x4F SWAP2 SWAP1 PUSH2 0x2D6 JUMP JUMPDEST PUSH2 0x6A JUMP JUMPDEST PUSH1 0x40 MLOAD PUSH2 0x61 SWAP2 SWAP1 PUSH2 0x3A7 JUMP JUMPDEST PUSH1 0x40 MLOAD DUP1 SWAP2 SUB SWAP1 RETURN JUMPDEST PUSH1 0x60 PUSH1 0x0 DUP1 DUP4 MLOAD SWAP1 POP PUSH1 0x0 PUSH1 0x20 DUP6 MLOAD PUSH2 0x83 SWAP2 SWAP1 PUSH2 0x431 JUMP JUMPDEST SWAP1 POP PUSH1 0x0 DUP3 SWAP1 POP PUSH1 0x0 PUSH1 0x20 DUP5 PUSH2 0x99 SWAP2 SWAP1 PUSH2 0x462 JUMP JUMPDEST GT ISZERO PUSH2 0xBD JUMPI DUP2 DUP1 PUSH2 0xAA SWAP1 PUSH2 0x493 JUMP JUMPDEST SWAP3 POP POP PUSH1 0x20 DUP2 PUSH2 0xBA SWAP2 SWAP1 PUSH2 0x4DC JUMP JUMPDEST SWAP1 POP JUMPDEST DUP1 PUSH8 0xFFFFFFFFFFFFFFFF DUP2 GT ISZERO PUSH2 0xD7 JUMPI PUSH2 0xD6 PUSH2 0x1AB JUMP JUMPDEST JUMPDEST PUSH1 0x40 MLOAD SWAP1 DUP1 DUP3 MSTORE DUP1 PUSH1 0x1F ADD PUSH1 0x1F NOT AND PUSH1 0x20 ADD DUP3 ADD PUSH1 0x40 MSTORE DUP1 ISZERO PUSH2 0x109 JUMPI DUP2 PUSH1 0x20 ADD PUSH1 0x1 DUP3 MUL DUP1 CALLDATASIZE DUP4 CALLDATACOPY DUP1 DUP3 ADD SWAP2 POP POP SWAP1 POP JUMPDEST POP SWAP5 POP PUSH1 0x0 PUSH1 0x20 DUP7 ADD PUSH1 0x20 DUP9 ADD JUMPDEST DUP5 DUP4 LT ISZERO PUSH2 0x13A JUMPI DUP1 MLOAD DUP3 MSTORE PUSH1 0x20 DUP3 ADD SWAP2 POP PUSH1 0x20 DUP2 ADD SWAP1 POP PUSH1 0x1 DUP4 ADD SWAP3 POP PUSH2 0x117 JUMP JUMPDEST POP POP POP PUSH1 0x0 PUSH1 0x20 DUP5 PUSH2 0x14C SWAP2 SWAP1 PUSH2 0x462 JUMP JUMPDEST GT ISZERO PUSH2 0x173 JUMPI PUSH1 0x0 DUP4 PUSH1 0x20 PUSH2 0x161 SWAP2 SWAP1 PUSH2 0x4DC JUMP JUMPDEST SWAP1 POP DUP1 DUP7 ADD PUSH1 0x20 DUP7 ADD MLOAD DUP2 MSTORE DUP5 DUP8 MSTORE POP POP JUMPDEST POP POP POP POP SWAP2 SWAP1 POP JUMP JUMPDEST PUSH1 0x0 PUSH1 0x40 MLOAD SWAP1 POP SWAP1 JUMP JUMPDEST PUSH1 0x0 DUP1 REVERT JUMPDEST PUSH1 0x0 DUP1 REVERT JUMPDEST PUSH1 0x0 DUP1 REVERT JUMPDEST PUSH1 0x0 DUP1 REVERT JUMPDEST PUSH1 0x0 PUSH1 0x1F NOT PUSH1 0x1F DUP4 ADD AND SWAP1 POP SWAP2 SWAP1 POP JUMP JUMPDEST PUSH32 0x4E487B7100000000000000000000000000000000000000000000000000000000 PUSH1 0x0 MSTORE PUSH1 0x41 PUSH1 0x4 MSTORE PUSH1 0x24 PUSH1 0x0 REVERT JUMPDEST PUSH2 0x1E3 DUP3 PUSH2 0x19A JUMP JUMPDEST DUP2 ADD DUP2 DUP2 LT PUSH8 0xFFFFFFFFFFFFFFFF DUP3 GT OR ISZERO PUSH2 0x202 JUMPI PUSH2 0x201 PUSH2 0x1AB JUMP JUMPDEST JUMPDEST DUP1 PUSH1 0x40 MSTORE POP POP POP JUMP JUMPDEST PUSH1 0x0 PUSH2 0x215 PUSH2 0x17C JUMP JUMPDEST SWAP1 POP PUSH2 0x221 DUP3 DUP3 PUSH2 0x1DA JUMP JUMPDEST SWAP2 SWAP1 POP JUMP JUMPDEST PUSH1 0x0 PUSH8 0xFFFFFFFFFFFFFFFF DUP3 GT ISZERO PUSH2 0x241 JUMPI PUSH2 0x240 PUSH2 0x1AB JUMP JUMPDEST JUMPDEST PUSH2 0x24A DUP3 PUSH2 0x19A JUMP JUMPDEST SWAP1 POP PUSH1 0x20 DUP2 ADD SWAP1 POP SWAP2 SWAP1 POP JUMP JUMPDEST DUP3 DUP2 DUP4 CALLDATACOPY PUSH1 0x0 DUP4 DUP4 ADD MSTORE POP POP POP JUMP JUMPDEST PUSH1 0x0 PUSH2 0x279 PUSH2 0x274 DUP5 PUSH2 0x226 JUMP JUMPDEST PUSH2 0x20B JUMP JUMPDEST SWAP1 POP DUP3 DUP2 MSTORE PUSH1 0x20 DUP2 ADD DUP5 DUP5 DUP5 ADD GT ISZERO PUSH2 0x295 JUMPI PUSH2 0x294 PUSH2 0x195 JUMP JUMPDEST JUMPDEST PUSH2 0x2A0 DUP5 DUP3 DUP6 PUSH2 0x257 JUMP JUMPDEST POP SWAP4 SWAP3 POP POP POP JUMP JUMPDEST PUSH1 0x0 DUP3 PUSH1 0x1F DUP4 ADD SLT PUSH2 0x2BD JUMPI PUSH2 0x2BC PUSH2 0x190 JUMP JUMPDEST JUMPDEST DUP2 CALLDATALOAD PUSH2 0x2CD DUP5 DUP3 PUSH1 0x20 DUP7 ADD PUSH2 0x266 JUMP JUMPDEST SWAP2 POP POP SWAP3 SWAP2 POP POP JUMP JUMPDEST PUSH1 0x0 PUSH1 0x20 DUP3 DUP5 SUB SLT ISZERO PUSH2 0x2EC JUMPI PUSH2 0x2EB PUSH2 0x186 JUMP JUMPDEST JUMPDEST PUSH1 0x0 DUP3 ADD CALLDATALOAD PUSH8 0xFFFFFFFFFFFFFFFF DUP2 GT ISZERO PUSH2 0x30A JUMPI PUSH2 0x309 PUSH2 0x18B JUMP JUMPDEST JUMPDEST PUSH2 0x316 DUP5 DUP3 DUP6 ADD PUSH2 0x2A8 JUMP JUMPDEST SWAP2 POP POP SWAP3 SWAP2 POP POP JUMP JUMPDEST PUSH1 0x0 DUP2 MLOAD SWAP1 POP SWAP2 SWAP1 POP JUMP JUMPDEST PUSH1 0x0 DUP3 DUP3 MSTORE PUSH1 0x20 DUP3 ADD SWAP1 POP SWAP3 SWAP2 POP POP JUMP JUMPDEST PUSH1 0x0 JUMPDEST DUP4 DUP2 LT ISZERO PUSH2 0x359 JUMPI DUP1 DUP3 ADD MLOAD DUP2 DUP5 ADD MSTORE PUSH1 0x20 DUP2 ADD SWAP1 POP PUSH2 0x33E JUMP JUMPDEST DUP4 DUP2 GT ISZERO PUSH2 0x368 JUMPI PUSH1 0x0 DUP5 DUP5 ADD MSTORE JUMPDEST POP POP POP POP JUMP JUMPDEST PUSH1 0x0 PUSH2 0x379 DUP3 PUSH2 0x31F JUMP JUMPDEST PUSH2 0x383 DUP2 DUP6 PUSH2 0x32A JUMP JUMPDEST SWAP4 POP PUSH2 0x393 DUP2 DUP6 PUSH1 0x20 DUP7 ADD PUSH2 0x33B JUMP JUMPDEST PUSH2 0x39C DUP2 PUSH2 0x19A JUMP JUMPDEST DUP5 ADD SWAP2 POP POP SWAP3 SWAP2 POP POP JUMP JUMPDEST PUSH1 0x0 PUSH1 0x20 DUP3 ADD SWAP1 POP DUP2 DUP2 SUB PUSH1 0x0 DUP4 ADD MSTORE PUSH2 0x3C1 DUP2 DUP5 PUSH2 0x36E JUMP JUMPDEST SWAP1 POP SWAP3 SWAP2 POP POP JUMP JUMPDEST PUSH1 0x0 DUP2 SWAP1 POP SWAP2 SWAP1 POP JUMP JUMPDEST PUSH32 0x4E487B7100000000000000000000000000000000000000000000000000000000 PUSH1 0x0 MSTORE PUSH1 0x12 PUSH1 0x4 MSTORE PUSH1 0x24 PUSH1 0x0 REVERT JUMPDEST PUSH32 0x4E487B7100000000000000000000000000000000000000000000000000000000 PUSH1 0x0 MSTORE PUSH1 0x11 PUSH1 0x4 MSTORE PUSH1 0x24 PUSH1 0x0 REVERT JUMPDEST PUSH1 0x0 PUSH2 0x43C DUP3 PUSH2 0x3C9 JUMP JUMPDEST SWAP2 POP PUSH2 0x447 DUP4 PUSH2 0x3C9 JUMP JUMPDEST SWAP3 POP DUP3 PUSH2 0x457 JUMPI PUSH2 0x456 PUSH2 0x3D3 JUMP JUMPDEST JUMPDEST DUP3 DUP3 DIV SWAP1 POP SWAP3 SWAP2 POP POP JUMP JUMPDEST PUSH1 0x0 PUSH2 0x46D DUP3 PUSH2 0x3C9 JUMP JUMPDEST SWAP2 POP PUSH2 0x478 DUP4 PUSH2 0x3C9 JUMP JUMPDEST SWAP3 POP DUP3 PUSH2 0x488 JUMPI PUSH2 0x487 PUSH2 0x3D3 JUMP JUMPDEST JUMPDEST DUP3 DUP3 MOD SWAP1 POP SWAP3 SWAP2 POP POP JUMP JUMPDEST PUSH1 0x0 PUSH2 0x49E DUP3 PUSH2 0x3C9 JUMP JUMPDEST SWAP2 POP PUSH32 0xFFFFFFFFFFFFFFFFFFFFFFFFFFFFFFFFFFFFFFFFFFFFFFFFFFFFFFFFFFFFFFFF DUP3 EQ ISZERO PUSH2 0x4D1 JUMPI PUSH2 0x4D0 PUSH2 0x402 JUMP JUMPDEST JUMPDEST PUSH1 0x1 DUP3 ADD SWAP1 POP SWAP2 SWAP1 POP JUMP JUMPDEST PUSH1 0x0 PUSH2 0x4E7 DUP3 PUSH2 0x3C9 JUMP JUMPDEST SWAP2 POP PUSH2 0x4F2 DUP4 PUSH2 0x3C9 JUMP JUMPDEST SWAP3 POP DUP3 PUSH32 0xFFFFFFFFFFFFFFFFFFFFFFFFFFFFFFFFFFFFFFFFFFFFFFFFFFFFFFFFFFFFFFFF SUB DUP3 GT ISZERO PUSH2 0x527 JUMPI PUSH2 0x526 PUSH2 0x402 JUMP JUMPDEST JUMPDEST DUP3 DUP3 ADD SWAP1 POP SWAP3 SWAP2 POP POP JUMP INVALID LOG2 PUSH5 0x6970667358 0x22 SLT KECCAK256 0xE6 DIV DUP2 NOT CODESIZE 0x2C LOG1 0x5C 0xE3 EXP COINBASE 0xE4 CALLER BYTE 0xE8 SELFBALANCE 0xE5 GT 0xB1 PUSH28 0xCAB919D887EFBCEB952E36AC64736F6C634300080C00330000000000 "
        },
        "methodIdentifiers": {
          "bytesToString(bytes)": "39614e4f"
        }
      }
    }
  }
}