{
  "_format": "hh-sol-artifact-1",
  "contractName": "FrameDynamicFactory",
  "sourceName": "src/contracts/FrameFactoryDynamic.sol",
  "abi": [
    {
      "inputs": [],
      "stateMutability": "nonpayable",
      "type": "constructor"
    },
    {
      "anonymous": false,
      "inputs": [
        {
          "indexed": false,
          "internalType": "address",
          "name": "newAddress",
          "type": "address"
        }
      ],
      "name": "FrameCreated",
      "type": "event"
    },
    {
      "inputs": [
        {
          "internalType": "contract IFrameDataStoreFactory",
          "name": "_frameDataStoreFactory",
          "type": "address"
        },
        {
          "components": [
            {
              "internalType": "string",
              "name": "wrapperKey",
              "type": "string"
            },
            {
              "internalType": "string",
              "name": "key",
              "type": "string"
            },
            {
              "internalType": "address",
              "name": "wrapperStore",
              "type": "address"
            },
            {
              "internalType": "address",
              "name": "store",
              "type": "address"
            }
          ],
          "internalType": "struct IFrame.Asset[]",
          "name": "_deps",
          "type": "tuple[]"
        },
        {
          "internalType": "bytes[]",
          "name": "_newData",
          "type": "bytes[]"
        },
        {
          "internalType": "address",
          "name": "_pageWrapStore",
          "type": "address"
        },
        {
          "internalType": "uint256[4][]",
          "name": "_renderMap",
          "type": "uint256[4][]"
        },
        {
          "internalType": "string",
          "name": "_name",
          "type": "string"
        }
      ],
      "name": "createFrameWithSource",
      "outputs": [
        {
          "internalType": "address",
          "name": "",
          "type": "address"
        }
      ],
      "stateMutability": "nonpayable",
      "type": "function"
    },
    {
      "inputs": [],
      "name": "libraryAddress",
      "outputs": [
        {
          "internalType": "address",
          "name": "",
          "type": "address"
        }
      ],
      "stateMutability": "view",
      "type": "function"
    },
    {
      "inputs": [
        {
          "internalType": "address",
          "name": "_libraryAddress",
          "type": "address"
        }
      ],
      "name": "setLibraryAddress",
      "outputs": [],
      "stateMutability": "nonpayable",
      "type": "function"
    }
  ],
  "bytecode": "0x608060405234801561001057600080fd5b506112d2806100206000396000f3fe608060405234801561001057600080fd5b50600436106100415760003560e01c80634863ba1714610046578063789b9b4514610062578063b816f51314610092575b600080fd5b610060600480360381019061005b9190610644565b6100b0565b005b61007c60048036038101906100779190610a9c565b610182565b6040516100899190610bb6565b60405180910390f35b61009a610544565b6040516100a79190610bb6565b60405180910390f35b600073ffffffffffffffffffffffffffffffffffffffff1660008054906101000a900473ffffffffffffffffffffffffffffffffffffffff1673ffffffffffffffffffffffffffffffffffffffff161461013f576040517f08c379a000000000000000000000000000000000000000000000000000000000815260040161013690610c54565b60405180910390fd5b806000806101000a81548173ffffffffffffffffffffffffffffffffffffffff021916908373ffffffffffffffffffffffffffffffffffffffff16021790555050565b6000806101ae60008054906101000a900473ffffffffffffffffffffffffffffffffffffffff16610568565b905060008b73ffffffffffffffffffffffffffffffffffffffff1663bdbbea5286866040518363ffffffff1660e01b81526004016101ed929190610ced565b6020604051808303816000875af115801561020c573d6000803e3d6000fd5b505050506040513d601f19601f820116820180604052508101906102309190610d39565b90506000805b8c518110156103b957600073ffffffffffffffffffffffffffffffffffffffff168d828151811061026a57610269610d66565b5b60200260200101516060015173ffffffffffffffffffffffffffffffffffffffff1614156103a6578273ffffffffffffffffffffffffffffffffffffffff16636af42a8c8e83815181106102c1576102c0610d66565b5b60200260200101516020015160008f8f878181106102e2576102e1610d66565b5b90506020028101906102f49190610da4565b6040518563ffffffff1660e01b81526004016103139493929190610f1d565b600060405180830381600087803b15801561032d57600080fd5b505af1158015610341573d6000803e3d6000fd5b50505050818061035090610f9d565b925050828d828151811061036757610366610d66565b5b60200260200101516060019073ffffffffffffffffffffffffffffffffffffffff16908173ffffffffffffffffffffffffffffffffffffffff16815250505b80806103b190610f9d565b915050610236565b508273ffffffffffffffffffffffffffffffffffffffff1663bbb69b968d848c8c8c6040518663ffffffff1660e01b81526004016103fb959493929190611223565b600060405180830381600087803b15801561041557600080fd5b505af1158015610429573d6000803e3d6000fd5b505050508273ffffffffffffffffffffffffffffffffffffffff1663c47f002787876040518363ffffffff1660e01b8152600401610468929190611278565b600060405180830381600087803b15801561048257600080fd5b505af1158015610496573d6000803e3d6000fd5b505050508173ffffffffffffffffffffffffffffffffffffffff1663f83d08ba6040518163ffffffff1660e01b8152600401600060405180830381600087803b1580156104e257600080fd5b505af11580156104f6573d6000803e3d6000fd5b505050507f62392641265fcc5a6a8128fd39634480ffe377e76dc54dcad335e1289fcc0fd5836040516105299190610bb6565b60405180910390a18293505050509998505050505050505050565b60008054906101000a900473ffffffffffffffffffffffffffffffffffffffff1681565b6000808260601b90506040517f3d602d80600a3d3981f3363d3d373d3d3d363d7300000000000000000000000081528160148201527f5af43d82803e903d91602b57fd5bf3000000000000000000000000000000000060288201526037816000f092505050919050565b6000604051905090565b600080fd5b600080fd5b600073ffffffffffffffffffffffffffffffffffffffff82169050919050565b6000610611826105e6565b9050919050565b61062181610606565b811461062c57600080fd5b50565b60008135905061063e81610618565b92915050565b60006020828403121561065a576106596105dc565b5b60006106688482850161062f565b91505092915050565b600061067c82610606565b9050919050565b61068c81610671565b811461069757600080fd5b50565b6000813590506106a981610683565b92915050565b600080fd5b6000601f19601f8301169050919050565b7f4e487b7100000000000000000000000000000000000000000000000000000000600052604160045260246000fd5b6106fd826106b4565b810181811067ffffffffffffffff8211171561071c5761071b6106c5565b5b80604052505050565b600061072f6105d2565b905061073b82826106f4565b919050565b600067ffffffffffffffff82111561075b5761075a6106c5565b5b602082029050602081019050919050565b600080fd5b600080fd5b600080fd5b600080fd5b600067ffffffffffffffff82111561079b5761079a6106c5565b5b6107a4826106b4565b9050602081019050919050565b82818337600083830152505050565b60006107d36107ce84610780565b610725565b9050828152602081018484840111156107ef576107ee61077b565b5b6107fa8482856107b1565b509392505050565b600082601f830112610817576108166106af565b5b81356108278482602086016107c0565b91505092915050565b60006080828403121561084657610845610771565b5b6108506080610725565b9050600082013567ffffffffffffffff8111156108705761086f610776565b5b61087c84828501610802565b600083015250602082013567ffffffffffffffff8111156108a05761089f610776565b5b6108ac84828501610802565b60208301525060406108c08482850161062f565b60408301525060606108d48482850161062f565b60608301525092915050565b60006108f36108ee84610740565b610725565b905080838252602082019050602084028301858111156109165761091561076c565b5b835b8181101561095d57803567ffffffffffffffff81111561093b5761093a6106af565b5b8086016109488982610830565b85526020850194505050602081019050610918565b5050509392505050565b600082601f83011261097c5761097b6106af565b5b813561098c8482602086016108e0565b91505092915050565b600080fd5b60008083601f8401126109b0576109af6106af565b5b8235905067ffffffffffffffff8111156109cd576109cc610995565b5b6020830191508360208202830111156109e9576109e861076c565b5b9250929050565b60008083601f840112610a0657610a056106af565b5b8235905067ffffffffffffffff811115610a2357610a22610995565b5b602083019150836080820283011115610a3f57610a3e61076c565b5b9250929050565b60008083601f840112610a5c57610a5b6106af565b5b8235905067ffffffffffffffff811115610a7957610a78610995565b5b602083019150836001820283011115610a9557610a9461076c565b5b9250929050565b600080600080600080600080600060c08a8c031215610abe57610abd6105dc565b5b6000610acc8c828d0161069a565b99505060208a013567ffffffffffffffff811115610aed57610aec6105e1565b5b610af98c828d01610967565b98505060408a013567ffffffffffffffff811115610b1a57610b196105e1565b5b610b268c828d0161099a565b97509750506060610b398c828d0161062f565b95505060808a013567ffffffffffffffff811115610b5a57610b596105e1565b5b610b668c828d016109f0565b945094505060a08a013567ffffffffffffffff811115610b8957610b886105e1565b5b610b958c828d01610a46565b92509250509295985092959850929598565b610bb081610606565b82525050565b6000602082019050610bcb6000830184610ba7565b92915050565b600082825260208201905092915050565b7f4672616d65466163746f72793a204c69627261727920616c726561647920736560008201527f7400000000000000000000000000000000000000000000000000000000000000602082015250565b6000610c3e602183610bd1565b9150610c4982610be2565b604082019050919050565b60006020820190508181036000830152610c6d81610c31565b9050919050565b6000610c808385610bd1565b9350610c8d8385846107b1565b610c96836106b4565b840190509392505050565b7f312e302e30000000000000000000000000000000000000000000000000000000600082015250565b6000610cd7600583610bd1565b9150610ce282610ca1565b602082019050919050565b60006040820190508181036000830152610d08818486610c74565b90508181036020830152610d1b81610cca565b90509392505050565b600081519050610d3381610618565b92915050565b600060208284031215610d4f57610d4e6105dc565b5b6000610d5d84828501610d24565b91505092915050565b7f4e487b7100000000000000000000000000000000000000000000000000000000600052603260045260246000fd5b600080fd5b600080fd5b600080fd5b60008083356001602003843603038112610dc157610dc0610d95565b5b80840192508235915067ffffffffffffffff821115610de357610de2610d9a565b5b602083019250600182023603831315610dff57610dfe610d9f565b5b509250929050565b600081519050919050565b60005b83811015610e30578082015181840152602081019050610e15565b83811115610e3f576000848401525b50505050565b6000610e5082610e07565b610e5a8185610bd1565b9350610e6a818560208601610e12565b610e73816106b4565b840191505092915050565b6000819050919050565b60006fffffffffffffffffffffffffffffffff82169050919050565b6000819050919050565b6000610ec9610ec4610ebf84610e7e565b610ea4565b610e88565b9050919050565b610ed981610eae565b82525050565b600082825260208201905092915050565b6000610efc8385610edf565b9350610f098385846107b1565b610f12836106b4565b840190509392505050565b60006060820190508181036000830152610f378187610e45565b9050610f466020830186610ed0565b8181036040830152610f59818486610ef0565b905095945050505050565b7f4e487b7100000000000000000000000000000000000000000000000000000000600052601160045260246000fd5b6000819050919050565b6000610fa882610f93565b91507fffffffffffffffffffffffffffffffffffffffffffffffffffffffffffffffff821415610fdb57610fda610f64565b5b600182019050919050565b600081519050919050565b600082825260208201905092915050565b6000819050602082019050919050565b600082825260208201905092915050565b600061102e82610e07565b6110388185611012565b9350611048818560208601610e12565b611051816106b4565b840191505092915050565b61106581610606565b82525050565b600060808301600083015184820360008601526110888282611023565b915050602083015184820360208601526110a28282611023565b91505060408301516110b7604086018261105c565b5060608301516110ca606086018261105c565b508091505092915050565b60006110e1838361106b565b905092915050565b6000602082019050919050565b600061110182610fe6565b61110b8185610ff1565b93508360208202850161111d85611002565b8060005b85811015611159578484038952815161113a85826110d5565b9450611145836110e9565b925060208a01995050600181019050611121565b50829750879550505050505092915050565b600082825260208201905092915050565b6000819050919050565b611192608083836107b1565b5050565b60006111a28383611186565b60808301905092915050565b600082905092915050565b6000608082019050919050565b60006111d2838561116b565b93506111dd8261117c565b8060005b85811015611216576111f382846111ae565b6111fd8882611196565b9750611208836111b9565b9250506001810190506111e1565b5085925050509392505050565b6000608082019050818103600083015261123d81886110f6565b905061124c6020830187610ba7565b6112596040830186610ba7565b818103606083015261126c8184866111c6565b90509695505050505050565b60006020820190508181036000830152611293818486610c74565b9050939250505056fea26469706673582212201119d20b2b2a2147eda3b8bba50d5ad0e14e7104017fb3ed0bfde6ec7272087664736f6c634300080c0033",
  "linkReferences": {},
  "deployedLinkReferences": {}
}