{
  "_format": "hh-sol-artifact-1",
  "contractName": "FrameDataStore",
  "sourceName": "src/contracts/FrameDataStore.sol",
  "abi": [
    {
      "inputs": [],
      "stateMutability": "nonpayable",
      "type": "constructor"
    },
    {
      "inputs": [
        {
          "internalType": "string",
          "name": "_key",
          "type": "string"
        },
        {
          "internalType": "uint256",
          "name": "_startPage",
          "type": "uint256"
        }
      ],
      "name": "getAllDataFromPage",
      "outputs": [
        {
          "internalType": "bytes",
          "name": "",
          "type": "bytes"
        }
      ],
      "stateMutability": "view",
      "type": "function"
    },
    {
      "inputs": [
        {
          "internalType": "string",
          "name": "_key",
          "type": "string"
        },
        {
          "internalType": "uint256",
          "name": "_startPage",
          "type": "uint256"
        },
        {
          "internalType": "uint256",
          "name": "_endPage",
          "type": "uint256"
        }
      ],
      "name": "getData",
      "outputs": [
        {
          "internalType": "bytes",
          "name": "",
          "type": "bytes"
        }
      ],
      "stateMutability": "view",
      "type": "function"
    },
    {
      "inputs": [
        {
          "internalType": "string",
          "name": "_key",
          "type": "string"
        }
      ],
      "name": "getMaxPageNumber",
      "outputs": [
        {
          "internalType": "uint256",
          "name": "",
          "type": "uint256"
        }
      ],
      "stateMutability": "view",
      "type": "function"
    },
    {
      "inputs": [
        {
          "internalType": "string",
          "name": "_key",
          "type": "string"
        },
        {
          "internalType": "uint256",
          "name": "_startPage",
          "type": "uint256"
        },
        {
          "internalType": "uint256",
          "name": "_endPage",
          "type": "uint256"
        }
      ],
      "name": "getSizeBetweenPages",
      "outputs": [
        {
          "internalType": "uint256",
          "name": "",
          "type": "uint256"
        }
      ],
      "stateMutability": "view",
      "type": "function"
    },
    {
      "inputs": [
        {
          "internalType": "string",
          "name": "_key",
          "type": "string"
        }
      ],
      "name": "hasKey",
      "outputs": [
        {
          "internalType": "bool",
          "name": "",
          "type": "bool"
        }
      ],
      "stateMutability": "view",
      "type": "function"
    },
    {
      "inputs": [],
      "name": "isLocked",
      "outputs": [
        {
          "internalType": "bool",
          "name": "",
          "type": "bool"
        }
      ],
      "stateMutability": "view",
      "type": "function"
    },
    {
      "inputs": [],
      "name": "lock",
      "outputs": [],
      "stateMutability": "nonpayable",
      "type": "function"
    },
    {
      "inputs": [],
      "name": "name",
      "outputs": [
        {
          "internalType": "string",
          "name": "",
          "type": "string"
        }
      ],
      "stateMutability": "view",
      "type": "function"
    },
    {
      "inputs": [
        {
          "internalType": "string",
          "name": "_key",
          "type": "string"
        },
        {
          "internalType": "uint128",
          "name": "_pageNumber",
          "type": "uint128"
        },
        {
          "internalType": "bytes",
          "name": "_b",
          "type": "bytes"
        }
      ],
      "name": "saveData",
      "outputs": [],
      "stateMutability": "nonpayable",
      "type": "function"
    },
    {
      "inputs": [
        {
          "internalType": "string",
          "name": "_name",
          "type": "string"
        }
      ],
      "name": "setName",
      "outputs": [],
      "stateMutability": "nonpayable",
      "type": "function"
    },
    {
      "inputs": [
        {
          "internalType": "string",
          "name": "_version",
          "type": "string"
        }
      ],
      "name": "setVersion",
      "outputs": [],
      "stateMutability": "nonpayable",
      "type": "function"
    },
    {
      "inputs": [],
      "name": "version",
      "outputs": [
        {
          "internalType": "string",
          "name": "",
          "type": "string"
        }
      ],
      "stateMutability": "view",
      "type": "function"
    }
  ],
  "bytecode": "0x60806040526000600260006101000a81548160ff02191690831515021790555034801561002b57600080fd5b5061179e8061003b6000396000f3fe608060405234801561001057600080fd5b50600436106100b45760003560e01c80636af42a8c116100715780636af42a8c146101b5578063788bc78c146101d1578063a4e2d634146101ed578063c47f00271461020b578063d431a42f14610227578063f83d08ba14610257576100b4565b806306fdde03146100b957806311aa4cba146100d7578063208a43d314610107578063332d3780146101375780633a04f79b1461016757806354fd4d5014610197575b600080fd5b6100c1610261565b6040516100ce9190610d37565b60405180910390f35b6100f160048036038101906100ec9190610ed8565b6102ef565b6040516100fe9190610f9c565b60405180910390f35b610121600480360381019061011c9190610ed8565b610476565b60405161012e9190610fcd565b60405180910390f35b610151600480360381019061014c9190610fe8565b61051b565b60405161015e919061104c565b60405180910390f35b610181600480360381019061017c9190611067565b610552565b60405161018e9190610f9c565b60405180910390f35b61019f61058d565b6040516101ac9190610d37565b60405180910390f35b6101cf60048036038101906101ca91906111ac565b61061b565b005b6101eb60048036038101906101e69190610fe8565b6108ee565b005b6101f5610959565b604051610202919061104c565b60405180910390f35b61022560048036038101906102209190610fe8565b61096c565b005b610241600480360381019061023c9190610fe8565b6109d6565b60405161024e9190610fcd565b60405180910390f35b61025f610a00565b005b6003805461026e90611266565b80601f016020809104026020016040519081016040528092919081815260200182805461029a90611266565b80156102e75780601f106102bc576101008083540402835291602001916102e7565b820191906000526020600020905b8154815290600101906020018083116102ca57829003601f168201915b505050505081565b606060006102fe858585610476565b905060008167ffffffffffffffff81111561031c5761031b610d77565b5b6040519080825280601f01601f19166020018201604052801561034e5781602001600182028036833780820191505090505b5090506000808760405161036291906112d4565b90815260200160405180910390209050600085905060006020905060008890505b828111610466576000846002016000838152602001908152602001600020905060008160000160009054906101000a900473ffffffffffffffffffffffffffffffffffffffff16905060008260010160009054906101000a90046fffffffffffffffffffffffffffffffff166fffffffffffffffffffffffffffffffff16905060008360010160109054906101000a90046fffffffffffffffffffffffffffffffff166fffffffffffffffffffffffffffffffff1690508181878b01853c818661044d919061131a565b955050505050808061045e90611370565b915050610383565b5083955050505050509392505050565b60008060008560405161048991906112d4565b908152602001604051809103902090506000808590505b84811161050e5782600201600082815260200190815260200160002060010160009054906101000a90046fffffffffffffffffffffffffffffffff166fffffffffffffffffffffffffffffffff16826104f9919061131a565b9150808061050690611370565b9150506104a0565b5080925050509392505050565b6000808260405161052c91906112d4565b908152602001604051809103902060010160009054906101000a900460ff169050919050565b60606000808460405161056591906112d4565b90815260200160405180910390209050610584848483600001546102ef565b91505092915050565b6004805461059a90611266565b80601f01602080910402602001604051908101604052809291908181526020018280546105c690611266565b80156106135780601f106105e857610100808354040283529160200191610613565b820191906000526020600020905b8154815290600101906020018083116105f657829003601f168201915b505050505081565b616000815110610660576040517f08c379a00000000000000000000000000000000000000000000000000000000081526004016106579061142b565b60405180910390fd5b6106698361051b565b158061068e5750816fffffffffffffffffffffffffffffffff1661068c846109d6565b105b6106cd576040517f08c379a00000000000000000000000000000000000000000000000000000000081526004016106c4906114bd565b60405180910390fd5b600260009054906101000a900460ff161561071d576040517f08c379a000000000000000000000000000000000000000000000000000000000815260040161071490611529565b60405180910390fd5b60006040518060400160405280600e81526020017f610000600e6000396100006000f300000000000000000000000000000000000081525090506000825160f81b9050600060088451901c60f81b9050818360028151811061078257610781611549565b5b60200101907effffffffffffffffffffffffffffffffffffffffffffffffffffffffffffff1916908160001a90535080836001815181106107c6576107c5611549565b5b60200101907effffffffffffffffffffffffffffffffffffffffffffffffffffffffffffff1916908160001a9053508183600a8151811061080a57610809611549565b5b60200101907effffffffffffffffffffffffffffffffffffffffffffffffffffffffffffff1916908160001a905350808360098151811061084e5761084d611549565b5b60200101907effffffffffffffffffffffffffffffffffffffffffffffffffffffffffffff1916908160001a905350600083856040516020016108929291906115b4565b604051602081830303815290604052905060008151602083016000f0905060008114156108c3573d6000803e3d6000fd5b6108e488886fffffffffffffffffffffffffffffffff168389516000610a6d565b5050505050505050565b6003600480546108fd90611266565b90501061093f576040517f08c379a00000000000000000000000000000000000000000000000000000000081526004016109369061164a565b60405180910390fd5b8060049080519060200190610955929190610bfb565b5050565b600260009054906101000a900460ff1681565b600380805461097a90611266565b9050106109bc576040517f08c379a00000000000000000000000000000000000000000000000000000000081526004016109b3906116b6565b60405180910390fd5b80600390805190602001906109d2929190610bfb565b5050565b600080826040516109e791906112d4565b9081526020016040518091039020600001549050919050565b600260009054906101000a900460ff1615610a50576040517f08c379a0000000000000000000000000000000000000000000000000000000008152600401610a4790611748565b60405180910390fd5b6001600260006101000a81548160ff021916908315150217905550565b60008086604051610a7e91906112d4565b908152602001604051809103902090508481600001541015610aa4578481600001819055505b60018160010160006101000a81548160ff02191690831515021790555060405180606001604052808573ffffffffffffffffffffffffffffffffffffffff168152602001846fffffffffffffffffffffffffffffffff168152602001836fffffffffffffffffffffffffffffffff1681525081600201600087815260200190815260200160002060008201518160000160006101000a81548173ffffffffffffffffffffffffffffffffffffffff021916908373ffffffffffffffffffffffffffffffffffffffff16021790555060208201518160010160006101000a8154816fffffffffffffffffffffffffffffffff02191690836fffffffffffffffffffffffffffffffff16021790555060408201518160010160106101000a8154816fffffffffffffffffffffffffffffffff02191690836fffffffffffffffffffffffffffffffff160217905550905050505050505050565b828054610c0790611266565b90600052602060002090601f016020900481019282610c295760008555610c70565b82601f10610c4257805160ff1916838001178555610c70565b82800160010185558215610c70579182015b82811115610c6f578251825591602001919060010190610c54565b5b509050610c7d9190610c81565b5090565b5b80821115610c9a576000816000905550600101610c82565b5090565b600081519050919050565b600082825260208201905092915050565b60005b83811015610cd8578082015181840152602081019050610cbd565b83811115610ce7576000848401525b50505050565b6000601f19601f8301169050919050565b6000610d0982610c9e565b610d138185610ca9565b9350610d23818560208601610cba565b610d2c81610ced565b840191505092915050565b60006020820190508181036000830152610d518184610cfe565b905092915050565b6000604051905090565b600080fd5b600080fd5b600080fd5b600080fd5b7f4e487b7100000000000000000000000000000000000000000000000000000000600052604160045260246000fd5b610daf82610ced565b810181811067ffffffffffffffff82111715610dce57610dcd610d77565b5b80604052505050565b6000610de1610d59565b9050610ded8282610da6565b919050565b600067ffffffffffffffff821115610e0d57610e0c610d77565b5b610e1682610ced565b9050602081019050919050565b82818337600083830152505050565b6000610e45610e4084610df2565b610dd7565b905082815260208101848484011115610e6157610e60610d72565b5b610e6c848285610e23565b509392505050565b600082601f830112610e8957610e88610d6d565b5b8135610e99848260208601610e32565b91505092915050565b6000819050919050565b610eb581610ea2565b8114610ec057600080fd5b50565b600081359050610ed281610eac565b92915050565b600080600060608486031215610ef157610ef0610d63565b5b600084013567ffffffffffffffff811115610f0f57610f0e610d68565b5b610f1b86828701610e74565b9350506020610f2c86828701610ec3565b9250506040610f3d86828701610ec3565b9150509250925092565b600081519050919050565b600082825260208201905092915050565b6000610f6e82610f47565b610f788185610f52565b9350610f88818560208601610cba565b610f9181610ced565b840191505092915050565b60006020820190508181036000830152610fb68184610f63565b905092915050565b610fc781610ea2565b82525050565b6000602082019050610fe26000830184610fbe565b92915050565b600060208284031215610ffe57610ffd610d63565b5b600082013567ffffffffffffffff81111561101c5761101b610d68565b5b61102884828501610e74565b91505092915050565b60008115159050919050565b61104681611031565b82525050565b6000602082019050611061600083018461103d565b92915050565b6000806040838503121561107e5761107d610d63565b5b600083013567ffffffffffffffff81111561109c5761109b610d68565b5b6110a885828601610e74565b92505060206110b985828601610ec3565b9150509250929050565b60006fffffffffffffffffffffffffffffffff82169050919050565b6110e8816110c3565b81146110f357600080fd5b50565b600081359050611105816110df565b92915050565b600067ffffffffffffffff82111561112657611125610d77565b5b61112f82610ced565b9050602081019050919050565b600061114f61114a8461110b565b610dd7565b90508281526020810184848401111561116b5761116a610d72565b5b611176848285610e23565b509392505050565b600082601f83011261119357611192610d6d565b5b81356111a384826020860161113c565b91505092915050565b6000806000606084860312156111c5576111c4610d63565b5b600084013567ffffffffffffffff8111156111e3576111e2610d68565b5b6111ef86828701610e74565b9350506020611200868287016110f6565b925050604084013567ffffffffffffffff81111561122157611220610d68565b5b61122d8682870161117e565b9150509250925092565b7f4e487b7100000000000000000000000000000000000000000000000000000000600052602260045260246000fd5b6000600282049050600182168061127e57607f821691505b6020821081141561129257611291611237565b5b50919050565b600081905092915050565b60006112ae82610c9e565b6112b88185611298565b93506112c8818560208601610cba565b80840191505092915050565b60006112e082846112a3565b915081905092915050565b7f4e487b7100000000000000000000000000000000000000000000000000000000600052601160045260246000fd5b600061132582610ea2565b915061133083610ea2565b9250827fffffffffffffffffffffffffffffffffffffffffffffffffffffffffffffffff03821115611365576113646112eb565b5b828201905092915050565b600061137b82610ea2565b91507fffffffffffffffffffffffffffffffffffffffffffffffffffffffffffffffff8214156113ae576113ad6112eb565b5b600182019050919050565b7f4672616d654461746153746f72653a2045786365656465642032342c3537362060008201527f6279746573206d617820636f6e74726163742073697a65000000000000000000602082015250565b6000611415603783610ca9565b9150611420826113b9565b604082019050919050565b6000602082019050818103600083015261144481611408565b9050919050565b7f4672616d654461746153746f72653a2043616e6e6f74206f766572777269746560008201527f207061676520666f72206b657900000000000000000000000000000000000000602082015250565b60006114a7602d83610ca9565b91506114b28261144b565b604082019050919050565b600060208201905081810360008301526114d68161149a565b9050919050565b7f4672616d654461746153746f72653a20436f6e7472616374206c6f636b656400600082015250565b6000611513601f83610ca9565b915061151e826114dd565b602082019050919050565b6000602082019050818103600083015261154281611506565b9050919050565b7f4e487b7100000000000000000000000000000000000000000000000000000000600052603260045260246000fd5b600081905092915050565b600061158e82610f47565b6115988185611578565b93506115a8818560208601610cba565b80840191505092915050565b60006115c08285611583565b91506115cc8284611583565b91508190509392505050565b7f4672616d654461746153746f72653a2056657273696f6e20616c72656164792060008201527f7365740000000000000000000000000000000000000000000000000000000000602082015250565b6000611634602383610ca9565b915061163f826115d8565b604082019050919050565b6000602082019050818103600083015261166381611627565b9050919050565b7f4672616d654461746153746f72653a204e616d6520616c726561647920736574600082015250565b60006116a0602083610ca9565b91506116ab8261166a565b602082019050919050565b600060208201905081810360008301526116cf81611693565b9050919050565b7f4672616d654461746153746f72653a20436f6e747261637420616c726561647960008201527f206c6f636b656400000000000000000000000000000000000000000000000000602082015250565b6000611732602783610ca9565b915061173d826116d6565b604082019050919050565b6000602082019050818103600083015261176181611725565b905091905056fea26469706673582212204065d255f552498d66fb3de036d49820924101fd5296c46903b051f1c53d877264736f6c634300080c0033",
  "linkReferences": {},
  "deployedLinkReferences": {}
}