{
  "_format": "hh-sol-artifact-1",
  "contractName": "ScriptyBuilder",
  "sourceName": "src/contracts/scripty/ScriptyBuilder.sol",
  "abi": [
    {
      "inputs": [],
      "name": "InvalidRequestsLength",
      "type": "error"
    },
    {
      "inputs": [],
      "name": "HTML_BASE64_DATA_URI_BYTES",
      "outputs": [
        {
          "internalType": "uint256",
          "name": "",
          "type": "uint256"
        }
      ],
      "stateMutability": "view",
      "type": "function"
    },
    {
      "inputs": [],
      "name": "HTML_BODY_CLOSED_RAW",
      "outputs": [
        {
          "internalType": "bytes",
          "name": "",
          "type": "bytes"
        }
      ],
      "stateMutability": "view",
      "type": "function"
    },
    {
      "inputs": [],
      "name": "HTML_BODY_CLOSED_URL_SAFE",
      "outputs": [
        {
          "internalType": "bytes",
          "name": "",
          "type": "bytes"
        }
      ],
      "stateMutability": "view",
      "type": "function"
    },
    {
      "inputs": [],
      "name": "HTML_BODY_OPEN_RAW",
      "outputs": [
        {
          "internalType": "bytes",
          "name": "",
          "type": "bytes"
        }
      ],
      "stateMutability": "view",
      "type": "function"
    },
    {
      "inputs": [],
      "name": "HTML_BODY_OPEN_URL_SAFE",
      "outputs": [
        {
          "internalType": "bytes",
          "name": "",
          "type": "bytes"
        }
      ],
      "stateMutability": "view",
      "type": "function"
    },
    {
      "inputs": [],
      "name": "HTML_TAG_RAW",
      "outputs": [
        {
          "internalType": "bytes",
          "name": "",
          "type": "bytes"
        }
      ],
      "stateMutability": "view",
      "type": "function"
    },
    {
      "inputs": [],
      "name": "HTML_TAG_URL_SAFE",
      "outputs": [
        {
          "internalType": "bytes",
          "name": "",
          "type": "bytes"
        }
      ],
      "stateMutability": "view",
      "type": "function"
    },
    {
      "inputs": [],
      "name": "SCRIPT_INLINE_BYTES",
      "outputs": [
        {
          "internalType": "uint256",
          "name": "",
          "type": "uint256"
        }
      ],
      "stateMutability": "view",
      "type": "function"
    },
    {
      "inputs": [],
      "name": "URLS_RAW_BYTES",
      "outputs": [
        {
          "internalType": "uint256",
          "name": "",
          "type": "uint256"
        }
      ],
      "stateMutability": "view",
      "type": "function"
    },
    {
      "inputs": [],
      "name": "URLS_SAFE_BYTES",
      "outputs": [
        {
          "internalType": "uint256",
          "name": "",
          "type": "uint256"
        }
      ],
      "stateMutability": "view",
      "type": "function"
    },
    {
      "inputs": [
        {
          "components": [
            {
              "internalType": "string",
              "name": "name",
              "type": "string"
            },
            {
              "internalType": "address",
              "name": "contractAddress",
              "type": "address"
            },
            {
              "internalType": "bytes",
              "name": "contractData",
              "type": "bytes"
            },
            {
              "internalType": "bytes",
              "name": "scriptContent",
              "type": "bytes"
            }
          ],
          "internalType": "struct InlineScriptRequest[]",
          "name": "requests",
          "type": "tuple[]"
        }
      ],
      "name": "getBufferSizeForEncodedHTMLInline",
      "outputs": [
        {
          "internalType": "uint256",
          "name": "",
          "type": "uint256"
        }
      ],
      "stateMutability": "view",
      "type": "function"
    },
    {
      "inputs": [
        {
          "components": [
            {
              "internalType": "string",
              "name": "name",
              "type": "string"
            },
            {
              "internalType": "address",
              "name": "contractAddress",
              "type": "address"
            },
            {
              "internalType": "bytes",
              "name": "contractData",
              "type": "bytes"
            },
            {
              "internalType": "uint8",
              "name": "wrapType",
              "type": "uint8"
            },
            {
              "internalType": "bytes",
              "name": "wrapPrefix",
              "type": "bytes"
            },
            {
              "internalType": "bytes",
              "name": "wrapSuffix",
              "type": "bytes"
            },
            {
              "internalType": "bytes",
              "name": "scriptContent",
              "type": "bytes"
            }
          ],
          "internalType": "struct WrappedScriptRequest[]",
          "name": "requests",
          "type": "tuple[]"
        }
      ],
      "name": "getBufferSizeForEncodedHTMLWrapped",
      "outputs": [
        {
          "internalType": "uint256",
          "name": "",
          "type": "uint256"
        }
      ],
      "stateMutability": "view",
      "type": "function"
    },
    {
      "inputs": [
        {
          "components": [
            {
              "internalType": "string",
              "name": "name",
              "type": "string"
            },
            {
              "internalType": "address",
              "name": "contractAddress",
              "type": "address"
            },
            {
              "internalType": "bytes",
              "name": "contractData",
              "type": "bytes"
            },
            {
              "internalType": "bytes",
              "name": "scriptContent",
              "type": "bytes"
            }
          ],
          "internalType": "struct InlineScriptRequest[]",
          "name": "requests",
          "type": "tuple[]"
        }
      ],
      "name": "getBufferSizeForHTMLInline",
      "outputs": [
        {
          "internalType": "uint256",
          "name": "",
          "type": "uint256"
        }
      ],
      "stateMutability": "view",
      "type": "function"
    },
    {
      "inputs": [
        {
          "components": [
            {
              "internalType": "string",
              "name": "name",
              "type": "string"
            },
            {
              "internalType": "address",
              "name": "contractAddress",
              "type": "address"
            },
            {
              "internalType": "bytes",
              "name": "contractData",
              "type": "bytes"
            },
            {
              "internalType": "uint8",
              "name": "wrapType",
              "type": "uint8"
            },
            {
              "internalType": "bytes",
              "name": "wrapPrefix",
              "type": "bytes"
            },
            {
              "internalType": "bytes",
              "name": "wrapSuffix",
              "type": "bytes"
            },
            {
              "internalType": "bytes",
              "name": "scriptContent",
              "type": "bytes"
            }
          ],
          "internalType": "struct WrappedScriptRequest[]",
          "name": "requests",
          "type": "tuple[]"
        }
      ],
      "name": "getBufferSizeForHTMLWrapped",
      "outputs": [
        {
          "internalType": "uint256",
          "name": "",
          "type": "uint256"
        }
      ],
      "stateMutability": "view",
      "type": "function"
    },
    {
      "inputs": [
        {
          "components": [
            {
              "internalType": "string",
              "name": "name",
              "type": "string"
            },
            {
              "internalType": "address",
              "name": "contractAddress",
              "type": "address"
            },
            {
              "internalType": "bytes",
              "name": "contractData",
              "type": "bytes"
            },
            {
              "internalType": "uint8",
              "name": "wrapType",
              "type": "uint8"
            },
            {
              "internalType": "bytes",
              "name": "wrapPrefix",
              "type": "bytes"
            },
            {
              "internalType": "bytes",
              "name": "wrapSuffix",
              "type": "bytes"
            },
            {
              "internalType": "bytes",
              "name": "scriptContent",
              "type": "bytes"
            }
          ],
          "internalType": "struct WrappedScriptRequest[]",
          "name": "requests",
          "type": "tuple[]"
        }
      ],
      "name": "getBufferSizeForURLSafeHTMLWrapped",
      "outputs": [
        {
          "internalType": "uint256",
          "name": "",
          "type": "uint256"
        }
      ],
      "stateMutability": "view",
      "type": "function"
    },
    {
      "inputs": [
        {
          "components": [
            {
              "internalType": "string",
              "name": "name",
              "type": "string"
            },
            {
              "internalType": "address",
              "name": "contractAddress",
              "type": "address"
            },
            {
              "internalType": "bytes",
              "name": "contractData",
              "type": "bytes"
            },
            {
              "internalType": "bytes",
              "name": "scriptContent",
              "type": "bytes"
            }
          ],
          "internalType": "struct InlineScriptRequest[]",
          "name": "requests",
          "type": "tuple[]"
        },
        {
          "internalType": "uint256",
          "name": "bufferSize",
          "type": "uint256"
        }
      ],
      "name": "getEncodedHTMLInline",
      "outputs": [
        {
          "internalType": "bytes",
          "name": "",
          "type": "bytes"
        }
      ],
      "stateMutability": "view",
      "type": "function"
    },
    {
      "inputs": [
        {
          "components": [
            {
              "internalType": "string",
              "name": "name",
              "type": "string"
            },
            {
              "internalType": "address",
              "name": "contractAddress",
              "type": "address"
            },
            {
              "internalType": "bytes",
              "name": "contractData",
              "type": "bytes"
            },
            {
              "internalType": "bytes",
              "name": "scriptContent",
              "type": "bytes"
            }
          ],
          "internalType": "struct InlineScriptRequest[]",
          "name": "requests",
          "type": "tuple[]"
        },
        {
          "internalType": "uint256",
          "name": "bufferSize",
          "type": "uint256"
        }
      ],
      "name": "getEncodedHTMLInlineString",
      "outputs": [
        {
          "internalType": "string",
          "name": "",
          "type": "string"
        }
      ],
      "stateMutability": "view",
      "type": "function"
    },
    {
      "inputs": [
        {
          "components": [
            {
              "internalType": "string",
              "name": "name",
              "type": "string"
            },
            {
              "internalType": "address",
              "name": "contractAddress",
              "type": "address"
            },
            {
              "internalType": "bytes",
              "name": "contractData",
              "type": "bytes"
            },
            {
              "internalType": "uint8",
              "name": "wrapType",
              "type": "uint8"
            },
            {
              "internalType": "bytes",
              "name": "wrapPrefix",
              "type": "bytes"
            },
            {
              "internalType": "bytes",
              "name": "wrapSuffix",
              "type": "bytes"
            },
            {
              "internalType": "bytes",
              "name": "scriptContent",
              "type": "bytes"
            }
          ],
          "internalType": "struct WrappedScriptRequest[]",
          "name": "requests",
          "type": "tuple[]"
        },
        {
          "internalType": "uint256",
          "name": "bufferSize",
          "type": "uint256"
        }
      ],
      "name": "getEncodedHTMLWrapped",
      "outputs": [
        {
          "internalType": "bytes",
          "name": "",
          "type": "bytes"
        }
      ],
      "stateMutability": "view",
      "type": "function"
    },
    {
      "inputs": [
        {
          "components": [
            {
              "internalType": "string",
              "name": "name",
              "type": "string"
            },
            {
              "internalType": "address",
              "name": "contractAddress",
              "type": "address"
            },
            {
              "internalType": "bytes",
              "name": "contractData",
              "type": "bytes"
            },
            {
              "internalType": "uint8",
              "name": "wrapType",
              "type": "uint8"
            },
            {
              "internalType": "bytes",
              "name": "wrapPrefix",
              "type": "bytes"
            },
            {
              "internalType": "bytes",
              "name": "wrapSuffix",
              "type": "bytes"
            },
            {
              "internalType": "bytes",
              "name": "scriptContent",
              "type": "bytes"
            }
          ],
          "internalType": "struct WrappedScriptRequest[]",
          "name": "requests",
          "type": "tuple[]"
        },
        {
          "internalType": "uint256",
          "name": "bufferSize",
          "type": "uint256"
        }
      ],
      "name": "getEncodedHTMLWrappedString",
      "outputs": [
        {
          "internalType": "string",
          "name": "",
          "type": "string"
        }
      ],
      "stateMutability": "view",
      "type": "function"
    },
    {
      "inputs": [
        {
          "components": [
            {
              "internalType": "string",
              "name": "name",
              "type": "string"
            },
            {
              "internalType": "address",
              "name": "contractAddress",
              "type": "address"
            },
            {
              "internalType": "bytes",
              "name": "contractData",
              "type": "bytes"
            },
            {
              "internalType": "bytes",
              "name": "scriptContent",
              "type": "bytes"
            }
          ],
          "internalType": "struct InlineScriptRequest[]",
          "name": "requests",
          "type": "tuple[]"
        },
        {
          "internalType": "uint256",
          "name": "bufferSize",
          "type": "uint256"
        }
      ],
      "name": "getHTMLInline",
      "outputs": [
        {
          "internalType": "bytes",
          "name": "",
          "type": "bytes"
        }
      ],
      "stateMutability": "view",
      "type": "function"
    },
    {
      "inputs": [
        {
          "components": [
            {
              "internalType": "string",
              "name": "name",
              "type": "string"
            },
            {
              "internalType": "address",
              "name": "contractAddress",
              "type": "address"
            },
            {
              "internalType": "bytes",
              "name": "contractData",
              "type": "bytes"
            },
            {
              "internalType": "bytes",
              "name": "scriptContent",
              "type": "bytes"
            }
          ],
          "internalType": "struct InlineScriptRequest[]",
          "name": "requests",
          "type": "tuple[]"
        },
        {
          "internalType": "uint256",
          "name": "bufferSize",
          "type": "uint256"
        }
      ],
      "name": "getHTMLInlineString",
      "outputs": [
        {
          "internalType": "string",
          "name": "",
          "type": "string"
        }
      ],
      "stateMutability": "view",
      "type": "function"
    },
    {
      "inputs": [
        {
          "components": [
            {
              "internalType": "string",
              "name": "name",
              "type": "string"
            },
            {
              "internalType": "address",
              "name": "contractAddress",
              "type": "address"
            },
            {
              "internalType": "bytes",
              "name": "contractData",
              "type": "bytes"
            },
            {
              "internalType": "uint8",
              "name": "wrapType",
              "type": "uint8"
            },
            {
              "internalType": "bytes",
              "name": "wrapPrefix",
              "type": "bytes"
            },
            {
              "internalType": "bytes",
              "name": "wrapSuffix",
              "type": "bytes"
            },
            {
              "internalType": "bytes",
              "name": "scriptContent",
              "type": "bytes"
            }
          ],
          "internalType": "struct WrappedScriptRequest[]",
          "name": "requests",
          "type": "tuple[]"
        },
        {
          "internalType": "uint256",
          "name": "bufferSize",
          "type": "uint256"
        }
      ],
      "name": "getHTMLWrapped",
      "outputs": [
        {
          "internalType": "bytes",
          "name": "",
          "type": "bytes"
        }
      ],
      "stateMutability": "view",
      "type": "function"
    },
    {
      "inputs": [
        {
          "components": [
            {
              "internalType": "string",
              "name": "name",
              "type": "string"
            },
            {
              "internalType": "address",
              "name": "contractAddress",
              "type": "address"
            },
            {
              "internalType": "bytes",
              "name": "contractData",
              "type": "bytes"
            },
            {
              "internalType": "uint8",
              "name": "wrapType",
              "type": "uint8"
            },
            {
              "internalType": "bytes",
              "name": "wrapPrefix",
              "type": "bytes"
            },
            {
              "internalType": "bytes",
              "name": "wrapSuffix",
              "type": "bytes"
            },
            {
              "internalType": "bytes",
              "name": "scriptContent",
              "type": "bytes"
            }
          ],
          "internalType": "struct WrappedScriptRequest[]",
          "name": "requests",
          "type": "tuple[]"
        },
        {
          "internalType": "uint256",
          "name": "bufferSize",
          "type": "uint256"
        }
      ],
      "name": "getHTMLWrappedString",
      "outputs": [
        {
          "internalType": "string",
          "name": "",
          "type": "string"
        }
      ],
      "stateMutability": "view",
      "type": "function"
    },
    {
      "inputs": [
        {
          "components": [
            {
              "internalType": "string",
              "name": "name",
              "type": "string"
            },
            {
              "internalType": "address",
              "name": "contractAddress",
              "type": "address"
            },
            {
              "internalType": "bytes",
              "name": "contractData",
              "type": "bytes"
            },
            {
              "internalType": "uint8",
              "name": "wrapType",
              "type": "uint8"
            },
            {
              "internalType": "bytes",
              "name": "wrapPrefix",
              "type": "bytes"
            },
            {
              "internalType": "bytes",
              "name": "wrapSuffix",
              "type": "bytes"
            },
            {
              "internalType": "bytes",
              "name": "scriptContent",
              "type": "bytes"
            }
          ],
          "internalType": "struct WrappedScriptRequest[]",
          "name": "requests",
          "type": "tuple[]"
        },
        {
          "internalType": "uint256",
          "name": "bufferSize",
          "type": "uint256"
        }
      ],
      "name": "getHTMLWrappedURLSafe",
      "outputs": [
        {
          "internalType": "bytes",
          "name": "",
          "type": "bytes"
        }
      ],
      "stateMutability": "view",
      "type": "function"
    },
    {
      "inputs": [
        {
          "components": [
            {
              "internalType": "string",
              "name": "name",
              "type": "string"
            },
            {
              "internalType": "address",
              "name": "contractAddress",
              "type": "address"
            },
            {
              "internalType": "bytes",
              "name": "contractData",
              "type": "bytes"
            },
            {
              "internalType": "bytes",
              "name": "scriptContent",
              "type": "bytes"
            }
          ],
          "internalType": "struct InlineScriptRequest",
          "name": "request",
          "type": "tuple"
        }
      ],
      "name": "getInlineScriptSize",
      "outputs": [
        {
          "internalType": "uint256",
          "name": "",
          "type": "uint256"
        }
      ],
      "stateMutability": "view",
      "type": "function"
    },
    {
      "inputs": [
        {
          "components": [
            {
              "internalType": "string",
              "name": "name",
              "type": "string"
            },
            {
              "internalType": "address",
              "name": "contractAddress",
              "type": "address"
            },
            {
              "internalType": "bytes",
              "name": "contractData",
              "type": "bytes"
            },
            {
              "internalType": "uint8",
              "name": "wrapType",
              "type": "uint8"
            },
            {
              "internalType": "bytes",
              "name": "wrapPrefix",
              "type": "bytes"
            },
            {
              "internalType": "bytes",
              "name": "wrapSuffix",
              "type": "bytes"
            },
            {
              "internalType": "bytes",
              "name": "scriptContent",
              "type": "bytes"
            }
          ],
          "internalType": "struct WrappedScriptRequest[]",
          "name": "requests",
          "type": "tuple[]"
        },
        {
          "internalType": "uint256",
          "name": "bufferSize",
          "type": "uint256"
        }
      ],
      "name": "getURLSafeHTMLWrappedString",
      "outputs": [
        {
          "internalType": "string",
          "name": "",
          "type": "string"
        }
      ],
      "stateMutability": "view",
      "type": "function"
    },
    {
      "inputs": [
        {
          "components": [
            {
              "internalType": "string",
              "name": "name",
              "type": "string"
            },
            {
              "internalType": "address",
              "name": "contractAddress",
              "type": "address"
            },
            {
              "internalType": "bytes",
              "name": "contractData",
              "type": "bytes"
            },
            {
              "internalType": "uint8",
              "name": "wrapType",
              "type": "uint8"
            },
            {
              "internalType": "bytes",
              "name": "wrapPrefix",
              "type": "bytes"
            },
            {
              "internalType": "bytes",
              "name": "wrapSuffix",
              "type": "bytes"
            },
            {
              "internalType": "bytes",
              "name": "scriptContent",
              "type": "bytes"
            }
          ],
          "internalType": "struct WrappedScriptRequest",
          "name": "request",
          "type": "tuple"
        }
      ],
      "name": "getURLSafeWrappedScriptSize",
      "outputs": [
        {
          "internalType": "uint256",
          "name": "",
          "type": "uint256"
        }
      ],
      "stateMutability": "view",
      "type": "function"
    },
    {
      "inputs": [
        {
          "components": [
            {
              "internalType": "string",
              "name": "name",
              "type": "string"
            },
            {
              "internalType": "address",
              "name": "contractAddress",
              "type": "address"
            },
            {
              "internalType": "bytes",
              "name": "contractData",
              "type": "bytes"
            },
            {
              "internalType": "uint8",
              "name": "wrapType",
              "type": "uint8"
            },
            {
              "internalType": "bytes",
              "name": "wrapPrefix",
              "type": "bytes"
            },
            {
              "internalType": "bytes",
              "name": "wrapSuffix",
              "type": "bytes"
            },
            {
              "internalType": "bytes",
              "name": "scriptContent",
              "type": "bytes"
            }
          ],
          "internalType": "struct WrappedScriptRequest",
          "name": "request",
          "type": "tuple"
        }
      ],
      "name": "getWrappedScriptSize",
      "outputs": [
        {
          "internalType": "uint256",
          "name": "",
          "type": "uint256"
        }
      ],
      "stateMutability": "view",
      "type": "function"
    }
  ],
  "bytecode": "0x608060405234801561001057600080fd5b5061267c806100206000396000f3fe608060405234801561001057600080fd5b50600436106101c45760003560e01c80639e708330116100f9578063c03f39cd11610097578063cab6a3f311610071578063cab6a3f3146105cb578063d602d7d0146105fb578063e572b8a014610619578063f051dcf814610637576101c4565b8063c03f39cd1461053b578063c71dd0261461056b578063c8d00e051461059b576101c4565b8063b8108e30116100d3578063b8108e301461048d578063b97e52da146104bd578063ba69524d146104ed578063bee84ae31461051d576101c4565b80639e7083301461040f578063a0a5eeac1461042d578063b4f7d41e1461045d576101c4565b8063668db168116101665780637603465f116101405780637603465f146103615780637ea050061461039157806387598e52146103c15780639a7f08e0146103df576101c4565b8063668db168146102e357806368e1644a146103135780637510ac2414610343576101c4565b8063479751c3116101a2578063479751c31461024757806349a6b847146102775780634ce2f93114610295578063529df5d7146102b3576101c4565b8063053f1eb0146101c957806333a656c1146101e757806334c3c9d514610217575b600080fd5b6101d1610655565b6040516101de919061192a565b60405180910390f35b61020160048036038101906101fc91906119c5565b61068e565b60405161020e9190611a2b565b60405180910390f35b610231600480360381019061022c9190611ac8565b61070a565b60405161023e919061192a565b60405180910390f35b610261600480360381019061025c9190611b28565b6107a6565b60405161026e919061192a565b60405180910390f35b61027f610842565b60405161028c9190611a2b565b60405180910390f35b61029d610847565b6040516102aa919061192a565b60405180910390f35b6102cd60048036038101906102c89190611e8d565b610880565b6040516102da9190611a2b565b60405180910390f35b6102fd60048036038101906102f8919061204f565b6108a6565b60405161030a9190611a2b565b60405180910390f35b61032d60048036038101906103289190612098565b6108ea565b60405161033a9190611a2b565b60405180910390f35b61034b610963565b6040516103589190611a2b565b60405180910390f35b61037b60048036038101906103769190611ac8565b610968565b604051610388919061192a565b60405180910390f35b6103ab60048036038101906103a69190611b28565b610b51565b6040516103b8919061213a565b60405180910390f35b6103c9610b67565b6040516103d69190611a2b565b60405180910390f35b6103f960048036038101906103f49190611b28565b610b6c565b604051610406919061213a565b60405180910390f35b610417610b82565b604051610424919061192a565b60405180910390f35b61044760048036038101906104429190612098565b610bbb565b6040516104549190611a2b565b60405180910390f35b61047760048036038101906104729190611ac8565b610bdf565b604051610484919061192a565b60405180910390f35b6104a760048036038101906104a2919061204f565b610df3565b6040516104b49190611a2b565b60405180910390f35b6104d760048036038101906104d29190612098565b610e52565b6040516104e49190611a2b565b60405180910390f35b61050760048036038101906105029190611b28565b610ecb565b604051610514919061192a565b60405180910390f35b610525611108565b6040516105329190611a2b565b60405180910390f35b61055560048036038101906105509190611ac8565b61110d565b604051610562919061213a565b60405180910390f35b61058560048036038101906105809190611ac8565b611123565b604051610592919061213a565b60405180910390f35b6105b560048036038101906105b09190611ac8565b611139565b6040516105c2919061213a565b60405180910390f35b6105e560048036038101906105e091906119c5565b61114f565b6040516105f29190611a2b565b60405180910390f35b610603611173565b604051610610919061192a565b60405180910390f35b6106216111ac565b60405161062e919061192a565b60405180910390f35b61063f6111c8565b60405161064c919061192a565b60405180910390f35b6040518060400160405280601381526020017f25323533432532353246626f647925323533450000000000000000000000000081525081565b6000806000808585905090506106a2611806565b60008211156106f7575b8686848181106106bf576106be61215c565b5b90506020028101906106d19190612190565b6106da906121b8565b90506106e581610880565b840193508183600101935083106106ac575b6011602c85010194505050505092915050565b60606000610719858585610968565b905060006107278251611201565b6016019050600061073782611222565b90506107816040518060400160405280601681526020017f646174613a746578742f68746d6c3b6261736536342c000000000000000000008152508261124c90919063ffffffff16565b6107998360008084611265909392919063ffffffff16565b8093505050509392505050565b606060006107b5858585610ecb565b905060006107c38251611201565b601601905060006107d382611222565b905061081d6040518060400160405280601681526020017f646174613a746578742f68746d6c3b6261736536342c000000000000000000008152508261124c90919063ffffffff16565b6108358360008084611265909392919063ffffffff16565b8093505050509392505050565b601181565b6040518060400160405280600681526020017f3c68746d6c3e000000000000000000000000000000000000000000000000000081525081565b600061089e8260000151836020015184604001518560600151611390565b519050919050565b60008060006108b484611430565b9150915060006108d68560000151866020015187604001518860c00151611390565b519050808251845101019350505050919050565b6000806000808585905090506108fe611844565b6000821115610953575b86868481811061091b5761091a61215c565b5b905060200281019061092d91906121cb565b610936906121f3565b905061094181610df3565b84019350818360010193508310610908575b6060840194505050505092915050565b601681565b60606000848490509050600081036109ac576040517f54aa7c2a00000000000000000000000000000000000000000000000000000000815260040160405180910390fd5b60006109b784611222565b9050610a016040518060400160405280600681526020017f3c68746d6c3e00000000000000000000000000000000000000000000000000008152508261124c90919063ffffffff16565b610a496040518060400160405280601881526020017f3c626f6479207374796c653d276d617267696e3a303b273e00000000000000008152508261124c90919063ffffffff16565b606080610a54611844565b60005b898982818110610a6a57610a6961215c565b5b9050602002810190610a7c91906121cb565b610a85906121f3565b9150610a9082611430565b8094508195505050610aab848661124c90919063ffffffff16565b610ad9610aca8360000151846020015185604001518660c00151611390565b8661124c90919063ffffffff16565b610aec838661124c90919063ffffffff16565b858160010191508110610a5757610b416040518060400160405280600e81526020017f3c2f626f64793e3c2f68746d6c3e0000000000000000000000000000000000008152508661124c90919063ffffffff16565b8496505050505050509392505050565b6060610b5e8484846107a6565b90509392505050565b602c81565b6060610b79848484610ecb565b90509392505050565b6040518060400160405280601581526020017f646174612533417465787425324668746d6c253243000000000000000000000081525081565b600080610bc88484610e52565b9050610bd381611201565b60160191505092915050565b6060600084849050905060008103610c23576040517f54aa7c2a00000000000000000000000000000000000000000000000000000000815260040160405180910390fd5b6000610c2e84611222565b9050610c786040518060400160405280601581526020017f646174612533417465787425324668746d6c25324300000000000000000000008152508261124c90919063ffffffff16565b610ca3604051806060016040528060388152602001612444603891398261124c90919063ffffffff16565b606080610cae611844565b60005b898982818110610cc457610cc361215c565b5b9050602002810190610cd691906121cb565b610cdf906121f3565b9150610cea82611600565b8094508195505050610d05848661124c90919063ffffffff16565b6000826060015160ff1603610d4c57610d47610d338360000151846020015185604001518660c00151611390565b60008088611265909392919063ffffffff16565b610d7b565b610d7a610d6b8360000151846020015185604001518660c00151611390565b8661124c90919063ffffffff16565b5b610d8e838661124c90919063ffffffff16565b858160010191508110610cb157610de36040518060400160405280601381526020017f25323533432532353246626f64792532353345000000000000000000000000008152508661124c90919063ffffffff16565b8496505050505050509392505050565b6000806000610e0184611600565b915091506000610e238560000151866020015187604001518860c00151611390565b5190506000856060015160ff1603610e4157610e3e81611201565b90505b808251845101019350505050919050565b600080600080858590509050610e66611844565b6000821115610ebb575b868684818110610e8357610e8261215c565b5b9050602002810190610e9591906121cb565b610e9e906121f3565b9050610ea9816108a6565b84019350818360010193508310610e70575b602c840194505050505092915050565b6060600084849050905060008103610f0f576040517f54aa7c2a00000000000000000000000000000000000000000000000000000000815260040160405180910390fd5b6000610f1a84611222565b9050610f646040518060400160405280600681526020017f3c68746d6c3e00000000000000000000000000000000000000000000000000008152508261124c90919063ffffffff16565b610fac6040518060400160405280601881526020017f3c626f6479207374796c653d276d617267696e3a303b273e00000000000000008152508261124c90919063ffffffff16565b610ff46040518060400160405280600881526020017f3c7363726970743e0000000000000000000000000000000000000000000000008152508261124c90919063ffffffff16565b610ffc611806565b60005b8787828181106110125761101161215c565b5b90506020028101906110249190612190565b61102d906121b8565b915061105d61104e8360000151846020015185604001518660600151611390565b8461124c90919063ffffffff16565b838160010191508110610fff576110b26040518060400160405280600981526020017f3c2f7363726970743e00000000000000000000000000000000000000000000008152508461124c90919063ffffffff16565b6110fa6040518060400160405280600e81526020017f3c2f626f64793e3c2f68746d6c3e0000000000000000000000000000000000008152508461124c90919063ffffffff16565b829450505050509392505050565b606081565b606061111a84848461070a565b90509392505050565b6060611130848484610bdf565b90509392505050565b6060611146848484610968565b90509392505050565b60008061115c848461068e565b905061116781611201565b60160191505092915050565b6040518060400160405280601881526020017f3c626f6479207374796c653d276d617267696e3a303b273e000000000000000081525081565b6040518060600160405280603881526020016124446038913981565b6040518060400160405280600e81526020017f3c2f626f64793e3c2f68746d6c3e00000000000000000000000000000000000081525081565b60006003600283018161121757611216612206565b5b046004029050919050565b60606040516060830180820180604052505060408301808252506020810191506000825250919050565b61125782825161174c565b61126182826117b3565b5050565b600083519050600084510361127a575061138a565b6000806003600284010460021b915060038306905083156112a2576001811481151501820391505b6112ac878361174c565b6040517f4142434445464748494a4b4c4d4e4f505152535455565758595a616263646566601f526102308615027f6768696a6b6c6d6e6f707172737475767778797a303132333435363738392d5f03603f52875160208901018488015b60011561135f576003890198508851603f8160121c16518353603f81600c1c16516001840153603f8160061c16516002840153603f8116516003840153600483019250818a10611359575061135f565b50611309565b8661137957603d841515830353603d6001851460011b8303535b848a51018a52826040525050505050505b50505050565b60606000825111156113a457819050611428565b8373ffffffffffffffffffffffffffffffffffffffff1663f963559486856040518363ffffffff1660e01b81526004016113df929190612235565b600060405180830381865afa1580156113fc573d6000803e3d6000fd5b505050506040513d6000823e3d601f19601f8201168201806040525081019061142591906122dc565b90505b949350505050565b6060806000836060015160ff16036114b7576040518060400160405280600881526020017f3c7363726970743e0000000000000000000000000000000000000000000000008152506040518060400160405280600981526020017f3c2f7363726970743e0000000000000000000000000000000000000000000000815250915091506115fb565b6001836060015160ff160361151e5760405180606001604052806029815260200161241b602991396040518060400160405280600b81526020017f223e3c2f7363726970743e000000000000000000000000000000000000000000815250915091506115fb565b6002836060015160ff1603611585576040518060800160405280604581526020016124c5604591396040518060400160405280600b81526020017f223e3c2f7363726970743e000000000000000000000000000000000000000000815250915091506115fb565b6003836060015160ff16036115ec57604051806080016040528060448152602001612603604491396040518060400160405280600b81526020017f223e3c2f7363726970743e000000000000000000000000000000000000000000815250915091506115fb565b82608001518360a00151915091505b915091565b6060806001836060015160ff161161166a5760405180608001604052806049815260200161247c604991396040518060400160405280601f81526020017f253235323225323533452532353343253235324673637269707425323533450081525091509150611747565b6002836060015160ff16036116d1576040518060a00160405280607d815260200161250a607d91396040518060400160405280601f81526020017f253235323225323533452532353343253235324673637269707425323533450081525091509150611747565b6003836060015160ff1603611738576040518060a00160405280607c8152602001612587607c91396040518060400160405280601f81526020017f253235323225323533452532353343253235324673637269707425323533450081525091509150611747565b82608001518360a00151915091505b915091565b6000611757836117f0565b905060008284516117689190612354565b9050808210156117ad576040517f08c379a00000000000000000000000000000000000000000000000000000000081526004016117a4906123fa565b60405180910390fd5b50505050565b8051602082019150808201602084510184015b818410156117e357835181526020840193506020810190506117c6565b5050808351018352505050565b6000806040602084035103905080915050919050565b604051806080016040528060608152602001600073ffffffffffffffffffffffffffffffffffffffff16815260200160608152602001606081525090565b6040518060e0016040528060608152602001600073ffffffffffffffffffffffffffffffffffffffff16815260200160608152602001600060ff1681526020016060815260200160608152602001606081525090565b600081519050919050565b600082825260208201905092915050565b60005b838110156118d45780820151818401526020810190506118b9565b60008484015250505050565b6000601f19601f8301169050919050565b60006118fc8261189a565b61190681856118a5565b93506119168185602086016118b6565b61191f816118e0565b840191505092915050565b6000602082019050818103600083015261194481846118f1565b905092915050565b6000604051905090565b600080fd5b600080fd5b600080fd5b600080fd5b600080fd5b60008083601f84011261198557611984611960565b5b8235905067ffffffffffffffff8111156119a2576119a1611965565b5b6020830191508360208202830111156119be576119bd61196a565b5b9250929050565b600080602083850312156119dc576119db611956565b5b600083013567ffffffffffffffff8111156119fa576119f961195b565b5b611a068582860161196f565b92509250509250929050565b6000819050919050565b611a2581611a12565b82525050565b6000602082019050611a406000830184611a1c565b92915050565b60008083601f840112611a5c57611a5b611960565b5b8235905067ffffffffffffffff811115611a7957611a78611965565b5b602083019150836020820283011115611a9557611a9461196a565b5b9250929050565b611aa581611a12565b8114611ab057600080fd5b50565b600081359050611ac281611a9c565b92915050565b600080600060408486031215611ae157611ae0611956565b5b600084013567ffffffffffffffff811115611aff57611afe61195b565b5b611b0b86828701611a46565b93509350506020611b1e86828701611ab3565b9150509250925092565b600080600060408486031215611b4157611b40611956565b5b600084013567ffffffffffffffff811115611b5f57611b5e61195b565b5b611b6b8682870161196f565b93509350506020611b7e86828701611ab3565b9150509250925092565b600080fd5b7f4e487b7100000000000000000000000000000000000000000000000000000000600052604160045260246000fd5b611bc5826118e0565b810181811067ffffffffffffffff82111715611be457611be3611b8d565b5b80604052505050565b6000611bf761194c565b9050611c038282611bbc565b919050565b600080fd5b600080fd5b600067ffffffffffffffff821115611c2d57611c2c611b8d565b5b611c36826118e0565b9050602081019050919050565b82818337600083830152505050565b6000611c65611c6084611c12565b611bed565b905082815260208101848484011115611c8157611c80611c0d565b5b611c8c848285611c43565b509392505050565b600082601f830112611ca957611ca8611960565b5b8135611cb9848260208601611c52565b91505092915050565b600073ffffffffffffffffffffffffffffffffffffffff82169050919050565b6000611ced82611cc2565b9050919050565b611cfd81611ce2565b8114611d0857600080fd5b50565b600081359050611d1a81611cf4565b92915050565b600067ffffffffffffffff821115611d3b57611d3a611b8d565b5b611d44826118e0565b9050602081019050919050565b6000611d64611d5f84611d20565b611bed565b905082815260208101848484011115611d8057611d7f611c0d565b5b611d8b848285611c43565b509392505050565b600082601f830112611da857611da7611960565b5b8135611db8848260208601611d51565b91505092915050565b600060808284031215611dd757611dd6611b88565b5b611de16080611bed565b9050600082013567ffffffffffffffff811115611e0157611e00611c08565b5b611e0d84828501611c94565b6000830152506020611e2184828501611d0b565b602083015250604082013567ffffffffffffffff811115611e4557611e44611c08565b5b611e5184828501611d93565b604083015250606082013567ffffffffffffffff811115611e7557611e74611c08565b5b611e8184828501611d93565b60608301525092915050565b600060208284031215611ea357611ea2611956565b5b600082013567ffffffffffffffff811115611ec157611ec061195b565b5b611ecd84828501611dc1565b91505092915050565b600060ff82169050919050565b611eec81611ed6565b8114611ef757600080fd5b50565b600081359050611f0981611ee3565b92915050565b600060e08284031215611f2557611f24611b88565b5b611f2f60e0611bed565b9050600082013567ffffffffffffffff811115611f4f57611f4e611c08565b5b611f5b84828501611c94565b6000830152506020611f6f84828501611d0b565b602083015250604082013567ffffffffffffffff811115611f9357611f92611c08565b5b611f9f84828501611d93565b6040830152506060611fb384828501611efa565b606083015250608082013567ffffffffffffffff811115611fd757611fd6611c08565b5b611fe384828501611d93565b60808301525060a082013567ffffffffffffffff81111561200757612006611c08565b5b61201384828501611d93565b60a08301525060c082013567ffffffffffffffff81111561203757612036611c08565b5b61204384828501611d93565b60c08301525092915050565b60006020828403121561206557612064611956565b5b600082013567ffffffffffffffff8111156120835761208261195b565b5b61208f84828501611f0f565b91505092915050565b600080602083850312156120af576120ae611956565b5b600083013567ffffffffffffffff8111156120cd576120cc61195b565b5b6120d985828601611a46565b92509250509250929050565b600081519050919050565b600082825260208201905092915050565b600061210c826120e5565b61211681856120f0565b93506121268185602086016118b6565b61212f816118e0565b840191505092915050565b600060208201905081810360008301526121548184612101565b905092915050565b7f4e487b7100000000000000000000000000000000000000000000000000000000600052603260045260246000fd5b600080fd5b6000823560016080038336030381126121ac576121ab61218b565b5b80830191505092915050565b60006121c43683611dc1565b9050919050565b60008235600160e0038336030381126121e7576121e661218b565b5b80830191505092915050565b60006121ff3683611f0f565b9050919050565b7f4e487b7100000000000000000000000000000000000000000000000000000000600052601260045260246000fd5b6000604082019050818103600083015261224f8185612101565b9050818103602083015261226381846118f1565b90509392505050565b600061227f61227a84611d20565b611bed565b90508281526020810184848401111561229b5761229a611c0d565b5b6122a68482856118b6565b509392505050565b600082601f8301126122c3576122c2611960565b5b81516122d384826020860161226c565b91505092915050565b6000602082840312156122f2576122f1611956565b5b600082015167ffffffffffffffff8111156123105761230f61195b565b5b61231c848285016122ae565b91505092915050565b7f4e487b7100000000000000000000000000000000000000000000000000000000600052601160045260246000fd5b600061235f82611a12565b915061236a83611a12565b925082820190508082111561238257612381612325565b5b92915050565b7f44796e616d69634275666665723a20417070656e64696e67206f7574206f662060008201527f626f756e64732e00000000000000000000000000000000000000000000000000602082015250565b60006123e46027836120f0565b91506123ef82612388565b604082019050919050565b60006020820190508181036000830152612413816123d7565b905091905056fe3c736372697074207372633d22646174613a746578742f6a6176617363726970743b6261736536342c2532353343626f647925323532307374796c65253235334425323532376d617267696e25323533413025323533422532353237253235334525323533437363726970742532353230737263253235334425323532326461746125323533417465787425323532466a617661736372697074253235334262617365363425323532433c73637269707420747970653d22746578742f6a6176617363726970742b677a697022207372633d22646174613a746578742f6a6176617363726970743b6261736536342c2532353343736372697074253235323074797065253235334425323532327465787425323532466a6176617363726970742532353242677a697025323532322532353230737263253235334425323532326461746125323533417465787425323532466a617661736372697074253235334262617365363425323532432532353343736372697074253235323074797065253235334425323532327465787425323532466a6176617363726970742532353242706e6725323532322532353230737263253235334425323532326461746125323533417465787425323532466a617661736372697074253235334262617365363425323532433c73637269707420747970653d22746578742f6a6176617363726970742b706e6722207372633d22646174613a746578742f6a6176617363726970743b6261736536342ca2646970667358221220c52e66cd0f0d2d1a6af2399056b1d2d3549a50d925e82e43233812a71da1abae64736f6c63430008110033",
  "linkReferences": {},
  "deployedLinkReferences": {}
}