{
  "_format": "hh-sol-artifact-1",
  "contractName": "ScriptyFrameFactory",
  "sourceName": "src/contracts/Factories/ScriptyFrameFactory.sol",
  "abi": [
    {
      "inputs": [],
      "stateMutability": "nonpayable",
      "type": "constructor"
    },
    {
      "anonymous": false,
      "inputs": [
        {
          "indexed": false,
          "internalType": "address",
          "name": "newAddress",
          "type": "address"
        }
      ],
      "name": "ScriptyFrameFactoryCreated",
      "type": "event"
    },
    {
      "inputs": [
        {
          "internalType": "string",
          "name": "_name",
          "type": "string"
        },
        {
          "internalType": "string",
          "name": "_version",
          "type": "string"
        }
      ],
      "name": "createScriptyFrame",
      "outputs": [
        {
          "internalType": "address",
          "name": "",
          "type": "address"
        }
      ],
      "stateMutability": "nonpayable",
      "type": "function"
    },
    {
      "inputs": [],
      "name": "libraryAddress",
      "outputs": [
        {
          "internalType": "address",
          "name": "",
          "type": "address"
        }
      ],
      "stateMutability": "view",
      "type": "function"
    },
    {
      "inputs": [
        {
          "internalType": "address",
          "name": "_libraryAddress",
          "type": "address"
        }
      ],
      "name": "setLibraryAddress",
      "outputs": [],
      "stateMutability": "nonpayable",
      "type": "function"
    }
  ],
  "bytecode": "0x608060405234801561001057600080fd5b506105df806100206000396000f3fe608060405234801561001057600080fd5b50600436106100415760003560e01c80634863ba17146100465780638aebe3d014610062578063b816f51314610092575b600080fd5b610060600480360381019061005b91906102f1565b6100b0565b005b61007c60048036038101906100779190610464565b610182565b60405161008991906104eb565b60405180910390f35b61009a6101f1565b6040516100a791906104eb565b60405180910390f35b600073ffffffffffffffffffffffffffffffffffffffff1660008054906101000a900473ffffffffffffffffffffffffffffffffffffffff1673ffffffffffffffffffffffffffffffffffffffff161461013f576040517f08c379a000000000000000000000000000000000000000000000000000000000815260040161013690610589565b60405180910390fd5b806000806101000a81548173ffffffffffffffffffffffffffffffffffffffff021916908373ffffffffffffffffffffffffffffffffffffffff16021790555050565b6000806101ae60008054906101000a900473ffffffffffffffffffffffffffffffffffffffff16610215565b90507fdaeded8dda2e5b4969c9219f94ae6ccfba96165f53b0b24716637e4567176746816040516101df91906104eb565b60405180910390a18091505092915050565b60008054906101000a900473ffffffffffffffffffffffffffffffffffffffff1681565b6000808260601b90506040517f3d602d80600a3d3981f3363d3d373d3d3d363d7300000000000000000000000081528160148201527f5af43d82803e903d91602b57fd5bf3000000000000000000000000000000000060288201526037816000f092505050919050565b6000604051905090565b600080fd5b600080fd5b600073ffffffffffffffffffffffffffffffffffffffff82169050919050565b60006102be82610293565b9050919050565b6102ce816102b3565b81146102d957600080fd5b50565b6000813590506102eb816102c5565b92915050565b60006020828403121561030757610306610289565b5b6000610315848285016102dc565b91505092915050565b600080fd5b600080fd5b6000601f19601f8301169050919050565b7f4e487b7100000000000000000000000000000000000000000000000000000000600052604160045260246000fd5b61037182610328565b810181811067ffffffffffffffff821117156103905761038f610339565b5b80604052505050565b60006103a361027f565b90506103af8282610368565b919050565b600067ffffffffffffffff8211156103cf576103ce610339565b5b6103d882610328565b9050602081019050919050565b82818337600083830152505050565b6000610407610402846103b4565b610399565b90508281526020810184848401111561042357610422610323565b5b61042e8482856103e5565b509392505050565b600082601f83011261044b5761044a61031e565b5b813561045b8482602086016103f4565b91505092915050565b6000806040838503121561047b5761047a610289565b5b600083013567ffffffffffffffff8111156104995761049861028e565b5b6104a585828601610436565b925050602083013567ffffffffffffffff8111156104c6576104c561028e565b5b6104d285828601610436565b9150509250929050565b6104e5816102b3565b82525050565b600060208201905061050060008301846104dc565b92915050565b600082825260208201905092915050565b7f536372697074794672616d65466163746f72793a204c69627261727920616c7260008201527f6561647920736574000000000000000000000000000000000000000000000000602082015250565b6000610573602883610506565b915061057e82610517565b604082019050919050565b600060208201905081810360008301526105a281610566565b905091905056fea2646970667358221220c1e836ec47e6be79121231c461cb4f047ed46c53a490f494adeb5b1bec9e122364736f6c63430008110033",
  "linkReferences": {},
  "deployedLinkReferences": {}
}