{
  "_format": "hh-sol-artifact-1",
  "contractName": "ScriptyStorageCloneable",
  "sourceName": "src/contracts/libs/scripty/ScriptyStorageCloneable.sol",
  "abi": [
    {
      "inputs": [],
      "stateMutability": "nonpayable",
      "type": "constructor"
    },
    {
      "inputs": [],
      "name": "NotScriptOwner",
      "type": "error"
    },
    {
      "inputs": [],
      "name": "ScriptExists",
      "type": "error"
    },
    {
      "anonymous": false,
      "inputs": [
        {
          "indexed": true,
          "internalType": "string",
          "name": "name",
          "type": "string"
        },
        {
          "indexed": false,
          "internalType": "uint256",
          "name": "size",
          "type": "uint256"
        }
      ],
      "name": "ChunkStored",
      "type": "event"
    },
    {
      "anonymous": false,
      "inputs": [
        {
          "indexed": true,
          "internalType": "address",
          "name": "previousOwner",
          "type": "address"
        },
        {
          "indexed": true,
          "internalType": "address",
          "name": "newOwner",
          "type": "address"
        }
      ],
      "name": "OwnershipTransferred",
      "type": "event"
    },
    {
      "anonymous": false,
      "inputs": [
        {
          "indexed": true,
          "internalType": "string",
          "name": "name",
          "type": "string"
        },
        {
          "indexed": false,
          "internalType": "address",
          "name": "owner",
          "type": "address"
        },
        {
          "indexed": false,
          "internalType": "bytes",
          "name": "details",
          "type": "bytes"
        }
      ],
      "name": "ScriptCreated",
      "type": "event"
    },
    {
      "anonymous": false,
      "inputs": [
        {
          "indexed": true,
          "internalType": "string",
          "name": "name",
          "type": "string"
        },
        {
          "indexed": false,
          "internalType": "address",
          "name": "owner",
          "type": "address"
        },
        {
          "indexed": false,
          "internalType": "bytes",
          "name": "details",
          "type": "bytes"
        }
      ],
      "name": "ScriptDetailsUpdated",
      "type": "event"
    },
    {
      "anonymous": false,
      "inputs": [
        {
          "indexed": true,
          "internalType": "string",
          "name": "name",
          "type": "string"
        },
        {
          "indexed": false,
          "internalType": "bool",
          "name": "isVerified",
          "type": "bool"
        }
      ],
      "name": "ScriptVerificationUpdated",
      "type": "event"
    },
    {
      "inputs": [
        {
          "internalType": "string",
          "name": "name",
          "type": "string"
        },
        {
          "internalType": "bytes",
          "name": "chunk",
          "type": "bytes"
        }
      ],
      "name": "addChunkToScript",
      "outputs": [],
      "stateMutability": "nonpayable",
      "type": "function"
    },
    {
      "inputs": [],
      "name": "contentStore",
      "outputs": [
        {
          "internalType": "contract IContentStore",
          "name": "",
          "type": "address"
        }
      ],
      "stateMutability": "view",
      "type": "function"
    },
    {
      "inputs": [
        {
          "internalType": "string",
          "name": "name",
          "type": "string"
        },
        {
          "internalType": "bytes",
          "name": "details",
          "type": "bytes"
        }
      ],
      "name": "createScript",
      "outputs": [],
      "stateMutability": "nonpayable",
      "type": "function"
    },
    {
      "inputs": [
        {
          "internalType": "string",
          "name": "name",
          "type": "string"
        },
        {
          "internalType": "bytes",
          "name": "data",
          "type": "bytes"
        }
      ],
      "name": "getScript",
      "outputs": [
        {
          "internalType": "bytes",
          "name": "script",
          "type": "bytes"
        }
      ],
      "stateMutability": "view",
      "type": "function"
    },
    {
      "inputs": [
        {
          "internalType": "string",
          "name": "name",
          "type": "string"
        }
      ],
      "name": "getScriptChunkPointers",
      "outputs": [
        {
          "internalType": "address[]",
          "name": "pointers",
          "type": "address[]"
        }
      ],
      "stateMutability": "view",
      "type": "function"
    },
    {
      "inputs": [],
      "name": "owner",
      "outputs": [
        {
          "internalType": "address",
          "name": "",
          "type": "address"
        }
      ],
      "stateMutability": "view",
      "type": "function"
    },
    {
      "inputs": [],
      "name": "renounceOwnership",
      "outputs": [],
      "stateMutability": "nonpayable",
      "type": "function"
    },
    {
      "inputs": [
        {
          "internalType": "string",
          "name": "",
          "type": "string"
        }
      ],
      "name": "scripts",
      "outputs": [
        {
          "internalType": "bool",
          "name": "isVerified",
          "type": "bool"
        },
        {
          "internalType": "address",
          "name": "owner",
          "type": "address"
        },
        {
          "internalType": "uint256",
          "name": "size",
          "type": "uint256"
        },
        {
          "internalType": "bytes",
          "name": "details",
          "type": "bytes"
        }
      ],
      "stateMutability": "view",
      "type": "function"
    },
    {
      "inputs": [
        {
          "internalType": "address",
          "name": "_contentStoreAddress",
          "type": "address"
        }
      ],
      "name": "setContentStore",
      "outputs": [],
      "stateMutability": "nonpayable",
      "type": "function"
    },
    {
      "inputs": [
        {
          "internalType": "address",
          "name": "newOwner",
          "type": "address"
        }
      ],
      "name": "transferOwnership",
      "outputs": [],
      "stateMutability": "nonpayable",
      "type": "function"
    },
    {
      "inputs": [
        {
          "internalType": "string",
          "name": "name",
          "type": "string"
        },
        {
          "internalType": "bytes",
          "name": "details",
          "type": "bytes"
        }
      ],
      "name": "updateDetails",
      "outputs": [],
      "stateMutability": "nonpayable",
      "type": "function"
    },
    {
      "inputs": [
        {
          "internalType": "string",
          "name": "name",
          "type": "string"
        },
        {
          "internalType": "bool",
          "name": "isVerified",
          "type": "bool"
        }
      ],
      "name": "updateScriptVerification",
      "outputs": [],
      "stateMutability": "nonpayable",
      "type": "function"
    }
  ],
  "bytecode": "0x608060405234801561001057600080fd5b5061002d61002261003260201b60201c565b61003a60201b60201c565b6100fe565b600033905090565b60008060009054906101000a900473ffffffffffffffffffffffffffffffffffffffff169050816000806101000a81548173ffffffffffffffffffffffffffffffffffffffff021916908373ffffffffffffffffffffffffffffffffffffffff1602179055508173ffffffffffffffffffffffffffffffffffffffff168173ffffffffffffffffffffffffffffffffffffffff167f8be0079c531659141344cd1fd0a4f28419497f9722a3daafe3b4186f6b6457e060405160405180910390a35050565b611f8f8061010d6000396000f3fe608060405234801561001057600080fd5b50600436106100b45760003560e01c8063ae0f849711610071578063ae0f849714610167578063c3766aff1461019a578063f2fde38b146101b6578063f66188a4146101d2578063f9635594146101ee578063ff0c484e1461021e576100b4565b80633998d026146100b95780633a6e674c146100e95780633b7aa8d914610107578063715018a6146101235780638652d6691461012d5780638da5cb5b14610149575b600080fd5b6100d360048036038101906100ce9190611197565b61023a565b6040516100e091906112d0565b60405180910390f35b6100f16102e9565b6040516100fe9190611351565b60405180910390f35b610121600480360381019061011c9190611422565b61030f565b005b61012b6105b9565b005b61014760048036038101906101429190611422565b6105cd565b005b6101516108a8565b60405161015e91906114b2565b60405180910390f35b610181600480360381019061017c9190611197565b6108d1565b6040516101919493929190611580565b60405180910390f35b6101b460048036038101906101af9190611422565b6109cc565b005b6101d060048036038101906101cb91906115f8565b610b44565b005b6101ec60048036038101906101e79190611651565b610bc7565b005b61020860048036038101906102039190611752565b610c5e565b60405161021591906117ca565b60405180910390f35b610238600480360381019061023391906115f8565b610d16565b005b606060028260405161024c9190611833565b90815260200160405180910390206003018054806020026020016040519081016040528092919081815260200182805480156102dd57602002820191906000526020600020905b8160009054906101000a900473ffffffffffffffffffffffffffffffffffffffff1673ffffffffffffffffffffffffffffffffffffffff1681526020019060010190808311610293575b50505050509050919050565b600160009054906101000a900473ffffffffffffffffffffffffffffffffffffffff1681565b83838080601f016020809104026020016040519081016040528093929190818152602001838380828437600081840152601f19601f820116905080830192505050505050506002816040516103649190611833565b908152602001604051809103902060000160019054906101000a900473ffffffffffffffffffffffffffffffffffffffff1673ffffffffffffffffffffffffffffffffffffffff163373ffffffffffffffffffffffffffffffffffffffff16146103fa576040517f48430eda00000000000000000000000000000000000000000000000000000000815260040160405180910390fd5b6000600160009054906101000a900473ffffffffffffffffffffffffffffffffffffffff1673ffffffffffffffffffffffffffffffffffffffff1663093e983985856040518363ffffffff1660e01b8152600401610459929190611877565b60408051808303816000875af1158015610477573d6000803e3d6000fd5b505050506040513d601f19601f8201168201806040525081019061049b91906118e6565b915050600286866040516104b092919061194b565b9081526020016040518091039020600301819080600181540180825580915050600190039060005260206000200160009091909190916101000a81548173ffffffffffffffffffffffffffffffffffffffff021916908373ffffffffffffffffffffffffffffffffffffffff160217905550838390506002878760405161053892919061194b565b908152602001604051809103902060010160008282546105589190611993565b92505081905550858560405161056f92919061194b565b60405180910390207f4c4439fb488c666dfac05b75b1eaa33ddec20e80ade108bbfbf9a346101a17fa858590506040516105a991906119c7565b60405180910390a2505050505050565b6105c1610deb565b6105cb6000610e69565b565b83838080601f016020809104026020016040519081016040528093929190818152602001838380828437600081840152601f19601f82011690508083019250505050505050600073ffffffffffffffffffffffffffffffffffffffff1660028260405161063a9190611833565b908152602001604051809103902060000160019054906101000a900473ffffffffffffffffffffffffffffffffffffffff1673ffffffffffffffffffffffffffffffffffffffff16146106b9576040517f0d3c537600000000000000000000000000000000000000000000000000000000815260040160405180910390fd5b6040518060a001604052806000151581526020013373ffffffffffffffffffffffffffffffffffffffff1681526020016000815260200184848080601f016020809104026020016040519081016040528093929190818152602001838380828437600081840152601f19601f820116905080830192505050505050508152602001600067ffffffffffffffff8111156107555761075461106c565b5b6040519080825280602002602001820160405280156107835781602001602082028036833780820191505090505b508152506002868660405161079992919061194b565b908152602001604051809103902060008201518160000160006101000a81548160ff02191690831515021790555060208201518160000160016101000a81548173ffffffffffffffffffffffffffffffffffffffff021916908373ffffffffffffffffffffffffffffffffffffffff16021790555060408201518160010155606082015181600201908161082d9190611be4565b50608082015181600301908051906020019061084a929190610f96565b50905050848460405161085e92919061194b565b60405180910390207f35023683f3e2601679984b8499066b14c71937187f37bdb34221581a22792e0a33858560405161089993929190611cb6565b60405180910390a25050505050565b60008060009054906101000a900473ffffffffffffffffffffffffffffffffffffffff16905090565b6002818051602081018201805184825260208301602085012081835280955050505050506000915090508060000160009054906101000a900460ff16908060000160019054906101000a900473ffffffffffffffffffffffffffffffffffffffff169080600101549080600201805461094990611a11565b80601f016020809104026020016040519081016040528092919081815260200182805461097590611a11565b80156109c25780601f10610997576101008083540402835291602001916109c2565b820191906000526020600020905b8154815290600101906020018083116109a557829003601f168201915b5050505050905084565b83838080601f016020809104026020016040519081016040528093929190818152602001838380828437600081840152601f19601f82011690508083019250505050505050600281604051610a219190611833565b908152602001604051809103902060000160019054906101000a900473ffffffffffffffffffffffffffffffffffffffff1673ffffffffffffffffffffffffffffffffffffffff163373ffffffffffffffffffffffffffffffffffffffff1614610ab7576040517f48430eda00000000000000000000000000000000000000000000000000000000815260040160405180910390fd5b828260028787604051610acb92919061194b565b90815260200160405180910390206002019182610ae9929190611cf3565b508484604051610afa92919061194b565b60405180910390207fee4b871e75b741fc8f590502e8d6eef71a1fd737732e9586c2ebbd5c63f172fc338585604051610b3593929190611cb6565b60405180910390a25050505050565b610b4c610deb565b600073ffffffffffffffffffffffffffffffffffffffff168173ffffffffffffffffffffffffffffffffffffffff1603610bbb576040517f08c379a0000000000000000000000000000000000000000000000000000000008152600401610bb290611e46565b60405180910390fd5b610bc481610e69565b50565b610bcf610deb565b8060028484604051610be292919061194b565b908152602001604051809103902060000160006101000a81548160ff0219169083151502179055508282604051610c1a92919061194b565b60405180910390207fd5c4aa2b5240e0e08c3bbb0802a6dfcd8bc9967b86d7e94970e324fccf1e6d2b82604051610c519190611e66565b60405180910390a2505050565b6060610d0e600284604051610c739190611833565b9081526020016040518091039020600301805480602002602001604051908101604052809291908181526020018280548015610d0457602002820191906000526020600020905b8160009054906101000a900473ffffffffffffffffffffffffffffffffffffffff1673ffffffffffffffffffffffffffffffffffffffff1681526020019060010190808311610cba575b5050505050610f2d565b905092915050565b600073ffffffffffffffffffffffffffffffffffffffff16600160009054906101000a900473ffffffffffffffffffffffffffffffffffffffff1673ffffffffffffffffffffffffffffffffffffffff1614610da7576040517f08c379a0000000000000000000000000000000000000000000000000000000008152600401610d9e90611ecd565b60405180910390fd5b80600160006101000a81548173ffffffffffffffffffffffffffffffffffffffff021916908373ffffffffffffffffffffffffffffffffffffffff16021790555050565b610df3610f8e565b73ffffffffffffffffffffffffffffffffffffffff16610e116108a8565b73ffffffffffffffffffffffffffffffffffffffff1614610e67576040517f08c379a0000000000000000000000000000000000000000000000000000000008152600401610e5e90611f39565b60405180910390fd5b565b60008060009054906101000a900473ffffffffffffffffffffffffffffffffffffffff169050816000806101000a81548173ffffffffffffffffffffffffffffffffffffffff021916908373ffffffffffffffffffffffffffffffffffffffff1602179055508173ffffffffffffffffffffffffffffffffffffffff168173ffffffffffffffffffffffffffffffffffffffff167f8be0079c531659141344cd1fd0a4f28419497f9722a3daafe3b4186f6b6457e060405160405180910390a35050565b606081516020600060405193506000805b84811015610f71576020810260200187015191506001823b039250826001858801843c8284019350600181019050610f3e565b50602083038552601f19601f840116850160405250505050919050565b600033905090565b82805482825590600052602060002090810192821561100f579160200282015b8281111561100e5782518260006101000a81548173ffffffffffffffffffffffffffffffffffffffff021916908373ffffffffffffffffffffffffffffffffffffffff16021790555091602001919060010190610fb6565b5b50905061101c9190611020565b5090565b5b80821115611039576000816000905550600101611021565b5090565b6000604051905090565b600080fd5b600080fd5b600080fd5b600080fd5b6000601f19601f8301169050919050565b7f4e487b7100000000000000000000000000000000000000000000000000000000600052604160045260246000fd5b6110a48261105b565b810181811067ffffffffffffffff821117156110c3576110c261106c565b5b80604052505050565b60006110d661103d565b90506110e2828261109b565b919050565b600067ffffffffffffffff8211156111025761110161106c565b5b61110b8261105b565b9050602081019050919050565b82818337600083830152505050565b600061113a611135846110e7565b6110cc565b90508281526020810184848401111561115657611155611056565b5b611161848285611118565b509392505050565b600082601f83011261117e5761117d611051565b5b813561118e848260208601611127565b91505092915050565b6000602082840312156111ad576111ac611047565b5b600082013567ffffffffffffffff8111156111cb576111ca61104c565b5b6111d784828501611169565b91505092915050565b600081519050919050565b600082825260208201905092915050565b6000819050602082019050919050565b600073ffffffffffffffffffffffffffffffffffffffff82169050919050565b60006112378261120c565b9050919050565b6112478161122c565b82525050565b6000611259838361123e565b60208301905092915050565b6000602082019050919050565b600061127d826111e0565b61128781856111eb565b9350611292836111fc565b8060005b838110156112c35781516112aa888261124d565b97506112b583611265565b925050600181019050611296565b5085935050505092915050565b600060208201905081810360008301526112ea8184611272565b905092915050565b6000819050919050565b600061131761131261130d8461120c565b6112f2565b61120c565b9050919050565b6000611329826112fc565b9050919050565b600061133b8261131e565b9050919050565b61134b81611330565b82525050565b60006020820190506113666000830184611342565b92915050565b600080fd5b600080fd5b60008083601f84011261138c5761138b611051565b5b8235905067ffffffffffffffff8111156113a9576113a861136c565b5b6020830191508360018202830111156113c5576113c4611371565b5b9250929050565b60008083601f8401126113e2576113e1611051565b5b8235905067ffffffffffffffff8111156113ff576113fe61136c565b5b60208301915083600182028301111561141b5761141a611371565b5b9250929050565b6000806000806040858703121561143c5761143b611047565b5b600085013567ffffffffffffffff81111561145a5761145961104c565b5b61146687828801611376565b9450945050602085013567ffffffffffffffff8111156114895761148861104c565b5b611495878288016113cc565b925092505092959194509250565b6114ac8161122c565b82525050565b60006020820190506114c760008301846114a3565b92915050565b60008115159050919050565b6114e2816114cd565b82525050565b6000819050919050565b6114fb816114e8565b82525050565b600081519050919050565b600082825260208201905092915050565b60005b8381101561153b578082015181840152602081019050611520565b60008484015250505050565b600061155282611501565b61155c818561150c565b935061156c81856020860161151d565b6115758161105b565b840191505092915050565b600060808201905061159560008301876114d9565b6115a260208301866114a3565b6115af60408301856114f2565b81810360608301526115c18184611547565b905095945050505050565b6115d58161122c565b81146115e057600080fd5b50565b6000813590506115f2816115cc565b92915050565b60006020828403121561160e5761160d611047565b5b600061161c848285016115e3565b91505092915050565b61162e816114cd565b811461163957600080fd5b50565b60008135905061164b81611625565b92915050565b60008060006040848603121561166a57611669611047565b5b600084013567ffffffffffffffff8111156116885761168761104c565b5b61169486828701611376565b935093505060206116a78682870161163c565b9150509250925092565b600067ffffffffffffffff8211156116cc576116cb61106c565b5b6116d58261105b565b9050602081019050919050565b60006116f56116f0846116b1565b6110cc565b90508281526020810184848401111561171157611710611056565b5b61171c848285611118565b509392505050565b600082601f83011261173957611738611051565b5b81356117498482602086016116e2565b91505092915050565b6000806040838503121561176957611768611047565b5b600083013567ffffffffffffffff8111156117875761178661104c565b5b61179385828601611169565b925050602083013567ffffffffffffffff8111156117b4576117b361104c565b5b6117c085828601611724565b9150509250929050565b600060208201905081810360008301526117e48184611547565b905092915050565b600081519050919050565b600081905092915050565b600061180d826117ec565b61181781856117f7565b935061182781856020860161151d565b80840191505092915050565b600061183f8284611802565b915081905092915050565b6000611856838561150c565b9350611863838584611118565b61186c8361105b565b840190509392505050565b6000602082019050818103600083015261189281848661184a565b90509392505050565b6000819050919050565b6118ae8161189b565b81146118b957600080fd5b50565b6000815190506118cb816118a5565b92915050565b6000815190506118e0816115cc565b92915050565b600080604083850312156118fd576118fc611047565b5b600061190b858286016118bc565b925050602061191c858286016118d1565b9150509250929050565b600061193283856117f7565b935061193f838584611118565b82840190509392505050565b6000611958828486611926565b91508190509392505050565b7f4e487b7100000000000000000000000000000000000000000000000000000000600052601160045260246000fd5b600061199e826114e8565b91506119a9836114e8565b92508282019050808211156119c1576119c0611964565b5b92915050565b60006020820190506119dc60008301846114f2565b92915050565b7f4e487b7100000000000000000000000000000000000000000000000000000000600052602260045260246000fd5b60006002820490506001821680611a2957607f821691505b602082108103611a3c57611a3b6119e2565b5b50919050565b60008190508160005260206000209050919050565b60006020601f8301049050919050565b600082821b905092915050565b600060088302611aa47fffffffffffffffffffffffffffffffffffffffffffffffffffffffffffffffff82611a67565b611aae8683611a67565b95508019841693508086168417925050509392505050565b6000611ae1611adc611ad7846114e8565b6112f2565b6114e8565b9050919050565b6000819050919050565b611afb83611ac6565b611b0f611b0782611ae8565b848454611a74565b825550505050565b600090565b611b24611b17565b611b2f818484611af2565b505050565b5b81811015611b5357611b48600082611b1c565b600181019050611b35565b5050565b601f821115611b9857611b6981611a42565b611b7284611a57565b81016020851015611b81578190505b611b95611b8d85611a57565b830182611b34565b50505b505050565b600082821c905092915050565b6000611bbb60001984600802611b9d565b1980831691505092915050565b6000611bd48383611baa565b9150826002028217905092915050565b611bed82611501565b67ffffffffffffffff811115611c0657611c0561106c565b5b611c108254611a11565b611c1b828285611b57565b600060209050601f831160018114611c4e5760008415611c3c578287015190505b611c468582611bc8565b865550611cae565b601f198416611c5c86611a42565b60005b82811015611c8457848901518255600182019150602085019450602081019050611c5f565b86831015611ca15784890151611c9d601f891682611baa565b8355505b6001600288020188555050505b505050505050565b6000604082019050611ccb60008301866114a3565b8181036020830152611cde81848661184a565b9050949350505050565b600082905092915050565b611cfd8383611ce8565b67ffffffffffffffff811115611d1657611d1561106c565b5b611d208254611a11565b611d2b828285611b57565b6000601f831160018114611d5a5760008415611d48578287013590505b611d528582611bc8565b865550611dba565b601f198416611d6886611a42565b60005b82811015611d9057848901358255600182019150602085019450602081019050611d6b565b86831015611dad5784890135611da9601f891682611baa565b8355505b6001600288020188555050505b50505050505050565b600082825260208201905092915050565b7f4f776e61626c653a206e6577206f776e657220697320746865207a65726f206160008201527f6464726573730000000000000000000000000000000000000000000000000000602082015250565b6000611e30602683611dc3565b9150611e3b82611dd4565b604082019050919050565b60006020820190508181036000830152611e5f81611e23565b9050919050565b6000602082019050611e7b60008301846114d9565b92915050565b7f416c726561647920696e697469616c697a656400000000000000000000000000600082015250565b6000611eb7601383611dc3565b9150611ec282611e81565b602082019050919050565b60006020820190508181036000830152611ee681611eaa565b9050919050565b7f4f776e61626c653a2063616c6c6572206973206e6f7420746865206f776e6572600082015250565b6000611f23602083611dc3565b9150611f2e82611eed565b602082019050919050565b60006020820190508181036000830152611f5281611f16565b905091905056fea2646970667358221220dc8e2ac77fabe37a91229596156692d4a24b605914caa6027cfafd16c2a863b064736f6c63430008110033",
  "linkReferences": {},
  "deployedLinkReferences": {}
}